{"contracts/LoanChainV2.sol":{"LoanChainV2":{"abi":[{"inputs":[],"stateMutability":"nonpayable","type":"constructor"},{"inputs":[{"internalType":"address","name":"owner","type":"address"}],"name":"OwnableInvalidOwner","type":"error"},{"inputs":[{"internalType":"address","name":"account","type":"address"}],"name":"OwnableUnauthorizedAccount","type":"error"},{"inputs":[],"name":"ReentrancyGuardReentrantCall","type":"error"},{"inputs":[{"internalType":"address","name":"token","type":"address"}],"name":"SafeERC20FailedOperation","type":"error"},{"anonymous":false,"inputs":[{"indexed":true,"internalType":"uint256","name":"loanId","type":"uint256"},{"indexed":true,"internalType":"address","name":"lender","type":"address"},{"indexed":false,"internalType":"uint256","name":"amount","type":"uint256"}],"name":"InsuranceClaimed","type":"event"},{"anonymous":false,"inputs":[{"indexed":true,"internalType":"uint256","name":"loanId","type":"uint256"},{"indexed":true,"internalType":"enum LoanChainV2.TokenType","name":"token","type":"uint8"},{"indexed":false,"internalType":"uint256","name":"amount","type":"uint256"}],"name":"InsuranceFeeCollected","type":"event"},{"anonymous":false,"inputs":[{"indexed":true,"internalType":"enum LoanChainV2.TokenType","name":"token","type":"uint8"},{"indexed":false,"internalType":"uint256","name":"amount","type":"uint256"}],"name":"InsurancePoolContribution","type":"event"},{"anonymous":false,"inputs":[{"indexed":true,"internalType":"uint256","name":"loanId","type":"uint256"},{"indexed":false,"internalType":"uint256","name":"totalFunded","type":"uint256"},{"indexed":false,"internalType":"uint256","name":"fundedAt","type":"uint256"}],"name":"LoanFullyFunded","type":"event"},{"anonymous":false,"inputs":[{"indexed":true,"internalType":"uint256","name":"loanId","type":"uint256"},{"indexed":true,"internalType":"address","name":"lender","type":"address"},{"indexed":false,"internalType":"uint256","name":"amount","type":"uint256"},{"indexed":false,"internalType":"uint256","name":"totalFunded","type":"uint256"}],"name":"LoanPartiallyFunded","type":"event"},{"anonymous":false,"inputs":[{"indexed":true,"internalType":"uint256","name":"loanId","type":"uint256"},{"indexed":true,"internalType":"address","name":"borrower","type":"address"},{"indexed":false,"internalType":"uint256","name":"totalRepaidAmount","type":"uint256"}],"name":"LoanRepaid","type":"event"},{"anonymous":false,"inputs":[{"indexed":true,"internalType":"uint256","name":"loanId","type":"uint256"},{"indexed":true,"internalType":"address","name":"borrower","type":"address"},{"indexed":false,"internalType":"uint256","name":"totalAmount","type":"uint256"},{"indexed":false,"internalType":"enum LoanChainV2.TokenType","name":"loanToken","type":"uint8"},{"indexed":false,"internalType":"enum LoanChainV2.TokenType","name":"collateralToken","type":"uint8"},{"indexed":false,"internalType":"uint256","name":"collateralAmount","type":"uint256"},{"indexed":false,"internalType":"uint256","name":"interestRate","type":"uint256"},{"indexed":false,"internalType":"uint256","name":"duration","type":"uint256"},{"indexed":false,"internalType":"bool","name":"isVariableRate","type":"bool"}],"name":"LoanRequested","type":"event"},{"anonymous":false,"inputs":[{"indexed":true,"internalType":"address","name":"previousOwner","type":"address"},{"indexed":true,"internalType":"address","name":"newOwner","type":"address"}],"name":"OwnershipTransferred","type":"event"},{"anonymous":false,"inputs":[{"indexed":true,"internalType":"uint256","name":"loanId","type":"uint256"},{"indexed":true,"internalType":"address","name":"lender","type":"address"},{"indexed":false,"internalType":"uint256","name":"repaidAmount","type":"uint256"}],"name":"PartialRepayment","type":"event"},{"anonymous":false,"inputs":[{"indexed":true,"internalType":"address","name":"oracle","type":"address"},{"indexed":false,"internalType":"bool","name":"approved","type":"bool"}],"name":"PriceOracleUpdated","type":"event"},{"anonymous":false,"inputs":[{"indexed":true,"internalType":"enum LoanChainV2.TokenType","name":"tokenType","type":"uint8"},{"indexed":false,"internalType":"uint256","name":"newPrice","type":"uint256"}],"name":"PriceUpdated","type":"event"},{"anonymous":false,"inputs":[{"indexed":true,"internalType":"enum LoanChainV2.TokenType","name":"tokenType","type":"uint8"},{"indexed":true,"internalType":"address","name":"contractAddress","type":"address"}],"name":"TokenAdded","type":"event"},{"inputs":[],"name":"CLAIM_GRACE_PERIOD","outputs":[{"internalType":"uint256","name":"","type":"uint256"}],"stateMutability":"view","type":"function"},{"inputs":[],"name":"INSURANCE_RATE","outputs":[{"internalType":"uint256","name":"","type":"uint256"}],"stateMutability":"view","type":"function"},{"inputs":[],"name":"MAX_INTEREST_RATE","outputs":[{"internalType":"uint256","name":"","type":"uint256"}],"stateMutability":"view","type":"function"},{"inputs":[],"name":"MAX_LOAN_DURATION","outputs":[{"internalType":"uint256","name":"","type":"uint256"}],"stateMutability":"view","type":"function"},{"inputs":[],"name":"MIN_COLLATERAL_RATIO","outputs":[{"internalType":"uint256","name":"","type":"uint256"}],"stateMutability":"view","type":"function"},{"inputs":[],"name":"MIN_LOAN_DURATION","outputs":[{"internalType":"uint256","name":"","type":"uint256"}],"stateMutability":"view","type":"function"},{"inputs":[{"internalType":"enum LoanChainV2.TokenType","name":"_tokenType","type":"uint8"},{"internalType":"address","name":"_contractAddress","type":"address"},{"internalType":"uint8","name":"_decimals","type":"uint8"},{"internalType":"uint256","name":"_minLoanAmount","type":"uint256"},{"internalType":"uint256","name":"_maxLoanAmount","type":"uint256"}],"name":"addSupportedToken","outputs":[],"stateMutability":"nonpayable","type":"function"},{"inputs":[{"internalType":"address","name":"","type":"address"},{"internalType":"uint256","name":"","type":"uint256"}],"name":"borrowerLoans","outputs":[{"internalType":"uint256","name":"","type":"uint256"}],"stateMutability":"view","type":"function"},{"inputs":[{"internalType":"enum LoanChainV2.TokenType","name":"_tokenType","type":"uint8"},{"internalType":"uint256","name":"_amount","type":"uint256"}],"name":"calculateUSDValue","outputs":[{"internalType":"uint256","name":"","type":"uint256"}],"stateMutability":"view","type":"function"},{"inputs":[{"internalType":"uint256","name":"_loanId","type":"uint256"}],"name":"claimInsurance","outputs":[],"stateMutability":"nonpayable","type":"function"},{"inputs":[{"internalType":"enum LoanChainV2.TokenType","name":"_tokenType","type":"uint8"},{"internalType":"uint256","name":"_amount","type":"uint256"}],"name":"contributeToInsurancePool","outputs":[],"stateMutability":"payable","type":"function"},{"inputs":[{"internalType":"uint256","name":"_loanId","type":"uint256"},{"internalType":"uint256","name":"_amount","type":"uint256"}],"name":"fundLoan","outputs":[],"stateMutability":"payable","type":"function"},{"inputs":[],"name":"getActiveLoanRequests","outputs":[{"internalType":"uint256[]","name":"","type":"uint256[]"}],"stateMutability":"view","type":"function"},{"inputs":[{"internalType":"enum LoanChainV2.TokenType","name":"_tokenType","type":"uint8"}],"name":"getInsurancePoolBalance","outputs":[{"internalType":"uint256","name":"","type":"uint256"}],"stateMutability":"view","type":"function"},{"inputs":[{"internalType":"uint256","name":"_loanId","type":"uint256"},{"internalType":"address","name":"_lender","type":"address"}],"name":"getInsuranceStatus","outputs":[{"internalType":"bool","name":"hasInsurance","type":"bool"},{"internalType":"uint256","name":"insuranceFee","type":"uint256"},{"internalType":"bool","name":"isClaimed","type":"bool"},{"internalType":"bool","name":"canClaim","type":"bool"}],"stateMutability":"view","type":"function"},{"inputs":[{"internalType":"uint256","name":"_loanId","type":"uint256"}],"name":"getLoan","outputs":[{"components":[{"internalType":"uint256","name":"id","type":"uint256"},{"internalType":"address","name":"borrower","type":"address"},{"internalType":"address[]","name":"lenders","type":"address[]"},{"internalType":"uint256[]","name":"lenderAmounts","type":"uint256[]"},{"internalType":"uint256","name":"totalAmount","type":"uint256"},{"internalType":"uint256","name":"totalFunded","type":"uint256"},{"internalType":"enum LoanChainV2.TokenType","name":"loanToken","type":"uint8"},{"internalType":"enum LoanChainV2.TokenType","name":"collateralToken","type":"uint8"},{"internalType":"uint256","name":"collateralAmount","type":"uint256"},{"internalType":"uint256","name":"interestRate","type":"uint256"},{"internalType":"bool","name":"isVariableRate","type":"bool"},{"internalType":"uint256","name":"duration","type":"uint256"},{"internalType":"uint256","name":"createdAt","type":"uint256"},{"internalType":"uint256","name":"fundedAt","type":"uint256"},{"internalType":"uint256","name":"dueDate","type":"uint256"},{"internalType":"enum LoanChainV2.LoanStatus","name":"status","type":"uint8"},{"internalType":"bool","name":"collateralClaimed","type":"bool"},{"internalType":"uint256","name":"riskScore","type":"uint256"},{"internalType":"bool","name":"hasInsurance","type":"bool"},{"internalType":"uint256","name":"insuranceFee","type":"uint256"}],"internalType":"struct LoanChainV2.Loan","name":"","type":"tuple"}],"stateMutability":"view","type":"function"},{"inputs":[{"internalType":"enum LoanChainV2.TokenType","name":"_tokenType","type":"uint8"}],"name":"getSupportedToken","outputs":[{"components":[{"internalType":"address","name":"contractAddress","type":"address"},{"internalType":"enum LoanChainV2.TokenType","name":"tokenType","type":"uint8"},{"internalType":"uint8","name":"decimals","type":"uint8"},{"internalType":"bool","name":"isActive","type":"bool"},{"internalType":"uint256","name":"minLoanAmount","type":"uint256"},{"internalType":"uint256","name":"maxLoanAmount","type":"uint256"}],"internalType":"struct LoanChainV2.Token","name":"","type":"tuple"}],"stateMutability":"view","type":"function"},{"inputs":[{"internalType":"enum LoanChainV2.TokenType","name":"_tokenType","type":"uint8"}],"name":"getTokenPrice","outputs":[{"internalType":"uint256","name":"","type":"uint256"}],"stateMutability":"view","type":"function"},{"inputs":[{"internalType":"enum LoanChainV2.TokenType","name":"_tokenType","type":"uint8"}],"name":"getTokenPriceInfo","outputs":[{"internalType":"uint256","name":"price","type":"uint256"},{"internalType":"uint256","name":"lastUpdate","type":"uint256"},{"internalType":"uint256","name":"source1","type":"uint256"},{"internalType":"uint256","name":"source2","type":"uint256"},{"internalType":"uint256","name":"updateCount","type":"uint256"},{"internalType":"bool","name":"isStale","type":"bool"}],"stateMutability":"view","type":"function"},{"inputs":[{"internalType":"uint256","name":"","type":"uint256"},{"internalType":"address","name":"","type":"address"}],"name":"hasClaimedInsurance","outputs":[{"internalType":"bool","name":"","type":"bool"}],"stateMutability":"view","type":"function"},{"inputs":[{"internalType":"enum LoanChainV2.TokenType","name":"","type":"uint8"}],"name":"insurancePools","outputs":[{"internalType":"uint256","name":"","type":"uint256"}],"stateMutability":"view","type":"function"},{"inputs":[{"internalType":"address","name":"","type":"address"}],"name":"lenderInsuranceContributions","outputs":[{"internalType":"uint256","name":"","type":"uint256"}],"stateMutability":"view","type":"function"},{"inputs":[{"internalType":"address","name":"","type":"address"},{"internalType":"uint256","name":"","type":"uint256"}],"name":"lenderLoans","outputs":[{"internalType":"uint256","name":"","type":"uint256"}],"stateMutability":"view","type":"function"},{"inputs":[{"internalType":"uint256","name":"","type":"uint256"},{"internalType":"address","name":"","type":"address"}],"name":"lenderPositions","outputs":[{"internalType":"address","name":"lender","type":"address"},{"internalType":"uint256","name":"amount","type":"uint256"},{"internalType":"uint256","name":"fundedAt","type":"uint256"},{"internalType":"bool","name":"repaid","type":"bool"},{"internalType":"uint256","name":"repaidAmount","type":"uint256"}],"stateMutability":"view","type":"function"},{"inputs":[{"internalType":"uint256","name":"","type":"uint256"}],"name":"loans","outputs":[{"internalType":"uint256","name":"id","type":"uint256"},{"internalType":"address","name":"borrower","type":"address"},{"internalType":"uint256","name":"totalAmount","type":"uint256"},{"internalType":"uint256","name":"totalFunded","type":"uint256"},{"internalType":"enum LoanChainV2.TokenType","name":"loanToken","type":"uint8"},{"internalType":"enum LoanChainV2.TokenType","name":"collateralToken","type":"uint8"},{"internalType":"uint256","name":"collateralAmount","type":"uint256"},{"internalType":"uint256","name":"interestRate","type":"uint256"},{"internalType":"bool","name":"isVariableRate","type":"bool"},{"internalType":"uint256","name":"duration","type":"uint256"},{"internalType":"uint256","name":"createdAt","type":"uint256"},{"internalType":"uint256","name":"fundedAt","type":"uint256"},{"internalType":"uint256","name":"dueDate","type":"uint256"},{"internalType":"enum LoanChainV2.LoanStatus","name":"status","type":"uint8"},{"internalType":"bool","name":"collateralClaimed","type":"bool"},{"internalType":"uint256","name":"riskScore","type":"uint256"},{"internalType":"bool","name":"hasInsurance","type":"bool"},{"internalType":"uint256","name":"insuranceFee","type":"uint256"}],"stateMutability":"view","type":"function"},{"inputs":[],"name":"nextLoanId","outputs":[{"internalType":"uint256","name":"","type":"uint256"}],"stateMutability":"view","type":"function"},{"inputs":[],"name":"owner","outputs":[{"internalType":"address","name":"","type":"address"}],"stateMutability":"view","type":"function"},{"inputs":[{"internalType":"address","name":"","type":"address"}],"name":"priceOracles","outputs":[{"internalType":"bool","name":"","type":"bool"}],"stateMutability":"view","type":"function"},{"inputs":[],"name":"renounceOwnership","outputs":[],"stateMutability":"nonpayable","type":"function"},{"inputs":[{"internalType":"uint256","name":"_totalAmount","type":"uint256"},{"internalType":"enum LoanChainV2.TokenType","name":"_loanToken","type":"uint8"},{"internalType":"enum LoanChainV2.TokenType","name":"_collateralToken","type":"uint8"},{"internalType":"uint256","name":"_collateralAmount","type":"uint256"},{"internalType":"uint256","name":"_interestRate","type":"uint256"},{"internalType":"uint256","name":"_duration","type":"uint256"},{"internalType":"bool","name":"_isVariableRate","type":"bool"},{"internalType":"bool","name":"_hasInsurance","type":"bool"}],"name":"requestLoan","outputs":[],"stateMutability":"payable","type":"function"},{"inputs":[{"internalType":"address","name":"_oracle","type":"address"},{"internalType":"bool","name":"_approved","type":"bool"}],"name":"setPriceOracle","outputs":[],"stateMutability":"nonpayable","type":"function"},{"inputs":[{"internalType":"enum LoanChainV2.TokenType","name":"","type":"uint8"}],"name":"supportedTokens","outputs":[{"internalType":"address","name":"contractAddress","type":"address"},{"internalType":"enum LoanChainV2.TokenType","name":"tokenType","type":"uint8"},{"internalType":"uint8","name":"decimals","type":"uint8"},{"internalType":"bool","name":"isActive","type":"bool"},{"internalType":"uint256","name":"minLoanAmount","type":"uint256"},{"internalType":"uint256","name":"maxLoanAmount","type":"uint256"}],"stateMutability":"view","type":"function"},{"inputs":[{"internalType":"enum LoanChainV2.TokenType","name":"","type":"uint8"}],"name":"tokenPrices","outputs":[{"internalType":"uint256","name":"price","type":"uint256"},{"internalType":"uint256","name":"lastUpdate","type":"uint256"},{"internalType":"uint256","name":"priceSource1","type":"uint256"},{"internalType":"uint256","name":"priceSource2","type":"uint256"},{"internalType":"uint256","name":"updateCount","type":"uint256"}],"stateMutability":"view","type":"function"},{"inputs":[{"internalType":"address","name":"newOwner","type":"address"}],"name":"transferOwnership","outputs":[],"stateMutability":"nonpayable","type":"function"},{"inputs":[{"internalType":"enum LoanChainV2.TokenType","name":"_tokenType","type":"uint8"},{"internalType":"uint256","name":"_price1","type":"uint256"},{"internalType":"uint256","name":"_price2","type":"uint256"}],"name":"updateTokenPrice","outputs":[],"stateMutability":"nonpayable","type":"function"}],"evm":{"bytecode":{"linkReferences":{},"object":"608060409080825234620002c0576001906000908282553315620002ac57508154336001600160a01b03198216811784556001600160a01b039182167f8be0079c531659141344cd1fd0a4f28419497f9722a3daafe3b4186f6b6457e08480a360028381558451919060c083016001600160401b03811184821017620002985786528383526020928381018581528782016012815260608301908882526080840191662386f26fc10000835260a0850193683635c9adc5dea000008552898052600397888a528c8b209651168654915193600585101562000284575192516001600160b81b03199092161760a09390931b60ff60a01b169290921760a89190911b60ff60a81b161790151560b01b60ff60b01b1617835551878301555190820155859392600992909160049062000135620002c5565b82643a35294400808352868301904282528a84018181526060850191825260808501928d84528b805260088a528c8c2095518655518d860155518585015551868401555191015562000186620002c5565b926305f5e100938481528386898b8d838601428152828701928b845260608801948c8652600860808a019785895285835252209651875551908601555186850155518484015551910155620001da620002c5565b8481524286820190815289820186815260608301878152608084018d8152868c5260088a528c8c20945185559251848e01559051838601555183830155519084015562000226620002c5565b93808552858501924284528986018281526060870192835260808701948c8652848b52600889528b8b2097518855518c880155519086015551908401555191015533835252209060ff1982541617905551612f829081620002fc8239f35b634e487b7160e01b8c52602160045260248cfd5b634e487b7160e01b85526041600452602485fd5b602491631e4fbdf760e01b82526004820152fd5b600080fd5b6040519060a082016001600160401b03811183821017620002e557604052565b634e487b7160e01b600052604160045260246000fdfe60a0604052600436101561001257600080fd5b60003560e01c8062b752ca1461276e578063013745181461272f5780630d0b2ca61461271057806318fa96de146126d65780631988a684146119015780632e2106af146126b85780632ffc204b146125a657806334855d14146125895780633cdb72f11461253f5780633f572d36146124c05780634dd9cccc146121ce578063504006ca14611e10578063626066cc14611dc3578063715018a614611d665780637a9fffb714611d4a57806382626d6b14611d2e578063858a9ea014611ca657806387c5145914611c8857806389d99a0514611c6b5780638da5cb5b14611c425780639772d7ee14611b30578063ad8d013814611ab5578063b0b3ca4714611932578063b59d17ab14611901578063c7fc132514611868578063d42c4c5314611778578063d89e8c1c146116f8578063deceafa71461169b578063e1ec3c681461154c578063e3ed1902146114f4578063f2fde38b1461146b578063f4512bb614610f4f578063f498c9cc14610672578063f85920d8146101c25763fe6993b81461019c57600080fd5b346101bd5760206101b56101af366129f2565b90612b7a565b604051908152f35b600080fd5b346101bd576020806003193601126101bd576004356101df612e01565b80600052600482526040600020916101f983541515612e24565b60ff9081600e8501541660068110156103cf576004036106365781601085015416156105f25782600052600b81526040600020336000528152816040600020541661059d57600d84015462093a80810180911161058757421061054a576000936000946000600283018054915b8281106104ee57505050156104a957841561046f57600681019061028c8483541661292b565b5495861561042a579060046102a96102b293601184015490612b16565b91015490612ae9565b9485116103e557829084600052600b835260406000203360005283526040600020600160ff198254161790556102ea8282541661292b565b6102f5878254612b09565b9055541660058110156103cf57847f9575558b5d6ac5e60a8a8ad59be28fbdca3803658e380fdea5d922214559f8cd93821560001461035b575061034b9150600080808093335af1610345612e66565b50612ea6565b6040519384523393a36001600055005b6103676103ca93612944565b9060026040519261037784612a3d565b80546001600160a01b038082168652939061039a60a082901c83168a8801612ad0565b818160a81c16604087015260b01c161515606085015260018101546080850152015460a083015233915116612ee8565b61034b565b634e487b7160e01b600052602160045260246000fd5b60405162461bcd60e51b815260048101839052601c60248201527f496e73756666696369656e7420696e737572616e63652066756e6473000000006044820152606490fd5b60405162461bcd60e51b815260048101859052601c60248201527f4e6f20696e737572616e63652066756e647320617661696c61626c65000000006044820152606490fd5b60405162461bcd60e51b81526004810183905260126024820152714e6f20616d6f756e7420746f20636c61696d60701b6044820152606490fd5b60405162461bcd60e51b815260048101839052601960248201527f4e6f742061206c656e646572206f6e2074686973206c6f616e000000000000006044820152606490fd5b6104f88183612976565b9054600391821b1c6001600160a01b0316331461051f575b5061051a90612b29565b610266565b93509761054361051a916001956105388c828a01612976565b9054911b1c90612adc565b9890610510565b6064906040519062461bcd60e51b82526004820152601660248201527511dc9858d9481c195c9a5bd9081b9bdd08195b99195960521b6044820152fd5b634e487b7160e01b600052601160045260246000fd5b6084906040519062461bcd60e51b82526004820152602860248201527f496e737572616e636520616c726561647920636c61696d65642062792074686960448201526739903632b73232b960c11b6064820152fd5b6064906040519062461bcd60e51b82526004820152601c60248201527f4c6f616e20646f6573206e6f74206861766520696e737572616e6365000000006044820152fd5b6064906040519062461bcd60e51b825260048201526015602482015274131bd85b881a5cc81b9bdd08191959985d5b1d1959605a1b6044820152fd5b6101003660031901126101bd5760056024351015806101bd57600560443510156101bd5760c4359081151582036101bd5760e435151560e435036101bd576106b8612e01565b60043515610eff57610bb860843511610ec157610e1060a435101580610eb1575b15610e795760ff6106eb602435612944565b5460b01c1615610e345760ff610702604435612944565b5460b01c1615610def5761071a600435602435612b7a565b610728606435604435612b7a565b90607881029080820460781490151715610587576064900411610daa576002549061075282612b29565b60025560009060e435610d87575b604435610c885760643560e4358281610c78575b50610c66575b3403610bf1575b60e435610b1d575b506040519061079782612a92565b600082526040516107a781612a92565b60008152604051926107b884612a59565b848452336020850152604084015260608301526004356080830152600060a08301526107e960243560c08401612ad0565b6107f860443560e08401612ad0565b60643561010083015260843561012083015283151561014083015260a4356101608301524261018083015260006101a083015260006101c083015260006101e083015260006102008301526101f461022083015260e4351515610240830152610260820152816000526004602052604060002090805182556001820160018060a01b036020830151166001600160601b0360a01b825416179055604081015180519067ffffffffffffffff8211610aea57600160401b8211610aea57602060028501916108ca84845481865585612ce7565b0190600052602060002060005b838110610b005750505050606081015180519067ffffffffffffffff8211610aea57600160401b8211610aea576020600385019161091a84845481865585612ce7565b0190600052602060002060005b838110610ad657505050506080810151600483015560a0810151600583015560c081015160058110156103cf57600683015460e083015160058110156103cf5761ff0060ff9160081b1692169061ffff191617176006830155610100810151600783015561012081015160088301556109b66101408201511515600984019060ff801983541691151516179055565b610160810151600a830155610180810151600b8301556101a0810151600c8301556101c0810151600d8301556101e081015160068110156103cf5760119161026091600e850190815460ff61ff00610200860151151560081b1692169061ffff191617179055610220810151600f850155610a476102408201511515601086019060ff801983541691151516179055565b0151910155336000526006602052610a63816040600020612d1b565b604051916004358352610a7b602084016024356129a4565b610a8a604084016044356129a4565b6064356060840152608435608084015260a43560a0840152151560c08301527fabdb66e6184682b23b47b8b6a7923f5b99d0155e0155200bda4753d7e784699e60e03393a36001600055005b600190602084519401938184015501610927565b634e487b7160e01b600052604160045260246000fd5b82516001600160a01b0316818301556020909201916001016108d7565b6103cf57602435610b76575b610b3460243561292b565b610b3f828254612adc565b9055604051818152827f4c87e05722f69fee95be0764a567cb86600aae646a205352052c4b1a8723a069602060243593a383610789565b610bec81610b85602435612944565b604051610b9181612a3d565b81546001600160a01b0380821683529260029160ff90610bba60a082901c831660208701612ad0565b818160a81c16604086015260b01c161515606084015260018101546080840152015460a0820152511630903390612d50565b610b29565b60405162461bcd60e51b815260206004820152604160248201527f4554482073656e74206d757374206d6174636820636f6c6c61746572616c207060448201527f6c757320696e737572616e63652066656520286966206170706c696361626c656064820152602960f81b608482015260a490fd5b50610c7382606435612adc565b61077a565b90506103cf576024351582610774565b60e43580610d7a575b15610d6b57813403610d1c575b610d17610cac604435612944565b604051610cb881612a3d565b81546001600160a01b0380821683529260029160ff90610ce160a082901c831660208701612ad0565b818160a81c16604086015260b01c161515606084015260018101546080840152015460a082015251166064359030903390612d50565b610781565b60405162461bcd60e51b815260206004820152602160248201527f4d7573742073656e642065786163742045544820696e737572616e63652066656044820152606560f81b6064820152608490fd5b610d753415612c59565b610c9e565b5050600060243515610c91565b905060043560646004350204606403610587576127106064600435020490610760565b60405162461bcd60e51b815260206004820152601760248201527f496e73756666696369656e7420636f6c6c61746572616c0000000000000000006044820152606490fd5b60405162461bcd60e51b815260206004820152601e60248201527f436f6c6c61746572616c20746f6b656e206e6f7420737570706f7274656400006044820152606490fd5b60405162461bcd60e51b815260206004820152601860248201527f4c6f616e20746f6b656e206e6f7420737570706f7274656400000000000000006044820152606490fd5b60405162461bcd60e51b815260206004820152601060248201526f24b73b30b634b210323ab930ba34b7b760811b6044820152606490fd5b506301e1338060a43511156106d9565b60405162461bcd60e51b8152602060048201526016602482015275092dce8cae4cae6e840e4c2e8ca40e8dede40d0d2ced60531b6044820152606490fd5b60405162461bcd60e51b815260206004820152602260248201527f4c6f616e20616d6f756e74206d7573742062652067726561746572207468616e604482015261020360f41b6064820152608490fd5b60403660031901126101bd57610f63612e01565b6004356000526004602052604060002060018060a01b03600182015416610f8b811515612e24565b60ff600e8301541660068110156103cf578015908115611460575b50156114265733146113e1576024351561138e57610fca6024356005830154612adc565b6004820154106113535760ff60068201541660058110156103cf57806112d05750602435340361128b575b60405161100181612a76565b3381526004602082016024358152611086604084014281526060850190600082526080860193600085528535600052600560205260406000203360005260205260406000209660018060a01b039051166001600160601b0360a01b885416178755516001870155516002860155511515600385019060ff801983541691151516179055565b519101556002810154600160401b811015610aea578060016110b19201600284015560028301612976565b81549060031b9033821b9160018060a01b03901b19161790556110d960243560038301612d1b565b6110e96024356005830154612adc565b60058201553360005260076020526111076004356040600020612d1b565b60058101546004820154811061123d5750600160ff19600e8301541617600e82015542600c82015561113d600a82015442612adc565b600d82015560ff6006820154169060018060a01b03600182015416600482015460058410156103cf57600593806111c15750600080808093611183955af1610345612e66565b01546040519081524260208201527fb96bada2a4e2e402aaa472b5e783a9d8bb13d996387df6beea608680b31ff46f604060043592a25b6001600055005b916111ce61123893612944565b6002604051916111dd83612a3d565b80546001600160a01b038116845260ff9061120160a082901c831660208701612ad0565b60a881901c8216604086015260b01c161515606084015260018101546080840152015460a0820152516001600160a01b0316612ee8565b611183565b90600e600260ff19828401541617910155604051906024358252602082015233907f73a9841ee04f39f41b73f9432c749617285427e60f2fbe3a1bf5a5ef2e6b16cb604060043592a36111ba565b60405162461bcd60e51b815260206004820152601960248201527f496e636f72726563742045544820616d6f756e742073656e74000000000000006044820152606490fd5b6112dc61134e91612944565b6002604051916112eb83612a3d565b80546001600160a01b038116845260ff9061130f60a082901c831660208701612ad0565b60a881901c8216604086015260b01c161515606084015260018101546080840152015460a08201525160243590309033906001600160a01b0316612d50565b610ff5565b60405162461bcd60e51b8152602060048201526013602482015272115e18d959591cc81b1bd85b88185b5bdd5b9d606a1b6044820152606490fd5b60405162461bcd60e51b815260206004820152602560248201527f46756e64696e6720616d6f756e74206d75737420626520677265617465722074604482015264068616e20360dc1b6064820152608490fd5b60405162461bcd60e51b815260206004820152601960248201527f43616e6e6f742066756e6420796f7572206f776e206c6f616e000000000000006044820152606490fd5b60405162461bcd60e51b81526020600482015260126024820152714c6f616e206e6f7420617661696c61626c6560701b6044820152606490fd5b600291501483610fa6565b346101bd5760203660031901126101bd57611484612915565b61148c612a11565b6001600160a01b039081169081156114db57600154826001600160601b0360a01b821617600155167f8be0079c531659141344cd1fd0a4f28419497f9722a3daafe3b4186f6b6457e0600080a3005b604051631e4fbdf760e01b815260006004820152602490fd5b346101bd5760403660031901126101bd5761150d612915565b6001600160a01b03166000908152600660205260409020805460243591908210156101bd5760209161153e91612976565b90546040519160031b1c8152f35b346101bd5760203660031901126101bd576004356000526004602052604060002080549080600160a01b6001900360018201541660048201546005830154600684015460078501546008860154600987015460ff1690600a88015492600b89015494600c8a015496600d8b015498600e8c01549a600f8d01549c6010015460ff169d601101549e604051806080525260805160200152608051604001526080516060015260805160800160ff821690611604916129a4565b60805160a0019060081c60ff169061161b916129a4565b60805160c0015260805160e001521515608051610100015260805161012001526080516101400152608051610160015260805161018001526080516101a00160ff821690611668916129e5565b60081c60ff1615156080516101c001526080516101e0015215156080516102000152608051610220015260805161024090f35b346101bd5760203660031901126101bd5760043560058110156101bd576116c360a09161295d565b805490600181015490600281015460046003830154920154926040519485526020850152604084015260608301526080820152f35b346101bd5760203660031901126101bd5760043560058110156101bd5761172060209161295d565b61176f610e106117686040519361173685612a76565b805485526004600182015491828888015260028101546040880152600381015460608801520154608086015242612b09565b1115612b38565b51604051908152f35b346101bd5760203660031901126101bd5760043560058110156101bd576117cd60c091600060a06040516117ab81612a3d565b8281528260208201528260408201528260608201528260808201520152612944565b604051906117da82612a3d565b80546001600160a01b038082168452919060ff6020850161180160a084901c831682612ad0565b61184b6040870191838560a81c16835283606089019560b01c1615158552600260018701549660808a0197885201549660a0890197885260405198511688525160208801906129a4565b5116604085015251151560608401525160808301525160a0820152f35b346101bd5760203660031901126101bd5760043560058110156101bd5761189060c09161295d565b60405161189c81612a76565b6080825492838352600181015492836020820152600282015490816040820152600460038401549384606084015201549384910152610e106118de8542612b09565b1193604051958652602086015260408501526060840152608083015260a0820152f35b346101bd5760203660031901126101bd5760043560058110156101bd5761192960209161292b565b54604051908152f35b61193b366129f2565b611943612e01565b8015611a705760058210156103cf57816119fc578034036119c15760207f6fa38037a90881b4bc2d0759bcac6c48179affdd02749ff4474eac352d847b36915b61198c8461292b565b611997828254612adc565b905533600052600c825260406000206119b1828254612adc565b9055604051908152a26001600055005b60405162461bcd60e51b815260206004820152601360248201527208aa89040c2dadeeadce840dad2e6dac2e8c6d606b1b6044820152606490fd5b60207f6fa38037a90881b4bc2d0759bcac6c48179affdd02749ff4474eac352d847b3691611a2a3415612c59565b611a6b81611a3786612944565b604051611a4381612a3d565b81546001600160a01b0380821683529260029160ff90610bba60a082901c83168b8701612ad0565b611983565b60405162461bcd60e51b815260206004820152601760248201527f416d6f756e74206d75737420626520706f7369746976650000000000000000006044820152606490fd5b346101bd5760403660031901126101bd5760a0611ad06128ff565b60043560005260056020526040600020600180841b03809216600052602052604060002090815416906001810154906002810154600460ff6003840154169201549260405194855260208501526040840152151560608301526080820152f35b346101bd5760003660031901126101bd5760028054600019810181811161058757611b5a90612cb5565b9160009160015b818110611bbd57505050611b7481612cb5565b9160005b828110611b995760405160208082528190611b95908201876129b1565b0390f35b80611ba7611bb89284612f38565b51611bb28287612f38565b52612b29565b611b78565b8060005260206004815260ff600e908082604060002001541691600692838110156103cf5715938415611c1d575b50505050611c02575b611bfd90612b29565b611b61565b92611c158185611bb2611bfd9489612f38565b939050611bf4565b600086815260049091526040902001541691508110156103cf57831486808080611beb565b346101bd5760003660031901126101bd576001546040516001600160a01b039091168152602090f35b346101bd5760003660031901126101bd576020604051610e108152f35b346101bd5760003660031901126101bd576020600254604051908152f35b346101bd5760403660031901126101bd57611cbf612915565b60243590811515908183036101bd577f32fde6397cd391b6f81b58789e435d67003507393605e8ab5c6ec76aaf7916a191611d25602092611cfe612a11565b60018060a01b031694856000526009845260406000209060ff801983541691151516179055565b604051908152a2005b346101bd5760003660031901126101bd57602060405160648152f35b346101bd5760003660031901126101bd57602060405160788152f35b346101bd5760003660031901126101bd57611d7f612a11565b600180546001600160a01b031981169091556000906001600160a01b03167f8be0079c531659141344cd1fd0a4f28419497f9722a3daafe3b4186f6b6457e08280a3005b346101bd5760403660031901126101bd57611ddc6128ff565b600435600052600b60205260406000209060018060a01b0316600052602052602060ff604060002054166040519015158152f35b346101bd5760203660031901126101bd576000610260604051611e3281612a59565b828152826020820152606060408201526060808201528260808201528260a08201528260c08201528260e08201528261010082015282610120820152826101408201528261016082015282610180820152826101a0820152826101c0820152826101e082015282610200820152826102208201528261024082015201526004356000526004602052604060002060405190611ecc82612a59565b8054825260018060a01b0360018201541660208301526040518081600284016020815493848152019060005260206000209260005b8181106121ac575050611f1692500382612aae565b604083015260405180816020600385015492838152016003850160005260206000209260005b818110612193575050611f5192500382612aae565b606083015260048101546080830152600581015460a0830152611f9060ff6006830154611f8382821660c08701612ad0565b60081c1660e08401612ad0565b6007810154610100830152600881015461012083015260ff6009820154161515610140830152600a810154610160830152600b810154610180830152600c8101546101a0830152600d8101546101c0830152600e81015490600660ff831610156103cf5760ff8281601194166101e086015260081c161515610200840152600f81015461022084015260ff60108201541615156102408401520154610260820152604051602081528151602082015260018060a01b03602083015116604082015260408201519161028060608301526102a08201835180915260206102c0840194019060005b8181106121745750505061026061209e83946060840151601f198683030160808701526129b1565b91608081015160a085015260a081015160c08501526120c560c082015160e08601906129a4565b6120d860e08201516101008601906129a4565b61010081015161012085015261012081015161014085015261014081015115156101608501526101608101516101808501526101808101516101a08501526101a08101516101c08501526101c08101516101e08501526121426101e08201516102008601906129e5565b610200810151151561022085015261022081015161024085015261024081015115158285015201516102808301520390f35b82516001600160a01b0316865260209586019590920191600101612076565b8454835260019485019486945060209093019201611f3c565b84546001600160a01b0316835260019485019486945060209093019201611f01565b346101bd5760603660031901126101bd5760043560058110156101bd57602490813591604435336000526020916009835260ff604060002054161561247d5784151580612474575b15612440576122248461295d565b9061222f8387612adc565b60011c9280871115612410576122458188612b09565b612710908181029181830414901517156123fb57612266826103e892612ae9565b116123b7576004830192835492836122c5575b50906003827ff798c75b2db09ea1034d9be253e9974b17bbe4a06f2b0ff6695054fa5b7471919899876122ba96955542600183015560028201550155612b29565b9055604051908152a2005b9781548681811160001461237357816122dd91612b09565b6127109081810291818304149015171561235e57610bb8916122fe91612ae9565b116123095797612279565b60405162461bcd60e51b8152600481018890526028818b01527f4e657720707269636520646576696174657320746f6f206d7563682066726f6d6044820152670818dd5c9c995b9d60c21b6064820152608490fd5b8a634e487b7160e01b60005260116004526000fd5b61237c91612b09565b612710908181029181830414901517156123a25761239d87610bb892612ae9565b6122fe565b89634e487b7160e01b60005260116004526000fd5b60405162461bcd60e51b815260048101869052601e818401527f507269636520736f7572636573206465766961746520746f6f206d75636800006044820152606490fd5b82634e487b7160e01b60005260116004526000fd5b61241a8782612b09565b612710908181029181830414901517156123fb5761243b886103e892612ae9565b612266565b82600e6064926040519262461bcd60e51b845260048401528201526d496e76616c69642070726963657360901b6044820152fd5b50811515612216565b82601b6064926040519262461bcd60e51b845260048401528201527f4e6f7420617574686f72697a6564207072696365206f7261636c6500000000006044820152fd5b346101bd5760203660031901126101bd5760043560058110156101bd576124e860c091612944565b805460018201546002909201546040516001600160a01b038316815292909160ff9061251d6020860160a083901c84166129a4565b818160a81c16604086015260b01c1615156060840152608083015260a0820152f35b346101bd5760403660031901126101bd57612558612915565b6001600160a01b03166000908152600760205260409020805460243591908210156101bd5760209161153e91612976565b346101bd5760003660031901126101bd576020604051610bb88152f35b346101bd5760a03660031901126101bd5760043560058110156101bd576125cb6128ff565b9060443560ff81168091036101bd576125e2612a11565b604051906125ef82612a3d565b6001600160a01b03938416808352936020830161260c8582612ad0565b604084019283526060840190600182526080850191606435835260a0860193608435855261263988612944565b96511691865490519260058410156103cf5760029660ff60a81b905160a81b169260ff60b01b9051151560b01b169360ff60a01b9060a01b169168ffffffffffffffffff60b81b16171717178455516001840155519101557f0782d5a983f4f99019eb2dc8dfe67419752a13dca743154e71029fc01318d055600080a3005b346101bd5760003660031901126101bd57602060405162093a808152f35b346101bd5760203660031901126101bd576001600160a01b036126f7612915565b16600052600c6020526020604060002054604051908152f35b346101bd5760003660031901126101bd5760206040516301e133808152f35b346101bd5760203660031901126101bd576001600160a01b03612750612915565b166000526009602052602060ff604060002054166040519015158152f35b346101bd5760403660031901126101bd5760043561278a6128ff565b90806000526020600481526040600020916127a783541515612e24565b60ff6010840154169160118401549382600052600b825260406000209260018060a01b038097169384600052835260ff60406000205416936000906000926000600286019a8b54915b8281106128b3575050508780999a5097612897575b87612874575b50508561286c575b5084612862575b5083612841575b509360809460405194151585528401521515604083015215156060820152f35b600d91935001549362093a8085018095116105875793421015916080612821565b151593508661281a565b945087612813565b6000908152600b86526040808220928252918652205460ff16159550888061280b565b965060ff600e8501541660068110156103cf5760041496612805565b81856128c08f8490612976565b929054600393841b1c16146128df575b506128da90612b29565b6127f0565b9550956128f86128da916001976105388a828d01612976565b96906128d0565b602435906001600160a01b03821682036101bd57565b600435906001600160a01b03821682036101bd57565b60058110156103cf57600052600a602052604060002090565b60058110156103cf576000526003602052604060002090565b60058110156103cf576000526008602052604060002090565b805482101561298e5760005260206000200190600090565b634e487b7160e01b600052603260045260246000fd5b9060058210156103cf5752565b90815180825260208080930193019160005b8281106129d1575050505090565b8351855293810193928101926001016129c3565b9060068210156103cf5752565b60409060031901126101bd5760043560058110156101bd579060243590565b6001546001600160a01b03163303612a2557565b60405163118cdaa760e01b8152336004820152602490fd5b60c0810190811067ffffffffffffffff821117610aea57604052565b610280810190811067ffffffffffffffff821117610aea57604052565b60a0810190811067ffffffffffffffff821117610aea57604052565b6020810190811067ffffffffffffffff821117610aea57604052565b90601f8019910116810190811067ffffffffffffffff821117610aea57604052565b60058210156103cf5752565b9190820180921161058757565b8115612af3570490565b634e487b7160e01b600052601260045260246000fd5b9190820391821161058757565b8181029291811591840414171561058757565b60001981146105875760010190565b15612b3f57565b60405162461bcd60e51b815260206004820152601360248201527250726963652064617461206973207374616c6560681b6044820152606490fd5b90612c3d60ff91612bed612b8d85612944565b94604051612b9a81612a3d565b86546001600160a01b03811682529660a090600290612bc08a841c8a1660208601612ad0565b88604085019a818160a81c168c5260b01c161515606085015260018101546080850152015491015261295d565b612c36610e1061176860405193612c0385612a76565b80548552600460018201549182602088015260028101546040880152600381015460608801520154608086015242612b09565b5190612b16565b91511690604d821161058757612c5691600a0a90612ae9565b90565b15612c6057565b60405162461bcd60e51b8152602060048201526015602482015274139bc8115512081cda1bdd5b19081899481cd95b9d605a1b6044820152606490fd5b67ffffffffffffffff8111610aea5760051b60200190565b90612cbf82612c9d565b612ccc6040519182612aae565b8281528092612cdd601f1991612c9d565b0190602036910137565b9091828110612cf557505050565b60009182526020822092830192015b828110612d1057505050565b818155600101612d04565b8054600160401b811015610aea57612d3891600182018155612976565b819291549060031b91821b91600019901b1916179055565b6040516323b872dd60e01b60208201526001600160a01b039283166024820152929091166044830152606480830193909352918152612d9791612d9282612a76565b612d99565b565b906000602091828151910182855af115612df5576000513d612dec57506001600160a01b0381163b155b612dca5750565b604051635274afe760e01b81526001600160a01b039091166004820152602490fd5b60011415612dc3565b6040513d6000823e3d90fd5b600260005414612e12576002600055565b604051633ee5aeb560e01b8152600490fd5b15612e2b57565b60405162461bcd60e51b8152602060048201526013602482015272131bd85b88191bd95cc81b9bdd08195e1a5cdd606a1b6044820152606490fd5b3d15612ea1573d9067ffffffffffffffff8211610aea5760405191612e95601f8201601f191660200184612aae565b82523d6000602084013e565b606090565b15612ead57565b60405162461bcd60e51b8152602060048201526013602482015272115512081d1c985b9cd9995c8819985a5b1959606a1b6044820152606490fd5b60405163a9059cbb60e01b60208201526001600160a01b039092166024830152604480830193909352918152608081019167ffffffffffffffff831182841017610aea57612d9792604052612d99565b805182101561298e5760209160051b01019056fea26469706673582212203fccf533d29c26debabd1d7fdab5e6b41110b8b018f12bb79e7f392664267f9864736f6c63430008140033","opcodes":"PUSH1 0x80 PUSH1 0x40 SWAP1 DUP1 DUP3 MSTORE CALLVALUE PUSH3 0x2C0 JUMPI PUSH1 0x1 SWAP1 PUSH1 0x0 SWAP1 DUP3 DUP3 SSTORE CALLER ISZERO PUSH3 0x2AC JUMPI POP DUP2 SLOAD CALLER PUSH1 0x1 PUSH1 0x1 PUSH1 0xA0 SHL SUB NOT DUP3 AND DUP2 OR DUP5 SSTORE PUSH1 0x1 PUSH1 0x1 PUSH1 0xA0 SHL SUB SWAP2 DUP3 AND PUSH32 0x8BE0079C531659141344CD1FD0A4F28419497F9722A3DAAFE3B4186F6B6457E0 DUP5 DUP1 LOG3 PUSH1 0x2 DUP4 DUP2 SSTORE DUP5 MLOAD SWAP2 SWAP1 PUSH1 0xC0 DUP4 ADD PUSH1 0x1 PUSH1 0x1 PUSH1 0x40 SHL SUB DUP2 GT DUP5 DUP3 LT OR PUSH3 0x298 JUMPI DUP7 MSTORE DUP4 DUP4 MSTORE PUSH1 0x20 SWAP3 DUP4 DUP2 ADD DUP6 DUP2 MSTORE DUP8 DUP3 ADD PUSH1 0x12 DUP2 MSTORE PUSH1 0x60 DUP4 ADD SWAP1 DUP9 DUP3 MSTORE PUSH1 0x80 DUP5 ADD SWAP2 PUSH7 0x2386F26FC10000 DUP4 MSTORE PUSH1 0xA0 DUP6 ADD SWAP4 PUSH9 0x3635C9ADC5DEA00000 DUP6 MSTORE DUP10 DUP1 MSTORE PUSH1 0x3 SWAP8 DUP9 DUP11 MSTORE DUP13 DUP12 KECCAK256 SWAP7 MLOAD AND DUP7 SLOAD SWAP2 MLOAD SWAP4 PUSH1 0x5 DUP6 LT ISZERO PUSH3 0x284 JUMPI MLOAD SWAP3 MLOAD PUSH1 0x1 PUSH1 0x1 PUSH1 0xB8 SHL SUB NOT SWAP1 SWAP3 AND OR PUSH1 0xA0 SWAP4 SWAP1 SWAP4 SHL PUSH1 0xFF PUSH1 0xA0 SHL AND SWAP3 SWAP1 SWAP3 OR PUSH1 0xA8 SWAP2 SWAP1 SWAP2 SHL PUSH1 0xFF PUSH1 0xA8 SHL AND OR SWAP1 ISZERO ISZERO PUSH1 0xB0 SHL PUSH1 0xFF PUSH1 0xB0 SHL AND OR DUP4 SSTORE MLOAD DUP8 DUP4 ADD SSTORE MLOAD SWAP1 DUP3 ADD SSTORE DUP6 SWAP4 SWAP3 PUSH1 0x9 SWAP3 SWAP1 SWAP2 PUSH1 0x4 SWAP1 PUSH3 0x135 PUSH3 0x2C5 JUMP JUMPDEST DUP3 PUSH5 0x3A35294400 DUP1 DUP4 MSTORE DUP7 DUP4 ADD SWAP1 TIMESTAMP DUP3 MSTORE DUP11 DUP5 ADD DUP2 DUP2 MSTORE PUSH1 0x60 DUP6 ADD SWAP2 DUP3 MSTORE PUSH1 0x80 DUP6 ADD SWAP3 DUP14 DUP5 MSTORE DUP12 DUP1 MSTORE PUSH1 0x8 DUP11 MSTORE DUP13 DUP13 KECCAK256 SWAP6 MLOAD DUP7 SSTORE MLOAD DUP14 DUP7 ADD SSTORE MLOAD DUP6 DUP6 ADD SSTORE MLOAD DUP7 DUP5 ADD SSTORE MLOAD SWAP2 ADD SSTORE PUSH3 0x186 PUSH3 0x2C5 JUMP JUMPDEST SWAP3 PUSH4 0x5F5E100 SWAP4 DUP5 DUP2 MSTORE DUP4 DUP7 DUP10 DUP12 DUP14 DUP4 DUP7 ADD TIMESTAMP DUP2 MSTORE DUP3 DUP8 ADD SWAP3 DUP12 DUP5 MSTORE PUSH1 0x60 DUP9 ADD SWAP5 DUP13 DUP7 MSTORE PUSH1 0x8 PUSH1 0x80 DUP11 ADD SWAP8 DUP6 DUP10 MSTORE DUP6 DUP4 MSTORE MSTORE KECCAK256 SWAP7 MLOAD DUP8 SSTORE MLOAD SWAP1 DUP7 ADD SSTORE MLOAD DUP7 DUP6 ADD SSTORE MLOAD DUP5 DUP5 ADD SSTORE MLOAD SWAP2 ADD SSTORE PUSH3 0x1DA PUSH3 0x2C5 JUMP JUMPDEST DUP5 DUP2 MSTORE TIMESTAMP DUP7 DUP3 ADD SWAP1 DUP2 MSTORE DUP10 DUP3 ADD DUP7 DUP2 MSTORE PUSH1 0x60 DUP4 ADD DUP8 DUP2 MSTORE PUSH1 0x80 DUP5 ADD DUP14 DUP2 MSTORE DUP7 DUP13 MSTORE PUSH1 0x8 DUP11 MSTORE DUP13 DUP13 KECCAK256 SWAP5 MLOAD DUP6 SSTORE SWAP3 MLOAD DUP5 DUP15 ADD SSTORE SWAP1 MLOAD DUP4 DUP7 ADD SSTORE MLOAD DUP4 DUP4 ADD SSTORE MLOAD SWAP1 DUP5 ADD SSTORE PUSH3 0x226 PUSH3 0x2C5 JUMP JUMPDEST SWAP4 DUP1 DUP6 MSTORE DUP6 DUP6 ADD SWAP3 TIMESTAMP DUP5 MSTORE DUP10 DUP7 ADD DUP3 DUP2 MSTORE PUSH1 0x60 DUP8 ADD SWAP3 DUP4 MSTORE PUSH1 0x80 DUP8 ADD SWAP5 DUP13 DUP7 MSTORE DUP5 DUP12 MSTORE PUSH1 0x8 DUP10 MSTORE DUP12 DUP12 KECCAK256 SWAP8 MLOAD DUP9 SSTORE MLOAD DUP13 DUP9 ADD SSTORE MLOAD SWAP1 DUP7 ADD SSTORE MLOAD SWAP1 DUP5 ADD SSTORE MLOAD SWAP2 ADD SSTORE CALLER DUP4 MSTORE MSTORE KECCAK256 SWAP1 PUSH1 0xFF NOT DUP3 SLOAD AND OR SWAP1 SSTORE MLOAD PUSH2 0x2F82 SWAP1 DUP2 PUSH3 0x2FC DUP3 CODECOPY RETURN JUMPDEST PUSH4 0x4E487B71 PUSH1 0xE0 SHL DUP13 MSTORE PUSH1 0x21 PUSH1 0x4 MSTORE PUSH1 0x24 DUP13 REVERT JUMPDEST PUSH4 0x4E487B71 PUSH1 0xE0 SHL DUP6 MSTORE PUSH1 0x41 PUSH1 0x4 MSTORE PUSH1 0x24 DUP6 REVERT JUMPDEST PUSH1 0x24 SWAP2 PUSH4 0x1E4FBDF7 PUSH1 0xE0 SHL DUP3 MSTORE PUSH1 0x4 DUP3 ADD MSTORE REVERT JUMPDEST PUSH1 0x0 DUP1 REVERT JUMPDEST PUSH1 0x40 MLOAD SWAP1 PUSH1 0xA0 DUP3 ADD PUSH1 0x1 PUSH1 0x1 PUSH1 0x40 SHL SUB DUP2 GT DUP4 DUP3 LT OR PUSH3 0x2E5 JUMPI PUSH1 0x40 MSTORE JUMP JUMPDEST PUSH4 0x4E487B71 PUSH1 0xE0 SHL PUSH1 0x0 MSTORE PUSH1 0x41 PUSH1 0x4 MSTORE PUSH1 0x24 PUSH1 0x0 REVERT INVALID PUSH1 0xA0 PUSH1 0x40 MSTORE PUSH1 0x4 CALLDATASIZE LT ISZERO PUSH2 0x12 JUMPI PUSH1 0x0 DUP1 REVERT JUMPDEST PUSH1 0x0 CALLDATALOAD PUSH1 0xE0 SHR DUP1 PUSH3 0xB752CA EQ PUSH2 0x276E JUMPI DUP1 PUSH4 0x1374518 EQ PUSH2 0x272F JUMPI DUP1 PUSH4 0xD0B2CA6 EQ PUSH2 0x2710 JUMPI DUP1 PUSH4 0x18FA96DE EQ PUSH2 0x26D6 JUMPI DUP1 PUSH4 0x1988A684 EQ PUSH2 0x1901 JUMPI DUP1 PUSH4 0x2E2106AF EQ PUSH2 0x26B8 JUMPI DUP1 PUSH4 0x2FFC204B EQ PUSH2 0x25A6 JUMPI DUP1 PUSH4 0x34855D14 EQ PUSH2 0x2589 JUMPI DUP1 PUSH4 0x3CDB72F1 EQ PUSH2 0x253F JUMPI DUP1 PUSH4 0x3F572D36 EQ PUSH2 0x24C0 JUMPI DUP1 PUSH4 0x4DD9CCCC EQ PUSH2 0x21CE JUMPI DUP1 PUSH4 0x504006CA EQ PUSH2 0x1E10 JUMPI DUP1 PUSH4 0x626066CC EQ PUSH2 0x1DC3 JUMPI DUP1 PUSH4 0x715018A6 EQ PUSH2 0x1D66 JUMPI DUP1 PUSH4 0x7A9FFFB7 EQ PUSH2 0x1D4A JUMPI DUP1 PUSH4 0x82626D6B EQ PUSH2 0x1D2E JUMPI DUP1 PUSH4 0x858A9EA0 EQ PUSH2 0x1CA6 JUMPI DUP1 PUSH4 0x87C51459 EQ PUSH2 0x1C88 JUMPI DUP1 PUSH4 0x89D99A05 EQ PUSH2 0x1C6B JUMPI DUP1 PUSH4 0x8DA5CB5B EQ PUSH2 0x1C42 JUMPI DUP1 PUSH4 0x9772D7EE EQ PUSH2 0x1B30 JUMPI DUP1 PUSH4 0xAD8D0138 EQ PUSH2 0x1AB5 JUMPI DUP1 PUSH4 0xB0B3CA47 EQ PUSH2 0x1932 JUMPI DUP1 PUSH4 0xB59D17AB EQ PUSH2 0x1901 JUMPI DUP1 PUSH4 0xC7FC1325 EQ PUSH2 0x1868 JUMPI DUP1 PUSH4 0xD42C4C53 EQ PUSH2 0x1778 JUMPI DUP1 PUSH4 0xD89E8C1C EQ PUSH2 0x16F8 JUMPI DUP1 PUSH4 0xDECEAFA7 EQ PUSH2 0x169B JUMPI DUP1 PUSH4 0xE1EC3C68 EQ PUSH2 0x154C JUMPI DUP1 PUSH4 0xE3ED1902 EQ PUSH2 0x14F4 JUMPI DUP1 PUSH4 0xF2FDE38B EQ PUSH2 0x146B JUMPI DUP1 PUSH4 0xF4512BB6 EQ PUSH2 0xF4F JUMPI DUP1 PUSH4 0xF498C9CC EQ PUSH2 0x672 JUMPI DUP1 PUSH4 0xF85920D8 EQ PUSH2 0x1C2 JUMPI PUSH4 0xFE6993B8 EQ PUSH2 0x19C JUMPI PUSH1 0x0 DUP1 REVERT JUMPDEST CALLVALUE PUSH2 0x1BD JUMPI PUSH1 0x20 PUSH2 0x1B5 PUSH2 0x1AF CALLDATASIZE PUSH2 0x29F2 JUMP JUMPDEST SWAP1 PUSH2 0x2B7A JUMP JUMPDEST PUSH1 0x40 MLOAD SWAP1 DUP2 MSTORE RETURN JUMPDEST PUSH1 0x0 DUP1 REVERT JUMPDEST CALLVALUE PUSH2 0x1BD JUMPI PUSH1 0x20 DUP1 PUSH1 0x3 NOT CALLDATASIZE ADD SLT PUSH2 0x1BD JUMPI PUSH1 0x4 CALLDATALOAD PUSH2 0x1DF PUSH2 0x2E01 JUMP JUMPDEST DUP1 PUSH1 0x0 MSTORE PUSH1 0x4 DUP3 MSTORE PUSH1 0x40 PUSH1 0x0 KECCAK256 SWAP2 PUSH2 0x1F9 DUP4 SLOAD ISZERO ISZERO PUSH2 0x2E24 JUMP JUMPDEST PUSH1 0xFF SWAP1 DUP2 PUSH1 0xE DUP6 ADD SLOAD AND PUSH1 0x6 DUP2 LT ISZERO PUSH2 0x3CF JUMPI PUSH1 0x4 SUB PUSH2 0x636 JUMPI DUP2 PUSH1 0x10 DUP6 ADD SLOAD AND ISZERO PUSH2 0x5F2 JUMPI DUP3 PUSH1 0x0 MSTORE PUSH1 0xB DUP2 MSTORE PUSH1 0x40 PUSH1 0x0 KECCAK256 CALLER PUSH1 0x0 MSTORE DUP2 MSTORE DUP2 PUSH1 0x40 PUSH1 0x0 KECCAK256 SLOAD AND PUSH2 0x59D JUMPI PUSH1 0xD DUP5 ADD SLOAD PUSH3 0x93A80 DUP2 ADD DUP1 SWAP2 GT PUSH2 0x587 JUMPI TIMESTAMP LT PUSH2 0x54A JUMPI PUSH1 0x0 SWAP4 PUSH1 0x0 SWAP5 PUSH1 0x0 PUSH1 0x2 DUP4 ADD DUP1 SLOAD SWAP2 JUMPDEST DUP3 DUP2 LT PUSH2 0x4EE JUMPI POP POP POP ISZERO PUSH2 0x4A9 JUMPI DUP5 ISZERO PUSH2 0x46F JUMPI PUSH1 0x6 DUP2 ADD SWAP1 PUSH2 0x28C DUP5 DUP4 SLOAD AND PUSH2 0x292B JUMP JUMPDEST SLOAD SWAP6 DUP7 ISZERO PUSH2 0x42A JUMPI SWAP1 PUSH1 0x4 PUSH2 0x2A9 PUSH2 0x2B2 SWAP4 PUSH1 0x11 DUP5 ADD SLOAD SWAP1 PUSH2 0x2B16 JUMP JUMPDEST SWAP2 ADD SLOAD SWAP1 PUSH2 0x2AE9 JUMP JUMPDEST SWAP5 DUP6 GT PUSH2 0x3E5 JUMPI DUP3 SWAP1 DUP5 PUSH1 0x0 MSTORE PUSH1 0xB DUP4 MSTORE PUSH1 0x40 PUSH1 0x0 KECCAK256 CALLER PUSH1 0x0 MSTORE DUP4 MSTORE PUSH1 0x40 PUSH1 0x0 KECCAK256 PUSH1 0x1 PUSH1 0xFF NOT DUP3 SLOAD AND OR SWAP1 SSTORE PUSH2 0x2EA DUP3 DUP3 SLOAD AND PUSH2 0x292B JUMP JUMPDEST PUSH2 0x2F5 DUP8 DUP3 SLOAD PUSH2 0x2B09 JUMP JUMPDEST SWAP1 SSTORE SLOAD AND PUSH1 0x5 DUP2 LT ISZERO PUSH2 0x3CF JUMPI DUP5 PUSH32 0x9575558B5D6AC5E60A8A8AD59BE28FBDCA3803658E380FDEA5D922214559F8CD SWAP4 DUP3 ISZERO PUSH1 0x0 EQ PUSH2 0x35B JUMPI POP PUSH2 0x34B SWAP2 POP PUSH1 0x0 DUP1 DUP1 DUP1 SWAP4 CALLER GAS CALL PUSH2 0x345 PUSH2 0x2E66 JUMP JUMPDEST POP PUSH2 0x2EA6 JUMP JUMPDEST PUSH1 0x40 MLOAD SWAP4 DUP5 MSTORE CALLER SWAP4 LOG3 PUSH1 0x1 PUSH1 0x0 SSTORE STOP JUMPDEST PUSH2 0x367 PUSH2 0x3CA SWAP4 PUSH2 0x2944 JUMP JUMPDEST SWAP1 PUSH1 0x2 PUSH1 0x40 MLOAD SWAP3 PUSH2 0x377 DUP5 PUSH2 0x2A3D JUMP JUMPDEST DUP1 SLOAD PUSH1 0x1 PUSH1 0x1 PUSH1 0xA0 SHL SUB DUP1 DUP3 AND DUP7 MSTORE SWAP4 SWAP1 PUSH2 0x39A PUSH1 0xA0 DUP3 SWAP1 SHR DUP4 AND DUP11 DUP9 ADD PUSH2 0x2AD0 JUMP JUMPDEST DUP2 DUP2 PUSH1 0xA8 SHR AND PUSH1 0x40 DUP8 ADD MSTORE PUSH1 0xB0 SHR AND ISZERO ISZERO PUSH1 0x60 DUP6 ADD MSTORE PUSH1 0x1 DUP2 ADD SLOAD PUSH1 0x80 DUP6 ADD MSTORE ADD SLOAD PUSH1 0xA0 DUP4 ADD MSTORE CALLER SWAP2 MLOAD AND PUSH2 0x2EE8 JUMP JUMPDEST PUSH2 0x34B JUMP JUMPDEST PUSH4 0x4E487B71 PUSH1 0xE0 SHL PUSH1 0x0 MSTORE PUSH1 0x21 PUSH1 0x4 MSTORE PUSH1 0x24 PUSH1 0x0 REVERT JUMPDEST PUSH1 0x40 MLOAD PUSH3 0x461BCD PUSH1 0xE5 SHL DUP2 MSTORE PUSH1 0x4 DUP2 ADD DUP4 SWAP1 MSTORE PUSH1 0x1C PUSH1 0x24 DUP3 ADD MSTORE PUSH32 0x496E73756666696369656E7420696E737572616E63652066756E647300000000 PUSH1 0x44 DUP3 ADD MSTORE PUSH1 0x64 SWAP1 REVERT JUMPDEST PUSH1 0x40 MLOAD PUSH3 0x461BCD PUSH1 0xE5 SHL DUP2 MSTORE PUSH1 0x4 DUP2 ADD DUP6 SWAP1 MSTORE PUSH1 0x1C PUSH1 0x24 DUP3 ADD MSTORE PUSH32 0x4E6F20696E737572616E63652066756E647320617661696C61626C6500000000 PUSH1 0x44 DUP3 ADD MSTORE PUSH1 0x64 SWAP1 REVERT JUMPDEST PUSH1 0x40 MLOAD PUSH3 0x461BCD PUSH1 0xE5 SHL DUP2 MSTORE PUSH1 0x4 DUP2 ADD DUP4 SWAP1 MSTORE PUSH1 0x12 PUSH1 0x24 DUP3 ADD MSTORE PUSH18 0x4E6F20616D6F756E7420746F20636C61696D PUSH1 0x70 SHL PUSH1 0x44 DUP3 ADD MSTORE PUSH1 0x64 SWAP1 REVERT JUMPDEST PUSH1 0x40 MLOAD PUSH3 0x461BCD PUSH1 0xE5 SHL DUP2 MSTORE PUSH1 0x4 DUP2 ADD DUP4 SWAP1 MSTORE PUSH1 0x19 PUSH1 0x24 DUP3 ADD MSTORE PUSH32 0x4E6F742061206C656E646572206F6E2074686973206C6F616E00000000000000 PUSH1 0x44 DUP3 ADD MSTORE PUSH1 0x64 SWAP1 REVERT JUMPDEST PUSH2 0x4F8 DUP2 DUP4 PUSH2 0x2976 JUMP JUMPDEST SWAP1 SLOAD PUSH1 0x3 SWAP2 DUP3 SHL SHR PUSH1 0x1 PUSH1 0x1 PUSH1 0xA0 SHL SUB AND CALLER EQ PUSH2 0x51F JUMPI JUMPDEST POP PUSH2 0x51A SWAP1 PUSH2 0x2B29 JUMP JUMPDEST PUSH2 0x266 JUMP JUMPDEST SWAP4 POP SWAP8 PUSH2 0x543 PUSH2 0x51A SWAP2 PUSH1 0x1 SWAP6 PUSH2 0x538 DUP13 DUP3 DUP11 ADD PUSH2 0x2976 JUMP JUMPDEST SWAP1 SLOAD SWAP2 SHL SHR SWAP1 PUSH2 0x2ADC JUMP JUMPDEST SWAP9 SWAP1 PUSH2 0x510 JUMP JUMPDEST PUSH1 0x64 SWAP1 PUSH1 0x40 MLOAD SWAP1 PUSH3 0x461BCD PUSH1 0xE5 SHL DUP3 MSTORE PUSH1 0x4 DUP3 ADD MSTORE PUSH1 0x16 PUSH1 0x24 DUP3 ADD MSTORE PUSH22 0x11DC9858D9481C195C9A5BD9081B9BDD08195B991959 PUSH1 0x52 SHL PUSH1 0x44 DUP3 ADD MSTORE REVERT JUMPDEST PUSH4 0x4E487B71 PUSH1 0xE0 SHL PUSH1 0x0 MSTORE PUSH1 0x11 PUSH1 0x4 MSTORE PUSH1 0x24 PUSH1 0x0 REVERT JUMPDEST PUSH1 0x84 SWAP1 PUSH1 0x40 MLOAD SWAP1 PUSH3 0x461BCD PUSH1 0xE5 SHL DUP3 MSTORE PUSH1 0x4 DUP3 ADD MSTORE PUSH1 0x28 PUSH1 0x24 DUP3 ADD MSTORE PUSH32 0x496E737572616E636520616C726561647920636C61696D656420627920746869 PUSH1 0x44 DUP3 ADD MSTORE PUSH8 0x39903632B73232B9 PUSH1 0xC1 SHL PUSH1 0x64 DUP3 ADD MSTORE REVERT JUMPDEST PUSH1 0x64 SWAP1 PUSH1 0x40 MLOAD SWAP1 PUSH3 0x461BCD PUSH1 0xE5 SHL DUP3 MSTORE PUSH1 0x4 DUP3 ADD MSTORE PUSH1 0x1C PUSH1 0x24 DUP3 ADD MSTORE PUSH32 0x4C6F616E20646F6573206E6F74206861766520696E737572616E636500000000 PUSH1 0x44 DUP3 ADD MSTORE REVERT JUMPDEST PUSH1 0x64 SWAP1 PUSH1 0x40 MLOAD SWAP1 PUSH3 0x461BCD PUSH1 0xE5 SHL DUP3 MSTORE PUSH1 0x4 DUP3 ADD MSTORE PUSH1 0x15 PUSH1 0x24 DUP3 ADD MSTORE PUSH21 0x131BD85B881A5CC81B9BDD08191959985D5B1D1959 PUSH1 0x5A SHL PUSH1 0x44 DUP3 ADD MSTORE REVERT JUMPDEST PUSH2 0x100 CALLDATASIZE PUSH1 0x3 NOT ADD SLT PUSH2 0x1BD JUMPI PUSH1 0x5 PUSH1 0x24 CALLDATALOAD LT ISZERO DUP1 PUSH2 0x1BD JUMPI PUSH1 0x5 PUSH1 0x44 CALLDATALOAD LT ISZERO PUSH2 0x1BD JUMPI PUSH1 0xC4 CALLDATALOAD SWAP1 DUP2 ISZERO ISZERO DUP3 SUB PUSH2 0x1BD JUMPI PUSH1 0xE4 CALLDATALOAD ISZERO ISZERO PUSH1 0xE4 CALLDATALOAD SUB PUSH2 0x1BD JUMPI PUSH2 0x6B8 PUSH2 0x2E01 JUMP JUMPDEST PUSH1 0x4 CALLDATALOAD ISZERO PUSH2 0xEFF JUMPI PUSH2 0xBB8 PUSH1 0x84 CALLDATALOAD GT PUSH2 0xEC1 JUMPI PUSH2 0xE10 PUSH1 0xA4 CALLDATALOAD LT ISZERO DUP1 PUSH2 0xEB1 JUMPI JUMPDEST ISZERO PUSH2 0xE79 JUMPI PUSH1 0xFF PUSH2 0x6EB PUSH1 0x24 CALLDATALOAD PUSH2 0x2944 JUMP JUMPDEST SLOAD PUSH1 0xB0 SHR AND ISZERO PUSH2 0xE34 JUMPI PUSH1 0xFF PUSH2 0x702 PUSH1 0x44 CALLDATALOAD PUSH2 0x2944 JUMP JUMPDEST SLOAD PUSH1 0xB0 SHR AND ISZERO PUSH2 0xDEF JUMPI PUSH2 0x71A PUSH1 0x4 CALLDATALOAD PUSH1 0x24 CALLDATALOAD PUSH2 0x2B7A JUMP JUMPDEST PUSH2 0x728 PUSH1 0x64 CALLDATALOAD PUSH1 0x44 CALLDATALOAD PUSH2 0x2B7A JUMP JUMPDEST SWAP1 PUSH1 0x78 DUP2 MUL SWAP1 DUP1 DUP3 DIV PUSH1 0x78 EQ SWAP1 ISZERO OR ISZERO PUSH2 0x587 JUMPI PUSH1 0x64 SWAP1 DIV GT PUSH2 0xDAA JUMPI PUSH1 0x2 SLOAD SWAP1 PUSH2 0x752 DUP3 PUSH2 0x2B29 JUMP JUMPDEST PUSH1 0x2 SSTORE PUSH1 0x0 SWAP1 PUSH1 0xE4 CALLDATALOAD PUSH2 0xD87 JUMPI JUMPDEST PUSH1 0x44 CALLDATALOAD PUSH2 0xC88 JUMPI PUSH1 0x64 CALLDATALOAD PUSH1 0xE4 CALLDATALOAD DUP3 DUP2 PUSH2 0xC78 JUMPI JUMPDEST POP PUSH2 0xC66 JUMPI JUMPDEST CALLVALUE SUB PUSH2 0xBF1 JUMPI JUMPDEST PUSH1 0xE4 CALLDATALOAD PUSH2 0xB1D JUMPI JUMPDEST POP PUSH1 0x40 MLOAD SWAP1 PUSH2 0x797 DUP3 PUSH2 0x2A92 JUMP JUMPDEST PUSH1 0x0 DUP3 MSTORE PUSH1 0x40 MLOAD PUSH2 0x7A7 DUP2 PUSH2 0x2A92 JUMP JUMPDEST PUSH1 0x0 DUP2 MSTORE PUSH1 0x40 MLOAD SWAP3 PUSH2 0x7B8 DUP5 PUSH2 0x2A59 JUMP JUMPDEST DUP5 DUP5 MSTORE CALLER PUSH1 0x20 DUP6 ADD MSTORE PUSH1 0x40 DUP5 ADD MSTORE PUSH1 0x60 DUP4 ADD MSTORE PUSH1 0x4 CALLDATALOAD PUSH1 0x80 DUP4 ADD MSTORE PUSH1 0x0 PUSH1 0xA0 DUP4 ADD MSTORE PUSH2 0x7E9 PUSH1 0x24 CALLDATALOAD PUSH1 0xC0 DUP5 ADD PUSH2 0x2AD0 JUMP JUMPDEST PUSH2 0x7F8 PUSH1 0x44 CALLDATALOAD PUSH1 0xE0 DUP5 ADD PUSH2 0x2AD0 JUMP JUMPDEST PUSH1 0x64 CALLDATALOAD PUSH2 0x100 DUP4 ADD MSTORE PUSH1 0x84 CALLDATALOAD PUSH2 0x120 DUP4 ADD MSTORE DUP4 ISZERO ISZERO PUSH2 0x140 DUP4 ADD MSTORE PUSH1 0xA4 CALLDATALOAD PUSH2 0x160 DUP4 ADD MSTORE TIMESTAMP PUSH2 0x180 DUP4 ADD MSTORE PUSH1 0x0 PUSH2 0x1A0 DUP4 ADD MSTORE PUSH1 0x0 PUSH2 0x1C0 DUP4 ADD MSTORE PUSH1 0x0 PUSH2 0x1E0 DUP4 ADD MSTORE PUSH1 0x0 PUSH2 0x200 DUP4 ADD MSTORE PUSH2 0x1F4 PUSH2 0x220 DUP4 ADD MSTORE PUSH1 0xE4 CALLDATALOAD ISZERO ISZERO PUSH2 0x240 DUP4 ADD MSTORE PUSH2 0x260 DUP3 ADD MSTORE DUP2 PUSH1 0x0 MSTORE PUSH1 0x4 PUSH1 0x20 MSTORE PUSH1 0x40 PUSH1 0x0 KECCAK256 SWAP1 DUP1 MLOAD DUP3 SSTORE PUSH1 0x1 DUP3 ADD PUSH1 0x1 DUP1 PUSH1 0xA0 SHL SUB PUSH1 0x20 DUP4 ADD MLOAD AND PUSH1 0x1 PUSH1 0x1 PUSH1 0x60 SHL SUB PUSH1 0xA0 SHL DUP3 SLOAD AND OR SWAP1 SSTORE PUSH1 0x40 DUP2 ADD MLOAD DUP1 MLOAD SWAP1 PUSH8 0xFFFFFFFFFFFFFFFF DUP3 GT PUSH2 0xAEA JUMPI PUSH1 0x1 PUSH1 0x40 SHL DUP3 GT PUSH2 0xAEA JUMPI PUSH1 0x20 PUSH1 0x2 DUP6 ADD SWAP2 PUSH2 0x8CA DUP5 DUP5 SLOAD DUP2 DUP7 SSTORE DUP6 PUSH2 0x2CE7 JUMP JUMPDEST ADD SWAP1 PUSH1 0x0 MSTORE PUSH1 0x20 PUSH1 0x0 KECCAK256 PUSH1 0x0 JUMPDEST DUP4 DUP2 LT PUSH2 0xB00 JUMPI POP POP POP POP PUSH1 0x60 DUP2 ADD MLOAD DUP1 MLOAD SWAP1 PUSH8 0xFFFFFFFFFFFFFFFF DUP3 GT PUSH2 0xAEA JUMPI PUSH1 0x1 PUSH1 0x40 SHL DUP3 GT PUSH2 0xAEA JUMPI PUSH1 0x20 PUSH1 0x3 DUP6 ADD SWAP2 PUSH2 0x91A DUP5 DUP5 SLOAD DUP2 DUP7 SSTORE DUP6 PUSH2 0x2CE7 JUMP JUMPDEST ADD SWAP1 PUSH1 0x0 MSTORE PUSH1 0x20 PUSH1 0x0 KECCAK256 PUSH1 0x0 JUMPDEST DUP4 DUP2 LT PUSH2 0xAD6 JUMPI POP POP POP POP PUSH1 0x80 DUP2 ADD MLOAD PUSH1 0x4 DUP4 ADD SSTORE PUSH1 0xA0 DUP2 ADD MLOAD PUSH1 0x5 DUP4 ADD SSTORE PUSH1 0xC0 DUP2 ADD MLOAD PUSH1 0x5 DUP2 LT ISZERO PUSH2 0x3CF JUMPI PUSH1 0x6 DUP4 ADD SLOAD PUSH1 0xE0 DUP4 ADD MLOAD PUSH1 0x5 DUP2 LT ISZERO PUSH2 0x3CF JUMPI PUSH2 0xFF00 PUSH1 0xFF SWAP2 PUSH1 0x8 SHL AND SWAP3 AND SWAP1 PUSH2 0xFFFF NOT AND OR OR PUSH1 0x6 DUP4 ADD SSTORE PUSH2 0x100 DUP2 ADD MLOAD PUSH1 0x7 DUP4 ADD SSTORE PUSH2 0x120 DUP2 ADD MLOAD PUSH1 0x8 DUP4 ADD SSTORE PUSH2 0x9B6 PUSH2 0x140 DUP3 ADD MLOAD ISZERO ISZERO PUSH1 0x9 DUP5 ADD SWAP1 PUSH1 0xFF DUP1 NOT DUP4 SLOAD AND SWAP2 ISZERO ISZERO AND OR SWAP1 SSTORE JUMP JUMPDEST PUSH2 0x160 DUP2 ADD MLOAD PUSH1 0xA DUP4 ADD SSTORE PUSH2 0x180 DUP2 ADD MLOAD PUSH1 0xB DUP4 ADD SSTORE PUSH2 0x1A0 DUP2 ADD MLOAD PUSH1 0xC DUP4 ADD SSTORE PUSH2 0x1C0 DUP2 ADD MLOAD PUSH1 0xD DUP4 ADD SSTORE PUSH2 0x1E0 DUP2 ADD MLOAD PUSH1 0x6 DUP2 LT ISZERO PUSH2 0x3CF JUMPI PUSH1 0x11 SWAP2 PUSH2 0x260 SWAP2 PUSH1 0xE DUP6 ADD SWAP1 DUP2 SLOAD PUSH1 0xFF PUSH2 0xFF00 PUSH2 0x200 DUP7 ADD MLOAD ISZERO ISZERO PUSH1 0x8 SHL AND SWAP3 AND SWAP1 PUSH2 0xFFFF NOT AND OR OR SWAP1 SSTORE PUSH2 0x220 DUP2 ADD MLOAD PUSH1 0xF DUP6 ADD SSTORE PUSH2 0xA47 PUSH2 0x240 DUP3 ADD MLOAD ISZERO ISZERO PUSH1 0x10 DUP7 ADD SWAP1 PUSH1 0xFF DUP1 NOT DUP4 SLOAD AND SWAP2 ISZERO ISZERO AND OR SWAP1 SSTORE JUMP JUMPDEST ADD MLOAD SWAP2 ADD SSTORE CALLER PUSH1 0x0 MSTORE PUSH1 0x6 PUSH1 0x20 MSTORE PUSH2 0xA63 DUP2 PUSH1 0x40 PUSH1 0x0 KECCAK256 PUSH2 0x2D1B JUMP JUMPDEST PUSH1 0x40 MLOAD SWAP2 PUSH1 0x4 CALLDATALOAD DUP4 MSTORE PUSH2 0xA7B PUSH1 0x20 DUP5 ADD PUSH1 0x24 CALLDATALOAD PUSH2 0x29A4 JUMP JUMPDEST PUSH2 0xA8A PUSH1 0x40 DUP5 ADD PUSH1 0x44 CALLDATALOAD PUSH2 0x29A4 JUMP JUMPDEST PUSH1 0x64 CALLDATALOAD PUSH1 0x60 DUP5 ADD MSTORE PUSH1 0x84 CALLDATALOAD PUSH1 0x80 DUP5 ADD MSTORE PUSH1 0xA4 CALLDATALOAD PUSH1 0xA0 DUP5 ADD MSTORE ISZERO ISZERO PUSH1 0xC0 DUP4 ADD MSTORE PUSH32 0xABDB66E6184682B23B47B8B6A7923F5B99D0155E0155200BDA4753D7E784699E PUSH1 0xE0 CALLER SWAP4 LOG3 PUSH1 0x1 PUSH1 0x0 SSTORE STOP JUMPDEST PUSH1 0x1 SWAP1 PUSH1 0x20 DUP5 MLOAD SWAP5 ADD SWAP4 DUP2 DUP5 ADD SSTORE ADD PUSH2 0x927 JUMP JUMPDEST PUSH4 0x4E487B71 PUSH1 0xE0 SHL PUSH1 0x0 MSTORE PUSH1 0x41 PUSH1 0x4 MSTORE PUSH1 0x24 PUSH1 0x0 REVERT JUMPDEST DUP3 MLOAD PUSH1 0x1 PUSH1 0x1 PUSH1 0xA0 SHL SUB AND DUP2 DUP4 ADD SSTORE PUSH1 0x20 SWAP1 SWAP3 ADD SWAP2 PUSH1 0x1 ADD PUSH2 0x8D7 JUMP JUMPDEST PUSH2 0x3CF JUMPI PUSH1 0x24 CALLDATALOAD PUSH2 0xB76 JUMPI JUMPDEST PUSH2 0xB34 PUSH1 0x24 CALLDATALOAD PUSH2 0x292B JUMP JUMPDEST PUSH2 0xB3F DUP3 DUP3 SLOAD PUSH2 0x2ADC JUMP JUMPDEST SWAP1 SSTORE PUSH1 0x40 MLOAD DUP2 DUP2 MSTORE DUP3 PUSH32 0x4C87E05722F69FEE95BE0764A567CB86600AAE646A205352052C4B1A8723A069 PUSH1 0x20 PUSH1 0x24 CALLDATALOAD SWAP4 LOG3 DUP4 PUSH2 0x789 JUMP JUMPDEST PUSH2 0xBEC DUP2 PUSH2 0xB85 PUSH1 0x24 CALLDATALOAD PUSH2 0x2944 JUMP JUMPDEST PUSH1 0x40 MLOAD PUSH2 0xB91 DUP2 PUSH2 0x2A3D JUMP JUMPDEST DUP2 SLOAD PUSH1 0x1 PUSH1 0x1 PUSH1 0xA0 SHL SUB DUP1 DUP3 AND DUP4 MSTORE SWAP3 PUSH1 0x2 SWAP2 PUSH1 0xFF SWAP1 PUSH2 0xBBA PUSH1 0xA0 DUP3 SWAP1 SHR DUP4 AND PUSH1 0x20 DUP8 ADD PUSH2 0x2AD0 JUMP JUMPDEST DUP2 DUP2 PUSH1 0xA8 SHR AND PUSH1 0x40 DUP7 ADD MSTORE PUSH1 0xB0 SHR AND ISZERO ISZERO PUSH1 0x60 DUP5 ADD MSTORE PUSH1 0x1 DUP2 ADD SLOAD PUSH1 0x80 DUP5 ADD MSTORE ADD SLOAD PUSH1 0xA0 DUP3 ADD MSTORE MLOAD AND ADDRESS SWAP1 CALLER SWAP1 PUSH2 0x2D50 JUMP JUMPDEST PUSH2 0xB29 JUMP JUMPDEST PUSH1 0x40 MLOAD PUSH3 0x461BCD PUSH1 0xE5 SHL DUP2 MSTORE PUSH1 0x20 PUSH1 0x4 DUP3 ADD MSTORE PUSH1 0x41 PUSH1 0x24 DUP3 ADD MSTORE PUSH32 0x4554482073656E74206D757374206D6174636820636F6C6C61746572616C2070 PUSH1 0x44 DUP3 ADD MSTORE PUSH32 0x6C757320696E737572616E63652066656520286966206170706C696361626C65 PUSH1 0x64 DUP3 ADD MSTORE PUSH1 0x29 PUSH1 0xF8 SHL PUSH1 0x84 DUP3 ADD MSTORE PUSH1 0xA4 SWAP1 REVERT JUMPDEST POP PUSH2 0xC73 DUP3 PUSH1 0x64 CALLDATALOAD PUSH2 0x2ADC JUMP JUMPDEST PUSH2 0x77A JUMP JUMPDEST SWAP1 POP PUSH2 0x3CF JUMPI PUSH1 0x24 CALLDATALOAD ISZERO DUP3 PUSH2 0x774 JUMP JUMPDEST PUSH1 0xE4 CALLDATALOAD DUP1 PUSH2 0xD7A JUMPI JUMPDEST ISZERO PUSH2 0xD6B JUMPI DUP2 CALLVALUE SUB PUSH2 0xD1C JUMPI JUMPDEST PUSH2 0xD17 PUSH2 0xCAC PUSH1 0x44 CALLDATALOAD PUSH2 0x2944 JUMP JUMPDEST PUSH1 0x40 MLOAD PUSH2 0xCB8 DUP2 PUSH2 0x2A3D JUMP JUMPDEST DUP2 SLOAD PUSH1 0x1 PUSH1 0x1 PUSH1 0xA0 SHL SUB DUP1 DUP3 AND DUP4 MSTORE SWAP3 PUSH1 0x2 SWAP2 PUSH1 0xFF SWAP1 PUSH2 0xCE1 PUSH1 0xA0 DUP3 SWAP1 SHR DUP4 AND PUSH1 0x20 DUP8 ADD PUSH2 0x2AD0 JUMP JUMPDEST DUP2 DUP2 PUSH1 0xA8 SHR AND PUSH1 0x40 DUP7 ADD MSTORE PUSH1 0xB0 SHR AND ISZERO ISZERO PUSH1 0x60 DUP5 ADD MSTORE PUSH1 0x1 DUP2 ADD SLOAD PUSH1 0x80 DUP5 ADD MSTORE ADD SLOAD PUSH1 0xA0 DUP3 ADD MSTORE MLOAD AND PUSH1 0x64 CALLDATALOAD SWAP1 ADDRESS SWAP1 CALLER SWAP1 PUSH2 0x2D50 JUMP JUMPDEST PUSH2 0x781 JUMP JUMPDEST PUSH1 0x40 MLOAD PUSH3 0x461BCD PUSH1 0xE5 SHL DUP2 MSTORE PUSH1 0x20 PUSH1 0x4 DUP3 ADD MSTORE PUSH1 0x21 PUSH1 0x24 DUP3 ADD MSTORE PUSH32 0x4D7573742073656E642065786163742045544820696E737572616E6365206665 PUSH1 0x44 DUP3 ADD MSTORE PUSH1 0x65 PUSH1 0xF8 SHL PUSH1 0x64 DUP3 ADD MSTORE PUSH1 0x84 SWAP1 REVERT JUMPDEST PUSH2 0xD75 CALLVALUE ISZERO PUSH2 0x2C59 JUMP JUMPDEST PUSH2 0xC9E JUMP JUMPDEST POP POP PUSH1 0x0 PUSH1 0x24 CALLDATALOAD ISZERO PUSH2 0xC91 JUMP JUMPDEST SWAP1 POP PUSH1 0x4 CALLDATALOAD PUSH1 0x64 PUSH1 0x4 CALLDATALOAD MUL DIV PUSH1 0x64 SUB PUSH2 0x587 JUMPI PUSH2 0x2710 PUSH1 0x64 PUSH1 0x4 CALLDATALOAD MUL DIV SWAP1 PUSH2 0x760 JUMP JUMPDEST PUSH1 0x40 MLOAD PUSH3 0x461BCD PUSH1 0xE5 SHL DUP2 MSTORE PUSH1 0x20 PUSH1 0x4 DUP3 ADD MSTORE PUSH1 0x17 PUSH1 0x24 DUP3 ADD MSTORE PUSH32 0x496E73756666696369656E7420636F6C6C61746572616C000000000000000000 PUSH1 0x44 DUP3 ADD MSTORE PUSH1 0x64 SWAP1 REVERT JUMPDEST PUSH1 0x40 MLOAD PUSH3 0x461BCD PUSH1 0xE5 SHL DUP2 MSTORE PUSH1 0x20 PUSH1 0x4 DUP3 ADD MSTORE PUSH1 0x1E PUSH1 0x24 DUP3 ADD MSTORE PUSH32 0x436F6C6C61746572616C20746F6B656E206E6F7420737570706F727465640000 PUSH1 0x44 DUP3 ADD MSTORE PUSH1 0x64 SWAP1 REVERT JUMPDEST PUSH1 0x40 MLOAD PUSH3 0x461BCD PUSH1 0xE5 SHL DUP2 MSTORE PUSH1 0x20 PUSH1 0x4 DUP3 ADD MSTORE PUSH1 0x18 PUSH1 0x24 DUP3 ADD MSTORE PUSH32 0x4C6F616E20746F6B656E206E6F7420737570706F727465640000000000000000 PUSH1 0x44 DUP3 ADD MSTORE PUSH1 0x64 SWAP1 REVERT JUMPDEST PUSH1 0x40 MLOAD PUSH3 0x461BCD PUSH1 0xE5 SHL DUP2 MSTORE PUSH1 0x20 PUSH1 0x4 DUP3 ADD MSTORE PUSH1 0x10 PUSH1 0x24 DUP3 ADD MSTORE PUSH16 0x24B73B30B634B210323AB930BA34B7B7 PUSH1 0x81 SHL PUSH1 0x44 DUP3 ADD MSTORE PUSH1 0x64 SWAP1 REVERT JUMPDEST POP PUSH4 0x1E13380 PUSH1 0xA4 CALLDATALOAD GT ISZERO PUSH2 0x6D9 JUMP JUMPDEST PUSH1 0x40 MLOAD PUSH3 0x461BCD PUSH1 0xE5 SHL DUP2 MSTORE PUSH1 0x20 PUSH1 0x4 DUP3 ADD MSTORE PUSH1 0x16 PUSH1 0x24 DUP3 ADD MSTORE PUSH22 0x92DCE8CAE4CAE6E840E4C2E8CA40E8DEDE40D0D2CED PUSH1 0x53 SHL PUSH1 0x44 DUP3 ADD MSTORE PUSH1 0x64 SWAP1 REVERT JUMPDEST PUSH1 0x40 MLOAD PUSH3 0x461BCD PUSH1 0xE5 SHL DUP2 MSTORE PUSH1 0x20 PUSH1 0x4 DUP3 ADD MSTORE PUSH1 0x22 PUSH1 0x24 DUP3 ADD MSTORE PUSH32 0x4C6F616E20616D6F756E74206D7573742062652067726561746572207468616E PUSH1 0x44 DUP3 ADD MSTORE PUSH2 0x203 PUSH1 0xF4 SHL PUSH1 0x64 DUP3 ADD MSTORE PUSH1 0x84 SWAP1 REVERT JUMPDEST PUSH1 0x40 CALLDATASIZE PUSH1 0x3 NOT ADD SLT PUSH2 0x1BD JUMPI PUSH2 0xF63 PUSH2 0x2E01 JUMP JUMPDEST PUSH1 0x4 CALLDATALOAD PUSH1 0x0 MSTORE PUSH1 0x4 PUSH1 0x20 MSTORE PUSH1 0x40 PUSH1 0x0 KECCAK256 PUSH1 0x1 DUP1 PUSH1 0xA0 SHL SUB PUSH1 0x1 DUP3 ADD SLOAD AND PUSH2 0xF8B DUP2 ISZERO ISZERO PUSH2 0x2E24 JUMP JUMPDEST PUSH1 0xFF PUSH1 0xE DUP4 ADD SLOAD AND PUSH1 0x6 DUP2 LT ISZERO PUSH2 0x3CF JUMPI DUP1 ISZERO SWAP1 DUP2 ISZERO PUSH2 0x1460 JUMPI JUMPDEST POP ISZERO PUSH2 0x1426 JUMPI CALLER EQ PUSH2 0x13E1 JUMPI PUSH1 0x24 CALLDATALOAD ISZERO PUSH2 0x138E JUMPI PUSH2 0xFCA PUSH1 0x24 CALLDATALOAD PUSH1 0x5 DUP4 ADD SLOAD PUSH2 0x2ADC JUMP JUMPDEST PUSH1 0x4 DUP3 ADD SLOAD LT PUSH2 0x1353 JUMPI PUSH1 0xFF PUSH1 0x6 DUP3 ADD SLOAD AND PUSH1 0x5 DUP2 LT ISZERO PUSH2 0x3CF JUMPI DUP1 PUSH2 0x12D0 JUMPI POP PUSH1 0x24 CALLDATALOAD CALLVALUE SUB PUSH2 0x128B JUMPI JUMPDEST PUSH1 0x40 MLOAD PUSH2 0x1001 DUP2 PUSH2 0x2A76 JUMP JUMPDEST CALLER DUP2 MSTORE PUSH1 0x4 PUSH1 0x20 DUP3 ADD PUSH1 0x24 CALLDATALOAD DUP2 MSTORE PUSH2 0x1086 PUSH1 0x40 DUP5 ADD TIMESTAMP DUP2 MSTORE PUSH1 0x60 DUP6 ADD SWAP1 PUSH1 0x0 DUP3 MSTORE PUSH1 0x80 DUP7 ADD SWAP4 PUSH1 0x0 DUP6 MSTORE DUP6 CALLDATALOAD PUSH1 0x0 MSTORE PUSH1 0x5 PUSH1 0x20 MSTORE PUSH1 0x40 PUSH1 0x0 KECCAK256 CALLER PUSH1 0x0 MSTORE PUSH1 0x20 MSTORE PUSH1 0x40 PUSH1 0x0 KECCAK256 SWAP7 PUSH1 0x1 DUP1 PUSH1 0xA0 SHL SUB SWAP1 MLOAD AND PUSH1 0x1 PUSH1 0x1 PUSH1 0x60 SHL SUB PUSH1 0xA0 SHL DUP9 SLOAD AND OR DUP8 SSTORE MLOAD PUSH1 0x1 DUP8 ADD SSTORE MLOAD PUSH1 0x2 DUP7 ADD SSTORE MLOAD ISZERO ISZERO PUSH1 0x3 DUP6 ADD SWAP1 PUSH1 0xFF DUP1 NOT DUP4 SLOAD AND SWAP2 ISZERO ISZERO AND OR SWAP1 SSTORE JUMP JUMPDEST MLOAD SWAP2 ADD SSTORE PUSH1 0x2 DUP2 ADD SLOAD PUSH1 0x1 PUSH1 0x40 SHL DUP2 LT ISZERO PUSH2 0xAEA JUMPI DUP1 PUSH1 0x1 PUSH2 0x10B1 SWAP3 ADD PUSH1 0x2 DUP5 ADD SSTORE PUSH1 0x2 DUP4 ADD PUSH2 0x2976 JUMP JUMPDEST DUP2 SLOAD SWAP1 PUSH1 0x3 SHL SWAP1 CALLER DUP3 SHL SWAP2 PUSH1 0x1 DUP1 PUSH1 0xA0 SHL SUB SWAP1 SHL NOT AND OR SWAP1 SSTORE PUSH2 0x10D9 PUSH1 0x24 CALLDATALOAD PUSH1 0x3 DUP4 ADD PUSH2 0x2D1B JUMP JUMPDEST PUSH2 0x10E9 PUSH1 0x24 CALLDATALOAD PUSH1 0x5 DUP4 ADD SLOAD PUSH2 0x2ADC JUMP JUMPDEST PUSH1 0x5 DUP3 ADD SSTORE CALLER PUSH1 0x0 MSTORE PUSH1 0x7 PUSH1 0x20 MSTORE PUSH2 0x1107 PUSH1 0x4 CALLDATALOAD PUSH1 0x40 PUSH1 0x0 KECCAK256 PUSH2 0x2D1B JUMP JUMPDEST PUSH1 0x5 DUP2 ADD SLOAD PUSH1 0x4 DUP3 ADD SLOAD DUP2 LT PUSH2 0x123D JUMPI POP PUSH1 0x1 PUSH1 0xFF NOT PUSH1 0xE DUP4 ADD SLOAD AND OR PUSH1 0xE DUP3 ADD SSTORE TIMESTAMP PUSH1 0xC DUP3 ADD SSTORE PUSH2 0x113D PUSH1 0xA DUP3 ADD SLOAD TIMESTAMP PUSH2 0x2ADC JUMP JUMPDEST PUSH1 0xD DUP3 ADD SSTORE PUSH1 0xFF PUSH1 0x6 DUP3 ADD SLOAD AND SWAP1 PUSH1 0x1 DUP1 PUSH1 0xA0 SHL SUB PUSH1 0x1 DUP3 ADD SLOAD AND PUSH1 0x4 DUP3 ADD SLOAD PUSH1 0x5 DUP5 LT ISZERO PUSH2 0x3CF JUMPI PUSH1 0x5 SWAP4 DUP1 PUSH2 0x11C1 JUMPI POP PUSH1 0x0 DUP1 DUP1 DUP1 SWAP4 PUSH2 0x1183 SWAP6 GAS CALL PUSH2 0x345 PUSH2 0x2E66 JUMP JUMPDEST ADD SLOAD PUSH1 0x40 MLOAD SWAP1 DUP2 MSTORE TIMESTAMP PUSH1 0x20 DUP3 ADD MSTORE PUSH32 0xB96BADA2A4E2E402AAA472B5E783A9D8BB13D996387DF6BEEA608680B31FF46F PUSH1 0x40 PUSH1 0x4 CALLDATALOAD SWAP3 LOG2 JUMPDEST PUSH1 0x1 PUSH1 0x0 SSTORE STOP JUMPDEST SWAP2 PUSH2 0x11CE PUSH2 0x1238 SWAP4 PUSH2 0x2944 JUMP JUMPDEST PUSH1 0x2 PUSH1 0x40 MLOAD SWAP2 PUSH2 0x11DD DUP4 PUSH2 0x2A3D JUMP JUMPDEST DUP1 SLOAD PUSH1 0x1 PUSH1 0x1 PUSH1 0xA0 SHL SUB DUP2 AND DUP5 MSTORE PUSH1 0xFF SWAP1 PUSH2 0x1201 PUSH1 0xA0 DUP3 SWAP1 SHR DUP4 AND PUSH1 0x20 DUP8 ADD PUSH2 0x2AD0 JUMP JUMPDEST PUSH1 0xA8 DUP2 SWAP1 SHR DUP3 AND PUSH1 0x40 DUP7 ADD MSTORE PUSH1 0xB0 SHR AND ISZERO ISZERO PUSH1 0x60 DUP5 ADD MSTORE PUSH1 0x1 DUP2 ADD SLOAD PUSH1 0x80 DUP5 ADD MSTORE ADD SLOAD PUSH1 0xA0 DUP3 ADD MSTORE MLOAD PUSH1 0x1 PUSH1 0x1 PUSH1 0xA0 SHL SUB AND PUSH2 0x2EE8 JUMP JUMPDEST PUSH2 0x1183 JUMP JUMPDEST SWAP1 PUSH1 0xE PUSH1 0x2 PUSH1 0xFF NOT DUP3 DUP5 ADD SLOAD AND OR SWAP2 ADD SSTORE PUSH1 0x40 MLOAD SWAP1 PUSH1 0x24 CALLDATALOAD DUP3 MSTORE PUSH1 0x20 DUP3 ADD MSTORE CALLER SWAP1 PUSH32 0x73A9841EE04F39F41B73F9432C749617285427E60F2FBE3A1BF5A5EF2E6B16CB PUSH1 0x40 PUSH1 0x4 CALLDATALOAD SWAP3 LOG3 PUSH2 0x11BA JUMP JUMPDEST PUSH1 0x40 MLOAD PUSH3 0x461BCD PUSH1 0xE5 SHL DUP2 MSTORE PUSH1 0x20 PUSH1 0x4 DUP3 ADD MSTORE PUSH1 0x19 PUSH1 0x24 DUP3 ADD MSTORE PUSH32 0x496E636F72726563742045544820616D6F756E742073656E7400000000000000 PUSH1 0x44 DUP3 ADD MSTORE PUSH1 0x64 SWAP1 REVERT JUMPDEST PUSH2 0x12DC PUSH2 0x134E SWAP2 PUSH2 0x2944 JUMP JUMPDEST PUSH1 0x2 PUSH1 0x40 MLOAD SWAP2 PUSH2 0x12EB DUP4 PUSH2 0x2A3D JUMP JUMPDEST DUP1 SLOAD PUSH1 0x1 PUSH1 0x1 PUSH1 0xA0 SHL SUB DUP2 AND DUP5 MSTORE PUSH1 0xFF SWAP1 PUSH2 0x130F PUSH1 0xA0 DUP3 SWAP1 SHR DUP4 AND PUSH1 0x20 DUP8 ADD PUSH2 0x2AD0 JUMP JUMPDEST PUSH1 0xA8 DUP2 SWAP1 SHR DUP3 AND PUSH1 0x40 DUP7 ADD MSTORE PUSH1 0xB0 SHR AND ISZERO ISZERO PUSH1 0x60 DUP5 ADD MSTORE PUSH1 0x1 DUP2 ADD SLOAD PUSH1 0x80 DUP5 ADD MSTORE ADD SLOAD PUSH1 0xA0 DUP3 ADD MSTORE MLOAD PUSH1 0x24 CALLDATALOAD SWAP1 ADDRESS SWAP1 CALLER SWAP1 PUSH1 0x1 PUSH1 0x1 PUSH1 0xA0 SHL SUB AND PUSH2 0x2D50 JUMP JUMPDEST PUSH2 0xFF5 JUMP JUMPDEST PUSH1 0x40 MLOAD PUSH3 0x461BCD PUSH1 0xE5 SHL DUP2 MSTORE PUSH1 0x20 PUSH1 0x4 DUP3 ADD MSTORE PUSH1 0x13 PUSH1 0x24 DUP3 ADD MSTORE PUSH19 0x115E18D959591CC81B1BD85B88185B5BDD5B9D PUSH1 0x6A SHL PUSH1 0x44 DUP3 ADD MSTORE PUSH1 0x64 SWAP1 REVERT JUMPDEST PUSH1 0x40 MLOAD PUSH3 0x461BCD PUSH1 0xE5 SHL DUP2 MSTORE PUSH1 0x20 PUSH1 0x4 DUP3 ADD MSTORE PUSH1 0x25 PUSH1 0x24 DUP3 ADD MSTORE PUSH32 0x46756E64696E6720616D6F756E74206D75737420626520677265617465722074 PUSH1 0x44 DUP3 ADD MSTORE PUSH5 0x68616E203 PUSH1 0xDC SHL PUSH1 0x64 DUP3 ADD MSTORE PUSH1 0x84 SWAP1 REVERT JUMPDEST PUSH1 0x40 MLOAD PUSH3 0x461BCD PUSH1 0xE5 SHL DUP2 MSTORE PUSH1 0x20 PUSH1 0x4 DUP3 ADD MSTORE PUSH1 0x19 PUSH1 0x24 DUP3 ADD MSTORE PUSH32 0x43616E6E6F742066756E6420796F7572206F776E206C6F616E00000000000000 PUSH1 0x44 DUP3 ADD MSTORE PUSH1 0x64 SWAP1 REVERT JUMPDEST PUSH1 0x40 MLOAD PUSH3 0x461BCD PUSH1 0xE5 SHL DUP2 MSTORE PUSH1 0x20 PUSH1 0x4 DUP3 ADD MSTORE PUSH1 0x12 PUSH1 0x24 DUP3 ADD MSTORE PUSH18 0x4C6F616E206E6F7420617661696C61626C65 PUSH1 0x70 SHL PUSH1 0x44 DUP3 ADD MSTORE PUSH1 0x64 SWAP1 REVERT JUMPDEST PUSH1 0x2 SWAP2 POP EQ DUP4 PUSH2 0xFA6 JUMP JUMPDEST CALLVALUE PUSH2 0x1BD JUMPI PUSH1 0x20 CALLDATASIZE PUSH1 0x3 NOT ADD SLT PUSH2 0x1BD JUMPI PUSH2 0x1484 PUSH2 0x2915 JUMP JUMPDEST PUSH2 0x148C PUSH2 0x2A11 JUMP JUMPDEST PUSH1 0x1 PUSH1 0x1 PUSH1 0xA0 SHL SUB SWAP1 DUP2 AND SWAP1 DUP2 ISZERO PUSH2 0x14DB JUMPI PUSH1 0x1 SLOAD DUP3 PUSH1 0x1 PUSH1 0x1 PUSH1 0x60 SHL SUB PUSH1 0xA0 SHL DUP3 AND OR PUSH1 0x1 SSTORE AND PUSH32 0x8BE0079C531659141344CD1FD0A4F28419497F9722A3DAAFE3B4186F6B6457E0 PUSH1 0x0 DUP1 LOG3 STOP JUMPDEST PUSH1 0x40 MLOAD PUSH4 0x1E4FBDF7 PUSH1 0xE0 SHL DUP2 MSTORE PUSH1 0x0 PUSH1 0x4 DUP3 ADD MSTORE PUSH1 0x24 SWAP1 REVERT JUMPDEST CALLVALUE PUSH2 0x1BD JUMPI PUSH1 0x40 CALLDATASIZE PUSH1 0x3 NOT ADD SLT PUSH2 0x1BD JUMPI PUSH2 0x150D PUSH2 0x2915 JUMP JUMPDEST PUSH1 0x1 PUSH1 0x1 PUSH1 0xA0 SHL SUB AND PUSH1 0x0 SWAP1 DUP2 MSTORE PUSH1 0x6 PUSH1 0x20 MSTORE PUSH1 0x40 SWAP1 KECCAK256 DUP1 SLOAD PUSH1 0x24 CALLDATALOAD SWAP2 SWAP1 DUP3 LT ISZERO PUSH2 0x1BD JUMPI PUSH1 0x20 SWAP2 PUSH2 0x153E SWAP2 PUSH2 0x2976 JUMP JUMPDEST SWAP1 SLOAD PUSH1 0x40 MLOAD SWAP2 PUSH1 0x3 SHL SHR DUP2 MSTORE RETURN JUMPDEST CALLVALUE PUSH2 0x1BD JUMPI PUSH1 0x20 CALLDATASIZE PUSH1 0x3 NOT ADD SLT PUSH2 0x1BD JUMPI PUSH1 0x4 CALLDATALOAD PUSH1 0x0 MSTORE PUSH1 0x4 PUSH1 0x20 MSTORE PUSH1 0x40 PUSH1 0x0 KECCAK256 DUP1 SLOAD SWAP1 DUP1 PUSH1 0x1 PUSH1 0xA0 SHL PUSH1 0x1 SWAP1 SUB PUSH1 0x1 DUP3 ADD SLOAD AND PUSH1 0x4 DUP3 ADD SLOAD PUSH1 0x5 DUP4 ADD SLOAD PUSH1 0x6 DUP5 ADD SLOAD PUSH1 0x7 DUP6 ADD SLOAD PUSH1 0x8 DUP7 ADD SLOAD PUSH1 0x9 DUP8 ADD SLOAD PUSH1 0xFF AND SWAP1 PUSH1 0xA DUP9 ADD SLOAD SWAP3 PUSH1 0xB DUP10 ADD SLOAD SWAP5 PUSH1 0xC DUP11 ADD SLOAD SWAP7 PUSH1 0xD DUP12 ADD SLOAD SWAP9 PUSH1 0xE DUP13 ADD SLOAD SWAP11 PUSH1 0xF DUP14 ADD SLOAD SWAP13 PUSH1 0x10 ADD SLOAD PUSH1 0xFF AND SWAP14 PUSH1 0x11 ADD SLOAD SWAP15 PUSH1 0x40 MLOAD DUP1 PUSH1 0x80 MSTORE MSTORE PUSH1 0x80 MLOAD PUSH1 0x20 ADD MSTORE PUSH1 0x80 MLOAD PUSH1 0x40 ADD MSTORE PUSH1 0x80 MLOAD PUSH1 0x60 ADD MSTORE PUSH1 0x80 MLOAD PUSH1 0x80 ADD PUSH1 0xFF DUP3 AND SWAP1 PUSH2 0x1604 SWAP2 PUSH2 0x29A4 JUMP JUMPDEST PUSH1 0x80 MLOAD PUSH1 0xA0 ADD SWAP1 PUSH1 0x8 SHR PUSH1 0xFF AND SWAP1 PUSH2 0x161B SWAP2 PUSH2 0x29A4 JUMP JUMPDEST PUSH1 0x80 MLOAD PUSH1 0xC0 ADD MSTORE PUSH1 0x80 MLOAD PUSH1 0xE0 ADD MSTORE ISZERO ISZERO PUSH1 0x80 MLOAD PUSH2 0x100 ADD MSTORE PUSH1 0x80 MLOAD PUSH2 0x120 ADD MSTORE PUSH1 0x80 MLOAD PUSH2 0x140 ADD MSTORE PUSH1 0x80 MLOAD PUSH2 0x160 ADD MSTORE PUSH1 0x80 MLOAD PUSH2 0x180 ADD MSTORE PUSH1 0x80 MLOAD PUSH2 0x1A0 ADD PUSH1 0xFF DUP3 AND SWAP1 PUSH2 0x1668 SWAP2 PUSH2 0x29E5 JUMP JUMPDEST PUSH1 0x8 SHR PUSH1 0xFF AND ISZERO ISZERO PUSH1 0x80 MLOAD PUSH2 0x1C0 ADD MSTORE PUSH1 0x80 MLOAD PUSH2 0x1E0 ADD MSTORE ISZERO ISZERO PUSH1 0x80 MLOAD PUSH2 0x200 ADD MSTORE PUSH1 0x80 MLOAD PUSH2 0x220 ADD MSTORE PUSH1 0x80 MLOAD PUSH2 0x240 SWAP1 RETURN JUMPDEST CALLVALUE PUSH2 0x1BD JUMPI PUSH1 0x20 CALLDATASIZE PUSH1 0x3 NOT ADD SLT PUSH2 0x1BD JUMPI PUSH1 0x4 CALLDATALOAD PUSH1 0x5 DUP2 LT ISZERO PUSH2 0x1BD JUMPI PUSH2 0x16C3 PUSH1 0xA0 SWAP2 PUSH2 0x295D JUMP JUMPDEST DUP1 SLOAD SWAP1 PUSH1 0x1 DUP2 ADD SLOAD SWAP1 PUSH1 0x2 DUP2 ADD SLOAD PUSH1 0x4 PUSH1 0x3 DUP4 ADD SLOAD SWAP3 ADD SLOAD SWAP3 PUSH1 0x40 MLOAD SWAP5 DUP6 MSTORE PUSH1 0x20 DUP6 ADD MSTORE PUSH1 0x40 DUP5 ADD MSTORE PUSH1 0x60 DUP4 ADD MSTORE PUSH1 0x80 DUP3 ADD MSTORE RETURN JUMPDEST CALLVALUE PUSH2 0x1BD JUMPI PUSH1 0x20 CALLDATASIZE PUSH1 0x3 NOT ADD SLT PUSH2 0x1BD JUMPI PUSH1 0x4 CALLDATALOAD PUSH1 0x5 DUP2 LT ISZERO PUSH2 0x1BD JUMPI PUSH2 0x1720 PUSH1 0x20 SWAP2 PUSH2 0x295D JUMP JUMPDEST PUSH2 0x176F PUSH2 0xE10 PUSH2 0x1768 PUSH1 0x40 MLOAD SWAP4 PUSH2 0x1736 DUP6 PUSH2 0x2A76 JUMP JUMPDEST DUP1 SLOAD DUP6 MSTORE PUSH1 0x4 PUSH1 0x1 DUP3 ADD SLOAD SWAP2 DUP3 DUP9 DUP9 ADD MSTORE PUSH1 0x2 DUP2 ADD SLOAD PUSH1 0x40 DUP9 ADD MSTORE PUSH1 0x3 DUP2 ADD SLOAD PUSH1 0x60 DUP9 ADD MSTORE ADD SLOAD PUSH1 0x80 DUP7 ADD MSTORE TIMESTAMP PUSH2 0x2B09 JUMP JUMPDEST GT ISZERO PUSH2 0x2B38 JUMP JUMPDEST MLOAD PUSH1 0x40 MLOAD SWAP1 DUP2 MSTORE RETURN JUMPDEST CALLVALUE PUSH2 0x1BD JUMPI PUSH1 0x20 CALLDATASIZE PUSH1 0x3 NOT ADD SLT PUSH2 0x1BD JUMPI PUSH1 0x4 CALLDATALOAD PUSH1 0x5 DUP2 LT ISZERO PUSH2 0x1BD JUMPI PUSH2 0x17CD PUSH1 0xC0 SWAP2 PUSH1 0x0 PUSH1 0xA0 PUSH1 0x40 MLOAD PUSH2 0x17AB DUP2 PUSH2 0x2A3D JUMP JUMPDEST DUP3 DUP2 MSTORE DUP3 PUSH1 0x20 DUP3 ADD MSTORE DUP3 PUSH1 0x40 DUP3 ADD MSTORE DUP3 PUSH1 0x60 DUP3 ADD MSTORE DUP3 PUSH1 0x80 DUP3 ADD MSTORE ADD MSTORE PUSH2 0x2944 JUMP JUMPDEST PUSH1 0x40 MLOAD SWAP1 PUSH2 0x17DA DUP3 PUSH2 0x2A3D JUMP JUMPDEST DUP1 SLOAD PUSH1 0x1 PUSH1 0x1 PUSH1 0xA0 SHL SUB DUP1 DUP3 AND DUP5 MSTORE SWAP2 SWAP1 PUSH1 0xFF PUSH1 0x20 DUP6 ADD PUSH2 0x1801 PUSH1 0xA0 DUP5 SWAP1 SHR DUP4 AND DUP3 PUSH2 0x2AD0 JUMP JUMPDEST PUSH2 0x184B PUSH1 0x40 DUP8 ADD SWAP2 DUP4 DUP6 PUSH1 0xA8 SHR AND DUP4 MSTORE DUP4 PUSH1 0x60 DUP10 ADD SWAP6 PUSH1 0xB0 SHR AND ISZERO ISZERO DUP6 MSTORE PUSH1 0x2 PUSH1 0x1 DUP8 ADD SLOAD SWAP7 PUSH1 0x80 DUP11 ADD SWAP8 DUP9 MSTORE ADD SLOAD SWAP7 PUSH1 0xA0 DUP10 ADD SWAP8 DUP9 MSTORE PUSH1 0x40 MLOAD SWAP9 MLOAD AND DUP9 MSTORE MLOAD PUSH1 0x20 DUP9 ADD SWAP1 PUSH2 0x29A4 JUMP JUMPDEST MLOAD AND PUSH1 0x40 DUP6 ADD MSTORE MLOAD ISZERO ISZERO PUSH1 0x60 DUP5 ADD MSTORE MLOAD PUSH1 0x80 DUP4 ADD MSTORE MLOAD PUSH1 0xA0 DUP3 ADD MSTORE RETURN JUMPDEST CALLVALUE PUSH2 0x1BD JUMPI PUSH1 0x20 CALLDATASIZE PUSH1 0x3 NOT ADD SLT PUSH2 0x1BD JUMPI PUSH1 0x4 CALLDATALOAD PUSH1 0x5 DUP2 LT ISZERO PUSH2 0x1BD JUMPI PUSH2 0x1890 PUSH1 0xC0 SWAP2 PUSH2 0x295D JUMP JUMPDEST PUSH1 0x40 MLOAD PUSH2 0x189C DUP2 PUSH2 0x2A76 JUMP JUMPDEST PUSH1 0x80 DUP3 SLOAD SWAP3 DUP4 DUP4 MSTORE PUSH1 0x1 DUP2 ADD SLOAD SWAP3 DUP4 PUSH1 0x20 DUP3 ADD MSTORE PUSH1 0x2 DUP3 ADD SLOAD SWAP1 DUP2 PUSH1 0x40 DUP3 ADD MSTORE PUSH1 0x4 PUSH1 0x3 DUP5 ADD SLOAD SWAP4 DUP5 PUSH1 0x60 DUP5 ADD MSTORE ADD SLOAD SWAP4 DUP5 SWAP2 ADD MSTORE PUSH2 0xE10 PUSH2 0x18DE DUP6 TIMESTAMP PUSH2 0x2B09 JUMP JUMPDEST GT SWAP4 PUSH1 0x40 MLOAD SWAP6 DUP7 MSTORE PUSH1 0x20 DUP7 ADD MSTORE PUSH1 0x40 DUP6 ADD MSTORE PUSH1 0x60 DUP5 ADD MSTORE PUSH1 0x80 DUP4 ADD MSTORE PUSH1 0xA0 DUP3 ADD MSTORE RETURN JUMPDEST CALLVALUE PUSH2 0x1BD JUMPI PUSH1 0x20 CALLDATASIZE PUSH1 0x3 NOT ADD SLT PUSH2 0x1BD JUMPI PUSH1 0x4 CALLDATALOAD PUSH1 0x5 DUP2 LT ISZERO PUSH2 0x1BD JUMPI PUSH2 0x1929 PUSH1 0x20 SWAP2 PUSH2 0x292B JUMP JUMPDEST SLOAD PUSH1 0x40 MLOAD SWAP1 DUP2 MSTORE RETURN JUMPDEST PUSH2 0x193B CALLDATASIZE PUSH2 0x29F2 JUMP JUMPDEST PUSH2 0x1943 PUSH2 0x2E01 JUMP JUMPDEST DUP1 ISZERO PUSH2 0x1A70 JUMPI PUSH1 0x5 DUP3 LT ISZERO PUSH2 0x3CF JUMPI DUP2 PUSH2 0x19FC JUMPI DUP1 CALLVALUE SUB PUSH2 0x19C1 JUMPI PUSH1 0x20 PUSH32 0x6FA38037A90881B4BC2D0759BCAC6C48179AFFDD02749FF4474EAC352D847B36 SWAP2 JUMPDEST PUSH2 0x198C DUP5 PUSH2 0x292B JUMP JUMPDEST PUSH2 0x1997 DUP3 DUP3 SLOAD PUSH2 0x2ADC JUMP JUMPDEST SWAP1 SSTORE CALLER PUSH1 0x0 MSTORE PUSH1 0xC DUP3 MSTORE PUSH1 0x40 PUSH1 0x0 KECCAK256 PUSH2 0x19B1 DUP3 DUP3 SLOAD PUSH2 0x2ADC JUMP JUMPDEST SWAP1 SSTORE PUSH1 0x40 MLOAD SWAP1 DUP2 MSTORE LOG2 PUSH1 0x1 PUSH1 0x0 SSTORE STOP JUMPDEST PUSH1 0x40 MLOAD PUSH3 0x461BCD PUSH1 0xE5 SHL DUP2 MSTORE PUSH1 0x20 PUSH1 0x4 DUP3 ADD MSTORE PUSH1 0x13 PUSH1 0x24 DUP3 ADD MSTORE PUSH19 0x8AA89040C2DADEEADCE840DAD2E6DAC2E8C6D PUSH1 0x6B SHL PUSH1 0x44 DUP3 ADD MSTORE PUSH1 0x64 SWAP1 REVERT JUMPDEST PUSH1 0x20 PUSH32 0x6FA38037A90881B4BC2D0759BCAC6C48179AFFDD02749FF4474EAC352D847B36 SWAP2 PUSH2 0x1A2A CALLVALUE ISZERO PUSH2 0x2C59 JUMP JUMPDEST PUSH2 0x1A6B DUP2 PUSH2 0x1A37 DUP7 PUSH2 0x2944 JUMP JUMPDEST PUSH1 0x40 MLOAD PUSH2 0x1A43 DUP2 PUSH2 0x2A3D JUMP JUMPDEST DUP2 SLOAD PUSH1 0x1 PUSH1 0x1 PUSH1 0xA0 SHL SUB DUP1 DUP3 AND DUP4 MSTORE SWAP3 PUSH1 0x2 SWAP2 PUSH1 0xFF SWAP1 PUSH2 0xBBA PUSH1 0xA0 DUP3 SWAP1 SHR DUP4 AND DUP12 DUP8 ADD PUSH2 0x2AD0 JUMP JUMPDEST PUSH2 0x1983 JUMP JUMPDEST PUSH1 0x40 MLOAD PUSH3 0x461BCD PUSH1 0xE5 SHL DUP2 MSTORE PUSH1 0x20 PUSH1 0x4 DUP3 ADD MSTORE PUSH1 0x17 PUSH1 0x24 DUP3 ADD MSTORE PUSH32 0x416D6F756E74206D75737420626520706F736974697665000000000000000000 PUSH1 0x44 DUP3 ADD MSTORE PUSH1 0x64 SWAP1 REVERT JUMPDEST CALLVALUE PUSH2 0x1BD JUMPI PUSH1 0x40 CALLDATASIZE PUSH1 0x3 NOT ADD SLT PUSH2 0x1BD JUMPI PUSH1 0xA0 PUSH2 0x1AD0 PUSH2 0x28FF JUMP JUMPDEST PUSH1 0x4 CALLDATALOAD PUSH1 0x0 MSTORE PUSH1 0x5 PUSH1 0x20 MSTORE PUSH1 0x40 PUSH1 0x0 KECCAK256 PUSH1 0x1 DUP1 DUP5 SHL SUB DUP1 SWAP3 AND PUSH1 0x0 MSTORE PUSH1 0x20 MSTORE PUSH1 0x40 PUSH1 0x0 KECCAK256 SWAP1 DUP2 SLOAD AND SWAP1 PUSH1 0x1 DUP2 ADD SLOAD SWAP1 PUSH1 0x2 DUP2 ADD SLOAD PUSH1 0x4 PUSH1 0xFF PUSH1 0x3 DUP5 ADD SLOAD AND SWAP3 ADD SLOAD SWAP3 PUSH1 0x40 MLOAD SWAP5 DUP6 MSTORE PUSH1 0x20 DUP6 ADD MSTORE PUSH1 0x40 DUP5 ADD MSTORE ISZERO ISZERO PUSH1 0x60 DUP4 ADD MSTORE PUSH1 0x80 DUP3 ADD MSTORE RETURN JUMPDEST CALLVALUE PUSH2 0x1BD JUMPI PUSH1 0x0 CALLDATASIZE PUSH1 0x3 NOT ADD SLT PUSH2 0x1BD JUMPI PUSH1 0x2 DUP1 SLOAD PUSH1 0x0 NOT DUP2 ADD DUP2 DUP2 GT PUSH2 0x587 JUMPI PUSH2 0x1B5A SWAP1 PUSH2 0x2CB5 JUMP JUMPDEST SWAP2 PUSH1 0x0 SWAP2 PUSH1 0x1 JUMPDEST DUP2 DUP2 LT PUSH2 0x1BBD JUMPI POP POP POP PUSH2 0x1B74 DUP2 PUSH2 0x2CB5 JUMP JUMPDEST SWAP2 PUSH1 0x0 JUMPDEST DUP3 DUP2 LT PUSH2 0x1B99 JUMPI PUSH1 0x40 MLOAD PUSH1 0x20 DUP1 DUP3 MSTORE DUP2 SWAP1 PUSH2 0x1B95 SWAP1 DUP3 ADD DUP8 PUSH2 0x29B1 JUMP JUMPDEST SUB SWAP1 RETURN JUMPDEST DUP1 PUSH2 0x1BA7 PUSH2 0x1BB8 SWAP3 DUP5 PUSH2 0x2F38 JUMP JUMPDEST MLOAD PUSH2 0x1BB2 DUP3 DUP8 PUSH2 0x2F38 JUMP JUMPDEST MSTORE PUSH2 0x2B29 JUMP JUMPDEST PUSH2 0x1B78 JUMP JUMPDEST DUP1 PUSH1 0x0 MSTORE PUSH1 0x20 PUSH1 0x4 DUP2 MSTORE PUSH1 0xFF PUSH1 0xE SWAP1 DUP1 DUP3 PUSH1 0x40 PUSH1 0x0 KECCAK256 ADD SLOAD AND SWAP2 PUSH1 0x6 SWAP3 DUP4 DUP2 LT ISZERO PUSH2 0x3CF JUMPI ISZERO SWAP4 DUP5 ISZERO PUSH2 0x1C1D JUMPI JUMPDEST POP POP POP POP PUSH2 0x1C02 JUMPI JUMPDEST PUSH2 0x1BFD SWAP1 PUSH2 0x2B29 JUMP JUMPDEST PUSH2 0x1B61 JUMP JUMPDEST SWAP3 PUSH2 0x1C15 DUP2 DUP6 PUSH2 0x1BB2 PUSH2 0x1BFD SWAP5 DUP10 PUSH2 0x2F38 JUMP JUMPDEST SWAP4 SWAP1 POP PUSH2 0x1BF4 JUMP JUMPDEST PUSH1 0x0 DUP7 DUP2 MSTORE PUSH1 0x4 SWAP1 SWAP2 MSTORE PUSH1 0x40 SWAP1 KECCAK256 ADD SLOAD AND SWAP2 POP DUP2 LT ISZERO PUSH2 0x3CF JUMPI DUP4 EQ DUP7 DUP1 DUP1 DUP1 PUSH2 0x1BEB JUMP JUMPDEST CALLVALUE PUSH2 0x1BD JUMPI PUSH1 0x0 CALLDATASIZE PUSH1 0x3 NOT ADD SLT PUSH2 0x1BD JUMPI PUSH1 0x1 SLOAD PUSH1 0x40 MLOAD PUSH1 0x1 PUSH1 0x1 PUSH1 0xA0 SHL SUB SWAP1 SWAP2 AND DUP2 MSTORE PUSH1 0x20 SWAP1 RETURN JUMPDEST CALLVALUE PUSH2 0x1BD JUMPI PUSH1 0x0 CALLDATASIZE PUSH1 0x3 NOT ADD SLT PUSH2 0x1BD JUMPI PUSH1 0x20 PUSH1 0x40 MLOAD PUSH2 0xE10 DUP2 MSTORE RETURN JUMPDEST CALLVALUE PUSH2 0x1BD JUMPI PUSH1 0x0 CALLDATASIZE PUSH1 0x3 NOT ADD SLT PUSH2 0x1BD JUMPI PUSH1 0x20 PUSH1 0x2 SLOAD PUSH1 0x40 MLOAD SWAP1 DUP2 MSTORE RETURN JUMPDEST CALLVALUE PUSH2 0x1BD JUMPI PUSH1 0x40 CALLDATASIZE PUSH1 0x3 NOT ADD SLT PUSH2 0x1BD JUMPI PUSH2 0x1CBF PUSH2 0x2915 JUMP JUMPDEST PUSH1 0x24 CALLDATALOAD SWAP1 DUP2 ISZERO ISZERO SWAP1 DUP2 DUP4 SUB PUSH2 0x1BD JUMPI PUSH32 0x32FDE6397CD391B6F81B58789E435D67003507393605E8AB5C6EC76AAF7916A1 SWAP2 PUSH2 0x1D25 PUSH1 0x20 SWAP3 PUSH2 0x1CFE PUSH2 0x2A11 JUMP JUMPDEST PUSH1 0x1 DUP1 PUSH1 0xA0 SHL SUB AND SWAP5 DUP6 PUSH1 0x0 MSTORE PUSH1 0x9 DUP5 MSTORE PUSH1 0x40 PUSH1 0x0 KECCAK256 SWAP1 PUSH1 0xFF DUP1 NOT DUP4 SLOAD AND SWAP2 ISZERO ISZERO AND OR SWAP1 SSTORE JUMP JUMPDEST PUSH1 0x40 MLOAD SWAP1 DUP2 MSTORE LOG2 STOP JUMPDEST CALLVALUE PUSH2 0x1BD JUMPI PUSH1 0x0 CALLDATASIZE PUSH1 0x3 NOT ADD SLT PUSH2 0x1BD JUMPI PUSH1 0x20 PUSH1 0x40 MLOAD PUSH1 0x64 DUP2 MSTORE RETURN JUMPDEST CALLVALUE PUSH2 0x1BD JUMPI PUSH1 0x0 CALLDATASIZE PUSH1 0x3 NOT ADD SLT PUSH2 0x1BD JUMPI PUSH1 0x20 PUSH1 0x40 MLOAD PUSH1 0x78 DUP2 MSTORE RETURN JUMPDEST CALLVALUE PUSH2 0x1BD JUMPI PUSH1 0x0 CALLDATASIZE PUSH1 0x3 NOT ADD SLT PUSH2 0x1BD JUMPI PUSH2 0x1D7F PUSH2 0x2A11 JUMP JUMPDEST PUSH1 0x1 DUP1 SLOAD PUSH1 0x1 PUSH1 0x1 PUSH1 0xA0 SHL SUB NOT DUP2 AND SWAP1 SWAP2 SSTORE PUSH1 0x0 SWAP1 PUSH1 0x1 PUSH1 0x1 PUSH1 0xA0 SHL SUB AND PUSH32 0x8BE0079C531659141344CD1FD0A4F28419497F9722A3DAAFE3B4186F6B6457E0 DUP3 DUP1 LOG3 STOP JUMPDEST CALLVALUE PUSH2 0x1BD JUMPI PUSH1 0x40 CALLDATASIZE PUSH1 0x3 NOT ADD SLT PUSH2 0x1BD JUMPI PUSH2 0x1DDC PUSH2 0x28FF JUMP JUMPDEST PUSH1 0x4 CALLDATALOAD PUSH1 0x0 MSTORE PUSH1 0xB PUSH1 0x20 MSTORE PUSH1 0x40 PUSH1 0x0 KECCAK256 SWAP1 PUSH1 0x1 DUP1 PUSH1 0xA0 SHL SUB AND PUSH1 0x0 MSTORE PUSH1 0x20 MSTORE PUSH1 0x20 PUSH1 0xFF PUSH1 0x40 PUSH1 0x0 KECCAK256 SLOAD AND PUSH1 0x40 MLOAD SWAP1 ISZERO ISZERO DUP2 MSTORE RETURN JUMPDEST CALLVALUE PUSH2 0x1BD JUMPI PUSH1 0x20 CALLDATASIZE PUSH1 0x3 NOT ADD SLT PUSH2 0x1BD JUMPI PUSH1 0x0 PUSH2 0x260 PUSH1 0x40 MLOAD PUSH2 0x1E32 DUP2 PUSH2 0x2A59 JUMP JUMPDEST DUP3 DUP2 MSTORE DUP3 PUSH1 0x20 DUP3 ADD MSTORE PUSH1 0x60 PUSH1 0x40 DUP3 ADD MSTORE PUSH1 0x60 DUP1 DUP3 ADD MSTORE DUP3 PUSH1 0x80 DUP3 ADD MSTORE DUP3 PUSH1 0xA0 DUP3 ADD MSTORE DUP3 PUSH1 0xC0 DUP3 ADD MSTORE DUP3 PUSH1 0xE0 DUP3 ADD MSTORE DUP3 PUSH2 0x100 DUP3 ADD MSTORE DUP3 PUSH2 0x120 DUP3 ADD MSTORE DUP3 PUSH2 0x140 DUP3 ADD MSTORE DUP3 PUSH2 0x160 DUP3 ADD MSTORE DUP3 PUSH2 0x180 DUP3 ADD MSTORE DUP3 PUSH2 0x1A0 DUP3 ADD MSTORE DUP3 PUSH2 0x1C0 DUP3 ADD MSTORE DUP3 PUSH2 0x1E0 DUP3 ADD MSTORE DUP3 PUSH2 0x200 DUP3 ADD MSTORE DUP3 PUSH2 0x220 DUP3 ADD MSTORE DUP3 PUSH2 0x240 DUP3 ADD MSTORE ADD MSTORE PUSH1 0x4 CALLDATALOAD PUSH1 0x0 MSTORE PUSH1 0x4 PUSH1 0x20 MSTORE PUSH1 0x40 PUSH1 0x0 KECCAK256 PUSH1 0x40 MLOAD SWAP1 PUSH2 0x1ECC DUP3 PUSH2 0x2A59 JUMP JUMPDEST DUP1 SLOAD DUP3 MSTORE PUSH1 0x1 DUP1 PUSH1 0xA0 SHL SUB PUSH1 0x1 DUP3 ADD SLOAD AND PUSH1 0x20 DUP4 ADD MSTORE PUSH1 0x40 MLOAD DUP1 DUP2 PUSH1 0x2 DUP5 ADD PUSH1 0x20 DUP2 SLOAD SWAP4 DUP5 DUP2 MSTORE ADD SWAP1 PUSH1 0x0 MSTORE PUSH1 0x20 PUSH1 0x0 KECCAK256 SWAP3 PUSH1 0x0 JUMPDEST DUP2 DUP2 LT PUSH2 0x21AC JUMPI POP POP PUSH2 0x1F16 SWAP3 POP SUB DUP3 PUSH2 0x2AAE JUMP JUMPDEST PUSH1 0x40 DUP4 ADD MSTORE PUSH1 0x40 MLOAD DUP1 DUP2 PUSH1 0x20 PUSH1 0x3 DUP6 ADD SLOAD SWAP3 DUP4 DUP2 MSTORE ADD PUSH1 0x3 DUP6 ADD PUSH1 0x0 MSTORE PUSH1 0x20 PUSH1 0x0 KECCAK256 SWAP3 PUSH1 0x0 JUMPDEST DUP2 DUP2 LT PUSH2 0x2193 JUMPI POP POP PUSH2 0x1F51 SWAP3 POP SUB DUP3 PUSH2 0x2AAE JUMP JUMPDEST PUSH1 0x60 DUP4 ADD MSTORE PUSH1 0x4 DUP2 ADD SLOAD PUSH1 0x80 DUP4 ADD MSTORE PUSH1 0x5 DUP2 ADD SLOAD PUSH1 0xA0 DUP4 ADD MSTORE PUSH2 0x1F90 PUSH1 0xFF PUSH1 0x6 DUP4 ADD SLOAD PUSH2 0x1F83 DUP3 DUP3 AND PUSH1 0xC0 DUP8 ADD PUSH2 0x2AD0 JUMP JUMPDEST PUSH1 0x8 SHR AND PUSH1 0xE0 DUP5 ADD PUSH2 0x2AD0 JUMP JUMPDEST PUSH1 0x7 DUP2 ADD SLOAD PUSH2 0x100 DUP4 ADD MSTORE PUSH1 0x8 DUP2 ADD SLOAD PUSH2 0x120 DUP4 ADD MSTORE PUSH1 0xFF PUSH1 0x9 DUP3 ADD SLOAD AND ISZERO ISZERO PUSH2 0x140 DUP4 ADD MSTORE PUSH1 0xA DUP2 ADD SLOAD PUSH2 0x160 DUP4 ADD MSTORE PUSH1 0xB DUP2 ADD SLOAD PUSH2 0x180 DUP4 ADD MSTORE PUSH1 0xC DUP2 ADD SLOAD PUSH2 0x1A0 DUP4 ADD MSTORE PUSH1 0xD DUP2 ADD SLOAD PUSH2 0x1C0 DUP4 ADD MSTORE PUSH1 0xE DUP2 ADD SLOAD SWAP1 PUSH1 0x6 PUSH1 0xFF DUP4 AND LT ISZERO PUSH2 0x3CF JUMPI PUSH1 0xFF DUP3 DUP2 PUSH1 0x11 SWAP5 AND PUSH2 0x1E0 DUP7 ADD MSTORE PUSH1 0x8 SHR AND ISZERO ISZERO PUSH2 0x200 DUP5 ADD MSTORE PUSH1 0xF DUP2 ADD SLOAD PUSH2 0x220 DUP5 ADD MSTORE PUSH1 0xFF PUSH1 0x10 DUP3 ADD SLOAD AND ISZERO ISZERO PUSH2 0x240 DUP5 ADD MSTORE ADD SLOAD PUSH2 0x260 DUP3 ADD MSTORE PUSH1 0x40 MLOAD PUSH1 0x20 DUP2 MSTORE DUP2 MLOAD PUSH1 0x20 DUP3 ADD MSTORE PUSH1 0x1 DUP1 PUSH1 0xA0 SHL SUB PUSH1 0x20 DUP4 ADD MLOAD AND PUSH1 0x40 DUP3 ADD MSTORE PUSH1 0x40 DUP3 ADD MLOAD SWAP2 PUSH2 0x280 PUSH1 0x60 DUP4 ADD MSTORE PUSH2 0x2A0 DUP3 ADD DUP4 MLOAD DUP1 SWAP2 MSTORE PUSH1 0x20 PUSH2 0x2C0 DUP5 ADD SWAP5 ADD SWAP1 PUSH1 0x0 JUMPDEST DUP2 DUP2 LT PUSH2 0x2174 JUMPI POP POP POP PUSH2 0x260 PUSH2 0x209E DUP4 SWAP5 PUSH1 0x60 DUP5 ADD MLOAD PUSH1 0x1F NOT DUP7 DUP4 SUB ADD PUSH1 0x80 DUP8 ADD MSTORE PUSH2 0x29B1 JUMP JUMPDEST SWAP2 PUSH1 0x80 DUP2 ADD MLOAD PUSH1 0xA0 DUP6 ADD MSTORE PUSH1 0xA0 DUP2 ADD MLOAD PUSH1 0xC0 DUP6 ADD MSTORE PUSH2 0x20C5 PUSH1 0xC0 DUP3 ADD MLOAD PUSH1 0xE0 DUP7 ADD SWAP1 PUSH2 0x29A4 JUMP JUMPDEST PUSH2 0x20D8 PUSH1 0xE0 DUP3 ADD MLOAD PUSH2 0x100 DUP7 ADD SWAP1 PUSH2 0x29A4 JUMP JUMPDEST PUSH2 0x100 DUP2 ADD MLOAD PUSH2 0x120 DUP6 ADD MSTORE PUSH2 0x120 DUP2 ADD MLOAD PUSH2 0x140 DUP6 ADD MSTORE PUSH2 0x140 DUP2 ADD MLOAD ISZERO ISZERO PUSH2 0x160 DUP6 ADD MSTORE PUSH2 0x160 DUP2 ADD MLOAD PUSH2 0x180 DUP6 ADD MSTORE PUSH2 0x180 DUP2 ADD MLOAD PUSH2 0x1A0 DUP6 ADD MSTORE PUSH2 0x1A0 DUP2 ADD MLOAD PUSH2 0x1C0 DUP6 ADD MSTORE PUSH2 0x1C0 DUP2 ADD MLOAD PUSH2 0x1E0 DUP6 ADD MSTORE PUSH2 0x2142 PUSH2 0x1E0 DUP3 ADD MLOAD PUSH2 0x200 DUP7 ADD SWAP1 PUSH2 0x29E5 JUMP JUMPDEST PUSH2 0x200 DUP2 ADD MLOAD ISZERO ISZERO PUSH2 0x220 DUP6 ADD MSTORE PUSH2 0x220 DUP2 ADD MLOAD PUSH2 0x240 DUP6 ADD MSTORE PUSH2 0x240 DUP2 ADD MLOAD ISZERO ISZERO DUP3 DUP6 ADD MSTORE ADD MLOAD PUSH2 0x280 DUP4 ADD MSTORE SUB SWAP1 RETURN JUMPDEST DUP3 MLOAD PUSH1 0x1 PUSH1 0x1 PUSH1 0xA0 SHL SUB AND DUP7 MSTORE PUSH1 0x20 SWAP6 DUP7 ADD SWAP6 SWAP1 SWAP3 ADD SWAP2 PUSH1 0x1 ADD PUSH2 0x2076 JUMP JUMPDEST DUP5 SLOAD DUP4 MSTORE PUSH1 0x1 SWAP5 DUP6 ADD SWAP5 DUP7 SWAP5 POP PUSH1 0x20 SWAP1 SWAP4 ADD SWAP3 ADD PUSH2 0x1F3C JUMP JUMPDEST DUP5 SLOAD PUSH1 0x1 PUSH1 0x1 PUSH1 0xA0 SHL SUB AND DUP4 MSTORE PUSH1 0x1 SWAP5 DUP6 ADD SWAP5 DUP7 SWAP5 POP PUSH1 0x20 SWAP1 SWAP4 ADD SWAP3 ADD PUSH2 0x1F01 JUMP JUMPDEST CALLVALUE PUSH2 0x1BD JUMPI PUSH1 0x60 CALLDATASIZE PUSH1 0x3 NOT ADD SLT PUSH2 0x1BD JUMPI PUSH1 0x4 CALLDATALOAD PUSH1 0x5 DUP2 LT ISZERO PUSH2 0x1BD JUMPI PUSH1 0x24 SWAP1 DUP2 CALLDATALOAD SWAP2 PUSH1 0x44 CALLDATALOAD CALLER PUSH1 0x0 MSTORE PUSH1 0x20 SWAP2 PUSH1 0x9 DUP4 MSTORE PUSH1 0xFF PUSH1 0x40 PUSH1 0x0 KECCAK256 SLOAD AND ISZERO PUSH2 0x247D JUMPI DUP5 ISZERO ISZERO DUP1 PUSH2 0x2474 JUMPI JUMPDEST ISZERO PUSH2 0x2440 JUMPI PUSH2 0x2224 DUP5 PUSH2 0x295D JUMP JUMPDEST SWAP1 PUSH2 0x222F DUP4 DUP8 PUSH2 0x2ADC JUMP JUMPDEST PUSH1 0x1 SHR SWAP3 DUP1 DUP8 GT ISZERO PUSH2 0x2410 JUMPI PUSH2 0x2245 DUP2 DUP9 PUSH2 0x2B09 JUMP JUMPDEST PUSH2 0x2710 SWAP1 DUP2 DUP2 MUL SWAP2 DUP2 DUP4 DIV EQ SWAP1 ISZERO OR ISZERO PUSH2 0x23FB JUMPI PUSH2 0x2266 DUP3 PUSH2 0x3E8 SWAP3 PUSH2 0x2AE9 JUMP JUMPDEST GT PUSH2 0x23B7 JUMPI PUSH1 0x4 DUP4 ADD SWAP3 DUP4 SLOAD SWAP3 DUP4 PUSH2 0x22C5 JUMPI JUMPDEST POP SWAP1 PUSH1 0x3 DUP3 PUSH32 0xF798C75B2DB09EA1034D9BE253E9974B17BBE4A06F2B0FF6695054FA5B747191 SWAP9 SWAP10 DUP8 PUSH2 0x22BA SWAP7 SWAP6 SSTORE TIMESTAMP PUSH1 0x1 DUP4 ADD SSTORE PUSH1 0x2 DUP3 ADD SSTORE ADD SSTORE PUSH2 0x2B29 JUMP JUMPDEST SWAP1 SSTORE PUSH1 0x40 MLOAD SWAP1 DUP2 MSTORE LOG2 STOP JUMPDEST SWAP8 DUP2 SLOAD DUP7 DUP2 DUP2 GT PUSH1 0x0 EQ PUSH2 0x2373 JUMPI DUP2 PUSH2 0x22DD SWAP2 PUSH2 0x2B09 JUMP JUMPDEST PUSH2 0x2710 SWAP1 DUP2 DUP2 MUL SWAP2 DUP2 DUP4 DIV EQ SWAP1 ISZERO OR ISZERO PUSH2 0x235E JUMPI PUSH2 0xBB8 SWAP2 PUSH2 0x22FE SWAP2 PUSH2 0x2AE9 JUMP JUMPDEST GT PUSH2 0x2309 JUMPI SWAP8 PUSH2 0x2279 JUMP JUMPDEST PUSH1 0x40 MLOAD PUSH3 0x461BCD PUSH1 0xE5 SHL DUP2 MSTORE PUSH1 0x4 DUP2 ADD DUP9 SWAP1 MSTORE PUSH1 0x28 DUP2 DUP12 ADD MSTORE PUSH32 0x4E657720707269636520646576696174657320746F6F206D7563682066726F6D PUSH1 0x44 DUP3 ADD MSTORE PUSH8 0x818DD5C9C995B9D PUSH1 0xC2 SHL PUSH1 0x64 DUP3 ADD MSTORE PUSH1 0x84 SWAP1 REVERT JUMPDEST DUP11 PUSH4 0x4E487B71 PUSH1 0xE0 SHL PUSH1 0x0 MSTORE PUSH1 0x11 PUSH1 0x4 MSTORE PUSH1 0x0 REVERT JUMPDEST PUSH2 0x237C SWAP2 PUSH2 0x2B09 JUMP JUMPDEST PUSH2 0x2710 SWAP1 DUP2 DUP2 MUL SWAP2 DUP2 DUP4 DIV EQ SWAP1 ISZERO OR ISZERO PUSH2 0x23A2 JUMPI PUSH2 0x239D DUP8 PUSH2 0xBB8 SWAP3 PUSH2 0x2AE9 JUMP JUMPDEST PUSH2 0x22FE JUMP JUMPDEST DUP10 PUSH4 0x4E487B71 PUSH1 0xE0 SHL PUSH1 0x0 MSTORE PUSH1 0x11 PUSH1 0x4 MSTORE PUSH1 0x0 REVERT JUMPDEST PUSH1 0x40 MLOAD PUSH3 0x461BCD PUSH1 0xE5 SHL DUP2 MSTORE PUSH1 0x4 DUP2 ADD DUP7 SWAP1 MSTORE PUSH1 0x1E DUP2 DUP5 ADD MSTORE PUSH32 0x507269636520736F7572636573206465766961746520746F6F206D7563680000 PUSH1 0x44 DUP3 ADD MSTORE PUSH1 0x64 SWAP1 REVERT JUMPDEST DUP3 PUSH4 0x4E487B71 PUSH1 0xE0 SHL PUSH1 0x0 MSTORE PUSH1 0x11 PUSH1 0x4 MSTORE PUSH1 0x0 REVERT JUMPDEST PUSH2 0x241A DUP8 DUP3 PUSH2 0x2B09 JUMP JUMPDEST PUSH2 0x2710 SWAP1 DUP2 DUP2 MUL SWAP2 DUP2 DUP4 DIV EQ SWAP1 ISZERO OR ISZERO PUSH2 0x23FB JUMPI PUSH2 0x243B DUP9 PUSH2 0x3E8 SWAP3 PUSH2 0x2AE9 JUMP JUMPDEST PUSH2 0x2266 JUMP JUMPDEST DUP3 PUSH1 0xE PUSH1 0x64 SWAP3 PUSH1 0x40 MLOAD SWAP3 PUSH3 0x461BCD PUSH1 0xE5 SHL DUP5 MSTORE PUSH1 0x4 DUP5 ADD MSTORE DUP3 ADD MSTORE PUSH14 0x496E76616C696420707269636573 PUSH1 0x90 SHL PUSH1 0x44 DUP3 ADD MSTORE REVERT JUMPDEST POP DUP2 ISZERO ISZERO PUSH2 0x2216 JUMP JUMPDEST DUP3 PUSH1 0x1B PUSH1 0x64 SWAP3 PUSH1 0x40 MLOAD SWAP3 PUSH3 0x461BCD PUSH1 0xE5 SHL DUP5 MSTORE PUSH1 0x4 DUP5 ADD MSTORE DUP3 ADD MSTORE PUSH32 0x4E6F7420617574686F72697A6564207072696365206F7261636C650000000000 PUSH1 0x44 DUP3 ADD MSTORE REVERT JUMPDEST CALLVALUE PUSH2 0x1BD JUMPI PUSH1 0x20 CALLDATASIZE PUSH1 0x3 NOT ADD SLT PUSH2 0x1BD JUMPI PUSH1 0x4 CALLDATALOAD PUSH1 0x5 DUP2 LT ISZERO PUSH2 0x1BD JUMPI PUSH2 0x24E8 PUSH1 0xC0 SWAP2 PUSH2 0x2944 JUMP JUMPDEST DUP1 SLOAD PUSH1 0x1 DUP3 ADD SLOAD PUSH1 0x2 SWAP1 SWAP3 ADD SLOAD PUSH1 0x40 MLOAD PUSH1 0x1 PUSH1 0x1 PUSH1 0xA0 SHL SUB DUP4 AND DUP2 MSTORE SWAP3 SWAP1 SWAP2 PUSH1 0xFF SWAP1 PUSH2 0x251D PUSH1 0x20 DUP7 ADD PUSH1 0xA0 DUP4 SWAP1 SHR DUP5 AND PUSH2 0x29A4 JUMP JUMPDEST DUP2 DUP2 PUSH1 0xA8 SHR AND PUSH1 0x40 DUP7 ADD MSTORE PUSH1 0xB0 SHR AND ISZERO ISZERO PUSH1 0x60 DUP5 ADD MSTORE PUSH1 0x80 DUP4 ADD MSTORE PUSH1 0xA0 DUP3 ADD MSTORE RETURN JUMPDEST CALLVALUE PUSH2 0x1BD JUMPI PUSH1 0x40 CALLDATASIZE PUSH1 0x3 NOT ADD SLT PUSH2 0x1BD JUMPI PUSH2 0x2558 PUSH2 0x2915 JUMP JUMPDEST PUSH1 0x1 PUSH1 0x1 PUSH1 0xA0 SHL SUB AND PUSH1 0x0 SWAP1 DUP2 MSTORE PUSH1 0x7 PUSH1 0x20 MSTORE PUSH1 0x40 SWAP1 KECCAK256 DUP1 SLOAD PUSH1 0x24 CALLDATALOAD SWAP2 SWAP1 DUP3 LT ISZERO PUSH2 0x1BD JUMPI PUSH1 0x20 SWAP2 PUSH2 0x153E SWAP2 PUSH2 0x2976 JUMP JUMPDEST CALLVALUE PUSH2 0x1BD JUMPI PUSH1 0x0 CALLDATASIZE PUSH1 0x3 NOT ADD SLT PUSH2 0x1BD JUMPI PUSH1 0x20 PUSH1 0x40 MLOAD PUSH2 0xBB8 DUP2 MSTORE RETURN JUMPDEST CALLVALUE PUSH2 0x1BD JUMPI PUSH1 0xA0 CALLDATASIZE PUSH1 0x3 NOT ADD SLT PUSH2 0x1BD JUMPI PUSH1 0x4 CALLDATALOAD PUSH1 0x5 DUP2 LT ISZERO PUSH2 0x1BD JUMPI PUSH2 0x25CB PUSH2 0x28FF JUMP JUMPDEST SWAP1 PUSH1 0x44 CALLDATALOAD PUSH1 0xFF DUP2 AND DUP1 SWAP2 SUB PUSH2 0x1BD JUMPI PUSH2 0x25E2 PUSH2 0x2A11 JUMP JUMPDEST PUSH1 0x40 MLOAD SWAP1 PUSH2 0x25EF DUP3 PUSH2 0x2A3D JUMP JUMPDEST PUSH1 0x1 PUSH1 0x1 PUSH1 0xA0 SHL SUB SWAP4 DUP5 AND DUP1 DUP4 MSTORE SWAP4 PUSH1 0x20 DUP4 ADD PUSH2 0x260C DUP6 DUP3 PUSH2 0x2AD0 JUMP JUMPDEST PUSH1 0x40 DUP5 ADD SWAP3 DUP4 MSTORE PUSH1 0x60 DUP5 ADD SWAP1 PUSH1 0x1 DUP3 MSTORE PUSH1 0x80 DUP6 ADD SWAP2 PUSH1 0x64 CALLDATALOAD DUP4 MSTORE PUSH1 0xA0 DUP7 ADD SWAP4 PUSH1 0x84 CALLDATALOAD DUP6 MSTORE PUSH2 0x2639 DUP9 PUSH2 0x2944 JUMP JUMPDEST SWAP7 MLOAD AND SWAP2 DUP7 SLOAD SWAP1 MLOAD SWAP3 PUSH1 0x5 DUP5 LT ISZERO PUSH2 0x3CF JUMPI PUSH1 0x2 SWAP7 PUSH1 0xFF PUSH1 0xA8 SHL SWAP1 MLOAD PUSH1 0xA8 SHL AND SWAP3 PUSH1 0xFF PUSH1 0xB0 SHL SWAP1 MLOAD ISZERO ISZERO PUSH1 0xB0 SHL AND SWAP4 PUSH1 0xFF PUSH1 0xA0 SHL SWAP1 PUSH1 0xA0 SHL AND SWAP2 PUSH9 0xFFFFFFFFFFFFFFFFFF PUSH1 0xB8 SHL AND OR OR OR OR DUP5 SSTORE MLOAD PUSH1 0x1 DUP5 ADD SSTORE MLOAD SWAP2 ADD SSTORE PUSH32 0x782D5A983F4F99019EB2DC8DFE67419752A13DCA743154E71029FC01318D055 PUSH1 0x0 DUP1 LOG3 STOP JUMPDEST CALLVALUE PUSH2 0x1BD JUMPI PUSH1 0x0 CALLDATASIZE PUSH1 0x3 NOT ADD SLT PUSH2 0x1BD JUMPI PUSH1 0x20 PUSH1 0x40 MLOAD PUSH3 0x93A80 DUP2 MSTORE RETURN JUMPDEST CALLVALUE PUSH2 0x1BD JUMPI PUSH1 0x20 CALLDATASIZE PUSH1 0x3 NOT ADD SLT PUSH2 0x1BD JUMPI PUSH1 0x1 PUSH1 0x1 PUSH1 0xA0 SHL SUB PUSH2 0x26F7 PUSH2 0x2915 JUMP JUMPDEST AND PUSH1 0x0 MSTORE PUSH1 0xC PUSH1 0x20 MSTORE PUSH1 0x20 PUSH1 0x40 PUSH1 0x0 KECCAK256 SLOAD PUSH1 0x40 MLOAD SWAP1 DUP2 MSTORE RETURN JUMPDEST CALLVALUE PUSH2 0x1BD JUMPI PUSH1 0x0 CALLDATASIZE PUSH1 0x3 NOT ADD SLT PUSH2 0x1BD JUMPI PUSH1 0x20 PUSH1 0x40 MLOAD PUSH4 0x1E13380 DUP2 MSTORE RETURN JUMPDEST CALLVALUE PUSH2 0x1BD JUMPI PUSH1 0x20 CALLDATASIZE PUSH1 0x3 NOT ADD SLT PUSH2 0x1BD JUMPI PUSH1 0x1 PUSH1 0x1 PUSH1 0xA0 SHL SUB PUSH2 0x2750 PUSH2 0x2915 JUMP JUMPDEST AND PUSH1 0x0 MSTORE PUSH1 0x9 PUSH1 0x20 MSTORE PUSH1 0x20 PUSH1 0xFF PUSH1 0x40 PUSH1 0x0 KECCAK256 SLOAD AND PUSH1 0x40 MLOAD SWAP1 ISZERO ISZERO DUP2 MSTORE RETURN JUMPDEST CALLVALUE PUSH2 0x1BD JUMPI PUSH1 0x40 CALLDATASIZE PUSH1 0x3 NOT ADD SLT PUSH2 0x1BD JUMPI PUSH1 0x4 CALLDATALOAD PUSH2 0x278A PUSH2 0x28FF JUMP JUMPDEST SWAP1 DUP1 PUSH1 0x0 MSTORE PUSH1 0x20 PUSH1 0x4 DUP2 MSTORE PUSH1 0x40 PUSH1 0x0 KECCAK256 SWAP2 PUSH2 0x27A7 DUP4 SLOAD ISZERO ISZERO PUSH2 0x2E24 JUMP JUMPDEST PUSH1 0xFF PUSH1 0x10 DUP5 ADD SLOAD AND SWAP2 PUSH1 0x11 DUP5 ADD SLOAD SWAP4 DUP3 PUSH1 0x0 MSTORE PUSH1 0xB DUP3 MSTORE PUSH1 0x40 PUSH1 0x0 KECCAK256 SWAP3 PUSH1 0x1 DUP1 PUSH1 0xA0 SHL SUB DUP1 SWAP8 AND SWAP4 DUP5 PUSH1 0x0 MSTORE DUP4 MSTORE PUSH1 0xFF PUSH1 0x40 PUSH1 0x0 KECCAK256 SLOAD AND SWAP4 PUSH1 0x0 SWAP1 PUSH1 0x0 SWAP3 PUSH1 0x0 PUSH1 0x2 DUP7 ADD SWAP11 DUP12 SLOAD SWAP2 JUMPDEST DUP3 DUP2 LT PUSH2 0x28B3 JUMPI POP POP POP DUP8 DUP1 SWAP10 SWAP11 POP SWAP8 PUSH2 0x2897 JUMPI JUMPDEST DUP8 PUSH2 0x2874 JUMPI JUMPDEST POP POP DUP6 PUSH2 0x286C JUMPI JUMPDEST POP DUP5 PUSH2 0x2862 JUMPI JUMPDEST POP DUP4 PUSH2 0x2841 JUMPI JUMPDEST POP SWAP4 PUSH1 0x80 SWAP5 PUSH1 0x40 MLOAD SWAP5 ISZERO ISZERO DUP6 MSTORE DUP5 ADD MSTORE ISZERO ISZERO PUSH1 0x40 DUP4 ADD MSTORE ISZERO ISZERO PUSH1 0x60 DUP3 ADD MSTORE RETURN JUMPDEST PUSH1 0xD SWAP2 SWAP4 POP ADD SLOAD SWAP4 PUSH3 0x93A80 DUP6 ADD DUP1 SWAP6 GT PUSH2 0x587 JUMPI SWAP4 TIMESTAMP LT ISZERO SWAP2 PUSH1 0x80 PUSH2 0x2821 JUMP JUMPDEST ISZERO ISZERO SWAP4 POP DUP7 PUSH2 0x281A JUMP JUMPDEST SWAP5 POP DUP8 PUSH2 0x2813 JUMP JUMPDEST PUSH1 0x0 SWAP1 DUP2 MSTORE PUSH1 0xB DUP7 MSTORE PUSH1 0x40 DUP1 DUP3 KECCAK256 SWAP3 DUP3 MSTORE SWAP2 DUP7 MSTORE KECCAK256 SLOAD PUSH1 0xFF AND ISZERO SWAP6 POP DUP9 DUP1 PUSH2 0x280B JUMP JUMPDEST SWAP7 POP PUSH1 0xFF PUSH1 0xE DUP6 ADD SLOAD AND PUSH1 0x6 DUP2 LT ISZERO PUSH2 0x3CF JUMPI PUSH1 0x4 EQ SWAP7 PUSH2 0x2805 JUMP JUMPDEST DUP2 DUP6 PUSH2 0x28C0 DUP16 DUP5 SWAP1 PUSH2 0x2976 JUMP JUMPDEST SWAP3 SWAP1 SLOAD PUSH1 0x3 SWAP4 DUP5 SHL SHR AND EQ PUSH2 0x28DF JUMPI JUMPDEST POP PUSH2 0x28DA SWAP1 PUSH2 0x2B29 JUMP JUMPDEST PUSH2 0x27F0 JUMP JUMPDEST SWAP6 POP SWAP6 PUSH2 0x28F8 PUSH2 0x28DA SWAP2 PUSH1 0x1 SWAP8 PUSH2 0x538 DUP11 DUP3 DUP14 ADD PUSH2 0x2976 JUMP JUMPDEST SWAP7 SWAP1 PUSH2 0x28D0 JUMP JUMPDEST PUSH1 0x24 CALLDATALOAD SWAP1 PUSH1 0x1 PUSH1 0x1 PUSH1 0xA0 SHL SUB DUP3 AND DUP3 SUB PUSH2 0x1BD JUMPI JUMP JUMPDEST PUSH1 0x4 CALLDATALOAD SWAP1 PUSH1 0x1 PUSH1 0x1 PUSH1 0xA0 SHL SUB DUP3 AND DUP3 SUB PUSH2 0x1BD JUMPI JUMP JUMPDEST PUSH1 0x5 DUP2 LT ISZERO PUSH2 0x3CF JUMPI PUSH1 0x0 MSTORE PUSH1 0xA PUSH1 0x20 MSTORE PUSH1 0x40 PUSH1 0x0 KECCAK256 SWAP1 JUMP JUMPDEST PUSH1 0x5 DUP2 LT ISZERO PUSH2 0x3CF JUMPI PUSH1 0x0 MSTORE PUSH1 0x3 PUSH1 0x20 MSTORE PUSH1 0x40 PUSH1 0x0 KECCAK256 SWAP1 JUMP JUMPDEST PUSH1 0x5 DUP2 LT ISZERO PUSH2 0x3CF JUMPI PUSH1 0x0 MSTORE PUSH1 0x8 PUSH1 0x20 MSTORE PUSH1 0x40 PUSH1 0x0 KECCAK256 SWAP1 JUMP JUMPDEST DUP1 SLOAD DUP3 LT ISZERO PUSH2 0x298E JUMPI PUSH1 0x0 MSTORE PUSH1 0x20 PUSH1 0x0 KECCAK256 ADD SWAP1 PUSH1 0x0 SWAP1 JUMP JUMPDEST PUSH4 0x4E487B71 PUSH1 0xE0 SHL PUSH1 0x0 MSTORE PUSH1 0x32 PUSH1 0x4 MSTORE PUSH1 0x24 PUSH1 0x0 REVERT JUMPDEST SWAP1 PUSH1 0x5 DUP3 LT ISZERO PUSH2 0x3CF JUMPI MSTORE JUMP JUMPDEST SWAP1 DUP2 MLOAD DUP1 DUP3 MSTORE PUSH1 0x20 DUP1 DUP1 SWAP4 ADD SWAP4 ADD SWAP2 PUSH1 0x0 JUMPDEST DUP3 DUP2 LT PUSH2 0x29D1 JUMPI POP POP POP POP SWAP1 JUMP JUMPDEST DUP4 MLOAD DUP6 MSTORE SWAP4 DUP2 ADD SWAP4 SWAP3 DUP2 ADD SWAP3 PUSH1 0x1 ADD PUSH2 0x29C3 JUMP JUMPDEST SWAP1 PUSH1 0x6 DUP3 LT ISZERO PUSH2 0x3CF JUMPI MSTORE JUMP JUMPDEST PUSH1 0x40 SWAP1 PUSH1 0x3 NOT ADD SLT PUSH2 0x1BD JUMPI PUSH1 0x4 CALLDATALOAD PUSH1 0x5 DUP2 LT ISZERO PUSH2 0x1BD JUMPI SWAP1 PUSH1 0x24 CALLDATALOAD SWAP1 JUMP JUMPDEST PUSH1 0x1 SLOAD PUSH1 0x1 PUSH1 0x1 PUSH1 0xA0 SHL SUB AND CALLER SUB PUSH2 0x2A25 JUMPI JUMP JUMPDEST PUSH1 0x40 MLOAD PUSH4 0x118CDAA7 PUSH1 0xE0 SHL DUP2 MSTORE CALLER PUSH1 0x4 DUP3 ADD MSTORE PUSH1 0x24 SWAP1 REVERT JUMPDEST PUSH1 0xC0 DUP2 ADD SWAP1 DUP2 LT PUSH8 0xFFFFFFFFFFFFFFFF DUP3 GT OR PUSH2 0xAEA JUMPI PUSH1 0x40 MSTORE JUMP JUMPDEST PUSH2 0x280 DUP2 ADD SWAP1 DUP2 LT PUSH8 0xFFFFFFFFFFFFFFFF DUP3 GT OR PUSH2 0xAEA JUMPI PUSH1 0x40 MSTORE JUMP JUMPDEST PUSH1 0xA0 DUP2 ADD SWAP1 DUP2 LT PUSH8 0xFFFFFFFFFFFFFFFF DUP3 GT OR PUSH2 0xAEA JUMPI PUSH1 0x40 MSTORE JUMP JUMPDEST PUSH1 0x20 DUP2 ADD SWAP1 DUP2 LT PUSH8 0xFFFFFFFFFFFFFFFF DUP3 GT OR PUSH2 0xAEA JUMPI PUSH1 0x40 MSTORE JUMP JUMPDEST SWAP1 PUSH1 0x1F DUP1 NOT SWAP2 ADD AND DUP2 ADD SWAP1 DUP2 LT PUSH8 0xFFFFFFFFFFFFFFFF DUP3 GT OR PUSH2 0xAEA JUMPI PUSH1 0x40 MSTORE JUMP JUMPDEST PUSH1 0x5 DUP3 LT ISZERO PUSH2 0x3CF JUMPI MSTORE JUMP JUMPDEST SWAP2 SWAP1 DUP3 ADD DUP1 SWAP3 GT PUSH2 0x587 JUMPI JUMP JUMPDEST DUP2 ISZERO PUSH2 0x2AF3 JUMPI DIV SWAP1 JUMP JUMPDEST PUSH4 0x4E487B71 PUSH1 0xE0 SHL PUSH1 0x0 MSTORE PUSH1 0x12 PUSH1 0x4 MSTORE PUSH1 0x24 PUSH1 0x0 REVERT JUMPDEST SWAP2 SWAP1 DUP3 SUB SWAP2 DUP3 GT PUSH2 0x587 JUMPI JUMP JUMPDEST DUP2 DUP2 MUL SWAP3 SWAP2 DUP2 ISZERO SWAP2 DUP5 DIV EQ OR ISZERO PUSH2 0x587 JUMPI JUMP JUMPDEST PUSH1 0x0 NOT DUP2 EQ PUSH2 0x587 JUMPI PUSH1 0x1 ADD SWAP1 JUMP JUMPDEST ISZERO PUSH2 0x2B3F JUMPI JUMP JUMPDEST PUSH1 0x40 MLOAD PUSH3 0x461BCD PUSH1 0xE5 SHL DUP2 MSTORE PUSH1 0x20 PUSH1 0x4 DUP3 ADD MSTORE PUSH1 0x13 PUSH1 0x24 DUP3 ADD MSTORE PUSH19 0x50726963652064617461206973207374616C65 PUSH1 0x68 SHL PUSH1 0x44 DUP3 ADD MSTORE PUSH1 0x64 SWAP1 REVERT JUMPDEST SWAP1 PUSH2 0x2C3D PUSH1 0xFF SWAP2 PUSH2 0x2BED PUSH2 0x2B8D DUP6 PUSH2 0x2944 JUMP JUMPDEST SWAP5 PUSH1 0x40 MLOAD PUSH2 0x2B9A DUP2 PUSH2 0x2A3D JUMP JUMPDEST DUP7 SLOAD PUSH1 0x1 PUSH1 0x1 PUSH1 0xA0 SHL SUB DUP2 AND DUP3 MSTORE SWAP7 PUSH1 0xA0 SWAP1 PUSH1 0x2 SWAP1 PUSH2 0x2BC0 DUP11 DUP5 SHR DUP11 AND PUSH1 0x20 DUP7 ADD PUSH2 0x2AD0 JUMP JUMPDEST DUP9 PUSH1 0x40 DUP6 ADD SWAP11 DUP2 DUP2 PUSH1 0xA8 SHR AND DUP13 MSTORE PUSH1 0xB0 SHR AND ISZERO ISZERO PUSH1 0x60 DUP6 ADD MSTORE PUSH1 0x1 DUP2 ADD SLOAD PUSH1 0x80 DUP6 ADD MSTORE ADD SLOAD SWAP2 ADD MSTORE PUSH2 0x295D JUMP JUMPDEST PUSH2 0x2C36 PUSH2 0xE10 PUSH2 0x1768 PUSH1 0x40 MLOAD SWAP4 PUSH2 0x2C03 DUP6 PUSH2 0x2A76 JUMP JUMPDEST DUP1 SLOAD DUP6 MSTORE PUSH1 0x4 PUSH1 0x1 DUP3 ADD SLOAD SWAP2 DUP3 PUSH1 0x20 DUP9 ADD MSTORE PUSH1 0x2 DUP2 ADD SLOAD PUSH1 0x40 DUP9 ADD MSTORE PUSH1 0x3 DUP2 ADD SLOAD PUSH1 0x60 DUP9 ADD MSTORE ADD SLOAD PUSH1 0x80 DUP7 ADD MSTORE TIMESTAMP PUSH2 0x2B09 JUMP JUMPDEST MLOAD SWAP1 PUSH2 0x2B16 JUMP JUMPDEST SWAP2 MLOAD AND SWAP1 PUSH1 0x4D DUP3 GT PUSH2 0x587 JUMPI PUSH2 0x2C56 SWAP2 PUSH1 0xA EXP SWAP1 PUSH2 0x2AE9 JUMP JUMPDEST SWAP1 JUMP JUMPDEST ISZERO PUSH2 0x2C60 JUMPI JUMP JUMPDEST PUSH1 0x40 MLOAD PUSH3 0x461BCD PUSH1 0xE5 SHL DUP2 MSTORE PUSH1 0x20 PUSH1 0x4 DUP3 ADD MSTORE PUSH1 0x15 PUSH1 0x24 DUP3 ADD MSTORE PUSH21 0x139BC8115512081CDA1BDD5B19081899481CD95B9D PUSH1 0x5A SHL PUSH1 0x44 DUP3 ADD MSTORE PUSH1 0x64 SWAP1 REVERT JUMPDEST PUSH8 0xFFFFFFFFFFFFFFFF DUP2 GT PUSH2 0xAEA JUMPI PUSH1 0x5 SHL PUSH1 0x20 ADD SWAP1 JUMP JUMPDEST SWAP1 PUSH2 0x2CBF DUP3 PUSH2 0x2C9D JUMP JUMPDEST PUSH2 0x2CCC PUSH1 0x40 MLOAD SWAP2 DUP3 PUSH2 0x2AAE JUMP JUMPDEST DUP3 DUP2 MSTORE DUP1 SWAP3 PUSH2 0x2CDD PUSH1 0x1F NOT SWAP2 PUSH2 0x2C9D JUMP JUMPDEST ADD SWAP1 PUSH1 0x20 CALLDATASIZE SWAP2 ADD CALLDATACOPY JUMP JUMPDEST SWAP1 SWAP2 DUP3 DUP2 LT PUSH2 0x2CF5 JUMPI POP POP POP JUMP JUMPDEST PUSH1 0x0 SWAP2 DUP3 MSTORE PUSH1 0x20 DUP3 KECCAK256 SWAP3 DUP4 ADD SWAP3 ADD JUMPDEST DUP3 DUP2 LT PUSH2 0x2D10 JUMPI POP POP POP JUMP JUMPDEST DUP2 DUP2 SSTORE PUSH1 0x1 ADD PUSH2 0x2D04 JUMP JUMPDEST DUP1 SLOAD PUSH1 0x1 PUSH1 0x40 SHL DUP2 LT ISZERO PUSH2 0xAEA JUMPI PUSH2 0x2D38 SWAP2 PUSH1 0x1 DUP3 ADD DUP2 SSTORE PUSH2 0x2976 JUMP JUMPDEST DUP2 SWAP3 SWAP2 SLOAD SWAP1 PUSH1 0x3 SHL SWAP2 DUP3 SHL SWAP2 PUSH1 0x0 NOT SWAP1 SHL NOT AND OR SWAP1 SSTORE JUMP JUMPDEST PUSH1 0x40 MLOAD PUSH4 0x23B872DD PUSH1 0xE0 SHL PUSH1 0x20 DUP3 ADD MSTORE PUSH1 0x1 PUSH1 0x1 PUSH1 0xA0 SHL SUB SWAP3 DUP4 AND PUSH1 0x24 DUP3 ADD MSTORE SWAP3 SWAP1 SWAP2 AND PUSH1 0x44 DUP4 ADD MSTORE PUSH1 0x64 DUP1 DUP4 ADD SWAP4 SWAP1 SWAP4 MSTORE SWAP2 DUP2 MSTORE PUSH2 0x2D97 SWAP2 PUSH2 0x2D92 DUP3 PUSH2 0x2A76 JUMP JUMPDEST PUSH2 0x2D99 JUMP JUMPDEST JUMP JUMPDEST SWAP1 PUSH1 0x0 PUSH1 0x20 SWAP2 DUP3 DUP2 MLOAD SWAP2 ADD DUP3 DUP6 GAS CALL ISZERO PUSH2 0x2DF5 JUMPI PUSH1 0x0 MLOAD RETURNDATASIZE PUSH2 0x2DEC JUMPI POP PUSH1 0x1 PUSH1 0x1 PUSH1 0xA0 SHL SUB DUP2 AND EXTCODESIZE ISZERO JUMPDEST PUSH2 0x2DCA JUMPI POP JUMP JUMPDEST PUSH1 0x40 MLOAD PUSH4 0x5274AFE7 PUSH1 0xE0 SHL DUP2 MSTORE PUSH1 0x1 PUSH1 0x1 PUSH1 0xA0 SHL SUB SWAP1 SWAP2 AND PUSH1 0x4 DUP3 ADD MSTORE PUSH1 0x24 SWAP1 REVERT JUMPDEST PUSH1 0x1 EQ ISZERO PUSH2 0x2DC3 JUMP JUMPDEST PUSH1 0x40 MLOAD RETURNDATASIZE PUSH1 0x0 DUP3 RETURNDATACOPY RETURNDATASIZE SWAP1 REVERT JUMPDEST PUSH1 0x2 PUSH1 0x0 SLOAD EQ PUSH2 0x2E12 JUMPI PUSH1 0x2 PUSH1 0x0 SSTORE JUMP JUMPDEST PUSH1 0x40 MLOAD PUSH4 0x3EE5AEB5 PUSH1 0xE0 SHL DUP2 MSTORE PUSH1 0x4 SWAP1 REVERT JUMPDEST ISZERO PUSH2 0x2E2B JUMPI JUMP JUMPDEST PUSH1 0x40 MLOAD PUSH3 0x461BCD PUSH1 0xE5 SHL DUP2 MSTORE PUSH1 0x20 PUSH1 0x4 DUP3 ADD MSTORE PUSH1 0x13 PUSH1 0x24 DUP3 ADD MSTORE PUSH19 0x131BD85B88191BD95CC81B9BDD08195E1A5CDD PUSH1 0x6A SHL PUSH1 0x44 DUP3 ADD MSTORE PUSH1 0x64 SWAP1 REVERT JUMPDEST RETURNDATASIZE ISZERO PUSH2 0x2EA1 JUMPI RETURNDATASIZE SWAP1 PUSH8 0xFFFFFFFFFFFFFFFF DUP3 GT PUSH2 0xAEA JUMPI PUSH1 0x40 MLOAD SWAP2 PUSH2 0x2E95 PUSH1 0x1F DUP3 ADD PUSH1 0x1F NOT AND PUSH1 0x20 ADD DUP5 PUSH2 0x2AAE JUMP JUMPDEST DUP3 MSTORE RETURNDATASIZE PUSH1 0x0 PUSH1 0x20 DUP5 ADD RETURNDATACOPY JUMP JUMPDEST PUSH1 0x60 SWAP1 JUMP JUMPDEST ISZERO PUSH2 0x2EAD JUMPI JUMP JUMPDEST PUSH1 0x40 MLOAD PUSH3 0x461BCD PUSH1 0xE5 SHL DUP2 MSTORE PUSH1 0x20 PUSH1 0x4 DUP3 ADD MSTORE PUSH1 0x13 PUSH1 0x24 DUP3 ADD MSTORE PUSH19 0x115512081D1C985B9CD9995C8819985A5B1959 PUSH1 0x6A SHL PUSH1 0x44 DUP3 ADD MSTORE PUSH1 0x64 SWAP1 REVERT JUMPDEST PUSH1 0x40 MLOAD PUSH4 0xA9059CBB PUSH1 0xE0 SHL PUSH1 0x20 DUP3 ADD MSTORE PUSH1 0x1 PUSH1 0x1 PUSH1 0xA0 SHL SUB SWAP1 SWAP3 AND PUSH1 0x24 DUP4 ADD MSTORE PUSH1 0x44 DUP1 DUP4 ADD SWAP4 SWAP1 SWAP4 MSTORE SWAP2 DUP2 MSTORE PUSH1 0x80 DUP2 ADD SWAP2 PUSH8 0xFFFFFFFFFFFFFFFF DUP4 GT DUP3 DUP5 LT OR PUSH2 0xAEA JUMPI PUSH2 0x2D97 SWAP3 PUSH1 0x40 MSTORE PUSH2 0x2D99 JUMP JUMPDEST DUP1 MLOAD DUP3 LT ISZERO PUSH2 0x298E JUMPI PUSH1 0x20 SWAP2 PUSH1 0x5 SHL ADD ADD SWAP1 JUMP INVALID LOG2 PUSH5 0x6970667358 0x22 SLT KECCAK256 EXTCODEHASH 0xCC CREATE2 CALLER 0xD2 SWAP13 0x26 0xDE 0xBA 0xBD SAR PUSH32 0xDAB5E6B41110B8B018F12BB79E7F392664267F9864736F6C6343000814003300 "},"methodIdentifiers":{"CLAIM_GRACE_PERIOD()":"2e2106af","INSURANCE_RATE()":"82626d6b","MAX_INTEREST_RATE()":"34855d14","MAX_LOAN_DURATION()":"0d0b2ca6","MIN_COLLATERAL_RATIO()":"7a9fffb7","MIN_LOAN_DURATION()":"89d99a05","addSupportedToken(uint8,address,uint8,uint256,uint256)":"2ffc204b","borrowerLoans(address,uint256)":"e3ed1902","calculateUSDValue(uint8,uint256)":"fe6993b8","claimInsurance(uint256)":"f85920d8","contributeToInsurancePool(uint8,uint256)":"b0b3ca47","fundLoan(uint256,uint256)":"f4512bb6","getActiveLoanRequests()":"9772d7ee","getInsurancePoolBalance(uint8)":"b59d17ab","getInsuranceStatus(uint256,address)":"00b752ca","getLoan(uint256)":"504006ca","getSupportedToken(uint8)":"d42c4c53","getTokenPrice(uint8)":"d89e8c1c","getTokenPriceInfo(uint8)":"c7fc1325","hasClaimedInsurance(uint256,address)":"626066cc","insurancePools(uint8)":"1988a684","lenderInsuranceContributions(address)":"18fa96de","lenderLoans(address,uint256)":"3cdb72f1","lenderPositions(uint256,address)":"ad8d0138","loans(uint256)":"e1ec3c68","nextLoanId()":"87c51459","owner()":"8da5cb5b","priceOracles(address)":"01374518","renounceOwnership()":"715018a6","requestLoan(uint256,uint8,uint8,uint256,uint256,uint256,bool,bool)":"f498c9cc","setPriceOracle(address,bool)":"858a9ea0","supportedTokens(uint8)":"3f572d36","tokenPrices(uint8)":"deceafa7","transferOwnership(address)":"f2fde38b","updateTokenPrice(uint8,uint256,uint256)":"4dd9cccc"}}}}}