{"contracts/LoanVerseV4.sol":{"LoanVerseV4":{"abi":[{"inputs":[],"stateMutability":"nonpayable","type":"constructor"},{"inputs":[],"name":"EnforcedPause","type":"error"},{"inputs":[],"name":"ExpectedPause","type":"error"},{"inputs":[{"internalType":"address","name":"owner","type":"address"}],"name":"OwnableInvalidOwner","type":"error"},{"inputs":[{"internalType":"address","name":"account","type":"address"}],"name":"OwnableUnauthorizedAccount","type":"error"},{"inputs":[],"name":"ReentrancyGuardReentrantCall","type":"error"},{"inputs":[{"internalType":"address","name":"token","type":"address"}],"name":"SafeERC20FailedOperation","type":"error"},{"anonymous":false,"inputs":[{"indexed":true,"internalType":"address","name":"borrower","type":"address"},{"indexed":false,"internalType":"uint256","name":"newScore","type":"uint256"}],"name":"CreditScoreUpdated","type":"event"},{"anonymous":false,"inputs":[{"indexed":true,"internalType":"uint256","name":"loanId","type":"uint256"},{"indexed":false,"internalType":"enum LoanVerseV4.DefaultAction","name":"action","type":"uint8"}],"name":"DefaultActionExecuted","type":"event"},{"anonymous":false,"inputs":[{"indexed":true,"internalType":"uint256","name":"loanId","type":"uint256"},{"indexed":false,"internalType":"uint256","name":"votingDeadline","type":"uint256"}],"name":"DefaultVotingStarted","type":"event"},{"anonymous":false,"inputs":[{"indexed":true,"internalType":"uint256","name":"loanId","type":"uint256"},{"indexed":true,"internalType":"address","name":"lender","type":"address"},{"indexed":false,"internalType":"uint256","name":"amount","type":"uint256"}],"name":"LenderPayout","type":"event"},{"anonymous":false,"inputs":[{"indexed":true,"internalType":"uint256","name":"loanId","type":"uint256"}],"name":"LoanCancelled","type":"event"},{"anonymous":false,"inputs":[{"indexed":true,"internalType":"uint256","name":"loanId","type":"uint256"},{"indexed":true,"internalType":"address","name":"lender","type":"address"},{"indexed":false,"internalType":"uint256","name":"amount","type":"uint256"},{"indexed":false,"internalType":"uint256","name":"totalFunded","type":"uint256"}],"name":"LoanContribution","type":"event"},{"anonymous":false,"inputs":[{"indexed":true,"internalType":"uint256","name":"loanId","type":"uint256"}],"name":"LoanDefaulted","type":"event"},{"anonymous":false,"inputs":[{"indexed":true,"internalType":"uint256","name":"loanId","type":"uint256"},{"indexed":false,"internalType":"uint256","name":"totalAmount","type":"uint256"},{"indexed":false,"internalType":"uint256","name":"lenderCount","type":"uint256"}],"name":"LoanFullyFunded","type":"event"},{"anonymous":false,"inputs":[{"indexed":true,"internalType":"uint256","name":"loanId","type":"uint256"}],"name":"LoanFullyRepaid","type":"event"},{"anonymous":false,"inputs":[{"indexed":true,"internalType":"uint256","name":"loanId","type":"uint256"},{"indexed":false,"internalType":"uint256","name":"amountFunded","type":"uint256"},{"indexed":false,"internalType":"uint256","name":"amountRequired","type":"uint256"}],"name":"LoanFundingFailed","type":"event"},{"anonymous":false,"inputs":[{"indexed":true,"internalType":"uint256","name":"loanId","type":"uint256"},{"indexed":false,"internalType":"uint256","name":"repaidAmount","type":"uint256"},{"indexed":false,"internalType":"uint256","name":"totalRepaid","type":"uint256"}],"name":"LoanRepayment","type":"event"},{"anonymous":false,"inputs":[{"indexed":true,"internalType":"uint256","name":"loanId","type":"uint256"},{"indexed":true,"internalType":"address","name":"borrower","type":"address"},{"indexed":true,"internalType":"uint256","name":"tokenId","type":"uint256"},{"indexed":false,"internalType":"uint256","name":"amount","type":"uint256"},{"indexed":false,"internalType":"uint256","name":"collateralAmount","type":"uint256"},{"indexed":false,"internalType":"uint256","name":"interestRate","type":"uint256"},{"indexed":false,"internalType":"uint256","name":"duration","type":"uint256"},{"indexed":false,"internalType":"uint256","name":"minContribution","type":"uint256"},{"indexed":false,"internalType":"uint256","name":"fundingDeadline","type":"uint256"},{"indexed":false,"internalType":"string","name":"ipfsHash","type":"string"}],"name":"LoanRequested","type":"event"},{"anonymous":false,"inputs":[{"indexed":true,"internalType":"address","name":"previousOwner","type":"address"},{"indexed":true,"internalType":"address","name":"newOwner","type":"address"}],"name":"OwnershipTransferred","type":"event"},{"anonymous":false,"inputs":[{"indexed":false,"internalType":"address","name":"account","type":"address"}],"name":"Paused","type":"event"},{"anonymous":false,"inputs":[{"indexed":true,"internalType":"uint256","name":"loanId","type":"uint256"},{"indexed":true,"internalType":"address","name":"lender","type":"address"},{"indexed":false,"internalType":"uint256","name":"amount","type":"uint256"}],"name":"RefundIssued","type":"event"},{"anonymous":false,"inputs":[{"indexed":true,"internalType":"uint256","name":"loanId","type":"uint256"},{"indexed":false,"internalType":"uint256","name":"riskScore","type":"uint256"}],"name":"RiskScoreUpdated","type":"event"},{"anonymous":false,"inputs":[{"indexed":true,"internalType":"uint256","name":"tokenId","type":"uint256"},{"indexed":true,"internalType":"address","name":"contractAddress","type":"address"},{"indexed":false,"internalType":"string","name":"symbol","type":"string"},{"indexed":false,"internalType":"address","name":"priceFeed","type":"address"}],"name":"TokenAdded","type":"event"},{"anonymous":false,"inputs":[{"indexed":true,"internalType":"uint256","name":"tokenId","type":"uint256"}],"name":"TokenDeactivated","type":"event"},{"anonymous":false,"inputs":[{"indexed":false,"internalType":"address","name":"account","type":"address"}],"name":"Unpaused","type":"event"},{"anonymous":false,"inputs":[{"indexed":true,"internalType":"uint256","name":"loanId","type":"uint256"},{"indexed":true,"internalType":"address","name":"lender","type":"address"},{"indexed":false,"internalType":"enum LoanVerseV4.DefaultAction","name":"action","type":"uint8"},{"indexed":false,"internalType":"uint256","name":"votingPower","type":"uint256"}],"name":"VoteCast","type":"event"},{"inputs":[],"name":"DEFAULT_FUNDING_PERIOD","outputs":[{"internalType":"uint256","name":"","type":"uint256"}],"stateMutability":"view","type":"function"},{"inputs":[],"name":"LIQUIDATION_THRESHOLD","outputs":[{"internalType":"uint256","name":"","type":"uint256"}],"stateMutability":"view","type":"function"},{"inputs":[],"name":"MAX_INTEREST_RATE","outputs":[{"internalType":"uint256","name":"","type":"uint256"}],"stateMutability":"view","type":"function"},{"inputs":[],"name":"MAX_LOAN_DURATION","outputs":[{"internalType":"uint256","name":"","type":"uint256"}],"stateMutability":"view","type":"function"},{"inputs":[],"name":"MIN_COLLATERAL_RATIO","outputs":[{"internalType":"uint256","name":"","type":"uint256"}],"stateMutability":"view","type":"function"},{"inputs":[],"name":"MIN_CREDIT_SCORE","outputs":[{"internalType":"uint256","name":"","type":"uint256"}],"stateMutability":"view","type":"function"},{"inputs":[],"name":"MIN_LOAN_DURATION","outputs":[{"internalType":"uint256","name":"","type":"uint256"}],"stateMutability":"view","type":"function"},{"inputs":[],"name":"PRICE_STALENESS_THRESHOLD","outputs":[{"internalType":"uint256","name":"","type":"uint256"}],"stateMutability":"view","type":"function"},{"inputs":[],"name":"VOTING_PERIOD","outputs":[{"internalType":"uint256","name":"","type":"uint256"}],"stateMutability":"view","type":"function"},{"inputs":[{"internalType":"address","name":"_contractAddress","type":"address"},{"internalType":"string","name":"_symbol","type":"string"},{"internalType":"uint8","name":"_decimals","type":"uint8"},{"internalType":"address","name":"_priceFeedAddress","type":"address"}],"name":"addSupportedToken","outputs":[],"stateMutability":"nonpayable","type":"function"},{"inputs":[{"internalType":"address","name":"","type":"address"}],"name":"authorizedRiskOracles","outputs":[{"internalType":"bool","name":"","type":"bool"}],"stateMutability":"view","type":"function"},{"inputs":[{"internalType":"address","name":"","type":"address"},{"internalType":"uint256","name":"","type":"uint256"}],"name":"borrowerLoans","outputs":[{"internalType":"uint256","name":"","type":"uint256"}],"stateMutability":"view","type":"function"},{"inputs":[{"internalType":"uint256","name":"_tokenId","type":"uint256"},{"internalType":"uint256","name":"_amount","type":"uint256"}],"name":"calculateUSDValue","outputs":[{"internalType":"uint256","name":"","type":"uint256"}],"stateMutability":"view","type":"function"},{"inputs":[{"internalType":"uint256","name":"_loanId","type":"uint256"}],"name":"cancelLoan","outputs":[],"stateMutability":"nonpayable","type":"function"},{"inputs":[],"name":"collectedFees","outputs":[{"internalType":"uint256","name":"","type":"uint256"}],"stateMutability":"view","type":"function"},{"inputs":[{"internalType":"uint256","name":"_loanId","type":"uint256"},{"internalType":"uint256","name":"_amount","type":"uint256"}],"name":"contributeLoan","outputs":[],"stateMutability":"payable","type":"function"},{"inputs":[{"internalType":"address","name":"","type":"address"}],"name":"creditScores","outputs":[{"internalType":"uint256","name":"score","type":"uint256"},{"internalType":"uint256","name":"totalLoansCount","type":"uint256"},{"internalType":"uint256","name":"repaidLoansCount","type":"uint256"},{"internalType":"uint256","name":"defaultedLoansCount","type":"uint256"},{"internalType":"uint256","name":"totalBorrowed","type":"uint256"},{"internalType":"uint256","name":"totalRepaid","type":"uint256"},{"internalType":"uint256","name":"lastUpdated","type":"uint256"}],"stateMutability":"view","type":"function"},{"inputs":[{"internalType":"uint256","name":"_tokenId","type":"uint256"}],"name":"deactivateToken","outputs":[],"stateMutability":"nonpayable","type":"function"},{"inputs":[{"internalType":"uint256","name":"","type":"uint256"},{"internalType":"enum LoanVerseV4.DefaultAction","name":"","type":"uint8"}],"name":"defaultVotes","outputs":[{"internalType":"uint256","name":"","type":"uint256"}],"stateMutability":"view","type":"function"},{"inputs":[{"internalType":"uint256","name":"_loanId","type":"uint256"}],"name":"executeDefaultAction","outputs":[],"stateMutability":"nonpayable","type":"function"},{"inputs":[],"name":"feeRecipient","outputs":[{"internalType":"address","name":"","type":"address"}],"stateMutability":"view","type":"function"},{"inputs":[],"name":"getActiveLoanRequests","outputs":[{"internalType":"uint256[]","name":"","type":"uint256[]"}],"stateMutability":"view","type":"function"},{"inputs":[{"internalType":"uint256","name":"_tokenId","type":"uint256"}],"name":"getLatestPrice","outputs":[{"internalType":"uint256","name":"","type":"uint256"},{"internalType":"uint256","name":"","type":"uint256"}],"stateMutability":"view","type":"function"},{"inputs":[{"internalType":"uint256","name":"_loanId","type":"uint256"}],"name":"getLoanLenders","outputs":[{"internalType":"address[]","name":"","type":"address[]"},{"internalType":"uint256[]","name":"","type":"uint256[]"}],"stateMutability":"view","type":"function"},{"inputs":[{"internalType":"uint256","name":"","type":"uint256"},{"internalType":"address","name":"","type":"address"}],"name":"hasVoted","outputs":[{"internalType":"bool","name":"","type":"bool"}],"stateMutability":"view","type":"function"},{"inputs":[{"internalType":"uint256","name":"","type":"uint256"},{"internalType":"address","name":"","type":"address"}],"name":"lenderContributionIndex","outputs":[{"internalType":"uint256","name":"","type":"uint256"}],"stateMutability":"view","type":"function"},{"inputs":[{"internalType":"address","name":"","type":"address"},{"internalType":"uint256","name":"","type":"uint256"}],"name":"lenderLoans","outputs":[{"internalType":"uint256","name":"","type":"uint256"}],"stateMutability":"view","type":"function"},{"inputs":[{"internalType":"uint256","name":"_loanId","type":"uint256"}],"name":"liquidate","outputs":[],"stateMutability":"payable","type":"function"},{"inputs":[{"internalType":"uint256","name":"","type":"uint256"},{"internalType":"uint256","name":"","type":"uint256"}],"name":"loanContributions","outputs":[{"internalType":"address","name":"lender","type":"address"},{"internalType":"uint256","name":"amount","type":"uint256"},{"internalType":"bool","name":"repaid","type":"bool"}],"stateMutability":"view","type":"function"},{"inputs":[{"internalType":"uint256","name":"","type":"uint256"}],"name":"loans","outputs":[{"internalType":"uint256","name":"id","type":"uint256"},{"internalType":"address","name":"borrower","type":"address"},{"internalType":"uint256","name":"tokenId","type":"uint256"},{"internalType":"uint256","name":"collateralTokenId","type":"uint256"},{"internalType":"uint256","name":"amount","type":"uint256"},{"internalType":"uint256","name":"amountFunded","type":"uint256"},{"internalType":"uint256","name":"collateralAmount","type":"uint256"},{"internalType":"uint256","name":"interestRate","type":"uint256"},{"internalType":"uint256","name":"duration","type":"uint256"},{"internalType":"uint256","name":"minContribution","type":"uint256"},{"internalType":"uint256","name":"fundingDeadline","type":"uint256"},{"internalType":"uint256","name":"createdAt","type":"uint256"},{"internalType":"uint256","name":"fundedAt","type":"uint256"},{"internalType":"uint256","name":"dueDate","type":"uint256"},{"internalType":"enum LoanVerseV4.LoanStatus","name":"status","type":"uint8"},{"internalType":"string","name":"ipfsDocumentHash","type":"string"},{"internalType":"uint256","name":"riskScore","type":"uint256"},{"internalType":"uint256","name":"liquidationThreshold","type":"uint256"},{"internalType":"uint256","name":"totalRepaid","type":"uint256"},{"internalType":"uint256","name":"earlyRepaymentPenalty","type":"uint256"}],"stateMutability":"view","type":"function"},{"inputs":[],"name":"nextLoanId","outputs":[{"internalType":"uint256","name":"","type":"uint256"}],"stateMutability":"view","type":"function"},{"inputs":[],"name":"nextTokenId","outputs":[{"internalType":"uint256","name":"","type":"uint256"}],"stateMutability":"view","type":"function"},{"inputs":[],"name":"owner","outputs":[{"internalType":"address","name":"","type":"address"}],"stateMutability":"view","type":"function"},{"inputs":[],"name":"pause","outputs":[],"stateMutability":"nonpayable","type":"function"},{"inputs":[],"name":"paused","outputs":[{"internalType":"bool","name":"","type":"bool"}],"stateMutability":"view","type":"function"},{"inputs":[{"internalType":"uint256","name":"_loanId","type":"uint256"}],"name":"processFundingFailure","outputs":[],"stateMutability":"nonpayable","type":"function"},{"inputs":[],"name":"protocolFeeRate","outputs":[{"internalType":"uint256","name":"","type":"uint256"}],"stateMutability":"view","type":"function"},{"inputs":[],"name":"renounceOwnership","outputs":[],"stateMutability":"nonpayable","type":"function"},{"inputs":[{"internalType":"uint256","name":"_loanId","type":"uint256"}],"name":"repayLoan","outputs":[],"stateMutability":"payable","type":"function"},{"inputs":[{"internalType":"uint256","name":"_tokenId","type":"uint256"},{"internalType":"uint256","name":"_collateralTokenId","type":"uint256"},{"internalType":"uint256","name":"_amount","type":"uint256"},{"internalType":"uint256","name":"_interestRate","type":"uint256"},{"internalType":"uint256","name":"_duration","type":"uint256"},{"internalType":"uint256","name":"_minContribution","type":"uint256"},{"internalType":"uint256","name":"_fundingPeriod","type":"uint256"},{"internalType":"uint256","name":"_earlyRepaymentPenalty","type":"uint256"},{"internalType":"string","name":"_ipfsDocumentHash","type":"string"}],"name":"requestLoan","outputs":[],"stateMutability":"payable","type":"function"},{"inputs":[{"internalType":"address","name":"_oracle","type":"address"},{"internalType":"bool","name":"_authorized","type":"bool"}],"name":"setAuthorizedOracle","outputs":[],"stateMutability":"nonpayable","type":"function"},{"inputs":[{"internalType":"uint256","name":"","type":"uint256"}],"name":"supportedTokens","outputs":[{"internalType":"enum LoanVerseV4.TokenType","name":"tokenType","type":"uint8"},{"internalType":"address","name":"contractAddress","type":"address"},{"internalType":"string","name":"symbol","type":"string"},{"internalType":"uint8","name":"decimals","type":"uint8"},{"internalType":"bool","name":"isActive","type":"bool"},{"internalType":"contract AggregatorV3Interface","name":"priceFeed","type":"address"}],"stateMutability":"view","type":"function"},{"inputs":[{"internalType":"address","name":"newOwner","type":"address"}],"name":"transferOwnership","outputs":[],"stateMutability":"nonpayable","type":"function"},{"inputs":[],"name":"unpause","outputs":[],"stateMutability":"nonpayable","type":"function"},{"inputs":[{"internalType":"uint256","name":"_loanId","type":"uint256"},{"internalType":"uint256","name":"_riskScore","type":"uint256"}],"name":"updateRiskScore","outputs":[],"stateMutability":"nonpayable","type":"function"},{"inputs":[{"internalType":"uint256","name":"_loanId","type":"uint256"},{"internalType":"enum LoanVerseV4.DefaultAction","name":"_action","type":"uint8"}],"name":"voteOnDefault","outputs":[],"stateMutability":"nonpayable","type":"function"},{"inputs":[{"internalType":"uint256","name":"","type":"uint256"}],"name":"votingDeadline","outputs":[{"internalType":"uint256","name":"","type":"uint256"}],"stateMutability":"view","type":"function"},{"inputs":[],"name":"withdrawFees","outputs":[],"stateMutability":"nonpayable","type":"function"}],"evm":{"bytecode":{"linkReferences":{},"object":"608060409080825234620003195760019060009082825533156200030557508154336001600160a01b03198083168217855592916001600160a01b03167f8be0079c531659141344cd1fd0a4f28419497f9722a3daafe3b4186f6b6457e08380a38260025582600355600491603283553390600554161760055583519060c082019160018060401b039281811084821117620002f25786528181526020948582019383855287519188830183811083821117620002df578952600383526208aa8960eb1b88840152888401928352606084019760128952608085019782895260a0860197878952878052600883528b88209651906002821015620002cc5760ff885491610100600160a81b03905160081b1692169060018060a81b031916171786558286019451908151948511620002b9578554908482811c92168015620002ae575b848310146200029b5750601f811162000250575b5081601f8511600114620001df57509280928192600297969560ff9994620001d3575b50501b916000199060031b1c19161790555b945194018054935192516001600160b01b0319909416919094161790151560081b61ff00161760109190911b62010000600160b01b031617905551613fca90816200031f8239f35b01519250388062000179565b858852808820969795969395601f198616915b828210620002385750509160ff97959391856002989694106200021e575b505050811b0190556200018b565b015160001960f88460031b161c1916905538808062000210565b808886978294978701518155019601940190620001f2565b858852828820601f860160051c81019184871062000290575b601f0160051c019084905b8281106200028457505062000156565b89815501849062000274565b909150819062000269565b634e487b7160e01b895260229052602488fd5b91607f169162000142565b634e487b7160e01b885260419052602487fd5b634e487b7160e01b895260218352602489fd5b634e487b7160e01b865260418852602486fd5b634e487b7160e01b835260418552602483fd5b602491631e4fbdf760e01b82526004820152fd5b600080fdfe610180604052600436101561001357600080fd5b60003560e01c80630a353a29146132b35780630a49cf4d146132965780630d0b2ca614613277578063119328d61461325657806322e69226146128b457806334855d141461289757806336630cd61461283857806336cf063a146125ad5780633cdb72f1146125635780633f4ba83a146124f1578063415f124014612172578063438596321461212557806346904840146120fc578063476343ee1461207d57806358f858801461205f5780635c211efc14611d3b5780635c975abb14611d155780636dede8eb14611ce95780636eef115414611caa578063715018a614611c4d57806375794a3c14611c2f57806377e6c4aa14611abb5780637a9fffb714611a9f5780638075a8f914611a5757806380bb7273146119dc5780638456cb591461197a57806387c514591461195c57806389d99a05146113b15780638da5cb5b146119335780639003adfe1461191557806390a8ae9b146118f95780639772d7ee146117fb578063ab7b1c89146113b6578063b1610d7e146113b1578063b94fe91714611387578063bad128b61461127c578063bdbfa3de14611104578063c62556261461106e578063c7a6de4d14611015578063caff648414610ec8578063cba89b65146108d7578063dafd06a3146105c1578063e1ec3c681461041e578063e25b1078146103e2578063e3ed19021461038a578063ec991da9146102d8578063f25b9caa146102bb5763f2fde38b1461022d57600080fd5b346102b65760203660031901126102b6576102466133f3565b61024e613595565b6001600160a01b0390811690811561029d57600154826001600160601b0360a01b821617600155167f8be0079c531659141344cd1fd0a4f28419497f9722a3daafe3b4186f6b6457e0600080a3005b604051631e4fbdf760e01b815260006004820152602490fd5b600080fd5b346102b65760003660031901126102b6576020604051610e108152f35b346102b65760203660031901126102b6576004356102f4613595565b80600052600860205260ff60026040600020015460081c161561035257806000526008602052600260406000200161ff001981541690557f76ae93cd7712c8a8b4ba0c1b9f441ddbd9e9ce3e425a93b15e8f6e37d8784fa6600080a2005b60405162461bcd60e51b815260206004820152601060248201526f546f6b656e206e6f742061637469766560801b6044820152606490fd5b346102b65760403660031901126102b6576103a36133f3565b6001600160a01b03166000908152600b60205260409020805460243591908210156102b6576020916103d49161341f565b90546040519160031b1c8152f35b346102b6576103f0366133d4565b90600052600f6020526040600020906104088161354b565b6000526020526020604060002054604051908152f35b346102b65760203660031901126102b657600435600052600760205260406000208061010052805460e052600160a01b60019003600182015416600282015460a052600382015460048301546005840154600685015460078601546008870154600988015491600a89015493600b8a015495600c8b015497600d8c015499600e8d015460ff169c600f016104b1906134a5565b9b610100516010810154610120526011810154610140526012810154610160526013015460c0526040518060805260e05190526080516020015260a05160805160400152608051606001526080516080015260805160a0015260805160c0015260805160e00152608051610100015260805161012001526080516101400152608051610160015260805161018001526080516101a0015260078210156105ab57610573916101c06080510152610280806101e060805101526080510190613555565b61012051610200608051015261014051610220608051015261016051610240608051015260c051610260608051015260805180910390f35b634e487b7160e01b600052602160045260246000fd5b346102b65760203660031901126102b6576105da613a6d565b60043560005260076020526040600020600e8101805460ff811660078110156105ab5761089b57600a8301544211156108565760058301546004840154111561081d5760019060ff19161790556004356000526009602052604060002090815461064381613b10565b92610651604051948561331d565b818452602084019060005260206000206000915b8383106107da57858560005b825181101561078a576001600160a01b0361068c8285613b28565b51511690602061069c8286613b28565b51015191600435600052600760205260026040600020015480600052600860205260ff604060002054166106cf8161354b565b61075d5750600080808086855af16106e5613a90565b501561072857610723925b6040519081527f7a482fdeb6bc9a1376f597068a214a7a39472bb2eff1b8cad21ba04f49ddca1b602060043592a36135c1565b610671565b60405162461bcd60e51b815260206004820152600d60248201526c1499599d5b990819985a5b1959609a1b6044820152606490fd5b92610723936000526008602052610785818360018060a01b0360406000205460081c16613ac0565b6106f0565b50610796600435613d16565b6004600582015491015460405191825260208201527f077f7e7d85860b4290e437c62570324ddd92c9bb185ec5a51fbec45bc8d15503604060043592a26001600055005b600360206001926040516107ed81613301565b848060a01b038654168152848601548382015260ff60028701541615156040820152815201920192019190610665565b60405162461bcd60e51b8152602060048201526011602482015270131bd85b88199d5b1b1e48199d5b991959607a1b6044820152606490fd5b60405162461bcd60e51b815260206004820152601860248201527f46756e64696e6720706572696f64206e6f7420656e64656400000000000000006044820152606490fd5b60405162461bcd60e51b81526020600482015260146024820152734e6f7420696e2066756e64696e6720737461746560601b6044820152606490fd5b6108e0366132cf565b906108e9613a6d565b6108f1613a4c565b8060005260206007815260406000209260018060a01b0360019481868201541661091c8115156135d0565b60ff600e8301541660078110156105ab57610e8e57600a8201544211610e49573314610e0d57600981015490818410610dc8576004810190815492610967600583019485549061366b565b90818711610d83578661097a818461366b565b15159283610d6f575b505050610d165760020154938460005260089485875260ff604060002054166109ab8161354b565b610caa5750803403610c6e575b86600052600986526040600020604051906109d282613301565b338252878201918383526040810191600083528054600160401b811015610c5857610a01918d820181556133a2565b929092610c4257610a3e938860029351166001600160601b0360a01b855416178455518c84015551151591019060ff801983541691151516179055565b86600052600986526040600020546000198101908111610c2c5787600052600a87526040600020336000528752604060002055600c8652610a83876040600020613966565b610a8e818454613959565b8093556040519081528286820152867f99f1c95e4132b33cad7cbbd49d5efa1aa01db71edbab6f05c01fb2323875ad1460403393a35414610ad1575b6000859055005b8360005260078352604060002091600e8301600260ff1982541617905542600c840155610b018184015442613959565b600d84015560028301548060005281855260ff60406000205416610b248161354b565b610bdb57505060008080809388860154166004860154905af1610b45613a90565b5015610b96577fb96bada2a4e2e402aaa472b5e783a9d8bb13d996387df6beea608680b31ff46f9160046040925b01549084600052600981528260002054908351928352820152a281808080610aca565b60405162461bcd60e51b815260048101839052601b60248201527f5472616e7366657220746f20626f72726f776572206661696c656400000000006044820152606490fd5b92610c27837fb96bada2a4e2e402aaa472b5e783a9d8bb13d996387df6beea608680b31ff46f96946004946040976000528087528760002054901c169089840154168484015491613ac0565b610b73565b634e487b7160e01b600052601160045260246000fd5b634e487b7160e01b600052600060045260246000fd5b634e487b7160e01b600052604160045260246000fd5b60405162461bcd60e51b8152600481018790526014602482015273125b98dbdc9c9958dd0811551208185b5bdd5b9d60621b6044820152606490fd5b34610cd157600052848652610ccc8185604060002054881c163090339061399b565b6109b8565b60405162461bcd60e51b815260048101889052601d60248201527f455448206e6f74206e656564656420666f72204552433230206c6f616e0000006044820152606490fd5b60405162461bcd60e51b815260048101879052602b60248201527f576f756c64206c6561766520616d6f756e742062656c6f77206d696e696d756d60448201526a20666f72206f746865727360a81b6064820152608490fd5b610d7a92935061366b565b10898681610983565b60405162461bcd60e51b815260048101899052601860248201527f457863656564732072656d61696e696e6720616d6f756e7400000000000000006044820152606490fd5b60405162461bcd60e51b815260048101869052601a60248201527f42656c6f77206d696e696d756d20636f6e747269627574696f6e0000000000006044820152606490fd5b60405162461bcd60e51b815260048101859052601460248201527321b0b73737ba10333ab7321037bbb7103637b0b760611b6044820152606490fd5b60405162461bcd60e51b815260048101869052601760248201527f46756e64696e6720646561646c696e65207061737365640000000000000000006044820152606490fd5b60405162461bcd60e51b81526004810186905260126024820152714c6f616e206e6f7420617661696c61626c6560701b6044820152606490fd5b346102b6576020806003193601126102b65760043590610ee6613a6d565b8160005260078152600e60406000200180549060ff821660078110156105ab576006610f129114613dea565b8360005260118352604060002054421115610fda57907fb6d0d13889bd27ea4546c2b38e63c4ca45f6fd27b5db622033f3f0840c103ff6929184600052600f8352604060002060008052835260406000205485600052600f84526040600020600160005284526040600020541115600014610fd05760046000925b60ff1916179055610f9d8161354b565b80610fc257610fab84613e2c565b60405190610fb88161354b565b8152a26001600055005b610fcb84613e2c565b610fab565b6004600192610f8d565b60405162461bcd60e51b8152600481018490526013602482015272566f74696e67207374696c6c2061637469766560681b6044820152606490fd5b346102b65760403660031901126102b65761102e6133f3565b60243580151581036102b65761106c91611046613595565b60018060a01b0316600052600e60205260406000209060ff801983541691151516179055565b005b346102b65760203660031901126102b65760043560005260086020526040600020805460ff81169060026110a4600185016134a5565b930154906110df60405194846110ba879661354b565b855260018060a01b03809360081c16602086015260c0604086015260c0850190613555565b9160ff8116606085015260ff8160081c161515608085015260101c1660a08301520390f35b346102b65760203660031901126102b657600435611120613a6d565b600081815260076020526040902060018101546001600160a01b0316330361123757600e81019081549060ff821660078110156105ab576111f257600501546111a15760ff1916600517905561117581613d16565b7fb71becc91961a6b43bcc5b3b630f3dce02c7fd444cf3738c4f188062b1caf5bc600080a26001600055005b60405162461bcd60e51b815260206004820152602360248201527f43616e6e6f742063616e63656c207061727469616c6c792066756e646564206c60448201526237b0b760e91b6064820152608490fd5b60405162461bcd60e51b815260206004820152601e60248201527f43616e206f6e6c792063616e63656c20756e66756e646564206c6f616e7300006044820152606490fd5b60405162461bcd60e51b815260206004820152601860248201527f4f6e6c7920626f72726f7765722063616e2063616e63656c00000000000000006044820152606490fd5b346102b65761128a366132cf565b33600052602090600e825260ff604060002054161561134a576103e881116113105760008381526007835260409020600101547f48adb4acae9076e27f3dd76aae95808bb8f40caf101b9d074b3b89e67602cc4f9291906112f5906001600160a01b031615156135d0565b836000526007825280601060406000200155604051908152a2005b60405162461bcd60e51b8152600481018390526012602482015271496e76616c6964207269736b2073636f726560701b6044820152606490fd5b60405162461bcd60e51b81526004810183905260156024820152744e6f7420617574686f72697a6564206f7261636c6560581b6044820152606490fd5b346102b65760203660031901126102b65760406113a5600435613678565b82519182526020820152f35b6132b3565b6020806003193601126102b657600435906113cf613a6d565b600082815260078252604090206001810180546001600160a01b039290831633036117b657600e810160ff81541660078110156105ab5760020361177f57600d8201549081421080928115611769575b50156117305760048301546127109061144782611440600788015484613875565b0482613959565b9380611723575b6116ff575b50506012830191600261146784548361366b565b940192835490816000526008895260ff604060002054166114878161354b565b6116f85734915b821515806116ee575b156116a95760408b92827f919e2311cb8f85978e6f84ae3d90a27edc48dc6ca722d47302df171a808fd7029360005260088d52600160ff8460002054166114dd8161354b565b14611685575b506114ef858254613959565b81556114fb8585613b3c565b54938151908152848c820152a21015611516575b6001600055005b600360ff19825416179055546000526008845260ff6040600020541661153b8161354b565b158061167c575b61161a575b5061155184613d16565b54169081600052600d81526040600020906001820161157681548015611610576135c1565b90554260068301556002820161158c81546135c1565b9055815491600a8301809311610c2c577f79c012a0cfae660e09134956bc432c8497ec80e86a3a108d130e8b3fca52b3ad926103529081811115611607575080915b55604051908152a27f6a65a58027e68282a85ac65a7afc6580ef3d139c6e6ec12ae8d82de13566e8cc600080a28080808080808061150f565b905080916115ce565b61023f85556135c1565b6000808061162981943461366b565b335af1611634613a90565b50156116405784611547565b60405162461bcd60e51b8152600481018490526014602482015273115e18d95cdcc81c995d1d5c9b8819985a5b195960621b6044820152606490fd5b50803411611542565b60005260088c526116a3858c846000205460081c163090339061399b565b8d6114e3565b60405162461bcd60e51b8152600481018b9052601860248201527f496e76616c69642072657061796d656e7420616d6f756e7400000000000000006044820152606490fd5b5086831115611497565b859161148e565b9061171461171b939492601387015490613875565b0490613959565b908780611453565b506013850154151561144e565b60405162461bcd60e51b8152600481018790526011602482015270546f6f206c61746520746f20726570617960781b6044820152606490fd5b905060788101809111610c2c574211158861141f565b60405162461bcd60e51b815260048101869052600f60248201526e4c6f616e206e6f742061637469766560881b6044820152606490fd5b60405162461bcd60e51b815260048101859052601760248201527f4f6e6c7920626f72726f7765722063616e2072657061790000000000000000006044820152606490fd5b346102b65760003660031901126102b6576002546000198101818111610c2c5761182490613f62565b9060009060015b81811061188657505061183d81613f62565b9160005b828110611862576040516020808252819061185e90820187613437565b0390f35b806118706118819284613b28565b5161187b8287613b28565b526135c1565b611841565b80600052600760209080825260ff600e6040600020015416818110156105ab571591826118de575b50506118c3575b6118be906135c1565b61182b565b916118d6818461187b6118be9488613b28565b9290506118b5565b9091508260005252600a6040600020015442111585806118ae565b346102b65760003660031901126102b657602060405160788152f35b346102b65760003660031901126102b6576020600654604051908152f35b346102b65760003660031901126102b6576001546040516001600160a01b039091168152602090f35b346102b65760003660031901126102b6576020600254604051908152f35b346102b65760003660031901126102b657611993613595565b61199b613a4c565b6001805460ff60a01b1916600160a01b1790556040513381527f62e78cea01bee320cd4e420270b5ea74000d11b0c9f74754ebdbfc544b05a25890602090a1005b346102b65760203660031901126102b6576001600160a01b036119fd6133f3565b16600052600d60205260e06040600020805490600181015490600281015460038201546004830154916006600585015494015494604051968752602087015260408601526060850152608084015260a083015260c0820152f35b346102b65760403660031901126102b657611a70613409565b600435600052600a60205260406000209060018060a01b03166000526020526020604060002054604051908152f35b346102b65760003660031901126102b657602060405160968152f35b346102b6576020806003193601126102b657600435600052600981526040600020908154611ae881613b10565b92611af6604051948561331d565b8184526000908152828120838086015b848410611beb5786828151611b33611b1d82613b10565b91611b2b604051938461331d565b808352613b10565b8183019290601f1901368437611b498451613f62565b9160005b8551811015611b9757611b92906001600160a01b03611b6c8289613b28565b515116611b798285613b28565b5283611b858289613b28565b51015161187b8287613b28565b611b4d565b509190604051926040840190604085525180915260608401949060005b818110611bce5785870384870152858061185e8988613437565b82516001600160a01b031687529583019591830191600101611bb4565b600191600391604051611bfd81613301565b848060a01b038654168152848601548382015260ff600287015416151560408201528152019201920191908490611b06565b346102b65760003660031901126102b6576020600354604051908152f35b346102b65760003660031901126102b657611c66613595565b600180546001600160a01b031981169091556000906001600160a01b03167f8be0079c531659141344cd1fd0a4f28419497f9722a3daafe3b4186f6b6457e08280a3005b346102b65760203660031901126102b6576001600160a01b03611ccb6133f3565b16600052600e602052602060ff604060002054166040519015158152f35b346102b65760203660031901126102b65760043560005260116020526020604060002054604051908152f35b346102b65760003660031901126102b657602060ff60015460a01c166040519015158152f35b346102b65760803660031901126102b657611d546133f3565b67ffffffffffffffff906024358281116102b657611d7690369060040161335b565b6044359160ff83168093036102b6576001600160a01b0392606435929084841684036102b657611da4613595565b8483161561201a5760405190611db9826132e5565b6001825260208201908685168252604083019084825260608401526001608084015286861660a08401526003546000526008602052604060002091835190611e008261354b565b611e098261354b565b60ff845491610100600160a81b03905160081b169216906affffffffffffffffffffff60a81b161717825551968751908111610c5857611e4c600183015461346b565b601f8111611fcf575b506020601f8211600114611f34577f98878a34ea3245957b330457c591928f2908c8b254e8b972075101360fca276b949282611f139593600293611f249c600092611f29575b50508160011b916000199060031b1c19161760018201555b019060ff6060820151169082549161ff006080830151151560081b169160a062010000600160b01b0391015160101b169269ffffffffffffffffffff60b01b16171717905560035495869481604051948594604086526040860190613555565b9716602084015216940390a36135c1565b600355005b015190508c80611e9b565b6001830160005260206000209860005b601f1984168110611fb7575092600183611f249b6002947f98878a34ea3245957b330457c591928f2908c8b254e8b972075101360fca276b9997611f139997601f19811610611f9e575b505050811b016001820155611eb3565b015160001960f88460031b161c191690558c8080611f8e565b828201518b556001909a019960209283019201611f44565b600183016000526020600020601f830160051c81019160208410612010575b601f0160051c01905b8181106120045750611e55565b60008155600101611ff7565b9091508190611fee565b60405162461bcd60e51b815260206004820152601860248201527f496e76616c696420636f6e7472616374206164647265737300000000000000006044820152606490fd5b346102b65760003660031901126102b6576020600454604051908152f35b346102b65760003660031901126102b657612096613595565b60008080806006548160065560018060a01b03600554165af16120b7613a90565b50156120bf57005b60405162461bcd60e51b8152602060048201526015602482015274119959481dda5d1a191c985dd85b0819985a5b1959605a1b6044820152606490fd5b346102b65760003660031901126102b6576005546040516001600160a01b039091168152602090f35b346102b65760403660031901126102b65761213e613409565b600435600052601060205260406000209060018060a01b0316600052602052602060ff604060002054166040519015158152f35b6020806003193601126102b6576004359061218b613a6d565b81600052600781526040600020600e810160ff81541660078110156105ab57600281149081156124e6575b50156124a957600d820154601e8101809111610c2c574211906002830154916004840154906121e582856138b9565b6121f860038701546006880154906138b9565b90606482029180830460641490151715610c2c57601187015461221a91613875565b1181156124a1575b501561245c5761224061224b91612710611714600788015483613875565b60128501549061366b565b91806000526008855260ff604060002054166122668161354b565b61242c57508134106123e75790612289915b805460ff1916600417905584613b3c565b61229283613d16565b6001808060a01b03910154169081600052600d8152604060002091600183016122c1815480156123dd576135c1565b9055426006840155600383016122d781546135c1565b9055825492603284111561238d576031198401938411610c2c57827f79c012a0cfae660e09134956bc432c8497ec80e86a3a108d130e8b3fca52b3ad917fb6d0d13889bd27ea4546c2b38e63c4ca45f6fd27b5db622033f3f0840c103ff69561012c9081811060001461238657505b80915b55604051908152a2604051837f0789b7097e8066538cfaa1132488b132e14ba5f0c938c8b7aaf8cf40356aab0b600080a260008152a26001600055005b9050612346565b7fb6d0d13889bd27ea4546c2b38e63c4ca45f6fd27b5db622033f3f0840c103ff69350827f79c012a0cfae660e09134956bc432c8497ec80e86a3a108d130e8b3fca52b3ad9161012c8091612349565b61023f86556135c1565b60405162461bcd60e51b815260048101859052601d60248201527f496e73756666696369656e742045544820746f206c69717569646174650000006044820152606490fd5b906122899291600052600885526124578260018060a01b0360406000205460081c163090339061399b565b612278565b60405162461bcd60e51b815260048101869052601c60248201527f4c69717569646174696f6e206372697465726961206e6f74206d6574000000006044820152606490fd5b905087612222565b60405162461bcd60e51b81526004810184905260156024820152744c6f616e206e6f74206c6971756964617461626c6560581b6044820152606490fd5b6006915014856121b6565b346102b65760003660031901126102b65761250a613595565b60015460ff8160a01c16156125515760ff60a01b19166001556040513381527f5db9ee0a495bf2e6ff9c91a7834c1ba4fdd244a5e8aa4e537bd38aeae4b073aa90602090a1005b604051638dfc202b60e01b8152600490fd5b346102b65760403660031901126102b65761257c6133f3565b6001600160a01b03166000908152600c60205260409020805460243591908210156102b6576020916103d49161341f565b346102b6576125bb366133d4565b906125c4613a6d565b806000526020906007825260ff9182600e604060002001541660078110156105ab5760066125f29114613dea565b816000526011815260406000205442116127fe578160005260108152604060002033600052815282604060002054166127ca576000928260005260098252604060002080549061264182613b10565b9261264f604051948561331d565b828452600091825284822090858086015b8585106127875750505050505060005b815181101561277d57336001600160a01b0361268c8385613b28565b515116146126a25761269d906135c1565b612670565b829394506126af91613b28565b510151905b811561274a57826000526010815260406000203360005281526040600020600160ff1982541617905582600052600f815260406000206126f38561354b565b8460005281526040600020612709838254613959565b9055604051936127188161354b565b84528301527fb83d25c6a5d258561330739951487acb4bd09ba5190b5d32c4f261817d90679260403393a36001600055005b6064906040519062461bcd60e51b82526004820152600c60248201526b2737ba1030903632b73232b960a11b6044820152fd5b50509190916126b4565b60019160039160405161279981613301565b848060a01b038754168152848701548382015285600288015416151560408201528152019301930192918690612660565b6064906040519062461bcd60e51b82526004820152600d60248201526c105b1c9958591e481d9bdd1959609a1b6044820152fd5b6064906040519062461bcd60e51b825260048201526013602482015272159bdd1a5b99c81c195c9a5bd908195b991959606a1b6044820152fd5b346102b657612846366132cf565b906000526009602052604060002080548210156102b657606091612869916133a2565b5060018060a01b038154169060ff600260018301549201541690604051928352602083015215156040820152f35b346102b65760003660031901126102b6576020604051610bb88152f35b6101203660031901126102b6576101043567ffffffffffffffff81116102b6576128e290369060040161335b565b6128ea613a6d565b6128f2613a4c565b6044351561321157610bb8606435116131d357603c6084351015806131c3575b1561318b57600435600052600860205261293960ff60026040600020015460081c16613612565b602435600052600860205260ff60026040600020015460081c16156131465780511561310c5760a4351515806130fb575b156130b657603c60c4351015806130a7575b15613069576101f460e435116130315733600052600d602052604060002061012c81541090811591613024575b5015612fe8576129bd6044356004356138b9565b80609681020460961481151715610c2c57612a7990612a746129e0602435613678565b5091602435600052600860205260646096612a6c6040600020600260405191612a08836132e5565b805460ff8116612a178161354b565b845260081c6001600160a01b03166020840152612a36600182016134a5565b604084015201549060a060ff83169283606084015260ff8160081c1615156080840152600180831b039060101c16910152613888565b920204613875565b613899565b90602435600052600860205260ff60406000205416612a978161354b565b612eab57813410612e66575b600254612aaf816135c1565b600255612abe60c43542613959565b92602435600052600860205260ff60406000205416612adc8161354b565b612e615750345b604051908161028081011067ffffffffffffffff61028084011117610c58576102808201604052828252336020830152600435604083015260243560608301526044356080830152600060a083015260c082015260643560e082015260843561010082015260a4356101208201528361014082015242610160820152600061018082015260006101a082015260006101c0820152826101e082015260006102008201526078610220820152600061024082015260e435610260820152816000526007602052604060002090805182556001820160018060a01b036020830151166001600160601b0360a01b82541617905560408101516002830155606081015160038301556080810151600483015560a0810151600583015560c0810151600683015560e0810151600783015561010081015160088301556101208101516009830155610140810151600a830155610160810151600b830155610180810151600c8301556101a0810151600d830155600e82016101c082015160078110156105ab5760ff801983541691161790556101e081015180519067ffffffffffffffff8211610c5857612c96600f85015461346b565b601f8111612e1a575b50602090601f8311600114612da45791806013949261026094600092612d99575b50508160011b916000199060031b1c191617600f8501555b610200810151601085015561022081015160118501556102408101516012850155015191015533600052600b602052612d15816040600020613966565b8060005260076020526006604060002001549260405193604435855260208501526064356040850152608435606085015260a435608085015260a084015260e060c08401527f1455473c3acc495fcc473211502fcf9efe62f6c3a6b091a395e25c5c5d30ab546004359380612d8f339560e0830190613555565b0390a46001600055005b015190508980612cc0565b90600f850160005260206000209160005b601f1985168110612e02575092601394926001926102609583601f19811610612de9575b505050811b01600f850155612cd8565b015160001960f88460031b161c19169055898080612dd9565b91926020600181928685015181550194019201612db5565b600f85016000526020600020601f840160051c810160208510612e5a575b601f830160051c82018110612e4e575050612c9f565b60008155600101612e38565b5080612e38565b612ae3565b60405162461bcd60e51b815260206004820152601b60248201527f496e73756666696369656e742045544820636f6c6c61746572616c00000000006044820152606490fd5b34612f9757602435600052600860205260018060a01b0360406000205460081c166040516370a0823160e01b8152336004820152602081602481855afa8015612f8b578491600091612f56575b5010612f115782612f0c913090339061399b565b612aa3565b60405162461bcd60e51b815260206004820152601a60248201527f496e73756666696369656e742045524332302062616c616e63650000000000006044820152606490fd5b9150506020813d602011612f83575b81612f726020938361331d565b810103126102b65783905185612ef8565b3d9150612f65565b6040513d6000823e3d90fd5b60405162461bcd60e51b815260206004820152602360248201527f455448206e6f74206e656564656420666f7220455243323020636f6c6c6174656044820152621c985b60ea1b6064820152608490fd5b60405162461bcd60e51b81526020600482015260146024820152734372656469742073636f726520746f6f206c6f7760601b6044820152606490fd5b60019150015415826129a9565b60405162461bcd60e51b815260206004820152601060248201526f0a0cadcc2d8e8f240e8dede40d0d2ced60831b6044820152606490fd5b60405162461bcd60e51b8152602060048201526016602482015275125b9d985b1a5908199d5b991a5b99c81c195c9a5bd960521b6044820152606490fd5b5062278d0060c435111561297c565b60405162461bcd60e51b815260206004820152601860248201527f496e76616c6964206d696e20636f6e747269627574696f6e00000000000000006044820152606490fd5b5060443560011c60a435111561296a565b60405162461bcd60e51b815260206004820152601260248201527112541194c81a185cda081c995c5d5a5c995960721b6044820152606490fd5b60405162461bcd60e51b815260206004820152601e60248201527f436f6c6c61746572616c20746f6b656e206e6f7420737570706f7274656400006044820152606490fd5b60405162461bcd60e51b815260206004820152601060248201526f24b73b30b634b210323ab930ba34b7b760811b6044820152606490fd5b506301e133806084351115612912565b60405162461bcd60e51b8152602060048201526016602482015275092dce8cae4cae6e840e4c2e8ca40e8dede40d0d2ced60531b6044820152606490fd5b60405162461bcd60e51b815260206004820152601d60248201527f416d6f756e74206d7573742062652067726561746572207468616e20300000006044820152606490fd5b346102b657602061326f613269366132cf565b906138b9565b604051908152f35b346102b65760003660031901126102b65760206040516301e133808152f35b346102b65760003660031901126102b657602060405161012c8152f35b346102b65760003660031901126102b6576020604051603c8152f35b60409060031901126102b6576004359060243590565b60c0810190811067ffffffffffffffff821117610c5857604052565b6060810190811067ffffffffffffffff821117610c5857604052565b90601f8019910116810190811067ffffffffffffffff821117610c5857604052565b67ffffffffffffffff8111610c5857601f01601f191660200190565b81601f820112156102b6578035906133728261333f565b92613380604051948561331d565b828452602083830101116102b657816000926020809301838601378301015290565b80548210156133be576000526003602060002091020190600090565b634e487b7160e01b600052603260045260246000fd5b60409060031901126102b6576004359060243560028110156102b65790565b600435906001600160a01b03821682036102b657565b602435906001600160a01b03821682036102b657565b80548210156133be5760005260206000200190600090565b90815180825260208080930193019160005b828110613457575050505090565b835185529381019392810192600101613449565b90600182811c9216801561349b575b602083101461348557565b634e487b7160e01b600052602260045260246000fd5b91607f169161347a565b90604051918260008254926134b98461346b565b90818452600194858116908160001461352857506001146134e5575b50506134e39250038361331d565b565b9093915060005260209081600020936000915b8183106135105750506134e3935082010138806134d5565b855488840185015294850194879450918301916134f8565b9150506134e394506020925060ff191682840152151560051b82010138806134d5565b600211156105ab57565b919082519283825260005b848110613581575050826000602080949584010152601f8019910116010190565b602081830181015184830182015201613560565b6001546001600160a01b031633036135a957565b60405163118cdaa760e01b8152336004820152602490fd5b6000198114610c2c5760010190565b156135d757565b60405162461bcd60e51b8152602060048201526013602482015272131bd85b88191bd95cc81b9bdd08195e1a5cdd606a1b6044820152606490fd5b1561361957565b60405162461bcd60e51b8152602060048201526013602482015272151bdad95b881b9bdd081cdd5c1c1bdc9d1959606a1b6044820152606490fd5b519069ffffffffffffffffffff821682036102b657565b91908203918211610c2c57565b90600091825260206008815260408084208151613694816132e5565b6136f8600283549360ff85166136a98161354b565b845260018060a01b03809560081c16878501526136c8600182016134a5565b8685015201549160ff831660608201528360a060ff8560081c16151592836080820152019360101c168352613612565b51168015613865579060a060049392825194858092633fabe5a360e21b82525afa94851561385a5780938196613802575b508313156137bf57841561378757610e10613744864261366b565b1161374f5750509190565b60649250519062461bcd60e51b825260048201526012602482015271141c9a58d94819185d18481d1bdbc81bdb1960721b6044820152fd5b60649250519062461bcd60e51b825260048201526012602482015271526f756e64206e6f7420636f6d706c65746560701b6044820152fd5b60649250519062461bcd60e51b82526004820152601960248201527f496e76616c69642070726963652066726f6d206f7261636c65000000000000006044820152fd5b9350945060a0833d8211613852575b8161381e60a0938361331d565b8101031261384e5761382f83613654565b5081830151613845608060608601519501613654565b50929438613729565b8480fd5b3d9150613811565b9051903d90823e3d90fd5b5050509050642e90edd000904290565b81810292918115918404141715610c2c57565b60ff16604d8111610c2c57600a0a90565b81156138a3570490565b634e487b7160e01b600052601260045260246000fd5b9061395060ff613948613956946138cf81613678565b509060005260086020526040600020946040516138eb816132e5565b60a06002885498878a166138fe8161354b565b8452600180841b03809a60081c16602085015261391d600182016134a5565b604085015201549760608301988781168a52878160081c161515608085015260101c16910152613875565b925116613888565b90613899565b90565b91908201809211610c2c57565b8054600160401b811015610c58576139839160018201815561341f565b819291549060031b91821b91600019901b1916179055565b6040516323b872dd60e01b60208201526001600160a01b03928316602482015292909116604483015260648083019390935291815260a081019181831067ffffffffffffffff841117610c58576134e3926040525b906000602091828151910182855af115612f8b576000513d613a4357506001600160a01b0381163b155b613a215750565b604051635274afe760e01b81526001600160a01b039091166004820152602490fd5b60011415613a1a565b60ff60015460a01c16613a5b57565b60405163d93c066560e01b8152600490fd5b600260005414613a7e576002600055565b604051633ee5aeb560e01b8152600490fd5b3d15613abb573d90613aa18261333f565b91613aaf604051938461331d565b82523d6000602084013e565b606090565b60405163a9059cbb60e01b60208201526001600160a01b039092166024830152604480830193909352918152608081019167ffffffffffffffff831182841017610c58576134e3926040526139f0565b67ffffffffffffffff8111610c585760051b60200190565b80518210156133be5760209160051b010190565b91909160009080825260209360078552604092838120916009875284822091600491613b83613b7a612710613b72865485613875565b04809361366b565b91600654613959565b60065584830190825b8554811015613d0957613bb8613bb06001613ba7848a6133a2565b50015484613875565b845490613899565b80613bcd575b50613bc8906135c1565b613b8c565b89898d898860028d015480825260089081855260ff8784205416613bf08161354b565b613cad575050935083925082915084613c0a8784936133a2565b50546001600160a01b03165af1613c1f613a90565b5015613c73579089897f655b9f7355449ee5d1f48de6b9fbfab1b98a556d98413fc02bddba24dab5f7738e613bc8955b613c59868d6133a2565b505494519081526001600160a01b0390941693a390613bbe565b895162461bcd60e51b81528087018d9052601460248201527313195b99195c881c185e5bdd5d0819985a5b195960621b6044820152606490fd5b967f655b9f7355449ee5d1f48de6b9fbfab1b98a556d98413fc02bddba24dab5f773949387613cfb8b86613d0496613bc89e9d879952808a5260018060a01b039485922054901c16936133a2565b50541690613ac0565b613c4f565b5050505050505050509050565b6000908152600760205260408120600681019081549182613d38575b50505050565b8390556003810154600190910154818452600860205260408420546001600160a01b03918216929060ff16613d6c8161354b565b613dcc57505082809281925af1613d81613a90565b5015613d91575b38808080613d32565b60405162461bcd60e51b8152602060048201526013602482015272115512081d1c985b9cd9995c8819985a5b1959606a1b6044820152606490fd5b84604091613de596526008602052205460081c16613ac0565b613d88565b15613df157565b60405162461bcd60e51b81526020600482015260136024820152724e6f7420696e20766f74696e6720737461746560681b6044820152606490fd5b600090815260076020908152604080832060098352818420600494919085820160068301845b8354811015613f5757613e78613bb083546001613e6f85896133a2565b50015490613875565b9081613e8e575b613e8991506135c1565b613e52565b866003870154928382526008808c5260ff8b84205416613ead8161354b565b613f2b575082935081809391613ec482938a6133a2565b50546001600160a01b03165af1613ed9613a90565b5015613ee857613e8990613e7f565b865162461bcd60e51b8152808a01899052601e60248201527f436f6c6c61746572616c20646973747269627574696f6e206661696c656400006044820152606490fd5b613e8994613f529352808c5260018060a01b0380918c8c2054901c1690613cfb858a6133a2565b613e7f565b505050505050505050565b90613f6c82613b10565b613f79604051918261331d565b8281528092613f8a601f1991613b10565b019060203691013756fea264697066735822122085d2f0d3e64d48a0cb2a6bfb05c69817fc5d4dc92ceba980854bcf2589afff5964736f6c63430008140033","opcodes":"PUSH1 0x80 PUSH1 0x40 SWAP1 DUP1 DUP3 MSTORE CALLVALUE PUSH3 0x319 JUMPI PUSH1 0x1 SWAP1 PUSH1 0x0 SWAP1 DUP3 DUP3 SSTORE CALLER ISZERO PUSH3 0x305 JUMPI POP DUP2 SLOAD CALLER PUSH1 0x1 PUSH1 0x1 PUSH1 0xA0 SHL SUB NOT DUP1 DUP4 AND DUP3 OR DUP6 SSTORE SWAP3 SWAP2 PUSH1 0x1 PUSH1 0x1 PUSH1 0xA0 SHL SUB AND PUSH32 0x8BE0079C531659141344CD1FD0A4F28419497F9722A3DAAFE3B4186F6B6457E0 DUP4 DUP1 LOG3 DUP3 PUSH1 0x2 SSTORE DUP3 PUSH1 0x3 SSTORE PUSH1 0x4 SWAP2 PUSH1 0x32 DUP4 SSTORE CALLER SWAP1 PUSH1 0x5 SLOAD AND OR PUSH1 0x5 SSTORE DUP4 MLOAD SWAP1 PUSH1 0xC0 DUP3 ADD SWAP2 PUSH1 0x1 DUP1 PUSH1 0x40 SHL SUB SWAP3 DUP2 DUP2 LT DUP5 DUP3 GT OR PUSH3 0x2F2 JUMPI DUP7 MSTORE DUP2 DUP2 MSTORE PUSH1 0x20 SWAP5 DUP6 DUP3 ADD SWAP4 DUP4 DUP6 MSTORE DUP8 MLOAD SWAP2 DUP9 DUP4 ADD DUP4 DUP2 LT DUP4 DUP3 GT OR PUSH3 0x2DF JUMPI DUP10 MSTORE PUSH1 0x3 DUP4 MSTORE PUSH3 0x8AA89 PUSH1 0xEB SHL DUP9 DUP5 ADD MSTORE DUP9 DUP5 ADD SWAP3 DUP4 MSTORE PUSH1 0x60 DUP5 ADD SWAP8 PUSH1 0x12 DUP10 MSTORE PUSH1 0x80 DUP6 ADD SWAP8 DUP3 DUP10 MSTORE PUSH1 0xA0 DUP7 ADD SWAP8 DUP8 DUP10 MSTORE DUP8 DUP1 MSTORE PUSH1 0x8 DUP4 MSTORE DUP12 DUP9 KECCAK256 SWAP7 MLOAD SWAP1 PUSH1 0x2 DUP3 LT ISZERO PUSH3 0x2CC JUMPI PUSH1 0xFF DUP9 SLOAD SWAP2 PUSH2 0x100 PUSH1 0x1 PUSH1 0xA8 SHL SUB SWAP1 MLOAD PUSH1 0x8 SHL AND SWAP3 AND SWAP1 PUSH1 0x1 DUP1 PUSH1 0xA8 SHL SUB NOT AND OR OR DUP7 SSTORE DUP3 DUP7 ADD SWAP5 MLOAD SWAP1 DUP2 MLOAD SWAP5 DUP6 GT PUSH3 0x2B9 JUMPI DUP6 SLOAD SWAP1 DUP5 DUP3 DUP2 SHR SWAP3 AND DUP1 ISZERO PUSH3 0x2AE JUMPI JUMPDEST DUP5 DUP4 LT EQ PUSH3 0x29B JUMPI POP PUSH1 0x1F DUP2 GT PUSH3 0x250 JUMPI JUMPDEST POP DUP2 PUSH1 0x1F DUP6 GT PUSH1 0x1 EQ PUSH3 0x1DF JUMPI POP SWAP3 DUP1 SWAP3 DUP2 SWAP3 PUSH1 0x2 SWAP8 SWAP7 SWAP6 PUSH1 0xFF SWAP10 SWAP5 PUSH3 0x1D3 JUMPI JUMPDEST POP POP SHL SWAP2 PUSH1 0x0 NOT SWAP1 PUSH1 0x3 SHL SHR NOT AND OR SWAP1 SSTORE JUMPDEST SWAP5 MLOAD SWAP5 ADD DUP1 SLOAD SWAP4 MLOAD SWAP3 MLOAD PUSH1 0x1 PUSH1 0x1 PUSH1 0xB0 SHL SUB NOT SWAP1 SWAP5 AND SWAP2 SWAP1 SWAP5 AND OR SWAP1 ISZERO ISZERO PUSH1 0x8 SHL PUSH2 0xFF00 AND OR PUSH1 0x10 SWAP2 SWAP1 SWAP2 SHL PUSH3 0x10000 PUSH1 0x1 PUSH1 0xB0 SHL SUB AND OR SWAP1 SSTORE MLOAD PUSH2 0x3FCA SWAP1 DUP2 PUSH3 0x31F DUP3 CODECOPY RETURN JUMPDEST ADD MLOAD SWAP3 POP CODESIZE DUP1 PUSH3 0x179 JUMP JUMPDEST DUP6 DUP9 MSTORE DUP1 DUP9 KECCAK256 SWAP7 SWAP8 SWAP6 SWAP7 SWAP4 SWAP6 PUSH1 0x1F NOT DUP7 AND SWAP2 JUMPDEST DUP3 DUP3 LT PUSH3 0x238 JUMPI POP POP SWAP2 PUSH1 0xFF SWAP8 SWAP6 SWAP4 SWAP2 DUP6 PUSH1 0x2 SWAP9 SWAP7 SWAP5 LT PUSH3 0x21E JUMPI JUMPDEST POP POP POP DUP2 SHL ADD SWAP1 SSTORE PUSH3 0x18B JUMP JUMPDEST ADD MLOAD PUSH1 0x0 NOT PUSH1 0xF8 DUP5 PUSH1 0x3 SHL AND SHR NOT AND SWAP1 SSTORE CODESIZE DUP1 DUP1 PUSH3 0x210 JUMP JUMPDEST DUP1 DUP9 DUP7 SWAP8 DUP3 SWAP5 SWAP8 DUP8 ADD MLOAD DUP2 SSTORE ADD SWAP7 ADD SWAP5 ADD SWAP1 PUSH3 0x1F2 JUMP JUMPDEST DUP6 DUP9 MSTORE DUP3 DUP9 KECCAK256 PUSH1 0x1F DUP7 ADD PUSH1 0x5 SHR DUP2 ADD SWAP2 DUP5 DUP8 LT PUSH3 0x290 JUMPI JUMPDEST PUSH1 0x1F ADD PUSH1 0x5 SHR ADD SWAP1 DUP5 SWAP1 JUMPDEST DUP3 DUP2 LT PUSH3 0x284 JUMPI POP POP PUSH3 0x156 JUMP JUMPDEST DUP10 DUP2 SSTORE ADD DUP5 SWAP1 PUSH3 0x274 JUMP JUMPDEST SWAP1 SWAP2 POP DUP2 SWAP1 PUSH3 0x269 JUMP JUMPDEST PUSH4 0x4E487B71 PUSH1 0xE0 SHL DUP10 MSTORE PUSH1 0x22 SWAP1 MSTORE PUSH1 0x24 DUP9 REVERT JUMPDEST SWAP2 PUSH1 0x7F AND SWAP2 PUSH3 0x142 JUMP JUMPDEST PUSH4 0x4E487B71 PUSH1 0xE0 SHL DUP9 MSTORE PUSH1 0x41 SWAP1 MSTORE PUSH1 0x24 DUP8 REVERT JUMPDEST PUSH4 0x4E487B71 PUSH1 0xE0 SHL DUP10 MSTORE PUSH1 0x21 DUP4 MSTORE PUSH1 0x24 DUP10 REVERT JUMPDEST PUSH4 0x4E487B71 PUSH1 0xE0 SHL DUP7 MSTORE PUSH1 0x41 DUP9 MSTORE PUSH1 0x24 DUP7 REVERT JUMPDEST PUSH4 0x4E487B71 PUSH1 0xE0 SHL DUP4 MSTORE PUSH1 0x41 DUP6 MSTORE PUSH1 0x24 DUP4 REVERT JUMPDEST PUSH1 0x24 SWAP2 PUSH4 0x1E4FBDF7 PUSH1 0xE0 SHL DUP3 MSTORE PUSH1 0x4 DUP3 ADD MSTORE REVERT JUMPDEST PUSH1 0x0 DUP1 REVERT INVALID PUSH2 0x180 PUSH1 0x40 MSTORE PUSH1 0x4 CALLDATASIZE LT ISZERO PUSH2 0x13 JUMPI PUSH1 0x0 DUP1 REVERT JUMPDEST PUSH1 0x0 CALLDATALOAD PUSH1 0xE0 SHR DUP1 PUSH4 0xA353A29 EQ PUSH2 0x32B3 JUMPI DUP1 PUSH4 0xA49CF4D EQ PUSH2 0x3296 JUMPI DUP1 PUSH4 0xD0B2CA6 EQ PUSH2 0x3277 JUMPI DUP1 PUSH4 0x119328D6 EQ PUSH2 0x3256 JUMPI DUP1 PUSH4 0x22E69226 EQ PUSH2 0x28B4 JUMPI DUP1 PUSH4 0x34855D14 EQ PUSH2 0x2897 JUMPI DUP1 PUSH4 0x36630CD6 EQ PUSH2 0x2838 JUMPI DUP1 PUSH4 0x36CF063A EQ PUSH2 0x25AD JUMPI DUP1 PUSH4 0x3CDB72F1 EQ PUSH2 0x2563 JUMPI DUP1 PUSH4 0x3F4BA83A EQ PUSH2 0x24F1 JUMPI DUP1 PUSH4 0x415F1240 EQ PUSH2 0x2172 JUMPI DUP1 PUSH4 0x43859632 EQ PUSH2 0x2125 JUMPI DUP1 PUSH4 0x46904840 EQ PUSH2 0x20FC JUMPI DUP1 PUSH4 0x476343EE EQ PUSH2 0x207D JUMPI DUP1 PUSH4 0x58F85880 EQ PUSH2 0x205F JUMPI DUP1 PUSH4 0x5C211EFC EQ PUSH2 0x1D3B JUMPI DUP1 PUSH4 0x5C975ABB EQ PUSH2 0x1D15 JUMPI DUP1 PUSH4 0x6DEDE8EB EQ PUSH2 0x1CE9 JUMPI DUP1 PUSH4 0x6EEF1154 EQ PUSH2 0x1CAA JUMPI DUP1 PUSH4 0x715018A6 EQ PUSH2 0x1C4D JUMPI DUP1 PUSH4 0x75794A3C EQ PUSH2 0x1C2F JUMPI DUP1 PUSH4 0x77E6C4AA EQ PUSH2 0x1ABB JUMPI DUP1 PUSH4 0x7A9FFFB7 EQ PUSH2 0x1A9F JUMPI DUP1 PUSH4 0x8075A8F9 EQ PUSH2 0x1A57 JUMPI DUP1 PUSH4 0x80BB7273 EQ PUSH2 0x19DC JUMPI DUP1 PUSH4 0x8456CB59 EQ PUSH2 0x197A JUMPI DUP1 PUSH4 0x87C51459 EQ PUSH2 0x195C JUMPI DUP1 PUSH4 0x89D99A05 EQ PUSH2 0x13B1 JUMPI DUP1 PUSH4 0x8DA5CB5B EQ PUSH2 0x1933 JUMPI DUP1 PUSH4 0x9003ADFE EQ PUSH2 0x1915 JUMPI DUP1 PUSH4 0x90A8AE9B EQ PUSH2 0x18F9 JUMPI DUP1 PUSH4 0x9772D7EE EQ PUSH2 0x17FB JUMPI DUP1 PUSH4 0xAB7B1C89 EQ PUSH2 0x13B6 JUMPI DUP1 PUSH4 0xB1610D7E EQ PUSH2 0x13B1 JUMPI DUP1 PUSH4 0xB94FE917 EQ PUSH2 0x1387 JUMPI DUP1 PUSH4 0xBAD128B6 EQ PUSH2 0x127C JUMPI DUP1 PUSH4 0xBDBFA3DE EQ PUSH2 0x1104 JUMPI DUP1 PUSH4 0xC6255626 EQ PUSH2 0x106E JUMPI DUP1 PUSH4 0xC7A6DE4D EQ PUSH2 0x1015 JUMPI DUP1 PUSH4 0xCAFF6484 EQ PUSH2 0xEC8 JUMPI DUP1 PUSH4 0xCBA89B65 EQ PUSH2 0x8D7 JUMPI DUP1 PUSH4 0xDAFD06A3 EQ PUSH2 0x5C1 JUMPI DUP1 PUSH4 0xE1EC3C68 EQ PUSH2 0x41E JUMPI DUP1 PUSH4 0xE25B1078 EQ PUSH2 0x3E2 JUMPI DUP1 PUSH4 0xE3ED1902 EQ PUSH2 0x38A JUMPI DUP1 PUSH4 0xEC991DA9 EQ PUSH2 0x2D8 JUMPI DUP1 PUSH4 0xF25B9CAA EQ PUSH2 0x2BB JUMPI PUSH4 0xF2FDE38B EQ PUSH2 0x22D JUMPI PUSH1 0x0 DUP1 REVERT JUMPDEST CALLVALUE PUSH2 0x2B6 JUMPI PUSH1 0x20 CALLDATASIZE PUSH1 0x3 NOT ADD SLT PUSH2 0x2B6 JUMPI PUSH2 0x246 PUSH2 0x33F3 JUMP JUMPDEST PUSH2 0x24E PUSH2 0x3595 JUMP JUMPDEST PUSH1 0x1 PUSH1 0x1 PUSH1 0xA0 SHL SUB SWAP1 DUP2 AND SWAP1 DUP2 ISZERO PUSH2 0x29D JUMPI PUSH1 0x1 SLOAD DUP3 PUSH1 0x1 PUSH1 0x1 PUSH1 0x60 SHL SUB PUSH1 0xA0 SHL DUP3 AND OR PUSH1 0x1 SSTORE AND PUSH32 0x8BE0079C531659141344CD1FD0A4F28419497F9722A3DAAFE3B4186F6B6457E0 PUSH1 0x0 DUP1 LOG3 STOP JUMPDEST PUSH1 0x40 MLOAD PUSH4 0x1E4FBDF7 PUSH1 0xE0 SHL DUP2 MSTORE PUSH1 0x0 PUSH1 0x4 DUP3 ADD MSTORE PUSH1 0x24 SWAP1 REVERT JUMPDEST PUSH1 0x0 DUP1 REVERT JUMPDEST CALLVALUE PUSH2 0x2B6 JUMPI PUSH1 0x0 CALLDATASIZE PUSH1 0x3 NOT ADD SLT PUSH2 0x2B6 JUMPI PUSH1 0x20 PUSH1 0x40 MLOAD PUSH2 0xE10 DUP2 MSTORE RETURN JUMPDEST CALLVALUE PUSH2 0x2B6 JUMPI PUSH1 0x20 CALLDATASIZE PUSH1 0x3 NOT ADD SLT PUSH2 0x2B6 JUMPI PUSH1 0x4 CALLDATALOAD PUSH2 0x2F4 PUSH2 0x3595 JUMP JUMPDEST DUP1 PUSH1 0x0 MSTORE PUSH1 0x8 PUSH1 0x20 MSTORE PUSH1 0xFF PUSH1 0x2 PUSH1 0x40 PUSH1 0x0 KECCAK256 ADD SLOAD PUSH1 0x8 SHR AND ISZERO PUSH2 0x352 JUMPI DUP1 PUSH1 0x0 MSTORE PUSH1 0x8 PUSH1 0x20 MSTORE PUSH1 0x2 PUSH1 0x40 PUSH1 0x0 KECCAK256 ADD PUSH2 0xFF00 NOT DUP2 SLOAD AND SWAP1 SSTORE PUSH32 0x76AE93CD7712C8A8B4BA0C1B9F441DDBD9E9CE3E425A93B15E8F6E37D8784FA6 PUSH1 0x0 DUP1 LOG2 STOP JUMPDEST PUSH1 0x40 MLOAD PUSH3 0x461BCD PUSH1 0xE5 SHL DUP2 MSTORE PUSH1 0x20 PUSH1 0x4 DUP3 ADD MSTORE PUSH1 0x10 PUSH1 0x24 DUP3 ADD MSTORE PUSH16 0x546F6B656E206E6F7420616374697665 PUSH1 0x80 SHL PUSH1 0x44 DUP3 ADD MSTORE PUSH1 0x64 SWAP1 REVERT JUMPDEST CALLVALUE PUSH2 0x2B6 JUMPI PUSH1 0x40 CALLDATASIZE PUSH1 0x3 NOT ADD SLT PUSH2 0x2B6 JUMPI PUSH2 0x3A3 PUSH2 0x33F3 JUMP JUMPDEST PUSH1 0x1 PUSH1 0x1 PUSH1 0xA0 SHL SUB AND PUSH1 0x0 SWAP1 DUP2 MSTORE PUSH1 0xB PUSH1 0x20 MSTORE PUSH1 0x40 SWAP1 KECCAK256 DUP1 SLOAD PUSH1 0x24 CALLDATALOAD SWAP2 SWAP1 DUP3 LT ISZERO PUSH2 0x2B6 JUMPI PUSH1 0x20 SWAP2 PUSH2 0x3D4 SWAP2 PUSH2 0x341F JUMP JUMPDEST SWAP1 SLOAD PUSH1 0x40 MLOAD SWAP2 PUSH1 0x3 SHL SHR DUP2 MSTORE RETURN JUMPDEST CALLVALUE PUSH2 0x2B6 JUMPI PUSH2 0x3F0 CALLDATASIZE PUSH2 0x33D4 JUMP JUMPDEST SWAP1 PUSH1 0x0 MSTORE PUSH1 0xF PUSH1 0x20 MSTORE PUSH1 0x40 PUSH1 0x0 KECCAK256 SWAP1 PUSH2 0x408 DUP2 PUSH2 0x354B JUMP JUMPDEST PUSH1 0x0 MSTORE PUSH1 0x20 MSTORE PUSH1 0x20 PUSH1 0x40 PUSH1 0x0 KECCAK256 SLOAD PUSH1 0x40 MLOAD SWAP1 DUP2 MSTORE RETURN JUMPDEST CALLVALUE PUSH2 0x2B6 JUMPI PUSH1 0x20 CALLDATASIZE PUSH1 0x3 NOT ADD SLT PUSH2 0x2B6 JUMPI PUSH1 0x4 CALLDATALOAD PUSH1 0x0 MSTORE PUSH1 0x7 PUSH1 0x20 MSTORE PUSH1 0x40 PUSH1 0x0 KECCAK256 DUP1 PUSH2 0x100 MSTORE DUP1 SLOAD PUSH1 0xE0 MSTORE PUSH1 0x1 PUSH1 0xA0 SHL PUSH1 0x1 SWAP1 SUB PUSH1 0x1 DUP3 ADD SLOAD AND PUSH1 0x2 DUP3 ADD SLOAD PUSH1 0xA0 MSTORE PUSH1 0x3 DUP3 ADD SLOAD PUSH1 0x4 DUP4 ADD SLOAD PUSH1 0x5 DUP5 ADD SLOAD PUSH1 0x6 DUP6 ADD SLOAD PUSH1 0x7 DUP7 ADD SLOAD PUSH1 0x8 DUP8 ADD SLOAD PUSH1 0x9 DUP9 ADD SLOAD SWAP2 PUSH1 0xA DUP10 ADD SLOAD SWAP4 PUSH1 0xB DUP11 ADD SLOAD SWAP6 PUSH1 0xC DUP12 ADD SLOAD SWAP8 PUSH1 0xD DUP13 ADD SLOAD SWAP10 PUSH1 0xE DUP14 ADD SLOAD PUSH1 0xFF AND SWAP13 PUSH1 0xF ADD PUSH2 0x4B1 SWAP1 PUSH2 0x34A5 JUMP JUMPDEST SWAP12 PUSH2 0x100 MLOAD PUSH1 0x10 DUP2 ADD SLOAD PUSH2 0x120 MSTORE PUSH1 0x11 DUP2 ADD SLOAD PUSH2 0x140 MSTORE PUSH1 0x12 DUP2 ADD SLOAD PUSH2 0x160 MSTORE PUSH1 0x13 ADD SLOAD PUSH1 0xC0 MSTORE PUSH1 0x40 MLOAD DUP1 PUSH1 0x80 MSTORE PUSH1 0xE0 MLOAD SWAP1 MSTORE PUSH1 0x80 MLOAD PUSH1 0x20 ADD MSTORE PUSH1 0xA0 MLOAD PUSH1 0x80 MLOAD PUSH1 0x40 ADD MSTORE PUSH1 0x80 MLOAD PUSH1 0x60 ADD MSTORE PUSH1 0x80 MLOAD PUSH1 0x80 ADD MSTORE PUSH1 0x80 MLOAD PUSH1 0xA0 ADD MSTORE PUSH1 0x80 MLOAD PUSH1 0xC0 ADD MSTORE PUSH1 0x80 MLOAD PUSH1 0xE0 ADD MSTORE PUSH1 0x80 MLOAD PUSH2 0x100 ADD MSTORE PUSH1 0x80 MLOAD PUSH2 0x120 ADD MSTORE PUSH1 0x80 MLOAD PUSH2 0x140 ADD MSTORE PUSH1 0x80 MLOAD PUSH2 0x160 ADD MSTORE PUSH1 0x80 MLOAD PUSH2 0x180 ADD MSTORE PUSH1 0x80 MLOAD PUSH2 0x1A0 ADD MSTORE PUSH1 0x7 DUP3 LT ISZERO PUSH2 0x5AB JUMPI PUSH2 0x573 SWAP2 PUSH2 0x1C0 PUSH1 0x80 MLOAD ADD MSTORE PUSH2 0x280 DUP1 PUSH2 0x1E0 PUSH1 0x80 MLOAD ADD MSTORE PUSH1 0x80 MLOAD ADD SWAP1 PUSH2 0x3555 JUMP JUMPDEST PUSH2 0x120 MLOAD PUSH2 0x200 PUSH1 0x80 MLOAD ADD MSTORE PUSH2 0x140 MLOAD PUSH2 0x220 PUSH1 0x80 MLOAD ADD MSTORE PUSH2 0x160 MLOAD PUSH2 0x240 PUSH1 0x80 MLOAD ADD MSTORE PUSH1 0xC0 MLOAD PUSH2 0x260 PUSH1 0x80 MLOAD ADD MSTORE PUSH1 0x80 MLOAD DUP1 SWAP2 SUB SWAP1 RETURN JUMPDEST PUSH4 0x4E487B71 PUSH1 0xE0 SHL PUSH1 0x0 MSTORE PUSH1 0x21 PUSH1 0x4 MSTORE PUSH1 0x24 PUSH1 0x0 REVERT JUMPDEST CALLVALUE PUSH2 0x2B6 JUMPI PUSH1 0x20 CALLDATASIZE PUSH1 0x3 NOT ADD SLT PUSH2 0x2B6 JUMPI PUSH2 0x5DA PUSH2 0x3A6D JUMP JUMPDEST PUSH1 0x4 CALLDATALOAD PUSH1 0x0 MSTORE PUSH1 0x7 PUSH1 0x20 MSTORE PUSH1 0x40 PUSH1 0x0 KECCAK256 PUSH1 0xE DUP2 ADD DUP1 SLOAD PUSH1 0xFF DUP2 AND PUSH1 0x7 DUP2 LT ISZERO PUSH2 0x5AB JUMPI PUSH2 0x89B JUMPI PUSH1 0xA DUP4 ADD SLOAD TIMESTAMP GT ISZERO PUSH2 0x856 JUMPI PUSH1 0x5 DUP4 ADD SLOAD PUSH1 0x4 DUP5 ADD SLOAD GT ISZERO PUSH2 0x81D JUMPI PUSH1 0x1 SWAP1 PUSH1 0xFF NOT AND OR SWAP1 SSTORE PUSH1 0x4 CALLDATALOAD PUSH1 0x0 MSTORE PUSH1 0x9 PUSH1 0x20 MSTORE PUSH1 0x40 PUSH1 0x0 KECCAK256 SWAP1 DUP2 SLOAD PUSH2 0x643 DUP2 PUSH2 0x3B10 JUMP JUMPDEST SWAP3 PUSH2 0x651 PUSH1 0x40 MLOAD SWAP5 DUP6 PUSH2 0x331D JUMP JUMPDEST DUP2 DUP5 MSTORE PUSH1 0x20 DUP5 ADD SWAP1 PUSH1 0x0 MSTORE PUSH1 0x20 PUSH1 0x0 KECCAK256 PUSH1 0x0 SWAP2 JUMPDEST DUP4 DUP4 LT PUSH2 0x7DA JUMPI DUP6 DUP6 PUSH1 0x0 JUMPDEST DUP3 MLOAD DUP2 LT ISZERO PUSH2 0x78A JUMPI PUSH1 0x1 PUSH1 0x1 PUSH1 0xA0 SHL SUB PUSH2 0x68C DUP3 DUP6 PUSH2 0x3B28 JUMP JUMPDEST MLOAD MLOAD AND SWAP1 PUSH1 0x20 PUSH2 0x69C DUP3 DUP7 PUSH2 0x3B28 JUMP JUMPDEST MLOAD ADD MLOAD SWAP2 PUSH1 0x4 CALLDATALOAD PUSH1 0x0 MSTORE PUSH1 0x7 PUSH1 0x20 MSTORE PUSH1 0x2 PUSH1 0x40 PUSH1 0x0 KECCAK256 ADD SLOAD DUP1 PUSH1 0x0 MSTORE PUSH1 0x8 PUSH1 0x20 MSTORE PUSH1 0xFF PUSH1 0x40 PUSH1 0x0 KECCAK256 SLOAD AND PUSH2 0x6CF DUP2 PUSH2 0x354B JUMP JUMPDEST PUSH2 0x75D JUMPI POP PUSH1 0x0 DUP1 DUP1 DUP1 DUP7 DUP6 GAS CALL PUSH2 0x6E5 PUSH2 0x3A90 JUMP JUMPDEST POP ISZERO PUSH2 0x728 JUMPI PUSH2 0x723 SWAP3 JUMPDEST PUSH1 0x40 MLOAD SWAP1 DUP2 MSTORE PUSH32 0x7A482FDEB6BC9A1376F597068A214A7A39472BB2EFF1B8CAD21BA04F49DDCA1B PUSH1 0x20 PUSH1 0x4 CALLDATALOAD SWAP3 LOG3 PUSH2 0x35C1 JUMP JUMPDEST PUSH2 0x671 JUMP JUMPDEST PUSH1 0x40 MLOAD PUSH3 0x461BCD PUSH1 0xE5 SHL DUP2 MSTORE PUSH1 0x20 PUSH1 0x4 DUP3 ADD MSTORE PUSH1 0xD PUSH1 0x24 DUP3 ADD MSTORE PUSH13 0x1499599D5B990819985A5B1959 PUSH1 0x9A SHL PUSH1 0x44 DUP3 ADD MSTORE PUSH1 0x64 SWAP1 REVERT JUMPDEST SWAP3 PUSH2 0x723 SWAP4 PUSH1 0x0 MSTORE PUSH1 0x8 PUSH1 0x20 MSTORE PUSH2 0x785 DUP2 DUP4 PUSH1 0x1 DUP1 PUSH1 0xA0 SHL SUB PUSH1 0x40 PUSH1 0x0 KECCAK256 SLOAD PUSH1 0x8 SHR AND PUSH2 0x3AC0 JUMP JUMPDEST PUSH2 0x6F0 JUMP JUMPDEST POP PUSH2 0x796 PUSH1 0x4 CALLDATALOAD PUSH2 0x3D16 JUMP JUMPDEST PUSH1 0x4 PUSH1 0x5 DUP3 ADD SLOAD SWAP2 ADD SLOAD PUSH1 0x40 MLOAD SWAP2 DUP3 MSTORE PUSH1 0x20 DUP3 ADD MSTORE PUSH32 0x77F7E7D85860B4290E437C62570324DDD92C9BB185EC5A51FBEC45BC8D15503 PUSH1 0x40 PUSH1 0x4 CALLDATALOAD SWAP3 LOG2 PUSH1 0x1 PUSH1 0x0 SSTORE STOP JUMPDEST PUSH1 0x3 PUSH1 0x20 PUSH1 0x1 SWAP3 PUSH1 0x40 MLOAD PUSH2 0x7ED DUP2 PUSH2 0x3301 JUMP JUMPDEST DUP5 DUP1 PUSH1 0xA0 SHL SUB DUP7 SLOAD AND DUP2 MSTORE DUP5 DUP7 ADD SLOAD DUP4 DUP3 ADD MSTORE PUSH1 0xFF PUSH1 0x2 DUP8 ADD SLOAD AND ISZERO ISZERO PUSH1 0x40 DUP3 ADD MSTORE DUP2 MSTORE ADD SWAP3 ADD SWAP3 ADD SWAP2 SWAP1 PUSH2 0x665 JUMP JUMPDEST PUSH1 0x40 MLOAD PUSH3 0x461BCD PUSH1 0xE5 SHL DUP2 MSTORE PUSH1 0x20 PUSH1 0x4 DUP3 ADD MSTORE PUSH1 0x11 PUSH1 0x24 DUP3 ADD MSTORE PUSH17 0x131BD85B88199D5B1B1E48199D5B991959 PUSH1 0x7A SHL PUSH1 0x44 DUP3 ADD MSTORE PUSH1 0x64 SWAP1 REVERT JUMPDEST PUSH1 0x40 MLOAD PUSH3 0x461BCD PUSH1 0xE5 SHL DUP2 MSTORE PUSH1 0x20 PUSH1 0x4 DUP3 ADD MSTORE PUSH1 0x18 PUSH1 0x24 DUP3 ADD MSTORE PUSH32 0x46756E64696E6720706572696F64206E6F7420656E6465640000000000000000 PUSH1 0x44 DUP3 ADD MSTORE PUSH1 0x64 SWAP1 REVERT JUMPDEST PUSH1 0x40 MLOAD PUSH3 0x461BCD PUSH1 0xE5 SHL DUP2 MSTORE PUSH1 0x20 PUSH1 0x4 DUP3 ADD MSTORE PUSH1 0x14 PUSH1 0x24 DUP3 ADD MSTORE PUSH20 0x4E6F7420696E2066756E64696E67207374617465 PUSH1 0x60 SHL PUSH1 0x44 DUP3 ADD MSTORE PUSH1 0x64 SWAP1 REVERT JUMPDEST PUSH2 0x8E0 CALLDATASIZE PUSH2 0x32CF JUMP JUMPDEST SWAP1 PUSH2 0x8E9 PUSH2 0x3A6D JUMP JUMPDEST PUSH2 0x8F1 PUSH2 0x3A4C JUMP JUMPDEST DUP1 PUSH1 0x0 MSTORE PUSH1 0x20 PUSH1 0x7 DUP2 MSTORE PUSH1 0x40 PUSH1 0x0 KECCAK256 SWAP3 PUSH1 0x1 DUP1 PUSH1 0xA0 SHL SUB PUSH1 0x1 SWAP5 DUP2 DUP7 DUP3 ADD SLOAD AND PUSH2 0x91C DUP2 ISZERO ISZERO PUSH2 0x35D0 JUMP JUMPDEST PUSH1 0xFF PUSH1 0xE DUP4 ADD SLOAD AND PUSH1 0x7 DUP2 LT ISZERO PUSH2 0x5AB JUMPI PUSH2 0xE8E JUMPI PUSH1 0xA DUP3 ADD SLOAD TIMESTAMP GT PUSH2 0xE49 JUMPI CALLER EQ PUSH2 0xE0D JUMPI PUSH1 0x9 DUP2 ADD SLOAD SWAP1 DUP2 DUP5 LT PUSH2 0xDC8 JUMPI PUSH1 0x4 DUP2 ADD SWAP1 DUP2 SLOAD SWAP3 PUSH2 0x967 PUSH1 0x5 DUP4 ADD SWAP5 DUP6 SLOAD SWAP1 PUSH2 0x366B JUMP JUMPDEST SWAP1 DUP2 DUP8 GT PUSH2 0xD83 JUMPI DUP7 PUSH2 0x97A DUP2 DUP5 PUSH2 0x366B JUMP JUMPDEST ISZERO ISZERO SWAP3 DUP4 PUSH2 0xD6F JUMPI JUMPDEST POP POP POP PUSH2 0xD16 JUMPI PUSH1 0x2 ADD SLOAD SWAP4 DUP5 PUSH1 0x0 MSTORE PUSH1 0x8 SWAP5 DUP6 DUP8 MSTORE PUSH1 0xFF PUSH1 0x40 PUSH1 0x0 KECCAK256 SLOAD AND PUSH2 0x9AB DUP2 PUSH2 0x354B JUMP JUMPDEST PUSH2 0xCAA JUMPI POP DUP1 CALLVALUE SUB PUSH2 0xC6E JUMPI JUMPDEST DUP7 PUSH1 0x0 MSTORE PUSH1 0x9 DUP7 MSTORE PUSH1 0x40 PUSH1 0x0 KECCAK256 PUSH1 0x40 MLOAD SWAP1 PUSH2 0x9D2 DUP3 PUSH2 0x3301 JUMP JUMPDEST CALLER DUP3 MSTORE DUP8 DUP3 ADD SWAP2 DUP4 DUP4 MSTORE PUSH1 0x40 DUP2 ADD SWAP2 PUSH1 0x0 DUP4 MSTORE DUP1 SLOAD PUSH1 0x1 PUSH1 0x40 SHL DUP2 LT ISZERO PUSH2 0xC58 JUMPI PUSH2 0xA01 SWAP2 DUP14 DUP3 ADD DUP2 SSTORE PUSH2 0x33A2 JUMP JUMPDEST SWAP3 SWAP1 SWAP3 PUSH2 0xC42 JUMPI PUSH2 0xA3E SWAP4 DUP9 PUSH1 0x2 SWAP4 MLOAD AND PUSH1 0x1 PUSH1 0x1 PUSH1 0x60 SHL SUB PUSH1 0xA0 SHL DUP6 SLOAD AND OR DUP5 SSTORE MLOAD DUP13 DUP5 ADD SSTORE MLOAD ISZERO ISZERO SWAP2 ADD SWAP1 PUSH1 0xFF DUP1 NOT DUP4 SLOAD AND SWAP2 ISZERO ISZERO AND OR SWAP1 SSTORE JUMP JUMPDEST DUP7 PUSH1 0x0 MSTORE PUSH1 0x9 DUP7 MSTORE PUSH1 0x40 PUSH1 0x0 KECCAK256 SLOAD PUSH1 0x0 NOT DUP2 ADD SWAP1 DUP2 GT PUSH2 0xC2C JUMPI DUP8 PUSH1 0x0 MSTORE PUSH1 0xA DUP8 MSTORE PUSH1 0x40 PUSH1 0x0 KECCAK256 CALLER PUSH1 0x0 MSTORE DUP8 MSTORE PUSH1 0x40 PUSH1 0x0 KECCAK256 SSTORE PUSH1 0xC DUP7 MSTORE PUSH2 0xA83 DUP8 PUSH1 0x40 PUSH1 0x0 KECCAK256 PUSH2 0x3966 JUMP JUMPDEST PUSH2 0xA8E DUP2 DUP5 SLOAD PUSH2 0x3959 JUMP JUMPDEST DUP1 SWAP4 SSTORE PUSH1 0x40 MLOAD SWAP1 DUP2 MSTORE DUP3 DUP7 DUP3 ADD MSTORE DUP7 PUSH32 0x99F1C95E4132B33CAD7CBBD49D5EFA1AA01DB71EDBAB6F05C01FB2323875AD14 PUSH1 0x40 CALLER SWAP4 LOG3 SLOAD EQ PUSH2 0xAD1 JUMPI JUMPDEST PUSH1 0x0 DUP6 SWAP1 SSTORE STOP JUMPDEST DUP4 PUSH1 0x0 MSTORE PUSH1 0x7 DUP4 MSTORE PUSH1 0x40 PUSH1 0x0 KECCAK256 SWAP2 PUSH1 0xE DUP4 ADD PUSH1 0x2 PUSH1 0xFF NOT DUP3 SLOAD AND OR SWAP1 SSTORE TIMESTAMP PUSH1 0xC DUP5 ADD SSTORE PUSH2 0xB01 DUP2 DUP5 ADD SLOAD TIMESTAMP PUSH2 0x3959 JUMP JUMPDEST PUSH1 0xD DUP5 ADD SSTORE PUSH1 0x2 DUP4 ADD SLOAD DUP1 PUSH1 0x0 MSTORE DUP2 DUP6 MSTORE PUSH1 0xFF PUSH1 0x40 PUSH1 0x0 KECCAK256 SLOAD AND PUSH2 0xB24 DUP2 PUSH2 0x354B JUMP JUMPDEST PUSH2 0xBDB JUMPI POP POP PUSH1 0x0 DUP1 DUP1 DUP1 SWAP4 DUP9 DUP7 ADD SLOAD AND PUSH1 0x4 DUP7 ADD SLOAD SWAP1 GAS CALL PUSH2 0xB45 PUSH2 0x3A90 JUMP JUMPDEST POP ISZERO PUSH2 0xB96 JUMPI PUSH32 0xB96BADA2A4E2E402AAA472B5E783A9D8BB13D996387DF6BEEA608680B31FF46F SWAP2 PUSH1 0x4 PUSH1 0x40 SWAP3 JUMPDEST ADD SLOAD SWAP1 DUP5 PUSH1 0x0 MSTORE PUSH1 0x9 DUP2 MSTORE DUP3 PUSH1 0x0 KECCAK256 SLOAD SWAP1 DUP4 MLOAD SWAP3 DUP4 MSTORE DUP3 ADD MSTORE LOG2 DUP2 DUP1 DUP1 DUP1 PUSH2 0xACA JUMP JUMPDEST PUSH1 0x40 MLOAD PUSH3 0x461BCD PUSH1 0xE5 SHL DUP2 MSTORE PUSH1 0x4 DUP2 ADD DUP4 SWAP1 MSTORE PUSH1 0x1B PUSH1 0x24 DUP3 ADD MSTORE PUSH32 0x5472616E7366657220746F20626F72726F776572206661696C65640000000000 PUSH1 0x44 DUP3 ADD MSTORE PUSH1 0x64 SWAP1 REVERT JUMPDEST SWAP3 PUSH2 0xC27 DUP4 PUSH32 0xB96BADA2A4E2E402AAA472B5E783A9D8BB13D996387DF6BEEA608680B31FF46F SWAP7 SWAP5 PUSH1 0x4 SWAP5 PUSH1 0x40 SWAP8 PUSH1 0x0 MSTORE DUP1 DUP8 MSTORE DUP8 PUSH1 0x0 KECCAK256 SLOAD SWAP1 SHR AND SWAP1 DUP10 DUP5 ADD SLOAD AND DUP5 DUP5 ADD SLOAD SWAP2 PUSH2 0x3AC0 JUMP JUMPDEST PUSH2 0xB73 JUMP JUMPDEST PUSH4 0x4E487B71 PUSH1 0xE0 SHL PUSH1 0x0 MSTORE PUSH1 0x11 PUSH1 0x4 MSTORE PUSH1 0x24 PUSH1 0x0 REVERT JUMPDEST PUSH4 0x4E487B71 PUSH1 0xE0 SHL PUSH1 0x0 MSTORE PUSH1 0x0 PUSH1 0x4 MSTORE PUSH1 0x24 PUSH1 0x0 REVERT JUMPDEST PUSH4 0x4E487B71 PUSH1 0xE0 SHL PUSH1 0x0 MSTORE PUSH1 0x41 PUSH1 0x4 MSTORE PUSH1 0x24 PUSH1 0x0 REVERT JUMPDEST PUSH1 0x40 MLOAD PUSH3 0x461BCD PUSH1 0xE5 SHL DUP2 MSTORE PUSH1 0x4 DUP2 ADD DUP8 SWAP1 MSTORE PUSH1 0x14 PUSH1 0x24 DUP3 ADD MSTORE PUSH20 0x125B98DBDC9C9958DD0811551208185B5BDD5B9D PUSH1 0x62 SHL PUSH1 0x44 DUP3 ADD MSTORE PUSH1 0x64 SWAP1 REVERT JUMPDEST CALLVALUE PUSH2 0xCD1 JUMPI PUSH1 0x0 MSTORE DUP5 DUP7 MSTORE PUSH2 0xCCC DUP2 DUP6 PUSH1 0x40 PUSH1 0x0 KECCAK256 SLOAD DUP9 SHR AND ADDRESS SWAP1 CALLER SWAP1 PUSH2 0x399B JUMP JUMPDEST PUSH2 0x9B8 JUMP JUMPDEST PUSH1 0x40 MLOAD PUSH3 0x461BCD PUSH1 0xE5 SHL DUP2 MSTORE PUSH1 0x4 DUP2 ADD DUP9 SWAP1 MSTORE PUSH1 0x1D PUSH1 0x24 DUP3 ADD MSTORE PUSH32 0x455448206E6F74206E656564656420666F72204552433230206C6F616E000000 PUSH1 0x44 DUP3 ADD MSTORE PUSH1 0x64 SWAP1 REVERT JUMPDEST PUSH1 0x40 MLOAD PUSH3 0x461BCD PUSH1 0xE5 SHL DUP2 MSTORE PUSH1 0x4 DUP2 ADD DUP8 SWAP1 MSTORE PUSH1 0x2B PUSH1 0x24 DUP3 ADD MSTORE PUSH32 0x576F756C64206C6561766520616D6F756E742062656C6F77206D696E696D756D PUSH1 0x44 DUP3 ADD MSTORE PUSH11 0x20666F72206F7468657273 PUSH1 0xA8 SHL PUSH1 0x64 DUP3 ADD MSTORE PUSH1 0x84 SWAP1 REVERT JUMPDEST PUSH2 0xD7A SWAP3 SWAP4 POP PUSH2 0x366B JUMP JUMPDEST LT DUP10 DUP7 DUP2 PUSH2 0x983 JUMP JUMPDEST PUSH1 0x40 MLOAD PUSH3 0x461BCD PUSH1 0xE5 SHL DUP2 MSTORE PUSH1 0x4 DUP2 ADD DUP10 SWAP1 MSTORE PUSH1 0x18 PUSH1 0x24 DUP3 ADD MSTORE PUSH32 0x457863656564732072656D61696E696E6720616D6F756E740000000000000000 PUSH1 0x44 DUP3 ADD MSTORE PUSH1 0x64 SWAP1 REVERT JUMPDEST PUSH1 0x40 MLOAD PUSH3 0x461BCD PUSH1 0xE5 SHL DUP2 MSTORE PUSH1 0x4 DUP2 ADD DUP7 SWAP1 MSTORE PUSH1 0x1A PUSH1 0x24 DUP3 ADD MSTORE PUSH32 0x42656C6F77206D696E696D756D20636F6E747269627574696F6E000000000000 PUSH1 0x44 DUP3 ADD MSTORE PUSH1 0x64 SWAP1 REVERT JUMPDEST PUSH1 0x40 MLOAD PUSH3 0x461BCD PUSH1 0xE5 SHL DUP2 MSTORE PUSH1 0x4 DUP2 ADD DUP6 SWAP1 MSTORE PUSH1 0x14 PUSH1 0x24 DUP3 ADD MSTORE PUSH20 0x21B0B73737BA10333AB7321037BBB7103637B0B7 PUSH1 0x61 SHL PUSH1 0x44 DUP3 ADD MSTORE PUSH1 0x64 SWAP1 REVERT JUMPDEST PUSH1 0x40 MLOAD PUSH3 0x461BCD PUSH1 0xE5 SHL DUP2 MSTORE PUSH1 0x4 DUP2 ADD DUP7 SWAP1 MSTORE PUSH1 0x17 PUSH1 0x24 DUP3 ADD MSTORE PUSH32 0x46756E64696E6720646561646C696E6520706173736564000000000000000000 PUSH1 0x44 DUP3 ADD MSTORE PUSH1 0x64 SWAP1 REVERT JUMPDEST PUSH1 0x40 MLOAD PUSH3 0x461BCD PUSH1 0xE5 SHL DUP2 MSTORE PUSH1 0x4 DUP2 ADD DUP7 SWAP1 MSTORE PUSH1 0x12 PUSH1 0x24 DUP3 ADD MSTORE PUSH18 0x4C6F616E206E6F7420617661696C61626C65 PUSH1 0x70 SHL PUSH1 0x44 DUP3 ADD MSTORE PUSH1 0x64 SWAP1 REVERT JUMPDEST CALLVALUE PUSH2 0x2B6 JUMPI PUSH1 0x20 DUP1 PUSH1 0x3 NOT CALLDATASIZE ADD SLT PUSH2 0x2B6 JUMPI PUSH1 0x4 CALLDATALOAD SWAP1 PUSH2 0xEE6 PUSH2 0x3A6D JUMP JUMPDEST DUP2 PUSH1 0x0 MSTORE PUSH1 0x7 DUP2 MSTORE PUSH1 0xE PUSH1 0x40 PUSH1 0x0 KECCAK256 ADD DUP1 SLOAD SWAP1 PUSH1 0xFF DUP3 AND PUSH1 0x7 DUP2 LT ISZERO PUSH2 0x5AB JUMPI PUSH1 0x6 PUSH2 0xF12 SWAP2 EQ PUSH2 0x3DEA JUMP JUMPDEST DUP4 PUSH1 0x0 MSTORE PUSH1 0x11 DUP4 MSTORE PUSH1 0x40 PUSH1 0x0 KECCAK256 SLOAD TIMESTAMP GT ISZERO PUSH2 0xFDA JUMPI SWAP1 PUSH32 0xB6D0D13889BD27EA4546C2B38E63C4CA45F6FD27B5DB622033F3F0840C103FF6 SWAP3 SWAP2 DUP5 PUSH1 0x0 MSTORE PUSH1 0xF DUP4 MSTORE PUSH1 0x40 PUSH1 0x0 KECCAK256 PUSH1 0x0 DUP1 MSTORE DUP4 MSTORE PUSH1 0x40 PUSH1 0x0 KECCAK256 SLOAD DUP6 PUSH1 0x0 MSTORE PUSH1 0xF DUP5 MSTORE PUSH1 0x40 PUSH1 0x0 KECCAK256 PUSH1 0x1 PUSH1 0x0 MSTORE DUP5 MSTORE PUSH1 0x40 PUSH1 0x0 KECCAK256 SLOAD GT ISZERO PUSH1 0x0 EQ PUSH2 0xFD0 JUMPI PUSH1 0x4 PUSH1 0x0 SWAP3 JUMPDEST PUSH1 0xFF NOT AND OR SWAP1 SSTORE PUSH2 0xF9D DUP2 PUSH2 0x354B JUMP JUMPDEST DUP1 PUSH2 0xFC2 JUMPI PUSH2 0xFAB DUP5 PUSH2 0x3E2C JUMP JUMPDEST PUSH1 0x40 MLOAD SWAP1 PUSH2 0xFB8 DUP2 PUSH2 0x354B JUMP JUMPDEST DUP2 MSTORE LOG2 PUSH1 0x1 PUSH1 0x0 SSTORE STOP JUMPDEST PUSH2 0xFCB DUP5 PUSH2 0x3E2C JUMP JUMPDEST PUSH2 0xFAB JUMP JUMPDEST PUSH1 0x4 PUSH1 0x1 SWAP3 PUSH2 0xF8D JUMP JUMPDEST PUSH1 0x40 MLOAD PUSH3 0x461BCD PUSH1 0xE5 SHL DUP2 MSTORE PUSH1 0x4 DUP2 ADD DUP5 SWAP1 MSTORE PUSH1 0x13 PUSH1 0x24 DUP3 ADD MSTORE PUSH19 0x566F74696E67207374696C6C20616374697665 PUSH1 0x68 SHL PUSH1 0x44 DUP3 ADD MSTORE PUSH1 0x64 SWAP1 REVERT JUMPDEST CALLVALUE PUSH2 0x2B6 JUMPI PUSH1 0x40 CALLDATASIZE PUSH1 0x3 NOT ADD SLT PUSH2 0x2B6 JUMPI PUSH2 0x102E PUSH2 0x33F3 JUMP JUMPDEST PUSH1 0x24 CALLDATALOAD DUP1 ISZERO ISZERO DUP2 SUB PUSH2 0x2B6 JUMPI PUSH2 0x106C SWAP2 PUSH2 0x1046 PUSH2 0x3595 JUMP JUMPDEST PUSH1 0x1 DUP1 PUSH1 0xA0 SHL SUB AND PUSH1 0x0 MSTORE PUSH1 0xE PUSH1 0x20 MSTORE PUSH1 0x40 PUSH1 0x0 KECCAK256 SWAP1 PUSH1 0xFF DUP1 NOT DUP4 SLOAD AND SWAP2 ISZERO ISZERO AND OR SWAP1 SSTORE JUMP JUMPDEST STOP JUMPDEST CALLVALUE PUSH2 0x2B6 JUMPI PUSH1 0x20 CALLDATASIZE PUSH1 0x3 NOT ADD SLT PUSH2 0x2B6 JUMPI PUSH1 0x4 CALLDATALOAD PUSH1 0x0 MSTORE PUSH1 0x8 PUSH1 0x20 MSTORE PUSH1 0x40 PUSH1 0x0 KECCAK256 DUP1 SLOAD PUSH1 0xFF DUP2 AND SWAP1 PUSH1 0x2 PUSH2 0x10A4 PUSH1 0x1 DUP6 ADD PUSH2 0x34A5 JUMP JUMPDEST SWAP4 ADD SLOAD SWAP1 PUSH2 0x10DF PUSH1 0x40 MLOAD SWAP5 DUP5 PUSH2 0x10BA DUP8 SWAP7 PUSH2 0x354B JUMP JUMPDEST DUP6 MSTORE PUSH1 0x1 DUP1 PUSH1 0xA0 SHL SUB DUP1 SWAP4 PUSH1 0x8 SHR AND PUSH1 0x20 DUP7 ADD MSTORE PUSH1 0xC0 PUSH1 0x40 DUP7 ADD MSTORE PUSH1 0xC0 DUP6 ADD SWAP1 PUSH2 0x3555 JUMP JUMPDEST SWAP2 PUSH1 0xFF DUP2 AND PUSH1 0x60 DUP6 ADD MSTORE PUSH1 0xFF DUP2 PUSH1 0x8 SHR AND ISZERO ISZERO PUSH1 0x80 DUP6 ADD MSTORE PUSH1 0x10 SHR AND PUSH1 0xA0 DUP4 ADD MSTORE SUB SWAP1 RETURN JUMPDEST CALLVALUE PUSH2 0x2B6 JUMPI PUSH1 0x20 CALLDATASIZE PUSH1 0x3 NOT ADD SLT PUSH2 0x2B6 JUMPI PUSH1 0x4 CALLDATALOAD PUSH2 0x1120 PUSH2 0x3A6D JUMP JUMPDEST PUSH1 0x0 DUP2 DUP2 MSTORE PUSH1 0x7 PUSH1 0x20 MSTORE PUSH1 0x40 SWAP1 KECCAK256 PUSH1 0x1 DUP2 ADD SLOAD PUSH1 0x1 PUSH1 0x1 PUSH1 0xA0 SHL SUB AND CALLER SUB PUSH2 0x1237 JUMPI PUSH1 0xE DUP2 ADD SWAP1 DUP2 SLOAD SWAP1 PUSH1 0xFF DUP3 AND PUSH1 0x7 DUP2 LT ISZERO PUSH2 0x5AB JUMPI PUSH2 0x11F2 JUMPI PUSH1 0x5 ADD SLOAD PUSH2 0x11A1 JUMPI PUSH1 0xFF NOT AND PUSH1 0x5 OR SWAP1 SSTORE PUSH2 0x1175 DUP2 PUSH2 0x3D16 JUMP JUMPDEST PUSH32 0xB71BECC91961A6B43BCC5B3B630F3DCE02C7FD444CF3738C4F188062B1CAF5BC PUSH1 0x0 DUP1 LOG2 PUSH1 0x1 PUSH1 0x0 SSTORE STOP JUMPDEST PUSH1 0x40 MLOAD PUSH3 0x461BCD PUSH1 0xE5 SHL DUP2 MSTORE PUSH1 0x20 PUSH1 0x4 DUP3 ADD MSTORE PUSH1 0x23 PUSH1 0x24 DUP3 ADD MSTORE PUSH32 0x43616E6E6F742063616E63656C207061727469616C6C792066756E646564206C PUSH1 0x44 DUP3 ADD MSTORE PUSH3 0x37B0B7 PUSH1 0xE9 SHL PUSH1 0x64 DUP3 ADD MSTORE PUSH1 0x84 SWAP1 REVERT JUMPDEST PUSH1 0x40 MLOAD PUSH3 0x461BCD PUSH1 0xE5 SHL DUP2 MSTORE PUSH1 0x20 PUSH1 0x4 DUP3 ADD MSTORE PUSH1 0x1E PUSH1 0x24 DUP3 ADD MSTORE PUSH32 0x43616E206F6E6C792063616E63656C20756E66756E646564206C6F616E730000 PUSH1 0x44 DUP3 ADD MSTORE PUSH1 0x64 SWAP1 REVERT JUMPDEST PUSH1 0x40 MLOAD PUSH3 0x461BCD PUSH1 0xE5 SHL DUP2 MSTORE PUSH1 0x20 PUSH1 0x4 DUP3 ADD MSTORE PUSH1 0x18 PUSH1 0x24 DUP3 ADD MSTORE PUSH32 0x4F6E6C7920626F72726F7765722063616E2063616E63656C0000000000000000 PUSH1 0x44 DUP3 ADD MSTORE PUSH1 0x64 SWAP1 REVERT JUMPDEST CALLVALUE PUSH2 0x2B6 JUMPI PUSH2 0x128A CALLDATASIZE PUSH2 0x32CF JUMP JUMPDEST CALLER PUSH1 0x0 MSTORE PUSH1 0x20 SWAP1 PUSH1 0xE DUP3 MSTORE PUSH1 0xFF PUSH1 0x40 PUSH1 0x0 KECCAK256 SLOAD AND ISZERO PUSH2 0x134A JUMPI PUSH2 0x3E8 DUP2 GT PUSH2 0x1310 JUMPI PUSH1 0x0 DUP4 DUP2 MSTORE PUSH1 0x7 DUP4 MSTORE PUSH1 0x40 SWAP1 KECCAK256 PUSH1 0x1 ADD SLOAD PUSH32 0x48ADB4ACAE9076E27F3DD76AAE95808BB8F40CAF101B9D074B3B89E67602CC4F SWAP3 SWAP2 SWAP1 PUSH2 0x12F5 SWAP1 PUSH1 0x1 PUSH1 0x1 PUSH1 0xA0 SHL SUB AND ISZERO ISZERO PUSH2 0x35D0 JUMP JUMPDEST DUP4 PUSH1 0x0 MSTORE PUSH1 0x7 DUP3 MSTORE DUP1 PUSH1 0x10 PUSH1 0x40 PUSH1 0x0 KECCAK256 ADD SSTORE PUSH1 0x40 MLOAD SWAP1 DUP2 MSTORE LOG2 STOP JUMPDEST PUSH1 0x40 MLOAD PUSH3 0x461BCD PUSH1 0xE5 SHL DUP2 MSTORE PUSH1 0x4 DUP2 ADD DUP4 SWAP1 MSTORE PUSH1 0x12 PUSH1 0x24 DUP3 ADD MSTORE PUSH18 0x496E76616C6964207269736B2073636F7265 PUSH1 0x70 SHL PUSH1 0x44 DUP3 ADD MSTORE PUSH1 0x64 SWAP1 REVERT JUMPDEST PUSH1 0x40 MLOAD PUSH3 0x461BCD PUSH1 0xE5 SHL DUP2 MSTORE PUSH1 0x4 DUP2 ADD DUP4 SWAP1 MSTORE PUSH1 0x15 PUSH1 0x24 DUP3 ADD MSTORE PUSH21 0x4E6F7420617574686F72697A6564206F7261636C65 PUSH1 0x58 SHL PUSH1 0x44 DUP3 ADD MSTORE PUSH1 0x64 SWAP1 REVERT JUMPDEST CALLVALUE PUSH2 0x2B6 JUMPI PUSH1 0x20 CALLDATASIZE PUSH1 0x3 NOT ADD SLT PUSH2 0x2B6 JUMPI PUSH1 0x40 PUSH2 0x13A5 PUSH1 0x4 CALLDATALOAD PUSH2 0x3678 JUMP JUMPDEST DUP3 MLOAD SWAP2 DUP3 MSTORE PUSH1 0x20 DUP3 ADD MSTORE RETURN JUMPDEST PUSH2 0x32B3 JUMP JUMPDEST PUSH1 0x20 DUP1 PUSH1 0x3 NOT CALLDATASIZE ADD SLT PUSH2 0x2B6 JUMPI PUSH1 0x4 CALLDATALOAD SWAP1 PUSH2 0x13CF PUSH2 0x3A6D JUMP JUMPDEST PUSH1 0x0 DUP3 DUP2 MSTORE PUSH1 0x7 DUP3 MSTORE PUSH1 0x40 SWAP1 KECCAK256 PUSH1 0x1 DUP2 ADD DUP1 SLOAD PUSH1 0x1 PUSH1 0x1 PUSH1 0xA0 SHL SUB SWAP3 SWAP1 DUP4 AND CALLER SUB PUSH2 0x17B6 JUMPI PUSH1 0xE DUP2 ADD PUSH1 0xFF DUP2 SLOAD AND PUSH1 0x7 DUP2 LT ISZERO PUSH2 0x5AB JUMPI PUSH1 0x2 SUB PUSH2 0x177F JUMPI PUSH1 0xD DUP3 ADD SLOAD SWAP1 DUP2 TIMESTAMP LT DUP1 SWAP3 DUP2 ISZERO PUSH2 0x1769 JUMPI JUMPDEST POP ISZERO PUSH2 0x1730 JUMPI PUSH1 0x4 DUP4 ADD SLOAD PUSH2 0x2710 SWAP1 PUSH2 0x1447 DUP3 PUSH2 0x1440 PUSH1 0x7 DUP9 ADD SLOAD DUP5 PUSH2 0x3875 JUMP JUMPDEST DIV DUP3 PUSH2 0x3959 JUMP JUMPDEST SWAP4 DUP1 PUSH2 0x1723 JUMPI JUMPDEST PUSH2 0x16FF JUMPI JUMPDEST POP POP PUSH1 0x12 DUP4 ADD SWAP2 PUSH1 0x2 PUSH2 0x1467 DUP5 SLOAD DUP4 PUSH2 0x366B JUMP JUMPDEST SWAP5 ADD SWAP3 DUP4 SLOAD SWAP1 DUP2 PUSH1 0x0 MSTORE PUSH1 0x8 DUP10 MSTORE PUSH1 0xFF PUSH1 0x40 PUSH1 0x0 KECCAK256 SLOAD AND PUSH2 0x1487 DUP2 PUSH2 0x354B JUMP JUMPDEST PUSH2 0x16F8 JUMPI CALLVALUE SWAP2 JUMPDEST DUP3 ISZERO ISZERO DUP1 PUSH2 0x16EE JUMPI JUMPDEST ISZERO PUSH2 0x16A9 JUMPI PUSH1 0x40 DUP12 SWAP3 DUP3 PUSH32 0x919E2311CB8F85978E6F84AE3D90A27EDC48DC6CA722D47302DF171A808FD702 SWAP4 PUSH1 0x0 MSTORE PUSH1 0x8 DUP14 MSTORE PUSH1 0x1 PUSH1 0xFF DUP5 PUSH1 0x0 KECCAK256 SLOAD AND PUSH2 0x14DD DUP2 PUSH2 0x354B JUMP JUMPDEST EQ PUSH2 0x1685 JUMPI JUMPDEST POP PUSH2 0x14EF DUP6 DUP3 SLOAD PUSH2 0x3959 JUMP JUMPDEST DUP2 SSTORE PUSH2 0x14FB DUP6 DUP6 PUSH2 0x3B3C JUMP JUMPDEST SLOAD SWAP4 DUP2 MLOAD SWAP1 DUP2 MSTORE DUP5 DUP13 DUP3 ADD MSTORE LOG2 LT ISZERO PUSH2 0x1516 JUMPI JUMPDEST PUSH1 0x1 PUSH1 0x0 SSTORE STOP JUMPDEST PUSH1 0x3 PUSH1 0xFF NOT DUP3 SLOAD AND OR SWAP1 SSTORE SLOAD PUSH1 0x0 MSTORE PUSH1 0x8 DUP5 MSTORE PUSH1 0xFF PUSH1 0x40 PUSH1 0x0 KECCAK256 SLOAD AND PUSH2 0x153B DUP2 PUSH2 0x354B JUMP JUMPDEST ISZERO DUP1 PUSH2 0x167C JUMPI JUMPDEST PUSH2 0x161A JUMPI JUMPDEST POP PUSH2 0x1551 DUP5 PUSH2 0x3D16 JUMP JUMPDEST SLOAD AND SWAP1 DUP2 PUSH1 0x0 MSTORE PUSH1 0xD DUP2 MSTORE PUSH1 0x40 PUSH1 0x0 KECCAK256 SWAP1 PUSH1 0x1 DUP3 ADD PUSH2 0x1576 DUP2 SLOAD DUP1 ISZERO PUSH2 0x1610 JUMPI PUSH2 0x35C1 JUMP JUMPDEST SWAP1 SSTORE TIMESTAMP PUSH1 0x6 DUP4 ADD SSTORE PUSH1 0x2 DUP3 ADD PUSH2 0x158C DUP2 SLOAD PUSH2 0x35C1 JUMP JUMPDEST SWAP1 SSTORE DUP2 SLOAD SWAP2 PUSH1 0xA DUP4 ADD DUP1 SWAP4 GT PUSH2 0xC2C JUMPI PUSH32 0x79C012A0CFAE660E09134956BC432C8497EC80E86A3A108D130E8B3FCA52B3AD SWAP3 PUSH2 0x352 SWAP1 DUP2 DUP2 GT ISZERO PUSH2 0x1607 JUMPI POP DUP1 SWAP2 JUMPDEST SSTORE PUSH1 0x40 MLOAD SWAP1 DUP2 MSTORE LOG2 PUSH32 0x6A65A58027E68282A85AC65A7AFC6580EF3D139C6E6EC12AE8D82DE13566E8CC PUSH1 0x0 DUP1 LOG2 DUP1 DUP1 DUP1 DUP1 DUP1 DUP1 DUP1 PUSH2 0x150F JUMP JUMPDEST SWAP1 POP DUP1 SWAP2 PUSH2 0x15CE JUMP JUMPDEST PUSH2 0x23F DUP6 SSTORE PUSH2 0x35C1 JUMP JUMPDEST PUSH1 0x0 DUP1 DUP1 PUSH2 0x1629 DUP2 SWAP5 CALLVALUE PUSH2 0x366B JUMP JUMPDEST CALLER GAS CALL PUSH2 0x1634 PUSH2 0x3A90 JUMP JUMPDEST POP ISZERO PUSH2 0x1640 JUMPI DUP5 PUSH2 0x1547 JUMP JUMPDEST PUSH1 0x40 MLOAD PUSH3 0x461BCD PUSH1 0xE5 SHL DUP2 MSTORE PUSH1 0x4 DUP2 ADD DUP5 SWAP1 MSTORE PUSH1 0x14 PUSH1 0x24 DUP3 ADD MSTORE PUSH20 0x115E18D95CDCC81C995D1D5C9B8819985A5B1959 PUSH1 0x62 SHL PUSH1 0x44 DUP3 ADD MSTORE PUSH1 0x64 SWAP1 REVERT JUMPDEST POP DUP1 CALLVALUE GT PUSH2 0x1542 JUMP JUMPDEST PUSH1 0x0 MSTORE PUSH1 0x8 DUP13 MSTORE PUSH2 0x16A3 DUP6 DUP13 DUP5 PUSH1 0x0 KECCAK256 SLOAD PUSH1 0x8 SHR AND ADDRESS SWAP1 CALLER SWAP1 PUSH2 0x399B JUMP JUMPDEST DUP14 PUSH2 0x14E3 JUMP JUMPDEST PUSH1 0x40 MLOAD PUSH3 0x461BCD PUSH1 0xE5 SHL DUP2 MSTORE PUSH1 0x4 DUP2 ADD DUP12 SWAP1 MSTORE PUSH1 0x18 PUSH1 0x24 DUP3 ADD MSTORE PUSH32 0x496E76616C69642072657061796D656E7420616D6F756E740000000000000000 PUSH1 0x44 DUP3 ADD MSTORE PUSH1 0x64 SWAP1 REVERT JUMPDEST POP DUP7 DUP4 GT ISZERO PUSH2 0x1497 JUMP JUMPDEST DUP6 SWAP2 PUSH2 0x148E JUMP JUMPDEST SWAP1 PUSH2 0x1714 PUSH2 0x171B SWAP4 SWAP5 SWAP3 PUSH1 0x13 DUP8 ADD SLOAD SWAP1 PUSH2 0x3875 JUMP JUMPDEST DIV SWAP1 PUSH2 0x3959 JUMP JUMPDEST SWAP1 DUP8 DUP1 PUSH2 0x1453 JUMP JUMPDEST POP PUSH1 0x13 DUP6 ADD SLOAD ISZERO ISZERO PUSH2 0x144E JUMP JUMPDEST PUSH1 0x40 MLOAD PUSH3 0x461BCD PUSH1 0xE5 SHL DUP2 MSTORE PUSH1 0x4 DUP2 ADD DUP8 SWAP1 MSTORE PUSH1 0x11 PUSH1 0x24 DUP3 ADD MSTORE PUSH17 0x546F6F206C61746520746F207265706179 PUSH1 0x78 SHL PUSH1 0x44 DUP3 ADD MSTORE PUSH1 0x64 SWAP1 REVERT JUMPDEST SWAP1 POP PUSH1 0x78 DUP2 ADD DUP1 SWAP2 GT PUSH2 0xC2C JUMPI TIMESTAMP GT ISZERO DUP9 PUSH2 0x141F JUMP JUMPDEST PUSH1 0x40 MLOAD PUSH3 0x461BCD PUSH1 0xE5 SHL DUP2 MSTORE PUSH1 0x4 DUP2 ADD DUP7 SWAP1 MSTORE PUSH1 0xF PUSH1 0x24 DUP3 ADD MSTORE PUSH15 0x4C6F616E206E6F7420616374697665 PUSH1 0x88 SHL PUSH1 0x44 DUP3 ADD MSTORE PUSH1 0x64 SWAP1 REVERT JUMPDEST PUSH1 0x40 MLOAD PUSH3 0x461BCD PUSH1 0xE5 SHL DUP2 MSTORE PUSH1 0x4 DUP2 ADD DUP6 SWAP1 MSTORE PUSH1 0x17 PUSH1 0x24 DUP3 ADD MSTORE PUSH32 0x4F6E6C7920626F72726F7765722063616E207265706179000000000000000000 PUSH1 0x44 DUP3 ADD MSTORE PUSH1 0x64 SWAP1 REVERT JUMPDEST CALLVALUE PUSH2 0x2B6 JUMPI PUSH1 0x0 CALLDATASIZE PUSH1 0x3 NOT ADD SLT PUSH2 0x2B6 JUMPI PUSH1 0x2 SLOAD PUSH1 0x0 NOT DUP2 ADD DUP2 DUP2 GT PUSH2 0xC2C JUMPI PUSH2 0x1824 SWAP1 PUSH2 0x3F62 JUMP JUMPDEST SWAP1 PUSH1 0x0 SWAP1 PUSH1 0x1 JUMPDEST DUP2 DUP2 LT PUSH2 0x1886 JUMPI POP POP PUSH2 0x183D DUP2 PUSH2 0x3F62 JUMP JUMPDEST SWAP2 PUSH1 0x0 JUMPDEST DUP3 DUP2 LT PUSH2 0x1862 JUMPI PUSH1 0x40 MLOAD PUSH1 0x20 DUP1 DUP3 MSTORE DUP2 SWAP1 PUSH2 0x185E SWAP1 DUP3 ADD DUP8 PUSH2 0x3437 JUMP JUMPDEST SUB SWAP1 RETURN JUMPDEST DUP1 PUSH2 0x1870 PUSH2 0x1881 SWAP3 DUP5 PUSH2 0x3B28 JUMP JUMPDEST MLOAD PUSH2 0x187B DUP3 DUP8 PUSH2 0x3B28 JUMP JUMPDEST MSTORE PUSH2 0x35C1 JUMP JUMPDEST PUSH2 0x1841 JUMP JUMPDEST DUP1 PUSH1 0x0 MSTORE PUSH1 0x7 PUSH1 0x20 SWAP1 DUP1 DUP3 MSTORE PUSH1 0xFF PUSH1 0xE PUSH1 0x40 PUSH1 0x0 KECCAK256 ADD SLOAD AND DUP2 DUP2 LT ISZERO PUSH2 0x5AB JUMPI ISZERO SWAP2 DUP3 PUSH2 0x18DE JUMPI JUMPDEST POP POP PUSH2 0x18C3 JUMPI JUMPDEST PUSH2 0x18BE SWAP1 PUSH2 0x35C1 JUMP JUMPDEST PUSH2 0x182B JUMP JUMPDEST SWAP2 PUSH2 0x18D6 DUP2 DUP5 PUSH2 0x187B PUSH2 0x18BE SWAP5 DUP9 PUSH2 0x3B28 JUMP JUMPDEST SWAP3 SWAP1 POP PUSH2 0x18B5 JUMP JUMPDEST SWAP1 SWAP2 POP DUP3 PUSH1 0x0 MSTORE MSTORE PUSH1 0xA PUSH1 0x40 PUSH1 0x0 KECCAK256 ADD SLOAD TIMESTAMP GT ISZERO DUP6 DUP1 PUSH2 0x18AE JUMP JUMPDEST CALLVALUE PUSH2 0x2B6 JUMPI PUSH1 0x0 CALLDATASIZE PUSH1 0x3 NOT ADD SLT PUSH2 0x2B6 JUMPI PUSH1 0x20 PUSH1 0x40 MLOAD PUSH1 0x78 DUP2 MSTORE RETURN JUMPDEST CALLVALUE PUSH2 0x2B6 JUMPI PUSH1 0x0 CALLDATASIZE PUSH1 0x3 NOT ADD SLT PUSH2 0x2B6 JUMPI PUSH1 0x20 PUSH1 0x6 SLOAD PUSH1 0x40 MLOAD SWAP1 DUP2 MSTORE RETURN JUMPDEST CALLVALUE PUSH2 0x2B6 JUMPI PUSH1 0x0 CALLDATASIZE PUSH1 0x3 NOT ADD SLT PUSH2 0x2B6 JUMPI PUSH1 0x1 SLOAD PUSH1 0x40 MLOAD PUSH1 0x1 PUSH1 0x1 PUSH1 0xA0 SHL SUB SWAP1 SWAP2 AND DUP2 MSTORE PUSH1 0x20 SWAP1 RETURN JUMPDEST CALLVALUE PUSH2 0x2B6 JUMPI PUSH1 0x0 CALLDATASIZE PUSH1 0x3 NOT ADD SLT PUSH2 0x2B6 JUMPI PUSH1 0x20 PUSH1 0x2 SLOAD PUSH1 0x40 MLOAD SWAP1 DUP2 MSTORE RETURN JUMPDEST CALLVALUE PUSH2 0x2B6 JUMPI PUSH1 0x0 CALLDATASIZE PUSH1 0x3 NOT ADD SLT PUSH2 0x2B6 JUMPI PUSH2 0x1993 PUSH2 0x3595 JUMP JUMPDEST PUSH2 0x199B PUSH2 0x3A4C JUMP JUMPDEST PUSH1 0x1 DUP1 SLOAD PUSH1 0xFF PUSH1 0xA0 SHL NOT AND PUSH1 0x1 PUSH1 0xA0 SHL OR SWAP1 SSTORE PUSH1 0x40 MLOAD CALLER DUP2 MSTORE PUSH32 0x62E78CEA01BEE320CD4E420270B5EA74000D11B0C9F74754EBDBFC544B05A258 SWAP1 PUSH1 0x20 SWAP1 LOG1 STOP JUMPDEST CALLVALUE PUSH2 0x2B6 JUMPI PUSH1 0x20 CALLDATASIZE PUSH1 0x3 NOT ADD SLT PUSH2 0x2B6 JUMPI PUSH1 0x1 PUSH1 0x1 PUSH1 0xA0 SHL SUB PUSH2 0x19FD PUSH2 0x33F3 JUMP JUMPDEST AND PUSH1 0x0 MSTORE PUSH1 0xD PUSH1 0x20 MSTORE PUSH1 0xE0 PUSH1 0x40 PUSH1 0x0 KECCAK256 DUP1 SLOAD SWAP1 PUSH1 0x1 DUP2 ADD SLOAD SWAP1 PUSH1 0x2 DUP2 ADD SLOAD PUSH1 0x3 DUP3 ADD SLOAD PUSH1 0x4 DUP4 ADD SLOAD SWAP2 PUSH1 0x6 PUSH1 0x5 DUP6 ADD SLOAD SWAP5 ADD SLOAD SWAP5 PUSH1 0x40 MLOAD SWAP7 DUP8 MSTORE PUSH1 0x20 DUP8 ADD MSTORE PUSH1 0x40 DUP7 ADD MSTORE PUSH1 0x60 DUP6 ADD MSTORE PUSH1 0x80 DUP5 ADD MSTORE PUSH1 0xA0 DUP4 ADD MSTORE PUSH1 0xC0 DUP3 ADD MSTORE RETURN JUMPDEST CALLVALUE PUSH2 0x2B6 JUMPI PUSH1 0x40 CALLDATASIZE PUSH1 0x3 NOT ADD SLT PUSH2 0x2B6 JUMPI PUSH2 0x1A70 PUSH2 0x3409 JUMP JUMPDEST PUSH1 0x4 CALLDATALOAD PUSH1 0x0 MSTORE PUSH1 0xA PUSH1 0x20 MSTORE PUSH1 0x40 PUSH1 0x0 KECCAK256 SWAP1 PUSH1 0x1 DUP1 PUSH1 0xA0 SHL SUB AND PUSH1 0x0 MSTORE PUSH1 0x20 MSTORE PUSH1 0x20 PUSH1 0x40 PUSH1 0x0 KECCAK256 SLOAD PUSH1 0x40 MLOAD SWAP1 DUP2 MSTORE RETURN JUMPDEST CALLVALUE PUSH2 0x2B6 JUMPI PUSH1 0x0 CALLDATASIZE PUSH1 0x3 NOT ADD SLT PUSH2 0x2B6 JUMPI PUSH1 0x20 PUSH1 0x40 MLOAD PUSH1 0x96 DUP2 MSTORE RETURN JUMPDEST CALLVALUE PUSH2 0x2B6 JUMPI PUSH1 0x20 DUP1 PUSH1 0x3 NOT CALLDATASIZE ADD SLT PUSH2 0x2B6 JUMPI PUSH1 0x4 CALLDATALOAD PUSH1 0x0 MSTORE PUSH1 0x9 DUP2 MSTORE PUSH1 0x40 PUSH1 0x0 KECCAK256 SWAP1 DUP2 SLOAD PUSH2 0x1AE8 DUP2 PUSH2 0x3B10 JUMP JUMPDEST SWAP3 PUSH2 0x1AF6 PUSH1 0x40 MLOAD SWAP5 DUP6 PUSH2 0x331D JUMP JUMPDEST DUP2 DUP5 MSTORE PUSH1 0x0 SWAP1 DUP2 MSTORE DUP3 DUP2 KECCAK256 DUP4 DUP1 DUP7 ADD JUMPDEST DUP5 DUP5 LT PUSH2 0x1BEB JUMPI DUP7 DUP3 DUP2 MLOAD PUSH2 0x1B33 PUSH2 0x1B1D DUP3 PUSH2 0x3B10 JUMP JUMPDEST SWAP2 PUSH2 0x1B2B PUSH1 0x40 MLOAD SWAP4 DUP5 PUSH2 0x331D JUMP JUMPDEST DUP1 DUP4 MSTORE PUSH2 0x3B10 JUMP JUMPDEST DUP2 DUP4 ADD SWAP3 SWAP1 PUSH1 0x1F NOT ADD CALLDATASIZE DUP5 CALLDATACOPY PUSH2 0x1B49 DUP5 MLOAD PUSH2 0x3F62 JUMP JUMPDEST SWAP2 PUSH1 0x0 JUMPDEST DUP6 MLOAD DUP2 LT ISZERO PUSH2 0x1B97 JUMPI PUSH2 0x1B92 SWAP1 PUSH1 0x1 PUSH1 0x1 PUSH1 0xA0 SHL SUB PUSH2 0x1B6C DUP3 DUP10 PUSH2 0x3B28 JUMP JUMPDEST MLOAD MLOAD AND PUSH2 0x1B79 DUP3 DUP6 PUSH2 0x3B28 JUMP JUMPDEST MSTORE DUP4 PUSH2 0x1B85 DUP3 DUP10 PUSH2 0x3B28 JUMP JUMPDEST MLOAD ADD MLOAD PUSH2 0x187B DUP3 DUP8 PUSH2 0x3B28 JUMP JUMPDEST PUSH2 0x1B4D JUMP JUMPDEST POP SWAP2 SWAP1 PUSH1 0x40 MLOAD SWAP3 PUSH1 0x40 DUP5 ADD SWAP1 PUSH1 0x40 DUP6 MSTORE MLOAD DUP1 SWAP2 MSTORE PUSH1 0x60 DUP5 ADD SWAP5 SWAP1 PUSH1 0x0 JUMPDEST DUP2 DUP2 LT PUSH2 0x1BCE JUMPI DUP6 DUP8 SUB DUP5 DUP8 ADD MSTORE DUP6 DUP1 PUSH2 0x185E DUP10 DUP9 PUSH2 0x3437 JUMP JUMPDEST DUP3 MLOAD PUSH1 0x1 PUSH1 0x1 PUSH1 0xA0 SHL SUB AND DUP8 MSTORE SWAP6 DUP4 ADD SWAP6 SWAP2 DUP4 ADD SWAP2 PUSH1 0x1 ADD PUSH2 0x1BB4 JUMP JUMPDEST PUSH1 0x1 SWAP2 PUSH1 0x3 SWAP2 PUSH1 0x40 MLOAD PUSH2 0x1BFD DUP2 PUSH2 0x3301 JUMP JUMPDEST DUP5 DUP1 PUSH1 0xA0 SHL SUB DUP7 SLOAD AND DUP2 MSTORE DUP5 DUP7 ADD SLOAD DUP4 DUP3 ADD MSTORE PUSH1 0xFF PUSH1 0x2 DUP8 ADD SLOAD AND ISZERO ISZERO PUSH1 0x40 DUP3 ADD MSTORE DUP2 MSTORE ADD SWAP3 ADD SWAP3 ADD SWAP2 SWAP1 DUP5 SWAP1 PUSH2 0x1B06 JUMP JUMPDEST CALLVALUE PUSH2 0x2B6 JUMPI PUSH1 0x0 CALLDATASIZE PUSH1 0x3 NOT ADD SLT PUSH2 0x2B6 JUMPI PUSH1 0x20 PUSH1 0x3 SLOAD PUSH1 0x40 MLOAD SWAP1 DUP2 MSTORE RETURN JUMPDEST CALLVALUE PUSH2 0x2B6 JUMPI PUSH1 0x0 CALLDATASIZE PUSH1 0x3 NOT ADD SLT PUSH2 0x2B6 JUMPI PUSH2 0x1C66 PUSH2 0x3595 JUMP JUMPDEST PUSH1 0x1 DUP1 SLOAD PUSH1 0x1 PUSH1 0x1 PUSH1 0xA0 SHL SUB NOT DUP2 AND SWAP1 SWAP2 SSTORE PUSH1 0x0 SWAP1 PUSH1 0x1 PUSH1 0x1 PUSH1 0xA0 SHL SUB AND PUSH32 0x8BE0079C531659141344CD1FD0A4F28419497F9722A3DAAFE3B4186F6B6457E0 DUP3 DUP1 LOG3 STOP JUMPDEST CALLVALUE PUSH2 0x2B6 JUMPI PUSH1 0x20 CALLDATASIZE PUSH1 0x3 NOT ADD SLT PUSH2 0x2B6 JUMPI PUSH1 0x1 PUSH1 0x1 PUSH1 0xA0 SHL SUB PUSH2 0x1CCB PUSH2 0x33F3 JUMP JUMPDEST AND PUSH1 0x0 MSTORE PUSH1 0xE PUSH1 0x20 MSTORE PUSH1 0x20 PUSH1 0xFF PUSH1 0x40 PUSH1 0x0 KECCAK256 SLOAD AND PUSH1 0x40 MLOAD SWAP1 ISZERO ISZERO DUP2 MSTORE RETURN JUMPDEST CALLVALUE PUSH2 0x2B6 JUMPI PUSH1 0x20 CALLDATASIZE PUSH1 0x3 NOT ADD SLT PUSH2 0x2B6 JUMPI PUSH1 0x4 CALLDATALOAD PUSH1 0x0 MSTORE PUSH1 0x11 PUSH1 0x20 MSTORE PUSH1 0x20 PUSH1 0x40 PUSH1 0x0 KECCAK256 SLOAD PUSH1 0x40 MLOAD SWAP1 DUP2 MSTORE RETURN JUMPDEST CALLVALUE PUSH2 0x2B6 JUMPI PUSH1 0x0 CALLDATASIZE PUSH1 0x3 NOT ADD SLT PUSH2 0x2B6 JUMPI PUSH1 0x20 PUSH1 0xFF PUSH1 0x1 SLOAD PUSH1 0xA0 SHR AND PUSH1 0x40 MLOAD SWAP1 ISZERO ISZERO DUP2 MSTORE RETURN JUMPDEST CALLVALUE PUSH2 0x2B6 JUMPI PUSH1 0x80 CALLDATASIZE PUSH1 0x3 NOT ADD SLT PUSH2 0x2B6 JUMPI PUSH2 0x1D54 PUSH2 0x33F3 JUMP JUMPDEST PUSH8 0xFFFFFFFFFFFFFFFF SWAP1 PUSH1 0x24 CALLDATALOAD DUP3 DUP2 GT PUSH2 0x2B6 JUMPI PUSH2 0x1D76 SWAP1 CALLDATASIZE SWAP1 PUSH1 0x4 ADD PUSH2 0x335B JUMP JUMPDEST PUSH1 0x44 CALLDATALOAD SWAP2 PUSH1 0xFF DUP4 AND DUP1 SWAP4 SUB PUSH2 0x2B6 JUMPI PUSH1 0x1 PUSH1 0x1 PUSH1 0xA0 SHL SUB SWAP3 PUSH1 0x64 CALLDATALOAD SWAP3 SWAP1 DUP5 DUP5 AND DUP5 SUB PUSH2 0x2B6 JUMPI PUSH2 0x1DA4 PUSH2 0x3595 JUMP JUMPDEST DUP5 DUP4 AND ISZERO PUSH2 0x201A JUMPI PUSH1 0x40 MLOAD SWAP1 PUSH2 0x1DB9 DUP3 PUSH2 0x32E5 JUMP JUMPDEST PUSH1 0x1 DUP3 MSTORE PUSH1 0x20 DUP3 ADD SWAP1 DUP7 DUP6 AND DUP3 MSTORE PUSH1 0x40 DUP4 ADD SWAP1 DUP5 DUP3 MSTORE PUSH1 0x60 DUP5 ADD MSTORE PUSH1 0x1 PUSH1 0x80 DUP5 ADD MSTORE DUP7 DUP7 AND PUSH1 0xA0 DUP5 ADD MSTORE PUSH1 0x3 SLOAD PUSH1 0x0 MSTORE PUSH1 0x8 PUSH1 0x20 MSTORE PUSH1 0x40 PUSH1 0x0 KECCAK256 SWAP2 DUP4 MLOAD SWAP1 PUSH2 0x1E00 DUP3 PUSH2 0x354B JUMP JUMPDEST PUSH2 0x1E09 DUP3 PUSH2 0x354B JUMP JUMPDEST PUSH1 0xFF DUP5 SLOAD SWAP2 PUSH2 0x100 PUSH1 0x1 PUSH1 0xA8 SHL SUB SWAP1 MLOAD PUSH1 0x8 SHL AND SWAP3 AND SWAP1 PUSH11 0xFFFFFFFFFFFFFFFFFFFFFF PUSH1 0xA8 SHL AND OR OR DUP3 SSTORE MLOAD SWAP7 DUP8 MLOAD SWAP1 DUP2 GT PUSH2 0xC58 JUMPI PUSH2 0x1E4C PUSH1 0x1 DUP4 ADD SLOAD PUSH2 0x346B JUMP JUMPDEST PUSH1 0x1F DUP2 GT PUSH2 0x1FCF JUMPI JUMPDEST POP PUSH1 0x20 PUSH1 0x1F DUP3 GT PUSH1 0x1 EQ PUSH2 0x1F34 JUMPI PUSH32 0x98878A34EA3245957B330457C591928F2908C8B254E8B972075101360FCA276B SWAP5 SWAP3 DUP3 PUSH2 0x1F13 SWAP6 SWAP4 PUSH1 0x2 SWAP4 PUSH2 0x1F24 SWAP13 PUSH1 0x0 SWAP3 PUSH2 0x1F29 JUMPI JUMPDEST POP POP DUP2 PUSH1 0x1 SHL SWAP2 PUSH1 0x0 NOT SWAP1 PUSH1 0x3 SHL SHR NOT AND OR PUSH1 0x1 DUP3 ADD SSTORE JUMPDEST ADD SWAP1 PUSH1 0xFF PUSH1 0x60 DUP3 ADD MLOAD AND SWAP1 DUP3 SLOAD SWAP2 PUSH2 0xFF00 PUSH1 0x80 DUP4 ADD MLOAD ISZERO ISZERO PUSH1 0x8 SHL AND SWAP2 PUSH1 0xA0 PUSH3 0x10000 PUSH1 0x1 PUSH1 0xB0 SHL SUB SWAP2 ADD MLOAD PUSH1 0x10 SHL AND SWAP3 PUSH10 0xFFFFFFFFFFFFFFFFFFFF PUSH1 0xB0 SHL AND OR OR OR SWAP1 SSTORE PUSH1 0x3 SLOAD SWAP6 DUP7 SWAP5 DUP2 PUSH1 0x40 MLOAD SWAP5 DUP6 SWAP5 PUSH1 0x40 DUP7 MSTORE PUSH1 0x40 DUP7 ADD SWAP1 PUSH2 0x3555 JUMP JUMPDEST SWAP8 AND PUSH1 0x20 DUP5 ADD MSTORE AND SWAP5 SUB SWAP1 LOG3 PUSH2 0x35C1 JUMP JUMPDEST PUSH1 0x3 SSTORE STOP JUMPDEST ADD MLOAD SWAP1 POP DUP13 DUP1 PUSH2 0x1E9B JUMP JUMPDEST PUSH1 0x1 DUP4 ADD PUSH1 0x0 MSTORE PUSH1 0x20 PUSH1 0x0 KECCAK256 SWAP9 PUSH1 0x0 JUMPDEST PUSH1 0x1F NOT DUP5 AND DUP2 LT PUSH2 0x1FB7 JUMPI POP SWAP3 PUSH1 0x1 DUP4 PUSH2 0x1F24 SWAP12 PUSH1 0x2 SWAP5 PUSH32 0x98878A34EA3245957B330457C591928F2908C8B254E8B972075101360FCA276B SWAP10 SWAP8 PUSH2 0x1F13 SWAP10 SWAP8 PUSH1 0x1F NOT DUP2 AND LT PUSH2 0x1F9E JUMPI JUMPDEST POP POP POP DUP2 SHL ADD PUSH1 0x1 DUP3 ADD SSTORE PUSH2 0x1EB3 JUMP JUMPDEST ADD MLOAD PUSH1 0x0 NOT PUSH1 0xF8 DUP5 PUSH1 0x3 SHL AND SHR NOT AND SWAP1 SSTORE DUP13 DUP1 DUP1 PUSH2 0x1F8E JUMP JUMPDEST DUP3 DUP3 ADD MLOAD DUP12 SSTORE PUSH1 0x1 SWAP1 SWAP11 ADD SWAP10 PUSH1 0x20 SWAP3 DUP4 ADD SWAP3 ADD PUSH2 0x1F44 JUMP JUMPDEST PUSH1 0x1 DUP4 ADD PUSH1 0x0 MSTORE PUSH1 0x20 PUSH1 0x0 KECCAK256 PUSH1 0x1F DUP4 ADD PUSH1 0x5 SHR DUP2 ADD SWAP2 PUSH1 0x20 DUP5 LT PUSH2 0x2010 JUMPI JUMPDEST PUSH1 0x1F ADD PUSH1 0x5 SHR ADD SWAP1 JUMPDEST DUP2 DUP2 LT PUSH2 0x2004 JUMPI POP PUSH2 0x1E55 JUMP JUMPDEST PUSH1 0x0 DUP2 SSTORE PUSH1 0x1 ADD PUSH2 0x1FF7 JUMP JUMPDEST SWAP1 SWAP2 POP DUP2 SWAP1 PUSH2 0x1FEE JUMP JUMPDEST PUSH1 0x40 MLOAD PUSH3 0x461BCD PUSH1 0xE5 SHL DUP2 MSTORE PUSH1 0x20 PUSH1 0x4 DUP3 ADD MSTORE PUSH1 0x18 PUSH1 0x24 DUP3 ADD MSTORE PUSH32 0x496E76616C696420636F6E747261637420616464726573730000000000000000 PUSH1 0x44 DUP3 ADD MSTORE PUSH1 0x64 SWAP1 REVERT JUMPDEST CALLVALUE PUSH2 0x2B6 JUMPI PUSH1 0x0 CALLDATASIZE PUSH1 0x3 NOT ADD SLT PUSH2 0x2B6 JUMPI PUSH1 0x20 PUSH1 0x4 SLOAD PUSH1 0x40 MLOAD SWAP1 DUP2 MSTORE RETURN JUMPDEST CALLVALUE PUSH2 0x2B6 JUMPI PUSH1 0x0 CALLDATASIZE PUSH1 0x3 NOT ADD SLT PUSH2 0x2B6 JUMPI PUSH2 0x2096 PUSH2 0x3595 JUMP JUMPDEST PUSH1 0x0 DUP1 DUP1 DUP1 PUSH1 0x6 SLOAD DUP2 PUSH1 0x6 SSTORE PUSH1 0x1 DUP1 PUSH1 0xA0 SHL SUB PUSH1 0x5 SLOAD AND GAS CALL PUSH2 0x20B7 PUSH2 0x3A90 JUMP JUMPDEST POP ISZERO PUSH2 0x20BF JUMPI STOP JUMPDEST PUSH1 0x40 MLOAD PUSH3 0x461BCD PUSH1 0xE5 SHL DUP2 MSTORE PUSH1 0x20 PUSH1 0x4 DUP3 ADD MSTORE PUSH1 0x15 PUSH1 0x24 DUP3 ADD MSTORE PUSH21 0x119959481DDA5D1A191C985DD85B0819985A5B1959 PUSH1 0x5A SHL PUSH1 0x44 DUP3 ADD MSTORE PUSH1 0x64 SWAP1 REVERT JUMPDEST CALLVALUE PUSH2 0x2B6 JUMPI PUSH1 0x0 CALLDATASIZE PUSH1 0x3 NOT ADD SLT PUSH2 0x2B6 JUMPI PUSH1 0x5 SLOAD PUSH1 0x40 MLOAD PUSH1 0x1 PUSH1 0x1 PUSH1 0xA0 SHL SUB SWAP1 SWAP2 AND DUP2 MSTORE PUSH1 0x20 SWAP1 RETURN JUMPDEST CALLVALUE PUSH2 0x2B6 JUMPI PUSH1 0x40 CALLDATASIZE PUSH1 0x3 NOT ADD SLT PUSH2 0x2B6 JUMPI PUSH2 0x213E PUSH2 0x3409 JUMP JUMPDEST PUSH1 0x4 CALLDATALOAD PUSH1 0x0 MSTORE PUSH1 0x10 PUSH1 0x20 MSTORE PUSH1 0x40 PUSH1 0x0 KECCAK256 SWAP1 PUSH1 0x1 DUP1 PUSH1 0xA0 SHL SUB AND PUSH1 0x0 MSTORE PUSH1 0x20 MSTORE PUSH1 0x20 PUSH1 0xFF PUSH1 0x40 PUSH1 0x0 KECCAK256 SLOAD AND PUSH1 0x40 MLOAD SWAP1 ISZERO ISZERO DUP2 MSTORE RETURN JUMPDEST PUSH1 0x20 DUP1 PUSH1 0x3 NOT CALLDATASIZE ADD SLT PUSH2 0x2B6 JUMPI PUSH1 0x4 CALLDATALOAD SWAP1 PUSH2 0x218B PUSH2 0x3A6D JUMP JUMPDEST DUP2 PUSH1 0x0 MSTORE PUSH1 0x7 DUP2 MSTORE PUSH1 0x40 PUSH1 0x0 KECCAK256 PUSH1 0xE DUP2 ADD PUSH1 0xFF DUP2 SLOAD AND PUSH1 0x7 DUP2 LT ISZERO PUSH2 0x5AB JUMPI PUSH1 0x2 DUP2 EQ SWAP1 DUP2 ISZERO PUSH2 0x24E6 JUMPI JUMPDEST POP ISZERO PUSH2 0x24A9 JUMPI PUSH1 0xD DUP3 ADD SLOAD PUSH1 0x1E DUP2 ADD DUP1 SWAP2 GT PUSH2 0xC2C JUMPI TIMESTAMP GT SWAP1 PUSH1 0x2 DUP4 ADD SLOAD SWAP2 PUSH1 0x4 DUP5 ADD SLOAD SWAP1 PUSH2 0x21E5 DUP3 DUP6 PUSH2 0x38B9 JUMP JUMPDEST PUSH2 0x21F8 PUSH1 0x3 DUP8 ADD SLOAD PUSH1 0x6 DUP9 ADD SLOAD SWAP1 PUSH2 0x38B9 JUMP JUMPDEST SWAP1 PUSH1 0x64 DUP3 MUL SWAP2 DUP1 DUP4 DIV PUSH1 0x64 EQ SWAP1 ISZERO OR ISZERO PUSH2 0xC2C JUMPI PUSH1 0x11 DUP8 ADD SLOAD PUSH2 0x221A SWAP2 PUSH2 0x3875 JUMP JUMPDEST GT DUP2 ISZERO PUSH2 0x24A1 JUMPI JUMPDEST POP ISZERO PUSH2 0x245C JUMPI PUSH2 0x2240 PUSH2 0x224B SWAP2 PUSH2 0x2710 PUSH2 0x1714 PUSH1 0x7 DUP9 ADD SLOAD DUP4 PUSH2 0x3875 JUMP JUMPDEST PUSH1 0x12 DUP6 ADD SLOAD SWAP1 PUSH2 0x366B JUMP JUMPDEST SWAP2 DUP1 PUSH1 0x0 MSTORE PUSH1 0x8 DUP6 MSTORE PUSH1 0xFF PUSH1 0x40 PUSH1 0x0 KECCAK256 SLOAD AND PUSH2 0x2266 DUP2 PUSH2 0x354B JUMP JUMPDEST PUSH2 0x242C JUMPI POP DUP2 CALLVALUE LT PUSH2 0x23E7 JUMPI SWAP1 PUSH2 0x2289 SWAP2 JUMPDEST DUP1 SLOAD PUSH1 0xFF NOT AND PUSH1 0x4 OR SWAP1 SSTORE DUP5 PUSH2 0x3B3C JUMP JUMPDEST PUSH2 0x2292 DUP4 PUSH2 0x3D16 JUMP JUMPDEST PUSH1 0x1 DUP1 DUP1 PUSH1 0xA0 SHL SUB SWAP2 ADD SLOAD AND SWAP1 DUP2 PUSH1 0x0 MSTORE PUSH1 0xD DUP2 MSTORE PUSH1 0x40 PUSH1 0x0 KECCAK256 SWAP2 PUSH1 0x1 DUP4 ADD PUSH2 0x22C1 DUP2 SLOAD DUP1 ISZERO PUSH2 0x23DD JUMPI PUSH2 0x35C1 JUMP JUMPDEST SWAP1 SSTORE TIMESTAMP PUSH1 0x6 DUP5 ADD SSTORE PUSH1 0x3 DUP4 ADD PUSH2 0x22D7 DUP2 SLOAD PUSH2 0x35C1 JUMP JUMPDEST SWAP1 SSTORE DUP3 SLOAD SWAP3 PUSH1 0x32 DUP5 GT ISZERO PUSH2 0x238D JUMPI PUSH1 0x31 NOT DUP5 ADD SWAP4 DUP5 GT PUSH2 0xC2C JUMPI DUP3 PUSH32 0x79C012A0CFAE660E09134956BC432C8497EC80E86A3A108D130E8B3FCA52B3AD SWAP2 PUSH32 0xB6D0D13889BD27EA4546C2B38E63C4CA45F6FD27B5DB622033F3F0840C103FF6 SWAP6 PUSH2 0x12C SWAP1 DUP2 DUP2 LT PUSH1 0x0 EQ PUSH2 0x2386 JUMPI POP JUMPDEST DUP1 SWAP2 JUMPDEST SSTORE PUSH1 0x40 MLOAD SWAP1 DUP2 MSTORE LOG2 PUSH1 0x40 MLOAD DUP4 PUSH32 0x789B7097E8066538CFAA1132488B132E14BA5F0C938C8B7AAF8CF40356AAB0B PUSH1 0x0 DUP1 LOG2 PUSH1 0x0 DUP2 MSTORE LOG2 PUSH1 0x1 PUSH1 0x0 SSTORE STOP JUMPDEST SWAP1 POP PUSH2 0x2346 JUMP JUMPDEST PUSH32 0xB6D0D13889BD27EA4546C2B38E63C4CA45F6FD27B5DB622033F3F0840C103FF6 SWAP4 POP DUP3 PUSH32 0x79C012A0CFAE660E09134956BC432C8497EC80E86A3A108D130E8B3FCA52B3AD SWAP2 PUSH2 0x12C DUP1 SWAP2 PUSH2 0x2349 JUMP JUMPDEST PUSH2 0x23F DUP7 SSTORE PUSH2 0x35C1 JUMP JUMPDEST PUSH1 0x40 MLOAD PUSH3 0x461BCD PUSH1 0xE5 SHL DUP2 MSTORE PUSH1 0x4 DUP2 ADD DUP6 SWAP1 MSTORE PUSH1 0x1D PUSH1 0x24 DUP3 ADD MSTORE PUSH32 0x496E73756666696369656E742045544820746F206C6971756964617465000000 PUSH1 0x44 DUP3 ADD MSTORE PUSH1 0x64 SWAP1 REVERT JUMPDEST SWAP1 PUSH2 0x2289 SWAP3 SWAP2 PUSH1 0x0 MSTORE PUSH1 0x8 DUP6 MSTORE PUSH2 0x2457 DUP3 PUSH1 0x1 DUP1 PUSH1 0xA0 SHL SUB PUSH1 0x40 PUSH1 0x0 KECCAK256 SLOAD PUSH1 0x8 SHR AND ADDRESS SWAP1 CALLER SWAP1 PUSH2 0x399B JUMP JUMPDEST PUSH2 0x2278 JUMP JUMPDEST PUSH1 0x40 MLOAD PUSH3 0x461BCD PUSH1 0xE5 SHL DUP2 MSTORE PUSH1 0x4 DUP2 ADD DUP7 SWAP1 MSTORE PUSH1 0x1C PUSH1 0x24 DUP3 ADD MSTORE PUSH32 0x4C69717569646174696F6E206372697465726961206E6F74206D657400000000 PUSH1 0x44 DUP3 ADD MSTORE PUSH1 0x64 SWAP1 REVERT JUMPDEST SWAP1 POP DUP8 PUSH2 0x2222 JUMP JUMPDEST PUSH1 0x40 MLOAD PUSH3 0x461BCD PUSH1 0xE5 SHL DUP2 MSTORE PUSH1 0x4 DUP2 ADD DUP5 SWAP1 MSTORE PUSH1 0x15 PUSH1 0x24 DUP3 ADD MSTORE PUSH21 0x4C6F616E206E6F74206C6971756964617461626C65 PUSH1 0x58 SHL PUSH1 0x44 DUP3 ADD MSTORE PUSH1 0x64 SWAP1 REVERT JUMPDEST PUSH1 0x6 SWAP2 POP EQ DUP6 PUSH2 0x21B6 JUMP JUMPDEST CALLVALUE PUSH2 0x2B6 JUMPI PUSH1 0x0 CALLDATASIZE PUSH1 0x3 NOT ADD SLT PUSH2 0x2B6 JUMPI PUSH2 0x250A PUSH2 0x3595 JUMP JUMPDEST PUSH1 0x1 SLOAD PUSH1 0xFF DUP2 PUSH1 0xA0 SHR AND ISZERO PUSH2 0x2551 JUMPI PUSH1 0xFF PUSH1 0xA0 SHL NOT AND PUSH1 0x1 SSTORE PUSH1 0x40 MLOAD CALLER DUP2 MSTORE PUSH32 0x5DB9EE0A495BF2E6FF9C91A7834C1BA4FDD244A5E8AA4E537BD38AEAE4B073AA SWAP1 PUSH1 0x20 SWAP1 LOG1 STOP JUMPDEST PUSH1 0x40 MLOAD PUSH4 0x8DFC202B PUSH1 0xE0 SHL DUP2 MSTORE PUSH1 0x4 SWAP1 REVERT JUMPDEST CALLVALUE PUSH2 0x2B6 JUMPI PUSH1 0x40 CALLDATASIZE PUSH1 0x3 NOT ADD SLT PUSH2 0x2B6 JUMPI PUSH2 0x257C PUSH2 0x33F3 JUMP JUMPDEST PUSH1 0x1 PUSH1 0x1 PUSH1 0xA0 SHL SUB AND PUSH1 0x0 SWAP1 DUP2 MSTORE PUSH1 0xC PUSH1 0x20 MSTORE PUSH1 0x40 SWAP1 KECCAK256 DUP1 SLOAD PUSH1 0x24 CALLDATALOAD SWAP2 SWAP1 DUP3 LT ISZERO PUSH2 0x2B6 JUMPI PUSH1 0x20 SWAP2 PUSH2 0x3D4 SWAP2 PUSH2 0x341F JUMP JUMPDEST CALLVALUE PUSH2 0x2B6 JUMPI PUSH2 0x25BB CALLDATASIZE PUSH2 0x33D4 JUMP JUMPDEST SWAP1 PUSH2 0x25C4 PUSH2 0x3A6D JUMP JUMPDEST DUP1 PUSH1 0x0 MSTORE PUSH1 0x20 SWAP1 PUSH1 0x7 DUP3 MSTORE PUSH1 0xFF SWAP2 DUP3 PUSH1 0xE PUSH1 0x40 PUSH1 0x0 KECCAK256 ADD SLOAD AND PUSH1 0x7 DUP2 LT ISZERO PUSH2 0x5AB JUMPI PUSH1 0x6 PUSH2 0x25F2 SWAP2 EQ PUSH2 0x3DEA JUMP JUMPDEST DUP2 PUSH1 0x0 MSTORE PUSH1 0x11 DUP2 MSTORE PUSH1 0x40 PUSH1 0x0 KECCAK256 SLOAD TIMESTAMP GT PUSH2 0x27FE JUMPI DUP2 PUSH1 0x0 MSTORE PUSH1 0x10 DUP2 MSTORE PUSH1 0x40 PUSH1 0x0 KECCAK256 CALLER PUSH1 0x0 MSTORE DUP2 MSTORE DUP3 PUSH1 0x40 PUSH1 0x0 KECCAK256 SLOAD AND PUSH2 0x27CA JUMPI PUSH1 0x0 SWAP3 DUP3 PUSH1 0x0 MSTORE PUSH1 0x9 DUP3 MSTORE PUSH1 0x40 PUSH1 0x0 KECCAK256 DUP1 SLOAD SWAP1 PUSH2 0x2641 DUP3 PUSH2 0x3B10 JUMP JUMPDEST SWAP3 PUSH2 0x264F PUSH1 0x40 MLOAD SWAP5 DUP6 PUSH2 0x331D JUMP JUMPDEST DUP3 DUP5 MSTORE PUSH1 0x0 SWAP2 DUP3 MSTORE DUP5 DUP3 KECCAK256 SWAP1 DUP6 DUP1 DUP7 ADD JUMPDEST DUP6 DUP6 LT PUSH2 0x2787 JUMPI POP POP POP POP POP POP PUSH1 0x0 JUMPDEST DUP2 MLOAD DUP2 LT ISZERO PUSH2 0x277D JUMPI CALLER PUSH1 0x1 PUSH1 0x1 PUSH1 0xA0 SHL SUB PUSH2 0x268C DUP4 DUP6 PUSH2 0x3B28 JUMP JUMPDEST MLOAD MLOAD AND EQ PUSH2 0x26A2 JUMPI PUSH2 0x269D SWAP1 PUSH2 0x35C1 JUMP JUMPDEST PUSH2 0x2670 JUMP JUMPDEST DUP3 SWAP4 SWAP5 POP PUSH2 0x26AF SWAP2 PUSH2 0x3B28 JUMP JUMPDEST MLOAD ADD MLOAD SWAP1 JUMPDEST DUP2 ISZERO PUSH2 0x274A JUMPI DUP3 PUSH1 0x0 MSTORE PUSH1 0x10 DUP2 MSTORE PUSH1 0x40 PUSH1 0x0 KECCAK256 CALLER PUSH1 0x0 MSTORE DUP2 MSTORE PUSH1 0x40 PUSH1 0x0 KECCAK256 PUSH1 0x1 PUSH1 0xFF NOT DUP3 SLOAD AND OR SWAP1 SSTORE DUP3 PUSH1 0x0 MSTORE PUSH1 0xF DUP2 MSTORE PUSH1 0x40 PUSH1 0x0 KECCAK256 PUSH2 0x26F3 DUP6 PUSH2 0x354B JUMP JUMPDEST DUP5 PUSH1 0x0 MSTORE DUP2 MSTORE PUSH1 0x40 PUSH1 0x0 KECCAK256 PUSH2 0x2709 DUP4 DUP3 SLOAD PUSH2 0x3959 JUMP JUMPDEST SWAP1 SSTORE PUSH1 0x40 MLOAD SWAP4 PUSH2 0x2718 DUP2 PUSH2 0x354B JUMP JUMPDEST DUP5 MSTORE DUP4 ADD MSTORE PUSH32 0xB83D25C6A5D258561330739951487ACB4BD09BA5190B5D32C4F261817D906792 PUSH1 0x40 CALLER SWAP4 LOG3 PUSH1 0x1 PUSH1 0x0 SSTORE STOP JUMPDEST PUSH1 0x64 SWAP1 PUSH1 0x40 MLOAD SWAP1 PUSH3 0x461BCD PUSH1 0xE5 SHL DUP3 MSTORE PUSH1 0x4 DUP3 ADD MSTORE PUSH1 0xC PUSH1 0x24 DUP3 ADD MSTORE PUSH12 0x2737BA1030903632B73232B9 PUSH1 0xA1 SHL PUSH1 0x44 DUP3 ADD MSTORE REVERT JUMPDEST POP POP SWAP2 SWAP1 SWAP2 PUSH2 0x26B4 JUMP JUMPDEST PUSH1 0x1 SWAP2 PUSH1 0x3 SWAP2 PUSH1 0x40 MLOAD PUSH2 0x2799 DUP2 PUSH2 0x3301 JUMP JUMPDEST DUP5 DUP1 PUSH1 0xA0 SHL SUB DUP8 SLOAD AND DUP2 MSTORE DUP5 DUP8 ADD SLOAD DUP4 DUP3 ADD MSTORE DUP6 PUSH1 0x2 DUP9 ADD SLOAD AND ISZERO ISZERO PUSH1 0x40 DUP3 ADD MSTORE DUP2 MSTORE ADD SWAP4 ADD SWAP4 ADD SWAP3 SWAP2 DUP7 SWAP1 PUSH2 0x2660 JUMP JUMPDEST PUSH1 0x64 SWAP1 PUSH1 0x40 MLOAD SWAP1 PUSH3 0x461BCD PUSH1 0xE5 SHL DUP3 MSTORE PUSH1 0x4 DUP3 ADD MSTORE PUSH1 0xD PUSH1 0x24 DUP3 ADD MSTORE PUSH13 0x105B1C9958591E481D9BDD1959 PUSH1 0x9A SHL PUSH1 0x44 DUP3 ADD MSTORE REVERT JUMPDEST PUSH1 0x64 SWAP1 PUSH1 0x40 MLOAD SWAP1 PUSH3 0x461BCD PUSH1 0xE5 SHL DUP3 MSTORE PUSH1 0x4 DUP3 ADD MSTORE PUSH1 0x13 PUSH1 0x24 DUP3 ADD MSTORE PUSH19 0x159BDD1A5B99C81C195C9A5BD908195B991959 PUSH1 0x6A SHL PUSH1 0x44 DUP3 ADD MSTORE REVERT JUMPDEST CALLVALUE PUSH2 0x2B6 JUMPI PUSH2 0x2846 CALLDATASIZE PUSH2 0x32CF JUMP JUMPDEST SWAP1 PUSH1 0x0 MSTORE PUSH1 0x9 PUSH1 0x20 MSTORE PUSH1 0x40 PUSH1 0x0 KECCAK256 DUP1 SLOAD DUP3 LT ISZERO PUSH2 0x2B6 JUMPI PUSH1 0x60 SWAP2 PUSH2 0x2869 SWAP2 PUSH2 0x33A2 JUMP JUMPDEST POP PUSH1 0x1 DUP1 PUSH1 0xA0 SHL SUB DUP2 SLOAD AND SWAP1 PUSH1 0xFF PUSH1 0x2 PUSH1 0x1 DUP4 ADD SLOAD SWAP3 ADD SLOAD AND SWAP1 PUSH1 0x40 MLOAD SWAP3 DUP4 MSTORE PUSH1 0x20 DUP4 ADD MSTORE ISZERO ISZERO PUSH1 0x40 DUP3 ADD MSTORE RETURN JUMPDEST CALLVALUE PUSH2 0x2B6 JUMPI PUSH1 0x0 CALLDATASIZE PUSH1 0x3 NOT ADD SLT PUSH2 0x2B6 JUMPI PUSH1 0x20 PUSH1 0x40 MLOAD PUSH2 0xBB8 DUP2 MSTORE RETURN JUMPDEST PUSH2 0x120 CALLDATASIZE PUSH1 0x3 NOT ADD SLT PUSH2 0x2B6 JUMPI PUSH2 0x104 CALLDATALOAD PUSH8 0xFFFFFFFFFFFFFFFF DUP2 GT PUSH2 0x2B6 JUMPI PUSH2 0x28E2 SWAP1 CALLDATASIZE SWAP1 PUSH1 0x4 ADD PUSH2 0x335B JUMP JUMPDEST PUSH2 0x28EA PUSH2 0x3A6D JUMP JUMPDEST PUSH2 0x28F2 PUSH2 0x3A4C JUMP JUMPDEST PUSH1 0x44 CALLDATALOAD ISZERO PUSH2 0x3211 JUMPI PUSH2 0xBB8 PUSH1 0x64 CALLDATALOAD GT PUSH2 0x31D3 JUMPI PUSH1 0x3C PUSH1 0x84 CALLDATALOAD LT ISZERO DUP1 PUSH2 0x31C3 JUMPI JUMPDEST ISZERO PUSH2 0x318B JUMPI PUSH1 0x4 CALLDATALOAD PUSH1 0x0 MSTORE PUSH1 0x8 PUSH1 0x20 MSTORE PUSH2 0x2939 PUSH1 0xFF PUSH1 0x2 PUSH1 0x40 PUSH1 0x0 KECCAK256 ADD SLOAD PUSH1 0x8 SHR AND PUSH2 0x3612 JUMP JUMPDEST PUSH1 0x24 CALLDATALOAD PUSH1 0x0 MSTORE PUSH1 0x8 PUSH1 0x20 MSTORE PUSH1 0xFF PUSH1 0x2 PUSH1 0x40 PUSH1 0x0 KECCAK256 ADD SLOAD PUSH1 0x8 SHR AND ISZERO PUSH2 0x3146 JUMPI DUP1 MLOAD ISZERO PUSH2 0x310C JUMPI PUSH1 0xA4 CALLDATALOAD ISZERO ISZERO DUP1 PUSH2 0x30FB JUMPI JUMPDEST ISZERO PUSH2 0x30B6 JUMPI PUSH1 0x3C PUSH1 0xC4 CALLDATALOAD LT ISZERO DUP1 PUSH2 0x30A7 JUMPI JUMPDEST ISZERO PUSH2 0x3069 JUMPI PUSH2 0x1F4 PUSH1 0xE4 CALLDATALOAD GT PUSH2 0x3031 JUMPI CALLER PUSH1 0x0 MSTORE PUSH1 0xD PUSH1 0x20 MSTORE PUSH1 0x40 PUSH1 0x0 KECCAK256 PUSH2 0x12C DUP2 SLOAD LT SWAP1 DUP2 ISZERO SWAP2 PUSH2 0x3024 JUMPI JUMPDEST POP ISZERO PUSH2 0x2FE8 JUMPI PUSH2 0x29BD PUSH1 0x44 CALLDATALOAD PUSH1 0x4 CALLDATALOAD PUSH2 0x38B9 JUMP JUMPDEST DUP1 PUSH1 0x96 DUP2 MUL DIV PUSH1 0x96 EQ DUP2 ISZERO OR ISZERO PUSH2 0xC2C JUMPI PUSH2 0x2A79 SWAP1 PUSH2 0x2A74 PUSH2 0x29E0 PUSH1 0x24 CALLDATALOAD PUSH2 0x3678 JUMP JUMPDEST POP SWAP2 PUSH1 0x24 CALLDATALOAD PUSH1 0x0 MSTORE PUSH1 0x8 PUSH1 0x20 MSTORE PUSH1 0x64 PUSH1 0x96 PUSH2 0x2A6C PUSH1 0x40 PUSH1 0x0 KECCAK256 PUSH1 0x2 PUSH1 0x40 MLOAD SWAP2 PUSH2 0x2A08 DUP4 PUSH2 0x32E5 JUMP JUMPDEST DUP1 SLOAD PUSH1 0xFF DUP2 AND PUSH2 0x2A17 DUP2 PUSH2 0x354B JUMP JUMPDEST DUP5 MSTORE PUSH1 0x8 SHR PUSH1 0x1 PUSH1 0x1 PUSH1 0xA0 SHL SUB AND PUSH1 0x20 DUP5 ADD MSTORE PUSH2 0x2A36 PUSH1 0x1 DUP3 ADD PUSH2 0x34A5 JUMP JUMPDEST PUSH1 0x40 DUP5 ADD MSTORE ADD SLOAD SWAP1 PUSH1 0xA0 PUSH1 0xFF DUP4 AND SWAP3 DUP4 PUSH1 0x60 DUP5 ADD MSTORE PUSH1 0xFF DUP2 PUSH1 0x8 SHR AND ISZERO ISZERO PUSH1 0x80 DUP5 ADD MSTORE PUSH1 0x1 DUP1 DUP4 SHL SUB SWAP1 PUSH1 0x10 SHR AND SWAP2 ADD MSTORE PUSH2 0x3888 JUMP JUMPDEST SWAP3 MUL DIV PUSH2 0x3875 JUMP JUMPDEST PUSH2 0x3899 JUMP JUMPDEST SWAP1 PUSH1 0x24 CALLDATALOAD PUSH1 0x0 MSTORE PUSH1 0x8 PUSH1 0x20 MSTORE PUSH1 0xFF PUSH1 0x40 PUSH1 0x0 KECCAK256 SLOAD AND PUSH2 0x2A97 DUP2 PUSH2 0x354B JUMP JUMPDEST PUSH2 0x2EAB JUMPI DUP2 CALLVALUE LT PUSH2 0x2E66 JUMPI JUMPDEST PUSH1 0x2 SLOAD PUSH2 0x2AAF DUP2 PUSH2 0x35C1 JUMP JUMPDEST PUSH1 0x2 SSTORE PUSH2 0x2ABE PUSH1 0xC4 CALLDATALOAD TIMESTAMP PUSH2 0x3959 JUMP JUMPDEST SWAP3 PUSH1 0x24 CALLDATALOAD PUSH1 0x0 MSTORE PUSH1 0x8 PUSH1 0x20 MSTORE PUSH1 0xFF PUSH1 0x40 PUSH1 0x0 KECCAK256 SLOAD AND PUSH2 0x2ADC DUP2 PUSH2 0x354B JUMP JUMPDEST PUSH2 0x2E61 JUMPI POP CALLVALUE JUMPDEST PUSH1 0x40 MLOAD SWAP1 DUP2 PUSH2 0x280 DUP2 ADD LT PUSH8 0xFFFFFFFFFFFFFFFF PUSH2 0x280 DUP5 ADD GT OR PUSH2 0xC58 JUMPI PUSH2 0x280 DUP3 ADD PUSH1 0x40 MSTORE DUP3 DUP3 MSTORE CALLER PUSH1 0x20 DUP4 ADD MSTORE PUSH1 0x4 CALLDATALOAD PUSH1 0x40 DUP4 ADD MSTORE PUSH1 0x24 CALLDATALOAD PUSH1 0x60 DUP4 ADD MSTORE PUSH1 0x44 CALLDATALOAD PUSH1 0x80 DUP4 ADD MSTORE PUSH1 0x0 PUSH1 0xA0 DUP4 ADD MSTORE PUSH1 0xC0 DUP3 ADD MSTORE PUSH1 0x64 CALLDATALOAD PUSH1 0xE0 DUP3 ADD MSTORE PUSH1 0x84 CALLDATALOAD PUSH2 0x100 DUP3 ADD MSTORE PUSH1 0xA4 CALLDATALOAD PUSH2 0x120 DUP3 ADD MSTORE DUP4 PUSH2 0x140 DUP3 ADD MSTORE TIMESTAMP PUSH2 0x160 DUP3 ADD MSTORE PUSH1 0x0 PUSH2 0x180 DUP3 ADD MSTORE PUSH1 0x0 PUSH2 0x1A0 DUP3 ADD MSTORE PUSH1 0x0 PUSH2 0x1C0 DUP3 ADD MSTORE DUP3 PUSH2 0x1E0 DUP3 ADD MSTORE PUSH1 0x0 PUSH2 0x200 DUP3 ADD MSTORE PUSH1 0x78 PUSH2 0x220 DUP3 ADD MSTORE PUSH1 0x0 PUSH2 0x240 DUP3 ADD MSTORE PUSH1 0xE4 CALLDATALOAD PUSH2 0x260 DUP3 ADD MSTORE DUP2 PUSH1 0x0 MSTORE PUSH1 0x7 PUSH1 0x20 MSTORE PUSH1 0x40 PUSH1 0x0 KECCAK256 SWAP1 DUP1 MLOAD DUP3 SSTORE PUSH1 0x1 DUP3 ADD PUSH1 0x1 DUP1 PUSH1 0xA0 SHL SUB PUSH1 0x20 DUP4 ADD MLOAD AND PUSH1 0x1 PUSH1 0x1 PUSH1 0x60 SHL SUB PUSH1 0xA0 SHL DUP3 SLOAD AND OR SWAP1 SSTORE PUSH1 0x40 DUP2 ADD MLOAD PUSH1 0x2 DUP4 ADD SSTORE PUSH1 0x60 DUP2 ADD MLOAD PUSH1 0x3 DUP4 ADD SSTORE PUSH1 0x80 DUP2 ADD MLOAD PUSH1 0x4 DUP4 ADD SSTORE PUSH1 0xA0 DUP2 ADD MLOAD PUSH1 0x5 DUP4 ADD SSTORE PUSH1 0xC0 DUP2 ADD MLOAD PUSH1 0x6 DUP4 ADD SSTORE PUSH1 0xE0 DUP2 ADD MLOAD PUSH1 0x7 DUP4 ADD SSTORE PUSH2 0x100 DUP2 ADD MLOAD PUSH1 0x8 DUP4 ADD SSTORE PUSH2 0x120 DUP2 ADD MLOAD PUSH1 0x9 DUP4 ADD SSTORE PUSH2 0x140 DUP2 ADD MLOAD PUSH1 0xA DUP4 ADD SSTORE PUSH2 0x160 DUP2 ADD MLOAD PUSH1 0xB DUP4 ADD SSTORE PUSH2 0x180 DUP2 ADD MLOAD PUSH1 0xC DUP4 ADD SSTORE PUSH2 0x1A0 DUP2 ADD MLOAD PUSH1 0xD DUP4 ADD SSTORE PUSH1 0xE DUP3 ADD PUSH2 0x1C0 DUP3 ADD MLOAD PUSH1 0x7 DUP2 LT ISZERO PUSH2 0x5AB JUMPI PUSH1 0xFF DUP1 NOT DUP4 SLOAD AND SWAP2 AND OR SWAP1 SSTORE PUSH2 0x1E0 DUP2 ADD MLOAD DUP1 MLOAD SWAP1 PUSH8 0xFFFFFFFFFFFFFFFF DUP3 GT PUSH2 0xC58 JUMPI PUSH2 0x2C96 PUSH1 0xF DUP6 ADD SLOAD PUSH2 0x346B JUMP JUMPDEST PUSH1 0x1F DUP2 GT PUSH2 0x2E1A JUMPI JUMPDEST POP PUSH1 0x20 SWAP1 PUSH1 0x1F DUP4 GT PUSH1 0x1 EQ PUSH2 0x2DA4 JUMPI SWAP2 DUP1 PUSH1 0x13 SWAP5 SWAP3 PUSH2 0x260 SWAP5 PUSH1 0x0 SWAP3 PUSH2 0x2D99 JUMPI JUMPDEST POP POP DUP2 PUSH1 0x1 SHL SWAP2 PUSH1 0x0 NOT SWAP1 PUSH1 0x3 SHL SHR NOT AND OR PUSH1 0xF DUP6 ADD SSTORE JUMPDEST PUSH2 0x200 DUP2 ADD MLOAD PUSH1 0x10 DUP6 ADD SSTORE PUSH2 0x220 DUP2 ADD MLOAD PUSH1 0x11 DUP6 ADD SSTORE PUSH2 0x240 DUP2 ADD MLOAD PUSH1 0x12 DUP6 ADD SSTORE ADD MLOAD SWAP2 ADD SSTORE CALLER PUSH1 0x0 MSTORE PUSH1 0xB PUSH1 0x20 MSTORE PUSH2 0x2D15 DUP2 PUSH1 0x40 PUSH1 0x0 KECCAK256 PUSH2 0x3966 JUMP JUMPDEST DUP1 PUSH1 0x0 MSTORE PUSH1 0x7 PUSH1 0x20 MSTORE PUSH1 0x6 PUSH1 0x40 PUSH1 0x0 KECCAK256 ADD SLOAD SWAP3 PUSH1 0x40 MLOAD SWAP4 PUSH1 0x44 CALLDATALOAD DUP6 MSTORE PUSH1 0x20 DUP6 ADD MSTORE PUSH1 0x64 CALLDATALOAD PUSH1 0x40 DUP6 ADD MSTORE PUSH1 0x84 CALLDATALOAD PUSH1 0x60 DUP6 ADD MSTORE PUSH1 0xA4 CALLDATALOAD PUSH1 0x80 DUP6 ADD MSTORE PUSH1 0xA0 DUP5 ADD MSTORE PUSH1 0xE0 PUSH1 0xC0 DUP5 ADD MSTORE PUSH32 0x1455473C3ACC495FCC473211502FCF9EFE62F6C3A6B091A395E25C5C5D30AB54 PUSH1 0x4 CALLDATALOAD SWAP4 DUP1 PUSH2 0x2D8F CALLER SWAP6 PUSH1 0xE0 DUP4 ADD SWAP1 PUSH2 0x3555 JUMP JUMPDEST SUB SWAP1 LOG4 PUSH1 0x1 PUSH1 0x0 SSTORE STOP JUMPDEST ADD MLOAD SWAP1 POP DUP10 DUP1 PUSH2 0x2CC0 JUMP JUMPDEST SWAP1 PUSH1 0xF DUP6 ADD PUSH1 0x0 MSTORE PUSH1 0x20 PUSH1 0x0 KECCAK256 SWAP2 PUSH1 0x0 JUMPDEST PUSH1 0x1F NOT DUP6 AND DUP2 LT PUSH2 0x2E02 JUMPI POP SWAP3 PUSH1 0x13 SWAP5 SWAP3 PUSH1 0x1 SWAP3 PUSH2 0x260 SWAP6 DUP4 PUSH1 0x1F NOT DUP2 AND LT PUSH2 0x2DE9 JUMPI JUMPDEST POP POP POP DUP2 SHL ADD PUSH1 0xF DUP6 ADD SSTORE PUSH2 0x2CD8 JUMP JUMPDEST ADD MLOAD PUSH1 0x0 NOT PUSH1 0xF8 DUP5 PUSH1 0x3 SHL AND SHR NOT AND SWAP1 SSTORE DUP10 DUP1 DUP1 PUSH2 0x2DD9 JUMP JUMPDEST SWAP2 SWAP3 PUSH1 0x20 PUSH1 0x1 DUP2 SWAP3 DUP7 DUP6 ADD MLOAD DUP2 SSTORE ADD SWAP5 ADD SWAP3 ADD PUSH2 0x2DB5 JUMP JUMPDEST PUSH1 0xF DUP6 ADD PUSH1 0x0 MSTORE PUSH1 0x20 PUSH1 0x0 KECCAK256 PUSH1 0x1F DUP5 ADD PUSH1 0x5 SHR DUP2 ADD PUSH1 0x20 DUP6 LT PUSH2 0x2E5A JUMPI JUMPDEST PUSH1 0x1F DUP4 ADD PUSH1 0x5 SHR DUP3 ADD DUP2 LT PUSH2 0x2E4E JUMPI POP POP PUSH2 0x2C9F JUMP JUMPDEST PUSH1 0x0 DUP2 SSTORE PUSH1 0x1 ADD PUSH2 0x2E38 JUMP JUMPDEST POP DUP1 PUSH2 0x2E38 JUMP JUMPDEST PUSH2 0x2AE3 JUMP JUMPDEST PUSH1 0x40 MLOAD PUSH3 0x461BCD PUSH1 0xE5 SHL DUP2 MSTORE PUSH1 0x20 PUSH1 0x4 DUP3 ADD MSTORE PUSH1 0x1B PUSH1 0x24 DUP3 ADD MSTORE PUSH32 0x496E73756666696369656E742045544820636F6C6C61746572616C0000000000 PUSH1 0x44 DUP3 ADD MSTORE PUSH1 0x64 SWAP1 REVERT JUMPDEST CALLVALUE PUSH2 0x2F97 JUMPI PUSH1 0x24 CALLDATALOAD PUSH1 0x0 MSTORE PUSH1 0x8 PUSH1 0x20 MSTORE PUSH1 0x1 DUP1 PUSH1 0xA0 SHL SUB PUSH1 0x40 PUSH1 0x0 KECCAK256 SLOAD PUSH1 0x8 SHR AND PUSH1 0x40 MLOAD PUSH4 0x70A08231 PUSH1 0xE0 SHL DUP2 MSTORE CALLER PUSH1 0x4 DUP3 ADD MSTORE PUSH1 0x20 DUP2 PUSH1 0x24 DUP2 DUP6 GAS STATICCALL DUP1 ISZERO PUSH2 0x2F8B JUMPI DUP5 SWAP2 PUSH1 0x0 SWAP2 PUSH2 0x2F56 JUMPI JUMPDEST POP LT PUSH2 0x2F11 JUMPI DUP3 PUSH2 0x2F0C SWAP2 ADDRESS SWAP1 CALLER SWAP1 PUSH2 0x399B JUMP JUMPDEST PUSH2 0x2AA3 JUMP JUMPDEST PUSH1 0x40 MLOAD PUSH3 0x461BCD PUSH1 0xE5 SHL DUP2 MSTORE PUSH1 0x20 PUSH1 0x4 DUP3 ADD MSTORE PUSH1 0x1A PUSH1 0x24 DUP3 ADD MSTORE PUSH32 0x496E73756666696369656E742045524332302062616C616E6365000000000000 PUSH1 0x44 DUP3 ADD MSTORE PUSH1 0x64 SWAP1 REVERT JUMPDEST SWAP2 POP POP PUSH1 0x20 DUP2 RETURNDATASIZE PUSH1 0x20 GT PUSH2 0x2F83 JUMPI JUMPDEST DUP2 PUSH2 0x2F72 PUSH1 0x20 SWAP4 DUP4 PUSH2 0x331D JUMP JUMPDEST DUP2 ADD SUB SLT PUSH2 0x2B6 JUMPI DUP4 SWAP1 MLOAD DUP6 PUSH2 0x2EF8 JUMP JUMPDEST RETURNDATASIZE SWAP2 POP PUSH2 0x2F65 JUMP JUMPDEST PUSH1 0x40 MLOAD RETURNDATASIZE PUSH1 0x0 DUP3 RETURNDATACOPY RETURNDATASIZE SWAP1 REVERT JUMPDEST PUSH1 0x40 MLOAD PUSH3 0x461BCD PUSH1 0xE5 SHL DUP2 MSTORE PUSH1 0x20 PUSH1 0x4 DUP3 ADD MSTORE PUSH1 0x23 PUSH1 0x24 DUP3 ADD MSTORE PUSH32 0x455448206E6F74206E656564656420666F7220455243323020636F6C6C617465 PUSH1 0x44 DUP3 ADD MSTORE PUSH3 0x1C985B PUSH1 0xEA SHL PUSH1 0x64 DUP3 ADD MSTORE PUSH1 0x84 SWAP1 REVERT JUMPDEST PUSH1 0x40 MLOAD PUSH3 0x461BCD PUSH1 0xE5 SHL DUP2 MSTORE PUSH1 0x20 PUSH1 0x4 DUP3 ADD MSTORE PUSH1 0x14 PUSH1 0x24 DUP3 ADD MSTORE PUSH20 0x4372656469742073636F726520746F6F206C6F77 PUSH1 0x60 SHL PUSH1 0x44 DUP3 ADD MSTORE PUSH1 0x64 SWAP1 REVERT JUMPDEST PUSH1 0x1 SWAP2 POP ADD SLOAD ISZERO DUP3 PUSH2 0x29A9 JUMP JUMPDEST PUSH1 0x40 MLOAD PUSH3 0x461BCD PUSH1 0xE5 SHL DUP2 MSTORE PUSH1 0x20 PUSH1 0x4 DUP3 ADD MSTORE PUSH1 0x10 PUSH1 0x24 DUP3 ADD MSTORE PUSH16 0xA0CADCC2D8E8F240E8DEDE40D0D2CED PUSH1 0x83 SHL PUSH1 0x44 DUP3 ADD MSTORE PUSH1 0x64 SWAP1 REVERT JUMPDEST PUSH1 0x40 MLOAD PUSH3 0x461BCD PUSH1 0xE5 SHL DUP2 MSTORE PUSH1 0x20 PUSH1 0x4 DUP3 ADD MSTORE PUSH1 0x16 PUSH1 0x24 DUP3 ADD MSTORE PUSH22 0x125B9D985B1A5908199D5B991A5B99C81C195C9A5BD9 PUSH1 0x52 SHL PUSH1 0x44 DUP3 ADD MSTORE PUSH1 0x64 SWAP1 REVERT JUMPDEST POP PUSH3 0x278D00 PUSH1 0xC4 CALLDATALOAD GT ISZERO PUSH2 0x297C JUMP JUMPDEST PUSH1 0x40 MLOAD PUSH3 0x461BCD PUSH1 0xE5 SHL DUP2 MSTORE PUSH1 0x20 PUSH1 0x4 DUP3 ADD MSTORE PUSH1 0x18 PUSH1 0x24 DUP3 ADD MSTORE PUSH32 0x496E76616C6964206D696E20636F6E747269627574696F6E0000000000000000 PUSH1 0x44 DUP3 ADD MSTORE PUSH1 0x64 SWAP1 REVERT JUMPDEST POP PUSH1 0x44 CALLDATALOAD PUSH1 0x1 SHR PUSH1 0xA4 CALLDATALOAD GT ISZERO PUSH2 0x296A JUMP JUMPDEST PUSH1 0x40 MLOAD PUSH3 0x461BCD PUSH1 0xE5 SHL DUP2 MSTORE PUSH1 0x20 PUSH1 0x4 DUP3 ADD MSTORE PUSH1 0x12 PUSH1 0x24 DUP3 ADD MSTORE PUSH18 0x12541194C81A185CDA081C995C5D5A5C9959 PUSH1 0x72 SHL PUSH1 0x44 DUP3 ADD MSTORE PUSH1 0x64 SWAP1 REVERT JUMPDEST PUSH1 0x40 MLOAD PUSH3 0x461BCD PUSH1 0xE5 SHL DUP2 MSTORE PUSH1 0x20 PUSH1 0x4 DUP3 ADD MSTORE PUSH1 0x1E PUSH1 0x24 DUP3 ADD MSTORE PUSH32 0x436F6C6C61746572616C20746F6B656E206E6F7420737570706F727465640000 PUSH1 0x44 DUP3 ADD MSTORE PUSH1 0x64 SWAP1 REVERT JUMPDEST PUSH1 0x40 MLOAD PUSH3 0x461BCD PUSH1 0xE5 SHL DUP2 MSTORE PUSH1 0x20 PUSH1 0x4 DUP3 ADD MSTORE PUSH1 0x10 PUSH1 0x24 DUP3 ADD MSTORE PUSH16 0x24B73B30B634B210323AB930BA34B7B7 PUSH1 0x81 SHL PUSH1 0x44 DUP3 ADD MSTORE PUSH1 0x64 SWAP1 REVERT JUMPDEST POP PUSH4 0x1E13380 PUSH1 0x84 CALLDATALOAD GT ISZERO PUSH2 0x2912 JUMP JUMPDEST PUSH1 0x40 MLOAD PUSH3 0x461BCD PUSH1 0xE5 SHL DUP2 MSTORE PUSH1 0x20 PUSH1 0x4 DUP3 ADD MSTORE PUSH1 0x16 PUSH1 0x24 DUP3 ADD MSTORE PUSH22 0x92DCE8CAE4CAE6E840E4C2E8CA40E8DEDE40D0D2CED PUSH1 0x53 SHL PUSH1 0x44 DUP3 ADD MSTORE PUSH1 0x64 SWAP1 REVERT JUMPDEST PUSH1 0x40 MLOAD PUSH3 0x461BCD PUSH1 0xE5 SHL DUP2 MSTORE PUSH1 0x20 PUSH1 0x4 DUP3 ADD MSTORE PUSH1 0x1D PUSH1 0x24 DUP3 ADD MSTORE PUSH32 0x416D6F756E74206D7573742062652067726561746572207468616E2030000000 PUSH1 0x44 DUP3 ADD MSTORE PUSH1 0x64 SWAP1 REVERT JUMPDEST CALLVALUE PUSH2 0x2B6 JUMPI PUSH1 0x20 PUSH2 0x326F PUSH2 0x3269 CALLDATASIZE PUSH2 0x32CF JUMP JUMPDEST SWAP1 PUSH2 0x38B9 JUMP JUMPDEST PUSH1 0x40 MLOAD SWAP1 DUP2 MSTORE RETURN JUMPDEST CALLVALUE PUSH2 0x2B6 JUMPI PUSH1 0x0 CALLDATASIZE PUSH1 0x3 NOT ADD SLT PUSH2 0x2B6 JUMPI PUSH1 0x20 PUSH1 0x40 MLOAD PUSH4 0x1E13380 DUP2 MSTORE RETURN JUMPDEST CALLVALUE PUSH2 0x2B6 JUMPI PUSH1 0x0 CALLDATASIZE PUSH1 0x3 NOT ADD SLT PUSH2 0x2B6 JUMPI PUSH1 0x20 PUSH1 0x40 MLOAD PUSH2 0x12C DUP2 MSTORE RETURN JUMPDEST CALLVALUE PUSH2 0x2B6 JUMPI PUSH1 0x0 CALLDATASIZE PUSH1 0x3 NOT ADD SLT PUSH2 0x2B6 JUMPI PUSH1 0x20 PUSH1 0x40 MLOAD PUSH1 0x3C DUP2 MSTORE RETURN JUMPDEST PUSH1 0x40 SWAP1 PUSH1 0x3 NOT ADD SLT PUSH2 0x2B6 JUMPI PUSH1 0x4 CALLDATALOAD SWAP1 PUSH1 0x24 CALLDATALOAD SWAP1 JUMP JUMPDEST PUSH1 0xC0 DUP2 ADD SWAP1 DUP2 LT PUSH8 0xFFFFFFFFFFFFFFFF DUP3 GT OR PUSH2 0xC58 JUMPI PUSH1 0x40 MSTORE JUMP JUMPDEST PUSH1 0x60 DUP2 ADD SWAP1 DUP2 LT PUSH8 0xFFFFFFFFFFFFFFFF DUP3 GT OR PUSH2 0xC58 JUMPI PUSH1 0x40 MSTORE JUMP JUMPDEST SWAP1 PUSH1 0x1F DUP1 NOT SWAP2 ADD AND DUP2 ADD SWAP1 DUP2 LT PUSH8 0xFFFFFFFFFFFFFFFF DUP3 GT OR PUSH2 0xC58 JUMPI PUSH1 0x40 MSTORE JUMP JUMPDEST PUSH8 0xFFFFFFFFFFFFFFFF DUP2 GT PUSH2 0xC58 JUMPI PUSH1 0x1F ADD PUSH1 0x1F NOT AND PUSH1 0x20 ADD SWAP1 JUMP JUMPDEST DUP2 PUSH1 0x1F DUP3 ADD SLT ISZERO PUSH2 0x2B6 JUMPI DUP1 CALLDATALOAD SWAP1 PUSH2 0x3372 DUP3 PUSH2 0x333F JUMP JUMPDEST SWAP3 PUSH2 0x3380 PUSH1 0x40 MLOAD SWAP5 DUP6 PUSH2 0x331D JUMP JUMPDEST DUP3 DUP5 MSTORE PUSH1 0x20 DUP4 DUP4 ADD ADD GT PUSH2 0x2B6 JUMPI DUP2 PUSH1 0x0 SWAP3 PUSH1 0x20 DUP1 SWAP4 ADD DUP4 DUP7 ADD CALLDATACOPY DUP4 ADD ADD MSTORE SWAP1 JUMP JUMPDEST DUP1 SLOAD DUP3 LT ISZERO PUSH2 0x33BE JUMPI PUSH1 0x0 MSTORE PUSH1 0x3 PUSH1 0x20 PUSH1 0x0 KECCAK256 SWAP2 MUL ADD SWAP1 PUSH1 0x0 SWAP1 JUMP JUMPDEST PUSH4 0x4E487B71 PUSH1 0xE0 SHL PUSH1 0x0 MSTORE PUSH1 0x32 PUSH1 0x4 MSTORE PUSH1 0x24 PUSH1 0x0 REVERT JUMPDEST PUSH1 0x40 SWAP1 PUSH1 0x3 NOT ADD SLT PUSH2 0x2B6 JUMPI PUSH1 0x4 CALLDATALOAD SWAP1 PUSH1 0x24 CALLDATALOAD PUSH1 0x2 DUP2 LT ISZERO PUSH2 0x2B6 JUMPI SWAP1 JUMP JUMPDEST PUSH1 0x4 CALLDATALOAD SWAP1 PUSH1 0x1 PUSH1 0x1 PUSH1 0xA0 SHL SUB DUP3 AND DUP3 SUB PUSH2 0x2B6 JUMPI JUMP JUMPDEST PUSH1 0x24 CALLDATALOAD SWAP1 PUSH1 0x1 PUSH1 0x1 PUSH1 0xA0 SHL SUB DUP3 AND DUP3 SUB PUSH2 0x2B6 JUMPI JUMP JUMPDEST DUP1 SLOAD DUP3 LT ISZERO PUSH2 0x33BE JUMPI PUSH1 0x0 MSTORE PUSH1 0x20 PUSH1 0x0 KECCAK256 ADD SWAP1 PUSH1 0x0 SWAP1 JUMP JUMPDEST SWAP1 DUP2 MLOAD DUP1 DUP3 MSTORE PUSH1 0x20 DUP1 DUP1 SWAP4 ADD SWAP4 ADD SWAP2 PUSH1 0x0 JUMPDEST DUP3 DUP2 LT PUSH2 0x3457 JUMPI POP POP POP POP SWAP1 JUMP JUMPDEST DUP4 MLOAD DUP6 MSTORE SWAP4 DUP2 ADD SWAP4 SWAP3 DUP2 ADD SWAP3 PUSH1 0x1 ADD PUSH2 0x3449 JUMP JUMPDEST SWAP1 PUSH1 0x1 DUP3 DUP2 SHR SWAP3 AND DUP1 ISZERO PUSH2 0x349B JUMPI JUMPDEST PUSH1 0x20 DUP4 LT EQ PUSH2 0x3485 JUMPI JUMP JUMPDEST PUSH4 0x4E487B71 PUSH1 0xE0 SHL PUSH1 0x0 MSTORE PUSH1 0x22 PUSH1 0x4 MSTORE PUSH1 0x24 PUSH1 0x0 REVERT JUMPDEST SWAP2 PUSH1 0x7F AND SWAP2 PUSH2 0x347A JUMP JUMPDEST SWAP1 PUSH1 0x40 MLOAD SWAP2 DUP3 PUSH1 0x0 DUP3 SLOAD SWAP3 PUSH2 0x34B9 DUP5 PUSH2 0x346B JUMP JUMPDEST SWAP1 DUP2 DUP5 MSTORE PUSH1 0x1 SWAP5 DUP6 DUP2 AND SWAP1 DUP2 PUSH1 0x0 EQ PUSH2 0x3528 JUMPI POP PUSH1 0x1 EQ PUSH2 0x34E5 JUMPI JUMPDEST POP POP PUSH2 0x34E3 SWAP3 POP SUB DUP4 PUSH2 0x331D JUMP JUMPDEST JUMP JUMPDEST SWAP1 SWAP4 SWAP2 POP PUSH1 0x0 MSTORE PUSH1 0x20 SWAP1 DUP2 PUSH1 0x0 KECCAK256 SWAP4 PUSH1 0x0 SWAP2 JUMPDEST DUP2 DUP4 LT PUSH2 0x3510 JUMPI POP POP PUSH2 0x34E3 SWAP4 POP DUP3 ADD ADD CODESIZE DUP1 PUSH2 0x34D5 JUMP JUMPDEST DUP6 SLOAD DUP9 DUP5 ADD DUP6 ADD MSTORE SWAP5 DUP6 ADD SWAP5 DUP8 SWAP5 POP SWAP2 DUP4 ADD SWAP2 PUSH2 0x34F8 JUMP JUMPDEST SWAP2 POP POP PUSH2 0x34E3 SWAP5 POP PUSH1 0x20 SWAP3 POP PUSH1 0xFF NOT AND DUP3 DUP5 ADD MSTORE ISZERO ISZERO PUSH1 0x5 SHL DUP3 ADD ADD CODESIZE DUP1 PUSH2 0x34D5 JUMP JUMPDEST PUSH1 0x2 GT ISZERO PUSH2 0x5AB JUMPI JUMP JUMPDEST SWAP2 SWAP1 DUP3 MLOAD SWAP3 DUP4 DUP3 MSTORE PUSH1 0x0 JUMPDEST DUP5 DUP2 LT PUSH2 0x3581 JUMPI POP POP DUP3 PUSH1 0x0 PUSH1 0x20 DUP1 SWAP5 SWAP6 DUP5 ADD ADD MSTORE PUSH1 0x1F DUP1 NOT SWAP2 ADD AND ADD ADD SWAP1 JUMP JUMPDEST PUSH1 0x20 DUP2 DUP4 ADD DUP2 ADD MLOAD DUP5 DUP4 ADD DUP3 ADD MSTORE ADD PUSH2 0x3560 JUMP JUMPDEST PUSH1 0x1 SLOAD PUSH1 0x1 PUSH1 0x1 PUSH1 0xA0 SHL SUB AND CALLER SUB PUSH2 0x35A9 JUMPI JUMP JUMPDEST PUSH1 0x40 MLOAD PUSH4 0x118CDAA7 PUSH1 0xE0 SHL DUP2 MSTORE CALLER PUSH1 0x4 DUP3 ADD MSTORE PUSH1 0x24 SWAP1 REVERT JUMPDEST PUSH1 0x0 NOT DUP2 EQ PUSH2 0xC2C JUMPI PUSH1 0x1 ADD SWAP1 JUMP JUMPDEST ISZERO PUSH2 0x35D7 JUMPI JUMP JUMPDEST PUSH1 0x40 MLOAD PUSH3 0x461BCD PUSH1 0xE5 SHL DUP2 MSTORE PUSH1 0x20 PUSH1 0x4 DUP3 ADD MSTORE PUSH1 0x13 PUSH1 0x24 DUP3 ADD MSTORE PUSH19 0x131BD85B88191BD95CC81B9BDD08195E1A5CDD PUSH1 0x6A SHL PUSH1 0x44 DUP3 ADD MSTORE PUSH1 0x64 SWAP1 REVERT JUMPDEST ISZERO PUSH2 0x3619 JUMPI JUMP JUMPDEST PUSH1 0x40 MLOAD PUSH3 0x461BCD PUSH1 0xE5 SHL DUP2 MSTORE PUSH1 0x20 PUSH1 0x4 DUP3 ADD MSTORE PUSH1 0x13 PUSH1 0x24 DUP3 ADD MSTORE PUSH19 0x151BDAD95B881B9BDD081CDD5C1C1BDC9D1959 PUSH1 0x6A SHL PUSH1 0x44 DUP3 ADD MSTORE PUSH1 0x64 SWAP1 REVERT JUMPDEST MLOAD SWAP1 PUSH10 0xFFFFFFFFFFFFFFFFFFFF DUP3 AND DUP3 SUB PUSH2 0x2B6 JUMPI JUMP JUMPDEST SWAP2 SWAP1 DUP3 SUB SWAP2 DUP3 GT PUSH2 0xC2C JUMPI JUMP JUMPDEST SWAP1 PUSH1 0x0 SWAP2 DUP3 MSTORE PUSH1 0x20 PUSH1 0x8 DUP2 MSTORE PUSH1 0x40 DUP1 DUP5 KECCAK256 DUP2 MLOAD PUSH2 0x3694 DUP2 PUSH2 0x32E5 JUMP JUMPDEST PUSH2 0x36F8 PUSH1 0x2 DUP4 SLOAD SWAP4 PUSH1 0xFF DUP6 AND PUSH2 0x36A9 DUP2 PUSH2 0x354B JUMP JUMPDEST DUP5 MSTORE PUSH1 0x1 DUP1 PUSH1 0xA0 SHL SUB DUP1 SWAP6 PUSH1 0x8 SHR AND DUP8 DUP6 ADD MSTORE PUSH2 0x36C8 PUSH1 0x1 DUP3 ADD PUSH2 0x34A5 JUMP JUMPDEST DUP7 DUP6 ADD MSTORE ADD SLOAD SWAP2 PUSH1 0xFF DUP4 AND PUSH1 0x60 DUP3 ADD MSTORE DUP4 PUSH1 0xA0 PUSH1 0xFF DUP6 PUSH1 0x8 SHR AND ISZERO ISZERO SWAP3 DUP4 PUSH1 0x80 DUP3 ADD MSTORE ADD SWAP4 PUSH1 0x10 SHR AND DUP4 MSTORE PUSH2 0x3612 JUMP JUMPDEST MLOAD AND DUP1 ISZERO PUSH2 0x3865 JUMPI SWAP1 PUSH1 0xA0 PUSH1 0x4 SWAP4 SWAP3 DUP3 MLOAD SWAP5 DUP6 DUP1 SWAP3 PUSH4 0x3FABE5A3 PUSH1 0xE2 SHL DUP3 MSTORE GAS STATICCALL SWAP5 DUP6 ISZERO PUSH2 0x385A JUMPI DUP1 SWAP4 DUP2 SWAP7 PUSH2 0x3802 JUMPI JUMPDEST POP DUP4 SGT ISZERO PUSH2 0x37BF JUMPI DUP5 ISZERO PUSH2 0x3787 JUMPI PUSH2 0xE10 PUSH2 0x3744 DUP7 TIMESTAMP PUSH2 0x366B JUMP JUMPDEST GT PUSH2 0x374F JUMPI POP POP SWAP2 SWAP1 JUMP JUMPDEST PUSH1 0x64 SWAP3 POP MLOAD SWAP1 PUSH3 0x461BCD PUSH1 0xE5 SHL DUP3 MSTORE PUSH1 0x4 DUP3 ADD MSTORE PUSH1 0x12 PUSH1 0x24 DUP3 ADD MSTORE PUSH18 0x141C9A58D94819185D18481D1BDBC81BDB19 PUSH1 0x72 SHL PUSH1 0x44 DUP3 ADD MSTORE REVERT JUMPDEST PUSH1 0x64 SWAP3 POP MLOAD SWAP1 PUSH3 0x461BCD PUSH1 0xE5 SHL DUP3 MSTORE PUSH1 0x4 DUP3 ADD MSTORE PUSH1 0x12 PUSH1 0x24 DUP3 ADD MSTORE PUSH18 0x526F756E64206E6F7420636F6D706C657465 PUSH1 0x70 SHL PUSH1 0x44 DUP3 ADD MSTORE REVERT JUMPDEST PUSH1 0x64 SWAP3 POP MLOAD SWAP1 PUSH3 0x461BCD PUSH1 0xE5 SHL DUP3 MSTORE PUSH1 0x4 DUP3 ADD MSTORE PUSH1 0x19 PUSH1 0x24 DUP3 ADD MSTORE PUSH32 0x496E76616C69642070726963652066726F6D206F7261636C6500000000000000 PUSH1 0x44 DUP3 ADD MSTORE REVERT JUMPDEST SWAP4 POP SWAP5 POP PUSH1 0xA0 DUP4 RETURNDATASIZE DUP3 GT PUSH2 0x3852 JUMPI JUMPDEST DUP2 PUSH2 0x381E PUSH1 0xA0 SWAP4 DUP4 PUSH2 0x331D JUMP JUMPDEST DUP2 ADD SUB SLT PUSH2 0x384E JUMPI PUSH2 0x382F DUP4 PUSH2 0x3654 JUMP JUMPDEST POP DUP2 DUP4 ADD MLOAD PUSH2 0x3845 PUSH1 0x80 PUSH1 0x60 DUP7 ADD MLOAD SWAP6 ADD PUSH2 0x3654 JUMP JUMPDEST POP SWAP3 SWAP5 CODESIZE PUSH2 0x3729 JUMP JUMPDEST DUP5 DUP1 REVERT JUMPDEST RETURNDATASIZE SWAP2 POP PUSH2 0x3811 JUMP JUMPDEST SWAP1 MLOAD SWAP1 RETURNDATASIZE SWAP1 DUP3 RETURNDATACOPY RETURNDATASIZE SWAP1 REVERT JUMPDEST POP POP POP SWAP1 POP PUSH5 0x2E90EDD000 SWAP1 TIMESTAMP SWAP1 JUMP JUMPDEST DUP2 DUP2 MUL SWAP3 SWAP2 DUP2 ISZERO SWAP2 DUP5 DIV EQ OR ISZERO PUSH2 0xC2C JUMPI JUMP JUMPDEST PUSH1 0xFF AND PUSH1 0x4D DUP2 GT PUSH2 0xC2C JUMPI PUSH1 0xA EXP SWAP1 JUMP JUMPDEST DUP2 ISZERO PUSH2 0x38A3 JUMPI DIV SWAP1 JUMP JUMPDEST PUSH4 0x4E487B71 PUSH1 0xE0 SHL PUSH1 0x0 MSTORE PUSH1 0x12 PUSH1 0x4 MSTORE PUSH1 0x24 PUSH1 0x0 REVERT JUMPDEST SWAP1 PUSH2 0x3950 PUSH1 0xFF PUSH2 0x3948 PUSH2 0x3956 SWAP5 PUSH2 0x38CF DUP2 PUSH2 0x3678 JUMP JUMPDEST POP SWAP1 PUSH1 0x0 MSTORE PUSH1 0x8 PUSH1 0x20 MSTORE PUSH1 0x40 PUSH1 0x0 KECCAK256 SWAP5 PUSH1 0x40 MLOAD PUSH2 0x38EB DUP2 PUSH2 0x32E5 JUMP JUMPDEST PUSH1 0xA0 PUSH1 0x2 DUP9 SLOAD SWAP9 DUP8 DUP11 AND PUSH2 0x38FE DUP2 PUSH2 0x354B JUMP JUMPDEST DUP5 MSTORE PUSH1 0x1 DUP1 DUP5 SHL SUB DUP1 SWAP11 PUSH1 0x8 SHR AND PUSH1 0x20 DUP6 ADD MSTORE PUSH2 0x391D PUSH1 0x1 DUP3 ADD PUSH2 0x34A5 JUMP JUMPDEST PUSH1 0x40 DUP6 ADD MSTORE ADD SLOAD SWAP8 PUSH1 0x60 DUP4 ADD SWAP9 DUP8 DUP2 AND DUP11 MSTORE DUP8 DUP2 PUSH1 0x8 SHR AND ISZERO ISZERO PUSH1 0x80 DUP6 ADD MSTORE PUSH1 0x10 SHR AND SWAP2 ADD MSTORE PUSH2 0x3875 JUMP JUMPDEST SWAP3 MLOAD AND PUSH2 0x3888 JUMP JUMPDEST SWAP1 PUSH2 0x3899 JUMP JUMPDEST SWAP1 JUMP JUMPDEST SWAP2 SWAP1 DUP3 ADD DUP1 SWAP3 GT PUSH2 0xC2C JUMPI JUMP JUMPDEST DUP1 SLOAD PUSH1 0x1 PUSH1 0x40 SHL DUP2 LT ISZERO PUSH2 0xC58 JUMPI PUSH2 0x3983 SWAP2 PUSH1 0x1 DUP3 ADD DUP2 SSTORE PUSH2 0x341F JUMP JUMPDEST DUP2 SWAP3 SWAP2 SLOAD SWAP1 PUSH1 0x3 SHL SWAP2 DUP3 SHL SWAP2 PUSH1 0x0 NOT SWAP1 SHL NOT AND OR SWAP1 SSTORE JUMP JUMPDEST PUSH1 0x40 MLOAD PUSH4 0x23B872DD PUSH1 0xE0 SHL PUSH1 0x20 DUP3 ADD MSTORE PUSH1 0x1 PUSH1 0x1 PUSH1 0xA0 SHL SUB SWAP3 DUP4 AND PUSH1 0x24 DUP3 ADD MSTORE SWAP3 SWAP1 SWAP2 AND PUSH1 0x44 DUP4 ADD MSTORE PUSH1 0x64 DUP1 DUP4 ADD SWAP4 SWAP1 SWAP4 MSTORE SWAP2 DUP2 MSTORE PUSH1 0xA0 DUP2 ADD SWAP2 DUP2 DUP4 LT PUSH8 0xFFFFFFFFFFFFFFFF DUP5 GT OR PUSH2 0xC58 JUMPI PUSH2 0x34E3 SWAP3 PUSH1 0x40 MSTORE JUMPDEST SWAP1 PUSH1 0x0 PUSH1 0x20 SWAP2 DUP3 DUP2 MLOAD SWAP2 ADD DUP3 DUP6 GAS CALL ISZERO PUSH2 0x2F8B JUMPI PUSH1 0x0 MLOAD RETURNDATASIZE PUSH2 0x3A43 JUMPI POP PUSH1 0x1 PUSH1 0x1 PUSH1 0xA0 SHL SUB DUP2 AND EXTCODESIZE ISZERO JUMPDEST PUSH2 0x3A21 JUMPI POP JUMP JUMPDEST PUSH1 0x40 MLOAD PUSH4 0x5274AFE7 PUSH1 0xE0 SHL DUP2 MSTORE PUSH1 0x1 PUSH1 0x1 PUSH1 0xA0 SHL SUB SWAP1 SWAP2 AND PUSH1 0x4 DUP3 ADD MSTORE PUSH1 0x24 SWAP1 REVERT JUMPDEST PUSH1 0x1 EQ ISZERO PUSH2 0x3A1A JUMP JUMPDEST PUSH1 0xFF PUSH1 0x1 SLOAD PUSH1 0xA0 SHR AND PUSH2 0x3A5B JUMPI JUMP JUMPDEST PUSH1 0x40 MLOAD PUSH4 0xD93C0665 PUSH1 0xE0 SHL DUP2 MSTORE PUSH1 0x4 SWAP1 REVERT JUMPDEST PUSH1 0x2 PUSH1 0x0 SLOAD EQ PUSH2 0x3A7E JUMPI PUSH1 0x2 PUSH1 0x0 SSTORE JUMP JUMPDEST PUSH1 0x40 MLOAD PUSH4 0x3EE5AEB5 PUSH1 0xE0 SHL DUP2 MSTORE PUSH1 0x4 SWAP1 REVERT JUMPDEST RETURNDATASIZE ISZERO PUSH2 0x3ABB JUMPI RETURNDATASIZE SWAP1 PUSH2 0x3AA1 DUP3 PUSH2 0x333F JUMP JUMPDEST SWAP2 PUSH2 0x3AAF PUSH1 0x40 MLOAD SWAP4 DUP5 PUSH2 0x331D JUMP JUMPDEST DUP3 MSTORE RETURNDATASIZE PUSH1 0x0 PUSH1 0x20 DUP5 ADD RETURNDATACOPY JUMP JUMPDEST PUSH1 0x60 SWAP1 JUMP JUMPDEST PUSH1 0x40 MLOAD PUSH4 0xA9059CBB PUSH1 0xE0 SHL PUSH1 0x20 DUP3 ADD MSTORE PUSH1 0x1 PUSH1 0x1 PUSH1 0xA0 SHL SUB SWAP1 SWAP3 AND PUSH1 0x24 DUP4 ADD MSTORE PUSH1 0x44 DUP1 DUP4 ADD SWAP4 SWAP1 SWAP4 MSTORE SWAP2 DUP2 MSTORE PUSH1 0x80 DUP2 ADD SWAP2 PUSH8 0xFFFFFFFFFFFFFFFF DUP4 GT DUP3 DUP5 LT OR PUSH2 0xC58 JUMPI PUSH2 0x34E3 SWAP3 PUSH1 0x40 MSTORE PUSH2 0x39F0 JUMP JUMPDEST PUSH8 0xFFFFFFFFFFFFFFFF DUP2 GT PUSH2 0xC58 JUMPI PUSH1 0x5 SHL PUSH1 0x20 ADD SWAP1 JUMP JUMPDEST DUP1 MLOAD DUP3 LT ISZERO PUSH2 0x33BE JUMPI PUSH1 0x20 SWAP2 PUSH1 0x5 SHL ADD ADD SWAP1 JUMP JUMPDEST SWAP2 SWAP1 SWAP2 PUSH1 0x0 SWAP1 DUP1 DUP3 MSTORE PUSH1 0x20 SWAP4 PUSH1 0x7 DUP6 MSTORE PUSH1 0x40 SWAP3 DUP4 DUP2 KECCAK256 SWAP2 PUSH1 0x9 DUP8 MSTORE DUP5 DUP3 KECCAK256 SWAP2 PUSH1 0x4 SWAP2 PUSH2 0x3B83 PUSH2 0x3B7A PUSH2 0x2710 PUSH2 0x3B72 DUP7 SLOAD DUP6 PUSH2 0x3875 JUMP JUMPDEST DIV DUP1 SWAP4 PUSH2 0x366B JUMP JUMPDEST SWAP2 PUSH1 0x6 SLOAD PUSH2 0x3959 JUMP JUMPDEST PUSH1 0x6 SSTORE DUP5 DUP4 ADD SWAP1 DUP3 JUMPDEST DUP6 SLOAD DUP2 LT ISZERO PUSH2 0x3D09 JUMPI PUSH2 0x3BB8 PUSH2 0x3BB0 PUSH1 0x1 PUSH2 0x3BA7 DUP5 DUP11 PUSH2 0x33A2 JUMP JUMPDEST POP ADD SLOAD DUP5 PUSH2 0x3875 JUMP JUMPDEST DUP5 SLOAD SWAP1 PUSH2 0x3899 JUMP JUMPDEST DUP1 PUSH2 0x3BCD JUMPI JUMPDEST POP PUSH2 0x3BC8 SWAP1 PUSH2 0x35C1 JUMP JUMPDEST PUSH2 0x3B8C JUMP JUMPDEST DUP10 DUP10 DUP14 DUP10 DUP9 PUSH1 0x2 DUP14 ADD SLOAD DUP1 DUP3 MSTORE PUSH1 0x8 SWAP1 DUP2 DUP6 MSTORE PUSH1 0xFF DUP8 DUP5 KECCAK256 SLOAD AND PUSH2 0x3BF0 DUP2 PUSH2 0x354B JUMP JUMPDEST PUSH2 0x3CAD JUMPI POP POP SWAP4 POP DUP4 SWAP3 POP DUP3 SWAP2 POP DUP5 PUSH2 0x3C0A DUP8 DUP5 SWAP4 PUSH2 0x33A2 JUMP JUMPDEST POP SLOAD PUSH1 0x1 PUSH1 0x1 PUSH1 0xA0 SHL SUB AND GAS CALL PUSH2 0x3C1F PUSH2 0x3A90 JUMP JUMPDEST POP ISZERO PUSH2 0x3C73 JUMPI SWAP1 DUP10 DUP10 PUSH32 0x655B9F7355449EE5D1F48DE6B9FBFAB1B98A556D98413FC02BDDBA24DAB5F773 DUP15 PUSH2 0x3BC8 SWAP6 JUMPDEST PUSH2 0x3C59 DUP7 DUP14 PUSH2 0x33A2 JUMP JUMPDEST POP SLOAD SWAP5 MLOAD SWAP1 DUP2 MSTORE PUSH1 0x1 PUSH1 0x1 PUSH1 0xA0 SHL SUB SWAP1 SWAP5 AND SWAP4 LOG3 SWAP1 PUSH2 0x3BBE JUMP JUMPDEST DUP10 MLOAD PUSH3 0x461BCD PUSH1 0xE5 SHL DUP2 MSTORE DUP1 DUP8 ADD DUP14 SWAP1 MSTORE PUSH1 0x14 PUSH1 0x24 DUP3 ADD MSTORE PUSH20 0x13195B99195C881C185E5BDD5D0819985A5B1959 PUSH1 0x62 SHL PUSH1 0x44 DUP3 ADD MSTORE PUSH1 0x64 SWAP1 REVERT JUMPDEST SWAP7 PUSH32 0x655B9F7355449EE5D1F48DE6B9FBFAB1B98A556D98413FC02BDDBA24DAB5F773 SWAP5 SWAP4 DUP8 PUSH2 0x3CFB DUP12 DUP7 PUSH2 0x3D04 SWAP7 PUSH2 0x3BC8 SWAP15 SWAP14 DUP8 SWAP10 MSTORE DUP1 DUP11 MSTORE PUSH1 0x1 DUP1 PUSH1 0xA0 SHL SUB SWAP5 DUP6 SWAP3 KECCAK256 SLOAD SWAP1 SHR AND SWAP4 PUSH2 0x33A2 JUMP JUMPDEST POP SLOAD AND SWAP1 PUSH2 0x3AC0 JUMP JUMPDEST PUSH2 0x3C4F JUMP JUMPDEST POP POP POP POP POP POP POP POP POP SWAP1 POP JUMP JUMPDEST PUSH1 0x0 SWAP1 DUP2 MSTORE PUSH1 0x7 PUSH1 0x20 MSTORE PUSH1 0x40 DUP2 KECCAK256 PUSH1 0x6 DUP2 ADD SWAP1 DUP2 SLOAD SWAP2 DUP3 PUSH2 0x3D38 JUMPI JUMPDEST POP POP POP POP JUMP JUMPDEST DUP4 SWAP1 SSTORE PUSH1 0x3 DUP2 ADD SLOAD PUSH1 0x1 SWAP1 SWAP2 ADD SLOAD DUP2 DUP5 MSTORE PUSH1 0x8 PUSH1 0x20 MSTORE PUSH1 0x40 DUP5 KECCAK256 SLOAD PUSH1 0x1 PUSH1 0x1 PUSH1 0xA0 SHL SUB SWAP2 DUP3 AND SWAP3 SWAP1 PUSH1 0xFF AND PUSH2 0x3D6C DUP2 PUSH2 0x354B JUMP JUMPDEST PUSH2 0x3DCC JUMPI POP POP DUP3 DUP1 SWAP3 DUP2 SWAP3 GAS CALL PUSH2 0x3D81 PUSH2 0x3A90 JUMP JUMPDEST POP ISZERO PUSH2 0x3D91 JUMPI JUMPDEST CODESIZE DUP1 DUP1 DUP1 PUSH2 0x3D32 JUMP JUMPDEST PUSH1 0x40 MLOAD PUSH3 0x461BCD PUSH1 0xE5 SHL DUP2 MSTORE PUSH1 0x20 PUSH1 0x4 DUP3 ADD MSTORE PUSH1 0x13 PUSH1 0x24 DUP3 ADD MSTORE PUSH19 0x115512081D1C985B9CD9995C8819985A5B1959 PUSH1 0x6A SHL PUSH1 0x44 DUP3 ADD MSTORE PUSH1 0x64 SWAP1 REVERT JUMPDEST DUP5 PUSH1 0x40 SWAP2 PUSH2 0x3DE5 SWAP7 MSTORE PUSH1 0x8 PUSH1 0x20 MSTORE KECCAK256 SLOAD PUSH1 0x8 SHR AND PUSH2 0x3AC0 JUMP JUMPDEST PUSH2 0x3D88 JUMP JUMPDEST ISZERO PUSH2 0x3DF1 JUMPI JUMP JUMPDEST PUSH1 0x40 MLOAD PUSH3 0x461BCD PUSH1 0xE5 SHL DUP2 MSTORE PUSH1 0x20 PUSH1 0x4 DUP3 ADD MSTORE PUSH1 0x13 PUSH1 0x24 DUP3 ADD MSTORE PUSH19 0x4E6F7420696E20766F74696E67207374617465 PUSH1 0x68 SHL PUSH1 0x44 DUP3 ADD MSTORE PUSH1 0x64 SWAP1 REVERT JUMPDEST PUSH1 0x0 SWAP1 DUP2 MSTORE PUSH1 0x7 PUSH1 0x20 SWAP1 DUP2 MSTORE PUSH1 0x40 DUP1 DUP4 KECCAK256 PUSH1 0x9 DUP4 MSTORE DUP2 DUP5 KECCAK256 PUSH1 0x4 SWAP5 SWAP2 SWAP1 DUP6 DUP3 ADD PUSH1 0x6 DUP4 ADD DUP5 JUMPDEST DUP4 SLOAD DUP2 LT ISZERO PUSH2 0x3F57 JUMPI PUSH2 0x3E78 PUSH2 0x3BB0 DUP4 SLOAD PUSH1 0x1 PUSH2 0x3E6F DUP6 DUP10 PUSH2 0x33A2 JUMP JUMPDEST POP ADD SLOAD SWAP1 PUSH2 0x3875 JUMP JUMPDEST SWAP1 DUP2 PUSH2 0x3E8E JUMPI JUMPDEST PUSH2 0x3E89 SWAP2 POP PUSH2 0x35C1 JUMP JUMPDEST PUSH2 0x3E52 JUMP JUMPDEST DUP7 PUSH1 0x3 DUP8 ADD SLOAD SWAP3 DUP4 DUP3 MSTORE PUSH1 0x8 DUP1 DUP13 MSTORE PUSH1 0xFF DUP12 DUP5 KECCAK256 SLOAD AND PUSH2 0x3EAD DUP2 PUSH2 0x354B JUMP JUMPDEST PUSH2 0x3F2B JUMPI POP DUP3 SWAP4 POP DUP2 DUP1 SWAP4 SWAP2 PUSH2 0x3EC4 DUP3 SWAP4 DUP11 PUSH2 0x33A2 JUMP JUMPDEST POP SLOAD PUSH1 0x1 PUSH1 0x1 PUSH1 0xA0 SHL SUB AND GAS CALL PUSH2 0x3ED9 PUSH2 0x3A90 JUMP JUMPDEST POP ISZERO PUSH2 0x3EE8 JUMPI PUSH2 0x3E89 SWAP1 PUSH2 0x3E7F JUMP JUMPDEST DUP7 MLOAD PUSH3 0x461BCD PUSH1 0xE5 SHL DUP2 MSTORE DUP1 DUP11 ADD DUP10 SWAP1 MSTORE PUSH1 0x1E PUSH1 0x24 DUP3 ADD MSTORE PUSH32 0x436F6C6C61746572616C20646973747269627574696F6E206661696C65640000 PUSH1 0x44 DUP3 ADD MSTORE PUSH1 0x64 SWAP1 REVERT JUMPDEST PUSH2 0x3E89 SWAP5 PUSH2 0x3F52 SWAP4 MSTORE DUP1 DUP13 MSTORE PUSH1 0x1 DUP1 PUSH1 0xA0 SHL SUB DUP1 SWAP2 DUP13 DUP13 KECCAK256 SLOAD SWAP1 SHR AND SWAP1 PUSH2 0x3CFB DUP6 DUP11 PUSH2 0x33A2 JUMP JUMPDEST PUSH2 0x3E7F JUMP JUMPDEST POP POP POP POP POP POP POP POP POP JUMP JUMPDEST SWAP1 PUSH2 0x3F6C DUP3 PUSH2 0x3B10 JUMP JUMPDEST PUSH2 0x3F79 PUSH1 0x40 MLOAD SWAP2 DUP3 PUSH2 0x331D JUMP JUMPDEST DUP3 DUP2 MSTORE DUP1 SWAP3 PUSH2 0x3F8A PUSH1 0x1F NOT SWAP2 PUSH2 0x3B10 JUMP JUMPDEST ADD SWAP1 PUSH1 0x20 CALLDATASIZE SWAP2 ADD CALLDATACOPY JUMP INVALID LOG2 PUSH5 0x6970667358 0x22 SLT KECCAK256 DUP6 0xD2 CREATE 0xD3 0xE6 0x4D BASEFEE LOG0 0xCB 0x2A PUSH12 0xFB05C69817FC5D4DC92CEBA9 DUP1 DUP6 0x4B 0xCF 0x25 DUP10 0xAF SELFDESTRUCT MSIZE PUSH5 0x736F6C6343 STOP ADDMOD EQ STOP CALLER "},"methodIdentifiers":{"DEFAULT_FUNDING_PERIOD()":"0a353a29","LIQUIDATION_THRESHOLD()":"90a8ae9b","MAX_INTEREST_RATE()":"34855d14","MAX_LOAN_DURATION()":"0d0b2ca6","MIN_COLLATERAL_RATIO()":"7a9fffb7","MIN_CREDIT_SCORE()":"0a49cf4d","MIN_LOAN_DURATION()":"89d99a05","PRICE_STALENESS_THRESHOLD()":"f25b9caa","VOTING_PERIOD()":"b1610d7e","addSupportedToken(address,string,uint8,address)":"5c211efc","authorizedRiskOracles(address)":"6eef1154","borrowerLoans(address,uint256)":"e3ed1902","calculateUSDValue(uint256,uint256)":"119328d6","cancelLoan(uint256)":"bdbfa3de","collectedFees()":"9003adfe","contributeLoan(uint256,uint256)":"cba89b65","creditScores(address)":"80bb7273","deactivateToken(uint256)":"ec991da9","defaultVotes(uint256,uint8)":"e25b1078","executeDefaultAction(uint256)":"caff6484","feeRecipient()":"46904840","getActiveLoanRequests()":"9772d7ee","getLatestPrice(uint256)":"b94fe917","getLoanLenders(uint256)":"77e6c4aa","hasVoted(uint256,address)":"43859632","lenderContributionIndex(uint256,address)":"8075a8f9","lenderLoans(address,uint256)":"3cdb72f1","liquidate(uint256)":"415f1240","loanContributions(uint256,uint256)":"36630cd6","loans(uint256)":"e1ec3c68","nextLoanId()":"87c51459","nextTokenId()":"75794a3c","owner()":"8da5cb5b","pause()":"8456cb59","paused()":"5c975abb","processFundingFailure(uint256)":"dafd06a3","protocolFeeRate()":"58f85880","renounceOwnership()":"715018a6","repayLoan(uint256)":"ab7b1c89","requestLoan(uint256,uint256,uint256,uint256,uint256,uint256,uint256,uint256,string)":"22e69226","setAuthorizedOracle(address,bool)":"c7a6de4d","supportedTokens(uint256)":"c6255626","transferOwnership(address)":"f2fde38b","unpause()":"3f4ba83a","updateRiskScore(uint256,uint256)":"bad128b6","voteOnDefault(uint256,uint8)":"36cf063a","votingDeadline(uint256)":"6dede8eb","withdrawFees()":"476343ee"}}}}}