{"contracts/LoanVerseV4.sol":{"LoanVerseV4":{"abi":[{"inputs":[],"stateMutability":"nonpayable","type":"constructor"},{"inputs":[],"name":"EnforcedPause","type":"error"},{"inputs":[],"name":"ExpectedPause","type":"error"},{"inputs":[{"internalType":"address","name":"owner","type":"address"}],"name":"OwnableInvalidOwner","type":"error"},{"inputs":[{"internalType":"address","name":"account","type":"address"}],"name":"OwnableUnauthorizedAccount","type":"error"},{"inputs":[],"name":"ReentrancyGuardReentrantCall","type":"error"},{"inputs":[{"internalType":"address","name":"token","type":"address"}],"name":"SafeERC20FailedOperation","type":"error"},{"anonymous":false,"inputs":[{"indexed":true,"internalType":"address","name":"borrower","type":"address"},{"indexed":false,"internalType":"uint256","name":"newScore","type":"uint256"}],"name":"CreditScoreUpdated","type":"event"},{"anonymous":false,"inputs":[{"indexed":true,"internalType":"uint256","name":"loanId","type":"uint256"},{"indexed":false,"internalType":"enum LoanVerseV4.DefaultAction","name":"action","type":"uint8"}],"name":"DefaultActionExecuted","type":"event"},{"anonymous":false,"inputs":[{"indexed":true,"internalType":"uint256","name":"loanId","type":"uint256"},{"indexed":false,"internalType":"uint256","name":"votingDeadline","type":"uint256"}],"name":"DefaultVotingStarted","type":"event"},{"anonymous":false,"inputs":[{"indexed":true,"internalType":"uint256","name":"loanId","type":"uint256"},{"indexed":true,"internalType":"address","name":"lender","type":"address"},{"indexed":false,"internalType":"uint256","name":"amount","type":"uint256"}],"name":"LenderPayout","type":"event"},{"anonymous":false,"inputs":[{"indexed":true,"internalType":"uint256","name":"loanId","type":"uint256"}],"name":"LoanCancelled","type":"event"},{"anonymous":false,"inputs":[{"indexed":true,"internalType":"uint256","name":"loanId","type":"uint256"},{"indexed":true,"internalType":"address","name":"lender","type":"address"},{"indexed":false,"internalType":"uint256","name":"amount","type":"uint256"},{"indexed":false,"internalType":"uint256","name":"totalFunded","type":"uint256"}],"name":"LoanContribution","type":"event"},{"anonymous":false,"inputs":[{"indexed":true,"internalType":"uint256","name":"loanId","type":"uint256"}],"name":"LoanDefaulted","type":"event"},{"anonymous":false,"inputs":[{"indexed":true,"internalType":"uint256","name":"loanId","type":"uint256"},{"indexed":false,"internalType":"uint256","name":"totalAmount","type":"uint256"},{"indexed":false,"internalType":"uint256","name":"lenderCount","type":"uint256"}],"name":"LoanFullyFunded","type":"event"},{"anonymous":false,"inputs":[{"indexed":true,"internalType":"uint256","name":"loanId","type":"uint256"}],"name":"LoanFullyRepaid","type":"event"},{"anonymous":false,"inputs":[{"indexed":true,"internalType":"uint256","name":"loanId","type":"uint256"},{"indexed":false,"internalType":"uint256","name":"amountFunded","type":"uint256"},{"indexed":false,"internalType":"uint256","name":"amountRequired","type":"uint256"}],"name":"LoanFundingFailed","type":"event"},{"anonymous":false,"inputs":[{"indexed":true,"internalType":"uint256","name":"loanId","type":"uint256"},{"indexed":false,"internalType":"uint256","name":"repaidAmount","type":"uint256"},{"indexed":false,"internalType":"uint256","name":"totalRepaid","type":"uint256"}],"name":"LoanRepayment","type":"event"},{"anonymous":false,"inputs":[{"indexed":true,"internalType":"uint256","name":"loanId","type":"uint256"},{"indexed":true,"internalType":"address","name":"borrower","type":"address"},{"indexed":true,"internalType":"uint256","name":"tokenId","type":"uint256"},{"indexed":false,"internalType":"uint256","name":"amount","type":"uint256"},{"indexed":false,"internalType":"uint256","name":"collateralAmount","type":"uint256"},{"indexed":false,"internalType":"uint256","name":"interestRate","type":"uint256"},{"indexed":false,"internalType":"uint256","name":"duration","type":"uint256"},{"indexed":false,"internalType":"uint256","name":"minContribution","type":"uint256"},{"indexed":false,"internalType":"uint256","name":"fundingDeadline","type":"uint256"},{"indexed":false,"internalType":"string","name":"ipfsHash","type":"string"}],"name":"LoanRequested","type":"event"},{"anonymous":false,"inputs":[{"indexed":true,"internalType":"address","name":"previousOwner","type":"address"},{"indexed":true,"internalType":"address","name":"newOwner","type":"address"}],"name":"OwnershipTransferred","type":"event"},{"anonymous":false,"inputs":[{"indexed":false,"internalType":"address","name":"account","type":"address"}],"name":"Paused","type":"event"},{"anonymous":false,"inputs":[{"indexed":true,"internalType":"uint256","name":"loanId","type":"uint256"},{"indexed":true,"internalType":"address","name":"lender","type":"address"},{"indexed":false,"internalType":"uint256","name":"amount","type":"uint256"}],"name":"RefundIssued","type":"event"},{"anonymous":false,"inputs":[{"indexed":true,"internalType":"uint256","name":"loanId","type":"uint256"},{"indexed":false,"internalType":"uint256","name":"riskScore","type":"uint256"}],"name":"RiskScoreUpdated","type":"event"},{"anonymous":false,"inputs":[{"indexed":true,"internalType":"uint256","name":"tokenId","type":"uint256"},{"indexed":true,"internalType":"address","name":"contractAddress","type":"address"},{"indexed":false,"internalType":"string","name":"symbol","type":"string"},{"indexed":false,"internalType":"address","name":"priceFeed","type":"address"}],"name":"TokenAdded","type":"event"},{"anonymous":false,"inputs":[{"indexed":true,"internalType":"uint256","name":"tokenId","type":"uint256"}],"name":"TokenDeactivated","type":"event"},{"anonymous":false,"inputs":[{"indexed":false,"internalType":"address","name":"account","type":"address"}],"name":"Unpaused","type":"event"},{"anonymous":false,"inputs":[{"indexed":true,"internalType":"uint256","name":"loanId","type":"uint256"},{"indexed":true,"internalType":"address","name":"lender","type":"address"},{"indexed":false,"internalType":"enum LoanVerseV4.DefaultAction","name":"action","type":"uint8"},{"indexed":false,"internalType":"uint256","name":"votingPower","type":"uint256"}],"name":"VoteCast","type":"event"},{"inputs":[],"name":"DEFAULT_FUNDING_PERIOD","outputs":[{"internalType":"uint256","name":"","type":"uint256"}],"stateMutability":"view","type":"function"},{"inputs":[],"name":"LIQUIDATION_THRESHOLD","outputs":[{"internalType":"uint256","name":"","type":"uint256"}],"stateMutability":"view","type":"function"},{"inputs":[],"name":"MAX_INTEREST_RATE","outputs":[{"internalType":"uint256","name":"","type":"uint256"}],"stateMutability":"view","type":"function"},{"inputs":[],"name":"MAX_LOAN_DURATION","outputs":[{"internalType":"uint256","name":"","type":"uint256"}],"stateMutability":"view","type":"function"},{"inputs":[],"name":"MIN_COLLATERAL_RATIO","outputs":[{"internalType":"uint256","name":"","type":"uint256"}],"stateMutability":"view","type":"function"},{"inputs":[],"name":"MIN_CREDIT_SCORE","outputs":[{"internalType":"uint256","name":"","type":"uint256"}],"stateMutability":"view","type":"function"},{"inputs":[],"name":"MIN_LOAN_DURATION","outputs":[{"internalType":"uint256","name":"","type":"uint256"}],"stateMutability":"view","type":"function"},{"inputs":[],"name":"PRICE_STALENESS_THRESHOLD","outputs":[{"internalType":"uint256","name":"","type":"uint256"}],"stateMutability":"view","type":"function"},{"inputs":[],"name":"VOTING_PERIOD","outputs":[{"internalType":"uint256","name":"","type":"uint256"}],"stateMutability":"view","type":"function"},{"inputs":[{"internalType":"address","name":"_contractAddress","type":"address"},{"internalType":"string","name":"_symbol","type":"string"},{"internalType":"uint8","name":"_decimals","type":"uint8"},{"internalType":"address","name":"_priceFeedAddress","type":"address"}],"name":"addSupportedToken","outputs":[],"stateMutability":"nonpayable","type":"function"},{"inputs":[{"internalType":"address","name":"","type":"address"}],"name":"authorizedRiskOracles","outputs":[{"internalType":"bool","name":"","type":"bool"}],"stateMutability":"view","type":"function"},{"inputs":[{"internalType":"address","name":"","type":"address"},{"internalType":"uint256","name":"","type":"uint256"}],"name":"borrowerLoans","outputs":[{"internalType":"uint256","name":"","type":"uint256"}],"stateMutability":"view","type":"function"},{"inputs":[{"internalType":"uint256","name":"_tokenId","type":"uint256"},{"internalType":"uint256","name":"_amount","type":"uint256"}],"name":"calculateUSDValue","outputs":[{"internalType":"uint256","name":"","type":"uint256"}],"stateMutability":"view","type":"function"},{"inputs":[{"internalType":"uint256","name":"_loanId","type":"uint256"}],"name":"cancelLoan","outputs":[],"stateMutability":"nonpayable","type":"function"},{"inputs":[],"name":"collectedFees","outputs":[{"internalType":"uint256","name":"","type":"uint256"}],"stateMutability":"view","type":"function"},{"inputs":[{"internalType":"uint256","name":"_loanId","type":"uint256"},{"internalType":"uint256","name":"_amount","type":"uint256"}],"name":"contributeLoan","outputs":[],"stateMutability":"payable","type":"function"},{"inputs":[{"internalType":"address","name":"","type":"address"}],"name":"creditScores","outputs":[{"internalType":"uint256","name":"score","type":"uint256"},{"internalType":"uint256","name":"totalLoansCount","type":"uint256"},{"internalType":"uint256","name":"repaidLoansCount","type":"uint256"},{"internalType":"uint256","name":"defaultedLoansCount","type":"uint256"},{"internalType":"uint256","name":"totalBorrowed","type":"uint256"},{"internalType":"uint256","name":"totalRepaid","type":"uint256"},{"internalType":"uint256","name":"lastUpdated","type":"uint256"}],"stateMutability":"view","type":"function"},{"inputs":[{"internalType":"uint256","name":"_tokenId","type":"uint256"}],"name":"deactivateToken","outputs":[],"stateMutability":"nonpayable","type":"function"},{"inputs":[{"internalType":"uint256","name":"","type":"uint256"},{"internalType":"enum LoanVerseV4.DefaultAction","name":"","type":"uint8"}],"name":"defaultVotes","outputs":[{"internalType":"uint256","name":"","type":"uint256"}],"stateMutability":"view","type":"function"},{"inputs":[{"internalType":"uint256","name":"_loanId","type":"uint256"}],"name":"executeDefaultAction","outputs":[],"stateMutability":"nonpayable","type":"function"},{"inputs":[],"name":"feeRecipient","outputs":[{"internalType":"address","name":"","type":"address"}],"stateMutability":"view","type":"function"},{"inputs":[],"name":"getActiveLoanRequests","outputs":[{"internalType":"uint256[]","name":"","type":"uint256[]"}],"stateMutability":"view","type":"function"},{"inputs":[{"internalType":"uint256","name":"_tokenId","type":"uint256"}],"name":"getLatestPrice","outputs":[{"internalType":"uint256","name":"","type":"uint256"},{"internalType":"uint256","name":"","type":"uint256"}],"stateMutability":"view","type":"function"},{"inputs":[{"internalType":"uint256","name":"_loanId","type":"uint256"}],"name":"getLoanLenders","outputs":[{"internalType":"address[]","name":"","type":"address[]"},{"internalType":"uint256[]","name":"","type":"uint256[]"}],"stateMutability":"view","type":"function"},{"inputs":[{"internalType":"uint256","name":"","type":"uint256"},{"internalType":"address","name":"","type":"address"}],"name":"hasVoted","outputs":[{"internalType":"bool","name":"","type":"bool"}],"stateMutability":"view","type":"function"},{"inputs":[{"internalType":"uint256","name":"","type":"uint256"},{"internalType":"address","name":"","type":"address"}],"name":"lenderContributionIndex","outputs":[{"internalType":"uint256","name":"","type":"uint256"}],"stateMutability":"view","type":"function"},{"inputs":[{"internalType":"address","name":"","type":"address"},{"internalType":"uint256","name":"","type":"uint256"}],"name":"lenderLoans","outputs":[{"internalType":"uint256","name":"","type":"uint256"}],"stateMutability":"view","type":"function"},{"inputs":[{"internalType":"uint256","name":"_loanId","type":"uint256"}],"name":"liquidate","outputs":[],"stateMutability":"payable","type":"function"},{"inputs":[{"internalType":"uint256","name":"","type":"uint256"},{"internalType":"uint256","name":"","type":"uint256"}],"name":"loanContributions","outputs":[{"internalType":"address","name":"lender","type":"address"},{"internalType":"uint256","name":"amount","type":"uint256"},{"internalType":"bool","name":"repaid","type":"bool"}],"stateMutability":"view","type":"function"},{"inputs":[{"internalType":"uint256","name":"","type":"uint256"}],"name":"loans","outputs":[{"internalType":"uint256","name":"id","type":"uint256"},{"internalType":"address","name":"borrower","type":"address"},{"internalType":"uint256","name":"tokenId","type":"uint256"},{"internalType":"uint256","name":"collateralTokenId","type":"uint256"},{"internalType":"uint256","name":"amount","type":"uint256"},{"internalType":"uint256","name":"amountFunded","type":"uint256"},{"internalType":"uint256","name":"collateralAmount","type":"uint256"},{"internalType":"uint256","name":"interestRate","type":"uint256"},{"internalType":"uint256","name":"duration","type":"uint256"},{"internalType":"uint256","name":"minContribution","type":"uint256"},{"internalType":"uint256","name":"fundingDeadline","type":"uint256"},{"internalType":"uint256","name":"createdAt","type":"uint256"},{"internalType":"uint256","name":"fundedAt","type":"uint256"},{"internalType":"uint256","name":"dueDate","type":"uint256"},{"internalType":"enum LoanVerseV4.LoanStatus","name":"status","type":"uint8"},{"internalType":"string","name":"ipfsDocumentHash","type":"string"},{"internalType":"uint256","name":"riskScore","type":"uint256"},{"internalType":"uint256","name":"liquidationThreshold","type":"uint256"},{"internalType":"uint256","name":"totalRepaid","type":"uint256"},{"internalType":"uint256","name":"earlyRepaymentPenalty","type":"uint256"}],"stateMutability":"view","type":"function"},{"inputs":[],"name":"nextLoanId","outputs":[{"internalType":"uint256","name":"","type":"uint256"}],"stateMutability":"view","type":"function"},{"inputs":[],"name":"nextTokenId","outputs":[{"internalType":"uint256","name":"","type":"uint256"}],"stateMutability":"view","type":"function"},{"inputs":[],"name":"owner","outputs":[{"internalType":"address","name":"","type":"address"}],"stateMutability":"view","type":"function"},{"inputs":[],"name":"pause","outputs":[],"stateMutability":"nonpayable","type":"function"},{"inputs":[],"name":"paused","outputs":[{"internalType":"bool","name":"","type":"bool"}],"stateMutability":"view","type":"function"},{"inputs":[{"internalType":"uint256","name":"_loanId","type":"uint256"}],"name":"processFundingFailure","outputs":[],"stateMutability":"nonpayable","type":"function"},{"inputs":[],"name":"protocolFeeRate","outputs":[{"internalType":"uint256","name":"","type":"uint256"}],"stateMutability":"view","type":"function"},{"inputs":[],"name":"renounceOwnership","outputs":[],"stateMutability":"nonpayable","type":"function"},{"inputs":[{"internalType":"uint256","name":"_loanId","type":"uint256"}],"name":"repayLoan","outputs":[],"stateMutability":"payable","type":"function"},{"inputs":[{"internalType":"uint256","name":"_tokenId","type":"uint256"},{"internalType":"uint256","name":"_collateralTokenId","type":"uint256"},{"internalType":"uint256","name":"_amount","type":"uint256"},{"internalType":"uint256","name":"_interestRate","type":"uint256"},{"internalType":"uint256","name":"_duration","type":"uint256"},{"internalType":"uint256","name":"_minContribution","type":"uint256"},{"internalType":"uint256","name":"_fundingPeriod","type":"uint256"},{"internalType":"uint256","name":"_earlyRepaymentPenalty","type":"uint256"},{"internalType":"string","name":"_ipfsDocumentHash","type":"string"}],"name":"requestLoan","outputs":[],"stateMutability":"payable","type":"function"},{"inputs":[{"internalType":"address","name":"_oracle","type":"address"},{"internalType":"bool","name":"_authorized","type":"bool"}],"name":"setAuthorizedOracle","outputs":[],"stateMutability":"nonpayable","type":"function"},{"inputs":[{"internalType":"uint256","name":"","type":"uint256"}],"name":"supportedTokens","outputs":[{"internalType":"enum LoanVerseV4.TokenType","name":"tokenType","type":"uint8"},{"internalType":"address","name":"contractAddress","type":"address"},{"internalType":"string","name":"symbol","type":"string"},{"internalType":"uint8","name":"decimals","type":"uint8"},{"internalType":"bool","name":"isActive","type":"bool"},{"internalType":"contract AggregatorV3Interface","name":"priceFeed","type":"address"}],"stateMutability":"view","type":"function"},{"inputs":[{"internalType":"address","name":"newOwner","type":"address"}],"name":"transferOwnership","outputs":[],"stateMutability":"nonpayable","type":"function"},{"inputs":[{"internalType":"uint256","name":"_loanId","type":"uint256"}],"name":"triggerDefault","outputs":[],"stateMutability":"nonpayable","type":"function"},{"inputs":[],"name":"unpause","outputs":[],"stateMutability":"nonpayable","type":"function"},{"inputs":[{"internalType":"uint256","name":"_loanId","type":"uint256"},{"internalType":"uint256","name":"_riskScore","type":"uint256"}],"name":"updateRiskScore","outputs":[],"stateMutability":"nonpayable","type":"function"},{"inputs":[{"internalType":"uint256","name":"_loanId","type":"uint256"},{"internalType":"enum LoanVerseV4.DefaultAction","name":"_action","type":"uint8"}],"name":"voteOnDefault","outputs":[],"stateMutability":"nonpayable","type":"function"},{"inputs":[{"internalType":"uint256","name":"","type":"uint256"}],"name":"votingDeadline","outputs":[{"internalType":"uint256","name":"","type":"uint256"}],"stateMutability":"view","type":"function"},{"inputs":[],"name":"withdrawFees","outputs":[],"stateMutability":"nonpayable","type":"function"}],"evm":{"bytecode":{"linkReferences":{},"object":"608060409080825234620003195760019060009082825533156200030557508154336001600160a01b03198083168217855592916001600160a01b03167f8be0079c531659141344cd1fd0a4f28419497f9722a3daafe3b4186f6b6457e08380a38260025582600355600491603283553390600554161760055583519060c082019160018060401b039281811084821117620002f25786528181526020948582019383855287519188830183811083821117620002df578952600383526208aa8960eb1b88840152888401928352606084019760128952608085019782895260a0860197878952878052600883528b88209651906002821015620002cc5760ff885491610100600160a81b03905160081b1692169060018060a81b031916171786558286019451908151948511620002b9578554908482811c92168015620002ae575b848310146200029b5750601f811162000250575b5081601f8511600114620001df57509280928192600297969560ff9994620001d3575b50501b916000199060031b1c19161790555b945194018054935192516001600160b01b0319909416919094161790151560081b61ff00161760109190911b62010000600160b01b03161790555161421590816200031f8239f35b01519250388062000179565b858852808820969795969395601f198616915b828210620002385750509160ff97959391856002989694106200021e575b505050811b0190556200018b565b015160001960f88460031b161c1916905538808062000210565b808886978294978701518155019601940190620001f2565b858852828820601f860160051c81019184871062000290575b601f0160051c019084905b8281106200028457505062000156565b89815501849062000274565b909150819062000269565b634e487b7160e01b895260229052602488fd5b91607f169162000142565b634e487b7160e01b885260419052602487fd5b634e487b7160e01b895260218352602489fd5b634e487b7160e01b865260418852602486fd5b634e487b7160e01b835260418552602483fd5b602491631e4fbdf760e01b82526004820152fd5b600080fdfe61018080604052600436101561001457600080fd5b60003560e01c9081630a353a291461339a575080630a49cf4d1461337d5780630d0b2ca61461335e578063119328d61461333d57806322e692261461299a57806334855d141461297d57806336630cd61461291e57806336cf063a146126935780633cdb72f1146126495780633f4ba83a146125d7578063415f12401461228c578063438596321461223f5780634690484014612216578063476343ee1461219757806358f85880146121795780635c211efc14611e555780635c975abb14611e2f5780636382539214611cef5780636dede8eb14611cc35780636eef115414611c84578063715018a614611c2757806375794a3c14611c0957806377e6c4aa14611a955780637a9fffb714611a795780638075a8f914611a3157806380bb7273146119b65780638456cb591461195457806387c514591461193657806389d99a05146119185780638da5cb5b146118ef5780639003adfe146118d157806390a8ae9b146118b55780639772d7ee146117b7578063ab7b1c89146113a2578063b1610d7e14611384578063b94fe9171461135a578063bad128b61461124f578063bdbfa3de146110d7578063c625562614611041578063c7a6de4d14610fe8578063caff648414610e9b578063cba89b65146108aa578063dafd06a3146105cf578063e1ec3c681461042c578063e25b1078146103f0578063e3ed190214610398578063ec991da9146102e6578063f25b9caa146102c95763f2fde38b1461023b57600080fd5b346102c45760203660031901126102c4576102546134da565b61025c61367c565b6001600160a01b039081169081156102ab57600154826001600160601b0360a01b821617600155167f8be0079c531659141344cd1fd0a4f28419497f9722a3daafe3b4186f6b6457e0600080a3005b604051631e4fbdf760e01b815260006004820152602490fd5b600080fd5b346102c45760003660031901126102c4576020604051610e108152f35b346102c45760203660031901126102c45760043561030261367c565b80600052600860205260ff60026040600020015460081c161561036057806000526008602052600260406000200161ff001981541690557f76ae93cd7712c8a8b4ba0c1b9f441ddbd9e9ce3e425a93b15e8f6e37d8784fa6600080a2005b60405162461bcd60e51b815260206004820152601060248201526f546f6b656e206e6f742061637469766560801b6044820152606490fd5b346102c45760403660031901126102c4576103b16134da565b6001600160a01b03166000908152600b60205260409020805460243591908210156102c4576020916103e291613506565b90546040519160031b1c8152f35b346102c4576103fe366134bb565b90600052600f60205260406000209061041681613632565b6000526020526020604060002054604051908152f35b346102c45760203660031901126102c457600435600052600760205260406000208060a0528054608052600160a01b60019003600182015416600282015461016052600382015460048301546005840154600685015460078601546008870154600988015491600a89015493600b8a015495600c8b015497600d8c015499600e8d015460ff169c600f016104bf9061358c565b9b60a051601081015461014052601181015461012052601281015460e05260130154610100526040518060c052608051905260c051602001526101605160c0516040015260c0516060015260c0516080015260c05160a0015260c05160c0015260c05160e0015260c051610100015260c051610120015260c051610140015260c051610160015260c051610180015260c0516101a0015260078210156105b957610581916101c060c0510152610280806101e060c051015260c051019061363c565b6101405161020060c05101526101205161022060c051015260e05161024060c05101526101005161026060c051015260c05180910390f35b634e487b7160e01b600052602160045260246000fd5b346102c4576020806003193601126102c4576004356105ec613b54565b80600052600791828152604060002090600e820193845460ff91828216818110156105b95761086e57600a85015442111561082957600585019260048454960195865411156107f05760019788809460ff19161790558660005260098552604060002091825461065b81613bf7565b936106696040519586613404565b8185526000908152878120868987015b8a8585106107ac575050925050506000905b6106d3575b84897f077f7e7d85860b4290e437c62570324ddd92c9bb185ec5a51fbec45bc8d1550360408b8b8b6106c186613fef565b549154908351928352820152a2600055005b83518110156107a757610784906001600160a01b038a7f7a482fdeb6bc9a1376f597068a214a7a39472bb2eff1b8cad21ba04f49ddca1b8a83610716868b613c0f565b5151169381610725878c613c0f565b51015190846000528883528186600260406000200154928360005260088087528d6040600020541661075681613632565b61078a5750506107789250600080809381935af1610772613b77565b50613fb3565b604051908152a36136a8565b8461068b565b6107a294600052808752604060002054901c16613ba7565b610778565b610690565b6003916040516107bb816133e8565b85546001600160a01b03168152848601548382015260028601548a161515604082015281529490920193920191889101610679565b60405162461bcd60e51b8152600481018690526011602482015270131bd85b88199d5b1b1e48199d5b991959607a1b6044820152606490fd5b60405162461bcd60e51b815260048101859052601860248201527f46756e64696e6720706572696f64206e6f7420656e64656400000000000000006044820152606490fd5b60405162461bcd60e51b81526004810185905260146024820152734e6f7420696e2066756e64696e6720737461746560601b6044820152606490fd5b6108b3366133b6565b906108bc613b54565b6108c4613b33565b8060005260206007815260406000209260018060a01b036001948186820154166108ef8115156136b7565b60ff600e8301541660078110156105b957610e6157600a8201544211610e1c573314610de057600981015490818410610d9b57600481019081549261093a6005830194855490613752565b90818711610d56578661094d8184613752565b15159283610d42575b505050610ce95760020154938460005260089485875260ff6040600020541661097e81613632565b610c7d5750803403610c41575b86600052600986526040600020604051906109a5826133e8565b338252878201918383526040810191600083528054600160401b811015610c2b576109d4918d82018155613489565b929092610c1557610a11938860029351166001600160601b0360a01b855416178455518c84015551151591019060ff801983541691151516179055565b86600052600986526040600020546000198101908111610bff5787600052600a87526040600020336000528752604060002055600c8652610a56876040600020613a4d565b610a61818454613a40565b8093556040519081528286820152867f99f1c95e4132b33cad7cbbd49d5efa1aa01db71edbab6f05c01fb2323875ad1460403393a35414610aa4575b6000859055005b8360005260078352604060002091600e8301600260ff1982541617905542600c840155610ad48184015442613a40565b600d84015560028301548060005281855260ff60406000205416610af781613632565b610bae57505060008080809388860154166004860154905af1610b18613b77565b5015610b69577fb96bada2a4e2e402aaa472b5e783a9d8bb13d996387df6beea608680b31ff46f9160046040925b01549084600052600981528260002054908351928352820152a281808080610a9d565b60405162461bcd60e51b815260048101839052601b60248201527f5472616e7366657220746f20626f72726f776572206661696c656400000000006044820152606490fd5b92610bfa837fb96bada2a4e2e402aaa472b5e783a9d8bb13d996387df6beea608680b31ff46f96946004946040976000528087528760002054901c169089840154168484015491613ba7565b610b46565b634e487b7160e01b600052601160045260246000fd5b634e487b7160e01b600052600060045260246000fd5b634e487b7160e01b600052604160045260246000fd5b60405162461bcd60e51b8152600481018790526014602482015273125b98dbdc9c9958dd0811551208185b5bdd5b9d60621b6044820152606490fd5b34610ca457600052848652610c9f8185604060002054881c1630903390613a82565b61098b565b60405162461bcd60e51b815260048101889052601d60248201527f455448206e6f74206e656564656420666f72204552433230206c6f616e0000006044820152606490fd5b60405162461bcd60e51b815260048101879052602b60248201527f576f756c64206c6561766520616d6f756e742062656c6f77206d696e696d756d60448201526a20666f72206f746865727360a81b6064820152608490fd5b610d4d929350613752565b10898681610956565b60405162461bcd60e51b815260048101899052601860248201527f457863656564732072656d61696e696e6720616d6f756e7400000000000000006044820152606490fd5b60405162461bcd60e51b815260048101869052601a60248201527f42656c6f77206d696e696d756d20636f6e747269627574696f6e0000000000006044820152606490fd5b60405162461bcd60e51b815260048101859052601460248201527321b0b73737ba10333ab7321037bbb7103637b0b760611b6044820152606490fd5b60405162461bcd60e51b815260048101869052601760248201527f46756e64696e6720646561646c696e65207061737365640000000000000000006044820152606490fd5b60405162461bcd60e51b81526004810186905260126024820152714c6f616e206e6f7420617661696c61626c6560701b6044820152606490fd5b346102c4576020806003193601126102c45760043590610eb9613b54565b8160005260078152600e60406000200180549060ff821660078110156105b9576006610ee59114613e3b565b8360005260118352604060002054421115610fad57907fb6d0d13889bd27ea4546c2b38e63c4ca45f6fd27b5db622033f3f0840c103ff6929184600052600f8352604060002060008052835260406000205485600052600f84526040600020600160005284526040600020541115600014610fa35760046000925b60ff1916179055610f7081613632565b80610f9557610f7e84613e7d565b60405190610f8b81613632565b8152a26001600055005b610f9e84613e7d565b610f7e565b6004600192610f60565b60405162461bcd60e51b8152600481018490526013602482015272566f74696e67207374696c6c2061637469766560681b6044820152606490fd5b346102c45760403660031901126102c4576110016134da565b60243580151581036102c45761103f9161101961367c565b60018060a01b0316600052600e60205260406000209060ff801983541691151516179055565b005b346102c45760203660031901126102c45760043560005260086020526040600020805460ff81169060026110776001850161358c565b930154906110b2604051948461108d8796613632565b855260018060a01b03809360081c16602086015260c0604086015260c085019061363c565b9160ff8116606085015260ff8160081c161515608085015260101c1660a08301520390f35b346102c45760203660031901126102c4576004356110f3613b54565b600081815260076020526040902060018101546001600160a01b0316330361120a57600e81019081549060ff821660078110156105b9576111c557600501546111745760ff1916600517905561114881613fef565b7fb71becc91961a6b43bcc5b3b630f3dce02c7fd444cf3738c4f188062b1caf5bc600080a26001600055005b60405162461bcd60e51b815260206004820152602360248201527f43616e6e6f742063616e63656c207061727469616c6c792066756e646564206c60448201526237b0b760e91b6064820152608490fd5b60405162461bcd60e51b815260206004820152601e60248201527f43616e206f6e6c792063616e63656c20756e66756e646564206c6f616e7300006044820152606490fd5b60405162461bcd60e51b815260206004820152601860248201527f4f6e6c7920626f72726f7765722063616e2063616e63656c00000000000000006044820152606490fd5b346102c45761125d366133b6565b33600052602090600e825260ff604060002054161561131d576103e881116112e35760008381526007835260409020600101547f48adb4acae9076e27f3dd76aae95808bb8f40caf101b9d074b3b89e67602cc4f9291906112c8906001600160a01b031615156136b7565b836000526007825280601060406000200155604051908152a2005b60405162461bcd60e51b8152600481018390526012602482015271496e76616c6964207269736b2073636f726560701b6044820152606490fd5b60405162461bcd60e51b81526004810183905260156024820152744e6f7420617574686f72697a6564206f7261636c6560581b6044820152606490fd5b346102c45760203660031901126102c457604061137860043561375f565b82519182526020820152f35b346102c45760003660031901126102c45760206040516203f4808152f35b6020806003193601126102c457600435906113bb613b54565b600082815260078252604090206001810180546001600160a01b0392908316330361177257600e810160ff81541660078110156105b95760026113fe9114613c23565b600d820154908142108092811561175a575b5015611721576004830154612710906114388261143160078801548461395c565b0482613a40565b9380611714575b6116f0575b505060128301916002611458845483613752565b940192835490816000526008895260ff6040600020541661147881613632565b6116e95734915b821515806116df575b1561169a5760408b92827f919e2311cb8f85978e6f84ae3d90a27edc48dc6ca722d47302df171a808fd7029360005260088d52600160ff8460002054166114ce81613632565b14611676575b506114e0858254613a40565b81556114ec8585613c61565b54938151908152848c820152a21015611507575b6001600055005b600360ff19825416179055546000526008845260ff6040600020541661152c81613632565b158061166d575b61160b575b5061154284613fef565b54169081600052600d81526040600020906001820161156781548015611601576136a8565b90554260068301556002820161157d81546136a8565b9055815491600a8301809311610bff577f79c012a0cfae660e09134956bc432c8497ec80e86a3a108d130e8b3fca52b3ad9261035290818111156115f8575080915b55604051908152a27f6a65a58027e68282a85ac65a7afc6580ef3d139c6e6ec12ae8d82de13566e8cc600080a280808080808080611500565b905080916115bf565b61023f85556136a8565b6000808061161a819434613752565b335af1611625613b77565b50156116315784611538565b60405162461bcd60e51b8152600481018490526014602482015273115e18d95cdcc81c995d1d5c9b8819985a5b195960621b6044820152606490fd5b50803411611533565b60005260088c52611694858c846000205460081c1630903390613a82565b8d6114d4565b60405162461bcd60e51b8152600481018b9052601860248201527f496e76616c69642072657061796d656e7420616d6f756e7400000000000000006044820152606490fd5b5086831115611488565b859161147f565b9061170561170c93949260138701549061395c565b0490613a40565b908780611444565b506013850154151561143f565b60405162461bcd60e51b8152600481018790526011602482015270546f6f206c61746520746f20726570617960781b6044820152606490fd5b905062278d008101809111610bff5742111588611410565b60405162461bcd60e51b815260048101859052601760248201527f4f6e6c7920626f72726f7765722063616e2072657061790000000000000000006044820152606490fd5b346102c45760003660031901126102c4576002546000198101818111610bff576117e0906141ad565b9060009060015b8181106118425750506117f9816141ad565b9160005b82811061181e576040516020808252819061181a9082018761351e565b0390f35b8061182c61183d9284613c0f565b516118378287613c0f565b526136a8565b6117fd565b80600052600760209080825260ff600e6040600020015416818110156105b95715918261189a575b505061187f575b61187a906136a8565b6117e7565b91611892818461183761187a9488613c0f565b929050611871565b9091508260005252600a60406000200154421115858061186a565b346102c45760003660031901126102c457602060405160788152f35b346102c45760003660031901126102c4576020600654604051908152f35b346102c45760003660031901126102c4576001546040516001600160a01b039091168152602090f35b346102c45760003660031901126102c4576020604051620151808152f35b346102c45760003660031901126102c4576020600254604051908152f35b346102c45760003660031901126102c45761196d61367c565b611975613b33565b6001805460ff60a01b1916600160a01b1790556040513381527f62e78cea01bee320cd4e420270b5ea74000d11b0c9f74754ebdbfc544b05a25890602090a1005b346102c45760203660031901126102c4576001600160a01b036119d76134da565b16600052600d60205260e06040600020805490600181015490600281015460038201546004830154916006600585015494015494604051968752602087015260408601526060850152608084015260a083015260c0820152f35b346102c45760403660031901126102c457611a4a6134f0565b600435600052600a60205260406000209060018060a01b03166000526020526020604060002054604051908152f35b346102c45760003660031901126102c457602060405160968152f35b346102c4576020806003193601126102c457600435600052600981526040600020908154611ac281613bf7565b92611ad06040519485613404565b8184526000908152828120838086015b848410611bc55786828151611b0d611af782613bf7565b91611b056040519384613404565b808352613bf7565b8183019290601f1901368437611b2384516141ad565b9160005b8551811015611b7157611b6c906001600160a01b03611b468289613c0f565b515116611b538285613c0f565b5283611b5f8289613c0f565b5101516118378287613c0f565b611b27565b509190604051926040840190604085525180915260608401949060005b818110611ba85785870384870152858061181a898861351e565b82516001600160a01b031687529583019591830191600101611b8e565b600191600391604051611bd7816133e8565b848060a01b038654168152848601548382015260ff600287015416151560408201528152019201920191908490611ae0565b346102c45760003660031901126102c4576020600354604051908152f35b346102c45760003660031901126102c457611c4061367c565b600180546001600160a01b031981169091556000906001600160a01b03167f8be0079c531659141344cd1fd0a4f28419497f9722a3daafe3b4186f6b6457e08280a3005b346102c45760203660031901126102c4576001600160a01b03611ca56134da565b16600052600e602052602060ff604060002054166040519015158152f35b346102c45760203660031901126102c45760043560005260116020526020604060002054604051908152f35b346102c4576020806003193601126102c45760043590611d0d613b54565b81600052600781526040600020600e8101805460ff811660078110156105b9576002611d399114613c23565b600d83015462278d008101809111610bff57421115611df15760069060ff19161790556203f480420191824211610bff57611db07f8abde2f70ef3fee1a095180c52ea8f9374714f640a915a9f6a63f59811f20afc92859485600052601184526040600020556001808060a01b03910154166140c2565b8260005260118152604060002054604051908152a27f0789b7097e8066538cfaa1132488b132e14ba5f0c938c8b7aaf8cf40356aab0b600080a26001600055005b60405162461bcd60e51b815260048101859052601660248201527511dc9858d9481c195c9a5bd9081b9bdd08195b99195960521b6044820152606490fd5b346102c45760003660031901126102c457602060ff60015460a01c166040519015158152f35b346102c45760803660031901126102c457611e6e6134da565b67ffffffffffffffff906024358281116102c457611e90903690600401613442565b6044359160ff83168093036102c4576001600160a01b0392606435929084841684036102c457611ebe61367c565b848316156121345760405190611ed3826133cc565b6001825260208201908685168252604083019084825260608401526001608084015286861660a08401526003546000526008602052604060002091835190611f1a82613632565b611f2382613632565b60ff845491610100600160a81b03905160081b169216906affffffffffffffffffffff60a81b161717825551968751908111610c2b57611f666001830154613552565b601f81116120e9575b506020601f821160011461204e577f98878a34ea3245957b330457c591928f2908c8b254e8b972075101360fca276b94928261202d959360029361203e9c600092612043575b50508160011b916000199060031b1c19161760018201555b019060ff6060820151169082549161ff006080830151151560081b169160a062010000600160b01b0391015160101b169269ffffffffffffffffffff60b01b1617171790556003549586948160405194859460408652604086019061363c565b9716602084015216940390a36136a8565b600355005b015190508c80611fb5565b6001830160005260206000209860005b601f19841681106120d157509260018361203e9b6002947f98878a34ea3245957b330457c591928f2908c8b254e8b972075101360fca276b999761202d9997601f198116106120b8575b505050811b016001820155611fcd565b015160001960f88460031b161c191690558c80806120a8565b828201518b556001909a01996020928301920161205e565b600183016000526020600020601f830160051c8101916020841061212a575b601f0160051c01905b81811061211e5750611f6f565b60008155600101612111565b9091508190612108565b60405162461bcd60e51b815260206004820152601860248201527f496e76616c696420636f6e7472616374206164647265737300000000000000006044820152606490fd5b346102c45760003660031901126102c4576020600454604051908152f35b346102c45760003660031901126102c4576121b061367c565b60008080806006548160065560018060a01b03600554165af16121d1613b77565b50156121d957005b60405162461bcd60e51b8152602060048201526015602482015274119959481dda5d1a191c985dd85b0819985a5b1959605a1b6044820152606490fd5b346102c45760003660031901126102c4576005546040516001600160a01b039091168152602090f35b346102c45760403660031901126102c4576122586134f0565b600435600052601060205260406000209060018060a01b0316600052602052602060ff604060002054166040519015158152f35b6020806003193601126102c4576004356122a4613b54565b8060005260078252604060002090600e820160ff81541660078110156105b957600281149081156125cc575b501561259657600d83015462278d008101809111610bff57421160028401549060048501549261230084846139a0565b93600387019283549561231960068a01978854906139a0565b90606482029180830460641490151715610bff5760118a015461233b9161395c565b11811561258e575b50156125525761236161236c9161271061170560078b01548361395c565b601288015490613752565b908360005260089384895260ff6040600020541661238981613632565b61252957508134106124e457906123b3918134116124c2575b805460ff1916600417905585613c61565b548060005281865260ff604060002054166123cd81613632565b61247057505060008080809354335af16123e5613b77565b501561242b577fb6d0d13889bd27ea4546c2b38e63c4ca45f6fd27b5db622033f3f0840c103ff6611500935b60405160008152a2600101546001600160a01b03166140c2565b60405162461bcd60e51b815260048101849052601a60248201527f436f6c6c61746572616c207472616e73666572206661696c65640000000000006044820152606490fd5b600090815281865260409020549154611500957fb6d0d13889bd27ea4546c2b38e63c4ca45f6fd27b5db622033f3f0840c103ff69390926124bd929133911c6001600160a01b0316613ba7565b612411565b6124df60008080806124d48734613752565b335af1610772613b77565b6123a2565b60405162461bcd60e51b815260048101899052601d60248201527f496e73756666696369656e742045544820746f206c69717569646174650000006044820152606490fd5b906123b392916000528489526124df8260018060a01b03604060002054881c1630903390613a82565b60405162461bcd60e51b8152600481018990526014602482015273139bdd081b1a5c5d5a59185d18589b19481e595d60621b6044820152606490fd5b905089612343565b60405162461bcd60e51b815260048101859052600e60248201526d496e76616c69642073746174757360901b6044820152606490fd5b6006915014856122d0565b346102c45760003660031901126102c4576125f061367c565b60015460ff8160a01c16156126375760ff60a01b19166001556040513381527f5db9ee0a495bf2e6ff9c91a7834c1ba4fdd244a5e8aa4e537bd38aeae4b073aa90602090a1005b604051638dfc202b60e01b8152600490fd5b346102c45760403660031901126102c4576126626134da565b6001600160a01b03166000908152600c60205260409020805460243591908210156102c4576020916103e291613506565b346102c4576126a1366134bb565b906126aa613b54565b806000526020906007825260ff9182600e604060002001541660078110156105b95760066126d89114613e3b565b816000526011815260406000205442116128e4578160005260108152604060002033600052815282604060002054166128b0576000928260005260098252604060002080549061272782613bf7565b926127356040519485613404565b828452600091825284822090858086015b85851061286d5750505050505060005b815181101561286357336001600160a01b036127728385613c0f565b5151161461278857612783906136a8565b612756565b8293945061279591613c0f565b510151905b811561283057826000526010815260406000203360005281526040600020600160ff1982541617905582600052600f815260406000206127d985613632565b84600052815260406000206127ef838254613a40565b9055604051936127fe81613632565b84528301527fb83d25c6a5d258561330739951487acb4bd09ba5190b5d32c4f261817d90679260403393a36001600055005b6064906040519062461bcd60e51b82526004820152600c60248201526b2737ba1030903632b73232b960a11b6044820152fd5b505091909161279a565b60019160039160405161287f816133e8565b848060a01b038754168152848701548382015285600288015416151560408201528152019301930192918690612746565b6064906040519062461bcd60e51b82526004820152600d60248201526c105b1c9958591e481d9bdd1959609a1b6044820152fd5b6064906040519062461bcd60e51b825260048201526013602482015272159bdd1a5b99c81c195c9a5bd908195b991959606a1b6044820152fd5b346102c45761292c366133b6565b906000526009602052604060002080548210156102c45760609161294f91613489565b5060018060a01b038154169060ff600260018301549201541690604051928352602083015215156040820152f35b346102c45760003660031901126102c4576020604051610bb88152f35b6101203660031901126102c4576101043567ffffffffffffffff81116102c4576129c8903690600401613442565b6129d0613b54565b6129d8613b33565b604435156132f857610bb8606435116132ba5762015180806084351015806132aa575b15613272576004356000526008602052612a2260ff60026040600020015460081c166136f9565b602435600052600860205260ff60026040600020015460081c161561322d578151156131f35760a4351515806131e2575b1561319d5760c43510158061318e575b15613150576101f460e435116131185733600052600d602052604060002061012c8154109081159161310b575b50156130cf57612aa46044356004356139a0565b80609681020460961481151715610bff57612b6090612b5b612ac760243561375f565b5091602435600052600860205260646096612b536040600020600260405191612aef836133cc565b805460ff8116612afe81613632565b845260081c6001600160a01b03166020840152612b1d6001820161358c565b604084015201549060a060ff83169283606084015260ff8160081c1615156080840152600180831b039060101c1691015261396f565b92020461395c565b613980565b90602435600052600860205260ff60406000205416612b7e81613632565b612f9257813410612f4d575b600254612b96816136a8565b600255612ba560c43542613a40565b92602435600052600860205260ff60406000205416612bc381613632565b612f485750345b604051908161028081011067ffffffffffffffff61028084011117610c2b576102808201604052828252336020830152600435604083015260243560608301526044356080830152600060a083015260c082015260643560e082015260843561010082015260a4356101208201528361014082015242610160820152600061018082015260006101a082015260006101c0820152826101e082015260006102008201526078610220820152600061024082015260e435610260820152816000526007602052604060002090805182556001820160018060a01b036020830151166001600160601b0360a01b82541617905560408101516002830155606081015160038301556080810151600483015560a0810151600583015560c0810151600683015560e0810151600783015561010081015160088301556101208101516009830155610140810151600a830155610160810151600b830155610180810151600c8301556101a0810151600d830155600e82016101c082015160078110156105b95760ff801983541691161790556101e081015180519067ffffffffffffffff8211610c2b57612d7d600f850154613552565b601f8111612f01575b50602090601f8311600114612e8b5791806013949261026094600092612e80575b50508160011b916000199060031b1c191617600f8501555b610200810151601085015561022081015160118501556102408101516012850155015191015533600052600b602052612dfc816040600020613a4d565b8060005260076020526006604060002001549260405193604435855260208501526064356040850152608435606085015260a435608085015260a084015260e060c08401527f1455473c3acc495fcc473211502fcf9efe62f6c3a6b091a395e25c5c5d30ab546004359380612e76339560e083019061363c565b0390a46001600055005b015190508980612da7565b90600f850160005260206000209160005b601f1985168110612ee9575092601394926001926102609583601f19811610612ed0575b505050811b01600f850155612dbf565b015160001960f88460031b161c19169055898080612ec0565b91926020600181928685015181550194019201612e9c565b600f85016000526020600020601f840160051c810160208510612f41575b601f830160051c82018110612f35575050612d86565b60008155600101612f1f565b5080612f1f565b612bca565b60405162461bcd60e51b815260206004820152601b60248201527f496e73756666696369656e742045544820636f6c6c61746572616c00000000006044820152606490fd5b3461307e57602435600052600860205260018060a01b0360406000205460081c166040516370a0823160e01b8152336004820152602081602481855afa801561307257849160009161303d575b5010612ff85782612ff39130903390613a82565b612b8a565b60405162461bcd60e51b815260206004820152601a60248201527f496e73756666696369656e742045524332302062616c616e63650000000000006044820152606490fd5b9150506020813d60201161306a575b8161305960209383613404565b810103126102c45783905185612fdf565b3d915061304c565b6040513d6000823e3d90fd5b60405162461bcd60e51b815260206004820152602360248201527f455448206e6f74206e656564656420666f7220455243323020636f6c6c6174656044820152621c985b60ea1b6064820152608490fd5b60405162461bcd60e51b81526020600482015260146024820152734372656469742073636f726520746f6f206c6f7760601b6044820152606490fd5b6001915001541582612a90565b60405162461bcd60e51b815260206004820152601060248201526f0a0cadcc2d8e8f240e8dede40d0d2ced60831b6044820152606490fd5b60405162461bcd60e51b8152602060048201526016602482015275125b9d985b1a5908199d5b991a5b99c81c195c9a5bd960521b6044820152606490fd5b5062278d0060c4351115612a63565b60405162461bcd60e51b815260206004820152601860248201527f496e76616c6964206d696e20636f6e747269627574696f6e00000000000000006044820152606490fd5b5060443560011c60a4351115612a53565b60405162461bcd60e51b815260206004820152601260248201527112541194c81a185cda081c995c5d5a5c995960721b6044820152606490fd5b60405162461bcd60e51b815260206004820152601e60248201527f436f6c6c61746572616c20746f6b656e206e6f7420737570706f7274656400006044820152606490fd5b60405162461bcd60e51b815260206004820152601060248201526f24b73b30b634b210323ab930ba34b7b760811b6044820152606490fd5b506301e1338060843511156129fb565b60405162461bcd60e51b8152602060048201526016602482015275092dce8cae4cae6e840e4c2e8ca40e8dede40d0d2ced60531b6044820152606490fd5b60405162461bcd60e51b815260206004820152601d60248201527f416d6f756e74206d7573742062652067726561746572207468616e20300000006044820152606490fd5b346102c4576020613356613350366133b6565b906139a0565b604051908152f35b346102c45760003660031901126102c45760206040516301e133808152f35b346102c45760003660031901126102c457602060405161012c8152f35b346102c45760003660031901126102c4578062093a8060209252f35b60409060031901126102c4576004359060243590565b60c0810190811067ffffffffffffffff821117610c2b57604052565b6060810190811067ffffffffffffffff821117610c2b57604052565b90601f8019910116810190811067ffffffffffffffff821117610c2b57604052565b67ffffffffffffffff8111610c2b57601f01601f191660200190565b81601f820112156102c45780359061345982613426565b926134676040519485613404565b828452602083830101116102c457816000926020809301838601378301015290565b80548210156134a5576000526003602060002091020190600090565b634e487b7160e01b600052603260045260246000fd5b60409060031901126102c4576004359060243560028110156102c45790565b600435906001600160a01b03821682036102c457565b602435906001600160a01b03821682036102c457565b80548210156134a55760005260206000200190600090565b90815180825260208080930193019160005b82811061353e575050505090565b835185529381019392810192600101613530565b90600182811c92168015613582575b602083101461356c57565b634e487b7160e01b600052602260045260246000fd5b91607f1691613561565b90604051918260008254926135a084613552565b90818452600194858116908160001461360f57506001146135cc575b50506135ca92500383613404565b565b9093915060005260209081600020936000915b8183106135f75750506135ca935082010138806135bc565b855488840185015294850194879450918301916135df565b9150506135ca94506020925060ff191682840152151560051b82010138806135bc565b600211156105b957565b919082519283825260005b848110613668575050826000602080949584010152601f8019910116010190565b602081830181015184830182015201613647565b6001546001600160a01b0316330361369057565b60405163118cdaa760e01b8152336004820152602490fd5b6000198114610bff5760010190565b156136be57565b60405162461bcd60e51b8152602060048201526013602482015272131bd85b88191bd95cc81b9bdd08195e1a5cdd606a1b6044820152606490fd5b1561370057565b60405162461bcd60e51b8152602060048201526013602482015272151bdad95b881b9bdd081cdd5c1c1bdc9d1959606a1b6044820152606490fd5b519069ffffffffffffffffffff821682036102c457565b91908203918211610bff57565b9060009182526020600881526040808420815161377b816133cc565b6137df600283549360ff851661379081613632565b845260018060a01b03809560081c16878501526137af6001820161358c565b8685015201549160ff831660608201528360a060ff8560081c16151592836080820152019360101c1683526136f9565b5116801561394c579060a060049392825194858092633fabe5a360e21b82525afa94851561394157809381966138e9575b508313156138a657841561386e57610e1061382b8642613752565b116138365750509190565b60649250519062461bcd60e51b825260048201526012602482015271141c9a58d94819185d18481d1bdbc81bdb1960721b6044820152fd5b60649250519062461bcd60e51b825260048201526012602482015271526f756e64206e6f7420636f6d706c65746560701b6044820152fd5b60649250519062461bcd60e51b82526004820152601960248201527f496e76616c69642070726963652066726f6d206f7261636c65000000000000006044820152fd5b9350945060a0833d8211613939575b8161390560a09383613404565b81010312613935576139168361373b565b508183015161392c60806060860151950161373b565b50929438613810565b8480fd5b3d91506138f8565b9051903d90823e3d90fd5b5050509050642e90edd000904290565b81810292918115918404141715610bff57565b60ff16604d8111610bff57600a0a90565b811561398a570490565b634e487b7160e01b600052601260045260246000fd5b90613a3760ff613a2f613a3d946139b68161375f565b509060005260086020526040600020946040516139d2816133cc565b60a06002885498878a166139e581613632565b8452600180841b03809a60081c166020850152613a046001820161358c565b604085015201549760608301988781168a52878160081c161515608085015260101c1691015261395c565b92511661396f565b90613980565b90565b91908201809211610bff57565b8054600160401b811015610c2b57613a6a91600182018155613506565b819291549060031b91821b91600019901b1916179055565b6040516323b872dd60e01b60208201526001600160a01b03928316602482015292909116604483015260648083019390935291815260a081019181831067ffffffffffffffff841117610c2b576135ca926040525b906000602091828151910182855af115613072576000513d613b2a57506001600160a01b0381163b155b613b085750565b604051635274afe760e01b81526001600160a01b039091166004820152602490fd5b60011415613b01565b60ff60015460a01c16613b4257565b60405163d93c066560e01b8152600490fd5b600260005414613b65576002600055565b604051633ee5aeb560e01b8152600490fd5b3d15613ba2573d90613b8882613426565b91613b966040519384613404565b82523d6000602084013e565b606090565b60405163a9059cbb60e01b60208201526001600160a01b039092166024830152604480830193909352918152608081019167ffffffffffffffff831182841017610c2b576135ca92604052613ad7565b67ffffffffffffffff8111610c2b5760051b60200190565b80518210156134a55760209160051b010190565b15613c2a57565b60405162461bcd60e51b815260206004820152600f60248201526e4c6f616e206e6f742061637469766560881b6044820152606490fd5b91909160009080825260209360078552604092838120916009875284822091600491613ca8613c9f612710613c9786548561395c565b048093613752565b91600654613a40565b60065584830190825b8554811015613e2e57613cdd613cd56001613ccc848a613489565b5001548461395c565b845490613980565b80613cf2575b50613ced906136a8565b613cb1565b89898d898860028d015480825260089081855260ff8784205416613d1581613632565b613dd2575050935083925082915084613d2f878493613489565b50546001600160a01b03165af1613d44613b77565b5015613d98579089897f655b9f7355449ee5d1f48de6b9fbfab1b98a556d98413fc02bddba24dab5f7738e613ced955b613d7e868d613489565b505494519081526001600160a01b0390941693a390613ce3565b895162461bcd60e51b81528087018d9052601460248201527313195b99195c881c185e5bdd5d0819985a5b195960621b6044820152606490fd5b967f655b9f7355449ee5d1f48de6b9fbfab1b98a556d98413fc02bddba24dab5f773949387613e208b86613e2996613ced9e9d879952808a5260018060a01b039485922054901c1693613489565b50541690613ba7565b613d74565b5050505050505050509050565b15613e4257565b60405162461bcd60e51b81526020600482015260136024820152724e6f7420696e20766f74696e6720737461746560681b6044820152606490fd5b600090815260076020908152604080832060098352818420600494919085820160068301845b8354811015613fa857613ec9613cd583546001613ec08589613489565b5001549061395c565b9081613edf575b613eda91506136a8565b613ea3565b866003870154928382526008808c5260ff8b84205416613efe81613632565b613f7c575082935081809391613f1582938a613489565b50546001600160a01b03165af1613f2a613b77565b5015613f3957613eda90613ed0565b865162461bcd60e51b8152808a01899052601e60248201527f436f6c6c61746572616c20646973747269627574696f6e206661696c656400006044820152606490fd5b613eda94613fa39352808c5260018060a01b0380918c8c2054901c1690613e20858a613489565b613ed0565b505050505050505050565b15613fba57565b60405162461bcd60e51b815260206004820152600d60248201526c1499599d5b990819985a5b1959609a1b6044820152606490fd5b60009081526007602052604081206003810154808352600860205260ff60408420541661401b81613632565b614091575060018101546006909101548291829182916001600160a01b03165af1614044613b77565b501561404c57565b60405162461bcd60e51b815260206004820152601860248201527f436f6c6c61746572616c2072657475726e206661696c656400000000000000006044820152606490fd5b906006836040936135ca9552600860205260018060a01b03938491205460081c169260018301541691015491613ba7565b6001600160a01b03166000818152600d602052604081206001810180549192916140f1908015611601576136a8565b90554260068301556003820161410781546136a8565b9055815490603282111561417d57603119820191821161416957507f79c012a0cfae660e09134956bc432c8497ec80e86a3a108d130e8b3fca52b3ad9160209161012c908181101561416257505b80915b55604051908152a2565b9050614155565b634e487b7160e01b81526011600452602490fd5b505060207f79c012a0cfae660e09134956bc432c8497ec80e86a3a108d130e8b3fca52b3ad9161012c8091614158565b906141b782613bf7565b6141c46040519182613404565b82815280926141d5601f1991613bf7565b019060203691013756fea2646970667358221220af3c97f094b1c9697d78e232b43a01a28b8f06f7aad0d7c3f7a444dcd62c89ef64736f6c63430008140033","opcodes":"PUSH1 0x80 PUSH1 0x40 SWAP1 DUP1 DUP3 MSTORE CALLVALUE PUSH3 0x319 JUMPI PUSH1 0x1 SWAP1 PUSH1 0x0 SWAP1 DUP3 DUP3 SSTORE CALLER ISZERO PUSH3 0x305 JUMPI POP DUP2 SLOAD CALLER PUSH1 0x1 PUSH1 0x1 PUSH1 0xA0 SHL SUB NOT DUP1 DUP4 AND DUP3 OR DUP6 SSTORE SWAP3 SWAP2 PUSH1 0x1 PUSH1 0x1 PUSH1 0xA0 SHL SUB AND PUSH32 0x8BE0079C531659141344CD1FD0A4F28419497F9722A3DAAFE3B4186F6B6457E0 DUP4 DUP1 LOG3 DUP3 PUSH1 0x2 SSTORE DUP3 PUSH1 0x3 SSTORE PUSH1 0x4 SWAP2 PUSH1 0x32 DUP4 SSTORE CALLER SWAP1 PUSH1 0x5 SLOAD AND OR PUSH1 0x5 SSTORE DUP4 MLOAD SWAP1 PUSH1 0xC0 DUP3 ADD SWAP2 PUSH1 0x1 DUP1 PUSH1 0x40 SHL SUB SWAP3 DUP2 DUP2 LT DUP5 DUP3 GT OR PUSH3 0x2F2 JUMPI DUP7 MSTORE DUP2 DUP2 MSTORE PUSH1 0x20 SWAP5 DUP6 DUP3 ADD SWAP4 DUP4 DUP6 MSTORE DUP8 MLOAD SWAP2 DUP9 DUP4 ADD DUP4 DUP2 LT DUP4 DUP3 GT OR PUSH3 0x2DF JUMPI DUP10 MSTORE PUSH1 0x3 DUP4 MSTORE PUSH3 0x8AA89 PUSH1 0xEB SHL DUP9 DUP5 ADD MSTORE DUP9 DUP5 ADD SWAP3 DUP4 MSTORE PUSH1 0x60 DUP5 ADD SWAP8 PUSH1 0x12 DUP10 MSTORE PUSH1 0x80 DUP6 ADD SWAP8 DUP3 DUP10 MSTORE PUSH1 0xA0 DUP7 ADD SWAP8 DUP8 DUP10 MSTORE DUP8 DUP1 MSTORE PUSH1 0x8 DUP4 MSTORE DUP12 DUP9 KECCAK256 SWAP7 MLOAD SWAP1 PUSH1 0x2 DUP3 LT ISZERO PUSH3 0x2CC JUMPI PUSH1 0xFF DUP9 SLOAD SWAP2 PUSH2 0x100 PUSH1 0x1 PUSH1 0xA8 SHL SUB SWAP1 MLOAD PUSH1 0x8 SHL AND SWAP3 AND SWAP1 PUSH1 0x1 DUP1 PUSH1 0xA8 SHL SUB NOT AND OR OR DUP7 SSTORE DUP3 DUP7 ADD SWAP5 MLOAD SWAP1 DUP2 MLOAD SWAP5 DUP6 GT PUSH3 0x2B9 JUMPI DUP6 SLOAD SWAP1 DUP5 DUP3 DUP2 SHR SWAP3 AND DUP1 ISZERO PUSH3 0x2AE JUMPI JUMPDEST DUP5 DUP4 LT EQ PUSH3 0x29B JUMPI POP PUSH1 0x1F DUP2 GT PUSH3 0x250 JUMPI JUMPDEST POP DUP2 PUSH1 0x1F DUP6 GT PUSH1 0x1 EQ PUSH3 0x1DF JUMPI POP SWAP3 DUP1 SWAP3 DUP2 SWAP3 PUSH1 0x2 SWAP8 SWAP7 SWAP6 PUSH1 0xFF SWAP10 SWAP5 PUSH3 0x1D3 JUMPI JUMPDEST POP POP SHL SWAP2 PUSH1 0x0 NOT SWAP1 PUSH1 0x3 SHL SHR NOT AND OR SWAP1 SSTORE JUMPDEST SWAP5 MLOAD SWAP5 ADD DUP1 SLOAD SWAP4 MLOAD SWAP3 MLOAD PUSH1 0x1 PUSH1 0x1 PUSH1 0xB0 SHL SUB NOT SWAP1 SWAP5 AND SWAP2 SWAP1 SWAP5 AND OR SWAP1 ISZERO ISZERO PUSH1 0x8 SHL PUSH2 0xFF00 AND OR PUSH1 0x10 SWAP2 SWAP1 SWAP2 SHL PUSH3 0x10000 PUSH1 0x1 PUSH1 0xB0 SHL SUB AND OR SWAP1 SSTORE MLOAD PUSH2 0x4215 SWAP1 DUP2 PUSH3 0x31F DUP3 CODECOPY RETURN JUMPDEST ADD MLOAD SWAP3 POP CODESIZE DUP1 PUSH3 0x179 JUMP JUMPDEST DUP6 DUP9 MSTORE DUP1 DUP9 KECCAK256 SWAP7 SWAP8 SWAP6 SWAP7 SWAP4 SWAP6 PUSH1 0x1F NOT DUP7 AND SWAP2 JUMPDEST DUP3 DUP3 LT PUSH3 0x238 JUMPI POP POP SWAP2 PUSH1 0xFF SWAP8 SWAP6 SWAP4 SWAP2 DUP6 PUSH1 0x2 SWAP9 SWAP7 SWAP5 LT PUSH3 0x21E JUMPI JUMPDEST POP POP POP DUP2 SHL ADD SWAP1 SSTORE PUSH3 0x18B JUMP JUMPDEST ADD MLOAD PUSH1 0x0 NOT PUSH1 0xF8 DUP5 PUSH1 0x3 SHL AND SHR NOT AND SWAP1 SSTORE CODESIZE DUP1 DUP1 PUSH3 0x210 JUMP JUMPDEST DUP1 DUP9 DUP7 SWAP8 DUP3 SWAP5 SWAP8 DUP8 ADD MLOAD DUP2 SSTORE ADD SWAP7 ADD SWAP5 ADD SWAP1 PUSH3 0x1F2 JUMP JUMPDEST DUP6 DUP9 MSTORE DUP3 DUP9 KECCAK256 PUSH1 0x1F DUP7 ADD PUSH1 0x5 SHR DUP2 ADD SWAP2 DUP5 DUP8 LT PUSH3 0x290 JUMPI JUMPDEST PUSH1 0x1F ADD PUSH1 0x5 SHR ADD SWAP1 DUP5 SWAP1 JUMPDEST DUP3 DUP2 LT PUSH3 0x284 JUMPI POP POP PUSH3 0x156 JUMP JUMPDEST DUP10 DUP2 SSTORE ADD DUP5 SWAP1 PUSH3 0x274 JUMP JUMPDEST SWAP1 SWAP2 POP DUP2 SWAP1 PUSH3 0x269 JUMP JUMPDEST PUSH4 0x4E487B71 PUSH1 0xE0 SHL DUP10 MSTORE PUSH1 0x22 SWAP1 MSTORE PUSH1 0x24 DUP9 REVERT JUMPDEST SWAP2 PUSH1 0x7F AND SWAP2 PUSH3 0x142 JUMP JUMPDEST PUSH4 0x4E487B71 PUSH1 0xE0 SHL DUP9 MSTORE PUSH1 0x41 SWAP1 MSTORE PUSH1 0x24 DUP8 REVERT JUMPDEST PUSH4 0x4E487B71 PUSH1 0xE0 SHL DUP10 MSTORE PUSH1 0x21 DUP4 MSTORE PUSH1 0x24 DUP10 REVERT JUMPDEST PUSH4 0x4E487B71 PUSH1 0xE0 SHL DUP7 MSTORE PUSH1 0x41 DUP9 MSTORE PUSH1 0x24 DUP7 REVERT JUMPDEST PUSH4 0x4E487B71 PUSH1 0xE0 SHL DUP4 MSTORE PUSH1 0x41 DUP6 MSTORE PUSH1 0x24 DUP4 REVERT JUMPDEST PUSH1 0x24 SWAP2 PUSH4 0x1E4FBDF7 PUSH1 0xE0 SHL DUP3 MSTORE PUSH1 0x4 DUP3 ADD MSTORE REVERT JUMPDEST PUSH1 0x0 DUP1 REVERT INVALID PUSH2 0x180 DUP1 PUSH1 0x40 MSTORE PUSH1 0x4 CALLDATASIZE LT ISZERO PUSH2 0x14 JUMPI PUSH1 0x0 DUP1 REVERT JUMPDEST PUSH1 0x0 CALLDATALOAD PUSH1 0xE0 SHR SWAP1 DUP2 PUSH4 0xA353A29 EQ PUSH2 0x339A JUMPI POP DUP1 PUSH4 0xA49CF4D EQ PUSH2 0x337D JUMPI DUP1 PUSH4 0xD0B2CA6 EQ PUSH2 0x335E JUMPI DUP1 PUSH4 0x119328D6 EQ PUSH2 0x333D JUMPI DUP1 PUSH4 0x22E69226 EQ PUSH2 0x299A JUMPI DUP1 PUSH4 0x34855D14 EQ PUSH2 0x297D JUMPI DUP1 PUSH4 0x36630CD6 EQ PUSH2 0x291E JUMPI DUP1 PUSH4 0x36CF063A EQ PUSH2 0x2693 JUMPI DUP1 PUSH4 0x3CDB72F1 EQ PUSH2 0x2649 JUMPI DUP1 PUSH4 0x3F4BA83A EQ PUSH2 0x25D7 JUMPI DUP1 PUSH4 0x415F1240 EQ PUSH2 0x228C JUMPI DUP1 PUSH4 0x43859632 EQ PUSH2 0x223F JUMPI DUP1 PUSH4 0x46904840 EQ PUSH2 0x2216 JUMPI DUP1 PUSH4 0x476343EE EQ PUSH2 0x2197 JUMPI DUP1 PUSH4 0x58F85880 EQ PUSH2 0x2179 JUMPI DUP1 PUSH4 0x5C211EFC EQ PUSH2 0x1E55 JUMPI DUP1 PUSH4 0x5C975ABB EQ PUSH2 0x1E2F JUMPI DUP1 PUSH4 0x63825392 EQ PUSH2 0x1CEF JUMPI DUP1 PUSH4 0x6DEDE8EB EQ PUSH2 0x1CC3 JUMPI DUP1 PUSH4 0x6EEF1154 EQ PUSH2 0x1C84 JUMPI DUP1 PUSH4 0x715018A6 EQ PUSH2 0x1C27 JUMPI DUP1 PUSH4 0x75794A3C EQ PUSH2 0x1C09 JUMPI DUP1 PUSH4 0x77E6C4AA EQ PUSH2 0x1A95 JUMPI DUP1 PUSH4 0x7A9FFFB7 EQ PUSH2 0x1A79 JUMPI DUP1 PUSH4 0x8075A8F9 EQ PUSH2 0x1A31 JUMPI DUP1 PUSH4 0x80BB7273 EQ PUSH2 0x19B6 JUMPI DUP1 PUSH4 0x8456CB59 EQ PUSH2 0x1954 JUMPI DUP1 PUSH4 0x87C51459 EQ PUSH2 0x1936 JUMPI DUP1 PUSH4 0x89D99A05 EQ PUSH2 0x1918 JUMPI DUP1 PUSH4 0x8DA5CB5B EQ PUSH2 0x18EF JUMPI DUP1 PUSH4 0x9003ADFE EQ PUSH2 0x18D1 JUMPI DUP1 PUSH4 0x90A8AE9B EQ PUSH2 0x18B5 JUMPI DUP1 PUSH4 0x9772D7EE EQ PUSH2 0x17B7 JUMPI DUP1 PUSH4 0xAB7B1C89 EQ PUSH2 0x13A2 JUMPI DUP1 PUSH4 0xB1610D7E EQ PUSH2 0x1384 JUMPI DUP1 PUSH4 0xB94FE917 EQ PUSH2 0x135A JUMPI DUP1 PUSH4 0xBAD128B6 EQ PUSH2 0x124F JUMPI DUP1 PUSH4 0xBDBFA3DE EQ PUSH2 0x10D7 JUMPI DUP1 PUSH4 0xC6255626 EQ PUSH2 0x1041 JUMPI DUP1 PUSH4 0xC7A6DE4D EQ PUSH2 0xFE8 JUMPI DUP1 PUSH4 0xCAFF6484 EQ PUSH2 0xE9B JUMPI DUP1 PUSH4 0xCBA89B65 EQ PUSH2 0x8AA JUMPI DUP1 PUSH4 0xDAFD06A3 EQ PUSH2 0x5CF JUMPI DUP1 PUSH4 0xE1EC3C68 EQ PUSH2 0x42C JUMPI DUP1 PUSH4 0xE25B1078 EQ PUSH2 0x3F0 JUMPI DUP1 PUSH4 0xE3ED1902 EQ PUSH2 0x398 JUMPI DUP1 PUSH4 0xEC991DA9 EQ PUSH2 0x2E6 JUMPI DUP1 PUSH4 0xF25B9CAA EQ PUSH2 0x2C9 JUMPI PUSH4 0xF2FDE38B EQ PUSH2 0x23B JUMPI PUSH1 0x0 DUP1 REVERT JUMPDEST CALLVALUE PUSH2 0x2C4 JUMPI PUSH1 0x20 CALLDATASIZE PUSH1 0x3 NOT ADD SLT PUSH2 0x2C4 JUMPI PUSH2 0x254 PUSH2 0x34DA JUMP JUMPDEST PUSH2 0x25C PUSH2 0x367C JUMP JUMPDEST PUSH1 0x1 PUSH1 0x1 PUSH1 0xA0 SHL SUB SWAP1 DUP2 AND SWAP1 DUP2 ISZERO PUSH2 0x2AB JUMPI PUSH1 0x1 SLOAD DUP3 PUSH1 0x1 PUSH1 0x1 PUSH1 0x60 SHL SUB PUSH1 0xA0 SHL DUP3 AND OR PUSH1 0x1 SSTORE AND PUSH32 0x8BE0079C531659141344CD1FD0A4F28419497F9722A3DAAFE3B4186F6B6457E0 PUSH1 0x0 DUP1 LOG3 STOP JUMPDEST PUSH1 0x40 MLOAD PUSH4 0x1E4FBDF7 PUSH1 0xE0 SHL DUP2 MSTORE PUSH1 0x0 PUSH1 0x4 DUP3 ADD MSTORE PUSH1 0x24 SWAP1 REVERT JUMPDEST PUSH1 0x0 DUP1 REVERT JUMPDEST CALLVALUE PUSH2 0x2C4 JUMPI PUSH1 0x0 CALLDATASIZE PUSH1 0x3 NOT ADD SLT PUSH2 0x2C4 JUMPI PUSH1 0x20 PUSH1 0x40 MLOAD PUSH2 0xE10 DUP2 MSTORE RETURN JUMPDEST CALLVALUE PUSH2 0x2C4 JUMPI PUSH1 0x20 CALLDATASIZE PUSH1 0x3 NOT ADD SLT PUSH2 0x2C4 JUMPI PUSH1 0x4 CALLDATALOAD PUSH2 0x302 PUSH2 0x367C JUMP JUMPDEST DUP1 PUSH1 0x0 MSTORE PUSH1 0x8 PUSH1 0x20 MSTORE PUSH1 0xFF PUSH1 0x2 PUSH1 0x40 PUSH1 0x0 KECCAK256 ADD SLOAD PUSH1 0x8 SHR AND ISZERO PUSH2 0x360 JUMPI DUP1 PUSH1 0x0 MSTORE PUSH1 0x8 PUSH1 0x20 MSTORE PUSH1 0x2 PUSH1 0x40 PUSH1 0x0 KECCAK256 ADD PUSH2 0xFF00 NOT DUP2 SLOAD AND SWAP1 SSTORE PUSH32 0x76AE93CD7712C8A8B4BA0C1B9F441DDBD9E9CE3E425A93B15E8F6E37D8784FA6 PUSH1 0x0 DUP1 LOG2 STOP JUMPDEST PUSH1 0x40 MLOAD PUSH3 0x461BCD PUSH1 0xE5 SHL DUP2 MSTORE PUSH1 0x20 PUSH1 0x4 DUP3 ADD MSTORE PUSH1 0x10 PUSH1 0x24 DUP3 ADD MSTORE PUSH16 0x546F6B656E206E6F7420616374697665 PUSH1 0x80 SHL PUSH1 0x44 DUP3 ADD MSTORE PUSH1 0x64 SWAP1 REVERT JUMPDEST CALLVALUE PUSH2 0x2C4 JUMPI PUSH1 0x40 CALLDATASIZE PUSH1 0x3 NOT ADD SLT PUSH2 0x2C4 JUMPI PUSH2 0x3B1 PUSH2 0x34DA JUMP JUMPDEST PUSH1 0x1 PUSH1 0x1 PUSH1 0xA0 SHL SUB AND PUSH1 0x0 SWAP1 DUP2 MSTORE PUSH1 0xB PUSH1 0x20 MSTORE PUSH1 0x40 SWAP1 KECCAK256 DUP1 SLOAD PUSH1 0x24 CALLDATALOAD SWAP2 SWAP1 DUP3 LT ISZERO PUSH2 0x2C4 JUMPI PUSH1 0x20 SWAP2 PUSH2 0x3E2 SWAP2 PUSH2 0x3506 JUMP JUMPDEST SWAP1 SLOAD PUSH1 0x40 MLOAD SWAP2 PUSH1 0x3 SHL SHR DUP2 MSTORE RETURN JUMPDEST CALLVALUE PUSH2 0x2C4 JUMPI PUSH2 0x3FE CALLDATASIZE PUSH2 0x34BB JUMP JUMPDEST SWAP1 PUSH1 0x0 MSTORE PUSH1 0xF PUSH1 0x20 MSTORE PUSH1 0x40 PUSH1 0x0 KECCAK256 SWAP1 PUSH2 0x416 DUP2 PUSH2 0x3632 JUMP JUMPDEST PUSH1 0x0 MSTORE PUSH1 0x20 MSTORE PUSH1 0x20 PUSH1 0x40 PUSH1 0x0 KECCAK256 SLOAD PUSH1 0x40 MLOAD SWAP1 DUP2 MSTORE RETURN JUMPDEST CALLVALUE PUSH2 0x2C4 JUMPI PUSH1 0x20 CALLDATASIZE PUSH1 0x3 NOT ADD SLT PUSH2 0x2C4 JUMPI PUSH1 0x4 CALLDATALOAD PUSH1 0x0 MSTORE PUSH1 0x7 PUSH1 0x20 MSTORE PUSH1 0x40 PUSH1 0x0 KECCAK256 DUP1 PUSH1 0xA0 MSTORE DUP1 SLOAD PUSH1 0x80 MSTORE PUSH1 0x1 PUSH1 0xA0 SHL PUSH1 0x1 SWAP1 SUB PUSH1 0x1 DUP3 ADD SLOAD AND PUSH1 0x2 DUP3 ADD SLOAD PUSH2 0x160 MSTORE PUSH1 0x3 DUP3 ADD SLOAD PUSH1 0x4 DUP4 ADD SLOAD PUSH1 0x5 DUP5 ADD SLOAD PUSH1 0x6 DUP6 ADD SLOAD PUSH1 0x7 DUP7 ADD SLOAD PUSH1 0x8 DUP8 ADD SLOAD PUSH1 0x9 DUP9 ADD SLOAD SWAP2 PUSH1 0xA DUP10 ADD SLOAD SWAP4 PUSH1 0xB DUP11 ADD SLOAD SWAP6 PUSH1 0xC DUP12 ADD SLOAD SWAP8 PUSH1 0xD DUP13 ADD SLOAD SWAP10 PUSH1 0xE DUP14 ADD SLOAD PUSH1 0xFF AND SWAP13 PUSH1 0xF ADD PUSH2 0x4BF SWAP1 PUSH2 0x358C JUMP JUMPDEST SWAP12 PUSH1 0xA0 MLOAD PUSH1 0x10 DUP2 ADD SLOAD PUSH2 0x140 MSTORE PUSH1 0x11 DUP2 ADD SLOAD PUSH2 0x120 MSTORE PUSH1 0x12 DUP2 ADD SLOAD PUSH1 0xE0 MSTORE PUSH1 0x13 ADD SLOAD PUSH2 0x100 MSTORE PUSH1 0x40 MLOAD DUP1 PUSH1 0xC0 MSTORE PUSH1 0x80 MLOAD SWAP1 MSTORE PUSH1 0xC0 MLOAD PUSH1 0x20 ADD MSTORE PUSH2 0x160 MLOAD PUSH1 0xC0 MLOAD PUSH1 0x40 ADD MSTORE PUSH1 0xC0 MLOAD PUSH1 0x60 ADD MSTORE PUSH1 0xC0 MLOAD PUSH1 0x80 ADD MSTORE PUSH1 0xC0 MLOAD PUSH1 0xA0 ADD MSTORE PUSH1 0xC0 MLOAD PUSH1 0xC0 ADD MSTORE PUSH1 0xC0 MLOAD PUSH1 0xE0 ADD MSTORE PUSH1 0xC0 MLOAD PUSH2 0x100 ADD MSTORE PUSH1 0xC0 MLOAD PUSH2 0x120 ADD MSTORE PUSH1 0xC0 MLOAD PUSH2 0x140 ADD MSTORE PUSH1 0xC0 MLOAD PUSH2 0x160 ADD MSTORE PUSH1 0xC0 MLOAD PUSH2 0x180 ADD MSTORE PUSH1 0xC0 MLOAD PUSH2 0x1A0 ADD MSTORE PUSH1 0x7 DUP3 LT ISZERO PUSH2 0x5B9 JUMPI PUSH2 0x581 SWAP2 PUSH2 0x1C0 PUSH1 0xC0 MLOAD ADD MSTORE PUSH2 0x280 DUP1 PUSH2 0x1E0 PUSH1 0xC0 MLOAD ADD MSTORE PUSH1 0xC0 MLOAD ADD SWAP1 PUSH2 0x363C JUMP JUMPDEST PUSH2 0x140 MLOAD PUSH2 0x200 PUSH1 0xC0 MLOAD ADD MSTORE PUSH2 0x120 MLOAD PUSH2 0x220 PUSH1 0xC0 MLOAD ADD MSTORE PUSH1 0xE0 MLOAD PUSH2 0x240 PUSH1 0xC0 MLOAD ADD MSTORE PUSH2 0x100 MLOAD PUSH2 0x260 PUSH1 0xC0 MLOAD ADD MSTORE PUSH1 0xC0 MLOAD DUP1 SWAP2 SUB SWAP1 RETURN JUMPDEST PUSH4 0x4E487B71 PUSH1 0xE0 SHL PUSH1 0x0 MSTORE PUSH1 0x21 PUSH1 0x4 MSTORE PUSH1 0x24 PUSH1 0x0 REVERT JUMPDEST CALLVALUE PUSH2 0x2C4 JUMPI PUSH1 0x20 DUP1 PUSH1 0x3 NOT CALLDATASIZE ADD SLT PUSH2 0x2C4 JUMPI PUSH1 0x4 CALLDATALOAD PUSH2 0x5EC PUSH2 0x3B54 JUMP JUMPDEST DUP1 PUSH1 0x0 MSTORE PUSH1 0x7 SWAP2 DUP3 DUP2 MSTORE PUSH1 0x40 PUSH1 0x0 KECCAK256 SWAP1 PUSH1 0xE DUP3 ADD SWAP4 DUP5 SLOAD PUSH1 0xFF SWAP2 DUP3 DUP3 AND DUP2 DUP2 LT ISZERO PUSH2 0x5B9 JUMPI PUSH2 0x86E JUMPI PUSH1 0xA DUP6 ADD SLOAD TIMESTAMP GT ISZERO PUSH2 0x829 JUMPI PUSH1 0x5 DUP6 ADD SWAP3 PUSH1 0x4 DUP5 SLOAD SWAP7 ADD SWAP6 DUP7 SLOAD GT ISZERO PUSH2 0x7F0 JUMPI PUSH1 0x1 SWAP8 DUP9 DUP1 SWAP5 PUSH1 0xFF NOT AND OR SWAP1 SSTORE DUP7 PUSH1 0x0 MSTORE PUSH1 0x9 DUP6 MSTORE PUSH1 0x40 PUSH1 0x0 KECCAK256 SWAP2 DUP3 SLOAD PUSH2 0x65B DUP2 PUSH2 0x3BF7 JUMP JUMPDEST SWAP4 PUSH2 0x669 PUSH1 0x40 MLOAD SWAP6 DUP7 PUSH2 0x3404 JUMP JUMPDEST DUP2 DUP6 MSTORE PUSH1 0x0 SWAP1 DUP2 MSTORE DUP8 DUP2 KECCAK256 DUP7 DUP10 DUP8 ADD JUMPDEST DUP11 DUP6 DUP6 LT PUSH2 0x7AC JUMPI POP POP SWAP3 POP POP POP PUSH1 0x0 SWAP1 JUMPDEST PUSH2 0x6D3 JUMPI JUMPDEST DUP5 DUP10 PUSH32 0x77F7E7D85860B4290E437C62570324DDD92C9BB185EC5A51FBEC45BC8D15503 PUSH1 0x40 DUP12 DUP12 DUP12 PUSH2 0x6C1 DUP7 PUSH2 0x3FEF JUMP JUMPDEST SLOAD SWAP2 SLOAD SWAP1 DUP4 MLOAD SWAP3 DUP4 MSTORE DUP3 ADD MSTORE LOG2 PUSH1 0x0 SSTORE STOP JUMPDEST DUP4 MLOAD DUP2 LT ISZERO PUSH2 0x7A7 JUMPI PUSH2 0x784 SWAP1 PUSH1 0x1 PUSH1 0x1 PUSH1 0xA0 SHL SUB DUP11 PUSH32 0x7A482FDEB6BC9A1376F597068A214A7A39472BB2EFF1B8CAD21BA04F49DDCA1B DUP11 DUP4 PUSH2 0x716 DUP7 DUP12 PUSH2 0x3C0F JUMP JUMPDEST MLOAD MLOAD AND SWAP4 DUP2 PUSH2 0x725 DUP8 DUP13 PUSH2 0x3C0F JUMP JUMPDEST MLOAD ADD MLOAD SWAP1 DUP5 PUSH1 0x0 MSTORE DUP9 DUP4 MSTORE DUP2 DUP7 PUSH1 0x2 PUSH1 0x40 PUSH1 0x0 KECCAK256 ADD SLOAD SWAP3 DUP4 PUSH1 0x0 MSTORE PUSH1 0x8 DUP1 DUP8 MSTORE DUP14 PUSH1 0x40 PUSH1 0x0 KECCAK256 SLOAD AND PUSH2 0x756 DUP2 PUSH2 0x3632 JUMP JUMPDEST PUSH2 0x78A JUMPI POP POP PUSH2 0x778 SWAP3 POP PUSH1 0x0 DUP1 DUP1 SWAP4 DUP2 SWAP4 GAS CALL PUSH2 0x772 PUSH2 0x3B77 JUMP JUMPDEST POP PUSH2 0x3FB3 JUMP JUMPDEST PUSH1 0x40 MLOAD SWAP1 DUP2 MSTORE LOG3 PUSH2 0x36A8 JUMP JUMPDEST DUP5 PUSH2 0x68B JUMP JUMPDEST PUSH2 0x7A2 SWAP5 PUSH1 0x0 MSTORE DUP1 DUP8 MSTORE PUSH1 0x40 PUSH1 0x0 KECCAK256 SLOAD SWAP1 SHR AND PUSH2 0x3BA7 JUMP JUMPDEST PUSH2 0x778 JUMP JUMPDEST PUSH2 0x690 JUMP JUMPDEST PUSH1 0x3 SWAP2 PUSH1 0x40 MLOAD PUSH2 0x7BB DUP2 PUSH2 0x33E8 JUMP JUMPDEST DUP6 SLOAD PUSH1 0x1 PUSH1 0x1 PUSH1 0xA0 SHL SUB AND DUP2 MSTORE DUP5 DUP7 ADD SLOAD DUP4 DUP3 ADD MSTORE PUSH1 0x2 DUP7 ADD SLOAD DUP11 AND ISZERO ISZERO PUSH1 0x40 DUP3 ADD MSTORE DUP2 MSTORE SWAP5 SWAP1 SWAP3 ADD SWAP4 SWAP3 ADD SWAP2 DUP9 SWAP2 ADD PUSH2 0x679 JUMP JUMPDEST PUSH1 0x40 MLOAD PUSH3 0x461BCD PUSH1 0xE5 SHL DUP2 MSTORE PUSH1 0x4 DUP2 ADD DUP7 SWAP1 MSTORE PUSH1 0x11 PUSH1 0x24 DUP3 ADD MSTORE PUSH17 0x131BD85B88199D5B1B1E48199D5B991959 PUSH1 0x7A SHL PUSH1 0x44 DUP3 ADD MSTORE PUSH1 0x64 SWAP1 REVERT JUMPDEST PUSH1 0x40 MLOAD PUSH3 0x461BCD PUSH1 0xE5 SHL DUP2 MSTORE PUSH1 0x4 DUP2 ADD DUP6 SWAP1 MSTORE PUSH1 0x18 PUSH1 0x24 DUP3 ADD MSTORE PUSH32 0x46756E64696E6720706572696F64206E6F7420656E6465640000000000000000 PUSH1 0x44 DUP3 ADD MSTORE PUSH1 0x64 SWAP1 REVERT JUMPDEST PUSH1 0x40 MLOAD PUSH3 0x461BCD PUSH1 0xE5 SHL DUP2 MSTORE PUSH1 0x4 DUP2 ADD DUP6 SWAP1 MSTORE PUSH1 0x14 PUSH1 0x24 DUP3 ADD MSTORE PUSH20 0x4E6F7420696E2066756E64696E67207374617465 PUSH1 0x60 SHL PUSH1 0x44 DUP3 ADD MSTORE PUSH1 0x64 SWAP1 REVERT JUMPDEST PUSH2 0x8B3 CALLDATASIZE PUSH2 0x33B6 JUMP JUMPDEST SWAP1 PUSH2 0x8BC PUSH2 0x3B54 JUMP JUMPDEST PUSH2 0x8C4 PUSH2 0x3B33 JUMP JUMPDEST DUP1 PUSH1 0x0 MSTORE PUSH1 0x20 PUSH1 0x7 DUP2 MSTORE PUSH1 0x40 PUSH1 0x0 KECCAK256 SWAP3 PUSH1 0x1 DUP1 PUSH1 0xA0 SHL SUB PUSH1 0x1 SWAP5 DUP2 DUP7 DUP3 ADD SLOAD AND PUSH2 0x8EF DUP2 ISZERO ISZERO PUSH2 0x36B7 JUMP JUMPDEST PUSH1 0xFF PUSH1 0xE DUP4 ADD SLOAD AND PUSH1 0x7 DUP2 LT ISZERO PUSH2 0x5B9 JUMPI PUSH2 0xE61 JUMPI PUSH1 0xA DUP3 ADD SLOAD TIMESTAMP GT PUSH2 0xE1C JUMPI CALLER EQ PUSH2 0xDE0 JUMPI PUSH1 0x9 DUP2 ADD SLOAD SWAP1 DUP2 DUP5 LT PUSH2 0xD9B JUMPI PUSH1 0x4 DUP2 ADD SWAP1 DUP2 SLOAD SWAP3 PUSH2 0x93A PUSH1 0x5 DUP4 ADD SWAP5 DUP6 SLOAD SWAP1 PUSH2 0x3752 JUMP JUMPDEST SWAP1 DUP2 DUP8 GT PUSH2 0xD56 JUMPI DUP7 PUSH2 0x94D DUP2 DUP5 PUSH2 0x3752 JUMP JUMPDEST ISZERO ISZERO SWAP3 DUP4 PUSH2 0xD42 JUMPI JUMPDEST POP POP POP PUSH2 0xCE9 JUMPI PUSH1 0x2 ADD SLOAD SWAP4 DUP5 PUSH1 0x0 MSTORE PUSH1 0x8 SWAP5 DUP6 DUP8 MSTORE PUSH1 0xFF PUSH1 0x40 PUSH1 0x0 KECCAK256 SLOAD AND PUSH2 0x97E DUP2 PUSH2 0x3632 JUMP JUMPDEST PUSH2 0xC7D JUMPI POP DUP1 CALLVALUE SUB PUSH2 0xC41 JUMPI JUMPDEST DUP7 PUSH1 0x0 MSTORE PUSH1 0x9 DUP7 MSTORE PUSH1 0x40 PUSH1 0x0 KECCAK256 PUSH1 0x40 MLOAD SWAP1 PUSH2 0x9A5 DUP3 PUSH2 0x33E8 JUMP JUMPDEST CALLER DUP3 MSTORE DUP8 DUP3 ADD SWAP2 DUP4 DUP4 MSTORE PUSH1 0x40 DUP2 ADD SWAP2 PUSH1 0x0 DUP4 MSTORE DUP1 SLOAD PUSH1 0x1 PUSH1 0x40 SHL DUP2 LT ISZERO PUSH2 0xC2B JUMPI PUSH2 0x9D4 SWAP2 DUP14 DUP3 ADD DUP2 SSTORE PUSH2 0x3489 JUMP JUMPDEST SWAP3 SWAP1 SWAP3 PUSH2 0xC15 JUMPI PUSH2 0xA11 SWAP4 DUP9 PUSH1 0x2 SWAP4 MLOAD AND PUSH1 0x1 PUSH1 0x1 PUSH1 0x60 SHL SUB PUSH1 0xA0 SHL DUP6 SLOAD AND OR DUP5 SSTORE MLOAD DUP13 DUP5 ADD SSTORE MLOAD ISZERO ISZERO SWAP2 ADD SWAP1 PUSH1 0xFF DUP1 NOT DUP4 SLOAD AND SWAP2 ISZERO ISZERO AND OR SWAP1 SSTORE JUMP JUMPDEST DUP7 PUSH1 0x0 MSTORE PUSH1 0x9 DUP7 MSTORE PUSH1 0x40 PUSH1 0x0 KECCAK256 SLOAD PUSH1 0x0 NOT DUP2 ADD SWAP1 DUP2 GT PUSH2 0xBFF JUMPI DUP8 PUSH1 0x0 MSTORE PUSH1 0xA DUP8 MSTORE PUSH1 0x40 PUSH1 0x0 KECCAK256 CALLER PUSH1 0x0 MSTORE DUP8 MSTORE PUSH1 0x40 PUSH1 0x0 KECCAK256 SSTORE PUSH1 0xC DUP7 MSTORE PUSH2 0xA56 DUP8 PUSH1 0x40 PUSH1 0x0 KECCAK256 PUSH2 0x3A4D JUMP JUMPDEST PUSH2 0xA61 DUP2 DUP5 SLOAD PUSH2 0x3A40 JUMP JUMPDEST DUP1 SWAP4 SSTORE PUSH1 0x40 MLOAD SWAP1 DUP2 MSTORE DUP3 DUP7 DUP3 ADD MSTORE DUP7 PUSH32 0x99F1C95E4132B33CAD7CBBD49D5EFA1AA01DB71EDBAB6F05C01FB2323875AD14 PUSH1 0x40 CALLER SWAP4 LOG3 SLOAD EQ PUSH2 0xAA4 JUMPI JUMPDEST PUSH1 0x0 DUP6 SWAP1 SSTORE STOP JUMPDEST DUP4 PUSH1 0x0 MSTORE PUSH1 0x7 DUP4 MSTORE PUSH1 0x40 PUSH1 0x0 KECCAK256 SWAP2 PUSH1 0xE DUP4 ADD PUSH1 0x2 PUSH1 0xFF NOT DUP3 SLOAD AND OR SWAP1 SSTORE TIMESTAMP PUSH1 0xC DUP5 ADD SSTORE PUSH2 0xAD4 DUP2 DUP5 ADD SLOAD TIMESTAMP PUSH2 0x3A40 JUMP JUMPDEST PUSH1 0xD DUP5 ADD SSTORE PUSH1 0x2 DUP4 ADD SLOAD DUP1 PUSH1 0x0 MSTORE DUP2 DUP6 MSTORE PUSH1 0xFF PUSH1 0x40 PUSH1 0x0 KECCAK256 SLOAD AND PUSH2 0xAF7 DUP2 PUSH2 0x3632 JUMP JUMPDEST PUSH2 0xBAE JUMPI POP POP PUSH1 0x0 DUP1 DUP1 DUP1 SWAP4 DUP9 DUP7 ADD SLOAD AND PUSH1 0x4 DUP7 ADD SLOAD SWAP1 GAS CALL PUSH2 0xB18 PUSH2 0x3B77 JUMP JUMPDEST POP ISZERO PUSH2 0xB69 JUMPI PUSH32 0xB96BADA2A4E2E402AAA472B5E783A9D8BB13D996387DF6BEEA608680B31FF46F SWAP2 PUSH1 0x4 PUSH1 0x40 SWAP3 JUMPDEST ADD SLOAD SWAP1 DUP5 PUSH1 0x0 MSTORE PUSH1 0x9 DUP2 MSTORE DUP3 PUSH1 0x0 KECCAK256 SLOAD SWAP1 DUP4 MLOAD SWAP3 DUP4 MSTORE DUP3 ADD MSTORE LOG2 DUP2 DUP1 DUP1 DUP1 PUSH2 0xA9D JUMP JUMPDEST PUSH1 0x40 MLOAD PUSH3 0x461BCD PUSH1 0xE5 SHL DUP2 MSTORE PUSH1 0x4 DUP2 ADD DUP4 SWAP1 MSTORE PUSH1 0x1B PUSH1 0x24 DUP3 ADD MSTORE PUSH32 0x5472616E7366657220746F20626F72726F776572206661696C65640000000000 PUSH1 0x44 DUP3 ADD MSTORE PUSH1 0x64 SWAP1 REVERT JUMPDEST SWAP3 PUSH2 0xBFA DUP4 PUSH32 0xB96BADA2A4E2E402AAA472B5E783A9D8BB13D996387DF6BEEA608680B31FF46F SWAP7 SWAP5 PUSH1 0x4 SWAP5 PUSH1 0x40 SWAP8 PUSH1 0x0 MSTORE DUP1 DUP8 MSTORE DUP8 PUSH1 0x0 KECCAK256 SLOAD SWAP1 SHR AND SWAP1 DUP10 DUP5 ADD SLOAD AND DUP5 DUP5 ADD SLOAD SWAP2 PUSH2 0x3BA7 JUMP JUMPDEST PUSH2 0xB46 JUMP JUMPDEST PUSH4 0x4E487B71 PUSH1 0xE0 SHL PUSH1 0x0 MSTORE PUSH1 0x11 PUSH1 0x4 MSTORE PUSH1 0x24 PUSH1 0x0 REVERT JUMPDEST PUSH4 0x4E487B71 PUSH1 0xE0 SHL PUSH1 0x0 MSTORE PUSH1 0x0 PUSH1 0x4 MSTORE PUSH1 0x24 PUSH1 0x0 REVERT JUMPDEST PUSH4 0x4E487B71 PUSH1 0xE0 SHL PUSH1 0x0 MSTORE PUSH1 0x41 PUSH1 0x4 MSTORE PUSH1 0x24 PUSH1 0x0 REVERT JUMPDEST PUSH1 0x40 MLOAD PUSH3 0x461BCD PUSH1 0xE5 SHL DUP2 MSTORE PUSH1 0x4 DUP2 ADD DUP8 SWAP1 MSTORE PUSH1 0x14 PUSH1 0x24 DUP3 ADD MSTORE PUSH20 0x125B98DBDC9C9958DD0811551208185B5BDD5B9D PUSH1 0x62 SHL PUSH1 0x44 DUP3 ADD MSTORE PUSH1 0x64 SWAP1 REVERT JUMPDEST CALLVALUE PUSH2 0xCA4 JUMPI PUSH1 0x0 MSTORE DUP5 DUP7 MSTORE PUSH2 0xC9F DUP2 DUP6 PUSH1 0x40 PUSH1 0x0 KECCAK256 SLOAD DUP9 SHR AND ADDRESS SWAP1 CALLER SWAP1 PUSH2 0x3A82 JUMP JUMPDEST PUSH2 0x98B JUMP JUMPDEST PUSH1 0x40 MLOAD PUSH3 0x461BCD PUSH1 0xE5 SHL DUP2 MSTORE PUSH1 0x4 DUP2 ADD DUP9 SWAP1 MSTORE PUSH1 0x1D PUSH1 0x24 DUP3 ADD MSTORE PUSH32 0x455448206E6F74206E656564656420666F72204552433230206C6F616E000000 PUSH1 0x44 DUP3 ADD MSTORE PUSH1 0x64 SWAP1 REVERT JUMPDEST PUSH1 0x40 MLOAD PUSH3 0x461BCD PUSH1 0xE5 SHL DUP2 MSTORE PUSH1 0x4 DUP2 ADD DUP8 SWAP1 MSTORE PUSH1 0x2B PUSH1 0x24 DUP3 ADD MSTORE PUSH32 0x576F756C64206C6561766520616D6F756E742062656C6F77206D696E696D756D PUSH1 0x44 DUP3 ADD MSTORE PUSH11 0x20666F72206F7468657273 PUSH1 0xA8 SHL PUSH1 0x64 DUP3 ADD MSTORE PUSH1 0x84 SWAP1 REVERT JUMPDEST PUSH2 0xD4D SWAP3 SWAP4 POP PUSH2 0x3752 JUMP JUMPDEST LT DUP10 DUP7 DUP2 PUSH2 0x956 JUMP JUMPDEST PUSH1 0x40 MLOAD PUSH3 0x461BCD PUSH1 0xE5 SHL DUP2 MSTORE PUSH1 0x4 DUP2 ADD DUP10 SWAP1 MSTORE PUSH1 0x18 PUSH1 0x24 DUP3 ADD MSTORE PUSH32 0x457863656564732072656D61696E696E6720616D6F756E740000000000000000 PUSH1 0x44 DUP3 ADD MSTORE PUSH1 0x64 SWAP1 REVERT JUMPDEST PUSH1 0x40 MLOAD PUSH3 0x461BCD PUSH1 0xE5 SHL DUP2 MSTORE PUSH1 0x4 DUP2 ADD DUP7 SWAP1 MSTORE PUSH1 0x1A PUSH1 0x24 DUP3 ADD MSTORE PUSH32 0x42656C6F77206D696E696D756D20636F6E747269627574696F6E000000000000 PUSH1 0x44 DUP3 ADD MSTORE PUSH1 0x64 SWAP1 REVERT JUMPDEST PUSH1 0x40 MLOAD PUSH3 0x461BCD PUSH1 0xE5 SHL DUP2 MSTORE PUSH1 0x4 DUP2 ADD DUP6 SWAP1 MSTORE PUSH1 0x14 PUSH1 0x24 DUP3 ADD MSTORE PUSH20 0x21B0B73737BA10333AB7321037BBB7103637B0B7 PUSH1 0x61 SHL PUSH1 0x44 DUP3 ADD MSTORE PUSH1 0x64 SWAP1 REVERT JUMPDEST PUSH1 0x40 MLOAD PUSH3 0x461BCD PUSH1 0xE5 SHL DUP2 MSTORE PUSH1 0x4 DUP2 ADD DUP7 SWAP1 MSTORE PUSH1 0x17 PUSH1 0x24 DUP3 ADD MSTORE PUSH32 0x46756E64696E6720646561646C696E6520706173736564000000000000000000 PUSH1 0x44 DUP3 ADD MSTORE PUSH1 0x64 SWAP1 REVERT JUMPDEST PUSH1 0x40 MLOAD PUSH3 0x461BCD PUSH1 0xE5 SHL DUP2 MSTORE PUSH1 0x4 DUP2 ADD DUP7 SWAP1 MSTORE PUSH1 0x12 PUSH1 0x24 DUP3 ADD MSTORE PUSH18 0x4C6F616E206E6F7420617661696C61626C65 PUSH1 0x70 SHL PUSH1 0x44 DUP3 ADD MSTORE PUSH1 0x64 SWAP1 REVERT JUMPDEST CALLVALUE PUSH2 0x2C4 JUMPI PUSH1 0x20 DUP1 PUSH1 0x3 NOT CALLDATASIZE ADD SLT PUSH2 0x2C4 JUMPI PUSH1 0x4 CALLDATALOAD SWAP1 PUSH2 0xEB9 PUSH2 0x3B54 JUMP JUMPDEST DUP2 PUSH1 0x0 MSTORE PUSH1 0x7 DUP2 MSTORE PUSH1 0xE PUSH1 0x40 PUSH1 0x0 KECCAK256 ADD DUP1 SLOAD SWAP1 PUSH1 0xFF DUP3 AND PUSH1 0x7 DUP2 LT ISZERO PUSH2 0x5B9 JUMPI PUSH1 0x6 PUSH2 0xEE5 SWAP2 EQ PUSH2 0x3E3B JUMP JUMPDEST DUP4 PUSH1 0x0 MSTORE PUSH1 0x11 DUP4 MSTORE PUSH1 0x40 PUSH1 0x0 KECCAK256 SLOAD TIMESTAMP GT ISZERO PUSH2 0xFAD JUMPI SWAP1 PUSH32 0xB6D0D13889BD27EA4546C2B38E63C4CA45F6FD27B5DB622033F3F0840C103FF6 SWAP3 SWAP2 DUP5 PUSH1 0x0 MSTORE PUSH1 0xF DUP4 MSTORE PUSH1 0x40 PUSH1 0x0 KECCAK256 PUSH1 0x0 DUP1 MSTORE DUP4 MSTORE PUSH1 0x40 PUSH1 0x0 KECCAK256 SLOAD DUP6 PUSH1 0x0 MSTORE PUSH1 0xF DUP5 MSTORE PUSH1 0x40 PUSH1 0x0 KECCAK256 PUSH1 0x1 PUSH1 0x0 MSTORE DUP5 MSTORE PUSH1 0x40 PUSH1 0x0 KECCAK256 SLOAD GT ISZERO PUSH1 0x0 EQ PUSH2 0xFA3 JUMPI PUSH1 0x4 PUSH1 0x0 SWAP3 JUMPDEST PUSH1 0xFF NOT AND OR SWAP1 SSTORE PUSH2 0xF70 DUP2 PUSH2 0x3632 JUMP JUMPDEST DUP1 PUSH2 0xF95 JUMPI PUSH2 0xF7E DUP5 PUSH2 0x3E7D JUMP JUMPDEST PUSH1 0x40 MLOAD SWAP1 PUSH2 0xF8B DUP2 PUSH2 0x3632 JUMP JUMPDEST DUP2 MSTORE LOG2 PUSH1 0x1 PUSH1 0x0 SSTORE STOP JUMPDEST PUSH2 0xF9E DUP5 PUSH2 0x3E7D JUMP JUMPDEST PUSH2 0xF7E JUMP JUMPDEST PUSH1 0x4 PUSH1 0x1 SWAP3 PUSH2 0xF60 JUMP JUMPDEST PUSH1 0x40 MLOAD PUSH3 0x461BCD PUSH1 0xE5 SHL DUP2 MSTORE PUSH1 0x4 DUP2 ADD DUP5 SWAP1 MSTORE PUSH1 0x13 PUSH1 0x24 DUP3 ADD MSTORE PUSH19 0x566F74696E67207374696C6C20616374697665 PUSH1 0x68 SHL PUSH1 0x44 DUP3 ADD MSTORE PUSH1 0x64 SWAP1 REVERT JUMPDEST CALLVALUE PUSH2 0x2C4 JUMPI PUSH1 0x40 CALLDATASIZE PUSH1 0x3 NOT ADD SLT PUSH2 0x2C4 JUMPI PUSH2 0x1001 PUSH2 0x34DA JUMP JUMPDEST PUSH1 0x24 CALLDATALOAD DUP1 ISZERO ISZERO DUP2 SUB PUSH2 0x2C4 JUMPI PUSH2 0x103F SWAP2 PUSH2 0x1019 PUSH2 0x367C JUMP JUMPDEST PUSH1 0x1 DUP1 PUSH1 0xA0 SHL SUB AND PUSH1 0x0 MSTORE PUSH1 0xE PUSH1 0x20 MSTORE PUSH1 0x40 PUSH1 0x0 KECCAK256 SWAP1 PUSH1 0xFF DUP1 NOT DUP4 SLOAD AND SWAP2 ISZERO ISZERO AND OR SWAP1 SSTORE JUMP JUMPDEST STOP JUMPDEST CALLVALUE PUSH2 0x2C4 JUMPI PUSH1 0x20 CALLDATASIZE PUSH1 0x3 NOT ADD SLT PUSH2 0x2C4 JUMPI PUSH1 0x4 CALLDATALOAD PUSH1 0x0 MSTORE PUSH1 0x8 PUSH1 0x20 MSTORE PUSH1 0x40 PUSH1 0x0 KECCAK256 DUP1 SLOAD PUSH1 0xFF DUP2 AND SWAP1 PUSH1 0x2 PUSH2 0x1077 PUSH1 0x1 DUP6 ADD PUSH2 0x358C JUMP JUMPDEST SWAP4 ADD SLOAD SWAP1 PUSH2 0x10B2 PUSH1 0x40 MLOAD SWAP5 DUP5 PUSH2 0x108D DUP8 SWAP7 PUSH2 0x3632 JUMP JUMPDEST DUP6 MSTORE PUSH1 0x1 DUP1 PUSH1 0xA0 SHL SUB DUP1 SWAP4 PUSH1 0x8 SHR AND PUSH1 0x20 DUP7 ADD MSTORE PUSH1 0xC0 PUSH1 0x40 DUP7 ADD MSTORE PUSH1 0xC0 DUP6 ADD SWAP1 PUSH2 0x363C JUMP JUMPDEST SWAP2 PUSH1 0xFF DUP2 AND PUSH1 0x60 DUP6 ADD MSTORE PUSH1 0xFF DUP2 PUSH1 0x8 SHR AND ISZERO ISZERO PUSH1 0x80 DUP6 ADD MSTORE PUSH1 0x10 SHR AND PUSH1 0xA0 DUP4 ADD MSTORE SUB SWAP1 RETURN JUMPDEST CALLVALUE PUSH2 0x2C4 JUMPI PUSH1 0x20 CALLDATASIZE PUSH1 0x3 NOT ADD SLT PUSH2 0x2C4 JUMPI PUSH1 0x4 CALLDATALOAD PUSH2 0x10F3 PUSH2 0x3B54 JUMP JUMPDEST PUSH1 0x0 DUP2 DUP2 MSTORE PUSH1 0x7 PUSH1 0x20 MSTORE PUSH1 0x40 SWAP1 KECCAK256 PUSH1 0x1 DUP2 ADD SLOAD PUSH1 0x1 PUSH1 0x1 PUSH1 0xA0 SHL SUB AND CALLER SUB PUSH2 0x120A JUMPI PUSH1 0xE DUP2 ADD SWAP1 DUP2 SLOAD SWAP1 PUSH1 0xFF DUP3 AND PUSH1 0x7 DUP2 LT ISZERO PUSH2 0x5B9 JUMPI PUSH2 0x11C5 JUMPI PUSH1 0x5 ADD SLOAD PUSH2 0x1174 JUMPI PUSH1 0xFF NOT AND PUSH1 0x5 OR SWAP1 SSTORE PUSH2 0x1148 DUP2 PUSH2 0x3FEF JUMP JUMPDEST PUSH32 0xB71BECC91961A6B43BCC5B3B630F3DCE02C7FD444CF3738C4F188062B1CAF5BC PUSH1 0x0 DUP1 LOG2 PUSH1 0x1 PUSH1 0x0 SSTORE STOP JUMPDEST PUSH1 0x40 MLOAD PUSH3 0x461BCD PUSH1 0xE5 SHL DUP2 MSTORE PUSH1 0x20 PUSH1 0x4 DUP3 ADD MSTORE PUSH1 0x23 PUSH1 0x24 DUP3 ADD MSTORE PUSH32 0x43616E6E6F742063616E63656C207061727469616C6C792066756E646564206C PUSH1 0x44 DUP3 ADD MSTORE PUSH3 0x37B0B7 PUSH1 0xE9 SHL PUSH1 0x64 DUP3 ADD MSTORE PUSH1 0x84 SWAP1 REVERT JUMPDEST PUSH1 0x40 MLOAD PUSH3 0x461BCD PUSH1 0xE5 SHL DUP2 MSTORE PUSH1 0x20 PUSH1 0x4 DUP3 ADD MSTORE PUSH1 0x1E PUSH1 0x24 DUP3 ADD MSTORE PUSH32 0x43616E206F6E6C792063616E63656C20756E66756E646564206C6F616E730000 PUSH1 0x44 DUP3 ADD MSTORE PUSH1 0x64 SWAP1 REVERT JUMPDEST PUSH1 0x40 MLOAD PUSH3 0x461BCD PUSH1 0xE5 SHL DUP2 MSTORE PUSH1 0x20 PUSH1 0x4 DUP3 ADD MSTORE PUSH1 0x18 PUSH1 0x24 DUP3 ADD MSTORE PUSH32 0x4F6E6C7920626F72726F7765722063616E2063616E63656C0000000000000000 PUSH1 0x44 DUP3 ADD MSTORE PUSH1 0x64 SWAP1 REVERT JUMPDEST CALLVALUE PUSH2 0x2C4 JUMPI PUSH2 0x125D CALLDATASIZE PUSH2 0x33B6 JUMP JUMPDEST CALLER PUSH1 0x0 MSTORE PUSH1 0x20 SWAP1 PUSH1 0xE DUP3 MSTORE PUSH1 0xFF PUSH1 0x40 PUSH1 0x0 KECCAK256 SLOAD AND ISZERO PUSH2 0x131D JUMPI PUSH2 0x3E8 DUP2 GT PUSH2 0x12E3 JUMPI PUSH1 0x0 DUP4 DUP2 MSTORE PUSH1 0x7 DUP4 MSTORE PUSH1 0x40 SWAP1 KECCAK256 PUSH1 0x1 ADD SLOAD PUSH32 0x48ADB4ACAE9076E27F3DD76AAE95808BB8F40CAF101B9D074B3B89E67602CC4F SWAP3 SWAP2 SWAP1 PUSH2 0x12C8 SWAP1 PUSH1 0x1 PUSH1 0x1 PUSH1 0xA0 SHL SUB AND ISZERO ISZERO PUSH2 0x36B7 JUMP JUMPDEST DUP4 PUSH1 0x0 MSTORE PUSH1 0x7 DUP3 MSTORE DUP1 PUSH1 0x10 PUSH1 0x40 PUSH1 0x0 KECCAK256 ADD SSTORE PUSH1 0x40 MLOAD SWAP1 DUP2 MSTORE LOG2 STOP JUMPDEST PUSH1 0x40 MLOAD PUSH3 0x461BCD PUSH1 0xE5 SHL DUP2 MSTORE PUSH1 0x4 DUP2 ADD DUP4 SWAP1 MSTORE PUSH1 0x12 PUSH1 0x24 DUP3 ADD MSTORE PUSH18 0x496E76616C6964207269736B2073636F7265 PUSH1 0x70 SHL PUSH1 0x44 DUP3 ADD MSTORE PUSH1 0x64 SWAP1 REVERT JUMPDEST PUSH1 0x40 MLOAD PUSH3 0x461BCD PUSH1 0xE5 SHL DUP2 MSTORE PUSH1 0x4 DUP2 ADD DUP4 SWAP1 MSTORE PUSH1 0x15 PUSH1 0x24 DUP3 ADD MSTORE PUSH21 0x4E6F7420617574686F72697A6564206F7261636C65 PUSH1 0x58 SHL PUSH1 0x44 DUP3 ADD MSTORE PUSH1 0x64 SWAP1 REVERT JUMPDEST CALLVALUE PUSH2 0x2C4 JUMPI PUSH1 0x20 CALLDATASIZE PUSH1 0x3 NOT ADD SLT PUSH2 0x2C4 JUMPI PUSH1 0x40 PUSH2 0x1378 PUSH1 0x4 CALLDATALOAD PUSH2 0x375F JUMP JUMPDEST DUP3 MLOAD SWAP2 DUP3 MSTORE PUSH1 0x20 DUP3 ADD MSTORE RETURN JUMPDEST CALLVALUE PUSH2 0x2C4 JUMPI PUSH1 0x0 CALLDATASIZE PUSH1 0x3 NOT ADD SLT PUSH2 0x2C4 JUMPI PUSH1 0x20 PUSH1 0x40 MLOAD PUSH3 0x3F480 DUP2 MSTORE RETURN JUMPDEST PUSH1 0x20 DUP1 PUSH1 0x3 NOT CALLDATASIZE ADD SLT PUSH2 0x2C4 JUMPI PUSH1 0x4 CALLDATALOAD SWAP1 PUSH2 0x13BB PUSH2 0x3B54 JUMP JUMPDEST PUSH1 0x0 DUP3 DUP2 MSTORE PUSH1 0x7 DUP3 MSTORE PUSH1 0x40 SWAP1 KECCAK256 PUSH1 0x1 DUP2 ADD DUP1 SLOAD PUSH1 0x1 PUSH1 0x1 PUSH1 0xA0 SHL SUB SWAP3 SWAP1 DUP4 AND CALLER SUB PUSH2 0x1772 JUMPI PUSH1 0xE DUP2 ADD PUSH1 0xFF DUP2 SLOAD AND PUSH1 0x7 DUP2 LT ISZERO PUSH2 0x5B9 JUMPI PUSH1 0x2 PUSH2 0x13FE SWAP2 EQ PUSH2 0x3C23 JUMP JUMPDEST PUSH1 0xD DUP3 ADD SLOAD SWAP1 DUP2 TIMESTAMP LT DUP1 SWAP3 DUP2 ISZERO PUSH2 0x175A JUMPI JUMPDEST POP ISZERO PUSH2 0x1721 JUMPI PUSH1 0x4 DUP4 ADD SLOAD PUSH2 0x2710 SWAP1 PUSH2 0x1438 DUP3 PUSH2 0x1431 PUSH1 0x7 DUP9 ADD SLOAD DUP5 PUSH2 0x395C JUMP JUMPDEST DIV DUP3 PUSH2 0x3A40 JUMP JUMPDEST SWAP4 DUP1 PUSH2 0x1714 JUMPI JUMPDEST PUSH2 0x16F0 JUMPI JUMPDEST POP POP PUSH1 0x12 DUP4 ADD SWAP2 PUSH1 0x2 PUSH2 0x1458 DUP5 SLOAD DUP4 PUSH2 0x3752 JUMP JUMPDEST SWAP5 ADD SWAP3 DUP4 SLOAD SWAP1 DUP2 PUSH1 0x0 MSTORE PUSH1 0x8 DUP10 MSTORE PUSH1 0xFF PUSH1 0x40 PUSH1 0x0 KECCAK256 SLOAD AND PUSH2 0x1478 DUP2 PUSH2 0x3632 JUMP JUMPDEST PUSH2 0x16E9 JUMPI CALLVALUE SWAP2 JUMPDEST DUP3 ISZERO ISZERO DUP1 PUSH2 0x16DF JUMPI JUMPDEST ISZERO PUSH2 0x169A JUMPI PUSH1 0x40 DUP12 SWAP3 DUP3 PUSH32 0x919E2311CB8F85978E6F84AE3D90A27EDC48DC6CA722D47302DF171A808FD702 SWAP4 PUSH1 0x0 MSTORE PUSH1 0x8 DUP14 MSTORE PUSH1 0x1 PUSH1 0xFF DUP5 PUSH1 0x0 KECCAK256 SLOAD AND PUSH2 0x14CE DUP2 PUSH2 0x3632 JUMP JUMPDEST EQ PUSH2 0x1676 JUMPI JUMPDEST POP PUSH2 0x14E0 DUP6 DUP3 SLOAD PUSH2 0x3A40 JUMP JUMPDEST DUP2 SSTORE PUSH2 0x14EC DUP6 DUP6 PUSH2 0x3C61 JUMP JUMPDEST SLOAD SWAP4 DUP2 MLOAD SWAP1 DUP2 MSTORE DUP5 DUP13 DUP3 ADD MSTORE LOG2 LT ISZERO PUSH2 0x1507 JUMPI JUMPDEST PUSH1 0x1 PUSH1 0x0 SSTORE STOP JUMPDEST PUSH1 0x3 PUSH1 0xFF NOT DUP3 SLOAD AND OR SWAP1 SSTORE SLOAD PUSH1 0x0 MSTORE PUSH1 0x8 DUP5 MSTORE PUSH1 0xFF PUSH1 0x40 PUSH1 0x0 KECCAK256 SLOAD AND PUSH2 0x152C DUP2 PUSH2 0x3632 JUMP JUMPDEST ISZERO DUP1 PUSH2 0x166D JUMPI JUMPDEST PUSH2 0x160B JUMPI JUMPDEST POP PUSH2 0x1542 DUP5 PUSH2 0x3FEF JUMP JUMPDEST SLOAD AND SWAP1 DUP2 PUSH1 0x0 MSTORE PUSH1 0xD DUP2 MSTORE PUSH1 0x40 PUSH1 0x0 KECCAK256 SWAP1 PUSH1 0x1 DUP3 ADD PUSH2 0x1567 DUP2 SLOAD DUP1 ISZERO PUSH2 0x1601 JUMPI PUSH2 0x36A8 JUMP JUMPDEST SWAP1 SSTORE TIMESTAMP PUSH1 0x6 DUP4 ADD SSTORE PUSH1 0x2 DUP3 ADD PUSH2 0x157D DUP2 SLOAD PUSH2 0x36A8 JUMP JUMPDEST SWAP1 SSTORE DUP2 SLOAD SWAP2 PUSH1 0xA DUP4 ADD DUP1 SWAP4 GT PUSH2 0xBFF JUMPI PUSH32 0x79C012A0CFAE660E09134956BC432C8497EC80E86A3A108D130E8B3FCA52B3AD SWAP3 PUSH2 0x352 SWAP1 DUP2 DUP2 GT ISZERO PUSH2 0x15F8 JUMPI POP DUP1 SWAP2 JUMPDEST SSTORE PUSH1 0x40 MLOAD SWAP1 DUP2 MSTORE LOG2 PUSH32 0x6A65A58027E68282A85AC65A7AFC6580EF3D139C6E6EC12AE8D82DE13566E8CC PUSH1 0x0 DUP1 LOG2 DUP1 DUP1 DUP1 DUP1 DUP1 DUP1 DUP1 PUSH2 0x1500 JUMP JUMPDEST SWAP1 POP DUP1 SWAP2 PUSH2 0x15BF JUMP JUMPDEST PUSH2 0x23F DUP6 SSTORE PUSH2 0x36A8 JUMP JUMPDEST PUSH1 0x0 DUP1 DUP1 PUSH2 0x161A DUP2 SWAP5 CALLVALUE PUSH2 0x3752 JUMP JUMPDEST CALLER GAS CALL PUSH2 0x1625 PUSH2 0x3B77 JUMP JUMPDEST POP ISZERO PUSH2 0x1631 JUMPI DUP5 PUSH2 0x1538 JUMP JUMPDEST PUSH1 0x40 MLOAD PUSH3 0x461BCD PUSH1 0xE5 SHL DUP2 MSTORE PUSH1 0x4 DUP2 ADD DUP5 SWAP1 MSTORE PUSH1 0x14 PUSH1 0x24 DUP3 ADD MSTORE PUSH20 0x115E18D95CDCC81C995D1D5C9B8819985A5B1959 PUSH1 0x62 SHL PUSH1 0x44 DUP3 ADD MSTORE PUSH1 0x64 SWAP1 REVERT JUMPDEST POP DUP1 CALLVALUE GT PUSH2 0x1533 JUMP JUMPDEST PUSH1 0x0 MSTORE PUSH1 0x8 DUP13 MSTORE PUSH2 0x1694 DUP6 DUP13 DUP5 PUSH1 0x0 KECCAK256 SLOAD PUSH1 0x8 SHR AND ADDRESS SWAP1 CALLER SWAP1 PUSH2 0x3A82 JUMP JUMPDEST DUP14 PUSH2 0x14D4 JUMP JUMPDEST PUSH1 0x40 MLOAD PUSH3 0x461BCD PUSH1 0xE5 SHL DUP2 MSTORE PUSH1 0x4 DUP2 ADD DUP12 SWAP1 MSTORE PUSH1 0x18 PUSH1 0x24 DUP3 ADD MSTORE PUSH32 0x496E76616C69642072657061796D656E7420616D6F756E740000000000000000 PUSH1 0x44 DUP3 ADD MSTORE PUSH1 0x64 SWAP1 REVERT JUMPDEST POP DUP7 DUP4 GT ISZERO PUSH2 0x1488 JUMP JUMPDEST DUP6 SWAP2 PUSH2 0x147F JUMP JUMPDEST SWAP1 PUSH2 0x1705 PUSH2 0x170C SWAP4 SWAP5 SWAP3 PUSH1 0x13 DUP8 ADD SLOAD SWAP1 PUSH2 0x395C JUMP JUMPDEST DIV SWAP1 PUSH2 0x3A40 JUMP JUMPDEST SWAP1 DUP8 DUP1 PUSH2 0x1444 JUMP JUMPDEST POP PUSH1 0x13 DUP6 ADD SLOAD ISZERO ISZERO PUSH2 0x143F JUMP JUMPDEST PUSH1 0x40 MLOAD PUSH3 0x461BCD PUSH1 0xE5 SHL DUP2 MSTORE PUSH1 0x4 DUP2 ADD DUP8 SWAP1 MSTORE PUSH1 0x11 PUSH1 0x24 DUP3 ADD MSTORE PUSH17 0x546F6F206C61746520746F207265706179 PUSH1 0x78 SHL PUSH1 0x44 DUP3 ADD MSTORE PUSH1 0x64 SWAP1 REVERT JUMPDEST SWAP1 POP PUSH3 0x278D00 DUP2 ADD DUP1 SWAP2 GT PUSH2 0xBFF JUMPI TIMESTAMP GT ISZERO DUP9 PUSH2 0x1410 JUMP JUMPDEST PUSH1 0x40 MLOAD PUSH3 0x461BCD PUSH1 0xE5 SHL DUP2 MSTORE PUSH1 0x4 DUP2 ADD DUP6 SWAP1 MSTORE PUSH1 0x17 PUSH1 0x24 DUP3 ADD MSTORE PUSH32 0x4F6E6C7920626F72726F7765722063616E207265706179000000000000000000 PUSH1 0x44 DUP3 ADD MSTORE PUSH1 0x64 SWAP1 REVERT JUMPDEST CALLVALUE PUSH2 0x2C4 JUMPI PUSH1 0x0 CALLDATASIZE PUSH1 0x3 NOT ADD SLT PUSH2 0x2C4 JUMPI PUSH1 0x2 SLOAD PUSH1 0x0 NOT DUP2 ADD DUP2 DUP2 GT PUSH2 0xBFF JUMPI PUSH2 0x17E0 SWAP1 PUSH2 0x41AD JUMP JUMPDEST SWAP1 PUSH1 0x0 SWAP1 PUSH1 0x1 JUMPDEST DUP2 DUP2 LT PUSH2 0x1842 JUMPI POP POP PUSH2 0x17F9 DUP2 PUSH2 0x41AD JUMP JUMPDEST SWAP2 PUSH1 0x0 JUMPDEST DUP3 DUP2 LT PUSH2 0x181E JUMPI PUSH1 0x40 MLOAD PUSH1 0x20 DUP1 DUP3 MSTORE DUP2 SWAP1 PUSH2 0x181A SWAP1 DUP3 ADD DUP8 PUSH2 0x351E JUMP JUMPDEST SUB SWAP1 RETURN JUMPDEST DUP1 PUSH2 0x182C PUSH2 0x183D SWAP3 DUP5 PUSH2 0x3C0F JUMP JUMPDEST MLOAD PUSH2 0x1837 DUP3 DUP8 PUSH2 0x3C0F JUMP JUMPDEST MSTORE PUSH2 0x36A8 JUMP JUMPDEST PUSH2 0x17FD JUMP JUMPDEST DUP1 PUSH1 0x0 MSTORE PUSH1 0x7 PUSH1 0x20 SWAP1 DUP1 DUP3 MSTORE PUSH1 0xFF PUSH1 0xE PUSH1 0x40 PUSH1 0x0 KECCAK256 ADD SLOAD AND DUP2 DUP2 LT ISZERO PUSH2 0x5B9 JUMPI ISZERO SWAP2 DUP3 PUSH2 0x189A JUMPI JUMPDEST POP POP PUSH2 0x187F JUMPI JUMPDEST PUSH2 0x187A SWAP1 PUSH2 0x36A8 JUMP JUMPDEST PUSH2 0x17E7 JUMP JUMPDEST SWAP2 PUSH2 0x1892 DUP2 DUP5 PUSH2 0x1837 PUSH2 0x187A SWAP5 DUP9 PUSH2 0x3C0F JUMP JUMPDEST SWAP3 SWAP1 POP PUSH2 0x1871 JUMP JUMPDEST SWAP1 SWAP2 POP DUP3 PUSH1 0x0 MSTORE MSTORE PUSH1 0xA PUSH1 0x40 PUSH1 0x0 KECCAK256 ADD SLOAD TIMESTAMP GT ISZERO DUP6 DUP1 PUSH2 0x186A JUMP JUMPDEST CALLVALUE PUSH2 0x2C4 JUMPI PUSH1 0x0 CALLDATASIZE PUSH1 0x3 NOT ADD SLT PUSH2 0x2C4 JUMPI PUSH1 0x20 PUSH1 0x40 MLOAD PUSH1 0x78 DUP2 MSTORE RETURN JUMPDEST CALLVALUE PUSH2 0x2C4 JUMPI PUSH1 0x0 CALLDATASIZE PUSH1 0x3 NOT ADD SLT PUSH2 0x2C4 JUMPI PUSH1 0x20 PUSH1 0x6 SLOAD PUSH1 0x40 MLOAD SWAP1 DUP2 MSTORE RETURN JUMPDEST CALLVALUE PUSH2 0x2C4 JUMPI PUSH1 0x0 CALLDATASIZE PUSH1 0x3 NOT ADD SLT PUSH2 0x2C4 JUMPI PUSH1 0x1 SLOAD PUSH1 0x40 MLOAD PUSH1 0x1 PUSH1 0x1 PUSH1 0xA0 SHL SUB SWAP1 SWAP2 AND DUP2 MSTORE PUSH1 0x20 SWAP1 RETURN JUMPDEST CALLVALUE PUSH2 0x2C4 JUMPI PUSH1 0x0 CALLDATASIZE PUSH1 0x3 NOT ADD SLT PUSH2 0x2C4 JUMPI PUSH1 0x20 PUSH1 0x40 MLOAD PUSH3 0x15180 DUP2 MSTORE RETURN JUMPDEST CALLVALUE PUSH2 0x2C4 JUMPI PUSH1 0x0 CALLDATASIZE PUSH1 0x3 NOT ADD SLT PUSH2 0x2C4 JUMPI PUSH1 0x20 PUSH1 0x2 SLOAD PUSH1 0x40 MLOAD SWAP1 DUP2 MSTORE RETURN JUMPDEST CALLVALUE PUSH2 0x2C4 JUMPI PUSH1 0x0 CALLDATASIZE PUSH1 0x3 NOT ADD SLT PUSH2 0x2C4 JUMPI PUSH2 0x196D PUSH2 0x367C JUMP JUMPDEST PUSH2 0x1975 PUSH2 0x3B33 JUMP JUMPDEST PUSH1 0x1 DUP1 SLOAD PUSH1 0xFF PUSH1 0xA0 SHL NOT AND PUSH1 0x1 PUSH1 0xA0 SHL OR SWAP1 SSTORE PUSH1 0x40 MLOAD CALLER DUP2 MSTORE PUSH32 0x62E78CEA01BEE320CD4E420270B5EA74000D11B0C9F74754EBDBFC544B05A258 SWAP1 PUSH1 0x20 SWAP1 LOG1 STOP JUMPDEST CALLVALUE PUSH2 0x2C4 JUMPI PUSH1 0x20 CALLDATASIZE PUSH1 0x3 NOT ADD SLT PUSH2 0x2C4 JUMPI PUSH1 0x1 PUSH1 0x1 PUSH1 0xA0 SHL SUB PUSH2 0x19D7 PUSH2 0x34DA JUMP JUMPDEST AND PUSH1 0x0 MSTORE PUSH1 0xD PUSH1 0x20 MSTORE PUSH1 0xE0 PUSH1 0x40 PUSH1 0x0 KECCAK256 DUP1 SLOAD SWAP1 PUSH1 0x1 DUP2 ADD SLOAD SWAP1 PUSH1 0x2 DUP2 ADD SLOAD PUSH1 0x3 DUP3 ADD SLOAD PUSH1 0x4 DUP4 ADD SLOAD SWAP2 PUSH1 0x6 PUSH1 0x5 DUP6 ADD SLOAD SWAP5 ADD SLOAD SWAP5 PUSH1 0x40 MLOAD SWAP7 DUP8 MSTORE PUSH1 0x20 DUP8 ADD MSTORE PUSH1 0x40 DUP7 ADD MSTORE PUSH1 0x60 DUP6 ADD MSTORE PUSH1 0x80 DUP5 ADD MSTORE PUSH1 0xA0 DUP4 ADD MSTORE PUSH1 0xC0 DUP3 ADD MSTORE RETURN JUMPDEST CALLVALUE PUSH2 0x2C4 JUMPI PUSH1 0x40 CALLDATASIZE PUSH1 0x3 NOT ADD SLT PUSH2 0x2C4 JUMPI PUSH2 0x1A4A PUSH2 0x34F0 JUMP JUMPDEST PUSH1 0x4 CALLDATALOAD PUSH1 0x0 MSTORE PUSH1 0xA PUSH1 0x20 MSTORE PUSH1 0x40 PUSH1 0x0 KECCAK256 SWAP1 PUSH1 0x1 DUP1 PUSH1 0xA0 SHL SUB AND PUSH1 0x0 MSTORE PUSH1 0x20 MSTORE PUSH1 0x20 PUSH1 0x40 PUSH1 0x0 KECCAK256 SLOAD PUSH1 0x40 MLOAD SWAP1 DUP2 MSTORE RETURN JUMPDEST CALLVALUE PUSH2 0x2C4 JUMPI PUSH1 0x0 CALLDATASIZE PUSH1 0x3 NOT ADD SLT PUSH2 0x2C4 JUMPI PUSH1 0x20 PUSH1 0x40 MLOAD PUSH1 0x96 DUP2 MSTORE RETURN JUMPDEST CALLVALUE PUSH2 0x2C4 JUMPI PUSH1 0x20 DUP1 PUSH1 0x3 NOT CALLDATASIZE ADD SLT PUSH2 0x2C4 JUMPI PUSH1 0x4 CALLDATALOAD PUSH1 0x0 MSTORE PUSH1 0x9 DUP2 MSTORE PUSH1 0x40 PUSH1 0x0 KECCAK256 SWAP1 DUP2 SLOAD PUSH2 0x1AC2 DUP2 PUSH2 0x3BF7 JUMP JUMPDEST SWAP3 PUSH2 0x1AD0 PUSH1 0x40 MLOAD SWAP5 DUP6 PUSH2 0x3404 JUMP JUMPDEST DUP2 DUP5 MSTORE PUSH1 0x0 SWAP1 DUP2 MSTORE DUP3 DUP2 KECCAK256 DUP4 DUP1 DUP7 ADD JUMPDEST DUP5 DUP5 LT PUSH2 0x1BC5 JUMPI DUP7 DUP3 DUP2 MLOAD PUSH2 0x1B0D PUSH2 0x1AF7 DUP3 PUSH2 0x3BF7 JUMP JUMPDEST SWAP2 PUSH2 0x1B05 PUSH1 0x40 MLOAD SWAP4 DUP5 PUSH2 0x3404 JUMP JUMPDEST DUP1 DUP4 MSTORE PUSH2 0x3BF7 JUMP JUMPDEST DUP2 DUP4 ADD SWAP3 SWAP1 PUSH1 0x1F NOT ADD CALLDATASIZE DUP5 CALLDATACOPY PUSH2 0x1B23 DUP5 MLOAD PUSH2 0x41AD JUMP JUMPDEST SWAP2 PUSH1 0x0 JUMPDEST DUP6 MLOAD DUP2 LT ISZERO PUSH2 0x1B71 JUMPI PUSH2 0x1B6C SWAP1 PUSH1 0x1 PUSH1 0x1 PUSH1 0xA0 SHL SUB PUSH2 0x1B46 DUP3 DUP10 PUSH2 0x3C0F JUMP JUMPDEST MLOAD MLOAD AND PUSH2 0x1B53 DUP3 DUP6 PUSH2 0x3C0F JUMP JUMPDEST MSTORE DUP4 PUSH2 0x1B5F DUP3 DUP10 PUSH2 0x3C0F JUMP JUMPDEST MLOAD ADD MLOAD PUSH2 0x1837 DUP3 DUP8 PUSH2 0x3C0F JUMP JUMPDEST PUSH2 0x1B27 JUMP JUMPDEST POP SWAP2 SWAP1 PUSH1 0x40 MLOAD SWAP3 PUSH1 0x40 DUP5 ADD SWAP1 PUSH1 0x40 DUP6 MSTORE MLOAD DUP1 SWAP2 MSTORE PUSH1 0x60 DUP5 ADD SWAP5 SWAP1 PUSH1 0x0 JUMPDEST DUP2 DUP2 LT PUSH2 0x1BA8 JUMPI DUP6 DUP8 SUB DUP5 DUP8 ADD MSTORE DUP6 DUP1 PUSH2 0x181A DUP10 DUP9 PUSH2 0x351E JUMP JUMPDEST DUP3 MLOAD PUSH1 0x1 PUSH1 0x1 PUSH1 0xA0 SHL SUB AND DUP8 MSTORE SWAP6 DUP4 ADD SWAP6 SWAP2 DUP4 ADD SWAP2 PUSH1 0x1 ADD PUSH2 0x1B8E JUMP JUMPDEST PUSH1 0x1 SWAP2 PUSH1 0x3 SWAP2 PUSH1 0x40 MLOAD PUSH2 0x1BD7 DUP2 PUSH2 0x33E8 JUMP JUMPDEST DUP5 DUP1 PUSH1 0xA0 SHL SUB DUP7 SLOAD AND DUP2 MSTORE DUP5 DUP7 ADD SLOAD DUP4 DUP3 ADD MSTORE PUSH1 0xFF PUSH1 0x2 DUP8 ADD SLOAD AND ISZERO ISZERO PUSH1 0x40 DUP3 ADD MSTORE DUP2 MSTORE ADD SWAP3 ADD SWAP3 ADD SWAP2 SWAP1 DUP5 SWAP1 PUSH2 0x1AE0 JUMP JUMPDEST CALLVALUE PUSH2 0x2C4 JUMPI PUSH1 0x0 CALLDATASIZE PUSH1 0x3 NOT ADD SLT PUSH2 0x2C4 JUMPI PUSH1 0x20 PUSH1 0x3 SLOAD PUSH1 0x40 MLOAD SWAP1 DUP2 MSTORE RETURN JUMPDEST CALLVALUE PUSH2 0x2C4 JUMPI PUSH1 0x0 CALLDATASIZE PUSH1 0x3 NOT ADD SLT PUSH2 0x2C4 JUMPI PUSH2 0x1C40 PUSH2 0x367C JUMP JUMPDEST PUSH1 0x1 DUP1 SLOAD PUSH1 0x1 PUSH1 0x1 PUSH1 0xA0 SHL SUB NOT DUP2 AND SWAP1 SWAP2 SSTORE PUSH1 0x0 SWAP1 PUSH1 0x1 PUSH1 0x1 PUSH1 0xA0 SHL SUB AND PUSH32 0x8BE0079C531659141344CD1FD0A4F28419497F9722A3DAAFE3B4186F6B6457E0 DUP3 DUP1 LOG3 STOP JUMPDEST CALLVALUE PUSH2 0x2C4 JUMPI PUSH1 0x20 CALLDATASIZE PUSH1 0x3 NOT ADD SLT PUSH2 0x2C4 JUMPI PUSH1 0x1 PUSH1 0x1 PUSH1 0xA0 SHL SUB PUSH2 0x1CA5 PUSH2 0x34DA JUMP JUMPDEST AND PUSH1 0x0 MSTORE PUSH1 0xE PUSH1 0x20 MSTORE PUSH1 0x20 PUSH1 0xFF PUSH1 0x40 PUSH1 0x0 KECCAK256 SLOAD AND PUSH1 0x40 MLOAD SWAP1 ISZERO ISZERO DUP2 MSTORE RETURN JUMPDEST CALLVALUE PUSH2 0x2C4 JUMPI PUSH1 0x20 CALLDATASIZE PUSH1 0x3 NOT ADD SLT PUSH2 0x2C4 JUMPI PUSH1 0x4 CALLDATALOAD PUSH1 0x0 MSTORE PUSH1 0x11 PUSH1 0x20 MSTORE PUSH1 0x20 PUSH1 0x40 PUSH1 0x0 KECCAK256 SLOAD PUSH1 0x40 MLOAD SWAP1 DUP2 MSTORE RETURN JUMPDEST CALLVALUE PUSH2 0x2C4 JUMPI PUSH1 0x20 DUP1 PUSH1 0x3 NOT CALLDATASIZE ADD SLT PUSH2 0x2C4 JUMPI PUSH1 0x4 CALLDATALOAD SWAP1 PUSH2 0x1D0D PUSH2 0x3B54 JUMP JUMPDEST DUP2 PUSH1 0x0 MSTORE PUSH1 0x7 DUP2 MSTORE PUSH1 0x40 PUSH1 0x0 KECCAK256 PUSH1 0xE DUP2 ADD DUP1 SLOAD PUSH1 0xFF DUP2 AND PUSH1 0x7 DUP2 LT ISZERO PUSH2 0x5B9 JUMPI PUSH1 0x2 PUSH2 0x1D39 SWAP2 EQ PUSH2 0x3C23 JUMP JUMPDEST PUSH1 0xD DUP4 ADD SLOAD PUSH3 0x278D00 DUP2 ADD DUP1 SWAP2 GT PUSH2 0xBFF JUMPI TIMESTAMP GT ISZERO PUSH2 0x1DF1 JUMPI PUSH1 0x6 SWAP1 PUSH1 0xFF NOT AND OR SWAP1 SSTORE PUSH3 0x3F480 TIMESTAMP ADD SWAP2 DUP3 TIMESTAMP GT PUSH2 0xBFF JUMPI PUSH2 0x1DB0 PUSH32 0x8ABDE2F70EF3FEE1A095180C52EA8F9374714F640A915A9F6A63F59811F20AFC SWAP3 DUP6 SWAP5 DUP6 PUSH1 0x0 MSTORE PUSH1 0x11 DUP5 MSTORE PUSH1 0x40 PUSH1 0x0 KECCAK256 SSTORE PUSH1 0x1 DUP1 DUP1 PUSH1 0xA0 SHL SUB SWAP2 ADD SLOAD AND PUSH2 0x40C2 JUMP JUMPDEST DUP3 PUSH1 0x0 MSTORE PUSH1 0x11 DUP2 MSTORE PUSH1 0x40 PUSH1 0x0 KECCAK256 SLOAD PUSH1 0x40 MLOAD SWAP1 DUP2 MSTORE LOG2 PUSH32 0x789B7097E8066538CFAA1132488B132E14BA5F0C938C8B7AAF8CF40356AAB0B PUSH1 0x0 DUP1 LOG2 PUSH1 0x1 PUSH1 0x0 SSTORE STOP JUMPDEST PUSH1 0x40 MLOAD PUSH3 0x461BCD PUSH1 0xE5 SHL DUP2 MSTORE PUSH1 0x4 DUP2 ADD DUP6 SWAP1 MSTORE PUSH1 0x16 PUSH1 0x24 DUP3 ADD MSTORE PUSH22 0x11DC9858D9481C195C9A5BD9081B9BDD08195B991959 PUSH1 0x52 SHL PUSH1 0x44 DUP3 ADD MSTORE PUSH1 0x64 SWAP1 REVERT JUMPDEST CALLVALUE PUSH2 0x2C4 JUMPI PUSH1 0x0 CALLDATASIZE PUSH1 0x3 NOT ADD SLT PUSH2 0x2C4 JUMPI PUSH1 0x20 PUSH1 0xFF PUSH1 0x1 SLOAD PUSH1 0xA0 SHR AND PUSH1 0x40 MLOAD SWAP1 ISZERO ISZERO DUP2 MSTORE RETURN JUMPDEST CALLVALUE PUSH2 0x2C4 JUMPI PUSH1 0x80 CALLDATASIZE PUSH1 0x3 NOT ADD SLT PUSH2 0x2C4 JUMPI PUSH2 0x1E6E PUSH2 0x34DA JUMP JUMPDEST PUSH8 0xFFFFFFFFFFFFFFFF SWAP1 PUSH1 0x24 CALLDATALOAD DUP3 DUP2 GT PUSH2 0x2C4 JUMPI PUSH2 0x1E90 SWAP1 CALLDATASIZE SWAP1 PUSH1 0x4 ADD PUSH2 0x3442 JUMP JUMPDEST PUSH1 0x44 CALLDATALOAD SWAP2 PUSH1 0xFF DUP4 AND DUP1 SWAP4 SUB PUSH2 0x2C4 JUMPI PUSH1 0x1 PUSH1 0x1 PUSH1 0xA0 SHL SUB SWAP3 PUSH1 0x64 CALLDATALOAD SWAP3 SWAP1 DUP5 DUP5 AND DUP5 SUB PUSH2 0x2C4 JUMPI PUSH2 0x1EBE PUSH2 0x367C JUMP JUMPDEST DUP5 DUP4 AND ISZERO PUSH2 0x2134 JUMPI PUSH1 0x40 MLOAD SWAP1 PUSH2 0x1ED3 DUP3 PUSH2 0x33CC JUMP JUMPDEST PUSH1 0x1 DUP3 MSTORE PUSH1 0x20 DUP3 ADD SWAP1 DUP7 DUP6 AND DUP3 MSTORE PUSH1 0x40 DUP4 ADD SWAP1 DUP5 DUP3 MSTORE PUSH1 0x60 DUP5 ADD MSTORE PUSH1 0x1 PUSH1 0x80 DUP5 ADD MSTORE DUP7 DUP7 AND PUSH1 0xA0 DUP5 ADD MSTORE PUSH1 0x3 SLOAD PUSH1 0x0 MSTORE PUSH1 0x8 PUSH1 0x20 MSTORE PUSH1 0x40 PUSH1 0x0 KECCAK256 SWAP2 DUP4 MLOAD SWAP1 PUSH2 0x1F1A DUP3 PUSH2 0x3632 JUMP JUMPDEST PUSH2 0x1F23 DUP3 PUSH2 0x3632 JUMP JUMPDEST PUSH1 0xFF DUP5 SLOAD SWAP2 PUSH2 0x100 PUSH1 0x1 PUSH1 0xA8 SHL SUB SWAP1 MLOAD PUSH1 0x8 SHL AND SWAP3 AND SWAP1 PUSH11 0xFFFFFFFFFFFFFFFFFFFFFF PUSH1 0xA8 SHL AND OR OR DUP3 SSTORE MLOAD SWAP7 DUP8 MLOAD SWAP1 DUP2 GT PUSH2 0xC2B JUMPI PUSH2 0x1F66 PUSH1 0x1 DUP4 ADD SLOAD PUSH2 0x3552 JUMP JUMPDEST PUSH1 0x1F DUP2 GT PUSH2 0x20E9 JUMPI JUMPDEST POP PUSH1 0x20 PUSH1 0x1F DUP3 GT PUSH1 0x1 EQ PUSH2 0x204E JUMPI PUSH32 0x98878A34EA3245957B330457C591928F2908C8B254E8B972075101360FCA276B SWAP5 SWAP3 DUP3 PUSH2 0x202D SWAP6 SWAP4 PUSH1 0x2 SWAP4 PUSH2 0x203E SWAP13 PUSH1 0x0 SWAP3 PUSH2 0x2043 JUMPI JUMPDEST POP POP DUP2 PUSH1 0x1 SHL SWAP2 PUSH1 0x0 NOT SWAP1 PUSH1 0x3 SHL SHR NOT AND OR PUSH1 0x1 DUP3 ADD SSTORE JUMPDEST ADD SWAP1 PUSH1 0xFF PUSH1 0x60 DUP3 ADD MLOAD AND SWAP1 DUP3 SLOAD SWAP2 PUSH2 0xFF00 PUSH1 0x80 DUP4 ADD MLOAD ISZERO ISZERO PUSH1 0x8 SHL AND SWAP2 PUSH1 0xA0 PUSH3 0x10000 PUSH1 0x1 PUSH1 0xB0 SHL SUB SWAP2 ADD MLOAD PUSH1 0x10 SHL AND SWAP3 PUSH10 0xFFFFFFFFFFFFFFFFFFFF PUSH1 0xB0 SHL AND OR OR OR SWAP1 SSTORE PUSH1 0x3 SLOAD SWAP6 DUP7 SWAP5 DUP2 PUSH1 0x40 MLOAD SWAP5 DUP6 SWAP5 PUSH1 0x40 DUP7 MSTORE PUSH1 0x40 DUP7 ADD SWAP1 PUSH2 0x363C JUMP JUMPDEST SWAP8 AND PUSH1 0x20 DUP5 ADD MSTORE AND SWAP5 SUB SWAP1 LOG3 PUSH2 0x36A8 JUMP JUMPDEST PUSH1 0x3 SSTORE STOP JUMPDEST ADD MLOAD SWAP1 POP DUP13 DUP1 PUSH2 0x1FB5 JUMP JUMPDEST PUSH1 0x1 DUP4 ADD PUSH1 0x0 MSTORE PUSH1 0x20 PUSH1 0x0 KECCAK256 SWAP9 PUSH1 0x0 JUMPDEST PUSH1 0x1F NOT DUP5 AND DUP2 LT PUSH2 0x20D1 JUMPI POP SWAP3 PUSH1 0x1 DUP4 PUSH2 0x203E SWAP12 PUSH1 0x2 SWAP5 PUSH32 0x98878A34EA3245957B330457C591928F2908C8B254E8B972075101360FCA276B SWAP10 SWAP8 PUSH2 0x202D SWAP10 SWAP8 PUSH1 0x1F NOT DUP2 AND LT PUSH2 0x20B8 JUMPI JUMPDEST POP POP POP DUP2 SHL ADD PUSH1 0x1 DUP3 ADD SSTORE PUSH2 0x1FCD JUMP JUMPDEST ADD MLOAD PUSH1 0x0 NOT PUSH1 0xF8 DUP5 PUSH1 0x3 SHL AND SHR NOT AND SWAP1 SSTORE DUP13 DUP1 DUP1 PUSH2 0x20A8 JUMP JUMPDEST DUP3 DUP3 ADD MLOAD DUP12 SSTORE PUSH1 0x1 SWAP1 SWAP11 ADD SWAP10 PUSH1 0x20 SWAP3 DUP4 ADD SWAP3 ADD PUSH2 0x205E JUMP JUMPDEST PUSH1 0x1 DUP4 ADD PUSH1 0x0 MSTORE PUSH1 0x20 PUSH1 0x0 KECCAK256 PUSH1 0x1F DUP4 ADD PUSH1 0x5 SHR DUP2 ADD SWAP2 PUSH1 0x20 DUP5 LT PUSH2 0x212A JUMPI JUMPDEST PUSH1 0x1F ADD PUSH1 0x5 SHR ADD SWAP1 JUMPDEST DUP2 DUP2 LT PUSH2 0x211E JUMPI POP PUSH2 0x1F6F JUMP JUMPDEST PUSH1 0x0 DUP2 SSTORE PUSH1 0x1 ADD PUSH2 0x2111 JUMP JUMPDEST SWAP1 SWAP2 POP DUP2 SWAP1 PUSH2 0x2108 JUMP JUMPDEST PUSH1 0x40 MLOAD PUSH3 0x461BCD PUSH1 0xE5 SHL DUP2 MSTORE PUSH1 0x20 PUSH1 0x4 DUP3 ADD MSTORE PUSH1 0x18 PUSH1 0x24 DUP3 ADD MSTORE PUSH32 0x496E76616C696420636F6E747261637420616464726573730000000000000000 PUSH1 0x44 DUP3 ADD MSTORE PUSH1 0x64 SWAP1 REVERT JUMPDEST CALLVALUE PUSH2 0x2C4 JUMPI PUSH1 0x0 CALLDATASIZE PUSH1 0x3 NOT ADD SLT PUSH2 0x2C4 JUMPI PUSH1 0x20 PUSH1 0x4 SLOAD PUSH1 0x40 MLOAD SWAP1 DUP2 MSTORE RETURN JUMPDEST CALLVALUE PUSH2 0x2C4 JUMPI PUSH1 0x0 CALLDATASIZE PUSH1 0x3 NOT ADD SLT PUSH2 0x2C4 JUMPI PUSH2 0x21B0 PUSH2 0x367C JUMP JUMPDEST PUSH1 0x0 DUP1 DUP1 DUP1 PUSH1 0x6 SLOAD DUP2 PUSH1 0x6 SSTORE PUSH1 0x1 DUP1 PUSH1 0xA0 SHL SUB PUSH1 0x5 SLOAD AND GAS CALL PUSH2 0x21D1 PUSH2 0x3B77 JUMP JUMPDEST POP ISZERO PUSH2 0x21D9 JUMPI STOP JUMPDEST PUSH1 0x40 MLOAD PUSH3 0x461BCD PUSH1 0xE5 SHL DUP2 MSTORE PUSH1 0x20 PUSH1 0x4 DUP3 ADD MSTORE PUSH1 0x15 PUSH1 0x24 DUP3 ADD MSTORE PUSH21 0x119959481DDA5D1A191C985DD85B0819985A5B1959 PUSH1 0x5A SHL PUSH1 0x44 DUP3 ADD MSTORE PUSH1 0x64 SWAP1 REVERT JUMPDEST CALLVALUE PUSH2 0x2C4 JUMPI PUSH1 0x0 CALLDATASIZE PUSH1 0x3 NOT ADD SLT PUSH2 0x2C4 JUMPI PUSH1 0x5 SLOAD PUSH1 0x40 MLOAD PUSH1 0x1 PUSH1 0x1 PUSH1 0xA0 SHL SUB SWAP1 SWAP2 AND DUP2 MSTORE PUSH1 0x20 SWAP1 RETURN JUMPDEST CALLVALUE PUSH2 0x2C4 JUMPI PUSH1 0x40 CALLDATASIZE PUSH1 0x3 NOT ADD SLT PUSH2 0x2C4 JUMPI PUSH2 0x2258 PUSH2 0x34F0 JUMP JUMPDEST PUSH1 0x4 CALLDATALOAD PUSH1 0x0 MSTORE PUSH1 0x10 PUSH1 0x20 MSTORE PUSH1 0x40 PUSH1 0x0 KECCAK256 SWAP1 PUSH1 0x1 DUP1 PUSH1 0xA0 SHL SUB AND PUSH1 0x0 MSTORE PUSH1 0x20 MSTORE PUSH1 0x20 PUSH1 0xFF PUSH1 0x40 PUSH1 0x0 KECCAK256 SLOAD AND PUSH1 0x40 MLOAD SWAP1 ISZERO ISZERO DUP2 MSTORE RETURN JUMPDEST PUSH1 0x20 DUP1 PUSH1 0x3 NOT CALLDATASIZE ADD SLT PUSH2 0x2C4 JUMPI PUSH1 0x4 CALLDATALOAD PUSH2 0x22A4 PUSH2 0x3B54 JUMP JUMPDEST DUP1 PUSH1 0x0 MSTORE PUSH1 0x7 DUP3 MSTORE PUSH1 0x40 PUSH1 0x0 KECCAK256 SWAP1 PUSH1 0xE DUP3 ADD PUSH1 0xFF DUP2 SLOAD AND PUSH1 0x7 DUP2 LT ISZERO PUSH2 0x5B9 JUMPI PUSH1 0x2 DUP2 EQ SWAP1 DUP2 ISZERO PUSH2 0x25CC JUMPI JUMPDEST POP ISZERO PUSH2 0x2596 JUMPI PUSH1 0xD DUP4 ADD SLOAD PUSH3 0x278D00 DUP2 ADD DUP1 SWAP2 GT PUSH2 0xBFF JUMPI TIMESTAMP GT PUSH1 0x2 DUP5 ADD SLOAD SWAP1 PUSH1 0x4 DUP6 ADD SLOAD SWAP3 PUSH2 0x2300 DUP5 DUP5 PUSH2 0x39A0 JUMP JUMPDEST SWAP4 PUSH1 0x3 DUP8 ADD SWAP3 DUP4 SLOAD SWAP6 PUSH2 0x2319 PUSH1 0x6 DUP11 ADD SWAP8 DUP9 SLOAD SWAP1 PUSH2 0x39A0 JUMP JUMPDEST SWAP1 PUSH1 0x64 DUP3 MUL SWAP2 DUP1 DUP4 DIV PUSH1 0x64 EQ SWAP1 ISZERO OR ISZERO PUSH2 0xBFF JUMPI PUSH1 0x11 DUP11 ADD SLOAD PUSH2 0x233B SWAP2 PUSH2 0x395C JUMP JUMPDEST GT DUP2 ISZERO PUSH2 0x258E JUMPI JUMPDEST POP ISZERO PUSH2 0x2552 JUMPI PUSH2 0x2361 PUSH2 0x236C SWAP2 PUSH2 0x2710 PUSH2 0x1705 PUSH1 0x7 DUP12 ADD SLOAD DUP4 PUSH2 0x395C JUMP JUMPDEST PUSH1 0x12 DUP9 ADD SLOAD SWAP1 PUSH2 0x3752 JUMP JUMPDEST SWAP1 DUP4 PUSH1 0x0 MSTORE PUSH1 0x8 SWAP4 DUP5 DUP10 MSTORE PUSH1 0xFF PUSH1 0x40 PUSH1 0x0 KECCAK256 SLOAD AND PUSH2 0x2389 DUP2 PUSH2 0x3632 JUMP JUMPDEST PUSH2 0x2529 JUMPI POP DUP2 CALLVALUE LT PUSH2 0x24E4 JUMPI SWAP1 PUSH2 0x23B3 SWAP2 DUP2 CALLVALUE GT PUSH2 0x24C2 JUMPI JUMPDEST DUP1 SLOAD PUSH1 0xFF NOT AND PUSH1 0x4 OR SWAP1 SSTORE DUP6 PUSH2 0x3C61 JUMP JUMPDEST SLOAD DUP1 PUSH1 0x0 MSTORE DUP2 DUP7 MSTORE PUSH1 0xFF PUSH1 0x40 PUSH1 0x0 KECCAK256 SLOAD AND PUSH2 0x23CD DUP2 PUSH2 0x3632 JUMP JUMPDEST PUSH2 0x2470 JUMPI POP POP PUSH1 0x0 DUP1 DUP1 DUP1 SWAP4 SLOAD CALLER GAS CALL PUSH2 0x23E5 PUSH2 0x3B77 JUMP JUMPDEST POP ISZERO PUSH2 0x242B JUMPI PUSH32 0xB6D0D13889BD27EA4546C2B38E63C4CA45F6FD27B5DB622033F3F0840C103FF6 PUSH2 0x1500 SWAP4 JUMPDEST PUSH1 0x40 MLOAD PUSH1 0x0 DUP2 MSTORE LOG2 PUSH1 0x1 ADD SLOAD PUSH1 0x1 PUSH1 0x1 PUSH1 0xA0 SHL SUB AND PUSH2 0x40C2 JUMP JUMPDEST PUSH1 0x40 MLOAD PUSH3 0x461BCD PUSH1 0xE5 SHL DUP2 MSTORE PUSH1 0x4 DUP2 ADD DUP5 SWAP1 MSTORE PUSH1 0x1A PUSH1 0x24 DUP3 ADD MSTORE PUSH32 0x436F6C6C61746572616C207472616E73666572206661696C6564000000000000 PUSH1 0x44 DUP3 ADD MSTORE PUSH1 0x64 SWAP1 REVERT JUMPDEST PUSH1 0x0 SWAP1 DUP2 MSTORE DUP2 DUP7 MSTORE PUSH1 0x40 SWAP1 KECCAK256 SLOAD SWAP2 SLOAD PUSH2 0x1500 SWAP6 PUSH32 0xB6D0D13889BD27EA4546C2B38E63C4CA45F6FD27B5DB622033F3F0840C103FF6 SWAP4 SWAP1 SWAP3 PUSH2 0x24BD SWAP3 SWAP2 CALLER SWAP2 SHR PUSH1 0x1 PUSH1 0x1 PUSH1 0xA0 SHL SUB AND PUSH2 0x3BA7 JUMP JUMPDEST PUSH2 0x2411 JUMP JUMPDEST PUSH2 0x24DF PUSH1 0x0 DUP1 DUP1 DUP1 PUSH2 0x24D4 DUP8 CALLVALUE PUSH2 0x3752 JUMP JUMPDEST CALLER GAS CALL PUSH2 0x772 PUSH2 0x3B77 JUMP JUMPDEST PUSH2 0x23A2 JUMP JUMPDEST PUSH1 0x40 MLOAD PUSH3 0x461BCD PUSH1 0xE5 SHL DUP2 MSTORE PUSH1 0x4 DUP2 ADD DUP10 SWAP1 MSTORE PUSH1 0x1D PUSH1 0x24 DUP3 ADD MSTORE PUSH32 0x496E73756666696369656E742045544820746F206C6971756964617465000000 PUSH1 0x44 DUP3 ADD MSTORE PUSH1 0x64 SWAP1 REVERT JUMPDEST SWAP1 PUSH2 0x23B3 SWAP3 SWAP2 PUSH1 0x0 MSTORE DUP5 DUP10 MSTORE PUSH2 0x24DF DUP3 PUSH1 0x1 DUP1 PUSH1 0xA0 SHL SUB PUSH1 0x40 PUSH1 0x0 KECCAK256 SLOAD DUP9 SHR AND ADDRESS SWAP1 CALLER SWAP1 PUSH2 0x3A82 JUMP JUMPDEST PUSH1 0x40 MLOAD PUSH3 0x461BCD PUSH1 0xE5 SHL DUP2 MSTORE PUSH1 0x4 DUP2 ADD DUP10 SWAP1 MSTORE PUSH1 0x14 PUSH1 0x24 DUP3 ADD MSTORE PUSH20 0x139BDD081B1A5C5D5A59185D18589B19481E595D PUSH1 0x62 SHL PUSH1 0x44 DUP3 ADD MSTORE PUSH1 0x64 SWAP1 REVERT JUMPDEST SWAP1 POP DUP10 PUSH2 0x2343 JUMP JUMPDEST PUSH1 0x40 MLOAD PUSH3 0x461BCD PUSH1 0xE5 SHL DUP2 MSTORE PUSH1 0x4 DUP2 ADD DUP6 SWAP1 MSTORE PUSH1 0xE PUSH1 0x24 DUP3 ADD MSTORE PUSH14 0x496E76616C696420737461747573 PUSH1 0x90 SHL PUSH1 0x44 DUP3 ADD MSTORE PUSH1 0x64 SWAP1 REVERT JUMPDEST PUSH1 0x6 SWAP2 POP EQ DUP6 PUSH2 0x22D0 JUMP JUMPDEST CALLVALUE PUSH2 0x2C4 JUMPI PUSH1 0x0 CALLDATASIZE PUSH1 0x3 NOT ADD SLT PUSH2 0x2C4 JUMPI PUSH2 0x25F0 PUSH2 0x367C JUMP JUMPDEST PUSH1 0x1 SLOAD PUSH1 0xFF DUP2 PUSH1 0xA0 SHR AND ISZERO PUSH2 0x2637 JUMPI PUSH1 0xFF PUSH1 0xA0 SHL NOT AND PUSH1 0x1 SSTORE PUSH1 0x40 MLOAD CALLER DUP2 MSTORE PUSH32 0x5DB9EE0A495BF2E6FF9C91A7834C1BA4FDD244A5E8AA4E537BD38AEAE4B073AA SWAP1 PUSH1 0x20 SWAP1 LOG1 STOP JUMPDEST PUSH1 0x40 MLOAD PUSH4 0x8DFC202B PUSH1 0xE0 SHL DUP2 MSTORE PUSH1 0x4 SWAP1 REVERT JUMPDEST CALLVALUE PUSH2 0x2C4 JUMPI PUSH1 0x40 CALLDATASIZE PUSH1 0x3 NOT ADD SLT PUSH2 0x2C4 JUMPI PUSH2 0x2662 PUSH2 0x34DA JUMP JUMPDEST PUSH1 0x1 PUSH1 0x1 PUSH1 0xA0 SHL SUB AND PUSH1 0x0 SWAP1 DUP2 MSTORE PUSH1 0xC PUSH1 0x20 MSTORE PUSH1 0x40 SWAP1 KECCAK256 DUP1 SLOAD PUSH1 0x24 CALLDATALOAD SWAP2 SWAP1 DUP3 LT ISZERO PUSH2 0x2C4 JUMPI PUSH1 0x20 SWAP2 PUSH2 0x3E2 SWAP2 PUSH2 0x3506 JUMP JUMPDEST CALLVALUE PUSH2 0x2C4 JUMPI PUSH2 0x26A1 CALLDATASIZE PUSH2 0x34BB JUMP JUMPDEST SWAP1 PUSH2 0x26AA PUSH2 0x3B54 JUMP JUMPDEST DUP1 PUSH1 0x0 MSTORE PUSH1 0x20 SWAP1 PUSH1 0x7 DUP3 MSTORE PUSH1 0xFF SWAP2 DUP3 PUSH1 0xE PUSH1 0x40 PUSH1 0x0 KECCAK256 ADD SLOAD AND PUSH1 0x7 DUP2 LT ISZERO PUSH2 0x5B9 JUMPI PUSH1 0x6 PUSH2 0x26D8 SWAP2 EQ PUSH2 0x3E3B JUMP JUMPDEST DUP2 PUSH1 0x0 MSTORE PUSH1 0x11 DUP2 MSTORE PUSH1 0x40 PUSH1 0x0 KECCAK256 SLOAD TIMESTAMP GT PUSH2 0x28E4 JUMPI DUP2 PUSH1 0x0 MSTORE PUSH1 0x10 DUP2 MSTORE PUSH1 0x40 PUSH1 0x0 KECCAK256 CALLER PUSH1 0x0 MSTORE DUP2 MSTORE DUP3 PUSH1 0x40 PUSH1 0x0 KECCAK256 SLOAD AND PUSH2 0x28B0 JUMPI PUSH1 0x0 SWAP3 DUP3 PUSH1 0x0 MSTORE PUSH1 0x9 DUP3 MSTORE PUSH1 0x40 PUSH1 0x0 KECCAK256 DUP1 SLOAD SWAP1 PUSH2 0x2727 DUP3 PUSH2 0x3BF7 JUMP JUMPDEST SWAP3 PUSH2 0x2735 PUSH1 0x40 MLOAD SWAP5 DUP6 PUSH2 0x3404 JUMP JUMPDEST DUP3 DUP5 MSTORE PUSH1 0x0 SWAP2 DUP3 MSTORE DUP5 DUP3 KECCAK256 SWAP1 DUP6 DUP1 DUP7 ADD JUMPDEST DUP6 DUP6 LT PUSH2 0x286D JUMPI POP POP POP POP POP POP PUSH1 0x0 JUMPDEST DUP2 MLOAD DUP2 LT ISZERO PUSH2 0x2863 JUMPI CALLER PUSH1 0x1 PUSH1 0x1 PUSH1 0xA0 SHL SUB PUSH2 0x2772 DUP4 DUP6 PUSH2 0x3C0F JUMP JUMPDEST MLOAD MLOAD AND EQ PUSH2 0x2788 JUMPI PUSH2 0x2783 SWAP1 PUSH2 0x36A8 JUMP JUMPDEST PUSH2 0x2756 JUMP JUMPDEST DUP3 SWAP4 SWAP5 POP PUSH2 0x2795 SWAP2 PUSH2 0x3C0F JUMP JUMPDEST MLOAD ADD MLOAD SWAP1 JUMPDEST DUP2 ISZERO PUSH2 0x2830 JUMPI DUP3 PUSH1 0x0 MSTORE PUSH1 0x10 DUP2 MSTORE PUSH1 0x40 PUSH1 0x0 KECCAK256 CALLER PUSH1 0x0 MSTORE DUP2 MSTORE PUSH1 0x40 PUSH1 0x0 KECCAK256 PUSH1 0x1 PUSH1 0xFF NOT DUP3 SLOAD AND OR SWAP1 SSTORE DUP3 PUSH1 0x0 MSTORE PUSH1 0xF DUP2 MSTORE PUSH1 0x40 PUSH1 0x0 KECCAK256 PUSH2 0x27D9 DUP6 PUSH2 0x3632 JUMP JUMPDEST DUP5 PUSH1 0x0 MSTORE DUP2 MSTORE PUSH1 0x40 PUSH1 0x0 KECCAK256 PUSH2 0x27EF DUP4 DUP3 SLOAD PUSH2 0x3A40 JUMP JUMPDEST SWAP1 SSTORE PUSH1 0x40 MLOAD SWAP4 PUSH2 0x27FE DUP2 PUSH2 0x3632 JUMP JUMPDEST DUP5 MSTORE DUP4 ADD MSTORE PUSH32 0xB83D25C6A5D258561330739951487ACB4BD09BA5190B5D32C4F261817D906792 PUSH1 0x40 CALLER SWAP4 LOG3 PUSH1 0x1 PUSH1 0x0 SSTORE STOP JUMPDEST PUSH1 0x64 SWAP1 PUSH1 0x40 MLOAD SWAP1 PUSH3 0x461BCD PUSH1 0xE5 SHL DUP3 MSTORE PUSH1 0x4 DUP3 ADD MSTORE PUSH1 0xC PUSH1 0x24 DUP3 ADD MSTORE PUSH12 0x2737BA1030903632B73232B9 PUSH1 0xA1 SHL PUSH1 0x44 DUP3 ADD MSTORE REVERT JUMPDEST POP POP SWAP2 SWAP1 SWAP2 PUSH2 0x279A JUMP JUMPDEST PUSH1 0x1 SWAP2 PUSH1 0x3 SWAP2 PUSH1 0x40 MLOAD PUSH2 0x287F DUP2 PUSH2 0x33E8 JUMP JUMPDEST DUP5 DUP1 PUSH1 0xA0 SHL SUB DUP8 SLOAD AND DUP2 MSTORE DUP5 DUP8 ADD SLOAD DUP4 DUP3 ADD MSTORE DUP6 PUSH1 0x2 DUP9 ADD SLOAD AND ISZERO ISZERO PUSH1 0x40 DUP3 ADD MSTORE DUP2 MSTORE ADD SWAP4 ADD SWAP4 ADD SWAP3 SWAP2 DUP7 SWAP1 PUSH2 0x2746 JUMP JUMPDEST PUSH1 0x64 SWAP1 PUSH1 0x40 MLOAD SWAP1 PUSH3 0x461BCD PUSH1 0xE5 SHL DUP3 MSTORE PUSH1 0x4 DUP3 ADD MSTORE PUSH1 0xD PUSH1 0x24 DUP3 ADD MSTORE PUSH13 0x105B1C9958591E481D9BDD1959 PUSH1 0x9A SHL PUSH1 0x44 DUP3 ADD MSTORE REVERT JUMPDEST PUSH1 0x64 SWAP1 PUSH1 0x40 MLOAD SWAP1 PUSH3 0x461BCD PUSH1 0xE5 SHL DUP3 MSTORE PUSH1 0x4 DUP3 ADD MSTORE PUSH1 0x13 PUSH1 0x24 DUP3 ADD MSTORE PUSH19 0x159BDD1A5B99C81C195C9A5BD908195B991959 PUSH1 0x6A SHL PUSH1 0x44 DUP3 ADD MSTORE REVERT JUMPDEST CALLVALUE PUSH2 0x2C4 JUMPI PUSH2 0x292C CALLDATASIZE PUSH2 0x33B6 JUMP JUMPDEST SWAP1 PUSH1 0x0 MSTORE PUSH1 0x9 PUSH1 0x20 MSTORE PUSH1 0x40 PUSH1 0x0 KECCAK256 DUP1 SLOAD DUP3 LT ISZERO PUSH2 0x2C4 JUMPI PUSH1 0x60 SWAP2 PUSH2 0x294F SWAP2 PUSH2 0x3489 JUMP JUMPDEST POP PUSH1 0x1 DUP1 PUSH1 0xA0 SHL SUB DUP2 SLOAD AND SWAP1 PUSH1 0xFF PUSH1 0x2 PUSH1 0x1 DUP4 ADD SLOAD SWAP3 ADD SLOAD AND SWAP1 PUSH1 0x40 MLOAD SWAP3 DUP4 MSTORE PUSH1 0x20 DUP4 ADD MSTORE ISZERO ISZERO PUSH1 0x40 DUP3 ADD MSTORE RETURN JUMPDEST CALLVALUE PUSH2 0x2C4 JUMPI PUSH1 0x0 CALLDATASIZE PUSH1 0x3 NOT ADD SLT PUSH2 0x2C4 JUMPI PUSH1 0x20 PUSH1 0x40 MLOAD PUSH2 0xBB8 DUP2 MSTORE RETURN JUMPDEST PUSH2 0x120 CALLDATASIZE PUSH1 0x3 NOT ADD SLT PUSH2 0x2C4 JUMPI PUSH2 0x104 CALLDATALOAD PUSH8 0xFFFFFFFFFFFFFFFF DUP2 GT PUSH2 0x2C4 JUMPI PUSH2 0x29C8 SWAP1 CALLDATASIZE SWAP1 PUSH1 0x4 ADD PUSH2 0x3442 JUMP JUMPDEST PUSH2 0x29D0 PUSH2 0x3B54 JUMP JUMPDEST PUSH2 0x29D8 PUSH2 0x3B33 JUMP JUMPDEST PUSH1 0x44 CALLDATALOAD ISZERO PUSH2 0x32F8 JUMPI PUSH2 0xBB8 PUSH1 0x64 CALLDATALOAD GT PUSH2 0x32BA JUMPI PUSH3 0x15180 DUP1 PUSH1 0x84 CALLDATALOAD LT ISZERO DUP1 PUSH2 0x32AA JUMPI JUMPDEST ISZERO PUSH2 0x3272 JUMPI PUSH1 0x4 CALLDATALOAD PUSH1 0x0 MSTORE PUSH1 0x8 PUSH1 0x20 MSTORE PUSH2 0x2A22 PUSH1 0xFF PUSH1 0x2 PUSH1 0x40 PUSH1 0x0 KECCAK256 ADD SLOAD PUSH1 0x8 SHR AND PUSH2 0x36F9 JUMP JUMPDEST PUSH1 0x24 CALLDATALOAD PUSH1 0x0 MSTORE PUSH1 0x8 PUSH1 0x20 MSTORE PUSH1 0xFF PUSH1 0x2 PUSH1 0x40 PUSH1 0x0 KECCAK256 ADD SLOAD PUSH1 0x8 SHR AND ISZERO PUSH2 0x322D JUMPI DUP2 MLOAD ISZERO PUSH2 0x31F3 JUMPI PUSH1 0xA4 CALLDATALOAD ISZERO ISZERO DUP1 PUSH2 0x31E2 JUMPI JUMPDEST ISZERO PUSH2 0x319D JUMPI PUSH1 0xC4 CALLDATALOAD LT ISZERO DUP1 PUSH2 0x318E JUMPI JUMPDEST ISZERO PUSH2 0x3150 JUMPI PUSH2 0x1F4 PUSH1 0xE4 CALLDATALOAD GT PUSH2 0x3118 JUMPI CALLER PUSH1 0x0 MSTORE PUSH1 0xD PUSH1 0x20 MSTORE PUSH1 0x40 PUSH1 0x0 KECCAK256 PUSH2 0x12C DUP2 SLOAD LT SWAP1 DUP2 ISZERO SWAP2 PUSH2 0x310B JUMPI JUMPDEST POP ISZERO PUSH2 0x30CF JUMPI PUSH2 0x2AA4 PUSH1 0x44 CALLDATALOAD PUSH1 0x4 CALLDATALOAD PUSH2 0x39A0 JUMP JUMPDEST DUP1 PUSH1 0x96 DUP2 MUL DIV PUSH1 0x96 EQ DUP2 ISZERO OR ISZERO PUSH2 0xBFF JUMPI PUSH2 0x2B60 SWAP1 PUSH2 0x2B5B PUSH2 0x2AC7 PUSH1 0x24 CALLDATALOAD PUSH2 0x375F JUMP JUMPDEST POP SWAP2 PUSH1 0x24 CALLDATALOAD PUSH1 0x0 MSTORE PUSH1 0x8 PUSH1 0x20 MSTORE PUSH1 0x64 PUSH1 0x96 PUSH2 0x2B53 PUSH1 0x40 PUSH1 0x0 KECCAK256 PUSH1 0x2 PUSH1 0x40 MLOAD SWAP2 PUSH2 0x2AEF DUP4 PUSH2 0x33CC JUMP JUMPDEST DUP1 SLOAD PUSH1 0xFF DUP2 AND PUSH2 0x2AFE DUP2 PUSH2 0x3632 JUMP JUMPDEST DUP5 MSTORE PUSH1 0x8 SHR PUSH1 0x1 PUSH1 0x1 PUSH1 0xA0 SHL SUB AND PUSH1 0x20 DUP5 ADD MSTORE PUSH2 0x2B1D PUSH1 0x1 DUP3 ADD PUSH2 0x358C JUMP JUMPDEST PUSH1 0x40 DUP5 ADD MSTORE ADD SLOAD SWAP1 PUSH1 0xA0 PUSH1 0xFF DUP4 AND SWAP3 DUP4 PUSH1 0x60 DUP5 ADD MSTORE PUSH1 0xFF DUP2 PUSH1 0x8 SHR AND ISZERO ISZERO PUSH1 0x80 DUP5 ADD MSTORE PUSH1 0x1 DUP1 DUP4 SHL SUB SWAP1 PUSH1 0x10 SHR AND SWAP2 ADD MSTORE PUSH2 0x396F JUMP JUMPDEST SWAP3 MUL DIV PUSH2 0x395C JUMP JUMPDEST PUSH2 0x3980 JUMP JUMPDEST SWAP1 PUSH1 0x24 CALLDATALOAD PUSH1 0x0 MSTORE PUSH1 0x8 PUSH1 0x20 MSTORE PUSH1 0xFF PUSH1 0x40 PUSH1 0x0 KECCAK256 SLOAD AND PUSH2 0x2B7E DUP2 PUSH2 0x3632 JUMP JUMPDEST PUSH2 0x2F92 JUMPI DUP2 CALLVALUE LT PUSH2 0x2F4D JUMPI JUMPDEST PUSH1 0x2 SLOAD PUSH2 0x2B96 DUP2 PUSH2 0x36A8 JUMP JUMPDEST PUSH1 0x2 SSTORE PUSH2 0x2BA5 PUSH1 0xC4 CALLDATALOAD TIMESTAMP PUSH2 0x3A40 JUMP JUMPDEST SWAP3 PUSH1 0x24 CALLDATALOAD PUSH1 0x0 MSTORE PUSH1 0x8 PUSH1 0x20 MSTORE PUSH1 0xFF PUSH1 0x40 PUSH1 0x0 KECCAK256 SLOAD AND PUSH2 0x2BC3 DUP2 PUSH2 0x3632 JUMP JUMPDEST PUSH2 0x2F48 JUMPI POP CALLVALUE JUMPDEST PUSH1 0x40 MLOAD SWAP1 DUP2 PUSH2 0x280 DUP2 ADD LT PUSH8 0xFFFFFFFFFFFFFFFF PUSH2 0x280 DUP5 ADD GT OR PUSH2 0xC2B JUMPI PUSH2 0x280 DUP3 ADD PUSH1 0x40 MSTORE DUP3 DUP3 MSTORE CALLER PUSH1 0x20 DUP4 ADD MSTORE PUSH1 0x4 CALLDATALOAD PUSH1 0x40 DUP4 ADD MSTORE PUSH1 0x24 CALLDATALOAD PUSH1 0x60 DUP4 ADD MSTORE PUSH1 0x44 CALLDATALOAD PUSH1 0x80 DUP4 ADD MSTORE PUSH1 0x0 PUSH1 0xA0 DUP4 ADD MSTORE PUSH1 0xC0 DUP3 ADD MSTORE PUSH1 0x64 CALLDATALOAD PUSH1 0xE0 DUP3 ADD MSTORE PUSH1 0x84 CALLDATALOAD PUSH2 0x100 DUP3 ADD MSTORE PUSH1 0xA4 CALLDATALOAD PUSH2 0x120 DUP3 ADD MSTORE DUP4 PUSH2 0x140 DUP3 ADD MSTORE TIMESTAMP PUSH2 0x160 DUP3 ADD MSTORE PUSH1 0x0 PUSH2 0x180 DUP3 ADD MSTORE PUSH1 0x0 PUSH2 0x1A0 DUP3 ADD MSTORE PUSH1 0x0 PUSH2 0x1C0 DUP3 ADD MSTORE DUP3 PUSH2 0x1E0 DUP3 ADD MSTORE PUSH1 0x0 PUSH2 0x200 DUP3 ADD MSTORE PUSH1 0x78 PUSH2 0x220 DUP3 ADD MSTORE PUSH1 0x0 PUSH2 0x240 DUP3 ADD MSTORE PUSH1 0xE4 CALLDATALOAD PUSH2 0x260 DUP3 ADD MSTORE DUP2 PUSH1 0x0 MSTORE PUSH1 0x7 PUSH1 0x20 MSTORE PUSH1 0x40 PUSH1 0x0 KECCAK256 SWAP1 DUP1 MLOAD DUP3 SSTORE PUSH1 0x1 DUP3 ADD PUSH1 0x1 DUP1 PUSH1 0xA0 SHL SUB PUSH1 0x20 DUP4 ADD MLOAD AND PUSH1 0x1 PUSH1 0x1 PUSH1 0x60 SHL SUB PUSH1 0xA0 SHL DUP3 SLOAD AND OR SWAP1 SSTORE PUSH1 0x40 DUP2 ADD MLOAD PUSH1 0x2 DUP4 ADD SSTORE PUSH1 0x60 DUP2 ADD MLOAD PUSH1 0x3 DUP4 ADD SSTORE PUSH1 0x80 DUP2 ADD MLOAD PUSH1 0x4 DUP4 ADD SSTORE PUSH1 0xA0 DUP2 ADD MLOAD PUSH1 0x5 DUP4 ADD SSTORE PUSH1 0xC0 DUP2 ADD MLOAD PUSH1 0x6 DUP4 ADD SSTORE PUSH1 0xE0 DUP2 ADD MLOAD PUSH1 0x7 DUP4 ADD SSTORE PUSH2 0x100 DUP2 ADD MLOAD PUSH1 0x8 DUP4 ADD SSTORE PUSH2 0x120 DUP2 ADD MLOAD PUSH1 0x9 DUP4 ADD SSTORE PUSH2 0x140 DUP2 ADD MLOAD PUSH1 0xA DUP4 ADD SSTORE PUSH2 0x160 DUP2 ADD MLOAD PUSH1 0xB DUP4 ADD SSTORE PUSH2 0x180 DUP2 ADD MLOAD PUSH1 0xC DUP4 ADD SSTORE PUSH2 0x1A0 DUP2 ADD MLOAD PUSH1 0xD DUP4 ADD SSTORE PUSH1 0xE DUP3 ADD PUSH2 0x1C0 DUP3 ADD MLOAD PUSH1 0x7 DUP2 LT ISZERO PUSH2 0x5B9 JUMPI PUSH1 0xFF DUP1 NOT DUP4 SLOAD AND SWAP2 AND OR SWAP1 SSTORE PUSH2 0x1E0 DUP2 ADD MLOAD DUP1 MLOAD SWAP1 PUSH8 0xFFFFFFFFFFFFFFFF DUP3 GT PUSH2 0xC2B JUMPI PUSH2 0x2D7D PUSH1 0xF DUP6 ADD SLOAD PUSH2 0x3552 JUMP JUMPDEST PUSH1 0x1F DUP2 GT PUSH2 0x2F01 JUMPI JUMPDEST POP PUSH1 0x20 SWAP1 PUSH1 0x1F DUP4 GT PUSH1 0x1 EQ PUSH2 0x2E8B JUMPI SWAP2 DUP1 PUSH1 0x13 SWAP5 SWAP3 PUSH2 0x260 SWAP5 PUSH1 0x0 SWAP3 PUSH2 0x2E80 JUMPI JUMPDEST POP POP DUP2 PUSH1 0x1 SHL SWAP2 PUSH1 0x0 NOT SWAP1 PUSH1 0x3 SHL SHR NOT AND OR PUSH1 0xF DUP6 ADD SSTORE JUMPDEST PUSH2 0x200 DUP2 ADD MLOAD PUSH1 0x10 DUP6 ADD SSTORE PUSH2 0x220 DUP2 ADD MLOAD PUSH1 0x11 DUP6 ADD SSTORE PUSH2 0x240 DUP2 ADD MLOAD PUSH1 0x12 DUP6 ADD SSTORE ADD MLOAD SWAP2 ADD SSTORE CALLER PUSH1 0x0 MSTORE PUSH1 0xB PUSH1 0x20 MSTORE PUSH2 0x2DFC DUP2 PUSH1 0x40 PUSH1 0x0 KECCAK256 PUSH2 0x3A4D JUMP JUMPDEST DUP1 PUSH1 0x0 MSTORE PUSH1 0x7 PUSH1 0x20 MSTORE PUSH1 0x6 PUSH1 0x40 PUSH1 0x0 KECCAK256 ADD SLOAD SWAP3 PUSH1 0x40 MLOAD SWAP4 PUSH1 0x44 CALLDATALOAD DUP6 MSTORE PUSH1 0x20 DUP6 ADD MSTORE PUSH1 0x64 CALLDATALOAD PUSH1 0x40 DUP6 ADD MSTORE PUSH1 0x84 CALLDATALOAD PUSH1 0x60 DUP6 ADD MSTORE PUSH1 0xA4 CALLDATALOAD PUSH1 0x80 DUP6 ADD MSTORE PUSH1 0xA0 DUP5 ADD MSTORE PUSH1 0xE0 PUSH1 0xC0 DUP5 ADD MSTORE PUSH32 0x1455473C3ACC495FCC473211502FCF9EFE62F6C3A6B091A395E25C5C5D30AB54 PUSH1 0x4 CALLDATALOAD SWAP4 DUP1 PUSH2 0x2E76 CALLER SWAP6 PUSH1 0xE0 DUP4 ADD SWAP1 PUSH2 0x363C JUMP JUMPDEST SUB SWAP1 LOG4 PUSH1 0x1 PUSH1 0x0 SSTORE STOP JUMPDEST ADD MLOAD SWAP1 POP DUP10 DUP1 PUSH2 0x2DA7 JUMP JUMPDEST SWAP1 PUSH1 0xF DUP6 ADD PUSH1 0x0 MSTORE PUSH1 0x20 PUSH1 0x0 KECCAK256 SWAP2 PUSH1 0x0 JUMPDEST PUSH1 0x1F NOT DUP6 AND DUP2 LT PUSH2 0x2EE9 JUMPI POP SWAP3 PUSH1 0x13 SWAP5 SWAP3 PUSH1 0x1 SWAP3 PUSH2 0x260 SWAP6 DUP4 PUSH1 0x1F NOT DUP2 AND LT PUSH2 0x2ED0 JUMPI JUMPDEST POP POP POP DUP2 SHL ADD PUSH1 0xF DUP6 ADD SSTORE PUSH2 0x2DBF JUMP JUMPDEST ADD MLOAD PUSH1 0x0 NOT PUSH1 0xF8 DUP5 PUSH1 0x3 SHL AND SHR NOT AND SWAP1 SSTORE DUP10 DUP1 DUP1 PUSH2 0x2EC0 JUMP JUMPDEST SWAP2 SWAP3 PUSH1 0x20 PUSH1 0x1 DUP2 SWAP3 DUP7 DUP6 ADD MLOAD DUP2 SSTORE ADD SWAP5 ADD SWAP3 ADD PUSH2 0x2E9C JUMP JUMPDEST PUSH1 0xF DUP6 ADD PUSH1 0x0 MSTORE PUSH1 0x20 PUSH1 0x0 KECCAK256 PUSH1 0x1F DUP5 ADD PUSH1 0x5 SHR DUP2 ADD PUSH1 0x20 DUP6 LT PUSH2 0x2F41 JUMPI JUMPDEST PUSH1 0x1F DUP4 ADD PUSH1 0x5 SHR DUP3 ADD DUP2 LT PUSH2 0x2F35 JUMPI POP POP PUSH2 0x2D86 JUMP JUMPDEST PUSH1 0x0 DUP2 SSTORE PUSH1 0x1 ADD PUSH2 0x2F1F JUMP JUMPDEST POP DUP1 PUSH2 0x2F1F JUMP JUMPDEST PUSH2 0x2BCA JUMP JUMPDEST PUSH1 0x40 MLOAD PUSH3 0x461BCD PUSH1 0xE5 SHL DUP2 MSTORE PUSH1 0x20 PUSH1 0x4 DUP3 ADD MSTORE PUSH1 0x1B PUSH1 0x24 DUP3 ADD MSTORE PUSH32 0x496E73756666696369656E742045544820636F6C6C61746572616C0000000000 PUSH1 0x44 DUP3 ADD MSTORE PUSH1 0x64 SWAP1 REVERT JUMPDEST CALLVALUE PUSH2 0x307E JUMPI PUSH1 0x24 CALLDATALOAD PUSH1 0x0 MSTORE PUSH1 0x8 PUSH1 0x20 MSTORE PUSH1 0x1 DUP1 PUSH1 0xA0 SHL SUB PUSH1 0x40 PUSH1 0x0 KECCAK256 SLOAD PUSH1 0x8 SHR AND PUSH1 0x40 MLOAD PUSH4 0x70A08231 PUSH1 0xE0 SHL DUP2 MSTORE CALLER PUSH1 0x4 DUP3 ADD MSTORE PUSH1 0x20 DUP2 PUSH1 0x24 DUP2 DUP6 GAS STATICCALL DUP1 ISZERO PUSH2 0x3072 JUMPI DUP5 SWAP2 PUSH1 0x0 SWAP2 PUSH2 0x303D JUMPI JUMPDEST POP LT PUSH2 0x2FF8 JUMPI DUP3 PUSH2 0x2FF3 SWAP2 ADDRESS SWAP1 CALLER SWAP1 PUSH2 0x3A82 JUMP JUMPDEST PUSH2 0x2B8A JUMP JUMPDEST PUSH1 0x40 MLOAD PUSH3 0x461BCD PUSH1 0xE5 SHL DUP2 MSTORE PUSH1 0x20 PUSH1 0x4 DUP3 ADD MSTORE PUSH1 0x1A PUSH1 0x24 DUP3 ADD MSTORE PUSH32 0x496E73756666696369656E742045524332302062616C616E6365000000000000 PUSH1 0x44 DUP3 ADD MSTORE PUSH1 0x64 SWAP1 REVERT JUMPDEST SWAP2 POP POP PUSH1 0x20 DUP2 RETURNDATASIZE PUSH1 0x20 GT PUSH2 0x306A JUMPI JUMPDEST DUP2 PUSH2 0x3059 PUSH1 0x20 SWAP4 DUP4 PUSH2 0x3404 JUMP JUMPDEST DUP2 ADD SUB SLT PUSH2 0x2C4 JUMPI DUP4 SWAP1 MLOAD DUP6 PUSH2 0x2FDF JUMP JUMPDEST RETURNDATASIZE SWAP2 POP PUSH2 0x304C JUMP JUMPDEST PUSH1 0x40 MLOAD RETURNDATASIZE PUSH1 0x0 DUP3 RETURNDATACOPY RETURNDATASIZE SWAP1 REVERT JUMPDEST PUSH1 0x40 MLOAD PUSH3 0x461BCD PUSH1 0xE5 SHL DUP2 MSTORE PUSH1 0x20 PUSH1 0x4 DUP3 ADD MSTORE PUSH1 0x23 PUSH1 0x24 DUP3 ADD MSTORE PUSH32 0x455448206E6F74206E656564656420666F7220455243323020636F6C6C617465 PUSH1 0x44 DUP3 ADD MSTORE PUSH3 0x1C985B PUSH1 0xEA SHL PUSH1 0x64 DUP3 ADD MSTORE PUSH1 0x84 SWAP1 REVERT JUMPDEST PUSH1 0x40 MLOAD PUSH3 0x461BCD PUSH1 0xE5 SHL DUP2 MSTORE PUSH1 0x20 PUSH1 0x4 DUP3 ADD MSTORE PUSH1 0x14 PUSH1 0x24 DUP3 ADD MSTORE PUSH20 0x4372656469742073636F726520746F6F206C6F77 PUSH1 0x60 SHL PUSH1 0x44 DUP3 ADD MSTORE PUSH1 0x64 SWAP1 REVERT JUMPDEST PUSH1 0x1 SWAP2 POP ADD SLOAD ISZERO DUP3 PUSH2 0x2A90 JUMP JUMPDEST PUSH1 0x40 MLOAD PUSH3 0x461BCD PUSH1 0xE5 SHL DUP2 MSTORE PUSH1 0x20 PUSH1 0x4 DUP3 ADD MSTORE PUSH1 0x10 PUSH1 0x24 DUP3 ADD MSTORE PUSH16 0xA0CADCC2D8E8F240E8DEDE40D0D2CED PUSH1 0x83 SHL PUSH1 0x44 DUP3 ADD MSTORE PUSH1 0x64 SWAP1 REVERT JUMPDEST PUSH1 0x40 MLOAD PUSH3 0x461BCD PUSH1 0xE5 SHL DUP2 MSTORE PUSH1 0x20 PUSH1 0x4 DUP3 ADD MSTORE PUSH1 0x16 PUSH1 0x24 DUP3 ADD MSTORE PUSH22 0x125B9D985B1A5908199D5B991A5B99C81C195C9A5BD9 PUSH1 0x52 SHL PUSH1 0x44 DUP3 ADD MSTORE PUSH1 0x64 SWAP1 REVERT JUMPDEST POP PUSH3 0x278D00 PUSH1 0xC4 CALLDATALOAD GT ISZERO PUSH2 0x2A63 JUMP JUMPDEST PUSH1 0x40 MLOAD PUSH3 0x461BCD PUSH1 0xE5 SHL DUP2 MSTORE PUSH1 0x20 PUSH1 0x4 DUP3 ADD MSTORE PUSH1 0x18 PUSH1 0x24 DUP3 ADD MSTORE PUSH32 0x496E76616C6964206D696E20636F6E747269627574696F6E0000000000000000 PUSH1 0x44 DUP3 ADD MSTORE PUSH1 0x64 SWAP1 REVERT JUMPDEST POP PUSH1 0x44 CALLDATALOAD PUSH1 0x1 SHR PUSH1 0xA4 CALLDATALOAD GT ISZERO PUSH2 0x2A53 JUMP JUMPDEST PUSH1 0x40 MLOAD PUSH3 0x461BCD PUSH1 0xE5 SHL DUP2 MSTORE PUSH1 0x20 PUSH1 0x4 DUP3 ADD MSTORE PUSH1 0x12 PUSH1 0x24 DUP3 ADD MSTORE PUSH18 0x12541194C81A185CDA081C995C5D5A5C9959 PUSH1 0x72 SHL PUSH1 0x44 DUP3 ADD MSTORE PUSH1 0x64 SWAP1 REVERT JUMPDEST PUSH1 0x40 MLOAD PUSH3 0x461BCD PUSH1 0xE5 SHL DUP2 MSTORE PUSH1 0x20 PUSH1 0x4 DUP3 ADD MSTORE PUSH1 0x1E PUSH1 0x24 DUP3 ADD MSTORE PUSH32 0x436F6C6C61746572616C20746F6B656E206E6F7420737570706F727465640000 PUSH1 0x44 DUP3 ADD MSTORE PUSH1 0x64 SWAP1 REVERT JUMPDEST PUSH1 0x40 MLOAD PUSH3 0x461BCD PUSH1 0xE5 SHL DUP2 MSTORE PUSH1 0x20 PUSH1 0x4 DUP3 ADD MSTORE PUSH1 0x10 PUSH1 0x24 DUP3 ADD MSTORE PUSH16 0x24B73B30B634B210323AB930BA34B7B7 PUSH1 0x81 SHL PUSH1 0x44 DUP3 ADD MSTORE PUSH1 0x64 SWAP1 REVERT JUMPDEST POP PUSH4 0x1E13380 PUSH1 0x84 CALLDATALOAD GT ISZERO PUSH2 0x29FB JUMP JUMPDEST PUSH1 0x40 MLOAD PUSH3 0x461BCD PUSH1 0xE5 SHL DUP2 MSTORE PUSH1 0x20 PUSH1 0x4 DUP3 ADD MSTORE PUSH1 0x16 PUSH1 0x24 DUP3 ADD MSTORE PUSH22 0x92DCE8CAE4CAE6E840E4C2E8CA40E8DEDE40D0D2CED PUSH1 0x53 SHL PUSH1 0x44 DUP3 ADD MSTORE PUSH1 0x64 SWAP1 REVERT JUMPDEST PUSH1 0x40 MLOAD PUSH3 0x461BCD PUSH1 0xE5 SHL DUP2 MSTORE PUSH1 0x20 PUSH1 0x4 DUP3 ADD MSTORE PUSH1 0x1D PUSH1 0x24 DUP3 ADD MSTORE PUSH32 0x416D6F756E74206D7573742062652067726561746572207468616E2030000000 PUSH1 0x44 DUP3 ADD MSTORE PUSH1 0x64 SWAP1 REVERT JUMPDEST CALLVALUE PUSH2 0x2C4 JUMPI PUSH1 0x20 PUSH2 0x3356 PUSH2 0x3350 CALLDATASIZE PUSH2 0x33B6 JUMP JUMPDEST SWAP1 PUSH2 0x39A0 JUMP JUMPDEST PUSH1 0x40 MLOAD SWAP1 DUP2 MSTORE RETURN JUMPDEST CALLVALUE PUSH2 0x2C4 JUMPI PUSH1 0x0 CALLDATASIZE PUSH1 0x3 NOT ADD SLT PUSH2 0x2C4 JUMPI PUSH1 0x20 PUSH1 0x40 MLOAD PUSH4 0x1E13380 DUP2 MSTORE RETURN JUMPDEST CALLVALUE PUSH2 0x2C4 JUMPI PUSH1 0x0 CALLDATASIZE PUSH1 0x3 NOT ADD SLT PUSH2 0x2C4 JUMPI PUSH1 0x20 PUSH1 0x40 MLOAD PUSH2 0x12C DUP2 MSTORE RETURN JUMPDEST CALLVALUE PUSH2 0x2C4 JUMPI PUSH1 0x0 CALLDATASIZE PUSH1 0x3 NOT ADD SLT PUSH2 0x2C4 JUMPI DUP1 PUSH3 0x93A80 PUSH1 0x20 SWAP3 MSTORE RETURN JUMPDEST PUSH1 0x40 SWAP1 PUSH1 0x3 NOT ADD SLT PUSH2 0x2C4 JUMPI PUSH1 0x4 CALLDATALOAD SWAP1 PUSH1 0x24 CALLDATALOAD SWAP1 JUMP JUMPDEST PUSH1 0xC0 DUP2 ADD SWAP1 DUP2 LT PUSH8 0xFFFFFFFFFFFFFFFF DUP3 GT OR PUSH2 0xC2B JUMPI PUSH1 0x40 MSTORE JUMP JUMPDEST PUSH1 0x60 DUP2 ADD SWAP1 DUP2 LT PUSH8 0xFFFFFFFFFFFFFFFF DUP3 GT OR PUSH2 0xC2B JUMPI PUSH1 0x40 MSTORE JUMP JUMPDEST SWAP1 PUSH1 0x1F DUP1 NOT SWAP2 ADD AND DUP2 ADD SWAP1 DUP2 LT PUSH8 0xFFFFFFFFFFFFFFFF DUP3 GT OR PUSH2 0xC2B JUMPI PUSH1 0x40 MSTORE JUMP JUMPDEST PUSH8 0xFFFFFFFFFFFFFFFF DUP2 GT PUSH2 0xC2B JUMPI PUSH1 0x1F ADD PUSH1 0x1F NOT AND PUSH1 0x20 ADD SWAP1 JUMP JUMPDEST DUP2 PUSH1 0x1F DUP3 ADD SLT ISZERO PUSH2 0x2C4 JUMPI DUP1 CALLDATALOAD SWAP1 PUSH2 0x3459 DUP3 PUSH2 0x3426 JUMP JUMPDEST SWAP3 PUSH2 0x3467 PUSH1 0x40 MLOAD SWAP5 DUP6 PUSH2 0x3404 JUMP JUMPDEST DUP3 DUP5 MSTORE PUSH1 0x20 DUP4 DUP4 ADD ADD GT PUSH2 0x2C4 JUMPI DUP2 PUSH1 0x0 SWAP3 PUSH1 0x20 DUP1 SWAP4 ADD DUP4 DUP7 ADD CALLDATACOPY DUP4 ADD ADD MSTORE SWAP1 JUMP JUMPDEST DUP1 SLOAD DUP3 LT ISZERO PUSH2 0x34A5 JUMPI PUSH1 0x0 MSTORE PUSH1 0x3 PUSH1 0x20 PUSH1 0x0 KECCAK256 SWAP2 MUL ADD SWAP1 PUSH1 0x0 SWAP1 JUMP JUMPDEST PUSH4 0x4E487B71 PUSH1 0xE0 SHL PUSH1 0x0 MSTORE PUSH1 0x32 PUSH1 0x4 MSTORE PUSH1 0x24 PUSH1 0x0 REVERT JUMPDEST PUSH1 0x40 SWAP1 PUSH1 0x3 NOT ADD SLT PUSH2 0x2C4 JUMPI PUSH1 0x4 CALLDATALOAD SWAP1 PUSH1 0x24 CALLDATALOAD PUSH1 0x2 DUP2 LT ISZERO PUSH2 0x2C4 JUMPI SWAP1 JUMP JUMPDEST PUSH1 0x4 CALLDATALOAD SWAP1 PUSH1 0x1 PUSH1 0x1 PUSH1 0xA0 SHL SUB DUP3 AND DUP3 SUB PUSH2 0x2C4 JUMPI JUMP JUMPDEST PUSH1 0x24 CALLDATALOAD SWAP1 PUSH1 0x1 PUSH1 0x1 PUSH1 0xA0 SHL SUB DUP3 AND DUP3 SUB PUSH2 0x2C4 JUMPI JUMP JUMPDEST DUP1 SLOAD DUP3 LT ISZERO PUSH2 0x34A5 JUMPI PUSH1 0x0 MSTORE PUSH1 0x20 PUSH1 0x0 KECCAK256 ADD SWAP1 PUSH1 0x0 SWAP1 JUMP JUMPDEST SWAP1 DUP2 MLOAD DUP1 DUP3 MSTORE PUSH1 0x20 DUP1 DUP1 SWAP4 ADD SWAP4 ADD SWAP2 PUSH1 0x0 JUMPDEST DUP3 DUP2 LT PUSH2 0x353E JUMPI POP POP POP POP SWAP1 JUMP JUMPDEST DUP4 MLOAD DUP6 MSTORE SWAP4 DUP2 ADD SWAP4 SWAP3 DUP2 ADD SWAP3 PUSH1 0x1 ADD PUSH2 0x3530 JUMP JUMPDEST SWAP1 PUSH1 0x1 DUP3 DUP2 SHR SWAP3 AND DUP1 ISZERO PUSH2 0x3582 JUMPI JUMPDEST PUSH1 0x20 DUP4 LT EQ PUSH2 0x356C JUMPI JUMP JUMPDEST PUSH4 0x4E487B71 PUSH1 0xE0 SHL PUSH1 0x0 MSTORE PUSH1 0x22 PUSH1 0x4 MSTORE PUSH1 0x24 PUSH1 0x0 REVERT JUMPDEST SWAP2 PUSH1 0x7F AND SWAP2 PUSH2 0x3561 JUMP JUMPDEST SWAP1 PUSH1 0x40 MLOAD SWAP2 DUP3 PUSH1 0x0 DUP3 SLOAD SWAP3 PUSH2 0x35A0 DUP5 PUSH2 0x3552 JUMP JUMPDEST SWAP1 DUP2 DUP5 MSTORE PUSH1 0x1 SWAP5 DUP6 DUP2 AND SWAP1 DUP2 PUSH1 0x0 EQ PUSH2 0x360F JUMPI POP PUSH1 0x1 EQ PUSH2 0x35CC JUMPI JUMPDEST POP POP PUSH2 0x35CA SWAP3 POP SUB DUP4 PUSH2 0x3404 JUMP JUMPDEST JUMP JUMPDEST SWAP1 SWAP4 SWAP2 POP PUSH1 0x0 MSTORE PUSH1 0x20 SWAP1 DUP2 PUSH1 0x0 KECCAK256 SWAP4 PUSH1 0x0 SWAP2 JUMPDEST DUP2 DUP4 LT PUSH2 0x35F7 JUMPI POP POP PUSH2 0x35CA SWAP4 POP DUP3 ADD ADD CODESIZE DUP1 PUSH2 0x35BC JUMP JUMPDEST DUP6 SLOAD DUP9 DUP5 ADD DUP6 ADD MSTORE SWAP5 DUP6 ADD SWAP5 DUP8 SWAP5 POP SWAP2 DUP4 ADD SWAP2 PUSH2 0x35DF JUMP JUMPDEST SWAP2 POP POP PUSH2 0x35CA SWAP5 POP PUSH1 0x20 SWAP3 POP PUSH1 0xFF NOT AND DUP3 DUP5 ADD MSTORE ISZERO ISZERO PUSH1 0x5 SHL DUP3 ADD ADD CODESIZE DUP1 PUSH2 0x35BC JUMP JUMPDEST PUSH1 0x2 GT ISZERO PUSH2 0x5B9 JUMPI JUMP JUMPDEST SWAP2 SWAP1 DUP3 MLOAD SWAP3 DUP4 DUP3 MSTORE PUSH1 0x0 JUMPDEST DUP5 DUP2 LT PUSH2 0x3668 JUMPI POP POP DUP3 PUSH1 0x0 PUSH1 0x20 DUP1 SWAP5 SWAP6 DUP5 ADD ADD MSTORE PUSH1 0x1F DUP1 NOT SWAP2 ADD AND ADD ADD SWAP1 JUMP JUMPDEST PUSH1 0x20 DUP2 DUP4 ADD DUP2 ADD MLOAD DUP5 DUP4 ADD DUP3 ADD MSTORE ADD PUSH2 0x3647 JUMP JUMPDEST PUSH1 0x1 SLOAD PUSH1 0x1 PUSH1 0x1 PUSH1 0xA0 SHL SUB AND CALLER SUB PUSH2 0x3690 JUMPI JUMP JUMPDEST PUSH1 0x40 MLOAD PUSH4 0x118CDAA7 PUSH1 0xE0 SHL DUP2 MSTORE CALLER PUSH1 0x4 DUP3 ADD MSTORE PUSH1 0x24 SWAP1 REVERT JUMPDEST PUSH1 0x0 NOT DUP2 EQ PUSH2 0xBFF JUMPI PUSH1 0x1 ADD SWAP1 JUMP JUMPDEST ISZERO PUSH2 0x36BE JUMPI JUMP JUMPDEST PUSH1 0x40 MLOAD PUSH3 0x461BCD PUSH1 0xE5 SHL DUP2 MSTORE PUSH1 0x20 PUSH1 0x4 DUP3 ADD MSTORE PUSH1 0x13 PUSH1 0x24 DUP3 ADD MSTORE PUSH19 0x131BD85B88191BD95CC81B9BDD08195E1A5CDD PUSH1 0x6A SHL PUSH1 0x44 DUP3 ADD MSTORE PUSH1 0x64 SWAP1 REVERT JUMPDEST ISZERO PUSH2 0x3700 JUMPI JUMP JUMPDEST PUSH1 0x40 MLOAD PUSH3 0x461BCD PUSH1 0xE5 SHL DUP2 MSTORE PUSH1 0x20 PUSH1 0x4 DUP3 ADD MSTORE PUSH1 0x13 PUSH1 0x24 DUP3 ADD MSTORE PUSH19 0x151BDAD95B881B9BDD081CDD5C1C1BDC9D1959 PUSH1 0x6A SHL PUSH1 0x44 DUP3 ADD MSTORE PUSH1 0x64 SWAP1 REVERT JUMPDEST MLOAD SWAP1 PUSH10 0xFFFFFFFFFFFFFFFFFFFF DUP3 AND DUP3 SUB PUSH2 0x2C4 JUMPI JUMP JUMPDEST SWAP2 SWAP1 DUP3 SUB SWAP2 DUP3 GT PUSH2 0xBFF JUMPI JUMP JUMPDEST SWAP1 PUSH1 0x0 SWAP2 DUP3 MSTORE PUSH1 0x20 PUSH1 0x8 DUP2 MSTORE PUSH1 0x40 DUP1 DUP5 KECCAK256 DUP2 MLOAD PUSH2 0x377B DUP2 PUSH2 0x33CC JUMP JUMPDEST PUSH2 0x37DF PUSH1 0x2 DUP4 SLOAD SWAP4 PUSH1 0xFF DUP6 AND PUSH2 0x3790 DUP2 PUSH2 0x3632 JUMP JUMPDEST DUP5 MSTORE PUSH1 0x1 DUP1 PUSH1 0xA0 SHL SUB DUP1 SWAP6 PUSH1 0x8 SHR AND DUP8 DUP6 ADD MSTORE PUSH2 0x37AF PUSH1 0x1 DUP3 ADD PUSH2 0x358C JUMP JUMPDEST DUP7 DUP6 ADD MSTORE ADD SLOAD SWAP2 PUSH1 0xFF DUP4 AND PUSH1 0x60 DUP3 ADD MSTORE DUP4 PUSH1 0xA0 PUSH1 0xFF DUP6 PUSH1 0x8 SHR AND ISZERO ISZERO SWAP3 DUP4 PUSH1 0x80 DUP3 ADD MSTORE ADD SWAP4 PUSH1 0x10 SHR AND DUP4 MSTORE PUSH2 0x36F9 JUMP JUMPDEST MLOAD AND DUP1 ISZERO PUSH2 0x394C JUMPI SWAP1 PUSH1 0xA0 PUSH1 0x4 SWAP4 SWAP3 DUP3 MLOAD SWAP5 DUP6 DUP1 SWAP3 PUSH4 0x3FABE5A3 PUSH1 0xE2 SHL DUP3 MSTORE GAS STATICCALL SWAP5 DUP6 ISZERO PUSH2 0x3941 JUMPI DUP1 SWAP4 DUP2 SWAP7 PUSH2 0x38E9 JUMPI JUMPDEST POP DUP4 SGT ISZERO PUSH2 0x38A6 JUMPI DUP5 ISZERO PUSH2 0x386E JUMPI PUSH2 0xE10 PUSH2 0x382B DUP7 TIMESTAMP PUSH2 0x3752 JUMP JUMPDEST GT PUSH2 0x3836 JUMPI POP POP SWAP2 SWAP1 JUMP JUMPDEST PUSH1 0x64 SWAP3 POP MLOAD SWAP1 PUSH3 0x461BCD PUSH1 0xE5 SHL DUP3 MSTORE PUSH1 0x4 DUP3 ADD MSTORE PUSH1 0x12 PUSH1 0x24 DUP3 ADD MSTORE PUSH18 0x141C9A58D94819185D18481D1BDBC81BDB19 PUSH1 0x72 SHL PUSH1 0x44 DUP3 ADD MSTORE REVERT JUMPDEST PUSH1 0x64 SWAP3 POP MLOAD SWAP1 PUSH3 0x461BCD PUSH1 0xE5 SHL DUP3 MSTORE PUSH1 0x4 DUP3 ADD MSTORE PUSH1 0x12 PUSH1 0x24 DUP3 ADD MSTORE PUSH18 0x526F756E64206E6F7420636F6D706C657465 PUSH1 0x70 SHL PUSH1 0x44 DUP3 ADD MSTORE REVERT JUMPDEST PUSH1 0x64 SWAP3 POP MLOAD SWAP1 PUSH3 0x461BCD PUSH1 0xE5 SHL DUP3 MSTORE PUSH1 0x4 DUP3 ADD MSTORE PUSH1 0x19 PUSH1 0x24 DUP3 ADD MSTORE PUSH32 0x496E76616C69642070726963652066726F6D206F7261636C6500000000000000 PUSH1 0x44 DUP3 ADD MSTORE REVERT JUMPDEST SWAP4 POP SWAP5 POP PUSH1 0xA0 DUP4 RETURNDATASIZE DUP3 GT PUSH2 0x3939 JUMPI JUMPDEST DUP2 PUSH2 0x3905 PUSH1 0xA0 SWAP4 DUP4 PUSH2 0x3404 JUMP JUMPDEST DUP2 ADD SUB SLT PUSH2 0x3935 JUMPI PUSH2 0x3916 DUP4 PUSH2 0x373B JUMP JUMPDEST POP DUP2 DUP4 ADD MLOAD PUSH2 0x392C PUSH1 0x80 PUSH1 0x60 DUP7 ADD MLOAD SWAP6 ADD PUSH2 0x373B JUMP JUMPDEST POP SWAP3 SWAP5 CODESIZE PUSH2 0x3810 JUMP JUMPDEST DUP5 DUP1 REVERT JUMPDEST RETURNDATASIZE SWAP2 POP PUSH2 0x38F8 JUMP JUMPDEST SWAP1 MLOAD SWAP1 RETURNDATASIZE SWAP1 DUP3 RETURNDATACOPY RETURNDATASIZE SWAP1 REVERT JUMPDEST POP POP POP SWAP1 POP PUSH5 0x2E90EDD000 SWAP1 TIMESTAMP SWAP1 JUMP JUMPDEST DUP2 DUP2 MUL SWAP3 SWAP2 DUP2 ISZERO SWAP2 DUP5 DIV EQ OR ISZERO PUSH2 0xBFF JUMPI JUMP JUMPDEST PUSH1 0xFF AND PUSH1 0x4D DUP2 GT PUSH2 0xBFF JUMPI PUSH1 0xA EXP SWAP1 JUMP JUMPDEST DUP2 ISZERO PUSH2 0x398A JUMPI DIV SWAP1 JUMP JUMPDEST PUSH4 0x4E487B71 PUSH1 0xE0 SHL PUSH1 0x0 MSTORE PUSH1 0x12 PUSH1 0x4 MSTORE PUSH1 0x24 PUSH1 0x0 REVERT JUMPDEST SWAP1 PUSH2 0x3A37 PUSH1 0xFF PUSH2 0x3A2F PUSH2 0x3A3D SWAP5 PUSH2 0x39B6 DUP2 PUSH2 0x375F JUMP JUMPDEST POP SWAP1 PUSH1 0x0 MSTORE PUSH1 0x8 PUSH1 0x20 MSTORE PUSH1 0x40 PUSH1 0x0 KECCAK256 SWAP5 PUSH1 0x40 MLOAD PUSH2 0x39D2 DUP2 PUSH2 0x33CC JUMP JUMPDEST PUSH1 0xA0 PUSH1 0x2 DUP9 SLOAD SWAP9 DUP8 DUP11 AND PUSH2 0x39E5 DUP2 PUSH2 0x3632 JUMP JUMPDEST DUP5 MSTORE PUSH1 0x1 DUP1 DUP5 SHL SUB DUP1 SWAP11 PUSH1 0x8 SHR AND PUSH1 0x20 DUP6 ADD MSTORE PUSH2 0x3A04 PUSH1 0x1 DUP3 ADD PUSH2 0x358C JUMP JUMPDEST PUSH1 0x40 DUP6 ADD MSTORE ADD SLOAD SWAP8 PUSH1 0x60 DUP4 ADD SWAP9 DUP8 DUP2 AND DUP11 MSTORE DUP8 DUP2 PUSH1 0x8 SHR AND ISZERO ISZERO PUSH1 0x80 DUP6 ADD MSTORE PUSH1 0x10 SHR AND SWAP2 ADD MSTORE PUSH2 0x395C JUMP JUMPDEST SWAP3 MLOAD AND PUSH2 0x396F JUMP JUMPDEST SWAP1 PUSH2 0x3980 JUMP JUMPDEST SWAP1 JUMP JUMPDEST SWAP2 SWAP1 DUP3 ADD DUP1 SWAP3 GT PUSH2 0xBFF JUMPI JUMP JUMPDEST DUP1 SLOAD PUSH1 0x1 PUSH1 0x40 SHL DUP2 LT ISZERO PUSH2 0xC2B JUMPI PUSH2 0x3A6A SWAP2 PUSH1 0x1 DUP3 ADD DUP2 SSTORE PUSH2 0x3506 JUMP JUMPDEST DUP2 SWAP3 SWAP2 SLOAD SWAP1 PUSH1 0x3 SHL SWAP2 DUP3 SHL SWAP2 PUSH1 0x0 NOT SWAP1 SHL NOT AND OR SWAP1 SSTORE JUMP JUMPDEST PUSH1 0x40 MLOAD PUSH4 0x23B872DD PUSH1 0xE0 SHL PUSH1 0x20 DUP3 ADD MSTORE PUSH1 0x1 PUSH1 0x1 PUSH1 0xA0 SHL SUB SWAP3 DUP4 AND PUSH1 0x24 DUP3 ADD MSTORE SWAP3 SWAP1 SWAP2 AND PUSH1 0x44 DUP4 ADD MSTORE PUSH1 0x64 DUP1 DUP4 ADD SWAP4 SWAP1 SWAP4 MSTORE SWAP2 DUP2 MSTORE PUSH1 0xA0 DUP2 ADD SWAP2 DUP2 DUP4 LT PUSH8 0xFFFFFFFFFFFFFFFF DUP5 GT OR PUSH2 0xC2B JUMPI PUSH2 0x35CA SWAP3 PUSH1 0x40 MSTORE JUMPDEST SWAP1 PUSH1 0x0 PUSH1 0x20 SWAP2 DUP3 DUP2 MLOAD SWAP2 ADD DUP3 DUP6 GAS CALL ISZERO PUSH2 0x3072 JUMPI PUSH1 0x0 MLOAD RETURNDATASIZE PUSH2 0x3B2A JUMPI POP PUSH1 0x1 PUSH1 0x1 PUSH1 0xA0 SHL SUB DUP2 AND EXTCODESIZE ISZERO JUMPDEST PUSH2 0x3B08 JUMPI POP JUMP JUMPDEST PUSH1 0x40 MLOAD PUSH4 0x5274AFE7 PUSH1 0xE0 SHL DUP2 MSTORE PUSH1 0x1 PUSH1 0x1 PUSH1 0xA0 SHL SUB SWAP1 SWAP2 AND PUSH1 0x4 DUP3 ADD MSTORE PUSH1 0x24 SWAP1 REVERT JUMPDEST PUSH1 0x1 EQ ISZERO PUSH2 0x3B01 JUMP JUMPDEST PUSH1 0xFF PUSH1 0x1 SLOAD PUSH1 0xA0 SHR AND PUSH2 0x3B42 JUMPI JUMP JUMPDEST PUSH1 0x40 MLOAD PUSH4 0xD93C0665 PUSH1 0xE0 SHL DUP2 MSTORE PUSH1 0x4 SWAP1 REVERT JUMPDEST PUSH1 0x2 PUSH1 0x0 SLOAD EQ PUSH2 0x3B65 JUMPI PUSH1 0x2 PUSH1 0x0 SSTORE JUMP JUMPDEST PUSH1 0x40 MLOAD PUSH4 0x3EE5AEB5 PUSH1 0xE0 SHL DUP2 MSTORE PUSH1 0x4 SWAP1 REVERT JUMPDEST RETURNDATASIZE ISZERO PUSH2 0x3BA2 JUMPI RETURNDATASIZE SWAP1 PUSH2 0x3B88 DUP3 PUSH2 0x3426 JUMP JUMPDEST SWAP2 PUSH2 0x3B96 PUSH1 0x40 MLOAD SWAP4 DUP5 PUSH2 0x3404 JUMP JUMPDEST DUP3 MSTORE RETURNDATASIZE PUSH1 0x0 PUSH1 0x20 DUP5 ADD RETURNDATACOPY JUMP JUMPDEST PUSH1 0x60 SWAP1 JUMP JUMPDEST PUSH1 0x40 MLOAD PUSH4 0xA9059CBB PUSH1 0xE0 SHL PUSH1 0x20 DUP3 ADD MSTORE PUSH1 0x1 PUSH1 0x1 PUSH1 0xA0 SHL SUB SWAP1 SWAP3 AND PUSH1 0x24 DUP4 ADD MSTORE PUSH1 0x44 DUP1 DUP4 ADD SWAP4 SWAP1 SWAP4 MSTORE SWAP2 DUP2 MSTORE PUSH1 0x80 DUP2 ADD SWAP2 PUSH8 0xFFFFFFFFFFFFFFFF DUP4 GT DUP3 DUP5 LT OR PUSH2 0xC2B JUMPI PUSH2 0x35CA SWAP3 PUSH1 0x40 MSTORE PUSH2 0x3AD7 JUMP JUMPDEST PUSH8 0xFFFFFFFFFFFFFFFF DUP2 GT PUSH2 0xC2B JUMPI PUSH1 0x5 SHL PUSH1 0x20 ADD SWAP1 JUMP JUMPDEST DUP1 MLOAD DUP3 LT ISZERO PUSH2 0x34A5 JUMPI PUSH1 0x20 SWAP2 PUSH1 0x5 SHL ADD ADD SWAP1 JUMP JUMPDEST ISZERO PUSH2 0x3C2A JUMPI JUMP JUMPDEST PUSH1 0x40 MLOAD PUSH3 0x461BCD PUSH1 0xE5 SHL DUP2 MSTORE PUSH1 0x20 PUSH1 0x4 DUP3 ADD MSTORE PUSH1 0xF PUSH1 0x24 DUP3 ADD MSTORE PUSH15 0x4C6F616E206E6F7420616374697665 PUSH1 0x88 SHL PUSH1 0x44 DUP3 ADD MSTORE PUSH1 0x64 SWAP1 REVERT JUMPDEST SWAP2 SWAP1 SWAP2 PUSH1 0x0 SWAP1 DUP1 DUP3 MSTORE PUSH1 0x20 SWAP4 PUSH1 0x7 DUP6 MSTORE PUSH1 0x40 SWAP3 DUP4 DUP2 KECCAK256 SWAP2 PUSH1 0x9 DUP8 MSTORE DUP5 DUP3 KECCAK256 SWAP2 PUSH1 0x4 SWAP2 PUSH2 0x3CA8 PUSH2 0x3C9F PUSH2 0x2710 PUSH2 0x3C97 DUP7 SLOAD DUP6 PUSH2 0x395C JUMP JUMPDEST DIV DUP1 SWAP4 PUSH2 0x3752 JUMP JUMPDEST SWAP2 PUSH1 0x6 SLOAD PUSH2 0x3A40 JUMP JUMPDEST PUSH1 0x6 SSTORE DUP5 DUP4 ADD SWAP1 DUP3 JUMPDEST DUP6 SLOAD DUP2 LT ISZERO PUSH2 0x3E2E JUMPI PUSH2 0x3CDD PUSH2 0x3CD5 PUSH1 0x1 PUSH2 0x3CCC DUP5 DUP11 PUSH2 0x3489 JUMP JUMPDEST POP ADD SLOAD DUP5 PUSH2 0x395C JUMP JUMPDEST DUP5 SLOAD SWAP1 PUSH2 0x3980 JUMP JUMPDEST DUP1 PUSH2 0x3CF2 JUMPI JUMPDEST POP PUSH2 0x3CED SWAP1 PUSH2 0x36A8 JUMP JUMPDEST PUSH2 0x3CB1 JUMP JUMPDEST DUP10 DUP10 DUP14 DUP10 DUP9 PUSH1 0x2 DUP14 ADD SLOAD DUP1 DUP3 MSTORE PUSH1 0x8 SWAP1 DUP2 DUP6 MSTORE PUSH1 0xFF DUP8 DUP5 KECCAK256 SLOAD AND PUSH2 0x3D15 DUP2 PUSH2 0x3632 JUMP JUMPDEST PUSH2 0x3DD2 JUMPI POP POP SWAP4 POP DUP4 SWAP3 POP DUP3 SWAP2 POP DUP5 PUSH2 0x3D2F DUP8 DUP5 SWAP4 PUSH2 0x3489 JUMP JUMPDEST POP SLOAD PUSH1 0x1 PUSH1 0x1 PUSH1 0xA0 SHL SUB AND GAS CALL PUSH2 0x3D44 PUSH2 0x3B77 JUMP JUMPDEST POP ISZERO PUSH2 0x3D98 JUMPI SWAP1 DUP10 DUP10 PUSH32 0x655B9F7355449EE5D1F48DE6B9FBFAB1B98A556D98413FC02BDDBA24DAB5F773 DUP15 PUSH2 0x3CED SWAP6 JUMPDEST PUSH2 0x3D7E DUP7 DUP14 PUSH2 0x3489 JUMP JUMPDEST POP SLOAD SWAP5 MLOAD SWAP1 DUP2 MSTORE PUSH1 0x1 PUSH1 0x1 PUSH1 0xA0 SHL SUB SWAP1 SWAP5 AND SWAP4 LOG3 SWAP1 PUSH2 0x3CE3 JUMP JUMPDEST DUP10 MLOAD PUSH3 0x461BCD PUSH1 0xE5 SHL DUP2 MSTORE DUP1 DUP8 ADD DUP14 SWAP1 MSTORE PUSH1 0x14 PUSH1 0x24 DUP3 ADD MSTORE PUSH20 0x13195B99195C881C185E5BDD5D0819985A5B1959 PUSH1 0x62 SHL PUSH1 0x44 DUP3 ADD MSTORE PUSH1 0x64 SWAP1 REVERT JUMPDEST SWAP7 PUSH32 0x655B9F7355449EE5D1F48DE6B9FBFAB1B98A556D98413FC02BDDBA24DAB5F773 SWAP5 SWAP4 DUP8 PUSH2 0x3E20 DUP12 DUP7 PUSH2 0x3E29 SWAP7 PUSH2 0x3CED SWAP15 SWAP14 DUP8 SWAP10 MSTORE DUP1 DUP11 MSTORE PUSH1 0x1 DUP1 PUSH1 0xA0 SHL SUB SWAP5 DUP6 SWAP3 KECCAK256 SLOAD SWAP1 SHR AND SWAP4 PUSH2 0x3489 JUMP JUMPDEST POP SLOAD AND SWAP1 PUSH2 0x3BA7 JUMP JUMPDEST PUSH2 0x3D74 JUMP JUMPDEST POP POP POP POP POP POP POP POP POP SWAP1 POP JUMP JUMPDEST ISZERO PUSH2 0x3E42 JUMPI JUMP JUMPDEST PUSH1 0x40 MLOAD PUSH3 0x461BCD PUSH1 0xE5 SHL DUP2 MSTORE PUSH1 0x20 PUSH1 0x4 DUP3 ADD MSTORE PUSH1 0x13 PUSH1 0x24 DUP3 ADD MSTORE PUSH19 0x4E6F7420696E20766F74696E67207374617465 PUSH1 0x68 SHL PUSH1 0x44 DUP3 ADD MSTORE PUSH1 0x64 SWAP1 REVERT JUMPDEST PUSH1 0x0 SWAP1 DUP2 MSTORE PUSH1 0x7 PUSH1 0x20 SWAP1 DUP2 MSTORE PUSH1 0x40 DUP1 DUP4 KECCAK256 PUSH1 0x9 DUP4 MSTORE DUP2 DUP5 KECCAK256 PUSH1 0x4 SWAP5 SWAP2 SWAP1 DUP6 DUP3 ADD PUSH1 0x6 DUP4 ADD DUP5 JUMPDEST DUP4 SLOAD DUP2 LT ISZERO PUSH2 0x3FA8 JUMPI PUSH2 0x3EC9 PUSH2 0x3CD5 DUP4 SLOAD PUSH1 0x1 PUSH2 0x3EC0 DUP6 DUP10 PUSH2 0x3489 JUMP JUMPDEST POP ADD SLOAD SWAP1 PUSH2 0x395C JUMP JUMPDEST SWAP1 DUP2 PUSH2 0x3EDF JUMPI JUMPDEST PUSH2 0x3EDA SWAP2 POP PUSH2 0x36A8 JUMP JUMPDEST PUSH2 0x3EA3 JUMP JUMPDEST DUP7 PUSH1 0x3 DUP8 ADD SLOAD SWAP3 DUP4 DUP3 MSTORE PUSH1 0x8 DUP1 DUP13 MSTORE PUSH1 0xFF DUP12 DUP5 KECCAK256 SLOAD AND PUSH2 0x3EFE DUP2 PUSH2 0x3632 JUMP JUMPDEST PUSH2 0x3F7C JUMPI POP DUP3 SWAP4 POP DUP2 DUP1 SWAP4 SWAP2 PUSH2 0x3F15 DUP3 SWAP4 DUP11 PUSH2 0x3489 JUMP JUMPDEST POP SLOAD PUSH1 0x1 PUSH1 0x1 PUSH1 0xA0 SHL SUB AND GAS CALL PUSH2 0x3F2A PUSH2 0x3B77 JUMP JUMPDEST POP ISZERO PUSH2 0x3F39 JUMPI PUSH2 0x3EDA SWAP1 PUSH2 0x3ED0 JUMP JUMPDEST DUP7 MLOAD PUSH3 0x461BCD PUSH1 0xE5 SHL DUP2 MSTORE DUP1 DUP11 ADD DUP10 SWAP1 MSTORE PUSH1 0x1E PUSH1 0x24 DUP3 ADD MSTORE PUSH32 0x436F6C6C61746572616C20646973747269627574696F6E206661696C65640000 PUSH1 0x44 DUP3 ADD MSTORE PUSH1 0x64 SWAP1 REVERT JUMPDEST PUSH2 0x3EDA SWAP5 PUSH2 0x3FA3 SWAP4 MSTORE DUP1 DUP13 MSTORE PUSH1 0x1 DUP1 PUSH1 0xA0 SHL SUB DUP1 SWAP2 DUP13 DUP13 KECCAK256 SLOAD SWAP1 SHR AND SWAP1 PUSH2 0x3E20 DUP6 DUP11 PUSH2 0x3489 JUMP JUMPDEST PUSH2 0x3ED0 JUMP JUMPDEST POP POP POP POP POP POP POP POP POP JUMP JUMPDEST ISZERO PUSH2 0x3FBA JUMPI JUMP JUMPDEST PUSH1 0x40 MLOAD PUSH3 0x461BCD PUSH1 0xE5 SHL DUP2 MSTORE PUSH1 0x20 PUSH1 0x4 DUP3 ADD MSTORE PUSH1 0xD PUSH1 0x24 DUP3 ADD MSTORE PUSH13 0x1499599D5B990819985A5B1959 PUSH1 0x9A SHL PUSH1 0x44 DUP3 ADD MSTORE PUSH1 0x64 SWAP1 REVERT JUMPDEST PUSH1 0x0 SWAP1 DUP2 MSTORE PUSH1 0x7 PUSH1 0x20 MSTORE PUSH1 0x40 DUP2 KECCAK256 PUSH1 0x3 DUP2 ADD SLOAD DUP1 DUP4 MSTORE PUSH1 0x8 PUSH1 0x20 MSTORE PUSH1 0xFF PUSH1 0x40 DUP5 KECCAK256 SLOAD AND PUSH2 0x401B DUP2 PUSH2 0x3632 JUMP JUMPDEST PUSH2 0x4091 JUMPI POP PUSH1 0x1 DUP2 ADD SLOAD PUSH1 0x6 SWAP1 SWAP2 ADD SLOAD DUP3 SWAP2 DUP3 SWAP2 DUP3 SWAP2 PUSH1 0x1 PUSH1 0x1 PUSH1 0xA0 SHL SUB AND GAS CALL PUSH2 0x4044 PUSH2 0x3B77 JUMP JUMPDEST POP ISZERO PUSH2 0x404C JUMPI JUMP JUMPDEST PUSH1 0x40 MLOAD PUSH3 0x461BCD PUSH1 0xE5 SHL DUP2 MSTORE PUSH1 0x20 PUSH1 0x4 DUP3 ADD MSTORE PUSH1 0x18 PUSH1 0x24 DUP3 ADD MSTORE PUSH32 0x436F6C6C61746572616C2072657475726E206661696C65640000000000000000 PUSH1 0x44 DUP3 ADD MSTORE PUSH1 0x64 SWAP1 REVERT JUMPDEST SWAP1 PUSH1 0x6 DUP4 PUSH1 0x40 SWAP4 PUSH2 0x35CA SWAP6 MSTORE PUSH1 0x8 PUSH1 0x20 MSTORE PUSH1 0x1 DUP1 PUSH1 0xA0 SHL SUB SWAP4 DUP5 SWAP2 KECCAK256 SLOAD PUSH1 0x8 SHR AND SWAP3 PUSH1 0x1 DUP4 ADD SLOAD AND SWAP2 ADD SLOAD SWAP2 PUSH2 0x3BA7 JUMP JUMPDEST PUSH1 0x1 PUSH1 0x1 PUSH1 0xA0 SHL SUB AND PUSH1 0x0 DUP2 DUP2 MSTORE PUSH1 0xD PUSH1 0x20 MSTORE PUSH1 0x40 DUP2 KECCAK256 PUSH1 0x1 DUP2 ADD DUP1 SLOAD SWAP2 SWAP3 SWAP2 PUSH2 0x40F1 SWAP1 DUP1 ISZERO PUSH2 0x1601 JUMPI PUSH2 0x36A8 JUMP JUMPDEST SWAP1 SSTORE TIMESTAMP PUSH1 0x6 DUP4 ADD SSTORE PUSH1 0x3 DUP3 ADD PUSH2 0x4107 DUP2 SLOAD PUSH2 0x36A8 JUMP JUMPDEST SWAP1 SSTORE DUP2 SLOAD SWAP1 PUSH1 0x32 DUP3 GT ISZERO PUSH2 0x417D JUMPI PUSH1 0x31 NOT DUP3 ADD SWAP2 DUP3 GT PUSH2 0x4169 JUMPI POP PUSH32 0x79C012A0CFAE660E09134956BC432C8497EC80E86A3A108D130E8B3FCA52B3AD SWAP2 PUSH1 0x20 SWAP2 PUSH2 0x12C SWAP1 DUP2 DUP2 LT ISZERO PUSH2 0x4162 JUMPI POP JUMPDEST DUP1 SWAP2 JUMPDEST SSTORE PUSH1 0x40 MLOAD SWAP1 DUP2 MSTORE LOG2 JUMP JUMPDEST SWAP1 POP PUSH2 0x4155 JUMP JUMPDEST PUSH4 0x4E487B71 PUSH1 0xE0 SHL DUP2 MSTORE PUSH1 0x11 PUSH1 0x4 MSTORE PUSH1 0x24 SWAP1 REVERT JUMPDEST POP POP PUSH1 0x20 PUSH32 0x79C012A0CFAE660E09134956BC432C8497EC80E86A3A108D130E8B3FCA52B3AD SWAP2 PUSH2 0x12C DUP1 SWAP2 PUSH2 0x4158 JUMP JUMPDEST SWAP1 PUSH2 0x41B7 DUP3 PUSH2 0x3BF7 JUMP JUMPDEST PUSH2 0x41C4 PUSH1 0x40 MLOAD SWAP2 DUP3 PUSH2 0x3404 JUMP JUMPDEST DUP3 DUP2 MSTORE DUP1 SWAP3 PUSH2 0x41D5 PUSH1 0x1F NOT SWAP2 PUSH2 0x3BF7 JUMP JUMPDEST ADD SWAP1 PUSH1 0x20 CALLDATASIZE SWAP2 ADD CALLDATACOPY JUMP INVALID LOG2 PUSH5 0x6970667358 0x22 SLT KECCAK256 0xAF EXTCODECOPY SWAP8 CREATE SWAP5 0xB1 0xC9 PUSH10 0x7D78E232B43A01A28B8F MOD 0xF7 0xAA 0xD0 0xD7 0xC3 0xF7 LOG4 PREVRANDAO 0xDC 0xD6 0x2C DUP10 0xEF PUSH5 0x736F6C6343 STOP ADDMOD EQ STOP CALLER "},"methodIdentifiers":{"DEFAULT_FUNDING_PERIOD()":"0a353a29","LIQUIDATION_THRESHOLD()":"90a8ae9b","MAX_INTEREST_RATE()":"34855d14","MAX_LOAN_DURATION()":"0d0b2ca6","MIN_COLLATERAL_RATIO()":"7a9fffb7","MIN_CREDIT_SCORE()":"0a49cf4d","MIN_LOAN_DURATION()":"89d99a05","PRICE_STALENESS_THRESHOLD()":"f25b9caa","VOTING_PERIOD()":"b1610d7e","addSupportedToken(address,string,uint8,address)":"5c211efc","authorizedRiskOracles(address)":"6eef1154","borrowerLoans(address,uint256)":"e3ed1902","calculateUSDValue(uint256,uint256)":"119328d6","cancelLoan(uint256)":"bdbfa3de","collectedFees()":"9003adfe","contributeLoan(uint256,uint256)":"cba89b65","creditScores(address)":"80bb7273","deactivateToken(uint256)":"ec991da9","defaultVotes(uint256,uint8)":"e25b1078","executeDefaultAction(uint256)":"caff6484","feeRecipient()":"46904840","getActiveLoanRequests()":"9772d7ee","getLatestPrice(uint256)":"b94fe917","getLoanLenders(uint256)":"77e6c4aa","hasVoted(uint256,address)":"43859632","lenderContributionIndex(uint256,address)":"8075a8f9","lenderLoans(address,uint256)":"3cdb72f1","liquidate(uint256)":"415f1240","loanContributions(uint256,uint256)":"36630cd6","loans(uint256)":"e1ec3c68","nextLoanId()":"87c51459","nextTokenId()":"75794a3c","owner()":"8da5cb5b","pause()":"8456cb59","paused()":"5c975abb","processFundingFailure(uint256)":"dafd06a3","protocolFeeRate()":"58f85880","renounceOwnership()":"715018a6","repayLoan(uint256)":"ab7b1c89","requestLoan(uint256,uint256,uint256,uint256,uint256,uint256,uint256,uint256,string)":"22e69226","setAuthorizedOracle(address,bool)":"c7a6de4d","supportedTokens(uint256)":"c6255626","transferOwnership(address)":"f2fde38b","triggerDefault(uint256)":"63825392","unpause()":"3f4ba83a","updateRiskScore(uint256,uint256)":"bad128b6","voteOnDefault(uint256,uint8)":"36cf063a","votingDeadline(uint256)":"6dede8eb","withdrawFees()":"476343ee"}}}}}