{"contracts/LoanChainV2.sol":{"LoanChainV2":{"abi":[{"inputs":[],"stateMutability":"nonpayable","type":"constructor"},{"inputs":[{"internalType":"address","name":"owner","type":"address"}],"name":"OwnableInvalidOwner","type":"error"},{"inputs":[{"internalType":"address","name":"account","type":"address"}],"name":"OwnableUnauthorizedAccount","type":"error"},{"inputs":[],"name":"ReentrancyGuardReentrantCall","type":"error"},{"inputs":[{"internalType":"address","name":"token","type":"address"}],"name":"SafeERC20FailedOperation","type":"error"},{"anonymous":false,"inputs":[{"indexed":true,"internalType":"uint256","name":"loanId","type":"uint256"},{"indexed":false,"internalType":"uint256","name":"totalFunded","type":"uint256"},{"indexed":false,"internalType":"uint256","name":"fundedAt","type":"uint256"}],"name":"LoanFullyFunded","type":"event"},{"anonymous":false,"inputs":[{"indexed":true,"internalType":"uint256","name":"loanId","type":"uint256"},{"indexed":true,"internalType":"address","name":"lender","type":"address"},{"indexed":false,"internalType":"uint256","name":"amount","type":"uint256"},{"indexed":false,"internalType":"uint256","name":"totalFunded","type":"uint256"}],"name":"LoanPartiallyFunded","type":"event"},{"anonymous":false,"inputs":[{"indexed":true,"internalType":"uint256","name":"loanId","type":"uint256"},{"indexed":true,"internalType":"address","name":"borrower","type":"address"},{"indexed":false,"internalType":"uint256","name":"totalRepaidAmount","type":"uint256"}],"name":"LoanRepaid","type":"event"},{"anonymous":false,"inputs":[{"indexed":true,"internalType":"uint256","name":"loanId","type":"uint256"},{"indexed":true,"internalType":"address","name":"borrower","type":"address"},{"indexed":false,"internalType":"uint256","name":"totalAmount","type":"uint256"},{"indexed":false,"internalType":"enum LoanChainV2.TokenType","name":"loanToken","type":"uint8"},{"indexed":false,"internalType":"enum LoanChainV2.TokenType","name":"collateralToken","type":"uint8"},{"indexed":false,"internalType":"uint256","name":"collateralAmount","type":"uint256"},{"indexed":false,"internalType":"uint256","name":"interestRate","type":"uint256"},{"indexed":false,"internalType":"uint256","name":"duration","type":"uint256"},{"indexed":false,"internalType":"bool","name":"isVariableRate","type":"bool"}],"name":"LoanRequested","type":"event"},{"anonymous":false,"inputs":[{"indexed":true,"internalType":"address","name":"previousOwner","type":"address"},{"indexed":true,"internalType":"address","name":"newOwner","type":"address"}],"name":"OwnershipTransferred","type":"event"},{"anonymous":false,"inputs":[{"indexed":true,"internalType":"uint256","name":"loanId","type":"uint256"},{"indexed":true,"internalType":"address","name":"lender","type":"address"},{"indexed":false,"internalType":"uint256","name":"repaidAmount","type":"uint256"}],"name":"PartialRepayment","type":"event"},{"anonymous":false,"inputs":[{"indexed":true,"internalType":"address","name":"oracle","type":"address"},{"indexed":false,"internalType":"bool","name":"approved","type":"bool"}],"name":"PriceOracleUpdated","type":"event"},{"anonymous":false,"inputs":[{"indexed":true,"internalType":"enum LoanChainV2.TokenType","name":"tokenType","type":"uint8"},{"indexed":false,"internalType":"uint256","name":"newPrice","type":"uint256"}],"name":"PriceUpdated","type":"event"},{"anonymous":false,"inputs":[{"indexed":true,"internalType":"enum LoanChainV2.TokenType","name":"tokenType","type":"uint8"},{"indexed":true,"internalType":"address","name":"contractAddress","type":"address"}],"name":"TokenAdded","type":"event"},{"inputs":[],"name":"MAX_INTEREST_RATE","outputs":[{"internalType":"uint256","name":"","type":"uint256"}],"stateMutability":"view","type":"function"},{"inputs":[],"name":"MAX_LOAN_DURATION","outputs":[{"internalType":"uint256","name":"","type":"uint256"}],"stateMutability":"view","type":"function"},{"inputs":[],"name":"MIN_COLLATERAL_RATIO","outputs":[{"internalType":"uint256","name":"","type":"uint256"}],"stateMutability":"view","type":"function"},{"inputs":[],"name":"MIN_LOAN_DURATION","outputs":[{"internalType":"uint256","name":"","type":"uint256"}],"stateMutability":"view","type":"function"},{"inputs":[{"internalType":"enum LoanChainV2.TokenType","name":"_tokenType","type":"uint8"},{"internalType":"address","name":"_contractAddress","type":"address"},{"internalType":"uint8","name":"_decimals","type":"uint8"},{"internalType":"uint256","name":"_minLoanAmount","type":"uint256"},{"internalType":"uint256","name":"_maxLoanAmount","type":"uint256"}],"name":"addSupportedToken","outputs":[],"stateMutability":"nonpayable","type":"function"},{"inputs":[{"internalType":"address","name":"","type":"address"},{"internalType":"uint256","name":"","type":"uint256"}],"name":"borrowerLoans","outputs":[{"internalType":"uint256","name":"","type":"uint256"}],"stateMutability":"view","type":"function"},{"inputs":[{"internalType":"enum LoanChainV2.TokenType","name":"_tokenType","type":"uint8"},{"internalType":"uint256","name":"_amount","type":"uint256"}],"name":"calculateUSDValue","outputs":[{"internalType":"uint256","name":"","type":"uint256"}],"stateMutability":"view","type":"function"},{"inputs":[{"internalType":"uint256","name":"_loanId","type":"uint256"},{"internalType":"uint256","name":"_amount","type":"uint256"}],"name":"fundLoan","outputs":[],"stateMutability":"payable","type":"function"},{"inputs":[],"name":"getActiveLoanRequests","outputs":[{"internalType":"uint256[]","name":"","type":"uint256[]"}],"stateMutability":"view","type":"function"},{"inputs":[{"internalType":"uint256","name":"_loanId","type":"uint256"}],"name":"getLoan","outputs":[{"components":[{"internalType":"uint256","name":"id","type":"uint256"},{"internalType":"address","name":"borrower","type":"address"},{"internalType":"address[]","name":"lenders","type":"address[]"},{"internalType":"uint256[]","name":"lenderAmounts","type":"uint256[]"},{"internalType":"uint256","name":"totalAmount","type":"uint256"},{"internalType":"uint256","name":"totalFunded","type":"uint256"},{"internalType":"enum LoanChainV2.TokenType","name":"loanToken","type":"uint8"},{"internalType":"enum LoanChainV2.TokenType","name":"collateralToken","type":"uint8"},{"internalType":"uint256","name":"collateralAmount","type":"uint256"},{"internalType":"uint256","name":"interestRate","type":"uint256"},{"internalType":"bool","name":"isVariableRate","type":"bool"},{"internalType":"uint256","name":"duration","type":"uint256"},{"internalType":"uint256","name":"createdAt","type":"uint256"},{"internalType":"uint256","name":"fundedAt","type":"uint256"},{"internalType":"uint256","name":"dueDate","type":"uint256"},{"internalType":"enum LoanChainV2.LoanStatus","name":"status","type":"uint8"},{"internalType":"bool","name":"collateralClaimed","type":"bool"},{"internalType":"uint256","name":"riskScore","type":"uint256"},{"internalType":"bool","name":"hasInsurance","type":"bool"},{"internalType":"uint256","name":"insuranceFee","type":"uint256"}],"internalType":"struct LoanChainV2.Loan","name":"","type":"tuple"}],"stateMutability":"view","type":"function"},{"inputs":[{"internalType":"enum LoanChainV2.TokenType","name":"_tokenType","type":"uint8"}],"name":"getSupportedToken","outputs":[{"components":[{"internalType":"address","name":"contractAddress","type":"address"},{"internalType":"enum LoanChainV2.TokenType","name":"tokenType","type":"uint8"},{"internalType":"uint8","name":"decimals","type":"uint8"},{"internalType":"bool","name":"isActive","type":"bool"},{"internalType":"uint256","name":"minLoanAmount","type":"uint256"},{"internalType":"uint256","name":"maxLoanAmount","type":"uint256"}],"internalType":"struct LoanChainV2.Token","name":"","type":"tuple"}],"stateMutability":"view","type":"function"},{"inputs":[{"internalType":"enum LoanChainV2.TokenType","name":"_tokenType","type":"uint8"}],"name":"getTokenPrice","outputs":[{"internalType":"uint256","name":"","type":"uint256"}],"stateMutability":"view","type":"function"},{"inputs":[{"internalType":"enum LoanChainV2.TokenType","name":"_tokenType","type":"uint8"}],"name":"getTokenPriceInfo","outputs":[{"internalType":"uint256","name":"price","type":"uint256"},{"internalType":"uint256","name":"lastUpdate","type":"uint256"},{"internalType":"uint256","name":"source1","type":"uint256"},{"internalType":"uint256","name":"source2","type":"uint256"},{"internalType":"uint256","name":"updateCount","type":"uint256"},{"internalType":"bool","name":"isStale","type":"bool"}],"stateMutability":"view","type":"function"},{"inputs":[{"internalType":"address","name":"","type":"address"},{"internalType":"uint256","name":"","type":"uint256"}],"name":"lenderLoans","outputs":[{"internalType":"uint256","name":"","type":"uint256"}],"stateMutability":"view","type":"function"},{"inputs":[{"internalType":"uint256","name":"","type":"uint256"},{"internalType":"address","name":"","type":"address"}],"name":"lenderPositions","outputs":[{"internalType":"address","name":"lender","type":"address"},{"internalType":"uint256","name":"amount","type":"uint256"},{"internalType":"uint256","name":"fundedAt","type":"uint256"},{"internalType":"bool","name":"repaid","type":"bool"},{"internalType":"uint256","name":"repaidAmount","type":"uint256"}],"stateMutability":"view","type":"function"},{"inputs":[{"internalType":"uint256","name":"","type":"uint256"}],"name":"loans","outputs":[{"internalType":"uint256","name":"id","type":"uint256"},{"internalType":"address","name":"borrower","type":"address"},{"internalType":"uint256","name":"totalAmount","type":"uint256"},{"internalType":"uint256","name":"totalFunded","type":"uint256"},{"internalType":"enum LoanChainV2.TokenType","name":"loanToken","type":"uint8"},{"internalType":"enum LoanChainV2.TokenType","name":"collateralToken","type":"uint8"},{"internalType":"uint256","name":"collateralAmount","type":"uint256"},{"internalType":"uint256","name":"interestRate","type":"uint256"},{"internalType":"bool","name":"isVariableRate","type":"bool"},{"internalType":"uint256","name":"duration","type":"uint256"},{"internalType":"uint256","name":"createdAt","type":"uint256"},{"internalType":"uint256","name":"fundedAt","type":"uint256"},{"internalType":"uint256","name":"dueDate","type":"uint256"},{"internalType":"enum LoanChainV2.LoanStatus","name":"status","type":"uint8"},{"internalType":"bool","name":"collateralClaimed","type":"bool"},{"internalType":"uint256","name":"riskScore","type":"uint256"},{"internalType":"bool","name":"hasInsurance","type":"bool"},{"internalType":"uint256","name":"insuranceFee","type":"uint256"}],"stateMutability":"view","type":"function"},{"inputs":[],"name":"nextLoanId","outputs":[{"internalType":"uint256","name":"","type":"uint256"}],"stateMutability":"view","type":"function"},{"inputs":[],"name":"owner","outputs":[{"internalType":"address","name":"","type":"address"}],"stateMutability":"view","type":"function"},{"inputs":[{"internalType":"address","name":"","type":"address"}],"name":"priceOracles","outputs":[{"internalType":"bool","name":"","type":"bool"}],"stateMutability":"view","type":"function"},{"inputs":[],"name":"renounceOwnership","outputs":[],"stateMutability":"nonpayable","type":"function"},{"inputs":[{"internalType":"uint256","name":"_totalAmount","type":"uint256"},{"internalType":"enum LoanChainV2.TokenType","name":"_loanToken","type":"uint8"},{"internalType":"enum LoanChainV2.TokenType","name":"_collateralToken","type":"uint8"},{"internalType":"uint256","name":"_collateralAmount","type":"uint256"},{"internalType":"uint256","name":"_interestRate","type":"uint256"},{"internalType":"uint256","name":"_duration","type":"uint256"},{"internalType":"bool","name":"_isVariableRate","type":"bool"},{"internalType":"bool","name":"_hasInsurance","type":"bool"}],"name":"requestLoan","outputs":[],"stateMutability":"payable","type":"function"},{"inputs":[{"internalType":"address","name":"_oracle","type":"address"},{"internalType":"bool","name":"_approved","type":"bool"}],"name":"setPriceOracle","outputs":[],"stateMutability":"nonpayable","type":"function"},{"inputs":[{"internalType":"enum LoanChainV2.TokenType","name":"","type":"uint8"}],"name":"supportedTokens","outputs":[{"internalType":"address","name":"contractAddress","type":"address"},{"internalType":"enum LoanChainV2.TokenType","name":"tokenType","type":"uint8"},{"internalType":"uint8","name":"decimals","type":"uint8"},{"internalType":"bool","name":"isActive","type":"bool"},{"internalType":"uint256","name":"minLoanAmount","type":"uint256"},{"internalType":"uint256","name":"maxLoanAmount","type":"uint256"}],"stateMutability":"view","type":"function"},{"inputs":[{"internalType":"enum LoanChainV2.TokenType","name":"","type":"uint8"}],"name":"tokenPrices","outputs":[{"internalType":"uint256","name":"price","type":"uint256"},{"internalType":"uint256","name":"lastUpdate","type":"uint256"},{"internalType":"uint256","name":"priceSource1","type":"uint256"},{"internalType":"uint256","name":"priceSource2","type":"uint256"},{"internalType":"uint256","name":"updateCount","type":"uint256"}],"stateMutability":"view","type":"function"},{"inputs":[{"internalType":"address","name":"newOwner","type":"address"}],"name":"transferOwnership","outputs":[],"stateMutability":"nonpayable","type":"function"},{"inputs":[{"internalType":"enum LoanChainV2.TokenType","name":"_tokenType","type":"uint8"},{"internalType":"uint256","name":"_price1","type":"uint256"},{"internalType":"uint256","name":"_price2","type":"uint256"}],"name":"updateTokenPrice","outputs":[],"stateMutability":"nonpayable","type":"function"}],"evm":{"bytecode":{"linkReferences":{},"object":"608060409080825234620002c0576001906000908282553315620002ac57508154336001600160a01b03198216811784556001600160a01b039182167f8be0079c531659141344cd1fd0a4f28419497f9722a3daafe3b4186f6b6457e08480a360028381558451919060c083016001600160401b03811184821017620002985786528383526020928381018581528782016012815260608301908882526080840191662386f26fc10000835260a0850193683635c9adc5dea000008552898052600397888a528c8b209651168654915193600585101562000284575192516001600160b81b03199092161760a09390931b60ff60a01b169290921760a89190911b60ff60a81b161790151560b01b60ff60b01b1617835551878301555190820155859392600992909160049062000135620002c5565b82643a35294400808352868301904282528a84018181526060850191825260808501928d84528b805260088a528c8c2095518655518d860155518585015551868401555191015562000186620002c5565b926305f5e100938481528386898b8d838601428152828701928b845260608801948c8652600860808a019785895285835252209651875551908601555186850155518484015551910155620001da620002c5565b8481524286820190815289820186815260608301878152608084018d8152868c5260088a528c8c20945185559251848e01559051838601555183830155519084015562000226620002c5565b93808552858501924284528986018281526060870192835260808701948c8652848b52600889528b8b2097518855518c880155519086015551908401555191015533835252209060ff19825416179055516124969081620002fc8239f35b634e487b7160e01b8c52602160045260248cfd5b634e487b7160e01b85526041600452602485fd5b602491631e4fbdf760e01b82526004820152fd5b600080fd5b6040519060a082016001600160401b03811183821017620002e557604052565b634e487b7160e01b600052604160045260246000fdfe60a080604052600436101561001357600080fd5b60003560e01c9081630137451814611f74575080630d0b2ca614611f555780632ffc204b14611e4357806334855d1414611e265780633cdb72f114611ddc5780633f572d3614611d5d5780634dd9cccc14611a6b578063504006ca146116ad578063715018a6146116505780637a9fffb714611634578063858a9ea0146115ac57806387c514591461158e57806389d99a05146115715780638da5cb5b146115485780639772d7ee14611436578063ad8d0138146113bb578063c7fc132514611322578063d42c4c5314611232578063d89e8c1c146111b2578063deceafa714611155578063e1ec3c6814611006578063e3ed190214610fae578063f2fde38b14610f25578063f4512bb614610920578063f498c9cc146101765763fe6993b81461013d57600080fd5b3461017157604036600319011261017157600435600581101561017157610169602091602435906121df565b604051908152f35b600080fd5b61010036600319011261017157600560243510156101715760446005813510156101715760c43580151581036101715760e435151560e43503610171576101bb612429565b600435156108d157610bb86084351161089457610e1060a435101580610884575b1561084d5760ff6101ee602435612009565b5460b01c16156108095760ff6102048335612009565b5460b01c16156107c55761021c6004356024356121df565b61022960643584356121df565b9060788102908082046078149015171561063857606490041161078157600254906102538261218e565b60025582356106a857606435340361064e575b600060e435610617575b6040519061027d8261210a565b6000825260405161028d8161210a565b600081526040519261029e846120d1565b858452336020850152604084015260608301526004356080830152600060a08301526102cf60243560c08401612148565b6102dd853560e08401612148565b60643561010083015260843561012083015282151561014083015260a4356101608301524261018083015260006101a083015260006101c083015260006101e083015260006102008301526101f461022083015260e4351515610240830152610260820152826000526004602052604060002090805182556001820160018060a01b036020830151166001600160601b0360a01b825416179055604081015180519067ffffffffffffffff82116105e457600160401b82116105e457602060028501916103af8484548186558561230f565b0190600052602060002060005b8381106105fa5750505050606081015180519067ffffffffffffffff82116105e457600160401b82116105e457602060038501916103ff8484548186558561230f565b0190600052602060002060005b8381106105d057505050506080810151600483015560a0810151600583015560c081015160058110156105ba57600683015460e083015160058110156105ba5761ff0060ff9160081b1692169061ffff1916171760068301556101008101516007830155610120810151600883015561049b6101408201511515600984019060ff801983541691151516179055565b610160810151600a830155610180810151600b8301556101a0810151600c8301556101c0810151600d8301556101e081015160068110156105ba5760119161026091600e850190815460ff61ff00610200860151151560081b1692169061ffff191617179055610220810151600f85015561052c6102408201511515601086019060ff801983541691151516179055565b0151910155336000526006602052610548826040600020612343565b61056e6040519360043585526105636020860160243561203b565b60408501903561203b565b6064356060840152608435608084015260a43560a0840152151560c08301527fabdb66e6184682b23b47b8b6a7923f5b99d0155e0155200bda4753d7e784699e60e03393a36001600055005b634e487b7160e01b600052602160045260246000fd5b60019060208451940193818401550161040c565b634e487b7160e01b600052604160045260246000fd5b82516001600160a01b0316818301556020909201916001016103bc565b50600435606460043502046064036106385761271060646004350204610270565b634e487b7160e01b600052601160045260246000fd5b60405162461bcd60e51b815260206004820152602d60248201527f4554482073656e74206d7573742065786163746c79206d6174636820636f6c6c818501526c185d195c985b08185b5bdd5b9d609a1b6064820152608490fd5b3461072a576107256106ba8435612009565b6040516106c6816120b5565b81546001600160a01b0380821683529260029160ff906106ef60a082901c831660208701612148565b818160a81c16604086015260b01c161515606084015260018101546080840152015460a082015251166064359030903390612378565b610266565b60405162461bcd60e51b815260206004820152602a60248201527f4e6f204554482073686f756c642062652073656e7420666f7220455243323020818501526918dbdb1b185d195c985b60b21b6064820152608490fd5b60405162461bcd60e51b815260206004820152601760248201527f496e73756666696369656e7420636f6c6c61746572616c00000000000000000081840152606490fd5b60405162461bcd60e51b815260206004820152601e60248201527f436f6c6c61746572616c20746f6b656e206e6f7420737570706f72746564000081840152606490fd5b60405162461bcd60e51b815260206004820152601860248201527f4c6f616e20746f6b656e206e6f7420737570706f72746564000000000000000081840152606490fd5b60405162461bcd60e51b815260206004820152601060248201526f24b73b30b634b210323ab930ba34b7b760811b81840152606490fd5b506301e1338060a43511156101dc565b60405162461bcd60e51b8152602060048201526016602482015275092dce8cae4cae6e840e4c2e8ca40e8dede40d0d2ced60531b81840152606490fd5b60405162461bcd60e51b815260206004820152602260248201527f4c6f616e20616d6f756e74206d7573742062652067726561746572207468616e8184015261020360f41b6064820152608490fd5b604036600319011261017157610934612429565b6004356000526004602052604060002060018060a01b036001820154168015610eea5760ff600e8301541660068110156105ba578015908115610edf575b5015610ea5573314610e605760243515610e0d576109966024356005830154612154565b600482015410610dd25760ff60068201541660058110156105ba5780610d4f57506024353403610d0a575b6040516109cd816120ee565b3381526004602082016024358152610a52604084014281526060850190600082526080860193600085528535600052600560205260406000203360005260205260406000209660018060a01b039051166001600160601b0360a01b885416178755516001870155516002860155511515600385019060ff801983541691151516179055565b519101556002810154600160401b8110156105e457806001610a7d9201600284015560028301611fdb565b81549060031b9033821b9160018060a01b03901b1916179055610aa560243560038301612343565b610ab56024356005830154612154565b6005820155336000526007602052610ad36004356040600020612343565b600581015460048201548110610cbc5750600160ff19600e8301541617600e82015542600c820155610b09600a82015442612154565b600d82015560ff6006820154169060018060a01b0360018201541660048201549260058110156105ba5780610c03575060008080939481935af13d15610bfe573d67ffffffffffffffff81116105e45760405190610b71601f8201601f191660200183612126565b8152600060203d92013e5b15610bc3576005905b01546040519081524260208201527fb96bada2a4e2e402aaa472b5e783a9d8bb13d996387df6beea608680b31ff46f604060043592a25b6001600055005b60405162461bcd60e51b8152602060048201526013602482015272115512081d1c985b9cd9995c8819985a5b1959606a1b6044820152606490fd5b610b7c565b610c0c90612009565b600260405191610c1b836120b5565b80546001600160a01b038116845260ff90610c3f60a082901c831660208701612148565b818160a81c16604086015260b01c161515606084015260018101546080840152015460a082015260018060a01b03905116926040519163a9059cbb60e01b60208401526024830152604482015260448152608081019080821067ffffffffffffffff8311176105e457600593610cb7926040526123c1565b610b85565b90600e600260ff19828401541617910155604051906024358252602082015233907f73a9841ee04f39f41b73f9432c749617285427e60f2fbe3a1bf5a5ef2e6b16cb604060043592a3610bbc565b60405162461bcd60e51b815260206004820152601960248201527f496e636f72726563742045544820616d6f756e742073656e74000000000000006044820152606490fd5b610d5b610dcd91612009565b600260405191610d6a836120b5565b80546001600160a01b038116845260ff90610d8e60a082901c831660208701612148565b60a881901c8216604086015260b01c161515606084015260018101546080840152015460a08201525160243590309033906001600160a01b0316612378565b6109c1565b60405162461bcd60e51b8152602060048201526013602482015272115e18d959591cc81b1bd85b88185b5bdd5b9d606a1b6044820152606490fd5b60405162461bcd60e51b815260206004820152602560248201527f46756e64696e6720616d6f756e74206d75737420626520677265617465722074604482015264068616e20360dc1b6064820152608490fd5b60405162461bcd60e51b815260206004820152601960248201527f43616e6e6f742066756e6420796f7572206f776e206c6f616e000000000000006044820152606490fd5b60405162461bcd60e51b81526020600482015260126024820152714c6f616e206e6f7420617661696c61626c6560701b6044820152606490fd5b600291501483610972565b60405162461bcd60e51b8152602060048201526013602482015272131bd85b88191bd95cc81b9bdd08195e1a5cdd606a1b6044820152606490fd5b3461017157602036600319011261017157610f3e611faf565b610f46612089565b6001600160a01b03908116908115610f9557600154826001600160601b0360a01b821617600155167f8be0079c531659141344cd1fd0a4f28419497f9722a3daafe3b4186f6b6457e0600080a3005b604051631e4fbdf760e01b815260006004820152602490fd5b3461017157604036600319011261017157610fc7611faf565b6001600160a01b031660009081526006602052604090208054602435919082101561017157602091610ff891611fdb565b90546040519160031b1c8152f35b34610171576020366003190112610171576004356000526004602052604060002080549080600160a01b6001900360018201541660048201546005830154600684015460078501546008860154600987015460ff1690600a88015492600b89015494600c8a015496600d8b015498600e8c01549a600f8d01549c6010015460ff169d601101549e604051806080525260805160200152608051604001526080516060015260805160800160ff8216906110be9161203b565b60805160a0019060081c60ff16906110d59161203b565b60805160c0015260805160e001521515608051610100015260805161012001526080516101400152608051610160015260805161018001526080516101a00160ff8216906111229161207c565b60081c60ff1615156080516101c001526080516101e0015215156080516102000152608051610220015260805161024090f35b346101715760203660031901126101715760043560058110156101715761117d60a091612022565b805490600181015490600281015460046003830154920154926040519485526020850152604084015260608301526080820152f35b34610171576020366003190112610171576004356005811015610171576111da602091612022565b611229610e10611222604051936111f0856120ee565b805485526004600182015491828888015260028101546040880152600381015460608801520154608086015242612181565b111561219d565b51604051908152f35b346101715760203660031901126101715760043560058110156101715761128760c091600060a0604051611265816120b5565b8281528260208201528260408201528260608201528260808201520152612009565b60405190611294826120b5565b80546001600160a01b038082168452919060ff602085016112bb60a084901c831682612148565b6113056040870191838560a81c16835283606089019560b01c1615158552600260018701549660808a0197885201549660a08901978852604051985116885251602088019061203b565b5116604085015251151560608401525160808301525160a0820152f35b346101715760203660031901126101715760043560058110156101715761134a60c091612022565b604051611356816120ee565b6080825492838352600181015492836020820152600282015490816040820152600460038401549384606084015201549384910152610e106113988542612181565b1193604051958652602086015260408501526060840152608083015260a0820152f35b346101715760403660031901126101715760a06113d6611fc5565b60043560005260056020526040600020600180841b03809216600052602052604060002090815416906001810154906002810154600460ff6003840154169201549260405194855260208501526040840152151560608301526080820152f35b346101715760003660031901126101715760028054600019810181811161063857611460906122dd565b9160009160015b8181106114c35750505061147a816122dd565b9160005b82811061149f576040516020808252819061149b90820187612048565b0390f35b806114ad6114be928461244c565b516114b8828761244c565b5261218e565b61147e565b8060005260206004815260ff600e908082604060002001541691600692838110156105ba5715938415611523575b50505050611508575b6115039061218e565b611467565b9261151b81856114b8611503948961244c565b9390506114fa565b600086815260049091526040902001541691508110156105ba578314868080806114f1565b34610171576000366003190112610171576001546040516001600160a01b039091168152602090f35b34610171576000366003190112610171576020604051610e108152f35b34610171576000366003190112610171576020600254604051908152f35b34610171576040366003190112610171576115c5611faf565b6024359081151590818303610171577f32fde6397cd391b6f81b58789e435d67003507393605e8ab5c6ec76aaf7916a19161162b602092611604612089565b60018060a01b031694856000526009845260406000209060ff801983541691151516179055565b604051908152a2005b3461017157600036600319011261017157602060405160788152f35b3461017157600036600319011261017157611669612089565b600180546001600160a01b031981169091556000906001600160a01b03167f8be0079c531659141344cd1fd0a4f28419497f9722a3daafe3b4186f6b6457e08280a3005b346101715760203660031901126101715760006102606040516116cf816120d1565b828152826020820152606060408201526060808201528260808201528260a08201528260c08201528260e08201528261010082015282610120820152826101408201528261016082015282610180820152826101a0820152826101c0820152826101e082015282610200820152826102208201528261024082015201526004356000526004602052604060002060405190611769826120d1565b8054825260018060a01b0360018201541660208301526040518081600284016020815493848152019060005260206000209260005b818110611a495750506117b392500382612126565b604083015260405180816020600385015492838152016003850160005260206000209260005b818110611a305750506117ee92500382612126565b606083015260048101546080830152600581015460a083015261182d60ff600683015461182082821660c08701612148565b60081c1660e08401612148565b6007810154610100830152600881015461012083015260ff6009820154161515610140830152600a810154610160830152600b810154610180830152600c8101546101a0830152600d8101546101c0830152600e81015490600660ff831610156105ba5760ff8281601194166101e086015260081c161515610200840152600f81015461022084015260ff60108201541615156102408401520154610260820152604051602081528151602082015260018060a01b03602083015116604082015260408201519161028060608301526102a08201835180915260206102c0840194019060005b818110611a115750505061026061193b83946060840151601f19868303016080870152612048565b91608081015160a085015260a081015160c085015261196260c082015160e086019061203b565b61197560e082015161010086019061203b565b61010081015161012085015261012081015161014085015261014081015115156101608501526101608101516101808501526101808101516101a08501526101a08101516101c08501526101c08101516101e08501526119df6101e082015161020086019061207c565b610200810151151561022085015261022081015161024085015261024081015115158285015201516102808301520390f35b82516001600160a01b0316865260209586019590920191600101611913565b84548352600194850194869450602090930192016117d9565b84546001600160a01b031683526001948501948694506020909301920161179e565b3461017157606036600319011261017157600435600581101561017157602490813591604435336000526020916009835260ff6040600020541615611d1a5784151580611d11575b15611cdd57611ac184612022565b90611acc8387612154565b60011c9280871115611cad57611ae28188612181565b61271090818102918183041490151715611c9857611b03826103e892612161565b11611c5457600483019283549283611b62575b50906003827ff798c75b2db09ea1034d9be253e9974b17bbe4a06f2b0ff6695054fa5b747191989987611b579695554260018301556002820155015561218e565b9055604051908152a2005b97815486818111600014611c105781611b7a91612181565b61271090818102918183041490151715611bfb57610bb891611b9b91612161565b11611ba65797611b16565b60405162461bcd60e51b8152600481018890526028818b01527f4e657720707269636520646576696174657320746f6f206d7563682066726f6d6044820152670818dd5c9c995b9d60c21b6064820152608490fd5b8a634e487b7160e01b60005260116004526000fd5b611c1991612181565b61271090818102918183041490151715611c3f57611c3a87610bb892612161565b611b9b565b89634e487b7160e01b60005260116004526000fd5b60405162461bcd60e51b815260048101869052601e818401527f507269636520736f7572636573206465766961746520746f6f206d75636800006044820152606490fd5b82634e487b7160e01b60005260116004526000fd5b611cb78782612181565b61271090818102918183041490151715611c9857611cd8886103e892612161565b611b03565b82600e6064926040519262461bcd60e51b845260048401528201526d496e76616c69642070726963657360901b6044820152fd5b50811515611ab3565b82601b6064926040519262461bcd60e51b845260048401528201527f4e6f7420617574686f72697a6564207072696365206f7261636c6500000000006044820152fd5b3461017157602036600319011261017157600435600581101561017157611d8560c091612009565b805460018201546002909201546040516001600160a01b038316815292909160ff90611dba6020860160a083901c841661203b565b818160a81c16604086015260b01c1615156060840152608083015260a0820152f35b3461017157604036600319011261017157611df5611faf565b6001600160a01b031660009081526007602052604090208054602435919082101561017157602091610ff891611fdb565b34610171576000366003190112610171576020604051610bb88152f35b346101715760a036600319011261017157600435600581101561017157611e68611fc5565b9060443560ff811680910361017157611e7f612089565b60405190611e8c826120b5565b6001600160a01b039384168083529360208301611ea98582612148565b604084019283526060840190600182526080850191606435835260a08601936084358552611ed688612009565b96511691865490519260058410156105ba5760029660ff60a81b905160a81b169260ff60b01b9051151560b01b169360ff60a01b9060a01b169168ffffffffffffffffff60b81b16171717178455516001840155519101557f0782d5a983f4f99019eb2dc8dfe67419752a13dca743154e71029fc01318d055600080a3005b346101715760003660031901126101715760206040516301e133808152f35b34610171576020366003190112610171576020906001600160a01b03611f98611faf565b166000526009825260ff6040600020541615158152f35b600435906001600160a01b038216820361017157565b602435906001600160a01b038216820361017157565b8054821015611ff35760005260206000200190600090565b634e487b7160e01b600052603260045260246000fd5b60058110156105ba576000526003602052604060002090565b60058110156105ba576000526008602052604060002090565b9060058210156105ba5752565b90815180825260208080930193019160005b828110612068575050505090565b83518552938101939281019260010161205a565b9060068210156105ba5752565b6001546001600160a01b0316330361209d57565b60405163118cdaa760e01b8152336004820152602490fd5b60c0810190811067ffffffffffffffff8211176105e457604052565b610280810190811067ffffffffffffffff8211176105e457604052565b60a0810190811067ffffffffffffffff8211176105e457604052565b6020810190811067ffffffffffffffff8211176105e457604052565b90601f8019910116810190811067ffffffffffffffff8211176105e457604052565b60058210156105ba5752565b9190820180921161063857565b811561216b570490565b634e487b7160e01b600052601260045260246000fd5b9190820391821161063857565b60001981146106385760010190565b156121a457565b60405162461bcd60e51b815260206004820152601360248201527250726963652064617461206973207374616c6560681b6044820152606490fd5b61224d6121eb82612009565b916040516121f8816120b5565b83546001600160a01b03811682529360a09060029061221f87841c60ff1660208601612148565b60ff6040850197818160a81c16895260b01c1615156060850152600181015460808501520154910152612022565b612296610e1061122260405193612263856120ee565b80548552600460018201549182602088015260028101546040880152600381015460608801520154608086015242612181565b5191828102928184041490151715610638575160ff1690604d8211610638576122c291600a0a90612161565b90565b67ffffffffffffffff81116105e45760051b60200190565b906122e7826122c5565b6122f46040519182612126565b8281528092612305601f19916122c5565b0190602036910137565b909182811061231d57505050565b60009182526020822092830192015b82811061233857505050565b81815560010161232c565b8054600160401b8110156105e45761236091600182018155611fdb565b819291549060031b91821b91600019901b1916179055565b6040516323b872dd60e01b60208201526001600160a01b0392831660248201529290911660448301526064808301939093529181526123bf916123ba826120ee565b6123c1565b565b906000602091828151910182855af11561241d576000513d61241457506001600160a01b0381163b155b6123f25750565b604051635274afe760e01b81526001600160a01b039091166004820152602490fd5b600114156123eb565b6040513d6000823e3d90fd5b60026000541461243a576002600055565b604051633ee5aeb560e01b8152600490fd5b8051821015611ff35760209160051b01019056fea26469706673582212205064e5379530c5d9e182e7e44ddd0c0e0d8cc1874e40685d93b565aa3d9b807964736f6c63430008140033","opcodes":"PUSH1 0x80 PUSH1 0x40 SWAP1 DUP1 DUP3 MSTORE CALLVALUE PUSH3 0x2C0 JUMPI PUSH1 0x1 SWAP1 PUSH1 0x0 SWAP1 DUP3 DUP3 SSTORE CALLER ISZERO PUSH3 0x2AC JUMPI POP DUP2 SLOAD CALLER PUSH1 0x1 PUSH1 0x1 PUSH1 0xA0 SHL SUB NOT DUP3 AND DUP2 OR DUP5 SSTORE PUSH1 0x1 PUSH1 0x1 PUSH1 0xA0 SHL SUB SWAP2 DUP3 AND PUSH32 0x8BE0079C531659141344CD1FD0A4F28419497F9722A3DAAFE3B4186F6B6457E0 DUP5 DUP1 LOG3 PUSH1 0x2 DUP4 DUP2 SSTORE DUP5 MLOAD SWAP2 SWAP1 PUSH1 0xC0 DUP4 ADD PUSH1 0x1 PUSH1 0x1 PUSH1 0x40 SHL SUB DUP2 GT DUP5 DUP3 LT OR PUSH3 0x298 JUMPI DUP7 MSTORE DUP4 DUP4 MSTORE PUSH1 0x20 SWAP3 DUP4 DUP2 ADD DUP6 DUP2 MSTORE DUP8 DUP3 ADD PUSH1 0x12 DUP2 MSTORE PUSH1 0x60 DUP4 ADD SWAP1 DUP9 DUP3 MSTORE PUSH1 0x80 DUP5 ADD SWAP2 PUSH7 0x2386F26FC10000 DUP4 MSTORE PUSH1 0xA0 DUP6 ADD SWAP4 PUSH9 0x3635C9ADC5DEA00000 DUP6 MSTORE DUP10 DUP1 MSTORE PUSH1 0x3 SWAP8 DUP9 DUP11 MSTORE DUP13 DUP12 KECCAK256 SWAP7 MLOAD AND DUP7 SLOAD SWAP2 MLOAD SWAP4 PUSH1 0x5 DUP6 LT ISZERO PUSH3 0x284 JUMPI MLOAD SWAP3 MLOAD PUSH1 0x1 PUSH1 0x1 PUSH1 0xB8 SHL SUB NOT SWAP1 SWAP3 AND OR PUSH1 0xA0 SWAP4 SWAP1 SWAP4 SHL PUSH1 0xFF PUSH1 0xA0 SHL AND SWAP3 SWAP1 SWAP3 OR PUSH1 0xA8 SWAP2 SWAP1 SWAP2 SHL PUSH1 0xFF PUSH1 0xA8 SHL AND OR SWAP1 ISZERO ISZERO PUSH1 0xB0 SHL PUSH1 0xFF PUSH1 0xB0 SHL AND OR DUP4 SSTORE MLOAD DUP8 DUP4 ADD SSTORE MLOAD SWAP1 DUP3 ADD SSTORE DUP6 SWAP4 SWAP3 PUSH1 0x9 SWAP3 SWAP1 SWAP2 PUSH1 0x4 SWAP1 PUSH3 0x135 PUSH3 0x2C5 JUMP JUMPDEST DUP3 PUSH5 0x3A35294400 DUP1 DUP4 MSTORE DUP7 DUP4 ADD SWAP1 TIMESTAMP DUP3 MSTORE DUP11 DUP5 ADD DUP2 DUP2 MSTORE PUSH1 0x60 DUP6 ADD SWAP2 DUP3 MSTORE PUSH1 0x80 DUP6 ADD SWAP3 DUP14 DUP5 MSTORE DUP12 DUP1 MSTORE PUSH1 0x8 DUP11 MSTORE DUP13 DUP13 KECCAK256 SWAP6 MLOAD DUP7 SSTORE MLOAD DUP14 DUP7 ADD SSTORE MLOAD DUP6 DUP6 ADD SSTORE MLOAD DUP7 DUP5 ADD SSTORE MLOAD SWAP2 ADD SSTORE PUSH3 0x186 PUSH3 0x2C5 JUMP JUMPDEST SWAP3 PUSH4 0x5F5E100 SWAP4 DUP5 DUP2 MSTORE DUP4 DUP7 DUP10 DUP12 DUP14 DUP4 DUP7 ADD TIMESTAMP DUP2 MSTORE DUP3 DUP8 ADD SWAP3 DUP12 DUP5 MSTORE PUSH1 0x60 DUP9 ADD SWAP5 DUP13 DUP7 MSTORE PUSH1 0x8 PUSH1 0x80 DUP11 ADD SWAP8 DUP6 DUP10 MSTORE DUP6 DUP4 MSTORE MSTORE KECCAK256 SWAP7 MLOAD DUP8 SSTORE MLOAD SWAP1 DUP7 ADD SSTORE MLOAD DUP7 DUP6 ADD SSTORE MLOAD DUP5 DUP5 ADD SSTORE MLOAD SWAP2 ADD SSTORE PUSH3 0x1DA PUSH3 0x2C5 JUMP JUMPDEST DUP5 DUP2 MSTORE TIMESTAMP DUP7 DUP3 ADD SWAP1 DUP2 MSTORE DUP10 DUP3 ADD DUP7 DUP2 MSTORE PUSH1 0x60 DUP4 ADD DUP8 DUP2 MSTORE PUSH1 0x80 DUP5 ADD DUP14 DUP2 MSTORE DUP7 DUP13 MSTORE PUSH1 0x8 DUP11 MSTORE DUP13 DUP13 KECCAK256 SWAP5 MLOAD DUP6 SSTORE SWAP3 MLOAD DUP5 DUP15 ADD SSTORE SWAP1 MLOAD DUP4 DUP7 ADD SSTORE MLOAD DUP4 DUP4 ADD SSTORE MLOAD SWAP1 DUP5 ADD SSTORE PUSH3 0x226 PUSH3 0x2C5 JUMP JUMPDEST SWAP4 DUP1 DUP6 MSTORE DUP6 DUP6 ADD SWAP3 TIMESTAMP DUP5 MSTORE DUP10 DUP7 ADD DUP3 DUP2 MSTORE PUSH1 0x60 DUP8 ADD SWAP3 DUP4 MSTORE PUSH1 0x80 DUP8 ADD SWAP5 DUP13 DUP7 MSTORE DUP5 DUP12 MSTORE PUSH1 0x8 DUP10 MSTORE DUP12 DUP12 KECCAK256 SWAP8 MLOAD DUP9 SSTORE MLOAD DUP13 DUP9 ADD SSTORE MLOAD SWAP1 DUP7 ADD SSTORE MLOAD SWAP1 DUP5 ADD SSTORE MLOAD SWAP2 ADD SSTORE CALLER DUP4 MSTORE MSTORE KECCAK256 SWAP1 PUSH1 0xFF NOT DUP3 SLOAD AND OR SWAP1 SSTORE MLOAD PUSH2 0x2496 SWAP1 DUP2 PUSH3 0x2FC DUP3 CODECOPY RETURN JUMPDEST PUSH4 0x4E487B71 PUSH1 0xE0 SHL DUP13 MSTORE PUSH1 0x21 PUSH1 0x4 MSTORE PUSH1 0x24 DUP13 REVERT JUMPDEST PUSH4 0x4E487B71 PUSH1 0xE0 SHL DUP6 MSTORE PUSH1 0x41 PUSH1 0x4 MSTORE PUSH1 0x24 DUP6 REVERT JUMPDEST PUSH1 0x24 SWAP2 PUSH4 0x1E4FBDF7 PUSH1 0xE0 SHL DUP3 MSTORE PUSH1 0x4 DUP3 ADD MSTORE REVERT JUMPDEST PUSH1 0x0 DUP1 REVERT JUMPDEST PUSH1 0x40 MLOAD SWAP1 PUSH1 0xA0 DUP3 ADD PUSH1 0x1 PUSH1 0x1 PUSH1 0x40 SHL SUB DUP2 GT DUP4 DUP3 LT OR PUSH3 0x2E5 JUMPI PUSH1 0x40 MSTORE JUMP JUMPDEST PUSH4 0x4E487B71 PUSH1 0xE0 SHL PUSH1 0x0 MSTORE PUSH1 0x41 PUSH1 0x4 MSTORE PUSH1 0x24 PUSH1 0x0 REVERT INVALID PUSH1 0xA0 DUP1 PUSH1 0x40 MSTORE PUSH1 0x4 CALLDATASIZE LT ISZERO PUSH2 0x13 JUMPI PUSH1 0x0 DUP1 REVERT JUMPDEST PUSH1 0x0 CALLDATALOAD PUSH1 0xE0 SHR SWAP1 DUP2 PUSH4 0x1374518 EQ PUSH2 0x1F74 JUMPI POP DUP1 PUSH4 0xD0B2CA6 EQ PUSH2 0x1F55 JUMPI DUP1 PUSH4 0x2FFC204B EQ PUSH2 0x1E43 JUMPI DUP1 PUSH4 0x34855D14 EQ PUSH2 0x1E26 JUMPI DUP1 PUSH4 0x3CDB72F1 EQ PUSH2 0x1DDC JUMPI DUP1 PUSH4 0x3F572D36 EQ PUSH2 0x1D5D JUMPI DUP1 PUSH4 0x4DD9CCCC EQ PUSH2 0x1A6B JUMPI DUP1 PUSH4 0x504006CA EQ PUSH2 0x16AD JUMPI DUP1 PUSH4 0x715018A6 EQ PUSH2 0x1650 JUMPI DUP1 PUSH4 0x7A9FFFB7 EQ PUSH2 0x1634 JUMPI DUP1 PUSH4 0x858A9EA0 EQ PUSH2 0x15AC JUMPI DUP1 PUSH4 0x87C51459 EQ PUSH2 0x158E JUMPI DUP1 PUSH4 0x89D99A05 EQ PUSH2 0x1571 JUMPI DUP1 PUSH4 0x8DA5CB5B EQ PUSH2 0x1548 JUMPI DUP1 PUSH4 0x9772D7EE EQ PUSH2 0x1436 JUMPI DUP1 PUSH4 0xAD8D0138 EQ PUSH2 0x13BB JUMPI DUP1 PUSH4 0xC7FC1325 EQ PUSH2 0x1322 JUMPI DUP1 PUSH4 0xD42C4C53 EQ PUSH2 0x1232 JUMPI DUP1 PUSH4 0xD89E8C1C EQ PUSH2 0x11B2 JUMPI DUP1 PUSH4 0xDECEAFA7 EQ PUSH2 0x1155 JUMPI DUP1 PUSH4 0xE1EC3C68 EQ PUSH2 0x1006 JUMPI DUP1 PUSH4 0xE3ED1902 EQ PUSH2 0xFAE JUMPI DUP1 PUSH4 0xF2FDE38B EQ PUSH2 0xF25 JUMPI DUP1 PUSH4 0xF4512BB6 EQ PUSH2 0x920 JUMPI DUP1 PUSH4 0xF498C9CC EQ PUSH2 0x176 JUMPI PUSH4 0xFE6993B8 EQ PUSH2 0x13D JUMPI PUSH1 0x0 DUP1 REVERT JUMPDEST CALLVALUE PUSH2 0x171 JUMPI PUSH1 0x40 CALLDATASIZE PUSH1 0x3 NOT ADD SLT PUSH2 0x171 JUMPI PUSH1 0x4 CALLDATALOAD PUSH1 0x5 DUP2 LT ISZERO PUSH2 0x171 JUMPI PUSH2 0x169 PUSH1 0x20 SWAP2 PUSH1 0x24 CALLDATALOAD SWAP1 PUSH2 0x21DF JUMP JUMPDEST PUSH1 0x40 MLOAD SWAP1 DUP2 MSTORE RETURN JUMPDEST PUSH1 0x0 DUP1 REVERT JUMPDEST PUSH2 0x100 CALLDATASIZE PUSH1 0x3 NOT ADD SLT PUSH2 0x171 JUMPI PUSH1 0x5 PUSH1 0x24 CALLDATALOAD LT ISZERO PUSH2 0x171 JUMPI PUSH1 0x44 PUSH1 0x5 DUP2 CALLDATALOAD LT ISZERO PUSH2 0x171 JUMPI PUSH1 0xC4 CALLDATALOAD DUP1 ISZERO ISZERO DUP2 SUB PUSH2 0x171 JUMPI PUSH1 0xE4 CALLDATALOAD ISZERO ISZERO PUSH1 0xE4 CALLDATALOAD SUB PUSH2 0x171 JUMPI PUSH2 0x1BB PUSH2 0x2429 JUMP JUMPDEST PUSH1 0x4 CALLDATALOAD ISZERO PUSH2 0x8D1 JUMPI PUSH2 0xBB8 PUSH1 0x84 CALLDATALOAD GT PUSH2 0x894 JUMPI PUSH2 0xE10 PUSH1 0xA4 CALLDATALOAD LT ISZERO DUP1 PUSH2 0x884 JUMPI JUMPDEST ISZERO PUSH2 0x84D JUMPI PUSH1 0xFF PUSH2 0x1EE PUSH1 0x24 CALLDATALOAD PUSH2 0x2009 JUMP JUMPDEST SLOAD PUSH1 0xB0 SHR AND ISZERO PUSH2 0x809 JUMPI PUSH1 0xFF PUSH2 0x204 DUP4 CALLDATALOAD PUSH2 0x2009 JUMP JUMPDEST SLOAD PUSH1 0xB0 SHR AND ISZERO PUSH2 0x7C5 JUMPI PUSH2 0x21C PUSH1 0x4 CALLDATALOAD PUSH1 0x24 CALLDATALOAD PUSH2 0x21DF JUMP JUMPDEST PUSH2 0x229 PUSH1 0x64 CALLDATALOAD DUP5 CALLDATALOAD PUSH2 0x21DF JUMP JUMPDEST SWAP1 PUSH1 0x78 DUP2 MUL SWAP1 DUP1 DUP3 DIV PUSH1 0x78 EQ SWAP1 ISZERO OR ISZERO PUSH2 0x638 JUMPI PUSH1 0x64 SWAP1 DIV GT PUSH2 0x781 JUMPI PUSH1 0x2 SLOAD SWAP1 PUSH2 0x253 DUP3 PUSH2 0x218E JUMP JUMPDEST PUSH1 0x2 SSTORE DUP3 CALLDATALOAD PUSH2 0x6A8 JUMPI PUSH1 0x64 CALLDATALOAD CALLVALUE SUB PUSH2 0x64E JUMPI JUMPDEST PUSH1 0x0 PUSH1 0xE4 CALLDATALOAD PUSH2 0x617 JUMPI JUMPDEST PUSH1 0x40 MLOAD SWAP1 PUSH2 0x27D DUP3 PUSH2 0x210A JUMP JUMPDEST PUSH1 0x0 DUP3 MSTORE PUSH1 0x40 MLOAD PUSH2 0x28D DUP2 PUSH2 0x210A JUMP JUMPDEST PUSH1 0x0 DUP2 MSTORE PUSH1 0x40 MLOAD SWAP3 PUSH2 0x29E DUP5 PUSH2 0x20D1 JUMP JUMPDEST DUP6 DUP5 MSTORE CALLER PUSH1 0x20 DUP6 ADD MSTORE PUSH1 0x40 DUP5 ADD MSTORE PUSH1 0x60 DUP4 ADD MSTORE PUSH1 0x4 CALLDATALOAD PUSH1 0x80 DUP4 ADD MSTORE PUSH1 0x0 PUSH1 0xA0 DUP4 ADD MSTORE PUSH2 0x2CF PUSH1 0x24 CALLDATALOAD PUSH1 0xC0 DUP5 ADD PUSH2 0x2148 JUMP JUMPDEST PUSH2 0x2DD DUP6 CALLDATALOAD PUSH1 0xE0 DUP5 ADD PUSH2 0x2148 JUMP JUMPDEST PUSH1 0x64 CALLDATALOAD PUSH2 0x100 DUP4 ADD MSTORE PUSH1 0x84 CALLDATALOAD PUSH2 0x120 DUP4 ADD MSTORE DUP3 ISZERO ISZERO PUSH2 0x140 DUP4 ADD MSTORE PUSH1 0xA4 CALLDATALOAD PUSH2 0x160 DUP4 ADD MSTORE TIMESTAMP PUSH2 0x180 DUP4 ADD MSTORE PUSH1 0x0 PUSH2 0x1A0 DUP4 ADD MSTORE PUSH1 0x0 PUSH2 0x1C0 DUP4 ADD MSTORE PUSH1 0x0 PUSH2 0x1E0 DUP4 ADD MSTORE PUSH1 0x0 PUSH2 0x200 DUP4 ADD MSTORE PUSH2 0x1F4 PUSH2 0x220 DUP4 ADD MSTORE PUSH1 0xE4 CALLDATALOAD ISZERO ISZERO PUSH2 0x240 DUP4 ADD MSTORE PUSH2 0x260 DUP3 ADD MSTORE DUP3 PUSH1 0x0 MSTORE PUSH1 0x4 PUSH1 0x20 MSTORE PUSH1 0x40 PUSH1 0x0 KECCAK256 SWAP1 DUP1 MLOAD DUP3 SSTORE PUSH1 0x1 DUP3 ADD PUSH1 0x1 DUP1 PUSH1 0xA0 SHL SUB PUSH1 0x20 DUP4 ADD MLOAD AND PUSH1 0x1 PUSH1 0x1 PUSH1 0x60 SHL SUB PUSH1 0xA0 SHL DUP3 SLOAD AND OR SWAP1 SSTORE PUSH1 0x40 DUP2 ADD MLOAD DUP1 MLOAD SWAP1 PUSH8 0xFFFFFFFFFFFFFFFF DUP3 GT PUSH2 0x5E4 JUMPI PUSH1 0x1 PUSH1 0x40 SHL DUP3 GT PUSH2 0x5E4 JUMPI PUSH1 0x20 PUSH1 0x2 DUP6 ADD SWAP2 PUSH2 0x3AF DUP5 DUP5 SLOAD DUP2 DUP7 SSTORE DUP6 PUSH2 0x230F JUMP JUMPDEST ADD SWAP1 PUSH1 0x0 MSTORE PUSH1 0x20 PUSH1 0x0 KECCAK256 PUSH1 0x0 JUMPDEST DUP4 DUP2 LT PUSH2 0x5FA JUMPI POP POP POP POP PUSH1 0x60 DUP2 ADD MLOAD DUP1 MLOAD SWAP1 PUSH8 0xFFFFFFFFFFFFFFFF DUP3 GT PUSH2 0x5E4 JUMPI PUSH1 0x1 PUSH1 0x40 SHL DUP3 GT PUSH2 0x5E4 JUMPI PUSH1 0x20 PUSH1 0x3 DUP6 ADD SWAP2 PUSH2 0x3FF DUP5 DUP5 SLOAD DUP2 DUP7 SSTORE DUP6 PUSH2 0x230F JUMP JUMPDEST ADD SWAP1 PUSH1 0x0 MSTORE PUSH1 0x20 PUSH1 0x0 KECCAK256 PUSH1 0x0 JUMPDEST DUP4 DUP2 LT PUSH2 0x5D0 JUMPI POP POP POP POP PUSH1 0x80 DUP2 ADD MLOAD PUSH1 0x4 DUP4 ADD SSTORE PUSH1 0xA0 DUP2 ADD MLOAD PUSH1 0x5 DUP4 ADD SSTORE PUSH1 0xC0 DUP2 ADD MLOAD PUSH1 0x5 DUP2 LT ISZERO PUSH2 0x5BA JUMPI PUSH1 0x6 DUP4 ADD SLOAD PUSH1 0xE0 DUP4 ADD MLOAD PUSH1 0x5 DUP2 LT ISZERO PUSH2 0x5BA JUMPI PUSH2 0xFF00 PUSH1 0xFF SWAP2 PUSH1 0x8 SHL AND SWAP3 AND SWAP1 PUSH2 0xFFFF NOT AND OR OR PUSH1 0x6 DUP4 ADD SSTORE PUSH2 0x100 DUP2 ADD MLOAD PUSH1 0x7 DUP4 ADD SSTORE PUSH2 0x120 DUP2 ADD MLOAD PUSH1 0x8 DUP4 ADD SSTORE PUSH2 0x49B PUSH2 0x140 DUP3 ADD MLOAD ISZERO ISZERO PUSH1 0x9 DUP5 ADD SWAP1 PUSH1 0xFF DUP1 NOT DUP4 SLOAD AND SWAP2 ISZERO ISZERO AND OR SWAP1 SSTORE JUMP JUMPDEST PUSH2 0x160 DUP2 ADD MLOAD PUSH1 0xA DUP4 ADD SSTORE PUSH2 0x180 DUP2 ADD MLOAD PUSH1 0xB DUP4 ADD SSTORE PUSH2 0x1A0 DUP2 ADD MLOAD PUSH1 0xC DUP4 ADD SSTORE PUSH2 0x1C0 DUP2 ADD MLOAD PUSH1 0xD DUP4 ADD SSTORE PUSH2 0x1E0 DUP2 ADD MLOAD PUSH1 0x6 DUP2 LT ISZERO PUSH2 0x5BA JUMPI PUSH1 0x11 SWAP2 PUSH2 0x260 SWAP2 PUSH1 0xE DUP6 ADD SWAP1 DUP2 SLOAD PUSH1 0xFF PUSH2 0xFF00 PUSH2 0x200 DUP7 ADD MLOAD ISZERO ISZERO PUSH1 0x8 SHL AND SWAP3 AND SWAP1 PUSH2 0xFFFF NOT AND OR OR SWAP1 SSTORE PUSH2 0x220 DUP2 ADD MLOAD PUSH1 0xF DUP6 ADD SSTORE PUSH2 0x52C PUSH2 0x240 DUP3 ADD MLOAD ISZERO ISZERO PUSH1 0x10 DUP7 ADD SWAP1 PUSH1 0xFF DUP1 NOT DUP4 SLOAD AND SWAP2 ISZERO ISZERO AND OR SWAP1 SSTORE JUMP JUMPDEST ADD MLOAD SWAP2 ADD SSTORE CALLER PUSH1 0x0 MSTORE PUSH1 0x6 PUSH1 0x20 MSTORE PUSH2 0x548 DUP3 PUSH1 0x40 PUSH1 0x0 KECCAK256 PUSH2 0x2343 JUMP JUMPDEST PUSH2 0x56E PUSH1 0x40 MLOAD SWAP4 PUSH1 0x4 CALLDATALOAD DUP6 MSTORE PUSH2 0x563 PUSH1 0x20 DUP7 ADD PUSH1 0x24 CALLDATALOAD PUSH2 0x203B JUMP JUMPDEST PUSH1 0x40 DUP6 ADD SWAP1 CALLDATALOAD PUSH2 0x203B JUMP JUMPDEST PUSH1 0x64 CALLDATALOAD PUSH1 0x60 DUP5 ADD MSTORE PUSH1 0x84 CALLDATALOAD PUSH1 0x80 DUP5 ADD MSTORE PUSH1 0xA4 CALLDATALOAD PUSH1 0xA0 DUP5 ADD MSTORE ISZERO ISZERO PUSH1 0xC0 DUP4 ADD MSTORE PUSH32 0xABDB66E6184682B23B47B8B6A7923F5B99D0155E0155200BDA4753D7E784699E PUSH1 0xE0 CALLER SWAP4 LOG3 PUSH1 0x1 PUSH1 0x0 SSTORE STOP JUMPDEST PUSH4 0x4E487B71 PUSH1 0xE0 SHL PUSH1 0x0 MSTORE PUSH1 0x21 PUSH1 0x4 MSTORE PUSH1 0x24 PUSH1 0x0 REVERT JUMPDEST PUSH1 0x1 SWAP1 PUSH1 0x20 DUP5 MLOAD SWAP5 ADD SWAP4 DUP2 DUP5 ADD SSTORE ADD PUSH2 0x40C JUMP JUMPDEST PUSH4 0x4E487B71 PUSH1 0xE0 SHL PUSH1 0x0 MSTORE PUSH1 0x41 PUSH1 0x4 MSTORE PUSH1 0x24 PUSH1 0x0 REVERT JUMPDEST DUP3 MLOAD PUSH1 0x1 PUSH1 0x1 PUSH1 0xA0 SHL SUB AND DUP2 DUP4 ADD SSTORE PUSH1 0x20 SWAP1 SWAP3 ADD SWAP2 PUSH1 0x1 ADD PUSH2 0x3BC JUMP JUMPDEST POP PUSH1 0x4 CALLDATALOAD PUSH1 0x64 PUSH1 0x4 CALLDATALOAD MUL DIV PUSH1 0x64 SUB PUSH2 0x638 JUMPI PUSH2 0x2710 PUSH1 0x64 PUSH1 0x4 CALLDATALOAD MUL DIV PUSH2 0x270 JUMP JUMPDEST PUSH4 0x4E487B71 PUSH1 0xE0 SHL PUSH1 0x0 MSTORE PUSH1 0x11 PUSH1 0x4 MSTORE PUSH1 0x24 PUSH1 0x0 REVERT JUMPDEST PUSH1 0x40 MLOAD PUSH3 0x461BCD PUSH1 0xE5 SHL DUP2 MSTORE PUSH1 0x20 PUSH1 0x4 DUP3 ADD MSTORE PUSH1 0x2D PUSH1 0x24 DUP3 ADD MSTORE PUSH32 0x4554482073656E74206D7573742065786163746C79206D6174636820636F6C6C DUP2 DUP6 ADD MSTORE PUSH13 0x185D195C985B08185B5BDD5B9D PUSH1 0x9A SHL PUSH1 0x64 DUP3 ADD MSTORE PUSH1 0x84 SWAP1 REVERT JUMPDEST CALLVALUE PUSH2 0x72A JUMPI PUSH2 0x725 PUSH2 0x6BA DUP5 CALLDATALOAD PUSH2 0x2009 JUMP JUMPDEST PUSH1 0x40 MLOAD PUSH2 0x6C6 DUP2 PUSH2 0x20B5 JUMP JUMPDEST DUP2 SLOAD PUSH1 0x1 PUSH1 0x1 PUSH1 0xA0 SHL SUB DUP1 DUP3 AND DUP4 MSTORE SWAP3 PUSH1 0x2 SWAP2 PUSH1 0xFF SWAP1 PUSH2 0x6EF PUSH1 0xA0 DUP3 SWAP1 SHR DUP4 AND PUSH1 0x20 DUP8 ADD PUSH2 0x2148 JUMP JUMPDEST DUP2 DUP2 PUSH1 0xA8 SHR AND PUSH1 0x40 DUP7 ADD MSTORE PUSH1 0xB0 SHR AND ISZERO ISZERO PUSH1 0x60 DUP5 ADD MSTORE PUSH1 0x1 DUP2 ADD SLOAD PUSH1 0x80 DUP5 ADD MSTORE ADD SLOAD PUSH1 0xA0 DUP3 ADD MSTORE MLOAD AND PUSH1 0x64 CALLDATALOAD SWAP1 ADDRESS SWAP1 CALLER SWAP1 PUSH2 0x2378 JUMP JUMPDEST PUSH2 0x266 JUMP JUMPDEST PUSH1 0x40 MLOAD PUSH3 0x461BCD PUSH1 0xE5 SHL DUP2 MSTORE PUSH1 0x20 PUSH1 0x4 DUP3 ADD MSTORE PUSH1 0x2A PUSH1 0x24 DUP3 ADD MSTORE PUSH32 0x4E6F204554482073686F756C642062652073656E7420666F7220455243323020 DUP2 DUP6 ADD MSTORE PUSH10 0x18DBDB1B185D195C985B PUSH1 0xB2 SHL PUSH1 0x64 DUP3 ADD MSTORE PUSH1 0x84 SWAP1 REVERT JUMPDEST PUSH1 0x40 MLOAD PUSH3 0x461BCD PUSH1 0xE5 SHL DUP2 MSTORE PUSH1 0x20 PUSH1 0x4 DUP3 ADD MSTORE PUSH1 0x17 PUSH1 0x24 DUP3 ADD MSTORE PUSH32 0x496E73756666696369656E7420636F6C6C61746572616C000000000000000000 DUP2 DUP5 ADD MSTORE PUSH1 0x64 SWAP1 REVERT JUMPDEST PUSH1 0x40 MLOAD PUSH3 0x461BCD PUSH1 0xE5 SHL DUP2 MSTORE PUSH1 0x20 PUSH1 0x4 DUP3 ADD MSTORE PUSH1 0x1E PUSH1 0x24 DUP3 ADD MSTORE PUSH32 0x436F6C6C61746572616C20746F6B656E206E6F7420737570706F727465640000 DUP2 DUP5 ADD MSTORE PUSH1 0x64 SWAP1 REVERT JUMPDEST PUSH1 0x40 MLOAD PUSH3 0x461BCD PUSH1 0xE5 SHL DUP2 MSTORE PUSH1 0x20 PUSH1 0x4 DUP3 ADD MSTORE PUSH1 0x18 PUSH1 0x24 DUP3 ADD MSTORE PUSH32 0x4C6F616E20746F6B656E206E6F7420737570706F727465640000000000000000 DUP2 DUP5 ADD MSTORE PUSH1 0x64 SWAP1 REVERT JUMPDEST PUSH1 0x40 MLOAD PUSH3 0x461BCD PUSH1 0xE5 SHL DUP2 MSTORE PUSH1 0x20 PUSH1 0x4 DUP3 ADD MSTORE PUSH1 0x10 PUSH1 0x24 DUP3 ADD MSTORE PUSH16 0x24B73B30B634B210323AB930BA34B7B7 PUSH1 0x81 SHL DUP2 DUP5 ADD MSTORE PUSH1 0x64 SWAP1 REVERT JUMPDEST POP PUSH4 0x1E13380 PUSH1 0xA4 CALLDATALOAD GT ISZERO PUSH2 0x1DC JUMP JUMPDEST PUSH1 0x40 MLOAD PUSH3 0x461BCD PUSH1 0xE5 SHL DUP2 MSTORE PUSH1 0x20 PUSH1 0x4 DUP3 ADD MSTORE PUSH1 0x16 PUSH1 0x24 DUP3 ADD MSTORE PUSH22 0x92DCE8CAE4CAE6E840E4C2E8CA40E8DEDE40D0D2CED PUSH1 0x53 SHL DUP2 DUP5 ADD MSTORE PUSH1 0x64 SWAP1 REVERT JUMPDEST PUSH1 0x40 MLOAD PUSH3 0x461BCD PUSH1 0xE5 SHL DUP2 MSTORE PUSH1 0x20 PUSH1 0x4 DUP3 ADD MSTORE PUSH1 0x22 PUSH1 0x24 DUP3 ADD MSTORE PUSH32 0x4C6F616E20616D6F756E74206D7573742062652067726561746572207468616E DUP2 DUP5 ADD MSTORE PUSH2 0x203 PUSH1 0xF4 SHL PUSH1 0x64 DUP3 ADD MSTORE PUSH1 0x84 SWAP1 REVERT JUMPDEST PUSH1 0x40 CALLDATASIZE PUSH1 0x3 NOT ADD SLT PUSH2 0x171 JUMPI PUSH2 0x934 PUSH2 0x2429 JUMP JUMPDEST PUSH1 0x4 CALLDATALOAD PUSH1 0x0 MSTORE PUSH1 0x4 PUSH1 0x20 MSTORE PUSH1 0x40 PUSH1 0x0 KECCAK256 PUSH1 0x1 DUP1 PUSH1 0xA0 SHL SUB PUSH1 0x1 DUP3 ADD SLOAD AND DUP1 ISZERO PUSH2 0xEEA JUMPI PUSH1 0xFF PUSH1 0xE DUP4 ADD SLOAD AND PUSH1 0x6 DUP2 LT ISZERO PUSH2 0x5BA JUMPI DUP1 ISZERO SWAP1 DUP2 ISZERO PUSH2 0xEDF JUMPI JUMPDEST POP ISZERO PUSH2 0xEA5 JUMPI CALLER EQ PUSH2 0xE60 JUMPI PUSH1 0x24 CALLDATALOAD ISZERO PUSH2 0xE0D JUMPI PUSH2 0x996 PUSH1 0x24 CALLDATALOAD PUSH1 0x5 DUP4 ADD SLOAD PUSH2 0x2154 JUMP JUMPDEST PUSH1 0x4 DUP3 ADD SLOAD LT PUSH2 0xDD2 JUMPI PUSH1 0xFF PUSH1 0x6 DUP3 ADD SLOAD AND PUSH1 0x5 DUP2 LT ISZERO PUSH2 0x5BA JUMPI DUP1 PUSH2 0xD4F JUMPI POP PUSH1 0x24 CALLDATALOAD CALLVALUE SUB PUSH2 0xD0A JUMPI JUMPDEST PUSH1 0x40 MLOAD PUSH2 0x9CD DUP2 PUSH2 0x20EE JUMP JUMPDEST CALLER DUP2 MSTORE PUSH1 0x4 PUSH1 0x20 DUP3 ADD PUSH1 0x24 CALLDATALOAD DUP2 MSTORE PUSH2 0xA52 PUSH1 0x40 DUP5 ADD TIMESTAMP DUP2 MSTORE PUSH1 0x60 DUP6 ADD SWAP1 PUSH1 0x0 DUP3 MSTORE PUSH1 0x80 DUP7 ADD SWAP4 PUSH1 0x0 DUP6 MSTORE DUP6 CALLDATALOAD PUSH1 0x0 MSTORE PUSH1 0x5 PUSH1 0x20 MSTORE PUSH1 0x40 PUSH1 0x0 KECCAK256 CALLER PUSH1 0x0 MSTORE PUSH1 0x20 MSTORE PUSH1 0x40 PUSH1 0x0 KECCAK256 SWAP7 PUSH1 0x1 DUP1 PUSH1 0xA0 SHL SUB SWAP1 MLOAD AND PUSH1 0x1 PUSH1 0x1 PUSH1 0x60 SHL SUB PUSH1 0xA0 SHL DUP9 SLOAD AND OR DUP8 SSTORE MLOAD PUSH1 0x1 DUP8 ADD SSTORE MLOAD PUSH1 0x2 DUP7 ADD SSTORE MLOAD ISZERO ISZERO PUSH1 0x3 DUP6 ADD SWAP1 PUSH1 0xFF DUP1 NOT DUP4 SLOAD AND SWAP2 ISZERO ISZERO AND OR SWAP1 SSTORE JUMP JUMPDEST MLOAD SWAP2 ADD SSTORE PUSH1 0x2 DUP2 ADD SLOAD PUSH1 0x1 PUSH1 0x40 SHL DUP2 LT ISZERO PUSH2 0x5E4 JUMPI DUP1 PUSH1 0x1 PUSH2 0xA7D SWAP3 ADD PUSH1 0x2 DUP5 ADD SSTORE PUSH1 0x2 DUP4 ADD PUSH2 0x1FDB JUMP JUMPDEST DUP2 SLOAD SWAP1 PUSH1 0x3 SHL SWAP1 CALLER DUP3 SHL SWAP2 PUSH1 0x1 DUP1 PUSH1 0xA0 SHL SUB SWAP1 SHL NOT AND OR SWAP1 SSTORE PUSH2 0xAA5 PUSH1 0x24 CALLDATALOAD PUSH1 0x3 DUP4 ADD PUSH2 0x2343 JUMP JUMPDEST PUSH2 0xAB5 PUSH1 0x24 CALLDATALOAD PUSH1 0x5 DUP4 ADD SLOAD PUSH2 0x2154 JUMP JUMPDEST PUSH1 0x5 DUP3 ADD SSTORE CALLER PUSH1 0x0 MSTORE PUSH1 0x7 PUSH1 0x20 MSTORE PUSH2 0xAD3 PUSH1 0x4 CALLDATALOAD PUSH1 0x40 PUSH1 0x0 KECCAK256 PUSH2 0x2343 JUMP JUMPDEST PUSH1 0x5 DUP2 ADD SLOAD PUSH1 0x4 DUP3 ADD SLOAD DUP2 LT PUSH2 0xCBC JUMPI POP PUSH1 0x1 PUSH1 0xFF NOT PUSH1 0xE DUP4 ADD SLOAD AND OR PUSH1 0xE DUP3 ADD SSTORE TIMESTAMP PUSH1 0xC DUP3 ADD SSTORE PUSH2 0xB09 PUSH1 0xA DUP3 ADD SLOAD TIMESTAMP PUSH2 0x2154 JUMP JUMPDEST PUSH1 0xD DUP3 ADD SSTORE PUSH1 0xFF PUSH1 0x6 DUP3 ADD SLOAD AND SWAP1 PUSH1 0x1 DUP1 PUSH1 0xA0 SHL SUB PUSH1 0x1 DUP3 ADD SLOAD AND PUSH1 0x4 DUP3 ADD SLOAD SWAP3 PUSH1 0x5 DUP2 LT ISZERO PUSH2 0x5BA JUMPI DUP1 PUSH2 0xC03 JUMPI POP PUSH1 0x0 DUP1 DUP1 SWAP4 SWAP5 DUP2 SWAP4 GAS CALL RETURNDATASIZE ISZERO PUSH2 0xBFE JUMPI RETURNDATASIZE PUSH8 0xFFFFFFFFFFFFFFFF DUP2 GT PUSH2 0x5E4 JUMPI PUSH1 0x40 MLOAD SWAP1 PUSH2 0xB71 PUSH1 0x1F DUP3 ADD PUSH1 0x1F NOT AND PUSH1 0x20 ADD DUP4 PUSH2 0x2126 JUMP JUMPDEST DUP2 MSTORE PUSH1 0x0 PUSH1 0x20 RETURNDATASIZE SWAP3 ADD RETURNDATACOPY JUMPDEST ISZERO PUSH2 0xBC3 JUMPI PUSH1 0x5 SWAP1 JUMPDEST ADD SLOAD PUSH1 0x40 MLOAD SWAP1 DUP2 MSTORE TIMESTAMP PUSH1 0x20 DUP3 ADD MSTORE PUSH32 0xB96BADA2A4E2E402AAA472B5E783A9D8BB13D996387DF6BEEA608680B31FF46F PUSH1 0x40 PUSH1 0x4 CALLDATALOAD SWAP3 LOG2 JUMPDEST PUSH1 0x1 PUSH1 0x0 SSTORE STOP JUMPDEST PUSH1 0x40 MLOAD PUSH3 0x461BCD PUSH1 0xE5 SHL DUP2 MSTORE PUSH1 0x20 PUSH1 0x4 DUP3 ADD MSTORE PUSH1 0x13 PUSH1 0x24 DUP3 ADD MSTORE PUSH19 0x115512081D1C985B9CD9995C8819985A5B1959 PUSH1 0x6A SHL PUSH1 0x44 DUP3 ADD MSTORE PUSH1 0x64 SWAP1 REVERT JUMPDEST PUSH2 0xB7C JUMP JUMPDEST PUSH2 0xC0C SWAP1 PUSH2 0x2009 JUMP JUMPDEST PUSH1 0x2 PUSH1 0x40 MLOAD SWAP2 PUSH2 0xC1B DUP4 PUSH2 0x20B5 JUMP JUMPDEST DUP1 SLOAD PUSH1 0x1 PUSH1 0x1 PUSH1 0xA0 SHL SUB DUP2 AND DUP5 MSTORE PUSH1 0xFF SWAP1 PUSH2 0xC3F PUSH1 0xA0 DUP3 SWAP1 SHR DUP4 AND PUSH1 0x20 DUP8 ADD PUSH2 0x2148 JUMP JUMPDEST DUP2 DUP2 PUSH1 0xA8 SHR AND PUSH1 0x40 DUP7 ADD MSTORE PUSH1 0xB0 SHR AND ISZERO ISZERO PUSH1 0x60 DUP5 ADD MSTORE PUSH1 0x1 DUP2 ADD SLOAD PUSH1 0x80 DUP5 ADD MSTORE ADD SLOAD PUSH1 0xA0 DUP3 ADD MSTORE PUSH1 0x1 DUP1 PUSH1 0xA0 SHL SUB SWAP1 MLOAD AND SWAP3 PUSH1 0x40 MLOAD SWAP2 PUSH4 0xA9059CBB PUSH1 0xE0 SHL PUSH1 0x20 DUP5 ADD MSTORE PUSH1 0x24 DUP4 ADD MSTORE PUSH1 0x44 DUP3 ADD MSTORE PUSH1 0x44 DUP2 MSTORE PUSH1 0x80 DUP2 ADD SWAP1 DUP1 DUP3 LT PUSH8 0xFFFFFFFFFFFFFFFF DUP4 GT OR PUSH2 0x5E4 JUMPI PUSH1 0x5 SWAP4 PUSH2 0xCB7 SWAP3 PUSH1 0x40 MSTORE PUSH2 0x23C1 JUMP JUMPDEST PUSH2 0xB85 JUMP JUMPDEST SWAP1 PUSH1 0xE PUSH1 0x2 PUSH1 0xFF NOT DUP3 DUP5 ADD SLOAD AND OR SWAP2 ADD SSTORE PUSH1 0x40 MLOAD SWAP1 PUSH1 0x24 CALLDATALOAD DUP3 MSTORE PUSH1 0x20 DUP3 ADD MSTORE CALLER SWAP1 PUSH32 0x73A9841EE04F39F41B73F9432C749617285427E60F2FBE3A1BF5A5EF2E6B16CB PUSH1 0x40 PUSH1 0x4 CALLDATALOAD SWAP3 LOG3 PUSH2 0xBBC JUMP JUMPDEST PUSH1 0x40 MLOAD PUSH3 0x461BCD PUSH1 0xE5 SHL DUP2 MSTORE PUSH1 0x20 PUSH1 0x4 DUP3 ADD MSTORE PUSH1 0x19 PUSH1 0x24 DUP3 ADD MSTORE PUSH32 0x496E636F72726563742045544820616D6F756E742073656E7400000000000000 PUSH1 0x44 DUP3 ADD MSTORE PUSH1 0x64 SWAP1 REVERT JUMPDEST PUSH2 0xD5B PUSH2 0xDCD SWAP2 PUSH2 0x2009 JUMP JUMPDEST PUSH1 0x2 PUSH1 0x40 MLOAD SWAP2 PUSH2 0xD6A DUP4 PUSH2 0x20B5 JUMP JUMPDEST DUP1 SLOAD PUSH1 0x1 PUSH1 0x1 PUSH1 0xA0 SHL SUB DUP2 AND DUP5 MSTORE PUSH1 0xFF SWAP1 PUSH2 0xD8E PUSH1 0xA0 DUP3 SWAP1 SHR DUP4 AND PUSH1 0x20 DUP8 ADD PUSH2 0x2148 JUMP JUMPDEST PUSH1 0xA8 DUP2 SWAP1 SHR DUP3 AND PUSH1 0x40 DUP7 ADD MSTORE PUSH1 0xB0 SHR AND ISZERO ISZERO PUSH1 0x60 DUP5 ADD MSTORE PUSH1 0x1 DUP2 ADD SLOAD PUSH1 0x80 DUP5 ADD MSTORE ADD SLOAD PUSH1 0xA0 DUP3 ADD MSTORE MLOAD PUSH1 0x24 CALLDATALOAD SWAP1 ADDRESS SWAP1 CALLER SWAP1 PUSH1 0x1 PUSH1 0x1 PUSH1 0xA0 SHL SUB AND PUSH2 0x2378 JUMP JUMPDEST PUSH2 0x9C1 JUMP JUMPDEST PUSH1 0x40 MLOAD PUSH3 0x461BCD PUSH1 0xE5 SHL DUP2 MSTORE PUSH1 0x20 PUSH1 0x4 DUP3 ADD MSTORE PUSH1 0x13 PUSH1 0x24 DUP3 ADD MSTORE PUSH19 0x115E18D959591CC81B1BD85B88185B5BDD5B9D PUSH1 0x6A SHL PUSH1 0x44 DUP3 ADD MSTORE PUSH1 0x64 SWAP1 REVERT JUMPDEST PUSH1 0x40 MLOAD PUSH3 0x461BCD PUSH1 0xE5 SHL DUP2 MSTORE PUSH1 0x20 PUSH1 0x4 DUP3 ADD MSTORE PUSH1 0x25 PUSH1 0x24 DUP3 ADD MSTORE PUSH32 0x46756E64696E6720616D6F756E74206D75737420626520677265617465722074 PUSH1 0x44 DUP3 ADD MSTORE PUSH5 0x68616E203 PUSH1 0xDC SHL PUSH1 0x64 DUP3 ADD MSTORE PUSH1 0x84 SWAP1 REVERT JUMPDEST PUSH1 0x40 MLOAD PUSH3 0x461BCD PUSH1 0xE5 SHL DUP2 MSTORE PUSH1 0x20 PUSH1 0x4 DUP3 ADD MSTORE PUSH1 0x19 PUSH1 0x24 DUP3 ADD MSTORE PUSH32 0x43616E6E6F742066756E6420796F7572206F776E206C6F616E00000000000000 PUSH1 0x44 DUP3 ADD MSTORE PUSH1 0x64 SWAP1 REVERT JUMPDEST PUSH1 0x40 MLOAD PUSH3 0x461BCD PUSH1 0xE5 SHL DUP2 MSTORE PUSH1 0x20 PUSH1 0x4 DUP3 ADD MSTORE PUSH1 0x12 PUSH1 0x24 DUP3 ADD MSTORE PUSH18 0x4C6F616E206E6F7420617661696C61626C65 PUSH1 0x70 SHL PUSH1 0x44 DUP3 ADD MSTORE PUSH1 0x64 SWAP1 REVERT JUMPDEST PUSH1 0x2 SWAP2 POP EQ DUP4 PUSH2 0x972 JUMP JUMPDEST PUSH1 0x40 MLOAD PUSH3 0x461BCD PUSH1 0xE5 SHL DUP2 MSTORE PUSH1 0x20 PUSH1 0x4 DUP3 ADD MSTORE PUSH1 0x13 PUSH1 0x24 DUP3 ADD MSTORE PUSH19 0x131BD85B88191BD95CC81B9BDD08195E1A5CDD PUSH1 0x6A SHL PUSH1 0x44 DUP3 ADD MSTORE PUSH1 0x64 SWAP1 REVERT JUMPDEST CALLVALUE PUSH2 0x171 JUMPI PUSH1 0x20 CALLDATASIZE PUSH1 0x3 NOT ADD SLT PUSH2 0x171 JUMPI PUSH2 0xF3E PUSH2 0x1FAF JUMP JUMPDEST PUSH2 0xF46 PUSH2 0x2089 JUMP JUMPDEST PUSH1 0x1 PUSH1 0x1 PUSH1 0xA0 SHL SUB SWAP1 DUP2 AND SWAP1 DUP2 ISZERO PUSH2 0xF95 JUMPI PUSH1 0x1 SLOAD DUP3 PUSH1 0x1 PUSH1 0x1 PUSH1 0x60 SHL SUB PUSH1 0xA0 SHL DUP3 AND OR PUSH1 0x1 SSTORE AND PUSH32 0x8BE0079C531659141344CD1FD0A4F28419497F9722A3DAAFE3B4186F6B6457E0 PUSH1 0x0 DUP1 LOG3 STOP JUMPDEST PUSH1 0x40 MLOAD PUSH4 0x1E4FBDF7 PUSH1 0xE0 SHL DUP2 MSTORE PUSH1 0x0 PUSH1 0x4 DUP3 ADD MSTORE PUSH1 0x24 SWAP1 REVERT JUMPDEST CALLVALUE PUSH2 0x171 JUMPI PUSH1 0x40 CALLDATASIZE PUSH1 0x3 NOT ADD SLT PUSH2 0x171 JUMPI PUSH2 0xFC7 PUSH2 0x1FAF JUMP JUMPDEST PUSH1 0x1 PUSH1 0x1 PUSH1 0xA0 SHL SUB AND PUSH1 0x0 SWAP1 DUP2 MSTORE PUSH1 0x6 PUSH1 0x20 MSTORE PUSH1 0x40 SWAP1 KECCAK256 DUP1 SLOAD PUSH1 0x24 CALLDATALOAD SWAP2 SWAP1 DUP3 LT ISZERO PUSH2 0x171 JUMPI PUSH1 0x20 SWAP2 PUSH2 0xFF8 SWAP2 PUSH2 0x1FDB JUMP JUMPDEST SWAP1 SLOAD PUSH1 0x40 MLOAD SWAP2 PUSH1 0x3 SHL SHR DUP2 MSTORE RETURN JUMPDEST CALLVALUE PUSH2 0x171 JUMPI PUSH1 0x20 CALLDATASIZE PUSH1 0x3 NOT ADD SLT PUSH2 0x171 JUMPI PUSH1 0x4 CALLDATALOAD PUSH1 0x0 MSTORE PUSH1 0x4 PUSH1 0x20 MSTORE PUSH1 0x40 PUSH1 0x0 KECCAK256 DUP1 SLOAD SWAP1 DUP1 PUSH1 0x1 PUSH1 0xA0 SHL PUSH1 0x1 SWAP1 SUB PUSH1 0x1 DUP3 ADD SLOAD AND PUSH1 0x4 DUP3 ADD SLOAD PUSH1 0x5 DUP4 ADD SLOAD PUSH1 0x6 DUP5 ADD SLOAD PUSH1 0x7 DUP6 ADD SLOAD PUSH1 0x8 DUP7 ADD SLOAD PUSH1 0x9 DUP8 ADD SLOAD PUSH1 0xFF AND SWAP1 PUSH1 0xA DUP9 ADD SLOAD SWAP3 PUSH1 0xB DUP10 ADD SLOAD SWAP5 PUSH1 0xC DUP11 ADD SLOAD SWAP7 PUSH1 0xD DUP12 ADD SLOAD SWAP9 PUSH1 0xE DUP13 ADD SLOAD SWAP11 PUSH1 0xF DUP14 ADD SLOAD SWAP13 PUSH1 0x10 ADD SLOAD PUSH1 0xFF AND SWAP14 PUSH1 0x11 ADD SLOAD SWAP15 PUSH1 0x40 MLOAD DUP1 PUSH1 0x80 MSTORE MSTORE PUSH1 0x80 MLOAD PUSH1 0x20 ADD MSTORE PUSH1 0x80 MLOAD PUSH1 0x40 ADD MSTORE PUSH1 0x80 MLOAD PUSH1 0x60 ADD MSTORE PUSH1 0x80 MLOAD PUSH1 0x80 ADD PUSH1 0xFF DUP3 AND SWAP1 PUSH2 0x10BE SWAP2 PUSH2 0x203B JUMP JUMPDEST PUSH1 0x80 MLOAD PUSH1 0xA0 ADD SWAP1 PUSH1 0x8 SHR PUSH1 0xFF AND SWAP1 PUSH2 0x10D5 SWAP2 PUSH2 0x203B JUMP JUMPDEST PUSH1 0x80 MLOAD PUSH1 0xC0 ADD MSTORE PUSH1 0x80 MLOAD PUSH1 0xE0 ADD MSTORE ISZERO ISZERO PUSH1 0x80 MLOAD PUSH2 0x100 ADD MSTORE PUSH1 0x80 MLOAD PUSH2 0x120 ADD MSTORE PUSH1 0x80 MLOAD PUSH2 0x140 ADD MSTORE PUSH1 0x80 MLOAD PUSH2 0x160 ADD MSTORE PUSH1 0x80 MLOAD PUSH2 0x180 ADD MSTORE PUSH1 0x80 MLOAD PUSH2 0x1A0 ADD PUSH1 0xFF DUP3 AND SWAP1 PUSH2 0x1122 SWAP2 PUSH2 0x207C JUMP JUMPDEST PUSH1 0x8 SHR PUSH1 0xFF AND ISZERO ISZERO PUSH1 0x80 MLOAD PUSH2 0x1C0 ADD MSTORE PUSH1 0x80 MLOAD PUSH2 0x1E0 ADD MSTORE ISZERO ISZERO PUSH1 0x80 MLOAD PUSH2 0x200 ADD MSTORE PUSH1 0x80 MLOAD PUSH2 0x220 ADD MSTORE PUSH1 0x80 MLOAD PUSH2 0x240 SWAP1 RETURN JUMPDEST CALLVALUE PUSH2 0x171 JUMPI PUSH1 0x20 CALLDATASIZE PUSH1 0x3 NOT ADD SLT PUSH2 0x171 JUMPI PUSH1 0x4 CALLDATALOAD PUSH1 0x5 DUP2 LT ISZERO PUSH2 0x171 JUMPI PUSH2 0x117D PUSH1 0xA0 SWAP2 PUSH2 0x2022 JUMP JUMPDEST DUP1 SLOAD SWAP1 PUSH1 0x1 DUP2 ADD SLOAD SWAP1 PUSH1 0x2 DUP2 ADD SLOAD PUSH1 0x4 PUSH1 0x3 DUP4 ADD SLOAD SWAP3 ADD SLOAD SWAP3 PUSH1 0x40 MLOAD SWAP5 DUP6 MSTORE PUSH1 0x20 DUP6 ADD MSTORE PUSH1 0x40 DUP5 ADD MSTORE PUSH1 0x60 DUP4 ADD MSTORE PUSH1 0x80 DUP3 ADD MSTORE RETURN JUMPDEST CALLVALUE PUSH2 0x171 JUMPI PUSH1 0x20 CALLDATASIZE PUSH1 0x3 NOT ADD SLT PUSH2 0x171 JUMPI PUSH1 0x4 CALLDATALOAD PUSH1 0x5 DUP2 LT ISZERO PUSH2 0x171 JUMPI PUSH2 0x11DA PUSH1 0x20 SWAP2 PUSH2 0x2022 JUMP JUMPDEST PUSH2 0x1229 PUSH2 0xE10 PUSH2 0x1222 PUSH1 0x40 MLOAD SWAP4 PUSH2 0x11F0 DUP6 PUSH2 0x20EE JUMP JUMPDEST DUP1 SLOAD DUP6 MSTORE PUSH1 0x4 PUSH1 0x1 DUP3 ADD SLOAD SWAP2 DUP3 DUP9 DUP9 ADD MSTORE PUSH1 0x2 DUP2 ADD SLOAD PUSH1 0x40 DUP9 ADD MSTORE PUSH1 0x3 DUP2 ADD SLOAD PUSH1 0x60 DUP9 ADD MSTORE ADD SLOAD PUSH1 0x80 DUP7 ADD MSTORE TIMESTAMP PUSH2 0x2181 JUMP JUMPDEST GT ISZERO PUSH2 0x219D JUMP JUMPDEST MLOAD PUSH1 0x40 MLOAD SWAP1 DUP2 MSTORE RETURN JUMPDEST CALLVALUE PUSH2 0x171 JUMPI PUSH1 0x20 CALLDATASIZE PUSH1 0x3 NOT ADD SLT PUSH2 0x171 JUMPI PUSH1 0x4 CALLDATALOAD PUSH1 0x5 DUP2 LT ISZERO PUSH2 0x171 JUMPI PUSH2 0x1287 PUSH1 0xC0 SWAP2 PUSH1 0x0 PUSH1 0xA0 PUSH1 0x40 MLOAD PUSH2 0x1265 DUP2 PUSH2 0x20B5 JUMP JUMPDEST DUP3 DUP2 MSTORE DUP3 PUSH1 0x20 DUP3 ADD MSTORE DUP3 PUSH1 0x40 DUP3 ADD MSTORE DUP3 PUSH1 0x60 DUP3 ADD MSTORE DUP3 PUSH1 0x80 DUP3 ADD MSTORE ADD MSTORE PUSH2 0x2009 JUMP JUMPDEST PUSH1 0x40 MLOAD SWAP1 PUSH2 0x1294 DUP3 PUSH2 0x20B5 JUMP JUMPDEST DUP1 SLOAD PUSH1 0x1 PUSH1 0x1 PUSH1 0xA0 SHL SUB DUP1 DUP3 AND DUP5 MSTORE SWAP2 SWAP1 PUSH1 0xFF PUSH1 0x20 DUP6 ADD PUSH2 0x12BB PUSH1 0xA0 DUP5 SWAP1 SHR DUP4 AND DUP3 PUSH2 0x2148 JUMP JUMPDEST PUSH2 0x1305 PUSH1 0x40 DUP8 ADD SWAP2 DUP4 DUP6 PUSH1 0xA8 SHR AND DUP4 MSTORE DUP4 PUSH1 0x60 DUP10 ADD SWAP6 PUSH1 0xB0 SHR AND ISZERO ISZERO DUP6 MSTORE PUSH1 0x2 PUSH1 0x1 DUP8 ADD SLOAD SWAP7 PUSH1 0x80 DUP11 ADD SWAP8 DUP9 MSTORE ADD SLOAD SWAP7 PUSH1 0xA0 DUP10 ADD SWAP8 DUP9 MSTORE PUSH1 0x40 MLOAD SWAP9 MLOAD AND DUP9 MSTORE MLOAD PUSH1 0x20 DUP9 ADD SWAP1 PUSH2 0x203B JUMP JUMPDEST MLOAD AND PUSH1 0x40 DUP6 ADD MSTORE MLOAD ISZERO ISZERO PUSH1 0x60 DUP5 ADD MSTORE MLOAD PUSH1 0x80 DUP4 ADD MSTORE MLOAD PUSH1 0xA0 DUP3 ADD MSTORE RETURN JUMPDEST CALLVALUE PUSH2 0x171 JUMPI PUSH1 0x20 CALLDATASIZE PUSH1 0x3 NOT ADD SLT PUSH2 0x171 JUMPI PUSH1 0x4 CALLDATALOAD PUSH1 0x5 DUP2 LT ISZERO PUSH2 0x171 JUMPI PUSH2 0x134A PUSH1 0xC0 SWAP2 PUSH2 0x2022 JUMP JUMPDEST PUSH1 0x40 MLOAD PUSH2 0x1356 DUP2 PUSH2 0x20EE JUMP JUMPDEST PUSH1 0x80 DUP3 SLOAD SWAP3 DUP4 DUP4 MSTORE PUSH1 0x1 DUP2 ADD SLOAD SWAP3 DUP4 PUSH1 0x20 DUP3 ADD MSTORE PUSH1 0x2 DUP3 ADD SLOAD SWAP1 DUP2 PUSH1 0x40 DUP3 ADD MSTORE PUSH1 0x4 PUSH1 0x3 DUP5 ADD SLOAD SWAP4 DUP5 PUSH1 0x60 DUP5 ADD MSTORE ADD SLOAD SWAP4 DUP5 SWAP2 ADD MSTORE PUSH2 0xE10 PUSH2 0x1398 DUP6 TIMESTAMP PUSH2 0x2181 JUMP JUMPDEST GT SWAP4 PUSH1 0x40 MLOAD SWAP6 DUP7 MSTORE PUSH1 0x20 DUP7 ADD MSTORE PUSH1 0x40 DUP6 ADD MSTORE PUSH1 0x60 DUP5 ADD MSTORE PUSH1 0x80 DUP4 ADD MSTORE PUSH1 0xA0 DUP3 ADD MSTORE RETURN JUMPDEST CALLVALUE PUSH2 0x171 JUMPI PUSH1 0x40 CALLDATASIZE PUSH1 0x3 NOT ADD SLT PUSH2 0x171 JUMPI PUSH1 0xA0 PUSH2 0x13D6 PUSH2 0x1FC5 JUMP JUMPDEST PUSH1 0x4 CALLDATALOAD PUSH1 0x0 MSTORE PUSH1 0x5 PUSH1 0x20 MSTORE PUSH1 0x40 PUSH1 0x0 KECCAK256 PUSH1 0x1 DUP1 DUP5 SHL SUB DUP1 SWAP3 AND PUSH1 0x0 MSTORE PUSH1 0x20 MSTORE PUSH1 0x40 PUSH1 0x0 KECCAK256 SWAP1 DUP2 SLOAD AND SWAP1 PUSH1 0x1 DUP2 ADD SLOAD SWAP1 PUSH1 0x2 DUP2 ADD SLOAD PUSH1 0x4 PUSH1 0xFF PUSH1 0x3 DUP5 ADD SLOAD AND SWAP3 ADD SLOAD SWAP3 PUSH1 0x40 MLOAD SWAP5 DUP6 MSTORE PUSH1 0x20 DUP6 ADD MSTORE PUSH1 0x40 DUP5 ADD MSTORE ISZERO ISZERO PUSH1 0x60 DUP4 ADD MSTORE PUSH1 0x80 DUP3 ADD MSTORE RETURN JUMPDEST CALLVALUE PUSH2 0x171 JUMPI PUSH1 0x0 CALLDATASIZE PUSH1 0x3 NOT ADD SLT PUSH2 0x171 JUMPI PUSH1 0x2 DUP1 SLOAD PUSH1 0x0 NOT DUP2 ADD DUP2 DUP2 GT PUSH2 0x638 JUMPI PUSH2 0x1460 SWAP1 PUSH2 0x22DD JUMP JUMPDEST SWAP2 PUSH1 0x0 SWAP2 PUSH1 0x1 JUMPDEST DUP2 DUP2 LT PUSH2 0x14C3 JUMPI POP POP POP PUSH2 0x147A DUP2 PUSH2 0x22DD JUMP JUMPDEST SWAP2 PUSH1 0x0 JUMPDEST DUP3 DUP2 LT PUSH2 0x149F JUMPI PUSH1 0x40 MLOAD PUSH1 0x20 DUP1 DUP3 MSTORE DUP2 SWAP1 PUSH2 0x149B SWAP1 DUP3 ADD DUP8 PUSH2 0x2048 JUMP JUMPDEST SUB SWAP1 RETURN JUMPDEST DUP1 PUSH2 0x14AD PUSH2 0x14BE SWAP3 DUP5 PUSH2 0x244C JUMP JUMPDEST MLOAD PUSH2 0x14B8 DUP3 DUP8 PUSH2 0x244C JUMP JUMPDEST MSTORE PUSH2 0x218E JUMP JUMPDEST PUSH2 0x147E JUMP JUMPDEST DUP1 PUSH1 0x0 MSTORE PUSH1 0x20 PUSH1 0x4 DUP2 MSTORE PUSH1 0xFF PUSH1 0xE SWAP1 DUP1 DUP3 PUSH1 0x40 PUSH1 0x0 KECCAK256 ADD SLOAD AND SWAP2 PUSH1 0x6 SWAP3 DUP4 DUP2 LT ISZERO PUSH2 0x5BA JUMPI ISZERO SWAP4 DUP5 ISZERO PUSH2 0x1523 JUMPI JUMPDEST POP POP POP POP PUSH2 0x1508 JUMPI JUMPDEST PUSH2 0x1503 SWAP1 PUSH2 0x218E JUMP JUMPDEST PUSH2 0x1467 JUMP JUMPDEST SWAP3 PUSH2 0x151B DUP2 DUP6 PUSH2 0x14B8 PUSH2 0x1503 SWAP5 DUP10 PUSH2 0x244C JUMP JUMPDEST SWAP4 SWAP1 POP PUSH2 0x14FA JUMP JUMPDEST PUSH1 0x0 DUP7 DUP2 MSTORE PUSH1 0x4 SWAP1 SWAP2 MSTORE PUSH1 0x40 SWAP1 KECCAK256 ADD SLOAD AND SWAP2 POP DUP2 LT ISZERO PUSH2 0x5BA JUMPI DUP4 EQ DUP7 DUP1 DUP1 DUP1 PUSH2 0x14F1 JUMP JUMPDEST CALLVALUE PUSH2 0x171 JUMPI PUSH1 0x0 CALLDATASIZE PUSH1 0x3 NOT ADD SLT PUSH2 0x171 JUMPI PUSH1 0x1 SLOAD PUSH1 0x40 MLOAD PUSH1 0x1 PUSH1 0x1 PUSH1 0xA0 SHL SUB SWAP1 SWAP2 AND DUP2 MSTORE PUSH1 0x20 SWAP1 RETURN JUMPDEST CALLVALUE PUSH2 0x171 JUMPI PUSH1 0x0 CALLDATASIZE PUSH1 0x3 NOT ADD SLT PUSH2 0x171 JUMPI PUSH1 0x20 PUSH1 0x40 MLOAD PUSH2 0xE10 DUP2 MSTORE RETURN JUMPDEST CALLVALUE PUSH2 0x171 JUMPI PUSH1 0x0 CALLDATASIZE PUSH1 0x3 NOT ADD SLT PUSH2 0x171 JUMPI PUSH1 0x20 PUSH1 0x2 SLOAD PUSH1 0x40 MLOAD SWAP1 DUP2 MSTORE RETURN JUMPDEST CALLVALUE PUSH2 0x171 JUMPI PUSH1 0x40 CALLDATASIZE PUSH1 0x3 NOT ADD SLT PUSH2 0x171 JUMPI PUSH2 0x15C5 PUSH2 0x1FAF JUMP JUMPDEST PUSH1 0x24 CALLDATALOAD SWAP1 DUP2 ISZERO ISZERO SWAP1 DUP2 DUP4 SUB PUSH2 0x171 JUMPI PUSH32 0x32FDE6397CD391B6F81B58789E435D67003507393605E8AB5C6EC76AAF7916A1 SWAP2 PUSH2 0x162B PUSH1 0x20 SWAP3 PUSH2 0x1604 PUSH2 0x2089 JUMP JUMPDEST PUSH1 0x1 DUP1 PUSH1 0xA0 SHL SUB AND SWAP5 DUP6 PUSH1 0x0 MSTORE PUSH1 0x9 DUP5 MSTORE PUSH1 0x40 PUSH1 0x0 KECCAK256 SWAP1 PUSH1 0xFF DUP1 NOT DUP4 SLOAD AND SWAP2 ISZERO ISZERO AND OR SWAP1 SSTORE JUMP JUMPDEST PUSH1 0x40 MLOAD SWAP1 DUP2 MSTORE LOG2 STOP JUMPDEST CALLVALUE PUSH2 0x171 JUMPI PUSH1 0x0 CALLDATASIZE PUSH1 0x3 NOT ADD SLT PUSH2 0x171 JUMPI PUSH1 0x20 PUSH1 0x40 MLOAD PUSH1 0x78 DUP2 MSTORE RETURN JUMPDEST CALLVALUE PUSH2 0x171 JUMPI PUSH1 0x0 CALLDATASIZE PUSH1 0x3 NOT ADD SLT PUSH2 0x171 JUMPI PUSH2 0x1669 PUSH2 0x2089 JUMP JUMPDEST PUSH1 0x1 DUP1 SLOAD PUSH1 0x1 PUSH1 0x1 PUSH1 0xA0 SHL SUB NOT DUP2 AND SWAP1 SWAP2 SSTORE PUSH1 0x0 SWAP1 PUSH1 0x1 PUSH1 0x1 PUSH1 0xA0 SHL SUB AND PUSH32 0x8BE0079C531659141344CD1FD0A4F28419497F9722A3DAAFE3B4186F6B6457E0 DUP3 DUP1 LOG3 STOP JUMPDEST CALLVALUE PUSH2 0x171 JUMPI PUSH1 0x20 CALLDATASIZE PUSH1 0x3 NOT ADD SLT PUSH2 0x171 JUMPI PUSH1 0x0 PUSH2 0x260 PUSH1 0x40 MLOAD PUSH2 0x16CF DUP2 PUSH2 0x20D1 JUMP JUMPDEST DUP3 DUP2 MSTORE DUP3 PUSH1 0x20 DUP3 ADD MSTORE PUSH1 0x60 PUSH1 0x40 DUP3 ADD MSTORE PUSH1 0x60 DUP1 DUP3 ADD MSTORE DUP3 PUSH1 0x80 DUP3 ADD MSTORE DUP3 PUSH1 0xA0 DUP3 ADD MSTORE DUP3 PUSH1 0xC0 DUP3 ADD MSTORE DUP3 PUSH1 0xE0 DUP3 ADD MSTORE DUP3 PUSH2 0x100 DUP3 ADD MSTORE DUP3 PUSH2 0x120 DUP3 ADD MSTORE DUP3 PUSH2 0x140 DUP3 ADD MSTORE DUP3 PUSH2 0x160 DUP3 ADD MSTORE DUP3 PUSH2 0x180 DUP3 ADD MSTORE DUP3 PUSH2 0x1A0 DUP3 ADD MSTORE DUP3 PUSH2 0x1C0 DUP3 ADD MSTORE DUP3 PUSH2 0x1E0 DUP3 ADD MSTORE DUP3 PUSH2 0x200 DUP3 ADD MSTORE DUP3 PUSH2 0x220 DUP3 ADD MSTORE DUP3 PUSH2 0x240 DUP3 ADD MSTORE ADD MSTORE PUSH1 0x4 CALLDATALOAD PUSH1 0x0 MSTORE PUSH1 0x4 PUSH1 0x20 MSTORE PUSH1 0x40 PUSH1 0x0 KECCAK256 PUSH1 0x40 MLOAD SWAP1 PUSH2 0x1769 DUP3 PUSH2 0x20D1 JUMP JUMPDEST DUP1 SLOAD DUP3 MSTORE PUSH1 0x1 DUP1 PUSH1 0xA0 SHL SUB PUSH1 0x1 DUP3 ADD SLOAD AND PUSH1 0x20 DUP4 ADD MSTORE PUSH1 0x40 MLOAD DUP1 DUP2 PUSH1 0x2 DUP5 ADD PUSH1 0x20 DUP2 SLOAD SWAP4 DUP5 DUP2 MSTORE ADD SWAP1 PUSH1 0x0 MSTORE PUSH1 0x20 PUSH1 0x0 KECCAK256 SWAP3 PUSH1 0x0 JUMPDEST DUP2 DUP2 LT PUSH2 0x1A49 JUMPI POP POP PUSH2 0x17B3 SWAP3 POP SUB DUP3 PUSH2 0x2126 JUMP JUMPDEST PUSH1 0x40 DUP4 ADD MSTORE PUSH1 0x40 MLOAD DUP1 DUP2 PUSH1 0x20 PUSH1 0x3 DUP6 ADD SLOAD SWAP3 DUP4 DUP2 MSTORE ADD PUSH1 0x3 DUP6 ADD PUSH1 0x0 MSTORE PUSH1 0x20 PUSH1 0x0 KECCAK256 SWAP3 PUSH1 0x0 JUMPDEST DUP2 DUP2 LT PUSH2 0x1A30 JUMPI POP POP PUSH2 0x17EE SWAP3 POP SUB DUP3 PUSH2 0x2126 JUMP JUMPDEST PUSH1 0x60 DUP4 ADD MSTORE PUSH1 0x4 DUP2 ADD SLOAD PUSH1 0x80 DUP4 ADD MSTORE PUSH1 0x5 DUP2 ADD SLOAD PUSH1 0xA0 DUP4 ADD MSTORE PUSH2 0x182D PUSH1 0xFF PUSH1 0x6 DUP4 ADD SLOAD PUSH2 0x1820 DUP3 DUP3 AND PUSH1 0xC0 DUP8 ADD PUSH2 0x2148 JUMP JUMPDEST PUSH1 0x8 SHR AND PUSH1 0xE0 DUP5 ADD PUSH2 0x2148 JUMP JUMPDEST PUSH1 0x7 DUP2 ADD SLOAD PUSH2 0x100 DUP4 ADD MSTORE PUSH1 0x8 DUP2 ADD SLOAD PUSH2 0x120 DUP4 ADD MSTORE PUSH1 0xFF PUSH1 0x9 DUP3 ADD SLOAD AND ISZERO ISZERO PUSH2 0x140 DUP4 ADD MSTORE PUSH1 0xA DUP2 ADD SLOAD PUSH2 0x160 DUP4 ADD MSTORE PUSH1 0xB DUP2 ADD SLOAD PUSH2 0x180 DUP4 ADD MSTORE PUSH1 0xC DUP2 ADD SLOAD PUSH2 0x1A0 DUP4 ADD MSTORE PUSH1 0xD DUP2 ADD SLOAD PUSH2 0x1C0 DUP4 ADD MSTORE PUSH1 0xE DUP2 ADD SLOAD SWAP1 PUSH1 0x6 PUSH1 0xFF DUP4 AND LT ISZERO PUSH2 0x5BA JUMPI PUSH1 0xFF DUP3 DUP2 PUSH1 0x11 SWAP5 AND PUSH2 0x1E0 DUP7 ADD MSTORE PUSH1 0x8 SHR AND ISZERO ISZERO PUSH2 0x200 DUP5 ADD MSTORE PUSH1 0xF DUP2 ADD SLOAD PUSH2 0x220 DUP5 ADD MSTORE PUSH1 0xFF PUSH1 0x10 DUP3 ADD SLOAD AND ISZERO ISZERO PUSH2 0x240 DUP5 ADD MSTORE ADD SLOAD PUSH2 0x260 DUP3 ADD MSTORE PUSH1 0x40 MLOAD PUSH1 0x20 DUP2 MSTORE DUP2 MLOAD PUSH1 0x20 DUP3 ADD MSTORE PUSH1 0x1 DUP1 PUSH1 0xA0 SHL SUB PUSH1 0x20 DUP4 ADD MLOAD AND PUSH1 0x40 DUP3 ADD MSTORE PUSH1 0x40 DUP3 ADD MLOAD SWAP2 PUSH2 0x280 PUSH1 0x60 DUP4 ADD MSTORE PUSH2 0x2A0 DUP3 ADD DUP4 MLOAD DUP1 SWAP2 MSTORE PUSH1 0x20 PUSH2 0x2C0 DUP5 ADD SWAP5 ADD SWAP1 PUSH1 0x0 JUMPDEST DUP2 DUP2 LT PUSH2 0x1A11 JUMPI POP POP POP PUSH2 0x260 PUSH2 0x193B DUP4 SWAP5 PUSH1 0x60 DUP5 ADD MLOAD PUSH1 0x1F NOT DUP7 DUP4 SUB ADD PUSH1 0x80 DUP8 ADD MSTORE PUSH2 0x2048 JUMP JUMPDEST SWAP2 PUSH1 0x80 DUP2 ADD MLOAD PUSH1 0xA0 DUP6 ADD MSTORE PUSH1 0xA0 DUP2 ADD MLOAD PUSH1 0xC0 DUP6 ADD MSTORE PUSH2 0x1962 PUSH1 0xC0 DUP3 ADD MLOAD PUSH1 0xE0 DUP7 ADD SWAP1 PUSH2 0x203B JUMP JUMPDEST PUSH2 0x1975 PUSH1 0xE0 DUP3 ADD MLOAD PUSH2 0x100 DUP7 ADD SWAP1 PUSH2 0x203B JUMP JUMPDEST PUSH2 0x100 DUP2 ADD MLOAD PUSH2 0x120 DUP6 ADD MSTORE PUSH2 0x120 DUP2 ADD MLOAD PUSH2 0x140 DUP6 ADD MSTORE PUSH2 0x140 DUP2 ADD MLOAD ISZERO ISZERO PUSH2 0x160 DUP6 ADD MSTORE PUSH2 0x160 DUP2 ADD MLOAD PUSH2 0x180 DUP6 ADD MSTORE PUSH2 0x180 DUP2 ADD MLOAD PUSH2 0x1A0 DUP6 ADD MSTORE PUSH2 0x1A0 DUP2 ADD MLOAD PUSH2 0x1C0 DUP6 ADD MSTORE PUSH2 0x1C0 DUP2 ADD MLOAD PUSH2 0x1E0 DUP6 ADD MSTORE PUSH2 0x19DF PUSH2 0x1E0 DUP3 ADD MLOAD PUSH2 0x200 DUP7 ADD SWAP1 PUSH2 0x207C JUMP JUMPDEST PUSH2 0x200 DUP2 ADD MLOAD ISZERO ISZERO PUSH2 0x220 DUP6 ADD MSTORE PUSH2 0x220 DUP2 ADD MLOAD PUSH2 0x240 DUP6 ADD MSTORE PUSH2 0x240 DUP2 ADD MLOAD ISZERO ISZERO DUP3 DUP6 ADD MSTORE ADD MLOAD PUSH2 0x280 DUP4 ADD MSTORE SUB SWAP1 RETURN JUMPDEST DUP3 MLOAD PUSH1 0x1 PUSH1 0x1 PUSH1 0xA0 SHL SUB AND DUP7 MSTORE PUSH1 0x20 SWAP6 DUP7 ADD SWAP6 SWAP1 SWAP3 ADD SWAP2 PUSH1 0x1 ADD PUSH2 0x1913 JUMP JUMPDEST DUP5 SLOAD DUP4 MSTORE PUSH1 0x1 SWAP5 DUP6 ADD SWAP5 DUP7 SWAP5 POP PUSH1 0x20 SWAP1 SWAP4 ADD SWAP3 ADD PUSH2 0x17D9 JUMP JUMPDEST DUP5 SLOAD PUSH1 0x1 PUSH1 0x1 PUSH1 0xA0 SHL SUB AND DUP4 MSTORE PUSH1 0x1 SWAP5 DUP6 ADD SWAP5 DUP7 SWAP5 POP PUSH1 0x20 SWAP1 SWAP4 ADD SWAP3 ADD PUSH2 0x179E JUMP JUMPDEST CALLVALUE PUSH2 0x171 JUMPI PUSH1 0x60 CALLDATASIZE PUSH1 0x3 NOT ADD SLT PUSH2 0x171 JUMPI PUSH1 0x4 CALLDATALOAD PUSH1 0x5 DUP2 LT ISZERO PUSH2 0x171 JUMPI PUSH1 0x24 SWAP1 DUP2 CALLDATALOAD SWAP2 PUSH1 0x44 CALLDATALOAD CALLER PUSH1 0x0 MSTORE PUSH1 0x20 SWAP2 PUSH1 0x9 DUP4 MSTORE PUSH1 0xFF PUSH1 0x40 PUSH1 0x0 KECCAK256 SLOAD AND ISZERO PUSH2 0x1D1A JUMPI DUP5 ISZERO ISZERO DUP1 PUSH2 0x1D11 JUMPI JUMPDEST ISZERO PUSH2 0x1CDD JUMPI PUSH2 0x1AC1 DUP5 PUSH2 0x2022 JUMP JUMPDEST SWAP1 PUSH2 0x1ACC DUP4 DUP8 PUSH2 0x2154 JUMP JUMPDEST PUSH1 0x1 SHR SWAP3 DUP1 DUP8 GT ISZERO PUSH2 0x1CAD JUMPI PUSH2 0x1AE2 DUP2 DUP9 PUSH2 0x2181 JUMP JUMPDEST PUSH2 0x2710 SWAP1 DUP2 DUP2 MUL SWAP2 DUP2 DUP4 DIV EQ SWAP1 ISZERO OR ISZERO PUSH2 0x1C98 JUMPI PUSH2 0x1B03 DUP3 PUSH2 0x3E8 SWAP3 PUSH2 0x2161 JUMP JUMPDEST GT PUSH2 0x1C54 JUMPI PUSH1 0x4 DUP4 ADD SWAP3 DUP4 SLOAD SWAP3 DUP4 PUSH2 0x1B62 JUMPI JUMPDEST POP SWAP1 PUSH1 0x3 DUP3 PUSH32 0xF798C75B2DB09EA1034D9BE253E9974B17BBE4A06F2B0FF6695054FA5B747191 SWAP9 SWAP10 DUP8 PUSH2 0x1B57 SWAP7 SWAP6 SSTORE TIMESTAMP PUSH1 0x1 DUP4 ADD SSTORE PUSH1 0x2 DUP3 ADD SSTORE ADD SSTORE PUSH2 0x218E JUMP JUMPDEST SWAP1 SSTORE PUSH1 0x40 MLOAD SWAP1 DUP2 MSTORE LOG2 STOP JUMPDEST SWAP8 DUP2 SLOAD DUP7 DUP2 DUP2 GT PUSH1 0x0 EQ PUSH2 0x1C10 JUMPI DUP2 PUSH2 0x1B7A SWAP2 PUSH2 0x2181 JUMP JUMPDEST PUSH2 0x2710 SWAP1 DUP2 DUP2 MUL SWAP2 DUP2 DUP4 DIV EQ SWAP1 ISZERO OR ISZERO PUSH2 0x1BFB JUMPI PUSH2 0xBB8 SWAP2 PUSH2 0x1B9B SWAP2 PUSH2 0x2161 JUMP JUMPDEST GT PUSH2 0x1BA6 JUMPI SWAP8 PUSH2 0x1B16 JUMP JUMPDEST PUSH1 0x40 MLOAD PUSH3 0x461BCD PUSH1 0xE5 SHL DUP2 MSTORE PUSH1 0x4 DUP2 ADD DUP9 SWAP1 MSTORE PUSH1 0x28 DUP2 DUP12 ADD MSTORE PUSH32 0x4E657720707269636520646576696174657320746F6F206D7563682066726F6D PUSH1 0x44 DUP3 ADD MSTORE PUSH8 0x818DD5C9C995B9D PUSH1 0xC2 SHL PUSH1 0x64 DUP3 ADD MSTORE PUSH1 0x84 SWAP1 REVERT JUMPDEST DUP11 PUSH4 0x4E487B71 PUSH1 0xE0 SHL PUSH1 0x0 MSTORE PUSH1 0x11 PUSH1 0x4 MSTORE PUSH1 0x0 REVERT JUMPDEST PUSH2 0x1C19 SWAP2 PUSH2 0x2181 JUMP JUMPDEST PUSH2 0x2710 SWAP1 DUP2 DUP2 MUL SWAP2 DUP2 DUP4 DIV EQ SWAP1 ISZERO OR ISZERO PUSH2 0x1C3F JUMPI PUSH2 0x1C3A DUP8 PUSH2 0xBB8 SWAP3 PUSH2 0x2161 JUMP JUMPDEST PUSH2 0x1B9B JUMP JUMPDEST DUP10 PUSH4 0x4E487B71 PUSH1 0xE0 SHL PUSH1 0x0 MSTORE PUSH1 0x11 PUSH1 0x4 MSTORE PUSH1 0x0 REVERT JUMPDEST PUSH1 0x40 MLOAD PUSH3 0x461BCD PUSH1 0xE5 SHL DUP2 MSTORE PUSH1 0x4 DUP2 ADD DUP7 SWAP1 MSTORE PUSH1 0x1E DUP2 DUP5 ADD MSTORE PUSH32 0x507269636520736F7572636573206465766961746520746F6F206D7563680000 PUSH1 0x44 DUP3 ADD MSTORE PUSH1 0x64 SWAP1 REVERT JUMPDEST DUP3 PUSH4 0x4E487B71 PUSH1 0xE0 SHL PUSH1 0x0 MSTORE PUSH1 0x11 PUSH1 0x4 MSTORE PUSH1 0x0 REVERT JUMPDEST PUSH2 0x1CB7 DUP8 DUP3 PUSH2 0x2181 JUMP JUMPDEST PUSH2 0x2710 SWAP1 DUP2 DUP2 MUL SWAP2 DUP2 DUP4 DIV EQ SWAP1 ISZERO OR ISZERO PUSH2 0x1C98 JUMPI PUSH2 0x1CD8 DUP9 PUSH2 0x3E8 SWAP3 PUSH2 0x2161 JUMP JUMPDEST PUSH2 0x1B03 JUMP JUMPDEST DUP3 PUSH1 0xE PUSH1 0x64 SWAP3 PUSH1 0x40 MLOAD SWAP3 PUSH3 0x461BCD PUSH1 0xE5 SHL DUP5 MSTORE PUSH1 0x4 DUP5 ADD MSTORE DUP3 ADD MSTORE PUSH14 0x496E76616C696420707269636573 PUSH1 0x90 SHL PUSH1 0x44 DUP3 ADD MSTORE REVERT JUMPDEST POP DUP2 ISZERO ISZERO PUSH2 0x1AB3 JUMP JUMPDEST DUP3 PUSH1 0x1B PUSH1 0x64 SWAP3 PUSH1 0x40 MLOAD SWAP3 PUSH3 0x461BCD PUSH1 0xE5 SHL DUP5 MSTORE PUSH1 0x4 DUP5 ADD MSTORE DUP3 ADD MSTORE PUSH32 0x4E6F7420617574686F72697A6564207072696365206F7261636C650000000000 PUSH1 0x44 DUP3 ADD MSTORE REVERT JUMPDEST CALLVALUE PUSH2 0x171 JUMPI PUSH1 0x20 CALLDATASIZE PUSH1 0x3 NOT ADD SLT PUSH2 0x171 JUMPI PUSH1 0x4 CALLDATALOAD PUSH1 0x5 DUP2 LT ISZERO PUSH2 0x171 JUMPI PUSH2 0x1D85 PUSH1 0xC0 SWAP2 PUSH2 0x2009 JUMP JUMPDEST DUP1 SLOAD PUSH1 0x1 DUP3 ADD SLOAD PUSH1 0x2 SWAP1 SWAP3 ADD SLOAD PUSH1 0x40 MLOAD PUSH1 0x1 PUSH1 0x1 PUSH1 0xA0 SHL SUB DUP4 AND DUP2 MSTORE SWAP3 SWAP1 SWAP2 PUSH1 0xFF SWAP1 PUSH2 0x1DBA PUSH1 0x20 DUP7 ADD PUSH1 0xA0 DUP4 SWAP1 SHR DUP5 AND PUSH2 0x203B JUMP JUMPDEST DUP2 DUP2 PUSH1 0xA8 SHR AND PUSH1 0x40 DUP7 ADD MSTORE PUSH1 0xB0 SHR AND ISZERO ISZERO PUSH1 0x60 DUP5 ADD MSTORE PUSH1 0x80 DUP4 ADD MSTORE PUSH1 0xA0 DUP3 ADD MSTORE RETURN JUMPDEST CALLVALUE PUSH2 0x171 JUMPI PUSH1 0x40 CALLDATASIZE PUSH1 0x3 NOT ADD SLT PUSH2 0x171 JUMPI PUSH2 0x1DF5 PUSH2 0x1FAF JUMP JUMPDEST PUSH1 0x1 PUSH1 0x1 PUSH1 0xA0 SHL SUB AND PUSH1 0x0 SWAP1 DUP2 MSTORE PUSH1 0x7 PUSH1 0x20 MSTORE PUSH1 0x40 SWAP1 KECCAK256 DUP1 SLOAD PUSH1 0x24 CALLDATALOAD SWAP2 SWAP1 DUP3 LT ISZERO PUSH2 0x171 JUMPI PUSH1 0x20 SWAP2 PUSH2 0xFF8 SWAP2 PUSH2 0x1FDB JUMP JUMPDEST CALLVALUE PUSH2 0x171 JUMPI PUSH1 0x0 CALLDATASIZE PUSH1 0x3 NOT ADD SLT PUSH2 0x171 JUMPI PUSH1 0x20 PUSH1 0x40 MLOAD PUSH2 0xBB8 DUP2 MSTORE RETURN JUMPDEST CALLVALUE PUSH2 0x171 JUMPI PUSH1 0xA0 CALLDATASIZE PUSH1 0x3 NOT ADD SLT PUSH2 0x171 JUMPI PUSH1 0x4 CALLDATALOAD PUSH1 0x5 DUP2 LT ISZERO PUSH2 0x171 JUMPI PUSH2 0x1E68 PUSH2 0x1FC5 JUMP JUMPDEST SWAP1 PUSH1 0x44 CALLDATALOAD PUSH1 0xFF DUP2 AND DUP1 SWAP2 SUB PUSH2 0x171 JUMPI PUSH2 0x1E7F PUSH2 0x2089 JUMP JUMPDEST PUSH1 0x40 MLOAD SWAP1 PUSH2 0x1E8C DUP3 PUSH2 0x20B5 JUMP JUMPDEST PUSH1 0x1 PUSH1 0x1 PUSH1 0xA0 SHL SUB SWAP4 DUP5 AND DUP1 DUP4 MSTORE SWAP4 PUSH1 0x20 DUP4 ADD PUSH2 0x1EA9 DUP6 DUP3 PUSH2 0x2148 JUMP JUMPDEST PUSH1 0x40 DUP5 ADD SWAP3 DUP4 MSTORE PUSH1 0x60 DUP5 ADD SWAP1 PUSH1 0x1 DUP3 MSTORE PUSH1 0x80 DUP6 ADD SWAP2 PUSH1 0x64 CALLDATALOAD DUP4 MSTORE PUSH1 0xA0 DUP7 ADD SWAP4 PUSH1 0x84 CALLDATALOAD DUP6 MSTORE PUSH2 0x1ED6 DUP9 PUSH2 0x2009 JUMP JUMPDEST SWAP7 MLOAD AND SWAP2 DUP7 SLOAD SWAP1 MLOAD SWAP3 PUSH1 0x5 DUP5 LT ISZERO PUSH2 0x5BA JUMPI PUSH1 0x2 SWAP7 PUSH1 0xFF PUSH1 0xA8 SHL SWAP1 MLOAD PUSH1 0xA8 SHL AND SWAP3 PUSH1 0xFF PUSH1 0xB0 SHL SWAP1 MLOAD ISZERO ISZERO PUSH1 0xB0 SHL AND SWAP4 PUSH1 0xFF PUSH1 0xA0 SHL SWAP1 PUSH1 0xA0 SHL AND SWAP2 PUSH9 0xFFFFFFFFFFFFFFFFFF PUSH1 0xB8 SHL AND OR OR OR OR DUP5 SSTORE MLOAD PUSH1 0x1 DUP5 ADD SSTORE MLOAD SWAP2 ADD SSTORE PUSH32 0x782D5A983F4F99019EB2DC8DFE67419752A13DCA743154E71029FC01318D055 PUSH1 0x0 DUP1 LOG3 STOP JUMPDEST CALLVALUE PUSH2 0x171 JUMPI PUSH1 0x0 CALLDATASIZE PUSH1 0x3 NOT ADD SLT PUSH2 0x171 JUMPI PUSH1 0x20 PUSH1 0x40 MLOAD PUSH4 0x1E13380 DUP2 MSTORE RETURN JUMPDEST CALLVALUE PUSH2 0x171 JUMPI PUSH1 0x20 CALLDATASIZE PUSH1 0x3 NOT ADD SLT PUSH2 0x171 JUMPI PUSH1 0x20 SWAP1 PUSH1 0x1 PUSH1 0x1 PUSH1 0xA0 SHL SUB PUSH2 0x1F98 PUSH2 0x1FAF JUMP JUMPDEST AND PUSH1 0x0 MSTORE PUSH1 0x9 DUP3 MSTORE PUSH1 0xFF PUSH1 0x40 PUSH1 0x0 KECCAK256 SLOAD AND ISZERO ISZERO DUP2 MSTORE RETURN JUMPDEST PUSH1 0x4 CALLDATALOAD SWAP1 PUSH1 0x1 PUSH1 0x1 PUSH1 0xA0 SHL SUB DUP3 AND DUP3 SUB PUSH2 0x171 JUMPI JUMP JUMPDEST PUSH1 0x24 CALLDATALOAD SWAP1 PUSH1 0x1 PUSH1 0x1 PUSH1 0xA0 SHL SUB DUP3 AND DUP3 SUB PUSH2 0x171 JUMPI JUMP JUMPDEST DUP1 SLOAD DUP3 LT ISZERO PUSH2 0x1FF3 JUMPI PUSH1 0x0 MSTORE PUSH1 0x20 PUSH1 0x0 KECCAK256 ADD SWAP1 PUSH1 0x0 SWAP1 JUMP JUMPDEST PUSH4 0x4E487B71 PUSH1 0xE0 SHL PUSH1 0x0 MSTORE PUSH1 0x32 PUSH1 0x4 MSTORE PUSH1 0x24 PUSH1 0x0 REVERT JUMPDEST PUSH1 0x5 DUP2 LT ISZERO PUSH2 0x5BA JUMPI PUSH1 0x0 MSTORE PUSH1 0x3 PUSH1 0x20 MSTORE PUSH1 0x40 PUSH1 0x0 KECCAK256 SWAP1 JUMP JUMPDEST PUSH1 0x5 DUP2 LT ISZERO PUSH2 0x5BA JUMPI PUSH1 0x0 MSTORE PUSH1 0x8 PUSH1 0x20 MSTORE PUSH1 0x40 PUSH1 0x0 KECCAK256 SWAP1 JUMP JUMPDEST SWAP1 PUSH1 0x5 DUP3 LT ISZERO PUSH2 0x5BA JUMPI MSTORE JUMP JUMPDEST SWAP1 DUP2 MLOAD DUP1 DUP3 MSTORE PUSH1 0x20 DUP1 DUP1 SWAP4 ADD SWAP4 ADD SWAP2 PUSH1 0x0 JUMPDEST DUP3 DUP2 LT PUSH2 0x2068 JUMPI POP POP POP POP SWAP1 JUMP JUMPDEST DUP4 MLOAD DUP6 MSTORE SWAP4 DUP2 ADD SWAP4 SWAP3 DUP2 ADD SWAP3 PUSH1 0x1 ADD PUSH2 0x205A JUMP JUMPDEST SWAP1 PUSH1 0x6 DUP3 LT ISZERO PUSH2 0x5BA JUMPI MSTORE JUMP JUMPDEST PUSH1 0x1 SLOAD PUSH1 0x1 PUSH1 0x1 PUSH1 0xA0 SHL SUB AND CALLER SUB PUSH2 0x209D JUMPI JUMP JUMPDEST PUSH1 0x40 MLOAD PUSH4 0x118CDAA7 PUSH1 0xE0 SHL DUP2 MSTORE CALLER PUSH1 0x4 DUP3 ADD MSTORE PUSH1 0x24 SWAP1 REVERT JUMPDEST PUSH1 0xC0 DUP2 ADD SWAP1 DUP2 LT PUSH8 0xFFFFFFFFFFFFFFFF DUP3 GT OR PUSH2 0x5E4 JUMPI PUSH1 0x40 MSTORE JUMP JUMPDEST PUSH2 0x280 DUP2 ADD SWAP1 DUP2 LT PUSH8 0xFFFFFFFFFFFFFFFF DUP3 GT OR PUSH2 0x5E4 JUMPI PUSH1 0x40 MSTORE JUMP JUMPDEST PUSH1 0xA0 DUP2 ADD SWAP1 DUP2 LT PUSH8 0xFFFFFFFFFFFFFFFF DUP3 GT OR PUSH2 0x5E4 JUMPI PUSH1 0x40 MSTORE JUMP JUMPDEST PUSH1 0x20 DUP2 ADD SWAP1 DUP2 LT PUSH8 0xFFFFFFFFFFFFFFFF DUP3 GT OR PUSH2 0x5E4 JUMPI PUSH1 0x40 MSTORE JUMP JUMPDEST SWAP1 PUSH1 0x1F DUP1 NOT SWAP2 ADD AND DUP2 ADD SWAP1 DUP2 LT PUSH8 0xFFFFFFFFFFFFFFFF DUP3 GT OR PUSH2 0x5E4 JUMPI PUSH1 0x40 MSTORE JUMP JUMPDEST PUSH1 0x5 DUP3 LT ISZERO PUSH2 0x5BA JUMPI MSTORE JUMP JUMPDEST SWAP2 SWAP1 DUP3 ADD DUP1 SWAP3 GT PUSH2 0x638 JUMPI JUMP JUMPDEST DUP2 ISZERO PUSH2 0x216B JUMPI DIV SWAP1 JUMP JUMPDEST PUSH4 0x4E487B71 PUSH1 0xE0 SHL PUSH1 0x0 MSTORE PUSH1 0x12 PUSH1 0x4 MSTORE PUSH1 0x24 PUSH1 0x0 REVERT JUMPDEST SWAP2 SWAP1 DUP3 SUB SWAP2 DUP3 GT PUSH2 0x638 JUMPI JUMP JUMPDEST PUSH1 0x0 NOT DUP2 EQ PUSH2 0x638 JUMPI PUSH1 0x1 ADD SWAP1 JUMP JUMPDEST ISZERO PUSH2 0x21A4 JUMPI JUMP JUMPDEST PUSH1 0x40 MLOAD PUSH3 0x461BCD PUSH1 0xE5 SHL DUP2 MSTORE PUSH1 0x20 PUSH1 0x4 DUP3 ADD MSTORE PUSH1 0x13 PUSH1 0x24 DUP3 ADD MSTORE PUSH19 0x50726963652064617461206973207374616C65 PUSH1 0x68 SHL PUSH1 0x44 DUP3 ADD MSTORE PUSH1 0x64 SWAP1 REVERT JUMPDEST PUSH2 0x224D PUSH2 0x21EB DUP3 PUSH2 0x2009 JUMP JUMPDEST SWAP2 PUSH1 0x40 MLOAD PUSH2 0x21F8 DUP2 PUSH2 0x20B5 JUMP JUMPDEST DUP4 SLOAD PUSH1 0x1 PUSH1 0x1 PUSH1 0xA0 SHL SUB DUP2 AND DUP3 MSTORE SWAP4 PUSH1 0xA0 SWAP1 PUSH1 0x2 SWAP1 PUSH2 0x221F DUP8 DUP5 SHR PUSH1 0xFF AND PUSH1 0x20 DUP7 ADD PUSH2 0x2148 JUMP JUMPDEST PUSH1 0xFF PUSH1 0x40 DUP6 ADD SWAP8 DUP2 DUP2 PUSH1 0xA8 SHR AND DUP10 MSTORE PUSH1 0xB0 SHR AND ISZERO ISZERO PUSH1 0x60 DUP6 ADD MSTORE PUSH1 0x1 DUP2 ADD SLOAD PUSH1 0x80 DUP6 ADD MSTORE ADD SLOAD SWAP2 ADD MSTORE PUSH2 0x2022 JUMP JUMPDEST PUSH2 0x2296 PUSH2 0xE10 PUSH2 0x1222 PUSH1 0x40 MLOAD SWAP4 PUSH2 0x2263 DUP6 PUSH2 0x20EE JUMP JUMPDEST DUP1 SLOAD DUP6 MSTORE PUSH1 0x4 PUSH1 0x1 DUP3 ADD SLOAD SWAP2 DUP3 PUSH1 0x20 DUP9 ADD MSTORE PUSH1 0x2 DUP2 ADD SLOAD PUSH1 0x40 DUP9 ADD MSTORE PUSH1 0x3 DUP2 ADD SLOAD PUSH1 0x60 DUP9 ADD MSTORE ADD SLOAD PUSH1 0x80 DUP7 ADD MSTORE TIMESTAMP PUSH2 0x2181 JUMP JUMPDEST MLOAD SWAP2 DUP3 DUP2 MUL SWAP3 DUP2 DUP5 DIV EQ SWAP1 ISZERO OR ISZERO PUSH2 0x638 JUMPI MLOAD PUSH1 0xFF AND SWAP1 PUSH1 0x4D DUP3 GT PUSH2 0x638 JUMPI PUSH2 0x22C2 SWAP2 PUSH1 0xA EXP SWAP1 PUSH2 0x2161 JUMP JUMPDEST SWAP1 JUMP JUMPDEST PUSH8 0xFFFFFFFFFFFFFFFF DUP2 GT PUSH2 0x5E4 JUMPI PUSH1 0x5 SHL PUSH1 0x20 ADD SWAP1 JUMP JUMPDEST SWAP1 PUSH2 0x22E7 DUP3 PUSH2 0x22C5 JUMP JUMPDEST PUSH2 0x22F4 PUSH1 0x40 MLOAD SWAP2 DUP3 PUSH2 0x2126 JUMP JUMPDEST DUP3 DUP2 MSTORE DUP1 SWAP3 PUSH2 0x2305 PUSH1 0x1F NOT SWAP2 PUSH2 0x22C5 JUMP JUMPDEST ADD SWAP1 PUSH1 0x20 CALLDATASIZE SWAP2 ADD CALLDATACOPY JUMP JUMPDEST SWAP1 SWAP2 DUP3 DUP2 LT PUSH2 0x231D JUMPI POP POP POP JUMP JUMPDEST PUSH1 0x0 SWAP2 DUP3 MSTORE PUSH1 0x20 DUP3 KECCAK256 SWAP3 DUP4 ADD SWAP3 ADD JUMPDEST DUP3 DUP2 LT PUSH2 0x2338 JUMPI POP POP POP JUMP JUMPDEST DUP2 DUP2 SSTORE PUSH1 0x1 ADD PUSH2 0x232C JUMP JUMPDEST DUP1 SLOAD PUSH1 0x1 PUSH1 0x40 SHL DUP2 LT ISZERO PUSH2 0x5E4 JUMPI PUSH2 0x2360 SWAP2 PUSH1 0x1 DUP3 ADD DUP2 SSTORE PUSH2 0x1FDB JUMP JUMPDEST DUP2 SWAP3 SWAP2 SLOAD SWAP1 PUSH1 0x3 SHL SWAP2 DUP3 SHL SWAP2 PUSH1 0x0 NOT SWAP1 SHL NOT AND OR SWAP1 SSTORE JUMP JUMPDEST PUSH1 0x40 MLOAD PUSH4 0x23B872DD PUSH1 0xE0 SHL PUSH1 0x20 DUP3 ADD MSTORE PUSH1 0x1 PUSH1 0x1 PUSH1 0xA0 SHL SUB SWAP3 DUP4 AND PUSH1 0x24 DUP3 ADD MSTORE SWAP3 SWAP1 SWAP2 AND PUSH1 0x44 DUP4 ADD MSTORE PUSH1 0x64 DUP1 DUP4 ADD SWAP4 SWAP1 SWAP4 MSTORE SWAP2 DUP2 MSTORE PUSH2 0x23BF SWAP2 PUSH2 0x23BA DUP3 PUSH2 0x20EE JUMP JUMPDEST PUSH2 0x23C1 JUMP JUMPDEST JUMP JUMPDEST SWAP1 PUSH1 0x0 PUSH1 0x20 SWAP2 DUP3 DUP2 MLOAD SWAP2 ADD DUP3 DUP6 GAS CALL ISZERO PUSH2 0x241D JUMPI PUSH1 0x0 MLOAD RETURNDATASIZE PUSH2 0x2414 JUMPI POP PUSH1 0x1 PUSH1 0x1 PUSH1 0xA0 SHL SUB DUP2 AND EXTCODESIZE ISZERO JUMPDEST PUSH2 0x23F2 JUMPI POP JUMP JUMPDEST PUSH1 0x40 MLOAD PUSH4 0x5274AFE7 PUSH1 0xE0 SHL DUP2 MSTORE PUSH1 0x1 PUSH1 0x1 PUSH1 0xA0 SHL SUB SWAP1 SWAP2 AND PUSH1 0x4 DUP3 ADD MSTORE PUSH1 0x24 SWAP1 REVERT JUMPDEST PUSH1 0x1 EQ ISZERO PUSH2 0x23EB JUMP JUMPDEST PUSH1 0x40 MLOAD RETURNDATASIZE PUSH1 0x0 DUP3 RETURNDATACOPY RETURNDATASIZE SWAP1 REVERT JUMPDEST PUSH1 0x2 PUSH1 0x0 SLOAD EQ PUSH2 0x243A JUMPI PUSH1 0x2 PUSH1 0x0 SSTORE JUMP JUMPDEST PUSH1 0x40 MLOAD PUSH4 0x3EE5AEB5 PUSH1 0xE0 SHL DUP2 MSTORE PUSH1 0x4 SWAP1 REVERT JUMPDEST DUP1 MLOAD DUP3 LT ISZERO PUSH2 0x1FF3 JUMPI PUSH1 0x20 SWAP2 PUSH1 0x5 SHL ADD ADD SWAP1 JUMP INVALID LOG2 PUSH5 0x6970667358 0x22 SLT KECCAK256 POP PUSH5 0xE5379530C5 0xD9 0xE1 DUP3 0xE7 0xE4 0x4D 0xDD 0xC 0xE 0xD DUP13 0xC1 DUP8 0x4E BLOCKHASH PUSH9 0x5D93B565AA3D9B8079 PUSH5 0x736F6C6343 STOP ADDMOD EQ STOP CALLER "},"methodIdentifiers":{"MAX_INTEREST_RATE()":"34855d14","MAX_LOAN_DURATION()":"0d0b2ca6","MIN_COLLATERAL_RATIO()":"7a9fffb7","MIN_LOAN_DURATION()":"89d99a05","addSupportedToken(uint8,address,uint8,uint256,uint256)":"2ffc204b","borrowerLoans(address,uint256)":"e3ed1902","calculateUSDValue(uint8,uint256)":"fe6993b8","fundLoan(uint256,uint256)":"f4512bb6","getActiveLoanRequests()":"9772d7ee","getLoan(uint256)":"504006ca","getSupportedToken(uint8)":"d42c4c53","getTokenPrice(uint8)":"d89e8c1c","getTokenPriceInfo(uint8)":"c7fc1325","lenderLoans(address,uint256)":"3cdb72f1","lenderPositions(uint256,address)":"ad8d0138","loans(uint256)":"e1ec3c68","nextLoanId()":"87c51459","owner()":"8da5cb5b","priceOracles(address)":"01374518","renounceOwnership()":"715018a6","requestLoan(uint256,uint8,uint8,uint256,uint256,uint256,bool,bool)":"f498c9cc","setPriceOracle(address,bool)":"858a9ea0","supportedTokens(uint8)":"3f572d36","tokenPrices(uint8)":"deceafa7","transferOwnership(address)":"f2fde38b","updateTokenPrice(uint8,uint256,uint256)":"4dd9cccc"}}}}}