{"contracts/LoanVerse.sol":{"LoanVerse":{"abi":[{"inputs":[],"stateMutability":"nonpayable","type":"constructor"},{"inputs":[],"name":"EnforcedPause","type":"error"},{"inputs":[],"name":"ExpectedPause","type":"error"},{"inputs":[{"internalType":"address","name":"owner","type":"address"}],"name":"OwnableInvalidOwner","type":"error"},{"inputs":[{"internalType":"address","name":"account","type":"address"}],"name":"OwnableUnauthorizedAccount","type":"error"},{"inputs":[],"name":"ReentrancyGuardReentrantCall","type":"error"},{"inputs":[{"internalType":"address","name":"token","type":"address"}],"name":"SafeERC20FailedOperation","type":"error"},{"anonymous":false,"inputs":[{"indexed":true,"internalType":"uint256","name":"loanId","type":"uint256"},{"indexed":false,"internalType":"uint256","name":"amount","type":"uint256"}],"name":"CollateralClaimed","type":"event"},{"anonymous":false,"inputs":[{"indexed":true,"internalType":"address","name":"borrower","type":"address"},{"indexed":false,"internalType":"uint256","name":"newScore","type":"uint256"}],"name":"CreditScoreUpdated","type":"event"},{"anonymous":false,"inputs":[{"indexed":true,"internalType":"uint256","name":"loanId","type":"uint256"}],"name":"LoanCancelled","type":"event"},{"anonymous":false,"inputs":[{"indexed":true,"internalType":"uint256","name":"loanId","type":"uint256"}],"name":"LoanDefaulted","type":"event"},{"anonymous":false,"inputs":[{"indexed":true,"internalType":"uint256","name":"loanId","type":"uint256"},{"indexed":true,"internalType":"address","name":"lender","type":"address"}],"name":"LoanFunded","type":"event"},{"anonymous":false,"inputs":[{"indexed":true,"internalType":"uint256","name":"loanId","type":"uint256"},{"indexed":false,"internalType":"uint256","name":"repaidAmount","type":"uint256"}],"name":"LoanRepaid","type":"event"},{"anonymous":false,"inputs":[{"indexed":true,"internalType":"uint256","name":"loanId","type":"uint256"},{"indexed":true,"internalType":"address","name":"borrower","type":"address"},{"indexed":true,"internalType":"uint256","name":"tokenId","type":"uint256"},{"indexed":false,"internalType":"uint256","name":"amount","type":"uint256"},{"indexed":false,"internalType":"uint256","name":"collateralAmount","type":"uint256"},{"indexed":false,"internalType":"uint256","name":"interestRate","type":"uint256"},{"indexed":false,"internalType":"uint256","name":"duration","type":"uint256"},{"indexed":false,"internalType":"string","name":"ipfsHash","type":"string"}],"name":"LoanRequested","type":"event"},{"anonymous":false,"inputs":[{"indexed":true,"internalType":"address","name":"previousOwner","type":"address"},{"indexed":true,"internalType":"address","name":"newOwner","type":"address"}],"name":"OwnershipTransferred","type":"event"},{"anonymous":false,"inputs":[{"indexed":false,"internalType":"address","name":"account","type":"address"}],"name":"Paused","type":"event"},{"anonymous":false,"inputs":[{"indexed":true,"internalType":"uint256","name":"loanId","type":"uint256"},{"indexed":false,"internalType":"uint256","name":"riskScore","type":"uint256"}],"name":"RiskScoreUpdated","type":"event"},{"anonymous":false,"inputs":[{"indexed":true,"internalType":"uint256","name":"tokenId","type":"uint256"},{"indexed":true,"internalType":"address","name":"contractAddress","type":"address"},{"indexed":false,"internalType":"string","name":"symbol","type":"string"}],"name":"TokenAdded","type":"event"},{"anonymous":false,"inputs":[{"indexed":true,"internalType":"uint256","name":"tokenId","type":"uint256"}],"name":"TokenDeactivated","type":"event"},{"anonymous":false,"inputs":[{"indexed":false,"internalType":"address","name":"account","type":"address"}],"name":"Unpaused","type":"event"},{"inputs":[],"name":"MAX_INTEREST_RATE","outputs":[{"internalType":"uint256","name":"","type":"uint256"}],"stateMutability":"view","type":"function"},{"inputs":[],"name":"MAX_LOAN_DURATION","outputs":[{"internalType":"uint256","name":"","type":"uint256"}],"stateMutability":"view","type":"function"},{"inputs":[],"name":"MIN_COLLATERAL_RATIO","outputs":[{"internalType":"uint256","name":"","type":"uint256"}],"stateMutability":"view","type":"function"},{"inputs":[],"name":"MIN_CREDIT_SCORE","outputs":[{"internalType":"uint256","name":"","type":"uint256"}],"stateMutability":"view","type":"function"},{"inputs":[],"name":"MIN_LOAN_DURATION","outputs":[{"internalType":"uint256","name":"","type":"uint256"}],"stateMutability":"view","type":"function"},{"inputs":[{"internalType":"address","name":"_contractAddress","type":"address"},{"internalType":"string","name":"_symbol","type":"string"},{"internalType":"uint8","name":"_decimals","type":"uint8"}],"name":"addSupportedToken","outputs":[],"stateMutability":"nonpayable","type":"function"},{"inputs":[{"internalType":"address","name":"","type":"address"}],"name":"authorizedRiskOracles","outputs":[{"internalType":"bool","name":"","type":"bool"}],"stateMutability":"view","type":"function"},{"inputs":[{"internalType":"address","name":"","type":"address"},{"internalType":"uint256","name":"","type":"uint256"}],"name":"borrowerLoans","outputs":[{"internalType":"uint256","name":"","type":"uint256"}],"stateMutability":"view","type":"function"},{"inputs":[{"internalType":"uint256","name":"_loanId","type":"uint256"}],"name":"cancelLoan","outputs":[],"stateMutability":"nonpayable","type":"function"},{"inputs":[{"internalType":"uint256","name":"_loanId","type":"uint256"}],"name":"claimCollateral","outputs":[],"stateMutability":"nonpayable","type":"function"},{"inputs":[],"name":"collectedFees","outputs":[{"internalType":"uint256","name":"","type":"uint256"}],"stateMutability":"view","type":"function"},{"inputs":[{"internalType":"address","name":"","type":"address"}],"name":"creditScores","outputs":[{"internalType":"uint256","name":"score","type":"uint256"},{"internalType":"uint256","name":"totalLoansCount","type":"uint256"},{"internalType":"uint256","name":"repaidLoansCount","type":"uint256"},{"internalType":"uint256","name":"defaultedLoansCount","type":"uint256"},{"internalType":"uint256","name":"totalBorrowed","type":"uint256"},{"internalType":"uint256","name":"totalRepaid","type":"uint256"},{"internalType":"uint256","name":"lastUpdated","type":"uint256"}],"stateMutability":"view","type":"function"},{"inputs":[{"internalType":"uint256","name":"_tokenId","type":"uint256"}],"name":"deactivateToken","outputs":[],"stateMutability":"nonpayable","type":"function"},{"inputs":[],"name":"feeRecipient","outputs":[{"internalType":"address","name":"","type":"address"}],"stateMutability":"view","type":"function"},{"inputs":[{"internalType":"uint256","name":"_loanId","type":"uint256"}],"name":"fundLoan","outputs":[],"stateMutability":"payable","type":"function"},{"inputs":[],"name":"getActiveLoanRequests","outputs":[{"internalType":"uint256[]","name":"","type":"uint256[]"}],"stateMutability":"view","type":"function"},{"inputs":[{"internalType":"address","name":"","type":"address"},{"internalType":"uint256","name":"","type":"uint256"}],"name":"lenderLoans","outputs":[{"internalType":"uint256","name":"","type":"uint256"}],"stateMutability":"view","type":"function"},{"inputs":[{"internalType":"uint256","name":"","type":"uint256"}],"name":"loans","outputs":[{"internalType":"uint256","name":"id","type":"uint256"},{"internalType":"address","name":"borrower","type":"address"},{"internalType":"address","name":"lender","type":"address"},{"internalType":"uint256","name":"tokenId","type":"uint256"},{"internalType":"uint256","name":"collateralTokenId","type":"uint256"},{"internalType":"uint256","name":"amount","type":"uint256"},{"internalType":"uint256","name":"collateralAmount","type":"uint256"},{"internalType":"uint256","name":"interestRate","type":"uint256"},{"internalType":"uint256","name":"duration","type":"uint256"},{"internalType":"uint256","name":"createdAt","type":"uint256"},{"internalType":"uint256","name":"fundedAt","type":"uint256"},{"internalType":"uint256","name":"dueDate","type":"uint256"},{"internalType":"enum LoanVerse.LoanStatus","name":"status","type":"uint8"},{"internalType":"string","name":"ipfsDocumentHash","type":"string"},{"internalType":"uint256","name":"riskScore","type":"uint256"},{"internalType":"bool","name":"collateralClaimed","type":"bool"}],"stateMutability":"view","type":"function"},{"inputs":[],"name":"nextLoanId","outputs":[{"internalType":"uint256","name":"","type":"uint256"}],"stateMutability":"view","type":"function"},{"inputs":[],"name":"nextTokenId","outputs":[{"internalType":"uint256","name":"","type":"uint256"}],"stateMutability":"view","type":"function"},{"inputs":[],"name":"owner","outputs":[{"internalType":"address","name":"","type":"address"}],"stateMutability":"view","type":"function"},{"inputs":[],"name":"pause","outputs":[],"stateMutability":"nonpayable","type":"function"},{"inputs":[],"name":"paused","outputs":[{"internalType":"bool","name":"","type":"bool"}],"stateMutability":"view","type":"function"},{"inputs":[],"name":"protocolFeeRate","outputs":[{"internalType":"uint256","name":"","type":"uint256"}],"stateMutability":"view","type":"function"},{"inputs":[],"name":"renounceOwnership","outputs":[],"stateMutability":"nonpayable","type":"function"},{"inputs":[{"internalType":"uint256","name":"_loanId","type":"uint256"}],"name":"repayLoan","outputs":[],"stateMutability":"payable","type":"function"},{"inputs":[{"internalType":"uint256","name":"_tokenId","type":"uint256"},{"internalType":"uint256","name":"_collateralTokenId","type":"uint256"},{"internalType":"uint256","name":"_amount","type":"uint256"},{"internalType":"uint256","name":"_interestRate","type":"uint256"},{"internalType":"uint256","name":"_duration","type":"uint256"},{"internalType":"string","name":"_ipfsDocumentHash","type":"string"}],"name":"requestLoan","outputs":[],"stateMutability":"payable","type":"function"},{"inputs":[{"internalType":"address","name":"_oracle","type":"address"},{"internalType":"bool","name":"_authorized","type":"bool"}],"name":"setAuthorizedOracle","outputs":[],"stateMutability":"nonpayable","type":"function"},{"inputs":[{"internalType":"uint256","name":"","type":"uint256"}],"name":"supportedTokens","outputs":[{"internalType":"enum LoanVerse.TokenType","name":"tokenType","type":"uint8"},{"internalType":"address","name":"contractAddress","type":"address"},{"internalType":"string","name":"symbol","type":"string"},{"internalType":"uint8","name":"decimals","type":"uint8"},{"internalType":"bool","name":"isActive","type":"bool"}],"stateMutability":"view","type":"function"},{"inputs":[{"internalType":"address","name":"newOwner","type":"address"}],"name":"transferOwnership","outputs":[],"stateMutability":"nonpayable","type":"function"},{"inputs":[],"name":"unpause","outputs":[],"stateMutability":"nonpayable","type":"function"},{"inputs":[{"internalType":"uint256","name":"_loanId","type":"uint256"},{"internalType":"uint256","name":"_riskScore","type":"uint256"}],"name":"updateRiskScore","outputs":[],"stateMutability":"nonpayable","type":"function"},{"inputs":[],"name":"withdrawFees","outputs":[],"stateMutability":"nonpayable","type":"function"}],"evm":{"bytecode":{"linkReferences":{},"object":"608060409080825234620002f15760016000918183553315620002db57508054336001600160a01b03198083168217845593916001600160a01b03167f8be0079c531659141344cd1fd0a4f28419497f9722a3daafe3b4186f6b6457e08380a381600255816003556004926032845533906005541617600555835160a0810160018060401b039082811082821117620002c85786528282526020908183019484865287519288840184811084821117620002b5578952600384526208aa8960eb1b818501528885019384526060850197601289526080860197838952878052600883528a88209651906002821015620002a25760ff885491610100600160a81b03905160081b1692169060018060a81b0319161717865582860194519081519485116200028f578554908482811c9216801562000284575b84831014620002715750601f811162000226575b5081601f8511600114620001b557509280928192600297969560ff9994620001a9575b50501b916000199060031b1c19161790555b0192511661ff0083549251151560081b169161ffff191617179055516127869081620002f78239f35b0151925038806200016e565b858852808820969795969395601f198616915b8282106200020e5750509160ff9795939185600298969410620001f4575b505050811b01905562000180565b015160001960f88460031b161c19169055388080620001e6565b808886978294978701518155019601940190620001c8565b858852828820601f860160051c81019184871062000266575b601f0160051c019084905b8281106200025a5750506200014b565b8981550184906200024a565b90915081906200023f565b634e487b7160e01b895260229052602488fd5b91607f169162000137565b634e487b7160e01b885260419052602487fd5b634e487b7160e01b895260218352602489fd5b634e487b7160e01b875260418952602487fd5b634e487b7160e01b845260418652602484fd5b631e4fbdf760e01b815260048101839052602490fd5b600080fdfe60c080604052600436101561001357600080fd5b60003560e01c9081630a49cf4d14612170575080630d0b2ca61461215157806334855d14146121345780633cdb72f1146120ea5780633f4ba83a146120785780634197dd5f14611da75780634690484014611d7e578063476343ee14611cff57806358f8588014611ce15780635c975abb14611cbb5780636eef115414611c7c578063715018a614611c1f57806375794a3c14611c015780637a9fffb714611be557806380bb727314611b6a5780638456cb5914611b08578063846b909a1461186257806387c514591461184457806389d99a05146118265780638da5cb5b146117fd5780639003adfe146117df5780639772d7ee146116d5578063ab7b1c89146112fa578063bad128b6146111e6578063bdbfa3de146110ca578063c49785b414610d83578063c625562614610cf5578063c7a6de4d14610c9c578063da69dd5914610474578063e1ec3c6814610327578063e3ed1902146102cf578063ec991da91461021d5763f2fde38b1461018a57600080fd5b34610218576020366003190112610218576101a361218b565b6101ab612374565b6001600160a01b039081169081156101ff57600154826bffffffffffffffffffffffff60a01b821617600155167f8be0079c531659141344cd1fd0a4f28419497f9722a3daafe3b4186f6b6457e0600080a3005b604051631e4fbdf760e01b815260006004820152602490fd5b600080fd5b3461021857602036600319011261021857600435610239612374565b80600052600860205260ff60026040600020015460081c161561029757806000526008602052600260406000200161ff001981541690557f76ae93cd7712c8a8b4ba0c1b9f441ddbd9e9ce3e425a93b15e8f6e37d8784fa6600080a2005b60405162461bcd60e51b815260206004820152601060248201526f546f6b656e206e6f742061637469766560801b6044820152606490fd5b34610218576040366003190112610218576102e861218b565b6001600160a01b031660009081526009602052604090208054602435919082101561021857602091610319916121a1565b90546040519160031b1c8152f35b3461021857602036600319011261021857600435600052600760205260406000208054608052600160a01b6001900380600183015416906002830154168260038101546004820154600583015460068401546007850154600886015491600987015493600a88015495600b89015497600c8a015460ff169a600d8b016103ac9061228e565b9a600e01549d600f015460ff169c6040518060a052608051905260a0516020015260a0516040015260a0516060015260a0516080015260a05160a0015260a05160c0015260a05160e0015260a051610100015260a051610120015260a051610140015260a0516101600152600682101561045e576104429161018060a0510152610200806101a060a051015260a0510190612334565b916101c060a051015215156101e060a051015260a05180910390f35b634e487b7160e01b600052602160045260246000fd5b60c03660031901126102185760a43567ffffffffffffffff8111610218576104a090369060040161220d565b6104a8612510565b6104b06124ef565b60443515610c5757610bb860643511610c195762015180608435101580610c09575b15610bd157600435600052600860205260ff60026040600020015460081c1615610b9657602435600052600860205260ff60026040600020015460081c1615610b5157805115610b175733600052600b602052604060002061012c81541090811591610b0a575b5015610ace5760443560966044350204609603610ab857602435600052600860205260ff60406000205416600281101561045e5761096d576064609660443502043410610928575b6002549061058e826123a0565b600255602435600052600860205260ff60406000205416600281101561045e5761091a57345b604051908161020081011067ffffffffffffffff61020084011117610904576102008201604052838252336020830152600060408301526004356060830152602435608083015260443560a083015260c082015260643560e082015260843561010082015242610120820152600061014082015260006101608201526000610180820152816101a082015260006101c082015260006101e0820152826000526007602052604060002090805182556001820160018060a01b039081602084015116906bffffffffffffffffffffffff60a01b9182825416179055600284019160408401511690825416179055606081015160038301556080810151600483015560a0810151600583015560c0810151600683015560e0810151600783015561010081015160088301556101208101516009830155610140810151600a830155610160810151600b830155600c8201610180820151600681101561045e5760ff801983541691161790556101a081015180519067ffffffffffffffff821161090457610742600d850154612254565b601f81116108bd575b50602090601f8311600114610843579282600f936101e0936107aa9796600092610838575b50508160011b916000199060031b1c191617600d8501555b6101c0810151600e8501550151151591019060ff801983541691151516179055565b3360005260096020526107c1826040600020612404565b8160005260076020526006604060002001549160405192604435845260208401526064356040840152608435606084015260a060808401527f05cb01012dbded0c72d8576b4aef55d60d8e2824466ac6f54f7822cc1ddb6af3600435938061082e339560a0830190612334565b0390a46001600055005b015190508980610770565b90600d850160005260206000209160005b601f19851681106108a55750836101e0936107aa979693600193600f97601f1981161061088c575b505050811b01600d850155610788565b015160001960f88460031b161c1916905589808061087c565b91926020600181928685015181550194019201610854565b600d85016000526020600020601f840160051c8101602085106108fd575b601f830160051c820181106108f157505061074b565b600081556001016108db565b50806108db565b634e487b7160e01b600052604160045260246000fd5b6064609660443502046105b4565b60405162461bcd60e51b815260206004820152601b60248201527f496e73756666696369656e742045544820636f6c6c61746572616c00000000006044820152606490fd5b34610a6757602435600052600860205260018060a01b0360406000205460081c166040516370a0823160e01b8152336004820152602081602481855afa908115610a5b57600091610a29575b50606460966044350204116109e4576109df90606460966044350204903090339061243e565b610581565b60405162461bcd60e51b815260206004820152601a60248201527f496e73756666696369656e742045524332302062616c616e63650000000000006044820152606490fd5b90506020813d602011610a53575b81610a44602093836121cf565b810103126102185751836109b9565b3d9150610a37565b6040513d6000823e3d90fd5b60405162461bcd60e51b815260206004820152602360248201527f455448206e6f74206e656564656420666f7220455243323020636f6c6c6174656044820152621c985b60ea1b6064820152608490fd5b634e487b7160e01b600052601160045260246000fd5b60405162461bcd60e51b81526020600482015260146024820152734372656469742073636f726520746f6f206c6f7760601b6044820152606490fd5b6001915001541582610539565b60405162461bcd60e51b815260206004820152601260248201527112541194c81a185cda081c995c5d5a5c995960721b6044820152606490fd5b60405162461bcd60e51b815260206004820152601e60248201527f436f6c6c61746572616c20746f6b656e206e6f7420737570706f7274656400006044820152606490fd5b60405162461bcd60e51b8152602060048201526013602482015272151bdad95b881b9bdd081cdd5c1c1bdc9d1959606a1b6044820152606490fd5b60405162461bcd60e51b815260206004820152601060248201526f24b73b30b634b210323ab930ba34b7b760811b6044820152606490fd5b506301e1338060843511156104d2565b60405162461bcd60e51b8152602060048201526016602482015275092dce8cae4cae6e840e4c2e8ca40e8dede40d0d2ced60531b6044820152606490fd5b60405162461bcd60e51b815260206004820152601d60248201527f416d6f756e74206d7573742062652067726561746572207468616e20300000006044820152606490fd5b3461021857604036600319011261021857610cb561218b565b602435801515810361021857610cf391610ccd612374565b60018060a01b0316600052600c60205260406000209060ff801983541691151516179055565b005b34610218576020366003190112610218576004356000526008602052604060002080549060ff8216916002610d2c6001840161228e565b9201549060405193600281101561045e57845260081c6001600160a01b0316602084015260a060408401819052839260ff91610d6b9190850190612334565b91818116606085015260081c16151560808301520390f35b34610218576020806003193601126102185760043590610da1612510565b81600052600781526040600020906002820160018060a01b0390818154169033820361108d57600c8501805460ff8116600681101561045e576001610de69114612570565b600b87015442111561105557600f87019182549060ff821661101e5760ff1992831660031790551660011790556004850154600081815260088652604090205460ff169290600284101561045e578493610ff35750506000808093819354166006880154905af1610e55612540565b5015610fae575b6001830154169182600052600b825260406000209260018401610e8581548015610fa4576123a0565b905542600685015560038401610e9b81546123a0565b90558354936032851115610f54576031198501948511610ab857837f79c012a0cfae660e09134956bc432c8497ec80e86a3a108d130e8b3fca52b3ad917f1f088c41722ad237885281d65d2ff9fb69db65ca083e2760e3d1b4788748aa579661012c90818110600014610f4d57505b80915b55604051908152a2600660405191857f0789b7097e8066538cfaa1132488b132e14ba5f0c938c8b7aaf8cf40356aab0b600080a201548152a26001600055005b9050610f0a565b7f1f088c41722ad237885281d65d2ff9fb69db65ca083e2760e3d1b4788748aa579450837f79c012a0cfae660e09134956bc432c8497ec80e86a3a108d130e8b3fca52b3ad9161012c8091610f0d565b61023f87556123a0565b60405162461bcd60e51b815260048101839052601a60248201527f436f6c6c61746572616c207472616e73666572206661696c65640000000000006044820152606490fd5b9091506110199250600052600884528260406000205460081c16906006860154916125bb565b610e5c565b60405162461bcd60e51b815260048101899052600f60248201526e105b1c9958591e4818db185a5b5959608a1b6044820152606490fd5b60405162461bcd60e51b815260048101879052601060248201526f131bd85b881b9bdd08195e1c1a5c995960821b6044820152606490fd5b60405162461bcd60e51b81526004810185905260156024820152744f6e6c79206c656e6465722063616e20636c61696d60581b6044820152606490fd5b34610218576020366003190112610218576004356110e6612510565b600081815260076020526040902060018101546001600160a01b031633036111a157600c01805460ff8116600681101561045e5761115c5760ff191660041790556111308161260b565b7fb71becc91961a6b43bcc5b3b630f3dce02c7fd444cf3738c4f188062b1caf5bc600080a26001600055005b60405162461bcd60e51b815260206004820152601e60248201527f43616e206f6e6c792063616e63656c20756e66756e646564206c6f616e7300006044820152606490fd5b60405162461bcd60e51b815260206004820152601860248201527f4f6e6c7920626f72726f7765722063616e2063616e63656c00000000000000006044820152606490fd5b346102185760403660031901126102185760043560243533600052602090600c825260ff60406000205416156112bd576103e881116112835760008381526007835260409020600101547f48adb4acae9076e27f3dd76aae95808bb8f40caf101b9d074b3b89e67602cc4f929190611268906001600160a01b031615156123af565b836000526007825280600e60406000200155604051908152a2005b60405162461bcd60e51b8152600481018390526012602482015271496e76616c6964207269736b2073636f726560701b6044820152606490fd5b60405162461bcd60e51b81526004810183905260156024820152744e6f7420617574686f72697a6564206f7261636c6560581b6044820152606490fd5b6020806003193601126102185760043590611313612510565b81600052600781526040600020906001820160018060a01b039081815416330361169057600c840180549460ff8616600681101561045e5760016113579114612570565b600b810154421161165c576005810154916127109060026113a9836113806007870154886123f1565b049361138e600454866123f1565b04936113a38561139e838a612533565b6125ae565b96612533565b9860ff19161790556113bd81600654612533565b6006556003820154806000526008875260ff60406000205416600281101561045e576115b957505085341061157b57600080809386600283950154165af1611403612540565b5015611536578334116114db575b61141a8561260b565b54169182600052600b82526040600020926001840161143f81548015610fa4576123a0565b90554260068501556002840161145581546123a0565b9055835493600a8501809511610ab857837f79c012a0cfae660e09134956bc432c8497ec80e86a3a108d130e8b3fca52b3ad917f040cee90ee4799897c30ca04e5feb6fa43dbba9b6d084b4b257cdafd84ba013e96610352908181116000146114d2575080915b55604051908152a2604051908152a26001600055005b905080916114bc565b60008080806114ea88346125ae565b335af16114f5612540565b506114115760405162461bcd60e51b8152600481018490526014602482015273115e18d95cdcc81c995d1d5c9b8819985a5b195960621b6044820152606490fd5b60405162461bcd60e51b815260048101849052601960248201527f5472616e7366657220746f206c656e646572206661696c6564000000000000006044820152606490fd5b60405162461bcd60e51b8152600481018690526016602482015275125b9cdd59999a58da595b9d081c995c185e5b595b9d60521b6044820152606490fd5b929091923461160c57906115e791600052600887528560028160406000205460081c1695015416338561243e565b806115f4575b5050611411565b61160591846005541690339061243e565b85806115ed565b60405162461bcd60e51b815260048101889052602260248201527f455448206e6f74206e656564656420666f722045524332302072657061796d656044820152611b9d60f21b6064820152608490fd5b60405162461bcd60e51b815260048101869052600c60248201526b131bd85b88195e1c1a5c995960a21b6044820152606490fd5b60405162461bcd60e51b815260048101849052601760248201527f4f6e6c7920626f72726f7765722063616e2072657061790000000000000000006044820152606490fd5b34610218576000366003190112610218576002546000198101818111610ab8576116fe9061270a565b90600091600191825b81811061178c5750506117198361270a565b9260005b818110611763575050506040519060208083018184528451809152816040850195019160005b8281106117505785870386f35b8351875295810195928101928401611743565b806117736117849285979561273c565b5161177e828661273c565b526123a0565b93919361171d565b80600095939552600760205260ff600c6040600020015416600681101561045e57156117c4575b6117bc906123a0565b939193611707565b916117d7818461177e6117bc948961273c565b9290506117b3565b34610218576000366003190112610218576020600654604051908152f35b34610218576000366003190112610218576001546040516001600160a01b039091168152602090f35b34610218576000366003190112610218576020604051620151808152f35b34610218576000366003190112610218576020600254604051908152f35b602080600319360112610218576004359061187b612510565b6118836124ef565b6000828152600782526040902060018101805490916001600160a01b039182166118ae8115156123af565b600c82019081549060ff8216600681101561045e57611ace573314611a92576002830180546001600160a01b0319163317905560ff1916600117905542600a8201819055600882015461190091612533565b600b82015533600052600a845261191b856040600020612404565b6003810154806000526008855260ff60406000205416600281101561045e57611a15575060050154918234036119d957600080938193829354165af161195f612540565b501561199557505b33907f15feab5d3eb17171632762cf769709a315dd15f487a556c0dfb8a259c8f186cc600080a36001600055005b6064906040519062461bcd60e51b82526004820152601b60248201527f5472616e7366657220746f20626f72726f776572206661696c656400000000006044820152fd5b60405162461bcd60e51b8152600481018590526014602482015273125b98dbdc9c9958dd0811551208185b5bdd5b9d60621b6044820152606490fd5b94939491909134611a4d57906008611a489596600593600052528060406000205460081c1693541691015491339061243e565b611967565b60405162461bcd60e51b815260048101879052601d60248201527f455448206e6f74206e656564656420666f72204552433230206c6f616e0000006044820152606490fd5b60405162461bcd60e51b815260048101879052601460248201527321b0b73737ba10333ab7321037bbb7103637b0b760611b6044820152606490fd5b60405162461bcd60e51b81526004810188905260126024820152714c6f616e206e6f7420617661696c61626c6560701b6044820152606490fd5b3461021857600036600319011261021857611b21612374565b611b296124ef565b6001805460ff60a01b1916600160a01b1790556040513381527f62e78cea01bee320cd4e420270b5ea74000d11b0c9f74754ebdbfc544b05a25890602090a1005b34610218576020366003190112610218576001600160a01b03611b8b61218b565b16600052600b60205260e06040600020805490600181015490600281015460038201546004830154916006600585015494015494604051968752602087015260408601526060850152608084015260a083015260c0820152f35b3461021857600036600319011261021857602060405160968152f35b34610218576000366003190112610218576020600354604051908152f35b3461021857600036600319011261021857611c38612374565b600180546001600160a01b031981169091556000906001600160a01b03167f8be0079c531659141344cd1fd0a4f28419497f9722a3daafe3b4186f6b6457e08280a3005b34610218576020366003190112610218576001600160a01b03611c9d61218b565b16600052600c602052602060ff604060002054166040519015158152f35b3461021857600036600319011261021857602060ff60015460a01c166040519015158152f35b34610218576000366003190112610218576020600454604051908152f35b3461021857600036600319011261021857611d18612374565b60008080806006548160065560018060a01b03600554165af1611d39612540565b5015611d4157005b60405162461bcd60e51b8152602060048201526015602482015274119959481dda5d1a191c985dd85b0819985a5b1959605a1b6044820152606490fd5b34610218576000366003190112610218576005546040516001600160a01b039091168152602090f35b3461021857606036600319011261021857611dc061218b565b67ffffffffffffffff9060243582811161021857611de290369060040161220d565b9060443560ff811680910361021857611df9612374565b6001600160a01b03821615612033576040519060a0820182811086821117610904576040526001808352602083019060018060a01b03851682526040840192868452606085015260808401928184526003546000526008602052604060002092855190600282101561045e5760ff855491610100600160a81b03905160081b169216906affffffffffffffffffffff60a81b16171783555196875190811161090457611ea782840154612254565b601f8111611fe6575b506020601f8211600114611f6a57611f52979695949360ff9383606094600294611f5a9d600092611f5f575b5050600019600383901b1c191690821b17908201555b019301511661ff0083549251151560081b169161ffff1916171790557ff44669d0bb138c4a68242ff532894ffef642d66c50c06f585e3ef61302971e4a6003549384926040519182916020835260018060a01b0316956020830190612334565b0390a36123a0565b600355005b015190508d80611edc565b82840160005260206000209860005b601f1984168110611fd05750938360ff9484611f5a9c600295611f529d9c9b9a99606098601f19811610611fb7575b505050811b0190820155611ef2565b015160001960f88460031b161c191690558d8080611fa8565b828201518b559984019960209283019201611f79565b8284016000526020600020601f830160051c81019160208410612029575b601f0160051c019083905b82811061201d575050611eb0565b6000815501839061200f565b9091508190612004565b60405162461bcd60e51b815260206004820152601860248201527f496e76616c696420636f6e7472616374206164647265737300000000000000006044820152606490fd5b3461021857600036600319011261021857612091612374565b60015460ff8160a01c16156120d85760ff60a01b19166001556040513381527f5db9ee0a495bf2e6ff9c91a7834c1ba4fdd244a5e8aa4e537bd38aeae4b073aa90602090a1005b604051638dfc202b60e01b8152600490fd5b346102185760403660031901126102185761210361218b565b6001600160a01b03166000908152600a602052604090208054602435919082101561021857602091610319916121a1565b34610218576000366003190112610218576020604051610bb88152f35b346102185760003660031901126102185760206040516301e133808152f35b34610218576000366003190112610218578061012c60209252f35b600435906001600160a01b038216820361021857565b80548210156121b95760005260206000200190600090565b634e487b7160e01b600052603260045260246000fd5b90601f8019910116810190811067ffffffffffffffff82111761090457604052565b67ffffffffffffffff811161090457601f01601f191660200190565b81601f8201121561021857803590612224826121f1565b9261223260405194856121cf565b8284526020838301011161021857816000926020809301838601378301015290565b90600182811c92168015612284575b602083101461226e57565b634e487b7160e01b600052602260045260246000fd5b91607f1691612263565b90604051918260008254926122a284612254565b90818452600194858116908160001461231157506001146122ce575b50506122cc925003836121cf565b565b9093915060005260209081600020936000915b8183106122f95750506122cc935082010138806122be565b855488840185015294850194879450918301916122e1565b9150506122cc94506020925060ff191682840152151560051b82010138806122be565b919082519283825260005b848110612360575050826000602080949584010152601f8019910116010190565b60208183018101518483018201520161233f565b6001546001600160a01b0316330361238857565b60405163118cdaa760e01b8152336004820152602490fd5b6000198114610ab85760010190565b156123b657565b60405162461bcd60e51b8152602060048201526013602482015272131bd85b88191bd95cc81b9bdd08195e1a5cdd606a1b6044820152606490fd5b81810292918115918404141715610ab857565b80546801000000000000000081101561090457612426916001820181556121a1565b819291549060031b91821b91600019901b1916179055565b6040516323b872dd60e01b60208201526001600160a01b03928316602482015292909116604483015260648083019390935291815260a081019181831067ffffffffffffffff841117610904576122cc926040525b906000602091828151910182855af115610a5b576000513d6124e657506001600160a01b0381163b155b6124c45750565b604051635274afe760e01b81526001600160a01b039091166004820152602490fd5b600114156124bd565b60ff60015460a01c166124fe57565b60405163d93c066560e01b8152600490fd5b600260005414612521576002600055565b604051633ee5aeb560e01b8152600490fd5b91908201809211610ab857565b3d1561256b573d90612551826121f1565b9161255f60405193846121cf565b82523d6000602084013e565b606090565b1561257757565b60405162461bcd60e51b815260206004820152600f60248201526e4c6f616e206e6f742061637469766560881b6044820152606490fd5b91908203918211610ab857565b60405163a9059cbb60e01b60208201526001600160a01b039092166024830152604480830193909352918152608081019167ffffffffffffffff831182841017610904576122cc92604052612493565b60009081526007602052604081206004810154808352600860205260ff60408420541660028110156126de576126ad575060018101546006909101548291829182916001600160a01b03165af1612660612540565b501561266857565b60405162461bcd60e51b815260206004820152601860248201527f436f6c6c61746572616c2072657475726e206661696c656400000000000000006044820152606490fd5b906006836040936122cc9552600860205260018060a01b03938491205460081c1692600183015416910154916125bb565b634e487b7160e01b84526021600452602484fd5b67ffffffffffffffff81116109045760051b60200190565b90612714826126f2565b61272160405191826121cf565b8281528092612732601f19916126f2565b0190602036910137565b80518210156121b95760209160051b01019056fea264697066735822122097daa0ed21b7dc902ee75b68ecd7e37c17364cd4aac9f88510b22fdd8a223bca64736f6c63430008140033","opcodes":"PUSH1 0x80 PUSH1 0x40 SWAP1 DUP1 DUP3 MSTORE CALLVALUE PUSH3 0x2F1 JUMPI PUSH1 0x1 PUSH1 0x0 SWAP2 DUP2 DUP4 SSTORE CALLER ISZERO PUSH3 0x2DB JUMPI POP DUP1 SLOAD CALLER PUSH1 0x1 PUSH1 0x1 PUSH1 0xA0 SHL SUB NOT DUP1 DUP4 AND DUP3 OR DUP5 SSTORE SWAP4 SWAP2 PUSH1 0x1 PUSH1 0x1 PUSH1 0xA0 SHL SUB AND PUSH32 0x8BE0079C531659141344CD1FD0A4F28419497F9722A3DAAFE3B4186F6B6457E0 DUP4 DUP1 LOG3 DUP2 PUSH1 0x2 SSTORE DUP2 PUSH1 0x3 SSTORE PUSH1 0x4 SWAP3 PUSH1 0x32 DUP5 SSTORE CALLER SWAP1 PUSH1 0x5 SLOAD AND OR PUSH1 0x5 SSTORE DUP4 MLOAD PUSH1 0xA0 DUP2 ADD PUSH1 0x1 DUP1 PUSH1 0x40 SHL SUB SWAP1 DUP3 DUP2 LT DUP3 DUP3 GT OR PUSH3 0x2C8 JUMPI DUP7 MSTORE DUP3 DUP3 MSTORE PUSH1 0x20 SWAP1 DUP2 DUP4 ADD SWAP5 DUP5 DUP7 MSTORE DUP8 MLOAD SWAP3 DUP9 DUP5 ADD DUP5 DUP2 LT DUP5 DUP3 GT OR PUSH3 0x2B5 JUMPI DUP10 MSTORE PUSH1 0x3 DUP5 MSTORE PUSH3 0x8AA89 PUSH1 0xEB SHL DUP2 DUP6 ADD MSTORE DUP9 DUP6 ADD SWAP4 DUP5 MSTORE PUSH1 0x60 DUP6 ADD SWAP8 PUSH1 0x12 DUP10 MSTORE PUSH1 0x80 DUP7 ADD SWAP8 DUP4 DUP10 MSTORE DUP8 DUP1 MSTORE PUSH1 0x8 DUP4 MSTORE DUP11 DUP9 KECCAK256 SWAP7 MLOAD SWAP1 PUSH1 0x2 DUP3 LT ISZERO PUSH3 0x2A2 JUMPI PUSH1 0xFF DUP9 SLOAD SWAP2 PUSH2 0x100 PUSH1 0x1 PUSH1 0xA8 SHL SUB SWAP1 MLOAD PUSH1 0x8 SHL AND SWAP3 AND SWAP1 PUSH1 0x1 DUP1 PUSH1 0xA8 SHL SUB NOT AND OR OR DUP7 SSTORE DUP3 DUP7 ADD SWAP5 MLOAD SWAP1 DUP2 MLOAD SWAP5 DUP6 GT PUSH3 0x28F JUMPI DUP6 SLOAD SWAP1 DUP5 DUP3 DUP2 SHR SWAP3 AND DUP1 ISZERO PUSH3 0x284 JUMPI JUMPDEST DUP5 DUP4 LT EQ PUSH3 0x271 JUMPI POP PUSH1 0x1F DUP2 GT PUSH3 0x226 JUMPI JUMPDEST POP DUP2 PUSH1 0x1F DUP6 GT PUSH1 0x1 EQ PUSH3 0x1B5 JUMPI POP SWAP3 DUP1 SWAP3 DUP2 SWAP3 PUSH1 0x2 SWAP8 SWAP7 SWAP6 PUSH1 0xFF SWAP10 SWAP5 PUSH3 0x1A9 JUMPI JUMPDEST POP POP SHL SWAP2 PUSH1 0x0 NOT SWAP1 PUSH1 0x3 SHL SHR NOT AND OR SWAP1 SSTORE JUMPDEST ADD SWAP3 MLOAD AND PUSH2 0xFF00 DUP4 SLOAD SWAP3 MLOAD ISZERO ISZERO PUSH1 0x8 SHL AND SWAP2 PUSH2 0xFFFF NOT AND OR OR SWAP1 SSTORE MLOAD PUSH2 0x2786 SWAP1 DUP2 PUSH3 0x2F7 DUP3 CODECOPY RETURN JUMPDEST ADD MLOAD SWAP3 POP CODESIZE DUP1 PUSH3 0x16E JUMP JUMPDEST DUP6 DUP9 MSTORE DUP1 DUP9 KECCAK256 SWAP7 SWAP8 SWAP6 SWAP7 SWAP4 SWAP6 PUSH1 0x1F NOT DUP7 AND SWAP2 JUMPDEST DUP3 DUP3 LT PUSH3 0x20E JUMPI POP POP SWAP2 PUSH1 0xFF SWAP8 SWAP6 SWAP4 SWAP2 DUP6 PUSH1 0x2 SWAP9 SWAP7 SWAP5 LT PUSH3 0x1F4 JUMPI JUMPDEST POP POP POP DUP2 SHL ADD SWAP1 SSTORE PUSH3 0x180 JUMP JUMPDEST ADD MLOAD PUSH1 0x0 NOT PUSH1 0xF8 DUP5 PUSH1 0x3 SHL AND SHR NOT AND SWAP1 SSTORE CODESIZE DUP1 DUP1 PUSH3 0x1E6 JUMP JUMPDEST DUP1 DUP9 DUP7 SWAP8 DUP3 SWAP5 SWAP8 DUP8 ADD MLOAD DUP2 SSTORE ADD SWAP7 ADD SWAP5 ADD SWAP1 PUSH3 0x1C8 JUMP JUMPDEST DUP6 DUP9 MSTORE DUP3 DUP9 KECCAK256 PUSH1 0x1F DUP7 ADD PUSH1 0x5 SHR DUP2 ADD SWAP2 DUP5 DUP8 LT PUSH3 0x266 JUMPI JUMPDEST PUSH1 0x1F ADD PUSH1 0x5 SHR ADD SWAP1 DUP5 SWAP1 JUMPDEST DUP3 DUP2 LT PUSH3 0x25A JUMPI POP POP PUSH3 0x14B JUMP JUMPDEST DUP10 DUP2 SSTORE ADD DUP5 SWAP1 PUSH3 0x24A JUMP JUMPDEST SWAP1 SWAP2 POP DUP2 SWAP1 PUSH3 0x23F JUMP JUMPDEST PUSH4 0x4E487B71 PUSH1 0xE0 SHL DUP10 MSTORE PUSH1 0x22 SWAP1 MSTORE PUSH1 0x24 DUP9 REVERT JUMPDEST SWAP2 PUSH1 0x7F AND SWAP2 PUSH3 0x137 JUMP JUMPDEST PUSH4 0x4E487B71 PUSH1 0xE0 SHL DUP9 MSTORE PUSH1 0x41 SWAP1 MSTORE PUSH1 0x24 DUP8 REVERT JUMPDEST PUSH4 0x4E487B71 PUSH1 0xE0 SHL DUP10 MSTORE PUSH1 0x21 DUP4 MSTORE PUSH1 0x24 DUP10 REVERT JUMPDEST PUSH4 0x4E487B71 PUSH1 0xE0 SHL DUP8 MSTORE PUSH1 0x41 DUP10 MSTORE PUSH1 0x24 DUP8 REVERT JUMPDEST PUSH4 0x4E487B71 PUSH1 0xE0 SHL DUP5 MSTORE PUSH1 0x41 DUP7 MSTORE PUSH1 0x24 DUP5 REVERT JUMPDEST PUSH4 0x1E4FBDF7 PUSH1 0xE0 SHL DUP2 MSTORE PUSH1 0x4 DUP2 ADD DUP4 SWAP1 MSTORE PUSH1 0x24 SWAP1 REVERT JUMPDEST PUSH1 0x0 DUP1 REVERT INVALID PUSH1 0xC0 DUP1 PUSH1 0x40 MSTORE PUSH1 0x4 CALLDATASIZE LT ISZERO PUSH2 0x13 JUMPI PUSH1 0x0 DUP1 REVERT JUMPDEST PUSH1 0x0 CALLDATALOAD PUSH1 0xE0 SHR SWAP1 DUP2 PUSH4 0xA49CF4D EQ PUSH2 0x2170 JUMPI POP DUP1 PUSH4 0xD0B2CA6 EQ PUSH2 0x2151 JUMPI DUP1 PUSH4 0x34855D14 EQ PUSH2 0x2134 JUMPI DUP1 PUSH4 0x3CDB72F1 EQ PUSH2 0x20EA JUMPI DUP1 PUSH4 0x3F4BA83A EQ PUSH2 0x2078 JUMPI DUP1 PUSH4 0x4197DD5F EQ PUSH2 0x1DA7 JUMPI DUP1 PUSH4 0x46904840 EQ PUSH2 0x1D7E JUMPI DUP1 PUSH4 0x476343EE EQ PUSH2 0x1CFF JUMPI DUP1 PUSH4 0x58F85880 EQ PUSH2 0x1CE1 JUMPI DUP1 PUSH4 0x5C975ABB EQ PUSH2 0x1CBB JUMPI DUP1 PUSH4 0x6EEF1154 EQ PUSH2 0x1C7C JUMPI DUP1 PUSH4 0x715018A6 EQ PUSH2 0x1C1F JUMPI DUP1 PUSH4 0x75794A3C EQ PUSH2 0x1C01 JUMPI DUP1 PUSH4 0x7A9FFFB7 EQ PUSH2 0x1BE5 JUMPI DUP1 PUSH4 0x80BB7273 EQ PUSH2 0x1B6A JUMPI DUP1 PUSH4 0x8456CB59 EQ PUSH2 0x1B08 JUMPI DUP1 PUSH4 0x846B909A EQ PUSH2 0x1862 JUMPI DUP1 PUSH4 0x87C51459 EQ PUSH2 0x1844 JUMPI DUP1 PUSH4 0x89D99A05 EQ PUSH2 0x1826 JUMPI DUP1 PUSH4 0x8DA5CB5B EQ PUSH2 0x17FD JUMPI DUP1 PUSH4 0x9003ADFE EQ PUSH2 0x17DF JUMPI DUP1 PUSH4 0x9772D7EE EQ PUSH2 0x16D5 JUMPI DUP1 PUSH4 0xAB7B1C89 EQ PUSH2 0x12FA JUMPI DUP1 PUSH4 0xBAD128B6 EQ PUSH2 0x11E6 JUMPI DUP1 PUSH4 0xBDBFA3DE EQ PUSH2 0x10CA JUMPI DUP1 PUSH4 0xC49785B4 EQ PUSH2 0xD83 JUMPI DUP1 PUSH4 0xC6255626 EQ PUSH2 0xCF5 JUMPI DUP1 PUSH4 0xC7A6DE4D EQ PUSH2 0xC9C JUMPI DUP1 PUSH4 0xDA69DD59 EQ PUSH2 0x474 JUMPI DUP1 PUSH4 0xE1EC3C68 EQ PUSH2 0x327 JUMPI DUP1 PUSH4 0xE3ED1902 EQ PUSH2 0x2CF JUMPI DUP1 PUSH4 0xEC991DA9 EQ PUSH2 0x21D JUMPI PUSH4 0xF2FDE38B EQ PUSH2 0x18A JUMPI PUSH1 0x0 DUP1 REVERT JUMPDEST CALLVALUE PUSH2 0x218 JUMPI PUSH1 0x20 CALLDATASIZE PUSH1 0x3 NOT ADD SLT PUSH2 0x218 JUMPI PUSH2 0x1A3 PUSH2 0x218B JUMP JUMPDEST PUSH2 0x1AB PUSH2 0x2374 JUMP JUMPDEST PUSH1 0x1 PUSH1 0x1 PUSH1 0xA0 SHL SUB SWAP1 DUP2 AND SWAP1 DUP2 ISZERO PUSH2 0x1FF JUMPI PUSH1 0x1 SLOAD DUP3 PUSH12 0xFFFFFFFFFFFFFFFFFFFFFFFF PUSH1 0xA0 SHL DUP3 AND OR PUSH1 0x1 SSTORE AND PUSH32 0x8BE0079C531659141344CD1FD0A4F28419497F9722A3DAAFE3B4186F6B6457E0 PUSH1 0x0 DUP1 LOG3 STOP JUMPDEST PUSH1 0x40 MLOAD PUSH4 0x1E4FBDF7 PUSH1 0xE0 SHL DUP2 MSTORE PUSH1 0x0 PUSH1 0x4 DUP3 ADD MSTORE PUSH1 0x24 SWAP1 REVERT JUMPDEST PUSH1 0x0 DUP1 REVERT JUMPDEST CALLVALUE PUSH2 0x218 JUMPI PUSH1 0x20 CALLDATASIZE PUSH1 0x3 NOT ADD SLT PUSH2 0x218 JUMPI PUSH1 0x4 CALLDATALOAD PUSH2 0x239 PUSH2 0x2374 JUMP JUMPDEST DUP1 PUSH1 0x0 MSTORE PUSH1 0x8 PUSH1 0x20 MSTORE PUSH1 0xFF PUSH1 0x2 PUSH1 0x40 PUSH1 0x0 KECCAK256 ADD SLOAD PUSH1 0x8 SHR AND ISZERO PUSH2 0x297 JUMPI DUP1 PUSH1 0x0 MSTORE PUSH1 0x8 PUSH1 0x20 MSTORE PUSH1 0x2 PUSH1 0x40 PUSH1 0x0 KECCAK256 ADD PUSH2 0xFF00 NOT DUP2 SLOAD AND SWAP1 SSTORE PUSH32 0x76AE93CD7712C8A8B4BA0C1B9F441DDBD9E9CE3E425A93B15E8F6E37D8784FA6 PUSH1 0x0 DUP1 LOG2 STOP JUMPDEST PUSH1 0x40 MLOAD PUSH3 0x461BCD PUSH1 0xE5 SHL DUP2 MSTORE PUSH1 0x20 PUSH1 0x4 DUP3 ADD MSTORE PUSH1 0x10 PUSH1 0x24 DUP3 ADD MSTORE PUSH16 0x546F6B656E206E6F7420616374697665 PUSH1 0x80 SHL PUSH1 0x44 DUP3 ADD MSTORE PUSH1 0x64 SWAP1 REVERT JUMPDEST CALLVALUE PUSH2 0x218 JUMPI PUSH1 0x40 CALLDATASIZE PUSH1 0x3 NOT ADD SLT PUSH2 0x218 JUMPI PUSH2 0x2E8 PUSH2 0x218B JUMP JUMPDEST PUSH1 0x1 PUSH1 0x1 PUSH1 0xA0 SHL SUB AND PUSH1 0x0 SWAP1 DUP2 MSTORE PUSH1 0x9 PUSH1 0x20 MSTORE PUSH1 0x40 SWAP1 KECCAK256 DUP1 SLOAD PUSH1 0x24 CALLDATALOAD SWAP2 SWAP1 DUP3 LT ISZERO PUSH2 0x218 JUMPI PUSH1 0x20 SWAP2 PUSH2 0x319 SWAP2 PUSH2 0x21A1 JUMP JUMPDEST SWAP1 SLOAD PUSH1 0x40 MLOAD SWAP2 PUSH1 0x3 SHL SHR DUP2 MSTORE RETURN JUMPDEST CALLVALUE PUSH2 0x218 JUMPI PUSH1 0x20 CALLDATASIZE PUSH1 0x3 NOT ADD SLT PUSH2 0x218 JUMPI PUSH1 0x4 CALLDATALOAD PUSH1 0x0 MSTORE PUSH1 0x7 PUSH1 0x20 MSTORE PUSH1 0x40 PUSH1 0x0 KECCAK256 DUP1 SLOAD PUSH1 0x80 MSTORE PUSH1 0x1 PUSH1 0xA0 SHL PUSH1 0x1 SWAP1 SUB DUP1 PUSH1 0x1 DUP4 ADD SLOAD AND SWAP1 PUSH1 0x2 DUP4 ADD SLOAD AND DUP3 PUSH1 0x3 DUP2 ADD SLOAD PUSH1 0x4 DUP3 ADD SLOAD PUSH1 0x5 DUP4 ADD SLOAD PUSH1 0x6 DUP5 ADD SLOAD PUSH1 0x7 DUP6 ADD SLOAD PUSH1 0x8 DUP7 ADD SLOAD SWAP2 PUSH1 0x9 DUP8 ADD SLOAD SWAP4 PUSH1 0xA DUP9 ADD SLOAD SWAP6 PUSH1 0xB DUP10 ADD SLOAD SWAP8 PUSH1 0xC DUP11 ADD SLOAD PUSH1 0xFF AND SWAP11 PUSH1 0xD DUP12 ADD PUSH2 0x3AC SWAP1 PUSH2 0x228E JUMP JUMPDEST SWAP11 PUSH1 0xE ADD SLOAD SWAP14 PUSH1 0xF ADD SLOAD PUSH1 0xFF AND SWAP13 PUSH1 0x40 MLOAD DUP1 PUSH1 0xA0 MSTORE PUSH1 0x80 MLOAD SWAP1 MSTORE PUSH1 0xA0 MLOAD PUSH1 0x20 ADD MSTORE PUSH1 0xA0 MLOAD PUSH1 0x40 ADD MSTORE PUSH1 0xA0 MLOAD PUSH1 0x60 ADD MSTORE PUSH1 0xA0 MLOAD PUSH1 0x80 ADD MSTORE PUSH1 0xA0 MLOAD PUSH1 0xA0 ADD MSTORE PUSH1 0xA0 MLOAD PUSH1 0xC0 ADD MSTORE PUSH1 0xA0 MLOAD PUSH1 0xE0 ADD MSTORE PUSH1 0xA0 MLOAD PUSH2 0x100 ADD MSTORE PUSH1 0xA0 MLOAD PUSH2 0x120 ADD MSTORE PUSH1 0xA0 MLOAD PUSH2 0x140 ADD MSTORE PUSH1 0xA0 MLOAD PUSH2 0x160 ADD MSTORE PUSH1 0x6 DUP3 LT ISZERO PUSH2 0x45E JUMPI PUSH2 0x442 SWAP2 PUSH2 0x180 PUSH1 0xA0 MLOAD ADD MSTORE PUSH2 0x200 DUP1 PUSH2 0x1A0 PUSH1 0xA0 MLOAD ADD MSTORE PUSH1 0xA0 MLOAD ADD SWAP1 PUSH2 0x2334 JUMP JUMPDEST SWAP2 PUSH2 0x1C0 PUSH1 0xA0 MLOAD ADD MSTORE ISZERO ISZERO PUSH2 0x1E0 PUSH1 0xA0 MLOAD ADD MSTORE PUSH1 0xA0 MLOAD DUP1 SWAP2 SUB SWAP1 RETURN JUMPDEST PUSH4 0x4E487B71 PUSH1 0xE0 SHL PUSH1 0x0 MSTORE PUSH1 0x21 PUSH1 0x4 MSTORE PUSH1 0x24 PUSH1 0x0 REVERT JUMPDEST PUSH1 0xC0 CALLDATASIZE PUSH1 0x3 NOT ADD SLT PUSH2 0x218 JUMPI PUSH1 0xA4 CALLDATALOAD PUSH8 0xFFFFFFFFFFFFFFFF DUP2 GT PUSH2 0x218 JUMPI PUSH2 0x4A0 SWAP1 CALLDATASIZE SWAP1 PUSH1 0x4 ADD PUSH2 0x220D JUMP JUMPDEST PUSH2 0x4A8 PUSH2 0x2510 JUMP JUMPDEST PUSH2 0x4B0 PUSH2 0x24EF JUMP JUMPDEST PUSH1 0x44 CALLDATALOAD ISZERO PUSH2 0xC57 JUMPI PUSH2 0xBB8 PUSH1 0x64 CALLDATALOAD GT PUSH2 0xC19 JUMPI PUSH3 0x15180 PUSH1 0x84 CALLDATALOAD LT ISZERO DUP1 PUSH2 0xC09 JUMPI JUMPDEST ISZERO PUSH2 0xBD1 JUMPI PUSH1 0x4 CALLDATALOAD PUSH1 0x0 MSTORE PUSH1 0x8 PUSH1 0x20 MSTORE PUSH1 0xFF PUSH1 0x2 PUSH1 0x40 PUSH1 0x0 KECCAK256 ADD SLOAD PUSH1 0x8 SHR AND ISZERO PUSH2 0xB96 JUMPI PUSH1 0x24 CALLDATALOAD PUSH1 0x0 MSTORE PUSH1 0x8 PUSH1 0x20 MSTORE PUSH1 0xFF PUSH1 0x2 PUSH1 0x40 PUSH1 0x0 KECCAK256 ADD SLOAD PUSH1 0x8 SHR AND ISZERO PUSH2 0xB51 JUMPI DUP1 MLOAD ISZERO PUSH2 0xB17 JUMPI CALLER PUSH1 0x0 MSTORE PUSH1 0xB PUSH1 0x20 MSTORE PUSH1 0x40 PUSH1 0x0 KECCAK256 PUSH2 0x12C DUP2 SLOAD LT SWAP1 DUP2 ISZERO SWAP2 PUSH2 0xB0A JUMPI JUMPDEST POP ISZERO PUSH2 0xACE JUMPI PUSH1 0x44 CALLDATALOAD PUSH1 0x96 PUSH1 0x44 CALLDATALOAD MUL DIV PUSH1 0x96 SUB PUSH2 0xAB8 JUMPI PUSH1 0x24 CALLDATALOAD PUSH1 0x0 MSTORE PUSH1 0x8 PUSH1 0x20 MSTORE PUSH1 0xFF PUSH1 0x40 PUSH1 0x0 KECCAK256 SLOAD AND PUSH1 0x2 DUP2 LT ISZERO PUSH2 0x45E JUMPI PUSH2 0x96D JUMPI PUSH1 0x64 PUSH1 0x96 PUSH1 0x44 CALLDATALOAD MUL DIV CALLVALUE LT PUSH2 0x928 JUMPI JUMPDEST PUSH1 0x2 SLOAD SWAP1 PUSH2 0x58E DUP3 PUSH2 0x23A0 JUMP JUMPDEST PUSH1 0x2 SSTORE PUSH1 0x24 CALLDATALOAD PUSH1 0x0 MSTORE PUSH1 0x8 PUSH1 0x20 MSTORE PUSH1 0xFF PUSH1 0x40 PUSH1 0x0 KECCAK256 SLOAD AND PUSH1 0x2 DUP2 LT ISZERO PUSH2 0x45E JUMPI PUSH2 0x91A JUMPI CALLVALUE JUMPDEST PUSH1 0x40 MLOAD SWAP1 DUP2 PUSH2 0x200 DUP2 ADD LT PUSH8 0xFFFFFFFFFFFFFFFF PUSH2 0x200 DUP5 ADD GT OR PUSH2 0x904 JUMPI PUSH2 0x200 DUP3 ADD PUSH1 0x40 MSTORE DUP4 DUP3 MSTORE CALLER PUSH1 0x20 DUP4 ADD MSTORE PUSH1 0x0 PUSH1 0x40 DUP4 ADD MSTORE PUSH1 0x4 CALLDATALOAD PUSH1 0x60 DUP4 ADD MSTORE PUSH1 0x24 CALLDATALOAD PUSH1 0x80 DUP4 ADD MSTORE PUSH1 0x44 CALLDATALOAD PUSH1 0xA0 DUP4 ADD MSTORE PUSH1 0xC0 DUP3 ADD MSTORE PUSH1 0x64 CALLDATALOAD PUSH1 0xE0 DUP3 ADD MSTORE PUSH1 0x84 CALLDATALOAD PUSH2 0x100 DUP3 ADD MSTORE TIMESTAMP PUSH2 0x120 DUP3 ADD MSTORE PUSH1 0x0 PUSH2 0x140 DUP3 ADD MSTORE PUSH1 0x0 PUSH2 0x160 DUP3 ADD MSTORE PUSH1 0x0 PUSH2 0x180 DUP3 ADD MSTORE DUP2 PUSH2 0x1A0 DUP3 ADD MSTORE PUSH1 0x0 PUSH2 0x1C0 DUP3 ADD MSTORE PUSH1 0x0 PUSH2 0x1E0 DUP3 ADD MSTORE DUP3 PUSH1 0x0 MSTORE PUSH1 0x7 PUSH1 0x20 MSTORE PUSH1 0x40 PUSH1 0x0 KECCAK256 SWAP1 DUP1 MLOAD DUP3 SSTORE PUSH1 0x1 DUP3 ADD PUSH1 0x1 DUP1 PUSH1 0xA0 SHL SUB SWAP1 DUP2 PUSH1 0x20 DUP5 ADD MLOAD AND SWAP1 PUSH12 0xFFFFFFFFFFFFFFFFFFFFFFFF PUSH1 0xA0 SHL SWAP2 DUP3 DUP3 SLOAD AND OR SWAP1 SSTORE PUSH1 0x2 DUP5 ADD SWAP2 PUSH1 0x40 DUP5 ADD MLOAD AND SWAP1 DUP3 SLOAD AND OR SWAP1 SSTORE PUSH1 0x60 DUP2 ADD MLOAD PUSH1 0x3 DUP4 ADD SSTORE PUSH1 0x80 DUP2 ADD MLOAD PUSH1 0x4 DUP4 ADD SSTORE PUSH1 0xA0 DUP2 ADD MLOAD PUSH1 0x5 DUP4 ADD SSTORE PUSH1 0xC0 DUP2 ADD MLOAD PUSH1 0x6 DUP4 ADD SSTORE PUSH1 0xE0 DUP2 ADD MLOAD PUSH1 0x7 DUP4 ADD SSTORE PUSH2 0x100 DUP2 ADD MLOAD PUSH1 0x8 DUP4 ADD SSTORE PUSH2 0x120 DUP2 ADD MLOAD PUSH1 0x9 DUP4 ADD SSTORE PUSH2 0x140 DUP2 ADD MLOAD PUSH1 0xA DUP4 ADD SSTORE PUSH2 0x160 DUP2 ADD MLOAD PUSH1 0xB DUP4 ADD SSTORE PUSH1 0xC DUP3 ADD PUSH2 0x180 DUP3 ADD MLOAD PUSH1 0x6 DUP2 LT ISZERO PUSH2 0x45E JUMPI PUSH1 0xFF DUP1 NOT DUP4 SLOAD AND SWAP2 AND OR SWAP1 SSTORE PUSH2 0x1A0 DUP2 ADD MLOAD DUP1 MLOAD SWAP1 PUSH8 0xFFFFFFFFFFFFFFFF DUP3 GT PUSH2 0x904 JUMPI PUSH2 0x742 PUSH1 0xD DUP6 ADD SLOAD PUSH2 0x2254 JUMP JUMPDEST PUSH1 0x1F DUP2 GT PUSH2 0x8BD JUMPI JUMPDEST POP PUSH1 0x20 SWAP1 PUSH1 0x1F DUP4 GT PUSH1 0x1 EQ PUSH2 0x843 JUMPI SWAP3 DUP3 PUSH1 0xF SWAP4 PUSH2 0x1E0 SWAP4 PUSH2 0x7AA SWAP8 SWAP7 PUSH1 0x0 SWAP3 PUSH2 0x838 JUMPI JUMPDEST POP POP DUP2 PUSH1 0x1 SHL SWAP2 PUSH1 0x0 NOT SWAP1 PUSH1 0x3 SHL SHR NOT AND OR PUSH1 0xD DUP6 ADD SSTORE JUMPDEST PUSH2 0x1C0 DUP2 ADD MLOAD PUSH1 0xE DUP6 ADD SSTORE ADD MLOAD ISZERO ISZERO SWAP2 ADD SWAP1 PUSH1 0xFF DUP1 NOT DUP4 SLOAD AND SWAP2 ISZERO ISZERO AND OR SWAP1 SSTORE JUMP JUMPDEST CALLER PUSH1 0x0 MSTORE PUSH1 0x9 PUSH1 0x20 MSTORE PUSH2 0x7C1 DUP3 PUSH1 0x40 PUSH1 0x0 KECCAK256 PUSH2 0x2404 JUMP JUMPDEST DUP2 PUSH1 0x0 MSTORE PUSH1 0x7 PUSH1 0x20 MSTORE PUSH1 0x6 PUSH1 0x40 PUSH1 0x0 KECCAK256 ADD SLOAD SWAP2 PUSH1 0x40 MLOAD SWAP3 PUSH1 0x44 CALLDATALOAD DUP5 MSTORE PUSH1 0x20 DUP5 ADD MSTORE PUSH1 0x64 CALLDATALOAD PUSH1 0x40 DUP5 ADD MSTORE PUSH1 0x84 CALLDATALOAD PUSH1 0x60 DUP5 ADD MSTORE PUSH1 0xA0 PUSH1 0x80 DUP5 ADD MSTORE PUSH32 0x5CB01012DBDED0C72D8576B4AEF55D60D8E2824466AC6F54F7822CC1DDB6AF3 PUSH1 0x4 CALLDATALOAD SWAP4 DUP1 PUSH2 0x82E CALLER SWAP6 PUSH1 0xA0 DUP4 ADD SWAP1 PUSH2 0x2334 JUMP JUMPDEST SUB SWAP1 LOG4 PUSH1 0x1 PUSH1 0x0 SSTORE STOP JUMPDEST ADD MLOAD SWAP1 POP DUP10 DUP1 PUSH2 0x770 JUMP JUMPDEST SWAP1 PUSH1 0xD DUP6 ADD PUSH1 0x0 MSTORE PUSH1 0x20 PUSH1 0x0 KECCAK256 SWAP2 PUSH1 0x0 JUMPDEST PUSH1 0x1F NOT DUP6 AND DUP2 LT PUSH2 0x8A5 JUMPI POP DUP4 PUSH2 0x1E0 SWAP4 PUSH2 0x7AA SWAP8 SWAP7 SWAP4 PUSH1 0x1 SWAP4 PUSH1 0xF SWAP8 PUSH1 0x1F NOT DUP2 AND LT PUSH2 0x88C JUMPI JUMPDEST POP POP POP DUP2 SHL ADD PUSH1 0xD DUP6 ADD SSTORE PUSH2 0x788 JUMP JUMPDEST ADD MLOAD PUSH1 0x0 NOT PUSH1 0xF8 DUP5 PUSH1 0x3 SHL AND SHR NOT AND SWAP1 SSTORE DUP10 DUP1 DUP1 PUSH2 0x87C JUMP JUMPDEST SWAP2 SWAP3 PUSH1 0x20 PUSH1 0x1 DUP2 SWAP3 DUP7 DUP6 ADD MLOAD DUP2 SSTORE ADD SWAP5 ADD SWAP3 ADD PUSH2 0x854 JUMP JUMPDEST PUSH1 0xD DUP6 ADD PUSH1 0x0 MSTORE PUSH1 0x20 PUSH1 0x0 KECCAK256 PUSH1 0x1F DUP5 ADD PUSH1 0x5 SHR DUP2 ADD PUSH1 0x20 DUP6 LT PUSH2 0x8FD JUMPI JUMPDEST PUSH1 0x1F DUP4 ADD PUSH1 0x5 SHR DUP3 ADD DUP2 LT PUSH2 0x8F1 JUMPI POP POP PUSH2 0x74B JUMP JUMPDEST PUSH1 0x0 DUP2 SSTORE PUSH1 0x1 ADD PUSH2 0x8DB JUMP JUMPDEST POP DUP1 PUSH2 0x8DB JUMP JUMPDEST PUSH4 0x4E487B71 PUSH1 0xE0 SHL PUSH1 0x0 MSTORE PUSH1 0x41 PUSH1 0x4 MSTORE PUSH1 0x24 PUSH1 0x0 REVERT JUMPDEST PUSH1 0x64 PUSH1 0x96 PUSH1 0x44 CALLDATALOAD MUL DIV PUSH2 0x5B4 JUMP JUMPDEST PUSH1 0x40 MLOAD PUSH3 0x461BCD PUSH1 0xE5 SHL DUP2 MSTORE PUSH1 0x20 PUSH1 0x4 DUP3 ADD MSTORE PUSH1 0x1B PUSH1 0x24 DUP3 ADD MSTORE PUSH32 0x496E73756666696369656E742045544820636F6C6C61746572616C0000000000 PUSH1 0x44 DUP3 ADD MSTORE PUSH1 0x64 SWAP1 REVERT JUMPDEST CALLVALUE PUSH2 0xA67 JUMPI PUSH1 0x24 CALLDATALOAD PUSH1 0x0 MSTORE PUSH1 0x8 PUSH1 0x20 MSTORE PUSH1 0x1 DUP1 PUSH1 0xA0 SHL SUB PUSH1 0x40 PUSH1 0x0 KECCAK256 SLOAD PUSH1 0x8 SHR AND PUSH1 0x40 MLOAD PUSH4 0x70A08231 PUSH1 0xE0 SHL DUP2 MSTORE CALLER PUSH1 0x4 DUP3 ADD MSTORE PUSH1 0x20 DUP2 PUSH1 0x24 DUP2 DUP6 GAS STATICCALL SWAP1 DUP2 ISZERO PUSH2 0xA5B JUMPI PUSH1 0x0 SWAP2 PUSH2 0xA29 JUMPI JUMPDEST POP PUSH1 0x64 PUSH1 0x96 PUSH1 0x44 CALLDATALOAD MUL DIV GT PUSH2 0x9E4 JUMPI PUSH2 0x9DF SWAP1 PUSH1 0x64 PUSH1 0x96 PUSH1 0x44 CALLDATALOAD MUL DIV SWAP1 ADDRESS SWAP1 CALLER SWAP1 PUSH2 0x243E JUMP JUMPDEST PUSH2 0x581 JUMP JUMPDEST PUSH1 0x40 MLOAD PUSH3 0x461BCD PUSH1 0xE5 SHL DUP2 MSTORE PUSH1 0x20 PUSH1 0x4 DUP3 ADD MSTORE PUSH1 0x1A PUSH1 0x24 DUP3 ADD MSTORE PUSH32 0x496E73756666696369656E742045524332302062616C616E6365000000000000 PUSH1 0x44 DUP3 ADD MSTORE PUSH1 0x64 SWAP1 REVERT JUMPDEST SWAP1 POP PUSH1 0x20 DUP2 RETURNDATASIZE PUSH1 0x20 GT PUSH2 0xA53 JUMPI JUMPDEST DUP2 PUSH2 0xA44 PUSH1 0x20 SWAP4 DUP4 PUSH2 0x21CF JUMP JUMPDEST DUP2 ADD SUB SLT PUSH2 0x218 JUMPI MLOAD DUP4 PUSH2 0x9B9 JUMP JUMPDEST RETURNDATASIZE SWAP2 POP PUSH2 0xA37 JUMP JUMPDEST PUSH1 0x40 MLOAD RETURNDATASIZE PUSH1 0x0 DUP3 RETURNDATACOPY RETURNDATASIZE SWAP1 REVERT JUMPDEST PUSH1 0x40 MLOAD PUSH3 0x461BCD PUSH1 0xE5 SHL DUP2 MSTORE PUSH1 0x20 PUSH1 0x4 DUP3 ADD MSTORE PUSH1 0x23 PUSH1 0x24 DUP3 ADD MSTORE PUSH32 0x455448206E6F74206E656564656420666F7220455243323020636F6C6C617465 PUSH1 0x44 DUP3 ADD MSTORE PUSH3 0x1C985B PUSH1 0xEA SHL PUSH1 0x64 DUP3 ADD MSTORE PUSH1 0x84 SWAP1 REVERT JUMPDEST PUSH4 0x4E487B71 PUSH1 0xE0 SHL PUSH1 0x0 MSTORE PUSH1 0x11 PUSH1 0x4 MSTORE PUSH1 0x24 PUSH1 0x0 REVERT JUMPDEST PUSH1 0x40 MLOAD PUSH3 0x461BCD PUSH1 0xE5 SHL DUP2 MSTORE PUSH1 0x20 PUSH1 0x4 DUP3 ADD MSTORE PUSH1 0x14 PUSH1 0x24 DUP3 ADD MSTORE PUSH20 0x4372656469742073636F726520746F6F206C6F77 PUSH1 0x60 SHL PUSH1 0x44 DUP3 ADD MSTORE PUSH1 0x64 SWAP1 REVERT JUMPDEST PUSH1 0x1 SWAP2 POP ADD SLOAD ISZERO DUP3 PUSH2 0x539 JUMP JUMPDEST PUSH1 0x40 MLOAD PUSH3 0x461BCD PUSH1 0xE5 SHL DUP2 MSTORE PUSH1 0x20 PUSH1 0x4 DUP3 ADD MSTORE PUSH1 0x12 PUSH1 0x24 DUP3 ADD MSTORE PUSH18 0x12541194C81A185CDA081C995C5D5A5C9959 PUSH1 0x72 SHL PUSH1 0x44 DUP3 ADD MSTORE PUSH1 0x64 SWAP1 REVERT JUMPDEST PUSH1 0x40 MLOAD PUSH3 0x461BCD PUSH1 0xE5 SHL DUP2 MSTORE PUSH1 0x20 PUSH1 0x4 DUP3 ADD MSTORE PUSH1 0x1E PUSH1 0x24 DUP3 ADD MSTORE PUSH32 0x436F6C6C61746572616C20746F6B656E206E6F7420737570706F727465640000 PUSH1 0x44 DUP3 ADD MSTORE PUSH1 0x64 SWAP1 REVERT JUMPDEST PUSH1 0x40 MLOAD PUSH3 0x461BCD PUSH1 0xE5 SHL DUP2 MSTORE PUSH1 0x20 PUSH1 0x4 DUP3 ADD MSTORE PUSH1 0x13 PUSH1 0x24 DUP3 ADD MSTORE PUSH19 0x151BDAD95B881B9BDD081CDD5C1C1BDC9D1959 PUSH1 0x6A SHL PUSH1 0x44 DUP3 ADD MSTORE PUSH1 0x64 SWAP1 REVERT JUMPDEST PUSH1 0x40 MLOAD PUSH3 0x461BCD PUSH1 0xE5 SHL DUP2 MSTORE PUSH1 0x20 PUSH1 0x4 DUP3 ADD MSTORE PUSH1 0x10 PUSH1 0x24 DUP3 ADD MSTORE PUSH16 0x24B73B30B634B210323AB930BA34B7B7 PUSH1 0x81 SHL PUSH1 0x44 DUP3 ADD MSTORE PUSH1 0x64 SWAP1 REVERT JUMPDEST POP PUSH4 0x1E13380 PUSH1 0x84 CALLDATALOAD GT ISZERO PUSH2 0x4D2 JUMP JUMPDEST PUSH1 0x40 MLOAD PUSH3 0x461BCD PUSH1 0xE5 SHL DUP2 MSTORE PUSH1 0x20 PUSH1 0x4 DUP3 ADD MSTORE PUSH1 0x16 PUSH1 0x24 DUP3 ADD MSTORE PUSH22 0x92DCE8CAE4CAE6E840E4C2E8CA40E8DEDE40D0D2CED PUSH1 0x53 SHL PUSH1 0x44 DUP3 ADD MSTORE PUSH1 0x64 SWAP1 REVERT JUMPDEST PUSH1 0x40 MLOAD PUSH3 0x461BCD PUSH1 0xE5 SHL DUP2 MSTORE PUSH1 0x20 PUSH1 0x4 DUP3 ADD MSTORE PUSH1 0x1D PUSH1 0x24 DUP3 ADD MSTORE PUSH32 0x416D6F756E74206D7573742062652067726561746572207468616E2030000000 PUSH1 0x44 DUP3 ADD MSTORE PUSH1 0x64 SWAP1 REVERT JUMPDEST CALLVALUE PUSH2 0x218 JUMPI PUSH1 0x40 CALLDATASIZE PUSH1 0x3 NOT ADD SLT PUSH2 0x218 JUMPI PUSH2 0xCB5 PUSH2 0x218B JUMP JUMPDEST PUSH1 0x24 CALLDATALOAD DUP1 ISZERO ISZERO DUP2 SUB PUSH2 0x218 JUMPI PUSH2 0xCF3 SWAP2 PUSH2 0xCCD PUSH2 0x2374 JUMP JUMPDEST PUSH1 0x1 DUP1 PUSH1 0xA0 SHL SUB AND PUSH1 0x0 MSTORE PUSH1 0xC PUSH1 0x20 MSTORE PUSH1 0x40 PUSH1 0x0 KECCAK256 SWAP1 PUSH1 0xFF DUP1 NOT DUP4 SLOAD AND SWAP2 ISZERO ISZERO AND OR SWAP1 SSTORE JUMP JUMPDEST STOP JUMPDEST CALLVALUE PUSH2 0x218 JUMPI PUSH1 0x20 CALLDATASIZE PUSH1 0x3 NOT ADD SLT PUSH2 0x218 JUMPI PUSH1 0x4 CALLDATALOAD PUSH1 0x0 MSTORE PUSH1 0x8 PUSH1 0x20 MSTORE PUSH1 0x40 PUSH1 0x0 KECCAK256 DUP1 SLOAD SWAP1 PUSH1 0xFF DUP3 AND SWAP2 PUSH1 0x2 PUSH2 0xD2C PUSH1 0x1 DUP5 ADD PUSH2 0x228E JUMP JUMPDEST SWAP3 ADD SLOAD SWAP1 PUSH1 0x40 MLOAD SWAP4 PUSH1 0x2 DUP2 LT ISZERO PUSH2 0x45E JUMPI DUP5 MSTORE PUSH1 0x8 SHR PUSH1 0x1 PUSH1 0x1 PUSH1 0xA0 SHL SUB AND PUSH1 0x20 DUP5 ADD MSTORE PUSH1 0xA0 PUSH1 0x40 DUP5 ADD DUP2 SWAP1 MSTORE DUP4 SWAP3 PUSH1 0xFF SWAP2 PUSH2 0xD6B SWAP2 SWAP1 DUP6 ADD SWAP1 PUSH2 0x2334 JUMP JUMPDEST SWAP2 DUP2 DUP2 AND PUSH1 0x60 DUP6 ADD MSTORE PUSH1 0x8 SHR AND ISZERO ISZERO PUSH1 0x80 DUP4 ADD MSTORE SUB SWAP1 RETURN JUMPDEST CALLVALUE PUSH2 0x218 JUMPI PUSH1 0x20 DUP1 PUSH1 0x3 NOT CALLDATASIZE ADD SLT PUSH2 0x218 JUMPI PUSH1 0x4 CALLDATALOAD SWAP1 PUSH2 0xDA1 PUSH2 0x2510 JUMP JUMPDEST DUP2 PUSH1 0x0 MSTORE PUSH1 0x7 DUP2 MSTORE PUSH1 0x40 PUSH1 0x0 KECCAK256 SWAP1 PUSH1 0x2 DUP3 ADD PUSH1 0x1 DUP1 PUSH1 0xA0 SHL SUB SWAP1 DUP2 DUP2 SLOAD AND SWAP1 CALLER DUP3 SUB PUSH2 0x108D JUMPI PUSH1 0xC DUP6 ADD DUP1 SLOAD PUSH1 0xFF DUP2 AND PUSH1 0x6 DUP2 LT ISZERO PUSH2 0x45E JUMPI PUSH1 0x1 PUSH2 0xDE6 SWAP2 EQ PUSH2 0x2570 JUMP JUMPDEST PUSH1 0xB DUP8 ADD SLOAD TIMESTAMP GT ISZERO PUSH2 0x1055 JUMPI PUSH1 0xF DUP8 ADD SWAP2 DUP3 SLOAD SWAP1 PUSH1 0xFF DUP3 AND PUSH2 0x101E JUMPI PUSH1 0xFF NOT SWAP3 DUP4 AND PUSH1 0x3 OR SWAP1 SSTORE AND PUSH1 0x1 OR SWAP1 SSTORE PUSH1 0x4 DUP6 ADD SLOAD PUSH1 0x0 DUP2 DUP2 MSTORE PUSH1 0x8 DUP7 MSTORE PUSH1 0x40 SWAP1 KECCAK256 SLOAD PUSH1 0xFF AND SWAP3 SWAP1 PUSH1 0x2 DUP5 LT ISZERO PUSH2 0x45E JUMPI DUP5 SWAP4 PUSH2 0xFF3 JUMPI POP POP PUSH1 0x0 DUP1 DUP1 SWAP4 DUP2 SWAP4 SLOAD AND PUSH1 0x6 DUP9 ADD SLOAD SWAP1 GAS CALL PUSH2 0xE55 PUSH2 0x2540 JUMP JUMPDEST POP ISZERO PUSH2 0xFAE JUMPI JUMPDEST PUSH1 0x1 DUP4 ADD SLOAD AND SWAP2 DUP3 PUSH1 0x0 MSTORE PUSH1 0xB DUP3 MSTORE PUSH1 0x40 PUSH1 0x0 KECCAK256 SWAP3 PUSH1 0x1 DUP5 ADD PUSH2 0xE85 DUP2 SLOAD DUP1 ISZERO PUSH2 0xFA4 JUMPI PUSH2 0x23A0 JUMP JUMPDEST SWAP1 SSTORE TIMESTAMP PUSH1 0x6 DUP6 ADD SSTORE PUSH1 0x3 DUP5 ADD PUSH2 0xE9B DUP2 SLOAD PUSH2 0x23A0 JUMP JUMPDEST SWAP1 SSTORE DUP4 SLOAD SWAP4 PUSH1 0x32 DUP6 GT ISZERO PUSH2 0xF54 JUMPI PUSH1 0x31 NOT DUP6 ADD SWAP5 DUP6 GT PUSH2 0xAB8 JUMPI DUP4 PUSH32 0x79C012A0CFAE660E09134956BC432C8497EC80E86A3A108D130E8B3FCA52B3AD SWAP2 PUSH32 0x1F088C41722AD237885281D65D2FF9FB69DB65CA083E2760E3D1B4788748AA57 SWAP7 PUSH2 0x12C SWAP1 DUP2 DUP2 LT PUSH1 0x0 EQ PUSH2 0xF4D JUMPI POP JUMPDEST DUP1 SWAP2 JUMPDEST SSTORE PUSH1 0x40 MLOAD SWAP1 DUP2 MSTORE LOG2 PUSH1 0x6 PUSH1 0x40 MLOAD SWAP2 DUP6 PUSH32 0x789B7097E8066538CFAA1132488B132E14BA5F0C938C8B7AAF8CF40356AAB0B PUSH1 0x0 DUP1 LOG2 ADD SLOAD DUP2 MSTORE LOG2 PUSH1 0x1 PUSH1 0x0 SSTORE STOP JUMPDEST SWAP1 POP PUSH2 0xF0A JUMP JUMPDEST PUSH32 0x1F088C41722AD237885281D65D2FF9FB69DB65CA083E2760E3D1B4788748AA57 SWAP5 POP DUP4 PUSH32 0x79C012A0CFAE660E09134956BC432C8497EC80E86A3A108D130E8B3FCA52B3AD SWAP2 PUSH2 0x12C DUP1 SWAP2 PUSH2 0xF0D JUMP JUMPDEST PUSH2 0x23F DUP8 SSTORE PUSH2 0x23A0 JUMP JUMPDEST PUSH1 0x40 MLOAD PUSH3 0x461BCD PUSH1 0xE5 SHL DUP2 MSTORE PUSH1 0x4 DUP2 ADD DUP4 SWAP1 MSTORE PUSH1 0x1A PUSH1 0x24 DUP3 ADD MSTORE PUSH32 0x436F6C6C61746572616C207472616E73666572206661696C6564000000000000 PUSH1 0x44 DUP3 ADD MSTORE PUSH1 0x64 SWAP1 REVERT JUMPDEST SWAP1 SWAP2 POP PUSH2 0x1019 SWAP3 POP PUSH1 0x0 MSTORE PUSH1 0x8 DUP5 MSTORE DUP3 PUSH1 0x40 PUSH1 0x0 KECCAK256 SLOAD PUSH1 0x8 SHR AND SWAP1 PUSH1 0x6 DUP7 ADD SLOAD SWAP2 PUSH2 0x25BB JUMP JUMPDEST PUSH2 0xE5C JUMP JUMPDEST PUSH1 0x40 MLOAD PUSH3 0x461BCD PUSH1 0xE5 SHL DUP2 MSTORE PUSH1 0x4 DUP2 ADD DUP10 SWAP1 MSTORE PUSH1 0xF PUSH1 0x24 DUP3 ADD MSTORE PUSH15 0x105B1C9958591E4818DB185A5B5959 PUSH1 0x8A SHL PUSH1 0x44 DUP3 ADD MSTORE PUSH1 0x64 SWAP1 REVERT JUMPDEST PUSH1 0x40 MLOAD PUSH3 0x461BCD PUSH1 0xE5 SHL DUP2 MSTORE PUSH1 0x4 DUP2 ADD DUP8 SWAP1 MSTORE PUSH1 0x10 PUSH1 0x24 DUP3 ADD MSTORE PUSH16 0x131BD85B881B9BDD08195E1C1A5C9959 PUSH1 0x82 SHL PUSH1 0x44 DUP3 ADD MSTORE PUSH1 0x64 SWAP1 REVERT JUMPDEST PUSH1 0x40 MLOAD PUSH3 0x461BCD PUSH1 0xE5 SHL DUP2 MSTORE PUSH1 0x4 DUP2 ADD DUP6 SWAP1 MSTORE PUSH1 0x15 PUSH1 0x24 DUP3 ADD MSTORE PUSH21 0x4F6E6C79206C656E6465722063616E20636C61696D PUSH1 0x58 SHL PUSH1 0x44 DUP3 ADD MSTORE PUSH1 0x64 SWAP1 REVERT JUMPDEST CALLVALUE PUSH2 0x218 JUMPI PUSH1 0x20 CALLDATASIZE PUSH1 0x3 NOT ADD SLT PUSH2 0x218 JUMPI PUSH1 0x4 CALLDATALOAD PUSH2 0x10E6 PUSH2 0x2510 JUMP JUMPDEST PUSH1 0x0 DUP2 DUP2 MSTORE PUSH1 0x7 PUSH1 0x20 MSTORE PUSH1 0x40 SWAP1 KECCAK256 PUSH1 0x1 DUP2 ADD SLOAD PUSH1 0x1 PUSH1 0x1 PUSH1 0xA0 SHL SUB AND CALLER SUB PUSH2 0x11A1 JUMPI PUSH1 0xC ADD DUP1 SLOAD PUSH1 0xFF DUP2 AND PUSH1 0x6 DUP2 LT ISZERO PUSH2 0x45E JUMPI PUSH2 0x115C JUMPI PUSH1 0xFF NOT AND PUSH1 0x4 OR SWAP1 SSTORE PUSH2 0x1130 DUP2 PUSH2 0x260B JUMP JUMPDEST PUSH32 0xB71BECC91961A6B43BCC5B3B630F3DCE02C7FD444CF3738C4F188062B1CAF5BC PUSH1 0x0 DUP1 LOG2 PUSH1 0x1 PUSH1 0x0 SSTORE STOP JUMPDEST PUSH1 0x40 MLOAD PUSH3 0x461BCD PUSH1 0xE5 SHL DUP2 MSTORE PUSH1 0x20 PUSH1 0x4 DUP3 ADD MSTORE PUSH1 0x1E PUSH1 0x24 DUP3 ADD MSTORE PUSH32 0x43616E206F6E6C792063616E63656C20756E66756E646564206C6F616E730000 PUSH1 0x44 DUP3 ADD MSTORE PUSH1 0x64 SWAP1 REVERT JUMPDEST PUSH1 0x40 MLOAD PUSH3 0x461BCD PUSH1 0xE5 SHL DUP2 MSTORE PUSH1 0x20 PUSH1 0x4 DUP3 ADD MSTORE PUSH1 0x18 PUSH1 0x24 DUP3 ADD MSTORE PUSH32 0x4F6E6C7920626F72726F7765722063616E2063616E63656C0000000000000000 PUSH1 0x44 DUP3 ADD MSTORE PUSH1 0x64 SWAP1 REVERT JUMPDEST CALLVALUE PUSH2 0x218 JUMPI PUSH1 0x40 CALLDATASIZE PUSH1 0x3 NOT ADD SLT PUSH2 0x218 JUMPI PUSH1 0x4 CALLDATALOAD PUSH1 0x24 CALLDATALOAD CALLER PUSH1 0x0 MSTORE PUSH1 0x20 SWAP1 PUSH1 0xC DUP3 MSTORE PUSH1 0xFF PUSH1 0x40 PUSH1 0x0 KECCAK256 SLOAD AND ISZERO PUSH2 0x12BD JUMPI PUSH2 0x3E8 DUP2 GT PUSH2 0x1283 JUMPI PUSH1 0x0 DUP4 DUP2 MSTORE PUSH1 0x7 DUP4 MSTORE PUSH1 0x40 SWAP1 KECCAK256 PUSH1 0x1 ADD SLOAD PUSH32 0x48ADB4ACAE9076E27F3DD76AAE95808BB8F40CAF101B9D074B3B89E67602CC4F SWAP3 SWAP2 SWAP1 PUSH2 0x1268 SWAP1 PUSH1 0x1 PUSH1 0x1 PUSH1 0xA0 SHL SUB AND ISZERO ISZERO PUSH2 0x23AF JUMP JUMPDEST DUP4 PUSH1 0x0 MSTORE PUSH1 0x7 DUP3 MSTORE DUP1 PUSH1 0xE PUSH1 0x40 PUSH1 0x0 KECCAK256 ADD SSTORE PUSH1 0x40 MLOAD SWAP1 DUP2 MSTORE LOG2 STOP JUMPDEST PUSH1 0x40 MLOAD PUSH3 0x461BCD PUSH1 0xE5 SHL DUP2 MSTORE PUSH1 0x4 DUP2 ADD DUP4 SWAP1 MSTORE PUSH1 0x12 PUSH1 0x24 DUP3 ADD MSTORE PUSH18 0x496E76616C6964207269736B2073636F7265 PUSH1 0x70 SHL PUSH1 0x44 DUP3 ADD MSTORE PUSH1 0x64 SWAP1 REVERT JUMPDEST PUSH1 0x40 MLOAD PUSH3 0x461BCD PUSH1 0xE5 SHL DUP2 MSTORE PUSH1 0x4 DUP2 ADD DUP4 SWAP1 MSTORE PUSH1 0x15 PUSH1 0x24 DUP3 ADD MSTORE PUSH21 0x4E6F7420617574686F72697A6564206F7261636C65 PUSH1 0x58 SHL PUSH1 0x44 DUP3 ADD MSTORE PUSH1 0x64 SWAP1 REVERT JUMPDEST PUSH1 0x20 DUP1 PUSH1 0x3 NOT CALLDATASIZE ADD SLT PUSH2 0x218 JUMPI PUSH1 0x4 CALLDATALOAD SWAP1 PUSH2 0x1313 PUSH2 0x2510 JUMP JUMPDEST DUP2 PUSH1 0x0 MSTORE PUSH1 0x7 DUP2 MSTORE PUSH1 0x40 PUSH1 0x0 KECCAK256 SWAP1 PUSH1 0x1 DUP3 ADD PUSH1 0x1 DUP1 PUSH1 0xA0 SHL SUB SWAP1 DUP2 DUP2 SLOAD AND CALLER SUB PUSH2 0x1690 JUMPI PUSH1 0xC DUP5 ADD DUP1 SLOAD SWAP5 PUSH1 0xFF DUP7 AND PUSH1 0x6 DUP2 LT ISZERO PUSH2 0x45E JUMPI PUSH1 0x1 PUSH2 0x1357 SWAP2 EQ PUSH2 0x2570 JUMP JUMPDEST PUSH1 0xB DUP2 ADD SLOAD TIMESTAMP GT PUSH2 0x165C JUMPI PUSH1 0x5 DUP2 ADD SLOAD SWAP2 PUSH2 0x2710 SWAP1 PUSH1 0x2 PUSH2 0x13A9 DUP4 PUSH2 0x1380 PUSH1 0x7 DUP8 ADD SLOAD DUP9 PUSH2 0x23F1 JUMP JUMPDEST DIV SWAP4 PUSH2 0x138E PUSH1 0x4 SLOAD DUP7 PUSH2 0x23F1 JUMP JUMPDEST DIV SWAP4 PUSH2 0x13A3 DUP6 PUSH2 0x139E DUP4 DUP11 PUSH2 0x2533 JUMP JUMPDEST PUSH2 0x25AE JUMP JUMPDEST SWAP7 PUSH2 0x2533 JUMP JUMPDEST SWAP9 PUSH1 0xFF NOT AND OR SWAP1 SSTORE PUSH2 0x13BD DUP2 PUSH1 0x6 SLOAD PUSH2 0x2533 JUMP JUMPDEST PUSH1 0x6 SSTORE PUSH1 0x3 DUP3 ADD SLOAD DUP1 PUSH1 0x0 MSTORE PUSH1 0x8 DUP8 MSTORE PUSH1 0xFF PUSH1 0x40 PUSH1 0x0 KECCAK256 SLOAD AND PUSH1 0x2 DUP2 LT ISZERO PUSH2 0x45E JUMPI PUSH2 0x15B9 JUMPI POP POP DUP6 CALLVALUE LT PUSH2 0x157B JUMPI PUSH1 0x0 DUP1 DUP1 SWAP4 DUP7 PUSH1 0x2 DUP4 SWAP6 ADD SLOAD AND GAS CALL PUSH2 0x1403 PUSH2 0x2540 JUMP JUMPDEST POP ISZERO PUSH2 0x1536 JUMPI DUP4 CALLVALUE GT PUSH2 0x14DB JUMPI JUMPDEST PUSH2 0x141A DUP6 PUSH2 0x260B JUMP JUMPDEST SLOAD AND SWAP2 DUP3 PUSH1 0x0 MSTORE PUSH1 0xB DUP3 MSTORE PUSH1 0x40 PUSH1 0x0 KECCAK256 SWAP3 PUSH1 0x1 DUP5 ADD PUSH2 0x143F DUP2 SLOAD DUP1 ISZERO PUSH2 0xFA4 JUMPI PUSH2 0x23A0 JUMP JUMPDEST SWAP1 SSTORE TIMESTAMP PUSH1 0x6 DUP6 ADD SSTORE PUSH1 0x2 DUP5 ADD PUSH2 0x1455 DUP2 SLOAD PUSH2 0x23A0 JUMP JUMPDEST SWAP1 SSTORE DUP4 SLOAD SWAP4 PUSH1 0xA DUP6 ADD DUP1 SWAP6 GT PUSH2 0xAB8 JUMPI DUP4 PUSH32 0x79C012A0CFAE660E09134956BC432C8497EC80E86A3A108D130E8B3FCA52B3AD SWAP2 PUSH32 0x40CEE90EE4799897C30CA04E5FEB6FA43DBBA9B6D084B4B257CDAFD84BA013E SWAP7 PUSH2 0x352 SWAP1 DUP2 DUP2 GT PUSH1 0x0 EQ PUSH2 0x14D2 JUMPI POP DUP1 SWAP2 JUMPDEST SSTORE PUSH1 0x40 MLOAD SWAP1 DUP2 MSTORE LOG2 PUSH1 0x40 MLOAD SWAP1 DUP2 MSTORE LOG2 PUSH1 0x1 PUSH1 0x0 SSTORE STOP JUMPDEST SWAP1 POP DUP1 SWAP2 PUSH2 0x14BC JUMP JUMPDEST PUSH1 0x0 DUP1 DUP1 DUP1 PUSH2 0x14EA DUP9 CALLVALUE PUSH2 0x25AE JUMP JUMPDEST CALLER GAS CALL PUSH2 0x14F5 PUSH2 0x2540 JUMP JUMPDEST POP PUSH2 0x1411 JUMPI PUSH1 0x40 MLOAD PUSH3 0x461BCD PUSH1 0xE5 SHL DUP2 MSTORE PUSH1 0x4 DUP2 ADD DUP5 SWAP1 MSTORE PUSH1 0x14 PUSH1 0x24 DUP3 ADD MSTORE PUSH20 0x115E18D95CDCC81C995D1D5C9B8819985A5B1959 PUSH1 0x62 SHL PUSH1 0x44 DUP3 ADD MSTORE PUSH1 0x64 SWAP1 REVERT JUMPDEST PUSH1 0x40 MLOAD PUSH3 0x461BCD PUSH1 0xE5 SHL DUP2 MSTORE PUSH1 0x4 DUP2 ADD DUP5 SWAP1 MSTORE PUSH1 0x19 PUSH1 0x24 DUP3 ADD MSTORE PUSH32 0x5472616E7366657220746F206C656E646572206661696C656400000000000000 PUSH1 0x44 DUP3 ADD MSTORE PUSH1 0x64 SWAP1 REVERT JUMPDEST PUSH1 0x40 MLOAD PUSH3 0x461BCD PUSH1 0xE5 SHL DUP2 MSTORE PUSH1 0x4 DUP2 ADD DUP7 SWAP1 MSTORE PUSH1 0x16 PUSH1 0x24 DUP3 ADD MSTORE PUSH22 0x125B9CDD59999A58DA595B9D081C995C185E5B595B9D PUSH1 0x52 SHL PUSH1 0x44 DUP3 ADD MSTORE PUSH1 0x64 SWAP1 REVERT JUMPDEST SWAP3 SWAP1 SWAP2 SWAP3 CALLVALUE PUSH2 0x160C JUMPI SWAP1 PUSH2 0x15E7 SWAP2 PUSH1 0x0 MSTORE PUSH1 0x8 DUP8 MSTORE DUP6 PUSH1 0x2 DUP2 PUSH1 0x40 PUSH1 0x0 KECCAK256 SLOAD PUSH1 0x8 SHR AND SWAP6 ADD SLOAD AND CALLER DUP6 PUSH2 0x243E JUMP JUMPDEST DUP1 PUSH2 0x15F4 JUMPI JUMPDEST POP POP PUSH2 0x1411 JUMP JUMPDEST PUSH2 0x1605 SWAP2 DUP5 PUSH1 0x5 SLOAD AND SWAP1 CALLER SWAP1 PUSH2 0x243E JUMP JUMPDEST DUP6 DUP1 PUSH2 0x15ED JUMP JUMPDEST PUSH1 0x40 MLOAD PUSH3 0x461BCD PUSH1 0xE5 SHL DUP2 MSTORE PUSH1 0x4 DUP2 ADD DUP9 SWAP1 MSTORE PUSH1 0x22 PUSH1 0x24 DUP3 ADD MSTORE PUSH32 0x455448206E6F74206E656564656420666F722045524332302072657061796D65 PUSH1 0x44 DUP3 ADD MSTORE PUSH2 0x1B9D PUSH1 0xF2 SHL PUSH1 0x64 DUP3 ADD MSTORE PUSH1 0x84 SWAP1 REVERT JUMPDEST PUSH1 0x40 MLOAD PUSH3 0x461BCD PUSH1 0xE5 SHL DUP2 MSTORE PUSH1 0x4 DUP2 ADD DUP7 SWAP1 MSTORE PUSH1 0xC PUSH1 0x24 DUP3 ADD MSTORE PUSH12 0x131BD85B88195E1C1A5C9959 PUSH1 0xA2 SHL PUSH1 0x44 DUP3 ADD MSTORE PUSH1 0x64 SWAP1 REVERT JUMPDEST PUSH1 0x40 MLOAD PUSH3 0x461BCD PUSH1 0xE5 SHL DUP2 MSTORE PUSH1 0x4 DUP2 ADD DUP5 SWAP1 MSTORE PUSH1 0x17 PUSH1 0x24 DUP3 ADD MSTORE PUSH32 0x4F6E6C7920626F72726F7765722063616E207265706179000000000000000000 PUSH1 0x44 DUP3 ADD MSTORE PUSH1 0x64 SWAP1 REVERT JUMPDEST CALLVALUE PUSH2 0x218 JUMPI PUSH1 0x0 CALLDATASIZE PUSH1 0x3 NOT ADD SLT PUSH2 0x218 JUMPI PUSH1 0x2 SLOAD PUSH1 0x0 NOT DUP2 ADD DUP2 DUP2 GT PUSH2 0xAB8 JUMPI PUSH2 0x16FE SWAP1 PUSH2 0x270A JUMP JUMPDEST SWAP1 PUSH1 0x0 SWAP2 PUSH1 0x1 SWAP2 DUP3 JUMPDEST DUP2 DUP2 LT PUSH2 0x178C JUMPI POP POP PUSH2 0x1719 DUP4 PUSH2 0x270A JUMP JUMPDEST SWAP3 PUSH1 0x0 JUMPDEST DUP2 DUP2 LT PUSH2 0x1763 JUMPI POP POP POP PUSH1 0x40 MLOAD SWAP1 PUSH1 0x20 DUP1 DUP4 ADD DUP2 DUP5 MSTORE DUP5 MLOAD DUP1 SWAP2 MSTORE DUP2 PUSH1 0x40 DUP6 ADD SWAP6 ADD SWAP2 PUSH1 0x0 JUMPDEST DUP3 DUP2 LT PUSH2 0x1750 JUMPI DUP6 DUP8 SUB DUP7 RETURN JUMPDEST DUP4 MLOAD DUP8 MSTORE SWAP6 DUP2 ADD SWAP6 SWAP3 DUP2 ADD SWAP3 DUP5 ADD PUSH2 0x1743 JUMP JUMPDEST DUP1 PUSH2 0x1773 PUSH2 0x1784 SWAP3 DUP6 SWAP8 SWAP6 PUSH2 0x273C JUMP JUMPDEST MLOAD PUSH2 0x177E DUP3 DUP7 PUSH2 0x273C JUMP JUMPDEST MSTORE PUSH2 0x23A0 JUMP JUMPDEST SWAP4 SWAP2 SWAP4 PUSH2 0x171D JUMP JUMPDEST DUP1 PUSH1 0x0 SWAP6 SWAP4 SWAP6 MSTORE PUSH1 0x7 PUSH1 0x20 MSTORE PUSH1 0xFF PUSH1 0xC PUSH1 0x40 PUSH1 0x0 KECCAK256 ADD SLOAD AND PUSH1 0x6 DUP2 LT ISZERO PUSH2 0x45E JUMPI ISZERO PUSH2 0x17C4 JUMPI JUMPDEST PUSH2 0x17BC SWAP1 PUSH2 0x23A0 JUMP JUMPDEST SWAP4 SWAP2 SWAP4 PUSH2 0x1707 JUMP JUMPDEST SWAP2 PUSH2 0x17D7 DUP2 DUP5 PUSH2 0x177E PUSH2 0x17BC SWAP5 DUP10 PUSH2 0x273C JUMP JUMPDEST SWAP3 SWAP1 POP PUSH2 0x17B3 JUMP JUMPDEST CALLVALUE PUSH2 0x218 JUMPI PUSH1 0x0 CALLDATASIZE PUSH1 0x3 NOT ADD SLT PUSH2 0x218 JUMPI PUSH1 0x20 PUSH1 0x6 SLOAD PUSH1 0x40 MLOAD SWAP1 DUP2 MSTORE RETURN JUMPDEST CALLVALUE PUSH2 0x218 JUMPI PUSH1 0x0 CALLDATASIZE PUSH1 0x3 NOT ADD SLT PUSH2 0x218 JUMPI PUSH1 0x1 SLOAD PUSH1 0x40 MLOAD PUSH1 0x1 PUSH1 0x1 PUSH1 0xA0 SHL SUB SWAP1 SWAP2 AND DUP2 MSTORE PUSH1 0x20 SWAP1 RETURN JUMPDEST CALLVALUE PUSH2 0x218 JUMPI PUSH1 0x0 CALLDATASIZE PUSH1 0x3 NOT ADD SLT PUSH2 0x218 JUMPI PUSH1 0x20 PUSH1 0x40 MLOAD PUSH3 0x15180 DUP2 MSTORE RETURN JUMPDEST CALLVALUE PUSH2 0x218 JUMPI PUSH1 0x0 CALLDATASIZE PUSH1 0x3 NOT ADD SLT PUSH2 0x218 JUMPI PUSH1 0x20 PUSH1 0x2 SLOAD PUSH1 0x40 MLOAD SWAP1 DUP2 MSTORE RETURN JUMPDEST PUSH1 0x20 DUP1 PUSH1 0x3 NOT CALLDATASIZE ADD SLT PUSH2 0x218 JUMPI PUSH1 0x4 CALLDATALOAD SWAP1 PUSH2 0x187B PUSH2 0x2510 JUMP JUMPDEST PUSH2 0x1883 PUSH2 0x24EF JUMP JUMPDEST PUSH1 0x0 DUP3 DUP2 MSTORE PUSH1 0x7 DUP3 MSTORE PUSH1 0x40 SWAP1 KECCAK256 PUSH1 0x1 DUP2 ADD DUP1 SLOAD SWAP1 SWAP2 PUSH1 0x1 PUSH1 0x1 PUSH1 0xA0 SHL SUB SWAP2 DUP3 AND PUSH2 0x18AE DUP2 ISZERO ISZERO PUSH2 0x23AF JUMP JUMPDEST PUSH1 0xC DUP3 ADD SWAP1 DUP2 SLOAD SWAP1 PUSH1 0xFF DUP3 AND PUSH1 0x6 DUP2 LT ISZERO PUSH2 0x45E JUMPI PUSH2 0x1ACE JUMPI CALLER EQ PUSH2 0x1A92 JUMPI PUSH1 0x2 DUP4 ADD DUP1 SLOAD PUSH1 0x1 PUSH1 0x1 PUSH1 0xA0 SHL SUB NOT AND CALLER OR SWAP1 SSTORE PUSH1 0xFF NOT AND PUSH1 0x1 OR SWAP1 SSTORE TIMESTAMP PUSH1 0xA DUP3 ADD DUP2 SWAP1 SSTORE PUSH1 0x8 DUP3 ADD SLOAD PUSH2 0x1900 SWAP2 PUSH2 0x2533 JUMP JUMPDEST PUSH1 0xB DUP3 ADD SSTORE CALLER PUSH1 0x0 MSTORE PUSH1 0xA DUP5 MSTORE PUSH2 0x191B DUP6 PUSH1 0x40 PUSH1 0x0 KECCAK256 PUSH2 0x2404 JUMP JUMPDEST PUSH1 0x3 DUP2 ADD SLOAD DUP1 PUSH1 0x0 MSTORE PUSH1 0x8 DUP6 MSTORE PUSH1 0xFF PUSH1 0x40 PUSH1 0x0 KECCAK256 SLOAD AND PUSH1 0x2 DUP2 LT ISZERO PUSH2 0x45E JUMPI PUSH2 0x1A15 JUMPI POP PUSH1 0x5 ADD SLOAD SWAP2 DUP3 CALLVALUE SUB PUSH2 0x19D9 JUMPI PUSH1 0x0 DUP1 SWAP4 DUP2 SWAP4 DUP3 SWAP4 SLOAD AND GAS CALL PUSH2 0x195F PUSH2 0x2540 JUMP JUMPDEST POP ISZERO PUSH2 0x1995 JUMPI POP JUMPDEST CALLER SWAP1 PUSH32 0x15FEAB5D3EB17171632762CF769709A315DD15F487A556C0DFB8A259C8F186CC PUSH1 0x0 DUP1 LOG3 PUSH1 0x1 PUSH1 0x0 SSTORE STOP JUMPDEST PUSH1 0x64 SWAP1 PUSH1 0x40 MLOAD SWAP1 PUSH3 0x461BCD PUSH1 0xE5 SHL DUP3 MSTORE PUSH1 0x4 DUP3 ADD MSTORE PUSH1 0x1B PUSH1 0x24 DUP3 ADD MSTORE PUSH32 0x5472616E7366657220746F20626F72726F776572206661696C65640000000000 PUSH1 0x44 DUP3 ADD MSTORE REVERT JUMPDEST PUSH1 0x40 MLOAD PUSH3 0x461BCD PUSH1 0xE5 SHL DUP2 MSTORE PUSH1 0x4 DUP2 ADD DUP6 SWAP1 MSTORE PUSH1 0x14 PUSH1 0x24 DUP3 ADD MSTORE PUSH20 0x125B98DBDC9C9958DD0811551208185B5BDD5B9D PUSH1 0x62 SHL PUSH1 0x44 DUP3 ADD MSTORE PUSH1 0x64 SWAP1 REVERT JUMPDEST SWAP5 SWAP4 SWAP5 SWAP2 SWAP1 SWAP2 CALLVALUE PUSH2 0x1A4D JUMPI SWAP1 PUSH1 0x8 PUSH2 0x1A48 SWAP6 SWAP7 PUSH1 0x5 SWAP4 PUSH1 0x0 MSTORE MSTORE DUP1 PUSH1 0x40 PUSH1 0x0 KECCAK256 SLOAD PUSH1 0x8 SHR AND SWAP4 SLOAD AND SWAP2 ADD SLOAD SWAP2 CALLER SWAP1 PUSH2 0x243E JUMP JUMPDEST PUSH2 0x1967 JUMP JUMPDEST PUSH1 0x40 MLOAD PUSH3 0x461BCD PUSH1 0xE5 SHL DUP2 MSTORE PUSH1 0x4 DUP2 ADD DUP8 SWAP1 MSTORE PUSH1 0x1D PUSH1 0x24 DUP3 ADD MSTORE PUSH32 0x455448206E6F74206E656564656420666F72204552433230206C6F616E000000 PUSH1 0x44 DUP3 ADD MSTORE PUSH1 0x64 SWAP1 REVERT JUMPDEST PUSH1 0x40 MLOAD PUSH3 0x461BCD PUSH1 0xE5 SHL DUP2 MSTORE PUSH1 0x4 DUP2 ADD DUP8 SWAP1 MSTORE PUSH1 0x14 PUSH1 0x24 DUP3 ADD MSTORE PUSH20 0x21B0B73737BA10333AB7321037BBB7103637B0B7 PUSH1 0x61 SHL PUSH1 0x44 DUP3 ADD MSTORE PUSH1 0x64 SWAP1 REVERT JUMPDEST PUSH1 0x40 MLOAD PUSH3 0x461BCD PUSH1 0xE5 SHL DUP2 MSTORE PUSH1 0x4 DUP2 ADD DUP9 SWAP1 MSTORE PUSH1 0x12 PUSH1 0x24 DUP3 ADD MSTORE PUSH18 0x4C6F616E206E6F7420617661696C61626C65 PUSH1 0x70 SHL PUSH1 0x44 DUP3 ADD MSTORE PUSH1 0x64 SWAP1 REVERT JUMPDEST CALLVALUE PUSH2 0x218 JUMPI PUSH1 0x0 CALLDATASIZE PUSH1 0x3 NOT ADD SLT PUSH2 0x218 JUMPI PUSH2 0x1B21 PUSH2 0x2374 JUMP JUMPDEST PUSH2 0x1B29 PUSH2 0x24EF JUMP JUMPDEST PUSH1 0x1 DUP1 SLOAD PUSH1 0xFF PUSH1 0xA0 SHL NOT AND PUSH1 0x1 PUSH1 0xA0 SHL OR SWAP1 SSTORE PUSH1 0x40 MLOAD CALLER DUP2 MSTORE PUSH32 0x62E78CEA01BEE320CD4E420270B5EA74000D11B0C9F74754EBDBFC544B05A258 SWAP1 PUSH1 0x20 SWAP1 LOG1 STOP JUMPDEST CALLVALUE PUSH2 0x218 JUMPI PUSH1 0x20 CALLDATASIZE PUSH1 0x3 NOT ADD SLT PUSH2 0x218 JUMPI PUSH1 0x1 PUSH1 0x1 PUSH1 0xA0 SHL SUB PUSH2 0x1B8B PUSH2 0x218B JUMP JUMPDEST AND PUSH1 0x0 MSTORE PUSH1 0xB PUSH1 0x20 MSTORE PUSH1 0xE0 PUSH1 0x40 PUSH1 0x0 KECCAK256 DUP1 SLOAD SWAP1 PUSH1 0x1 DUP2 ADD SLOAD SWAP1 PUSH1 0x2 DUP2 ADD SLOAD PUSH1 0x3 DUP3 ADD SLOAD PUSH1 0x4 DUP4 ADD SLOAD SWAP2 PUSH1 0x6 PUSH1 0x5 DUP6 ADD SLOAD SWAP5 ADD SLOAD SWAP5 PUSH1 0x40 MLOAD SWAP7 DUP8 MSTORE PUSH1 0x20 DUP8 ADD MSTORE PUSH1 0x40 DUP7 ADD MSTORE PUSH1 0x60 DUP6 ADD MSTORE PUSH1 0x80 DUP5 ADD MSTORE PUSH1 0xA0 DUP4 ADD MSTORE PUSH1 0xC0 DUP3 ADD MSTORE RETURN JUMPDEST CALLVALUE PUSH2 0x218 JUMPI PUSH1 0x0 CALLDATASIZE PUSH1 0x3 NOT ADD SLT PUSH2 0x218 JUMPI PUSH1 0x20 PUSH1 0x40 MLOAD PUSH1 0x96 DUP2 MSTORE RETURN JUMPDEST CALLVALUE PUSH2 0x218 JUMPI PUSH1 0x0 CALLDATASIZE PUSH1 0x3 NOT ADD SLT PUSH2 0x218 JUMPI PUSH1 0x20 PUSH1 0x3 SLOAD PUSH1 0x40 MLOAD SWAP1 DUP2 MSTORE RETURN JUMPDEST CALLVALUE PUSH2 0x218 JUMPI PUSH1 0x0 CALLDATASIZE PUSH1 0x3 NOT ADD SLT PUSH2 0x218 JUMPI PUSH2 0x1C38 PUSH2 0x2374 JUMP JUMPDEST PUSH1 0x1 DUP1 SLOAD PUSH1 0x1 PUSH1 0x1 PUSH1 0xA0 SHL SUB NOT DUP2 AND SWAP1 SWAP2 SSTORE PUSH1 0x0 SWAP1 PUSH1 0x1 PUSH1 0x1 PUSH1 0xA0 SHL SUB AND PUSH32 0x8BE0079C531659141344CD1FD0A4F28419497F9722A3DAAFE3B4186F6B6457E0 DUP3 DUP1 LOG3 STOP JUMPDEST CALLVALUE PUSH2 0x218 JUMPI PUSH1 0x20 CALLDATASIZE PUSH1 0x3 NOT ADD SLT PUSH2 0x218 JUMPI PUSH1 0x1 PUSH1 0x1 PUSH1 0xA0 SHL SUB PUSH2 0x1C9D PUSH2 0x218B JUMP JUMPDEST AND PUSH1 0x0 MSTORE PUSH1 0xC PUSH1 0x20 MSTORE PUSH1 0x20 PUSH1 0xFF PUSH1 0x40 PUSH1 0x0 KECCAK256 SLOAD AND PUSH1 0x40 MLOAD SWAP1 ISZERO ISZERO DUP2 MSTORE RETURN JUMPDEST CALLVALUE PUSH2 0x218 JUMPI PUSH1 0x0 CALLDATASIZE PUSH1 0x3 NOT ADD SLT PUSH2 0x218 JUMPI PUSH1 0x20 PUSH1 0xFF PUSH1 0x1 SLOAD PUSH1 0xA0 SHR AND PUSH1 0x40 MLOAD SWAP1 ISZERO ISZERO DUP2 MSTORE RETURN JUMPDEST CALLVALUE PUSH2 0x218 JUMPI PUSH1 0x0 CALLDATASIZE PUSH1 0x3 NOT ADD SLT PUSH2 0x218 JUMPI PUSH1 0x20 PUSH1 0x4 SLOAD PUSH1 0x40 MLOAD SWAP1 DUP2 MSTORE RETURN JUMPDEST CALLVALUE PUSH2 0x218 JUMPI PUSH1 0x0 CALLDATASIZE PUSH1 0x3 NOT ADD SLT PUSH2 0x218 JUMPI PUSH2 0x1D18 PUSH2 0x2374 JUMP JUMPDEST PUSH1 0x0 DUP1 DUP1 DUP1 PUSH1 0x6 SLOAD DUP2 PUSH1 0x6 SSTORE PUSH1 0x1 DUP1 PUSH1 0xA0 SHL SUB PUSH1 0x5 SLOAD AND GAS CALL PUSH2 0x1D39 PUSH2 0x2540 JUMP JUMPDEST POP ISZERO PUSH2 0x1D41 JUMPI STOP JUMPDEST PUSH1 0x40 MLOAD PUSH3 0x461BCD PUSH1 0xE5 SHL DUP2 MSTORE PUSH1 0x20 PUSH1 0x4 DUP3 ADD MSTORE PUSH1 0x15 PUSH1 0x24 DUP3 ADD MSTORE PUSH21 0x119959481DDA5D1A191C985DD85B0819985A5B1959 PUSH1 0x5A SHL PUSH1 0x44 DUP3 ADD MSTORE PUSH1 0x64 SWAP1 REVERT JUMPDEST CALLVALUE PUSH2 0x218 JUMPI PUSH1 0x0 CALLDATASIZE PUSH1 0x3 NOT ADD SLT PUSH2 0x218 JUMPI PUSH1 0x5 SLOAD PUSH1 0x40 MLOAD PUSH1 0x1 PUSH1 0x1 PUSH1 0xA0 SHL SUB SWAP1 SWAP2 AND DUP2 MSTORE PUSH1 0x20 SWAP1 RETURN JUMPDEST CALLVALUE PUSH2 0x218 JUMPI PUSH1 0x60 CALLDATASIZE PUSH1 0x3 NOT ADD SLT PUSH2 0x218 JUMPI PUSH2 0x1DC0 PUSH2 0x218B JUMP JUMPDEST PUSH8 0xFFFFFFFFFFFFFFFF SWAP1 PUSH1 0x24 CALLDATALOAD DUP3 DUP2 GT PUSH2 0x218 JUMPI PUSH2 0x1DE2 SWAP1 CALLDATASIZE SWAP1 PUSH1 0x4 ADD PUSH2 0x220D JUMP JUMPDEST SWAP1 PUSH1 0x44 CALLDATALOAD PUSH1 0xFF DUP2 AND DUP1 SWAP2 SUB PUSH2 0x218 JUMPI PUSH2 0x1DF9 PUSH2 0x2374 JUMP JUMPDEST PUSH1 0x1 PUSH1 0x1 PUSH1 0xA0 SHL SUB DUP3 AND ISZERO PUSH2 0x2033 JUMPI PUSH1 0x40 MLOAD SWAP1 PUSH1 0xA0 DUP3 ADD DUP3 DUP2 LT DUP7 DUP3 GT OR PUSH2 0x904 JUMPI PUSH1 0x40 MSTORE PUSH1 0x1 DUP1 DUP4 MSTORE PUSH1 0x20 DUP4 ADD SWAP1 PUSH1 0x1 DUP1 PUSH1 0xA0 SHL SUB DUP6 AND DUP3 MSTORE PUSH1 0x40 DUP5 ADD SWAP3 DUP7 DUP5 MSTORE PUSH1 0x60 DUP6 ADD MSTORE PUSH1 0x80 DUP5 ADD SWAP3 DUP2 DUP5 MSTORE PUSH1 0x3 SLOAD PUSH1 0x0 MSTORE PUSH1 0x8 PUSH1 0x20 MSTORE PUSH1 0x40 PUSH1 0x0 KECCAK256 SWAP3 DUP6 MLOAD SWAP1 PUSH1 0x2 DUP3 LT ISZERO PUSH2 0x45E JUMPI PUSH1 0xFF DUP6 SLOAD SWAP2 PUSH2 0x100 PUSH1 0x1 PUSH1 0xA8 SHL SUB SWAP1 MLOAD PUSH1 0x8 SHL AND SWAP3 AND SWAP1 PUSH11 0xFFFFFFFFFFFFFFFFFFFFFF PUSH1 0xA8 SHL AND OR OR DUP4 SSTORE MLOAD SWAP7 DUP8 MLOAD SWAP1 DUP2 GT PUSH2 0x904 JUMPI PUSH2 0x1EA7 DUP3 DUP5 ADD SLOAD PUSH2 0x2254 JUMP JUMPDEST PUSH1 0x1F DUP2 GT PUSH2 0x1FE6 JUMPI JUMPDEST POP PUSH1 0x20 PUSH1 0x1F DUP3 GT PUSH1 0x1 EQ PUSH2 0x1F6A JUMPI PUSH2 0x1F52 SWAP8 SWAP7 SWAP6 SWAP5 SWAP4 PUSH1 0xFF SWAP4 DUP4 PUSH1 0x60 SWAP5 PUSH1 0x2 SWAP5 PUSH2 0x1F5A SWAP14 PUSH1 0x0 SWAP3 PUSH2 0x1F5F JUMPI JUMPDEST POP POP PUSH1 0x0 NOT PUSH1 0x3 DUP4 SWAP1 SHL SHR NOT AND SWAP1 DUP3 SHL OR SWAP1 DUP3 ADD SSTORE JUMPDEST ADD SWAP4 ADD MLOAD AND PUSH2 0xFF00 DUP4 SLOAD SWAP3 MLOAD ISZERO ISZERO PUSH1 0x8 SHL AND SWAP2 PUSH2 0xFFFF NOT AND OR OR SWAP1 SSTORE PUSH32 0xF44669D0BB138C4A68242FF532894FFEF642D66C50C06F585E3EF61302971E4A PUSH1 0x3 SLOAD SWAP4 DUP5 SWAP3 PUSH1 0x40 MLOAD SWAP2 DUP3 SWAP2 PUSH1 0x20 DUP4 MSTORE PUSH1 0x1 DUP1 PUSH1 0xA0 SHL SUB AND SWAP6 PUSH1 0x20 DUP4 ADD SWAP1 PUSH2 0x2334 JUMP JUMPDEST SUB SWAP1 LOG3 PUSH2 0x23A0 JUMP JUMPDEST PUSH1 0x3 SSTORE STOP JUMPDEST ADD MLOAD SWAP1 POP DUP14 DUP1 PUSH2 0x1EDC JUMP JUMPDEST DUP3 DUP5 ADD PUSH1 0x0 MSTORE PUSH1 0x20 PUSH1 0x0 KECCAK256 SWAP9 PUSH1 0x0 JUMPDEST PUSH1 0x1F NOT DUP5 AND DUP2 LT PUSH2 0x1FD0 JUMPI POP SWAP4 DUP4 PUSH1 0xFF SWAP5 DUP5 PUSH2 0x1F5A SWAP13 PUSH1 0x2 SWAP6 PUSH2 0x1F52 SWAP14 SWAP13 SWAP12 SWAP11 SWAP10 PUSH1 0x60 SWAP9 PUSH1 0x1F NOT DUP2 AND LT PUSH2 0x1FB7 JUMPI JUMPDEST POP POP POP DUP2 SHL ADD SWAP1 DUP3 ADD SSTORE PUSH2 0x1EF2 JUMP JUMPDEST ADD MLOAD PUSH1 0x0 NOT PUSH1 0xF8 DUP5 PUSH1 0x3 SHL AND SHR NOT AND SWAP1 SSTORE DUP14 DUP1 DUP1 PUSH2 0x1FA8 JUMP JUMPDEST DUP3 DUP3 ADD MLOAD DUP12 SSTORE SWAP10 DUP5 ADD SWAP10 PUSH1 0x20 SWAP3 DUP4 ADD SWAP3 ADD PUSH2 0x1F79 JUMP JUMPDEST DUP3 DUP5 ADD PUSH1 0x0 MSTORE PUSH1 0x20 PUSH1 0x0 KECCAK256 PUSH1 0x1F DUP4 ADD PUSH1 0x5 SHR DUP2 ADD SWAP2 PUSH1 0x20 DUP5 LT PUSH2 0x2029 JUMPI JUMPDEST PUSH1 0x1F ADD PUSH1 0x5 SHR ADD SWAP1 DUP4 SWAP1 JUMPDEST DUP3 DUP2 LT PUSH2 0x201D JUMPI POP POP PUSH2 0x1EB0 JUMP JUMPDEST PUSH1 0x0 DUP2 SSTORE ADD DUP4 SWAP1 PUSH2 0x200F JUMP JUMPDEST SWAP1 SWAP2 POP DUP2 SWAP1 PUSH2 0x2004 JUMP JUMPDEST PUSH1 0x40 MLOAD PUSH3 0x461BCD PUSH1 0xE5 SHL DUP2 MSTORE PUSH1 0x20 PUSH1 0x4 DUP3 ADD MSTORE PUSH1 0x18 PUSH1 0x24 DUP3 ADD MSTORE PUSH32 0x496E76616C696420636F6E747261637420616464726573730000000000000000 PUSH1 0x44 DUP3 ADD MSTORE PUSH1 0x64 SWAP1 REVERT JUMPDEST CALLVALUE PUSH2 0x218 JUMPI PUSH1 0x0 CALLDATASIZE PUSH1 0x3 NOT ADD SLT PUSH2 0x218 JUMPI PUSH2 0x2091 PUSH2 0x2374 JUMP JUMPDEST PUSH1 0x1 SLOAD PUSH1 0xFF DUP2 PUSH1 0xA0 SHR AND ISZERO PUSH2 0x20D8 JUMPI PUSH1 0xFF PUSH1 0xA0 SHL NOT AND PUSH1 0x1 SSTORE PUSH1 0x40 MLOAD CALLER DUP2 MSTORE PUSH32 0x5DB9EE0A495BF2E6FF9C91A7834C1BA4FDD244A5E8AA4E537BD38AEAE4B073AA SWAP1 PUSH1 0x20 SWAP1 LOG1 STOP JUMPDEST PUSH1 0x40 MLOAD PUSH4 0x8DFC202B PUSH1 0xE0 SHL DUP2 MSTORE PUSH1 0x4 SWAP1 REVERT JUMPDEST CALLVALUE PUSH2 0x218 JUMPI PUSH1 0x40 CALLDATASIZE PUSH1 0x3 NOT ADD SLT PUSH2 0x218 JUMPI PUSH2 0x2103 PUSH2 0x218B JUMP JUMPDEST PUSH1 0x1 PUSH1 0x1 PUSH1 0xA0 SHL SUB AND PUSH1 0x0 SWAP1 DUP2 MSTORE PUSH1 0xA PUSH1 0x20 MSTORE PUSH1 0x40 SWAP1 KECCAK256 DUP1 SLOAD PUSH1 0x24 CALLDATALOAD SWAP2 SWAP1 DUP3 LT ISZERO PUSH2 0x218 JUMPI PUSH1 0x20 SWAP2 PUSH2 0x319 SWAP2 PUSH2 0x21A1 JUMP JUMPDEST CALLVALUE PUSH2 0x218 JUMPI PUSH1 0x0 CALLDATASIZE PUSH1 0x3 NOT ADD SLT PUSH2 0x218 JUMPI PUSH1 0x20 PUSH1 0x40 MLOAD PUSH2 0xBB8 DUP2 MSTORE RETURN JUMPDEST CALLVALUE PUSH2 0x218 JUMPI PUSH1 0x0 CALLDATASIZE PUSH1 0x3 NOT ADD SLT PUSH2 0x218 JUMPI PUSH1 0x20 PUSH1 0x40 MLOAD PUSH4 0x1E13380 DUP2 MSTORE RETURN JUMPDEST CALLVALUE PUSH2 0x218 JUMPI PUSH1 0x0 CALLDATASIZE PUSH1 0x3 NOT ADD SLT PUSH2 0x218 JUMPI DUP1 PUSH2 0x12C PUSH1 0x20 SWAP3 MSTORE RETURN JUMPDEST PUSH1 0x4 CALLDATALOAD SWAP1 PUSH1 0x1 PUSH1 0x1 PUSH1 0xA0 SHL SUB DUP3 AND DUP3 SUB PUSH2 0x218 JUMPI JUMP JUMPDEST DUP1 SLOAD DUP3 LT ISZERO PUSH2 0x21B9 JUMPI PUSH1 0x0 MSTORE PUSH1 0x20 PUSH1 0x0 KECCAK256 ADD SWAP1 PUSH1 0x0 SWAP1 JUMP JUMPDEST PUSH4 0x4E487B71 PUSH1 0xE0 SHL PUSH1 0x0 MSTORE PUSH1 0x32 PUSH1 0x4 MSTORE PUSH1 0x24 PUSH1 0x0 REVERT JUMPDEST SWAP1 PUSH1 0x1F DUP1 NOT SWAP2 ADD AND DUP2 ADD SWAP1 DUP2 LT PUSH8 0xFFFFFFFFFFFFFFFF DUP3 GT OR PUSH2 0x904 JUMPI PUSH1 0x40 MSTORE JUMP JUMPDEST PUSH8 0xFFFFFFFFFFFFFFFF DUP2 GT PUSH2 0x904 JUMPI PUSH1 0x1F ADD PUSH1 0x1F NOT AND PUSH1 0x20 ADD SWAP1 JUMP JUMPDEST DUP2 PUSH1 0x1F DUP3 ADD SLT ISZERO PUSH2 0x218 JUMPI DUP1 CALLDATALOAD SWAP1 PUSH2 0x2224 DUP3 PUSH2 0x21F1 JUMP JUMPDEST SWAP3 PUSH2 0x2232 PUSH1 0x40 MLOAD SWAP5 DUP6 PUSH2 0x21CF JUMP JUMPDEST DUP3 DUP5 MSTORE PUSH1 0x20 DUP4 DUP4 ADD ADD GT PUSH2 0x218 JUMPI DUP2 PUSH1 0x0 SWAP3 PUSH1 0x20 DUP1 SWAP4 ADD DUP4 DUP7 ADD CALLDATACOPY DUP4 ADD ADD MSTORE SWAP1 JUMP JUMPDEST SWAP1 PUSH1 0x1 DUP3 DUP2 SHR SWAP3 AND DUP1 ISZERO PUSH2 0x2284 JUMPI JUMPDEST PUSH1 0x20 DUP4 LT EQ PUSH2 0x226E JUMPI JUMP JUMPDEST PUSH4 0x4E487B71 PUSH1 0xE0 SHL PUSH1 0x0 MSTORE PUSH1 0x22 PUSH1 0x4 MSTORE PUSH1 0x24 PUSH1 0x0 REVERT JUMPDEST SWAP2 PUSH1 0x7F AND SWAP2 PUSH2 0x2263 JUMP JUMPDEST SWAP1 PUSH1 0x40 MLOAD SWAP2 DUP3 PUSH1 0x0 DUP3 SLOAD SWAP3 PUSH2 0x22A2 DUP5 PUSH2 0x2254 JUMP JUMPDEST SWAP1 DUP2 DUP5 MSTORE PUSH1 0x1 SWAP5 DUP6 DUP2 AND SWAP1 DUP2 PUSH1 0x0 EQ PUSH2 0x2311 JUMPI POP PUSH1 0x1 EQ PUSH2 0x22CE JUMPI JUMPDEST POP POP PUSH2 0x22CC SWAP3 POP SUB DUP4 PUSH2 0x21CF JUMP JUMPDEST JUMP JUMPDEST SWAP1 SWAP4 SWAP2 POP PUSH1 0x0 MSTORE PUSH1 0x20 SWAP1 DUP2 PUSH1 0x0 KECCAK256 SWAP4 PUSH1 0x0 SWAP2 JUMPDEST DUP2 DUP4 LT PUSH2 0x22F9 JUMPI POP POP PUSH2 0x22CC SWAP4 POP DUP3 ADD ADD CODESIZE DUP1 PUSH2 0x22BE JUMP JUMPDEST DUP6 SLOAD DUP9 DUP5 ADD DUP6 ADD MSTORE SWAP5 DUP6 ADD SWAP5 DUP8 SWAP5 POP SWAP2 DUP4 ADD SWAP2 PUSH2 0x22E1 JUMP JUMPDEST SWAP2 POP POP PUSH2 0x22CC SWAP5 POP PUSH1 0x20 SWAP3 POP PUSH1 0xFF NOT AND DUP3 DUP5 ADD MSTORE ISZERO ISZERO PUSH1 0x5 SHL DUP3 ADD ADD CODESIZE DUP1 PUSH2 0x22BE JUMP JUMPDEST SWAP2 SWAP1 DUP3 MLOAD SWAP3 DUP4 DUP3 MSTORE PUSH1 0x0 JUMPDEST DUP5 DUP2 LT PUSH2 0x2360 JUMPI POP POP DUP3 PUSH1 0x0 PUSH1 0x20 DUP1 SWAP5 SWAP6 DUP5 ADD ADD MSTORE PUSH1 0x1F DUP1 NOT SWAP2 ADD AND ADD ADD SWAP1 JUMP JUMPDEST PUSH1 0x20 DUP2 DUP4 ADD DUP2 ADD MLOAD DUP5 DUP4 ADD DUP3 ADD MSTORE ADD PUSH2 0x233F JUMP JUMPDEST PUSH1 0x1 SLOAD PUSH1 0x1 PUSH1 0x1 PUSH1 0xA0 SHL SUB AND CALLER SUB PUSH2 0x2388 JUMPI JUMP JUMPDEST PUSH1 0x40 MLOAD PUSH4 0x118CDAA7 PUSH1 0xE0 SHL DUP2 MSTORE CALLER PUSH1 0x4 DUP3 ADD MSTORE PUSH1 0x24 SWAP1 REVERT JUMPDEST PUSH1 0x0 NOT DUP2 EQ PUSH2 0xAB8 JUMPI PUSH1 0x1 ADD SWAP1 JUMP JUMPDEST ISZERO PUSH2 0x23B6 JUMPI JUMP JUMPDEST PUSH1 0x40 MLOAD PUSH3 0x461BCD PUSH1 0xE5 SHL DUP2 MSTORE PUSH1 0x20 PUSH1 0x4 DUP3 ADD MSTORE PUSH1 0x13 PUSH1 0x24 DUP3 ADD MSTORE PUSH19 0x131BD85B88191BD95CC81B9BDD08195E1A5CDD PUSH1 0x6A SHL PUSH1 0x44 DUP3 ADD MSTORE PUSH1 0x64 SWAP1 REVERT JUMPDEST DUP2 DUP2 MUL SWAP3 SWAP2 DUP2 ISZERO SWAP2 DUP5 DIV EQ OR ISZERO PUSH2 0xAB8 JUMPI JUMP JUMPDEST DUP1 SLOAD PUSH9 0x10000000000000000 DUP2 LT ISZERO PUSH2 0x904 JUMPI PUSH2 0x2426 SWAP2 PUSH1 0x1 DUP3 ADD DUP2 SSTORE PUSH2 0x21A1 JUMP JUMPDEST DUP2 SWAP3 SWAP2 SLOAD SWAP1 PUSH1 0x3 SHL SWAP2 DUP3 SHL SWAP2 PUSH1 0x0 NOT SWAP1 SHL NOT AND OR SWAP1 SSTORE JUMP JUMPDEST PUSH1 0x40 MLOAD PUSH4 0x23B872DD PUSH1 0xE0 SHL PUSH1 0x20 DUP3 ADD MSTORE PUSH1 0x1 PUSH1 0x1 PUSH1 0xA0 SHL SUB SWAP3 DUP4 AND PUSH1 0x24 DUP3 ADD MSTORE SWAP3 SWAP1 SWAP2 AND PUSH1 0x44 DUP4 ADD MSTORE PUSH1 0x64 DUP1 DUP4 ADD SWAP4 SWAP1 SWAP4 MSTORE SWAP2 DUP2 MSTORE PUSH1 0xA0 DUP2 ADD SWAP2 DUP2 DUP4 LT PUSH8 0xFFFFFFFFFFFFFFFF DUP5 GT OR PUSH2 0x904 JUMPI PUSH2 0x22CC SWAP3 PUSH1 0x40 MSTORE JUMPDEST SWAP1 PUSH1 0x0 PUSH1 0x20 SWAP2 DUP3 DUP2 MLOAD SWAP2 ADD DUP3 DUP6 GAS CALL ISZERO PUSH2 0xA5B JUMPI PUSH1 0x0 MLOAD RETURNDATASIZE PUSH2 0x24E6 JUMPI POP PUSH1 0x1 PUSH1 0x1 PUSH1 0xA0 SHL SUB DUP2 AND EXTCODESIZE ISZERO JUMPDEST PUSH2 0x24C4 JUMPI POP JUMP JUMPDEST PUSH1 0x40 MLOAD PUSH4 0x5274AFE7 PUSH1 0xE0 SHL DUP2 MSTORE PUSH1 0x1 PUSH1 0x1 PUSH1 0xA0 SHL SUB SWAP1 SWAP2 AND PUSH1 0x4 DUP3 ADD MSTORE PUSH1 0x24 SWAP1 REVERT JUMPDEST PUSH1 0x1 EQ ISZERO PUSH2 0x24BD JUMP JUMPDEST PUSH1 0xFF PUSH1 0x1 SLOAD PUSH1 0xA0 SHR AND PUSH2 0x24FE JUMPI JUMP JUMPDEST PUSH1 0x40 MLOAD PUSH4 0xD93C0665 PUSH1 0xE0 SHL DUP2 MSTORE PUSH1 0x4 SWAP1 REVERT JUMPDEST PUSH1 0x2 PUSH1 0x0 SLOAD EQ PUSH2 0x2521 JUMPI PUSH1 0x2 PUSH1 0x0 SSTORE JUMP JUMPDEST PUSH1 0x40 MLOAD PUSH4 0x3EE5AEB5 PUSH1 0xE0 SHL DUP2 MSTORE PUSH1 0x4 SWAP1 REVERT JUMPDEST SWAP2 SWAP1 DUP3 ADD DUP1 SWAP3 GT PUSH2 0xAB8 JUMPI JUMP JUMPDEST RETURNDATASIZE ISZERO PUSH2 0x256B JUMPI RETURNDATASIZE SWAP1 PUSH2 0x2551 DUP3 PUSH2 0x21F1 JUMP JUMPDEST SWAP2 PUSH2 0x255F PUSH1 0x40 MLOAD SWAP4 DUP5 PUSH2 0x21CF JUMP JUMPDEST DUP3 MSTORE RETURNDATASIZE PUSH1 0x0 PUSH1 0x20 DUP5 ADD RETURNDATACOPY JUMP JUMPDEST PUSH1 0x60 SWAP1 JUMP JUMPDEST ISZERO PUSH2 0x2577 JUMPI JUMP JUMPDEST PUSH1 0x40 MLOAD PUSH3 0x461BCD PUSH1 0xE5 SHL DUP2 MSTORE PUSH1 0x20 PUSH1 0x4 DUP3 ADD MSTORE PUSH1 0xF PUSH1 0x24 DUP3 ADD MSTORE PUSH15 0x4C6F616E206E6F7420616374697665 PUSH1 0x88 SHL PUSH1 0x44 DUP3 ADD MSTORE PUSH1 0x64 SWAP1 REVERT JUMPDEST SWAP2 SWAP1 DUP3 SUB SWAP2 DUP3 GT PUSH2 0xAB8 JUMPI JUMP JUMPDEST PUSH1 0x40 MLOAD PUSH4 0xA9059CBB PUSH1 0xE0 SHL PUSH1 0x20 DUP3 ADD MSTORE PUSH1 0x1 PUSH1 0x1 PUSH1 0xA0 SHL SUB SWAP1 SWAP3 AND PUSH1 0x24 DUP4 ADD MSTORE PUSH1 0x44 DUP1 DUP4 ADD SWAP4 SWAP1 SWAP4 MSTORE SWAP2 DUP2 MSTORE PUSH1 0x80 DUP2 ADD SWAP2 PUSH8 0xFFFFFFFFFFFFFFFF DUP4 GT DUP3 DUP5 LT OR PUSH2 0x904 JUMPI PUSH2 0x22CC SWAP3 PUSH1 0x40 MSTORE PUSH2 0x2493 JUMP JUMPDEST PUSH1 0x0 SWAP1 DUP2 MSTORE PUSH1 0x7 PUSH1 0x20 MSTORE PUSH1 0x40 DUP2 KECCAK256 PUSH1 0x4 DUP2 ADD SLOAD DUP1 DUP4 MSTORE PUSH1 0x8 PUSH1 0x20 MSTORE PUSH1 0xFF PUSH1 0x40 DUP5 KECCAK256 SLOAD AND PUSH1 0x2 DUP2 LT ISZERO PUSH2 0x26DE JUMPI PUSH2 0x26AD JUMPI POP PUSH1 0x1 DUP2 ADD SLOAD PUSH1 0x6 SWAP1 SWAP2 ADD SLOAD DUP3 SWAP2 DUP3 SWAP2 DUP3 SWAP2 PUSH1 0x1 PUSH1 0x1 PUSH1 0xA0 SHL SUB AND GAS CALL PUSH2 0x2660 PUSH2 0x2540 JUMP JUMPDEST POP ISZERO PUSH2 0x2668 JUMPI JUMP JUMPDEST PUSH1 0x40 MLOAD PUSH3 0x461BCD PUSH1 0xE5 SHL DUP2 MSTORE PUSH1 0x20 PUSH1 0x4 DUP3 ADD MSTORE PUSH1 0x18 PUSH1 0x24 DUP3 ADD MSTORE PUSH32 0x436F6C6C61746572616C2072657475726E206661696C65640000000000000000 PUSH1 0x44 DUP3 ADD MSTORE PUSH1 0x64 SWAP1 REVERT JUMPDEST SWAP1 PUSH1 0x6 DUP4 PUSH1 0x40 SWAP4 PUSH2 0x22CC SWAP6 MSTORE PUSH1 0x8 PUSH1 0x20 MSTORE PUSH1 0x1 DUP1 PUSH1 0xA0 SHL SUB SWAP4 DUP5 SWAP2 KECCAK256 SLOAD PUSH1 0x8 SHR AND SWAP3 PUSH1 0x1 DUP4 ADD SLOAD AND SWAP2 ADD SLOAD SWAP2 PUSH2 0x25BB JUMP JUMPDEST PUSH4 0x4E487B71 PUSH1 0xE0 SHL DUP5 MSTORE PUSH1 0x21 PUSH1 0x4 MSTORE PUSH1 0x24 DUP5 REVERT JUMPDEST PUSH8 0xFFFFFFFFFFFFFFFF DUP2 GT PUSH2 0x904 JUMPI PUSH1 0x5 SHL PUSH1 0x20 ADD SWAP1 JUMP JUMPDEST SWAP1 PUSH2 0x2714 DUP3 PUSH2 0x26F2 JUMP JUMPDEST PUSH2 0x2721 PUSH1 0x40 MLOAD SWAP2 DUP3 PUSH2 0x21CF JUMP JUMPDEST DUP3 DUP2 MSTORE DUP1 SWAP3 PUSH2 0x2732 PUSH1 0x1F NOT SWAP2 PUSH2 0x26F2 JUMP JUMPDEST ADD SWAP1 PUSH1 0x20 CALLDATASIZE SWAP2 ADD CALLDATACOPY JUMP JUMPDEST DUP1 MLOAD DUP3 LT ISZERO PUSH2 0x21B9 JUMPI PUSH1 0x20 SWAP2 PUSH1 0x5 SHL ADD ADD SWAP1 JUMP INVALID LOG2 PUSH5 0x6970667358 0x22 SLT KECCAK256 SWAP8 0xDA LOG0 0xED 0x21 0xB7 0xDC SWAP1 0x2E 0xE7 JUMPDEST PUSH9 0xECD7E37C17364CD4AA 0xC9 0xF8 DUP6 LT 0xB2 0x2F 0xDD DUP11 0x22 EXTCODESIZE 0xCA PUSH5 0x736F6C6343 STOP ADDMOD EQ STOP CALLER "},"methodIdentifiers":{"MAX_INTEREST_RATE()":"34855d14","MAX_LOAN_DURATION()":"0d0b2ca6","MIN_COLLATERAL_RATIO()":"7a9fffb7","MIN_CREDIT_SCORE()":"0a49cf4d","MIN_LOAN_DURATION()":"89d99a05","addSupportedToken(address,string,uint8)":"4197dd5f","authorizedRiskOracles(address)":"6eef1154","borrowerLoans(address,uint256)":"e3ed1902","cancelLoan(uint256)":"bdbfa3de","claimCollateral(uint256)":"c49785b4","collectedFees()":"9003adfe","creditScores(address)":"80bb7273","deactivateToken(uint256)":"ec991da9","feeRecipient()":"46904840","fundLoan(uint256)":"846b909a","getActiveLoanRequests()":"9772d7ee","lenderLoans(address,uint256)":"3cdb72f1","loans(uint256)":"e1ec3c68","nextLoanId()":"87c51459","nextTokenId()":"75794a3c","owner()":"8da5cb5b","pause()":"8456cb59","paused()":"5c975abb","protocolFeeRate()":"58f85880","renounceOwnership()":"715018a6","repayLoan(uint256)":"ab7b1c89","requestLoan(uint256,uint256,uint256,uint256,uint256,string)":"da69dd59","setAuthorizedOracle(address,bool)":"c7a6de4d","supportedTokens(uint256)":"c6255626","transferOwnership(address)":"f2fde38b","unpause()":"3f4ba83a","updateRiskScore(uint256,uint256)":"bad128b6","withdrawFees()":"476343ee"}}}}}