{"contracts/LoanChainV2.sol":{"LoanChainV2":{"abi":[{"inputs":[],"stateMutability":"nonpayable","type":"constructor"},{"inputs":[{"internalType":"address","name":"owner","type":"address"}],"name":"OwnableInvalidOwner","type":"error"},{"inputs":[{"internalType":"address","name":"account","type":"address"}],"name":"OwnableUnauthorizedAccount","type":"error"},{"inputs":[],"name":"ReentrancyGuardReentrantCall","type":"error"},{"inputs":[{"internalType":"address","name":"token","type":"address"}],"name":"SafeERC20FailedOperation","type":"error"},{"anonymous":false,"inputs":[{"indexed":true,"internalType":"uint256","name":"loanId","type":"uint256"},{"indexed":true,"internalType":"address","name":"lender","type":"address"},{"indexed":false,"internalType":"uint256","name":"amount","type":"uint256"}],"name":"InsuranceClaimed","type":"event"},{"anonymous":false,"inputs":[{"indexed":true,"internalType":"uint256","name":"loanId","type":"uint256"},{"indexed":true,"internalType":"enum LoanChainV2.TokenType","name":"token","type":"uint8"},{"indexed":false,"internalType":"uint256","name":"amount","type":"uint256"}],"name":"InsuranceFeeCollected","type":"event"},{"anonymous":false,"inputs":[{"indexed":true,"internalType":"enum LoanChainV2.TokenType","name":"token","type":"uint8"},{"indexed":false,"internalType":"uint256","name":"amount","type":"uint256"}],"name":"InsurancePoolContribution","type":"event"},{"anonymous":false,"inputs":[{"indexed":true,"internalType":"uint256","name":"loanId","type":"uint256"},{"indexed":false,"internalType":"uint256","name":"totalFunded","type":"uint256"},{"indexed":false,"internalType":"uint256","name":"fundedAt","type":"uint256"}],"name":"LoanFullyFunded","type":"event"},{"anonymous":false,"inputs":[{"indexed":true,"internalType":"uint256","name":"loanId","type":"uint256"},{"indexed":true,"internalType":"address","name":"lender","type":"address"},{"indexed":false,"internalType":"uint256","name":"amount","type":"uint256"},{"indexed":false,"internalType":"uint256","name":"totalFunded","type":"uint256"}],"name":"LoanPartiallyFunded","type":"event"},{"anonymous":false,"inputs":[{"indexed":true,"internalType":"uint256","name":"loanId","type":"uint256"},{"indexed":true,"internalType":"address","name":"borrower","type":"address"},{"indexed":false,"internalType":"uint256","name":"totalRepaidAmount","type":"uint256"}],"name":"LoanRepaid","type":"event"},{"anonymous":false,"inputs":[{"indexed":true,"internalType":"uint256","name":"loanId","type":"uint256"},{"indexed":true,"internalType":"address","name":"borrower","type":"address"},{"indexed":false,"internalType":"uint256","name":"totalAmount","type":"uint256"},{"indexed":false,"internalType":"enum LoanChainV2.TokenType","name":"loanToken","type":"uint8"},{"indexed":false,"internalType":"enum LoanChainV2.TokenType","name":"collateralToken","type":"uint8"},{"indexed":false,"internalType":"uint256","name":"collateralAmount","type":"uint256"},{"indexed":false,"internalType":"uint256","name":"interestRate","type":"uint256"},{"indexed":false,"internalType":"uint256","name":"duration","type":"uint256"},{"indexed":false,"internalType":"bool","name":"isVariableRate","type":"bool"}],"name":"LoanRequested","type":"event"},{"anonymous":false,"inputs":[{"indexed":true,"internalType":"address","name":"previousOwner","type":"address"},{"indexed":true,"internalType":"address","name":"newOwner","type":"address"}],"name":"OwnershipTransferred","type":"event"},{"anonymous":false,"inputs":[{"indexed":true,"internalType":"uint256","name":"loanId","type":"uint256"},{"indexed":true,"internalType":"address","name":"lender","type":"address"},{"indexed":false,"internalType":"uint256","name":"repaidAmount","type":"uint256"}],"name":"PartialRepayment","type":"event"},{"anonymous":false,"inputs":[{"indexed":true,"internalType":"address","name":"oracle","type":"address"},{"indexed":false,"internalType":"bool","name":"approved","type":"bool"}],"name":"PriceOracleUpdated","type":"event"},{"anonymous":false,"inputs":[{"indexed":true,"internalType":"enum LoanChainV2.TokenType","name":"tokenType","type":"uint8"},{"indexed":false,"internalType":"uint256","name":"newPrice","type":"uint256"}],"name":"PriceUpdated","type":"event"},{"anonymous":false,"inputs":[{"indexed":true,"internalType":"enum LoanChainV2.TokenType","name":"tokenType","type":"uint8"},{"indexed":true,"internalType":"address","name":"contractAddress","type":"address"}],"name":"TokenAdded","type":"event"},{"inputs":[],"name":"CLAIM_GRACE_PERIOD","outputs":[{"internalType":"uint256","name":"","type":"uint256"}],"stateMutability":"view","type":"function"},{"inputs":[],"name":"INSURANCE_RATE","outputs":[{"internalType":"uint256","name":"","type":"uint256"}],"stateMutability":"view","type":"function"},{"inputs":[],"name":"MAX_INTEREST_RATE","outputs":[{"internalType":"uint256","name":"","type":"uint256"}],"stateMutability":"view","type":"function"},{"inputs":[],"name":"MAX_LOAN_DURATION","outputs":[{"internalType":"uint256","name":"","type":"uint256"}],"stateMutability":"view","type":"function"},{"inputs":[],"name":"MIN_COLLATERAL_RATIO","outputs":[{"internalType":"uint256","name":"","type":"uint256"}],"stateMutability":"view","type":"function"},{"inputs":[],"name":"MIN_LOAN_DURATION","outputs":[{"internalType":"uint256","name":"","type":"uint256"}],"stateMutability":"view","type":"function"},{"inputs":[{"internalType":"enum LoanChainV2.TokenType","name":"_tokenType","type":"uint8"},{"internalType":"address","name":"_contractAddress","type":"address"},{"internalType":"uint8","name":"_decimals","type":"uint8"},{"internalType":"uint256","name":"_minLoanAmount","type":"uint256"},{"internalType":"uint256","name":"_maxLoanAmount","type":"uint256"}],"name":"addSupportedToken","outputs":[],"stateMutability":"nonpayable","type":"function"},{"inputs":[{"internalType":"address","name":"","type":"address"},{"internalType":"uint256","name":"","type":"uint256"}],"name":"borrowerLoans","outputs":[{"internalType":"uint256","name":"","type":"uint256"}],"stateMutability":"view","type":"function"},{"inputs":[{"internalType":"enum LoanChainV2.TokenType","name":"_tokenType","type":"uint8"},{"internalType":"uint256","name":"_amount","type":"uint256"}],"name":"calculateUSDValue","outputs":[{"internalType":"uint256","name":"","type":"uint256"}],"stateMutability":"view","type":"function"},{"inputs":[{"internalType":"uint256","name":"_loanId","type":"uint256"}],"name":"claimInsurance","outputs":[],"stateMutability":"nonpayable","type":"function"},{"inputs":[{"internalType":"enum LoanChainV2.TokenType","name":"_tokenType","type":"uint8"},{"internalType":"uint256","name":"_amount","type":"uint256"}],"name":"contributeToInsurancePool","outputs":[],"stateMutability":"payable","type":"function"},{"inputs":[{"internalType":"uint256","name":"_loanId","type":"uint256"},{"internalType":"uint256","name":"_amount","type":"uint256"}],"name":"fundLoan","outputs":[],"stateMutability":"payable","type":"function"},{"inputs":[],"name":"getActiveLoanRequests","outputs":[{"internalType":"uint256[]","name":"","type":"uint256[]"}],"stateMutability":"view","type":"function"},{"inputs":[{"internalType":"address","name":"_borrower","type":"address"}],"name":"getBorrowerLoans","outputs":[{"internalType":"uint256[]","name":"","type":"uint256[]"}],"stateMutability":"view","type":"function"},{"inputs":[{"internalType":"enum LoanChainV2.TokenType","name":"_tokenType","type":"uint8"}],"name":"getInsurancePoolBalance","outputs":[{"internalType":"uint256","name":"","type":"uint256"}],"stateMutability":"view","type":"function"},{"inputs":[{"internalType":"uint256","name":"_loanId","type":"uint256"},{"internalType":"address","name":"_lender","type":"address"}],"name":"getInsuranceStatus","outputs":[{"internalType":"bool","name":"hasInsurance","type":"bool"},{"internalType":"uint256","name":"insuranceFee","type":"uint256"},{"internalType":"bool","name":"isClaimed","type":"bool"},{"internalType":"bool","name":"canClaim","type":"bool"}],"stateMutability":"view","type":"function"},{"inputs":[{"internalType":"address","name":"_lender","type":"address"}],"name":"getLenderLoans","outputs":[{"internalType":"uint256[]","name":"","type":"uint256[]"}],"stateMutability":"view","type":"function"},{"inputs":[{"internalType":"uint256","name":"_loanId","type":"uint256"}],"name":"getLoan","outputs":[{"components":[{"internalType":"uint256","name":"id","type":"uint256"},{"internalType":"address","name":"borrower","type":"address"},{"internalType":"address[]","name":"lenders","type":"address[]"},{"internalType":"uint256[]","name":"lenderAmounts","type":"uint256[]"},{"internalType":"uint256","name":"totalAmount","type":"uint256"},{"internalType":"uint256","name":"totalFunded","type":"uint256"},{"internalType":"enum LoanChainV2.TokenType","name":"loanToken","type":"uint8"},{"internalType":"enum LoanChainV2.TokenType","name":"collateralToken","type":"uint8"},{"internalType":"uint256","name":"collateralAmount","type":"uint256"},{"internalType":"uint256","name":"interestRate","type":"uint256"},{"internalType":"bool","name":"isVariableRate","type":"bool"},{"internalType":"uint256","name":"duration","type":"uint256"},{"internalType":"uint256","name":"createdAt","type":"uint256"},{"internalType":"uint256","name":"fundedAt","type":"uint256"},{"internalType":"uint256","name":"dueDate","type":"uint256"},{"internalType":"enum LoanChainV2.LoanStatus","name":"status","type":"uint8"},{"internalType":"bool","name":"collateralClaimed","type":"bool"},{"internalType":"uint256","name":"riskScore","type":"uint256"},{"internalType":"bool","name":"hasInsurance","type":"bool"},{"internalType":"uint256","name":"insuranceFee","type":"uint256"}],"internalType":"struct LoanChainV2.Loan","name":"","type":"tuple"}],"stateMutability":"view","type":"function"},{"inputs":[{"internalType":"enum LoanChainV2.TokenType","name":"_tokenType","type":"uint8"}],"name":"getSupportedToken","outputs":[{"components":[{"internalType":"address","name":"contractAddress","type":"address"},{"internalType":"enum LoanChainV2.TokenType","name":"tokenType","type":"uint8"},{"internalType":"uint8","name":"decimals","type":"uint8"},{"internalType":"bool","name":"isActive","type":"bool"},{"internalType":"uint256","name":"minLoanAmount","type":"uint256"},{"internalType":"uint256","name":"maxLoanAmount","type":"uint256"}],"internalType":"struct LoanChainV2.Token","name":"","type":"tuple"}],"stateMutability":"view","type":"function"},{"inputs":[{"internalType":"enum LoanChainV2.TokenType","name":"_tokenType","type":"uint8"}],"name":"getTokenPrice","outputs":[{"internalType":"uint256","name":"","type":"uint256"}],"stateMutability":"view","type":"function"},{"inputs":[{"internalType":"enum LoanChainV2.TokenType","name":"_tokenType","type":"uint8"}],"name":"getTokenPriceInfo","outputs":[{"internalType":"uint256","name":"price","type":"uint256"},{"internalType":"uint256","name":"lastUpdate","type":"uint256"},{"internalType":"uint256","name":"source1","type":"uint256"},{"internalType":"uint256","name":"source2","type":"uint256"},{"internalType":"uint256","name":"updateCount","type":"uint256"},{"internalType":"bool","name":"isStale","type":"bool"}],"stateMutability":"view","type":"function"},{"inputs":[{"internalType":"uint256","name":"","type":"uint256"},{"internalType":"address","name":"","type":"address"}],"name":"hasClaimedInsurance","outputs":[{"internalType":"bool","name":"","type":"bool"}],"stateMutability":"view","type":"function"},{"inputs":[{"internalType":"enum LoanChainV2.TokenType","name":"","type":"uint8"}],"name":"insurancePools","outputs":[{"internalType":"uint256","name":"","type":"uint256"}],"stateMutability":"view","type":"function"},{"inputs":[{"internalType":"address","name":"","type":"address"}],"name":"lenderInsuranceContributions","outputs":[{"internalType":"uint256","name":"","type":"uint256"}],"stateMutability":"view","type":"function"},{"inputs":[{"internalType":"address","name":"","type":"address"},{"internalType":"uint256","name":"","type":"uint256"}],"name":"lenderLoans","outputs":[{"internalType":"uint256","name":"","type":"uint256"}],"stateMutability":"view","type":"function"},{"inputs":[{"internalType":"uint256","name":"","type":"uint256"},{"internalType":"address","name":"","type":"address"}],"name":"lenderPositions","outputs":[{"internalType":"address","name":"lender","type":"address"},{"internalType":"uint256","name":"amount","type":"uint256"},{"internalType":"uint256","name":"fundedAt","type":"uint256"},{"internalType":"bool","name":"repaid","type":"bool"},{"internalType":"uint256","name":"repaidAmount","type":"uint256"}],"stateMutability":"view","type":"function"},{"inputs":[{"internalType":"uint256","name":"","type":"uint256"}],"name":"loans","outputs":[{"internalType":"uint256","name":"id","type":"uint256"},{"internalType":"address","name":"borrower","type":"address"},{"internalType":"uint256","name":"totalAmount","type":"uint256"},{"internalType":"uint256","name":"totalFunded","type":"uint256"},{"internalType":"enum LoanChainV2.TokenType","name":"loanToken","type":"uint8"},{"internalType":"enum LoanChainV2.TokenType","name":"collateralToken","type":"uint8"},{"internalType":"uint256","name":"collateralAmount","type":"uint256"},{"internalType":"uint256","name":"interestRate","type":"uint256"},{"internalType":"bool","name":"isVariableRate","type":"bool"},{"internalType":"uint256","name":"duration","type":"uint256"},{"internalType":"uint256","name":"createdAt","type":"uint256"},{"internalType":"uint256","name":"fundedAt","type":"uint256"},{"internalType":"uint256","name":"dueDate","type":"uint256"},{"internalType":"enum LoanChainV2.LoanStatus","name":"status","type":"uint8"},{"internalType":"bool","name":"collateralClaimed","type":"bool"},{"internalType":"uint256","name":"riskScore","type":"uint256"},{"internalType":"bool","name":"hasInsurance","type":"bool"},{"internalType":"uint256","name":"insuranceFee","type":"uint256"}],"stateMutability":"view","type":"function"},{"inputs":[],"name":"nextLoanId","outputs":[{"internalType":"uint256","name":"","type":"uint256"}],"stateMutability":"view","type":"function"},{"inputs":[],"name":"owner","outputs":[{"internalType":"address","name":"","type":"address"}],"stateMutability":"view","type":"function"},{"inputs":[{"internalType":"address","name":"","type":"address"}],"name":"priceOracles","outputs":[{"internalType":"bool","name":"","type":"bool"}],"stateMutability":"view","type":"function"},{"inputs":[],"name":"renounceOwnership","outputs":[],"stateMutability":"nonpayable","type":"function"},{"inputs":[{"internalType":"uint256","name":"_loanId","type":"uint256"}],"name":"repayLoan","outputs":[],"stateMutability":"payable","type":"function"},{"inputs":[{"internalType":"uint256","name":"_totalAmount","type":"uint256"},{"internalType":"enum LoanChainV2.TokenType","name":"_loanToken","type":"uint8"},{"internalType":"enum LoanChainV2.TokenType","name":"_collateralToken","type":"uint8"},{"internalType":"uint256","name":"_collateralAmount","type":"uint256"},{"internalType":"uint256","name":"_interestRate","type":"uint256"},{"internalType":"uint256","name":"_duration","type":"uint256"},{"internalType":"bool","name":"_isVariableRate","type":"bool"},{"internalType":"bool","name":"_hasInsurance","type":"bool"}],"name":"requestLoan","outputs":[],"stateMutability":"payable","type":"function"},{"inputs":[{"internalType":"address","name":"_oracle","type":"address"},{"internalType":"bool","name":"_approved","type":"bool"}],"name":"setPriceOracle","outputs":[],"stateMutability":"nonpayable","type":"function"},{"inputs":[{"internalType":"enum LoanChainV2.TokenType","name":"","type":"uint8"}],"name":"supportedTokens","outputs":[{"internalType":"address","name":"contractAddress","type":"address"},{"internalType":"enum LoanChainV2.TokenType","name":"tokenType","type":"uint8"},{"internalType":"uint8","name":"decimals","type":"uint8"},{"internalType":"bool","name":"isActive","type":"bool"},{"internalType":"uint256","name":"minLoanAmount","type":"uint256"},{"internalType":"uint256","name":"maxLoanAmount","type":"uint256"}],"stateMutability":"view","type":"function"},{"inputs":[{"internalType":"enum LoanChainV2.TokenType","name":"","type":"uint8"}],"name":"tokenPrices","outputs":[{"internalType":"uint256","name":"price","type":"uint256"},{"internalType":"uint256","name":"lastUpdate","type":"uint256"},{"internalType":"uint256","name":"priceSource1","type":"uint256"},{"internalType":"uint256","name":"priceSource2","type":"uint256"},{"internalType":"uint256","name":"updateCount","type":"uint256"}],"stateMutability":"view","type":"function"},{"inputs":[{"internalType":"address","name":"newOwner","type":"address"}],"name":"transferOwnership","outputs":[],"stateMutability":"nonpayable","type":"function"},{"inputs":[{"internalType":"enum LoanChainV2.TokenType","name":"_tokenType","type":"uint8"},{"internalType":"uint256","name":"_price1","type":"uint256"},{"internalType":"uint256","name":"_price2","type":"uint256"}],"name":"updateTokenPrice","outputs":[],"stateMutability":"nonpayable","type":"function"}],"evm":{"bytecode":{"linkReferences":{},"object":"608060409080825234620002c0576001906000908282553315620002ac57508154336001600160a01b03198216811784556001600160a01b039182167f8be0079c531659141344cd1fd0a4f28419497f9722a3daafe3b4186f6b6457e08480a360028381558451919060c083016001600160401b03811184821017620002985786528383526020928381018581528782016012815260608301908882526080840191662386f26fc10000835260a0850193683635c9adc5dea000008552898052600397888a528c8b209651168654915193600585101562000284575192516001600160b81b03199092161760a09390931b60ff60a01b169290921760a89190911b60ff60a81b161790151560b01b60ff60b01b1617835551878301555190820155859392600992909160049062000135620002c5565b82643a35294400808352868301904282528a84018181526060850191825260808501928d84528b805260088a528c8c2095518655518d860155518585015551868401555191015562000186620002c5565b926305f5e100938481528386898b8d838601428152828701928b845260608801948c8652600860808a019785895285835252209651875551908601555186850155518484015551910155620001da620002c5565b8481524286820190815289820186815260608301878152608084018d8152868c5260088a528c8c20945185559251848e01559051838601555183830155519084015562000226620002c5565b93808552858501924284528986018281526060870192835260808701948c8652848b52600889528b8b2097518855518c880155519086015551908401555191015533835252209060ff19825416179055516135829081620002fc8239f35b634e487b7160e01b8c52602160045260248cfd5b634e487b7160e01b85526041600452602485fd5b602491631e4fbdf760e01b82526004820152fd5b600080fd5b6040519060a082016001600160401b03811183821017620002e557604052565b634e487b7160e01b600052604160045260246000fdfe60a0604052600436101561001257600080fd5b60003560e01c8062b752ca14612c815780630137451814612c425780630d0b2ca614612c2357806318fa96de14612be95780631988a684146119175780632e2106af14612bcb5780632ffc204b14612ab957806334855d1414612a9c5780633cdb72f114612a525780633f572d36146129d35780634dd9cccc146126e1578063504006ca14612366578063626066cc14612319578063715018a6146122bc5780637a9fffb7146122a057806382626d6b14612284578063858a9ea0146121fc57806387c51459146121de57806389d99a05146121c15780638da5cb5b146121985780639772d7ee1461208a578063ab7b1c8914611b46578063ad8d013814611acb578063b0b3ca4714611948578063b59d17ab14611917578063c7fc13251461187e578063d42c4c531461178e578063d89e8c1c1461170e578063deceafa7146116b1578063e1ec3c6814611562578063e3ed19021461150a578063eee8b7ff146114d0578063eeeb0c171461147e578063f2fde38b146113f5578063f4512bb614610f70578063f498c9cc14610693578063f85920d8146101e35763fe6993b8146101bd57600080fd5b346101de5760206101d66101d036612f05565b9061308d565b604051908152f35b600080fd5b346101de576020806003193601126101de57600435610200613314565b806000526004825260406000209161021a83541515613337565b60ff9081600e8501541660068110156103f0576004036106575781601085015416156106135782600052600b8152604060002033600052815281604060002054166105be57600d84015462093a8081018091116105a857421061056b576000936000946000600283018054915b82811061050f57505050156104ca5784156104905760068101906102ad84835416612e3e565b5495861561044b579060046102ca6102d393601184015490613029565b91015490612ffc565b94851161040657829084600052600b835260406000203360005283526040600020600160ff1982541617905561030b82825416612e3e565b61031687825461301c565b9055541660058110156103f057847f9575558b5d6ac5e60a8a8ad59be28fbdca3803658e380fdea5d922214559f8cd93821560001461037c575061036c9150600080808093335af1610366613379565b506133b9565b6040519384523393a36001600055005b6103886103eb93612e57565b9060026040519261039884612f50565b80546001600160a01b03808216865293906103bb60a082901c83168a8801612fe3565b818160a81c16604087015260b01c161515606085015260018101546080850152015460a083015233915116613499565b61036c565b634e487b7160e01b600052602160045260246000fd5b60405162461bcd60e51b815260048101839052601c60248201527f496e73756666696369656e7420696e737572616e63652066756e6473000000006044820152606490fd5b60405162461bcd60e51b815260048101859052601c60248201527f4e6f20696e737572616e63652066756e647320617661696c61626c65000000006044820152606490fd5b60405162461bcd60e51b81526004810183905260126024820152714e6f20616d6f756e7420746f20636c61696d60701b6044820152606490fd5b60405162461bcd60e51b815260048101839052601960248201527f4e6f742061206c656e646572206f6e2074686973206c6f616e000000000000006044820152606490fd5b6105198183612e89565b9054600391821b1c6001600160a01b03163314610540575b5061053b9061303c565b610287565b93509761056461053b916001956105598c828a01612e89565b9054911b1c90612fef565b9890610531565b6064906040519062461bcd60e51b82526004820152601660248201527511dc9858d9481c195c9a5bd9081b9bdd08195b99195960521b6044820152fd5b634e487b7160e01b600052601160045260246000fd5b6084906040519062461bcd60e51b82526004820152602860248201527f496e737572616e636520616c726561647920636c61696d65642062792074686960448201526739903632b73232b960c11b6064820152fd5b6064906040519062461bcd60e51b82526004820152601c60248201527f4c6f616e20646f6573206e6f74206861766520696e737572616e6365000000006044820152fd5b6064906040519062461bcd60e51b825260048201526015602482015274131bd85b881a5cc81b9bdd08191959985d5b1d1959605a1b6044820152fd5b6101003660031901126101de5760056024351015806101de57600560443510156101de5760c4359081151582036101de5760e435151560e435036101de576106d9613314565b60043515610f2057610bb860843511610ee257610e1060a435101580610ed2575b15610e9a5760ff61070c602435612e57565b5460b01c1615610e555760ff610723604435612e57565b5460b01c1615610e105761073b60043560243561308d565b61074960643560443561308d565b906078810290808204607814901517156105a8576064900411610dcb57600254906107738261303c565b60025560009060e435610da8575b604435610ca95760643560e4358281610c99575b50610c87575b3403610c12575b60e435610b3e575b50604051906107b882612fa5565b600082526040516107c881612fa5565b60008152604051926107d984612f6c565b848452336020850152604084015260608301526004356080830152600060a083015261080a60243560c08401612fe3565b61081960443560e08401612fe3565b60643561010083015260843561012083015283151561014083015260a4356101608301524261018083015260006101a083015260006101c083015260006101e083015260006102008301526101f461022083015260e4351515610240830152610260820152816000526004602052604060002090805182556001820160018060a01b036020830151166001600160601b0360a01b825416179055604081015180519067ffffffffffffffff8211610b0b57600160401b8211610b0b57602060028501916108eb848454818655856131fa565b0190600052602060002060005b838110610b215750505050606081015180519067ffffffffffffffff8211610b0b57600160401b8211610b0b576020600385019161093b848454818655856131fa565b0190600052602060002060005b838110610af757505050506080810151600483015560a0810151600583015560c081015160058110156103f057600683015460e083015160058110156103f05761ff0060ff9160081b1692169061ffff191617176006830155610100810151600783015561012081015160088301556109d76101408201511515600984019060ff801983541691151516179055565b610160810151600a830155610180810151600b8301556101a0810151600c8301556101c0810151600d8301556101e081015160068110156103f05760119161026091600e850190815460ff61ff00610200860151151560081b1692169061ffff191617179055610220810151600f850155610a686102408201511515601086019060ff801983541691151516179055565b0151910155336000526006602052610a8481604060002061322e565b604051916004358352610a9c60208401602435612eb7565b610aab60408401604435612eb7565b6064356060840152608435608084015260a43560a0840152151560c08301527fabdb66e6184682b23b47b8b6a7923f5b99d0155e0155200bda4753d7e784699e60e03393a36001600055005b600190602084519401938184015501610948565b634e487b7160e01b600052604160045260246000fd5b82516001600160a01b0316818301556020909201916001016108f8565b6103f057602435610b97575b610b55602435612e3e565b610b60828254612fef565b9055604051818152827f4c87e05722f69fee95be0764a567cb86600aae646a205352052c4b1a8723a069602060243593a3836107aa565b610c0d81610ba6602435612e57565b604051610bb281612f50565b81546001600160a01b0380821683529260029160ff90610bdb60a082901c831660208701612fe3565b818160a81c16604086015260b01c161515606084015260018101546080840152015460a0820152511630903390613263565b610b4a565b60405162461bcd60e51b815260206004820152604160248201527f4554482073656e74206d757374206d6174636820636f6c6c61746572616c207060448201527f6c757320696e737572616e63652066656520286966206170706c696361626c656064820152602960f81b608482015260a490fd5b50610c9482606435612fef565b61079b565b90506103f0576024351582610795565b60e43580610d9b575b15610d8c57813403610d3d575b610d38610ccd604435612e57565b604051610cd981612f50565b81546001600160a01b0380821683529260029160ff90610d0260a082901c831660208701612fe3565b818160a81c16604086015260b01c161515606084015260018101546080840152015460a082015251166064359030903390613263565b6107a2565b60405162461bcd60e51b815260206004820152602160248201527f4d7573742073656e642065786163742045544820696e737572616e63652066656044820152606560f81b6064820152608490fd5b610d96341561316c565b610cbf565b5050600060243515610cb2565b9050600435606460043502046064036105a8576127106064600435020490610781565b60405162461bcd60e51b815260206004820152601760248201527f496e73756666696369656e7420636f6c6c61746572616c0000000000000000006044820152606490fd5b60405162461bcd60e51b815260206004820152601e60248201527f436f6c6c61746572616c20746f6b656e206e6f7420737570706f7274656400006044820152606490fd5b60405162461bcd60e51b815260206004820152601860248201527f4c6f616e20746f6b656e206e6f7420737570706f7274656400000000000000006044820152606490fd5b60405162461bcd60e51b815260206004820152601060248201526f24b73b30b634b210323ab930ba34b7b760811b6044820152606490fd5b506301e1338060a43511156106fa565b60405162461bcd60e51b8152602060048201526016602482015275092dce8cae4cae6e840e4c2e8ca40e8dede40d0d2ced60531b6044820152606490fd5b60405162461bcd60e51b815260206004820152602260248201527f4c6f616e20616d6f756e74206d7573742062652067726561746572207468616e604482015261020360f41b6064820152608490fd5b60403660031901126101de57610f84613314565b6004356000526004602052604060002060018060a01b03600182015416610fac811515613337565b60ff600e8301541660068110156103f05780159081156113ea575b50156113b057331461136b576024351561131857610feb6024356005830154612fef565b6004820154106112dd5760ff60068201541660058110156103f0578061125a57506024353403611215575b60405161102281612f89565b33815260046020820160243581526110a7604084014281526060850190600082526080860193600085528535600052600560205260406000203360005260205260406000209660018060a01b039051166001600160601b0360a01b885416178755516001870155516002860155511515600385019060ff801983541691151516179055565b51910155600281018054600160401b811015610b0b576110cc91600182018155612e89565b81549060031b9033821b9160018060a01b03901b19161790556110f46024356003830161322e565b6111046024356005830154612fef565b6005820155336000526007602052611122600435604060002061322e565b6005810154600482015490919082106111c85760059150600160ff19600e8301541617600e82015542600c82015561115e600a82015442612fef565b600d82015560068101546001820154600483015461118a9290916001600160a01b03169060ff166133fb565b01546040519081524260208201527fb96bada2a4e2e402aaa472b5e783a9d8bb13d996387df6beea608680b31ff46f604060043592a25b6001600055005b600e600260ff19828401541617910155604051906024358252602082015233907f73a9841ee04f39f41b73f9432c749617285427e60f2fbe3a1bf5a5ef2e6b16cb604060043592a36111c1565b60405162461bcd60e51b815260206004820152601960248201527f496e636f72726563742045544820616d6f756e742073656e74000000000000006044820152606490fd5b6112666112d891612e57565b60026040519161127583612f50565b80546001600160a01b038116845260ff9061129960a082901c831660208701612fe3565b60a881901c8216604086015260b01c161515606084015260018101546080840152015460a08201525160243590309033906001600160a01b0316613263565b611016565b60405162461bcd60e51b8152602060048201526013602482015272115e18d959591cc81b1bd85b88185b5bdd5b9d606a1b6044820152606490fd5b60405162461bcd60e51b815260206004820152602560248201527f46756e64696e6720616d6f756e74206d75737420626520677265617465722074604482015264068616e20360dc1b6064820152608490fd5b60405162461bcd60e51b815260206004820152601960248201527f43616e6e6f742066756e6420796f7572206f776e206c6f616e000000000000006044820152606490fd5b60405162461bcd60e51b81526020600482015260126024820152714c6f616e206e6f7420617661696c61626c6560701b6044820152606490fd5b600291501483610fc7565b346101de5760203660031901126101de5761140e612e28565b611416612f24565b6001600160a01b0390811690811561146557600154826001600160601b0360a01b821617600155167f8be0079c531659141344cd1fd0a4f28419497f9722a3daafe3b4186f6b6457e0600080a3005b604051631e4fbdf760e01b815260006004820152602490fd5b346101de5760203660031901126101de576001600160a01b0361149f612e28565b1660005260076020526114cc6114b860406000206134e9565b604051918291602083526020830190612ec4565b0390f35b346101de5760203660031901126101de576001600160a01b036114f1612e28565b1660005260066020526114cc6114b860406000206134e9565b346101de5760403660031901126101de57611523612e28565b6001600160a01b03166000908152600660205260409020805460243591908210156101de5760209161155491612e89565b90546040519160031b1c8152f35b346101de5760203660031901126101de576004356000526004602052604060002080549080600160a01b6001900360018201541660048201546005830154600684015460078501546008860154600987015460ff1690600a88015492600b89015494600c8a015496600d8b015498600e8c01549a600f8d01549c6010015460ff169d601101549e604051806080525260805160200152608051604001526080516060015260805160800160ff82169061161a91612eb7565b60805160a0019060081c60ff169061163191612eb7565b60805160c0015260805160e001521515608051610100015260805161012001526080516101400152608051610160015260805161018001526080516101a00160ff82169061167e91612ef8565b60081c60ff1615156080516101c001526080516101e0015215156080516102000152608051610220015260805161024090f35b346101de5760203660031901126101de5760043560058110156101de576116d960a091612e70565b805490600181015490600281015460046003830154920154926040519485526020850152604084015260608301526080820152f35b346101de5760203660031901126101de5760043560058110156101de57611736602091612e70565b611785610e1061177e6040519361174c85612f89565b80548552600460018201549182888801526002810154604088015260038101546060880152015460808601524261301c565b111561304b565b51604051908152f35b346101de5760203660031901126101de5760043560058110156101de576117e360c091600060a06040516117c181612f50565b8281528260208201528260408201528260608201528260808201520152612e57565b604051906117f082612f50565b80546001600160a01b038082168452919060ff6020850161181760a084901c831682612fe3565b6118616040870191838560a81c16835283606089019560b01c1615158552600260018701549660808a0197885201549660a089019788526040519851168852516020880190612eb7565b5116604085015251151560608401525160808301525160a0820152f35b346101de5760203660031901126101de5760043560058110156101de576118a660c091612e70565b6040516118b281612f89565b6080825492838352600181015492836020820152600282015490816040820152600460038401549384606084015201549384910152610e106118f4854261301c565b1193604051958652602086015260408501526060840152608083015260a0820152f35b346101de5760203660031901126101de5760043560058110156101de5761193f602091612e3e565b54604051908152f35b61195136612f05565b611959613314565b8015611a865760058210156103f05781611a12578034036119d75760207f6fa38037a90881b4bc2d0759bcac6c48179affdd02749ff4474eac352d847b36915b6119a284612e3e565b6119ad828254612fef565b905533600052600c825260406000206119c7828254612fef565b9055604051908152a26001600055005b60405162461bcd60e51b815260206004820152601360248201527208aa89040c2dadeeadce840dad2e6dac2e8c6d606b1b6044820152606490fd5b60207f6fa38037a90881b4bc2d0759bcac6c48179affdd02749ff4474eac352d847b3691611a40341561316c565b611a8181611a4d86612e57565b604051611a5981612f50565b81546001600160a01b0380821683529260029160ff90610bdb60a082901c83168b8701612fe3565b611999565b60405162461bcd60e51b815260206004820152601760248201527f416d6f756e74206d75737420626520706f7369746976650000000000000000006044820152606490fd5b346101de5760403660031901126101de5760a0611ae6612e12565b60043560005260056020526040600020600180841b03809216600052602052604060002090815416906001810154906002810154600460ff6003840154169201549260405194855260208501526040840152151560608301526080820152f35b60203660031901126101de57611b5a613314565b6004356000526004602052604060002060018060a01b0360018201541633036120455760ff600e8201541660068110156103f05760010361200e57600d8101544211611fda57611bc06004820154612710611bb9600885015483613029565b0490612fef565b9060ff60068201541660058110156103f05780611e72575090803410611e2d5760005b6002830154811015611cd357611bfc8160028501612e89565b60018060a01b0391549060031b1c1690611c34611c1c8260038701612e89565b90549060031b1c612710611bb9600888015483613029565b600080808084875af1611c45613379565b5015611c8e576004803560009081526005602090815260408083209683529590529390932060038101805460ff1916600117905590920191909155611c899061303c565b611be3565b60405162461bcd60e51b815260206004820152601960248201527f5472616e7366657220746f206c656e646572206661696c6564000000000000006044820152606490fd5b5090813411611dd2575b600e600360ff1982840154161791015560043560005260046020526040600020600e81019060ff825460081c16611d8d57600781015480611d51575b8360405190815233907f512d3e65b3e58c2187bb1872aa435dba5bd09c1c03823ba56ab70aac411e4a21602060043592a36001600055005b6006820154600190920154611d78926001600160a01b03919091169060081c60ff166133fb565b805461ff001916610100179055818080611d19565b60405162461bcd60e51b815260206004820152601a60248201527f436f6c6c61746572616c20616c726561647920636c61696d65640000000000006044820152606490fd5b6000808080611de1863461301c565b335af1611dec613379565b50611cdd5760405162461bcd60e51b8152602060048201526014602482015273115e18d95cdcc81c995d1d5c9b8819985a5b195960621b6044820152606490fd5b60405162461bcd60e51b815260206004820152601d60248201527f496e73756666696369656e742072657061796d656e7420616d6f756e740000006044820152606490fd5b34611f8a57611e8090612e57565b600260405191611e8f83612f50565b80546001600160a01b038116845260ff90611eb360a082901c831660208701612fe3565b60a881901c8216604086015260b01c161515606084015260018101546080840152015460a0820152516001600160a01b031660005b6002830154811015611f835780611f05611f7e9260028601612e89565b60018060a01b0391549060031b1c16611f3c611f248360038801612e89565b90549060031b1c612710611bb9600889015483613029565b90611f4982823388613263565b6004803560009081526005602090815260408083209483529390529190912060038101805460ff19166001179055015561303c565b611ee8565b5050611cdd565b60405162461bcd60e51b815260206004820152602260248201527f455448206e6f74206e656564656420666f722045524332302072657061796d656044820152611b9d60f21b6064820152608490fd5b60405162461bcd60e51b815260206004820152600c60248201526b131bd85b88195e1c1a5c995960a21b6044820152606490fd5b60405162461bcd60e51b815260206004820152600f60248201526e4c6f616e206e6f742061637469766560881b6044820152606490fd5b60405162461bcd60e51b815260206004820152601760248201527f4f6e6c7920626f72726f7765722063616e2072657061790000000000000000006044820152606490fd5b346101de5760003660031901126101de576002805460001981018181116105a8576120b4906131c8565b9160009160015b818110612113575050506120ce816131c8565b9160005b8281106120ef57604051602080825281906114cc90820187612ec4565b806120fd61210e9284613538565b516121088287613538565b5261303c565b6120d2565b8060005260206004815260ff600e908082604060002001541691600692838110156103f05715938415612173575b50505050612158575b6121539061303c565b6120bb565b9261216b81856121086121539489613538565b93905061214a565b600086815260049091526040902001541691508110156103f057831486808080612141565b346101de5760003660031901126101de576001546040516001600160a01b039091168152602090f35b346101de5760003660031901126101de576020604051610e108152f35b346101de5760003660031901126101de576020600254604051908152f35b346101de5760403660031901126101de57612215612e28565b60243590811515908183036101de577f32fde6397cd391b6f81b58789e435d67003507393605e8ab5c6ec76aaf7916a19161227b602092612254612f24565b60018060a01b031694856000526009845260406000209060ff801983541691151516179055565b604051908152a2005b346101de5760003660031901126101de57602060405160648152f35b346101de5760003660031901126101de57602060405160788152f35b346101de5760003660031901126101de576122d5612f24565b600180546001600160a01b031981169091556000906001600160a01b03167f8be0079c531659141344cd1fd0a4f28419497f9722a3daafe3b4186f6b6457e08280a3005b346101de5760403660031901126101de57612332612e12565b600435600052600b60205260406000209060018060a01b0316600052602052602060ff604060002054166040519015158152f35b346101de5760203660031901126101de57600061026060405161238881612f6c565b828152826020820152606060408201526060808201528260808201528260a08201528260c08201528260e08201528261010082015282610120820152826101408201528261016082015282610180820152826101a0820152826101c0820152826101e08201528261020082015282610220820152826102408201520152600435600052600460205260406000206040519061242282612f6c565b8054825260018060a01b0360018201541660208301526040518081600284016020815493848152019060005260206000209260005b8181106126bf57505061246c92500382612fc1565b604083015261247d600382016134e9565b606083015260048101546080830152600581015460a08301526124bc60ff60068301546124af82821660c08701612fe3565b60081c1660e08401612fe3565b6007810154610100830152600881015461012083015260ff6009820154161515610140830152600a810154610160830152600b810154610180830152600c8101546101a0830152600d8101546101c0830152600e81015490600660ff831610156103f05760ff8281601194166101e086015260081c161515610200840152600f81015461022084015260ff60108201541615156102408401520154610260820152604051602081528151602082015260018060a01b03602083015116604082015260408201519161028060608301526102a08201835180915260206102c0840194019060005b8181106126a0575050506102606125ca83946060840151601f19868303016080870152612ec4565b91608081015160a085015260a081015160c08501526125f160c082015160e0860190612eb7565b61260460e0820151610100860190612eb7565b61010081015161012085015261012081015161014085015261014081015115156101608501526101608101516101808501526101808101516101a08501526101a08101516101c08501526101c08101516101e085015261266e6101e0820151610200860190612ef8565b610200810151151561022085015261022081015161024085015261024081015115158285015201516102808301520390f35b82516001600160a01b03168652602095860195909201916001016125a2565b84546001600160a01b0316835260019485019486945060209093019201612457565b346101de5760603660031901126101de5760043560058110156101de57602490813591604435336000526020916009835260ff60406000205416156129905784151580612987575b156129535761273784612e70565b906127428387612fef565b60011c928087111561292357612758818861301c565b6127109081810291818304149015171561290e57612779826103e892612ffc565b116128ca576004830192835492836127d8575b50906003827ff798c75b2db09ea1034d9be253e9974b17bbe4a06f2b0ff6695054fa5b7471919899876127cd9695554260018301556002820155015561303c565b9055604051908152a2005b9781548681811160001461288657816127f09161301c565b6127109081810291818304149015171561287157610bb89161281191612ffc565b1161281c579761278c565b60405162461bcd60e51b8152600481018890526028818b01527f4e657720707269636520646576696174657320746f6f206d7563682066726f6d6044820152670818dd5c9c995b9d60c21b6064820152608490fd5b8a634e487b7160e01b60005260116004526000fd5b61288f9161301c565b612710908181029181830414901517156128b5576128b087610bb892612ffc565b612811565b89634e487b7160e01b60005260116004526000fd5b60405162461bcd60e51b815260048101869052601e818401527f507269636520736f7572636573206465766961746520746f6f206d75636800006044820152606490fd5b82634e487b7160e01b60005260116004526000fd5b61292d878261301c565b6127109081810291818304149015171561290e5761294e886103e892612ffc565b612779565b82600e6064926040519262461bcd60e51b845260048401528201526d496e76616c69642070726963657360901b6044820152fd5b50811515612729565b82601b6064926040519262461bcd60e51b845260048401528201527f4e6f7420617574686f72697a6564207072696365206f7261636c6500000000006044820152fd5b346101de5760203660031901126101de5760043560058110156101de576129fb60c091612e57565b805460018201546002909201546040516001600160a01b038316815292909160ff90612a306020860160a083901c8416612eb7565b818160a81c16604086015260b01c1615156060840152608083015260a0820152f35b346101de5760403660031901126101de57612a6b612e28565b6001600160a01b03166000908152600760205260409020805460243591908210156101de5760209161155491612e89565b346101de5760003660031901126101de576020604051610bb88152f35b346101de5760a03660031901126101de5760043560058110156101de57612ade612e12565b9060443560ff81168091036101de57612af5612f24565b60405190612b0282612f50565b6001600160a01b039384168083529360208301612b1f8582612fe3565b604084019283526060840190600182526080850191606435835260a08601936084358552612b4c88612e57565b96511691865490519260058410156103f05760029660ff60a81b905160a81b169260ff60b01b9051151560b01b169360ff60a01b9060a01b169168ffffffffffffffffff60b81b16171717178455516001840155519101557f0782d5a983f4f99019eb2dc8dfe67419752a13dca743154e71029fc01318d055600080a3005b346101de5760003660031901126101de57602060405162093a808152f35b346101de5760203660031901126101de576001600160a01b03612c0a612e28565b16600052600c6020526020604060002054604051908152f35b346101de5760003660031901126101de5760206040516301e133808152f35b346101de5760203660031901126101de576001600160a01b03612c63612e28565b166000526009602052602060ff604060002054166040519015158152f35b346101de5760403660031901126101de57600435612c9d612e12565b9080600052602060048152604060002091612cba83541515613337565b60ff6010840154169160118401549382600052600b825260406000209260018060a01b038097169384600052835260ff60406000205416936000906000926000600286019a8b54915b828110612dc6575050508780999a5097612daa575b87612d87575b505085612d7f575b5084612d75575b5083612d54575b509360809460405194151585528401521515604083015215156060820152f35b600d91935001549362093a8085018095116105a85793421015916080612d34565b1515935086612d2d565b945087612d26565b6000908152600b86526040808220928252918652205460ff161595508880612d1e565b965060ff600e8501541660068110156103f05760041496612d18565b8185612dd38f8490612e89565b929054600393841b1c1614612df2575b50612ded9061303c565b612d03565b955095612e0b612ded916001976105598a828d01612e89565b9690612de3565b602435906001600160a01b03821682036101de57565b600435906001600160a01b03821682036101de57565b60058110156103f057600052600a602052604060002090565b60058110156103f0576000526003602052604060002090565b60058110156103f0576000526008602052604060002090565b8054821015612ea15760005260206000200190600090565b634e487b7160e01b600052603260045260246000fd5b9060058210156103f05752565b90815180825260208080930193019160005b828110612ee4575050505090565b835185529381019392810192600101612ed6565b9060068210156103f05752565b60409060031901126101de5760043560058110156101de579060243590565b6001546001600160a01b03163303612f3857565b60405163118cdaa760e01b8152336004820152602490fd5b60c0810190811067ffffffffffffffff821117610b0b57604052565b610280810190811067ffffffffffffffff821117610b0b57604052565b60a0810190811067ffffffffffffffff821117610b0b57604052565b6020810190811067ffffffffffffffff821117610b0b57604052565b90601f8019910116810190811067ffffffffffffffff821117610b0b57604052565b60058210156103f05752565b919082018092116105a857565b8115613006570490565b634e487b7160e01b600052601260045260246000fd5b919082039182116105a857565b818102929181159184041417156105a857565b60001981146105a85760010190565b1561305257565b60405162461bcd60e51b815260206004820152601360248201527250726963652064617461206973207374616c6560681b6044820152606490fd5b9061315060ff916131006130a085612e57565b946040516130ad81612f50565b86546001600160a01b03811682529660a0906002906130d38a841c8a1660208601612fe3565b88604085019a818160a81c168c5260b01c1615156060850152600181015460808501520154910152612e70565b613149610e1061177e6040519361311685612f89565b8054855260046001820154918260208801526002810154604088015260038101546060880152015460808601524261301c565b5190613029565b91511690604d82116105a85761316991600a0a90612ffc565b90565b1561317357565b60405162461bcd60e51b8152602060048201526015602482015274139bc8115512081cda1bdd5b19081899481cd95b9d605a1b6044820152606490fd5b67ffffffffffffffff8111610b0b5760051b60200190565b906131d2826131b0565b6131df6040519182612fc1565b82815280926131f0601f19916131b0565b0190602036910137565b909182811061320857505050565b60009182526020822092830192015b82811061322357505050565b818155600101613217565b8054600160401b811015610b0b5761324b91600182018155612e89565b819291549060031b91821b91600019901b1916179055565b6040516323b872dd60e01b60208201526001600160a01b0392831660248201529290911660448301526064808301939093529181526132aa916132a582612f89565b6132ac565b565b906000602091828151910182855af115613308576000513d6132ff57506001600160a01b0381163b155b6132dd5750565b604051635274afe760e01b81526001600160a01b039091166004820152602490fd5b600114156132d6565b6040513d6000823e3d90fd5b600260005414613325576002600055565b604051633ee5aeb560e01b8152600490fd5b1561333e57565b60405162461bcd60e51b8152602060048201526013602482015272131bd85b88191bd95cc81b9bdd08195e1a5cdd606a1b6044820152606490fd5b3d156133b4573d9067ffffffffffffffff8211610b0b57604051916133a8601f8201601f191660200184612fc1565b82523d6000602084013e565b606090565b156133c057565b60405162461bcd60e51b8152602060048201526013602482015272115512081d1c985b9cd9995c8819985a5b1959606a1b6044820152606490fd5b91909160058110156103f0578061342d57506132aa916000918291829182916001600160a01b03165af1610366613379565b9161343a6132aa93612e57565b60405161344681612f50565b81546001600160a01b0380821683529260029160ff9061346f60a082901c831660208701612fe3565b818160a81c16604086015260b01c161515606084015260018101546080840152015460a082015251165b60405163a9059cbb60e01b60208201526001600160a01b039092166024830152604480830193909352918152608081019167ffffffffffffffff831182841017610b0b576132aa926040526132ac565b9060405191828154918282526020928383019160005283600020936000905b82821061351e575050506132aa92500383612fc1565b855484526001958601958895509381019390910190613508565b8051821015612ea15760209160051b01019056fea2646970667358221220863c6ce8e13a6b1df88a75da624742c2efc84e397ee1f61e65e7b9b2a599694e64736f6c63430008140033","opcodes":"PUSH1 0x80 PUSH1 0x40 SWAP1 DUP1 DUP3 MSTORE CALLVALUE PUSH3 0x2C0 JUMPI PUSH1 0x1 SWAP1 PUSH1 0x0 SWAP1 DUP3 DUP3 SSTORE CALLER ISZERO PUSH3 0x2AC JUMPI POP DUP2 SLOAD CALLER PUSH1 0x1 PUSH1 0x1 PUSH1 0xA0 SHL SUB NOT DUP3 AND DUP2 OR DUP5 SSTORE PUSH1 0x1 PUSH1 0x1 PUSH1 0xA0 SHL SUB SWAP2 DUP3 AND PUSH32 0x8BE0079C531659141344CD1FD0A4F28419497F9722A3DAAFE3B4186F6B6457E0 DUP5 DUP1 LOG3 PUSH1 0x2 DUP4 DUP2 SSTORE DUP5 MLOAD SWAP2 SWAP1 PUSH1 0xC0 DUP4 ADD PUSH1 0x1 PUSH1 0x1 PUSH1 0x40 SHL SUB DUP2 GT DUP5 DUP3 LT OR PUSH3 0x298 JUMPI DUP7 MSTORE DUP4 DUP4 MSTORE PUSH1 0x20 SWAP3 DUP4 DUP2 ADD DUP6 DUP2 MSTORE DUP8 DUP3 ADD PUSH1 0x12 DUP2 MSTORE PUSH1 0x60 DUP4 ADD SWAP1 DUP9 DUP3 MSTORE PUSH1 0x80 DUP5 ADD SWAP2 PUSH7 0x2386F26FC10000 DUP4 MSTORE PUSH1 0xA0 DUP6 ADD SWAP4 PUSH9 0x3635C9ADC5DEA00000 DUP6 MSTORE DUP10 DUP1 MSTORE PUSH1 0x3 SWAP8 DUP9 DUP11 MSTORE DUP13 DUP12 KECCAK256 SWAP7 MLOAD AND DUP7 SLOAD SWAP2 MLOAD SWAP4 PUSH1 0x5 DUP6 LT ISZERO PUSH3 0x284 JUMPI MLOAD SWAP3 MLOAD PUSH1 0x1 PUSH1 0x1 PUSH1 0xB8 SHL SUB NOT SWAP1 SWAP3 AND OR PUSH1 0xA0 SWAP4 SWAP1 SWAP4 SHL PUSH1 0xFF PUSH1 0xA0 SHL AND SWAP3 SWAP1 SWAP3 OR PUSH1 0xA8 SWAP2 SWAP1 SWAP2 SHL PUSH1 0xFF PUSH1 0xA8 SHL AND OR SWAP1 ISZERO ISZERO PUSH1 0xB0 SHL PUSH1 0xFF PUSH1 0xB0 SHL AND OR DUP4 SSTORE MLOAD DUP8 DUP4 ADD SSTORE MLOAD SWAP1 DUP3 ADD SSTORE DUP6 SWAP4 SWAP3 PUSH1 0x9 SWAP3 SWAP1 SWAP2 PUSH1 0x4 SWAP1 PUSH3 0x135 PUSH3 0x2C5 JUMP JUMPDEST DUP3 PUSH5 0x3A35294400 DUP1 DUP4 MSTORE DUP7 DUP4 ADD SWAP1 TIMESTAMP DUP3 MSTORE DUP11 DUP5 ADD DUP2 DUP2 MSTORE PUSH1 0x60 DUP6 ADD SWAP2 DUP3 MSTORE PUSH1 0x80 DUP6 ADD SWAP3 DUP14 DUP5 MSTORE DUP12 DUP1 MSTORE PUSH1 0x8 DUP11 MSTORE DUP13 DUP13 KECCAK256 SWAP6 MLOAD DUP7 SSTORE MLOAD DUP14 DUP7 ADD SSTORE MLOAD DUP6 DUP6 ADD SSTORE MLOAD DUP7 DUP5 ADD SSTORE MLOAD SWAP2 ADD SSTORE PUSH3 0x186 PUSH3 0x2C5 JUMP JUMPDEST SWAP3 PUSH4 0x5F5E100 SWAP4 DUP5 DUP2 MSTORE DUP4 DUP7 DUP10 DUP12 DUP14 DUP4 DUP7 ADD TIMESTAMP DUP2 MSTORE DUP3 DUP8 ADD SWAP3 DUP12 DUP5 MSTORE PUSH1 0x60 DUP9 ADD SWAP5 DUP13 DUP7 MSTORE PUSH1 0x8 PUSH1 0x80 DUP11 ADD SWAP8 DUP6 DUP10 MSTORE DUP6 DUP4 MSTORE MSTORE KECCAK256 SWAP7 MLOAD DUP8 SSTORE MLOAD SWAP1 DUP7 ADD SSTORE MLOAD DUP7 DUP6 ADD SSTORE MLOAD DUP5 DUP5 ADD SSTORE MLOAD SWAP2 ADD SSTORE PUSH3 0x1DA PUSH3 0x2C5 JUMP JUMPDEST DUP5 DUP2 MSTORE TIMESTAMP DUP7 DUP3 ADD SWAP1 DUP2 MSTORE DUP10 DUP3 ADD DUP7 DUP2 MSTORE PUSH1 0x60 DUP4 ADD DUP8 DUP2 MSTORE PUSH1 0x80 DUP5 ADD DUP14 DUP2 MSTORE DUP7 DUP13 MSTORE PUSH1 0x8 DUP11 MSTORE DUP13 DUP13 KECCAK256 SWAP5 MLOAD DUP6 SSTORE SWAP3 MLOAD DUP5 DUP15 ADD SSTORE SWAP1 MLOAD DUP4 DUP7 ADD SSTORE MLOAD DUP4 DUP4 ADD SSTORE MLOAD SWAP1 DUP5 ADD SSTORE PUSH3 0x226 PUSH3 0x2C5 JUMP JUMPDEST SWAP4 DUP1 DUP6 MSTORE DUP6 DUP6 ADD SWAP3 TIMESTAMP DUP5 MSTORE DUP10 DUP7 ADD DUP3 DUP2 MSTORE PUSH1 0x60 DUP8 ADD SWAP3 DUP4 MSTORE PUSH1 0x80 DUP8 ADD SWAP5 DUP13 DUP7 MSTORE DUP5 DUP12 MSTORE PUSH1 0x8 DUP10 MSTORE DUP12 DUP12 KECCAK256 SWAP8 MLOAD DUP9 SSTORE MLOAD DUP13 DUP9 ADD SSTORE MLOAD SWAP1 DUP7 ADD SSTORE MLOAD SWAP1 DUP5 ADD SSTORE MLOAD SWAP2 ADD SSTORE CALLER DUP4 MSTORE MSTORE KECCAK256 SWAP1 PUSH1 0xFF NOT DUP3 SLOAD AND OR SWAP1 SSTORE MLOAD PUSH2 0x3582 SWAP1 DUP2 PUSH3 0x2FC DUP3 CODECOPY RETURN JUMPDEST PUSH4 0x4E487B71 PUSH1 0xE0 SHL DUP13 MSTORE PUSH1 0x21 PUSH1 0x4 MSTORE PUSH1 0x24 DUP13 REVERT JUMPDEST PUSH4 0x4E487B71 PUSH1 0xE0 SHL DUP6 MSTORE PUSH1 0x41 PUSH1 0x4 MSTORE PUSH1 0x24 DUP6 REVERT JUMPDEST PUSH1 0x24 SWAP2 PUSH4 0x1E4FBDF7 PUSH1 0xE0 SHL DUP3 MSTORE PUSH1 0x4 DUP3 ADD MSTORE REVERT JUMPDEST PUSH1 0x0 DUP1 REVERT JUMPDEST PUSH1 0x40 MLOAD SWAP1 PUSH1 0xA0 DUP3 ADD PUSH1 0x1 PUSH1 0x1 PUSH1 0x40 SHL SUB DUP2 GT DUP4 DUP3 LT OR PUSH3 0x2E5 JUMPI PUSH1 0x40 MSTORE JUMP JUMPDEST PUSH4 0x4E487B71 PUSH1 0xE0 SHL PUSH1 0x0 MSTORE PUSH1 0x41 PUSH1 0x4 MSTORE PUSH1 0x24 PUSH1 0x0 REVERT INVALID PUSH1 0xA0 PUSH1 0x40 MSTORE PUSH1 0x4 CALLDATASIZE LT ISZERO PUSH2 0x12 JUMPI PUSH1 0x0 DUP1 REVERT JUMPDEST PUSH1 0x0 CALLDATALOAD PUSH1 0xE0 SHR DUP1 PUSH3 0xB752CA EQ PUSH2 0x2C81 JUMPI DUP1 PUSH4 0x1374518 EQ PUSH2 0x2C42 JUMPI DUP1 PUSH4 0xD0B2CA6 EQ PUSH2 0x2C23 JUMPI DUP1 PUSH4 0x18FA96DE EQ PUSH2 0x2BE9 JUMPI DUP1 PUSH4 0x1988A684 EQ PUSH2 0x1917 JUMPI DUP1 PUSH4 0x2E2106AF EQ PUSH2 0x2BCB JUMPI DUP1 PUSH4 0x2FFC204B EQ PUSH2 0x2AB9 JUMPI DUP1 PUSH4 0x34855D14 EQ PUSH2 0x2A9C JUMPI DUP1 PUSH4 0x3CDB72F1 EQ PUSH2 0x2A52 JUMPI DUP1 PUSH4 0x3F572D36 EQ PUSH2 0x29D3 JUMPI DUP1 PUSH4 0x4DD9CCCC EQ PUSH2 0x26E1 JUMPI DUP1 PUSH4 0x504006CA EQ PUSH2 0x2366 JUMPI DUP1 PUSH4 0x626066CC EQ PUSH2 0x2319 JUMPI DUP1 PUSH4 0x715018A6 EQ PUSH2 0x22BC JUMPI DUP1 PUSH4 0x7A9FFFB7 EQ PUSH2 0x22A0 JUMPI DUP1 PUSH4 0x82626D6B EQ PUSH2 0x2284 JUMPI DUP1 PUSH4 0x858A9EA0 EQ PUSH2 0x21FC JUMPI DUP1 PUSH4 0x87C51459 EQ PUSH2 0x21DE JUMPI DUP1 PUSH4 0x89D99A05 EQ PUSH2 0x21C1 JUMPI DUP1 PUSH4 0x8DA5CB5B EQ PUSH2 0x2198 JUMPI DUP1 PUSH4 0x9772D7EE EQ PUSH2 0x208A JUMPI DUP1 PUSH4 0xAB7B1C89 EQ PUSH2 0x1B46 JUMPI DUP1 PUSH4 0xAD8D0138 EQ PUSH2 0x1ACB JUMPI DUP1 PUSH4 0xB0B3CA47 EQ PUSH2 0x1948 JUMPI DUP1 PUSH4 0xB59D17AB EQ PUSH2 0x1917 JUMPI DUP1 PUSH4 0xC7FC1325 EQ PUSH2 0x187E JUMPI DUP1 PUSH4 0xD42C4C53 EQ PUSH2 0x178E JUMPI DUP1 PUSH4 0xD89E8C1C EQ PUSH2 0x170E JUMPI DUP1 PUSH4 0xDECEAFA7 EQ PUSH2 0x16B1 JUMPI DUP1 PUSH4 0xE1EC3C68 EQ PUSH2 0x1562 JUMPI DUP1 PUSH4 0xE3ED1902 EQ PUSH2 0x150A JUMPI DUP1 PUSH4 0xEEE8B7FF EQ PUSH2 0x14D0 JUMPI DUP1 PUSH4 0xEEEB0C17 EQ PUSH2 0x147E JUMPI DUP1 PUSH4 0xF2FDE38B EQ PUSH2 0x13F5 JUMPI DUP1 PUSH4 0xF4512BB6 EQ PUSH2 0xF70 JUMPI DUP1 PUSH4 0xF498C9CC EQ PUSH2 0x693 JUMPI DUP1 PUSH4 0xF85920D8 EQ PUSH2 0x1E3 JUMPI PUSH4 0xFE6993B8 EQ PUSH2 0x1BD JUMPI PUSH1 0x0 DUP1 REVERT JUMPDEST CALLVALUE PUSH2 0x1DE JUMPI PUSH1 0x20 PUSH2 0x1D6 PUSH2 0x1D0 CALLDATASIZE PUSH2 0x2F05 JUMP JUMPDEST SWAP1 PUSH2 0x308D JUMP JUMPDEST PUSH1 0x40 MLOAD SWAP1 DUP2 MSTORE RETURN JUMPDEST PUSH1 0x0 DUP1 REVERT JUMPDEST CALLVALUE PUSH2 0x1DE JUMPI PUSH1 0x20 DUP1 PUSH1 0x3 NOT CALLDATASIZE ADD SLT PUSH2 0x1DE JUMPI PUSH1 0x4 CALLDATALOAD PUSH2 0x200 PUSH2 0x3314 JUMP JUMPDEST DUP1 PUSH1 0x0 MSTORE PUSH1 0x4 DUP3 MSTORE PUSH1 0x40 PUSH1 0x0 KECCAK256 SWAP2 PUSH2 0x21A DUP4 SLOAD ISZERO ISZERO PUSH2 0x3337 JUMP JUMPDEST PUSH1 0xFF SWAP1 DUP2 PUSH1 0xE DUP6 ADD SLOAD AND PUSH1 0x6 DUP2 LT ISZERO PUSH2 0x3F0 JUMPI PUSH1 0x4 SUB PUSH2 0x657 JUMPI DUP2 PUSH1 0x10 DUP6 ADD SLOAD AND ISZERO PUSH2 0x613 JUMPI DUP3 PUSH1 0x0 MSTORE PUSH1 0xB DUP2 MSTORE PUSH1 0x40 PUSH1 0x0 KECCAK256 CALLER PUSH1 0x0 MSTORE DUP2 MSTORE DUP2 PUSH1 0x40 PUSH1 0x0 KECCAK256 SLOAD AND PUSH2 0x5BE JUMPI PUSH1 0xD DUP5 ADD SLOAD PUSH3 0x93A80 DUP2 ADD DUP1 SWAP2 GT PUSH2 0x5A8 JUMPI TIMESTAMP LT PUSH2 0x56B JUMPI PUSH1 0x0 SWAP4 PUSH1 0x0 SWAP5 PUSH1 0x0 PUSH1 0x2 DUP4 ADD DUP1 SLOAD SWAP2 JUMPDEST DUP3 DUP2 LT PUSH2 0x50F JUMPI POP POP POP ISZERO PUSH2 0x4CA JUMPI DUP5 ISZERO PUSH2 0x490 JUMPI PUSH1 0x6 DUP2 ADD SWAP1 PUSH2 0x2AD DUP5 DUP4 SLOAD AND PUSH2 0x2E3E JUMP JUMPDEST SLOAD SWAP6 DUP7 ISZERO PUSH2 0x44B JUMPI SWAP1 PUSH1 0x4 PUSH2 0x2CA PUSH2 0x2D3 SWAP4 PUSH1 0x11 DUP5 ADD SLOAD SWAP1 PUSH2 0x3029 JUMP JUMPDEST SWAP2 ADD SLOAD SWAP1 PUSH2 0x2FFC JUMP JUMPDEST SWAP5 DUP6 GT PUSH2 0x406 JUMPI DUP3 SWAP1 DUP5 PUSH1 0x0 MSTORE PUSH1 0xB DUP4 MSTORE PUSH1 0x40 PUSH1 0x0 KECCAK256 CALLER PUSH1 0x0 MSTORE DUP4 MSTORE PUSH1 0x40 PUSH1 0x0 KECCAK256 PUSH1 0x1 PUSH1 0xFF NOT DUP3 SLOAD AND OR SWAP1 SSTORE PUSH2 0x30B DUP3 DUP3 SLOAD AND PUSH2 0x2E3E JUMP JUMPDEST PUSH2 0x316 DUP8 DUP3 SLOAD PUSH2 0x301C JUMP JUMPDEST SWAP1 SSTORE SLOAD AND PUSH1 0x5 DUP2 LT ISZERO PUSH2 0x3F0 JUMPI DUP5 PUSH32 0x9575558B5D6AC5E60A8A8AD59BE28FBDCA3803658E380FDEA5D922214559F8CD SWAP4 DUP3 ISZERO PUSH1 0x0 EQ PUSH2 0x37C JUMPI POP PUSH2 0x36C SWAP2 POP PUSH1 0x0 DUP1 DUP1 DUP1 SWAP4 CALLER GAS CALL PUSH2 0x366 PUSH2 0x3379 JUMP JUMPDEST POP PUSH2 0x33B9 JUMP JUMPDEST PUSH1 0x40 MLOAD SWAP4 DUP5 MSTORE CALLER SWAP4 LOG3 PUSH1 0x1 PUSH1 0x0 SSTORE STOP JUMPDEST PUSH2 0x388 PUSH2 0x3EB SWAP4 PUSH2 0x2E57 JUMP JUMPDEST SWAP1 PUSH1 0x2 PUSH1 0x40 MLOAD SWAP3 PUSH2 0x398 DUP5 PUSH2 0x2F50 JUMP JUMPDEST DUP1 SLOAD PUSH1 0x1 PUSH1 0x1 PUSH1 0xA0 SHL SUB DUP1 DUP3 AND DUP7 MSTORE SWAP4 SWAP1 PUSH2 0x3BB PUSH1 0xA0 DUP3 SWAP1 SHR DUP4 AND DUP11 DUP9 ADD PUSH2 0x2FE3 JUMP JUMPDEST DUP2 DUP2 PUSH1 0xA8 SHR AND PUSH1 0x40 DUP8 ADD MSTORE PUSH1 0xB0 SHR AND ISZERO ISZERO PUSH1 0x60 DUP6 ADD MSTORE PUSH1 0x1 DUP2 ADD SLOAD PUSH1 0x80 DUP6 ADD MSTORE ADD SLOAD PUSH1 0xA0 DUP4 ADD MSTORE CALLER SWAP2 MLOAD AND PUSH2 0x3499 JUMP JUMPDEST PUSH2 0x36C JUMP JUMPDEST PUSH4 0x4E487B71 PUSH1 0xE0 SHL PUSH1 0x0 MSTORE PUSH1 0x21 PUSH1 0x4 MSTORE PUSH1 0x24 PUSH1 0x0 REVERT JUMPDEST PUSH1 0x40 MLOAD PUSH3 0x461BCD PUSH1 0xE5 SHL DUP2 MSTORE PUSH1 0x4 DUP2 ADD DUP4 SWAP1 MSTORE PUSH1 0x1C PUSH1 0x24 DUP3 ADD MSTORE PUSH32 0x496E73756666696369656E7420696E737572616E63652066756E647300000000 PUSH1 0x44 DUP3 ADD MSTORE PUSH1 0x64 SWAP1 REVERT JUMPDEST PUSH1 0x40 MLOAD PUSH3 0x461BCD PUSH1 0xE5 SHL DUP2 MSTORE PUSH1 0x4 DUP2 ADD DUP6 SWAP1 MSTORE PUSH1 0x1C PUSH1 0x24 DUP3 ADD MSTORE PUSH32 0x4E6F20696E737572616E63652066756E647320617661696C61626C6500000000 PUSH1 0x44 DUP3 ADD MSTORE PUSH1 0x64 SWAP1 REVERT JUMPDEST PUSH1 0x40 MLOAD PUSH3 0x461BCD PUSH1 0xE5 SHL DUP2 MSTORE PUSH1 0x4 DUP2 ADD DUP4 SWAP1 MSTORE PUSH1 0x12 PUSH1 0x24 DUP3 ADD MSTORE PUSH18 0x4E6F20616D6F756E7420746F20636C61696D PUSH1 0x70 SHL PUSH1 0x44 DUP3 ADD MSTORE PUSH1 0x64 SWAP1 REVERT JUMPDEST PUSH1 0x40 MLOAD PUSH3 0x461BCD PUSH1 0xE5 SHL DUP2 MSTORE PUSH1 0x4 DUP2 ADD DUP4 SWAP1 MSTORE PUSH1 0x19 PUSH1 0x24 DUP3 ADD MSTORE PUSH32 0x4E6F742061206C656E646572206F6E2074686973206C6F616E00000000000000 PUSH1 0x44 DUP3 ADD MSTORE PUSH1 0x64 SWAP1 REVERT JUMPDEST PUSH2 0x519 DUP2 DUP4 PUSH2 0x2E89 JUMP JUMPDEST SWAP1 SLOAD PUSH1 0x3 SWAP2 DUP3 SHL SHR PUSH1 0x1 PUSH1 0x1 PUSH1 0xA0 SHL SUB AND CALLER EQ PUSH2 0x540 JUMPI JUMPDEST POP PUSH2 0x53B SWAP1 PUSH2 0x303C JUMP JUMPDEST PUSH2 0x287 JUMP JUMPDEST SWAP4 POP SWAP8 PUSH2 0x564 PUSH2 0x53B SWAP2 PUSH1 0x1 SWAP6 PUSH2 0x559 DUP13 DUP3 DUP11 ADD PUSH2 0x2E89 JUMP JUMPDEST SWAP1 SLOAD SWAP2 SHL SHR SWAP1 PUSH2 0x2FEF JUMP JUMPDEST SWAP9 SWAP1 PUSH2 0x531 JUMP JUMPDEST PUSH1 0x64 SWAP1 PUSH1 0x40 MLOAD SWAP1 PUSH3 0x461BCD PUSH1 0xE5 SHL DUP3 MSTORE PUSH1 0x4 DUP3 ADD MSTORE PUSH1 0x16 PUSH1 0x24 DUP3 ADD MSTORE PUSH22 0x11DC9858D9481C195C9A5BD9081B9BDD08195B991959 PUSH1 0x52 SHL PUSH1 0x44 DUP3 ADD MSTORE REVERT JUMPDEST PUSH4 0x4E487B71 PUSH1 0xE0 SHL PUSH1 0x0 MSTORE PUSH1 0x11 PUSH1 0x4 MSTORE PUSH1 0x24 PUSH1 0x0 REVERT JUMPDEST PUSH1 0x84 SWAP1 PUSH1 0x40 MLOAD SWAP1 PUSH3 0x461BCD PUSH1 0xE5 SHL DUP3 MSTORE PUSH1 0x4 DUP3 ADD MSTORE PUSH1 0x28 PUSH1 0x24 DUP3 ADD MSTORE PUSH32 0x496E737572616E636520616C726561647920636C61696D656420627920746869 PUSH1 0x44 DUP3 ADD MSTORE PUSH8 0x39903632B73232B9 PUSH1 0xC1 SHL PUSH1 0x64 DUP3 ADD MSTORE REVERT JUMPDEST PUSH1 0x64 SWAP1 PUSH1 0x40 MLOAD SWAP1 PUSH3 0x461BCD PUSH1 0xE5 SHL DUP3 MSTORE PUSH1 0x4 DUP3 ADD MSTORE PUSH1 0x1C PUSH1 0x24 DUP3 ADD MSTORE PUSH32 0x4C6F616E20646F6573206E6F74206861766520696E737572616E636500000000 PUSH1 0x44 DUP3 ADD MSTORE REVERT JUMPDEST PUSH1 0x64 SWAP1 PUSH1 0x40 MLOAD SWAP1 PUSH3 0x461BCD PUSH1 0xE5 SHL DUP3 MSTORE PUSH1 0x4 DUP3 ADD MSTORE PUSH1 0x15 PUSH1 0x24 DUP3 ADD MSTORE PUSH21 0x131BD85B881A5CC81B9BDD08191959985D5B1D1959 PUSH1 0x5A SHL PUSH1 0x44 DUP3 ADD MSTORE REVERT JUMPDEST PUSH2 0x100 CALLDATASIZE PUSH1 0x3 NOT ADD SLT PUSH2 0x1DE JUMPI PUSH1 0x5 PUSH1 0x24 CALLDATALOAD LT ISZERO DUP1 PUSH2 0x1DE JUMPI PUSH1 0x5 PUSH1 0x44 CALLDATALOAD LT ISZERO PUSH2 0x1DE JUMPI PUSH1 0xC4 CALLDATALOAD SWAP1 DUP2 ISZERO ISZERO DUP3 SUB PUSH2 0x1DE JUMPI PUSH1 0xE4 CALLDATALOAD ISZERO ISZERO PUSH1 0xE4 CALLDATALOAD SUB PUSH2 0x1DE JUMPI PUSH2 0x6D9 PUSH2 0x3314 JUMP JUMPDEST PUSH1 0x4 CALLDATALOAD ISZERO PUSH2 0xF20 JUMPI PUSH2 0xBB8 PUSH1 0x84 CALLDATALOAD GT PUSH2 0xEE2 JUMPI PUSH2 0xE10 PUSH1 0xA4 CALLDATALOAD LT ISZERO DUP1 PUSH2 0xED2 JUMPI JUMPDEST ISZERO PUSH2 0xE9A JUMPI PUSH1 0xFF PUSH2 0x70C PUSH1 0x24 CALLDATALOAD PUSH2 0x2E57 JUMP JUMPDEST SLOAD PUSH1 0xB0 SHR AND ISZERO PUSH2 0xE55 JUMPI PUSH1 0xFF PUSH2 0x723 PUSH1 0x44 CALLDATALOAD PUSH2 0x2E57 JUMP JUMPDEST SLOAD PUSH1 0xB0 SHR AND ISZERO PUSH2 0xE10 JUMPI PUSH2 0x73B PUSH1 0x4 CALLDATALOAD PUSH1 0x24 CALLDATALOAD PUSH2 0x308D JUMP JUMPDEST PUSH2 0x749 PUSH1 0x64 CALLDATALOAD PUSH1 0x44 CALLDATALOAD PUSH2 0x308D JUMP JUMPDEST SWAP1 PUSH1 0x78 DUP2 MUL SWAP1 DUP1 DUP3 DIV PUSH1 0x78 EQ SWAP1 ISZERO OR ISZERO PUSH2 0x5A8 JUMPI PUSH1 0x64 SWAP1 DIV GT PUSH2 0xDCB JUMPI PUSH1 0x2 SLOAD SWAP1 PUSH2 0x773 DUP3 PUSH2 0x303C JUMP JUMPDEST PUSH1 0x2 SSTORE PUSH1 0x0 SWAP1 PUSH1 0xE4 CALLDATALOAD PUSH2 0xDA8 JUMPI JUMPDEST PUSH1 0x44 CALLDATALOAD PUSH2 0xCA9 JUMPI PUSH1 0x64 CALLDATALOAD PUSH1 0xE4 CALLDATALOAD DUP3 DUP2 PUSH2 0xC99 JUMPI JUMPDEST POP PUSH2 0xC87 JUMPI JUMPDEST CALLVALUE SUB PUSH2 0xC12 JUMPI JUMPDEST PUSH1 0xE4 CALLDATALOAD PUSH2 0xB3E JUMPI JUMPDEST POP PUSH1 0x40 MLOAD SWAP1 PUSH2 0x7B8 DUP3 PUSH2 0x2FA5 JUMP JUMPDEST PUSH1 0x0 DUP3 MSTORE PUSH1 0x40 MLOAD PUSH2 0x7C8 DUP2 PUSH2 0x2FA5 JUMP JUMPDEST PUSH1 0x0 DUP2 MSTORE PUSH1 0x40 MLOAD SWAP3 PUSH2 0x7D9 DUP5 PUSH2 0x2F6C JUMP JUMPDEST DUP5 DUP5 MSTORE CALLER PUSH1 0x20 DUP6 ADD MSTORE PUSH1 0x40 DUP5 ADD MSTORE PUSH1 0x60 DUP4 ADD MSTORE PUSH1 0x4 CALLDATALOAD PUSH1 0x80 DUP4 ADD MSTORE PUSH1 0x0 PUSH1 0xA0 DUP4 ADD MSTORE PUSH2 0x80A PUSH1 0x24 CALLDATALOAD PUSH1 0xC0 DUP5 ADD PUSH2 0x2FE3 JUMP JUMPDEST PUSH2 0x819 PUSH1 0x44 CALLDATALOAD PUSH1 0xE0 DUP5 ADD PUSH2 0x2FE3 JUMP JUMPDEST PUSH1 0x64 CALLDATALOAD PUSH2 0x100 DUP4 ADD MSTORE PUSH1 0x84 CALLDATALOAD PUSH2 0x120 DUP4 ADD MSTORE DUP4 ISZERO ISZERO PUSH2 0x140 DUP4 ADD MSTORE PUSH1 0xA4 CALLDATALOAD PUSH2 0x160 DUP4 ADD MSTORE TIMESTAMP PUSH2 0x180 DUP4 ADD MSTORE PUSH1 0x0 PUSH2 0x1A0 DUP4 ADD MSTORE PUSH1 0x0 PUSH2 0x1C0 DUP4 ADD MSTORE PUSH1 0x0 PUSH2 0x1E0 DUP4 ADD MSTORE PUSH1 0x0 PUSH2 0x200 DUP4 ADD MSTORE PUSH2 0x1F4 PUSH2 0x220 DUP4 ADD MSTORE PUSH1 0xE4 CALLDATALOAD ISZERO ISZERO PUSH2 0x240 DUP4 ADD MSTORE PUSH2 0x260 DUP3 ADD MSTORE DUP2 PUSH1 0x0 MSTORE PUSH1 0x4 PUSH1 0x20 MSTORE PUSH1 0x40 PUSH1 0x0 KECCAK256 SWAP1 DUP1 MLOAD DUP3 SSTORE PUSH1 0x1 DUP3 ADD PUSH1 0x1 DUP1 PUSH1 0xA0 SHL SUB PUSH1 0x20 DUP4 ADD MLOAD AND PUSH1 0x1 PUSH1 0x1 PUSH1 0x60 SHL SUB PUSH1 0xA0 SHL DUP3 SLOAD AND OR SWAP1 SSTORE PUSH1 0x40 DUP2 ADD MLOAD DUP1 MLOAD SWAP1 PUSH8 0xFFFFFFFFFFFFFFFF DUP3 GT PUSH2 0xB0B JUMPI PUSH1 0x1 PUSH1 0x40 SHL DUP3 GT PUSH2 0xB0B JUMPI PUSH1 0x20 PUSH1 0x2 DUP6 ADD SWAP2 PUSH2 0x8EB DUP5 DUP5 SLOAD DUP2 DUP7 SSTORE DUP6 PUSH2 0x31FA JUMP JUMPDEST ADD SWAP1 PUSH1 0x0 MSTORE PUSH1 0x20 PUSH1 0x0 KECCAK256 PUSH1 0x0 JUMPDEST DUP4 DUP2 LT PUSH2 0xB21 JUMPI POP POP POP POP PUSH1 0x60 DUP2 ADD MLOAD DUP1 MLOAD SWAP1 PUSH8 0xFFFFFFFFFFFFFFFF DUP3 GT PUSH2 0xB0B JUMPI PUSH1 0x1 PUSH1 0x40 SHL DUP3 GT PUSH2 0xB0B JUMPI PUSH1 0x20 PUSH1 0x3 DUP6 ADD SWAP2 PUSH2 0x93B DUP5 DUP5 SLOAD DUP2 DUP7 SSTORE DUP6 PUSH2 0x31FA JUMP JUMPDEST ADD SWAP1 PUSH1 0x0 MSTORE PUSH1 0x20 PUSH1 0x0 KECCAK256 PUSH1 0x0 JUMPDEST DUP4 DUP2 LT PUSH2 0xAF7 JUMPI POP POP POP POP PUSH1 0x80 DUP2 ADD MLOAD PUSH1 0x4 DUP4 ADD SSTORE PUSH1 0xA0 DUP2 ADD MLOAD PUSH1 0x5 DUP4 ADD SSTORE PUSH1 0xC0 DUP2 ADD MLOAD PUSH1 0x5 DUP2 LT ISZERO PUSH2 0x3F0 JUMPI PUSH1 0x6 DUP4 ADD SLOAD PUSH1 0xE0 DUP4 ADD MLOAD PUSH1 0x5 DUP2 LT ISZERO PUSH2 0x3F0 JUMPI PUSH2 0xFF00 PUSH1 0xFF SWAP2 PUSH1 0x8 SHL AND SWAP3 AND SWAP1 PUSH2 0xFFFF NOT AND OR OR PUSH1 0x6 DUP4 ADD SSTORE PUSH2 0x100 DUP2 ADD MLOAD PUSH1 0x7 DUP4 ADD SSTORE PUSH2 0x120 DUP2 ADD MLOAD PUSH1 0x8 DUP4 ADD SSTORE PUSH2 0x9D7 PUSH2 0x140 DUP3 ADD MLOAD ISZERO ISZERO PUSH1 0x9 DUP5 ADD SWAP1 PUSH1 0xFF DUP1 NOT DUP4 SLOAD AND SWAP2 ISZERO ISZERO AND OR SWAP1 SSTORE JUMP JUMPDEST PUSH2 0x160 DUP2 ADD MLOAD PUSH1 0xA DUP4 ADD SSTORE PUSH2 0x180 DUP2 ADD MLOAD PUSH1 0xB DUP4 ADD SSTORE PUSH2 0x1A0 DUP2 ADD MLOAD PUSH1 0xC DUP4 ADD SSTORE PUSH2 0x1C0 DUP2 ADD MLOAD PUSH1 0xD DUP4 ADD SSTORE PUSH2 0x1E0 DUP2 ADD MLOAD PUSH1 0x6 DUP2 LT ISZERO PUSH2 0x3F0 JUMPI PUSH1 0x11 SWAP2 PUSH2 0x260 SWAP2 PUSH1 0xE DUP6 ADD SWAP1 DUP2 SLOAD PUSH1 0xFF PUSH2 0xFF00 PUSH2 0x200 DUP7 ADD MLOAD ISZERO ISZERO PUSH1 0x8 SHL AND SWAP3 AND SWAP1 PUSH2 0xFFFF NOT AND OR OR SWAP1 SSTORE PUSH2 0x220 DUP2 ADD MLOAD PUSH1 0xF DUP6 ADD SSTORE PUSH2 0xA68 PUSH2 0x240 DUP3 ADD MLOAD ISZERO ISZERO PUSH1 0x10 DUP7 ADD SWAP1 PUSH1 0xFF DUP1 NOT DUP4 SLOAD AND SWAP2 ISZERO ISZERO AND OR SWAP1 SSTORE JUMP JUMPDEST ADD MLOAD SWAP2 ADD SSTORE CALLER PUSH1 0x0 MSTORE PUSH1 0x6 PUSH1 0x20 MSTORE PUSH2 0xA84 DUP2 PUSH1 0x40 PUSH1 0x0 KECCAK256 PUSH2 0x322E JUMP JUMPDEST PUSH1 0x40 MLOAD SWAP2 PUSH1 0x4 CALLDATALOAD DUP4 MSTORE PUSH2 0xA9C PUSH1 0x20 DUP5 ADD PUSH1 0x24 CALLDATALOAD PUSH2 0x2EB7 JUMP JUMPDEST PUSH2 0xAAB PUSH1 0x40 DUP5 ADD PUSH1 0x44 CALLDATALOAD PUSH2 0x2EB7 JUMP JUMPDEST PUSH1 0x64 CALLDATALOAD PUSH1 0x60 DUP5 ADD MSTORE PUSH1 0x84 CALLDATALOAD PUSH1 0x80 DUP5 ADD MSTORE PUSH1 0xA4 CALLDATALOAD PUSH1 0xA0 DUP5 ADD MSTORE ISZERO ISZERO PUSH1 0xC0 DUP4 ADD MSTORE PUSH32 0xABDB66E6184682B23B47B8B6A7923F5B99D0155E0155200BDA4753D7E784699E PUSH1 0xE0 CALLER SWAP4 LOG3 PUSH1 0x1 PUSH1 0x0 SSTORE STOP JUMPDEST PUSH1 0x1 SWAP1 PUSH1 0x20 DUP5 MLOAD SWAP5 ADD SWAP4 DUP2 DUP5 ADD SSTORE ADD PUSH2 0x948 JUMP JUMPDEST PUSH4 0x4E487B71 PUSH1 0xE0 SHL PUSH1 0x0 MSTORE PUSH1 0x41 PUSH1 0x4 MSTORE PUSH1 0x24 PUSH1 0x0 REVERT JUMPDEST DUP3 MLOAD PUSH1 0x1 PUSH1 0x1 PUSH1 0xA0 SHL SUB AND DUP2 DUP4 ADD SSTORE PUSH1 0x20 SWAP1 SWAP3 ADD SWAP2 PUSH1 0x1 ADD PUSH2 0x8F8 JUMP JUMPDEST PUSH2 0x3F0 JUMPI PUSH1 0x24 CALLDATALOAD PUSH2 0xB97 JUMPI JUMPDEST PUSH2 0xB55 PUSH1 0x24 CALLDATALOAD PUSH2 0x2E3E JUMP JUMPDEST PUSH2 0xB60 DUP3 DUP3 SLOAD PUSH2 0x2FEF JUMP JUMPDEST SWAP1 SSTORE PUSH1 0x40 MLOAD DUP2 DUP2 MSTORE DUP3 PUSH32 0x4C87E05722F69FEE95BE0764A567CB86600AAE646A205352052C4B1A8723A069 PUSH1 0x20 PUSH1 0x24 CALLDATALOAD SWAP4 LOG3 DUP4 PUSH2 0x7AA JUMP JUMPDEST PUSH2 0xC0D DUP2 PUSH2 0xBA6 PUSH1 0x24 CALLDATALOAD PUSH2 0x2E57 JUMP JUMPDEST PUSH1 0x40 MLOAD PUSH2 0xBB2 DUP2 PUSH2 0x2F50 JUMP JUMPDEST DUP2 SLOAD PUSH1 0x1 PUSH1 0x1 PUSH1 0xA0 SHL SUB DUP1 DUP3 AND DUP4 MSTORE SWAP3 PUSH1 0x2 SWAP2 PUSH1 0xFF SWAP1 PUSH2 0xBDB PUSH1 0xA0 DUP3 SWAP1 SHR DUP4 AND PUSH1 0x20 DUP8 ADD PUSH2 0x2FE3 JUMP JUMPDEST DUP2 DUP2 PUSH1 0xA8 SHR AND PUSH1 0x40 DUP7 ADD MSTORE PUSH1 0xB0 SHR AND ISZERO ISZERO PUSH1 0x60 DUP5 ADD MSTORE PUSH1 0x1 DUP2 ADD SLOAD PUSH1 0x80 DUP5 ADD MSTORE ADD SLOAD PUSH1 0xA0 DUP3 ADD MSTORE MLOAD AND ADDRESS SWAP1 CALLER SWAP1 PUSH2 0x3263 JUMP JUMPDEST PUSH2 0xB4A JUMP JUMPDEST PUSH1 0x40 MLOAD PUSH3 0x461BCD PUSH1 0xE5 SHL DUP2 MSTORE PUSH1 0x20 PUSH1 0x4 DUP3 ADD MSTORE PUSH1 0x41 PUSH1 0x24 DUP3 ADD MSTORE PUSH32 0x4554482073656E74206D757374206D6174636820636F6C6C61746572616C2070 PUSH1 0x44 DUP3 ADD MSTORE PUSH32 0x6C757320696E737572616E63652066656520286966206170706C696361626C65 PUSH1 0x64 DUP3 ADD MSTORE PUSH1 0x29 PUSH1 0xF8 SHL PUSH1 0x84 DUP3 ADD MSTORE PUSH1 0xA4 SWAP1 REVERT JUMPDEST POP PUSH2 0xC94 DUP3 PUSH1 0x64 CALLDATALOAD PUSH2 0x2FEF JUMP JUMPDEST PUSH2 0x79B JUMP JUMPDEST SWAP1 POP PUSH2 0x3F0 JUMPI PUSH1 0x24 CALLDATALOAD ISZERO DUP3 PUSH2 0x795 JUMP JUMPDEST PUSH1 0xE4 CALLDATALOAD DUP1 PUSH2 0xD9B JUMPI JUMPDEST ISZERO PUSH2 0xD8C JUMPI DUP2 CALLVALUE SUB PUSH2 0xD3D JUMPI JUMPDEST PUSH2 0xD38 PUSH2 0xCCD PUSH1 0x44 CALLDATALOAD PUSH2 0x2E57 JUMP JUMPDEST PUSH1 0x40 MLOAD PUSH2 0xCD9 DUP2 PUSH2 0x2F50 JUMP JUMPDEST DUP2 SLOAD PUSH1 0x1 PUSH1 0x1 PUSH1 0xA0 SHL SUB DUP1 DUP3 AND DUP4 MSTORE SWAP3 PUSH1 0x2 SWAP2 PUSH1 0xFF SWAP1 PUSH2 0xD02 PUSH1 0xA0 DUP3 SWAP1 SHR DUP4 AND PUSH1 0x20 DUP8 ADD PUSH2 0x2FE3 JUMP JUMPDEST DUP2 DUP2 PUSH1 0xA8 SHR AND PUSH1 0x40 DUP7 ADD MSTORE PUSH1 0xB0 SHR AND ISZERO ISZERO PUSH1 0x60 DUP5 ADD MSTORE PUSH1 0x1 DUP2 ADD SLOAD PUSH1 0x80 DUP5 ADD MSTORE ADD SLOAD PUSH1 0xA0 DUP3 ADD MSTORE MLOAD AND PUSH1 0x64 CALLDATALOAD SWAP1 ADDRESS SWAP1 CALLER SWAP1 PUSH2 0x3263 JUMP JUMPDEST PUSH2 0x7A2 JUMP JUMPDEST PUSH1 0x40 MLOAD PUSH3 0x461BCD PUSH1 0xE5 SHL DUP2 MSTORE PUSH1 0x20 PUSH1 0x4 DUP3 ADD MSTORE PUSH1 0x21 PUSH1 0x24 DUP3 ADD MSTORE PUSH32 0x4D7573742073656E642065786163742045544820696E737572616E6365206665 PUSH1 0x44 DUP3 ADD MSTORE PUSH1 0x65 PUSH1 0xF8 SHL PUSH1 0x64 DUP3 ADD MSTORE PUSH1 0x84 SWAP1 REVERT JUMPDEST PUSH2 0xD96 CALLVALUE ISZERO PUSH2 0x316C JUMP JUMPDEST PUSH2 0xCBF JUMP JUMPDEST POP POP PUSH1 0x0 PUSH1 0x24 CALLDATALOAD ISZERO PUSH2 0xCB2 JUMP JUMPDEST SWAP1 POP PUSH1 0x4 CALLDATALOAD PUSH1 0x64 PUSH1 0x4 CALLDATALOAD MUL DIV PUSH1 0x64 SUB PUSH2 0x5A8 JUMPI PUSH2 0x2710 PUSH1 0x64 PUSH1 0x4 CALLDATALOAD MUL DIV SWAP1 PUSH2 0x781 JUMP JUMPDEST PUSH1 0x40 MLOAD PUSH3 0x461BCD PUSH1 0xE5 SHL DUP2 MSTORE PUSH1 0x20 PUSH1 0x4 DUP3 ADD MSTORE PUSH1 0x17 PUSH1 0x24 DUP3 ADD MSTORE PUSH32 0x496E73756666696369656E7420636F6C6C61746572616C000000000000000000 PUSH1 0x44 DUP3 ADD MSTORE PUSH1 0x64 SWAP1 REVERT JUMPDEST PUSH1 0x40 MLOAD PUSH3 0x461BCD PUSH1 0xE5 SHL DUP2 MSTORE PUSH1 0x20 PUSH1 0x4 DUP3 ADD MSTORE PUSH1 0x1E PUSH1 0x24 DUP3 ADD MSTORE PUSH32 0x436F6C6C61746572616C20746F6B656E206E6F7420737570706F727465640000 PUSH1 0x44 DUP3 ADD MSTORE PUSH1 0x64 SWAP1 REVERT JUMPDEST PUSH1 0x40 MLOAD PUSH3 0x461BCD PUSH1 0xE5 SHL DUP2 MSTORE PUSH1 0x20 PUSH1 0x4 DUP3 ADD MSTORE PUSH1 0x18 PUSH1 0x24 DUP3 ADD MSTORE PUSH32 0x4C6F616E20746F6B656E206E6F7420737570706F727465640000000000000000 PUSH1 0x44 DUP3 ADD MSTORE PUSH1 0x64 SWAP1 REVERT JUMPDEST PUSH1 0x40 MLOAD PUSH3 0x461BCD PUSH1 0xE5 SHL DUP2 MSTORE PUSH1 0x20 PUSH1 0x4 DUP3 ADD MSTORE PUSH1 0x10 PUSH1 0x24 DUP3 ADD MSTORE PUSH16 0x24B73B30B634B210323AB930BA34B7B7 PUSH1 0x81 SHL PUSH1 0x44 DUP3 ADD MSTORE PUSH1 0x64 SWAP1 REVERT JUMPDEST POP PUSH4 0x1E13380 PUSH1 0xA4 CALLDATALOAD GT ISZERO PUSH2 0x6FA JUMP JUMPDEST PUSH1 0x40 MLOAD PUSH3 0x461BCD PUSH1 0xE5 SHL DUP2 MSTORE PUSH1 0x20 PUSH1 0x4 DUP3 ADD MSTORE PUSH1 0x16 PUSH1 0x24 DUP3 ADD MSTORE PUSH22 0x92DCE8CAE4CAE6E840E4C2E8CA40E8DEDE40D0D2CED PUSH1 0x53 SHL PUSH1 0x44 DUP3 ADD MSTORE PUSH1 0x64 SWAP1 REVERT JUMPDEST PUSH1 0x40 MLOAD PUSH3 0x461BCD PUSH1 0xE5 SHL DUP2 MSTORE PUSH1 0x20 PUSH1 0x4 DUP3 ADD MSTORE PUSH1 0x22 PUSH1 0x24 DUP3 ADD MSTORE PUSH32 0x4C6F616E20616D6F756E74206D7573742062652067726561746572207468616E PUSH1 0x44 DUP3 ADD MSTORE PUSH2 0x203 PUSH1 0xF4 SHL PUSH1 0x64 DUP3 ADD MSTORE PUSH1 0x84 SWAP1 REVERT JUMPDEST PUSH1 0x40 CALLDATASIZE PUSH1 0x3 NOT ADD SLT PUSH2 0x1DE JUMPI PUSH2 0xF84 PUSH2 0x3314 JUMP JUMPDEST PUSH1 0x4 CALLDATALOAD PUSH1 0x0 MSTORE PUSH1 0x4 PUSH1 0x20 MSTORE PUSH1 0x40 PUSH1 0x0 KECCAK256 PUSH1 0x1 DUP1 PUSH1 0xA0 SHL SUB PUSH1 0x1 DUP3 ADD SLOAD AND PUSH2 0xFAC DUP2 ISZERO ISZERO PUSH2 0x3337 JUMP JUMPDEST PUSH1 0xFF PUSH1 0xE DUP4 ADD SLOAD AND PUSH1 0x6 DUP2 LT ISZERO PUSH2 0x3F0 JUMPI DUP1 ISZERO SWAP1 DUP2 ISZERO PUSH2 0x13EA JUMPI JUMPDEST POP ISZERO PUSH2 0x13B0 JUMPI CALLER EQ PUSH2 0x136B JUMPI PUSH1 0x24 CALLDATALOAD ISZERO PUSH2 0x1318 JUMPI PUSH2 0xFEB PUSH1 0x24 CALLDATALOAD PUSH1 0x5 DUP4 ADD SLOAD PUSH2 0x2FEF JUMP JUMPDEST PUSH1 0x4 DUP3 ADD SLOAD LT PUSH2 0x12DD JUMPI PUSH1 0xFF PUSH1 0x6 DUP3 ADD SLOAD AND PUSH1 0x5 DUP2 LT ISZERO PUSH2 0x3F0 JUMPI DUP1 PUSH2 0x125A JUMPI POP PUSH1 0x24 CALLDATALOAD CALLVALUE SUB PUSH2 0x1215 JUMPI JUMPDEST PUSH1 0x40 MLOAD PUSH2 0x1022 DUP2 PUSH2 0x2F89 JUMP JUMPDEST CALLER DUP2 MSTORE PUSH1 0x4 PUSH1 0x20 DUP3 ADD PUSH1 0x24 CALLDATALOAD DUP2 MSTORE PUSH2 0x10A7 PUSH1 0x40 DUP5 ADD TIMESTAMP DUP2 MSTORE PUSH1 0x60 DUP6 ADD SWAP1 PUSH1 0x0 DUP3 MSTORE PUSH1 0x80 DUP7 ADD SWAP4 PUSH1 0x0 DUP6 MSTORE DUP6 CALLDATALOAD PUSH1 0x0 MSTORE PUSH1 0x5 PUSH1 0x20 MSTORE PUSH1 0x40 PUSH1 0x0 KECCAK256 CALLER PUSH1 0x0 MSTORE PUSH1 0x20 MSTORE PUSH1 0x40 PUSH1 0x0 KECCAK256 SWAP7 PUSH1 0x1 DUP1 PUSH1 0xA0 SHL SUB SWAP1 MLOAD AND PUSH1 0x1 PUSH1 0x1 PUSH1 0x60 SHL SUB PUSH1 0xA0 SHL DUP9 SLOAD AND OR DUP8 SSTORE MLOAD PUSH1 0x1 DUP8 ADD SSTORE MLOAD PUSH1 0x2 DUP7 ADD SSTORE MLOAD ISZERO ISZERO PUSH1 0x3 DUP6 ADD SWAP1 PUSH1 0xFF DUP1 NOT DUP4 SLOAD AND SWAP2 ISZERO ISZERO AND OR SWAP1 SSTORE JUMP JUMPDEST MLOAD SWAP2 ADD SSTORE PUSH1 0x2 DUP2 ADD DUP1 SLOAD PUSH1 0x1 PUSH1 0x40 SHL DUP2 LT ISZERO PUSH2 0xB0B JUMPI PUSH2 0x10CC SWAP2 PUSH1 0x1 DUP3 ADD DUP2 SSTORE PUSH2 0x2E89 JUMP JUMPDEST DUP2 SLOAD SWAP1 PUSH1 0x3 SHL SWAP1 CALLER DUP3 SHL SWAP2 PUSH1 0x1 DUP1 PUSH1 0xA0 SHL SUB SWAP1 SHL NOT AND OR SWAP1 SSTORE PUSH2 0x10F4 PUSH1 0x24 CALLDATALOAD PUSH1 0x3 DUP4 ADD PUSH2 0x322E JUMP JUMPDEST PUSH2 0x1104 PUSH1 0x24 CALLDATALOAD PUSH1 0x5 DUP4 ADD SLOAD PUSH2 0x2FEF JUMP JUMPDEST PUSH1 0x5 DUP3 ADD SSTORE CALLER PUSH1 0x0 MSTORE PUSH1 0x7 PUSH1 0x20 MSTORE PUSH2 0x1122 PUSH1 0x4 CALLDATALOAD PUSH1 0x40 PUSH1 0x0 KECCAK256 PUSH2 0x322E JUMP JUMPDEST PUSH1 0x5 DUP2 ADD SLOAD PUSH1 0x4 DUP3 ADD SLOAD SWAP1 SWAP2 SWAP1 DUP3 LT PUSH2 0x11C8 JUMPI PUSH1 0x5 SWAP2 POP PUSH1 0x1 PUSH1 0xFF NOT PUSH1 0xE DUP4 ADD SLOAD AND OR PUSH1 0xE DUP3 ADD SSTORE TIMESTAMP PUSH1 0xC DUP3 ADD SSTORE PUSH2 0x115E PUSH1 0xA DUP3 ADD SLOAD TIMESTAMP PUSH2 0x2FEF JUMP JUMPDEST PUSH1 0xD DUP3 ADD SSTORE PUSH1 0x6 DUP2 ADD SLOAD PUSH1 0x1 DUP3 ADD SLOAD PUSH1 0x4 DUP4 ADD SLOAD PUSH2 0x118A SWAP3 SWAP1 SWAP2 PUSH1 0x1 PUSH1 0x1 PUSH1 0xA0 SHL SUB AND SWAP1 PUSH1 0xFF AND PUSH2 0x33FB JUMP JUMPDEST ADD SLOAD PUSH1 0x40 MLOAD SWAP1 DUP2 MSTORE TIMESTAMP PUSH1 0x20 DUP3 ADD MSTORE PUSH32 0xB96BADA2A4E2E402AAA472B5E783A9D8BB13D996387DF6BEEA608680B31FF46F PUSH1 0x40 PUSH1 0x4 CALLDATALOAD SWAP3 LOG2 JUMPDEST PUSH1 0x1 PUSH1 0x0 SSTORE STOP JUMPDEST PUSH1 0xE PUSH1 0x2 PUSH1 0xFF NOT DUP3 DUP5 ADD SLOAD AND OR SWAP2 ADD SSTORE PUSH1 0x40 MLOAD SWAP1 PUSH1 0x24 CALLDATALOAD DUP3 MSTORE PUSH1 0x20 DUP3 ADD MSTORE CALLER SWAP1 PUSH32 0x73A9841EE04F39F41B73F9432C749617285427E60F2FBE3A1BF5A5EF2E6B16CB PUSH1 0x40 PUSH1 0x4 CALLDATALOAD SWAP3 LOG3 PUSH2 0x11C1 JUMP JUMPDEST PUSH1 0x40 MLOAD PUSH3 0x461BCD PUSH1 0xE5 SHL DUP2 MSTORE PUSH1 0x20 PUSH1 0x4 DUP3 ADD MSTORE PUSH1 0x19 PUSH1 0x24 DUP3 ADD MSTORE PUSH32 0x496E636F72726563742045544820616D6F756E742073656E7400000000000000 PUSH1 0x44 DUP3 ADD MSTORE PUSH1 0x64 SWAP1 REVERT JUMPDEST PUSH2 0x1266 PUSH2 0x12D8 SWAP2 PUSH2 0x2E57 JUMP JUMPDEST PUSH1 0x2 PUSH1 0x40 MLOAD SWAP2 PUSH2 0x1275 DUP4 PUSH2 0x2F50 JUMP JUMPDEST DUP1 SLOAD PUSH1 0x1 PUSH1 0x1 PUSH1 0xA0 SHL SUB DUP2 AND DUP5 MSTORE PUSH1 0xFF SWAP1 PUSH2 0x1299 PUSH1 0xA0 DUP3 SWAP1 SHR DUP4 AND PUSH1 0x20 DUP8 ADD PUSH2 0x2FE3 JUMP JUMPDEST PUSH1 0xA8 DUP2 SWAP1 SHR DUP3 AND PUSH1 0x40 DUP7 ADD MSTORE PUSH1 0xB0 SHR AND ISZERO ISZERO PUSH1 0x60 DUP5 ADD MSTORE PUSH1 0x1 DUP2 ADD SLOAD PUSH1 0x80 DUP5 ADD MSTORE ADD SLOAD PUSH1 0xA0 DUP3 ADD MSTORE MLOAD PUSH1 0x24 CALLDATALOAD SWAP1 ADDRESS SWAP1 CALLER SWAP1 PUSH1 0x1 PUSH1 0x1 PUSH1 0xA0 SHL SUB AND PUSH2 0x3263 JUMP JUMPDEST PUSH2 0x1016 JUMP JUMPDEST PUSH1 0x40 MLOAD PUSH3 0x461BCD PUSH1 0xE5 SHL DUP2 MSTORE PUSH1 0x20 PUSH1 0x4 DUP3 ADD MSTORE PUSH1 0x13 PUSH1 0x24 DUP3 ADD MSTORE PUSH19 0x115E18D959591CC81B1BD85B88185B5BDD5B9D PUSH1 0x6A SHL PUSH1 0x44 DUP3 ADD MSTORE PUSH1 0x64 SWAP1 REVERT JUMPDEST PUSH1 0x40 MLOAD PUSH3 0x461BCD PUSH1 0xE5 SHL DUP2 MSTORE PUSH1 0x20 PUSH1 0x4 DUP3 ADD MSTORE PUSH1 0x25 PUSH1 0x24 DUP3 ADD MSTORE PUSH32 0x46756E64696E6720616D6F756E74206D75737420626520677265617465722074 PUSH1 0x44 DUP3 ADD MSTORE PUSH5 0x68616E203 PUSH1 0xDC SHL PUSH1 0x64 DUP3 ADD MSTORE PUSH1 0x84 SWAP1 REVERT JUMPDEST PUSH1 0x40 MLOAD PUSH3 0x461BCD PUSH1 0xE5 SHL DUP2 MSTORE PUSH1 0x20 PUSH1 0x4 DUP3 ADD MSTORE PUSH1 0x19 PUSH1 0x24 DUP3 ADD MSTORE PUSH32 0x43616E6E6F742066756E6420796F7572206F776E206C6F616E00000000000000 PUSH1 0x44 DUP3 ADD MSTORE PUSH1 0x64 SWAP1 REVERT JUMPDEST PUSH1 0x40 MLOAD PUSH3 0x461BCD PUSH1 0xE5 SHL DUP2 MSTORE PUSH1 0x20 PUSH1 0x4 DUP3 ADD MSTORE PUSH1 0x12 PUSH1 0x24 DUP3 ADD MSTORE PUSH18 0x4C6F616E206E6F7420617661696C61626C65 PUSH1 0x70 SHL PUSH1 0x44 DUP3 ADD MSTORE PUSH1 0x64 SWAP1 REVERT JUMPDEST PUSH1 0x2 SWAP2 POP EQ DUP4 PUSH2 0xFC7 JUMP JUMPDEST CALLVALUE PUSH2 0x1DE JUMPI PUSH1 0x20 CALLDATASIZE PUSH1 0x3 NOT ADD SLT PUSH2 0x1DE JUMPI PUSH2 0x140E PUSH2 0x2E28 JUMP JUMPDEST PUSH2 0x1416 PUSH2 0x2F24 JUMP JUMPDEST PUSH1 0x1 PUSH1 0x1 PUSH1 0xA0 SHL SUB SWAP1 DUP2 AND SWAP1 DUP2 ISZERO PUSH2 0x1465 JUMPI PUSH1 0x1 SLOAD DUP3 PUSH1 0x1 PUSH1 0x1 PUSH1 0x60 SHL SUB PUSH1 0xA0 SHL DUP3 AND OR PUSH1 0x1 SSTORE AND PUSH32 0x8BE0079C531659141344CD1FD0A4F28419497F9722A3DAAFE3B4186F6B6457E0 PUSH1 0x0 DUP1 LOG3 STOP JUMPDEST PUSH1 0x40 MLOAD PUSH4 0x1E4FBDF7 PUSH1 0xE0 SHL DUP2 MSTORE PUSH1 0x0 PUSH1 0x4 DUP3 ADD MSTORE PUSH1 0x24 SWAP1 REVERT JUMPDEST CALLVALUE PUSH2 0x1DE JUMPI PUSH1 0x20 CALLDATASIZE PUSH1 0x3 NOT ADD SLT PUSH2 0x1DE JUMPI PUSH1 0x1 PUSH1 0x1 PUSH1 0xA0 SHL SUB PUSH2 0x149F PUSH2 0x2E28 JUMP JUMPDEST AND PUSH1 0x0 MSTORE PUSH1 0x7 PUSH1 0x20 MSTORE PUSH2 0x14CC PUSH2 0x14B8 PUSH1 0x40 PUSH1 0x0 KECCAK256 PUSH2 0x34E9 JUMP JUMPDEST PUSH1 0x40 MLOAD SWAP2 DUP3 SWAP2 PUSH1 0x20 DUP4 MSTORE PUSH1 0x20 DUP4 ADD SWAP1 PUSH2 0x2EC4 JUMP JUMPDEST SUB SWAP1 RETURN JUMPDEST CALLVALUE PUSH2 0x1DE JUMPI PUSH1 0x20 CALLDATASIZE PUSH1 0x3 NOT ADD SLT PUSH2 0x1DE JUMPI PUSH1 0x1 PUSH1 0x1 PUSH1 0xA0 SHL SUB PUSH2 0x14F1 PUSH2 0x2E28 JUMP JUMPDEST AND PUSH1 0x0 MSTORE PUSH1 0x6 PUSH1 0x20 MSTORE PUSH2 0x14CC PUSH2 0x14B8 PUSH1 0x40 PUSH1 0x0 KECCAK256 PUSH2 0x34E9 JUMP JUMPDEST CALLVALUE PUSH2 0x1DE JUMPI PUSH1 0x40 CALLDATASIZE PUSH1 0x3 NOT ADD SLT PUSH2 0x1DE JUMPI PUSH2 0x1523 PUSH2 0x2E28 JUMP JUMPDEST PUSH1 0x1 PUSH1 0x1 PUSH1 0xA0 SHL SUB AND PUSH1 0x0 SWAP1 DUP2 MSTORE PUSH1 0x6 PUSH1 0x20 MSTORE PUSH1 0x40 SWAP1 KECCAK256 DUP1 SLOAD PUSH1 0x24 CALLDATALOAD SWAP2 SWAP1 DUP3 LT ISZERO PUSH2 0x1DE JUMPI PUSH1 0x20 SWAP2 PUSH2 0x1554 SWAP2 PUSH2 0x2E89 JUMP JUMPDEST SWAP1 SLOAD PUSH1 0x40 MLOAD SWAP2 PUSH1 0x3 SHL SHR DUP2 MSTORE RETURN JUMPDEST CALLVALUE PUSH2 0x1DE JUMPI PUSH1 0x20 CALLDATASIZE PUSH1 0x3 NOT ADD SLT PUSH2 0x1DE JUMPI PUSH1 0x4 CALLDATALOAD PUSH1 0x0 MSTORE PUSH1 0x4 PUSH1 0x20 MSTORE PUSH1 0x40 PUSH1 0x0 KECCAK256 DUP1 SLOAD SWAP1 DUP1 PUSH1 0x1 PUSH1 0xA0 SHL PUSH1 0x1 SWAP1 SUB PUSH1 0x1 DUP3 ADD SLOAD AND PUSH1 0x4 DUP3 ADD SLOAD PUSH1 0x5 DUP4 ADD SLOAD PUSH1 0x6 DUP5 ADD SLOAD PUSH1 0x7 DUP6 ADD SLOAD PUSH1 0x8 DUP7 ADD SLOAD PUSH1 0x9 DUP8 ADD SLOAD PUSH1 0xFF AND SWAP1 PUSH1 0xA DUP9 ADD SLOAD SWAP3 PUSH1 0xB DUP10 ADD SLOAD SWAP5 PUSH1 0xC DUP11 ADD SLOAD SWAP7 PUSH1 0xD DUP12 ADD SLOAD SWAP9 PUSH1 0xE DUP13 ADD SLOAD SWAP11 PUSH1 0xF DUP14 ADD SLOAD SWAP13 PUSH1 0x10 ADD SLOAD PUSH1 0xFF AND SWAP14 PUSH1 0x11 ADD SLOAD SWAP15 PUSH1 0x40 MLOAD DUP1 PUSH1 0x80 MSTORE MSTORE PUSH1 0x80 MLOAD PUSH1 0x20 ADD MSTORE PUSH1 0x80 MLOAD PUSH1 0x40 ADD MSTORE PUSH1 0x80 MLOAD PUSH1 0x60 ADD MSTORE PUSH1 0x80 MLOAD PUSH1 0x80 ADD PUSH1 0xFF DUP3 AND SWAP1 PUSH2 0x161A SWAP2 PUSH2 0x2EB7 JUMP JUMPDEST PUSH1 0x80 MLOAD PUSH1 0xA0 ADD SWAP1 PUSH1 0x8 SHR PUSH1 0xFF AND SWAP1 PUSH2 0x1631 SWAP2 PUSH2 0x2EB7 JUMP JUMPDEST PUSH1 0x80 MLOAD PUSH1 0xC0 ADD MSTORE PUSH1 0x80 MLOAD PUSH1 0xE0 ADD MSTORE ISZERO ISZERO PUSH1 0x80 MLOAD PUSH2 0x100 ADD MSTORE PUSH1 0x80 MLOAD PUSH2 0x120 ADD MSTORE PUSH1 0x80 MLOAD PUSH2 0x140 ADD MSTORE PUSH1 0x80 MLOAD PUSH2 0x160 ADD MSTORE PUSH1 0x80 MLOAD PUSH2 0x180 ADD MSTORE PUSH1 0x80 MLOAD PUSH2 0x1A0 ADD PUSH1 0xFF DUP3 AND SWAP1 PUSH2 0x167E SWAP2 PUSH2 0x2EF8 JUMP JUMPDEST PUSH1 0x8 SHR PUSH1 0xFF AND ISZERO ISZERO PUSH1 0x80 MLOAD PUSH2 0x1C0 ADD MSTORE PUSH1 0x80 MLOAD PUSH2 0x1E0 ADD MSTORE ISZERO ISZERO PUSH1 0x80 MLOAD PUSH2 0x200 ADD MSTORE PUSH1 0x80 MLOAD PUSH2 0x220 ADD MSTORE PUSH1 0x80 MLOAD PUSH2 0x240 SWAP1 RETURN JUMPDEST CALLVALUE PUSH2 0x1DE JUMPI PUSH1 0x20 CALLDATASIZE PUSH1 0x3 NOT ADD SLT PUSH2 0x1DE JUMPI PUSH1 0x4 CALLDATALOAD PUSH1 0x5 DUP2 LT ISZERO PUSH2 0x1DE JUMPI PUSH2 0x16D9 PUSH1 0xA0 SWAP2 PUSH2 0x2E70 JUMP JUMPDEST DUP1 SLOAD SWAP1 PUSH1 0x1 DUP2 ADD SLOAD SWAP1 PUSH1 0x2 DUP2 ADD SLOAD PUSH1 0x4 PUSH1 0x3 DUP4 ADD SLOAD SWAP3 ADD SLOAD SWAP3 PUSH1 0x40 MLOAD SWAP5 DUP6 MSTORE PUSH1 0x20 DUP6 ADD MSTORE PUSH1 0x40 DUP5 ADD MSTORE PUSH1 0x60 DUP4 ADD MSTORE PUSH1 0x80 DUP3 ADD MSTORE RETURN JUMPDEST CALLVALUE PUSH2 0x1DE JUMPI PUSH1 0x20 CALLDATASIZE PUSH1 0x3 NOT ADD SLT PUSH2 0x1DE JUMPI PUSH1 0x4 CALLDATALOAD PUSH1 0x5 DUP2 LT ISZERO PUSH2 0x1DE JUMPI PUSH2 0x1736 PUSH1 0x20 SWAP2 PUSH2 0x2E70 JUMP JUMPDEST PUSH2 0x1785 PUSH2 0xE10 PUSH2 0x177E PUSH1 0x40 MLOAD SWAP4 PUSH2 0x174C DUP6 PUSH2 0x2F89 JUMP JUMPDEST DUP1 SLOAD DUP6 MSTORE PUSH1 0x4 PUSH1 0x1 DUP3 ADD SLOAD SWAP2 DUP3 DUP9 DUP9 ADD MSTORE PUSH1 0x2 DUP2 ADD SLOAD PUSH1 0x40 DUP9 ADD MSTORE PUSH1 0x3 DUP2 ADD SLOAD PUSH1 0x60 DUP9 ADD MSTORE ADD SLOAD PUSH1 0x80 DUP7 ADD MSTORE TIMESTAMP PUSH2 0x301C JUMP JUMPDEST GT ISZERO PUSH2 0x304B JUMP JUMPDEST MLOAD PUSH1 0x40 MLOAD SWAP1 DUP2 MSTORE RETURN JUMPDEST CALLVALUE PUSH2 0x1DE JUMPI PUSH1 0x20 CALLDATASIZE PUSH1 0x3 NOT ADD SLT PUSH2 0x1DE JUMPI PUSH1 0x4 CALLDATALOAD PUSH1 0x5 DUP2 LT ISZERO PUSH2 0x1DE JUMPI PUSH2 0x17E3 PUSH1 0xC0 SWAP2 PUSH1 0x0 PUSH1 0xA0 PUSH1 0x40 MLOAD PUSH2 0x17C1 DUP2 PUSH2 0x2F50 JUMP JUMPDEST DUP3 DUP2 MSTORE DUP3 PUSH1 0x20 DUP3 ADD MSTORE DUP3 PUSH1 0x40 DUP3 ADD MSTORE DUP3 PUSH1 0x60 DUP3 ADD MSTORE DUP3 PUSH1 0x80 DUP3 ADD MSTORE ADD MSTORE PUSH2 0x2E57 JUMP JUMPDEST PUSH1 0x40 MLOAD SWAP1 PUSH2 0x17F0 DUP3 PUSH2 0x2F50 JUMP JUMPDEST DUP1 SLOAD PUSH1 0x1 PUSH1 0x1 PUSH1 0xA0 SHL SUB DUP1 DUP3 AND DUP5 MSTORE SWAP2 SWAP1 PUSH1 0xFF PUSH1 0x20 DUP6 ADD PUSH2 0x1817 PUSH1 0xA0 DUP5 SWAP1 SHR DUP4 AND DUP3 PUSH2 0x2FE3 JUMP JUMPDEST PUSH2 0x1861 PUSH1 0x40 DUP8 ADD SWAP2 DUP4 DUP6 PUSH1 0xA8 SHR AND DUP4 MSTORE DUP4 PUSH1 0x60 DUP10 ADD SWAP6 PUSH1 0xB0 SHR AND ISZERO ISZERO DUP6 MSTORE PUSH1 0x2 PUSH1 0x1 DUP8 ADD SLOAD SWAP7 PUSH1 0x80 DUP11 ADD SWAP8 DUP9 MSTORE ADD SLOAD SWAP7 PUSH1 0xA0 DUP10 ADD SWAP8 DUP9 MSTORE PUSH1 0x40 MLOAD SWAP9 MLOAD AND DUP9 MSTORE MLOAD PUSH1 0x20 DUP9 ADD SWAP1 PUSH2 0x2EB7 JUMP JUMPDEST MLOAD AND PUSH1 0x40 DUP6 ADD MSTORE MLOAD ISZERO ISZERO PUSH1 0x60 DUP5 ADD MSTORE MLOAD PUSH1 0x80 DUP4 ADD MSTORE MLOAD PUSH1 0xA0 DUP3 ADD MSTORE RETURN JUMPDEST CALLVALUE PUSH2 0x1DE JUMPI PUSH1 0x20 CALLDATASIZE PUSH1 0x3 NOT ADD SLT PUSH2 0x1DE JUMPI PUSH1 0x4 CALLDATALOAD PUSH1 0x5 DUP2 LT ISZERO PUSH2 0x1DE JUMPI PUSH2 0x18A6 PUSH1 0xC0 SWAP2 PUSH2 0x2E70 JUMP JUMPDEST PUSH1 0x40 MLOAD PUSH2 0x18B2 DUP2 PUSH2 0x2F89 JUMP JUMPDEST PUSH1 0x80 DUP3 SLOAD SWAP3 DUP4 DUP4 MSTORE PUSH1 0x1 DUP2 ADD SLOAD SWAP3 DUP4 PUSH1 0x20 DUP3 ADD MSTORE PUSH1 0x2 DUP3 ADD SLOAD SWAP1 DUP2 PUSH1 0x40 DUP3 ADD MSTORE PUSH1 0x4 PUSH1 0x3 DUP5 ADD SLOAD SWAP4 DUP5 PUSH1 0x60 DUP5 ADD MSTORE ADD SLOAD SWAP4 DUP5 SWAP2 ADD MSTORE PUSH2 0xE10 PUSH2 0x18F4 DUP6 TIMESTAMP PUSH2 0x301C JUMP JUMPDEST GT SWAP4 PUSH1 0x40 MLOAD SWAP6 DUP7 MSTORE PUSH1 0x20 DUP7 ADD MSTORE PUSH1 0x40 DUP6 ADD MSTORE PUSH1 0x60 DUP5 ADD MSTORE PUSH1 0x80 DUP4 ADD MSTORE PUSH1 0xA0 DUP3 ADD MSTORE RETURN JUMPDEST CALLVALUE PUSH2 0x1DE JUMPI PUSH1 0x20 CALLDATASIZE PUSH1 0x3 NOT ADD SLT PUSH2 0x1DE JUMPI PUSH1 0x4 CALLDATALOAD PUSH1 0x5 DUP2 LT ISZERO PUSH2 0x1DE JUMPI PUSH2 0x193F PUSH1 0x20 SWAP2 PUSH2 0x2E3E JUMP JUMPDEST SLOAD PUSH1 0x40 MLOAD SWAP1 DUP2 MSTORE RETURN JUMPDEST PUSH2 0x1951 CALLDATASIZE PUSH2 0x2F05 JUMP JUMPDEST PUSH2 0x1959 PUSH2 0x3314 JUMP JUMPDEST DUP1 ISZERO PUSH2 0x1A86 JUMPI PUSH1 0x5 DUP3 LT ISZERO PUSH2 0x3F0 JUMPI DUP2 PUSH2 0x1A12 JUMPI DUP1 CALLVALUE SUB PUSH2 0x19D7 JUMPI PUSH1 0x20 PUSH32 0x6FA38037A90881B4BC2D0759BCAC6C48179AFFDD02749FF4474EAC352D847B36 SWAP2 JUMPDEST PUSH2 0x19A2 DUP5 PUSH2 0x2E3E JUMP JUMPDEST PUSH2 0x19AD DUP3 DUP3 SLOAD PUSH2 0x2FEF JUMP JUMPDEST SWAP1 SSTORE CALLER PUSH1 0x0 MSTORE PUSH1 0xC DUP3 MSTORE PUSH1 0x40 PUSH1 0x0 KECCAK256 PUSH2 0x19C7 DUP3 DUP3 SLOAD PUSH2 0x2FEF JUMP JUMPDEST SWAP1 SSTORE PUSH1 0x40 MLOAD SWAP1 DUP2 MSTORE LOG2 PUSH1 0x1 PUSH1 0x0 SSTORE STOP JUMPDEST PUSH1 0x40 MLOAD PUSH3 0x461BCD PUSH1 0xE5 SHL DUP2 MSTORE PUSH1 0x20 PUSH1 0x4 DUP3 ADD MSTORE PUSH1 0x13 PUSH1 0x24 DUP3 ADD MSTORE PUSH19 0x8AA89040C2DADEEADCE840DAD2E6DAC2E8C6D PUSH1 0x6B SHL PUSH1 0x44 DUP3 ADD MSTORE PUSH1 0x64 SWAP1 REVERT JUMPDEST PUSH1 0x20 PUSH32 0x6FA38037A90881B4BC2D0759BCAC6C48179AFFDD02749FF4474EAC352D847B36 SWAP2 PUSH2 0x1A40 CALLVALUE ISZERO PUSH2 0x316C JUMP JUMPDEST PUSH2 0x1A81 DUP2 PUSH2 0x1A4D DUP7 PUSH2 0x2E57 JUMP JUMPDEST PUSH1 0x40 MLOAD PUSH2 0x1A59 DUP2 PUSH2 0x2F50 JUMP JUMPDEST DUP2 SLOAD PUSH1 0x1 PUSH1 0x1 PUSH1 0xA0 SHL SUB DUP1 DUP3 AND DUP4 MSTORE SWAP3 PUSH1 0x2 SWAP2 PUSH1 0xFF SWAP1 PUSH2 0xBDB PUSH1 0xA0 DUP3 SWAP1 SHR DUP4 AND DUP12 DUP8 ADD PUSH2 0x2FE3 JUMP JUMPDEST PUSH2 0x1999 JUMP JUMPDEST PUSH1 0x40 MLOAD PUSH3 0x461BCD PUSH1 0xE5 SHL DUP2 MSTORE PUSH1 0x20 PUSH1 0x4 DUP3 ADD MSTORE PUSH1 0x17 PUSH1 0x24 DUP3 ADD MSTORE PUSH32 0x416D6F756E74206D75737420626520706F736974697665000000000000000000 PUSH1 0x44 DUP3 ADD MSTORE PUSH1 0x64 SWAP1 REVERT JUMPDEST CALLVALUE PUSH2 0x1DE JUMPI PUSH1 0x40 CALLDATASIZE PUSH1 0x3 NOT ADD SLT PUSH2 0x1DE JUMPI PUSH1 0xA0 PUSH2 0x1AE6 PUSH2 0x2E12 JUMP JUMPDEST PUSH1 0x4 CALLDATALOAD PUSH1 0x0 MSTORE PUSH1 0x5 PUSH1 0x20 MSTORE PUSH1 0x40 PUSH1 0x0 KECCAK256 PUSH1 0x1 DUP1 DUP5 SHL SUB DUP1 SWAP3 AND PUSH1 0x0 MSTORE PUSH1 0x20 MSTORE PUSH1 0x40 PUSH1 0x0 KECCAK256 SWAP1 DUP2 SLOAD AND SWAP1 PUSH1 0x1 DUP2 ADD SLOAD SWAP1 PUSH1 0x2 DUP2 ADD SLOAD PUSH1 0x4 PUSH1 0xFF PUSH1 0x3 DUP5 ADD SLOAD AND SWAP3 ADD SLOAD SWAP3 PUSH1 0x40 MLOAD SWAP5 DUP6 MSTORE PUSH1 0x20 DUP6 ADD MSTORE PUSH1 0x40 DUP5 ADD MSTORE ISZERO ISZERO PUSH1 0x60 DUP4 ADD MSTORE PUSH1 0x80 DUP3 ADD MSTORE RETURN JUMPDEST PUSH1 0x20 CALLDATASIZE PUSH1 0x3 NOT ADD SLT PUSH2 0x1DE JUMPI PUSH2 0x1B5A PUSH2 0x3314 JUMP JUMPDEST PUSH1 0x4 CALLDATALOAD PUSH1 0x0 MSTORE PUSH1 0x4 PUSH1 0x20 MSTORE PUSH1 0x40 PUSH1 0x0 KECCAK256 PUSH1 0x1 DUP1 PUSH1 0xA0 SHL SUB PUSH1 0x1 DUP3 ADD SLOAD AND CALLER SUB PUSH2 0x2045 JUMPI PUSH1 0xFF PUSH1 0xE DUP3 ADD SLOAD AND PUSH1 0x6 DUP2 LT ISZERO PUSH2 0x3F0 JUMPI PUSH1 0x1 SUB PUSH2 0x200E JUMPI PUSH1 0xD DUP2 ADD SLOAD TIMESTAMP GT PUSH2 0x1FDA JUMPI PUSH2 0x1BC0 PUSH1 0x4 DUP3 ADD SLOAD PUSH2 0x2710 PUSH2 0x1BB9 PUSH1 0x8 DUP6 ADD SLOAD DUP4 PUSH2 0x3029 JUMP JUMPDEST DIV SWAP1 PUSH2 0x2FEF JUMP JUMPDEST SWAP1 PUSH1 0xFF PUSH1 0x6 DUP3 ADD SLOAD AND PUSH1 0x5 DUP2 LT ISZERO PUSH2 0x3F0 JUMPI DUP1 PUSH2 0x1E72 JUMPI POP SWAP1 DUP1 CALLVALUE LT PUSH2 0x1E2D JUMPI PUSH1 0x0 JUMPDEST PUSH1 0x2 DUP4 ADD SLOAD DUP2 LT ISZERO PUSH2 0x1CD3 JUMPI PUSH2 0x1BFC DUP2 PUSH1 0x2 DUP6 ADD PUSH2 0x2E89 JUMP JUMPDEST PUSH1 0x1 DUP1 PUSH1 0xA0 SHL SUB SWAP2 SLOAD SWAP1 PUSH1 0x3 SHL SHR AND SWAP1 PUSH2 0x1C34 PUSH2 0x1C1C DUP3 PUSH1 0x3 DUP8 ADD PUSH2 0x2E89 JUMP JUMPDEST SWAP1 SLOAD SWAP1 PUSH1 0x3 SHL SHR PUSH2 0x2710 PUSH2 0x1BB9 PUSH1 0x8 DUP9 ADD SLOAD DUP4 PUSH2 0x3029 JUMP JUMPDEST PUSH1 0x0 DUP1 DUP1 DUP1 DUP5 DUP8 GAS CALL PUSH2 0x1C45 PUSH2 0x3379 JUMP JUMPDEST POP ISZERO PUSH2 0x1C8E JUMPI PUSH1 0x4 DUP1 CALLDATALOAD PUSH1 0x0 SWAP1 DUP2 MSTORE PUSH1 0x5 PUSH1 0x20 SWAP1 DUP2 MSTORE PUSH1 0x40 DUP1 DUP4 KECCAK256 SWAP7 DUP4 MSTORE SWAP6 SWAP1 MSTORE SWAP4 SWAP1 SWAP4 KECCAK256 PUSH1 0x3 DUP2 ADD DUP1 SLOAD PUSH1 0xFF NOT AND PUSH1 0x1 OR SWAP1 SSTORE SWAP1 SWAP3 ADD SWAP2 SWAP1 SWAP2 SSTORE PUSH2 0x1C89 SWAP1 PUSH2 0x303C JUMP JUMPDEST PUSH2 0x1BE3 JUMP JUMPDEST PUSH1 0x40 MLOAD PUSH3 0x461BCD PUSH1 0xE5 SHL DUP2 MSTORE PUSH1 0x20 PUSH1 0x4 DUP3 ADD MSTORE PUSH1 0x19 PUSH1 0x24 DUP3 ADD MSTORE PUSH32 0x5472616E7366657220746F206C656E646572206661696C656400000000000000 PUSH1 0x44 DUP3 ADD MSTORE PUSH1 0x64 SWAP1 REVERT JUMPDEST POP SWAP1 DUP2 CALLVALUE GT PUSH2 0x1DD2 JUMPI JUMPDEST PUSH1 0xE PUSH1 0x3 PUSH1 0xFF NOT DUP3 DUP5 ADD SLOAD AND OR SWAP2 ADD SSTORE PUSH1 0x4 CALLDATALOAD PUSH1 0x0 MSTORE PUSH1 0x4 PUSH1 0x20 MSTORE PUSH1 0x40 PUSH1 0x0 KECCAK256 PUSH1 0xE DUP2 ADD SWAP1 PUSH1 0xFF DUP3 SLOAD PUSH1 0x8 SHR AND PUSH2 0x1D8D JUMPI PUSH1 0x7 DUP2 ADD SLOAD DUP1 PUSH2 0x1D51 JUMPI JUMPDEST DUP4 PUSH1 0x40 MLOAD SWAP1 DUP2 MSTORE CALLER SWAP1 PUSH32 0x512D3E65B3E58C2187BB1872AA435DBA5BD09C1C03823BA56AB70AAC411E4A21 PUSH1 0x20 PUSH1 0x4 CALLDATALOAD SWAP3 LOG3 PUSH1 0x1 PUSH1 0x0 SSTORE STOP JUMPDEST PUSH1 0x6 DUP3 ADD SLOAD PUSH1 0x1 SWAP1 SWAP3 ADD SLOAD PUSH2 0x1D78 SWAP3 PUSH1 0x1 PUSH1 0x1 PUSH1 0xA0 SHL SUB SWAP2 SWAP1 SWAP2 AND SWAP1 PUSH1 0x8 SHR PUSH1 0xFF AND PUSH2 0x33FB JUMP JUMPDEST DUP1 SLOAD PUSH2 0xFF00 NOT AND PUSH2 0x100 OR SWAP1 SSTORE DUP2 DUP1 DUP1 PUSH2 0x1D19 JUMP JUMPDEST PUSH1 0x40 MLOAD PUSH3 0x461BCD PUSH1 0xE5 SHL DUP2 MSTORE PUSH1 0x20 PUSH1 0x4 DUP3 ADD MSTORE PUSH1 0x1A PUSH1 0x24 DUP3 ADD MSTORE PUSH32 0x436F6C6C61746572616C20616C726561647920636C61696D6564000000000000 PUSH1 0x44 DUP3 ADD MSTORE PUSH1 0x64 SWAP1 REVERT JUMPDEST PUSH1 0x0 DUP1 DUP1 DUP1 PUSH2 0x1DE1 DUP7 CALLVALUE PUSH2 0x301C JUMP JUMPDEST CALLER GAS CALL PUSH2 0x1DEC PUSH2 0x3379 JUMP JUMPDEST POP PUSH2 0x1CDD JUMPI PUSH1 0x40 MLOAD PUSH3 0x461BCD PUSH1 0xE5 SHL DUP2 MSTORE PUSH1 0x20 PUSH1 0x4 DUP3 ADD MSTORE PUSH1 0x14 PUSH1 0x24 DUP3 ADD MSTORE PUSH20 0x115E18D95CDCC81C995D1D5C9B8819985A5B1959 PUSH1 0x62 SHL PUSH1 0x44 DUP3 ADD MSTORE PUSH1 0x64 SWAP1 REVERT JUMPDEST PUSH1 0x40 MLOAD PUSH3 0x461BCD PUSH1 0xE5 SHL DUP2 MSTORE PUSH1 0x20 PUSH1 0x4 DUP3 ADD MSTORE PUSH1 0x1D PUSH1 0x24 DUP3 ADD MSTORE PUSH32 0x496E73756666696369656E742072657061796D656E7420616D6F756E74000000 PUSH1 0x44 DUP3 ADD MSTORE PUSH1 0x64 SWAP1 REVERT JUMPDEST CALLVALUE PUSH2 0x1F8A JUMPI PUSH2 0x1E80 SWAP1 PUSH2 0x2E57 JUMP JUMPDEST PUSH1 0x2 PUSH1 0x40 MLOAD SWAP2 PUSH2 0x1E8F DUP4 PUSH2 0x2F50 JUMP JUMPDEST DUP1 SLOAD PUSH1 0x1 PUSH1 0x1 PUSH1 0xA0 SHL SUB DUP2 AND DUP5 MSTORE PUSH1 0xFF SWAP1 PUSH2 0x1EB3 PUSH1 0xA0 DUP3 SWAP1 SHR DUP4 AND PUSH1 0x20 DUP8 ADD PUSH2 0x2FE3 JUMP JUMPDEST PUSH1 0xA8 DUP2 SWAP1 SHR DUP3 AND PUSH1 0x40 DUP7 ADD MSTORE PUSH1 0xB0 SHR AND ISZERO ISZERO PUSH1 0x60 DUP5 ADD MSTORE PUSH1 0x1 DUP2 ADD SLOAD PUSH1 0x80 DUP5 ADD MSTORE ADD SLOAD PUSH1 0xA0 DUP3 ADD MSTORE MLOAD PUSH1 0x1 PUSH1 0x1 PUSH1 0xA0 SHL SUB AND PUSH1 0x0 JUMPDEST PUSH1 0x2 DUP4 ADD SLOAD DUP2 LT ISZERO PUSH2 0x1F83 JUMPI DUP1 PUSH2 0x1F05 PUSH2 0x1F7E SWAP3 PUSH1 0x2 DUP7 ADD PUSH2 0x2E89 JUMP JUMPDEST PUSH1 0x1 DUP1 PUSH1 0xA0 SHL SUB SWAP2 SLOAD SWAP1 PUSH1 0x3 SHL SHR AND PUSH2 0x1F3C PUSH2 0x1F24 DUP4 PUSH1 0x3 DUP9 ADD PUSH2 0x2E89 JUMP JUMPDEST SWAP1 SLOAD SWAP1 PUSH1 0x3 SHL SHR PUSH2 0x2710 PUSH2 0x1BB9 PUSH1 0x8 DUP10 ADD SLOAD DUP4 PUSH2 0x3029 JUMP JUMPDEST SWAP1 PUSH2 0x1F49 DUP3 DUP3 CALLER DUP9 PUSH2 0x3263 JUMP JUMPDEST PUSH1 0x4 DUP1 CALLDATALOAD PUSH1 0x0 SWAP1 DUP2 MSTORE PUSH1 0x5 PUSH1 0x20 SWAP1 DUP2 MSTORE PUSH1 0x40 DUP1 DUP4 KECCAK256 SWAP5 DUP4 MSTORE SWAP4 SWAP1 MSTORE SWAP2 SWAP1 SWAP2 KECCAK256 PUSH1 0x3 DUP2 ADD DUP1 SLOAD PUSH1 0xFF NOT AND PUSH1 0x1 OR SWAP1 SSTORE ADD SSTORE PUSH2 0x303C JUMP JUMPDEST PUSH2 0x1EE8 JUMP JUMPDEST POP POP PUSH2 0x1CDD JUMP JUMPDEST PUSH1 0x40 MLOAD PUSH3 0x461BCD PUSH1 0xE5 SHL DUP2 MSTORE PUSH1 0x20 PUSH1 0x4 DUP3 ADD MSTORE PUSH1 0x22 PUSH1 0x24 DUP3 ADD MSTORE PUSH32 0x455448206E6F74206E656564656420666F722045524332302072657061796D65 PUSH1 0x44 DUP3 ADD MSTORE PUSH2 0x1B9D PUSH1 0xF2 SHL PUSH1 0x64 DUP3 ADD MSTORE PUSH1 0x84 SWAP1 REVERT JUMPDEST PUSH1 0x40 MLOAD PUSH3 0x461BCD PUSH1 0xE5 SHL DUP2 MSTORE PUSH1 0x20 PUSH1 0x4 DUP3 ADD MSTORE PUSH1 0xC PUSH1 0x24 DUP3 ADD MSTORE PUSH12 0x131BD85B88195E1C1A5C9959 PUSH1 0xA2 SHL PUSH1 0x44 DUP3 ADD MSTORE PUSH1 0x64 SWAP1 REVERT JUMPDEST PUSH1 0x40 MLOAD PUSH3 0x461BCD PUSH1 0xE5 SHL DUP2 MSTORE PUSH1 0x20 PUSH1 0x4 DUP3 ADD MSTORE PUSH1 0xF PUSH1 0x24 DUP3 ADD MSTORE PUSH15 0x4C6F616E206E6F7420616374697665 PUSH1 0x88 SHL PUSH1 0x44 DUP3 ADD MSTORE PUSH1 0x64 SWAP1 REVERT JUMPDEST PUSH1 0x40 MLOAD PUSH3 0x461BCD PUSH1 0xE5 SHL DUP2 MSTORE PUSH1 0x20 PUSH1 0x4 DUP3 ADD MSTORE PUSH1 0x17 PUSH1 0x24 DUP3 ADD MSTORE PUSH32 0x4F6E6C7920626F72726F7765722063616E207265706179000000000000000000 PUSH1 0x44 DUP3 ADD MSTORE PUSH1 0x64 SWAP1 REVERT JUMPDEST CALLVALUE PUSH2 0x1DE JUMPI PUSH1 0x0 CALLDATASIZE PUSH1 0x3 NOT ADD SLT PUSH2 0x1DE JUMPI PUSH1 0x2 DUP1 SLOAD PUSH1 0x0 NOT DUP2 ADD DUP2 DUP2 GT PUSH2 0x5A8 JUMPI PUSH2 0x20B4 SWAP1 PUSH2 0x31C8 JUMP JUMPDEST SWAP2 PUSH1 0x0 SWAP2 PUSH1 0x1 JUMPDEST DUP2 DUP2 LT PUSH2 0x2113 JUMPI POP POP POP PUSH2 0x20CE DUP2 PUSH2 0x31C8 JUMP JUMPDEST SWAP2 PUSH1 0x0 JUMPDEST DUP3 DUP2 LT PUSH2 0x20EF JUMPI PUSH1 0x40 MLOAD PUSH1 0x20 DUP1 DUP3 MSTORE DUP2 SWAP1 PUSH2 0x14CC SWAP1 DUP3 ADD DUP8 PUSH2 0x2EC4 JUMP JUMPDEST DUP1 PUSH2 0x20FD PUSH2 0x210E SWAP3 DUP5 PUSH2 0x3538 JUMP JUMPDEST MLOAD PUSH2 0x2108 DUP3 DUP8 PUSH2 0x3538 JUMP JUMPDEST MSTORE PUSH2 0x303C JUMP JUMPDEST PUSH2 0x20D2 JUMP JUMPDEST DUP1 PUSH1 0x0 MSTORE PUSH1 0x20 PUSH1 0x4 DUP2 MSTORE PUSH1 0xFF PUSH1 0xE SWAP1 DUP1 DUP3 PUSH1 0x40 PUSH1 0x0 KECCAK256 ADD SLOAD AND SWAP2 PUSH1 0x6 SWAP3 DUP4 DUP2 LT ISZERO PUSH2 0x3F0 JUMPI ISZERO SWAP4 DUP5 ISZERO PUSH2 0x2173 JUMPI JUMPDEST POP POP POP POP PUSH2 0x2158 JUMPI JUMPDEST PUSH2 0x2153 SWAP1 PUSH2 0x303C JUMP JUMPDEST PUSH2 0x20BB JUMP JUMPDEST SWAP3 PUSH2 0x216B DUP2 DUP6 PUSH2 0x2108 PUSH2 0x2153 SWAP5 DUP10 PUSH2 0x3538 JUMP JUMPDEST SWAP4 SWAP1 POP PUSH2 0x214A JUMP JUMPDEST PUSH1 0x0 DUP7 DUP2 MSTORE PUSH1 0x4 SWAP1 SWAP2 MSTORE PUSH1 0x40 SWAP1 KECCAK256 ADD SLOAD AND SWAP2 POP DUP2 LT ISZERO PUSH2 0x3F0 JUMPI DUP4 EQ DUP7 DUP1 DUP1 DUP1 PUSH2 0x2141 JUMP JUMPDEST CALLVALUE PUSH2 0x1DE JUMPI PUSH1 0x0 CALLDATASIZE PUSH1 0x3 NOT ADD SLT PUSH2 0x1DE JUMPI PUSH1 0x1 SLOAD PUSH1 0x40 MLOAD PUSH1 0x1 PUSH1 0x1 PUSH1 0xA0 SHL SUB SWAP1 SWAP2 AND DUP2 MSTORE PUSH1 0x20 SWAP1 RETURN JUMPDEST CALLVALUE PUSH2 0x1DE JUMPI PUSH1 0x0 CALLDATASIZE PUSH1 0x3 NOT ADD SLT PUSH2 0x1DE JUMPI PUSH1 0x20 PUSH1 0x40 MLOAD PUSH2 0xE10 DUP2 MSTORE RETURN JUMPDEST CALLVALUE PUSH2 0x1DE JUMPI PUSH1 0x0 CALLDATASIZE PUSH1 0x3 NOT ADD SLT PUSH2 0x1DE JUMPI PUSH1 0x20 PUSH1 0x2 SLOAD PUSH1 0x40 MLOAD SWAP1 DUP2 MSTORE RETURN JUMPDEST CALLVALUE PUSH2 0x1DE JUMPI PUSH1 0x40 CALLDATASIZE PUSH1 0x3 NOT ADD SLT PUSH2 0x1DE JUMPI PUSH2 0x2215 PUSH2 0x2E28 JUMP JUMPDEST PUSH1 0x24 CALLDATALOAD SWAP1 DUP2 ISZERO ISZERO SWAP1 DUP2 DUP4 SUB PUSH2 0x1DE JUMPI PUSH32 0x32FDE6397CD391B6F81B58789E435D67003507393605E8AB5C6EC76AAF7916A1 SWAP2 PUSH2 0x227B PUSH1 0x20 SWAP3 PUSH2 0x2254 PUSH2 0x2F24 JUMP JUMPDEST PUSH1 0x1 DUP1 PUSH1 0xA0 SHL SUB AND SWAP5 DUP6 PUSH1 0x0 MSTORE PUSH1 0x9 DUP5 MSTORE PUSH1 0x40 PUSH1 0x0 KECCAK256 SWAP1 PUSH1 0xFF DUP1 NOT DUP4 SLOAD AND SWAP2 ISZERO ISZERO AND OR SWAP1 SSTORE JUMP JUMPDEST PUSH1 0x40 MLOAD SWAP1 DUP2 MSTORE LOG2 STOP JUMPDEST CALLVALUE PUSH2 0x1DE JUMPI PUSH1 0x0 CALLDATASIZE PUSH1 0x3 NOT ADD SLT PUSH2 0x1DE JUMPI PUSH1 0x20 PUSH1 0x40 MLOAD PUSH1 0x64 DUP2 MSTORE RETURN JUMPDEST CALLVALUE PUSH2 0x1DE JUMPI PUSH1 0x0 CALLDATASIZE PUSH1 0x3 NOT ADD SLT PUSH2 0x1DE JUMPI PUSH1 0x20 PUSH1 0x40 MLOAD PUSH1 0x78 DUP2 MSTORE RETURN JUMPDEST CALLVALUE PUSH2 0x1DE JUMPI PUSH1 0x0 CALLDATASIZE PUSH1 0x3 NOT ADD SLT PUSH2 0x1DE JUMPI PUSH2 0x22D5 PUSH2 0x2F24 JUMP JUMPDEST PUSH1 0x1 DUP1 SLOAD PUSH1 0x1 PUSH1 0x1 PUSH1 0xA0 SHL SUB NOT DUP2 AND SWAP1 SWAP2 SSTORE PUSH1 0x0 SWAP1 PUSH1 0x1 PUSH1 0x1 PUSH1 0xA0 SHL SUB AND PUSH32 0x8BE0079C531659141344CD1FD0A4F28419497F9722A3DAAFE3B4186F6B6457E0 DUP3 DUP1 LOG3 STOP JUMPDEST CALLVALUE PUSH2 0x1DE JUMPI PUSH1 0x40 CALLDATASIZE PUSH1 0x3 NOT ADD SLT PUSH2 0x1DE JUMPI PUSH2 0x2332 PUSH2 0x2E12 JUMP JUMPDEST PUSH1 0x4 CALLDATALOAD PUSH1 0x0 MSTORE PUSH1 0xB PUSH1 0x20 MSTORE PUSH1 0x40 PUSH1 0x0 KECCAK256 SWAP1 PUSH1 0x1 DUP1 PUSH1 0xA0 SHL SUB AND PUSH1 0x0 MSTORE PUSH1 0x20 MSTORE PUSH1 0x20 PUSH1 0xFF PUSH1 0x40 PUSH1 0x0 KECCAK256 SLOAD AND PUSH1 0x40 MLOAD SWAP1 ISZERO ISZERO DUP2 MSTORE RETURN JUMPDEST CALLVALUE PUSH2 0x1DE JUMPI PUSH1 0x20 CALLDATASIZE PUSH1 0x3 NOT ADD SLT PUSH2 0x1DE JUMPI PUSH1 0x0 PUSH2 0x260 PUSH1 0x40 MLOAD PUSH2 0x2388 DUP2 PUSH2 0x2F6C JUMP JUMPDEST DUP3 DUP2 MSTORE DUP3 PUSH1 0x20 DUP3 ADD MSTORE PUSH1 0x60 PUSH1 0x40 DUP3 ADD MSTORE PUSH1 0x60 DUP1 DUP3 ADD MSTORE DUP3 PUSH1 0x80 DUP3 ADD MSTORE DUP3 PUSH1 0xA0 DUP3 ADD MSTORE DUP3 PUSH1 0xC0 DUP3 ADD MSTORE DUP3 PUSH1 0xE0 DUP3 ADD MSTORE DUP3 PUSH2 0x100 DUP3 ADD MSTORE DUP3 PUSH2 0x120 DUP3 ADD MSTORE DUP3 PUSH2 0x140 DUP3 ADD MSTORE DUP3 PUSH2 0x160 DUP3 ADD MSTORE DUP3 PUSH2 0x180 DUP3 ADD MSTORE DUP3 PUSH2 0x1A0 DUP3 ADD MSTORE DUP3 PUSH2 0x1C0 DUP3 ADD MSTORE DUP3 PUSH2 0x1E0 DUP3 ADD MSTORE DUP3 PUSH2 0x200 DUP3 ADD MSTORE DUP3 PUSH2 0x220 DUP3 ADD MSTORE DUP3 PUSH2 0x240 DUP3 ADD MSTORE ADD MSTORE PUSH1 0x4 CALLDATALOAD PUSH1 0x0 MSTORE PUSH1 0x4 PUSH1 0x20 MSTORE PUSH1 0x40 PUSH1 0x0 KECCAK256 PUSH1 0x40 MLOAD SWAP1 PUSH2 0x2422 DUP3 PUSH2 0x2F6C JUMP JUMPDEST DUP1 SLOAD DUP3 MSTORE PUSH1 0x1 DUP1 PUSH1 0xA0 SHL SUB PUSH1 0x1 DUP3 ADD SLOAD AND PUSH1 0x20 DUP4 ADD MSTORE PUSH1 0x40 MLOAD DUP1 DUP2 PUSH1 0x2 DUP5 ADD PUSH1 0x20 DUP2 SLOAD SWAP4 DUP5 DUP2 MSTORE ADD SWAP1 PUSH1 0x0 MSTORE PUSH1 0x20 PUSH1 0x0 KECCAK256 SWAP3 PUSH1 0x0 JUMPDEST DUP2 DUP2 LT PUSH2 0x26BF JUMPI POP POP PUSH2 0x246C SWAP3 POP SUB DUP3 PUSH2 0x2FC1 JUMP JUMPDEST PUSH1 0x40 DUP4 ADD MSTORE PUSH2 0x247D PUSH1 0x3 DUP3 ADD PUSH2 0x34E9 JUMP JUMPDEST PUSH1 0x60 DUP4 ADD MSTORE PUSH1 0x4 DUP2 ADD SLOAD PUSH1 0x80 DUP4 ADD MSTORE PUSH1 0x5 DUP2 ADD SLOAD PUSH1 0xA0 DUP4 ADD MSTORE PUSH2 0x24BC PUSH1 0xFF PUSH1 0x6 DUP4 ADD SLOAD PUSH2 0x24AF DUP3 DUP3 AND PUSH1 0xC0 DUP8 ADD PUSH2 0x2FE3 JUMP JUMPDEST PUSH1 0x8 SHR AND PUSH1 0xE0 DUP5 ADD PUSH2 0x2FE3 JUMP JUMPDEST PUSH1 0x7 DUP2 ADD SLOAD PUSH2 0x100 DUP4 ADD MSTORE PUSH1 0x8 DUP2 ADD SLOAD PUSH2 0x120 DUP4 ADD MSTORE PUSH1 0xFF PUSH1 0x9 DUP3 ADD SLOAD AND ISZERO ISZERO PUSH2 0x140 DUP4 ADD MSTORE PUSH1 0xA DUP2 ADD SLOAD PUSH2 0x160 DUP4 ADD MSTORE PUSH1 0xB DUP2 ADD SLOAD PUSH2 0x180 DUP4 ADD MSTORE PUSH1 0xC DUP2 ADD SLOAD PUSH2 0x1A0 DUP4 ADD MSTORE PUSH1 0xD DUP2 ADD SLOAD PUSH2 0x1C0 DUP4 ADD MSTORE PUSH1 0xE DUP2 ADD SLOAD SWAP1 PUSH1 0x6 PUSH1 0xFF DUP4 AND LT ISZERO PUSH2 0x3F0 JUMPI PUSH1 0xFF DUP3 DUP2 PUSH1 0x11 SWAP5 AND PUSH2 0x1E0 DUP7 ADD MSTORE PUSH1 0x8 SHR AND ISZERO ISZERO PUSH2 0x200 DUP5 ADD MSTORE PUSH1 0xF DUP2 ADD SLOAD PUSH2 0x220 DUP5 ADD MSTORE PUSH1 0xFF PUSH1 0x10 DUP3 ADD SLOAD AND ISZERO ISZERO PUSH2 0x240 DUP5 ADD MSTORE ADD SLOAD PUSH2 0x260 DUP3 ADD MSTORE PUSH1 0x40 MLOAD PUSH1 0x20 DUP2 MSTORE DUP2 MLOAD PUSH1 0x20 DUP3 ADD MSTORE PUSH1 0x1 DUP1 PUSH1 0xA0 SHL SUB PUSH1 0x20 DUP4 ADD MLOAD AND PUSH1 0x40 DUP3 ADD MSTORE PUSH1 0x40 DUP3 ADD MLOAD SWAP2 PUSH2 0x280 PUSH1 0x60 DUP4 ADD MSTORE PUSH2 0x2A0 DUP3 ADD DUP4 MLOAD DUP1 SWAP2 MSTORE PUSH1 0x20 PUSH2 0x2C0 DUP5 ADD SWAP5 ADD SWAP1 PUSH1 0x0 JUMPDEST DUP2 DUP2 LT PUSH2 0x26A0 JUMPI POP POP POP PUSH2 0x260 PUSH2 0x25CA DUP4 SWAP5 PUSH1 0x60 DUP5 ADD MLOAD PUSH1 0x1F NOT DUP7 DUP4 SUB ADD PUSH1 0x80 DUP8 ADD MSTORE PUSH2 0x2EC4 JUMP JUMPDEST SWAP2 PUSH1 0x80 DUP2 ADD MLOAD PUSH1 0xA0 DUP6 ADD MSTORE PUSH1 0xA0 DUP2 ADD MLOAD PUSH1 0xC0 DUP6 ADD MSTORE PUSH2 0x25F1 PUSH1 0xC0 DUP3 ADD MLOAD PUSH1 0xE0 DUP7 ADD SWAP1 PUSH2 0x2EB7 JUMP JUMPDEST PUSH2 0x2604 PUSH1 0xE0 DUP3 ADD MLOAD PUSH2 0x100 DUP7 ADD SWAP1 PUSH2 0x2EB7 JUMP JUMPDEST PUSH2 0x100 DUP2 ADD MLOAD PUSH2 0x120 DUP6 ADD MSTORE PUSH2 0x120 DUP2 ADD MLOAD PUSH2 0x140 DUP6 ADD MSTORE PUSH2 0x140 DUP2 ADD MLOAD ISZERO ISZERO PUSH2 0x160 DUP6 ADD MSTORE PUSH2 0x160 DUP2 ADD MLOAD PUSH2 0x180 DUP6 ADD MSTORE PUSH2 0x180 DUP2 ADD MLOAD PUSH2 0x1A0 DUP6 ADD MSTORE PUSH2 0x1A0 DUP2 ADD MLOAD PUSH2 0x1C0 DUP6 ADD MSTORE PUSH2 0x1C0 DUP2 ADD MLOAD PUSH2 0x1E0 DUP6 ADD MSTORE PUSH2 0x266E PUSH2 0x1E0 DUP3 ADD MLOAD PUSH2 0x200 DUP7 ADD SWAP1 PUSH2 0x2EF8 JUMP JUMPDEST PUSH2 0x200 DUP2 ADD MLOAD ISZERO ISZERO PUSH2 0x220 DUP6 ADD MSTORE PUSH2 0x220 DUP2 ADD MLOAD PUSH2 0x240 DUP6 ADD MSTORE PUSH2 0x240 DUP2 ADD MLOAD ISZERO ISZERO DUP3 DUP6 ADD MSTORE ADD MLOAD PUSH2 0x280 DUP4 ADD MSTORE SUB SWAP1 RETURN JUMPDEST DUP3 MLOAD PUSH1 0x1 PUSH1 0x1 PUSH1 0xA0 SHL SUB AND DUP7 MSTORE PUSH1 0x20 SWAP6 DUP7 ADD SWAP6 SWAP1 SWAP3 ADD SWAP2 PUSH1 0x1 ADD PUSH2 0x25A2 JUMP JUMPDEST DUP5 SLOAD PUSH1 0x1 PUSH1 0x1 PUSH1 0xA0 SHL SUB AND DUP4 MSTORE PUSH1 0x1 SWAP5 DUP6 ADD SWAP5 DUP7 SWAP5 POP PUSH1 0x20 SWAP1 SWAP4 ADD SWAP3 ADD PUSH2 0x2457 JUMP JUMPDEST CALLVALUE PUSH2 0x1DE JUMPI PUSH1 0x60 CALLDATASIZE PUSH1 0x3 NOT ADD SLT PUSH2 0x1DE JUMPI PUSH1 0x4 CALLDATALOAD PUSH1 0x5 DUP2 LT ISZERO PUSH2 0x1DE JUMPI PUSH1 0x24 SWAP1 DUP2 CALLDATALOAD SWAP2 PUSH1 0x44 CALLDATALOAD CALLER PUSH1 0x0 MSTORE PUSH1 0x20 SWAP2 PUSH1 0x9 DUP4 MSTORE PUSH1 0xFF PUSH1 0x40 PUSH1 0x0 KECCAK256 SLOAD AND ISZERO PUSH2 0x2990 JUMPI DUP5 ISZERO ISZERO DUP1 PUSH2 0x2987 JUMPI JUMPDEST ISZERO PUSH2 0x2953 JUMPI PUSH2 0x2737 DUP5 PUSH2 0x2E70 JUMP JUMPDEST SWAP1 PUSH2 0x2742 DUP4 DUP8 PUSH2 0x2FEF JUMP JUMPDEST PUSH1 0x1 SHR SWAP3 DUP1 DUP8 GT ISZERO PUSH2 0x2923 JUMPI PUSH2 0x2758 DUP2 DUP9 PUSH2 0x301C JUMP JUMPDEST PUSH2 0x2710 SWAP1 DUP2 DUP2 MUL SWAP2 DUP2 DUP4 DIV EQ SWAP1 ISZERO OR ISZERO PUSH2 0x290E JUMPI PUSH2 0x2779 DUP3 PUSH2 0x3E8 SWAP3 PUSH2 0x2FFC JUMP JUMPDEST GT PUSH2 0x28CA JUMPI PUSH1 0x4 DUP4 ADD SWAP3 DUP4 SLOAD SWAP3 DUP4 PUSH2 0x27D8 JUMPI JUMPDEST POP SWAP1 PUSH1 0x3 DUP3 PUSH32 0xF798C75B2DB09EA1034D9BE253E9974B17BBE4A06F2B0FF6695054FA5B747191 SWAP9 SWAP10 DUP8 PUSH2 0x27CD SWAP7 SWAP6 SSTORE TIMESTAMP PUSH1 0x1 DUP4 ADD SSTORE PUSH1 0x2 DUP3 ADD SSTORE ADD SSTORE PUSH2 0x303C JUMP JUMPDEST SWAP1 SSTORE PUSH1 0x40 MLOAD SWAP1 DUP2 MSTORE LOG2 STOP JUMPDEST SWAP8 DUP2 SLOAD DUP7 DUP2 DUP2 GT PUSH1 0x0 EQ PUSH2 0x2886 JUMPI DUP2 PUSH2 0x27F0 SWAP2 PUSH2 0x301C JUMP JUMPDEST PUSH2 0x2710 SWAP1 DUP2 DUP2 MUL SWAP2 DUP2 DUP4 DIV EQ SWAP1 ISZERO OR ISZERO PUSH2 0x2871 JUMPI PUSH2 0xBB8 SWAP2 PUSH2 0x2811 SWAP2 PUSH2 0x2FFC JUMP JUMPDEST GT PUSH2 0x281C JUMPI SWAP8 PUSH2 0x278C JUMP JUMPDEST PUSH1 0x40 MLOAD PUSH3 0x461BCD PUSH1 0xE5 SHL DUP2 MSTORE PUSH1 0x4 DUP2 ADD DUP9 SWAP1 MSTORE PUSH1 0x28 DUP2 DUP12 ADD MSTORE PUSH32 0x4E657720707269636520646576696174657320746F6F206D7563682066726F6D PUSH1 0x44 DUP3 ADD MSTORE PUSH8 0x818DD5C9C995B9D PUSH1 0xC2 SHL PUSH1 0x64 DUP3 ADD MSTORE PUSH1 0x84 SWAP1 REVERT JUMPDEST DUP11 PUSH4 0x4E487B71 PUSH1 0xE0 SHL PUSH1 0x0 MSTORE PUSH1 0x11 PUSH1 0x4 MSTORE PUSH1 0x0 REVERT JUMPDEST PUSH2 0x288F SWAP2 PUSH2 0x301C JUMP JUMPDEST PUSH2 0x2710 SWAP1 DUP2 DUP2 MUL SWAP2 DUP2 DUP4 DIV EQ SWAP1 ISZERO OR ISZERO PUSH2 0x28B5 JUMPI PUSH2 0x28B0 DUP8 PUSH2 0xBB8 SWAP3 PUSH2 0x2FFC JUMP JUMPDEST PUSH2 0x2811 JUMP JUMPDEST DUP10 PUSH4 0x4E487B71 PUSH1 0xE0 SHL PUSH1 0x0 MSTORE PUSH1 0x11 PUSH1 0x4 MSTORE PUSH1 0x0 REVERT JUMPDEST PUSH1 0x40 MLOAD PUSH3 0x461BCD PUSH1 0xE5 SHL DUP2 MSTORE PUSH1 0x4 DUP2 ADD DUP7 SWAP1 MSTORE PUSH1 0x1E DUP2 DUP5 ADD MSTORE PUSH32 0x507269636520736F7572636573206465766961746520746F6F206D7563680000 PUSH1 0x44 DUP3 ADD MSTORE PUSH1 0x64 SWAP1 REVERT JUMPDEST DUP3 PUSH4 0x4E487B71 PUSH1 0xE0 SHL PUSH1 0x0 MSTORE PUSH1 0x11 PUSH1 0x4 MSTORE PUSH1 0x0 REVERT JUMPDEST PUSH2 0x292D DUP8 DUP3 PUSH2 0x301C JUMP JUMPDEST PUSH2 0x2710 SWAP1 DUP2 DUP2 MUL SWAP2 DUP2 DUP4 DIV EQ SWAP1 ISZERO OR ISZERO PUSH2 0x290E JUMPI PUSH2 0x294E DUP9 PUSH2 0x3E8 SWAP3 PUSH2 0x2FFC JUMP JUMPDEST PUSH2 0x2779 JUMP JUMPDEST DUP3 PUSH1 0xE PUSH1 0x64 SWAP3 PUSH1 0x40 MLOAD SWAP3 PUSH3 0x461BCD PUSH1 0xE5 SHL DUP5 MSTORE PUSH1 0x4 DUP5 ADD MSTORE DUP3 ADD MSTORE PUSH14 0x496E76616C696420707269636573 PUSH1 0x90 SHL PUSH1 0x44 DUP3 ADD MSTORE REVERT JUMPDEST POP DUP2 ISZERO ISZERO PUSH2 0x2729 JUMP JUMPDEST DUP3 PUSH1 0x1B PUSH1 0x64 SWAP3 PUSH1 0x40 MLOAD SWAP3 PUSH3 0x461BCD PUSH1 0xE5 SHL DUP5 MSTORE PUSH1 0x4 DUP5 ADD MSTORE DUP3 ADD MSTORE PUSH32 0x4E6F7420617574686F72697A6564207072696365206F7261636C650000000000 PUSH1 0x44 DUP3 ADD MSTORE REVERT JUMPDEST CALLVALUE PUSH2 0x1DE JUMPI PUSH1 0x20 CALLDATASIZE PUSH1 0x3 NOT ADD SLT PUSH2 0x1DE JUMPI PUSH1 0x4 CALLDATALOAD PUSH1 0x5 DUP2 LT ISZERO PUSH2 0x1DE JUMPI PUSH2 0x29FB PUSH1 0xC0 SWAP2 PUSH2 0x2E57 JUMP JUMPDEST DUP1 SLOAD PUSH1 0x1 DUP3 ADD SLOAD PUSH1 0x2 SWAP1 SWAP3 ADD SLOAD PUSH1 0x40 MLOAD PUSH1 0x1 PUSH1 0x1 PUSH1 0xA0 SHL SUB DUP4 AND DUP2 MSTORE SWAP3 SWAP1 SWAP2 PUSH1 0xFF SWAP1 PUSH2 0x2A30 PUSH1 0x20 DUP7 ADD PUSH1 0xA0 DUP4 SWAP1 SHR DUP5 AND PUSH2 0x2EB7 JUMP JUMPDEST DUP2 DUP2 PUSH1 0xA8 SHR AND PUSH1 0x40 DUP7 ADD MSTORE PUSH1 0xB0 SHR AND ISZERO ISZERO PUSH1 0x60 DUP5 ADD MSTORE PUSH1 0x80 DUP4 ADD MSTORE PUSH1 0xA0 DUP3 ADD MSTORE RETURN JUMPDEST CALLVALUE PUSH2 0x1DE JUMPI PUSH1 0x40 CALLDATASIZE PUSH1 0x3 NOT ADD SLT PUSH2 0x1DE JUMPI PUSH2 0x2A6B PUSH2 0x2E28 JUMP JUMPDEST PUSH1 0x1 PUSH1 0x1 PUSH1 0xA0 SHL SUB AND PUSH1 0x0 SWAP1 DUP2 MSTORE PUSH1 0x7 PUSH1 0x20 MSTORE PUSH1 0x40 SWAP1 KECCAK256 DUP1 SLOAD PUSH1 0x24 CALLDATALOAD SWAP2 SWAP1 DUP3 LT ISZERO PUSH2 0x1DE JUMPI PUSH1 0x20 SWAP2 PUSH2 0x1554 SWAP2 PUSH2 0x2E89 JUMP JUMPDEST CALLVALUE PUSH2 0x1DE JUMPI PUSH1 0x0 CALLDATASIZE PUSH1 0x3 NOT ADD SLT PUSH2 0x1DE JUMPI PUSH1 0x20 PUSH1 0x40 MLOAD PUSH2 0xBB8 DUP2 MSTORE RETURN JUMPDEST CALLVALUE PUSH2 0x1DE JUMPI PUSH1 0xA0 CALLDATASIZE PUSH1 0x3 NOT ADD SLT PUSH2 0x1DE JUMPI PUSH1 0x4 CALLDATALOAD PUSH1 0x5 DUP2 LT ISZERO PUSH2 0x1DE JUMPI PUSH2 0x2ADE PUSH2 0x2E12 JUMP JUMPDEST SWAP1 PUSH1 0x44 CALLDATALOAD PUSH1 0xFF DUP2 AND DUP1 SWAP2 SUB PUSH2 0x1DE JUMPI PUSH2 0x2AF5 PUSH2 0x2F24 JUMP JUMPDEST PUSH1 0x40 MLOAD SWAP1 PUSH2 0x2B02 DUP3 PUSH2 0x2F50 JUMP JUMPDEST PUSH1 0x1 PUSH1 0x1 PUSH1 0xA0 SHL SUB SWAP4 DUP5 AND DUP1 DUP4 MSTORE SWAP4 PUSH1 0x20 DUP4 ADD PUSH2 0x2B1F DUP6 DUP3 PUSH2 0x2FE3 JUMP JUMPDEST PUSH1 0x40 DUP5 ADD SWAP3 DUP4 MSTORE PUSH1 0x60 DUP5 ADD SWAP1 PUSH1 0x1 DUP3 MSTORE PUSH1 0x80 DUP6 ADD SWAP2 PUSH1 0x64 CALLDATALOAD DUP4 MSTORE PUSH1 0xA0 DUP7 ADD SWAP4 PUSH1 0x84 CALLDATALOAD DUP6 MSTORE PUSH2 0x2B4C DUP9 PUSH2 0x2E57 JUMP JUMPDEST SWAP7 MLOAD AND SWAP2 DUP7 SLOAD SWAP1 MLOAD SWAP3 PUSH1 0x5 DUP5 LT ISZERO PUSH2 0x3F0 JUMPI PUSH1 0x2 SWAP7 PUSH1 0xFF PUSH1 0xA8 SHL SWAP1 MLOAD PUSH1 0xA8 SHL AND SWAP3 PUSH1 0xFF PUSH1 0xB0 SHL SWAP1 MLOAD ISZERO ISZERO PUSH1 0xB0 SHL AND SWAP4 PUSH1 0xFF PUSH1 0xA0 SHL SWAP1 PUSH1 0xA0 SHL AND SWAP2 PUSH9 0xFFFFFFFFFFFFFFFFFF PUSH1 0xB8 SHL AND OR OR OR OR DUP5 SSTORE MLOAD PUSH1 0x1 DUP5 ADD SSTORE MLOAD SWAP2 ADD SSTORE PUSH32 0x782D5A983F4F99019EB2DC8DFE67419752A13DCA743154E71029FC01318D055 PUSH1 0x0 DUP1 LOG3 STOP JUMPDEST CALLVALUE PUSH2 0x1DE JUMPI PUSH1 0x0 CALLDATASIZE PUSH1 0x3 NOT ADD SLT PUSH2 0x1DE JUMPI PUSH1 0x20 PUSH1 0x40 MLOAD PUSH3 0x93A80 DUP2 MSTORE RETURN JUMPDEST CALLVALUE PUSH2 0x1DE JUMPI PUSH1 0x20 CALLDATASIZE PUSH1 0x3 NOT ADD SLT PUSH2 0x1DE JUMPI PUSH1 0x1 PUSH1 0x1 PUSH1 0xA0 SHL SUB PUSH2 0x2C0A PUSH2 0x2E28 JUMP JUMPDEST AND PUSH1 0x0 MSTORE PUSH1 0xC PUSH1 0x20 MSTORE PUSH1 0x20 PUSH1 0x40 PUSH1 0x0 KECCAK256 SLOAD PUSH1 0x40 MLOAD SWAP1 DUP2 MSTORE RETURN JUMPDEST CALLVALUE PUSH2 0x1DE JUMPI PUSH1 0x0 CALLDATASIZE PUSH1 0x3 NOT ADD SLT PUSH2 0x1DE JUMPI PUSH1 0x20 PUSH1 0x40 MLOAD PUSH4 0x1E13380 DUP2 MSTORE RETURN JUMPDEST CALLVALUE PUSH2 0x1DE JUMPI PUSH1 0x20 CALLDATASIZE PUSH1 0x3 NOT ADD SLT PUSH2 0x1DE JUMPI PUSH1 0x1 PUSH1 0x1 PUSH1 0xA0 SHL SUB PUSH2 0x2C63 PUSH2 0x2E28 JUMP JUMPDEST AND PUSH1 0x0 MSTORE PUSH1 0x9 PUSH1 0x20 MSTORE PUSH1 0x20 PUSH1 0xFF PUSH1 0x40 PUSH1 0x0 KECCAK256 SLOAD AND PUSH1 0x40 MLOAD SWAP1 ISZERO ISZERO DUP2 MSTORE RETURN JUMPDEST CALLVALUE PUSH2 0x1DE JUMPI PUSH1 0x40 CALLDATASIZE PUSH1 0x3 NOT ADD SLT PUSH2 0x1DE JUMPI PUSH1 0x4 CALLDATALOAD PUSH2 0x2C9D PUSH2 0x2E12 JUMP JUMPDEST SWAP1 DUP1 PUSH1 0x0 MSTORE PUSH1 0x20 PUSH1 0x4 DUP2 MSTORE PUSH1 0x40 PUSH1 0x0 KECCAK256 SWAP2 PUSH2 0x2CBA DUP4 SLOAD ISZERO ISZERO PUSH2 0x3337 JUMP JUMPDEST PUSH1 0xFF PUSH1 0x10 DUP5 ADD SLOAD AND SWAP2 PUSH1 0x11 DUP5 ADD SLOAD SWAP4 DUP3 PUSH1 0x0 MSTORE PUSH1 0xB DUP3 MSTORE PUSH1 0x40 PUSH1 0x0 KECCAK256 SWAP3 PUSH1 0x1 DUP1 PUSH1 0xA0 SHL SUB DUP1 SWAP8 AND SWAP4 DUP5 PUSH1 0x0 MSTORE DUP4 MSTORE PUSH1 0xFF PUSH1 0x40 PUSH1 0x0 KECCAK256 SLOAD AND SWAP4 PUSH1 0x0 SWAP1 PUSH1 0x0 SWAP3 PUSH1 0x0 PUSH1 0x2 DUP7 ADD SWAP11 DUP12 SLOAD SWAP2 JUMPDEST DUP3 DUP2 LT PUSH2 0x2DC6 JUMPI POP POP POP DUP8 DUP1 SWAP10 SWAP11 POP SWAP8 PUSH2 0x2DAA JUMPI JUMPDEST DUP8 PUSH2 0x2D87 JUMPI JUMPDEST POP POP DUP6 PUSH2 0x2D7F JUMPI JUMPDEST POP DUP5 PUSH2 0x2D75 JUMPI JUMPDEST POP DUP4 PUSH2 0x2D54 JUMPI JUMPDEST POP SWAP4 PUSH1 0x80 SWAP5 PUSH1 0x40 MLOAD SWAP5 ISZERO ISZERO DUP6 MSTORE DUP5 ADD MSTORE ISZERO ISZERO PUSH1 0x40 DUP4 ADD MSTORE ISZERO ISZERO PUSH1 0x60 DUP3 ADD MSTORE RETURN JUMPDEST PUSH1 0xD SWAP2 SWAP4 POP ADD SLOAD SWAP4 PUSH3 0x93A80 DUP6 ADD DUP1 SWAP6 GT PUSH2 0x5A8 JUMPI SWAP4 TIMESTAMP LT ISZERO SWAP2 PUSH1 0x80 PUSH2 0x2D34 JUMP JUMPDEST ISZERO ISZERO SWAP4 POP DUP7 PUSH2 0x2D2D JUMP JUMPDEST SWAP5 POP DUP8 PUSH2 0x2D26 JUMP JUMPDEST PUSH1 0x0 SWAP1 DUP2 MSTORE PUSH1 0xB DUP7 MSTORE PUSH1 0x40 DUP1 DUP3 KECCAK256 SWAP3 DUP3 MSTORE SWAP2 DUP7 MSTORE KECCAK256 SLOAD PUSH1 0xFF AND ISZERO SWAP6 POP DUP9 DUP1 PUSH2 0x2D1E JUMP JUMPDEST SWAP7 POP PUSH1 0xFF PUSH1 0xE DUP6 ADD SLOAD AND PUSH1 0x6 DUP2 LT ISZERO PUSH2 0x3F0 JUMPI PUSH1 0x4 EQ SWAP7 PUSH2 0x2D18 JUMP JUMPDEST DUP2 DUP6 PUSH2 0x2DD3 DUP16 DUP5 SWAP1 PUSH2 0x2E89 JUMP JUMPDEST SWAP3 SWAP1 SLOAD PUSH1 0x3 SWAP4 DUP5 SHL SHR AND EQ PUSH2 0x2DF2 JUMPI JUMPDEST POP PUSH2 0x2DED SWAP1 PUSH2 0x303C JUMP JUMPDEST PUSH2 0x2D03 JUMP JUMPDEST SWAP6 POP SWAP6 PUSH2 0x2E0B PUSH2 0x2DED SWAP2 PUSH1 0x1 SWAP8 PUSH2 0x559 DUP11 DUP3 DUP14 ADD PUSH2 0x2E89 JUMP JUMPDEST SWAP7 SWAP1 PUSH2 0x2DE3 JUMP JUMPDEST PUSH1 0x24 CALLDATALOAD SWAP1 PUSH1 0x1 PUSH1 0x1 PUSH1 0xA0 SHL SUB DUP3 AND DUP3 SUB PUSH2 0x1DE JUMPI JUMP JUMPDEST PUSH1 0x4 CALLDATALOAD SWAP1 PUSH1 0x1 PUSH1 0x1 PUSH1 0xA0 SHL SUB DUP3 AND DUP3 SUB PUSH2 0x1DE JUMPI JUMP JUMPDEST PUSH1 0x5 DUP2 LT ISZERO PUSH2 0x3F0 JUMPI PUSH1 0x0 MSTORE PUSH1 0xA PUSH1 0x20 MSTORE PUSH1 0x40 PUSH1 0x0 KECCAK256 SWAP1 JUMP JUMPDEST PUSH1 0x5 DUP2 LT ISZERO PUSH2 0x3F0 JUMPI PUSH1 0x0 MSTORE PUSH1 0x3 PUSH1 0x20 MSTORE PUSH1 0x40 PUSH1 0x0 KECCAK256 SWAP1 JUMP JUMPDEST PUSH1 0x5 DUP2 LT ISZERO PUSH2 0x3F0 JUMPI PUSH1 0x0 MSTORE PUSH1 0x8 PUSH1 0x20 MSTORE PUSH1 0x40 PUSH1 0x0 KECCAK256 SWAP1 JUMP JUMPDEST DUP1 SLOAD DUP3 LT ISZERO PUSH2 0x2EA1 JUMPI PUSH1 0x0 MSTORE PUSH1 0x20 PUSH1 0x0 KECCAK256 ADD SWAP1 PUSH1 0x0 SWAP1 JUMP JUMPDEST PUSH4 0x4E487B71 PUSH1 0xE0 SHL PUSH1 0x0 MSTORE PUSH1 0x32 PUSH1 0x4 MSTORE PUSH1 0x24 PUSH1 0x0 REVERT JUMPDEST SWAP1 PUSH1 0x5 DUP3 LT ISZERO PUSH2 0x3F0 JUMPI MSTORE JUMP JUMPDEST SWAP1 DUP2 MLOAD DUP1 DUP3 MSTORE PUSH1 0x20 DUP1 DUP1 SWAP4 ADD SWAP4 ADD SWAP2 PUSH1 0x0 JUMPDEST DUP3 DUP2 LT PUSH2 0x2EE4 JUMPI POP POP POP POP SWAP1 JUMP JUMPDEST DUP4 MLOAD DUP6 MSTORE SWAP4 DUP2 ADD SWAP4 SWAP3 DUP2 ADD SWAP3 PUSH1 0x1 ADD PUSH2 0x2ED6 JUMP JUMPDEST SWAP1 PUSH1 0x6 DUP3 LT ISZERO PUSH2 0x3F0 JUMPI MSTORE JUMP JUMPDEST PUSH1 0x40 SWAP1 PUSH1 0x3 NOT ADD SLT PUSH2 0x1DE JUMPI PUSH1 0x4 CALLDATALOAD PUSH1 0x5 DUP2 LT ISZERO PUSH2 0x1DE JUMPI SWAP1 PUSH1 0x24 CALLDATALOAD SWAP1 JUMP JUMPDEST PUSH1 0x1 SLOAD PUSH1 0x1 PUSH1 0x1 PUSH1 0xA0 SHL SUB AND CALLER SUB PUSH2 0x2F38 JUMPI JUMP JUMPDEST PUSH1 0x40 MLOAD PUSH4 0x118CDAA7 PUSH1 0xE0 SHL DUP2 MSTORE CALLER PUSH1 0x4 DUP3 ADD MSTORE PUSH1 0x24 SWAP1 REVERT JUMPDEST PUSH1 0xC0 DUP2 ADD SWAP1 DUP2 LT PUSH8 0xFFFFFFFFFFFFFFFF DUP3 GT OR PUSH2 0xB0B JUMPI PUSH1 0x40 MSTORE JUMP JUMPDEST PUSH2 0x280 DUP2 ADD SWAP1 DUP2 LT PUSH8 0xFFFFFFFFFFFFFFFF DUP3 GT OR PUSH2 0xB0B JUMPI PUSH1 0x40 MSTORE JUMP JUMPDEST PUSH1 0xA0 DUP2 ADD SWAP1 DUP2 LT PUSH8 0xFFFFFFFFFFFFFFFF DUP3 GT OR PUSH2 0xB0B JUMPI PUSH1 0x40 MSTORE JUMP JUMPDEST PUSH1 0x20 DUP2 ADD SWAP1 DUP2 LT PUSH8 0xFFFFFFFFFFFFFFFF DUP3 GT OR PUSH2 0xB0B JUMPI PUSH1 0x40 MSTORE JUMP JUMPDEST SWAP1 PUSH1 0x1F DUP1 NOT SWAP2 ADD AND DUP2 ADD SWAP1 DUP2 LT PUSH8 0xFFFFFFFFFFFFFFFF DUP3 GT OR PUSH2 0xB0B JUMPI PUSH1 0x40 MSTORE JUMP JUMPDEST PUSH1 0x5 DUP3 LT ISZERO PUSH2 0x3F0 JUMPI MSTORE JUMP JUMPDEST SWAP2 SWAP1 DUP3 ADD DUP1 SWAP3 GT PUSH2 0x5A8 JUMPI JUMP JUMPDEST DUP2 ISZERO PUSH2 0x3006 JUMPI DIV SWAP1 JUMP JUMPDEST PUSH4 0x4E487B71 PUSH1 0xE0 SHL PUSH1 0x0 MSTORE PUSH1 0x12 PUSH1 0x4 MSTORE PUSH1 0x24 PUSH1 0x0 REVERT JUMPDEST SWAP2 SWAP1 DUP3 SUB SWAP2 DUP3 GT PUSH2 0x5A8 JUMPI JUMP JUMPDEST DUP2 DUP2 MUL SWAP3 SWAP2 DUP2 ISZERO SWAP2 DUP5 DIV EQ OR ISZERO PUSH2 0x5A8 JUMPI JUMP JUMPDEST PUSH1 0x0 NOT DUP2 EQ PUSH2 0x5A8 JUMPI PUSH1 0x1 ADD SWAP1 JUMP JUMPDEST ISZERO PUSH2 0x3052 JUMPI JUMP JUMPDEST PUSH1 0x40 MLOAD PUSH3 0x461BCD PUSH1 0xE5 SHL DUP2 MSTORE PUSH1 0x20 PUSH1 0x4 DUP3 ADD MSTORE PUSH1 0x13 PUSH1 0x24 DUP3 ADD MSTORE PUSH19 0x50726963652064617461206973207374616C65 PUSH1 0x68 SHL PUSH1 0x44 DUP3 ADD MSTORE PUSH1 0x64 SWAP1 REVERT JUMPDEST SWAP1 PUSH2 0x3150 PUSH1 0xFF SWAP2 PUSH2 0x3100 PUSH2 0x30A0 DUP6 PUSH2 0x2E57 JUMP JUMPDEST SWAP5 PUSH1 0x40 MLOAD PUSH2 0x30AD DUP2 PUSH2 0x2F50 JUMP JUMPDEST DUP7 SLOAD PUSH1 0x1 PUSH1 0x1 PUSH1 0xA0 SHL SUB DUP2 AND DUP3 MSTORE SWAP7 PUSH1 0xA0 SWAP1 PUSH1 0x2 SWAP1 PUSH2 0x30D3 DUP11 DUP5 SHR DUP11 AND PUSH1 0x20 DUP7 ADD PUSH2 0x2FE3 JUMP JUMPDEST DUP9 PUSH1 0x40 DUP6 ADD SWAP11 DUP2 DUP2 PUSH1 0xA8 SHR AND DUP13 MSTORE PUSH1 0xB0 SHR AND ISZERO ISZERO PUSH1 0x60 DUP6 ADD MSTORE PUSH1 0x1 DUP2 ADD SLOAD PUSH1 0x80 DUP6 ADD MSTORE ADD SLOAD SWAP2 ADD MSTORE PUSH2 0x2E70 JUMP JUMPDEST PUSH2 0x3149 PUSH2 0xE10 PUSH2 0x177E PUSH1 0x40 MLOAD SWAP4 PUSH2 0x3116 DUP6 PUSH2 0x2F89 JUMP JUMPDEST DUP1 SLOAD DUP6 MSTORE PUSH1 0x4 PUSH1 0x1 DUP3 ADD SLOAD SWAP2 DUP3 PUSH1 0x20 DUP9 ADD MSTORE PUSH1 0x2 DUP2 ADD SLOAD PUSH1 0x40 DUP9 ADD MSTORE PUSH1 0x3 DUP2 ADD SLOAD PUSH1 0x60 DUP9 ADD MSTORE ADD SLOAD PUSH1 0x80 DUP7 ADD MSTORE TIMESTAMP PUSH2 0x301C JUMP JUMPDEST MLOAD SWAP1 PUSH2 0x3029 JUMP JUMPDEST SWAP2 MLOAD AND SWAP1 PUSH1 0x4D DUP3 GT PUSH2 0x5A8 JUMPI PUSH2 0x3169 SWAP2 PUSH1 0xA EXP SWAP1 PUSH2 0x2FFC JUMP JUMPDEST SWAP1 JUMP JUMPDEST ISZERO PUSH2 0x3173 JUMPI JUMP JUMPDEST PUSH1 0x40 MLOAD PUSH3 0x461BCD PUSH1 0xE5 SHL DUP2 MSTORE PUSH1 0x20 PUSH1 0x4 DUP3 ADD MSTORE PUSH1 0x15 PUSH1 0x24 DUP3 ADD MSTORE PUSH21 0x139BC8115512081CDA1BDD5B19081899481CD95B9D PUSH1 0x5A SHL PUSH1 0x44 DUP3 ADD MSTORE PUSH1 0x64 SWAP1 REVERT JUMPDEST PUSH8 0xFFFFFFFFFFFFFFFF DUP2 GT PUSH2 0xB0B JUMPI PUSH1 0x5 SHL PUSH1 0x20 ADD SWAP1 JUMP JUMPDEST SWAP1 PUSH2 0x31D2 DUP3 PUSH2 0x31B0 JUMP JUMPDEST PUSH2 0x31DF PUSH1 0x40 MLOAD SWAP2 DUP3 PUSH2 0x2FC1 JUMP JUMPDEST DUP3 DUP2 MSTORE DUP1 SWAP3 PUSH2 0x31F0 PUSH1 0x1F NOT SWAP2 PUSH2 0x31B0 JUMP JUMPDEST ADD SWAP1 PUSH1 0x20 CALLDATASIZE SWAP2 ADD CALLDATACOPY JUMP JUMPDEST SWAP1 SWAP2 DUP3 DUP2 LT PUSH2 0x3208 JUMPI POP POP POP JUMP JUMPDEST PUSH1 0x0 SWAP2 DUP3 MSTORE PUSH1 0x20 DUP3 KECCAK256 SWAP3 DUP4 ADD SWAP3 ADD JUMPDEST DUP3 DUP2 LT PUSH2 0x3223 JUMPI POP POP POP JUMP JUMPDEST DUP2 DUP2 SSTORE PUSH1 0x1 ADD PUSH2 0x3217 JUMP JUMPDEST DUP1 SLOAD PUSH1 0x1 PUSH1 0x40 SHL DUP2 LT ISZERO PUSH2 0xB0B JUMPI PUSH2 0x324B SWAP2 PUSH1 0x1 DUP3 ADD DUP2 SSTORE PUSH2 0x2E89 JUMP JUMPDEST DUP2 SWAP3 SWAP2 SLOAD SWAP1 PUSH1 0x3 SHL SWAP2 DUP3 SHL SWAP2 PUSH1 0x0 NOT SWAP1 SHL NOT AND OR SWAP1 SSTORE JUMP JUMPDEST PUSH1 0x40 MLOAD PUSH4 0x23B872DD PUSH1 0xE0 SHL PUSH1 0x20 DUP3 ADD MSTORE PUSH1 0x1 PUSH1 0x1 PUSH1 0xA0 SHL SUB SWAP3 DUP4 AND PUSH1 0x24 DUP3 ADD MSTORE SWAP3 SWAP1 SWAP2 AND PUSH1 0x44 DUP4 ADD MSTORE PUSH1 0x64 DUP1 DUP4 ADD SWAP4 SWAP1 SWAP4 MSTORE SWAP2 DUP2 MSTORE PUSH2 0x32AA SWAP2 PUSH2 0x32A5 DUP3 PUSH2 0x2F89 JUMP JUMPDEST PUSH2 0x32AC JUMP JUMPDEST JUMP JUMPDEST SWAP1 PUSH1 0x0 PUSH1 0x20 SWAP2 DUP3 DUP2 MLOAD SWAP2 ADD DUP3 DUP6 GAS CALL ISZERO PUSH2 0x3308 JUMPI PUSH1 0x0 MLOAD RETURNDATASIZE PUSH2 0x32FF JUMPI POP PUSH1 0x1 PUSH1 0x1 PUSH1 0xA0 SHL SUB DUP2 AND EXTCODESIZE ISZERO JUMPDEST PUSH2 0x32DD JUMPI POP JUMP JUMPDEST PUSH1 0x40 MLOAD PUSH4 0x5274AFE7 PUSH1 0xE0 SHL DUP2 MSTORE PUSH1 0x1 PUSH1 0x1 PUSH1 0xA0 SHL SUB SWAP1 SWAP2 AND PUSH1 0x4 DUP3 ADD MSTORE PUSH1 0x24 SWAP1 REVERT JUMPDEST PUSH1 0x1 EQ ISZERO PUSH2 0x32D6 JUMP JUMPDEST PUSH1 0x40 MLOAD RETURNDATASIZE PUSH1 0x0 DUP3 RETURNDATACOPY RETURNDATASIZE SWAP1 REVERT JUMPDEST PUSH1 0x2 PUSH1 0x0 SLOAD EQ PUSH2 0x3325 JUMPI PUSH1 0x2 PUSH1 0x0 SSTORE JUMP JUMPDEST PUSH1 0x40 MLOAD PUSH4 0x3EE5AEB5 PUSH1 0xE0 SHL DUP2 MSTORE PUSH1 0x4 SWAP1 REVERT JUMPDEST ISZERO PUSH2 0x333E JUMPI JUMP JUMPDEST PUSH1 0x40 MLOAD PUSH3 0x461BCD PUSH1 0xE5 SHL DUP2 MSTORE PUSH1 0x20 PUSH1 0x4 DUP3 ADD MSTORE PUSH1 0x13 PUSH1 0x24 DUP3 ADD MSTORE PUSH19 0x131BD85B88191BD95CC81B9BDD08195E1A5CDD PUSH1 0x6A SHL PUSH1 0x44 DUP3 ADD MSTORE PUSH1 0x64 SWAP1 REVERT JUMPDEST RETURNDATASIZE ISZERO PUSH2 0x33B4 JUMPI RETURNDATASIZE SWAP1 PUSH8 0xFFFFFFFFFFFFFFFF DUP3 GT PUSH2 0xB0B JUMPI PUSH1 0x40 MLOAD SWAP2 PUSH2 0x33A8 PUSH1 0x1F DUP3 ADD PUSH1 0x1F NOT AND PUSH1 0x20 ADD DUP5 PUSH2 0x2FC1 JUMP JUMPDEST DUP3 MSTORE RETURNDATASIZE PUSH1 0x0 PUSH1 0x20 DUP5 ADD RETURNDATACOPY JUMP JUMPDEST PUSH1 0x60 SWAP1 JUMP JUMPDEST ISZERO PUSH2 0x33C0 JUMPI JUMP JUMPDEST PUSH1 0x40 MLOAD PUSH3 0x461BCD PUSH1 0xE5 SHL DUP2 MSTORE PUSH1 0x20 PUSH1 0x4 DUP3 ADD MSTORE PUSH1 0x13 PUSH1 0x24 DUP3 ADD MSTORE PUSH19 0x115512081D1C985B9CD9995C8819985A5B1959 PUSH1 0x6A SHL PUSH1 0x44 DUP3 ADD MSTORE PUSH1 0x64 SWAP1 REVERT JUMPDEST SWAP2 SWAP1 SWAP2 PUSH1 0x5 DUP2 LT ISZERO PUSH2 0x3F0 JUMPI DUP1 PUSH2 0x342D JUMPI POP PUSH2 0x32AA SWAP2 PUSH1 0x0 SWAP2 DUP3 SWAP2 DUP3 SWAP2 DUP3 SWAP2 PUSH1 0x1 PUSH1 0x1 PUSH1 0xA0 SHL SUB AND GAS CALL PUSH2 0x366 PUSH2 0x3379 JUMP JUMPDEST SWAP2 PUSH2 0x343A PUSH2 0x32AA SWAP4 PUSH2 0x2E57 JUMP JUMPDEST PUSH1 0x40 MLOAD PUSH2 0x3446 DUP2 PUSH2 0x2F50 JUMP JUMPDEST DUP2 SLOAD PUSH1 0x1 PUSH1 0x1 PUSH1 0xA0 SHL SUB DUP1 DUP3 AND DUP4 MSTORE SWAP3 PUSH1 0x2 SWAP2 PUSH1 0xFF SWAP1 PUSH2 0x346F PUSH1 0xA0 DUP3 SWAP1 SHR DUP4 AND PUSH1 0x20 DUP8 ADD PUSH2 0x2FE3 JUMP JUMPDEST DUP2 DUP2 PUSH1 0xA8 SHR AND PUSH1 0x40 DUP7 ADD MSTORE PUSH1 0xB0 SHR AND ISZERO ISZERO PUSH1 0x60 DUP5 ADD MSTORE PUSH1 0x1 DUP2 ADD SLOAD PUSH1 0x80 DUP5 ADD MSTORE ADD SLOAD PUSH1 0xA0 DUP3 ADD MSTORE MLOAD AND JUMPDEST PUSH1 0x40 MLOAD PUSH4 0xA9059CBB PUSH1 0xE0 SHL PUSH1 0x20 DUP3 ADD MSTORE PUSH1 0x1 PUSH1 0x1 PUSH1 0xA0 SHL SUB SWAP1 SWAP3 AND PUSH1 0x24 DUP4 ADD MSTORE PUSH1 0x44 DUP1 DUP4 ADD SWAP4 SWAP1 SWAP4 MSTORE SWAP2 DUP2 MSTORE PUSH1 0x80 DUP2 ADD SWAP2 PUSH8 0xFFFFFFFFFFFFFFFF DUP4 GT DUP3 DUP5 LT OR PUSH2 0xB0B JUMPI PUSH2 0x32AA SWAP3 PUSH1 0x40 MSTORE PUSH2 0x32AC JUMP JUMPDEST SWAP1 PUSH1 0x40 MLOAD SWAP2 DUP3 DUP2 SLOAD SWAP2 DUP3 DUP3 MSTORE PUSH1 0x20 SWAP3 DUP4 DUP4 ADD SWAP2 PUSH1 0x0 MSTORE DUP4 PUSH1 0x0 KECCAK256 SWAP4 PUSH1 0x0 SWAP1 JUMPDEST DUP3 DUP3 LT PUSH2 0x351E JUMPI POP POP POP PUSH2 0x32AA SWAP3 POP SUB DUP4 PUSH2 0x2FC1 JUMP JUMPDEST DUP6 SLOAD DUP5 MSTORE PUSH1 0x1 SWAP6 DUP7 ADD SWAP6 DUP9 SWAP6 POP SWAP4 DUP2 ADD SWAP4 SWAP1 SWAP2 ADD SWAP1 PUSH2 0x3508 JUMP JUMPDEST DUP1 MLOAD DUP3 LT ISZERO PUSH2 0x2EA1 JUMPI PUSH1 0x20 SWAP2 PUSH1 0x5 SHL ADD ADD SWAP1 JUMP INVALID LOG2 PUSH5 0x6970667358 0x22 SLT KECCAK256 DUP7 EXTCODECOPY PUSH13 0xE8E13A6B1DF88A75DA624742C2 0xEF 0xC8 0x4E CODECOPY PUSH31 0xE1F61E65E7B9B2A599694E64736F6C63430008140033000000000000000000 "},"methodIdentifiers":{"CLAIM_GRACE_PERIOD()":"2e2106af","INSURANCE_RATE()":"82626d6b","MAX_INTEREST_RATE()":"34855d14","MAX_LOAN_DURATION()":"0d0b2ca6","MIN_COLLATERAL_RATIO()":"7a9fffb7","MIN_LOAN_DURATION()":"89d99a05","addSupportedToken(uint8,address,uint8,uint256,uint256)":"2ffc204b","borrowerLoans(address,uint256)":"e3ed1902","calculateUSDValue(uint8,uint256)":"fe6993b8","claimInsurance(uint256)":"f85920d8","contributeToInsurancePool(uint8,uint256)":"b0b3ca47","fundLoan(uint256,uint256)":"f4512bb6","getActiveLoanRequests()":"9772d7ee","getBorrowerLoans(address)":"eee8b7ff","getInsurancePoolBalance(uint8)":"b59d17ab","getInsuranceStatus(uint256,address)":"00b752ca","getLenderLoans(address)":"eeeb0c17","getLoan(uint256)":"504006ca","getSupportedToken(uint8)":"d42c4c53","getTokenPrice(uint8)":"d89e8c1c","getTokenPriceInfo(uint8)":"c7fc1325","hasClaimedInsurance(uint256,address)":"626066cc","insurancePools(uint8)":"1988a684","lenderInsuranceContributions(address)":"18fa96de","lenderLoans(address,uint256)":"3cdb72f1","lenderPositions(uint256,address)":"ad8d0138","loans(uint256)":"e1ec3c68","nextLoanId()":"87c51459","owner()":"8da5cb5b","priceOracles(address)":"01374518","renounceOwnership()":"715018a6","repayLoan(uint256)":"ab7b1c89","requestLoan(uint256,uint8,uint8,uint256,uint256,uint256,bool,bool)":"f498c9cc","setPriceOracle(address,bool)":"858a9ea0","supportedTokens(uint8)":"3f572d36","tokenPrices(uint8)":"deceafa7","transferOwnership(address)":"f2fde38b","updateTokenPrice(uint8,uint256,uint256)":"4dd9cccc"}}}}}