{"contracts/LoanVerseV3.sol":{"LoanVerseV3":{"abi":[{"inputs":[],"stateMutability":"nonpayable","type":"constructor"},{"inputs":[],"name":"EnforcedPause","type":"error"},{"inputs":[],"name":"ExpectedPause","type":"error"},{"inputs":[{"internalType":"address","name":"owner","type":"address"}],"name":"OwnableInvalidOwner","type":"error"},{"inputs":[{"internalType":"address","name":"account","type":"address"}],"name":"OwnableUnauthorizedAccount","type":"error"},{"inputs":[],"name":"ReentrancyGuardReentrantCall","type":"error"},{"inputs":[{"internalType":"address","name":"token","type":"address"}],"name":"SafeERC20FailedOperation","type":"error"},{"anonymous":false,"inputs":[{"indexed":true,"internalType":"uint256","name":"auctionId","type":"uint256"},{"indexed":true,"internalType":"address","name":"winner","type":"address"},{"indexed":false,"internalType":"uint256","name":"finalPrice","type":"uint256"}],"name":"AuctionFinalized","type":"event"},{"anonymous":false,"inputs":[{"indexed":true,"internalType":"uint256","name":"auctionId","type":"uint256"},{"indexed":true,"internalType":"uint256","name":"loanId","type":"uint256"},{"indexed":false,"internalType":"uint256","name":"startingPrice","type":"uint256"},{"indexed":false,"internalType":"uint256","name":"endTime","type":"uint256"}],"name":"AuctionStarted","type":"event"},{"anonymous":false,"inputs":[{"indexed":true,"internalType":"uint256","name":"auctionId","type":"uint256"},{"indexed":true,"internalType":"address","name":"bidder","type":"address"},{"indexed":false,"internalType":"uint256","name":"amount","type":"uint256"}],"name":"BidPlaced","type":"event"},{"anonymous":false,"inputs":[{"indexed":true,"internalType":"uint256","name":"loanId","type":"uint256"},{"indexed":false,"internalType":"uint256","name":"amount","type":"uint256"}],"name":"CollateralClaimed","type":"event"},{"anonymous":false,"inputs":[{"indexed":true,"internalType":"address","name":"borrower","type":"address"},{"indexed":false,"internalType":"uint256","name":"newScore","type":"uint256"}],"name":"CreditScoreUpdated","type":"event"},{"anonymous":false,"inputs":[{"indexed":true,"internalType":"uint256","name":"tokenId","type":"uint256"},{"indexed":false,"internalType":"uint256","name":"newRate","type":"uint256"}],"name":"InterestRateUpdated","type":"event"},{"anonymous":false,"inputs":[{"indexed":true,"internalType":"uint256","name":"loanId","type":"uint256"},{"indexed":false,"internalType":"uint256","name":"currentRatio","type":"uint256"},{"indexed":false,"internalType":"uint256","name":"threshold","type":"uint256"}],"name":"LiquidationTriggered","type":"event"},{"anonymous":false,"inputs":[{"indexed":true,"internalType":"uint256","name":"loanId","type":"uint256"}],"name":"LoanCancelled","type":"event"},{"anonymous":false,"inputs":[{"indexed":true,"internalType":"uint256","name":"loanId","type":"uint256"}],"name":"LoanDefaulted","type":"event"},{"anonymous":false,"inputs":[{"indexed":true,"internalType":"uint256","name":"loanId","type":"uint256"},{"indexed":true,"internalType":"address","name":"lender","type":"address"}],"name":"LoanFunded","type":"event"},{"anonymous":false,"inputs":[{"indexed":true,"internalType":"uint256","name":"loanId","type":"uint256"},{"indexed":false,"internalType":"uint256","name":"repaidAmount","type":"uint256"}],"name":"LoanRepaid","type":"event"},{"anonymous":false,"inputs":[{"indexed":true,"internalType":"uint256","name":"loanId","type":"uint256"},{"indexed":true,"internalType":"address","name":"borrower","type":"address"},{"indexed":true,"internalType":"uint256","name":"tokenId","type":"uint256"},{"indexed":false,"internalType":"uint256","name":"amount","type":"uint256"},{"indexed":false,"internalType":"uint256","name":"collateralAmount","type":"uint256"},{"indexed":false,"internalType":"uint256","name":"interestRate","type":"uint256"},{"indexed":false,"internalType":"uint256","name":"duration","type":"uint256"},{"indexed":false,"internalType":"string","name":"ipfsHash","type":"string"}],"name":"LoanRequested","type":"event"},{"anonymous":false,"inputs":[{"indexed":true,"internalType":"address","name":"previousOwner","type":"address"},{"indexed":true,"internalType":"address","name":"newOwner","type":"address"}],"name":"OwnershipTransferred","type":"event"},{"anonymous":false,"inputs":[{"indexed":false,"internalType":"address","name":"account","type":"address"}],"name":"Paused","type":"event"},{"anonymous":false,"inputs":[{"indexed":true,"internalType":"uint256","name":"loanId","type":"uint256"},{"indexed":false,"internalType":"uint256","name":"riskScore","type":"uint256"}],"name":"RiskScoreUpdated","type":"event"},{"anonymous":false,"inputs":[{"indexed":true,"internalType":"uint256","name":"tokenId","type":"uint256"},{"indexed":true,"internalType":"address","name":"contractAddress","type":"address"},{"indexed":false,"internalType":"string","name":"symbol","type":"string"},{"indexed":false,"internalType":"address","name":"priceFeed","type":"address"}],"name":"TokenAdded","type":"event"},{"anonymous":false,"inputs":[{"indexed":true,"internalType":"uint256","name":"tokenId","type":"uint256"}],"name":"TokenDeactivated","type":"event"},{"anonymous":false,"inputs":[{"indexed":false,"internalType":"address","name":"account","type":"address"}],"name":"Unpaused","type":"event"},{"inputs":[],"name":"AUCTION_DURATION","outputs":[{"internalType":"uint256","name":"","type":"uint256"}],"stateMutability":"view","type":"function"},{"inputs":[],"name":"LIQUIDATION_THRESHOLD","outputs":[{"internalType":"uint256","name":"","type":"uint256"}],"stateMutability":"view","type":"function"},{"inputs":[],"name":"MAX_INTEREST_RATE","outputs":[{"internalType":"uint256","name":"","type":"uint256"}],"stateMutability":"view","type":"function"},{"inputs":[],"name":"MAX_LOAN_DURATION","outputs":[{"internalType":"uint256","name":"","type":"uint256"}],"stateMutability":"view","type":"function"},{"inputs":[],"name":"MIN_COLLATERAL_RATIO","outputs":[{"internalType":"uint256","name":"","type":"uint256"}],"stateMutability":"view","type":"function"},{"inputs":[],"name":"MIN_CREDIT_SCORE","outputs":[{"internalType":"uint256","name":"","type":"uint256"}],"stateMutability":"view","type":"function"},{"inputs":[],"name":"MIN_LOAN_DURATION","outputs":[{"internalType":"uint256","name":"","type":"uint256"}],"stateMutability":"view","type":"function"},{"inputs":[],"name":"PRICE_STALENESS_THRESHOLD","outputs":[{"internalType":"uint256","name":"","type":"uint256"}],"stateMutability":"view","type":"function"},{"inputs":[{"internalType":"address","name":"_contractAddress","type":"address"},{"internalType":"string","name":"_symbol","type":"string"},{"internalType":"uint8","name":"_decimals","type":"uint8"},{"internalType":"address","name":"_priceFeedAddress","type":"address"}],"name":"addSupportedToken","outputs":[],"stateMutability":"nonpayable","type":"function"},{"inputs":[{"internalType":"address","name":"","type":"address"}],"name":"authorizedRiskOracles","outputs":[{"internalType":"bool","name":"","type":"bool"}],"stateMutability":"view","type":"function"},{"inputs":[],"name":"baseInterestRate","outputs":[{"internalType":"uint256","name":"","type":"uint256"}],"stateMutability":"view","type":"function"},{"inputs":[{"internalType":"address","name":"","type":"address"},{"internalType":"uint256","name":"","type":"uint256"}],"name":"borrowerLoans","outputs":[{"internalType":"uint256","name":"","type":"uint256"}],"stateMutability":"view","type":"function"},{"inputs":[{"internalType":"uint256","name":"_tokenId","type":"uint256"}],"name":"calculateDynamicRate","outputs":[{"internalType":"uint256","name":"","type":"uint256"}],"stateMutability":"view","type":"function"},{"inputs":[{"internalType":"uint256","name":"_tokenId","type":"uint256"},{"internalType":"uint256","name":"_amount","type":"uint256"}],"name":"calculateUSDValue","outputs":[{"internalType":"uint256","name":"","type":"uint256"}],"stateMutability":"view","type":"function"},{"inputs":[],"name":"collectedFees","outputs":[{"internalType":"uint256","name":"","type":"uint256"}],"stateMutability":"view","type":"function"},{"inputs":[{"internalType":"address","name":"","type":"address"}],"name":"creditScores","outputs":[{"internalType":"uint256","name":"score","type":"uint256"},{"internalType":"uint256","name":"totalLoansCount","type":"uint256"},{"internalType":"uint256","name":"repaidLoansCount","type":"uint256"},{"internalType":"uint256","name":"defaultedLoansCount","type":"uint256"},{"internalType":"uint256","name":"totalBorrowed","type":"uint256"},{"internalType":"uint256","name":"totalRepaid","type":"uint256"},{"internalType":"uint256","name":"lastUpdated","type":"uint256"}],"stateMutability":"view","type":"function"},{"inputs":[],"name":"feeRecipient","outputs":[{"internalType":"address","name":"","type":"address"}],"stateMutability":"view","type":"function"},{"inputs":[{"internalType":"uint256","name":"_auctionId","type":"uint256"}],"name":"finalizeAuction","outputs":[],"stateMutability":"nonpayable","type":"function"},{"inputs":[{"internalType":"uint256","name":"_loanId","type":"uint256"}],"name":"fundLoan","outputs":[],"stateMutability":"payable","type":"function"},{"inputs":[],"name":"getActiveLoanRequests","outputs":[{"internalType":"uint256[]","name":"","type":"uint256[]"}],"stateMutability":"view","type":"function"},{"inputs":[{"internalType":"uint256","name":"_tokenId","type":"uint256"}],"name":"getLatestPrice","outputs":[{"internalType":"uint256","name":"","type":"uint256"},{"internalType":"uint256","name":"","type":"uint256"}],"stateMutability":"view","type":"function"},{"inputs":[],"name":"getLoansEligibleForLiquidation","outputs":[{"internalType":"uint256[]","name":"","type":"uint256[]"}],"stateMutability":"view","type":"function"},{"inputs":[{"internalType":"uint256","name":"_loanId","type":"uint256"}],"name":"isLoanUnderwater","outputs":[{"internalType":"bool","name":"","type":"bool"},{"internalType":"uint256","name":"","type":"uint256"}],"stateMutability":"view","type":"function"},{"inputs":[{"internalType":"address","name":"","type":"address"},{"internalType":"uint256","name":"","type":"uint256"}],"name":"lenderLoans","outputs":[{"internalType":"uint256","name":"","type":"uint256"}],"stateMutability":"view","type":"function"},{"inputs":[{"internalType":"uint256","name":"_loanId","type":"uint256"}],"name":"liquidateLoan","outputs":[],"stateMutability":"nonpayable","type":"function"},{"inputs":[{"internalType":"uint256","name":"","type":"uint256"}],"name":"liquidationAuctions","outputs":[{"internalType":"uint256","name":"loanId","type":"uint256"},{"internalType":"uint256","name":"startTime","type":"uint256"},{"internalType":"uint256","name":"endTime","type":"uint256"},{"internalType":"uint256","name":"startingPrice","type":"uint256"},{"internalType":"uint256","name":"reservePrice","type":"uint256"},{"internalType":"address","name":"highestBidder","type":"address"},{"internalType":"uint256","name":"highestBid","type":"uint256"},{"internalType":"bool","name":"active","type":"bool"}],"stateMutability":"view","type":"function"},{"inputs":[],"name":"liquidationFeeRate","outputs":[{"internalType":"uint256","name":"","type":"uint256"}],"stateMutability":"view","type":"function"},{"inputs":[{"internalType":"uint256","name":"","type":"uint256"}],"name":"loans","outputs":[{"internalType":"uint256","name":"id","type":"uint256"},{"internalType":"address","name":"borrower","type":"address"},{"internalType":"address","name":"lender","type":"address"},{"internalType":"uint256","name":"tokenId","type":"uint256"},{"internalType":"uint256","name":"collateralTokenId","type":"uint256"},{"internalType":"uint256","name":"amount","type":"uint256"},{"internalType":"uint256","name":"collateralAmount","type":"uint256"},{"internalType":"uint256","name":"interestRate","type":"uint256"},{"internalType":"uint256","name":"duration","type":"uint256"},{"internalType":"uint256","name":"createdAt","type":"uint256"},{"internalType":"uint256","name":"fundedAt","type":"uint256"},{"internalType":"uint256","name":"dueDate","type":"uint256"},{"internalType":"enum LoanVerseV3.LoanStatus","name":"status","type":"uint8"},{"internalType":"string","name":"ipfsDocumentHash","type":"string"},{"internalType":"uint256","name":"riskScore","type":"uint256"},{"internalType":"bool","name":"collateralClaimed","type":"bool"},{"internalType":"uint256","name":"liquidationThreshold","type":"uint256"},{"internalType":"uint256","name":"lastHealthCheck","type":"uint256"}],"stateMutability":"view","type":"function"},{"inputs":[],"name":"nextAuctionId","outputs":[{"internalType":"uint256","name":"","type":"uint256"}],"stateMutability":"view","type":"function"},{"inputs":[],"name":"nextLoanId","outputs":[{"internalType":"uint256","name":"","type":"uint256"}],"stateMutability":"view","type":"function"},{"inputs":[],"name":"nextTokenId","outputs":[{"internalType":"uint256","name":"","type":"uint256"}],"stateMutability":"view","type":"function"},{"inputs":[],"name":"owner","outputs":[{"internalType":"address","name":"","type":"address"}],"stateMutability":"view","type":"function"},{"inputs":[],"name":"pause","outputs":[],"stateMutability":"nonpayable","type":"function"},{"inputs":[],"name":"paused","outputs":[{"internalType":"bool","name":"","type":"bool"}],"stateMutability":"view","type":"function"},{"inputs":[{"internalType":"uint256","name":"_auctionId","type":"uint256"}],"name":"placeBid","outputs":[],"stateMutability":"payable","type":"function"},{"inputs":[],"name":"protocolFeeRate","outputs":[{"internalType":"uint256","name":"","type":"uint256"}],"stateMutability":"view","type":"function"},{"inputs":[],"name":"rateSlope1","outputs":[{"internalType":"uint256","name":"","type":"uint256"}],"stateMutability":"view","type":"function"},{"inputs":[],"name":"rateSlope2","outputs":[{"internalType":"uint256","name":"","type":"uint256"}],"stateMutability":"view","type":"function"},{"inputs":[],"name":"renounceOwnership","outputs":[],"stateMutability":"nonpayable","type":"function"},{"inputs":[{"internalType":"uint256","name":"_loanId","type":"uint256"}],"name":"repayLoan","outputs":[],"stateMutability":"payable","type":"function"},{"inputs":[{"internalType":"uint256","name":"_tokenId","type":"uint256"},{"internalType":"uint256","name":"_collateralTokenId","type":"uint256"},{"internalType":"uint256","name":"_amount","type":"uint256"},{"internalType":"uint256","name":"_maxInterestRate","type":"uint256"},{"internalType":"uint256","name":"_duration","type":"uint256"},{"internalType":"string","name":"_ipfsDocumentHash","type":"string"}],"name":"requestLoan","outputs":[],"stateMutability":"payable","type":"function"},{"inputs":[{"internalType":"uint256","name":"","type":"uint256"}],"name":"supportedTokens","outputs":[{"internalType":"enum LoanVerseV3.TokenType","name":"tokenType","type":"uint8"},{"internalType":"address","name":"contractAddress","type":"address"},{"internalType":"string","name":"symbol","type":"string"},{"internalType":"uint8","name":"decimals","type":"uint8"},{"internalType":"bool","name":"isActive","type":"bool"},{"internalType":"contract AggregatorV3Interface","name":"priceFeed","type":"address"}],"stateMutability":"view","type":"function"},{"inputs":[{"internalType":"uint256","name":"","type":"uint256"}],"name":"tokenUtilization","outputs":[{"internalType":"uint256","name":"","type":"uint256"}],"stateMutability":"view","type":"function"},{"inputs":[{"internalType":"address","name":"newOwner","type":"address"}],"name":"transferOwnership","outputs":[],"stateMutability":"nonpayable","type":"function"},{"inputs":[],"name":"unpause","outputs":[],"stateMutability":"nonpayable","type":"function"},{"inputs":[{"internalType":"uint256","name":"_baseRate","type":"uint256"},{"internalType":"uint256","name":"_utilizationOptimal","type":"uint256"},{"internalType":"uint256","name":"_rateSlope1","type":"uint256"},{"internalType":"uint256","name":"_rateSlope2","type":"uint256"}],"name":"updateDynamicRateParams","outputs":[],"stateMutability":"nonpayable","type":"function"},{"inputs":[{"internalType":"uint256","name":"_liquidationFeeRate","type":"uint256"},{"internalType":"uint256","name":"_auctionDuration","type":"uint256"}],"name":"updateLiquidationParams","outputs":[],"stateMutability":"nonpayable","type":"function"},{"inputs":[{"internalType":"uint256","name":"_tokenId","type":"uint256"},{"internalType":"address","name":"_priceFeedAddress","type":"address"}],"name":"updatePriceFeed","outputs":[],"stateMutability":"nonpayable","type":"function"},{"inputs":[],"name":"utilizationOptimal","outputs":[{"internalType":"uint256","name":"","type":"uint256"}],"stateMutability":"view","type":"function"},{"inputs":[],"name":"withdrawFees","outputs":[],"stateMutability":"nonpayable","type":"function"}],"evm":{"bytecode":{"linkReferences":{},"object":"6080604090808252346200033e5760019060009082825533156200032a57508154336001600160a01b03198083168217855592916001600160a01b03167f8be0079c531659141344cd1fd0a4f28419497f9722a3daafe3b4186f6b6457e08380a3600283905560038390556004838155603260055561012c6006556101f4600955611f40600a55610190600b55611770600c5560078054909316331790925583516001600160401b03919060c081018381118282101762000317578652818152602094858201938385528751918883018381108382111762000304578952600383526208aa8960eb1b88840152888401928352606084019760128952608085019782895260a0860197878952878052600e83528b88209651906002821015620002f15760ff885491610100600160a81b03905160081b1692169060018060a81b031916171786558286019451908151948511620002de578554908482811c92168015620002d3575b84831014620002c05750601f811162000275575b5081601f85116001146200020457509280928192600297969560ff9994620001f8575b50501b916000199060031b1c19161790555b945194018054935192516001600160b01b0319909416919094161790151560081b61ff00161760109190911b62010000600160b01b0316179055516138209081620003448239f35b0151925038806200019e565b858852808820969795969395601f198616915b8282106200025d5750509160ff979593918560029896941062000243575b505050811b019055620001b0565b015160001960f88460031b161c1916905538808062000235565b80888697829497870151815501960194019062000217565b858852828820601f860160051c810191848710620002b5575b601f0160051c019084905b828110620002a95750506200017b565b89815501849062000299565b90915081906200028e565b634e487b7160e01b895260229052602488fd5b91607f169162000167565b634e487b7160e01b885260419052602487fd5b634e487b7160e01b895260218352602489fd5b634e487b7160e01b865260418852602486fd5b634e487b7160e01b835260418552602483fd5b602491631e4fbdf760e01b82526004820152fd5b600080fdfe61010080604052600436101561001457600080fd5b60003560e01c9081630a49cf4d14612b09575080630d0b2ca614612aea578063119328d614612ad15780631eedf5c714612ab357806334855d1414612a9657806335f7828314612a785780633cdb72f114612a2e5780633f4ba83a146129bc5780634690484014612993578063476343ee146129145780635003e25a146128e85780635454a4b6146128ca57806358f85880146128ac5780635c211efc1461253e5780635c975abb146125185780635fb3b1b5146124fa5780636eef1154146124bb578063715018a61461245e57806375794a3c14612440578063781c9923146124145780637a9fffb7146123f857806380bb72731461237d578063844186f1146123575780638456cb59146122f5578063846b909a1461200e57806387c5145914611ff057806389d99a0514611d1e5780638da5cb5b14611fc75780639003adfe14611fa957806390a8ae9b14611f8d5780639772d7ee14611ed25780639979ef4514611d23578063a271e52514611d1e578063a5a2a5dd14611ca1578063ab7b1c891461188b578063acfc827e146117cc578063afd92762146117ae578063b891ba44146116cb578063b94fe917146116a1578063c625562614611608578063ccdd9f5d1461133e578063da69dd5914610af4578063e1ec3c681461099e578063e3ed190214610946578063e4df2f3b14610882578063e808386314610395578063f25b9caa14610378578063f2fde38b146102ef578063f8fa3ea7146102695763fc5284821461024657600080fd5b34610264576000366003190112610264576020600454604051908152f35b600080fd5b3461026457602036600319011261026457600435600052601360205261010060406000208054906001810154906002810154600382015460048301549060018060a01b036005850154169260ff600760068701549601541695604051978852602088015260408701526060860152608085015260a084015260c0830152151560e0820152f35b3461026457602036600319011261026457610308612b3a565b610310612db5565b6001600160a01b0390811690811561035f57600154826001600160601b0360a01b821617600155167f8be0079c531659141344cd1fd0a4f28419497f9722a3daafe3b4186f6b6457e0600080a3005b604051631e4fbdf760e01b815260006004820152602490fd5b34610264576000366003190112610264576020604051610e108152f35b3461026457602080600319360112610264576004356103b26135a1565b8060005260138252604060002090600782018054906103d360ff83166135f4565b60028401544211156108455760ff19918216905582546000908152600d85526040902060058401805491936001600160a01b0393919290919084161561082657600c85016003828254161790556001600f860191825416179055600384015491600585015461044281856130a1565b50610460612710918261045960078a01548361305d565b04906133b1565b9360068801948554926104756006548561305d565b04928082101561081e5750905b600052600e895260ff60406000205416600281101561074757156107c5575b906104bf6104c4926104b5836008546133b1565b6008558654612e55565b612e55565b8061075d575b50600485015480600052600e885260ff60406000205416600281101561074757889186916106fb5750600080809350809285541660068a0154905af161050e6135c4565b50156106b65786847f4d9113a1377d665eaa1f9168a9c9080f2e488cb820b10149de3d6d2e0f2780c7925b54169354604051908152a35b6001600583015492600381019384546000526014875261056b6040600020918254612e55565b905501541691826000526011845260406000209260018401610593815480156106ac57612ded565b9055426006850155600384016105a98154612ded565b905583549385603286111561066f5750603119850194851161065957857f79c012a0cfae660e09134956bc432c8497ec80e86a3a108d130e8b3fca52b3ad916000805160206137cb8339815191529661012c9081811060001461065257505b80915b55604051908152a2547f0789b7097e8066538cfaa1132488b132e14ba5f0c938c8b7aaf8cf40356aab0b600080a25491610644836133be565b604051908152a26001600055005b9050610608565b634e487b7160e01b600052601160045260246000fd5b6000805160206137cb83398151915295507f79c012a0cfae660e09134956bc432c8497ec80e86a3a108d130e8b3fca52b3ad9161012c809161060b565b61023f8755612ded565b60405162461bcd60e51b815260048101889052601a60248201527f436f6c6c61746572616c207472616e73666572206661696c65640000000000006044820152606490fd5b927f4d9113a1377d665eaa1f9168a9c9080f2e488cb820b10149de3d6d2e0f2780c793600052600e83526107428260406000205460081c168383541660068b015491613635565b610539565b634e487b7160e01b600052602160045260246000fd5b6000808080938860018b0154165af16107746135c4565b501561078057876104ca565b60405162461bcd60e51b815260048101889052601760248201527f426f72726f776572207061796d656e74206661696c65640000000000000000006044820152606490fd5b6000808080848a60028d0154165af16107dc6135c4565b506104a15760405162461bcd60e51b8152600481018a9052601560248201527413195b99195c881c185e5b595b9d0819985a5b1959605a1b6044820152606490fd5b905090610482565b9150506003600c8401918254161790556108408354613685565b610545565b60405162461bcd60e51b815260048101869052601560248201527441756374696f6e207374696c6c206f6e676f696e6760581b6044820152606490fd5b34610264576080366003190112610264576024356004356108a1612db5565b6127108211610901576107d081116108c757600955600a55604435600b55606435600c55005b60405162461bcd60e51b8152602060048201526012602482015271084c2e6ca40e4c2e8ca40e8dede40d0d2ced60731b6044820152606490fd5b60405162461bcd60e51b815260206004820152601b60248201527f496e76616c6964206f7074696d616c207574696c697a6174696f6e00000000006044820152606490fd5b346102645760403660031901126102645761095f612b3a565b6001600160a01b03166000908152600f60205260409020805460243591908210156102645760209161099091612b50565b90546040519160031b1c8152f35b3461026457602036600319011261026457600435600052600d6020526040600020805460018060a01b03806001840154166080526002830154169160038101546004820154600583015460068401546007850154600886015490600987015492600a88015494600b8901549660ff600c8b01541698610a1f600d8c01612ccf565b60e052600e8b015460a05260ff600f8c0154169c601160108d01549c01549c6040518060c05252608051602060c0510152604060c0510152606060c0510152608060c051015260a060c051015260c08051015260e060c051015261010060c051015261012060c051015261014060c051015261016060c051015260068110156107475761018060c0510152610ac5610240806101a060c051015260c0510160e051612d75565b9260a0516101c060c051015215156101e060c051015261020060c051015261022060c051015260c05180910390f35b60c03660031901126102645760a43567ffffffffffffffff811161026457610b20903690600401612bf5565b610b286135a1565b610b30613580565b604435156112f957620151806084351015806112e9575b610b5090613456565b600435600052600e602052610b7260ff60026040600020015460081c16612dfc565b602435600052600e60205260ff60026040600020015460081c16156112a45780511561126a57336000526011602052604060002061012c8154109081159161125d575b501561122157610bc66004356133be565b9060643582116111e357610bde6044356004356130a1565b8060968102046096148115171561065957610c9890610c93610c01602435612e62565b5091602435600052600e60205260646096610c8b6040600020600260405191610c2983612b7e565b8054610c3860ff821685612de1565b60081c6001600160a01b03166020840152610c5560018201612ccf565b604084015201549060a060ff83169283606084015260ff8160081c1615156080840152600180831b039060101c16910152613070565b92020461305d565b613081565b602435600052600e60205260ff604060002054166002811015610747576110a657803410611061575b60025490610cce82612ded565b600255602435600052600e60205260ff6040600020541660028110156107475761105c5750345b60405190610d0282612b9a565b828252336020830152600060408301526004356060830152602435608083015260443560a083015260c08201528360e082015260843561010082015242610120820152600061014082015260006101608201526000610180820152826101a082015260006101c082015260006101e082015260786102008201524261022082015281600052600d602052604060002090805182556001820160018060a01b03602083015116906001600160601b0360a01b9182825416179055600283019060018060a01b0360408401511690825416179055606081015160038301556080810151600483015560a0810151600583015560c0810151600683015560e0810151600783015561010081015160088301556101208101516009830155610140810151600a830155610160810151600b830155600c820161018082015160068110156107475760ff801983541691161790556101a081015180519067ffffffffffffffff821161104657610e76600d850154612c95565b601f8111610fff575b50602090601f8311600114610f895791806011949261022094600092610f7e575b50508160011b916000199060031b1c191617600d8501555b6101c0810151600e850155610ee36101e08201511515600f86019060ff801983541691151516179055565b6102008101516010850155015191015533600052600f602052610f0a816040600020613495565b80600052600d6020526006604060002001549260405193604435855260208501526040840152608435606084015260a060808401527f05cb01012dbded0c72d8576b4aef55d60d8e2824466ac6f54f7822cc1ddb6af36004359380610f74339560a0830190612d75565b0390a46001600055005b015190508980610ea0565b90600d850160005260206000209160005b601f1985168110610fe7575092601194926001926102209583601f19811610610fce575b505050811b01600d850155610eb8565b015160001960f88460031b161c19169055898080610fbe565b91926020600181928685015181550194019201610f9a565b600d85016000526020600020601f840160051c81016020851061103f575b601f830160051c82018110611033575050610e7f565b6000815560010161101d565b508061101d565b634e487b7160e01b600052604160045260246000fd5b610cf5565b60405162461bcd60e51b815260206004820152601b60248201527f496e73756666696369656e742045544820636f6c6c61746572616c00000000006044820152606490fd5b3461119257602435600052600e60205260018060a01b0360406000205460081c166040516370a0823160e01b8152336004820152602081602481855afa8015611186578391600091611151575b501061110c578161110791309033906134cf565b610cc1565b60405162461bcd60e51b815260206004820152601a60248201527f496e73756666696369656e742045524332302062616c616e63650000000000006044820152606490fd5b9150506020813d60201161117e575b8161116d60209383612bb7565b8101031261026457829051866110f3565b3d9150611160565b6040513d6000823e3d90fd5b60405162461bcd60e51b815260206004820152602360248201527f455448206e6f74206e656564656420666f7220455243323020636f6c6c6174656044820152621c985b60ea1b6064820152608490fd5b60405162461bcd60e51b8152602060048201526016602482015275092dce8cae4cae6e840e4c2e8ca40e8dede40d0d2ced60531b6044820152606490fd5b60405162461bcd60e51b81526020600482015260146024820152734372656469742073636f726520746f6f206c6f7760601b6044820152606490fd5b6001915001541582610bb5565b60405162461bcd60e51b815260206004820152601260248201527112541194c81a185cda081c995c5d5a5c995960721b6044820152606490fd5b60405162461bcd60e51b815260206004820152601e60248201527f436f6c6c61746572616c20746f6b656e206e6f7420737570706f7274656400006044820152606490fd5b506301e133806084351115610b47565b60405162461bcd60e51b815260206004820152601d60248201527f416d6f756e74206d7573742062652067726561746572207468616e20300000006044820152606490fd5b3461026457602080600319360112610264576004359061135c6135a1565b61136582613203565b9190156115cb5782600052600d8152604060002091600c8301600560ff198254161790556040519161139683612b9a565b8354835260018060a01b0393846001820154168285015284600282015416604085015260038101546060850152611477600482015460808601908152600583015460a087015260068301549060c08701918252600784015460e088015260088401549661010097888201526009850154610120820152600a850154610140820152600b8501546101608201526005610180820152611436600d8601612ccf565b6101a0820152600e8501546101c082015260ff600f8601541615156101e08201526102206011601087019687546102008501520154910152519051906130a1565b936050850285810460501486151715610659576004549061149782612ded565b60045562015180420197884211610659576040519384019784891067ffffffffffffffff8a1117611046577f7c37bb4475912066c94a3f055866bdadcf52198b65cb65aba2f5be08dfeb575d996115af8c966007878b7fa832766a05f1bd0298b0268308621777cfe1e4eea23afe7c06beea79bc6ddd2d9860409f986040998a528c8652828601914283528a870189815260608801908b8252606460808a019304835260a089019460008652601360c08b01976000895260e08c019960018b52600052528d60002099518a555160018a0155516002890155516003880155516004870155600586019151166001600160601b0360a01b82541617905551600684015551151591019060ff801983541691151516179055565b825191825287820152a354908351928352820152a26001600055005b6064906040519062461bcd60e51b8252600482015260166024820152752637b0b71034b9903737ba103ab73232b93bb0ba32b960511b6044820152fd5b3461026457602036600319011261026457600435600052600e602052604060002080549060ff821691600261163f60018401612ccf565b9201549060405193600281101561074757845260081c6001600160a01b03908116602085015260c060408501819052849361167c91850190612d75565b9160ff8116606085015260ff8160081c161515608085015260101c1660a08301520390f35b346102645760203660031901126102645760406116bf600435612e62565b82519182526020820152f35b34610264576000366003190112610264576002546000198101818111610659576116f490613784565b90600090600190815b8181106117515750505061171081613784565b9160005b82811061172d57604051806117298682612c5a565b0390f35b8061173b61174c92846137b6565b5161174682876137b6565b52612ded565b611714565b80600052600d60205260ff600c60406000200154166006811015610747578314611784575b61177f90612ded565b6116fd565b61178d81613203565b501561177657926117a6818561174661177f94896137b6565b939050611776565b34610264576000366003190112610264576020600954604051908152f35b34610264576040366003190112610264576004356024356001600160a01b03811690819003610264576117fd612db5565b81600052600e60205260ff60026040600020015460081c1615611853576000918252600e6020526040909120600201805462010000600160b01b03191660109290921b62010000600160b01b0316919091179055005b60405162461bcd60e51b815260206004820152601060248201526f546f6b656e206e6f742061637469766560801b6044820152606490fd5b602080600319360112610264576004356118a36135a1565b80600052600d8252604060002090600182019060018060a01b03808354163303611c5c57600c84019283549460ff861660068110156107475760016118e891146131c5565b600b8101544211611c285760058101908154916127109660026119378961191360078701548861305d565b04996119216005548c61305d565b04996119318b6104bf838a6133b1565b966133b1565b9960ff191617905561194b876008546133b1565b60085554956003820196875460005260148a5261196e6040600020918254612e55565b9055865480600052600e8a5260ff60406000205416600281101561074757611b85575050863410611b4757600080809386600283950154165af16119b06135c4565b5015611b0257843411611aa7575b6119c783613685565b5416928360005260118552604060002090600182016119ec81548015611a9d57612ded565b905542600683015560028201611a028154612ded565b9055815490600a8201809211610659576000805160206137cb833981519152957f79c012a0cfae660e09134956bc432c8497ec80e86a3a108d130e8b3fca52b3ad887f040cee90ee4799897c30ca04e5feb6fa43dbba9b6d084b4b257cdafd84ba013e95819561035290818111600014611a94575080915b55604051908152a2604051908152a25491610644836133be565b90508091611a7a565b61023f8555612ded565b6000808080611ab68934612e55565b335af1611ac16135c4565b506119be5760405162461bcd60e51b8152600481018790526014602482015273115e18d95cdcc81c995d1d5c9b8819985a5b195960621b6044820152606490fd5b60405162461bcd60e51b815260048101879052601960248201527f5472616e7366657220746f206c656e646572206661696c6564000000000000006044820152606490fd5b60405162461bcd60e51b8152600481018990526016602482015275125b9cdd59999a58da595b9d081c995c185e5b595b9d60521b6044820152606490fd5b9290919234611bd85790611bb391600052600e8a528560028160406000205460081c169501541633856134cf565b80611bc0575b50506119be565b611bd19184600754169033906134cf565b8680611bb9565b60405162461bcd60e51b8152600481018b9052602260248201527f455448206e6f74206e656564656420666f722045524332302072657061796d656044820152611b9d60f21b6064820152608490fd5b60405162461bcd60e51b815260048101889052600c60248201526b131bd85b88195e1c1a5c995960a21b6044820152606490fd5b60405162461bcd60e51b815260048101869052601760248201527f4f6e6c7920626f72726f7765722063616e2072657061790000000000000000006044820152606490fd5b3461026457611caf36612b24565b611cb7612db5565b6103e88211611cea5780610e10611cd79210159081611cdc575b50613456565b600655005b62093a809150111583611cd1565b60405162461bcd60e51b815260206004820152600c60248201526b08ccaca40e8dede40d0d2ced60a31b6044820152606490fd5b612c3c565b60208060031936011261026457600435611d3b6135a1565b80600052601382526040600020611d5860ff6007830154166135f4565b60028101544211611e9d57600681019081549081341115611e6a5760048101543410611e315760050180549091906001600160a01b031680611dde575b5050336001600160601b0360a01b8254161790553490557f0e54eff26401bf69b81b26f60bd85ef47f5d85275c1d268d84f68d6897431c47604051923484523393a36001600055005b600080809381935af1611def6135c4565b5015611dfc578480611d95565b60405162461bcd60e51b815260048101859052600d60248201526c1499599d5b990819985a5b1959609a1b6044820152606490fd5b60405162461bcd60e51b81526004810186905260116024820152704269642062656c6f77207265736572766560781b6044820152606490fd5b60405162461bcd60e51b815260048101869052600b60248201526a42696420746f6f206c6f7760a81b6044820152606490fd5b60405162461bcd60e51b815260048101849052600d60248201526c105d58dd1a5bdb88195b991959609a1b6044820152606490fd5b3461026457600036600319011261026457600254600019810181811161065957611efb90613784565b9060009060015b818110611f40575050611f1481613784565b9160005b828110611f2d57604051806117298682612c5a565b8061173b611f3b92846137b6565b611f18565b80600052600d60205260ff600c604060002001541660068110156107475715611f72575b611f6d90612ded565b611f02565b91611f858184611746611f6d94886137b6565b929050611f64565b3461026457600036600319011261026457602060405160788152f35b34610264576000366003190112610264576020600854604051908152f35b34610264576000366003190112610264576001546040516001600160a01b039091168152602090f35b34610264576000366003190112610264576020600254604051908152f35b602080600319360112610264576004356120266135a1565b61202e613580565b80600052600d82526040600020906001820160018060a01b0380825416612056811515613183565b600c85019081549060ff82166006811015610747576122bb57331461227f576002860180546001600160a01b0319163317905560ff1916600117905542600a850181905560088501546120a8916133b1565b600b85015533600052601085526120c3836040600020613495565b60058401600381549501948554600052601487526120e760406000209182546133b1565b9055845480600052600e875260ff604060002054166002811015610747576121f2575054918234036121b657600080938193829354165af16121276135c4565b501561217157906000805160206137cb833981519152915b33907f15feab5d3eb17171632762cf769709a315dd15f487a556c0dfb8a259c8f186cc600080a35491610644836133be565b60405162461bcd60e51b815260048101849052601b60248201527f5472616e7366657220746f20626f72726f776572206661696c656400000000006044820152606490fd5b60405162461bcd60e51b8152600481018790526014602482015273125b98dbdc9c9958dd0811551208185b5bdd5b9d60621b6044820152606490fd5b95949392959190913461223a57916000805160206137cb83398151915295969161223593600052600e88528060406000205460081c1692541690549133906134cf565b61213f565b60405162461bcd60e51b815260048101879052601d60248201527f455448206e6f74206e656564656420666f72204552433230206c6f616e0000006044820152606490fd5b60405162461bcd60e51b815260048101889052601460248201527321b0b73737ba10333ab7321037bbb7103637b0b760611b6044820152606490fd5b60405162461bcd60e51b81526004810189905260126024820152714c6f616e206e6f7420617661696c61626c6560701b6044820152606490fd5b346102645760003660031901126102645761230e612db5565b612316613580565b6001805460ff60a01b1916600160a01b1790556040513381527f62e78cea01bee320cd4e420270b5ea74000d11b0c9f74754ebdbfc544b05a25890602090a1005b346102645760203660031901126102645760206123756004356133be565b604051908152f35b34610264576020366003190112610264576001600160a01b0361239e612b3a565b16600052601160205260e06040600020805490600181015490600281015460038201546004830154916006600585015494015494604051968752602087015260408601526060850152608084015260a083015260c0820152f35b3461026457600036600319011261026457602060405160968152f35b346102645760203660031901126102645760043560005260146020526020604060002054604051908152f35b34610264576000366003190112610264576020600354604051908152f35b3461026457600036600319011261026457612477612db5565b600180546001600160a01b031981169091556000906001600160a01b03167f8be0079c531659141344cd1fd0a4f28419497f9722a3daafe3b4186f6b6457e08280a3005b34610264576020366003190112610264576001600160a01b036124dc612b3a565b166000526012602052602060ff604060002054166040519015158152f35b34610264576000366003190112610264576020600654604051908152f35b3461026457600036600319011261026457602060ff60015460a01c166040519015158152f35b3461026457608036600319011261026457612557612b3a565b67ffffffffffffffff9060243582811161026457612579903690600401612bf5565b906044359060ff821680920361026457606435916001600160a01b0383168303610264576125a5612db5565b6001600160a01b03821615612867576001600160a01b0383161561282257604051906125d082612b7e565b60018252602082019060018060a01b0384168252604083019086825260608401526001608084015260018060a01b03851660a0840152600354600052600e60205260406000209183519060028210156107475760ff845491610100600160a81b03905160081b169216906affffffffffffffffffffff60a81b161717825551958651908111611046576126666001830154612c95565b601f81116127db575b506020601f82116001146127625791816002926126f995946127529a600092612757575b50508160011b916000199060031b1c19161760018201555b606083015191018054608084015160a0909401516001600160b01b031990911660ff939093169290921792151560081b61ff00169290921760109190911b62010000600160b01b0316179055565b7f98878a34ea3245957b330457c591928f2908c8b254e8b972075101360fca276b612737600354948593604051928392604084526040840190612d75565b6001600160a01b0396871660208401529516940390a3612ded565b600355005b015190508a80612693565b6001830160005260206000209760005b601f19841681106127c3575082612752996126f9969593600193600296601f198116106127aa575b505050811b0160018201556126ab565b015160001960f88460031b161c191690558a808061279a565b828201518a5560019099019860209283019201612772565b600183016000526020600020601f830160051c81016020841061281b575b601f830160051c8201811061280f57505061266f565b600081556001016127f9565b50806127f9565b60405162461bcd60e51b815260206004820152601a60248201527f496e76616c6964207072696365206665656420616464726573730000000000006044820152606490fd5b60405162461bcd60e51b815260206004820152601860248201527f496e76616c696420636f6e7472616374206164647265737300000000000000006044820152606490fd5b34610264576000366003190112610264576020600554604051908152f35b34610264576000366003190112610264576020600b54604051908152f35b34610264576020366003190112610264576040612906600435613203565b825191151582526020820152f35b346102645760003660031901126102645761292d612db5565b60008080806008548160085560018060a01b03600754165af161294e6135c4565b501561295657005b60405162461bcd60e51b8152602060048201526015602482015274119959481dda5d1a191c985dd85b0819985a5b1959605a1b6044820152606490fd5b34610264576000366003190112610264576007546040516001600160a01b039091168152602090f35b34610264576000366003190112610264576129d5612db5565b60015460ff8160a01c1615612a1c5760ff60a01b19166001556040513381527f5db9ee0a495bf2e6ff9c91a7834c1ba4fdd244a5e8aa4e537bd38aeae4b073aa90602090a1005b604051638dfc202b60e01b8152600490fd5b3461026457604036600319011261026457612a47612b3a565b6001600160a01b03166000908152601060205260409020805460243591908210156102645760209161099091612b50565b34610264576000366003190112610264576020600a54604051908152f35b34610264576000366003190112610264576020604051610bb88152f35b34610264576000366003190112610264576020600c54604051908152f35b34610264576020612375612ae436612b24565b906130a1565b346102645760003660031901126102645760206040516301e133808152f35b34610264576000366003190112610264578061012c60209252f35b6040906003190112610264576004359060243590565b600435906001600160a01b038216820361026457565b8054821015612b685760005260206000200190600090565b634e487b7160e01b600052603260045260246000fd5b60c0810190811067ffffffffffffffff82111761104657604052565b610240810190811067ffffffffffffffff82111761104657604052565b90601f8019910116810190811067ffffffffffffffff82111761104657604052565b67ffffffffffffffff811161104657601f01601f191660200190565b81601f8201121561026457803590612c0c82612bd9565b92612c1a6040519485612bb7565b8284526020838301011161026457816000926020809301838601378301015290565b34610264576000366003190112610264576020604051620151808152f35b6020908160408183019282815285518094520193019160005b828110612c81575050505090565b835185529381019392810192600101612c73565b90600182811c92168015612cc5575b6020831014612caf57565b634e487b7160e01b600052602260045260246000fd5b91607f1691612ca4565b9060405191826000825492612ce384612c95565b908184526001948581169081600014612d525750600114612d0f575b5050612d0d92500383612bb7565b565b9093915060005260209081600020936000915b818310612d3a575050612d0d93508201013880612cff565b85548884018501529485019487945091830191612d22565b915050612d0d94506020925060ff191682840152151560051b8201013880612cff565b919082519283825260005b848110612da1575050826000602080949584010152601f8019910116010190565b602081830181015184830182015201612d80565b6001546001600160a01b03163303612dc957565b60405163118cdaa760e01b8152336004820152602490fd5b60028210156107475752565b60001981146106595760010190565b15612e0357565b60405162461bcd60e51b8152602060048201526013602482015272151bdad95b881b9bdd081cdd5c1c1bdc9d1959606a1b6044820152606490fd5b519069ffffffffffffffffffff8216820361026457565b9190820391821161065957565b9060009182526020600e815260408084208151612e7e81612b7e565b612ee06002835493612e9360ff861685612de1565b60018060a01b03809560081c1687850152612eb060018201612ccf565b8685015201549160ff831660608201528360a060ff8560081c16151592836080820152019360101c168352612dfc565b5116801561304d579060a060049392825194858092633fabe5a360e21b82525afa9485156130425780938196612fea575b50831315612fa7578415612f6f57610e10612f2c8642612e55565b11612f375750509190565b60649250519062461bcd60e51b825260048201526012602482015271141c9a58d94819185d18481d1bdbc81bdb1960721b6044820152fd5b60649250519062461bcd60e51b825260048201526012602482015271526f756e64206e6f7420636f6d706c65746560701b6044820152fd5b60649250519062461bcd60e51b82526004820152601960248201527f496e76616c69642070726963652066726f6d206f7261636c65000000000000006044820152fd5b9350945060a0833d821161303a575b8161300660a09383612bb7565b810103126130365761301783612e3e565b508183015161302d608060608601519501612e3e565b50929438612f11565b8480fd5b3d9150612ff9565b9051903d90823e3d90fd5b5050509050642e90edd000904290565b8181029291811591840414171561065957565b60ff16604d811161065957600a0a90565b811561308b570490565b634e487b7160e01b600052601260045260246000fd5b906130ab82612e62565b5091600052600e602052604060002091604051916130c883612b7e565b60088454600260ff966130dd88841688612de1565b6001600160a01b0392841c831660208801526130fb60018201612ccf565b604088015201549460a08787169260608301978489528981871c161515608085015260101c16910152111560001461314f579261313e6131469261314c9561305d565b925116613070565b90613081565b90565b6131689161315c9161305d565b61314684845116613070565b90518216600719019182116106595761314661314c92613070565b1561318a57565b60405162461bcd60e51b8152602060048201526013602482015272131bd85b88191bd95cc81b9bdd08195e1a5cdd606a1b6044820152606490fd5b156131cc57565b60405162461bcd60e51b815260206004820152600f60248201526e4c6f616e206e6f742061637469766560881b6044820152606490fd5b906000918252600d602052604082209160405161321f81612b9a565b8354815260018060a01b038060018601541660208301908152816002870154166040840152600386015492606081019384526004870154906080810191825260058801549360a0820194855260068901549360c0830194855260078a015460e084015260088a015461010084015260098a0154610120840152600a8a0154610140840152600b8a015461016084015260ff600c8b01541692610180810193600681101561339d57845261331c929190610220601160108e6132e2600d8201612ccf565b6101a0860152600e8101546101c086015260ff600f8201541615156101e086015201549d61020084019e8f52015491015251161515613183565b51600681101561338957916133449161333b600161334e9695146131c5565b519051906130a1565b92519051906130a1565b9160648202918083046064149015171561337557509061336d91613081565b915182109190565b634e487b7160e01b81526011600452602490fd5b634e487b7160e01b86526021600452602486fd5b634e487b7160e01b8a52602160045260248afd5b9190820180921161065957565b600090815260146020526040812054600a54908180821161340e57506127109283820291808304851490151715613375575061314c92916133fe91613081565b9061045960095492600b5461305d565b61341791612e55565b9161343361342a600954600b54906133b1565b93600c5461305d565b90612710928303928311613375575061314c929161345091613081565b906133b1565b1561345d57565b60405162461bcd60e51b815260206004820152601060248201526f24b73b30b634b210323ab930ba34b7b760811b6044820152606490fd5b805468010000000000000000811015611046576134b791600182018155612b50565b819291549060031b91821b91600019901b1916179055565b6040516323b872dd60e01b60208201526001600160a01b03928316602482015292909116604483015260648083019390935291815260a081019181831067ffffffffffffffff84111761104657612d0d926040525b906000602091828151910182855af115611186576000513d61357757506001600160a01b0381163b155b6135555750565b604051635274afe760e01b81526001600160a01b039091166004820152602490fd5b6001141561354e565b60ff60015460a01c1661358f57565b60405163d93c066560e01b8152600490fd5b6002600054146135b2576002600055565b604051633ee5aeb560e01b8152600490fd5b3d156135ef573d906135d582612bd9565b916135e36040519384612bb7565b82523d6000602084013e565b606090565b156135fb57565b60405162461bcd60e51b815260206004820152601260248201527141756374696f6e206e6f742061637469766560701b6044820152606490fd5b60405163a9059cbb60e01b60208201526001600160a01b039092166024830152604480830193909352918152608081019167ffffffffffffffff83118284101761104657612d0d92604052613524565b6000908152600d602052604081206004810154808352600e60205260ff604084205416600281101561375857613727575060018101546006909101548291829182916001600160a01b03165af16136da6135c4565b50156136e257565b60405162461bcd60e51b815260206004820152601860248201527f436f6c6c61746572616c2072657475726e206661696c656400000000000000006044820152606490fd5b90600683604093612d0d9552600e60205260018060a01b03938491205460081c169260018301541691015491613635565b634e487b7160e01b84526021600452602484fd5b67ffffffffffffffff81116110465760051b60200190565b9061378e8261376c565b61379b6040519182612bb7565b82815280926137ac601f199161376c565b0190602036910137565b8051821015612b685760209160051b01019056fe41e376fd99913dea7fda140f5c0bd997515b1a181acc58737320322548ec6e72a26469706673582212207f954c110348ae0a2006102f197b249c1a1854beac16675d104f33093c7708b564736f6c63430008140033","opcodes":"PUSH1 0x80 PUSH1 0x40 SWAP1 DUP1 DUP3 MSTORE CALLVALUE PUSH3 0x33E JUMPI PUSH1 0x1 SWAP1 PUSH1 0x0 SWAP1 DUP3 DUP3 SSTORE CALLER ISZERO PUSH3 0x32A JUMPI POP DUP2 SLOAD CALLER PUSH1 0x1 PUSH1 0x1 PUSH1 0xA0 SHL SUB NOT DUP1 DUP4 AND DUP3 OR DUP6 SSTORE SWAP3 SWAP2 PUSH1 0x1 PUSH1 0x1 PUSH1 0xA0 SHL SUB AND PUSH32 0x8BE0079C531659141344CD1FD0A4F28419497F9722A3DAAFE3B4186F6B6457E0 DUP4 DUP1 LOG3 PUSH1 0x2 DUP4 SWAP1 SSTORE PUSH1 0x3 DUP4 SWAP1 SSTORE PUSH1 0x4 DUP4 DUP2 SSTORE PUSH1 0x32 PUSH1 0x5 SSTORE PUSH2 0x12C PUSH1 0x6 SSTORE PUSH2 0x1F4 PUSH1 0x9 SSTORE PUSH2 0x1F40 PUSH1 0xA SSTORE PUSH2 0x190 PUSH1 0xB SSTORE PUSH2 0x1770 PUSH1 0xC SSTORE PUSH1 0x7 DUP1 SLOAD SWAP1 SWAP4 AND CALLER OR SWAP1 SWAP3 SSTORE DUP4 MLOAD PUSH1 0x1 PUSH1 0x1 PUSH1 0x40 SHL SUB SWAP2 SWAP1 PUSH1 0xC0 DUP2 ADD DUP4 DUP2 GT DUP3 DUP3 LT OR PUSH3 0x317 JUMPI DUP7 MSTORE DUP2 DUP2 MSTORE PUSH1 0x20 SWAP5 DUP6 DUP3 ADD SWAP4 DUP4 DUP6 MSTORE DUP8 MLOAD SWAP2 DUP9 DUP4 ADD DUP4 DUP2 LT DUP4 DUP3 GT OR PUSH3 0x304 JUMPI DUP10 MSTORE PUSH1 0x3 DUP4 MSTORE PUSH3 0x8AA89 PUSH1 0xEB SHL DUP9 DUP5 ADD MSTORE DUP9 DUP5 ADD SWAP3 DUP4 MSTORE PUSH1 0x60 DUP5 ADD SWAP8 PUSH1 0x12 DUP10 MSTORE PUSH1 0x80 DUP6 ADD SWAP8 DUP3 DUP10 MSTORE PUSH1 0xA0 DUP7 ADD SWAP8 DUP8 DUP10 MSTORE DUP8 DUP1 MSTORE PUSH1 0xE DUP4 MSTORE DUP12 DUP9 KECCAK256 SWAP7 MLOAD SWAP1 PUSH1 0x2 DUP3 LT ISZERO PUSH3 0x2F1 JUMPI PUSH1 0xFF DUP9 SLOAD SWAP2 PUSH2 0x100 PUSH1 0x1 PUSH1 0xA8 SHL SUB SWAP1 MLOAD PUSH1 0x8 SHL AND SWAP3 AND SWAP1 PUSH1 0x1 DUP1 PUSH1 0xA8 SHL SUB NOT AND OR OR DUP7 SSTORE DUP3 DUP7 ADD SWAP5 MLOAD SWAP1 DUP2 MLOAD SWAP5 DUP6 GT PUSH3 0x2DE JUMPI DUP6 SLOAD SWAP1 DUP5 DUP3 DUP2 SHR SWAP3 AND DUP1 ISZERO PUSH3 0x2D3 JUMPI JUMPDEST DUP5 DUP4 LT EQ PUSH3 0x2C0 JUMPI POP PUSH1 0x1F DUP2 GT PUSH3 0x275 JUMPI JUMPDEST POP DUP2 PUSH1 0x1F DUP6 GT PUSH1 0x1 EQ PUSH3 0x204 JUMPI POP SWAP3 DUP1 SWAP3 DUP2 SWAP3 PUSH1 0x2 SWAP8 SWAP7 SWAP6 PUSH1 0xFF SWAP10 SWAP5 PUSH3 0x1F8 JUMPI JUMPDEST POP POP SHL SWAP2 PUSH1 0x0 NOT SWAP1 PUSH1 0x3 SHL SHR NOT AND OR SWAP1 SSTORE JUMPDEST SWAP5 MLOAD SWAP5 ADD DUP1 SLOAD SWAP4 MLOAD SWAP3 MLOAD PUSH1 0x1 PUSH1 0x1 PUSH1 0xB0 SHL SUB NOT SWAP1 SWAP5 AND SWAP2 SWAP1 SWAP5 AND OR SWAP1 ISZERO ISZERO PUSH1 0x8 SHL PUSH2 0xFF00 AND OR PUSH1 0x10 SWAP2 SWAP1 SWAP2 SHL PUSH3 0x10000 PUSH1 0x1 PUSH1 0xB0 SHL SUB AND OR SWAP1 SSTORE MLOAD PUSH2 0x3820 SWAP1 DUP2 PUSH3 0x344 DUP3 CODECOPY RETURN JUMPDEST ADD MLOAD SWAP3 POP CODESIZE DUP1 PUSH3 0x19E JUMP JUMPDEST DUP6 DUP9 MSTORE DUP1 DUP9 KECCAK256 SWAP7 SWAP8 SWAP6 SWAP7 SWAP4 SWAP6 PUSH1 0x1F NOT DUP7 AND SWAP2 JUMPDEST DUP3 DUP3 LT PUSH3 0x25D JUMPI POP POP SWAP2 PUSH1 0xFF SWAP8 SWAP6 SWAP4 SWAP2 DUP6 PUSH1 0x2 SWAP9 SWAP7 SWAP5 LT PUSH3 0x243 JUMPI JUMPDEST POP POP POP DUP2 SHL ADD SWAP1 SSTORE PUSH3 0x1B0 JUMP JUMPDEST ADD MLOAD PUSH1 0x0 NOT PUSH1 0xF8 DUP5 PUSH1 0x3 SHL AND SHR NOT AND SWAP1 SSTORE CODESIZE DUP1 DUP1 PUSH3 0x235 JUMP JUMPDEST DUP1 DUP9 DUP7 SWAP8 DUP3 SWAP5 SWAP8 DUP8 ADD MLOAD DUP2 SSTORE ADD SWAP7 ADD SWAP5 ADD SWAP1 PUSH3 0x217 JUMP JUMPDEST DUP6 DUP9 MSTORE DUP3 DUP9 KECCAK256 PUSH1 0x1F DUP7 ADD PUSH1 0x5 SHR DUP2 ADD SWAP2 DUP5 DUP8 LT PUSH3 0x2B5 JUMPI JUMPDEST PUSH1 0x1F ADD PUSH1 0x5 SHR ADD SWAP1 DUP5 SWAP1 JUMPDEST DUP3 DUP2 LT PUSH3 0x2A9 JUMPI POP POP PUSH3 0x17B JUMP JUMPDEST DUP10 DUP2 SSTORE ADD DUP5 SWAP1 PUSH3 0x299 JUMP JUMPDEST SWAP1 SWAP2 POP DUP2 SWAP1 PUSH3 0x28E JUMP JUMPDEST PUSH4 0x4E487B71 PUSH1 0xE0 SHL DUP10 MSTORE PUSH1 0x22 SWAP1 MSTORE PUSH1 0x24 DUP9 REVERT JUMPDEST SWAP2 PUSH1 0x7F AND SWAP2 PUSH3 0x167 JUMP JUMPDEST PUSH4 0x4E487B71 PUSH1 0xE0 SHL DUP9 MSTORE PUSH1 0x41 SWAP1 MSTORE PUSH1 0x24 DUP8 REVERT JUMPDEST PUSH4 0x4E487B71 PUSH1 0xE0 SHL DUP10 MSTORE PUSH1 0x21 DUP4 MSTORE PUSH1 0x24 DUP10 REVERT JUMPDEST PUSH4 0x4E487B71 PUSH1 0xE0 SHL DUP7 MSTORE PUSH1 0x41 DUP9 MSTORE PUSH1 0x24 DUP7 REVERT JUMPDEST PUSH4 0x4E487B71 PUSH1 0xE0 SHL DUP4 MSTORE PUSH1 0x41 DUP6 MSTORE PUSH1 0x24 DUP4 REVERT JUMPDEST PUSH1 0x24 SWAP2 PUSH4 0x1E4FBDF7 PUSH1 0xE0 SHL DUP3 MSTORE PUSH1 0x4 DUP3 ADD MSTORE REVERT JUMPDEST PUSH1 0x0 DUP1 REVERT INVALID PUSH2 0x100 DUP1 PUSH1 0x40 MSTORE PUSH1 0x4 CALLDATASIZE LT ISZERO PUSH2 0x14 JUMPI PUSH1 0x0 DUP1 REVERT JUMPDEST PUSH1 0x0 CALLDATALOAD PUSH1 0xE0 SHR SWAP1 DUP2 PUSH4 0xA49CF4D EQ PUSH2 0x2B09 JUMPI POP DUP1 PUSH4 0xD0B2CA6 EQ PUSH2 0x2AEA JUMPI DUP1 PUSH4 0x119328D6 EQ PUSH2 0x2AD1 JUMPI DUP1 PUSH4 0x1EEDF5C7 EQ PUSH2 0x2AB3 JUMPI DUP1 PUSH4 0x34855D14 EQ PUSH2 0x2A96 JUMPI DUP1 PUSH4 0x35F78283 EQ PUSH2 0x2A78 JUMPI DUP1 PUSH4 0x3CDB72F1 EQ PUSH2 0x2A2E JUMPI DUP1 PUSH4 0x3F4BA83A EQ PUSH2 0x29BC JUMPI DUP1 PUSH4 0x46904840 EQ PUSH2 0x2993 JUMPI DUP1 PUSH4 0x476343EE EQ PUSH2 0x2914 JUMPI DUP1 PUSH4 0x5003E25A EQ PUSH2 0x28E8 JUMPI DUP1 PUSH4 0x5454A4B6 EQ PUSH2 0x28CA JUMPI DUP1 PUSH4 0x58F85880 EQ PUSH2 0x28AC JUMPI DUP1 PUSH4 0x5C211EFC EQ PUSH2 0x253E JUMPI DUP1 PUSH4 0x5C975ABB EQ PUSH2 0x2518 JUMPI DUP1 PUSH4 0x5FB3B1B5 EQ PUSH2 0x24FA JUMPI DUP1 PUSH4 0x6EEF1154 EQ PUSH2 0x24BB JUMPI DUP1 PUSH4 0x715018A6 EQ PUSH2 0x245E JUMPI DUP1 PUSH4 0x75794A3C EQ PUSH2 0x2440 JUMPI DUP1 PUSH4 0x781C9923 EQ PUSH2 0x2414 JUMPI DUP1 PUSH4 0x7A9FFFB7 EQ PUSH2 0x23F8 JUMPI DUP1 PUSH4 0x80BB7273 EQ PUSH2 0x237D JUMPI DUP1 PUSH4 0x844186F1 EQ PUSH2 0x2357 JUMPI DUP1 PUSH4 0x8456CB59 EQ PUSH2 0x22F5 JUMPI DUP1 PUSH4 0x846B909A EQ PUSH2 0x200E JUMPI DUP1 PUSH4 0x87C51459 EQ PUSH2 0x1FF0 JUMPI DUP1 PUSH4 0x89D99A05 EQ PUSH2 0x1D1E JUMPI DUP1 PUSH4 0x8DA5CB5B EQ PUSH2 0x1FC7 JUMPI DUP1 PUSH4 0x9003ADFE EQ PUSH2 0x1FA9 JUMPI DUP1 PUSH4 0x90A8AE9B EQ PUSH2 0x1F8D JUMPI DUP1 PUSH4 0x9772D7EE EQ PUSH2 0x1ED2 JUMPI DUP1 PUSH4 0x9979EF45 EQ PUSH2 0x1D23 JUMPI DUP1 PUSH4 0xA271E525 EQ PUSH2 0x1D1E JUMPI DUP1 PUSH4 0xA5A2A5DD EQ PUSH2 0x1CA1 JUMPI DUP1 PUSH4 0xAB7B1C89 EQ PUSH2 0x188B JUMPI DUP1 PUSH4 0xACFC827E EQ PUSH2 0x17CC JUMPI DUP1 PUSH4 0xAFD92762 EQ PUSH2 0x17AE JUMPI DUP1 PUSH4 0xB891BA44 EQ PUSH2 0x16CB JUMPI DUP1 PUSH4 0xB94FE917 EQ PUSH2 0x16A1 JUMPI DUP1 PUSH4 0xC6255626 EQ PUSH2 0x1608 JUMPI DUP1 PUSH4 0xCCDD9F5D EQ PUSH2 0x133E JUMPI DUP1 PUSH4 0xDA69DD59 EQ PUSH2 0xAF4 JUMPI DUP1 PUSH4 0xE1EC3C68 EQ PUSH2 0x99E JUMPI DUP1 PUSH4 0xE3ED1902 EQ PUSH2 0x946 JUMPI DUP1 PUSH4 0xE4DF2F3B EQ PUSH2 0x882 JUMPI DUP1 PUSH4 0xE8083863 EQ PUSH2 0x395 JUMPI DUP1 PUSH4 0xF25B9CAA EQ PUSH2 0x378 JUMPI DUP1 PUSH4 0xF2FDE38B EQ PUSH2 0x2EF JUMPI DUP1 PUSH4 0xF8FA3EA7 EQ PUSH2 0x269 JUMPI PUSH4 0xFC528482 EQ PUSH2 0x246 JUMPI PUSH1 0x0 DUP1 REVERT JUMPDEST CALLVALUE PUSH2 0x264 JUMPI PUSH1 0x0 CALLDATASIZE PUSH1 0x3 NOT ADD SLT PUSH2 0x264 JUMPI PUSH1 0x20 PUSH1 0x4 SLOAD PUSH1 0x40 MLOAD SWAP1 DUP2 MSTORE RETURN JUMPDEST PUSH1 0x0 DUP1 REVERT JUMPDEST CALLVALUE PUSH2 0x264 JUMPI PUSH1 0x20 CALLDATASIZE PUSH1 0x3 NOT ADD SLT PUSH2 0x264 JUMPI PUSH1 0x4 CALLDATALOAD PUSH1 0x0 MSTORE PUSH1 0x13 PUSH1 0x20 MSTORE PUSH2 0x100 PUSH1 0x40 PUSH1 0x0 KECCAK256 DUP1 SLOAD SWAP1 PUSH1 0x1 DUP2 ADD SLOAD SWAP1 PUSH1 0x2 DUP2 ADD SLOAD PUSH1 0x3 DUP3 ADD SLOAD PUSH1 0x4 DUP4 ADD SLOAD SWAP1 PUSH1 0x1 DUP1 PUSH1 0xA0 SHL SUB PUSH1 0x5 DUP6 ADD SLOAD AND SWAP3 PUSH1 0xFF PUSH1 0x7 PUSH1 0x6 DUP8 ADD SLOAD SWAP7 ADD SLOAD AND SWAP6 PUSH1 0x40 MLOAD SWAP8 DUP9 MSTORE PUSH1 0x20 DUP9 ADD MSTORE PUSH1 0x40 DUP8 ADD MSTORE PUSH1 0x60 DUP7 ADD MSTORE PUSH1 0x80 DUP6 ADD MSTORE PUSH1 0xA0 DUP5 ADD MSTORE PUSH1 0xC0 DUP4 ADD MSTORE ISZERO ISZERO PUSH1 0xE0 DUP3 ADD MSTORE RETURN JUMPDEST CALLVALUE PUSH2 0x264 JUMPI PUSH1 0x20 CALLDATASIZE PUSH1 0x3 NOT ADD SLT PUSH2 0x264 JUMPI PUSH2 0x308 PUSH2 0x2B3A JUMP JUMPDEST PUSH2 0x310 PUSH2 0x2DB5 JUMP JUMPDEST PUSH1 0x1 PUSH1 0x1 PUSH1 0xA0 SHL SUB SWAP1 DUP2 AND SWAP1 DUP2 ISZERO PUSH2 0x35F JUMPI PUSH1 0x1 SLOAD DUP3 PUSH1 0x1 PUSH1 0x1 PUSH1 0x60 SHL SUB PUSH1 0xA0 SHL DUP3 AND OR PUSH1 0x1 SSTORE AND PUSH32 0x8BE0079C531659141344CD1FD0A4F28419497F9722A3DAAFE3B4186F6B6457E0 PUSH1 0x0 DUP1 LOG3 STOP JUMPDEST PUSH1 0x40 MLOAD PUSH4 0x1E4FBDF7 PUSH1 0xE0 SHL DUP2 MSTORE PUSH1 0x0 PUSH1 0x4 DUP3 ADD MSTORE PUSH1 0x24 SWAP1 REVERT JUMPDEST CALLVALUE PUSH2 0x264 JUMPI PUSH1 0x0 CALLDATASIZE PUSH1 0x3 NOT ADD SLT PUSH2 0x264 JUMPI PUSH1 0x20 PUSH1 0x40 MLOAD PUSH2 0xE10 DUP2 MSTORE RETURN JUMPDEST CALLVALUE PUSH2 0x264 JUMPI PUSH1 0x20 DUP1 PUSH1 0x3 NOT CALLDATASIZE ADD SLT PUSH2 0x264 JUMPI PUSH1 0x4 CALLDATALOAD PUSH2 0x3B2 PUSH2 0x35A1 JUMP JUMPDEST DUP1 PUSH1 0x0 MSTORE PUSH1 0x13 DUP3 MSTORE PUSH1 0x40 PUSH1 0x0 KECCAK256 SWAP1 PUSH1 0x7 DUP3 ADD DUP1 SLOAD SWAP1 PUSH2 0x3D3 PUSH1 0xFF DUP4 AND PUSH2 0x35F4 JUMP JUMPDEST PUSH1 0x2 DUP5 ADD SLOAD TIMESTAMP GT ISZERO PUSH2 0x845 JUMPI PUSH1 0xFF NOT SWAP2 DUP3 AND SWAP1 SSTORE DUP3 SLOAD PUSH1 0x0 SWAP1 DUP2 MSTORE PUSH1 0xD DUP6 MSTORE PUSH1 0x40 SWAP1 KECCAK256 PUSH1 0x5 DUP5 ADD DUP1 SLOAD SWAP2 SWAP4 PUSH1 0x1 PUSH1 0x1 PUSH1 0xA0 SHL SUB SWAP4 SWAP2 SWAP3 SWAP1 SWAP2 SWAP1 DUP5 AND ISZERO PUSH2 0x826 JUMPI PUSH1 0xC DUP6 ADD PUSH1 0x3 DUP3 DUP3 SLOAD AND OR SWAP1 SSTORE PUSH1 0x1 PUSH1 0xF DUP7 ADD SWAP2 DUP3 SLOAD AND OR SWAP1 SSTORE PUSH1 0x3 DUP5 ADD SLOAD SWAP2 PUSH1 0x5 DUP6 ADD SLOAD PUSH2 0x442 DUP2 DUP6 PUSH2 0x30A1 JUMP JUMPDEST POP PUSH2 0x460 PUSH2 0x2710 SWAP2 DUP3 PUSH2 0x459 PUSH1 0x7 DUP11 ADD SLOAD DUP4 PUSH2 0x305D JUMP JUMPDEST DIV SWAP1 PUSH2 0x33B1 JUMP JUMPDEST SWAP4 PUSH1 0x6 DUP9 ADD SWAP5 DUP6 SLOAD SWAP3 PUSH2 0x475 PUSH1 0x6 SLOAD DUP6 PUSH2 0x305D JUMP JUMPDEST DIV SWAP3 DUP1 DUP3 LT ISZERO PUSH2 0x81E JUMPI POP SWAP1 JUMPDEST PUSH1 0x0 MSTORE PUSH1 0xE DUP10 MSTORE PUSH1 0xFF PUSH1 0x40 PUSH1 0x0 KECCAK256 SLOAD AND PUSH1 0x2 DUP2 LT ISZERO PUSH2 0x747 JUMPI ISZERO PUSH2 0x7C5 JUMPI JUMPDEST SWAP1 PUSH2 0x4BF PUSH2 0x4C4 SWAP3 PUSH2 0x4B5 DUP4 PUSH1 0x8 SLOAD PUSH2 0x33B1 JUMP JUMPDEST PUSH1 0x8 SSTORE DUP7 SLOAD PUSH2 0x2E55 JUMP JUMPDEST PUSH2 0x2E55 JUMP JUMPDEST DUP1 PUSH2 0x75D JUMPI JUMPDEST POP PUSH1 0x4 DUP6 ADD SLOAD DUP1 PUSH1 0x0 MSTORE PUSH1 0xE DUP9 MSTORE PUSH1 0xFF PUSH1 0x40 PUSH1 0x0 KECCAK256 SLOAD AND PUSH1 0x2 DUP2 LT ISZERO PUSH2 0x747 JUMPI DUP9 SWAP2 DUP7 SWAP2 PUSH2 0x6FB JUMPI POP PUSH1 0x0 DUP1 DUP1 SWAP4 POP DUP1 SWAP3 DUP6 SLOAD AND PUSH1 0x6 DUP11 ADD SLOAD SWAP1 GAS CALL PUSH2 0x50E PUSH2 0x35C4 JUMP JUMPDEST POP ISZERO PUSH2 0x6B6 JUMPI DUP7 DUP5 PUSH32 0x4D9113A1377D665EAA1F9168A9C9080F2E488CB820B10149DE3D6D2E0F2780C7 SWAP3 JUMPDEST SLOAD AND SWAP4 SLOAD PUSH1 0x40 MLOAD SWAP1 DUP2 MSTORE LOG3 JUMPDEST PUSH1 0x1 PUSH1 0x5 DUP4 ADD SLOAD SWAP3 PUSH1 0x3 DUP2 ADD SWAP4 DUP5 SLOAD PUSH1 0x0 MSTORE PUSH1 0x14 DUP8 MSTORE PUSH2 0x56B PUSH1 0x40 PUSH1 0x0 KECCAK256 SWAP2 DUP3 SLOAD PUSH2 0x2E55 JUMP JUMPDEST SWAP1 SSTORE ADD SLOAD AND SWAP2 DUP3 PUSH1 0x0 MSTORE PUSH1 0x11 DUP5 MSTORE PUSH1 0x40 PUSH1 0x0 KECCAK256 SWAP3 PUSH1 0x1 DUP5 ADD PUSH2 0x593 DUP2 SLOAD DUP1 ISZERO PUSH2 0x6AC JUMPI PUSH2 0x2DED JUMP JUMPDEST SWAP1 SSTORE TIMESTAMP PUSH1 0x6 DUP6 ADD SSTORE PUSH1 0x3 DUP5 ADD PUSH2 0x5A9 DUP2 SLOAD PUSH2 0x2DED JUMP JUMPDEST SWAP1 SSTORE DUP4 SLOAD SWAP4 DUP6 PUSH1 0x32 DUP7 GT ISZERO PUSH2 0x66F JUMPI POP PUSH1 0x31 NOT DUP6 ADD SWAP5 DUP6 GT PUSH2 0x659 JUMPI DUP6 PUSH32 0x79C012A0CFAE660E09134956BC432C8497EC80E86A3A108D130E8B3FCA52B3AD SWAP2 PUSH1 0x0 DUP1 MLOAD PUSH1 0x20 PUSH2 0x37CB DUP4 CODECOPY DUP2 MLOAD SWAP2 MSTORE SWAP7 PUSH2 0x12C SWAP1 DUP2 DUP2 LT PUSH1 0x0 EQ PUSH2 0x652 JUMPI POP JUMPDEST DUP1 SWAP2 JUMPDEST SSTORE PUSH1 0x40 MLOAD SWAP1 DUP2 MSTORE LOG2 SLOAD PUSH32 0x789B7097E8066538CFAA1132488B132E14BA5F0C938C8B7AAF8CF40356AAB0B PUSH1 0x0 DUP1 LOG2 SLOAD SWAP2 PUSH2 0x644 DUP4 PUSH2 0x33BE JUMP JUMPDEST PUSH1 0x40 MLOAD SWAP1 DUP2 MSTORE LOG2 PUSH1 0x1 PUSH1 0x0 SSTORE STOP JUMPDEST SWAP1 POP PUSH2 0x608 JUMP JUMPDEST PUSH4 0x4E487B71 PUSH1 0xE0 SHL PUSH1 0x0 MSTORE PUSH1 0x11 PUSH1 0x4 MSTORE PUSH1 0x24 PUSH1 0x0 REVERT JUMPDEST PUSH1 0x0 DUP1 MLOAD PUSH1 0x20 PUSH2 0x37CB DUP4 CODECOPY DUP2 MLOAD SWAP2 MSTORE SWAP6 POP PUSH32 0x79C012A0CFAE660E09134956BC432C8497EC80E86A3A108D130E8B3FCA52B3AD SWAP2 PUSH2 0x12C DUP1 SWAP2 PUSH2 0x60B JUMP JUMPDEST PUSH2 0x23F DUP8 SSTORE PUSH2 0x2DED JUMP JUMPDEST PUSH1 0x40 MLOAD PUSH3 0x461BCD PUSH1 0xE5 SHL DUP2 MSTORE PUSH1 0x4 DUP2 ADD DUP9 SWAP1 MSTORE PUSH1 0x1A PUSH1 0x24 DUP3 ADD MSTORE PUSH32 0x436F6C6C61746572616C207472616E73666572206661696C6564000000000000 PUSH1 0x44 DUP3 ADD MSTORE PUSH1 0x64 SWAP1 REVERT JUMPDEST SWAP3 PUSH32 0x4D9113A1377D665EAA1F9168A9C9080F2E488CB820B10149DE3D6D2E0F2780C7 SWAP4 PUSH1 0x0 MSTORE PUSH1 0xE DUP4 MSTORE PUSH2 0x742 DUP3 PUSH1 0x40 PUSH1 0x0 KECCAK256 SLOAD PUSH1 0x8 SHR AND DUP4 DUP4 SLOAD AND PUSH1 0x6 DUP12 ADD SLOAD SWAP2 PUSH2 0x3635 JUMP JUMPDEST PUSH2 0x539 JUMP JUMPDEST PUSH4 0x4E487B71 PUSH1 0xE0 SHL PUSH1 0x0 MSTORE PUSH1 0x21 PUSH1 0x4 MSTORE PUSH1 0x24 PUSH1 0x0 REVERT JUMPDEST PUSH1 0x0 DUP1 DUP1 DUP1 SWAP4 DUP9 PUSH1 0x1 DUP12 ADD SLOAD AND GAS CALL PUSH2 0x774 PUSH2 0x35C4 JUMP JUMPDEST POP ISZERO PUSH2 0x780 JUMPI DUP8 PUSH2 0x4CA JUMP JUMPDEST PUSH1 0x40 MLOAD PUSH3 0x461BCD PUSH1 0xE5 SHL DUP2 MSTORE PUSH1 0x4 DUP2 ADD DUP9 SWAP1 MSTORE PUSH1 0x17 PUSH1 0x24 DUP3 ADD MSTORE PUSH32 0x426F72726F776572207061796D656E74206661696C6564000000000000000000 PUSH1 0x44 DUP3 ADD MSTORE PUSH1 0x64 SWAP1 REVERT JUMPDEST PUSH1 0x0 DUP1 DUP1 DUP1 DUP5 DUP11 PUSH1 0x2 DUP14 ADD SLOAD AND GAS CALL PUSH2 0x7DC PUSH2 0x35C4 JUMP JUMPDEST POP PUSH2 0x4A1 JUMPI PUSH1 0x40 MLOAD PUSH3 0x461BCD PUSH1 0xE5 SHL DUP2 MSTORE PUSH1 0x4 DUP2 ADD DUP11 SWAP1 MSTORE PUSH1 0x15 PUSH1 0x24 DUP3 ADD MSTORE PUSH21 0x13195B99195C881C185E5B595B9D0819985A5B1959 PUSH1 0x5A SHL PUSH1 0x44 DUP3 ADD MSTORE PUSH1 0x64 SWAP1 REVERT JUMPDEST SWAP1 POP SWAP1 PUSH2 0x482 JUMP JUMPDEST SWAP2 POP POP PUSH1 0x3 PUSH1 0xC DUP5 ADD SWAP2 DUP3 SLOAD AND OR SWAP1 SSTORE PUSH2 0x840 DUP4 SLOAD PUSH2 0x3685 JUMP JUMPDEST PUSH2 0x545 JUMP JUMPDEST PUSH1 0x40 MLOAD PUSH3 0x461BCD PUSH1 0xE5 SHL DUP2 MSTORE PUSH1 0x4 DUP2 ADD DUP7 SWAP1 MSTORE PUSH1 0x15 PUSH1 0x24 DUP3 ADD MSTORE PUSH21 0x41756374696F6E207374696C6C206F6E676F696E67 PUSH1 0x58 SHL PUSH1 0x44 DUP3 ADD MSTORE PUSH1 0x64 SWAP1 REVERT JUMPDEST CALLVALUE PUSH2 0x264 JUMPI PUSH1 0x80 CALLDATASIZE PUSH1 0x3 NOT ADD SLT PUSH2 0x264 JUMPI PUSH1 0x24 CALLDATALOAD PUSH1 0x4 CALLDATALOAD PUSH2 0x8A1 PUSH2 0x2DB5 JUMP JUMPDEST PUSH2 0x2710 DUP3 GT PUSH2 0x901 JUMPI PUSH2 0x7D0 DUP2 GT PUSH2 0x8C7 JUMPI PUSH1 0x9 SSTORE PUSH1 0xA SSTORE PUSH1 0x44 CALLDATALOAD PUSH1 0xB SSTORE PUSH1 0x64 CALLDATALOAD PUSH1 0xC SSTORE STOP JUMPDEST PUSH1 0x40 MLOAD PUSH3 0x461BCD PUSH1 0xE5 SHL DUP2 MSTORE PUSH1 0x20 PUSH1 0x4 DUP3 ADD MSTORE PUSH1 0x12 PUSH1 0x24 DUP3 ADD MSTORE PUSH18 0x84C2E6CA40E4C2E8CA40E8DEDE40D0D2CED PUSH1 0x73 SHL PUSH1 0x44 DUP3 ADD MSTORE PUSH1 0x64 SWAP1 REVERT JUMPDEST PUSH1 0x40 MLOAD PUSH3 0x461BCD PUSH1 0xE5 SHL DUP2 MSTORE PUSH1 0x20 PUSH1 0x4 DUP3 ADD MSTORE PUSH1 0x1B PUSH1 0x24 DUP3 ADD MSTORE PUSH32 0x496E76616C6964206F7074696D616C207574696C697A6174696F6E0000000000 PUSH1 0x44 DUP3 ADD MSTORE PUSH1 0x64 SWAP1 REVERT JUMPDEST CALLVALUE PUSH2 0x264 JUMPI PUSH1 0x40 CALLDATASIZE PUSH1 0x3 NOT ADD SLT PUSH2 0x264 JUMPI PUSH2 0x95F PUSH2 0x2B3A JUMP JUMPDEST PUSH1 0x1 PUSH1 0x1 PUSH1 0xA0 SHL SUB AND PUSH1 0x0 SWAP1 DUP2 MSTORE PUSH1 0xF PUSH1 0x20 MSTORE PUSH1 0x40 SWAP1 KECCAK256 DUP1 SLOAD PUSH1 0x24 CALLDATALOAD SWAP2 SWAP1 DUP3 LT ISZERO PUSH2 0x264 JUMPI PUSH1 0x20 SWAP2 PUSH2 0x990 SWAP2 PUSH2 0x2B50 JUMP JUMPDEST SWAP1 SLOAD PUSH1 0x40 MLOAD SWAP2 PUSH1 0x3 SHL SHR DUP2 MSTORE RETURN JUMPDEST CALLVALUE PUSH2 0x264 JUMPI PUSH1 0x20 CALLDATASIZE PUSH1 0x3 NOT ADD SLT PUSH2 0x264 JUMPI PUSH1 0x4 CALLDATALOAD PUSH1 0x0 MSTORE PUSH1 0xD PUSH1 0x20 MSTORE PUSH1 0x40 PUSH1 0x0 KECCAK256 DUP1 SLOAD PUSH1 0x1 DUP1 PUSH1 0xA0 SHL SUB DUP1 PUSH1 0x1 DUP5 ADD SLOAD AND PUSH1 0x80 MSTORE PUSH1 0x2 DUP4 ADD SLOAD AND SWAP2 PUSH1 0x3 DUP2 ADD SLOAD PUSH1 0x4 DUP3 ADD SLOAD PUSH1 0x5 DUP4 ADD SLOAD PUSH1 0x6 DUP5 ADD SLOAD PUSH1 0x7 DUP6 ADD SLOAD PUSH1 0x8 DUP7 ADD SLOAD SWAP1 PUSH1 0x9 DUP8 ADD SLOAD SWAP3 PUSH1 0xA DUP9 ADD SLOAD SWAP5 PUSH1 0xB DUP10 ADD SLOAD SWAP7 PUSH1 0xFF PUSH1 0xC DUP12 ADD SLOAD AND SWAP9 PUSH2 0xA1F PUSH1 0xD DUP13 ADD PUSH2 0x2CCF JUMP JUMPDEST PUSH1 0xE0 MSTORE PUSH1 0xE DUP12 ADD SLOAD PUSH1 0xA0 MSTORE PUSH1 0xFF PUSH1 0xF DUP13 ADD SLOAD AND SWAP13 PUSH1 0x11 PUSH1 0x10 DUP14 ADD SLOAD SWAP13 ADD SLOAD SWAP13 PUSH1 0x40 MLOAD DUP1 PUSH1 0xC0 MSTORE MSTORE PUSH1 0x80 MLOAD PUSH1 0x20 PUSH1 0xC0 MLOAD ADD MSTORE PUSH1 0x40 PUSH1 0xC0 MLOAD ADD MSTORE PUSH1 0x60 PUSH1 0xC0 MLOAD ADD MSTORE PUSH1 0x80 PUSH1 0xC0 MLOAD ADD MSTORE PUSH1 0xA0 PUSH1 0xC0 MLOAD ADD MSTORE PUSH1 0xC0 DUP1 MLOAD ADD MSTORE PUSH1 0xE0 PUSH1 0xC0 MLOAD ADD MSTORE PUSH2 0x100 PUSH1 0xC0 MLOAD ADD MSTORE PUSH2 0x120 PUSH1 0xC0 MLOAD ADD MSTORE PUSH2 0x140 PUSH1 0xC0 MLOAD ADD MSTORE PUSH2 0x160 PUSH1 0xC0 MLOAD ADD MSTORE PUSH1 0x6 DUP2 LT ISZERO PUSH2 0x747 JUMPI PUSH2 0x180 PUSH1 0xC0 MLOAD ADD MSTORE PUSH2 0xAC5 PUSH2 0x240 DUP1 PUSH2 0x1A0 PUSH1 0xC0 MLOAD ADD MSTORE PUSH1 0xC0 MLOAD ADD PUSH1 0xE0 MLOAD PUSH2 0x2D75 JUMP JUMPDEST SWAP3 PUSH1 0xA0 MLOAD PUSH2 0x1C0 PUSH1 0xC0 MLOAD ADD MSTORE ISZERO ISZERO PUSH2 0x1E0 PUSH1 0xC0 MLOAD ADD MSTORE PUSH2 0x200 PUSH1 0xC0 MLOAD ADD MSTORE PUSH2 0x220 PUSH1 0xC0 MLOAD ADD MSTORE PUSH1 0xC0 MLOAD DUP1 SWAP2 SUB SWAP1 RETURN JUMPDEST PUSH1 0xC0 CALLDATASIZE PUSH1 0x3 NOT ADD SLT PUSH2 0x264 JUMPI PUSH1 0xA4 CALLDATALOAD PUSH8 0xFFFFFFFFFFFFFFFF DUP2 GT PUSH2 0x264 JUMPI PUSH2 0xB20 SWAP1 CALLDATASIZE SWAP1 PUSH1 0x4 ADD PUSH2 0x2BF5 JUMP JUMPDEST PUSH2 0xB28 PUSH2 0x35A1 JUMP JUMPDEST PUSH2 0xB30 PUSH2 0x3580 JUMP JUMPDEST PUSH1 0x44 CALLDATALOAD ISZERO PUSH2 0x12F9 JUMPI PUSH3 0x15180 PUSH1 0x84 CALLDATALOAD LT ISZERO DUP1 PUSH2 0x12E9 JUMPI JUMPDEST PUSH2 0xB50 SWAP1 PUSH2 0x3456 JUMP JUMPDEST PUSH1 0x4 CALLDATALOAD PUSH1 0x0 MSTORE PUSH1 0xE PUSH1 0x20 MSTORE PUSH2 0xB72 PUSH1 0xFF PUSH1 0x2 PUSH1 0x40 PUSH1 0x0 KECCAK256 ADD SLOAD PUSH1 0x8 SHR AND PUSH2 0x2DFC JUMP JUMPDEST PUSH1 0x24 CALLDATALOAD PUSH1 0x0 MSTORE PUSH1 0xE PUSH1 0x20 MSTORE PUSH1 0xFF PUSH1 0x2 PUSH1 0x40 PUSH1 0x0 KECCAK256 ADD SLOAD PUSH1 0x8 SHR AND ISZERO PUSH2 0x12A4 JUMPI DUP1 MLOAD ISZERO PUSH2 0x126A JUMPI CALLER PUSH1 0x0 MSTORE PUSH1 0x11 PUSH1 0x20 MSTORE PUSH1 0x40 PUSH1 0x0 KECCAK256 PUSH2 0x12C DUP2 SLOAD LT SWAP1 DUP2 ISZERO SWAP2 PUSH2 0x125D JUMPI JUMPDEST POP ISZERO PUSH2 0x1221 JUMPI PUSH2 0xBC6 PUSH1 0x4 CALLDATALOAD PUSH2 0x33BE JUMP JUMPDEST SWAP1 PUSH1 0x64 CALLDATALOAD DUP3 GT PUSH2 0x11E3 JUMPI PUSH2 0xBDE PUSH1 0x44 CALLDATALOAD PUSH1 0x4 CALLDATALOAD PUSH2 0x30A1 JUMP JUMPDEST DUP1 PUSH1 0x96 DUP2 MUL DIV PUSH1 0x96 EQ DUP2 ISZERO OR ISZERO PUSH2 0x659 JUMPI PUSH2 0xC98 SWAP1 PUSH2 0xC93 PUSH2 0xC01 PUSH1 0x24 CALLDATALOAD PUSH2 0x2E62 JUMP JUMPDEST POP SWAP2 PUSH1 0x24 CALLDATALOAD PUSH1 0x0 MSTORE PUSH1 0xE PUSH1 0x20 MSTORE PUSH1 0x64 PUSH1 0x96 PUSH2 0xC8B PUSH1 0x40 PUSH1 0x0 KECCAK256 PUSH1 0x2 PUSH1 0x40 MLOAD SWAP2 PUSH2 0xC29 DUP4 PUSH2 0x2B7E JUMP JUMPDEST DUP1 SLOAD PUSH2 0xC38 PUSH1 0xFF DUP3 AND DUP6 PUSH2 0x2DE1 JUMP JUMPDEST PUSH1 0x8 SHR PUSH1 0x1 PUSH1 0x1 PUSH1 0xA0 SHL SUB AND PUSH1 0x20 DUP5 ADD MSTORE PUSH2 0xC55 PUSH1 0x1 DUP3 ADD PUSH2 0x2CCF JUMP JUMPDEST PUSH1 0x40 DUP5 ADD MSTORE ADD SLOAD SWAP1 PUSH1 0xA0 PUSH1 0xFF DUP4 AND SWAP3 DUP4 PUSH1 0x60 DUP5 ADD MSTORE PUSH1 0xFF DUP2 PUSH1 0x8 SHR AND ISZERO ISZERO PUSH1 0x80 DUP5 ADD MSTORE PUSH1 0x1 DUP1 DUP4 SHL SUB SWAP1 PUSH1 0x10 SHR AND SWAP2 ADD MSTORE PUSH2 0x3070 JUMP JUMPDEST SWAP3 MUL DIV PUSH2 0x305D JUMP JUMPDEST PUSH2 0x3081 JUMP JUMPDEST PUSH1 0x24 CALLDATALOAD PUSH1 0x0 MSTORE PUSH1 0xE PUSH1 0x20 MSTORE PUSH1 0xFF PUSH1 0x40 PUSH1 0x0 KECCAK256 SLOAD AND PUSH1 0x2 DUP2 LT ISZERO PUSH2 0x747 JUMPI PUSH2 0x10A6 JUMPI DUP1 CALLVALUE LT PUSH2 0x1061 JUMPI JUMPDEST PUSH1 0x2 SLOAD SWAP1 PUSH2 0xCCE DUP3 PUSH2 0x2DED JUMP JUMPDEST PUSH1 0x2 SSTORE PUSH1 0x24 CALLDATALOAD PUSH1 0x0 MSTORE PUSH1 0xE PUSH1 0x20 MSTORE PUSH1 0xFF PUSH1 0x40 PUSH1 0x0 KECCAK256 SLOAD AND PUSH1 0x2 DUP2 LT ISZERO PUSH2 0x747 JUMPI PUSH2 0x105C JUMPI POP CALLVALUE JUMPDEST PUSH1 0x40 MLOAD SWAP1 PUSH2 0xD02 DUP3 PUSH2 0x2B9A JUMP JUMPDEST DUP3 DUP3 MSTORE CALLER PUSH1 0x20 DUP4 ADD MSTORE PUSH1 0x0 PUSH1 0x40 DUP4 ADD MSTORE PUSH1 0x4 CALLDATALOAD PUSH1 0x60 DUP4 ADD MSTORE PUSH1 0x24 CALLDATALOAD PUSH1 0x80 DUP4 ADD MSTORE PUSH1 0x44 CALLDATALOAD PUSH1 0xA0 DUP4 ADD MSTORE PUSH1 0xC0 DUP3 ADD MSTORE DUP4 PUSH1 0xE0 DUP3 ADD MSTORE PUSH1 0x84 CALLDATALOAD PUSH2 0x100 DUP3 ADD MSTORE TIMESTAMP PUSH2 0x120 DUP3 ADD MSTORE PUSH1 0x0 PUSH2 0x140 DUP3 ADD MSTORE PUSH1 0x0 PUSH2 0x160 DUP3 ADD MSTORE PUSH1 0x0 PUSH2 0x180 DUP3 ADD MSTORE DUP3 PUSH2 0x1A0 DUP3 ADD MSTORE PUSH1 0x0 PUSH2 0x1C0 DUP3 ADD MSTORE PUSH1 0x0 PUSH2 0x1E0 DUP3 ADD MSTORE PUSH1 0x78 PUSH2 0x200 DUP3 ADD MSTORE TIMESTAMP PUSH2 0x220 DUP3 ADD MSTORE DUP2 PUSH1 0x0 MSTORE PUSH1 0xD PUSH1 0x20 MSTORE PUSH1 0x40 PUSH1 0x0 KECCAK256 SWAP1 DUP1 MLOAD DUP3 SSTORE PUSH1 0x1 DUP3 ADD PUSH1 0x1 DUP1 PUSH1 0xA0 SHL SUB PUSH1 0x20 DUP4 ADD MLOAD AND SWAP1 PUSH1 0x1 PUSH1 0x1 PUSH1 0x60 SHL SUB PUSH1 0xA0 SHL SWAP2 DUP3 DUP3 SLOAD AND OR SWAP1 SSTORE PUSH1 0x2 DUP4 ADD SWAP1 PUSH1 0x1 DUP1 PUSH1 0xA0 SHL SUB PUSH1 0x40 DUP5 ADD MLOAD AND SWAP1 DUP3 SLOAD AND OR SWAP1 SSTORE PUSH1 0x60 DUP2 ADD MLOAD PUSH1 0x3 DUP4 ADD SSTORE PUSH1 0x80 DUP2 ADD MLOAD PUSH1 0x4 DUP4 ADD SSTORE PUSH1 0xA0 DUP2 ADD MLOAD PUSH1 0x5 DUP4 ADD SSTORE PUSH1 0xC0 DUP2 ADD MLOAD PUSH1 0x6 DUP4 ADD SSTORE PUSH1 0xE0 DUP2 ADD MLOAD PUSH1 0x7 DUP4 ADD SSTORE PUSH2 0x100 DUP2 ADD MLOAD PUSH1 0x8 DUP4 ADD SSTORE PUSH2 0x120 DUP2 ADD MLOAD PUSH1 0x9 DUP4 ADD SSTORE PUSH2 0x140 DUP2 ADD MLOAD PUSH1 0xA DUP4 ADD SSTORE PUSH2 0x160 DUP2 ADD MLOAD PUSH1 0xB DUP4 ADD SSTORE PUSH1 0xC DUP3 ADD PUSH2 0x180 DUP3 ADD MLOAD PUSH1 0x6 DUP2 LT ISZERO PUSH2 0x747 JUMPI PUSH1 0xFF DUP1 NOT DUP4 SLOAD AND SWAP2 AND OR SWAP1 SSTORE PUSH2 0x1A0 DUP2 ADD MLOAD DUP1 MLOAD SWAP1 PUSH8 0xFFFFFFFFFFFFFFFF DUP3 GT PUSH2 0x1046 JUMPI PUSH2 0xE76 PUSH1 0xD DUP6 ADD SLOAD PUSH2 0x2C95 JUMP JUMPDEST PUSH1 0x1F DUP2 GT PUSH2 0xFFF JUMPI JUMPDEST POP PUSH1 0x20 SWAP1 PUSH1 0x1F DUP4 GT PUSH1 0x1 EQ PUSH2 0xF89 JUMPI SWAP2 DUP1 PUSH1 0x11 SWAP5 SWAP3 PUSH2 0x220 SWAP5 PUSH1 0x0 SWAP3 PUSH2 0xF7E JUMPI JUMPDEST POP POP DUP2 PUSH1 0x1 SHL SWAP2 PUSH1 0x0 NOT SWAP1 PUSH1 0x3 SHL SHR NOT AND OR PUSH1 0xD DUP6 ADD SSTORE JUMPDEST PUSH2 0x1C0 DUP2 ADD MLOAD PUSH1 0xE DUP6 ADD SSTORE PUSH2 0xEE3 PUSH2 0x1E0 DUP3 ADD MLOAD ISZERO ISZERO PUSH1 0xF DUP7 ADD SWAP1 PUSH1 0xFF DUP1 NOT DUP4 SLOAD AND SWAP2 ISZERO ISZERO AND OR SWAP1 SSTORE JUMP JUMPDEST PUSH2 0x200 DUP2 ADD MLOAD PUSH1 0x10 DUP6 ADD SSTORE ADD MLOAD SWAP2 ADD SSTORE CALLER PUSH1 0x0 MSTORE PUSH1 0xF PUSH1 0x20 MSTORE PUSH2 0xF0A DUP2 PUSH1 0x40 PUSH1 0x0 KECCAK256 PUSH2 0x3495 JUMP JUMPDEST DUP1 PUSH1 0x0 MSTORE PUSH1 0xD PUSH1 0x20 MSTORE PUSH1 0x6 PUSH1 0x40 PUSH1 0x0 KECCAK256 ADD SLOAD SWAP3 PUSH1 0x40 MLOAD SWAP4 PUSH1 0x44 CALLDATALOAD DUP6 MSTORE PUSH1 0x20 DUP6 ADD MSTORE PUSH1 0x40 DUP5 ADD MSTORE PUSH1 0x84 CALLDATALOAD PUSH1 0x60 DUP5 ADD MSTORE PUSH1 0xA0 PUSH1 0x80 DUP5 ADD MSTORE PUSH32 0x5CB01012DBDED0C72D8576B4AEF55D60D8E2824466AC6F54F7822CC1DDB6AF3 PUSH1 0x4 CALLDATALOAD SWAP4 DUP1 PUSH2 0xF74 CALLER SWAP6 PUSH1 0xA0 DUP4 ADD SWAP1 PUSH2 0x2D75 JUMP JUMPDEST SUB SWAP1 LOG4 PUSH1 0x1 PUSH1 0x0 SSTORE STOP JUMPDEST ADD MLOAD SWAP1 POP DUP10 DUP1 PUSH2 0xEA0 JUMP JUMPDEST SWAP1 PUSH1 0xD DUP6 ADD PUSH1 0x0 MSTORE PUSH1 0x20 PUSH1 0x0 KECCAK256 SWAP2 PUSH1 0x0 JUMPDEST PUSH1 0x1F NOT DUP6 AND DUP2 LT PUSH2 0xFE7 JUMPI POP SWAP3 PUSH1 0x11 SWAP5 SWAP3 PUSH1 0x1 SWAP3 PUSH2 0x220 SWAP6 DUP4 PUSH1 0x1F NOT DUP2 AND LT PUSH2 0xFCE JUMPI JUMPDEST POP POP POP DUP2 SHL ADD PUSH1 0xD DUP6 ADD SSTORE PUSH2 0xEB8 JUMP JUMPDEST ADD MLOAD PUSH1 0x0 NOT PUSH1 0xF8 DUP5 PUSH1 0x3 SHL AND SHR NOT AND SWAP1 SSTORE DUP10 DUP1 DUP1 PUSH2 0xFBE JUMP JUMPDEST SWAP2 SWAP3 PUSH1 0x20 PUSH1 0x1 DUP2 SWAP3 DUP7 DUP6 ADD MLOAD DUP2 SSTORE ADD SWAP5 ADD SWAP3 ADD PUSH2 0xF9A JUMP JUMPDEST PUSH1 0xD DUP6 ADD PUSH1 0x0 MSTORE PUSH1 0x20 PUSH1 0x0 KECCAK256 PUSH1 0x1F DUP5 ADD PUSH1 0x5 SHR DUP2 ADD PUSH1 0x20 DUP6 LT PUSH2 0x103F JUMPI JUMPDEST PUSH1 0x1F DUP4 ADD PUSH1 0x5 SHR DUP3 ADD DUP2 LT PUSH2 0x1033 JUMPI POP POP PUSH2 0xE7F JUMP JUMPDEST PUSH1 0x0 DUP2 SSTORE PUSH1 0x1 ADD PUSH2 0x101D JUMP JUMPDEST POP DUP1 PUSH2 0x101D JUMP JUMPDEST PUSH4 0x4E487B71 PUSH1 0xE0 SHL PUSH1 0x0 MSTORE PUSH1 0x41 PUSH1 0x4 MSTORE PUSH1 0x24 PUSH1 0x0 REVERT JUMPDEST PUSH2 0xCF5 JUMP JUMPDEST PUSH1 0x40 MLOAD PUSH3 0x461BCD PUSH1 0xE5 SHL DUP2 MSTORE PUSH1 0x20 PUSH1 0x4 DUP3 ADD MSTORE PUSH1 0x1B PUSH1 0x24 DUP3 ADD MSTORE PUSH32 0x496E73756666696369656E742045544820636F6C6C61746572616C0000000000 PUSH1 0x44 DUP3 ADD MSTORE PUSH1 0x64 SWAP1 REVERT JUMPDEST CALLVALUE PUSH2 0x1192 JUMPI PUSH1 0x24 CALLDATALOAD PUSH1 0x0 MSTORE PUSH1 0xE PUSH1 0x20 MSTORE PUSH1 0x1 DUP1 PUSH1 0xA0 SHL SUB PUSH1 0x40 PUSH1 0x0 KECCAK256 SLOAD PUSH1 0x8 SHR AND PUSH1 0x40 MLOAD PUSH4 0x70A08231 PUSH1 0xE0 SHL DUP2 MSTORE CALLER PUSH1 0x4 DUP3 ADD MSTORE PUSH1 0x20 DUP2 PUSH1 0x24 DUP2 DUP6 GAS STATICCALL DUP1 ISZERO PUSH2 0x1186 JUMPI DUP4 SWAP2 PUSH1 0x0 SWAP2 PUSH2 0x1151 JUMPI JUMPDEST POP LT PUSH2 0x110C JUMPI DUP2 PUSH2 0x1107 SWAP2 ADDRESS SWAP1 CALLER SWAP1 PUSH2 0x34CF JUMP JUMPDEST PUSH2 0xCC1 JUMP JUMPDEST PUSH1 0x40 MLOAD PUSH3 0x461BCD PUSH1 0xE5 SHL DUP2 MSTORE PUSH1 0x20 PUSH1 0x4 DUP3 ADD MSTORE PUSH1 0x1A PUSH1 0x24 DUP3 ADD MSTORE PUSH32 0x496E73756666696369656E742045524332302062616C616E6365000000000000 PUSH1 0x44 DUP3 ADD MSTORE PUSH1 0x64 SWAP1 REVERT JUMPDEST SWAP2 POP POP PUSH1 0x20 DUP2 RETURNDATASIZE PUSH1 0x20 GT PUSH2 0x117E JUMPI JUMPDEST DUP2 PUSH2 0x116D PUSH1 0x20 SWAP4 DUP4 PUSH2 0x2BB7 JUMP JUMPDEST DUP2 ADD SUB SLT PUSH2 0x264 JUMPI DUP3 SWAP1 MLOAD DUP7 PUSH2 0x10F3 JUMP JUMPDEST RETURNDATASIZE SWAP2 POP PUSH2 0x1160 JUMP JUMPDEST PUSH1 0x40 MLOAD RETURNDATASIZE PUSH1 0x0 DUP3 RETURNDATACOPY RETURNDATASIZE SWAP1 REVERT JUMPDEST PUSH1 0x40 MLOAD PUSH3 0x461BCD PUSH1 0xE5 SHL DUP2 MSTORE PUSH1 0x20 PUSH1 0x4 DUP3 ADD MSTORE PUSH1 0x23 PUSH1 0x24 DUP3 ADD MSTORE PUSH32 0x455448206E6F74206E656564656420666F7220455243323020636F6C6C617465 PUSH1 0x44 DUP3 ADD MSTORE PUSH3 0x1C985B PUSH1 0xEA SHL PUSH1 0x64 DUP3 ADD MSTORE PUSH1 0x84 SWAP1 REVERT JUMPDEST PUSH1 0x40 MLOAD PUSH3 0x461BCD PUSH1 0xE5 SHL DUP2 MSTORE PUSH1 0x20 PUSH1 0x4 DUP3 ADD MSTORE PUSH1 0x16 PUSH1 0x24 DUP3 ADD MSTORE PUSH22 0x92DCE8CAE4CAE6E840E4C2E8CA40E8DEDE40D0D2CED PUSH1 0x53 SHL PUSH1 0x44 DUP3 ADD MSTORE PUSH1 0x64 SWAP1 REVERT JUMPDEST PUSH1 0x40 MLOAD PUSH3 0x461BCD PUSH1 0xE5 SHL DUP2 MSTORE PUSH1 0x20 PUSH1 0x4 DUP3 ADD MSTORE PUSH1 0x14 PUSH1 0x24 DUP3 ADD MSTORE PUSH20 0x4372656469742073636F726520746F6F206C6F77 PUSH1 0x60 SHL PUSH1 0x44 DUP3 ADD MSTORE PUSH1 0x64 SWAP1 REVERT JUMPDEST PUSH1 0x1 SWAP2 POP ADD SLOAD ISZERO DUP3 PUSH2 0xBB5 JUMP JUMPDEST PUSH1 0x40 MLOAD PUSH3 0x461BCD PUSH1 0xE5 SHL DUP2 MSTORE PUSH1 0x20 PUSH1 0x4 DUP3 ADD MSTORE PUSH1 0x12 PUSH1 0x24 DUP3 ADD MSTORE PUSH18 0x12541194C81A185CDA081C995C5D5A5C9959 PUSH1 0x72 SHL PUSH1 0x44 DUP3 ADD MSTORE PUSH1 0x64 SWAP1 REVERT JUMPDEST PUSH1 0x40 MLOAD PUSH3 0x461BCD PUSH1 0xE5 SHL DUP2 MSTORE PUSH1 0x20 PUSH1 0x4 DUP3 ADD MSTORE PUSH1 0x1E PUSH1 0x24 DUP3 ADD MSTORE PUSH32 0x436F6C6C61746572616C20746F6B656E206E6F7420737570706F727465640000 PUSH1 0x44 DUP3 ADD MSTORE PUSH1 0x64 SWAP1 REVERT JUMPDEST POP PUSH4 0x1E13380 PUSH1 0x84 CALLDATALOAD GT ISZERO PUSH2 0xB47 JUMP JUMPDEST PUSH1 0x40 MLOAD PUSH3 0x461BCD PUSH1 0xE5 SHL DUP2 MSTORE PUSH1 0x20 PUSH1 0x4 DUP3 ADD MSTORE PUSH1 0x1D PUSH1 0x24 DUP3 ADD MSTORE PUSH32 0x416D6F756E74206D7573742062652067726561746572207468616E2030000000 PUSH1 0x44 DUP3 ADD MSTORE PUSH1 0x64 SWAP1 REVERT JUMPDEST CALLVALUE PUSH2 0x264 JUMPI PUSH1 0x20 DUP1 PUSH1 0x3 NOT CALLDATASIZE ADD SLT PUSH2 0x264 JUMPI PUSH1 0x4 CALLDATALOAD SWAP1 PUSH2 0x135C PUSH2 0x35A1 JUMP JUMPDEST PUSH2 0x1365 DUP3 PUSH2 0x3203 JUMP JUMPDEST SWAP2 SWAP1 ISZERO PUSH2 0x15CB JUMPI DUP3 PUSH1 0x0 MSTORE PUSH1 0xD DUP2 MSTORE PUSH1 0x40 PUSH1 0x0 KECCAK256 SWAP2 PUSH1 0xC DUP4 ADD PUSH1 0x5 PUSH1 0xFF NOT DUP3 SLOAD AND OR SWAP1 SSTORE PUSH1 0x40 MLOAD SWAP2 PUSH2 0x1396 DUP4 PUSH2 0x2B9A JUMP JUMPDEST DUP4 SLOAD DUP4 MSTORE PUSH1 0x1 DUP1 PUSH1 0xA0 SHL SUB SWAP4 DUP5 PUSH1 0x1 DUP3 ADD SLOAD AND DUP3 DUP6 ADD MSTORE DUP5 PUSH1 0x2 DUP3 ADD SLOAD AND PUSH1 0x40 DUP6 ADD MSTORE PUSH1 0x3 DUP2 ADD SLOAD PUSH1 0x60 DUP6 ADD MSTORE PUSH2 0x1477 PUSH1 0x4 DUP3 ADD SLOAD PUSH1 0x80 DUP7 ADD SWAP1 DUP2 MSTORE PUSH1 0x5 DUP4 ADD SLOAD PUSH1 0xA0 DUP8 ADD MSTORE PUSH1 0x6 DUP4 ADD SLOAD SWAP1 PUSH1 0xC0 DUP8 ADD SWAP2 DUP3 MSTORE PUSH1 0x7 DUP5 ADD SLOAD PUSH1 0xE0 DUP9 ADD MSTORE PUSH1 0x8 DUP5 ADD SLOAD SWAP7 PUSH2 0x100 SWAP8 DUP9 DUP3 ADD MSTORE PUSH1 0x9 DUP6 ADD SLOAD PUSH2 0x120 DUP3 ADD MSTORE PUSH1 0xA DUP6 ADD SLOAD PUSH2 0x140 DUP3 ADD MSTORE PUSH1 0xB DUP6 ADD SLOAD PUSH2 0x160 DUP3 ADD MSTORE PUSH1 0x5 PUSH2 0x180 DUP3 ADD MSTORE PUSH2 0x1436 PUSH1 0xD DUP7 ADD PUSH2 0x2CCF JUMP JUMPDEST PUSH2 0x1A0 DUP3 ADD MSTORE PUSH1 0xE DUP6 ADD SLOAD PUSH2 0x1C0 DUP3 ADD MSTORE PUSH1 0xFF PUSH1 0xF DUP7 ADD SLOAD AND ISZERO ISZERO PUSH2 0x1E0 DUP3 ADD MSTORE PUSH2 0x220 PUSH1 0x11 PUSH1 0x10 DUP8 ADD SWAP7 DUP8 SLOAD PUSH2 0x200 DUP6 ADD MSTORE ADD SLOAD SWAP2 ADD MSTORE MLOAD SWAP1 MLOAD SWAP1 PUSH2 0x30A1 JUMP JUMPDEST SWAP4 PUSH1 0x50 DUP6 MUL DUP6 DUP2 DIV PUSH1 0x50 EQ DUP7 ISZERO OR ISZERO PUSH2 0x659 JUMPI PUSH1 0x4 SLOAD SWAP1 PUSH2 0x1497 DUP3 PUSH2 0x2DED JUMP JUMPDEST PUSH1 0x4 SSTORE PUSH3 0x15180 TIMESTAMP ADD SWAP8 DUP9 TIMESTAMP GT PUSH2 0x659 JUMPI PUSH1 0x40 MLOAD SWAP4 DUP5 ADD SWAP8 DUP5 DUP10 LT PUSH8 0xFFFFFFFFFFFFFFFF DUP11 GT OR PUSH2 0x1046 JUMPI PUSH32 0x7C37BB4475912066C94A3F055866BDADCF52198B65CB65ABA2F5BE08DFEB575D SWAP10 PUSH2 0x15AF DUP13 SWAP7 PUSH1 0x7 DUP8 DUP12 PUSH32 0xA832766A05F1BD0298B0268308621777CFE1E4EEA23AFE7C06BEEA79BC6DDD2D SWAP9 PUSH1 0x40 SWAP16 SWAP9 PUSH1 0x40 SWAP10 DUP11 MSTORE DUP13 DUP7 MSTORE DUP3 DUP7 ADD SWAP2 TIMESTAMP DUP4 MSTORE DUP11 DUP8 ADD DUP10 DUP2 MSTORE PUSH1 0x60 DUP9 ADD SWAP1 DUP12 DUP3 MSTORE PUSH1 0x64 PUSH1 0x80 DUP11 ADD SWAP4 DIV DUP4 MSTORE PUSH1 0xA0 DUP10 ADD SWAP5 PUSH1 0x0 DUP7 MSTORE PUSH1 0x13 PUSH1 0xC0 DUP12 ADD SWAP8 PUSH1 0x0 DUP10 MSTORE PUSH1 0xE0 DUP13 ADD SWAP10 PUSH1 0x1 DUP12 MSTORE PUSH1 0x0 MSTORE MSTORE DUP14 PUSH1 0x0 KECCAK256 SWAP10 MLOAD DUP11 SSTORE MLOAD PUSH1 0x1 DUP11 ADD SSTORE MLOAD PUSH1 0x2 DUP10 ADD SSTORE MLOAD PUSH1 0x3 DUP9 ADD SSTORE MLOAD PUSH1 0x4 DUP8 ADD SSTORE PUSH1 0x5 DUP7 ADD SWAP2 MLOAD AND PUSH1 0x1 PUSH1 0x1 PUSH1 0x60 SHL SUB PUSH1 0xA0 SHL DUP3 SLOAD AND OR SWAP1 SSTORE MLOAD PUSH1 0x6 DUP5 ADD SSTORE MLOAD ISZERO ISZERO SWAP2 ADD SWAP1 PUSH1 0xFF DUP1 NOT DUP4 SLOAD AND SWAP2 ISZERO ISZERO AND OR SWAP1 SSTORE JUMP JUMPDEST DUP3 MLOAD SWAP2 DUP3 MSTORE DUP8 DUP3 ADD MSTORE LOG3 SLOAD SWAP1 DUP4 MLOAD SWAP3 DUP4 MSTORE DUP3 ADD MSTORE LOG2 PUSH1 0x1 PUSH1 0x0 SSTORE STOP JUMPDEST PUSH1 0x64 SWAP1 PUSH1 0x40 MLOAD SWAP1 PUSH3 0x461BCD PUSH1 0xE5 SHL DUP3 MSTORE PUSH1 0x4 DUP3 ADD MSTORE PUSH1 0x16 PUSH1 0x24 DUP3 ADD MSTORE PUSH22 0x2637B0B71034B9903737BA103AB73232B93BB0BA32B9 PUSH1 0x51 SHL PUSH1 0x44 DUP3 ADD MSTORE REVERT JUMPDEST CALLVALUE PUSH2 0x264 JUMPI PUSH1 0x20 CALLDATASIZE PUSH1 0x3 NOT ADD SLT PUSH2 0x264 JUMPI PUSH1 0x4 CALLDATALOAD PUSH1 0x0 MSTORE PUSH1 0xE PUSH1 0x20 MSTORE PUSH1 0x40 PUSH1 0x0 KECCAK256 DUP1 SLOAD SWAP1 PUSH1 0xFF DUP3 AND SWAP2 PUSH1 0x2 PUSH2 0x163F PUSH1 0x1 DUP5 ADD PUSH2 0x2CCF JUMP JUMPDEST SWAP3 ADD SLOAD SWAP1 PUSH1 0x40 MLOAD SWAP4 PUSH1 0x2 DUP2 LT ISZERO PUSH2 0x747 JUMPI DUP5 MSTORE PUSH1 0x8 SHR PUSH1 0x1 PUSH1 0x1 PUSH1 0xA0 SHL SUB SWAP1 DUP2 AND PUSH1 0x20 DUP6 ADD MSTORE PUSH1 0xC0 PUSH1 0x40 DUP6 ADD DUP2 SWAP1 MSTORE DUP5 SWAP4 PUSH2 0x167C SWAP2 DUP6 ADD SWAP1 PUSH2 0x2D75 JUMP JUMPDEST SWAP2 PUSH1 0xFF DUP2 AND PUSH1 0x60 DUP6 ADD MSTORE PUSH1 0xFF DUP2 PUSH1 0x8 SHR AND ISZERO ISZERO PUSH1 0x80 DUP6 ADD MSTORE PUSH1 0x10 SHR AND PUSH1 0xA0 DUP4 ADD MSTORE SUB SWAP1 RETURN JUMPDEST CALLVALUE PUSH2 0x264 JUMPI PUSH1 0x20 CALLDATASIZE PUSH1 0x3 NOT ADD SLT PUSH2 0x264 JUMPI PUSH1 0x40 PUSH2 0x16BF PUSH1 0x4 CALLDATALOAD PUSH2 0x2E62 JUMP JUMPDEST DUP3 MLOAD SWAP2 DUP3 MSTORE PUSH1 0x20 DUP3 ADD MSTORE RETURN JUMPDEST CALLVALUE PUSH2 0x264 JUMPI PUSH1 0x0 CALLDATASIZE PUSH1 0x3 NOT ADD SLT PUSH2 0x264 JUMPI PUSH1 0x2 SLOAD PUSH1 0x0 NOT DUP2 ADD DUP2 DUP2 GT PUSH2 0x659 JUMPI PUSH2 0x16F4 SWAP1 PUSH2 0x3784 JUMP JUMPDEST SWAP1 PUSH1 0x0 SWAP1 PUSH1 0x1 SWAP1 DUP2 JUMPDEST DUP2 DUP2 LT PUSH2 0x1751 JUMPI POP POP POP PUSH2 0x1710 DUP2 PUSH2 0x3784 JUMP JUMPDEST SWAP2 PUSH1 0x0 JUMPDEST DUP3 DUP2 LT PUSH2 0x172D JUMPI PUSH1 0x40 MLOAD DUP1 PUSH2 0x1729 DUP7 DUP3 PUSH2 0x2C5A JUMP JUMPDEST SUB SWAP1 RETURN JUMPDEST DUP1 PUSH2 0x173B PUSH2 0x174C SWAP3 DUP5 PUSH2 0x37B6 JUMP JUMPDEST MLOAD PUSH2 0x1746 DUP3 DUP8 PUSH2 0x37B6 JUMP JUMPDEST MSTORE PUSH2 0x2DED JUMP JUMPDEST PUSH2 0x1714 JUMP JUMPDEST DUP1 PUSH1 0x0 MSTORE PUSH1 0xD PUSH1 0x20 MSTORE PUSH1 0xFF PUSH1 0xC PUSH1 0x40 PUSH1 0x0 KECCAK256 ADD SLOAD AND PUSH1 0x6 DUP2 LT ISZERO PUSH2 0x747 JUMPI DUP4 EQ PUSH2 0x1784 JUMPI JUMPDEST PUSH2 0x177F SWAP1 PUSH2 0x2DED JUMP JUMPDEST PUSH2 0x16FD JUMP JUMPDEST PUSH2 0x178D DUP2 PUSH2 0x3203 JUMP JUMPDEST POP ISZERO PUSH2 0x1776 JUMPI SWAP3 PUSH2 0x17A6 DUP2 DUP6 PUSH2 0x1746 PUSH2 0x177F SWAP5 DUP10 PUSH2 0x37B6 JUMP JUMPDEST SWAP4 SWAP1 POP PUSH2 0x1776 JUMP JUMPDEST CALLVALUE PUSH2 0x264 JUMPI PUSH1 0x0 CALLDATASIZE PUSH1 0x3 NOT ADD SLT PUSH2 0x264 JUMPI PUSH1 0x20 PUSH1 0x9 SLOAD PUSH1 0x40 MLOAD SWAP1 DUP2 MSTORE RETURN JUMPDEST CALLVALUE PUSH2 0x264 JUMPI PUSH1 0x40 CALLDATASIZE PUSH1 0x3 NOT ADD SLT PUSH2 0x264 JUMPI PUSH1 0x4 CALLDATALOAD PUSH1 0x24 CALLDATALOAD PUSH1 0x1 PUSH1 0x1 PUSH1 0xA0 SHL SUB DUP2 AND SWAP1 DUP2 SWAP1 SUB PUSH2 0x264 JUMPI PUSH2 0x17FD PUSH2 0x2DB5 JUMP JUMPDEST DUP2 PUSH1 0x0 MSTORE PUSH1 0xE PUSH1 0x20 MSTORE PUSH1 0xFF PUSH1 0x2 PUSH1 0x40 PUSH1 0x0 KECCAK256 ADD SLOAD PUSH1 0x8 SHR AND ISZERO PUSH2 0x1853 JUMPI PUSH1 0x0 SWAP2 DUP3 MSTORE PUSH1 0xE PUSH1 0x20 MSTORE PUSH1 0x40 SWAP1 SWAP2 KECCAK256 PUSH1 0x2 ADD DUP1 SLOAD PUSH3 0x10000 PUSH1 0x1 PUSH1 0xB0 SHL SUB NOT AND PUSH1 0x10 SWAP3 SWAP1 SWAP3 SHL PUSH3 0x10000 PUSH1 0x1 PUSH1 0xB0 SHL SUB AND SWAP2 SWAP1 SWAP2 OR SWAP1 SSTORE STOP JUMPDEST PUSH1 0x40 MLOAD PUSH3 0x461BCD PUSH1 0xE5 SHL DUP2 MSTORE PUSH1 0x20 PUSH1 0x4 DUP3 ADD MSTORE PUSH1 0x10 PUSH1 0x24 DUP3 ADD MSTORE PUSH16 0x546F6B656E206E6F7420616374697665 PUSH1 0x80 SHL PUSH1 0x44 DUP3 ADD MSTORE PUSH1 0x64 SWAP1 REVERT JUMPDEST PUSH1 0x20 DUP1 PUSH1 0x3 NOT CALLDATASIZE ADD SLT PUSH2 0x264 JUMPI PUSH1 0x4 CALLDATALOAD PUSH2 0x18A3 PUSH2 0x35A1 JUMP JUMPDEST DUP1 PUSH1 0x0 MSTORE PUSH1 0xD DUP3 MSTORE PUSH1 0x40 PUSH1 0x0 KECCAK256 SWAP1 PUSH1 0x1 DUP3 ADD SWAP1 PUSH1 0x1 DUP1 PUSH1 0xA0 SHL SUB DUP1 DUP4 SLOAD AND CALLER SUB PUSH2 0x1C5C JUMPI PUSH1 0xC DUP5 ADD SWAP3 DUP4 SLOAD SWAP5 PUSH1 0xFF DUP7 AND PUSH1 0x6 DUP2 LT ISZERO PUSH2 0x747 JUMPI PUSH1 0x1 PUSH2 0x18E8 SWAP2 EQ PUSH2 0x31C5 JUMP JUMPDEST PUSH1 0xB DUP2 ADD SLOAD TIMESTAMP GT PUSH2 0x1C28 JUMPI PUSH1 0x5 DUP2 ADD SWAP1 DUP2 SLOAD SWAP2 PUSH2 0x2710 SWAP7 PUSH1 0x2 PUSH2 0x1937 DUP10 PUSH2 0x1913 PUSH1 0x7 DUP8 ADD SLOAD DUP9 PUSH2 0x305D JUMP JUMPDEST DIV SWAP10 PUSH2 0x1921 PUSH1 0x5 SLOAD DUP13 PUSH2 0x305D JUMP JUMPDEST DIV SWAP10 PUSH2 0x1931 DUP12 PUSH2 0x4BF DUP4 DUP11 PUSH2 0x33B1 JUMP JUMPDEST SWAP7 PUSH2 0x33B1 JUMP JUMPDEST SWAP10 PUSH1 0xFF NOT AND OR SWAP1 SSTORE PUSH2 0x194B DUP8 PUSH1 0x8 SLOAD PUSH2 0x33B1 JUMP JUMPDEST PUSH1 0x8 SSTORE SLOAD SWAP6 PUSH1 0x3 DUP3 ADD SWAP7 DUP8 SLOAD PUSH1 0x0 MSTORE PUSH1 0x14 DUP11 MSTORE PUSH2 0x196E PUSH1 0x40 PUSH1 0x0 KECCAK256 SWAP2 DUP3 SLOAD PUSH2 0x2E55 JUMP JUMPDEST SWAP1 SSTORE DUP7 SLOAD DUP1 PUSH1 0x0 MSTORE PUSH1 0xE DUP11 MSTORE PUSH1 0xFF PUSH1 0x40 PUSH1 0x0 KECCAK256 SLOAD AND PUSH1 0x2 DUP2 LT ISZERO PUSH2 0x747 JUMPI PUSH2 0x1B85 JUMPI POP POP DUP7 CALLVALUE LT PUSH2 0x1B47 JUMPI PUSH1 0x0 DUP1 DUP1 SWAP4 DUP7 PUSH1 0x2 DUP4 SWAP6 ADD SLOAD AND GAS CALL PUSH2 0x19B0 PUSH2 0x35C4 JUMP JUMPDEST POP ISZERO PUSH2 0x1B02 JUMPI DUP5 CALLVALUE GT PUSH2 0x1AA7 JUMPI JUMPDEST PUSH2 0x19C7 DUP4 PUSH2 0x3685 JUMP JUMPDEST SLOAD AND SWAP3 DUP4 PUSH1 0x0 MSTORE PUSH1 0x11 DUP6 MSTORE PUSH1 0x40 PUSH1 0x0 KECCAK256 SWAP1 PUSH1 0x1 DUP3 ADD PUSH2 0x19EC DUP2 SLOAD DUP1 ISZERO PUSH2 0x1A9D JUMPI PUSH2 0x2DED JUMP JUMPDEST SWAP1 SSTORE TIMESTAMP PUSH1 0x6 DUP4 ADD SSTORE PUSH1 0x2 DUP3 ADD PUSH2 0x1A02 DUP2 SLOAD PUSH2 0x2DED JUMP JUMPDEST SWAP1 SSTORE DUP2 SLOAD SWAP1 PUSH1 0xA DUP3 ADD DUP1 SWAP3 GT PUSH2 0x659 JUMPI PUSH1 0x0 DUP1 MLOAD PUSH1 0x20 PUSH2 0x37CB DUP4 CODECOPY DUP2 MLOAD SWAP2 MSTORE SWAP6 PUSH32 0x79C012A0CFAE660E09134956BC432C8497EC80E86A3A108D130E8B3FCA52B3AD DUP9 PUSH32 0x40CEE90EE4799897C30CA04E5FEB6FA43DBBA9B6D084B4B257CDAFD84BA013E SWAP6 DUP2 SWAP6 PUSH2 0x352 SWAP1 DUP2 DUP2 GT PUSH1 0x0 EQ PUSH2 0x1A94 JUMPI POP DUP1 SWAP2 JUMPDEST SSTORE PUSH1 0x40 MLOAD SWAP1 DUP2 MSTORE LOG2 PUSH1 0x40 MLOAD SWAP1 DUP2 MSTORE LOG2 SLOAD SWAP2 PUSH2 0x644 DUP4 PUSH2 0x33BE JUMP JUMPDEST SWAP1 POP DUP1 SWAP2 PUSH2 0x1A7A JUMP JUMPDEST PUSH2 0x23F DUP6 SSTORE PUSH2 0x2DED JUMP JUMPDEST PUSH1 0x0 DUP1 DUP1 DUP1 PUSH2 0x1AB6 DUP10 CALLVALUE PUSH2 0x2E55 JUMP JUMPDEST CALLER GAS CALL PUSH2 0x1AC1 PUSH2 0x35C4 JUMP JUMPDEST POP PUSH2 0x19BE JUMPI PUSH1 0x40 MLOAD PUSH3 0x461BCD PUSH1 0xE5 SHL DUP2 MSTORE PUSH1 0x4 DUP2 ADD DUP8 SWAP1 MSTORE PUSH1 0x14 PUSH1 0x24 DUP3 ADD MSTORE PUSH20 0x115E18D95CDCC81C995D1D5C9B8819985A5B1959 PUSH1 0x62 SHL PUSH1 0x44 DUP3 ADD MSTORE PUSH1 0x64 SWAP1 REVERT JUMPDEST PUSH1 0x40 MLOAD PUSH3 0x461BCD PUSH1 0xE5 SHL DUP2 MSTORE PUSH1 0x4 DUP2 ADD DUP8 SWAP1 MSTORE PUSH1 0x19 PUSH1 0x24 DUP3 ADD MSTORE PUSH32 0x5472616E7366657220746F206C656E646572206661696C656400000000000000 PUSH1 0x44 DUP3 ADD MSTORE PUSH1 0x64 SWAP1 REVERT JUMPDEST PUSH1 0x40 MLOAD PUSH3 0x461BCD PUSH1 0xE5 SHL DUP2 MSTORE PUSH1 0x4 DUP2 ADD DUP10 SWAP1 MSTORE PUSH1 0x16 PUSH1 0x24 DUP3 ADD MSTORE PUSH22 0x125B9CDD59999A58DA595B9D081C995C185E5B595B9D PUSH1 0x52 SHL PUSH1 0x44 DUP3 ADD MSTORE PUSH1 0x64 SWAP1 REVERT JUMPDEST SWAP3 SWAP1 SWAP2 SWAP3 CALLVALUE PUSH2 0x1BD8 JUMPI SWAP1 PUSH2 0x1BB3 SWAP2 PUSH1 0x0 MSTORE PUSH1 0xE DUP11 MSTORE DUP6 PUSH1 0x2 DUP2 PUSH1 0x40 PUSH1 0x0 KECCAK256 SLOAD PUSH1 0x8 SHR AND SWAP6 ADD SLOAD AND CALLER DUP6 PUSH2 0x34CF JUMP JUMPDEST DUP1 PUSH2 0x1BC0 JUMPI JUMPDEST POP POP PUSH2 0x19BE JUMP JUMPDEST PUSH2 0x1BD1 SWAP2 DUP5 PUSH1 0x7 SLOAD AND SWAP1 CALLER SWAP1 PUSH2 0x34CF JUMP JUMPDEST DUP7 DUP1 PUSH2 0x1BB9 JUMP JUMPDEST PUSH1 0x40 MLOAD PUSH3 0x461BCD PUSH1 0xE5 SHL DUP2 MSTORE PUSH1 0x4 DUP2 ADD DUP12 SWAP1 MSTORE PUSH1 0x22 PUSH1 0x24 DUP3 ADD MSTORE PUSH32 0x455448206E6F74206E656564656420666F722045524332302072657061796D65 PUSH1 0x44 DUP3 ADD MSTORE PUSH2 0x1B9D PUSH1 0xF2 SHL PUSH1 0x64 DUP3 ADD MSTORE PUSH1 0x84 SWAP1 REVERT JUMPDEST PUSH1 0x40 MLOAD PUSH3 0x461BCD PUSH1 0xE5 SHL DUP2 MSTORE PUSH1 0x4 DUP2 ADD DUP9 SWAP1 MSTORE PUSH1 0xC PUSH1 0x24 DUP3 ADD MSTORE PUSH12 0x131BD85B88195E1C1A5C9959 PUSH1 0xA2 SHL PUSH1 0x44 DUP3 ADD MSTORE PUSH1 0x64 SWAP1 REVERT JUMPDEST PUSH1 0x40 MLOAD PUSH3 0x461BCD PUSH1 0xE5 SHL DUP2 MSTORE PUSH1 0x4 DUP2 ADD DUP7 SWAP1 MSTORE PUSH1 0x17 PUSH1 0x24 DUP3 ADD MSTORE PUSH32 0x4F6E6C7920626F72726F7765722063616E207265706179000000000000000000 PUSH1 0x44 DUP3 ADD MSTORE PUSH1 0x64 SWAP1 REVERT JUMPDEST CALLVALUE PUSH2 0x264 JUMPI PUSH2 0x1CAF CALLDATASIZE PUSH2 0x2B24 JUMP JUMPDEST PUSH2 0x1CB7 PUSH2 0x2DB5 JUMP JUMPDEST PUSH2 0x3E8 DUP3 GT PUSH2 0x1CEA JUMPI DUP1 PUSH2 0xE10 PUSH2 0x1CD7 SWAP3 LT ISZERO SWAP1 DUP2 PUSH2 0x1CDC JUMPI JUMPDEST POP PUSH2 0x3456 JUMP JUMPDEST PUSH1 0x6 SSTORE STOP JUMPDEST PUSH3 0x93A80 SWAP2 POP GT ISZERO DUP4 PUSH2 0x1CD1 JUMP JUMPDEST PUSH1 0x40 MLOAD PUSH3 0x461BCD PUSH1 0xE5 SHL DUP2 MSTORE PUSH1 0x20 PUSH1 0x4 DUP3 ADD MSTORE PUSH1 0xC PUSH1 0x24 DUP3 ADD MSTORE PUSH12 0x8CCACA40E8DEDE40D0D2CED PUSH1 0xA3 SHL PUSH1 0x44 DUP3 ADD MSTORE PUSH1 0x64 SWAP1 REVERT JUMPDEST PUSH2 0x2C3C JUMP JUMPDEST PUSH1 0x20 DUP1 PUSH1 0x3 NOT CALLDATASIZE ADD SLT PUSH2 0x264 JUMPI PUSH1 0x4 CALLDATALOAD PUSH2 0x1D3B PUSH2 0x35A1 JUMP JUMPDEST DUP1 PUSH1 0x0 MSTORE PUSH1 0x13 DUP3 MSTORE PUSH1 0x40 PUSH1 0x0 KECCAK256 PUSH2 0x1D58 PUSH1 0xFF PUSH1 0x7 DUP4 ADD SLOAD AND PUSH2 0x35F4 JUMP JUMPDEST PUSH1 0x2 DUP2 ADD SLOAD TIMESTAMP GT PUSH2 0x1E9D JUMPI PUSH1 0x6 DUP2 ADD SWAP1 DUP2 SLOAD SWAP1 DUP2 CALLVALUE GT ISZERO PUSH2 0x1E6A JUMPI PUSH1 0x4 DUP2 ADD SLOAD CALLVALUE LT PUSH2 0x1E31 JUMPI PUSH1 0x5 ADD DUP1 SLOAD SWAP1 SWAP2 SWAP1 PUSH1 0x1 PUSH1 0x1 PUSH1 0xA0 SHL SUB AND DUP1 PUSH2 0x1DDE JUMPI JUMPDEST POP POP CALLER PUSH1 0x1 PUSH1 0x1 PUSH1 0x60 SHL SUB PUSH1 0xA0 SHL DUP3 SLOAD AND OR SWAP1 SSTORE CALLVALUE SWAP1 SSTORE PUSH32 0xE54EFF26401BF69B81B26F60BD85EF47F5D85275C1D268D84F68D6897431C47 PUSH1 0x40 MLOAD SWAP3 CALLVALUE DUP5 MSTORE CALLER SWAP4 LOG3 PUSH1 0x1 PUSH1 0x0 SSTORE STOP JUMPDEST PUSH1 0x0 DUP1 DUP1 SWAP4 DUP2 SWAP4 GAS CALL PUSH2 0x1DEF PUSH2 0x35C4 JUMP JUMPDEST POP ISZERO PUSH2 0x1DFC JUMPI DUP5 DUP1 PUSH2 0x1D95 JUMP JUMPDEST PUSH1 0x40 MLOAD PUSH3 0x461BCD PUSH1 0xE5 SHL DUP2 MSTORE PUSH1 0x4 DUP2 ADD DUP6 SWAP1 MSTORE PUSH1 0xD PUSH1 0x24 DUP3 ADD MSTORE PUSH13 0x1499599D5B990819985A5B1959 PUSH1 0x9A SHL PUSH1 0x44 DUP3 ADD MSTORE PUSH1 0x64 SWAP1 REVERT JUMPDEST PUSH1 0x40 MLOAD PUSH3 0x461BCD PUSH1 0xE5 SHL DUP2 MSTORE PUSH1 0x4 DUP2 ADD DUP7 SWAP1 MSTORE PUSH1 0x11 PUSH1 0x24 DUP3 ADD MSTORE PUSH17 0x4269642062656C6F772072657365727665 PUSH1 0x78 SHL PUSH1 0x44 DUP3 ADD MSTORE PUSH1 0x64 SWAP1 REVERT JUMPDEST PUSH1 0x40 MLOAD PUSH3 0x461BCD PUSH1 0xE5 SHL DUP2 MSTORE PUSH1 0x4 DUP2 ADD DUP7 SWAP1 MSTORE PUSH1 0xB PUSH1 0x24 DUP3 ADD MSTORE PUSH11 0x42696420746F6F206C6F77 PUSH1 0xA8 SHL PUSH1 0x44 DUP3 ADD MSTORE PUSH1 0x64 SWAP1 REVERT JUMPDEST PUSH1 0x40 MLOAD PUSH3 0x461BCD PUSH1 0xE5 SHL DUP2 MSTORE PUSH1 0x4 DUP2 ADD DUP5 SWAP1 MSTORE PUSH1 0xD PUSH1 0x24 DUP3 ADD MSTORE PUSH13 0x105D58DD1A5BDB88195B991959 PUSH1 0x9A SHL PUSH1 0x44 DUP3 ADD MSTORE PUSH1 0x64 SWAP1 REVERT JUMPDEST CALLVALUE PUSH2 0x264 JUMPI PUSH1 0x0 CALLDATASIZE PUSH1 0x3 NOT ADD SLT PUSH2 0x264 JUMPI PUSH1 0x2 SLOAD PUSH1 0x0 NOT DUP2 ADD DUP2 DUP2 GT PUSH2 0x659 JUMPI PUSH2 0x1EFB SWAP1 PUSH2 0x3784 JUMP JUMPDEST SWAP1 PUSH1 0x0 SWAP1 PUSH1 0x1 JUMPDEST DUP2 DUP2 LT PUSH2 0x1F40 JUMPI POP POP PUSH2 0x1F14 DUP2 PUSH2 0x3784 JUMP JUMPDEST SWAP2 PUSH1 0x0 JUMPDEST DUP3 DUP2 LT PUSH2 0x1F2D JUMPI PUSH1 0x40 MLOAD DUP1 PUSH2 0x1729 DUP7 DUP3 PUSH2 0x2C5A JUMP JUMPDEST DUP1 PUSH2 0x173B PUSH2 0x1F3B SWAP3 DUP5 PUSH2 0x37B6 JUMP JUMPDEST PUSH2 0x1F18 JUMP JUMPDEST DUP1 PUSH1 0x0 MSTORE PUSH1 0xD PUSH1 0x20 MSTORE PUSH1 0xFF PUSH1 0xC PUSH1 0x40 PUSH1 0x0 KECCAK256 ADD SLOAD AND PUSH1 0x6 DUP2 LT ISZERO PUSH2 0x747 JUMPI ISZERO PUSH2 0x1F72 JUMPI JUMPDEST PUSH2 0x1F6D SWAP1 PUSH2 0x2DED JUMP JUMPDEST PUSH2 0x1F02 JUMP JUMPDEST SWAP2 PUSH2 0x1F85 DUP2 DUP5 PUSH2 0x1746 PUSH2 0x1F6D SWAP5 DUP9 PUSH2 0x37B6 JUMP JUMPDEST SWAP3 SWAP1 POP PUSH2 0x1F64 JUMP JUMPDEST CALLVALUE PUSH2 0x264 JUMPI PUSH1 0x0 CALLDATASIZE PUSH1 0x3 NOT ADD SLT PUSH2 0x264 JUMPI PUSH1 0x20 PUSH1 0x40 MLOAD PUSH1 0x78 DUP2 MSTORE RETURN JUMPDEST CALLVALUE PUSH2 0x264 JUMPI PUSH1 0x0 CALLDATASIZE PUSH1 0x3 NOT ADD SLT PUSH2 0x264 JUMPI PUSH1 0x20 PUSH1 0x8 SLOAD PUSH1 0x40 MLOAD SWAP1 DUP2 MSTORE RETURN JUMPDEST CALLVALUE PUSH2 0x264 JUMPI PUSH1 0x0 CALLDATASIZE PUSH1 0x3 NOT ADD SLT PUSH2 0x264 JUMPI PUSH1 0x1 SLOAD PUSH1 0x40 MLOAD PUSH1 0x1 PUSH1 0x1 PUSH1 0xA0 SHL SUB SWAP1 SWAP2 AND DUP2 MSTORE PUSH1 0x20 SWAP1 RETURN JUMPDEST CALLVALUE PUSH2 0x264 JUMPI PUSH1 0x0 CALLDATASIZE PUSH1 0x3 NOT ADD SLT PUSH2 0x264 JUMPI PUSH1 0x20 PUSH1 0x2 SLOAD PUSH1 0x40 MLOAD SWAP1 DUP2 MSTORE RETURN JUMPDEST PUSH1 0x20 DUP1 PUSH1 0x3 NOT CALLDATASIZE ADD SLT PUSH2 0x264 JUMPI PUSH1 0x4 CALLDATALOAD PUSH2 0x2026 PUSH2 0x35A1 JUMP JUMPDEST PUSH2 0x202E PUSH2 0x3580 JUMP JUMPDEST DUP1 PUSH1 0x0 MSTORE PUSH1 0xD DUP3 MSTORE PUSH1 0x40 PUSH1 0x0 KECCAK256 SWAP1 PUSH1 0x1 DUP3 ADD PUSH1 0x1 DUP1 PUSH1 0xA0 SHL SUB DUP1 DUP3 SLOAD AND PUSH2 0x2056 DUP2 ISZERO ISZERO PUSH2 0x3183 JUMP JUMPDEST PUSH1 0xC DUP6 ADD SWAP1 DUP2 SLOAD SWAP1 PUSH1 0xFF DUP3 AND PUSH1 0x6 DUP2 LT ISZERO PUSH2 0x747 JUMPI PUSH2 0x22BB JUMPI CALLER EQ PUSH2 0x227F JUMPI PUSH1 0x2 DUP7 ADD DUP1 SLOAD PUSH1 0x1 PUSH1 0x1 PUSH1 0xA0 SHL SUB NOT AND CALLER OR SWAP1 SSTORE PUSH1 0xFF NOT AND PUSH1 0x1 OR SWAP1 SSTORE TIMESTAMP PUSH1 0xA DUP6 ADD DUP2 SWAP1 SSTORE PUSH1 0x8 DUP6 ADD SLOAD PUSH2 0x20A8 SWAP2 PUSH2 0x33B1 JUMP JUMPDEST PUSH1 0xB DUP6 ADD SSTORE CALLER PUSH1 0x0 MSTORE PUSH1 0x10 DUP6 MSTORE PUSH2 0x20C3 DUP4 PUSH1 0x40 PUSH1 0x0 KECCAK256 PUSH2 0x3495 JUMP JUMPDEST PUSH1 0x5 DUP5 ADD PUSH1 0x3 DUP2 SLOAD SWAP6 ADD SWAP5 DUP6 SLOAD PUSH1 0x0 MSTORE PUSH1 0x14 DUP8 MSTORE PUSH2 0x20E7 PUSH1 0x40 PUSH1 0x0 KECCAK256 SWAP2 DUP3 SLOAD PUSH2 0x33B1 JUMP JUMPDEST SWAP1 SSTORE DUP5 SLOAD DUP1 PUSH1 0x0 MSTORE PUSH1 0xE DUP8 MSTORE PUSH1 0xFF PUSH1 0x40 PUSH1 0x0 KECCAK256 SLOAD AND PUSH1 0x2 DUP2 LT ISZERO PUSH2 0x747 JUMPI PUSH2 0x21F2 JUMPI POP SLOAD SWAP2 DUP3 CALLVALUE SUB PUSH2 0x21B6 JUMPI PUSH1 0x0 DUP1 SWAP4 DUP2 SWAP4 DUP3 SWAP4 SLOAD AND GAS CALL PUSH2 0x2127 PUSH2 0x35C4 JUMP JUMPDEST POP ISZERO PUSH2 0x2171 JUMPI SWAP1 PUSH1 0x0 DUP1 MLOAD PUSH1 0x20 PUSH2 0x37CB DUP4 CODECOPY DUP2 MLOAD SWAP2 MSTORE SWAP2 JUMPDEST CALLER SWAP1 PUSH32 0x15FEAB5D3EB17171632762CF769709A315DD15F487A556C0DFB8A259C8F186CC PUSH1 0x0 DUP1 LOG3 SLOAD SWAP2 PUSH2 0x644 DUP4 PUSH2 0x33BE JUMP JUMPDEST PUSH1 0x40 MLOAD PUSH3 0x461BCD PUSH1 0xE5 SHL DUP2 MSTORE PUSH1 0x4 DUP2 ADD DUP5 SWAP1 MSTORE PUSH1 0x1B PUSH1 0x24 DUP3 ADD MSTORE PUSH32 0x5472616E7366657220746F20626F72726F776572206661696C65640000000000 PUSH1 0x44 DUP3 ADD MSTORE PUSH1 0x64 SWAP1 REVERT JUMPDEST PUSH1 0x40 MLOAD PUSH3 0x461BCD PUSH1 0xE5 SHL DUP2 MSTORE PUSH1 0x4 DUP2 ADD DUP8 SWAP1 MSTORE PUSH1 0x14 PUSH1 0x24 DUP3 ADD MSTORE PUSH20 0x125B98DBDC9C9958DD0811551208185B5BDD5B9D PUSH1 0x62 SHL PUSH1 0x44 DUP3 ADD MSTORE PUSH1 0x64 SWAP1 REVERT JUMPDEST SWAP6 SWAP5 SWAP4 SWAP3 SWAP6 SWAP2 SWAP1 SWAP2 CALLVALUE PUSH2 0x223A JUMPI SWAP2 PUSH1 0x0 DUP1 MLOAD PUSH1 0x20 PUSH2 0x37CB DUP4 CODECOPY DUP2 MLOAD SWAP2 MSTORE SWAP6 SWAP7 SWAP2 PUSH2 0x2235 SWAP4 PUSH1 0x0 MSTORE PUSH1 0xE DUP9 MSTORE DUP1 PUSH1 0x40 PUSH1 0x0 KECCAK256 SLOAD PUSH1 0x8 SHR AND SWAP3 SLOAD AND SWAP1 SLOAD SWAP2 CALLER SWAP1 PUSH2 0x34CF JUMP JUMPDEST PUSH2 0x213F JUMP JUMPDEST PUSH1 0x40 MLOAD PUSH3 0x461BCD PUSH1 0xE5 SHL DUP2 MSTORE PUSH1 0x4 DUP2 ADD DUP8 SWAP1 MSTORE PUSH1 0x1D PUSH1 0x24 DUP3 ADD MSTORE PUSH32 0x455448206E6F74206E656564656420666F72204552433230206C6F616E000000 PUSH1 0x44 DUP3 ADD MSTORE PUSH1 0x64 SWAP1 REVERT JUMPDEST PUSH1 0x40 MLOAD PUSH3 0x461BCD PUSH1 0xE5 SHL DUP2 MSTORE PUSH1 0x4 DUP2 ADD DUP9 SWAP1 MSTORE PUSH1 0x14 PUSH1 0x24 DUP3 ADD MSTORE PUSH20 0x21B0B73737BA10333AB7321037BBB7103637B0B7 PUSH1 0x61 SHL PUSH1 0x44 DUP3 ADD MSTORE PUSH1 0x64 SWAP1 REVERT JUMPDEST PUSH1 0x40 MLOAD PUSH3 0x461BCD PUSH1 0xE5 SHL DUP2 MSTORE PUSH1 0x4 DUP2 ADD DUP10 SWAP1 MSTORE PUSH1 0x12 PUSH1 0x24 DUP3 ADD MSTORE PUSH18 0x4C6F616E206E6F7420617661696C61626C65 PUSH1 0x70 SHL PUSH1 0x44 DUP3 ADD MSTORE PUSH1 0x64 SWAP1 REVERT JUMPDEST CALLVALUE PUSH2 0x264 JUMPI PUSH1 0x0 CALLDATASIZE PUSH1 0x3 NOT ADD SLT PUSH2 0x264 JUMPI PUSH2 0x230E PUSH2 0x2DB5 JUMP JUMPDEST PUSH2 0x2316 PUSH2 0x3580 JUMP JUMPDEST PUSH1 0x1 DUP1 SLOAD PUSH1 0xFF PUSH1 0xA0 SHL NOT AND PUSH1 0x1 PUSH1 0xA0 SHL OR SWAP1 SSTORE PUSH1 0x40 MLOAD CALLER DUP2 MSTORE PUSH32 0x62E78CEA01BEE320CD4E420270B5EA74000D11B0C9F74754EBDBFC544B05A258 SWAP1 PUSH1 0x20 SWAP1 LOG1 STOP JUMPDEST CALLVALUE PUSH2 0x264 JUMPI PUSH1 0x20 CALLDATASIZE PUSH1 0x3 NOT ADD SLT PUSH2 0x264 JUMPI PUSH1 0x20 PUSH2 0x2375 PUSH1 0x4 CALLDATALOAD PUSH2 0x33BE JUMP JUMPDEST PUSH1 0x40 MLOAD SWAP1 DUP2 MSTORE RETURN JUMPDEST CALLVALUE PUSH2 0x264 JUMPI PUSH1 0x20 CALLDATASIZE PUSH1 0x3 NOT ADD SLT PUSH2 0x264 JUMPI PUSH1 0x1 PUSH1 0x1 PUSH1 0xA0 SHL SUB PUSH2 0x239E PUSH2 0x2B3A JUMP JUMPDEST AND PUSH1 0x0 MSTORE PUSH1 0x11 PUSH1 0x20 MSTORE PUSH1 0xE0 PUSH1 0x40 PUSH1 0x0 KECCAK256 DUP1 SLOAD SWAP1 PUSH1 0x1 DUP2 ADD SLOAD SWAP1 PUSH1 0x2 DUP2 ADD SLOAD PUSH1 0x3 DUP3 ADD SLOAD PUSH1 0x4 DUP4 ADD SLOAD SWAP2 PUSH1 0x6 PUSH1 0x5 DUP6 ADD SLOAD SWAP5 ADD SLOAD SWAP5 PUSH1 0x40 MLOAD SWAP7 DUP8 MSTORE PUSH1 0x20 DUP8 ADD MSTORE PUSH1 0x40 DUP7 ADD MSTORE PUSH1 0x60 DUP6 ADD MSTORE PUSH1 0x80 DUP5 ADD MSTORE PUSH1 0xA0 DUP4 ADD MSTORE PUSH1 0xC0 DUP3 ADD MSTORE RETURN JUMPDEST CALLVALUE PUSH2 0x264 JUMPI PUSH1 0x0 CALLDATASIZE PUSH1 0x3 NOT ADD SLT PUSH2 0x264 JUMPI PUSH1 0x20 PUSH1 0x40 MLOAD PUSH1 0x96 DUP2 MSTORE RETURN JUMPDEST CALLVALUE PUSH2 0x264 JUMPI PUSH1 0x20 CALLDATASIZE PUSH1 0x3 NOT ADD SLT PUSH2 0x264 JUMPI PUSH1 0x4 CALLDATALOAD PUSH1 0x0 MSTORE PUSH1 0x14 PUSH1 0x20 MSTORE PUSH1 0x20 PUSH1 0x40 PUSH1 0x0 KECCAK256 SLOAD PUSH1 0x40 MLOAD SWAP1 DUP2 MSTORE RETURN JUMPDEST CALLVALUE PUSH2 0x264 JUMPI PUSH1 0x0 CALLDATASIZE PUSH1 0x3 NOT ADD SLT PUSH2 0x264 JUMPI PUSH1 0x20 PUSH1 0x3 SLOAD PUSH1 0x40 MLOAD SWAP1 DUP2 MSTORE RETURN JUMPDEST CALLVALUE PUSH2 0x264 JUMPI PUSH1 0x0 CALLDATASIZE PUSH1 0x3 NOT ADD SLT PUSH2 0x264 JUMPI PUSH2 0x2477 PUSH2 0x2DB5 JUMP JUMPDEST PUSH1 0x1 DUP1 SLOAD PUSH1 0x1 PUSH1 0x1 PUSH1 0xA0 SHL SUB NOT DUP2 AND SWAP1 SWAP2 SSTORE PUSH1 0x0 SWAP1 PUSH1 0x1 PUSH1 0x1 PUSH1 0xA0 SHL SUB AND PUSH32 0x8BE0079C531659141344CD1FD0A4F28419497F9722A3DAAFE3B4186F6B6457E0 DUP3 DUP1 LOG3 STOP JUMPDEST CALLVALUE PUSH2 0x264 JUMPI PUSH1 0x20 CALLDATASIZE PUSH1 0x3 NOT ADD SLT PUSH2 0x264 JUMPI PUSH1 0x1 PUSH1 0x1 PUSH1 0xA0 SHL SUB PUSH2 0x24DC PUSH2 0x2B3A JUMP JUMPDEST AND PUSH1 0x0 MSTORE PUSH1 0x12 PUSH1 0x20 MSTORE PUSH1 0x20 PUSH1 0xFF PUSH1 0x40 PUSH1 0x0 KECCAK256 SLOAD AND PUSH1 0x40 MLOAD SWAP1 ISZERO ISZERO DUP2 MSTORE RETURN JUMPDEST CALLVALUE PUSH2 0x264 JUMPI PUSH1 0x0 CALLDATASIZE PUSH1 0x3 NOT ADD SLT PUSH2 0x264 JUMPI PUSH1 0x20 PUSH1 0x6 SLOAD PUSH1 0x40 MLOAD SWAP1 DUP2 MSTORE RETURN JUMPDEST CALLVALUE PUSH2 0x264 JUMPI PUSH1 0x0 CALLDATASIZE PUSH1 0x3 NOT ADD SLT PUSH2 0x264 JUMPI PUSH1 0x20 PUSH1 0xFF PUSH1 0x1 SLOAD PUSH1 0xA0 SHR AND PUSH1 0x40 MLOAD SWAP1 ISZERO ISZERO DUP2 MSTORE RETURN JUMPDEST CALLVALUE PUSH2 0x264 JUMPI PUSH1 0x80 CALLDATASIZE PUSH1 0x3 NOT ADD SLT PUSH2 0x264 JUMPI PUSH2 0x2557 PUSH2 0x2B3A JUMP JUMPDEST PUSH8 0xFFFFFFFFFFFFFFFF SWAP1 PUSH1 0x24 CALLDATALOAD DUP3 DUP2 GT PUSH2 0x264 JUMPI PUSH2 0x2579 SWAP1 CALLDATASIZE SWAP1 PUSH1 0x4 ADD PUSH2 0x2BF5 JUMP JUMPDEST SWAP1 PUSH1 0x44 CALLDATALOAD SWAP1 PUSH1 0xFF DUP3 AND DUP1 SWAP3 SUB PUSH2 0x264 JUMPI PUSH1 0x64 CALLDATALOAD SWAP2 PUSH1 0x1 PUSH1 0x1 PUSH1 0xA0 SHL SUB DUP4 AND DUP4 SUB PUSH2 0x264 JUMPI PUSH2 0x25A5 PUSH2 0x2DB5 JUMP JUMPDEST PUSH1 0x1 PUSH1 0x1 PUSH1 0xA0 SHL SUB DUP3 AND ISZERO PUSH2 0x2867 JUMPI PUSH1 0x1 PUSH1 0x1 PUSH1 0xA0 SHL SUB DUP4 AND ISZERO PUSH2 0x2822 JUMPI PUSH1 0x40 MLOAD SWAP1 PUSH2 0x25D0 DUP3 PUSH2 0x2B7E JUMP JUMPDEST PUSH1 0x1 DUP3 MSTORE PUSH1 0x20 DUP3 ADD SWAP1 PUSH1 0x1 DUP1 PUSH1 0xA0 SHL SUB DUP5 AND DUP3 MSTORE PUSH1 0x40 DUP4 ADD SWAP1 DUP7 DUP3 MSTORE PUSH1 0x60 DUP5 ADD MSTORE PUSH1 0x1 PUSH1 0x80 DUP5 ADD MSTORE PUSH1 0x1 DUP1 PUSH1 0xA0 SHL SUB DUP6 AND PUSH1 0xA0 DUP5 ADD MSTORE PUSH1 0x3 SLOAD PUSH1 0x0 MSTORE PUSH1 0xE PUSH1 0x20 MSTORE PUSH1 0x40 PUSH1 0x0 KECCAK256 SWAP2 DUP4 MLOAD SWAP1 PUSH1 0x2 DUP3 LT ISZERO PUSH2 0x747 JUMPI PUSH1 0xFF DUP5 SLOAD SWAP2 PUSH2 0x100 PUSH1 0x1 PUSH1 0xA8 SHL SUB SWAP1 MLOAD PUSH1 0x8 SHL AND SWAP3 AND SWAP1 PUSH11 0xFFFFFFFFFFFFFFFFFFFFFF PUSH1 0xA8 SHL AND OR OR DUP3 SSTORE MLOAD SWAP6 DUP7 MLOAD SWAP1 DUP2 GT PUSH2 0x1046 JUMPI PUSH2 0x2666 PUSH1 0x1 DUP4 ADD SLOAD PUSH2 0x2C95 JUMP JUMPDEST PUSH1 0x1F DUP2 GT PUSH2 0x27DB JUMPI JUMPDEST POP PUSH1 0x20 PUSH1 0x1F DUP3 GT PUSH1 0x1 EQ PUSH2 0x2762 JUMPI SWAP2 DUP2 PUSH1 0x2 SWAP3 PUSH2 0x26F9 SWAP6 SWAP5 PUSH2 0x2752 SWAP11 PUSH1 0x0 SWAP3 PUSH2 0x2757 JUMPI JUMPDEST POP POP DUP2 PUSH1 0x1 SHL SWAP2 PUSH1 0x0 NOT SWAP1 PUSH1 0x3 SHL SHR NOT AND OR PUSH1 0x1 DUP3 ADD SSTORE JUMPDEST PUSH1 0x60 DUP4 ADD MLOAD SWAP2 ADD DUP1 SLOAD PUSH1 0x80 DUP5 ADD MLOAD PUSH1 0xA0 SWAP1 SWAP5 ADD MLOAD PUSH1 0x1 PUSH1 0x1 PUSH1 0xB0 SHL SUB NOT SWAP1 SWAP2 AND PUSH1 0xFF SWAP4 SWAP1 SWAP4 AND SWAP3 SWAP1 SWAP3 OR SWAP3 ISZERO ISZERO PUSH1 0x8 SHL PUSH2 0xFF00 AND SWAP3 SWAP1 SWAP3 OR PUSH1 0x10 SWAP2 SWAP1 SWAP2 SHL PUSH3 0x10000 PUSH1 0x1 PUSH1 0xB0 SHL SUB AND OR SWAP1 SSTORE JUMP JUMPDEST PUSH32 0x98878A34EA3245957B330457C591928F2908C8B254E8B972075101360FCA276B PUSH2 0x2737 PUSH1 0x3 SLOAD SWAP5 DUP6 SWAP4 PUSH1 0x40 MLOAD SWAP3 DUP4 SWAP3 PUSH1 0x40 DUP5 MSTORE PUSH1 0x40 DUP5 ADD SWAP1 PUSH2 0x2D75 JUMP JUMPDEST PUSH1 0x1 PUSH1 0x1 PUSH1 0xA0 SHL SUB SWAP7 DUP8 AND PUSH1 0x20 DUP5 ADD MSTORE SWAP6 AND SWAP5 SUB SWAP1 LOG3 PUSH2 0x2DED JUMP JUMPDEST PUSH1 0x3 SSTORE STOP JUMPDEST ADD MLOAD SWAP1 POP DUP11 DUP1 PUSH2 0x2693 JUMP JUMPDEST PUSH1 0x1 DUP4 ADD PUSH1 0x0 MSTORE PUSH1 0x20 PUSH1 0x0 KECCAK256 SWAP8 PUSH1 0x0 JUMPDEST PUSH1 0x1F NOT DUP5 AND DUP2 LT PUSH2 0x27C3 JUMPI POP DUP3 PUSH2 0x2752 SWAP10 PUSH2 0x26F9 SWAP7 SWAP6 SWAP4 PUSH1 0x1 SWAP4 PUSH1 0x2 SWAP7 PUSH1 0x1F NOT DUP2 AND LT PUSH2 0x27AA JUMPI JUMPDEST POP POP POP DUP2 SHL ADD PUSH1 0x1 DUP3 ADD SSTORE PUSH2 0x26AB JUMP JUMPDEST ADD MLOAD PUSH1 0x0 NOT PUSH1 0xF8 DUP5 PUSH1 0x3 SHL AND SHR NOT AND SWAP1 SSTORE DUP11 DUP1 DUP1 PUSH2 0x279A JUMP JUMPDEST DUP3 DUP3 ADD MLOAD DUP11 SSTORE PUSH1 0x1 SWAP1 SWAP10 ADD SWAP9 PUSH1 0x20 SWAP3 DUP4 ADD SWAP3 ADD PUSH2 0x2772 JUMP JUMPDEST PUSH1 0x1 DUP4 ADD PUSH1 0x0 MSTORE PUSH1 0x20 PUSH1 0x0 KECCAK256 PUSH1 0x1F DUP4 ADD PUSH1 0x5 SHR DUP2 ADD PUSH1 0x20 DUP5 LT PUSH2 0x281B JUMPI JUMPDEST PUSH1 0x1F DUP4 ADD PUSH1 0x5 SHR DUP3 ADD DUP2 LT PUSH2 0x280F JUMPI POP POP PUSH2 0x266F JUMP JUMPDEST PUSH1 0x0 DUP2 SSTORE PUSH1 0x1 ADD PUSH2 0x27F9 JUMP JUMPDEST POP DUP1 PUSH2 0x27F9 JUMP JUMPDEST PUSH1 0x40 MLOAD PUSH3 0x461BCD PUSH1 0xE5 SHL DUP2 MSTORE PUSH1 0x20 PUSH1 0x4 DUP3 ADD MSTORE PUSH1 0x1A PUSH1 0x24 DUP3 ADD MSTORE PUSH32 0x496E76616C696420707269636520666565642061646472657373000000000000 PUSH1 0x44 DUP3 ADD MSTORE PUSH1 0x64 SWAP1 REVERT JUMPDEST PUSH1 0x40 MLOAD PUSH3 0x461BCD PUSH1 0xE5 SHL DUP2 MSTORE PUSH1 0x20 PUSH1 0x4 DUP3 ADD MSTORE PUSH1 0x18 PUSH1 0x24 DUP3 ADD MSTORE PUSH32 0x496E76616C696420636F6E747261637420616464726573730000000000000000 PUSH1 0x44 DUP3 ADD MSTORE PUSH1 0x64 SWAP1 REVERT JUMPDEST CALLVALUE PUSH2 0x264 JUMPI PUSH1 0x0 CALLDATASIZE PUSH1 0x3 NOT ADD SLT PUSH2 0x264 JUMPI PUSH1 0x20 PUSH1 0x5 SLOAD PUSH1 0x40 MLOAD SWAP1 DUP2 MSTORE RETURN JUMPDEST CALLVALUE PUSH2 0x264 JUMPI PUSH1 0x0 CALLDATASIZE PUSH1 0x3 NOT ADD SLT PUSH2 0x264 JUMPI PUSH1 0x20 PUSH1 0xB SLOAD PUSH1 0x40 MLOAD SWAP1 DUP2 MSTORE RETURN JUMPDEST CALLVALUE PUSH2 0x264 JUMPI PUSH1 0x20 CALLDATASIZE PUSH1 0x3 NOT ADD SLT PUSH2 0x264 JUMPI PUSH1 0x40 PUSH2 0x2906 PUSH1 0x4 CALLDATALOAD PUSH2 0x3203 JUMP JUMPDEST DUP3 MLOAD SWAP2 ISZERO ISZERO DUP3 MSTORE PUSH1 0x20 DUP3 ADD MSTORE RETURN JUMPDEST CALLVALUE PUSH2 0x264 JUMPI PUSH1 0x0 CALLDATASIZE PUSH1 0x3 NOT ADD SLT PUSH2 0x264 JUMPI PUSH2 0x292D PUSH2 0x2DB5 JUMP JUMPDEST PUSH1 0x0 DUP1 DUP1 DUP1 PUSH1 0x8 SLOAD DUP2 PUSH1 0x8 SSTORE PUSH1 0x1 DUP1 PUSH1 0xA0 SHL SUB PUSH1 0x7 SLOAD AND GAS CALL PUSH2 0x294E PUSH2 0x35C4 JUMP JUMPDEST POP ISZERO PUSH2 0x2956 JUMPI STOP JUMPDEST PUSH1 0x40 MLOAD PUSH3 0x461BCD PUSH1 0xE5 SHL DUP2 MSTORE PUSH1 0x20 PUSH1 0x4 DUP3 ADD MSTORE PUSH1 0x15 PUSH1 0x24 DUP3 ADD MSTORE PUSH21 0x119959481DDA5D1A191C985DD85B0819985A5B1959 PUSH1 0x5A SHL PUSH1 0x44 DUP3 ADD MSTORE PUSH1 0x64 SWAP1 REVERT JUMPDEST CALLVALUE PUSH2 0x264 JUMPI PUSH1 0x0 CALLDATASIZE PUSH1 0x3 NOT ADD SLT PUSH2 0x264 JUMPI PUSH1 0x7 SLOAD PUSH1 0x40 MLOAD PUSH1 0x1 PUSH1 0x1 PUSH1 0xA0 SHL SUB SWAP1 SWAP2 AND DUP2 MSTORE PUSH1 0x20 SWAP1 RETURN JUMPDEST CALLVALUE PUSH2 0x264 JUMPI PUSH1 0x0 CALLDATASIZE PUSH1 0x3 NOT ADD SLT PUSH2 0x264 JUMPI PUSH2 0x29D5 PUSH2 0x2DB5 JUMP JUMPDEST PUSH1 0x1 SLOAD PUSH1 0xFF DUP2 PUSH1 0xA0 SHR AND ISZERO PUSH2 0x2A1C JUMPI PUSH1 0xFF PUSH1 0xA0 SHL NOT AND PUSH1 0x1 SSTORE PUSH1 0x40 MLOAD CALLER DUP2 MSTORE PUSH32 0x5DB9EE0A495BF2E6FF9C91A7834C1BA4FDD244A5E8AA4E537BD38AEAE4B073AA SWAP1 PUSH1 0x20 SWAP1 LOG1 STOP JUMPDEST PUSH1 0x40 MLOAD PUSH4 0x8DFC202B PUSH1 0xE0 SHL DUP2 MSTORE PUSH1 0x4 SWAP1 REVERT JUMPDEST CALLVALUE PUSH2 0x264 JUMPI PUSH1 0x40 CALLDATASIZE PUSH1 0x3 NOT ADD SLT PUSH2 0x264 JUMPI PUSH2 0x2A47 PUSH2 0x2B3A JUMP JUMPDEST PUSH1 0x1 PUSH1 0x1 PUSH1 0xA0 SHL SUB AND PUSH1 0x0 SWAP1 DUP2 MSTORE PUSH1 0x10 PUSH1 0x20 MSTORE PUSH1 0x40 SWAP1 KECCAK256 DUP1 SLOAD PUSH1 0x24 CALLDATALOAD SWAP2 SWAP1 DUP3 LT ISZERO PUSH2 0x264 JUMPI PUSH1 0x20 SWAP2 PUSH2 0x990 SWAP2 PUSH2 0x2B50 JUMP JUMPDEST CALLVALUE PUSH2 0x264 JUMPI PUSH1 0x0 CALLDATASIZE PUSH1 0x3 NOT ADD SLT PUSH2 0x264 JUMPI PUSH1 0x20 PUSH1 0xA SLOAD PUSH1 0x40 MLOAD SWAP1 DUP2 MSTORE RETURN JUMPDEST CALLVALUE PUSH2 0x264 JUMPI PUSH1 0x0 CALLDATASIZE PUSH1 0x3 NOT ADD SLT PUSH2 0x264 JUMPI PUSH1 0x20 PUSH1 0x40 MLOAD PUSH2 0xBB8 DUP2 MSTORE RETURN JUMPDEST CALLVALUE PUSH2 0x264 JUMPI PUSH1 0x0 CALLDATASIZE PUSH1 0x3 NOT ADD SLT PUSH2 0x264 JUMPI PUSH1 0x20 PUSH1 0xC SLOAD PUSH1 0x40 MLOAD SWAP1 DUP2 MSTORE RETURN JUMPDEST CALLVALUE PUSH2 0x264 JUMPI PUSH1 0x20 PUSH2 0x2375 PUSH2 0x2AE4 CALLDATASIZE PUSH2 0x2B24 JUMP JUMPDEST SWAP1 PUSH2 0x30A1 JUMP JUMPDEST CALLVALUE PUSH2 0x264 JUMPI PUSH1 0x0 CALLDATASIZE PUSH1 0x3 NOT ADD SLT PUSH2 0x264 JUMPI PUSH1 0x20 PUSH1 0x40 MLOAD PUSH4 0x1E13380 DUP2 MSTORE RETURN JUMPDEST CALLVALUE PUSH2 0x264 JUMPI PUSH1 0x0 CALLDATASIZE PUSH1 0x3 NOT ADD SLT PUSH2 0x264 JUMPI DUP1 PUSH2 0x12C PUSH1 0x20 SWAP3 MSTORE RETURN JUMPDEST PUSH1 0x40 SWAP1 PUSH1 0x3 NOT ADD SLT PUSH2 0x264 JUMPI PUSH1 0x4 CALLDATALOAD SWAP1 PUSH1 0x24 CALLDATALOAD SWAP1 JUMP JUMPDEST PUSH1 0x4 CALLDATALOAD SWAP1 PUSH1 0x1 PUSH1 0x1 PUSH1 0xA0 SHL SUB DUP3 AND DUP3 SUB PUSH2 0x264 JUMPI JUMP JUMPDEST DUP1 SLOAD DUP3 LT ISZERO PUSH2 0x2B68 JUMPI PUSH1 0x0 MSTORE PUSH1 0x20 PUSH1 0x0 KECCAK256 ADD SWAP1 PUSH1 0x0 SWAP1 JUMP JUMPDEST PUSH4 0x4E487B71 PUSH1 0xE0 SHL PUSH1 0x0 MSTORE PUSH1 0x32 PUSH1 0x4 MSTORE PUSH1 0x24 PUSH1 0x0 REVERT JUMPDEST PUSH1 0xC0 DUP2 ADD SWAP1 DUP2 LT PUSH8 0xFFFFFFFFFFFFFFFF DUP3 GT OR PUSH2 0x1046 JUMPI PUSH1 0x40 MSTORE JUMP JUMPDEST PUSH2 0x240 DUP2 ADD SWAP1 DUP2 LT PUSH8 0xFFFFFFFFFFFFFFFF DUP3 GT OR PUSH2 0x1046 JUMPI PUSH1 0x40 MSTORE JUMP JUMPDEST SWAP1 PUSH1 0x1F DUP1 NOT SWAP2 ADD AND DUP2 ADD SWAP1 DUP2 LT PUSH8 0xFFFFFFFFFFFFFFFF DUP3 GT OR PUSH2 0x1046 JUMPI PUSH1 0x40 MSTORE JUMP JUMPDEST PUSH8 0xFFFFFFFFFFFFFFFF DUP2 GT PUSH2 0x1046 JUMPI PUSH1 0x1F ADD PUSH1 0x1F NOT AND PUSH1 0x20 ADD SWAP1 JUMP JUMPDEST DUP2 PUSH1 0x1F DUP3 ADD SLT ISZERO PUSH2 0x264 JUMPI DUP1 CALLDATALOAD SWAP1 PUSH2 0x2C0C DUP3 PUSH2 0x2BD9 JUMP JUMPDEST SWAP3 PUSH2 0x2C1A PUSH1 0x40 MLOAD SWAP5 DUP6 PUSH2 0x2BB7 JUMP JUMPDEST DUP3 DUP5 MSTORE PUSH1 0x20 DUP4 DUP4 ADD ADD GT PUSH2 0x264 JUMPI DUP2 PUSH1 0x0 SWAP3 PUSH1 0x20 DUP1 SWAP4 ADD DUP4 DUP7 ADD CALLDATACOPY DUP4 ADD ADD MSTORE SWAP1 JUMP JUMPDEST CALLVALUE PUSH2 0x264 JUMPI PUSH1 0x0 CALLDATASIZE PUSH1 0x3 NOT ADD SLT PUSH2 0x264 JUMPI PUSH1 0x20 PUSH1 0x40 MLOAD PUSH3 0x15180 DUP2 MSTORE RETURN JUMPDEST PUSH1 0x20 SWAP1 DUP2 PUSH1 0x40 DUP2 DUP4 ADD SWAP3 DUP3 DUP2 MSTORE DUP6 MLOAD DUP1 SWAP5 MSTORE ADD SWAP4 ADD SWAP2 PUSH1 0x0 JUMPDEST DUP3 DUP2 LT PUSH2 0x2C81 JUMPI POP POP POP POP SWAP1 JUMP JUMPDEST DUP4 MLOAD DUP6 MSTORE SWAP4 DUP2 ADD SWAP4 SWAP3 DUP2 ADD SWAP3 PUSH1 0x1 ADD PUSH2 0x2C73 JUMP JUMPDEST SWAP1 PUSH1 0x1 DUP3 DUP2 SHR SWAP3 AND DUP1 ISZERO PUSH2 0x2CC5 JUMPI JUMPDEST PUSH1 0x20 DUP4 LT EQ PUSH2 0x2CAF JUMPI JUMP JUMPDEST PUSH4 0x4E487B71 PUSH1 0xE0 SHL PUSH1 0x0 MSTORE PUSH1 0x22 PUSH1 0x4 MSTORE PUSH1 0x24 PUSH1 0x0 REVERT JUMPDEST SWAP2 PUSH1 0x7F AND SWAP2 PUSH2 0x2CA4 JUMP JUMPDEST SWAP1 PUSH1 0x40 MLOAD SWAP2 DUP3 PUSH1 0x0 DUP3 SLOAD SWAP3 PUSH2 0x2CE3 DUP5 PUSH2 0x2C95 JUMP JUMPDEST SWAP1 DUP2 DUP5 MSTORE PUSH1 0x1 SWAP5 DUP6 DUP2 AND SWAP1 DUP2 PUSH1 0x0 EQ PUSH2 0x2D52 JUMPI POP PUSH1 0x1 EQ PUSH2 0x2D0F JUMPI JUMPDEST POP POP PUSH2 0x2D0D SWAP3 POP SUB DUP4 PUSH2 0x2BB7 JUMP JUMPDEST JUMP JUMPDEST SWAP1 SWAP4 SWAP2 POP PUSH1 0x0 MSTORE PUSH1 0x20 SWAP1 DUP2 PUSH1 0x0 KECCAK256 SWAP4 PUSH1 0x0 SWAP2 JUMPDEST DUP2 DUP4 LT PUSH2 0x2D3A JUMPI POP POP PUSH2 0x2D0D SWAP4 POP DUP3 ADD ADD CODESIZE DUP1 PUSH2 0x2CFF JUMP JUMPDEST DUP6 SLOAD DUP9 DUP5 ADD DUP6 ADD MSTORE SWAP5 DUP6 ADD SWAP5 DUP8 SWAP5 POP SWAP2 DUP4 ADD SWAP2 PUSH2 0x2D22 JUMP JUMPDEST SWAP2 POP POP PUSH2 0x2D0D SWAP5 POP PUSH1 0x20 SWAP3 POP PUSH1 0xFF NOT AND DUP3 DUP5 ADD MSTORE ISZERO ISZERO PUSH1 0x5 SHL DUP3 ADD ADD CODESIZE DUP1 PUSH2 0x2CFF JUMP JUMPDEST SWAP2 SWAP1 DUP3 MLOAD SWAP3 DUP4 DUP3 MSTORE PUSH1 0x0 JUMPDEST DUP5 DUP2 LT PUSH2 0x2DA1 JUMPI POP POP DUP3 PUSH1 0x0 PUSH1 0x20 DUP1 SWAP5 SWAP6 DUP5 ADD ADD MSTORE PUSH1 0x1F DUP1 NOT SWAP2 ADD AND ADD ADD SWAP1 JUMP JUMPDEST PUSH1 0x20 DUP2 DUP4 ADD DUP2 ADD MLOAD DUP5 DUP4 ADD DUP3 ADD MSTORE ADD PUSH2 0x2D80 JUMP JUMPDEST PUSH1 0x1 SLOAD PUSH1 0x1 PUSH1 0x1 PUSH1 0xA0 SHL SUB AND CALLER SUB PUSH2 0x2DC9 JUMPI JUMP JUMPDEST PUSH1 0x40 MLOAD PUSH4 0x118CDAA7 PUSH1 0xE0 SHL DUP2 MSTORE CALLER PUSH1 0x4 DUP3 ADD MSTORE PUSH1 0x24 SWAP1 REVERT JUMPDEST PUSH1 0x2 DUP3 LT ISZERO PUSH2 0x747 JUMPI MSTORE JUMP JUMPDEST PUSH1 0x0 NOT DUP2 EQ PUSH2 0x659 JUMPI PUSH1 0x1 ADD SWAP1 JUMP JUMPDEST ISZERO PUSH2 0x2E03 JUMPI JUMP JUMPDEST PUSH1 0x40 MLOAD PUSH3 0x461BCD PUSH1 0xE5 SHL DUP2 MSTORE PUSH1 0x20 PUSH1 0x4 DUP3 ADD MSTORE PUSH1 0x13 PUSH1 0x24 DUP3 ADD MSTORE PUSH19 0x151BDAD95B881B9BDD081CDD5C1C1BDC9D1959 PUSH1 0x6A SHL PUSH1 0x44 DUP3 ADD MSTORE PUSH1 0x64 SWAP1 REVERT JUMPDEST MLOAD SWAP1 PUSH10 0xFFFFFFFFFFFFFFFFFFFF DUP3 AND DUP3 SUB PUSH2 0x264 JUMPI JUMP JUMPDEST SWAP2 SWAP1 DUP3 SUB SWAP2 DUP3 GT PUSH2 0x659 JUMPI JUMP JUMPDEST SWAP1 PUSH1 0x0 SWAP2 DUP3 MSTORE PUSH1 0x20 PUSH1 0xE DUP2 MSTORE PUSH1 0x40 DUP1 DUP5 KECCAK256 DUP2 MLOAD PUSH2 0x2E7E DUP2 PUSH2 0x2B7E JUMP JUMPDEST PUSH2 0x2EE0 PUSH1 0x2 DUP4 SLOAD SWAP4 PUSH2 0x2E93 PUSH1 0xFF DUP7 AND DUP6 PUSH2 0x2DE1 JUMP JUMPDEST PUSH1 0x1 DUP1 PUSH1 0xA0 SHL SUB DUP1 SWAP6 PUSH1 0x8 SHR AND DUP8 DUP6 ADD MSTORE PUSH2 0x2EB0 PUSH1 0x1 DUP3 ADD PUSH2 0x2CCF JUMP JUMPDEST DUP7 DUP6 ADD MSTORE ADD SLOAD SWAP2 PUSH1 0xFF DUP4 AND PUSH1 0x60 DUP3 ADD MSTORE DUP4 PUSH1 0xA0 PUSH1 0xFF DUP6 PUSH1 0x8 SHR AND ISZERO ISZERO SWAP3 DUP4 PUSH1 0x80 DUP3 ADD MSTORE ADD SWAP4 PUSH1 0x10 SHR AND DUP4 MSTORE PUSH2 0x2DFC JUMP JUMPDEST MLOAD AND DUP1 ISZERO PUSH2 0x304D JUMPI SWAP1 PUSH1 0xA0 PUSH1 0x4 SWAP4 SWAP3 DUP3 MLOAD SWAP5 DUP6 DUP1 SWAP3 PUSH4 0x3FABE5A3 PUSH1 0xE2 SHL DUP3 MSTORE GAS STATICCALL SWAP5 DUP6 ISZERO PUSH2 0x3042 JUMPI DUP1 SWAP4 DUP2 SWAP7 PUSH2 0x2FEA JUMPI JUMPDEST POP DUP4 SGT ISZERO PUSH2 0x2FA7 JUMPI DUP5 ISZERO PUSH2 0x2F6F JUMPI PUSH2 0xE10 PUSH2 0x2F2C DUP7 TIMESTAMP PUSH2 0x2E55 JUMP JUMPDEST GT PUSH2 0x2F37 JUMPI POP POP SWAP2 SWAP1 JUMP JUMPDEST PUSH1 0x64 SWAP3 POP MLOAD SWAP1 PUSH3 0x461BCD PUSH1 0xE5 SHL DUP3 MSTORE PUSH1 0x4 DUP3 ADD MSTORE PUSH1 0x12 PUSH1 0x24 DUP3 ADD MSTORE PUSH18 0x141C9A58D94819185D18481D1BDBC81BDB19 PUSH1 0x72 SHL PUSH1 0x44 DUP3 ADD MSTORE REVERT JUMPDEST PUSH1 0x64 SWAP3 POP MLOAD SWAP1 PUSH3 0x461BCD PUSH1 0xE5 SHL DUP3 MSTORE PUSH1 0x4 DUP3 ADD MSTORE PUSH1 0x12 PUSH1 0x24 DUP3 ADD MSTORE PUSH18 0x526F756E64206E6F7420636F6D706C657465 PUSH1 0x70 SHL PUSH1 0x44 DUP3 ADD MSTORE REVERT JUMPDEST PUSH1 0x64 SWAP3 POP MLOAD SWAP1 PUSH3 0x461BCD PUSH1 0xE5 SHL DUP3 MSTORE PUSH1 0x4 DUP3 ADD MSTORE PUSH1 0x19 PUSH1 0x24 DUP3 ADD MSTORE PUSH32 0x496E76616C69642070726963652066726F6D206F7261636C6500000000000000 PUSH1 0x44 DUP3 ADD MSTORE REVERT JUMPDEST SWAP4 POP SWAP5 POP PUSH1 0xA0 DUP4 RETURNDATASIZE DUP3 GT PUSH2 0x303A JUMPI JUMPDEST DUP2 PUSH2 0x3006 PUSH1 0xA0 SWAP4 DUP4 PUSH2 0x2BB7 JUMP JUMPDEST DUP2 ADD SUB SLT PUSH2 0x3036 JUMPI PUSH2 0x3017 DUP4 PUSH2 0x2E3E JUMP JUMPDEST POP DUP2 DUP4 ADD MLOAD PUSH2 0x302D PUSH1 0x80 PUSH1 0x60 DUP7 ADD MLOAD SWAP6 ADD PUSH2 0x2E3E JUMP JUMPDEST POP SWAP3 SWAP5 CODESIZE PUSH2 0x2F11 JUMP JUMPDEST DUP5 DUP1 REVERT JUMPDEST RETURNDATASIZE SWAP2 POP PUSH2 0x2FF9 JUMP JUMPDEST SWAP1 MLOAD SWAP1 RETURNDATASIZE SWAP1 DUP3 RETURNDATACOPY RETURNDATASIZE SWAP1 REVERT JUMPDEST POP POP POP SWAP1 POP PUSH5 0x2E90EDD000 SWAP1 TIMESTAMP SWAP1 JUMP JUMPDEST DUP2 DUP2 MUL SWAP3 SWAP2 DUP2 ISZERO SWAP2 DUP5 DIV EQ OR ISZERO PUSH2 0x659 JUMPI JUMP JUMPDEST PUSH1 0xFF AND PUSH1 0x4D DUP2 GT PUSH2 0x659 JUMPI PUSH1 0xA EXP SWAP1 JUMP JUMPDEST DUP2 ISZERO PUSH2 0x308B JUMPI DIV SWAP1 JUMP JUMPDEST PUSH4 0x4E487B71 PUSH1 0xE0 SHL PUSH1 0x0 MSTORE PUSH1 0x12 PUSH1 0x4 MSTORE PUSH1 0x24 PUSH1 0x0 REVERT JUMPDEST SWAP1 PUSH2 0x30AB DUP3 PUSH2 0x2E62 JUMP JUMPDEST POP SWAP2 PUSH1 0x0 MSTORE PUSH1 0xE PUSH1 0x20 MSTORE PUSH1 0x40 PUSH1 0x0 KECCAK256 SWAP2 PUSH1 0x40 MLOAD SWAP2 PUSH2 0x30C8 DUP4 PUSH2 0x2B7E JUMP JUMPDEST PUSH1 0x8 DUP5 SLOAD PUSH1 0x2 PUSH1 0xFF SWAP7 PUSH2 0x30DD DUP9 DUP5 AND DUP9 PUSH2 0x2DE1 JUMP JUMPDEST PUSH1 0x1 PUSH1 0x1 PUSH1 0xA0 SHL SUB SWAP3 DUP5 SHR DUP4 AND PUSH1 0x20 DUP9 ADD MSTORE PUSH2 0x30FB PUSH1 0x1 DUP3 ADD PUSH2 0x2CCF JUMP JUMPDEST PUSH1 0x40 DUP9 ADD MSTORE ADD SLOAD SWAP5 PUSH1 0xA0 DUP8 DUP8 AND SWAP3 PUSH1 0x60 DUP4 ADD SWAP8 DUP5 DUP10 MSTORE DUP10 DUP2 DUP8 SHR AND ISZERO ISZERO PUSH1 0x80 DUP6 ADD MSTORE PUSH1 0x10 SHR AND SWAP2 ADD MSTORE GT ISZERO PUSH1 0x0 EQ PUSH2 0x314F JUMPI SWAP3 PUSH2 0x313E PUSH2 0x3146 SWAP3 PUSH2 0x314C SWAP6 PUSH2 0x305D JUMP JUMPDEST SWAP3 MLOAD AND PUSH2 0x3070 JUMP JUMPDEST SWAP1 PUSH2 0x3081 JUMP JUMPDEST SWAP1 JUMP JUMPDEST PUSH2 0x3168 SWAP2 PUSH2 0x315C SWAP2 PUSH2 0x305D JUMP JUMPDEST PUSH2 0x3146 DUP5 DUP5 MLOAD AND PUSH2 0x3070 JUMP JUMPDEST SWAP1 MLOAD DUP3 AND PUSH1 0x7 NOT ADD SWAP2 DUP3 GT PUSH2 0x659 JUMPI PUSH2 0x3146 PUSH2 0x314C SWAP3 PUSH2 0x3070 JUMP JUMPDEST ISZERO PUSH2 0x318A JUMPI JUMP JUMPDEST PUSH1 0x40 MLOAD PUSH3 0x461BCD PUSH1 0xE5 SHL DUP2 MSTORE PUSH1 0x20 PUSH1 0x4 DUP3 ADD MSTORE PUSH1 0x13 PUSH1 0x24 DUP3 ADD MSTORE PUSH19 0x131BD85B88191BD95CC81B9BDD08195E1A5CDD PUSH1 0x6A SHL PUSH1 0x44 DUP3 ADD MSTORE PUSH1 0x64 SWAP1 REVERT JUMPDEST ISZERO PUSH2 0x31CC JUMPI JUMP JUMPDEST PUSH1 0x40 MLOAD PUSH3 0x461BCD PUSH1 0xE5 SHL DUP2 MSTORE PUSH1 0x20 PUSH1 0x4 DUP3 ADD MSTORE PUSH1 0xF PUSH1 0x24 DUP3 ADD MSTORE PUSH15 0x4C6F616E206E6F7420616374697665 PUSH1 0x88 SHL PUSH1 0x44 DUP3 ADD MSTORE PUSH1 0x64 SWAP1 REVERT JUMPDEST SWAP1 PUSH1 0x0 SWAP2 DUP3 MSTORE PUSH1 0xD PUSH1 0x20 MSTORE PUSH1 0x40 DUP3 KECCAK256 SWAP2 PUSH1 0x40 MLOAD PUSH2 0x321F DUP2 PUSH2 0x2B9A JUMP JUMPDEST DUP4 SLOAD DUP2 MSTORE PUSH1 0x1 DUP1 PUSH1 0xA0 SHL SUB DUP1 PUSH1 0x1 DUP7 ADD SLOAD AND PUSH1 0x20 DUP4 ADD SWAP1 DUP2 MSTORE DUP2 PUSH1 0x2 DUP8 ADD SLOAD AND PUSH1 0x40 DUP5 ADD MSTORE PUSH1 0x3 DUP7 ADD SLOAD SWAP3 PUSH1 0x60 DUP2 ADD SWAP4 DUP5 MSTORE PUSH1 0x4 DUP8 ADD SLOAD SWAP1 PUSH1 0x80 DUP2 ADD SWAP2 DUP3 MSTORE PUSH1 0x5 DUP9 ADD SLOAD SWAP4 PUSH1 0xA0 DUP3 ADD SWAP5 DUP6 MSTORE PUSH1 0x6 DUP10 ADD SLOAD SWAP4 PUSH1 0xC0 DUP4 ADD SWAP5 DUP6 MSTORE PUSH1 0x7 DUP11 ADD SLOAD PUSH1 0xE0 DUP5 ADD MSTORE PUSH1 0x8 DUP11 ADD SLOAD PUSH2 0x100 DUP5 ADD MSTORE PUSH1 0x9 DUP11 ADD SLOAD PUSH2 0x120 DUP5 ADD MSTORE PUSH1 0xA DUP11 ADD SLOAD PUSH2 0x140 DUP5 ADD MSTORE PUSH1 0xB DUP11 ADD SLOAD PUSH2 0x160 DUP5 ADD MSTORE PUSH1 0xFF PUSH1 0xC DUP12 ADD SLOAD AND SWAP3 PUSH2 0x180 DUP2 ADD SWAP4 PUSH1 0x6 DUP2 LT ISZERO PUSH2 0x339D JUMPI DUP5 MSTORE PUSH2 0x331C SWAP3 SWAP2 SWAP1 PUSH2 0x220 PUSH1 0x11 PUSH1 0x10 DUP15 PUSH2 0x32E2 PUSH1 0xD DUP3 ADD PUSH2 0x2CCF JUMP JUMPDEST PUSH2 0x1A0 DUP7 ADD MSTORE PUSH1 0xE DUP2 ADD SLOAD PUSH2 0x1C0 DUP7 ADD MSTORE PUSH1 0xFF PUSH1 0xF DUP3 ADD SLOAD AND ISZERO ISZERO PUSH2 0x1E0 DUP7 ADD MSTORE ADD SLOAD SWAP14 PUSH2 0x200 DUP5 ADD SWAP15 DUP16 MSTORE ADD SLOAD SWAP2 ADD MSTORE MLOAD AND ISZERO ISZERO PUSH2 0x3183 JUMP JUMPDEST MLOAD PUSH1 0x6 DUP2 LT ISZERO PUSH2 0x3389 JUMPI SWAP2 PUSH2 0x3344 SWAP2 PUSH2 0x333B PUSH1 0x1 PUSH2 0x334E SWAP7 SWAP6 EQ PUSH2 0x31C5 JUMP JUMPDEST MLOAD SWAP1 MLOAD SWAP1 PUSH2 0x30A1 JUMP JUMPDEST SWAP3 MLOAD SWAP1 MLOAD SWAP1 PUSH2 0x30A1 JUMP JUMPDEST SWAP2 PUSH1 0x64 DUP3 MUL SWAP2 DUP1 DUP4 DIV PUSH1 0x64 EQ SWAP1 ISZERO OR ISZERO PUSH2 0x3375 JUMPI POP SWAP1 PUSH2 0x336D SWAP2 PUSH2 0x3081 JUMP JUMPDEST SWAP2 MLOAD DUP3 LT SWAP2 SWAP1 JUMP JUMPDEST PUSH4 0x4E487B71 PUSH1 0xE0 SHL DUP2 MSTORE PUSH1 0x11 PUSH1 0x4 MSTORE PUSH1 0x24 SWAP1 REVERT JUMPDEST PUSH4 0x4E487B71 PUSH1 0xE0 SHL DUP7 MSTORE PUSH1 0x21 PUSH1 0x4 MSTORE PUSH1 0x24 DUP7 REVERT JUMPDEST PUSH4 0x4E487B71 PUSH1 0xE0 SHL DUP11 MSTORE PUSH1 0x21 PUSH1 0x4 MSTORE PUSH1 0x24 DUP11 REVERT JUMPDEST SWAP2 SWAP1 DUP3 ADD DUP1 SWAP3 GT PUSH2 0x659 JUMPI JUMP JUMPDEST PUSH1 0x0 SWAP1 DUP2 MSTORE PUSH1 0x14 PUSH1 0x20 MSTORE PUSH1 0x40 DUP2 KECCAK256 SLOAD PUSH1 0xA SLOAD SWAP1 DUP2 DUP1 DUP3 GT PUSH2 0x340E JUMPI POP PUSH2 0x2710 SWAP3 DUP4 DUP3 MUL SWAP2 DUP1 DUP4 DIV DUP6 EQ SWAP1 ISZERO OR ISZERO PUSH2 0x3375 JUMPI POP PUSH2 0x314C SWAP3 SWAP2 PUSH2 0x33FE SWAP2 PUSH2 0x3081 JUMP JUMPDEST SWAP1 PUSH2 0x459 PUSH1 0x9 SLOAD SWAP3 PUSH1 0xB SLOAD PUSH2 0x305D JUMP JUMPDEST PUSH2 0x3417 SWAP2 PUSH2 0x2E55 JUMP JUMPDEST SWAP2 PUSH2 0x3433 PUSH2 0x342A PUSH1 0x9 SLOAD PUSH1 0xB SLOAD SWAP1 PUSH2 0x33B1 JUMP JUMPDEST SWAP4 PUSH1 0xC SLOAD PUSH2 0x305D JUMP JUMPDEST SWAP1 PUSH2 0x2710 SWAP3 DUP4 SUB SWAP3 DUP4 GT PUSH2 0x3375 JUMPI POP PUSH2 0x314C SWAP3 SWAP2 PUSH2 0x3450 SWAP2 PUSH2 0x3081 JUMP JUMPDEST SWAP1 PUSH2 0x33B1 JUMP JUMPDEST ISZERO PUSH2 0x345D JUMPI JUMP JUMPDEST PUSH1 0x40 MLOAD PUSH3 0x461BCD PUSH1 0xE5 SHL DUP2 MSTORE PUSH1 0x20 PUSH1 0x4 DUP3 ADD MSTORE PUSH1 0x10 PUSH1 0x24 DUP3 ADD MSTORE PUSH16 0x24B73B30B634B210323AB930BA34B7B7 PUSH1 0x81 SHL PUSH1 0x44 DUP3 ADD MSTORE PUSH1 0x64 SWAP1 REVERT JUMPDEST DUP1 SLOAD PUSH9 0x10000000000000000 DUP2 LT ISZERO PUSH2 0x1046 JUMPI PUSH2 0x34B7 SWAP2 PUSH1 0x1 DUP3 ADD DUP2 SSTORE PUSH2 0x2B50 JUMP JUMPDEST DUP2 SWAP3 SWAP2 SLOAD SWAP1 PUSH1 0x3 SHL SWAP2 DUP3 SHL SWAP2 PUSH1 0x0 NOT SWAP1 SHL NOT AND OR SWAP1 SSTORE JUMP JUMPDEST PUSH1 0x40 MLOAD PUSH4 0x23B872DD PUSH1 0xE0 SHL PUSH1 0x20 DUP3 ADD MSTORE PUSH1 0x1 PUSH1 0x1 PUSH1 0xA0 SHL SUB SWAP3 DUP4 AND PUSH1 0x24 DUP3 ADD MSTORE SWAP3 SWAP1 SWAP2 AND PUSH1 0x44 DUP4 ADD MSTORE PUSH1 0x64 DUP1 DUP4 ADD SWAP4 SWAP1 SWAP4 MSTORE SWAP2 DUP2 MSTORE PUSH1 0xA0 DUP2 ADD SWAP2 DUP2 DUP4 LT PUSH8 0xFFFFFFFFFFFFFFFF DUP5 GT OR PUSH2 0x1046 JUMPI PUSH2 0x2D0D SWAP3 PUSH1 0x40 MSTORE JUMPDEST SWAP1 PUSH1 0x0 PUSH1 0x20 SWAP2 DUP3 DUP2 MLOAD SWAP2 ADD DUP3 DUP6 GAS CALL ISZERO PUSH2 0x1186 JUMPI PUSH1 0x0 MLOAD RETURNDATASIZE PUSH2 0x3577 JUMPI POP PUSH1 0x1 PUSH1 0x1 PUSH1 0xA0 SHL SUB DUP2 AND EXTCODESIZE ISZERO JUMPDEST PUSH2 0x3555 JUMPI POP JUMP JUMPDEST PUSH1 0x40 MLOAD PUSH4 0x5274AFE7 PUSH1 0xE0 SHL DUP2 MSTORE PUSH1 0x1 PUSH1 0x1 PUSH1 0xA0 SHL SUB SWAP1 SWAP2 AND PUSH1 0x4 DUP3 ADD MSTORE PUSH1 0x24 SWAP1 REVERT JUMPDEST PUSH1 0x1 EQ ISZERO PUSH2 0x354E JUMP JUMPDEST PUSH1 0xFF PUSH1 0x1 SLOAD PUSH1 0xA0 SHR AND PUSH2 0x358F JUMPI JUMP JUMPDEST PUSH1 0x40 MLOAD PUSH4 0xD93C0665 PUSH1 0xE0 SHL DUP2 MSTORE PUSH1 0x4 SWAP1 REVERT JUMPDEST PUSH1 0x2 PUSH1 0x0 SLOAD EQ PUSH2 0x35B2 JUMPI PUSH1 0x2 PUSH1 0x0 SSTORE JUMP JUMPDEST PUSH1 0x40 MLOAD PUSH4 0x3EE5AEB5 PUSH1 0xE0 SHL DUP2 MSTORE PUSH1 0x4 SWAP1 REVERT JUMPDEST RETURNDATASIZE ISZERO PUSH2 0x35EF JUMPI RETURNDATASIZE SWAP1 PUSH2 0x35D5 DUP3 PUSH2 0x2BD9 JUMP JUMPDEST SWAP2 PUSH2 0x35E3 PUSH1 0x40 MLOAD SWAP4 DUP5 PUSH2 0x2BB7 JUMP JUMPDEST DUP3 MSTORE RETURNDATASIZE PUSH1 0x0 PUSH1 0x20 DUP5 ADD RETURNDATACOPY JUMP JUMPDEST PUSH1 0x60 SWAP1 JUMP JUMPDEST ISZERO PUSH2 0x35FB JUMPI JUMP JUMPDEST PUSH1 0x40 MLOAD PUSH3 0x461BCD PUSH1 0xE5 SHL DUP2 MSTORE PUSH1 0x20 PUSH1 0x4 DUP3 ADD MSTORE PUSH1 0x12 PUSH1 0x24 DUP3 ADD MSTORE PUSH18 0x41756374696F6E206E6F7420616374697665 PUSH1 0x70 SHL PUSH1 0x44 DUP3 ADD MSTORE PUSH1 0x64 SWAP1 REVERT JUMPDEST PUSH1 0x40 MLOAD PUSH4 0xA9059CBB PUSH1 0xE0 SHL PUSH1 0x20 DUP3 ADD MSTORE PUSH1 0x1 PUSH1 0x1 PUSH1 0xA0 SHL SUB SWAP1 SWAP3 AND PUSH1 0x24 DUP4 ADD MSTORE PUSH1 0x44 DUP1 DUP4 ADD SWAP4 SWAP1 SWAP4 MSTORE SWAP2 DUP2 MSTORE PUSH1 0x80 DUP2 ADD SWAP2 PUSH8 0xFFFFFFFFFFFFFFFF DUP4 GT DUP3 DUP5 LT OR PUSH2 0x1046 JUMPI PUSH2 0x2D0D SWAP3 PUSH1 0x40 MSTORE PUSH2 0x3524 JUMP JUMPDEST PUSH1 0x0 SWAP1 DUP2 MSTORE PUSH1 0xD PUSH1 0x20 MSTORE PUSH1 0x40 DUP2 KECCAK256 PUSH1 0x4 DUP2 ADD SLOAD DUP1 DUP4 MSTORE PUSH1 0xE PUSH1 0x20 MSTORE PUSH1 0xFF PUSH1 0x40 DUP5 KECCAK256 SLOAD AND PUSH1 0x2 DUP2 LT ISZERO PUSH2 0x3758 JUMPI PUSH2 0x3727 JUMPI POP PUSH1 0x1 DUP2 ADD SLOAD PUSH1 0x6 SWAP1 SWAP2 ADD SLOAD DUP3 SWAP2 DUP3 SWAP2 DUP3 SWAP2 PUSH1 0x1 PUSH1 0x1 PUSH1 0xA0 SHL SUB AND GAS CALL PUSH2 0x36DA PUSH2 0x35C4 JUMP JUMPDEST POP ISZERO PUSH2 0x36E2 JUMPI JUMP JUMPDEST PUSH1 0x40 MLOAD PUSH3 0x461BCD PUSH1 0xE5 SHL DUP2 MSTORE PUSH1 0x20 PUSH1 0x4 DUP3 ADD MSTORE PUSH1 0x18 PUSH1 0x24 DUP3 ADD MSTORE PUSH32 0x436F6C6C61746572616C2072657475726E206661696C65640000000000000000 PUSH1 0x44 DUP3 ADD MSTORE PUSH1 0x64 SWAP1 REVERT JUMPDEST SWAP1 PUSH1 0x6 DUP4 PUSH1 0x40 SWAP4 PUSH2 0x2D0D SWAP6 MSTORE PUSH1 0xE PUSH1 0x20 MSTORE PUSH1 0x1 DUP1 PUSH1 0xA0 SHL SUB SWAP4 DUP5 SWAP2 KECCAK256 SLOAD PUSH1 0x8 SHR AND SWAP3 PUSH1 0x1 DUP4 ADD SLOAD AND SWAP2 ADD SLOAD SWAP2 PUSH2 0x3635 JUMP JUMPDEST PUSH4 0x4E487B71 PUSH1 0xE0 SHL DUP5 MSTORE PUSH1 0x21 PUSH1 0x4 MSTORE PUSH1 0x24 DUP5 REVERT JUMPDEST PUSH8 0xFFFFFFFFFFFFFFFF DUP2 GT PUSH2 0x1046 JUMPI PUSH1 0x5 SHL PUSH1 0x20 ADD SWAP1 JUMP JUMPDEST SWAP1 PUSH2 0x378E DUP3 PUSH2 0x376C JUMP JUMPDEST PUSH2 0x379B PUSH1 0x40 MLOAD SWAP2 DUP3 PUSH2 0x2BB7 JUMP JUMPDEST DUP3 DUP2 MSTORE DUP1 SWAP3 PUSH2 0x37AC PUSH1 0x1F NOT SWAP2 PUSH2 0x376C JUMP JUMPDEST ADD SWAP1 PUSH1 0x20 CALLDATASIZE SWAP2 ADD CALLDATACOPY JUMP JUMPDEST DUP1 MLOAD DUP3 LT ISZERO PUSH2 0x2B68 JUMPI PUSH1 0x20 SWAP2 PUSH1 0x5 SHL ADD ADD SWAP1 JUMP INVALID COINBASE 0xE3 PUSH23 0xFD99913DEA7FDA140F5C0BD997515B1A181ACC58737320 ORIGIN 0x25 BASEFEE 0xEC PUSH15 0x72A26469706673582212207F954C11 SUB BASEFEE 0xAE EXP KECCAK256 MOD LT 0x2F NOT PUSH28 0x249C1A1854BEAC16675D104F33093C7708B564736F6C634300081400 CALLER "},"methodIdentifiers":{"AUCTION_DURATION()":"a271e525","LIQUIDATION_THRESHOLD()":"90a8ae9b","MAX_INTEREST_RATE()":"34855d14","MAX_LOAN_DURATION()":"0d0b2ca6","MIN_COLLATERAL_RATIO()":"7a9fffb7","MIN_CREDIT_SCORE()":"0a49cf4d","MIN_LOAN_DURATION()":"89d99a05","PRICE_STALENESS_THRESHOLD()":"f25b9caa","addSupportedToken(address,string,uint8,address)":"5c211efc","authorizedRiskOracles(address)":"6eef1154","baseInterestRate()":"afd92762","borrowerLoans(address,uint256)":"e3ed1902","calculateDynamicRate(uint256)":"844186f1","calculateUSDValue(uint256,uint256)":"119328d6","collectedFees()":"9003adfe","creditScores(address)":"80bb7273","feeRecipient()":"46904840","finalizeAuction(uint256)":"e8083863","fundLoan(uint256)":"846b909a","getActiveLoanRequests()":"9772d7ee","getLatestPrice(uint256)":"b94fe917","getLoansEligibleForLiquidation()":"b891ba44","isLoanUnderwater(uint256)":"5003e25a","lenderLoans(address,uint256)":"3cdb72f1","liquidateLoan(uint256)":"ccdd9f5d","liquidationAuctions(uint256)":"f8fa3ea7","liquidationFeeRate()":"5fb3b1b5","loans(uint256)":"e1ec3c68","nextAuctionId()":"fc528482","nextLoanId()":"87c51459","nextTokenId()":"75794a3c","owner()":"8da5cb5b","pause()":"8456cb59","paused()":"5c975abb","placeBid(uint256)":"9979ef45","protocolFeeRate()":"58f85880","rateSlope1()":"5454a4b6","rateSlope2()":"1eedf5c7","renounceOwnership()":"715018a6","repayLoan(uint256)":"ab7b1c89","requestLoan(uint256,uint256,uint256,uint256,uint256,string)":"da69dd59","supportedTokens(uint256)":"c6255626","tokenUtilization(uint256)":"781c9923","transferOwnership(address)":"f2fde38b","unpause()":"3f4ba83a","updateDynamicRateParams(uint256,uint256,uint256,uint256)":"e4df2f3b","updateLiquidationParams(uint256,uint256)":"a5a2a5dd","updatePriceFeed(uint256,address)":"acfc827e","utilizationOptimal()":"35f78283","withdrawFees()":"476343ee"}}}}}