{"contracts/LoanRestructuring.sol":{"LoanRestructuring":{"abi":[{"inputs":[{"internalType":"address","name":"_loanContract","type":"address"}],"stateMutability":"nonpayable","type":"constructor"},{"anonymous":false,"inputs":[{"indexed":true,"internalType":"uint256","name":"proposalId","type":"uint256"},{"indexed":true,"internalType":"uint256","name":"loanId","type":"uint256"},{"indexed":true,"internalType":"address","name":"proposer","type":"address"},{"indexed":false,"internalType":"enum LoanRestructuring.ProposalType","name":"proposalType","type":"uint8"}],"name":"ProposalCreated","type":"event"},{"anonymous":false,"inputs":[{"indexed":true,"internalType":"uint256","name":"proposalId","type":"uint256"},{"indexed":true,"internalType":"uint256","name":"loanId","type":"uint256"},{"indexed":false,"internalType":"enum LoanRestructuring.ProposalStatus","name":"status","type":"uint8"}],"name":"ProposalExecuted","type":"event"},{"anonymous":false,"inputs":[{"indexed":true,"internalType":"uint256","name":"proposalId","type":"uint256"},{"indexed":true,"internalType":"address","name":"voter","type":"address"},{"indexed":false,"internalType":"bool","name":"choice","type":"bool"},{"indexed":false,"internalType":"uint256","name":"weight","type":"uint256"}],"name":"VoteCast","type":"event"},{"inputs":[],"name":"MIN_VOTING_THRESHOLD","outputs":[{"internalType":"uint256","name":"","type":"uint256"}],"stateMutability":"view","type":"function"},{"inputs":[],"name":"VOTING_PERIOD","outputs":[{"internalType":"uint256","name":"","type":"uint256"}],"stateMutability":"view","type":"function"},{"inputs":[{"internalType":"address","name":"_voter","type":"address"},{"internalType":"uint256","name":"_loanId","type":"uint256"}],"name":"calculateVotingWeight","outputs":[{"internalType":"uint256","name":"","type":"uint256"}],"stateMutability":"pure","type":"function"},{"inputs":[{"internalType":"uint256","name":"_loanId","type":"uint256"},{"internalType":"enum LoanRestructuring.ProposalType","name":"_proposalType","type":"uint8"},{"internalType":"uint256","name":"_newInterestRate","type":"uint256"},{"internalType":"uint256","name":"_newDuration","type":"uint256"},{"internalType":"uint256","name":"_additionalCollateral","type":"uint256"},{"internalType":"uint256","name":"_reducedPrincipal","type":"uint256"},{"internalType":"string","name":"_reason","type":"string"}],"name":"createProposal","outputs":[{"internalType":"uint256","name":"","type":"uint256"}],"stateMutability":"nonpayable","type":"function"},{"inputs":[{"internalType":"uint256","name":"_loanId","type":"uint256"},{"internalType":"uint256","name":"_newInterestRate","type":"uint256"},{"internalType":"uint256","name":"_newDuration","type":"uint256"},{"internalType":"string","name":"_reason","type":"string"}],"name":"emergencyRestructure","outputs":[],"stateMutability":"nonpayable","type":"function"},{"inputs":[{"internalType":"uint256","name":"_proposalId","type":"uint256"}],"name":"executeProposal","outputs":[],"stateMutability":"nonpayable","type":"function"},{"inputs":[{"internalType":"uint256","name":"_proposalId","type":"uint256"}],"name":"expireProposal","outputs":[],"stateMutability":"nonpayable","type":"function"},{"inputs":[{"internalType":"uint256","name":"_loanId","type":"uint256"}],"name":"getLoanProposals","outputs":[{"internalType":"uint256[]","name":"","type":"uint256[]"}],"stateMutability":"view","type":"function"},{"inputs":[{"internalType":"uint256","name":"_proposalId","type":"uint256"}],"name":"getProposal","outputs":[{"internalType":"uint256","name":"loanId","type":"uint256"},{"internalType":"address","name":"proposer","type":"address"},{"internalType":"enum LoanRestructuring.ProposalType","name":"proposalType","type":"uint8"},{"internalType":"uint256","name":"newInterestRate","type":"uint256"},{"internalType":"uint256","name":"newDuration","type":"uint256"},{"internalType":"uint256","name":"additionalCollateral","type":"uint256"},{"internalType":"uint256","name":"reducedPrincipal","type":"uint256"},{"internalType":"string","name":"reason","type":"string"},{"internalType":"uint256","name":"proposedAt","type":"uint256"},{"internalType":"uint256","name":"votingDeadline","type":"uint256"},{"internalType":"enum LoanRestructuring.ProposalStatus","name":"status","type":"uint8"},{"internalType":"uint256","name":"approvalVotes","type":"uint256"},{"internalType":"uint256","name":"rejectionVotes","type":"uint256"}],"stateMutability":"view","type":"function"},{"inputs":[],"name":"loanContract","outputs":[{"internalType":"contract ILoanChain","name":"","type":"address"}],"stateMutability":"view","type":"function"},{"inputs":[{"internalType":"uint256","name":"","type":"uint256"},{"internalType":"uint256","name":"","type":"uint256"}],"name":"loanProposals","outputs":[{"internalType":"uint256","name":"","type":"uint256"}],"stateMutability":"view","type":"function"},{"inputs":[],"name":"nextProposalId","outputs":[{"internalType":"uint256","name":"","type":"uint256"}],"stateMutability":"view","type":"function"},{"inputs":[],"name":"owner","outputs":[{"internalType":"address","name":"","type":"address"}],"stateMutability":"view","type":"function"},{"inputs":[{"internalType":"uint256","name":"","type":"uint256"}],"name":"proposals","outputs":[{"internalType":"uint256","name":"loanId","type":"uint256"},{"internalType":"address","name":"proposer","type":"address"},{"internalType":"enum LoanRestructuring.ProposalType","name":"proposalType","type":"uint8"},{"internalType":"uint256","name":"newInterestRate","type":"uint256"},{"internalType":"uint256","name":"newDuration","type":"uint256"},{"internalType":"uint256","name":"additionalCollateral","type":"uint256"},{"internalType":"uint256","name":"reducedPrincipal","type":"uint256"},{"internalType":"string","name":"reason","type":"string"},{"internalType":"uint256","name":"proposedAt","type":"uint256"},{"internalType":"uint256","name":"votingDeadline","type":"uint256"},{"internalType":"enum LoanRestructuring.ProposalStatus","name":"status","type":"uint8"},{"internalType":"uint256","name":"approvalVotes","type":"uint256"},{"internalType":"uint256","name":"rejectionVotes","type":"uint256"}],"stateMutability":"view","type":"function"},{"inputs":[{"internalType":"uint256","name":"_proposalId","type":"uint256"},{"internalType":"bool","name":"_approve","type":"bool"}],"name":"vote","outputs":[],"stateMutability":"nonpayable","type":"function"}],"evm":{"bytecode":{"linkReferences":{},"object":"60803461007957601f61136938819003918201601f19168301916001600160401b0383118484101761007e5780849260209460405283398101031261007957516001600160a01b03811690819003610079576001600355600480546001600160a01b0319169190911790556040516112d490816100958239f35b600080fd5b634e487b7160e01b600052604160045260246000fdfe6040608081526004908136101561001557600080fd5b600090813560e01c8063013cf08b14610d265780630d61b51914610ba9578063253f284b14610b815780632ab09d1414610b635780633974647b14610b1d578063494be52d14610a7e578063709aa269146107f55780638da5cb5b146107ce5780638f58cb67146107a2578063b1610d7e14610785578063c7f758a8146106f6578063c9d27afe14610567578063e1b526b01461047f578063e7f33bb6146104645763ebaa2abd146100c657600080fd5b346104605760e036600319011261046057823591602492833591600683101561045d5767ffffffffffffffff60c435818111610459576101099036908901610fdb565b9660018060a01b03808254169087518092632820036560e11b82528785830152818b6101809384935afa92831561044f57869187946103e1575b5050811633149182156103d4575b50501561039e5787511561036a576003549661016c8861104b565b60039081558885526001602081815289872088815580830180546001600160a81b0319163360ff60a01b19161760a08c901b60ff60a01b161790556044356002820155606435938101939093556084358584015560a43560058401558b51909b92956006870193908211610358578c6101e58554610dae565b601f8111610310575b50508c908d601f84116001146102ad57509282939183928a946102a2575b50501b916000199060031b1c19161790555b42600784015562093a804201918242116102915750506008820155600901805460ff191690558181526002865283902061025990859061108b565b61026583518093610ec6565b837fa9b7501054ec8150de9dd4c4819fea4051fa3f26ac91d7d08bfb403ea9a9c216863394a451908152f35b634e487b7160e01b85526011905283fd5b01519250388061020c565b919083601f198116878c52848c20948c905b888383106102f657505050106102dd575b505050811b01905561021e565b015160001960f88460031b161c191690553880806102d0565b8587015188559096019594850194879350908101906102bf565b858a52818a2090601f850160051c820192851061034e575b601f0160051c019084905b82811061034357508e91506101ee565b8a8155018490610333565b9091508190610328565b634e487b7160e01b8852604186528488fd5b606490600f88602089519362461bcd60e51b85528401528201526e1499585cdbdb881c995c5d5a5c9959608a1b6044820152fd5b606490601188602089519362461bcd60e51b8552840152820152702737ba10309039ba30b5b2b437b63232b960791b6044820152fd5b9091501633143880610151565b8194508092503d8311610448575b6103f98183610de8565b810103126104445761040d60208301611037565b610418898401611037565b9261014081015160ff8116036104405761016001518015150361043c578138610143565b8580fd5b8680fd5b8480fd5b503d6103ef565b89513d88823e3d90fd5b8280fd5b80fd5b5080fd5b50346104605781600319360112610460576020905160338152f35b5082346104595760203660031901126104595780359081845260016020528284206104af600782015415156110c5565b60098101805460ff81166005811015610554576104cc9015611111565b60088301546201518081018091116105415742111561050a5760ff19168317905554925190815260008051602061127f83398151915290602090a380f35b855162461bcd60e51b8152602081860152601160248201527010d85b9b9bdd08195e1c1a5c99481e595d607a1b6044820152606490fd5b634e487b7160e01b885260118552602488fd5b634e487b7160e01b885260218552602488fd5b509134610460578260031936011261046057803590602435801515918282036104445783855260209160018352868620916105a7600784015415156110c5565b600883015442116106bd5760ff60098401541660058110156106aa576105cd9015611111565b600c83019033885281855260ff8989205416610677575085937fcbdf6214089cba887ecbf35a0b6a734589959c9763342c756bb2a80ca2bc9f6e93610660989993600193338c528352848b2060ff19908582825416179055600d83018452858c209081541660ff8a1617905560001461066357600a0161064d8154611070565b90555b82519586528501523393a3611174565b80f35b600b016106708154611070565b9055610650565b885162461bcd60e51b8152908101859052600d60248201526c105b1c9958591e481d9bdd1959609a1b6044820152606490fd5b634e487b7160e01b885260218252602488fd5b875162461bcd60e51b81529081018490526013602482015272159bdd1a5b99c81c195c9a5bd908195b991959606a1b6044820152606490fd5b50903461045d57602036600319011261045d578161078191843581526001602052208054926001820154946002830154916003840154918401549060058501549060078601549160088701549360ff60098901541695600a890154976107636006600b8c01549b01610e20565b94519c8d9c60a082901c60ff16916001600160a01b0316908e610ef6565b0390f35b50346104605781600319360112610460576020905162093a808152f35b508234610459578160031936011261045957356001600160a01b03811603610460576020905160018152f35b5034610460578160031936011261046057905490516001600160a01b039091168152602090f35b5091346104605760803660031901126104605780359067ffffffffffffffff906064358281116104445761082c9036908301610fdb565b84549095906001600160a01b03163303610a4f5760039081549361084f8561104b565b83558487526001602081815283892088815580830180546001600160a81b0319163360ff60a01b191617600560a01b1790556024356002820155604435818701558a519196929390926006840192918211610a3c57506108af8254610dae565b601f81116109f6575b5086601f821160011461098357908060099493928c9d60008051602061127f8339815191529b9c9d92610978575b505060001982891b1c191690851b1790555b426007820155426008820155019060ff19825416179055858752600283526109228582892061108b565b6109438560005260016020526009604060002001600360ff19825416179055565b80516005815286867fa9b7501054ec8150de9dd4c4819fea4051fa3f26ac91d7d08bfb403ea9a9c216863394a451908152a380f35b0151905038806108e6565b828b52878b2090601f1983168c5b8181106109e1575091839160008051602061127f8339815191529b9c9d9e60099796958995106109c9575b505050811b0190556108f8565b0151600019838b1b60f8161c191690553880806109bc565b8e830151845592870192918a01918a01610991565b828b52878b20601f830160051c810191898410610a32575b601f0160051c019085905b828110610a275750506108b8565b8c8155018590610a19565b9091508190610a0e565b634e487b7160e01b8b526041905260248afd5b906020606492519162461bcd60e51b835282015260096024820152682737ba1037bbb732b960b91b6044820152fd5b5091903461045d57602091826003193601126104605792919235815260028352818120908251808584549182815201908194845286842090845b818110610b095750505081610ace910382610de8565b83519485948186019282875251809352850193925b828110610af257505050500390f35b835185528695509381019392810192600101610ae3565b825484529288019260019283019201610ab8565b50903461045d578160031936011261045d5760243592358152600260205281812090815484101561045d5750602092610b5591610fad565b91905490519160031b1c8152f35b50346104605781600319360112610460576020906003549051908152f35b5082346104595782600319360112610459575490516001600160a01b03909116815260209150f35b50829034610459576020366003190112610459578135908184526001602052808420610bda600782015415156110c5565b600981019384549060ff821660058110156106aa57610bf99015611111565b6008830154421115610ced57600a830154610c18600b8501548261107e565b918215610cba57606482029180830460641490151715610ca7575060209360008051602061127f83398151915295936033610c58610c969560ff95611154565b10610c9a575060018219895416178855610c898760005260016020526009604060002001600360ff19825416179055565b5496541691518092610ee9565ba380f35b8219166002178855610c89565b634e487b7160e01b895260119052602488fd5b606490602087519162461bcd60e51b8352820152600d60248201526c139bc81d9bdd195cc818d85cdd609a1b6044820152fd5b606490602085519162461bcd60e51b83528201526013602482015272566f74696e67207374696c6c2061637469766560681b6044820152fd5b50903461045d57602036600319011261045d57816107819184358152600160205220918254926001810154946002820154906003830154908301546005840154610d7260068601610e20565b9060078601549260088701549460ff60098901541696600b600a8a015499015499519c8d809d60ff8360a01c169260018060a01b031691610ef6565b90600182811c92168015610dde575b6020831014610dc857565b634e487b7160e01b600052602260045260246000fd5b91607f1691610dbd565b90601f8019910116810190811067ffffffffffffffff821117610e0a57604052565b634e487b7160e01b600052604160045260246000fd5b9060405191826000825492610e3484610dae565b908184526001948581169081600014610ea35750600114610e60575b5050610e5e92500383610de8565b565b9093915060005260209081600020936000915b818310610e8b575050610e5e93508201013880610e50565b85548884018501529485019487945091830191610e73565b915050610e5e94506020925060ff191682840152151560051b8201013880610e50565b906006821015610ed35752565b634e487b7160e01b600052602160045260246000fd5b906005821015610ed35752565b9a989d9c9b9997969492610f2391969492968c5260209660018060a01b0316878d015260408c0190610ec6565b60608a0152608089015260a088015260c08701526101a0918260e08801528051809388015260005b838110610f985750505091610f8e916101809594936101c0906000828289010152601f801991011686010198610100860152610120850152610140840190610ee9565b6101608201520152565b8181018301518882016101c001528201610f4b565b8054821015610fc55760005260206000200190600090565b634e487b7160e01b600052603260045260246000fd5b81601f820112156110325780359067ffffffffffffffff8211610e0a5760405192611010601f8401601f191660200185610de8565b8284526020838301011161103257816000926020809301838601378301015290565b600080fd5b51906001600160a01b038216820361103257565b600019811461105a5760010190565b634e487b7160e01b600052601160045260246000fd5b906001820180921161105a57565b9190820180921161105a57565b805468010000000000000000811015610e0a576110ad91600182018155610fad565b819291549060031b91821b91600019901b1916179055565b156110cc57565b60405162461bcd60e51b815260206004820152601760248201527f50726f706f73616c20646f6573206e6f742065786973740000000000000000006044820152606490fd5b1561111857565b60405162461bcd60e51b815260206004820152601460248201527350726f706f73616c206e6f742070656e64696e6760601b6044820152606490fd5b811561115e570490565b634e487b7160e01b600052601260045260246000fd5b8060005260016020526040600020600a810154611195600b8301548261107e565b9081156112785760648102908082046064149015171561105a57816111b991611154565b604b81118061126d575b156112225750509060008051602061127f833981519152602060ff60098501946001821987541617865561120e8560005260016020526009604060002001600360ff19825416179055565b5494541661121f6040518092610ee9565ba3565b6019119081611261575b50611235575050565b60098101600260ff19825416179055549060008051602061127f833981519152602060405160028152a3565b6003915010153861122c565b5060038210156111c3565b5050505056fec4a1eb62b140c739bdeba594ea9649595ce2623904685c56204572688460883ea2646970667358221220ea0467be71a526bac870b90d58869eaebaf122aa7c07067b449f692df108bc0c64736f6c63430008140033","opcodes":"PUSH1 0x80 CALLVALUE PUSH2 0x79 JUMPI PUSH1 0x1F PUSH2 0x1369 CODESIZE DUP2 SWAP1 SUB SWAP2 DUP3 ADD PUSH1 0x1F NOT AND DUP4 ADD SWAP2 PUSH1 0x1 PUSH1 0x1 PUSH1 0x40 SHL SUB DUP4 GT DUP5 DUP5 LT OR PUSH2 0x7E JUMPI DUP1 DUP5 SWAP3 PUSH1 0x20 SWAP5 PUSH1 0x40 MSTORE DUP4 CODECOPY DUP2 ADD SUB SLT PUSH2 0x79 JUMPI MLOAD PUSH1 0x1 PUSH1 0x1 PUSH1 0xA0 SHL SUB DUP2 AND SWAP1 DUP2 SWAP1 SUB PUSH2 0x79 JUMPI PUSH1 0x1 PUSH1 0x3 SSTORE PUSH1 0x4 DUP1 SLOAD PUSH1 0x1 PUSH1 0x1 PUSH1 0xA0 SHL SUB NOT AND SWAP2 SWAP1 SWAP2 OR SWAP1 SSTORE PUSH1 0x40 MLOAD PUSH2 0x12D4 SWAP1 DUP2 PUSH2 0x95 DUP3 CODECOPY RETURN JUMPDEST PUSH1 0x0 DUP1 REVERT JUMPDEST PUSH4 0x4E487B71 PUSH1 0xE0 SHL PUSH1 0x0 MSTORE PUSH1 0x41 PUSH1 0x4 MSTORE PUSH1 0x24 PUSH1 0x0 REVERT INVALID PUSH1 0x40 PUSH1 0x80 DUP2 MSTORE PUSH1 0x4 SWAP1 DUP2 CALLDATASIZE LT ISZERO PUSH2 0x15 JUMPI PUSH1 0x0 DUP1 REVERT JUMPDEST PUSH1 0x0 SWAP1 DUP2 CALLDATALOAD PUSH1 0xE0 SHR DUP1 PUSH4 0x13CF08B EQ PUSH2 0xD26 JUMPI DUP1 PUSH4 0xD61B519 EQ PUSH2 0xBA9 JUMPI DUP1 PUSH4 0x253F284B EQ PUSH2 0xB81 JUMPI DUP1 PUSH4 0x2AB09D14 EQ PUSH2 0xB63 JUMPI DUP1 PUSH4 0x3974647B EQ PUSH2 0xB1D JUMPI DUP1 PUSH4 0x494BE52D EQ PUSH2 0xA7E JUMPI DUP1 PUSH4 0x709AA269 EQ PUSH2 0x7F5 JUMPI DUP1 PUSH4 0x8DA5CB5B EQ PUSH2 0x7CE JUMPI DUP1 PUSH4 0x8F58CB67 EQ PUSH2 0x7A2 JUMPI DUP1 PUSH4 0xB1610D7E EQ PUSH2 0x785 JUMPI DUP1 PUSH4 0xC7F758A8 EQ PUSH2 0x6F6 JUMPI DUP1 PUSH4 0xC9D27AFE EQ PUSH2 0x567 JUMPI DUP1 PUSH4 0xE1B526B0 EQ PUSH2 0x47F JUMPI DUP1 PUSH4 0xE7F33BB6 EQ PUSH2 0x464 JUMPI PUSH4 0xEBAA2ABD EQ PUSH2 0xC6 JUMPI PUSH1 0x0 DUP1 REVERT JUMPDEST CALLVALUE PUSH2 0x460 JUMPI PUSH1 0xE0 CALLDATASIZE PUSH1 0x3 NOT ADD SLT PUSH2 0x460 JUMPI DUP3 CALLDATALOAD SWAP2 PUSH1 0x24 SWAP3 DUP4 CALLDATALOAD SWAP2 PUSH1 0x6 DUP4 LT ISZERO PUSH2 0x45D JUMPI PUSH8 0xFFFFFFFFFFFFFFFF PUSH1 0xC4 CALLDATALOAD DUP2 DUP2 GT PUSH2 0x459 JUMPI PUSH2 0x109 SWAP1 CALLDATASIZE SWAP1 DUP10 ADD PUSH2 0xFDB JUMP JUMPDEST SWAP7 PUSH1 0x1 DUP1 PUSH1 0xA0 SHL SUB DUP1 DUP3 SLOAD AND SWAP1 DUP8 MLOAD DUP1 SWAP3 PUSH4 0x28200365 PUSH1 0xE1 SHL DUP3 MSTORE DUP8 DUP6 DUP4 ADD MSTORE DUP2 DUP12 PUSH2 0x180 SWAP4 DUP5 SWAP4 GAS STATICCALL SWAP3 DUP4 ISZERO PUSH2 0x44F JUMPI DUP7 SWAP2 DUP8 SWAP5 PUSH2 0x3E1 JUMPI JUMPDEST POP POP DUP2 AND CALLER EQ SWAP2 DUP3 ISZERO PUSH2 0x3D4 JUMPI JUMPDEST POP POP ISZERO PUSH2 0x39E JUMPI DUP8 MLOAD ISZERO PUSH2 0x36A JUMPI PUSH1 0x3 SLOAD SWAP7 PUSH2 0x16C DUP9 PUSH2 0x104B JUMP JUMPDEST PUSH1 0x3 SWAP1 DUP2 SSTORE DUP9 DUP6 MSTORE PUSH1 0x1 PUSH1 0x20 DUP2 DUP2 MSTORE DUP10 DUP8 KECCAK256 DUP9 DUP2 SSTORE DUP1 DUP4 ADD DUP1 SLOAD PUSH1 0x1 PUSH1 0x1 PUSH1 0xA8 SHL SUB NOT AND CALLER PUSH1 0xFF PUSH1 0xA0 SHL NOT AND OR PUSH1 0xA0 DUP13 SWAP1 SHL PUSH1 0xFF PUSH1 0xA0 SHL AND OR SWAP1 SSTORE PUSH1 0x44 CALLDATALOAD PUSH1 0x2 DUP3 ADD SSTORE PUSH1 0x64 CALLDATALOAD SWAP4 DUP2 ADD SWAP4 SWAP1 SWAP4 SSTORE PUSH1 0x84 CALLDATALOAD DUP6 DUP5 ADD SSTORE PUSH1 0xA4 CALLDATALOAD PUSH1 0x5 DUP5 ADD SSTORE DUP12 MLOAD SWAP1 SWAP12 SWAP3 SWAP6 PUSH1 0x6 DUP8 ADD SWAP4 SWAP1 DUP3 GT PUSH2 0x358 JUMPI DUP13 PUSH2 0x1E5 DUP6 SLOAD PUSH2 0xDAE JUMP JUMPDEST PUSH1 0x1F DUP2 GT PUSH2 0x310 JUMPI JUMPDEST POP POP DUP13 SWAP1 DUP14 PUSH1 0x1F DUP5 GT PUSH1 0x1 EQ PUSH2 0x2AD JUMPI POP SWAP3 DUP3 SWAP4 SWAP2 DUP4 SWAP3 DUP11 SWAP5 PUSH2 0x2A2 JUMPI JUMPDEST POP POP SHL SWAP2 PUSH1 0x0 NOT SWAP1 PUSH1 0x3 SHL SHR NOT AND OR SWAP1 SSTORE JUMPDEST TIMESTAMP PUSH1 0x7 DUP5 ADD SSTORE PUSH3 0x93A80 TIMESTAMP ADD SWAP2 DUP3 TIMESTAMP GT PUSH2 0x291 JUMPI POP POP PUSH1 0x8 DUP3 ADD SSTORE PUSH1 0x9 ADD DUP1 SLOAD PUSH1 0xFF NOT AND SWAP1 SSTORE DUP2 DUP2 MSTORE PUSH1 0x2 DUP7 MSTORE DUP4 SWAP1 KECCAK256 PUSH2 0x259 SWAP1 DUP6 SWAP1 PUSH2 0x108B JUMP JUMPDEST PUSH2 0x265 DUP4 MLOAD DUP1 SWAP4 PUSH2 0xEC6 JUMP JUMPDEST DUP4 PUSH32 0xA9B7501054EC8150DE9DD4C4819FEA4051FA3F26AC91D7D08BFB403EA9A9C216 DUP7 CALLER SWAP5 LOG4 MLOAD SWAP1 DUP2 MSTORE RETURN JUMPDEST PUSH4 0x4E487B71 PUSH1 0xE0 SHL DUP6 MSTORE PUSH1 0x11 SWAP1 MSTORE DUP4 REVERT JUMPDEST ADD MLOAD SWAP3 POP CODESIZE DUP1 PUSH2 0x20C JUMP JUMPDEST SWAP2 SWAP1 DUP4 PUSH1 0x1F NOT DUP2 AND DUP8 DUP13 MSTORE DUP5 DUP13 KECCAK256 SWAP5 DUP13 SWAP1 JUMPDEST DUP9 DUP4 DUP4 LT PUSH2 0x2F6 JUMPI POP POP POP LT PUSH2 0x2DD JUMPI JUMPDEST POP POP POP DUP2 SHL ADD SWAP1 SSTORE PUSH2 0x21E JUMP JUMPDEST ADD MLOAD PUSH1 0x0 NOT PUSH1 0xF8 DUP5 PUSH1 0x3 SHL AND SHR NOT AND SWAP1 SSTORE CODESIZE DUP1 DUP1 PUSH2 0x2D0 JUMP JUMPDEST DUP6 DUP8 ADD MLOAD DUP9 SSTORE SWAP1 SWAP7 ADD SWAP6 SWAP5 DUP6 ADD SWAP5 DUP8 SWAP4 POP SWAP1 DUP2 ADD SWAP1 PUSH2 0x2BF JUMP JUMPDEST DUP6 DUP11 MSTORE DUP2 DUP11 KECCAK256 SWAP1 PUSH1 0x1F DUP6 ADD PUSH1 0x5 SHR DUP3 ADD SWAP3 DUP6 LT PUSH2 0x34E JUMPI JUMPDEST PUSH1 0x1F ADD PUSH1 0x5 SHR ADD SWAP1 DUP5 SWAP1 JUMPDEST DUP3 DUP2 LT PUSH2 0x343 JUMPI POP DUP15 SWAP2 POP PUSH2 0x1EE JUMP JUMPDEST DUP11 DUP2 SSTORE ADD DUP5 SWAP1 PUSH2 0x333 JUMP JUMPDEST SWAP1 SWAP2 POP DUP2 SWAP1 PUSH2 0x328 JUMP JUMPDEST PUSH4 0x4E487B71 PUSH1 0xE0 SHL DUP9 MSTORE PUSH1 0x41 DUP7 MSTORE DUP5 DUP9 REVERT JUMPDEST PUSH1 0x64 SWAP1 PUSH1 0xF DUP9 PUSH1 0x20 DUP10 MLOAD SWAP4 PUSH3 0x461BCD PUSH1 0xE5 SHL DUP6 MSTORE DUP5 ADD MSTORE DUP3 ADD MSTORE PUSH15 0x1499585CDBDB881C995C5D5A5C9959 PUSH1 0x8A SHL PUSH1 0x44 DUP3 ADD MSTORE REVERT JUMPDEST PUSH1 0x64 SWAP1 PUSH1 0x11 DUP9 PUSH1 0x20 DUP10 MLOAD SWAP4 PUSH3 0x461BCD PUSH1 0xE5 SHL DUP6 MSTORE DUP5 ADD MSTORE DUP3 ADD MSTORE PUSH17 0x2737BA10309039BA30B5B2B437B63232B9 PUSH1 0x79 SHL PUSH1 0x44 DUP3 ADD MSTORE REVERT JUMPDEST SWAP1 SWAP2 POP AND CALLER EQ CODESIZE DUP1 PUSH2 0x151 JUMP JUMPDEST DUP2 SWAP5 POP DUP1 SWAP3 POP RETURNDATASIZE DUP4 GT PUSH2 0x448 JUMPI JUMPDEST PUSH2 0x3F9 DUP2 DUP4 PUSH2 0xDE8 JUMP JUMPDEST DUP2 ADD SUB SLT PUSH2 0x444 JUMPI PUSH2 0x40D PUSH1 0x20 DUP4 ADD PUSH2 0x1037 JUMP JUMPDEST PUSH2 0x418 DUP10 DUP5 ADD PUSH2 0x1037 JUMP JUMPDEST SWAP3 PUSH2 0x140 DUP2 ADD MLOAD PUSH1 0xFF DUP2 AND SUB PUSH2 0x440 JUMPI PUSH2 0x160 ADD MLOAD DUP1 ISZERO ISZERO SUB PUSH2 0x43C JUMPI DUP2 CODESIZE PUSH2 0x143 JUMP JUMPDEST DUP6 DUP1 REVERT JUMPDEST DUP7 DUP1 REVERT JUMPDEST DUP5 DUP1 REVERT JUMPDEST POP RETURNDATASIZE PUSH2 0x3EF JUMP JUMPDEST DUP10 MLOAD RETURNDATASIZE DUP9 DUP3 RETURNDATACOPY RETURNDATASIZE SWAP1 REVERT JUMPDEST DUP3 DUP1 REVERT JUMPDEST DUP1 REVERT JUMPDEST POP DUP1 REVERT JUMPDEST POP CALLVALUE PUSH2 0x460 JUMPI DUP2 PUSH1 0x3 NOT CALLDATASIZE ADD SLT PUSH2 0x460 JUMPI PUSH1 0x20 SWAP1 MLOAD PUSH1 0x33 DUP2 MSTORE RETURN JUMPDEST POP DUP3 CALLVALUE PUSH2 0x459 JUMPI PUSH1 0x20 CALLDATASIZE PUSH1 0x3 NOT ADD SLT PUSH2 0x459 JUMPI DUP1 CALLDATALOAD SWAP1 DUP2 DUP5 MSTORE PUSH1 0x1 PUSH1 0x20 MSTORE DUP3 DUP5 KECCAK256 PUSH2 0x4AF PUSH1 0x7 DUP3 ADD SLOAD ISZERO ISZERO PUSH2 0x10C5 JUMP JUMPDEST PUSH1 0x9 DUP2 ADD DUP1 SLOAD PUSH1 0xFF DUP2 AND PUSH1 0x5 DUP2 LT ISZERO PUSH2 0x554 JUMPI PUSH2 0x4CC SWAP1 ISZERO PUSH2 0x1111 JUMP JUMPDEST PUSH1 0x8 DUP4 ADD SLOAD PUSH3 0x15180 DUP2 ADD DUP1 SWAP2 GT PUSH2 0x541 JUMPI TIMESTAMP GT ISZERO PUSH2 0x50A JUMPI PUSH1 0xFF NOT AND DUP4 OR SWAP1 SSTORE SLOAD SWAP3 MLOAD SWAP1 DUP2 MSTORE PUSH1 0x0 DUP1 MLOAD PUSH1 0x20 PUSH2 0x127F DUP4 CODECOPY DUP2 MLOAD SWAP2 MSTORE SWAP1 PUSH1 0x20 SWAP1 LOG3 DUP1 RETURN JUMPDEST DUP6 MLOAD PUSH3 0x461BCD PUSH1 0xE5 SHL DUP2 MSTORE PUSH1 0x20 DUP2 DUP7 ADD MSTORE PUSH1 0x11 PUSH1 0x24 DUP3 ADD MSTORE PUSH17 0x10D85B9B9BDD08195E1C1A5C99481E595D PUSH1 0x7A SHL PUSH1 0x44 DUP3 ADD MSTORE PUSH1 0x64 SWAP1 REVERT JUMPDEST PUSH4 0x4E487B71 PUSH1 0xE0 SHL DUP9 MSTORE PUSH1 0x11 DUP6 MSTORE PUSH1 0x24 DUP9 REVERT JUMPDEST PUSH4 0x4E487B71 PUSH1 0xE0 SHL DUP9 MSTORE PUSH1 0x21 DUP6 MSTORE PUSH1 0x24 DUP9 REVERT JUMPDEST POP SWAP2 CALLVALUE PUSH2 0x460 JUMPI DUP3 PUSH1 0x3 NOT CALLDATASIZE ADD SLT PUSH2 0x460 JUMPI DUP1 CALLDATALOAD SWAP1 PUSH1 0x24 CALLDATALOAD DUP1 ISZERO ISZERO SWAP2 DUP3 DUP3 SUB PUSH2 0x444 JUMPI DUP4 DUP6 MSTORE PUSH1 0x20 SWAP2 PUSH1 0x1 DUP4 MSTORE DUP7 DUP7 KECCAK256 SWAP2 PUSH2 0x5A7 PUSH1 0x7 DUP5 ADD SLOAD ISZERO ISZERO PUSH2 0x10C5 JUMP JUMPDEST PUSH1 0x8 DUP4 ADD SLOAD TIMESTAMP GT PUSH2 0x6BD JUMPI PUSH1 0xFF PUSH1 0x9 DUP5 ADD SLOAD AND PUSH1 0x5 DUP2 LT ISZERO PUSH2 0x6AA JUMPI PUSH2 0x5CD SWAP1 ISZERO PUSH2 0x1111 JUMP JUMPDEST PUSH1 0xC DUP4 ADD SWAP1 CALLER DUP9 MSTORE DUP2 DUP6 MSTORE PUSH1 0xFF DUP10 DUP10 KECCAK256 SLOAD AND PUSH2 0x677 JUMPI POP DUP6 SWAP4 PUSH32 0xCBDF6214089CBA887ECBF35A0B6A734589959C9763342C756BB2A80CA2BC9F6E SWAP4 PUSH2 0x660 SWAP9 SWAP10 SWAP4 PUSH1 0x1 SWAP4 CALLER DUP13 MSTORE DUP4 MSTORE DUP5 DUP12 KECCAK256 PUSH1 0xFF NOT SWAP1 DUP6 DUP3 DUP3 SLOAD AND OR SWAP1 SSTORE PUSH1 0xD DUP4 ADD DUP5 MSTORE DUP6 DUP13 KECCAK256 SWAP1 DUP2 SLOAD AND PUSH1 0xFF DUP11 AND OR SWAP1 SSTORE PUSH1 0x0 EQ PUSH2 0x663 JUMPI PUSH1 0xA ADD PUSH2 0x64D DUP2 SLOAD PUSH2 0x1070 JUMP JUMPDEST SWAP1 SSTORE JUMPDEST DUP3 MLOAD SWAP6 DUP7 MSTORE DUP6 ADD MSTORE CALLER SWAP4 LOG3 PUSH2 0x1174 JUMP JUMPDEST DUP1 RETURN JUMPDEST PUSH1 0xB ADD PUSH2 0x670 DUP2 SLOAD PUSH2 0x1070 JUMP JUMPDEST SWAP1 SSTORE PUSH2 0x650 JUMP JUMPDEST DUP9 MLOAD PUSH3 0x461BCD PUSH1 0xE5 SHL DUP2 MSTORE SWAP1 DUP2 ADD DUP6 SWAP1 MSTORE PUSH1 0xD PUSH1 0x24 DUP3 ADD MSTORE PUSH13 0x105B1C9958591E481D9BDD1959 PUSH1 0x9A SHL PUSH1 0x44 DUP3 ADD MSTORE PUSH1 0x64 SWAP1 REVERT JUMPDEST PUSH4 0x4E487B71 PUSH1 0xE0 SHL DUP9 MSTORE PUSH1 0x21 DUP3 MSTORE PUSH1 0x24 DUP9 REVERT JUMPDEST DUP8 MLOAD PUSH3 0x461BCD PUSH1 0xE5 SHL DUP2 MSTORE SWAP1 DUP2 ADD DUP5 SWAP1 MSTORE PUSH1 0x13 PUSH1 0x24 DUP3 ADD MSTORE PUSH19 0x159BDD1A5B99C81C195C9A5BD908195B991959 PUSH1 0x6A SHL PUSH1 0x44 DUP3 ADD MSTORE PUSH1 0x64 SWAP1 REVERT JUMPDEST POP SWAP1 CALLVALUE PUSH2 0x45D JUMPI PUSH1 0x20 CALLDATASIZE PUSH1 0x3 NOT ADD SLT PUSH2 0x45D JUMPI DUP2 PUSH2 0x781 SWAP2 DUP5 CALLDATALOAD DUP2 MSTORE PUSH1 0x1 PUSH1 0x20 MSTORE KECCAK256 DUP1 SLOAD SWAP3 PUSH1 0x1 DUP3 ADD SLOAD SWAP5 PUSH1 0x2 DUP4 ADD SLOAD SWAP2 PUSH1 0x3 DUP5 ADD SLOAD SWAP2 DUP5 ADD SLOAD SWAP1 PUSH1 0x5 DUP6 ADD SLOAD SWAP1 PUSH1 0x7 DUP7 ADD SLOAD SWAP2 PUSH1 0x8 DUP8 ADD SLOAD SWAP4 PUSH1 0xFF PUSH1 0x9 DUP10 ADD SLOAD AND SWAP6 PUSH1 0xA DUP10 ADD SLOAD SWAP8 PUSH2 0x763 PUSH1 0x6 PUSH1 0xB DUP13 ADD SLOAD SWAP12 ADD PUSH2 0xE20 JUMP JUMPDEST SWAP5 MLOAD SWAP13 DUP14 SWAP13 PUSH1 0xA0 DUP3 SWAP1 SHR PUSH1 0xFF AND SWAP2 PUSH1 0x1 PUSH1 0x1 PUSH1 0xA0 SHL SUB AND SWAP1 DUP15 PUSH2 0xEF6 JUMP JUMPDEST SUB SWAP1 RETURN JUMPDEST POP CALLVALUE PUSH2 0x460 JUMPI DUP2 PUSH1 0x3 NOT CALLDATASIZE ADD SLT PUSH2 0x460 JUMPI PUSH1 0x20 SWAP1 MLOAD PUSH3 0x93A80 DUP2 MSTORE RETURN JUMPDEST POP DUP3 CALLVALUE PUSH2 0x459 JUMPI DUP2 PUSH1 0x3 NOT CALLDATASIZE ADD SLT PUSH2 0x459 JUMPI CALLDATALOAD PUSH1 0x1 PUSH1 0x1 PUSH1 0xA0 SHL SUB DUP2 AND SUB PUSH2 0x460 JUMPI PUSH1 0x20 SWAP1 MLOAD PUSH1 0x1 DUP2 MSTORE RETURN JUMPDEST POP CALLVALUE PUSH2 0x460 JUMPI DUP2 PUSH1 0x3 NOT CALLDATASIZE ADD SLT PUSH2 0x460 JUMPI SWAP1 SLOAD SWAP1 MLOAD PUSH1 0x1 PUSH1 0x1 PUSH1 0xA0 SHL SUB SWAP1 SWAP2 AND DUP2 MSTORE PUSH1 0x20 SWAP1 RETURN JUMPDEST POP SWAP2 CALLVALUE PUSH2 0x460 JUMPI PUSH1 0x80 CALLDATASIZE PUSH1 0x3 NOT ADD SLT PUSH2 0x460 JUMPI DUP1 CALLDATALOAD SWAP1 PUSH8 0xFFFFFFFFFFFFFFFF SWAP1 PUSH1 0x64 CALLDATALOAD DUP3 DUP2 GT PUSH2 0x444 JUMPI PUSH2 0x82C SWAP1 CALLDATASIZE SWAP1 DUP4 ADD PUSH2 0xFDB JUMP JUMPDEST DUP5 SLOAD SWAP1 SWAP6 SWAP1 PUSH1 0x1 PUSH1 0x1 PUSH1 0xA0 SHL SUB AND CALLER SUB PUSH2 0xA4F JUMPI PUSH1 0x3 SWAP1 DUP2 SLOAD SWAP4 PUSH2 0x84F DUP6 PUSH2 0x104B JUMP JUMPDEST DUP4 SSTORE DUP5 DUP8 MSTORE PUSH1 0x1 PUSH1 0x20 DUP2 DUP2 MSTORE DUP4 DUP10 KECCAK256 DUP9 DUP2 SSTORE DUP1 DUP4 ADD DUP1 SLOAD PUSH1 0x1 PUSH1 0x1 PUSH1 0xA8 SHL SUB NOT AND CALLER PUSH1 0xFF PUSH1 0xA0 SHL NOT AND OR PUSH1 0x5 PUSH1 0xA0 SHL OR SWAP1 SSTORE PUSH1 0x24 CALLDATALOAD PUSH1 0x2 DUP3 ADD SSTORE PUSH1 0x44 CALLDATALOAD DUP2 DUP8 ADD SSTORE DUP11 MLOAD SWAP2 SWAP7 SWAP3 SWAP4 SWAP1 SWAP3 PUSH1 0x6 DUP5 ADD SWAP3 SWAP2 DUP3 GT PUSH2 0xA3C JUMPI POP PUSH2 0x8AF DUP3 SLOAD PUSH2 0xDAE JUMP JUMPDEST PUSH1 0x1F DUP2 GT PUSH2 0x9F6 JUMPI JUMPDEST POP DUP7 PUSH1 0x1F DUP3 GT PUSH1 0x1 EQ PUSH2 0x983 JUMPI SWAP1 DUP1 PUSH1 0x9 SWAP5 SWAP4 SWAP3 DUP13 SWAP14 PUSH1 0x0 DUP1 MLOAD PUSH1 0x20 PUSH2 0x127F DUP4 CODECOPY DUP2 MLOAD SWAP2 MSTORE SWAP12 SWAP13 SWAP14 SWAP3 PUSH2 0x978 JUMPI JUMPDEST POP POP PUSH1 0x0 NOT DUP3 DUP10 SHL SHR NOT AND SWAP1 DUP6 SHL OR SWAP1 SSTORE JUMPDEST TIMESTAMP PUSH1 0x7 DUP3 ADD SSTORE TIMESTAMP PUSH1 0x8 DUP3 ADD SSTORE ADD SWAP1 PUSH1 0xFF NOT DUP3 SLOAD AND OR SWAP1 SSTORE DUP6 DUP8 MSTORE PUSH1 0x2 DUP4 MSTORE PUSH2 0x922 DUP6 DUP3 DUP10 KECCAK256 PUSH2 0x108B JUMP JUMPDEST PUSH2 0x943 DUP6 PUSH1 0x0 MSTORE PUSH1 0x1 PUSH1 0x20 MSTORE PUSH1 0x9 PUSH1 0x40 PUSH1 0x0 KECCAK256 ADD PUSH1 0x3 PUSH1 0xFF NOT DUP3 SLOAD AND OR SWAP1 SSTORE JUMP JUMPDEST DUP1 MLOAD PUSH1 0x5 DUP2 MSTORE DUP7 DUP7 PUSH32 0xA9B7501054EC8150DE9DD4C4819FEA4051FA3F26AC91D7D08BFB403EA9A9C216 DUP7 CALLER SWAP5 LOG4 MLOAD SWAP1 DUP2 MSTORE LOG3 DUP1 RETURN JUMPDEST ADD MLOAD SWAP1 POP CODESIZE DUP1 PUSH2 0x8E6 JUMP JUMPDEST DUP3 DUP12 MSTORE DUP8 DUP12 KECCAK256 SWAP1 PUSH1 0x1F NOT DUP4 AND DUP13 JUMPDEST DUP2 DUP2 LT PUSH2 0x9E1 JUMPI POP SWAP2 DUP4 SWAP2 PUSH1 0x0 DUP1 MLOAD PUSH1 0x20 PUSH2 0x127F DUP4 CODECOPY DUP2 MLOAD SWAP2 MSTORE SWAP12 SWAP13 SWAP14 SWAP15 PUSH1 0x9 SWAP8 SWAP7 SWAP6 DUP10 SWAP6 LT PUSH2 0x9C9 JUMPI JUMPDEST POP POP POP DUP2 SHL ADD SWAP1 SSTORE PUSH2 0x8F8 JUMP JUMPDEST ADD MLOAD PUSH1 0x0 NOT DUP4 DUP12 SHL PUSH1 0xF8 AND SHR NOT AND SWAP1 SSTORE CODESIZE DUP1 DUP1 PUSH2 0x9BC JUMP JUMPDEST DUP15 DUP4 ADD MLOAD DUP5 SSTORE SWAP3 DUP8 ADD SWAP3 SWAP2 DUP11 ADD SWAP2 DUP11 ADD PUSH2 0x991 JUMP JUMPDEST DUP3 DUP12 MSTORE DUP8 DUP12 KECCAK256 PUSH1 0x1F DUP4 ADD PUSH1 0x5 SHR DUP2 ADD SWAP2 DUP10 DUP5 LT PUSH2 0xA32 JUMPI JUMPDEST PUSH1 0x1F ADD PUSH1 0x5 SHR ADD SWAP1 DUP6 SWAP1 JUMPDEST DUP3 DUP2 LT PUSH2 0xA27 JUMPI POP POP PUSH2 0x8B8 JUMP JUMPDEST DUP13 DUP2 SSTORE ADD DUP6 SWAP1 PUSH2 0xA19 JUMP JUMPDEST SWAP1 SWAP2 POP DUP2 SWAP1 PUSH2 0xA0E JUMP JUMPDEST PUSH4 0x4E487B71 PUSH1 0xE0 SHL DUP12 MSTORE PUSH1 0x41 SWAP1 MSTORE PUSH1 0x24 DUP11 REVERT JUMPDEST SWAP1 PUSH1 0x20 PUSH1 0x64 SWAP3 MLOAD SWAP2 PUSH3 0x461BCD PUSH1 0xE5 SHL DUP4 MSTORE DUP3 ADD MSTORE PUSH1 0x9 PUSH1 0x24 DUP3 ADD MSTORE PUSH9 0x2737BA1037BBB732B9 PUSH1 0xB9 SHL PUSH1 0x44 DUP3 ADD MSTORE REVERT JUMPDEST POP SWAP2 SWAP1 CALLVALUE PUSH2 0x45D JUMPI PUSH1 0x20 SWAP2 DUP3 PUSH1 0x3 NOT CALLDATASIZE ADD SLT PUSH2 0x460 JUMPI SWAP3 SWAP2 SWAP3 CALLDATALOAD DUP2 MSTORE PUSH1 0x2 DUP4 MSTORE DUP2 DUP2 KECCAK256 SWAP1 DUP3 MLOAD DUP1 DUP6 DUP5 SLOAD SWAP2 DUP3 DUP2 MSTORE ADD SWAP1 DUP2 SWAP5 DUP5 MSTORE DUP7 DUP5 KECCAK256 SWAP1 DUP5 JUMPDEST DUP2 DUP2 LT PUSH2 0xB09 JUMPI POP POP POP DUP2 PUSH2 0xACE SWAP2 SUB DUP3 PUSH2 0xDE8 JUMP JUMPDEST DUP4 MLOAD SWAP5 DUP6 SWAP5 DUP2 DUP7 ADD SWAP3 DUP3 DUP8 MSTORE MLOAD DUP1 SWAP4 MSTORE DUP6 ADD SWAP4 SWAP3 JUMPDEST DUP3 DUP2 LT PUSH2 0xAF2 JUMPI POP POP POP POP SUB SWAP1 RETURN JUMPDEST DUP4 MLOAD DUP6 MSTORE DUP7 SWAP6 POP SWAP4 DUP2 ADD SWAP4 SWAP3 DUP2 ADD SWAP3 PUSH1 0x1 ADD PUSH2 0xAE3 JUMP JUMPDEST DUP3 SLOAD DUP5 MSTORE SWAP3 DUP9 ADD SWAP3 PUSH1 0x1 SWAP3 DUP4 ADD SWAP3 ADD PUSH2 0xAB8 JUMP JUMPDEST POP SWAP1 CALLVALUE PUSH2 0x45D JUMPI DUP2 PUSH1 0x3 NOT CALLDATASIZE ADD SLT PUSH2 0x45D JUMPI PUSH1 0x24 CALLDATALOAD SWAP3 CALLDATALOAD DUP2 MSTORE PUSH1 0x2 PUSH1 0x20 MSTORE DUP2 DUP2 KECCAK256 SWAP1 DUP2 SLOAD DUP5 LT ISZERO PUSH2 0x45D JUMPI POP PUSH1 0x20 SWAP3 PUSH2 0xB55 SWAP2 PUSH2 0xFAD JUMP JUMPDEST SWAP2 SWAP1 SLOAD SWAP1 MLOAD SWAP2 PUSH1 0x3 SHL SHR DUP2 MSTORE RETURN JUMPDEST POP CALLVALUE PUSH2 0x460 JUMPI DUP2 PUSH1 0x3 NOT CALLDATASIZE ADD SLT PUSH2 0x460 JUMPI PUSH1 0x20 SWAP1 PUSH1 0x3 SLOAD SWAP1 MLOAD SWAP1 DUP2 MSTORE RETURN JUMPDEST POP DUP3 CALLVALUE PUSH2 0x459 JUMPI DUP3 PUSH1 0x3 NOT CALLDATASIZE ADD SLT PUSH2 0x459 JUMPI SLOAD SWAP1 MLOAD PUSH1 0x1 PUSH1 0x1 PUSH1 0xA0 SHL SUB SWAP1 SWAP2 AND DUP2 MSTORE PUSH1 0x20 SWAP2 POP RETURN JUMPDEST POP DUP3 SWAP1 CALLVALUE PUSH2 0x459 JUMPI PUSH1 0x20 CALLDATASIZE PUSH1 0x3 NOT ADD SLT PUSH2 0x459 JUMPI DUP2 CALLDATALOAD SWAP1 DUP2 DUP5 MSTORE PUSH1 0x1 PUSH1 0x20 MSTORE DUP1 DUP5 KECCAK256 PUSH2 0xBDA PUSH1 0x7 DUP3 ADD SLOAD ISZERO ISZERO PUSH2 0x10C5 JUMP JUMPDEST PUSH1 0x9 DUP2 ADD SWAP4 DUP5 SLOAD SWAP1 PUSH1 0xFF DUP3 AND PUSH1 0x5 DUP2 LT ISZERO PUSH2 0x6AA JUMPI PUSH2 0xBF9 SWAP1 ISZERO PUSH2 0x1111 JUMP JUMPDEST PUSH1 0x8 DUP4 ADD SLOAD TIMESTAMP GT ISZERO PUSH2 0xCED JUMPI PUSH1 0xA DUP4 ADD SLOAD PUSH2 0xC18 PUSH1 0xB DUP6 ADD SLOAD DUP3 PUSH2 0x107E JUMP JUMPDEST SWAP2 DUP3 ISZERO PUSH2 0xCBA JUMPI PUSH1 0x64 DUP3 MUL SWAP2 DUP1 DUP4 DIV PUSH1 0x64 EQ SWAP1 ISZERO OR ISZERO PUSH2 0xCA7 JUMPI POP PUSH1 0x20 SWAP4 PUSH1 0x0 DUP1 MLOAD PUSH1 0x20 PUSH2 0x127F DUP4 CODECOPY DUP2 MLOAD SWAP2 MSTORE SWAP6 SWAP4 PUSH1 0x33 PUSH2 0xC58 PUSH2 0xC96 SWAP6 PUSH1 0xFF SWAP6 PUSH2 0x1154 JUMP JUMPDEST LT PUSH2 0xC9A JUMPI POP PUSH1 0x1 DUP3 NOT DUP10 SLOAD AND OR DUP9 SSTORE PUSH2 0xC89 DUP8 PUSH1 0x0 MSTORE PUSH1 0x1 PUSH1 0x20 MSTORE PUSH1 0x9 PUSH1 0x40 PUSH1 0x0 KECCAK256 ADD PUSH1 0x3 PUSH1 0xFF NOT DUP3 SLOAD AND OR SWAP1 SSTORE JUMP JUMPDEST SLOAD SWAP7 SLOAD AND SWAP2 MLOAD DUP1 SWAP3 PUSH2 0xEE9 JUMP JUMPDEST LOG3 DUP1 RETURN JUMPDEST DUP3 NOT AND PUSH1 0x2 OR DUP9 SSTORE PUSH2 0xC89 JUMP JUMPDEST PUSH4 0x4E487B71 PUSH1 0xE0 SHL DUP10 MSTORE PUSH1 0x11 SWAP1 MSTORE PUSH1 0x24 DUP9 REVERT JUMPDEST PUSH1 0x64 SWAP1 PUSH1 0x20 DUP8 MLOAD SWAP2 PUSH3 0x461BCD PUSH1 0xE5 SHL DUP4 MSTORE DUP3 ADD MSTORE PUSH1 0xD PUSH1 0x24 DUP3 ADD MSTORE PUSH13 0x139BC81D9BDD195CC818D85CDD PUSH1 0x9A SHL PUSH1 0x44 DUP3 ADD MSTORE REVERT JUMPDEST PUSH1 0x64 SWAP1 PUSH1 0x20 DUP6 MLOAD SWAP2 PUSH3 0x461BCD PUSH1 0xE5 SHL DUP4 MSTORE DUP3 ADD MSTORE PUSH1 0x13 PUSH1 0x24 DUP3 ADD MSTORE PUSH19 0x566F74696E67207374696C6C20616374697665 PUSH1 0x68 SHL PUSH1 0x44 DUP3 ADD MSTORE REVERT JUMPDEST POP SWAP1 CALLVALUE PUSH2 0x45D JUMPI PUSH1 0x20 CALLDATASIZE PUSH1 0x3 NOT ADD SLT PUSH2 0x45D JUMPI DUP2 PUSH2 0x781 SWAP2 DUP5 CALLDATALOAD DUP2 MSTORE PUSH1 0x1 PUSH1 0x20 MSTORE KECCAK256 SWAP2 DUP3 SLOAD SWAP3 PUSH1 0x1 DUP2 ADD SLOAD SWAP5 PUSH1 0x2 DUP3 ADD SLOAD SWAP1 PUSH1 0x3 DUP4 ADD SLOAD SWAP1 DUP4 ADD SLOAD PUSH1 0x5 DUP5 ADD SLOAD PUSH2 0xD72 PUSH1 0x6 DUP7 ADD PUSH2 0xE20 JUMP JUMPDEST SWAP1 PUSH1 0x7 DUP7 ADD SLOAD SWAP3 PUSH1 0x8 DUP8 ADD SLOAD SWAP5 PUSH1 0xFF PUSH1 0x9 DUP10 ADD SLOAD AND SWAP7 PUSH1 0xB PUSH1 0xA DUP11 ADD SLOAD SWAP10 ADD SLOAD SWAP10 MLOAD SWAP13 DUP14 DUP1 SWAP14 PUSH1 0xFF DUP4 PUSH1 0xA0 SHR AND SWAP3 PUSH1 0x1 DUP1 PUSH1 0xA0 SHL SUB AND SWAP2 PUSH2 0xEF6 JUMP JUMPDEST SWAP1 PUSH1 0x1 DUP3 DUP2 SHR SWAP3 AND DUP1 ISZERO PUSH2 0xDDE JUMPI JUMPDEST PUSH1 0x20 DUP4 LT EQ PUSH2 0xDC8 JUMPI JUMP JUMPDEST PUSH4 0x4E487B71 PUSH1 0xE0 SHL PUSH1 0x0 MSTORE PUSH1 0x22 PUSH1 0x4 MSTORE PUSH1 0x24 PUSH1 0x0 REVERT JUMPDEST SWAP2 PUSH1 0x7F AND SWAP2 PUSH2 0xDBD JUMP JUMPDEST SWAP1 PUSH1 0x1F DUP1 NOT SWAP2 ADD AND DUP2 ADD SWAP1 DUP2 LT PUSH8 0xFFFFFFFFFFFFFFFF DUP3 GT OR PUSH2 0xE0A JUMPI PUSH1 0x40 MSTORE JUMP JUMPDEST PUSH4 0x4E487B71 PUSH1 0xE0 SHL PUSH1 0x0 MSTORE PUSH1 0x41 PUSH1 0x4 MSTORE PUSH1 0x24 PUSH1 0x0 REVERT JUMPDEST SWAP1 PUSH1 0x40 MLOAD SWAP2 DUP3 PUSH1 0x0 DUP3 SLOAD SWAP3 PUSH2 0xE34 DUP5 PUSH2 0xDAE JUMP JUMPDEST SWAP1 DUP2 DUP5 MSTORE PUSH1 0x1 SWAP5 DUP6 DUP2 AND SWAP1 DUP2 PUSH1 0x0 EQ PUSH2 0xEA3 JUMPI POP PUSH1 0x1 EQ PUSH2 0xE60 JUMPI JUMPDEST POP POP PUSH2 0xE5E SWAP3 POP SUB DUP4 PUSH2 0xDE8 JUMP JUMPDEST JUMP JUMPDEST SWAP1 SWAP4 SWAP2 POP PUSH1 0x0 MSTORE PUSH1 0x20 SWAP1 DUP2 PUSH1 0x0 KECCAK256 SWAP4 PUSH1 0x0 SWAP2 JUMPDEST DUP2 DUP4 LT PUSH2 0xE8B JUMPI POP POP PUSH2 0xE5E SWAP4 POP DUP3 ADD ADD CODESIZE DUP1 PUSH2 0xE50 JUMP JUMPDEST DUP6 SLOAD DUP9 DUP5 ADD DUP6 ADD MSTORE SWAP5 DUP6 ADD SWAP5 DUP8 SWAP5 POP SWAP2 DUP4 ADD SWAP2 PUSH2 0xE73 JUMP JUMPDEST SWAP2 POP POP PUSH2 0xE5E SWAP5 POP PUSH1 0x20 SWAP3 POP PUSH1 0xFF NOT AND DUP3 DUP5 ADD MSTORE ISZERO ISZERO PUSH1 0x5 SHL DUP3 ADD ADD CODESIZE DUP1 PUSH2 0xE50 JUMP JUMPDEST SWAP1 PUSH1 0x6 DUP3 LT ISZERO PUSH2 0xED3 JUMPI MSTORE JUMP JUMPDEST PUSH4 0x4E487B71 PUSH1 0xE0 SHL PUSH1 0x0 MSTORE PUSH1 0x21 PUSH1 0x4 MSTORE PUSH1 0x24 PUSH1 0x0 REVERT JUMPDEST SWAP1 PUSH1 0x5 DUP3 LT ISZERO PUSH2 0xED3 JUMPI MSTORE JUMP JUMPDEST SWAP11 SWAP9 SWAP14 SWAP13 SWAP12 SWAP10 SWAP8 SWAP7 SWAP5 SWAP3 PUSH2 0xF23 SWAP2 SWAP7 SWAP5 SWAP3 SWAP7 DUP13 MSTORE PUSH1 0x20 SWAP7 PUSH1 0x1 DUP1 PUSH1 0xA0 SHL SUB AND DUP8 DUP14 ADD MSTORE PUSH1 0x40 DUP13 ADD SWAP1 PUSH2 0xEC6 JUMP JUMPDEST PUSH1 0x60 DUP11 ADD MSTORE PUSH1 0x80 DUP10 ADD MSTORE PUSH1 0xA0 DUP9 ADD MSTORE PUSH1 0xC0 DUP8 ADD MSTORE PUSH2 0x1A0 SWAP2 DUP3 PUSH1 0xE0 DUP9 ADD MSTORE DUP1 MLOAD DUP1 SWAP4 DUP9 ADD MSTORE PUSH1 0x0 JUMPDEST DUP4 DUP2 LT PUSH2 0xF98 JUMPI POP POP POP SWAP2 PUSH2 0xF8E SWAP2 PUSH2 0x180 SWAP6 SWAP5 SWAP4 PUSH2 0x1C0 SWAP1 PUSH1 0x0 DUP3 DUP3 DUP10 ADD ADD MSTORE PUSH1 0x1F DUP1 NOT SWAP2 ADD AND DUP7 ADD ADD SWAP9 PUSH2 0x100 DUP7 ADD MSTORE PUSH2 0x120 DUP6 ADD MSTORE PUSH2 0x140 DUP5 ADD SWAP1 PUSH2 0xEE9 JUMP JUMPDEST PUSH2 0x160 DUP3 ADD MSTORE ADD MSTORE JUMP JUMPDEST DUP2 DUP2 ADD DUP4 ADD MLOAD DUP9 DUP3 ADD PUSH2 0x1C0 ADD MSTORE DUP3 ADD PUSH2 0xF4B JUMP JUMPDEST DUP1 SLOAD DUP3 LT ISZERO PUSH2 0xFC5 JUMPI PUSH1 0x0 MSTORE PUSH1 0x20 PUSH1 0x0 KECCAK256 ADD SWAP1 PUSH1 0x0 SWAP1 JUMP JUMPDEST PUSH4 0x4E487B71 PUSH1 0xE0 SHL PUSH1 0x0 MSTORE PUSH1 0x32 PUSH1 0x4 MSTORE PUSH1 0x24 PUSH1 0x0 REVERT JUMPDEST DUP2 PUSH1 0x1F DUP3 ADD SLT ISZERO PUSH2 0x1032 JUMPI DUP1 CALLDATALOAD SWAP1 PUSH8 0xFFFFFFFFFFFFFFFF DUP3 GT PUSH2 0xE0A JUMPI PUSH1 0x40 MLOAD SWAP3 PUSH2 0x1010 PUSH1 0x1F DUP5 ADD PUSH1 0x1F NOT AND PUSH1 0x20 ADD DUP6 PUSH2 0xDE8 JUMP JUMPDEST DUP3 DUP5 MSTORE PUSH1 0x20 DUP4 DUP4 ADD ADD GT PUSH2 0x1032 JUMPI DUP2 PUSH1 0x0 SWAP3 PUSH1 0x20 DUP1 SWAP4 ADD DUP4 DUP7 ADD CALLDATACOPY DUP4 ADD ADD MSTORE SWAP1 JUMP JUMPDEST PUSH1 0x0 DUP1 REVERT JUMPDEST MLOAD SWAP1 PUSH1 0x1 PUSH1 0x1 PUSH1 0xA0 SHL SUB DUP3 AND DUP3 SUB PUSH2 0x1032 JUMPI JUMP JUMPDEST PUSH1 0x0 NOT DUP2 EQ PUSH2 0x105A JUMPI PUSH1 0x1 ADD SWAP1 JUMP JUMPDEST PUSH4 0x4E487B71 PUSH1 0xE0 SHL PUSH1 0x0 MSTORE PUSH1 0x11 PUSH1 0x4 MSTORE PUSH1 0x24 PUSH1 0x0 REVERT JUMPDEST SWAP1 PUSH1 0x1 DUP3 ADD DUP1 SWAP3 GT PUSH2 0x105A JUMPI JUMP JUMPDEST SWAP2 SWAP1 DUP3 ADD DUP1 SWAP3 GT PUSH2 0x105A JUMPI JUMP JUMPDEST DUP1 SLOAD PUSH9 0x10000000000000000 DUP2 LT ISZERO PUSH2 0xE0A JUMPI PUSH2 0x10AD SWAP2 PUSH1 0x1 DUP3 ADD DUP2 SSTORE PUSH2 0xFAD JUMP JUMPDEST DUP2 SWAP3 SWAP2 SLOAD SWAP1 PUSH1 0x3 SHL SWAP2 DUP3 SHL SWAP2 PUSH1 0x0 NOT SWAP1 SHL NOT AND OR SWAP1 SSTORE JUMP JUMPDEST ISZERO PUSH2 0x10CC JUMPI JUMP JUMPDEST PUSH1 0x40 MLOAD PUSH3 0x461BCD PUSH1 0xE5 SHL DUP2 MSTORE PUSH1 0x20 PUSH1 0x4 DUP3 ADD MSTORE PUSH1 0x17 PUSH1 0x24 DUP3 ADD MSTORE PUSH32 0x50726F706F73616C20646F6573206E6F74206578697374000000000000000000 PUSH1 0x44 DUP3 ADD MSTORE PUSH1 0x64 SWAP1 REVERT JUMPDEST ISZERO PUSH2 0x1118 JUMPI JUMP JUMPDEST PUSH1 0x40 MLOAD PUSH3 0x461BCD PUSH1 0xE5 SHL DUP2 MSTORE PUSH1 0x20 PUSH1 0x4 DUP3 ADD MSTORE PUSH1 0x14 PUSH1 0x24 DUP3 ADD MSTORE PUSH20 0x50726F706F73616C206E6F742070656E64696E67 PUSH1 0x60 SHL PUSH1 0x44 DUP3 ADD MSTORE PUSH1 0x64 SWAP1 REVERT JUMPDEST DUP2 ISZERO PUSH2 0x115E JUMPI DIV SWAP1 JUMP JUMPDEST PUSH4 0x4E487B71 PUSH1 0xE0 SHL PUSH1 0x0 MSTORE PUSH1 0x12 PUSH1 0x4 MSTORE PUSH1 0x24 PUSH1 0x0 REVERT JUMPDEST DUP1 PUSH1 0x0 MSTORE PUSH1 0x1 PUSH1 0x20 MSTORE PUSH1 0x40 PUSH1 0x0 KECCAK256 PUSH1 0xA DUP2 ADD SLOAD PUSH2 0x1195 PUSH1 0xB DUP4 ADD SLOAD DUP3 PUSH2 0x107E JUMP JUMPDEST SWAP1 DUP2 ISZERO PUSH2 0x1278 JUMPI PUSH1 0x64 DUP2 MUL SWAP1 DUP1 DUP3 DIV PUSH1 0x64 EQ SWAP1 ISZERO OR ISZERO PUSH2 0x105A JUMPI DUP2 PUSH2 0x11B9 SWAP2 PUSH2 0x1154 JUMP JUMPDEST PUSH1 0x4B DUP2 GT DUP1 PUSH2 0x126D JUMPI JUMPDEST ISZERO PUSH2 0x1222 JUMPI POP POP SWAP1 PUSH1 0x0 DUP1 MLOAD PUSH1 0x20 PUSH2 0x127F DUP4 CODECOPY DUP2 MLOAD SWAP2 MSTORE PUSH1 0x20 PUSH1 0xFF PUSH1 0x9 DUP6 ADD SWAP5 PUSH1 0x1 DUP3 NOT DUP8 SLOAD AND OR DUP7 SSTORE PUSH2 0x120E DUP6 PUSH1 0x0 MSTORE PUSH1 0x1 PUSH1 0x20 MSTORE PUSH1 0x9 PUSH1 0x40 PUSH1 0x0 KECCAK256 ADD PUSH1 0x3 PUSH1 0xFF NOT DUP3 SLOAD AND OR SWAP1 SSTORE JUMP JUMPDEST SLOAD SWAP5 SLOAD AND PUSH2 0x121F PUSH1 0x40 MLOAD DUP1 SWAP3 PUSH2 0xEE9 JUMP JUMPDEST LOG3 JUMP JUMPDEST PUSH1 0x19 GT SWAP1 DUP2 PUSH2 0x1261 JUMPI JUMPDEST POP PUSH2 0x1235 JUMPI POP POP JUMP JUMPDEST PUSH1 0x9 DUP2 ADD PUSH1 0x2 PUSH1 0xFF NOT DUP3 SLOAD AND OR SWAP1 SSTORE SLOAD SWAP1 PUSH1 0x0 DUP1 MLOAD PUSH1 0x20 PUSH2 0x127F DUP4 CODECOPY DUP2 MLOAD SWAP2 MSTORE PUSH1 0x20 PUSH1 0x40 MLOAD PUSH1 0x2 DUP2 MSTORE LOG3 JUMP JUMPDEST PUSH1 0x3 SWAP2 POP LT ISZERO CODESIZE PUSH2 0x122C JUMP JUMPDEST POP PUSH1 0x3 DUP3 LT ISZERO PUSH2 0x11C3 JUMP JUMPDEST POP POP POP POP JUMP INVALID 0xC4 LOG1 0xEB PUSH3 0xB140C7 CODECOPY 0xBD 0xEB 0xA5 SWAP5 0xEA SWAP7 0x49 MSIZE 0x5C 0xE2 PUSH3 0x390468 0x5C JUMP KECCAK256 GASLIMIT PUSH19 0x688460883EA2646970667358221220EA0467BE PUSH18 0xA526BAC870B90D58869EAEBAF122AA7C0706 PUSH28 0x449F692DF108BC0C64736F6C63430008140033000000000000000000 "},"methodIdentifiers":{"MIN_VOTING_THRESHOLD()":"e7f33bb6","VOTING_PERIOD()":"b1610d7e","calculateVotingWeight(address,uint256)":"8f58cb67","createProposal(uint256,uint8,uint256,uint256,uint256,uint256,string)":"ebaa2abd","emergencyRestructure(uint256,uint256,uint256,string)":"709aa269","executeProposal(uint256)":"0d61b519","expireProposal(uint256)":"e1b526b0","getLoanProposals(uint256)":"494be52d","getProposal(uint256)":"c7f758a8","loanContract()":"253f284b","loanProposals(uint256,uint256)":"3974647b","nextProposalId()":"2ab09d14","owner()":"8da5cb5b","proposals(uint256)":"013cf08b","vote(uint256,bool)":"c9d27afe"}}}}}