{"contracts/LoanChainV2.sol":{"LoanChainV2":{"abi":[{"inputs":[],"stateMutability":"nonpayable","type":"constructor"},{"inputs":[{"internalType":"address","name":"owner","type":"address"}],"name":"OwnableInvalidOwner","type":"error"},{"inputs":[{"internalType":"address","name":"account","type":"address"}],"name":"OwnableUnauthorizedAccount","type":"error"},{"inputs":[],"name":"ReentrancyGuardReentrantCall","type":"error"},{"inputs":[{"internalType":"address","name":"token","type":"address"}],"name":"SafeERC20FailedOperation","type":"error"},{"anonymous":false,"inputs":[{"indexed":true,"internalType":"uint256","name":"loanId","type":"uint256"},{"indexed":false,"internalType":"uint256","name":"totalFunded","type":"uint256"},{"indexed":false,"internalType":"uint256","name":"fundedAt","type":"uint256"}],"name":"LoanFullyFunded","type":"event"},{"anonymous":false,"inputs":[{"indexed":true,"internalType":"uint256","name":"loanId","type":"uint256"},{"indexed":true,"internalType":"address","name":"lender","type":"address"},{"indexed":false,"internalType":"uint256","name":"amount","type":"uint256"},{"indexed":false,"internalType":"uint256","name":"totalFunded","type":"uint256"}],"name":"LoanPartiallyFunded","type":"event"},{"anonymous":false,"inputs":[{"indexed":true,"internalType":"uint256","name":"loanId","type":"uint256"},{"indexed":true,"internalType":"address","name":"borrower","type":"address"},{"indexed":false,"internalType":"uint256","name":"totalRepaidAmount","type":"uint256"}],"name":"LoanRepaid","type":"event"},{"anonymous":false,"inputs":[{"indexed":true,"internalType":"uint256","name":"loanId","type":"uint256"},{"indexed":true,"internalType":"address","name":"borrower","type":"address"},{"indexed":false,"internalType":"uint256","name":"totalAmount","type":"uint256"},{"indexed":false,"internalType":"enum LoanChainV2.TokenType","name":"loanToken","type":"uint8"},{"indexed":false,"internalType":"enum LoanChainV2.TokenType","name":"collateralToken","type":"uint8"},{"indexed":false,"internalType":"uint256","name":"collateralAmount","type":"uint256"},{"indexed":false,"internalType":"uint256","name":"interestRate","type":"uint256"},{"indexed":false,"internalType":"uint256","name":"duration","type":"uint256"},{"indexed":false,"internalType":"bool","name":"isVariableRate","type":"bool"}],"name":"LoanRequested","type":"event"},{"anonymous":false,"inputs":[{"indexed":true,"internalType":"address","name":"previousOwner","type":"address"},{"indexed":true,"internalType":"address","name":"newOwner","type":"address"}],"name":"OwnershipTransferred","type":"event"},{"anonymous":false,"inputs":[{"indexed":true,"internalType":"uint256","name":"loanId","type":"uint256"},{"indexed":true,"internalType":"address","name":"lender","type":"address"},{"indexed":false,"internalType":"uint256","name":"repaidAmount","type":"uint256"}],"name":"PartialRepayment","type":"event"},{"anonymous":false,"inputs":[{"indexed":true,"internalType":"enum LoanChainV2.TokenType","name":"tokenType","type":"uint8"},{"indexed":false,"internalType":"uint256","name":"newPrice","type":"uint256"}],"name":"PriceUpdated","type":"event"},{"anonymous":false,"inputs":[{"indexed":true,"internalType":"enum LoanChainV2.TokenType","name":"tokenType","type":"uint8"},{"indexed":true,"internalType":"address","name":"contractAddress","type":"address"}],"name":"TokenAdded","type":"event"},{"inputs":[],"name":"MAX_INTEREST_RATE","outputs":[{"internalType":"uint256","name":"","type":"uint256"}],"stateMutability":"view","type":"function"},{"inputs":[],"name":"MAX_LOAN_DURATION","outputs":[{"internalType":"uint256","name":"","type":"uint256"}],"stateMutability":"view","type":"function"},{"inputs":[],"name":"MIN_COLLATERAL_RATIO","outputs":[{"internalType":"uint256","name":"","type":"uint256"}],"stateMutability":"view","type":"function"},{"inputs":[],"name":"MIN_LOAN_DURATION","outputs":[{"internalType":"uint256","name":"","type":"uint256"}],"stateMutability":"view","type":"function"},{"inputs":[{"internalType":"enum LoanChainV2.TokenType","name":"_tokenType","type":"uint8"},{"internalType":"address","name":"_contractAddress","type":"address"},{"internalType":"uint8","name":"_decimals","type":"uint8"},{"internalType":"uint256","name":"_minLoanAmount","type":"uint256"},{"internalType":"uint256","name":"_maxLoanAmount","type":"uint256"}],"name":"addSupportedToken","outputs":[],"stateMutability":"nonpayable","type":"function"},{"inputs":[{"internalType":"address","name":"","type":"address"},{"internalType":"uint256","name":"","type":"uint256"}],"name":"borrowerLoans","outputs":[{"internalType":"uint256","name":"","type":"uint256"}],"stateMutability":"view","type":"function"},{"inputs":[{"internalType":"enum LoanChainV2.TokenType","name":"_tokenType","type":"uint8"},{"internalType":"uint256","name":"_amount","type":"uint256"}],"name":"calculateUSDValue","outputs":[{"internalType":"uint256","name":"","type":"uint256"}],"stateMutability":"view","type":"function"},{"inputs":[{"internalType":"uint256","name":"_loanId","type":"uint256"},{"internalType":"uint256","name":"_amount","type":"uint256"}],"name":"fundLoan","outputs":[],"stateMutability":"payable","type":"function"},{"inputs":[],"name":"getActiveLoanRequests","outputs":[{"internalType":"uint256[]","name":"","type":"uint256[]"}],"stateMutability":"view","type":"function"},{"inputs":[{"internalType":"uint256","name":"_loanId","type":"uint256"}],"name":"getLoan","outputs":[{"components":[{"internalType":"uint256","name":"id","type":"uint256"},{"internalType":"address","name":"borrower","type":"address"},{"internalType":"address[]","name":"lenders","type":"address[]"},{"internalType":"uint256[]","name":"lenderAmounts","type":"uint256[]"},{"internalType":"uint256","name":"totalAmount","type":"uint256"},{"internalType":"uint256","name":"totalFunded","type":"uint256"},{"internalType":"enum LoanChainV2.TokenType","name":"loanToken","type":"uint8"},{"internalType":"enum LoanChainV2.TokenType","name":"collateralToken","type":"uint8"},{"internalType":"uint256","name":"collateralAmount","type":"uint256"},{"internalType":"uint256","name":"interestRate","type":"uint256"},{"internalType":"bool","name":"isVariableRate","type":"bool"},{"internalType":"uint256","name":"duration","type":"uint256"},{"internalType":"uint256","name":"createdAt","type":"uint256"},{"internalType":"uint256","name":"fundedAt","type":"uint256"},{"internalType":"uint256","name":"dueDate","type":"uint256"},{"internalType":"enum LoanChainV2.LoanStatus","name":"status","type":"uint8"},{"internalType":"bool","name":"collateralClaimed","type":"bool"},{"internalType":"uint256","name":"riskScore","type":"uint256"},{"internalType":"bool","name":"hasInsurance","type":"bool"},{"internalType":"uint256","name":"insuranceFee","type":"uint256"}],"internalType":"struct LoanChainV2.Loan","name":"","type":"tuple"}],"stateMutability":"view","type":"function"},{"inputs":[{"internalType":"enum LoanChainV2.TokenType","name":"_tokenType","type":"uint8"}],"name":"getSupportedToken","outputs":[{"components":[{"internalType":"address","name":"contractAddress","type":"address"},{"internalType":"enum LoanChainV2.TokenType","name":"tokenType","type":"uint8"},{"internalType":"uint8","name":"decimals","type":"uint8"},{"internalType":"bool","name":"isActive","type":"bool"},{"internalType":"uint256","name":"minLoanAmount","type":"uint256"},{"internalType":"uint256","name":"maxLoanAmount","type":"uint256"}],"internalType":"struct LoanChainV2.Token","name":"","type":"tuple"}],"stateMutability":"view","type":"function"},{"inputs":[{"internalType":"enum LoanChainV2.TokenType","name":"_tokenType","type":"uint8"}],"name":"getTokenPrice","outputs":[{"internalType":"uint256","name":"","type":"uint256"}],"stateMutability":"view","type":"function"},{"inputs":[{"internalType":"address","name":"","type":"address"},{"internalType":"uint256","name":"","type":"uint256"}],"name":"lenderLoans","outputs":[{"internalType":"uint256","name":"","type":"uint256"}],"stateMutability":"view","type":"function"},{"inputs":[{"internalType":"uint256","name":"","type":"uint256"},{"internalType":"address","name":"","type":"address"}],"name":"lenderPositions","outputs":[{"internalType":"address","name":"lender","type":"address"},{"internalType":"uint256","name":"amount","type":"uint256"},{"internalType":"uint256","name":"fundedAt","type":"uint256"},{"internalType":"bool","name":"repaid","type":"bool"},{"internalType":"uint256","name":"repaidAmount","type":"uint256"}],"stateMutability":"view","type":"function"},{"inputs":[{"internalType":"uint256","name":"","type":"uint256"}],"name":"loans","outputs":[{"internalType":"uint256","name":"id","type":"uint256"},{"internalType":"address","name":"borrower","type":"address"},{"internalType":"uint256","name":"totalAmount","type":"uint256"},{"internalType":"uint256","name":"totalFunded","type":"uint256"},{"internalType":"enum LoanChainV2.TokenType","name":"loanToken","type":"uint8"},{"internalType":"enum LoanChainV2.TokenType","name":"collateralToken","type":"uint8"},{"internalType":"uint256","name":"collateralAmount","type":"uint256"},{"internalType":"uint256","name":"interestRate","type":"uint256"},{"internalType":"bool","name":"isVariableRate","type":"bool"},{"internalType":"uint256","name":"duration","type":"uint256"},{"internalType":"uint256","name":"createdAt","type":"uint256"},{"internalType":"uint256","name":"fundedAt","type":"uint256"},{"internalType":"uint256","name":"dueDate","type":"uint256"},{"internalType":"enum LoanChainV2.LoanStatus","name":"status","type":"uint8"},{"internalType":"bool","name":"collateralClaimed","type":"bool"},{"internalType":"uint256","name":"riskScore","type":"uint256"},{"internalType":"bool","name":"hasInsurance","type":"bool"},{"internalType":"uint256","name":"insuranceFee","type":"uint256"}],"stateMutability":"view","type":"function"},{"inputs":[],"name":"nextLoanId","outputs":[{"internalType":"uint256","name":"","type":"uint256"}],"stateMutability":"view","type":"function"},{"inputs":[],"name":"owner","outputs":[{"internalType":"address","name":"","type":"address"}],"stateMutability":"view","type":"function"},{"inputs":[],"name":"renounceOwnership","outputs":[],"stateMutability":"nonpayable","type":"function"},{"inputs":[{"internalType":"uint256","name":"_totalAmount","type":"uint256"},{"internalType":"enum LoanChainV2.TokenType","name":"_loanToken","type":"uint8"},{"internalType":"enum LoanChainV2.TokenType","name":"_collateralToken","type":"uint8"},{"internalType":"uint256","name":"_collateralAmount","type":"uint256"},{"internalType":"uint256","name":"_interestRate","type":"uint256"},{"internalType":"uint256","name":"_duration","type":"uint256"},{"internalType":"bool","name":"_isVariableRate","type":"bool"},{"internalType":"bool","name":"_hasInsurance","type":"bool"}],"name":"requestLoan","outputs":[],"stateMutability":"payable","type":"function"},{"inputs":[{"internalType":"enum LoanChainV2.TokenType","name":"","type":"uint8"}],"name":"supportedTokens","outputs":[{"internalType":"address","name":"contractAddress","type":"address"},{"internalType":"enum LoanChainV2.TokenType","name":"tokenType","type":"uint8"},{"internalType":"uint8","name":"decimals","type":"uint8"},{"internalType":"bool","name":"isActive","type":"bool"},{"internalType":"uint256","name":"minLoanAmount","type":"uint256"},{"internalType":"uint256","name":"maxLoanAmount","type":"uint256"}],"stateMutability":"view","type":"function"},{"inputs":[{"internalType":"enum LoanChainV2.TokenType","name":"","type":"uint8"}],"name":"tokenPrices","outputs":[{"internalType":"uint256","name":"","type":"uint256"}],"stateMutability":"view","type":"function"},{"inputs":[{"internalType":"address","name":"newOwner","type":"address"}],"name":"transferOwnership","outputs":[],"stateMutability":"nonpayable","type":"function"},{"inputs":[{"internalType":"enum LoanChainV2.TokenType","name":"_tokenType","type":"uint8"},{"internalType":"uint256","name":"_price","type":"uint256"}],"name":"updateTokenPrice","outputs":[],"stateMutability":"nonpayable","type":"function"}],"evm":{"bytecode":{"linkReferences":{},"object":"608060408181523461019357600191600090838255331561017f57508254336001600160a01b031982168117855583516001600160a01b03959290919086167f8be0079c531659141344cd1fd0a4f28419497f9722a3daafe3b4186f6b6457e08580a3600282905560c081016001600160401b0381118282101761016b5784528281526020810194838652848201956012875260608301908482526080840191662386f26fc10000835260a0850193683635c9adc5dea00000855287805260036020528888209551169185549051926005841015610157576002969798999a60ff60a81b905160a81b169260ff60b01b9051151560b01b169360ff60a01b9060a01b169160018060b81b0319161717171784555184840155519101558180526008602052643a35294400838320558152816305f5e10091828282205560028152828282205560038152205551611f4490816101998239f35b634e487b7160e01b89526021600452602489fd5b634e487b7160e01b84526041600452602484fd5b602491631e4fbdf760e01b82526004820152fd5b600080fdfe60a080604052600436101561001357600080fd5b60003560e01c9081630d0b2ca614611ad0575080632ffc204b146119be57806334855d14146119a15780633cdb72f1146119575780633f572d36146118d8578063504006ca1461151a578063715018a6146114bd5780637a9fffb7146114a157806387c514591461148357806389d99a05146114665780638da5cb5b1461143d5780639772d7ee1461132b578063ad8d0138146112b0578063b9c445b914611259578063d42c4c5314611169578063d89e8c1c14611138578063deceafa714611138578063e1ec3c6814610fe9578063e3ed190214610f91578063f2fde38b14610f08578063f4512bb6146108ec578063f498c9cc146101425763fe6993b81461011c57600080fd5b3461013d57602061013561012f36611bc7565b90611c95565b604051908152f35b600080fd5b61010036600319011261013d576005602435101561013d57604460058135101561013d5760c435801515810361013d5760e435151560e4350361013d57610187611eca565b6004351561089d57610bb86084351161086057610e1060a435101580610850575b156108195760ff6101ba602435611b47565b5460b01c16156107d55760ff6101d08335611b47565b5460b01c1615610791576101e8600435602435611c95565b6101f56064358435611c95565b9060788102908082046078149015171561060457606490041161074d576002549061021f82611d45565b600255823561067457606435340361061a575b600060e4356105e3575b6040519061024982611c4b565b6000825260405161025981611c4b565b600081526040519261026a84611c2e565b858452336020850152604084015260608301526004356080830152600060a083015261029b60243560c08401611c89565b6102a9853560e08401611c89565b60643561010083015260843561012083015282151561014083015260a4356101608301524261018083015260006101a083015260006101c083015260006101e083015260006102008301526101f461022083015260e4351515610240830152610260820152826000526004602052604060002090805182556001820160018060a01b036020830151166001600160601b0360a01b825416179055604081015180519067ffffffffffffffff82116105b057600160401b82116105b0576020600285019161037b84845481865585611d9e565b0190600052602060002060005b8381106105c65750505050606081015180519067ffffffffffffffff82116105b057600160401b82116105b057602060038501916103cb84845481865585611d9e565b0190600052602060002060005b83811061059c57505050506080810151600483015560a0810151600583015560c0810151600581101561058657600683015460e083015160058110156105865761ff0060ff9160081b1692169061ffff191617176006830155610100810151600783015561012081015160088301556104676101408201511515600984019060ff801983541691151516179055565b610160810151600a830155610180810151600b8301556101a0810151600c8301556101c0810151600d8301556101e081015160068110156105865760119161026091600e850190815460ff61ff00610200860151151560081b1692169061ffff191617179055610220810151600f8501556104f86102408201511515601086019060ff801983541691151516179055565b0151910155336000526006602052610514826040600020611dd2565b61053a60405193600435855261052f60208601602435611b79565b604085019035611b79565b6064356060840152608435608084015260a43560a0840152151560c08301527fabdb66e6184682b23b47b8b6a7923f5b99d0155e0155200bda4753d7e784699e60e03393a36001600055005b634e487b7160e01b600052602160045260246000fd5b6001906020845194019381840155016103d8565b634e487b7160e01b600052604160045260246000fd5b82516001600160a01b031681830155602090920191600101610388565b5060043560646004350204606403610604576127106064600435020461023c565b634e487b7160e01b600052601160045260246000fd5b60405162461bcd60e51b815260206004820152602d60248201527f4554482073656e74206d7573742065786163746c79206d6174636820636f6c6c818501526c185d195c985b08185b5bdd5b9d609a1b6064820152608490fd5b346106f6576106f16106868435611b47565b60405161069281611c12565b81546001600160a01b0380821683529260029160ff906106bb60a082901c831660208701611c89565b818160a81c16604086015260b01c161515606084015260018101546080840152015460a082015251166064359030903390611e07565b610232565b60405162461bcd60e51b815260206004820152602a60248201527f4e6f204554482073686f756c642062652073656e7420666f7220455243323020818501526918dbdb1b185d195c985b60b21b6064820152608490fd5b60405162461bcd60e51b815260206004820152601760248201527f496e73756666696369656e7420636f6c6c61746572616c00000000000000000081840152606490fd5b60405162461bcd60e51b815260206004820152601e60248201527f436f6c6c61746572616c20746f6b656e206e6f7420737570706f72746564000081840152606490fd5b60405162461bcd60e51b815260206004820152601860248201527f4c6f616e20746f6b656e206e6f7420737570706f72746564000000000000000081840152606490fd5b60405162461bcd60e51b815260206004820152601060248201526f24b73b30b634b210323ab930ba34b7b760811b81840152606490fd5b506301e1338060a43511156101a8565b60405162461bcd60e51b8152602060048201526016602482015275092dce8cae4cae6e840e4c2e8ca40e8dede40d0d2ced60531b81840152606490fd5b60405162461bcd60e51b815260206004820152602260248201527f4c6f616e20616d6f756e74206d7573742062652067726561746572207468616e8184015261020360f41b6064820152608490fd5b604036600319011261013d57610900611eca565b6004356000526004602052604060002060018060a01b036001820154168015610ecd5760ff600e830154166006811015610586578015908115610ec2575b5015610e88573314610e435760243515610df0576109626024356005830154611eed565b600482015410610db55760ff60068201541660058110156105865780610d3257506024353403610ced575b6040518060a081011067ffffffffffffffff60a0830111176105b05760a081016040523381526004602082016024358152610a35604084014281526060850190600082526080860193600085528535600052600560205260406000203360005260205260406000209660018060a01b039051166001600160601b0360a01b885416178755516001870155516002860155511515600385019060ff801983541691151516179055565b519101556002810154600160401b8110156105b057806001610a609201600284015560028301611b19565b81549060031b9033821b9160018060a01b03901b1916179055610a8860243560038301611dd2565b610a986024356005830154611eed565b6005820155336000526007602052610ab66004356040600020611dd2565b600581015460048201548110610c9f5750600160ff19600e8301541617600e82015542600c820155610aec600a82015442611eed565b600d82015560ff6006820154169060018060a01b0360018201541660048201549260058110156105865780610be6575060008080939481935af13d15610be1573d67ffffffffffffffff81116105b05760405190610b54601f8201601f191660200183611c67565b8152600060203d92013e5b15610ba6576005905b01546040519081524260208201527fb96bada2a4e2e402aaa472b5e783a9d8bb13d996387df6beea608680b31ff46f604060043592a25b6001600055005b60405162461bcd60e51b8152602060048201526013602482015272115512081d1c985b9cd9995c8819985a5b1959606a1b6044820152606490fd5b610b5f565b610bef90611b47565b600260405191610bfe83611c12565b80546001600160a01b038116845260ff90610c2260a082901c831660208701611c89565b818160a81c16604086015260b01c161515606084015260018101546080840152015460a082015260018060a01b03905116926040519163a9059cbb60e01b60208401526024830152604482015260448152608081019080821067ffffffffffffffff8311176105b057600593610c9a92604052611e62565b610b68565b90600e600260ff19828401541617910155604051906024358252602082015233907f73a9841ee04f39f41b73f9432c749617285427e60f2fbe3a1bf5a5ef2e6b16cb604060043592a3610b9f565b60405162461bcd60e51b815260206004820152601960248201527f496e636f72726563742045544820616d6f756e742073656e74000000000000006044820152606490fd5b610d3e610db091611b47565b600260405191610d4d83611c12565b80546001600160a01b038116845260ff90610d7160a082901c831660208701611c89565b60a881901c8216604086015260b01c161515606084015260018101546080840152015460a08201525160243590309033906001600160a01b0316611e07565b61098d565b60405162461bcd60e51b8152602060048201526013602482015272115e18d959591cc81b1bd85b88185b5bdd5b9d606a1b6044820152606490fd5b60405162461bcd60e51b815260206004820152602560248201527f46756e64696e6720616d6f756e74206d75737420626520677265617465722074604482015264068616e20360dc1b6064820152608490fd5b60405162461bcd60e51b815260206004820152601960248201527f43616e6e6f742066756e6420796f7572206f776e206c6f616e000000000000006044820152606490fd5b60405162461bcd60e51b81526020600482015260126024820152714c6f616e206e6f7420617661696c61626c6560701b6044820152606490fd5b60029150148361093e565b60405162461bcd60e51b8152602060048201526013602482015272131bd85b88191bd95cc81b9bdd08195e1a5cdd606a1b6044820152606490fd5b3461013d57602036600319011261013d57610f21611b03565b610f29611be6565b6001600160a01b03908116908115610f7857600154826001600160601b0360a01b821617600155167f8be0079c531659141344cd1fd0a4f28419497f9722a3daafe3b4186f6b6457e0600080a3005b604051631e4fbdf760e01b815260006004820152602490fd5b3461013d57604036600319011261013d57610faa611b03565b6001600160a01b031660009081526006602052604090208054602435919082101561013d57602091610fdb91611b19565b90546040519160031b1c8152f35b3461013d57602036600319011261013d576004356000526004602052604060002080549080600160a01b6001900360018201541660048201546005830154600684015460078501546008860154600987015460ff1690600a88015492600b89015494600c8a015496600d8b015498600e8c01549a600f8d01549c6010015460ff169d601101549e604051806080525260805160200152608051604001526080516060015260805160800160ff8216906110a191611b79565b60805160a0019060081c60ff16906110b891611b79565b60805160c0015260805160e001521515608051610100015260805161012001526080516101400152608051610160015260805161018001526080516101a00160ff82169061110591611bba565b60081c60ff1615156080516101c001526080516101e0015215156080516102000152608051610220015260805161024090f35b3461013d57602036600319011261013d57600435600581101561013d57611160602091611b60565b54604051908152f35b3461013d57602036600319011261013d57600435600581101561013d576111be60c091600060a060405161119c81611c12565b8281528260208201528260408201528260608201528260808201520152611b47565b604051906111cb82611c12565b80546001600160a01b038082168452919060ff602085016111f260a084901c831682611c89565b61123c6040870191838560a81c16835283606089019560b01c1615158552600260018701549660808a0197885201549660a089019788526040519851168852516020880190611b79565b5116604085015251151560608401525160808301525160a0820152f35b3461013d5761126736611bc7565b61126f611be6565b8061127983611b60565b5560058210156105865760207ff798c75b2db09ea1034d9be253e9974b17bbe4a06f2b0ff6695054fa5b74719191604051908152a2005b3461013d57604036600319011261013d5760a06112cb611aed565b60043560005260056020526040600020600180841b03809216600052602052604060002090815416906001810154906002810154600460ff6003840154169201549260405194855260208501526040840152151560608301526080820152f35b3461013d57600036600319011261013d576002805460001981018181116106045761135590611d6c565b9160009160015b8181106113b85750505061136f81611d6c565b9160005b828110611394576040516020808252819061139090820187611b86565b0390f35b806113a26113b39284611efa565b516113ad8287611efa565b52611d45565b611373565b8060005260206004815260ff600e908082604060002001541691600692838110156105865715938415611418575b505050506113fd575b6113f890611d45565b61135c565b9261141081856113ad6113f89489611efa565b9390506113ef565b60008681526004909152604090200154169150811015610586578314868080806113e6565b3461013d57600036600319011261013d576001546040516001600160a01b039091168152602090f35b3461013d57600036600319011261013d576020604051610e108152f35b3461013d57600036600319011261013d576020600254604051908152f35b3461013d57600036600319011261013d57602060405160788152f35b3461013d57600036600319011261013d576114d6611be6565b600180546001600160a01b031981169091556000906001600160a01b03167f8be0079c531659141344cd1fd0a4f28419497f9722a3daafe3b4186f6b6457e08280a3005b3461013d57602036600319011261013d57600061026060405161153c81611c2e565b828152826020820152606060408201526060808201528260808201528260a08201528260c08201528260e08201528261010082015282610120820152826101408201528261016082015282610180820152826101a0820152826101c0820152826101e0820152826102008201528261022082015282610240820152015260043560005260046020526040600020604051906115d682611c2e565b8054825260018060a01b0360018201541660208301526040518081600284016020815493848152019060005260206000209260005b8181106118b657505061162092500382611c67565b604083015260405180816020600385015492838152016003850160005260206000209260005b81811061189d57505061165b92500382611c67565b606083015260048101546080830152600581015460a083015261169a60ff600683015461168d82821660c08701611c89565b60081c1660e08401611c89565b6007810154610100830152600881015461012083015260ff6009820154161515610140830152600a810154610160830152600b810154610180830152600c8101546101a0830152600d8101546101c0830152600e81015490600660ff831610156105865760ff8281601194166101e086015260081c161515610200840152600f81015461022084015260ff60108201541615156102408401520154610260820152604051602081528151602082015260018060a01b03602083015116604082015260408201519161028060608301526102a08201835180915260206102c0840194019060005b81811061187e575050506102606117a883946060840151601f19868303016080870152611b86565b91608081015160a085015260a081015160c08501526117cf60c082015160e0860190611b79565b6117e260e0820151610100860190611b79565b61010081015161012085015261012081015161014085015261014081015115156101608501526101608101516101808501526101808101516101a08501526101a08101516101c08501526101c08101516101e085015261184c6101e0820151610200860190611bba565b610200810151151561022085015261022081015161024085015261024081015115158285015201516102808301520390f35b82516001600160a01b0316865260209586019590920191600101611780565b8454835260019485019486945060209093019201611646565b84546001600160a01b031683526001948501948694506020909301920161160b565b3461013d57602036600319011261013d57600435600581101561013d5761190060c091611b47565b805460018201546002909201546040516001600160a01b038316815292909160ff906119356020860160a083901c8416611b79565b818160a81c16604086015260b01c1615156060840152608083015260a0820152f35b3461013d57604036600319011261013d57611970611b03565b6001600160a01b031660009081526007602052604090208054602435919082101561013d57602091610fdb91611b19565b3461013d57600036600319011261013d576020604051610bb88152f35b3461013d5760a036600319011261013d57600435600581101561013d576119e3611aed565b9060443560ff811680910361013d576119fa611be6565b60405190611a0782611c12565b6001600160a01b039384168083529360208301611a248582611c89565b604084019283526060840190600182526080850191606435835260a08601936084358552611a5188611b47565b96511691865490519260058410156105865760029660ff60a81b905160a81b169260ff60b01b9051151560b01b169360ff60a01b9060a01b169168ffffffffffffffffff60b81b16171717178455516001840155519101557f0782d5a983f4f99019eb2dc8dfe67419752a13dca743154e71029fc01318d055600080a3005b3461013d57600036600319011261013d57806301e1338060209252f35b602435906001600160a01b038216820361013d57565b600435906001600160a01b038216820361013d57565b8054821015611b315760005260206000200190600090565b634e487b7160e01b600052603260045260246000fd5b6005811015610586576000526003602052604060002090565b6005811015610586576000526008602052604060002090565b9060058210156105865752565b90815180825260208080930193019160005b828110611ba6575050505090565b835185529381019392810192600101611b98565b9060068210156105865752565b604090600319011261013d57600435600581101561013d579060243590565b6001546001600160a01b03163303611bfa57565b60405163118cdaa760e01b8152336004820152602490fd5b60c0810190811067ffffffffffffffff8211176105b057604052565b610280810190811067ffffffffffffffff8211176105b057604052565b6020810190811067ffffffffffffffff8211176105b057604052565b90601f8019910116810190811067ffffffffffffffff8211176105b057604052565b60058210156105865752565b611d03611ca182611b47565b91604051611cae81611c12565b83546001600160a01b03811682529360a090600290611cd587841c60ff1660208601611c89565b60ff6040850197818160a81c16895260b01c1615156060850152600181015460808501520154910152611b60565b5491828102928184041490151715610604575160ff16604d811161060457600a0a908115611d2f570490565b634e487b7160e01b600052601260045260246000fd5b60001981146106045760010190565b67ffffffffffffffff81116105b05760051b60200190565b90611d7682611d54565b611d836040519182611c67565b8281528092611d94601f1991611d54565b0190602036910137565b9091828110611dac57505050565b60009182526020822092830192015b828110611dc757505050565b818155600101611dbb565b8054600160401b8110156105b057611def91600182018155611b19565b819291549060031b91821b91600019901b1916179055565b6040516323b872dd60e01b60208201526001600160a01b03928316602482015292909116604483015260648083019390935291815260a081019181831067ffffffffffffffff8411176105b057611e6092604052611e62565b565b906000602091828151910182855af115611ebe576000513d611eb557506001600160a01b0381163b155b611e935750565b604051635274afe760e01b81526001600160a01b039091166004820152602490fd5b60011415611e8c565b6040513d6000823e3d90fd5b600260005414611edb576002600055565b604051633ee5aeb560e01b8152600490fd5b9190820180921161060457565b8051821015611b315760209160051b01019056fea264697066735822122037506cc7447fa84b93025402c860b46c58fb12c02454ee96fb0c5e24ba672af564736f6c63430008140033","opcodes":"PUSH1 0x80 PUSH1 0x40 DUP2 DUP2 MSTORE CALLVALUE PUSH2 0x193 JUMPI PUSH1 0x1 SWAP2 PUSH1 0x0 SWAP1 DUP4 DUP3 SSTORE CALLER ISZERO PUSH2 0x17F JUMPI POP DUP3 SLOAD CALLER PUSH1 0x1 PUSH1 0x1 PUSH1 0xA0 SHL SUB NOT DUP3 AND DUP2 OR DUP6 SSTORE DUP4 MLOAD PUSH1 0x1 PUSH1 0x1 PUSH1 0xA0 SHL SUB SWAP6 SWAP3 SWAP1 SWAP2 SWAP1 DUP7 AND PUSH32 0x8BE0079C531659141344CD1FD0A4F28419497F9722A3DAAFE3B4186F6B6457E0 DUP6 DUP1 LOG3 PUSH1 0x2 DUP3 SWAP1 SSTORE PUSH1 0xC0 DUP2 ADD PUSH1 0x1 PUSH1 0x1 PUSH1 0x40 SHL SUB DUP2 GT DUP3 DUP3 LT OR PUSH2 0x16B JUMPI DUP5 MSTORE DUP3 DUP2 MSTORE PUSH1 0x20 DUP2 ADD SWAP5 DUP4 DUP7 MSTORE DUP5 DUP3 ADD SWAP6 PUSH1 0x12 DUP8 MSTORE PUSH1 0x60 DUP4 ADD SWAP1 DUP5 DUP3 MSTORE PUSH1 0x80 DUP5 ADD SWAP2 PUSH7 0x2386F26FC10000 DUP4 MSTORE PUSH1 0xA0 DUP6 ADD SWAP4 PUSH9 0x3635C9ADC5DEA00000 DUP6 MSTORE DUP8 DUP1 MSTORE PUSH1 0x3 PUSH1 0x20 MSTORE DUP9 DUP9 KECCAK256 SWAP6 MLOAD AND SWAP2 DUP6 SLOAD SWAP1 MLOAD SWAP3 PUSH1 0x5 DUP5 LT ISZERO PUSH2 0x157 JUMPI PUSH1 0x2 SWAP7 SWAP8 SWAP9 SWAP10 SWAP11 PUSH1 0xFF PUSH1 0xA8 SHL SWAP1 MLOAD PUSH1 0xA8 SHL AND SWAP3 PUSH1 0xFF PUSH1 0xB0 SHL SWAP1 MLOAD ISZERO ISZERO PUSH1 0xB0 SHL AND SWAP4 PUSH1 0xFF PUSH1 0xA0 SHL SWAP1 PUSH1 0xA0 SHL AND SWAP2 PUSH1 0x1 DUP1 PUSH1 0xB8 SHL SUB NOT AND OR OR OR OR DUP5 SSTORE MLOAD DUP5 DUP5 ADD SSTORE MLOAD SWAP2 ADD SSTORE DUP2 DUP1 MSTORE PUSH1 0x8 PUSH1 0x20 MSTORE PUSH5 0x3A35294400 DUP4 DUP4 KECCAK256 SSTORE DUP2 MSTORE DUP2 PUSH4 0x5F5E100 SWAP2 DUP3 DUP3 DUP3 KECCAK256 SSTORE PUSH1 0x2 DUP2 MSTORE DUP3 DUP3 DUP3 KECCAK256 SSTORE PUSH1 0x3 DUP2 MSTORE KECCAK256 SSTORE MLOAD PUSH2 0x1F44 SWAP1 DUP2 PUSH2 0x199 DUP3 CODECOPY RETURN JUMPDEST PUSH4 0x4E487B71 PUSH1 0xE0 SHL DUP10 MSTORE PUSH1 0x21 PUSH1 0x4 MSTORE PUSH1 0x24 DUP10 REVERT JUMPDEST PUSH4 0x4E487B71 PUSH1 0xE0 SHL DUP5 MSTORE PUSH1 0x41 PUSH1 0x4 MSTORE PUSH1 0x24 DUP5 REVERT JUMPDEST PUSH1 0x24 SWAP2 PUSH4 0x1E4FBDF7 PUSH1 0xE0 SHL DUP3 MSTORE PUSH1 0x4 DUP3 ADD MSTORE REVERT JUMPDEST PUSH1 0x0 DUP1 REVERT INVALID PUSH1 0xA0 DUP1 PUSH1 0x40 MSTORE PUSH1 0x4 CALLDATASIZE LT ISZERO PUSH2 0x13 JUMPI PUSH1 0x0 DUP1 REVERT JUMPDEST PUSH1 0x0 CALLDATALOAD PUSH1 0xE0 SHR SWAP1 DUP2 PUSH4 0xD0B2CA6 EQ PUSH2 0x1AD0 JUMPI POP DUP1 PUSH4 0x2FFC204B EQ PUSH2 0x19BE JUMPI DUP1 PUSH4 0x34855D14 EQ PUSH2 0x19A1 JUMPI DUP1 PUSH4 0x3CDB72F1 EQ PUSH2 0x1957 JUMPI DUP1 PUSH4 0x3F572D36 EQ PUSH2 0x18D8 JUMPI DUP1 PUSH4 0x504006CA EQ PUSH2 0x151A JUMPI DUP1 PUSH4 0x715018A6 EQ PUSH2 0x14BD JUMPI DUP1 PUSH4 0x7A9FFFB7 EQ PUSH2 0x14A1 JUMPI DUP1 PUSH4 0x87C51459 EQ PUSH2 0x1483 JUMPI DUP1 PUSH4 0x89D99A05 EQ PUSH2 0x1466 JUMPI DUP1 PUSH4 0x8DA5CB5B EQ PUSH2 0x143D JUMPI DUP1 PUSH4 0x9772D7EE EQ PUSH2 0x132B JUMPI DUP1 PUSH4 0xAD8D0138 EQ PUSH2 0x12B0 JUMPI DUP1 PUSH4 0xB9C445B9 EQ PUSH2 0x1259 JUMPI DUP1 PUSH4 0xD42C4C53 EQ PUSH2 0x1169 JUMPI DUP1 PUSH4 0xD89E8C1C EQ PUSH2 0x1138 JUMPI DUP1 PUSH4 0xDECEAFA7 EQ PUSH2 0x1138 JUMPI DUP1 PUSH4 0xE1EC3C68 EQ PUSH2 0xFE9 JUMPI DUP1 PUSH4 0xE3ED1902 EQ PUSH2 0xF91 JUMPI DUP1 PUSH4 0xF2FDE38B EQ PUSH2 0xF08 JUMPI DUP1 PUSH4 0xF4512BB6 EQ PUSH2 0x8EC JUMPI DUP1 PUSH4 0xF498C9CC EQ PUSH2 0x142 JUMPI PUSH4 0xFE6993B8 EQ PUSH2 0x11C JUMPI PUSH1 0x0 DUP1 REVERT JUMPDEST CALLVALUE PUSH2 0x13D JUMPI PUSH1 0x20 PUSH2 0x135 PUSH2 0x12F CALLDATASIZE PUSH2 0x1BC7 JUMP JUMPDEST SWAP1 PUSH2 0x1C95 JUMP JUMPDEST PUSH1 0x40 MLOAD SWAP1 DUP2 MSTORE RETURN JUMPDEST PUSH1 0x0 DUP1 REVERT JUMPDEST PUSH2 0x100 CALLDATASIZE PUSH1 0x3 NOT ADD SLT PUSH2 0x13D JUMPI PUSH1 0x5 PUSH1 0x24 CALLDATALOAD LT ISZERO PUSH2 0x13D JUMPI PUSH1 0x44 PUSH1 0x5 DUP2 CALLDATALOAD LT ISZERO PUSH2 0x13D JUMPI PUSH1 0xC4 CALLDATALOAD DUP1 ISZERO ISZERO DUP2 SUB PUSH2 0x13D JUMPI PUSH1 0xE4 CALLDATALOAD ISZERO ISZERO PUSH1 0xE4 CALLDATALOAD SUB PUSH2 0x13D JUMPI PUSH2 0x187 PUSH2 0x1ECA JUMP JUMPDEST PUSH1 0x4 CALLDATALOAD ISZERO PUSH2 0x89D JUMPI PUSH2 0xBB8 PUSH1 0x84 CALLDATALOAD GT PUSH2 0x860 JUMPI PUSH2 0xE10 PUSH1 0xA4 CALLDATALOAD LT ISZERO DUP1 PUSH2 0x850 JUMPI JUMPDEST ISZERO PUSH2 0x819 JUMPI PUSH1 0xFF PUSH2 0x1BA PUSH1 0x24 CALLDATALOAD PUSH2 0x1B47 JUMP JUMPDEST SLOAD PUSH1 0xB0 SHR AND ISZERO PUSH2 0x7D5 JUMPI PUSH1 0xFF PUSH2 0x1D0 DUP4 CALLDATALOAD PUSH2 0x1B47 JUMP JUMPDEST SLOAD PUSH1 0xB0 SHR AND ISZERO PUSH2 0x791 JUMPI PUSH2 0x1E8 PUSH1 0x4 CALLDATALOAD PUSH1 0x24 CALLDATALOAD PUSH2 0x1C95 JUMP JUMPDEST PUSH2 0x1F5 PUSH1 0x64 CALLDATALOAD DUP5 CALLDATALOAD PUSH2 0x1C95 JUMP JUMPDEST SWAP1 PUSH1 0x78 DUP2 MUL SWAP1 DUP1 DUP3 DIV PUSH1 0x78 EQ SWAP1 ISZERO OR ISZERO PUSH2 0x604 JUMPI PUSH1 0x64 SWAP1 DIV GT PUSH2 0x74D JUMPI PUSH1 0x2 SLOAD SWAP1 PUSH2 0x21F DUP3 PUSH2 0x1D45 JUMP JUMPDEST PUSH1 0x2 SSTORE DUP3 CALLDATALOAD PUSH2 0x674 JUMPI PUSH1 0x64 CALLDATALOAD CALLVALUE SUB PUSH2 0x61A JUMPI JUMPDEST PUSH1 0x0 PUSH1 0xE4 CALLDATALOAD PUSH2 0x5E3 JUMPI JUMPDEST PUSH1 0x40 MLOAD SWAP1 PUSH2 0x249 DUP3 PUSH2 0x1C4B JUMP JUMPDEST PUSH1 0x0 DUP3 MSTORE PUSH1 0x40 MLOAD PUSH2 0x259 DUP2 PUSH2 0x1C4B JUMP JUMPDEST PUSH1 0x0 DUP2 MSTORE PUSH1 0x40 MLOAD SWAP3 PUSH2 0x26A DUP5 PUSH2 0x1C2E JUMP JUMPDEST DUP6 DUP5 MSTORE CALLER PUSH1 0x20 DUP6 ADD MSTORE PUSH1 0x40 DUP5 ADD MSTORE PUSH1 0x60 DUP4 ADD MSTORE PUSH1 0x4 CALLDATALOAD PUSH1 0x80 DUP4 ADD MSTORE PUSH1 0x0 PUSH1 0xA0 DUP4 ADD MSTORE PUSH2 0x29B PUSH1 0x24 CALLDATALOAD PUSH1 0xC0 DUP5 ADD PUSH2 0x1C89 JUMP JUMPDEST PUSH2 0x2A9 DUP6 CALLDATALOAD PUSH1 0xE0 DUP5 ADD PUSH2 0x1C89 JUMP JUMPDEST PUSH1 0x64 CALLDATALOAD PUSH2 0x100 DUP4 ADD MSTORE PUSH1 0x84 CALLDATALOAD PUSH2 0x120 DUP4 ADD MSTORE DUP3 ISZERO ISZERO PUSH2 0x140 DUP4 ADD MSTORE PUSH1 0xA4 CALLDATALOAD PUSH2 0x160 DUP4 ADD MSTORE TIMESTAMP PUSH2 0x180 DUP4 ADD MSTORE PUSH1 0x0 PUSH2 0x1A0 DUP4 ADD MSTORE PUSH1 0x0 PUSH2 0x1C0 DUP4 ADD MSTORE PUSH1 0x0 PUSH2 0x1E0 DUP4 ADD MSTORE PUSH1 0x0 PUSH2 0x200 DUP4 ADD MSTORE PUSH2 0x1F4 PUSH2 0x220 DUP4 ADD MSTORE PUSH1 0xE4 CALLDATALOAD ISZERO ISZERO PUSH2 0x240 DUP4 ADD MSTORE PUSH2 0x260 DUP3 ADD MSTORE DUP3 PUSH1 0x0 MSTORE PUSH1 0x4 PUSH1 0x20 MSTORE PUSH1 0x40 PUSH1 0x0 KECCAK256 SWAP1 DUP1 MLOAD DUP3 SSTORE PUSH1 0x1 DUP3 ADD PUSH1 0x1 DUP1 PUSH1 0xA0 SHL SUB PUSH1 0x20 DUP4 ADD MLOAD AND PUSH1 0x1 PUSH1 0x1 PUSH1 0x60 SHL SUB PUSH1 0xA0 SHL DUP3 SLOAD AND OR SWAP1 SSTORE PUSH1 0x40 DUP2 ADD MLOAD DUP1 MLOAD SWAP1 PUSH8 0xFFFFFFFFFFFFFFFF DUP3 GT PUSH2 0x5B0 JUMPI PUSH1 0x1 PUSH1 0x40 SHL DUP3 GT PUSH2 0x5B0 JUMPI PUSH1 0x20 PUSH1 0x2 DUP6 ADD SWAP2 PUSH2 0x37B DUP5 DUP5 SLOAD DUP2 DUP7 SSTORE DUP6 PUSH2 0x1D9E JUMP JUMPDEST ADD SWAP1 PUSH1 0x0 MSTORE PUSH1 0x20 PUSH1 0x0 KECCAK256 PUSH1 0x0 JUMPDEST DUP4 DUP2 LT PUSH2 0x5C6 JUMPI POP POP POP POP PUSH1 0x60 DUP2 ADD MLOAD DUP1 MLOAD SWAP1 PUSH8 0xFFFFFFFFFFFFFFFF DUP3 GT PUSH2 0x5B0 JUMPI PUSH1 0x1 PUSH1 0x40 SHL DUP3 GT PUSH2 0x5B0 JUMPI PUSH1 0x20 PUSH1 0x3 DUP6 ADD SWAP2 PUSH2 0x3CB DUP5 DUP5 SLOAD DUP2 DUP7 SSTORE DUP6 PUSH2 0x1D9E JUMP JUMPDEST ADD SWAP1 PUSH1 0x0 MSTORE PUSH1 0x20 PUSH1 0x0 KECCAK256 PUSH1 0x0 JUMPDEST DUP4 DUP2 LT PUSH2 0x59C JUMPI POP POP POP POP PUSH1 0x80 DUP2 ADD MLOAD PUSH1 0x4 DUP4 ADD SSTORE PUSH1 0xA0 DUP2 ADD MLOAD PUSH1 0x5 DUP4 ADD SSTORE PUSH1 0xC0 DUP2 ADD MLOAD PUSH1 0x5 DUP2 LT ISZERO PUSH2 0x586 JUMPI PUSH1 0x6 DUP4 ADD SLOAD PUSH1 0xE0 DUP4 ADD MLOAD PUSH1 0x5 DUP2 LT ISZERO PUSH2 0x586 JUMPI PUSH2 0xFF00 PUSH1 0xFF SWAP2 PUSH1 0x8 SHL AND SWAP3 AND SWAP1 PUSH2 0xFFFF NOT AND OR OR PUSH1 0x6 DUP4 ADD SSTORE PUSH2 0x100 DUP2 ADD MLOAD PUSH1 0x7 DUP4 ADD SSTORE PUSH2 0x120 DUP2 ADD MLOAD PUSH1 0x8 DUP4 ADD SSTORE PUSH2 0x467 PUSH2 0x140 DUP3 ADD MLOAD ISZERO ISZERO PUSH1 0x9 DUP5 ADD SWAP1 PUSH1 0xFF DUP1 NOT DUP4 SLOAD AND SWAP2 ISZERO ISZERO AND OR SWAP1 SSTORE JUMP JUMPDEST PUSH2 0x160 DUP2 ADD MLOAD PUSH1 0xA DUP4 ADD SSTORE PUSH2 0x180 DUP2 ADD MLOAD PUSH1 0xB DUP4 ADD SSTORE PUSH2 0x1A0 DUP2 ADD MLOAD PUSH1 0xC DUP4 ADD SSTORE PUSH2 0x1C0 DUP2 ADD MLOAD PUSH1 0xD DUP4 ADD SSTORE PUSH2 0x1E0 DUP2 ADD MLOAD PUSH1 0x6 DUP2 LT ISZERO PUSH2 0x586 JUMPI PUSH1 0x11 SWAP2 PUSH2 0x260 SWAP2 PUSH1 0xE DUP6 ADD SWAP1 DUP2 SLOAD PUSH1 0xFF PUSH2 0xFF00 PUSH2 0x200 DUP7 ADD MLOAD ISZERO ISZERO PUSH1 0x8 SHL AND SWAP3 AND SWAP1 PUSH2 0xFFFF NOT AND OR OR SWAP1 SSTORE PUSH2 0x220 DUP2 ADD MLOAD PUSH1 0xF DUP6 ADD SSTORE PUSH2 0x4F8 PUSH2 0x240 DUP3 ADD MLOAD ISZERO ISZERO PUSH1 0x10 DUP7 ADD SWAP1 PUSH1 0xFF DUP1 NOT DUP4 SLOAD AND SWAP2 ISZERO ISZERO AND OR SWAP1 SSTORE JUMP JUMPDEST ADD MLOAD SWAP2 ADD SSTORE CALLER PUSH1 0x0 MSTORE PUSH1 0x6 PUSH1 0x20 MSTORE PUSH2 0x514 DUP3 PUSH1 0x40 PUSH1 0x0 KECCAK256 PUSH2 0x1DD2 JUMP JUMPDEST PUSH2 0x53A PUSH1 0x40 MLOAD SWAP4 PUSH1 0x4 CALLDATALOAD DUP6 MSTORE PUSH2 0x52F PUSH1 0x20 DUP7 ADD PUSH1 0x24 CALLDATALOAD PUSH2 0x1B79 JUMP JUMPDEST PUSH1 0x40 DUP6 ADD SWAP1 CALLDATALOAD PUSH2 0x1B79 JUMP JUMPDEST PUSH1 0x64 CALLDATALOAD PUSH1 0x60 DUP5 ADD MSTORE PUSH1 0x84 CALLDATALOAD PUSH1 0x80 DUP5 ADD MSTORE PUSH1 0xA4 CALLDATALOAD PUSH1 0xA0 DUP5 ADD MSTORE ISZERO ISZERO PUSH1 0xC0 DUP4 ADD MSTORE PUSH32 0xABDB66E6184682B23B47B8B6A7923F5B99D0155E0155200BDA4753D7E784699E PUSH1 0xE0 CALLER SWAP4 LOG3 PUSH1 0x1 PUSH1 0x0 SSTORE STOP JUMPDEST PUSH4 0x4E487B71 PUSH1 0xE0 SHL PUSH1 0x0 MSTORE PUSH1 0x21 PUSH1 0x4 MSTORE PUSH1 0x24 PUSH1 0x0 REVERT JUMPDEST PUSH1 0x1 SWAP1 PUSH1 0x20 DUP5 MLOAD SWAP5 ADD SWAP4 DUP2 DUP5 ADD SSTORE ADD PUSH2 0x3D8 JUMP JUMPDEST PUSH4 0x4E487B71 PUSH1 0xE0 SHL PUSH1 0x0 MSTORE PUSH1 0x41 PUSH1 0x4 MSTORE PUSH1 0x24 PUSH1 0x0 REVERT JUMPDEST DUP3 MLOAD PUSH1 0x1 PUSH1 0x1 PUSH1 0xA0 SHL SUB AND DUP2 DUP4 ADD SSTORE PUSH1 0x20 SWAP1 SWAP3 ADD SWAP2 PUSH1 0x1 ADD PUSH2 0x388 JUMP JUMPDEST POP PUSH1 0x4 CALLDATALOAD PUSH1 0x64 PUSH1 0x4 CALLDATALOAD MUL DIV PUSH1 0x64 SUB PUSH2 0x604 JUMPI PUSH2 0x2710 PUSH1 0x64 PUSH1 0x4 CALLDATALOAD MUL DIV PUSH2 0x23C JUMP JUMPDEST PUSH4 0x4E487B71 PUSH1 0xE0 SHL PUSH1 0x0 MSTORE PUSH1 0x11 PUSH1 0x4 MSTORE PUSH1 0x24 PUSH1 0x0 REVERT JUMPDEST PUSH1 0x40 MLOAD PUSH3 0x461BCD PUSH1 0xE5 SHL DUP2 MSTORE PUSH1 0x20 PUSH1 0x4 DUP3 ADD MSTORE PUSH1 0x2D PUSH1 0x24 DUP3 ADD MSTORE PUSH32 0x4554482073656E74206D7573742065786163746C79206D6174636820636F6C6C DUP2 DUP6 ADD MSTORE PUSH13 0x185D195C985B08185B5BDD5B9D PUSH1 0x9A SHL PUSH1 0x64 DUP3 ADD MSTORE PUSH1 0x84 SWAP1 REVERT JUMPDEST CALLVALUE PUSH2 0x6F6 JUMPI PUSH2 0x6F1 PUSH2 0x686 DUP5 CALLDATALOAD PUSH2 0x1B47 JUMP JUMPDEST PUSH1 0x40 MLOAD PUSH2 0x692 DUP2 PUSH2 0x1C12 JUMP JUMPDEST DUP2 SLOAD PUSH1 0x1 PUSH1 0x1 PUSH1 0xA0 SHL SUB DUP1 DUP3 AND DUP4 MSTORE SWAP3 PUSH1 0x2 SWAP2 PUSH1 0xFF SWAP1 PUSH2 0x6BB PUSH1 0xA0 DUP3 SWAP1 SHR DUP4 AND PUSH1 0x20 DUP8 ADD PUSH2 0x1C89 JUMP JUMPDEST DUP2 DUP2 PUSH1 0xA8 SHR AND PUSH1 0x40 DUP7 ADD MSTORE PUSH1 0xB0 SHR AND ISZERO ISZERO PUSH1 0x60 DUP5 ADD MSTORE PUSH1 0x1 DUP2 ADD SLOAD PUSH1 0x80 DUP5 ADD MSTORE ADD SLOAD PUSH1 0xA0 DUP3 ADD MSTORE MLOAD AND PUSH1 0x64 CALLDATALOAD SWAP1 ADDRESS SWAP1 CALLER SWAP1 PUSH2 0x1E07 JUMP JUMPDEST PUSH2 0x232 JUMP JUMPDEST PUSH1 0x40 MLOAD PUSH3 0x461BCD PUSH1 0xE5 SHL DUP2 MSTORE PUSH1 0x20 PUSH1 0x4 DUP3 ADD MSTORE PUSH1 0x2A PUSH1 0x24 DUP3 ADD MSTORE PUSH32 0x4E6F204554482073686F756C642062652073656E7420666F7220455243323020 DUP2 DUP6 ADD MSTORE PUSH10 0x18DBDB1B185D195C985B PUSH1 0xB2 SHL PUSH1 0x64 DUP3 ADD MSTORE PUSH1 0x84 SWAP1 REVERT JUMPDEST PUSH1 0x40 MLOAD PUSH3 0x461BCD PUSH1 0xE5 SHL DUP2 MSTORE PUSH1 0x20 PUSH1 0x4 DUP3 ADD MSTORE PUSH1 0x17 PUSH1 0x24 DUP3 ADD MSTORE PUSH32 0x496E73756666696369656E7420636F6C6C61746572616C000000000000000000 DUP2 DUP5 ADD MSTORE PUSH1 0x64 SWAP1 REVERT JUMPDEST PUSH1 0x40 MLOAD PUSH3 0x461BCD PUSH1 0xE5 SHL DUP2 MSTORE PUSH1 0x20 PUSH1 0x4 DUP3 ADD MSTORE PUSH1 0x1E PUSH1 0x24 DUP3 ADD MSTORE PUSH32 0x436F6C6C61746572616C20746F6B656E206E6F7420737570706F727465640000 DUP2 DUP5 ADD MSTORE PUSH1 0x64 SWAP1 REVERT JUMPDEST PUSH1 0x40 MLOAD PUSH3 0x461BCD PUSH1 0xE5 SHL DUP2 MSTORE PUSH1 0x20 PUSH1 0x4 DUP3 ADD MSTORE PUSH1 0x18 PUSH1 0x24 DUP3 ADD MSTORE PUSH32 0x4C6F616E20746F6B656E206E6F7420737570706F727465640000000000000000 DUP2 DUP5 ADD MSTORE PUSH1 0x64 SWAP1 REVERT JUMPDEST PUSH1 0x40 MLOAD PUSH3 0x461BCD PUSH1 0xE5 SHL DUP2 MSTORE PUSH1 0x20 PUSH1 0x4 DUP3 ADD MSTORE PUSH1 0x10 PUSH1 0x24 DUP3 ADD MSTORE PUSH16 0x24B73B30B634B210323AB930BA34B7B7 PUSH1 0x81 SHL DUP2 DUP5 ADD MSTORE PUSH1 0x64 SWAP1 REVERT JUMPDEST POP PUSH4 0x1E13380 PUSH1 0xA4 CALLDATALOAD GT ISZERO PUSH2 0x1A8 JUMP JUMPDEST PUSH1 0x40 MLOAD PUSH3 0x461BCD PUSH1 0xE5 SHL DUP2 MSTORE PUSH1 0x20 PUSH1 0x4 DUP3 ADD MSTORE PUSH1 0x16 PUSH1 0x24 DUP3 ADD MSTORE PUSH22 0x92DCE8CAE4CAE6E840E4C2E8CA40E8DEDE40D0D2CED PUSH1 0x53 SHL DUP2 DUP5 ADD MSTORE PUSH1 0x64 SWAP1 REVERT JUMPDEST PUSH1 0x40 MLOAD PUSH3 0x461BCD PUSH1 0xE5 SHL DUP2 MSTORE PUSH1 0x20 PUSH1 0x4 DUP3 ADD MSTORE PUSH1 0x22 PUSH1 0x24 DUP3 ADD MSTORE PUSH32 0x4C6F616E20616D6F756E74206D7573742062652067726561746572207468616E DUP2 DUP5 ADD MSTORE PUSH2 0x203 PUSH1 0xF4 SHL PUSH1 0x64 DUP3 ADD MSTORE PUSH1 0x84 SWAP1 REVERT JUMPDEST PUSH1 0x40 CALLDATASIZE PUSH1 0x3 NOT ADD SLT PUSH2 0x13D JUMPI PUSH2 0x900 PUSH2 0x1ECA JUMP JUMPDEST PUSH1 0x4 CALLDATALOAD PUSH1 0x0 MSTORE PUSH1 0x4 PUSH1 0x20 MSTORE PUSH1 0x40 PUSH1 0x0 KECCAK256 PUSH1 0x1 DUP1 PUSH1 0xA0 SHL SUB PUSH1 0x1 DUP3 ADD SLOAD AND DUP1 ISZERO PUSH2 0xECD JUMPI PUSH1 0xFF PUSH1 0xE DUP4 ADD SLOAD AND PUSH1 0x6 DUP2 LT ISZERO PUSH2 0x586 JUMPI DUP1 ISZERO SWAP1 DUP2 ISZERO PUSH2 0xEC2 JUMPI JUMPDEST POP ISZERO PUSH2 0xE88 JUMPI CALLER EQ PUSH2 0xE43 JUMPI PUSH1 0x24 CALLDATALOAD ISZERO PUSH2 0xDF0 JUMPI PUSH2 0x962 PUSH1 0x24 CALLDATALOAD PUSH1 0x5 DUP4 ADD SLOAD PUSH2 0x1EED JUMP JUMPDEST PUSH1 0x4 DUP3 ADD SLOAD LT PUSH2 0xDB5 JUMPI PUSH1 0xFF PUSH1 0x6 DUP3 ADD SLOAD AND PUSH1 0x5 DUP2 LT ISZERO PUSH2 0x586 JUMPI DUP1 PUSH2 0xD32 JUMPI POP PUSH1 0x24 CALLDATALOAD CALLVALUE SUB PUSH2 0xCED JUMPI JUMPDEST PUSH1 0x40 MLOAD DUP1 PUSH1 0xA0 DUP2 ADD LT PUSH8 0xFFFFFFFFFFFFFFFF PUSH1 0xA0 DUP4 ADD GT OR PUSH2 0x5B0 JUMPI PUSH1 0xA0 DUP2 ADD PUSH1 0x40 MSTORE CALLER DUP2 MSTORE PUSH1 0x4 PUSH1 0x20 DUP3 ADD PUSH1 0x24 CALLDATALOAD DUP2 MSTORE PUSH2 0xA35 PUSH1 0x40 DUP5 ADD TIMESTAMP DUP2 MSTORE PUSH1 0x60 DUP6 ADD SWAP1 PUSH1 0x0 DUP3 MSTORE PUSH1 0x80 DUP7 ADD SWAP4 PUSH1 0x0 DUP6 MSTORE DUP6 CALLDATALOAD PUSH1 0x0 MSTORE PUSH1 0x5 PUSH1 0x20 MSTORE PUSH1 0x40 PUSH1 0x0 KECCAK256 CALLER PUSH1 0x0 MSTORE PUSH1 0x20 MSTORE PUSH1 0x40 PUSH1 0x0 KECCAK256 SWAP7 PUSH1 0x1 DUP1 PUSH1 0xA0 SHL SUB SWAP1 MLOAD AND PUSH1 0x1 PUSH1 0x1 PUSH1 0x60 SHL SUB PUSH1 0xA0 SHL DUP9 SLOAD AND OR DUP8 SSTORE MLOAD PUSH1 0x1 DUP8 ADD SSTORE MLOAD PUSH1 0x2 DUP7 ADD SSTORE MLOAD ISZERO ISZERO PUSH1 0x3 DUP6 ADD SWAP1 PUSH1 0xFF DUP1 NOT DUP4 SLOAD AND SWAP2 ISZERO ISZERO AND OR SWAP1 SSTORE JUMP JUMPDEST MLOAD SWAP2 ADD SSTORE PUSH1 0x2 DUP2 ADD SLOAD PUSH1 0x1 PUSH1 0x40 SHL DUP2 LT ISZERO PUSH2 0x5B0 JUMPI DUP1 PUSH1 0x1 PUSH2 0xA60 SWAP3 ADD PUSH1 0x2 DUP5 ADD SSTORE PUSH1 0x2 DUP4 ADD PUSH2 0x1B19 JUMP JUMPDEST DUP2 SLOAD SWAP1 PUSH1 0x3 SHL SWAP1 CALLER DUP3 SHL SWAP2 PUSH1 0x1 DUP1 PUSH1 0xA0 SHL SUB SWAP1 SHL NOT AND OR SWAP1 SSTORE PUSH2 0xA88 PUSH1 0x24 CALLDATALOAD PUSH1 0x3 DUP4 ADD PUSH2 0x1DD2 JUMP JUMPDEST PUSH2 0xA98 PUSH1 0x24 CALLDATALOAD PUSH1 0x5 DUP4 ADD SLOAD PUSH2 0x1EED JUMP JUMPDEST PUSH1 0x5 DUP3 ADD SSTORE CALLER PUSH1 0x0 MSTORE PUSH1 0x7 PUSH1 0x20 MSTORE PUSH2 0xAB6 PUSH1 0x4 CALLDATALOAD PUSH1 0x40 PUSH1 0x0 KECCAK256 PUSH2 0x1DD2 JUMP JUMPDEST PUSH1 0x5 DUP2 ADD SLOAD PUSH1 0x4 DUP3 ADD SLOAD DUP2 LT PUSH2 0xC9F JUMPI POP PUSH1 0x1 PUSH1 0xFF NOT PUSH1 0xE DUP4 ADD SLOAD AND OR PUSH1 0xE DUP3 ADD SSTORE TIMESTAMP PUSH1 0xC DUP3 ADD SSTORE PUSH2 0xAEC PUSH1 0xA DUP3 ADD SLOAD TIMESTAMP PUSH2 0x1EED JUMP JUMPDEST PUSH1 0xD DUP3 ADD SSTORE PUSH1 0xFF PUSH1 0x6 DUP3 ADD SLOAD AND SWAP1 PUSH1 0x1 DUP1 PUSH1 0xA0 SHL SUB PUSH1 0x1 DUP3 ADD SLOAD AND PUSH1 0x4 DUP3 ADD SLOAD SWAP3 PUSH1 0x5 DUP2 LT ISZERO PUSH2 0x586 JUMPI DUP1 PUSH2 0xBE6 JUMPI POP PUSH1 0x0 DUP1 DUP1 SWAP4 SWAP5 DUP2 SWAP4 GAS CALL RETURNDATASIZE ISZERO PUSH2 0xBE1 JUMPI RETURNDATASIZE PUSH8 0xFFFFFFFFFFFFFFFF DUP2 GT PUSH2 0x5B0 JUMPI PUSH1 0x40 MLOAD SWAP1 PUSH2 0xB54 PUSH1 0x1F DUP3 ADD PUSH1 0x1F NOT AND PUSH1 0x20 ADD DUP4 PUSH2 0x1C67 JUMP JUMPDEST DUP2 MSTORE PUSH1 0x0 PUSH1 0x20 RETURNDATASIZE SWAP3 ADD RETURNDATACOPY JUMPDEST ISZERO PUSH2 0xBA6 JUMPI PUSH1 0x5 SWAP1 JUMPDEST ADD SLOAD PUSH1 0x40 MLOAD SWAP1 DUP2 MSTORE TIMESTAMP PUSH1 0x20 DUP3 ADD MSTORE PUSH32 0xB96BADA2A4E2E402AAA472B5E783A9D8BB13D996387DF6BEEA608680B31FF46F PUSH1 0x40 PUSH1 0x4 CALLDATALOAD SWAP3 LOG2 JUMPDEST PUSH1 0x1 PUSH1 0x0 SSTORE STOP JUMPDEST PUSH1 0x40 MLOAD PUSH3 0x461BCD PUSH1 0xE5 SHL DUP2 MSTORE PUSH1 0x20 PUSH1 0x4 DUP3 ADD MSTORE PUSH1 0x13 PUSH1 0x24 DUP3 ADD MSTORE PUSH19 0x115512081D1C985B9CD9995C8819985A5B1959 PUSH1 0x6A SHL PUSH1 0x44 DUP3 ADD MSTORE PUSH1 0x64 SWAP1 REVERT JUMPDEST PUSH2 0xB5F JUMP JUMPDEST PUSH2 0xBEF SWAP1 PUSH2 0x1B47 JUMP JUMPDEST PUSH1 0x2 PUSH1 0x40 MLOAD SWAP2 PUSH2 0xBFE DUP4 PUSH2 0x1C12 JUMP JUMPDEST DUP1 SLOAD PUSH1 0x1 PUSH1 0x1 PUSH1 0xA0 SHL SUB DUP2 AND DUP5 MSTORE PUSH1 0xFF SWAP1 PUSH2 0xC22 PUSH1 0xA0 DUP3 SWAP1 SHR DUP4 AND PUSH1 0x20 DUP8 ADD PUSH2 0x1C89 JUMP JUMPDEST DUP2 DUP2 PUSH1 0xA8 SHR AND PUSH1 0x40 DUP7 ADD MSTORE PUSH1 0xB0 SHR AND ISZERO ISZERO PUSH1 0x60 DUP5 ADD MSTORE PUSH1 0x1 DUP2 ADD SLOAD PUSH1 0x80 DUP5 ADD MSTORE ADD SLOAD PUSH1 0xA0 DUP3 ADD MSTORE PUSH1 0x1 DUP1 PUSH1 0xA0 SHL SUB SWAP1 MLOAD AND SWAP3 PUSH1 0x40 MLOAD SWAP2 PUSH4 0xA9059CBB PUSH1 0xE0 SHL PUSH1 0x20 DUP5 ADD MSTORE PUSH1 0x24 DUP4 ADD MSTORE PUSH1 0x44 DUP3 ADD MSTORE PUSH1 0x44 DUP2 MSTORE PUSH1 0x80 DUP2 ADD SWAP1 DUP1 DUP3 LT PUSH8 0xFFFFFFFFFFFFFFFF DUP4 GT OR PUSH2 0x5B0 JUMPI PUSH1 0x5 SWAP4 PUSH2 0xC9A SWAP3 PUSH1 0x40 MSTORE PUSH2 0x1E62 JUMP JUMPDEST PUSH2 0xB68 JUMP JUMPDEST SWAP1 PUSH1 0xE PUSH1 0x2 PUSH1 0xFF NOT DUP3 DUP5 ADD SLOAD AND OR SWAP2 ADD SSTORE PUSH1 0x40 MLOAD SWAP1 PUSH1 0x24 CALLDATALOAD DUP3 MSTORE PUSH1 0x20 DUP3 ADD MSTORE CALLER SWAP1 PUSH32 0x73A9841EE04F39F41B73F9432C749617285427E60F2FBE3A1BF5A5EF2E6B16CB PUSH1 0x40 PUSH1 0x4 CALLDATALOAD SWAP3 LOG3 PUSH2 0xB9F JUMP JUMPDEST PUSH1 0x40 MLOAD PUSH3 0x461BCD PUSH1 0xE5 SHL DUP2 MSTORE PUSH1 0x20 PUSH1 0x4 DUP3 ADD MSTORE PUSH1 0x19 PUSH1 0x24 DUP3 ADD MSTORE PUSH32 0x496E636F72726563742045544820616D6F756E742073656E7400000000000000 PUSH1 0x44 DUP3 ADD MSTORE PUSH1 0x64 SWAP1 REVERT JUMPDEST PUSH2 0xD3E PUSH2 0xDB0 SWAP2 PUSH2 0x1B47 JUMP JUMPDEST PUSH1 0x2 PUSH1 0x40 MLOAD SWAP2 PUSH2 0xD4D DUP4 PUSH2 0x1C12 JUMP JUMPDEST DUP1 SLOAD PUSH1 0x1 PUSH1 0x1 PUSH1 0xA0 SHL SUB DUP2 AND DUP5 MSTORE PUSH1 0xFF SWAP1 PUSH2 0xD71 PUSH1 0xA0 DUP3 SWAP1 SHR DUP4 AND PUSH1 0x20 DUP8 ADD PUSH2 0x1C89 JUMP JUMPDEST PUSH1 0xA8 DUP2 SWAP1 SHR DUP3 AND PUSH1 0x40 DUP7 ADD MSTORE PUSH1 0xB0 SHR AND ISZERO ISZERO PUSH1 0x60 DUP5 ADD MSTORE PUSH1 0x1 DUP2 ADD SLOAD PUSH1 0x80 DUP5 ADD MSTORE ADD SLOAD PUSH1 0xA0 DUP3 ADD MSTORE MLOAD PUSH1 0x24 CALLDATALOAD SWAP1 ADDRESS SWAP1 CALLER SWAP1 PUSH1 0x1 PUSH1 0x1 PUSH1 0xA0 SHL SUB AND PUSH2 0x1E07 JUMP JUMPDEST PUSH2 0x98D JUMP JUMPDEST PUSH1 0x40 MLOAD PUSH3 0x461BCD PUSH1 0xE5 SHL DUP2 MSTORE PUSH1 0x20 PUSH1 0x4 DUP3 ADD MSTORE PUSH1 0x13 PUSH1 0x24 DUP3 ADD MSTORE PUSH19 0x115E18D959591CC81B1BD85B88185B5BDD5B9D PUSH1 0x6A SHL PUSH1 0x44 DUP3 ADD MSTORE PUSH1 0x64 SWAP1 REVERT JUMPDEST PUSH1 0x40 MLOAD PUSH3 0x461BCD PUSH1 0xE5 SHL DUP2 MSTORE PUSH1 0x20 PUSH1 0x4 DUP3 ADD MSTORE PUSH1 0x25 PUSH1 0x24 DUP3 ADD MSTORE PUSH32 0x46756E64696E6720616D6F756E74206D75737420626520677265617465722074 PUSH1 0x44 DUP3 ADD MSTORE PUSH5 0x68616E203 PUSH1 0xDC SHL PUSH1 0x64 DUP3 ADD MSTORE PUSH1 0x84 SWAP1 REVERT JUMPDEST PUSH1 0x40 MLOAD PUSH3 0x461BCD PUSH1 0xE5 SHL DUP2 MSTORE PUSH1 0x20 PUSH1 0x4 DUP3 ADD MSTORE PUSH1 0x19 PUSH1 0x24 DUP3 ADD MSTORE PUSH32 0x43616E6E6F742066756E6420796F7572206F776E206C6F616E00000000000000 PUSH1 0x44 DUP3 ADD MSTORE PUSH1 0x64 SWAP1 REVERT JUMPDEST PUSH1 0x40 MLOAD PUSH3 0x461BCD PUSH1 0xE5 SHL DUP2 MSTORE PUSH1 0x20 PUSH1 0x4 DUP3 ADD MSTORE PUSH1 0x12 PUSH1 0x24 DUP3 ADD MSTORE PUSH18 0x4C6F616E206E6F7420617661696C61626C65 PUSH1 0x70 SHL PUSH1 0x44 DUP3 ADD MSTORE PUSH1 0x64 SWAP1 REVERT JUMPDEST PUSH1 0x2 SWAP2 POP EQ DUP4 PUSH2 0x93E JUMP JUMPDEST PUSH1 0x40 MLOAD PUSH3 0x461BCD PUSH1 0xE5 SHL DUP2 MSTORE PUSH1 0x20 PUSH1 0x4 DUP3 ADD MSTORE PUSH1 0x13 PUSH1 0x24 DUP3 ADD MSTORE PUSH19 0x131BD85B88191BD95CC81B9BDD08195E1A5CDD PUSH1 0x6A SHL PUSH1 0x44 DUP3 ADD MSTORE PUSH1 0x64 SWAP1 REVERT JUMPDEST CALLVALUE PUSH2 0x13D JUMPI PUSH1 0x20 CALLDATASIZE PUSH1 0x3 NOT ADD SLT PUSH2 0x13D JUMPI PUSH2 0xF21 PUSH2 0x1B03 JUMP JUMPDEST PUSH2 0xF29 PUSH2 0x1BE6 JUMP JUMPDEST PUSH1 0x1 PUSH1 0x1 PUSH1 0xA0 SHL SUB SWAP1 DUP2 AND SWAP1 DUP2 ISZERO PUSH2 0xF78 JUMPI PUSH1 0x1 SLOAD DUP3 PUSH1 0x1 PUSH1 0x1 PUSH1 0x60 SHL SUB PUSH1 0xA0 SHL DUP3 AND OR PUSH1 0x1 SSTORE AND PUSH32 0x8BE0079C531659141344CD1FD0A4F28419497F9722A3DAAFE3B4186F6B6457E0 PUSH1 0x0 DUP1 LOG3 STOP JUMPDEST PUSH1 0x40 MLOAD PUSH4 0x1E4FBDF7 PUSH1 0xE0 SHL DUP2 MSTORE PUSH1 0x0 PUSH1 0x4 DUP3 ADD MSTORE PUSH1 0x24 SWAP1 REVERT JUMPDEST CALLVALUE PUSH2 0x13D JUMPI PUSH1 0x40 CALLDATASIZE PUSH1 0x3 NOT ADD SLT PUSH2 0x13D JUMPI PUSH2 0xFAA PUSH2 0x1B03 JUMP JUMPDEST PUSH1 0x1 PUSH1 0x1 PUSH1 0xA0 SHL SUB AND PUSH1 0x0 SWAP1 DUP2 MSTORE PUSH1 0x6 PUSH1 0x20 MSTORE PUSH1 0x40 SWAP1 KECCAK256 DUP1 SLOAD PUSH1 0x24 CALLDATALOAD SWAP2 SWAP1 DUP3 LT ISZERO PUSH2 0x13D JUMPI PUSH1 0x20 SWAP2 PUSH2 0xFDB SWAP2 PUSH2 0x1B19 JUMP JUMPDEST SWAP1 SLOAD PUSH1 0x40 MLOAD SWAP2 PUSH1 0x3 SHL SHR DUP2 MSTORE RETURN JUMPDEST CALLVALUE PUSH2 0x13D JUMPI PUSH1 0x20 CALLDATASIZE PUSH1 0x3 NOT ADD SLT PUSH2 0x13D JUMPI PUSH1 0x4 CALLDATALOAD PUSH1 0x0 MSTORE PUSH1 0x4 PUSH1 0x20 MSTORE PUSH1 0x40 PUSH1 0x0 KECCAK256 DUP1 SLOAD SWAP1 DUP1 PUSH1 0x1 PUSH1 0xA0 SHL PUSH1 0x1 SWAP1 SUB PUSH1 0x1 DUP3 ADD SLOAD AND PUSH1 0x4 DUP3 ADD SLOAD PUSH1 0x5 DUP4 ADD SLOAD PUSH1 0x6 DUP5 ADD SLOAD PUSH1 0x7 DUP6 ADD SLOAD PUSH1 0x8 DUP7 ADD SLOAD PUSH1 0x9 DUP8 ADD SLOAD PUSH1 0xFF AND SWAP1 PUSH1 0xA DUP9 ADD SLOAD SWAP3 PUSH1 0xB DUP10 ADD SLOAD SWAP5 PUSH1 0xC DUP11 ADD SLOAD SWAP7 PUSH1 0xD DUP12 ADD SLOAD SWAP9 PUSH1 0xE DUP13 ADD SLOAD SWAP11 PUSH1 0xF DUP14 ADD SLOAD SWAP13 PUSH1 0x10 ADD SLOAD PUSH1 0xFF AND SWAP14 PUSH1 0x11 ADD SLOAD SWAP15 PUSH1 0x40 MLOAD DUP1 PUSH1 0x80 MSTORE MSTORE PUSH1 0x80 MLOAD PUSH1 0x20 ADD MSTORE PUSH1 0x80 MLOAD PUSH1 0x40 ADD MSTORE PUSH1 0x80 MLOAD PUSH1 0x60 ADD MSTORE PUSH1 0x80 MLOAD PUSH1 0x80 ADD PUSH1 0xFF DUP3 AND SWAP1 PUSH2 0x10A1 SWAP2 PUSH2 0x1B79 JUMP JUMPDEST PUSH1 0x80 MLOAD PUSH1 0xA0 ADD SWAP1 PUSH1 0x8 SHR PUSH1 0xFF AND SWAP1 PUSH2 0x10B8 SWAP2 PUSH2 0x1B79 JUMP JUMPDEST PUSH1 0x80 MLOAD PUSH1 0xC0 ADD MSTORE PUSH1 0x80 MLOAD PUSH1 0xE0 ADD MSTORE ISZERO ISZERO PUSH1 0x80 MLOAD PUSH2 0x100 ADD MSTORE PUSH1 0x80 MLOAD PUSH2 0x120 ADD MSTORE PUSH1 0x80 MLOAD PUSH2 0x140 ADD MSTORE PUSH1 0x80 MLOAD PUSH2 0x160 ADD MSTORE PUSH1 0x80 MLOAD PUSH2 0x180 ADD MSTORE PUSH1 0x80 MLOAD PUSH2 0x1A0 ADD PUSH1 0xFF DUP3 AND SWAP1 PUSH2 0x1105 SWAP2 PUSH2 0x1BBA JUMP JUMPDEST PUSH1 0x8 SHR PUSH1 0xFF AND ISZERO ISZERO PUSH1 0x80 MLOAD PUSH2 0x1C0 ADD MSTORE PUSH1 0x80 MLOAD PUSH2 0x1E0 ADD MSTORE ISZERO ISZERO PUSH1 0x80 MLOAD PUSH2 0x200 ADD MSTORE PUSH1 0x80 MLOAD PUSH2 0x220 ADD MSTORE PUSH1 0x80 MLOAD PUSH2 0x240 SWAP1 RETURN JUMPDEST CALLVALUE PUSH2 0x13D JUMPI PUSH1 0x20 CALLDATASIZE PUSH1 0x3 NOT ADD SLT PUSH2 0x13D JUMPI PUSH1 0x4 CALLDATALOAD PUSH1 0x5 DUP2 LT ISZERO PUSH2 0x13D JUMPI PUSH2 0x1160 PUSH1 0x20 SWAP2 PUSH2 0x1B60 JUMP JUMPDEST SLOAD PUSH1 0x40 MLOAD SWAP1 DUP2 MSTORE RETURN JUMPDEST CALLVALUE PUSH2 0x13D JUMPI PUSH1 0x20 CALLDATASIZE PUSH1 0x3 NOT ADD SLT PUSH2 0x13D JUMPI PUSH1 0x4 CALLDATALOAD PUSH1 0x5 DUP2 LT ISZERO PUSH2 0x13D JUMPI PUSH2 0x11BE PUSH1 0xC0 SWAP2 PUSH1 0x0 PUSH1 0xA0 PUSH1 0x40 MLOAD PUSH2 0x119C DUP2 PUSH2 0x1C12 JUMP JUMPDEST DUP3 DUP2 MSTORE DUP3 PUSH1 0x20 DUP3 ADD MSTORE DUP3 PUSH1 0x40 DUP3 ADD MSTORE DUP3 PUSH1 0x60 DUP3 ADD MSTORE DUP3 PUSH1 0x80 DUP3 ADD MSTORE ADD MSTORE PUSH2 0x1B47 JUMP JUMPDEST PUSH1 0x40 MLOAD SWAP1 PUSH2 0x11CB DUP3 PUSH2 0x1C12 JUMP JUMPDEST DUP1 SLOAD PUSH1 0x1 PUSH1 0x1 PUSH1 0xA0 SHL SUB DUP1 DUP3 AND DUP5 MSTORE SWAP2 SWAP1 PUSH1 0xFF PUSH1 0x20 DUP6 ADD PUSH2 0x11F2 PUSH1 0xA0 DUP5 SWAP1 SHR DUP4 AND DUP3 PUSH2 0x1C89 JUMP JUMPDEST PUSH2 0x123C PUSH1 0x40 DUP8 ADD SWAP2 DUP4 DUP6 PUSH1 0xA8 SHR AND DUP4 MSTORE DUP4 PUSH1 0x60 DUP10 ADD SWAP6 PUSH1 0xB0 SHR AND ISZERO ISZERO DUP6 MSTORE PUSH1 0x2 PUSH1 0x1 DUP8 ADD SLOAD SWAP7 PUSH1 0x80 DUP11 ADD SWAP8 DUP9 MSTORE ADD SLOAD SWAP7 PUSH1 0xA0 DUP10 ADD SWAP8 DUP9 MSTORE PUSH1 0x40 MLOAD SWAP9 MLOAD AND DUP9 MSTORE MLOAD PUSH1 0x20 DUP9 ADD SWAP1 PUSH2 0x1B79 JUMP JUMPDEST MLOAD AND PUSH1 0x40 DUP6 ADD MSTORE MLOAD ISZERO ISZERO PUSH1 0x60 DUP5 ADD MSTORE MLOAD PUSH1 0x80 DUP4 ADD MSTORE MLOAD PUSH1 0xA0 DUP3 ADD MSTORE RETURN JUMPDEST CALLVALUE PUSH2 0x13D JUMPI PUSH2 0x1267 CALLDATASIZE PUSH2 0x1BC7 JUMP JUMPDEST PUSH2 0x126F PUSH2 0x1BE6 JUMP JUMPDEST DUP1 PUSH2 0x1279 DUP4 PUSH2 0x1B60 JUMP JUMPDEST SSTORE PUSH1 0x5 DUP3 LT ISZERO PUSH2 0x586 JUMPI PUSH1 0x20 PUSH32 0xF798C75B2DB09EA1034D9BE253E9974B17BBE4A06F2B0FF6695054FA5B747191 SWAP2 PUSH1 0x40 MLOAD SWAP1 DUP2 MSTORE LOG2 STOP JUMPDEST CALLVALUE PUSH2 0x13D JUMPI PUSH1 0x40 CALLDATASIZE PUSH1 0x3 NOT ADD SLT PUSH2 0x13D JUMPI PUSH1 0xA0 PUSH2 0x12CB PUSH2 0x1AED JUMP JUMPDEST PUSH1 0x4 CALLDATALOAD PUSH1 0x0 MSTORE PUSH1 0x5 PUSH1 0x20 MSTORE PUSH1 0x40 PUSH1 0x0 KECCAK256 PUSH1 0x1 DUP1 DUP5 SHL SUB DUP1 SWAP3 AND PUSH1 0x0 MSTORE PUSH1 0x20 MSTORE PUSH1 0x40 PUSH1 0x0 KECCAK256 SWAP1 DUP2 SLOAD AND SWAP1 PUSH1 0x1 DUP2 ADD SLOAD SWAP1 PUSH1 0x2 DUP2 ADD SLOAD PUSH1 0x4 PUSH1 0xFF PUSH1 0x3 DUP5 ADD SLOAD AND SWAP3 ADD SLOAD SWAP3 PUSH1 0x40 MLOAD SWAP5 DUP6 MSTORE PUSH1 0x20 DUP6 ADD MSTORE PUSH1 0x40 DUP5 ADD MSTORE ISZERO ISZERO PUSH1 0x60 DUP4 ADD MSTORE PUSH1 0x80 DUP3 ADD MSTORE RETURN JUMPDEST CALLVALUE PUSH2 0x13D JUMPI PUSH1 0x0 CALLDATASIZE PUSH1 0x3 NOT ADD SLT PUSH2 0x13D JUMPI PUSH1 0x2 DUP1 SLOAD PUSH1 0x0 NOT DUP2 ADD DUP2 DUP2 GT PUSH2 0x604 JUMPI PUSH2 0x1355 SWAP1 PUSH2 0x1D6C JUMP JUMPDEST SWAP2 PUSH1 0x0 SWAP2 PUSH1 0x1 JUMPDEST DUP2 DUP2 LT PUSH2 0x13B8 JUMPI POP POP POP PUSH2 0x136F DUP2 PUSH2 0x1D6C JUMP JUMPDEST SWAP2 PUSH1 0x0 JUMPDEST DUP3 DUP2 LT PUSH2 0x1394 JUMPI PUSH1 0x40 MLOAD PUSH1 0x20 DUP1 DUP3 MSTORE DUP2 SWAP1 PUSH2 0x1390 SWAP1 DUP3 ADD DUP8 PUSH2 0x1B86 JUMP JUMPDEST SUB SWAP1 RETURN JUMPDEST DUP1 PUSH2 0x13A2 PUSH2 0x13B3 SWAP3 DUP5 PUSH2 0x1EFA JUMP JUMPDEST MLOAD PUSH2 0x13AD DUP3 DUP8 PUSH2 0x1EFA JUMP JUMPDEST MSTORE PUSH2 0x1D45 JUMP JUMPDEST PUSH2 0x1373 JUMP JUMPDEST DUP1 PUSH1 0x0 MSTORE PUSH1 0x20 PUSH1 0x4 DUP2 MSTORE PUSH1 0xFF PUSH1 0xE SWAP1 DUP1 DUP3 PUSH1 0x40 PUSH1 0x0 KECCAK256 ADD SLOAD AND SWAP2 PUSH1 0x6 SWAP3 DUP4 DUP2 LT ISZERO PUSH2 0x586 JUMPI ISZERO SWAP4 DUP5 ISZERO PUSH2 0x1418 JUMPI JUMPDEST POP POP POP POP PUSH2 0x13FD JUMPI JUMPDEST PUSH2 0x13F8 SWAP1 PUSH2 0x1D45 JUMP JUMPDEST PUSH2 0x135C JUMP JUMPDEST SWAP3 PUSH2 0x1410 DUP2 DUP6 PUSH2 0x13AD PUSH2 0x13F8 SWAP5 DUP10 PUSH2 0x1EFA JUMP JUMPDEST SWAP4 SWAP1 POP PUSH2 0x13EF JUMP JUMPDEST PUSH1 0x0 DUP7 DUP2 MSTORE PUSH1 0x4 SWAP1 SWAP2 MSTORE PUSH1 0x40 SWAP1 KECCAK256 ADD SLOAD AND SWAP2 POP DUP2 LT ISZERO PUSH2 0x586 JUMPI DUP4 EQ DUP7 DUP1 DUP1 DUP1 PUSH2 0x13E6 JUMP JUMPDEST CALLVALUE PUSH2 0x13D JUMPI PUSH1 0x0 CALLDATASIZE PUSH1 0x3 NOT ADD SLT PUSH2 0x13D JUMPI PUSH1 0x1 SLOAD PUSH1 0x40 MLOAD PUSH1 0x1 PUSH1 0x1 PUSH1 0xA0 SHL SUB SWAP1 SWAP2 AND DUP2 MSTORE PUSH1 0x20 SWAP1 RETURN JUMPDEST CALLVALUE PUSH2 0x13D JUMPI PUSH1 0x0 CALLDATASIZE PUSH1 0x3 NOT ADD SLT PUSH2 0x13D JUMPI PUSH1 0x20 PUSH1 0x40 MLOAD PUSH2 0xE10 DUP2 MSTORE RETURN JUMPDEST CALLVALUE PUSH2 0x13D JUMPI PUSH1 0x0 CALLDATASIZE PUSH1 0x3 NOT ADD SLT PUSH2 0x13D JUMPI PUSH1 0x20 PUSH1 0x2 SLOAD PUSH1 0x40 MLOAD SWAP1 DUP2 MSTORE RETURN JUMPDEST CALLVALUE PUSH2 0x13D JUMPI PUSH1 0x0 CALLDATASIZE PUSH1 0x3 NOT ADD SLT PUSH2 0x13D JUMPI PUSH1 0x20 PUSH1 0x40 MLOAD PUSH1 0x78 DUP2 MSTORE RETURN JUMPDEST CALLVALUE PUSH2 0x13D JUMPI PUSH1 0x0 CALLDATASIZE PUSH1 0x3 NOT ADD SLT PUSH2 0x13D JUMPI PUSH2 0x14D6 PUSH2 0x1BE6 JUMP JUMPDEST PUSH1 0x1 DUP1 SLOAD PUSH1 0x1 PUSH1 0x1 PUSH1 0xA0 SHL SUB NOT DUP2 AND SWAP1 SWAP2 SSTORE PUSH1 0x0 SWAP1 PUSH1 0x1 PUSH1 0x1 PUSH1 0xA0 SHL SUB AND PUSH32 0x8BE0079C531659141344CD1FD0A4F28419497F9722A3DAAFE3B4186F6B6457E0 DUP3 DUP1 LOG3 STOP JUMPDEST CALLVALUE PUSH2 0x13D JUMPI PUSH1 0x20 CALLDATASIZE PUSH1 0x3 NOT ADD SLT PUSH2 0x13D JUMPI PUSH1 0x0 PUSH2 0x260 PUSH1 0x40 MLOAD PUSH2 0x153C DUP2 PUSH2 0x1C2E JUMP JUMPDEST DUP3 DUP2 MSTORE DUP3 PUSH1 0x20 DUP3 ADD MSTORE PUSH1 0x60 PUSH1 0x40 DUP3 ADD MSTORE PUSH1 0x60 DUP1 DUP3 ADD MSTORE DUP3 PUSH1 0x80 DUP3 ADD MSTORE DUP3 PUSH1 0xA0 DUP3 ADD MSTORE DUP3 PUSH1 0xC0 DUP3 ADD MSTORE DUP3 PUSH1 0xE0 DUP3 ADD MSTORE DUP3 PUSH2 0x100 DUP3 ADD MSTORE DUP3 PUSH2 0x120 DUP3 ADD MSTORE DUP3 PUSH2 0x140 DUP3 ADD MSTORE DUP3 PUSH2 0x160 DUP3 ADD MSTORE DUP3 PUSH2 0x180 DUP3 ADD MSTORE DUP3 PUSH2 0x1A0 DUP3 ADD MSTORE DUP3 PUSH2 0x1C0 DUP3 ADD MSTORE DUP3 PUSH2 0x1E0 DUP3 ADD MSTORE DUP3 PUSH2 0x200 DUP3 ADD MSTORE DUP3 PUSH2 0x220 DUP3 ADD MSTORE DUP3 PUSH2 0x240 DUP3 ADD MSTORE ADD MSTORE PUSH1 0x4 CALLDATALOAD PUSH1 0x0 MSTORE PUSH1 0x4 PUSH1 0x20 MSTORE PUSH1 0x40 PUSH1 0x0 KECCAK256 PUSH1 0x40 MLOAD SWAP1 PUSH2 0x15D6 DUP3 PUSH2 0x1C2E JUMP JUMPDEST DUP1 SLOAD DUP3 MSTORE PUSH1 0x1 DUP1 PUSH1 0xA0 SHL SUB PUSH1 0x1 DUP3 ADD SLOAD AND PUSH1 0x20 DUP4 ADD MSTORE PUSH1 0x40 MLOAD DUP1 DUP2 PUSH1 0x2 DUP5 ADD PUSH1 0x20 DUP2 SLOAD SWAP4 DUP5 DUP2 MSTORE ADD SWAP1 PUSH1 0x0 MSTORE PUSH1 0x20 PUSH1 0x0 KECCAK256 SWAP3 PUSH1 0x0 JUMPDEST DUP2 DUP2 LT PUSH2 0x18B6 JUMPI POP POP PUSH2 0x1620 SWAP3 POP SUB DUP3 PUSH2 0x1C67 JUMP JUMPDEST PUSH1 0x40 DUP4 ADD MSTORE PUSH1 0x40 MLOAD DUP1 DUP2 PUSH1 0x20 PUSH1 0x3 DUP6 ADD SLOAD SWAP3 DUP4 DUP2 MSTORE ADD PUSH1 0x3 DUP6 ADD PUSH1 0x0 MSTORE PUSH1 0x20 PUSH1 0x0 KECCAK256 SWAP3 PUSH1 0x0 JUMPDEST DUP2 DUP2 LT PUSH2 0x189D JUMPI POP POP PUSH2 0x165B SWAP3 POP SUB DUP3 PUSH2 0x1C67 JUMP JUMPDEST PUSH1 0x60 DUP4 ADD MSTORE PUSH1 0x4 DUP2 ADD SLOAD PUSH1 0x80 DUP4 ADD MSTORE PUSH1 0x5 DUP2 ADD SLOAD PUSH1 0xA0 DUP4 ADD MSTORE PUSH2 0x169A PUSH1 0xFF PUSH1 0x6 DUP4 ADD SLOAD PUSH2 0x168D DUP3 DUP3 AND PUSH1 0xC0 DUP8 ADD PUSH2 0x1C89 JUMP JUMPDEST PUSH1 0x8 SHR AND PUSH1 0xE0 DUP5 ADD PUSH2 0x1C89 JUMP JUMPDEST PUSH1 0x7 DUP2 ADD SLOAD PUSH2 0x100 DUP4 ADD MSTORE PUSH1 0x8 DUP2 ADD SLOAD PUSH2 0x120 DUP4 ADD MSTORE PUSH1 0xFF PUSH1 0x9 DUP3 ADD SLOAD AND ISZERO ISZERO PUSH2 0x140 DUP4 ADD MSTORE PUSH1 0xA DUP2 ADD SLOAD PUSH2 0x160 DUP4 ADD MSTORE PUSH1 0xB DUP2 ADD SLOAD PUSH2 0x180 DUP4 ADD MSTORE PUSH1 0xC DUP2 ADD SLOAD PUSH2 0x1A0 DUP4 ADD MSTORE PUSH1 0xD DUP2 ADD SLOAD PUSH2 0x1C0 DUP4 ADD MSTORE PUSH1 0xE DUP2 ADD SLOAD SWAP1 PUSH1 0x6 PUSH1 0xFF DUP4 AND LT ISZERO PUSH2 0x586 JUMPI PUSH1 0xFF DUP3 DUP2 PUSH1 0x11 SWAP5 AND PUSH2 0x1E0 DUP7 ADD MSTORE PUSH1 0x8 SHR AND ISZERO ISZERO PUSH2 0x200 DUP5 ADD MSTORE PUSH1 0xF DUP2 ADD SLOAD PUSH2 0x220 DUP5 ADD MSTORE PUSH1 0xFF PUSH1 0x10 DUP3 ADD SLOAD AND ISZERO ISZERO PUSH2 0x240 DUP5 ADD MSTORE ADD SLOAD PUSH2 0x260 DUP3 ADD MSTORE PUSH1 0x40 MLOAD PUSH1 0x20 DUP2 MSTORE DUP2 MLOAD PUSH1 0x20 DUP3 ADD MSTORE PUSH1 0x1 DUP1 PUSH1 0xA0 SHL SUB PUSH1 0x20 DUP4 ADD MLOAD AND PUSH1 0x40 DUP3 ADD MSTORE PUSH1 0x40 DUP3 ADD MLOAD SWAP2 PUSH2 0x280 PUSH1 0x60 DUP4 ADD MSTORE PUSH2 0x2A0 DUP3 ADD DUP4 MLOAD DUP1 SWAP2 MSTORE PUSH1 0x20 PUSH2 0x2C0 DUP5 ADD SWAP5 ADD SWAP1 PUSH1 0x0 JUMPDEST DUP2 DUP2 LT PUSH2 0x187E JUMPI POP POP POP PUSH2 0x260 PUSH2 0x17A8 DUP4 SWAP5 PUSH1 0x60 DUP5 ADD MLOAD PUSH1 0x1F NOT DUP7 DUP4 SUB ADD PUSH1 0x80 DUP8 ADD MSTORE PUSH2 0x1B86 JUMP JUMPDEST SWAP2 PUSH1 0x80 DUP2 ADD MLOAD PUSH1 0xA0 DUP6 ADD MSTORE PUSH1 0xA0 DUP2 ADD MLOAD PUSH1 0xC0 DUP6 ADD MSTORE PUSH2 0x17CF PUSH1 0xC0 DUP3 ADD MLOAD PUSH1 0xE0 DUP7 ADD SWAP1 PUSH2 0x1B79 JUMP JUMPDEST PUSH2 0x17E2 PUSH1 0xE0 DUP3 ADD MLOAD PUSH2 0x100 DUP7 ADD SWAP1 PUSH2 0x1B79 JUMP JUMPDEST PUSH2 0x100 DUP2 ADD MLOAD PUSH2 0x120 DUP6 ADD MSTORE PUSH2 0x120 DUP2 ADD MLOAD PUSH2 0x140 DUP6 ADD MSTORE PUSH2 0x140 DUP2 ADD MLOAD ISZERO ISZERO PUSH2 0x160 DUP6 ADD MSTORE PUSH2 0x160 DUP2 ADD MLOAD PUSH2 0x180 DUP6 ADD MSTORE PUSH2 0x180 DUP2 ADD MLOAD PUSH2 0x1A0 DUP6 ADD MSTORE PUSH2 0x1A0 DUP2 ADD MLOAD PUSH2 0x1C0 DUP6 ADD MSTORE PUSH2 0x1C0 DUP2 ADD MLOAD PUSH2 0x1E0 DUP6 ADD MSTORE PUSH2 0x184C PUSH2 0x1E0 DUP3 ADD MLOAD PUSH2 0x200 DUP7 ADD SWAP1 PUSH2 0x1BBA JUMP JUMPDEST PUSH2 0x200 DUP2 ADD MLOAD ISZERO ISZERO PUSH2 0x220 DUP6 ADD MSTORE PUSH2 0x220 DUP2 ADD MLOAD PUSH2 0x240 DUP6 ADD MSTORE PUSH2 0x240 DUP2 ADD MLOAD ISZERO ISZERO DUP3 DUP6 ADD MSTORE ADD MLOAD PUSH2 0x280 DUP4 ADD MSTORE SUB SWAP1 RETURN JUMPDEST DUP3 MLOAD PUSH1 0x1 PUSH1 0x1 PUSH1 0xA0 SHL SUB AND DUP7 MSTORE PUSH1 0x20 SWAP6 DUP7 ADD SWAP6 SWAP1 SWAP3 ADD SWAP2 PUSH1 0x1 ADD PUSH2 0x1780 JUMP JUMPDEST DUP5 SLOAD DUP4 MSTORE PUSH1 0x1 SWAP5 DUP6 ADD SWAP5 DUP7 SWAP5 POP PUSH1 0x20 SWAP1 SWAP4 ADD SWAP3 ADD PUSH2 0x1646 JUMP JUMPDEST DUP5 SLOAD PUSH1 0x1 PUSH1 0x1 PUSH1 0xA0 SHL SUB AND DUP4 MSTORE PUSH1 0x1 SWAP5 DUP6 ADD SWAP5 DUP7 SWAP5 POP PUSH1 0x20 SWAP1 SWAP4 ADD SWAP3 ADD PUSH2 0x160B JUMP JUMPDEST CALLVALUE PUSH2 0x13D JUMPI PUSH1 0x20 CALLDATASIZE PUSH1 0x3 NOT ADD SLT PUSH2 0x13D JUMPI PUSH1 0x4 CALLDATALOAD PUSH1 0x5 DUP2 LT ISZERO PUSH2 0x13D JUMPI PUSH2 0x1900 PUSH1 0xC0 SWAP2 PUSH2 0x1B47 JUMP JUMPDEST DUP1 SLOAD PUSH1 0x1 DUP3 ADD SLOAD PUSH1 0x2 SWAP1 SWAP3 ADD SLOAD PUSH1 0x40 MLOAD PUSH1 0x1 PUSH1 0x1 PUSH1 0xA0 SHL SUB DUP4 AND DUP2 MSTORE SWAP3 SWAP1 SWAP2 PUSH1 0xFF SWAP1 PUSH2 0x1935 PUSH1 0x20 DUP7 ADD PUSH1 0xA0 DUP4 SWAP1 SHR DUP5 AND PUSH2 0x1B79 JUMP JUMPDEST DUP2 DUP2 PUSH1 0xA8 SHR AND PUSH1 0x40 DUP7 ADD MSTORE PUSH1 0xB0 SHR AND ISZERO ISZERO PUSH1 0x60 DUP5 ADD MSTORE PUSH1 0x80 DUP4 ADD MSTORE PUSH1 0xA0 DUP3 ADD MSTORE RETURN JUMPDEST CALLVALUE PUSH2 0x13D JUMPI PUSH1 0x40 CALLDATASIZE PUSH1 0x3 NOT ADD SLT PUSH2 0x13D JUMPI PUSH2 0x1970 PUSH2 0x1B03 JUMP JUMPDEST PUSH1 0x1 PUSH1 0x1 PUSH1 0xA0 SHL SUB AND PUSH1 0x0 SWAP1 DUP2 MSTORE PUSH1 0x7 PUSH1 0x20 MSTORE PUSH1 0x40 SWAP1 KECCAK256 DUP1 SLOAD PUSH1 0x24 CALLDATALOAD SWAP2 SWAP1 DUP3 LT ISZERO PUSH2 0x13D JUMPI PUSH1 0x20 SWAP2 PUSH2 0xFDB SWAP2 PUSH2 0x1B19 JUMP JUMPDEST CALLVALUE PUSH2 0x13D JUMPI PUSH1 0x0 CALLDATASIZE PUSH1 0x3 NOT ADD SLT PUSH2 0x13D JUMPI PUSH1 0x20 PUSH1 0x40 MLOAD PUSH2 0xBB8 DUP2 MSTORE RETURN JUMPDEST CALLVALUE PUSH2 0x13D JUMPI PUSH1 0xA0 CALLDATASIZE PUSH1 0x3 NOT ADD SLT PUSH2 0x13D JUMPI PUSH1 0x4 CALLDATALOAD PUSH1 0x5 DUP2 LT ISZERO PUSH2 0x13D JUMPI PUSH2 0x19E3 PUSH2 0x1AED JUMP JUMPDEST SWAP1 PUSH1 0x44 CALLDATALOAD PUSH1 0xFF DUP2 AND DUP1 SWAP2 SUB PUSH2 0x13D JUMPI PUSH2 0x19FA PUSH2 0x1BE6 JUMP JUMPDEST PUSH1 0x40 MLOAD SWAP1 PUSH2 0x1A07 DUP3 PUSH2 0x1C12 JUMP JUMPDEST PUSH1 0x1 PUSH1 0x1 PUSH1 0xA0 SHL SUB SWAP4 DUP5 AND DUP1 DUP4 MSTORE SWAP4 PUSH1 0x20 DUP4 ADD PUSH2 0x1A24 DUP6 DUP3 PUSH2 0x1C89 JUMP JUMPDEST PUSH1 0x40 DUP5 ADD SWAP3 DUP4 MSTORE PUSH1 0x60 DUP5 ADD SWAP1 PUSH1 0x1 DUP3 MSTORE PUSH1 0x80 DUP6 ADD SWAP2 PUSH1 0x64 CALLDATALOAD DUP4 MSTORE PUSH1 0xA0 DUP7 ADD SWAP4 PUSH1 0x84 CALLDATALOAD DUP6 MSTORE PUSH2 0x1A51 DUP9 PUSH2 0x1B47 JUMP JUMPDEST SWAP7 MLOAD AND SWAP2 DUP7 SLOAD SWAP1 MLOAD SWAP3 PUSH1 0x5 DUP5 LT ISZERO PUSH2 0x586 JUMPI PUSH1 0x2 SWAP7 PUSH1 0xFF PUSH1 0xA8 SHL SWAP1 MLOAD PUSH1 0xA8 SHL AND SWAP3 PUSH1 0xFF PUSH1 0xB0 SHL SWAP1 MLOAD ISZERO ISZERO PUSH1 0xB0 SHL AND SWAP4 PUSH1 0xFF PUSH1 0xA0 SHL SWAP1 PUSH1 0xA0 SHL AND SWAP2 PUSH9 0xFFFFFFFFFFFFFFFFFF PUSH1 0xB8 SHL AND OR OR OR OR DUP5 SSTORE MLOAD PUSH1 0x1 DUP5 ADD SSTORE MLOAD SWAP2 ADD SSTORE PUSH32 0x782D5A983F4F99019EB2DC8DFE67419752A13DCA743154E71029FC01318D055 PUSH1 0x0 DUP1 LOG3 STOP JUMPDEST CALLVALUE PUSH2 0x13D JUMPI PUSH1 0x0 CALLDATASIZE PUSH1 0x3 NOT ADD SLT PUSH2 0x13D JUMPI DUP1 PUSH4 0x1E13380 PUSH1 0x20 SWAP3 MSTORE RETURN JUMPDEST PUSH1 0x24 CALLDATALOAD SWAP1 PUSH1 0x1 PUSH1 0x1 PUSH1 0xA0 SHL SUB DUP3 AND DUP3 SUB PUSH2 0x13D JUMPI JUMP JUMPDEST PUSH1 0x4 CALLDATALOAD SWAP1 PUSH1 0x1 PUSH1 0x1 PUSH1 0xA0 SHL SUB DUP3 AND DUP3 SUB PUSH2 0x13D JUMPI JUMP JUMPDEST DUP1 SLOAD DUP3 LT ISZERO PUSH2 0x1B31 JUMPI PUSH1 0x0 MSTORE PUSH1 0x20 PUSH1 0x0 KECCAK256 ADD SWAP1 PUSH1 0x0 SWAP1 JUMP JUMPDEST PUSH4 0x4E487B71 PUSH1 0xE0 SHL PUSH1 0x0 MSTORE PUSH1 0x32 PUSH1 0x4 MSTORE PUSH1 0x24 PUSH1 0x0 REVERT JUMPDEST PUSH1 0x5 DUP2 LT ISZERO PUSH2 0x586 JUMPI PUSH1 0x0 MSTORE PUSH1 0x3 PUSH1 0x20 MSTORE PUSH1 0x40 PUSH1 0x0 KECCAK256 SWAP1 JUMP JUMPDEST PUSH1 0x5 DUP2 LT ISZERO PUSH2 0x586 JUMPI PUSH1 0x0 MSTORE PUSH1 0x8 PUSH1 0x20 MSTORE PUSH1 0x40 PUSH1 0x0 KECCAK256 SWAP1 JUMP JUMPDEST SWAP1 PUSH1 0x5 DUP3 LT ISZERO PUSH2 0x586 JUMPI MSTORE JUMP JUMPDEST SWAP1 DUP2 MLOAD DUP1 DUP3 MSTORE PUSH1 0x20 DUP1 DUP1 SWAP4 ADD SWAP4 ADD SWAP2 PUSH1 0x0 JUMPDEST DUP3 DUP2 LT PUSH2 0x1BA6 JUMPI POP POP POP POP SWAP1 JUMP JUMPDEST DUP4 MLOAD DUP6 MSTORE SWAP4 DUP2 ADD SWAP4 SWAP3 DUP2 ADD SWAP3 PUSH1 0x1 ADD PUSH2 0x1B98 JUMP JUMPDEST SWAP1 PUSH1 0x6 DUP3 LT ISZERO PUSH2 0x586 JUMPI MSTORE JUMP JUMPDEST PUSH1 0x40 SWAP1 PUSH1 0x3 NOT ADD SLT PUSH2 0x13D JUMPI PUSH1 0x4 CALLDATALOAD PUSH1 0x5 DUP2 LT ISZERO PUSH2 0x13D JUMPI SWAP1 PUSH1 0x24 CALLDATALOAD SWAP1 JUMP JUMPDEST PUSH1 0x1 SLOAD PUSH1 0x1 PUSH1 0x1 PUSH1 0xA0 SHL SUB AND CALLER SUB PUSH2 0x1BFA JUMPI JUMP JUMPDEST PUSH1 0x40 MLOAD PUSH4 0x118CDAA7 PUSH1 0xE0 SHL DUP2 MSTORE CALLER PUSH1 0x4 DUP3 ADD MSTORE PUSH1 0x24 SWAP1 REVERT JUMPDEST PUSH1 0xC0 DUP2 ADD SWAP1 DUP2 LT PUSH8 0xFFFFFFFFFFFFFFFF DUP3 GT OR PUSH2 0x5B0 JUMPI PUSH1 0x40 MSTORE JUMP JUMPDEST PUSH2 0x280 DUP2 ADD SWAP1 DUP2 LT PUSH8 0xFFFFFFFFFFFFFFFF DUP3 GT OR PUSH2 0x5B0 JUMPI PUSH1 0x40 MSTORE JUMP JUMPDEST PUSH1 0x20 DUP2 ADD SWAP1 DUP2 LT PUSH8 0xFFFFFFFFFFFFFFFF DUP3 GT OR PUSH2 0x5B0 JUMPI PUSH1 0x40 MSTORE JUMP JUMPDEST SWAP1 PUSH1 0x1F DUP1 NOT SWAP2 ADD AND DUP2 ADD SWAP1 DUP2 LT PUSH8 0xFFFFFFFFFFFFFFFF DUP3 GT OR PUSH2 0x5B0 JUMPI PUSH1 0x40 MSTORE JUMP JUMPDEST PUSH1 0x5 DUP3 LT ISZERO PUSH2 0x586 JUMPI MSTORE JUMP JUMPDEST PUSH2 0x1D03 PUSH2 0x1CA1 DUP3 PUSH2 0x1B47 JUMP JUMPDEST SWAP2 PUSH1 0x40 MLOAD PUSH2 0x1CAE DUP2 PUSH2 0x1C12 JUMP JUMPDEST DUP4 SLOAD PUSH1 0x1 PUSH1 0x1 PUSH1 0xA0 SHL SUB DUP2 AND DUP3 MSTORE SWAP4 PUSH1 0xA0 SWAP1 PUSH1 0x2 SWAP1 PUSH2 0x1CD5 DUP8 DUP5 SHR PUSH1 0xFF AND PUSH1 0x20 DUP7 ADD PUSH2 0x1C89 JUMP JUMPDEST PUSH1 0xFF PUSH1 0x40 DUP6 ADD SWAP8 DUP2 DUP2 PUSH1 0xA8 SHR AND DUP10 MSTORE PUSH1 0xB0 SHR AND ISZERO ISZERO PUSH1 0x60 DUP6 ADD MSTORE PUSH1 0x1 DUP2 ADD SLOAD PUSH1 0x80 DUP6 ADD MSTORE ADD SLOAD SWAP2 ADD MSTORE PUSH2 0x1B60 JUMP JUMPDEST SLOAD SWAP2 DUP3 DUP2 MUL SWAP3 DUP2 DUP5 DIV EQ SWAP1 ISZERO OR ISZERO PUSH2 0x604 JUMPI MLOAD PUSH1 0xFF AND PUSH1 0x4D DUP2 GT PUSH2 0x604 JUMPI PUSH1 0xA EXP SWAP1 DUP2 ISZERO PUSH2 0x1D2F JUMPI DIV SWAP1 JUMP JUMPDEST PUSH4 0x4E487B71 PUSH1 0xE0 SHL PUSH1 0x0 MSTORE PUSH1 0x12 PUSH1 0x4 MSTORE PUSH1 0x24 PUSH1 0x0 REVERT JUMPDEST PUSH1 0x0 NOT DUP2 EQ PUSH2 0x604 JUMPI PUSH1 0x1 ADD SWAP1 JUMP JUMPDEST PUSH8 0xFFFFFFFFFFFFFFFF DUP2 GT PUSH2 0x5B0 JUMPI PUSH1 0x5 SHL PUSH1 0x20 ADD SWAP1 JUMP JUMPDEST SWAP1 PUSH2 0x1D76 DUP3 PUSH2 0x1D54 JUMP JUMPDEST PUSH2 0x1D83 PUSH1 0x40 MLOAD SWAP2 DUP3 PUSH2 0x1C67 JUMP JUMPDEST DUP3 DUP2 MSTORE DUP1 SWAP3 PUSH2 0x1D94 PUSH1 0x1F NOT SWAP2 PUSH2 0x1D54 JUMP JUMPDEST ADD SWAP1 PUSH1 0x20 CALLDATASIZE SWAP2 ADD CALLDATACOPY JUMP JUMPDEST SWAP1 SWAP2 DUP3 DUP2 LT PUSH2 0x1DAC JUMPI POP POP POP JUMP JUMPDEST PUSH1 0x0 SWAP2 DUP3 MSTORE PUSH1 0x20 DUP3 KECCAK256 SWAP3 DUP4 ADD SWAP3 ADD JUMPDEST DUP3 DUP2 LT PUSH2 0x1DC7 JUMPI POP POP POP JUMP JUMPDEST DUP2 DUP2 SSTORE PUSH1 0x1 ADD PUSH2 0x1DBB JUMP JUMPDEST DUP1 SLOAD PUSH1 0x1 PUSH1 0x40 SHL DUP2 LT ISZERO PUSH2 0x5B0 JUMPI PUSH2 0x1DEF SWAP2 PUSH1 0x1 DUP3 ADD DUP2 SSTORE PUSH2 0x1B19 JUMP JUMPDEST DUP2 SWAP3 SWAP2 SLOAD SWAP1 PUSH1 0x3 SHL SWAP2 DUP3 SHL SWAP2 PUSH1 0x0 NOT SWAP1 SHL NOT AND OR SWAP1 SSTORE JUMP JUMPDEST PUSH1 0x40 MLOAD PUSH4 0x23B872DD PUSH1 0xE0 SHL PUSH1 0x20 DUP3 ADD MSTORE PUSH1 0x1 PUSH1 0x1 PUSH1 0xA0 SHL SUB SWAP3 DUP4 AND PUSH1 0x24 DUP3 ADD MSTORE SWAP3 SWAP1 SWAP2 AND PUSH1 0x44 DUP4 ADD MSTORE PUSH1 0x64 DUP1 DUP4 ADD SWAP4 SWAP1 SWAP4 MSTORE SWAP2 DUP2 MSTORE PUSH1 0xA0 DUP2 ADD SWAP2 DUP2 DUP4 LT PUSH8 0xFFFFFFFFFFFFFFFF DUP5 GT OR PUSH2 0x5B0 JUMPI PUSH2 0x1E60 SWAP3 PUSH1 0x40 MSTORE PUSH2 0x1E62 JUMP JUMPDEST JUMP JUMPDEST SWAP1 PUSH1 0x0 PUSH1 0x20 SWAP2 DUP3 DUP2 MLOAD SWAP2 ADD DUP3 DUP6 GAS CALL ISZERO PUSH2 0x1EBE JUMPI PUSH1 0x0 MLOAD RETURNDATASIZE PUSH2 0x1EB5 JUMPI POP PUSH1 0x1 PUSH1 0x1 PUSH1 0xA0 SHL SUB DUP2 AND EXTCODESIZE ISZERO JUMPDEST PUSH2 0x1E93 JUMPI POP JUMP JUMPDEST PUSH1 0x40 MLOAD PUSH4 0x5274AFE7 PUSH1 0xE0 SHL DUP2 MSTORE PUSH1 0x1 PUSH1 0x1 PUSH1 0xA0 SHL SUB SWAP1 SWAP2 AND PUSH1 0x4 DUP3 ADD MSTORE PUSH1 0x24 SWAP1 REVERT JUMPDEST PUSH1 0x1 EQ ISZERO PUSH2 0x1E8C JUMP JUMPDEST PUSH1 0x40 MLOAD RETURNDATASIZE PUSH1 0x0 DUP3 RETURNDATACOPY RETURNDATASIZE SWAP1 REVERT JUMPDEST PUSH1 0x2 PUSH1 0x0 SLOAD EQ PUSH2 0x1EDB JUMPI PUSH1 0x2 PUSH1 0x0 SSTORE JUMP JUMPDEST PUSH1 0x40 MLOAD PUSH4 0x3EE5AEB5 PUSH1 0xE0 SHL DUP2 MSTORE PUSH1 0x4 SWAP1 REVERT JUMPDEST SWAP2 SWAP1 DUP3 ADD DUP1 SWAP3 GT PUSH2 0x604 JUMPI JUMP JUMPDEST DUP1 MLOAD DUP3 LT ISZERO PUSH2 0x1B31 JUMPI PUSH1 0x20 SWAP2 PUSH1 0x5 SHL ADD ADD SWAP1 JUMP INVALID LOG2 PUSH5 0x6970667358 0x22 SLT KECCAK256 CALLDATACOPY POP PUSH13 0xC7447FA84B93025402C860B46C PC 0xFB SLT 0xC0 0x24 SLOAD 0xEE SWAP7 0xFB 0xC 0x5E 0x24 0xBA PUSH8 0x2AF564736F6C6343 STOP ADDMOD EQ STOP CALLER "},"methodIdentifiers":{"MAX_INTEREST_RATE()":"34855d14","MAX_LOAN_DURATION()":"0d0b2ca6","MIN_COLLATERAL_RATIO()":"7a9fffb7","MIN_LOAN_DURATION()":"89d99a05","addSupportedToken(uint8,address,uint8,uint256,uint256)":"2ffc204b","borrowerLoans(address,uint256)":"e3ed1902","calculateUSDValue(uint8,uint256)":"fe6993b8","fundLoan(uint256,uint256)":"f4512bb6","getActiveLoanRequests()":"9772d7ee","getLoan(uint256)":"504006ca","getSupportedToken(uint8)":"d42c4c53","getTokenPrice(uint8)":"d89e8c1c","lenderLoans(address,uint256)":"3cdb72f1","lenderPositions(uint256,address)":"ad8d0138","loans(uint256)":"e1ec3c68","nextLoanId()":"87c51459","owner()":"8da5cb5b","renounceOwnership()":"715018a6","requestLoan(uint256,uint8,uint8,uint256,uint256,uint256,bool,bool)":"f498c9cc","supportedTokens(uint8)":"3f572d36","tokenPrices(uint8)":"deceafa7","transferOwnership(address)":"f2fde38b","updateTokenPrice(uint8,uint256)":"b9c445b9"}}}}}