{"contracts/TokenSwap.sol":{"TokenSwap":{"abi":[{"inputs":[{"internalType":"address","name":"_loanChainAddress","type":"address"}],"stateMutability":"nonpayable","type":"constructor"},{"inputs":[{"internalType":"address","name":"owner","type":"address"}],"name":"OwnableInvalidOwner","type":"error"},{"inputs":[{"internalType":"address","name":"account","type":"address"}],"name":"OwnableUnauthorizedAccount","type":"error"},{"inputs":[],"name":"ReentrancyGuardReentrantCall","type":"error"},{"inputs":[{"internalType":"address","name":"token","type":"address"}],"name":"SafeERC20FailedOperation","type":"error"},{"anonymous":false,"inputs":[{"indexed":false,"internalType":"uint256","name":"oldRate","type":"uint256"},{"indexed":false,"internalType":"uint256","name":"newRate","type":"uint256"}],"name":"FeeRateUpdated","type":"event"},{"anonymous":false,"inputs":[{"indexed":true,"internalType":"enum TokenType","name":"token","type":"uint8"},{"indexed":false,"internalType":"uint256","name":"amount","type":"uint256"}],"name":"FeesWithdrawn","type":"event"},{"anonymous":false,"inputs":[{"indexed":true,"internalType":"address","name":"previousOwner","type":"address"},{"indexed":true,"internalType":"address","name":"newOwner","type":"address"}],"name":"OwnershipTransferred","type":"event"},{"anonymous":false,"inputs":[{"indexed":true,"internalType":"address","name":"user","type":"address"},{"indexed":true,"internalType":"enum TokenType","name":"fromToken","type":"uint8"},{"indexed":true,"internalType":"enum TokenType","name":"toToken","type":"uint8"},{"indexed":false,"internalType":"uint256","name":"amountIn","type":"uint256"},{"indexed":false,"internalType":"uint256","name":"amountOut","type":"uint256"},{"indexed":false,"internalType":"uint256","name":"fee","type":"uint256"}],"name":"Swap","type":"event"},{"inputs":[],"name":"MAX_FEE_RATE","outputs":[{"internalType":"uint256","name":"","type":"uint256"}],"stateMutability":"view","type":"function"},{"inputs":[{"internalType":"enum TokenType","name":"_token","type":"uint8"},{"internalType":"uint256","name":"_amount","type":"uint256"}],"name":"addLiquidity","outputs":[],"stateMutability":"payable","type":"function"},{"inputs":[{"internalType":"enum TokenType","name":"","type":"uint8"}],"name":"collectedFees","outputs":[{"internalType":"uint256","name":"","type":"uint256"}],"stateMutability":"view","type":"function"},{"inputs":[{"internalType":"enum TokenType","name":"_fromToken","type":"uint8"},{"internalType":"enum TokenType","name":"_toToken","type":"uint8"},{"internalType":"uint256","name":"_amountIn","type":"uint256"}],"name":"getSwapQuote","outputs":[{"internalType":"uint256","name":"amountOut","type":"uint256"},{"internalType":"uint256","name":"fee","type":"uint256"},{"internalType":"uint256","name":"exchangeRate","type":"uint256"}],"stateMutability":"view","type":"function"},{"inputs":[{"internalType":"enum TokenType","name":"_token","type":"uint8"}],"name":"getTokenBalance","outputs":[{"internalType":"uint256","name":"","type":"uint256"}],"stateMutability":"view","type":"function"},{"inputs":[],"name":"loanChain","outputs":[{"internalType":"contract ILoanChainV2","name":"","type":"address"}],"stateMutability":"view","type":"function"},{"inputs":[],"name":"owner","outputs":[{"internalType":"address","name":"","type":"address"}],"stateMutability":"view","type":"function"},{"inputs":[],"name":"renounceOwnership","outputs":[],"stateMutability":"nonpayable","type":"function"},{"inputs":[{"internalType":"uint256","name":"_feeRate","type":"uint256"}],"name":"setSwapFeeRate","outputs":[],"stateMutability":"nonpayable","type":"function"},{"inputs":[{"components":[{"internalType":"enum TokenType","name":"fromToken","type":"uint8"},{"internalType":"enum TokenType","name":"toToken","type":"uint8"},{"internalType":"uint256","name":"amountIn","type":"uint256"},{"internalType":"uint256","name":"minAmountOut","type":"uint256"},{"internalType":"address","name":"to","type":"address"}],"internalType":"struct TokenSwap.SwapParams","name":"params","type":"tuple"}],"name":"swap","outputs":[],"stateMutability":"payable","type":"function"},{"inputs":[],"name":"swapFeeRate","outputs":[{"internalType":"uint256","name":"","type":"uint256"}],"stateMutability":"view","type":"function"},{"inputs":[{"internalType":"address","name":"newOwner","type":"address"}],"name":"transferOwnership","outputs":[],"stateMutability":"nonpayable","type":"function"},{"inputs":[{"internalType":"enum TokenType","name":"_token","type":"uint8"}],"name":"withdrawFees","outputs":[],"stateMutability":"nonpayable","type":"function"},{"stateMutability":"payable","type":"receive"}],"evm":{"bytecode":{"linkReferences":{},"object":"60803461011e57601f61109c38819003918201601f19168301916001600160401b038311848410176101235780849260209460405283398101031261011e57516001600160a01b038082169182900361011e57600160005533156101055760018054336001600160a01b0319808316821790935560405192939091167f8be0079c531659141344cd1fd0a4f28419497f9722a3daafe3b4186f6b6457e0600080a3601e60035582156100c357506002541617600255604051610f62908161013a8239f35b62461bcd60e51b815260206004820152601960248201527f496e76616c6964204c6f616e436861696e2061646472657373000000000000006044820152606490fd5b604051631e4fbdf760e01b815260006004820152602490fd5b600080fd5b634e487b7160e01b600052604160045260246000fdfe60806040818152600480361015610021575b505050361561001f57600080fd5b005b600092833560e01c9081633a04801d146109d257508063715018a6146109755780638cd81c00146108da5780638da5cb5b146108b157806391ceb3eb1461088157806392f6576e14610864578063a827396c146105e6578063b66f7bdd14610527578063d1154ff014610490578063d34ecb0314610463578063e9fc435914610187578063f2fde38b146100f05763f9b431720361001157346100ec5760203660031901126100ec57359160058310156100e957506100e16020926109ee565b549051908152f35b80fd5b8280fd5b5090346100ec5760203660031901126100ec576001600160a01b0382358181169391929084900361018357610123610a1d565b831561016d575050600154826bffffffffffffffffffffffff60a01b821617600155167f8be0079c531659141344cd1fd0a4f28419497f9722a3daafe3b4186f6b6457e08380a380f35b51631e4fbdf760e01b8152908101849052602490fd5b8480fd5b509060a03660031901126100ec5760028354146104565760028355813590600582101561045257602492833593600585101561044e576101c985851415610a49565b60443592831561040c576001600160a01b0392836101e5610b8c565b16156103d7578151632a09ce5b60e21b81529261020482850188610ac6565b61021081850189610ac6565b856044850152606084606481305afa9485156103cd5789948a9661038f575b50606435851061035957876102c4575061024a863414610be6565b61025c610255610b8c565b858a610ceb565b610265886109ee565b908154928684018094116102b357505055519283526020830152604082015233907f4ad053260496f30b8be00ad73d48220e22d77fe135b6cc8b1bf891d5eb1a2ffc90606090a46001815580f35b634e487b7160e01b8b526011905289fd5b6102ce3415610ba2565b600254845163d42c4c5360e01b81529060c09082908590829086166102f58983018f610ac6565b5afa90811561034f57918891610317938d9161031c575b503091339116610c28565b61024a565b61033d915060c03d8111610348575b6103358183610a8e565b810190610ad3565b50505050503861030c565b503d61032b565b85513d8d823e3d90fd5b506011906020606494519362461bcd60e51b8552840152820152700a6d8d2e0e0c2ceca40e8dede40d0d2ced607b1b6044820152fd5b945094506060843d82116103c5575b816103ab60609383610a8e565b810103126103c15760208451940151943861022f565b8880fd5b3d915061039e565b83513d8b823e3d90fd5b6011836020606494519362461bcd60e51b855284015282015270125b9d985b1a59081c9958da5c1a595b9d607a1b6044820152fd5b606492916020601792519362461bcd60e51b85528401528201527f416d6f756e74206d75737420626520706f7369746976650000000000000000006044820152fd5b8580fd5b8380fd5b51633ee5aeb560e01b8152fd5b50503461048c578160031936011261048c5760025490516001600160a01b039091168152602090f35b5080fd5b50346100ec5760203660031901126100ec578035906104ad610a1d565b61012c82116104f05750907f14914da2bf76024616fbe1859783fcd4dbddcb179b1f3a854949fbf920dcb95791600354908060035582519182526020820152a180f35b606490602084519162461bcd60e51b8352820152601160248201527008ccaca40e4c2e8ca40e8dede40d0d2ced607b1b6044820152fd5b50346100ec5760203660031901126100ec5780359160058310156104525761054d610a1d565b610556836109ee565b549182156105ae57507f4a9b07307c301cee29619e4721986b177d98a138d648964ca3ec3b097c67c048916020918561058e866109ee565b556001546105a6906001600160a01b03168387610ceb565b51908152a280f35b6020606492519162461bcd60e51b835282015260136024820152724e6f206665657320746f20776974686472617760681b6044820152fd5b5091903461048c57606036600319011261048c57823560058110156100ec57602480359160058310156101835761061f83821415610a49565b6002548451633627a30760e21b808252949093916001600160a01b03169061064989860185610ac6565b60209586868581865afa95861561082b578996610835575b5087519081526106738a820183610ac6565b86818581865afa96871561082b5789976107f7575b5050865163d42c4c5360e01b80825290946106a6908b870190610ac6565b60c09283868681845afa9586156107ed57908b92918b976107c0575b5084929186916106dc8c5196879586948552840190610ac6565b5afa9182156107b65761072a928792610725928b92610793575b505061071f61071961070a89604435610b32565b61071389610b5b565b90610b6c565b91610b5b565b90610b32565b610b6c565b9561271061073a60035489610b32565b049788880397881161078357505050916107256107639261075e61077f9695610b5b565b610b32565b9051938493846040919493926060820195825260208201520152565b0390f35b634e487b7160e01b825260119052fd5b6107a99250803d10610348576103358183610a8e565b50505091505038806106f6565b87513d8a823e3d90fd5b86919750916107dd869493853d8711610348576103358183610a8e565b50505091505097915091926106c2565b89513d8c823e3d90fd5b9080929750813d8311610824575b61080f8183610a8e565b810103126108205751943880610688565b8780fd5b503d610805565b88513d8b823e3d90fd5b9095508681813d831161085d575b61084d8183610a8e565b810103126103c157519438610661565b503d610843565b50503461048c578160031936011261048c576020905161012c8152f35b50346100ec5760203660031901126100ec57359160058310156100e957506108aa602092610e50565b9051908152f35b50503461048c578160031936011261048c5760015490516001600160a01b039091168152602090f35b50816003193601126100ec57803590600582101561045257602435916108fe610a1d565b8061091457505061091191503414610be6565b80f35b60c061094c916109243415610ba2565b602460018060a01b039485600254168851958694859363d42c4c5360e01b8552840190610ac6565b5afa90811561096b576109119450859161031c57503091339116610c28565b84513d87823e3d90fd5b83346100e957806003193601126100e95761098e610a1d565b600180546001600160a01b0319811690915581906001600160a01b03167f8be0079c531659141344cd1fd0a4f28419497f9722a3daafe3b4186f6b6457e08280a380f35b84903461048c578160031936011261048c576020906003548152f35b6005811015610a07576000526004602052604060002090565b634e487b7160e01b600052602160045260246000fd5b6001546001600160a01b03163303610a3157565b60405163118cdaa760e01b8152336004820152602490fd5b15610a5057565b60405162461bcd60e51b815260206004820152601660248201527521b0b73737ba1039bbb0b81039b0b6b2903a37b5b2b760511b6044820152606490fd5b90601f8019910116810190811067ffffffffffffffff821117610ab057604052565b634e487b7160e01b600052604160045260246000fd5b906005821015610a075752565b91908260c0910312610b2d5781516001600160a01b0381168103610b2d579160208101516005811015610b2d5791604082015160ff81168103610b2d579160608101518015158103610b2d579160a0608083015192015190565b600080fd5b81810292918115918404141715610b4557565b634e487b7160e01b600052601160045260246000fd5b60ff16604d8111610b4557600a0a90565b8115610b76570490565b634e487b7160e01b600052601260045260246000fd5b6084356001600160a01b0381168103610b2d5790565b15610ba957565b60405162461bcd60e51b8152602060048201526015602482015274139bc8115512081cda1bdd5b19081899481cd95b9d605a1b6044820152606490fd5b15610bed57565b60405162461bcd60e51b815260206004820152601360248201527208aa89040c2dadeeadce840dad2e6dac2e8c6d606b1b6044820152606490fd5b6040516323b872dd60e01b60208201526001600160a01b03928316602482015292909116604483015260648083019390935291815260a081019181831067ffffffffffffffff841117610ab057610c8192604052610c83565b565b906000602091828151910182855af115610cdf576000513d610cd657506001600160a01b0381163b155b610cb45750565b604051635274afe760e01b81526001600160a01b039091166004820152602490fd5b60011415610cad565b6040513d6000823e3d90fd5b9190916005811015610a075780610d9c575060008080809481945af1903d15610d96573d9067ffffffffffffffff8211610d825760405191610d37601f8201601f191660200184610a8e565b825260203d92013e5b15610d4757565b60405162461bcd60e51b8152602060048201526013602482015272115512081d1c985b9cd9995c8819985a5b1959606a1b6044820152606490fd5b634e487b7160e01b81526041600452602490fd5b50610d40565b60025460405163d42c4c5360e01b8152936001600160a01b0392909160c09186916024918391871690610dd3906004840190610ac6565b5afa938415610cdf57600094610e2b575b50816040519363a9059cbb60e01b6020860152166024840152604483015260448252608082019282841067ffffffffffffffff851117610ab057610c819360405216610c83565b610e4491945060c03d8111610348576103358183610a8e565b50505050509238610de4565b6005811015610a075780610e6357504790565b60025460405163d42c4c5360e01b81526001600160a01b0392909160c09183916024918391871690610e99906004840190610ac6565b5afa8015610cdf57602091600091610f09575b506024604051809481936370a0823160e01b8352306004840152165afa908115610cdf57600091610edb575090565b906020823d8211610f01575b81610ef460209383610a8e565b810103126100e957505190565b3d9150610ee7565b610f21915060c03d8111610348576103358183610a8e565b505050505038610eac56fea26469706673582212209adf056f0aad735b56682c1ef8a4d33f0ec2430fc72fb5c6b78f9ace7e2d36d664736f6c63430008140033","opcodes":"PUSH1 0x80 CALLVALUE PUSH2 0x11E JUMPI PUSH1 0x1F PUSH2 0x109C CODESIZE DUP2 SWAP1 SUB SWAP2 DUP3 ADD PUSH1 0x1F NOT AND DUP4 ADD SWAP2 PUSH1 0x1 PUSH1 0x1 PUSH1 0x40 SHL SUB DUP4 GT DUP5 DUP5 LT OR PUSH2 0x123 JUMPI DUP1 DUP5 SWAP3 PUSH1 0x20 SWAP5 PUSH1 0x40 MSTORE DUP4 CODECOPY DUP2 ADD SUB SLT PUSH2 0x11E JUMPI MLOAD PUSH1 0x1 PUSH1 0x1 PUSH1 0xA0 SHL SUB DUP1 DUP3 AND SWAP2 DUP3 SWAP1 SUB PUSH2 0x11E JUMPI PUSH1 0x1 PUSH1 0x0 SSTORE CALLER ISZERO PUSH2 0x105 JUMPI PUSH1 0x1 DUP1 SLOAD CALLER PUSH1 0x1 PUSH1 0x1 PUSH1 0xA0 SHL SUB NOT DUP1 DUP4 AND DUP3 OR SWAP1 SWAP4 SSTORE PUSH1 0x40 MLOAD SWAP3 SWAP4 SWAP1 SWAP2 AND PUSH32 0x8BE0079C531659141344CD1FD0A4F28419497F9722A3DAAFE3B4186F6B6457E0 PUSH1 0x0 DUP1 LOG3 PUSH1 0x1E PUSH1 0x3 SSTORE DUP3 ISZERO PUSH2 0xC3 JUMPI POP PUSH1 0x2 SLOAD AND OR PUSH1 0x2 SSTORE PUSH1 0x40 MLOAD PUSH2 0xF62 SWAP1 DUP2 PUSH2 0x13A DUP3 CODECOPY RETURN JUMPDEST PUSH3 0x461BCD PUSH1 0xE5 SHL DUP2 MSTORE PUSH1 0x20 PUSH1 0x4 DUP3 ADD MSTORE PUSH1 0x19 PUSH1 0x24 DUP3 ADD MSTORE PUSH32 0x496E76616C6964204C6F616E436861696E206164647265737300000000000000 PUSH1 0x44 DUP3 ADD MSTORE PUSH1 0x64 SWAP1 REVERT JUMPDEST PUSH1 0x40 MLOAD PUSH4 0x1E4FBDF7 PUSH1 0xE0 SHL DUP2 MSTORE PUSH1 0x0 PUSH1 0x4 DUP3 ADD MSTORE PUSH1 0x24 SWAP1 REVERT JUMPDEST PUSH1 0x0 DUP1 REVERT JUMPDEST PUSH4 0x4E487B71 PUSH1 0xE0 SHL PUSH1 0x0 MSTORE PUSH1 0x41 PUSH1 0x4 MSTORE PUSH1 0x24 PUSH1 0x0 REVERT INVALID PUSH1 0x80 PUSH1 0x40 DUP2 DUP2 MSTORE PUSH1 0x4 DUP1 CALLDATASIZE LT ISZERO PUSH2 0x21 JUMPI JUMPDEST POP POP POP CALLDATASIZE ISZERO PUSH2 0x1F JUMPI PUSH1 0x0 DUP1 REVERT JUMPDEST STOP JUMPDEST PUSH1 0x0 SWAP3 DUP4 CALLDATALOAD PUSH1 0xE0 SHR SWAP1 DUP2 PUSH4 0x3A04801D EQ PUSH2 0x9D2 JUMPI POP DUP1 PUSH4 0x715018A6 EQ PUSH2 0x975 JUMPI DUP1 PUSH4 0x8CD81C00 EQ PUSH2 0x8DA JUMPI DUP1 PUSH4 0x8DA5CB5B EQ PUSH2 0x8B1 JUMPI DUP1 PUSH4 0x91CEB3EB EQ PUSH2 0x881 JUMPI DUP1 PUSH4 0x92F6576E EQ PUSH2 0x864 JUMPI DUP1 PUSH4 0xA827396C EQ PUSH2 0x5E6 JUMPI DUP1 PUSH4 0xB66F7BDD EQ PUSH2 0x527 JUMPI DUP1 PUSH4 0xD1154FF0 EQ PUSH2 0x490 JUMPI DUP1 PUSH4 0xD34ECB03 EQ PUSH2 0x463 JUMPI DUP1 PUSH4 0xE9FC4359 EQ PUSH2 0x187 JUMPI DUP1 PUSH4 0xF2FDE38B EQ PUSH2 0xF0 JUMPI PUSH4 0xF9B43172 SUB PUSH2 0x11 JUMPI CALLVALUE PUSH2 0xEC JUMPI PUSH1 0x20 CALLDATASIZE PUSH1 0x3 NOT ADD SLT PUSH2 0xEC JUMPI CALLDATALOAD SWAP2 PUSH1 0x5 DUP4 LT ISZERO PUSH2 0xE9 JUMPI POP PUSH2 0xE1 PUSH1 0x20 SWAP3 PUSH2 0x9EE JUMP JUMPDEST SLOAD SWAP1 MLOAD SWAP1 DUP2 MSTORE RETURN JUMPDEST DUP1 REVERT JUMPDEST DUP3 DUP1 REVERT JUMPDEST POP SWAP1 CALLVALUE PUSH2 0xEC JUMPI PUSH1 0x20 CALLDATASIZE PUSH1 0x3 NOT ADD SLT PUSH2 0xEC JUMPI PUSH1 0x1 PUSH1 0x1 PUSH1 0xA0 SHL SUB DUP3 CALLDATALOAD DUP2 DUP2 AND SWAP4 SWAP2 SWAP3 SWAP1 DUP5 SWAP1 SUB PUSH2 0x183 JUMPI PUSH2 0x123 PUSH2 0xA1D JUMP JUMPDEST DUP4 ISZERO PUSH2 0x16D JUMPI POP POP PUSH1 0x1 SLOAD DUP3 PUSH12 0xFFFFFFFFFFFFFFFFFFFFFFFF PUSH1 0xA0 SHL DUP3 AND OR PUSH1 0x1 SSTORE AND PUSH32 0x8BE0079C531659141344CD1FD0A4F28419497F9722A3DAAFE3B4186F6B6457E0 DUP4 DUP1 LOG3 DUP1 RETURN JUMPDEST MLOAD PUSH4 0x1E4FBDF7 PUSH1 0xE0 SHL DUP2 MSTORE SWAP1 DUP2 ADD DUP5 SWAP1 MSTORE PUSH1 0x24 SWAP1 REVERT JUMPDEST DUP5 DUP1 REVERT JUMPDEST POP SWAP1 PUSH1 0xA0 CALLDATASIZE PUSH1 0x3 NOT ADD SLT PUSH2 0xEC JUMPI PUSH1 0x2 DUP4 SLOAD EQ PUSH2 0x456 JUMPI PUSH1 0x2 DUP4 SSTORE DUP2 CALLDATALOAD SWAP1 PUSH1 0x5 DUP3 LT ISZERO PUSH2 0x452 JUMPI PUSH1 0x24 SWAP3 DUP4 CALLDATALOAD SWAP4 PUSH1 0x5 DUP6 LT ISZERO PUSH2 0x44E JUMPI PUSH2 0x1C9 DUP6 DUP6 EQ ISZERO PUSH2 0xA49 JUMP JUMPDEST PUSH1 0x44 CALLDATALOAD SWAP3 DUP4 ISZERO PUSH2 0x40C JUMPI PUSH1 0x1 PUSH1 0x1 PUSH1 0xA0 SHL SUB SWAP3 DUP4 PUSH2 0x1E5 PUSH2 0xB8C JUMP JUMPDEST AND ISZERO PUSH2 0x3D7 JUMPI DUP2 MLOAD PUSH4 0x2A09CE5B PUSH1 0xE2 SHL DUP2 MSTORE SWAP3 PUSH2 0x204 DUP3 DUP6 ADD DUP9 PUSH2 0xAC6 JUMP JUMPDEST PUSH2 0x210 DUP2 DUP6 ADD DUP10 PUSH2 0xAC6 JUMP JUMPDEST DUP6 PUSH1 0x44 DUP6 ADD MSTORE PUSH1 0x60 DUP5 PUSH1 0x64 DUP2 ADDRESS GAS STATICCALL SWAP5 DUP6 ISZERO PUSH2 0x3CD JUMPI DUP10 SWAP5 DUP11 SWAP7 PUSH2 0x38F JUMPI JUMPDEST POP PUSH1 0x64 CALLDATALOAD DUP6 LT PUSH2 0x359 JUMPI DUP8 PUSH2 0x2C4 JUMPI POP PUSH2 0x24A DUP7 CALLVALUE EQ PUSH2 0xBE6 JUMP JUMPDEST PUSH2 0x25C PUSH2 0x255 PUSH2 0xB8C JUMP JUMPDEST DUP6 DUP11 PUSH2 0xCEB JUMP JUMPDEST PUSH2 0x265 DUP9 PUSH2 0x9EE JUMP JUMPDEST SWAP1 DUP2 SLOAD SWAP3 DUP7 DUP5 ADD DUP1 SWAP5 GT PUSH2 0x2B3 JUMPI POP POP SSTORE MLOAD SWAP3 DUP4 MSTORE PUSH1 0x20 DUP4 ADD MSTORE PUSH1 0x40 DUP3 ADD MSTORE CALLER SWAP1 PUSH32 0x4AD053260496F30B8BE00AD73D48220E22D77FE135B6CC8B1BF891D5EB1A2FFC SWAP1 PUSH1 0x60 SWAP1 LOG4 PUSH1 0x1 DUP2 SSTORE DUP1 RETURN JUMPDEST PUSH4 0x4E487B71 PUSH1 0xE0 SHL DUP12 MSTORE PUSH1 0x11 SWAP1 MSTORE DUP10 REVERT JUMPDEST PUSH2 0x2CE CALLVALUE ISZERO PUSH2 0xBA2 JUMP JUMPDEST PUSH1 0x2 SLOAD DUP5 MLOAD PUSH4 0xD42C4C53 PUSH1 0xE0 SHL DUP2 MSTORE SWAP1 PUSH1 0xC0 SWAP1 DUP3 SWAP1 DUP6 SWAP1 DUP3 SWAP1 DUP7 AND PUSH2 0x2F5 DUP10 DUP4 ADD DUP16 PUSH2 0xAC6 JUMP JUMPDEST GAS STATICCALL SWAP1 DUP2 ISZERO PUSH2 0x34F JUMPI SWAP2 DUP9 SWAP2 PUSH2 0x317 SWAP4 DUP14 SWAP2 PUSH2 0x31C JUMPI JUMPDEST POP ADDRESS SWAP2 CALLER SWAP2 AND PUSH2 0xC28 JUMP JUMPDEST PUSH2 0x24A JUMP JUMPDEST PUSH2 0x33D SWAP2 POP PUSH1 0xC0 RETURNDATASIZE DUP2 GT PUSH2 0x348 JUMPI JUMPDEST PUSH2 0x335 DUP2 DUP4 PUSH2 0xA8E JUMP JUMPDEST DUP2 ADD SWAP1 PUSH2 0xAD3 JUMP JUMPDEST POP POP POP POP POP CODESIZE PUSH2 0x30C JUMP JUMPDEST POP RETURNDATASIZE PUSH2 0x32B JUMP JUMPDEST DUP6 MLOAD RETURNDATASIZE DUP14 DUP3 RETURNDATACOPY RETURNDATASIZE SWAP1 REVERT JUMPDEST POP PUSH1 0x11 SWAP1 PUSH1 0x20 PUSH1 0x64 SWAP5 MLOAD SWAP4 PUSH3 0x461BCD PUSH1 0xE5 SHL DUP6 MSTORE DUP5 ADD MSTORE DUP3 ADD MSTORE PUSH17 0xA6D8D2E0E0C2CECA40E8DEDE40D0D2CED PUSH1 0x7B SHL PUSH1 0x44 DUP3 ADD MSTORE REVERT JUMPDEST SWAP5 POP SWAP5 POP PUSH1 0x60 DUP5 RETURNDATASIZE DUP3 GT PUSH2 0x3C5 JUMPI JUMPDEST DUP2 PUSH2 0x3AB PUSH1 0x60 SWAP4 DUP4 PUSH2 0xA8E JUMP JUMPDEST DUP2 ADD SUB SLT PUSH2 0x3C1 JUMPI PUSH1 0x20 DUP5 MLOAD SWAP5 ADD MLOAD SWAP5 CODESIZE PUSH2 0x22F JUMP JUMPDEST DUP9 DUP1 REVERT JUMPDEST RETURNDATASIZE SWAP2 POP PUSH2 0x39E JUMP JUMPDEST DUP4 MLOAD RETURNDATASIZE DUP12 DUP3 RETURNDATACOPY RETURNDATASIZE SWAP1 REVERT JUMPDEST PUSH1 0x11 DUP4 PUSH1 0x20 PUSH1 0x64 SWAP5 MLOAD SWAP4 PUSH3 0x461BCD PUSH1 0xE5 SHL DUP6 MSTORE DUP5 ADD MSTORE DUP3 ADD MSTORE PUSH17 0x125B9D985B1A59081C9958DA5C1A595B9D PUSH1 0x7A SHL PUSH1 0x44 DUP3 ADD MSTORE REVERT JUMPDEST PUSH1 0x64 SWAP3 SWAP2 PUSH1 0x20 PUSH1 0x17 SWAP3 MLOAD SWAP4 PUSH3 0x461BCD PUSH1 0xE5 SHL DUP6 MSTORE DUP5 ADD MSTORE DUP3 ADD MSTORE PUSH32 0x416D6F756E74206D75737420626520706F736974697665000000000000000000 PUSH1 0x44 DUP3 ADD MSTORE REVERT JUMPDEST DUP6 DUP1 REVERT JUMPDEST DUP4 DUP1 REVERT JUMPDEST MLOAD PUSH4 0x3EE5AEB5 PUSH1 0xE0 SHL DUP2 MSTORE REVERT JUMPDEST POP POP CALLVALUE PUSH2 0x48C JUMPI DUP2 PUSH1 0x3 NOT CALLDATASIZE ADD SLT PUSH2 0x48C JUMPI PUSH1 0x2 SLOAD SWAP1 MLOAD PUSH1 0x1 PUSH1 0x1 PUSH1 0xA0 SHL SUB SWAP1 SWAP2 AND DUP2 MSTORE PUSH1 0x20 SWAP1 RETURN JUMPDEST POP DUP1 REVERT JUMPDEST POP CALLVALUE PUSH2 0xEC JUMPI PUSH1 0x20 CALLDATASIZE PUSH1 0x3 NOT ADD SLT PUSH2 0xEC JUMPI DUP1 CALLDATALOAD SWAP1 PUSH2 0x4AD PUSH2 0xA1D JUMP JUMPDEST PUSH2 0x12C DUP3 GT PUSH2 0x4F0 JUMPI POP SWAP1 PUSH32 0x14914DA2BF76024616FBE1859783FCD4DBDDCB179B1F3A854949FBF920DCB957 SWAP2 PUSH1 0x3 SLOAD SWAP1 DUP1 PUSH1 0x3 SSTORE DUP3 MLOAD SWAP2 DUP3 MSTORE PUSH1 0x20 DUP3 ADD MSTORE LOG1 DUP1 RETURN JUMPDEST PUSH1 0x64 SWAP1 PUSH1 0x20 DUP5 MLOAD SWAP2 PUSH3 0x461BCD PUSH1 0xE5 SHL DUP4 MSTORE DUP3 ADD MSTORE PUSH1 0x11 PUSH1 0x24 DUP3 ADD MSTORE PUSH17 0x8CCACA40E4C2E8CA40E8DEDE40D0D2CED PUSH1 0x7B SHL PUSH1 0x44 DUP3 ADD MSTORE REVERT JUMPDEST POP CALLVALUE PUSH2 0xEC JUMPI PUSH1 0x20 CALLDATASIZE PUSH1 0x3 NOT ADD SLT PUSH2 0xEC JUMPI DUP1 CALLDATALOAD SWAP2 PUSH1 0x5 DUP4 LT ISZERO PUSH2 0x452 JUMPI PUSH2 0x54D PUSH2 0xA1D JUMP JUMPDEST PUSH2 0x556 DUP4 PUSH2 0x9EE JUMP JUMPDEST SLOAD SWAP2 DUP3 ISZERO PUSH2 0x5AE JUMPI POP PUSH32 0x4A9B07307C301CEE29619E4721986B177D98A138D648964CA3EC3B097C67C048 SWAP2 PUSH1 0x20 SWAP2 DUP6 PUSH2 0x58E DUP7 PUSH2 0x9EE JUMP JUMPDEST SSTORE PUSH1 0x1 SLOAD PUSH2 0x5A6 SWAP1 PUSH1 0x1 PUSH1 0x1 PUSH1 0xA0 SHL SUB AND DUP4 DUP8 PUSH2 0xCEB JUMP JUMPDEST MLOAD SWAP1 DUP2 MSTORE LOG2 DUP1 RETURN JUMPDEST PUSH1 0x20 PUSH1 0x64 SWAP3 MLOAD SWAP2 PUSH3 0x461BCD PUSH1 0xE5 SHL DUP4 MSTORE DUP3 ADD MSTORE PUSH1 0x13 PUSH1 0x24 DUP3 ADD MSTORE PUSH19 0x4E6F206665657320746F207769746864726177 PUSH1 0x68 SHL PUSH1 0x44 DUP3 ADD MSTORE REVERT JUMPDEST POP SWAP2 SWAP1 CALLVALUE PUSH2 0x48C JUMPI PUSH1 0x60 CALLDATASIZE PUSH1 0x3 NOT ADD SLT PUSH2 0x48C JUMPI DUP3 CALLDATALOAD PUSH1 0x5 DUP2 LT ISZERO PUSH2 0xEC JUMPI PUSH1 0x24 DUP1 CALLDATALOAD SWAP2 PUSH1 0x5 DUP4 LT ISZERO PUSH2 0x183 JUMPI PUSH2 0x61F DUP4 DUP3 EQ ISZERO PUSH2 0xA49 JUMP JUMPDEST PUSH1 0x2 SLOAD DUP5 MLOAD PUSH4 0x3627A307 PUSH1 0xE2 SHL DUP1 DUP3 MSTORE SWAP5 SWAP1 SWAP4 SWAP2 PUSH1 0x1 PUSH1 0x1 PUSH1 0xA0 SHL SUB AND SWAP1 PUSH2 0x649 DUP10 DUP7 ADD DUP6 PUSH2 0xAC6 JUMP JUMPDEST PUSH1 0x20 SWAP6 DUP7 DUP7 DUP6 DUP2 DUP7 GAS STATICCALL SWAP6 DUP7 ISZERO PUSH2 0x82B JUMPI DUP10 SWAP7 PUSH2 0x835 JUMPI JUMPDEST POP DUP8 MLOAD SWAP1 DUP2 MSTORE PUSH2 0x673 DUP11 DUP3 ADD DUP4 PUSH2 0xAC6 JUMP JUMPDEST DUP7 DUP2 DUP6 DUP2 DUP7 GAS STATICCALL SWAP7 DUP8 ISZERO PUSH2 0x82B JUMPI DUP10 SWAP8 PUSH2 0x7F7 JUMPI JUMPDEST POP POP DUP7 MLOAD PUSH4 0xD42C4C53 PUSH1 0xE0 SHL DUP1 DUP3 MSTORE SWAP1 SWAP5 PUSH2 0x6A6 SWAP1 DUP12 DUP8 ADD SWAP1 PUSH2 0xAC6 JUMP JUMPDEST PUSH1 0xC0 SWAP3 DUP4 DUP7 DUP7 DUP2 DUP5 GAS STATICCALL SWAP6 DUP7 ISZERO PUSH2 0x7ED JUMPI SWAP1 DUP12 SWAP3 SWAP2 DUP12 SWAP8 PUSH2 0x7C0 JUMPI JUMPDEST POP DUP5 SWAP3 SWAP2 DUP7 SWAP2 PUSH2 0x6DC DUP13 MLOAD SWAP7 DUP8 SWAP6 DUP7 SWAP5 DUP6 MSTORE DUP5 ADD SWAP1 PUSH2 0xAC6 JUMP JUMPDEST GAS STATICCALL SWAP2 DUP3 ISZERO PUSH2 0x7B6 JUMPI PUSH2 0x72A SWAP3 DUP8 SWAP3 PUSH2 0x725 SWAP3 DUP12 SWAP3 PUSH2 0x793 JUMPI JUMPDEST POP POP PUSH2 0x71F PUSH2 0x719 PUSH2 0x70A DUP10 PUSH1 0x44 CALLDATALOAD PUSH2 0xB32 JUMP JUMPDEST PUSH2 0x713 DUP10 PUSH2 0xB5B JUMP JUMPDEST SWAP1 PUSH2 0xB6C JUMP JUMPDEST SWAP2 PUSH2 0xB5B JUMP JUMPDEST SWAP1 PUSH2 0xB32 JUMP JUMPDEST PUSH2 0xB6C JUMP JUMPDEST SWAP6 PUSH2 0x2710 PUSH2 0x73A PUSH1 0x3 SLOAD DUP10 PUSH2 0xB32 JUMP JUMPDEST DIV SWAP8 DUP9 DUP9 SUB SWAP8 DUP9 GT PUSH2 0x783 JUMPI POP POP POP SWAP2 PUSH2 0x725 PUSH2 0x763 SWAP3 PUSH2 0x75E PUSH2 0x77F SWAP7 SWAP6 PUSH2 0xB5B JUMP JUMPDEST PUSH2 0xB32 JUMP JUMPDEST SWAP1 MLOAD SWAP4 DUP5 SWAP4 DUP5 PUSH1 0x40 SWAP2 SWAP5 SWAP4 SWAP3 PUSH1 0x60 DUP3 ADD SWAP6 DUP3 MSTORE PUSH1 0x20 DUP3 ADD MSTORE ADD MSTORE JUMP JUMPDEST SUB SWAP1 RETURN JUMPDEST PUSH4 0x4E487B71 PUSH1 0xE0 SHL DUP3 MSTORE PUSH1 0x11 SWAP1 MSTORE REVERT JUMPDEST PUSH2 0x7A9 SWAP3 POP DUP1 RETURNDATASIZE LT PUSH2 0x348 JUMPI PUSH2 0x335 DUP2 DUP4 PUSH2 0xA8E JUMP JUMPDEST POP POP POP SWAP2 POP POP CODESIZE DUP1 PUSH2 0x6F6 JUMP JUMPDEST DUP8 MLOAD RETURNDATASIZE DUP11 DUP3 RETURNDATACOPY RETURNDATASIZE SWAP1 REVERT JUMPDEST DUP7 SWAP2 SWAP8 POP SWAP2 PUSH2 0x7DD DUP7 SWAP5 SWAP4 DUP6 RETURNDATASIZE DUP8 GT PUSH2 0x348 JUMPI PUSH2 0x335 DUP2 DUP4 PUSH2 0xA8E JUMP JUMPDEST POP POP POP SWAP2 POP POP SWAP8 SWAP2 POP SWAP2 SWAP3 PUSH2 0x6C2 JUMP JUMPDEST DUP10 MLOAD RETURNDATASIZE DUP13 DUP3 RETURNDATACOPY RETURNDATASIZE SWAP1 REVERT JUMPDEST SWAP1 DUP1 SWAP3 SWAP8 POP DUP2 RETURNDATASIZE DUP4 GT PUSH2 0x824 JUMPI JUMPDEST PUSH2 0x80F DUP2 DUP4 PUSH2 0xA8E JUMP JUMPDEST DUP2 ADD SUB SLT PUSH2 0x820 JUMPI MLOAD SWAP5 CODESIZE DUP1 PUSH2 0x688 JUMP JUMPDEST DUP8 DUP1 REVERT JUMPDEST POP RETURNDATASIZE PUSH2 0x805 JUMP JUMPDEST DUP9 MLOAD RETURNDATASIZE DUP12 DUP3 RETURNDATACOPY RETURNDATASIZE SWAP1 REVERT JUMPDEST SWAP1 SWAP6 POP DUP7 DUP2 DUP2 RETURNDATASIZE DUP4 GT PUSH2 0x85D JUMPI JUMPDEST PUSH2 0x84D DUP2 DUP4 PUSH2 0xA8E JUMP JUMPDEST DUP2 ADD SUB SLT PUSH2 0x3C1 JUMPI MLOAD SWAP5 CODESIZE PUSH2 0x661 JUMP JUMPDEST POP RETURNDATASIZE PUSH2 0x843 JUMP JUMPDEST POP POP CALLVALUE PUSH2 0x48C JUMPI DUP2 PUSH1 0x3 NOT CALLDATASIZE ADD SLT PUSH2 0x48C JUMPI PUSH1 0x20 SWAP1 MLOAD PUSH2 0x12C DUP2 MSTORE RETURN JUMPDEST POP CALLVALUE PUSH2 0xEC JUMPI PUSH1 0x20 CALLDATASIZE PUSH1 0x3 NOT ADD SLT PUSH2 0xEC JUMPI CALLDATALOAD SWAP2 PUSH1 0x5 DUP4 LT ISZERO PUSH2 0xE9 JUMPI POP PUSH2 0x8AA PUSH1 0x20 SWAP3 PUSH2 0xE50 JUMP JUMPDEST SWAP1 MLOAD SWAP1 DUP2 MSTORE RETURN JUMPDEST POP POP CALLVALUE PUSH2 0x48C JUMPI DUP2 PUSH1 0x3 NOT CALLDATASIZE ADD SLT PUSH2 0x48C JUMPI PUSH1 0x1 SLOAD SWAP1 MLOAD PUSH1 0x1 PUSH1 0x1 PUSH1 0xA0 SHL SUB SWAP1 SWAP2 AND DUP2 MSTORE PUSH1 0x20 SWAP1 RETURN JUMPDEST POP DUP2 PUSH1 0x3 NOT CALLDATASIZE ADD SLT PUSH2 0xEC JUMPI DUP1 CALLDATALOAD SWAP1 PUSH1 0x5 DUP3 LT ISZERO PUSH2 0x452 JUMPI PUSH1 0x24 CALLDATALOAD SWAP2 PUSH2 0x8FE PUSH2 0xA1D JUMP JUMPDEST DUP1 PUSH2 0x914 JUMPI POP POP PUSH2 0x911 SWAP2 POP CALLVALUE EQ PUSH2 0xBE6 JUMP JUMPDEST DUP1 RETURN JUMPDEST PUSH1 0xC0 PUSH2 0x94C SWAP2 PUSH2 0x924 CALLVALUE ISZERO PUSH2 0xBA2 JUMP JUMPDEST PUSH1 0x24 PUSH1 0x1 DUP1 PUSH1 0xA0 SHL SUB SWAP5 DUP6 PUSH1 0x2 SLOAD AND DUP9 MLOAD SWAP6 DUP7 SWAP5 DUP6 SWAP4 PUSH4 0xD42C4C53 PUSH1 0xE0 SHL DUP6 MSTORE DUP5 ADD SWAP1 PUSH2 0xAC6 JUMP JUMPDEST GAS STATICCALL SWAP1 DUP2 ISZERO PUSH2 0x96B JUMPI PUSH2 0x911 SWAP5 POP DUP6 SWAP2 PUSH2 0x31C JUMPI POP ADDRESS SWAP2 CALLER SWAP2 AND PUSH2 0xC28 JUMP JUMPDEST DUP5 MLOAD RETURNDATASIZE DUP8 DUP3 RETURNDATACOPY RETURNDATASIZE SWAP1 REVERT JUMPDEST DUP4 CALLVALUE PUSH2 0xE9 JUMPI DUP1 PUSH1 0x3 NOT CALLDATASIZE ADD SLT PUSH2 0xE9 JUMPI PUSH2 0x98E PUSH2 0xA1D JUMP JUMPDEST PUSH1 0x1 DUP1 SLOAD PUSH1 0x1 PUSH1 0x1 PUSH1 0xA0 SHL SUB NOT DUP2 AND SWAP1 SWAP2 SSTORE DUP2 SWAP1 PUSH1 0x1 PUSH1 0x1 PUSH1 0xA0 SHL SUB AND PUSH32 0x8BE0079C531659141344CD1FD0A4F28419497F9722A3DAAFE3B4186F6B6457E0 DUP3 DUP1 LOG3 DUP1 RETURN JUMPDEST DUP5 SWAP1 CALLVALUE PUSH2 0x48C JUMPI DUP2 PUSH1 0x3 NOT CALLDATASIZE ADD SLT PUSH2 0x48C JUMPI PUSH1 0x20 SWAP1 PUSH1 0x3 SLOAD DUP2 MSTORE RETURN JUMPDEST PUSH1 0x5 DUP2 LT ISZERO PUSH2 0xA07 JUMPI PUSH1 0x0 MSTORE PUSH1 0x4 PUSH1 0x20 MSTORE PUSH1 0x40 PUSH1 0x0 KECCAK256 SWAP1 JUMP JUMPDEST PUSH4 0x4E487B71 PUSH1 0xE0 SHL PUSH1 0x0 MSTORE PUSH1 0x21 PUSH1 0x4 MSTORE PUSH1 0x24 PUSH1 0x0 REVERT JUMPDEST PUSH1 0x1 SLOAD PUSH1 0x1 PUSH1 0x1 PUSH1 0xA0 SHL SUB AND CALLER SUB PUSH2 0xA31 JUMPI JUMP JUMPDEST PUSH1 0x40 MLOAD PUSH4 0x118CDAA7 PUSH1 0xE0 SHL DUP2 MSTORE CALLER PUSH1 0x4 DUP3 ADD MSTORE PUSH1 0x24 SWAP1 REVERT JUMPDEST ISZERO PUSH2 0xA50 JUMPI JUMP JUMPDEST PUSH1 0x40 MLOAD PUSH3 0x461BCD PUSH1 0xE5 SHL DUP2 MSTORE PUSH1 0x20 PUSH1 0x4 DUP3 ADD MSTORE PUSH1 0x16 PUSH1 0x24 DUP3 ADD MSTORE PUSH22 0x21B0B73737BA1039BBB0B81039B0B6B2903A37B5B2B7 PUSH1 0x51 SHL PUSH1 0x44 DUP3 ADD MSTORE PUSH1 0x64 SWAP1 REVERT JUMPDEST SWAP1 PUSH1 0x1F DUP1 NOT SWAP2 ADD AND DUP2 ADD SWAP1 DUP2 LT PUSH8 0xFFFFFFFFFFFFFFFF DUP3 GT OR PUSH2 0xAB0 JUMPI PUSH1 0x40 MSTORE JUMP JUMPDEST PUSH4 0x4E487B71 PUSH1 0xE0 SHL PUSH1 0x0 MSTORE PUSH1 0x41 PUSH1 0x4 MSTORE PUSH1 0x24 PUSH1 0x0 REVERT JUMPDEST SWAP1 PUSH1 0x5 DUP3 LT ISZERO PUSH2 0xA07 JUMPI MSTORE JUMP JUMPDEST SWAP2 SWAP1 DUP3 PUSH1 0xC0 SWAP2 SUB SLT PUSH2 0xB2D JUMPI DUP2 MLOAD PUSH1 0x1 PUSH1 0x1 PUSH1 0xA0 SHL SUB DUP2 AND DUP2 SUB PUSH2 0xB2D JUMPI SWAP2 PUSH1 0x20 DUP2 ADD MLOAD PUSH1 0x5 DUP2 LT ISZERO PUSH2 0xB2D JUMPI SWAP2 PUSH1 0x40 DUP3 ADD MLOAD PUSH1 0xFF DUP2 AND DUP2 SUB PUSH2 0xB2D JUMPI SWAP2 PUSH1 0x60 DUP2 ADD MLOAD DUP1 ISZERO ISZERO DUP2 SUB PUSH2 0xB2D JUMPI SWAP2 PUSH1 0xA0 PUSH1 0x80 DUP4 ADD MLOAD SWAP3 ADD MLOAD SWAP1 JUMP JUMPDEST PUSH1 0x0 DUP1 REVERT JUMPDEST DUP2 DUP2 MUL SWAP3 SWAP2 DUP2 ISZERO SWAP2 DUP5 DIV EQ OR ISZERO PUSH2 0xB45 JUMPI JUMP JUMPDEST PUSH4 0x4E487B71 PUSH1 0xE0 SHL PUSH1 0x0 MSTORE PUSH1 0x11 PUSH1 0x4 MSTORE PUSH1 0x24 PUSH1 0x0 REVERT JUMPDEST PUSH1 0xFF AND PUSH1 0x4D DUP2 GT PUSH2 0xB45 JUMPI PUSH1 0xA EXP SWAP1 JUMP JUMPDEST DUP2 ISZERO PUSH2 0xB76 JUMPI DIV SWAP1 JUMP JUMPDEST PUSH4 0x4E487B71 PUSH1 0xE0 SHL PUSH1 0x0 MSTORE PUSH1 0x12 PUSH1 0x4 MSTORE PUSH1 0x24 PUSH1 0x0 REVERT JUMPDEST PUSH1 0x84 CALLDATALOAD PUSH1 0x1 PUSH1 0x1 PUSH1 0xA0 SHL SUB DUP2 AND DUP2 SUB PUSH2 0xB2D JUMPI SWAP1 JUMP JUMPDEST ISZERO PUSH2 0xBA9 JUMPI JUMP JUMPDEST PUSH1 0x40 MLOAD PUSH3 0x461BCD PUSH1 0xE5 SHL DUP2 MSTORE PUSH1 0x20 PUSH1 0x4 DUP3 ADD MSTORE PUSH1 0x15 PUSH1 0x24 DUP3 ADD MSTORE PUSH21 0x139BC8115512081CDA1BDD5B19081899481CD95B9D PUSH1 0x5A SHL PUSH1 0x44 DUP3 ADD MSTORE PUSH1 0x64 SWAP1 REVERT JUMPDEST ISZERO PUSH2 0xBED JUMPI JUMP JUMPDEST PUSH1 0x40 MLOAD PUSH3 0x461BCD PUSH1 0xE5 SHL DUP2 MSTORE PUSH1 0x20 PUSH1 0x4 DUP3 ADD MSTORE PUSH1 0x13 PUSH1 0x24 DUP3 ADD MSTORE PUSH19 0x8AA89040C2DADEEADCE840DAD2E6DAC2E8C6D PUSH1 0x6B SHL PUSH1 0x44 DUP3 ADD MSTORE PUSH1 0x64 SWAP1 REVERT JUMPDEST PUSH1 0x40 MLOAD PUSH4 0x23B872DD PUSH1 0xE0 SHL PUSH1 0x20 DUP3 ADD MSTORE PUSH1 0x1 PUSH1 0x1 PUSH1 0xA0 SHL SUB SWAP3 DUP4 AND PUSH1 0x24 DUP3 ADD MSTORE SWAP3 SWAP1 SWAP2 AND PUSH1 0x44 DUP4 ADD MSTORE PUSH1 0x64 DUP1 DUP4 ADD SWAP4 SWAP1 SWAP4 MSTORE SWAP2 DUP2 MSTORE PUSH1 0xA0 DUP2 ADD SWAP2 DUP2 DUP4 LT PUSH8 0xFFFFFFFFFFFFFFFF DUP5 GT OR PUSH2 0xAB0 JUMPI PUSH2 0xC81 SWAP3 PUSH1 0x40 MSTORE PUSH2 0xC83 JUMP JUMPDEST JUMP JUMPDEST SWAP1 PUSH1 0x0 PUSH1 0x20 SWAP2 DUP3 DUP2 MLOAD SWAP2 ADD DUP3 DUP6 GAS CALL ISZERO PUSH2 0xCDF JUMPI PUSH1 0x0 MLOAD RETURNDATASIZE PUSH2 0xCD6 JUMPI POP PUSH1 0x1 PUSH1 0x1 PUSH1 0xA0 SHL SUB DUP2 AND EXTCODESIZE ISZERO JUMPDEST PUSH2 0xCB4 JUMPI POP JUMP JUMPDEST PUSH1 0x40 MLOAD PUSH4 0x5274AFE7 PUSH1 0xE0 SHL DUP2 MSTORE PUSH1 0x1 PUSH1 0x1 PUSH1 0xA0 SHL SUB SWAP1 SWAP2 AND PUSH1 0x4 DUP3 ADD MSTORE PUSH1 0x24 SWAP1 REVERT JUMPDEST PUSH1 0x1 EQ ISZERO PUSH2 0xCAD JUMP JUMPDEST PUSH1 0x40 MLOAD RETURNDATASIZE PUSH1 0x0 DUP3 RETURNDATACOPY RETURNDATASIZE SWAP1 REVERT JUMPDEST SWAP2 SWAP1 SWAP2 PUSH1 0x5 DUP2 LT ISZERO PUSH2 0xA07 JUMPI DUP1 PUSH2 0xD9C JUMPI POP PUSH1 0x0 DUP1 DUP1 DUP1 SWAP5 DUP2 SWAP5 GAS CALL SWAP1 RETURNDATASIZE ISZERO PUSH2 0xD96 JUMPI RETURNDATASIZE SWAP1 PUSH8 0xFFFFFFFFFFFFFFFF DUP3 GT PUSH2 0xD82 JUMPI PUSH1 0x40 MLOAD SWAP2 PUSH2 0xD37 PUSH1 0x1F DUP3 ADD PUSH1 0x1F NOT AND PUSH1 0x20 ADD DUP5 PUSH2 0xA8E JUMP JUMPDEST DUP3 MSTORE PUSH1 0x20 RETURNDATASIZE SWAP3 ADD RETURNDATACOPY JUMPDEST ISZERO PUSH2 0xD47 JUMPI JUMP JUMPDEST PUSH1 0x40 MLOAD PUSH3 0x461BCD PUSH1 0xE5 SHL DUP2 MSTORE PUSH1 0x20 PUSH1 0x4 DUP3 ADD MSTORE PUSH1 0x13 PUSH1 0x24 DUP3 ADD MSTORE PUSH19 0x115512081D1C985B9CD9995C8819985A5B1959 PUSH1 0x6A SHL PUSH1 0x44 DUP3 ADD MSTORE PUSH1 0x64 SWAP1 REVERT JUMPDEST PUSH4 0x4E487B71 PUSH1 0xE0 SHL DUP2 MSTORE PUSH1 0x41 PUSH1 0x4 MSTORE PUSH1 0x24 SWAP1 REVERT JUMPDEST POP PUSH2 0xD40 JUMP JUMPDEST PUSH1 0x2 SLOAD PUSH1 0x40 MLOAD PUSH4 0xD42C4C53 PUSH1 0xE0 SHL DUP2 MSTORE SWAP4 PUSH1 0x1 PUSH1 0x1 PUSH1 0xA0 SHL SUB SWAP3 SWAP1 SWAP2 PUSH1 0xC0 SWAP2 DUP7 SWAP2 PUSH1 0x24 SWAP2 DUP4 SWAP2 DUP8 AND SWAP1 PUSH2 0xDD3 SWAP1 PUSH1 0x4 DUP5 ADD SWAP1 PUSH2 0xAC6 JUMP JUMPDEST GAS STATICCALL SWAP4 DUP5 ISZERO PUSH2 0xCDF JUMPI PUSH1 0x0 SWAP5 PUSH2 0xE2B JUMPI JUMPDEST POP DUP2 PUSH1 0x40 MLOAD SWAP4 PUSH4 0xA9059CBB PUSH1 0xE0 SHL PUSH1 0x20 DUP7 ADD MSTORE AND PUSH1 0x24 DUP5 ADD MSTORE PUSH1 0x44 DUP4 ADD MSTORE PUSH1 0x44 DUP3 MSTORE PUSH1 0x80 DUP3 ADD SWAP3 DUP3 DUP5 LT PUSH8 0xFFFFFFFFFFFFFFFF DUP6 GT OR PUSH2 0xAB0 JUMPI PUSH2 0xC81 SWAP4 PUSH1 0x40 MSTORE AND PUSH2 0xC83 JUMP JUMPDEST PUSH2 0xE44 SWAP2 SWAP5 POP PUSH1 0xC0 RETURNDATASIZE DUP2 GT PUSH2 0x348 JUMPI PUSH2 0x335 DUP2 DUP4 PUSH2 0xA8E JUMP JUMPDEST POP POP POP POP POP SWAP3 CODESIZE PUSH2 0xDE4 JUMP JUMPDEST PUSH1 0x5 DUP2 LT ISZERO PUSH2 0xA07 JUMPI DUP1 PUSH2 0xE63 JUMPI POP SELFBALANCE SWAP1 JUMP JUMPDEST PUSH1 0x2 SLOAD PUSH1 0x40 MLOAD PUSH4 0xD42C4C53 PUSH1 0xE0 SHL DUP2 MSTORE PUSH1 0x1 PUSH1 0x1 PUSH1 0xA0 SHL SUB SWAP3 SWAP1 SWAP2 PUSH1 0xC0 SWAP2 DUP4 SWAP2 PUSH1 0x24 SWAP2 DUP4 SWAP2 DUP8 AND SWAP1 PUSH2 0xE99 SWAP1 PUSH1 0x4 DUP5 ADD SWAP1 PUSH2 0xAC6 JUMP JUMPDEST GAS STATICCALL DUP1 ISZERO PUSH2 0xCDF JUMPI PUSH1 0x20 SWAP2 PUSH1 0x0 SWAP2 PUSH2 0xF09 JUMPI JUMPDEST POP PUSH1 0x24 PUSH1 0x40 MLOAD DUP1 SWAP5 DUP2 SWAP4 PUSH4 0x70A08231 PUSH1 0xE0 SHL DUP4 MSTORE ADDRESS PUSH1 0x4 DUP5 ADD MSTORE AND GAS STATICCALL SWAP1 DUP2 ISZERO PUSH2 0xCDF JUMPI PUSH1 0x0 SWAP2 PUSH2 0xEDB JUMPI POP SWAP1 JUMP JUMPDEST SWAP1 PUSH1 0x20 DUP3 RETURNDATASIZE DUP3 GT PUSH2 0xF01 JUMPI JUMPDEST DUP2 PUSH2 0xEF4 PUSH1 0x20 SWAP4 DUP4 PUSH2 0xA8E JUMP JUMPDEST DUP2 ADD SUB SLT PUSH2 0xE9 JUMPI POP MLOAD SWAP1 JUMP JUMPDEST RETURNDATASIZE SWAP2 POP PUSH2 0xEE7 JUMP JUMPDEST PUSH2 0xF21 SWAP2 POP PUSH1 0xC0 RETURNDATASIZE DUP2 GT PUSH2 0x348 JUMPI PUSH2 0x335 DUP2 DUP4 PUSH2 0xA8E JUMP JUMPDEST POP POP POP POP POP CODESIZE PUSH2 0xEAC JUMP INVALID LOG2 PUSH5 0x6970667358 0x22 SLT KECCAK256 SWAP11 0xDF SDIV PUSH16 0xAAD735B56682C1EF8A4D33F0EC2430F 0xC7 0x2F 0xB5 0xC6 0xB7 DUP16 SWAP11 0xCE PUSH31 0x2D36D664736F6C634300081400330000000000000000000000000000000000 "},"methodIdentifiers":{"MAX_FEE_RATE()":"92f6576e","addLiquidity(uint8,uint256)":"8cd81c00","collectedFees(uint8)":"f9b43172","getSwapQuote(uint8,uint8,uint256)":"a827396c","getTokenBalance(uint8)":"91ceb3eb","loanChain()":"d34ecb03","owner()":"8da5cb5b","renounceOwnership()":"715018a6","setSwapFeeRate(uint256)":"d1154ff0","swap((uint8,uint8,uint256,uint256,address))":"e9fc4359","swapFeeRate()":"3a04801d","transferOwnership(address)":"f2fde38b","withdrawFees(uint8)":"b66f7bdd"}}}}}