{"contracts/MockV3Aggregator.sol":{"MockV3Aggregator":{"abi":[{"inputs":[{"internalType":"uint8","name":"_decimals","type":"uint8"},{"internalType":"int256","name":"_initialAnswer","type":"int256"}],"stateMutability":"nonpayable","type":"constructor"},{"anonymous":false,"inputs":[{"indexed":true,"internalType":"int256","name":"current","type":"int256"},{"indexed":true,"internalType":"uint256","name":"roundId","type":"uint256"},{"indexed":false,"internalType":"uint256","name":"timestamp","type":"uint256"}],"name":"AnswerUpdated","type":"event"},{"inputs":[],"name":"VERSION","outputs":[{"internalType":"uint256","name":"","type":"uint256"}],"stateMutability":"view","type":"function"},{"inputs":[],"name":"decimals","outputs":[{"internalType":"uint8","name":"","type":"uint8"}],"stateMutability":"view","type":"function"},{"inputs":[],"name":"description","outputs":[{"internalType":"string","name":"","type":"string"}],"stateMutability":"view","type":"function"},{"inputs":[{"internalType":"uint80","name":"_roundId","type":"uint80"}],"name":"getRoundData","outputs":[{"internalType":"uint80","name":"roundId","type":"uint80"},{"internalType":"int256","name":"answer","type":"int256"},{"internalType":"uint256","name":"startedAt","type":"uint256"},{"internalType":"uint256","name":"updatedAt","type":"uint256"},{"internalType":"uint80","name":"answeredInRound","type":"uint80"}],"stateMutability":"view","type":"function"},{"inputs":[],"name":"latestRoundData","outputs":[{"internalType":"uint80","name":"roundId","type":"uint80"},{"internalType":"int256","name":"answer","type":"int256"},{"internalType":"uint256","name":"startedAt","type":"uint256"},{"internalType":"uint256","name":"updatedAt","type":"uint256"},{"internalType":"uint80","name":"answeredInRound","type":"uint80"}],"stateMutability":"view","type":"function"},{"inputs":[{"internalType":"int256","name":"_answer","type":"int256"}],"name":"updateAnswer","outputs":[],"stateMutability":"nonpayable","type":"function"},{"inputs":[{"internalType":"uint80","name":"_roundId","type":"uint80"},{"internalType":"int256","name":"_answer","type":"int256"},{"internalType":"uint256","name":"_timestamp","type":"uint256"},{"internalType":"uint256","name":"_startedAt","type":"uint256"}],"name":"updateRoundData","outputs":[],"stateMutability":"nonpayable","type":"function"}],"evm":{"bytecode":{"linkReferences":{},"object":"60803461011d57601f61055838819003918201601f19168301916001600160401b0383118484101761012257808492604094855283398101031261011d5780519060ff821680920361011d576020015190600180548181811c91168015610113575b60208210146100fd57601f81116100ce575b507f4d6f636b204554482f555344205072696365204665656400000000000000002e8155600280546001600160501b03191690911790556000805460ff19169190911790556003554260045560405161041f90816101398239f35b8160005281601f6020600020920160051c8201915b8281106100f1575050610073565b600081550182906100e3565b634e487b7160e01b600052602260045260246000fd5b90607f1690610061565b600080fd5b634e487b7160e01b600052604160045260246000fdfe608060408181526004918236101561001657600080fd5b600092833560e01c918263313ce567146103b1575081634aa2011f1461036e5781637284e416146102105781639a6fc8f514610170578163a87a20ce146100e0578163feaf968c14610090575063ffa1ad741461007257600080fd5b3461008c578160031936011261008c576020905160018152f35b5080fd5b905082346100dd57806003193601126100dd5750600254600354915492516001600160501b039091168082526020820192909252604081018390526060810192909252608082015260a090f35b80fd5b9190503461016c57602036600319011261016c5781359081600355428355600254926001600160501b03908185169082821461015957509160209160017f0559884fd3a460db3073b7fc896cc77986f16e378210ded43186175bf646fc5f94011680956001600160501b0319161760025551428152a380f35b634e487b7160e01b875260119052602486fd5b8280fd5b905082346100dd5760203660031901126100dd575061018d6103ce565b6001600160501b038060025416908216116101d957600354915492516001600160501b03919091168082526020820192909252604081018390526060810192909252608082015260a090f35b506020606492519162461bcd60e51b835282015260116024820152700a4deeadcc840928840e8dede40d0d2ced607b1b6044820152fd5b9190503461016c578260031936011261016c5780518360019485549081871c878316978815610364575b6020938483108a1461035157848798999a84895291826000146103355750506001146102e2575b5050601f801995869203011683019583871067ffffffffffffffff8811176102cf575085929391838652818452845191828186015281955b8387106102b75750508394508582601f949501015201168101030190f35b86810182015189880189015295810195889550610299565b634e487b7160e01b835260419052602482fd5b8085528492507fb10e2d527612073b26eecdfd717e6a320cf44b4afac2b0732d9fcbe2b7fa0cf65b82841061031f57505050830181013880610261565b805488850186015287965092840192810161030a565b925093505060ff191682860152151560051b8401013880610261565b634e487b7160e01b865260228952602486fd5b90607f169061023a565b83903461008c57608036600319011261008c576001600160501b036103916103ce565b166001600160501b03196002541617600255602435600355604435905580f35b84903461008c578160031936011261008c5760ff60209254168152f35b600435906001600160501b03821682036103e457565b600080fdfea2646970667358221220a236b52e1b14c5fd97f63cd4c7c40a6c2b5ff5fed2bd93874087f1dfab09b07c64736f6c63430008140033","opcodes":"PUSH1 0x80 CALLVALUE PUSH2 0x11D JUMPI PUSH1 0x1F PUSH2 0x558 CODESIZE DUP2 SWAP1 SUB SWAP2 DUP3 ADD PUSH1 0x1F NOT AND DUP4 ADD SWAP2 PUSH1 0x1 PUSH1 0x1 PUSH1 0x40 SHL SUB DUP4 GT DUP5 DUP5 LT OR PUSH2 0x122 JUMPI DUP1 DUP5 SWAP3 PUSH1 0x40 SWAP5 DUP6 MSTORE DUP4 CODECOPY DUP2 ADD SUB SLT PUSH2 0x11D JUMPI DUP1 MLOAD SWAP1 PUSH1 0xFF DUP3 AND DUP1 SWAP3 SUB PUSH2 0x11D JUMPI PUSH1 0x20 ADD MLOAD SWAP1 PUSH1 0x1 DUP1 SLOAD DUP2 DUP2 DUP2 SHR SWAP2 AND DUP1 ISZERO PUSH2 0x113 JUMPI JUMPDEST PUSH1 0x20 DUP3 LT EQ PUSH2 0xFD JUMPI PUSH1 0x1F DUP2 GT PUSH2 0xCE JUMPI JUMPDEST POP PUSH32 0x4D6F636B204554482F555344205072696365204665656400000000000000002E DUP2 SSTORE PUSH1 0x2 DUP1 SLOAD PUSH1 0x1 PUSH1 0x1 PUSH1 0x50 SHL SUB NOT AND SWAP1 SWAP2 OR SWAP1 SSTORE PUSH1 0x0 DUP1 SLOAD PUSH1 0xFF NOT AND SWAP2 SWAP1 SWAP2 OR SWAP1 SSTORE PUSH1 0x3 SSTORE TIMESTAMP PUSH1 0x4 SSTORE PUSH1 0x40 MLOAD PUSH2 0x41F SWAP1 DUP2 PUSH2 0x139 DUP3 CODECOPY RETURN JUMPDEST DUP2 PUSH1 0x0 MSTORE DUP2 PUSH1 0x1F PUSH1 0x20 PUSH1 0x0 KECCAK256 SWAP3 ADD PUSH1 0x5 SHR DUP3 ADD SWAP2 JUMPDEST DUP3 DUP2 LT PUSH2 0xF1 JUMPI POP POP PUSH2 0x73 JUMP JUMPDEST PUSH1 0x0 DUP2 SSTORE ADD DUP3 SWAP1 PUSH2 0xE3 JUMP JUMPDEST PUSH4 0x4E487B71 PUSH1 0xE0 SHL PUSH1 0x0 MSTORE PUSH1 0x22 PUSH1 0x4 MSTORE PUSH1 0x24 PUSH1 0x0 REVERT JUMPDEST SWAP1 PUSH1 0x7F AND SWAP1 PUSH2 0x61 JUMP JUMPDEST PUSH1 0x0 DUP1 REVERT JUMPDEST PUSH4 0x4E487B71 PUSH1 0xE0 SHL PUSH1 0x0 MSTORE PUSH1 0x41 PUSH1 0x4 MSTORE PUSH1 0x24 PUSH1 0x0 REVERT INVALID PUSH1 0x80 PUSH1 0x40 DUP2 DUP2 MSTORE PUSH1 0x4 SWAP2 DUP3 CALLDATASIZE LT ISZERO PUSH2 0x16 JUMPI PUSH1 0x0 DUP1 REVERT JUMPDEST PUSH1 0x0 SWAP3 DUP4 CALLDATALOAD PUSH1 0xE0 SHR SWAP2 DUP3 PUSH4 0x313CE567 EQ PUSH2 0x3B1 JUMPI POP DUP2 PUSH4 0x4AA2011F EQ PUSH2 0x36E JUMPI DUP2 PUSH4 0x7284E416 EQ PUSH2 0x210 JUMPI DUP2 PUSH4 0x9A6FC8F5 EQ PUSH2 0x170 JUMPI DUP2 PUSH4 0xA87A20CE EQ PUSH2 0xE0 JUMPI DUP2 PUSH4 0xFEAF968C EQ PUSH2 0x90 JUMPI POP PUSH4 0xFFA1AD74 EQ PUSH2 0x72 JUMPI PUSH1 0x0 DUP1 REVERT JUMPDEST CALLVALUE PUSH2 0x8C JUMPI DUP2 PUSH1 0x3 NOT CALLDATASIZE ADD SLT PUSH2 0x8C JUMPI PUSH1 0x20 SWAP1 MLOAD PUSH1 0x1 DUP2 MSTORE RETURN JUMPDEST POP DUP1 REVERT JUMPDEST SWAP1 POP DUP3 CALLVALUE PUSH2 0xDD JUMPI DUP1 PUSH1 0x3 NOT CALLDATASIZE ADD SLT PUSH2 0xDD JUMPI POP PUSH1 0x2 SLOAD PUSH1 0x3 SLOAD SWAP2 SLOAD SWAP3 MLOAD PUSH1 0x1 PUSH1 0x1 PUSH1 0x50 SHL SUB SWAP1 SWAP2 AND DUP1 DUP3 MSTORE PUSH1 0x20 DUP3 ADD SWAP3 SWAP1 SWAP3 MSTORE PUSH1 0x40 DUP2 ADD DUP4 SWAP1 MSTORE PUSH1 0x60 DUP2 ADD SWAP3 SWAP1 SWAP3 MSTORE PUSH1 0x80 DUP3 ADD MSTORE PUSH1 0xA0 SWAP1 RETURN JUMPDEST DUP1 REVERT JUMPDEST SWAP2 SWAP1 POP CALLVALUE PUSH2 0x16C JUMPI PUSH1 0x20 CALLDATASIZE PUSH1 0x3 NOT ADD SLT PUSH2 0x16C JUMPI DUP2 CALLDATALOAD SWAP1 DUP2 PUSH1 0x3 SSTORE TIMESTAMP DUP4 SSTORE PUSH1 0x2 SLOAD SWAP3 PUSH1 0x1 PUSH1 0x1 PUSH1 0x50 SHL SUB SWAP1 DUP2 DUP6 AND SWAP1 DUP3 DUP3 EQ PUSH2 0x159 JUMPI POP SWAP2 PUSH1 0x20 SWAP2 PUSH1 0x1 PUSH32 0x559884FD3A460DB3073B7FC896CC77986F16E378210DED43186175BF646FC5F SWAP5 ADD AND DUP1 SWAP6 PUSH1 0x1 PUSH1 0x1 PUSH1 0x50 SHL SUB NOT AND OR PUSH1 0x2 SSTORE MLOAD TIMESTAMP DUP2 MSTORE LOG3 DUP1 RETURN JUMPDEST PUSH4 0x4E487B71 PUSH1 0xE0 SHL DUP8 MSTORE PUSH1 0x11 SWAP1 MSTORE PUSH1 0x24 DUP7 REVERT JUMPDEST DUP3 DUP1 REVERT JUMPDEST SWAP1 POP DUP3 CALLVALUE PUSH2 0xDD JUMPI PUSH1 0x20 CALLDATASIZE PUSH1 0x3 NOT ADD SLT PUSH2 0xDD JUMPI POP PUSH2 0x18D PUSH2 0x3CE JUMP JUMPDEST PUSH1 0x1 PUSH1 0x1 PUSH1 0x50 SHL SUB DUP1 PUSH1 0x2 SLOAD AND SWAP1 DUP3 AND GT PUSH2 0x1D9 JUMPI PUSH1 0x3 SLOAD SWAP2 SLOAD SWAP3 MLOAD PUSH1 0x1 PUSH1 0x1 PUSH1 0x50 SHL SUB SWAP2 SWAP1 SWAP2 AND DUP1 DUP3 MSTORE PUSH1 0x20 DUP3 ADD SWAP3 SWAP1 SWAP3 MSTORE PUSH1 0x40 DUP2 ADD DUP4 SWAP1 MSTORE PUSH1 0x60 DUP2 ADD SWAP3 SWAP1 SWAP3 MSTORE PUSH1 0x80 DUP3 ADD MSTORE PUSH1 0xA0 SWAP1 RETURN JUMPDEST POP PUSH1 0x20 PUSH1 0x64 SWAP3 MLOAD SWAP2 PUSH3 0x461BCD PUSH1 0xE5 SHL DUP4 MSTORE DUP3 ADD MSTORE PUSH1 0x11 PUSH1 0x24 DUP3 ADD MSTORE PUSH17 0xA4DEEADCC840928840E8DEDE40D0D2CED PUSH1 0x7B SHL PUSH1 0x44 DUP3 ADD MSTORE REVERT JUMPDEST SWAP2 SWAP1 POP CALLVALUE PUSH2 0x16C JUMPI DUP3 PUSH1 0x3 NOT CALLDATASIZE ADD SLT PUSH2 0x16C JUMPI DUP1 MLOAD DUP4 PUSH1 0x1 SWAP5 DUP6 SLOAD SWAP1 DUP2 DUP8 SHR DUP8 DUP4 AND SWAP8 DUP9 ISZERO PUSH2 0x364 JUMPI JUMPDEST PUSH1 0x20 SWAP4 DUP5 DUP4 LT DUP11 EQ PUSH2 0x351 JUMPI DUP5 DUP8 SWAP9 SWAP10 SWAP11 DUP5 DUP10 MSTORE SWAP2 DUP3 PUSH1 0x0 EQ PUSH2 0x335 JUMPI POP POP PUSH1 0x1 EQ PUSH2 0x2E2 JUMPI JUMPDEST POP POP PUSH1 0x1F DUP1 NOT SWAP6 DUP7 SWAP3 SUB ADD AND DUP4 ADD SWAP6 DUP4 DUP8 LT PUSH8 0xFFFFFFFFFFFFFFFF DUP9 GT OR PUSH2 0x2CF JUMPI POP DUP6 SWAP3 SWAP4 SWAP2 DUP4 DUP7 MSTORE DUP2 DUP5 MSTORE DUP5 MLOAD SWAP2 DUP3 DUP2 DUP7 ADD MSTORE DUP2 SWAP6 JUMPDEST DUP4 DUP8 LT PUSH2 0x2B7 JUMPI POP POP DUP4 SWAP5 POP DUP6 DUP3 PUSH1 0x1F SWAP5 SWAP6 ADD ADD MSTORE ADD AND DUP2 ADD SUB ADD SWAP1 RETURN JUMPDEST DUP7 DUP2 ADD DUP3 ADD MLOAD DUP10 DUP9 ADD DUP10 ADD MSTORE SWAP6 DUP2 ADD SWAP6 DUP9 SWAP6 POP PUSH2 0x299 JUMP JUMPDEST PUSH4 0x4E487B71 PUSH1 0xE0 SHL DUP4 MSTORE PUSH1 0x41 SWAP1 MSTORE PUSH1 0x24 DUP3 REVERT JUMPDEST DUP1 DUP6 MSTORE DUP5 SWAP3 POP PUSH32 0xB10E2D527612073B26EECDFD717E6A320CF44B4AFAC2B0732D9FCBE2B7FA0CF6 JUMPDEST DUP3 DUP5 LT PUSH2 0x31F JUMPI POP POP POP DUP4 ADD DUP2 ADD CODESIZE DUP1 PUSH2 0x261 JUMP JUMPDEST DUP1 SLOAD DUP9 DUP6 ADD DUP7 ADD MSTORE DUP8 SWAP7 POP SWAP3 DUP5 ADD SWAP3 DUP2 ADD PUSH2 0x30A JUMP JUMPDEST SWAP3 POP SWAP4 POP POP PUSH1 0xFF NOT AND DUP3 DUP7 ADD MSTORE ISZERO ISZERO PUSH1 0x5 SHL DUP5 ADD ADD CODESIZE DUP1 PUSH2 0x261 JUMP JUMPDEST PUSH4 0x4E487B71 PUSH1 0xE0 SHL DUP7 MSTORE PUSH1 0x22 DUP10 MSTORE PUSH1 0x24 DUP7 REVERT JUMPDEST SWAP1 PUSH1 0x7F AND SWAP1 PUSH2 0x23A JUMP JUMPDEST DUP4 SWAP1 CALLVALUE PUSH2 0x8C JUMPI PUSH1 0x80 CALLDATASIZE PUSH1 0x3 NOT ADD SLT PUSH2 0x8C JUMPI PUSH1 0x1 PUSH1 0x1 PUSH1 0x50 SHL SUB PUSH2 0x391 PUSH2 0x3CE JUMP JUMPDEST AND PUSH1 0x1 PUSH1 0x1 PUSH1 0x50 SHL SUB NOT PUSH1 0x2 SLOAD AND OR PUSH1 0x2 SSTORE PUSH1 0x24 CALLDATALOAD PUSH1 0x3 SSTORE PUSH1 0x44 CALLDATALOAD SWAP1 SSTORE DUP1 RETURN JUMPDEST DUP5 SWAP1 CALLVALUE PUSH2 0x8C JUMPI DUP2 PUSH1 0x3 NOT CALLDATASIZE ADD SLT PUSH2 0x8C JUMPI PUSH1 0xFF PUSH1 0x20 SWAP3 SLOAD AND DUP2 MSTORE RETURN JUMPDEST PUSH1 0x4 CALLDATALOAD SWAP1 PUSH1 0x1 PUSH1 0x1 PUSH1 0x50 SHL SUB DUP3 AND DUP3 SUB PUSH2 0x3E4 JUMPI JUMP JUMPDEST PUSH1 0x0 DUP1 REVERT INVALID LOG2 PUSH5 0x6970667358 0x22 SLT KECCAK256 LOG2 CALLDATASIZE 0xB5 0x2E SHL EQ 0xC5 REVERT SWAP8 0xF6 EXTCODECOPY 0xD4 0xC7 0xC4 EXP PUSH13 0x2B5FF5FED2BD93874087F1DFAB MULMOD 0xB0 PUSH29 0x64736F6C63430008140033000000000000000000000000000000000000 "},"methodIdentifiers":{"VERSION()":"ffa1ad74","decimals()":"313ce567","description()":"7284e416","getRoundData(uint80)":"9a6fc8f5","latestRoundData()":"feaf968c","updateAnswer(int256)":"a87a20ce","updateRoundData(uint80,int256,uint256,uint256)":"4aa2011f"}}}}}