{"contracts/LoanVerseV3.sol":{"LoanVerseV3":{"abi":[{"inputs":[],"stateMutability":"nonpayable","type":"constructor"},{"inputs":[],"name":"EnforcedPause","type":"error"},{"inputs":[],"name":"ExpectedPause","type":"error"},{"inputs":[{"internalType":"address","name":"owner","type":"address"}],"name":"OwnableInvalidOwner","type":"error"},{"inputs":[{"internalType":"address","name":"account","type":"address"}],"name":"OwnableUnauthorizedAccount","type":"error"},{"inputs":[],"name":"ReentrancyGuardReentrantCall","type":"error"},{"inputs":[{"internalType":"address","name":"token","type":"address"}],"name":"SafeERC20FailedOperation","type":"error"},{"anonymous":false,"inputs":[{"indexed":true,"internalType":"uint256","name":"auctionId","type":"uint256"},{"indexed":true,"internalType":"address","name":"winner","type":"address"},{"indexed":false,"internalType":"uint256","name":"finalPrice","type":"uint256"}],"name":"AuctionFinalized","type":"event"},{"anonymous":false,"inputs":[{"indexed":true,"internalType":"uint256","name":"auctionId","type":"uint256"},{"indexed":true,"internalType":"uint256","name":"loanId","type":"uint256"},{"indexed":false,"internalType":"uint256","name":"startingPrice","type":"uint256"},{"indexed":false,"internalType":"uint256","name":"endTime","type":"uint256"}],"name":"AuctionStarted","type":"event"},{"anonymous":false,"inputs":[{"indexed":true,"internalType":"uint256","name":"auctionId","type":"uint256"},{"indexed":true,"internalType":"address","name":"bidder","type":"address"},{"indexed":false,"internalType":"uint256","name":"amount","type":"uint256"}],"name":"BidPlaced","type":"event"},{"anonymous":false,"inputs":[{"indexed":true,"internalType":"uint256","name":"loanId","type":"uint256"},{"indexed":false,"internalType":"uint256","name":"amount","type":"uint256"}],"name":"CollateralClaimed","type":"event"},{"anonymous":false,"inputs":[{"indexed":true,"internalType":"address","name":"borrower","type":"address"},{"indexed":false,"internalType":"uint256","name":"newScore","type":"uint256"}],"name":"CreditScoreUpdated","type":"event"},{"anonymous":false,"inputs":[{"indexed":true,"internalType":"uint256","name":"tokenId","type":"uint256"},{"indexed":false,"internalType":"uint256","name":"newRate","type":"uint256"}],"name":"InterestRateUpdated","type":"event"},{"anonymous":false,"inputs":[{"indexed":true,"internalType":"uint256","name":"loanId","type":"uint256"},{"indexed":false,"internalType":"uint256","name":"currentRatio","type":"uint256"},{"indexed":false,"internalType":"uint256","name":"threshold","type":"uint256"}],"name":"LiquidationTriggered","type":"event"},{"anonymous":false,"inputs":[{"indexed":true,"internalType":"uint256","name":"loanId","type":"uint256"}],"name":"LoanCancelled","type":"event"},{"anonymous":false,"inputs":[{"indexed":true,"internalType":"uint256","name":"loanId","type":"uint256"}],"name":"LoanDefaulted","type":"event"},{"anonymous":false,"inputs":[{"indexed":true,"internalType":"uint256","name":"loanId","type":"uint256"},{"indexed":true,"internalType":"address","name":"lender","type":"address"}],"name":"LoanFunded","type":"event"},{"anonymous":false,"inputs":[{"indexed":true,"internalType":"uint256","name":"loanId","type":"uint256"},{"indexed":false,"internalType":"uint256","name":"repaidAmount","type":"uint256"}],"name":"LoanRepaid","type":"event"},{"anonymous":false,"inputs":[{"indexed":true,"internalType":"uint256","name":"loanId","type":"uint256"},{"indexed":true,"internalType":"address","name":"borrower","type":"address"},{"indexed":true,"internalType":"uint256","name":"tokenId","type":"uint256"},{"indexed":false,"internalType":"uint256","name":"amount","type":"uint256"},{"indexed":false,"internalType":"uint256","name":"collateralAmount","type":"uint256"},{"indexed":false,"internalType":"uint256","name":"interestRate","type":"uint256"},{"indexed":false,"internalType":"uint256","name":"duration","type":"uint256"},{"indexed":false,"internalType":"string","name":"ipfsHash","type":"string"}],"name":"LoanRequested","type":"event"},{"anonymous":false,"inputs":[{"indexed":true,"internalType":"address","name":"previousOwner","type":"address"},{"indexed":true,"internalType":"address","name":"newOwner","type":"address"}],"name":"OwnershipTransferred","type":"event"},{"anonymous":false,"inputs":[{"indexed":false,"internalType":"address","name":"account","type":"address"}],"name":"Paused","type":"event"},{"anonymous":false,"inputs":[{"indexed":true,"internalType":"uint256","name":"loanId","type":"uint256"},{"indexed":false,"internalType":"uint256","name":"riskScore","type":"uint256"}],"name":"RiskScoreUpdated","type":"event"},{"anonymous":false,"inputs":[{"indexed":true,"internalType":"uint256","name":"tokenId","type":"uint256"},{"indexed":true,"internalType":"address","name":"contractAddress","type":"address"},{"indexed":false,"internalType":"string","name":"symbol","type":"string"},{"indexed":false,"internalType":"address","name":"priceFeed","type":"address"}],"name":"TokenAdded","type":"event"},{"anonymous":false,"inputs":[{"indexed":true,"internalType":"uint256","name":"tokenId","type":"uint256"}],"name":"TokenDeactivated","type":"event"},{"anonymous":false,"inputs":[{"indexed":false,"internalType":"address","name":"account","type":"address"}],"name":"Unpaused","type":"event"},{"inputs":[],"name":"AUCTION_DURATION","outputs":[{"internalType":"uint256","name":"","type":"uint256"}],"stateMutability":"view","type":"function"},{"inputs":[],"name":"LIQUIDATION_THRESHOLD","outputs":[{"internalType":"uint256","name":"","type":"uint256"}],"stateMutability":"view","type":"function"},{"inputs":[],"name":"MAX_INTEREST_RATE","outputs":[{"internalType":"uint256","name":"","type":"uint256"}],"stateMutability":"view","type":"function"},{"inputs":[],"name":"MAX_LOAN_DURATION","outputs":[{"internalType":"uint256","name":"","type":"uint256"}],"stateMutability":"view","type":"function"},{"inputs":[],"name":"MIN_COLLATERAL_RATIO","outputs":[{"internalType":"uint256","name":"","type":"uint256"}],"stateMutability":"view","type":"function"},{"inputs":[],"name":"MIN_CREDIT_SCORE","outputs":[{"internalType":"uint256","name":"","type":"uint256"}],"stateMutability":"view","type":"function"},{"inputs":[],"name":"MIN_LOAN_DURATION","outputs":[{"internalType":"uint256","name":"","type":"uint256"}],"stateMutability":"view","type":"function"},{"inputs":[],"name":"PRICE_STALENESS_THRESHOLD","outputs":[{"internalType":"uint256","name":"","type":"uint256"}],"stateMutability":"view","type":"function"},{"inputs":[{"internalType":"address","name":"_contractAddress","type":"address"},{"internalType":"string","name":"_symbol","type":"string"},{"internalType":"uint8","name":"_decimals","type":"uint8"},{"internalType":"address","name":"_priceFeedAddress","type":"address"}],"name":"addSupportedToken","outputs":[],"stateMutability":"nonpayable","type":"function"},{"inputs":[{"internalType":"address","name":"","type":"address"}],"name":"authorizedRiskOracles","outputs":[{"internalType":"bool","name":"","type":"bool"}],"stateMutability":"view","type":"function"},{"inputs":[],"name":"baseInterestRate","outputs":[{"internalType":"uint256","name":"","type":"uint256"}],"stateMutability":"view","type":"function"},{"inputs":[{"internalType":"address","name":"","type":"address"},{"internalType":"uint256","name":"","type":"uint256"}],"name":"borrowerLoans","outputs":[{"internalType":"uint256","name":"","type":"uint256"}],"stateMutability":"view","type":"function"},{"inputs":[{"internalType":"uint256","name":"_tokenId","type":"uint256"}],"name":"calculateDynamicRate","outputs":[{"internalType":"uint256","name":"","type":"uint256"}],"stateMutability":"view","type":"function"},{"inputs":[{"internalType":"uint256","name":"_tokenId","type":"uint256"},{"internalType":"uint256","name":"_amount","type":"uint256"}],"name":"calculateUSDValue","outputs":[{"internalType":"uint256","name":"","type":"uint256"}],"stateMutability":"view","type":"function"},{"inputs":[],"name":"collectedFees","outputs":[{"internalType":"uint256","name":"","type":"uint256"}],"stateMutability":"view","type":"function"},{"inputs":[{"internalType":"address","name":"","type":"address"}],"name":"creditScores","outputs":[{"internalType":"uint256","name":"score","type":"uint256"},{"internalType":"uint256","name":"totalLoansCount","type":"uint256"},{"internalType":"uint256","name":"repaidLoansCount","type":"uint256"},{"internalType":"uint256","name":"defaultedLoansCount","type":"uint256"},{"internalType":"uint256","name":"totalBorrowed","type":"uint256"},{"internalType":"uint256","name":"totalRepaid","type":"uint256"},{"internalType":"uint256","name":"lastUpdated","type":"uint256"}],"stateMutability":"view","type":"function"},{"inputs":[],"name":"feeRecipient","outputs":[{"internalType":"address","name":"","type":"address"}],"stateMutability":"view","type":"function"},{"inputs":[{"internalType":"uint256","name":"_auctionId","type":"uint256"}],"name":"finalizeAuction","outputs":[],"stateMutability":"nonpayable","type":"function"},{"inputs":[{"internalType":"uint256","name":"_loanId","type":"uint256"}],"name":"fundLoan","outputs":[],"stateMutability":"payable","type":"function"},{"inputs":[],"name":"getActiveLoanRequests","outputs":[{"internalType":"uint256[]","name":"","type":"uint256[]"}],"stateMutability":"view","type":"function"},{"inputs":[{"internalType":"uint256","name":"_tokenId","type":"uint256"}],"name":"getLatestPrice","outputs":[{"internalType":"uint256","name":"","type":"uint256"},{"internalType":"uint256","name":"","type":"uint256"}],"stateMutability":"view","type":"function"},{"inputs":[],"name":"getLoansEligibleForLiquidation","outputs":[{"internalType":"uint256[]","name":"","type":"uint256[]"}],"stateMutability":"view","type":"function"},{"inputs":[{"internalType":"uint256","name":"_loanId","type":"uint256"}],"name":"isLoanUnderwater","outputs":[{"internalType":"bool","name":"","type":"bool"},{"internalType":"uint256","name":"","type":"uint256"}],"stateMutability":"view","type":"function"},{"inputs":[{"internalType":"address","name":"","type":"address"},{"internalType":"uint256","name":"","type":"uint256"}],"name":"lenderLoans","outputs":[{"internalType":"uint256","name":"","type":"uint256"}],"stateMutability":"view","type":"function"},{"inputs":[{"internalType":"uint256","name":"_loanId","type":"uint256"}],"name":"liquidateLoan","outputs":[],"stateMutability":"nonpayable","type":"function"},{"inputs":[{"internalType":"uint256","name":"","type":"uint256"}],"name":"liquidationAuctions","outputs":[{"internalType":"uint256","name":"loanId","type":"uint256"},{"internalType":"uint256","name":"startTime","type":"uint256"},{"internalType":"uint256","name":"endTime","type":"uint256"},{"internalType":"uint256","name":"startingPrice","type":"uint256"},{"internalType":"uint256","name":"reservePrice","type":"uint256"},{"internalType":"address","name":"highestBidder","type":"address"},{"internalType":"uint256","name":"highestBid","type":"uint256"},{"internalType":"bool","name":"active","type":"bool"}],"stateMutability":"view","type":"function"},{"inputs":[],"name":"liquidationFeeRate","outputs":[{"internalType":"uint256","name":"","type":"uint256"}],"stateMutability":"view","type":"function"},{"inputs":[{"internalType":"uint256","name":"","type":"uint256"}],"name":"loans","outputs":[{"internalType":"uint256","name":"id","type":"uint256"},{"internalType":"address","name":"borrower","type":"address"},{"internalType":"address","name":"lender","type":"address"},{"internalType":"uint256","name":"tokenId","type":"uint256"},{"internalType":"uint256","name":"collateralTokenId","type":"uint256"},{"internalType":"uint256","name":"amount","type":"uint256"},{"internalType":"uint256","name":"collateralAmount","type":"uint256"},{"internalType":"uint256","name":"interestRate","type":"uint256"},{"internalType":"uint256","name":"duration","type":"uint256"},{"internalType":"uint256","name":"createdAt","type":"uint256"},{"internalType":"uint256","name":"fundedAt","type":"uint256"},{"internalType":"uint256","name":"dueDate","type":"uint256"},{"internalType":"enum LoanVerseV3.LoanStatus","name":"status","type":"uint8"},{"internalType":"string","name":"ipfsDocumentHash","type":"string"},{"internalType":"uint256","name":"riskScore","type":"uint256"},{"internalType":"bool","name":"collateralClaimed","type":"bool"},{"internalType":"uint256","name":"liquidationThreshold","type":"uint256"},{"internalType":"uint256","name":"lastHealthCheck","type":"uint256"}],"stateMutability":"view","type":"function"},{"inputs":[],"name":"nextAuctionId","outputs":[{"internalType":"uint256","name":"","type":"uint256"}],"stateMutability":"view","type":"function"},{"inputs":[],"name":"nextLoanId","outputs":[{"internalType":"uint256","name":"","type":"uint256"}],"stateMutability":"view","type":"function"},{"inputs":[],"name":"nextTokenId","outputs":[{"internalType":"uint256","name":"","type":"uint256"}],"stateMutability":"view","type":"function"},{"inputs":[],"name":"owner","outputs":[{"internalType":"address","name":"","type":"address"}],"stateMutability":"view","type":"function"},{"inputs":[],"name":"pause","outputs":[],"stateMutability":"nonpayable","type":"function"},{"inputs":[],"name":"paused","outputs":[{"internalType":"bool","name":"","type":"bool"}],"stateMutability":"view","type":"function"},{"inputs":[{"internalType":"uint256","name":"_auctionId","type":"uint256"}],"name":"placeBid","outputs":[],"stateMutability":"payable","type":"function"},{"inputs":[],"name":"protocolFeeRate","outputs":[{"internalType":"uint256","name":"","type":"uint256"}],"stateMutability":"view","type":"function"},{"inputs":[],"name":"rateSlope1","outputs":[{"internalType":"uint256","name":"","type":"uint256"}],"stateMutability":"view","type":"function"},{"inputs":[],"name":"rateSlope2","outputs":[{"internalType":"uint256","name":"","type":"uint256"}],"stateMutability":"view","type":"function"},{"inputs":[],"name":"renounceOwnership","outputs":[],"stateMutability":"nonpayable","type":"function"},{"inputs":[{"internalType":"uint256","name":"_loanId","type":"uint256"}],"name":"repayLoan","outputs":[],"stateMutability":"payable","type":"function"},{"inputs":[{"internalType":"uint256","name":"_tokenId","type":"uint256"},{"internalType":"uint256","name":"_collateralTokenId","type":"uint256"},{"internalType":"uint256","name":"_amount","type":"uint256"},{"internalType":"uint256","name":"_maxInterestRate","type":"uint256"},{"internalType":"uint256","name":"_duration","type":"uint256"},{"internalType":"string","name":"_ipfsDocumentHash","type":"string"}],"name":"requestLoan","outputs":[],"stateMutability":"payable","type":"function"},{"inputs":[{"internalType":"uint256","name":"","type":"uint256"}],"name":"supportedTokens","outputs":[{"internalType":"enum LoanVerseV3.TokenType","name":"tokenType","type":"uint8"},{"internalType":"address","name":"contractAddress","type":"address"},{"internalType":"string","name":"symbol","type":"string"},{"internalType":"uint8","name":"decimals","type":"uint8"},{"internalType":"bool","name":"isActive","type":"bool"},{"internalType":"contract AggregatorV3Interface","name":"priceFeed","type":"address"}],"stateMutability":"view","type":"function"},{"inputs":[{"internalType":"uint256","name":"","type":"uint256"}],"name":"tokenUtilization","outputs":[{"internalType":"uint256","name":"","type":"uint256"}],"stateMutability":"view","type":"function"},{"inputs":[{"internalType":"address","name":"newOwner","type":"address"}],"name":"transferOwnership","outputs":[],"stateMutability":"nonpayable","type":"function"},{"inputs":[],"name":"unpause","outputs":[],"stateMutability":"nonpayable","type":"function"},{"inputs":[{"internalType":"uint256","name":"_baseRate","type":"uint256"},{"internalType":"uint256","name":"_utilizationOptimal","type":"uint256"},{"internalType":"uint256","name":"_rateSlope1","type":"uint256"},{"internalType":"uint256","name":"_rateSlope2","type":"uint256"}],"name":"updateDynamicRateParams","outputs":[],"stateMutability":"nonpayable","type":"function"},{"inputs":[{"internalType":"uint256","name":"_liquidationFeeRate","type":"uint256"},{"internalType":"uint256","name":"_auctionDuration","type":"uint256"}],"name":"updateLiquidationParams","outputs":[],"stateMutability":"nonpayable","type":"function"},{"inputs":[{"internalType":"uint256","name":"_tokenId","type":"uint256"},{"internalType":"address","name":"_priceFeedAddress","type":"address"}],"name":"updatePriceFeed","outputs":[],"stateMutability":"nonpayable","type":"function"},{"inputs":[],"name":"utilizationOptimal","outputs":[{"internalType":"uint256","name":"","type":"uint256"}],"stateMutability":"view","type":"function"},{"inputs":[],"name":"withdrawFees","outputs":[],"stateMutability":"nonpayable","type":"function"}],"evm":{"bytecode":{"linkReferences":{},"object":"6080604090808252346200033e5760019060009082825533156200032a57508154336001600160a01b03198083168217855592916001600160a01b03167f8be0079c531659141344cd1fd0a4f28419497f9722a3daafe3b4186f6b6457e08380a3600283905560038390556004838155603260055561012c6006556101f4600955611f40600a55610190600b55611770600c5560078054909316331790925583516001600160401b03919060c081018381118282101762000317578652818152602094858201938385528751918883018381108382111762000304578952600383526208aa8960eb1b88840152888401928352606084019760128952608085019782895260a0860197878952878052600e83528b88209651906002821015620002f15760ff885491610100600160a81b03905160081b1692169060018060a81b031916171786558286019451908151948511620002de578554908482811c92168015620002d3575b84831014620002c05750601f811162000275575b5081601f85116001146200020457509280928192600297969560ff9994620001f8575b50501b916000199060031b1c19161790555b945194018054935192516001600160b01b0319909416919094161790151560081b61ff00161760109190911b62010000600160b01b0316179055516138249081620003448239f35b0151925038806200019e565b858852808820969795969395601f198616915b8282106200025d5750509160ff979593918560029896941062000243575b505050811b019055620001b0565b015160001960f88460031b161c1916905538808062000235565b80888697829497870151815501960194019062000217565b858852828820601f860160051c810191848710620002b5575b601f0160051c019084905b828110620002a95750506200017b565b89815501849062000299565b90915081906200028e565b634e487b7160e01b895260229052602488fd5b91607f169162000167565b634e487b7160e01b885260419052602487fd5b634e487b7160e01b895260218352602489fd5b634e487b7160e01b865260418852602486fd5b634e487b7160e01b835260418552602483fd5b602491631e4fbdf760e01b82526004820152fd5b600080fdfe61010080604052600436101561001457600080fd5b60003560e01c9081630a49cf4d14612aee575080630d0b2ca614612acf578063119328d614612ab65780631eedf5c714612a9857806334855d1414612a7b57806335f7828314612a5d5780633cdb72f114612a135780633f4ba83a146129a15780634690484014612978578063476343ee146128f95780635003e25a146128cd5780635454a4b6146128af57806358f85880146128915780635c211efc146125235780635c975abb146124fd5780635fb3b1b5146124df5780636eef1154146124a0578063715018a61461244357806375794a3c14612425578063781c9923146123f95780637a9fffb7146123dd57806380bb727314612362578063844186f11461233c5780638456cb59146122da578063846b909a14611ff357806387c5145914611fd557806389d99a0514611d035780638da5cb5b14611fac5780639003adfe14611f8e57806390a8ae9b14611f725780639772d7ee14611eb75780639979ef4514611d08578063a271e52514611d03578063a5a2a5dd14611c86578063ab7b1c891461187c578063acfc827e146117bd578063afd927621461179f578063b891ba44146116bc578063b94fe91714611692578063c6255626146115f9578063ccdd9f5d1461132f578063da69dd5914610ae6578063e1ec3c6814610990578063e3ed190214610938578063e4df2f3b14610874578063e808386314610395578063f25b9caa14610378578063f2fde38b146102ef578063f8fa3ea7146102695763fc5284821461024657600080fd5b34610264576000366003190112610264576020600454604051908152f35b600080fd5b3461026457602036600319011261026457600435600052601360205261010060406000208054906001810154906002810154600382015460048301549060018060a01b036005850154169260ff600760068701549601541695604051978852602088015260408701526060860152608085015260a084015260c0830152151560e0820152f35b3461026457602036600319011261026457610308612b1e565b610310612d99565b6001600160a01b0390811690811561035f57600154826001600160601b0360a01b821617600155167f8be0079c531659141344cd1fd0a4f28419497f9722a3daafe3b4186f6b6457e0600080a3005b604051631e4fbdf760e01b815260006004820152602490fd5b34610264576000366003190112610264576020604051610e108152f35b346102645760208060031936011261026457600435906103b3613585565b8160005260138152604060002060078101908154916103d460ff84166135d8565b60028201544211156108375760ff19928316905580546000908152600d845260409020600582018054909591936001600160a01b03929183161561081657600c85016003828254161790556001600f86019182541617905560038401549060058501546104418184613085565b5061045f612710918261045860078a015483613041565b0490613395565b92600686019384549261047460065485613041565b04928082101561080e5750905b600052600e885260ff60406000205416600281101561073757156107b5575b906104be6104c3926104b483600854613395565b6008558554612e39565b612e39565b8061074d575b50600485015480600052600e875260ff604060002054166002811015610737576106e857506000808080868b541660068a0154905af16105076135a8565b50156106a3577f4d9113a1377d665eaa1f9168a9c9080f2e488cb820b10149de3d6d2e0f2780c7868481995b54169354604051908152a35b600160058401549360038101948554600052601487526105656040600020918254612e39565b9055015416806000526011845260406000206001810161058b8154801561069957612dd1565b9055426006820155600381016105a18154612dd1565b9055805460648111610616575b506000805160206137cf833981519152946000805160206137af8339815191529154604051908152a2547f0789b7097e8066538cfaa1132488b132e14ba5f0c938c8b7aaf8cf40356aab0b600080a25491610608836133a2565b604051908152a26001600055005b94508560328611156106715750603119850194851161065b57856000805160206137af833981519152916000805160206137cf833981519152965b81559150946105ae565b634e487b7160e01b600052601160045260246000fd5b6000805160206137cf83398151915295506000805160206137af833981519152916064610651565b6101f48455612dd1565b60405162461bcd60e51b815260048101879052601a60248201527f436f6c6c61746572616c207472616e73666572206661696c65640000000000006044820152606490fd5b868481997f4d9113a1377d665eaa1f9168a9c9080f2e488cb820b10149de3d6d2e0f2780c793600052600e83526107328260406000205460081c168383541660068c015491613619565b610533565b634e487b7160e01b600052602160045260246000fd5b6000808080938760018b0154165af16107646135a8565b501561077057876104c9565b60405162461bcd60e51b815260048101879052601760248201527f426f72726f776572207061796d656e74206661696c65640000000000000000006044820152606490fd5b6000808080848960028d0154165af16107cc6135a8565b506104a05760405162461bcd60e51b815260048101899052601560248201527413195b99195c881c185e5b595b9d0819985a5b1959605a1b6044820152606490fd5b905090610481565b90508495506003600c8501918254161790556108328254613669565b61053f565b60405162461bcd60e51b815260048101859052601560248201527441756374696f6e207374696c6c206f6e676f696e6760581b6044820152606490fd5b3461026457608036600319011261026457602435600435610893612d99565b61271082116108f3576107d081116108b957600955600a55604435600b55606435600c55005b60405162461bcd60e51b8152602060048201526012602482015271084c2e6ca40e4c2e8ca40e8dede40d0d2ced60731b6044820152606490fd5b60405162461bcd60e51b815260206004820152601b60248201527f496e76616c6964206f7074696d616c207574696c697a6174696f6e00000000006044820152606490fd5b3461026457604036600319011261026457610951612b1e565b6001600160a01b03166000908152600f60205260409020805460243591908210156102645760209161098291612b34565b90546040519160031b1c8152f35b3461026457602036600319011261026457600435600052600d6020526040600020805460018060a01b038060018401541660a0526002830154169160038101546004820154600583015460068401546007850154600886015490600987015492600a88015494600b8901549660ff600c8b01541698610a11600d8c01612cb3565b60e052600e8b015460c05260ff600f8c0154169c601160108d01549c01549c604051806080525260a05160206080510152604060805101526060608051015260808051015260a0608051015260c0608051015260e0608051015261010060805101526101206080510152610140608051015261016060805101526006811015610737576101806080510152610ab7610240806101a060805101526080510160e051612d59565b9260c0516101c0608051015215156101e060805101526102006080510152610220608051015260805180910390f35b60c03660031901126102645760a43567ffffffffffffffff811161026457610b12903690600401612bd9565b610b1a613585565b610b22613564565b604435156112ea57620151806084351015806112da575b610b429061343a565b600435600052600e602052610b6460ff60026040600020015460081c16612de0565b602435600052600e60205260ff60026040600020015460081c16156112955780511561125b57336000526011602052604060002060648154109081159161124e575b501561121257610bb76004356133a2565b9060643582116111d457610bcf604435600435613085565b8060968102046096148115171561065b57610c8990610c84610bf2602435612e46565b5091602435600052600e60205260646096610c7c6040600020600260405191610c1a83612b62565b8054610c2960ff821685612dc5565b60081c6001600160a01b03166020840152610c4660018201612cb3565b604084015201549060a060ff83169283606084015260ff8160081c1615156080840152600180831b039060101c16910152613054565b920204613041565b613065565b602435600052600e60205260ff6040600020541660028110156107375761109757803410611052575b60025490610cbf82612dd1565b600255602435600052600e60205260ff6040600020541660028110156107375761104d5750345b60405190610cf382612b7e565b828252336020830152600060408301526004356060830152602435608083015260443560a083015260c08201528360e082015260843561010082015242610120820152600061014082015260006101608201526000610180820152826101a082015260006101c082015260006101e082015260786102008201524261022082015281600052600d602052604060002090805182556001820160018060a01b03602083015116906001600160601b0360a01b9182825416179055600283019060018060a01b0360408401511690825416179055606081015160038301556080810151600483015560a0810151600583015560c0810151600683015560e0810151600783015561010081015160088301556101208101516009830155610140810151600a830155610160810151600b830155600c820161018082015160068110156107375760ff801983541691161790556101a081015180519067ffffffffffffffff821161103757610e67600d850154612c79565b601f8111610ff0575b50602090601f8311600114610f7a5791806011949261022094600092610f6f575b50508160011b916000199060031b1c191617600d8501555b6101c0810151600e850155610ed46101e08201511515600f86019060ff801983541691151516179055565b6102008101516010850155015191015533600052600f602052610efb816040600020613479565b80600052600d6020526006604060002001549260405193604435855260208501526040840152608435606084015260a060808401527f05cb01012dbded0c72d8576b4aef55d60d8e2824466ac6f54f7822cc1ddb6af36004359380610f65339560a0830190612d59565b0390a46001600055005b015190508980610e91565b90600d850160005260206000209160005b601f1985168110610fd8575092601194926001926102209583601f19811610610fbf575b505050811b01600d850155610ea9565b015160001960f88460031b161c19169055898080610faf565b91926020600181928685015181550194019201610f8b565b600d85016000526020600020601f840160051c810160208510611030575b601f830160051c82018110611024575050610e70565b6000815560010161100e565b508061100e565b634e487b7160e01b600052604160045260246000fd5b610ce6565b60405162461bcd60e51b815260206004820152601b60248201527f496e73756666696369656e742045544820636f6c6c61746572616c00000000006044820152606490fd5b3461118357602435600052600e60205260018060a01b0360406000205460081c166040516370a0823160e01b8152336004820152602081602481855afa8015611177578391600091611142575b50106110fd57816110f891309033906134b3565b610cb2565b60405162461bcd60e51b815260206004820152601a60248201527f496e73756666696369656e742045524332302062616c616e63650000000000006044820152606490fd5b9150506020813d60201161116f575b8161115e60209383612b9b565b8101031261026457829051866110e4565b3d9150611151565b6040513d6000823e3d90fd5b60405162461bcd60e51b815260206004820152602360248201527f455448206e6f74206e656564656420666f7220455243323020636f6c6c6174656044820152621c985b60ea1b6064820152608490fd5b60405162461bcd60e51b8152602060048201526016602482015275092dce8cae4cae6e840e4c2e8ca40e8dede40d0d2ced60531b6044820152606490fd5b60405162461bcd60e51b81526020600482015260146024820152734372656469742073636f726520746f6f206c6f7760601b6044820152606490fd5b6001915001541582610ba6565b60405162461bcd60e51b815260206004820152601260248201527112541194c81a185cda081c995c5d5a5c995960721b6044820152606490fd5b60405162461bcd60e51b815260206004820152601e60248201527f436f6c6c61746572616c20746f6b656e206e6f7420737570706f7274656400006044820152606490fd5b506301e133806084351115610b39565b60405162461bcd60e51b815260206004820152601d60248201527f416d6f756e74206d7573742062652067726561746572207468616e20300000006044820152606490fd5b3461026457602080600319360112610264576004359061134d613585565b611356826131e7565b9190156115bc5782600052600d8152604060002091600c8301600560ff198254161790556040519161138783612b7e565b8354835260018060a01b0393846001820154168285015284600282015416604085015260038101546060850152611468600482015460808601908152600583015460a087015260068301549060c08701918252600784015460e088015260088401549661010097888201526009850154610120820152600a850154610140820152600b8501546101608201526005610180820152611427600d8601612cb3565b6101a0820152600e8501546101c082015260ff600f8601541615156101e0820152610220601160108701968754610200850152015491015251905190613085565b93605085028581046050148615171561065b576004549061148882612dd1565b6004556201518042019788421161065b576040519384019784891067ffffffffffffffff8a1117611037577f7c37bb4475912066c94a3f055866bdadcf52198b65cb65aba2f5be08dfeb575d996115a08c966007878b7fa832766a05f1bd0298b0268308621777cfe1e4eea23afe7c06beea79bc6ddd2d9860409f986040998a528c8652828601914283528a870189815260608801908b8252606460808a019304835260a089019460008652601360c08b01976000895260e08c019960018b52600052528d60002099518a555160018a0155516002890155516003880155516004870155600586019151166001600160601b0360a01b82541617905551600684015551151591019060ff801983541691151516179055565b825191825287820152a354908351928352820152a26001600055005b6064906040519062461bcd60e51b8252600482015260166024820152752637b0b71034b9903737ba103ab73232b93bb0ba32b960511b6044820152fd5b3461026457602036600319011261026457600435600052600e602052604060002080549060ff821691600261163060018401612cb3565b9201549060405193600281101561073757845260081c6001600160a01b03908116602085015260c060408501819052849361166d91850190612d59565b9160ff8116606085015260ff8160081c161515608085015260101c1660a08301520390f35b346102645760203660031901126102645760406116b0600435612e46565b82519182526020820152f35b3461026457600036600319011261026457600254600019810181811161065b576116e590613768565b90600090600190815b8181106117425750505061170181613768565b9160005b82811061171e576040518061171a8682612c3e565b0390f35b8061172c61173d928461379a565b51611737828761379a565b52612dd1565b611705565b80600052600d60205260ff600c60406000200154166006811015610737578314611775575b61177090612dd1565b6116ee565b61177e816131e7565b501561176757926117978185611737611770948961379a565b939050611767565b34610264576000366003190112610264576020600954604051908152f35b34610264576040366003190112610264576004356024356001600160a01b03811690819003610264576117ee612d99565b81600052600e60205260ff60026040600020015460081c1615611844576000918252600e6020526040909120600201805462010000600160b01b03191660109290921b62010000600160b01b0316919091179055005b60405162461bcd60e51b815260206004820152601060248201526f546f6b656e206e6f742061637469766560801b6044820152606490fd5b6020806003193601126102645760043590611895613585565b81600052600d81526040600020600181019260018060a01b0391828554163303611c4157600c81019283549160ff831660068110156107375760016118da91146131a9565b600b8101544211611c0d57600581019081549161271096600261192989611905600787015488613041565b04996119136005548c613041565b04996119238b6104be838a613395565b96613395565b9660ff191617905561193d87600854613395565b600855549560038201968754600052601489526119606040600020918254612e39565b9055865480600052600e895260ff60406000205416600281101561073757611b6a575050833410611b2c57600080809385600283950154165af16119a26135a8565b5015611ae757813411611a8c575b84955b6119bc84613669565b541680600052601185526040600020600181016119df8154801561069957612dd1565b9055426006820155600281016119f58154612dd1565b905580546103b68110611a62575b509185916000805160206137af8339815191526000805160206137cf833981519152977f040cee90ee4799897c30ca04e5feb6fa43dbba9b6d084b4b257cdafd84ba013e9554604051908152a2604051908152a25491610608836133a2565b91955091600a820180921161065b57908255859490916000805160206137cf833981519152611a03565b6000808080611a9b8634612e39565b335af1611aa66135a8565b506119b05760405162461bcd60e51b8152600481018690526014602482015273115e18d95cdcc81c995d1d5c9b8819985a5b195960621b6044820152606490fd5b60405162461bcd60e51b815260048101869052601960248201527f5472616e7366657220746f206c656e646572206661696c6564000000000000006044820152606490fd5b60405162461bcd60e51b8152600481018890526016602482015275125b9cdd59999a58da595b9d081c995c185e5b595b9d60521b6044820152606490fd5b98929834611bbd578899611b9891600052600e8a528560028160406000205460081c169501541633856134b3565b80611ba5575b50506119b3565b611bb69184600754169033906134b3565b8780611b9e565b60405162461bcd60e51b8152600481018a9052602260248201527f455448206e6f74206e656564656420666f722045524332302072657061796d656044820152611b9d60f21b6064820152608490fd5b60405162461bcd60e51b815260048101879052600c60248201526b131bd85b88195e1c1a5c995960a21b6044820152606490fd5b60405162461bcd60e51b815260048101859052601760248201527f4f6e6c7920626f72726f7765722063616e2072657061790000000000000000006044820152606490fd5b3461026457611c9436612b08565b611c9c612d99565b6103e88211611ccf5780610e10611cbc9210159081611cc1575b5061343a565b600655005b62093a809150111583611cb6565b60405162461bcd60e51b815260206004820152600c60248201526b08ccaca40e8dede40d0d2ced60a31b6044820152606490fd5b612c20565b60208060031936011261026457600435611d20613585565b80600052601382526040600020611d3d60ff6007830154166135d8565b60028101544211611e8257600681019081549081341115611e4f5760048101543410611e165760050180549091906001600160a01b031680611dc3575b5050336001600160601b0360a01b8254161790553490557f0e54eff26401bf69b81b26f60bd85ef47f5d85275c1d268d84f68d6897431c47604051923484523393a36001600055005b600080809381935af1611dd46135a8565b5015611de1578480611d7a565b60405162461bcd60e51b815260048101859052600d60248201526c1499599d5b990819985a5b1959609a1b6044820152606490fd5b60405162461bcd60e51b81526004810186905260116024820152704269642062656c6f77207265736572766560781b6044820152606490fd5b60405162461bcd60e51b815260048101869052600b60248201526a42696420746f6f206c6f7760a81b6044820152606490fd5b60405162461bcd60e51b815260048101849052600d60248201526c105d58dd1a5bdb88195b991959609a1b6044820152606490fd5b3461026457600036600319011261026457600254600019810181811161065b57611ee090613768565b9060009060015b818110611f25575050611ef981613768565b9160005b828110611f12576040518061171a8682612c3e565b8061172c611f20928461379a565b611efd565b80600052600d60205260ff600c604060002001541660068110156107375715611f57575b611f5290612dd1565b611ee7565b91611f6a8184611737611f52948861379a565b929050611f49565b3461026457600036600319011261026457602060405160788152f35b34610264576000366003190112610264576020600854604051908152f35b34610264576000366003190112610264576001546040516001600160a01b039091168152602090f35b34610264576000366003190112610264576020600254604051908152f35b6020806003193601126102645760043561200b613585565b612013613564565b80600052600d82526040600020906001820160018060a01b038082541661203b811515613167565b600c85019081549060ff82166006811015610737576122a0573314612264576002860180546001600160a01b0319163317905560ff1916600117905542600a8501819055600885015461208d91613395565b600b85015533600052601085526120a8836040600020613479565b60058401600381549501948554600052601487526120cc6040600020918254613395565b9055845480600052600e875260ff604060002054166002811015610737576121d75750549182340361219b57600080938193829354165af161210c6135a8565b501561215657906000805160206137cf833981519152915b33907f15feab5d3eb17171632762cf769709a315dd15f487a556c0dfb8a259c8f186cc600080a35491610608836133a2565b60405162461bcd60e51b815260048101849052601b60248201527f5472616e7366657220746f20626f72726f776572206661696c656400000000006044820152606490fd5b60405162461bcd60e51b8152600481018790526014602482015273125b98dbdc9c9958dd0811551208185b5bdd5b9d60621b6044820152606490fd5b95949392959190913461221f57916000805160206137cf83398151915295969161221a93600052600e88528060406000205460081c1692541690549133906134b3565b612124565b60405162461bcd60e51b815260048101879052601d60248201527f455448206e6f74206e656564656420666f72204552433230206c6f616e0000006044820152606490fd5b60405162461bcd60e51b815260048101889052601460248201527321b0b73737ba10333ab7321037bbb7103637b0b760611b6044820152606490fd5b60405162461bcd60e51b81526004810189905260126024820152714c6f616e206e6f7420617661696c61626c6560701b6044820152606490fd5b34610264576000366003190112610264576122f3612d99565b6122fb613564565b6001805460ff60a01b1916600160a01b1790556040513381527f62e78cea01bee320cd4e420270b5ea74000d11b0c9f74754ebdbfc544b05a25890602090a1005b3461026457602036600319011261026457602061235a6004356133a2565b604051908152f35b34610264576020366003190112610264576001600160a01b03612383612b1e565b16600052601160205260e06040600020805490600181015490600281015460038201546004830154916006600585015494015494604051968752602087015260408601526060850152608084015260a083015260c0820152f35b3461026457600036600319011261026457602060405160968152f35b346102645760203660031901126102645760043560005260146020526020604060002054604051908152f35b34610264576000366003190112610264576020600354604051908152f35b346102645760003660031901126102645761245c612d99565b600180546001600160a01b031981169091556000906001600160a01b03167f8be0079c531659141344cd1fd0a4f28419497f9722a3daafe3b4186f6b6457e08280a3005b34610264576020366003190112610264576001600160a01b036124c1612b1e565b166000526012602052602060ff604060002054166040519015158152f35b34610264576000366003190112610264576020600654604051908152f35b3461026457600036600319011261026457602060ff60015460a01c166040519015158152f35b346102645760803660031901126102645761253c612b1e565b67ffffffffffffffff906024358281116102645761255e903690600401612bd9565b906044359060ff821680920361026457606435916001600160a01b03831683036102645761258a612d99565b6001600160a01b0382161561284c576001600160a01b0383161561280757604051906125b582612b62565b60018252602082019060018060a01b0384168252604083019086825260608401526001608084015260018060a01b03851660a0840152600354600052600e60205260406000209183519060028210156107375760ff845491610100600160a81b03905160081b169216906affffffffffffffffffffff60a81b1617178255519586519081116110375761264b6001830154612c79565b601f81116127c0575b506020601f82116001146127475791816002926126de95946127379a60009261273c575b50508160011b916000199060031b1c19161760018201555b606083015191018054608084015160a0909401516001600160b01b031990911660ff939093169290921792151560081b61ff00169290921760109190911b62010000600160b01b0316179055565b7f98878a34ea3245957b330457c591928f2908c8b254e8b972075101360fca276b61271c600354948593604051928392604084526040840190612d59565b6001600160a01b0396871660208401529516940390a3612dd1565b600355005b015190508a80612678565b6001830160005260206000209760005b601f19841681106127a8575082612737996126de969593600193600296601f1981161061278f575b505050811b016001820155612690565b015160001960f88460031b161c191690558a808061277f565b828201518a5560019099019860209283019201612757565b600183016000526020600020601f830160051c810160208410612800575b601f830160051c820181106127f4575050612654565b600081556001016127de565b50806127de565b60405162461bcd60e51b815260206004820152601a60248201527f496e76616c6964207072696365206665656420616464726573730000000000006044820152606490fd5b60405162461bcd60e51b815260206004820152601860248201527f496e76616c696420636f6e7472616374206164647265737300000000000000006044820152606490fd5b34610264576000366003190112610264576020600554604051908152f35b34610264576000366003190112610264576020600b54604051908152f35b346102645760203660031901126102645760406128eb6004356131e7565b825191151582526020820152f35b3461026457600036600319011261026457612912612d99565b60008080806008548160085560018060a01b03600754165af16129336135a8565b501561293b57005b60405162461bcd60e51b8152602060048201526015602482015274119959481dda5d1a191c985dd85b0819985a5b1959605a1b6044820152606490fd5b34610264576000366003190112610264576007546040516001600160a01b039091168152602090f35b34610264576000366003190112610264576129ba612d99565b60015460ff8160a01c1615612a015760ff60a01b19166001556040513381527f5db9ee0a495bf2e6ff9c91a7834c1ba4fdd244a5e8aa4e537bd38aeae4b073aa90602090a1005b604051638dfc202b60e01b8152600490fd5b3461026457604036600319011261026457612a2c612b1e565b6001600160a01b03166000908152601060205260409020805460243591908210156102645760209161098291612b34565b34610264576000366003190112610264576020600a54604051908152f35b34610264576000366003190112610264576020604051610bb88152f35b34610264576000366003190112610264576020600c54604051908152f35b3461026457602061235a612ac936612b08565b90613085565b346102645760003660031901126102645760206040516301e133808152f35b346102645760003660031901126102645780606460209252f35b6040906003190112610264576004359060243590565b600435906001600160a01b038216820361026457565b8054821015612b4c5760005260206000200190600090565b634e487b7160e01b600052603260045260246000fd5b60c0810190811067ffffffffffffffff82111761103757604052565b610240810190811067ffffffffffffffff82111761103757604052565b90601f8019910116810190811067ffffffffffffffff82111761103757604052565b67ffffffffffffffff811161103757601f01601f191660200190565b81601f8201121561026457803590612bf082612bbd565b92612bfe6040519485612b9b565b8284526020838301011161026457816000926020809301838601378301015290565b34610264576000366003190112610264576020604051620151808152f35b6020908160408183019282815285518094520193019160005b828110612c65575050505090565b835185529381019392810192600101612c57565b90600182811c92168015612ca9575b6020831014612c9357565b634e487b7160e01b600052602260045260246000fd5b91607f1691612c88565b9060405191826000825492612cc784612c79565b908184526001948581169081600014612d365750600114612cf3575b5050612cf192500383612b9b565b565b9093915060005260209081600020936000915b818310612d1e575050612cf193508201013880612ce3565b85548884018501529485019487945091830191612d06565b915050612cf194506020925060ff191682840152151560051b8201013880612ce3565b919082519283825260005b848110612d85575050826000602080949584010152601f8019910116010190565b602081830181015184830182015201612d64565b6001546001600160a01b03163303612dad57565b60405163118cdaa760e01b8152336004820152602490fd5b60028210156107375752565b600019811461065b5760010190565b15612de757565b60405162461bcd60e51b8152602060048201526013602482015272151bdad95b881b9bdd081cdd5c1c1bdc9d1959606a1b6044820152606490fd5b519069ffffffffffffffffffff8216820361026457565b9190820391821161065b57565b9060009182526020600e815260408084208151612e6281612b62565b612ec46002835493612e7760ff861685612dc5565b60018060a01b03809560081c1687850152612e9460018201612cb3565b8685015201549160ff831660608201528360a060ff8560081c16151592836080820152019360101c168352612de0565b51168015613031579060a060049392825194858092633fabe5a360e21b82525afa9485156130265780938196612fce575b50831315612f8b578415612f5357610e10612f108642612e39565b11612f1b5750509190565b60649250519062461bcd60e51b825260048201526012602482015271141c9a58d94819185d18481d1bdbc81bdb1960721b6044820152fd5b60649250519062461bcd60e51b825260048201526012602482015271526f756e64206e6f7420636f6d706c65746560701b6044820152fd5b60649250519062461bcd60e51b82526004820152601960248201527f496e76616c69642070726963652066726f6d206f7261636c65000000000000006044820152fd5b9350945060a0833d821161301e575b81612fea60a09383612b9b565b8101031261301a57612ffb83612e22565b5081830151613011608060608601519501612e22565b50929438612ef5565b8480fd5b3d9150612fdd565b9051903d90823e3d90fd5b5050509050642e90edd000904290565b8181029291811591840414171561065b57565b60ff16604d811161065b57600a0a90565b811561306f570490565b634e487b7160e01b600052601260045260246000fd5b9061308f82612e46565b5091600052600e602052604060002091604051916130ac83612b62565b60088454600260ff966130c188841688612dc5565b6001600160a01b0392841c831660208801526130df60018201612cb3565b604088015201549460a08787169260608301978489528981871c161515608085015260101c169101521115600014613133579261312261312a9261313095613041565b925116613054565b90613065565b90565b61314c9161314091613041565b61312a84845116613054565b905182166007190191821161065b5761312a61313092613054565b1561316e57565b60405162461bcd60e51b8152602060048201526013602482015272131bd85b88191bd95cc81b9bdd08195e1a5cdd606a1b6044820152606490fd5b156131b057565b60405162461bcd60e51b815260206004820152600f60248201526e4c6f616e206e6f742061637469766560881b6044820152606490fd5b906000918252600d602052604082209160405161320381612b7e565b8354815260018060a01b038060018601541660208301908152816002870154166040840152600386015492606081019384526004870154906080810191825260058801549360a0820194855260068901549360c0830194855260078a015460e084015260088a015461010084015260098a0154610120840152600a8a0154610140840152600b8a015461016084015260ff600c8b015416926101808101936006811015613381578452613300929190610220601160108e6132c6600d8201612cb3565b6101a0860152600e8101546101c086015260ff600f8201541615156101e086015201549d61020084019e8f52015491015251161515613167565b51600681101561336d57916133289161331f60016133329695146131a9565b51905190613085565b9251905190613085565b9160648202918083046064149015171561335957509061335191613065565b915182109190565b634e487b7160e01b81526011600452602490fd5b634e487b7160e01b86526021600452602486fd5b634e487b7160e01b8a52602160045260248afd5b9190820180921161065b57565b600090815260146020526040812054600a5490818082116133f257506127109283820291808304851490151715613359575061313092916133e291613065565b9061045860095492600b54613041565b6133fb91612e39565b9161341761340e600954600b5490613395565b93600c54613041565b906127109283039283116133595750613130929161343491613065565b90613395565b1561344157565b60405162461bcd60e51b815260206004820152601060248201526f24b73b30b634b210323ab930ba34b7b760811b6044820152606490fd5b8054680100000000000000008110156110375761349b91600182018155612b34565b819291549060031b91821b91600019901b1916179055565b6040516323b872dd60e01b60208201526001600160a01b03928316602482015292909116604483015260648083019390935291815260a081019181831067ffffffffffffffff84111761103757612cf1926040525b906000602091828151910182855af115611177576000513d61355b57506001600160a01b0381163b155b6135395750565b604051635274afe760e01b81526001600160a01b039091166004820152602490fd5b60011415613532565b60ff60015460a01c1661357357565b60405163d93c066560e01b8152600490fd5b600260005414613596576002600055565b604051633ee5aeb560e01b8152600490fd5b3d156135d3573d906135b982612bbd565b916135c76040519384612b9b565b82523d6000602084013e565b606090565b156135df57565b60405162461bcd60e51b815260206004820152601260248201527141756374696f6e206e6f742061637469766560701b6044820152606490fd5b60405163a9059cbb60e01b60208201526001600160a01b039092166024830152604480830193909352918152608081019167ffffffffffffffff83118284101761103757612cf192604052613508565b6000908152600d602052604081206004810154808352600e60205260ff604084205416600281101561373c5761370b575060018101546006909101548291829182916001600160a01b03165af16136be6135a8565b50156136c657565b60405162461bcd60e51b815260206004820152601860248201527f436f6c6c61746572616c2072657475726e206661696c656400000000000000006044820152606490fd5b90600683604093612cf19552600e60205260018060a01b03938491205460081c169260018301541691015491613619565b634e487b7160e01b84526021600452602484fd5b67ffffffffffffffff81116110375760051b60200190565b9061377282613750565b61377f6040519182612b9b565b8281528092613790601f1991613750565b0190602036910137565b8051821015612b4c5760209160051b01019056fe79c012a0cfae660e09134956bc432c8497ec80e86a3a108d130e8b3fca52b3ad41e376fd99913dea7fda140f5c0bd997515b1a181acc58737320322548ec6e72a2646970667358221220818431fffca5cab230d2f0fe890d8df328a1b56096d1f037176cb83d9659188164736f6c63430008140033","opcodes":"PUSH1 0x80 PUSH1 0x40 SWAP1 DUP1 DUP3 MSTORE CALLVALUE PUSH3 0x33E JUMPI PUSH1 0x1 SWAP1 PUSH1 0x0 SWAP1 DUP3 DUP3 SSTORE CALLER ISZERO PUSH3 0x32A JUMPI POP DUP2 SLOAD CALLER PUSH1 0x1 PUSH1 0x1 PUSH1 0xA0 SHL SUB NOT DUP1 DUP4 AND DUP3 OR DUP6 SSTORE SWAP3 SWAP2 PUSH1 0x1 PUSH1 0x1 PUSH1 0xA0 SHL SUB AND PUSH32 0x8BE0079C531659141344CD1FD0A4F28419497F9722A3DAAFE3B4186F6B6457E0 DUP4 DUP1 LOG3 PUSH1 0x2 DUP4 SWAP1 SSTORE PUSH1 0x3 DUP4 SWAP1 SSTORE PUSH1 0x4 DUP4 DUP2 SSTORE PUSH1 0x32 PUSH1 0x5 SSTORE PUSH2 0x12C PUSH1 0x6 SSTORE PUSH2 0x1F4 PUSH1 0x9 SSTORE PUSH2 0x1F40 PUSH1 0xA SSTORE PUSH2 0x190 PUSH1 0xB SSTORE PUSH2 0x1770 PUSH1 0xC SSTORE PUSH1 0x7 DUP1 SLOAD SWAP1 SWAP4 AND CALLER OR SWAP1 SWAP3 SSTORE DUP4 MLOAD PUSH1 0x1 PUSH1 0x1 PUSH1 0x40 SHL SUB SWAP2 SWAP1 PUSH1 0xC0 DUP2 ADD DUP4 DUP2 GT DUP3 DUP3 LT OR PUSH3 0x317 JUMPI DUP7 MSTORE DUP2 DUP2 MSTORE PUSH1 0x20 SWAP5 DUP6 DUP3 ADD SWAP4 DUP4 DUP6 MSTORE DUP8 MLOAD SWAP2 DUP9 DUP4 ADD DUP4 DUP2 LT DUP4 DUP3 GT OR PUSH3 0x304 JUMPI DUP10 MSTORE PUSH1 0x3 DUP4 MSTORE PUSH3 0x8AA89 PUSH1 0xEB SHL DUP9 DUP5 ADD MSTORE DUP9 DUP5 ADD SWAP3 DUP4 MSTORE PUSH1 0x60 DUP5 ADD SWAP8 PUSH1 0x12 DUP10 MSTORE PUSH1 0x80 DUP6 ADD SWAP8 DUP3 DUP10 MSTORE PUSH1 0xA0 DUP7 ADD SWAP8 DUP8 DUP10 MSTORE DUP8 DUP1 MSTORE PUSH1 0xE DUP4 MSTORE DUP12 DUP9 KECCAK256 SWAP7 MLOAD SWAP1 PUSH1 0x2 DUP3 LT ISZERO PUSH3 0x2F1 JUMPI PUSH1 0xFF DUP9 SLOAD SWAP2 PUSH2 0x100 PUSH1 0x1 PUSH1 0xA8 SHL SUB SWAP1 MLOAD PUSH1 0x8 SHL AND SWAP3 AND SWAP1 PUSH1 0x1 DUP1 PUSH1 0xA8 SHL SUB NOT AND OR OR DUP7 SSTORE DUP3 DUP7 ADD SWAP5 MLOAD SWAP1 DUP2 MLOAD SWAP5 DUP6 GT PUSH3 0x2DE JUMPI DUP6 SLOAD SWAP1 DUP5 DUP3 DUP2 SHR SWAP3 AND DUP1 ISZERO PUSH3 0x2D3 JUMPI JUMPDEST DUP5 DUP4 LT EQ PUSH3 0x2C0 JUMPI POP PUSH1 0x1F DUP2 GT PUSH3 0x275 JUMPI JUMPDEST POP DUP2 PUSH1 0x1F DUP6 GT PUSH1 0x1 EQ PUSH3 0x204 JUMPI POP SWAP3 DUP1 SWAP3 DUP2 SWAP3 PUSH1 0x2 SWAP8 SWAP7 SWAP6 PUSH1 0xFF SWAP10 SWAP5 PUSH3 0x1F8 JUMPI JUMPDEST POP POP SHL SWAP2 PUSH1 0x0 NOT SWAP1 PUSH1 0x3 SHL SHR NOT AND OR SWAP1 SSTORE JUMPDEST SWAP5 MLOAD SWAP5 ADD DUP1 SLOAD SWAP4 MLOAD SWAP3 MLOAD PUSH1 0x1 PUSH1 0x1 PUSH1 0xB0 SHL SUB NOT SWAP1 SWAP5 AND SWAP2 SWAP1 SWAP5 AND OR SWAP1 ISZERO ISZERO PUSH1 0x8 SHL PUSH2 0xFF00 AND OR PUSH1 0x10 SWAP2 SWAP1 SWAP2 SHL PUSH3 0x10000 PUSH1 0x1 PUSH1 0xB0 SHL SUB AND OR SWAP1 SSTORE MLOAD PUSH2 0x3824 SWAP1 DUP2 PUSH3 0x344 DUP3 CODECOPY RETURN JUMPDEST ADD MLOAD SWAP3 POP CODESIZE DUP1 PUSH3 0x19E JUMP JUMPDEST DUP6 DUP9 MSTORE DUP1 DUP9 KECCAK256 SWAP7 SWAP8 SWAP6 SWAP7 SWAP4 SWAP6 PUSH1 0x1F NOT DUP7 AND SWAP2 JUMPDEST DUP3 DUP3 LT PUSH3 0x25D JUMPI POP POP SWAP2 PUSH1 0xFF SWAP8 SWAP6 SWAP4 SWAP2 DUP6 PUSH1 0x2 SWAP9 SWAP7 SWAP5 LT PUSH3 0x243 JUMPI JUMPDEST POP POP POP DUP2 SHL ADD SWAP1 SSTORE PUSH3 0x1B0 JUMP JUMPDEST ADD MLOAD PUSH1 0x0 NOT PUSH1 0xF8 DUP5 PUSH1 0x3 SHL AND SHR NOT AND SWAP1 SSTORE CODESIZE DUP1 DUP1 PUSH3 0x235 JUMP JUMPDEST DUP1 DUP9 DUP7 SWAP8 DUP3 SWAP5 SWAP8 DUP8 ADD MLOAD DUP2 SSTORE ADD SWAP7 ADD SWAP5 ADD SWAP1 PUSH3 0x217 JUMP JUMPDEST DUP6 DUP9 MSTORE DUP3 DUP9 KECCAK256 PUSH1 0x1F DUP7 ADD PUSH1 0x5 SHR DUP2 ADD SWAP2 DUP5 DUP8 LT PUSH3 0x2B5 JUMPI JUMPDEST PUSH1 0x1F ADD PUSH1 0x5 SHR ADD SWAP1 DUP5 SWAP1 JUMPDEST DUP3 DUP2 LT PUSH3 0x2A9 JUMPI POP POP PUSH3 0x17B JUMP JUMPDEST DUP10 DUP2 SSTORE ADD DUP5 SWAP1 PUSH3 0x299 JUMP JUMPDEST SWAP1 SWAP2 POP DUP2 SWAP1 PUSH3 0x28E JUMP JUMPDEST PUSH4 0x4E487B71 PUSH1 0xE0 SHL DUP10 MSTORE PUSH1 0x22 SWAP1 MSTORE PUSH1 0x24 DUP9 REVERT JUMPDEST SWAP2 PUSH1 0x7F AND SWAP2 PUSH3 0x167 JUMP JUMPDEST PUSH4 0x4E487B71 PUSH1 0xE0 SHL DUP9 MSTORE PUSH1 0x41 SWAP1 MSTORE PUSH1 0x24 DUP8 REVERT JUMPDEST PUSH4 0x4E487B71 PUSH1 0xE0 SHL DUP10 MSTORE PUSH1 0x21 DUP4 MSTORE PUSH1 0x24 DUP10 REVERT JUMPDEST PUSH4 0x4E487B71 PUSH1 0xE0 SHL DUP7 MSTORE PUSH1 0x41 DUP9 MSTORE PUSH1 0x24 DUP7 REVERT JUMPDEST PUSH4 0x4E487B71 PUSH1 0xE0 SHL DUP4 MSTORE PUSH1 0x41 DUP6 MSTORE PUSH1 0x24 DUP4 REVERT JUMPDEST PUSH1 0x24 SWAP2 PUSH4 0x1E4FBDF7 PUSH1 0xE0 SHL DUP3 MSTORE PUSH1 0x4 DUP3 ADD MSTORE REVERT JUMPDEST PUSH1 0x0 DUP1 REVERT INVALID PUSH2 0x100 DUP1 PUSH1 0x40 MSTORE PUSH1 0x4 CALLDATASIZE LT ISZERO PUSH2 0x14 JUMPI PUSH1 0x0 DUP1 REVERT JUMPDEST PUSH1 0x0 CALLDATALOAD PUSH1 0xE0 SHR SWAP1 DUP2 PUSH4 0xA49CF4D EQ PUSH2 0x2AEE JUMPI POP DUP1 PUSH4 0xD0B2CA6 EQ PUSH2 0x2ACF JUMPI DUP1 PUSH4 0x119328D6 EQ PUSH2 0x2AB6 JUMPI DUP1 PUSH4 0x1EEDF5C7 EQ PUSH2 0x2A98 JUMPI DUP1 PUSH4 0x34855D14 EQ PUSH2 0x2A7B JUMPI DUP1 PUSH4 0x35F78283 EQ PUSH2 0x2A5D JUMPI DUP1 PUSH4 0x3CDB72F1 EQ PUSH2 0x2A13 JUMPI DUP1 PUSH4 0x3F4BA83A EQ PUSH2 0x29A1 JUMPI DUP1 PUSH4 0x46904840 EQ PUSH2 0x2978 JUMPI DUP1 PUSH4 0x476343EE EQ PUSH2 0x28F9 JUMPI DUP1 PUSH4 0x5003E25A EQ PUSH2 0x28CD JUMPI DUP1 PUSH4 0x5454A4B6 EQ PUSH2 0x28AF JUMPI DUP1 PUSH4 0x58F85880 EQ PUSH2 0x2891 JUMPI DUP1 PUSH4 0x5C211EFC EQ PUSH2 0x2523 JUMPI DUP1 PUSH4 0x5C975ABB EQ PUSH2 0x24FD JUMPI DUP1 PUSH4 0x5FB3B1B5 EQ PUSH2 0x24DF JUMPI DUP1 PUSH4 0x6EEF1154 EQ PUSH2 0x24A0 JUMPI DUP1 PUSH4 0x715018A6 EQ PUSH2 0x2443 JUMPI DUP1 PUSH4 0x75794A3C EQ PUSH2 0x2425 JUMPI DUP1 PUSH4 0x781C9923 EQ PUSH2 0x23F9 JUMPI DUP1 PUSH4 0x7A9FFFB7 EQ PUSH2 0x23DD JUMPI DUP1 PUSH4 0x80BB7273 EQ PUSH2 0x2362 JUMPI DUP1 PUSH4 0x844186F1 EQ PUSH2 0x233C JUMPI DUP1 PUSH4 0x8456CB59 EQ PUSH2 0x22DA JUMPI DUP1 PUSH4 0x846B909A EQ PUSH2 0x1FF3 JUMPI DUP1 PUSH4 0x87C51459 EQ PUSH2 0x1FD5 JUMPI DUP1 PUSH4 0x89D99A05 EQ PUSH2 0x1D03 JUMPI DUP1 PUSH4 0x8DA5CB5B EQ PUSH2 0x1FAC JUMPI DUP1 PUSH4 0x9003ADFE EQ PUSH2 0x1F8E JUMPI DUP1 PUSH4 0x90A8AE9B EQ PUSH2 0x1F72 JUMPI DUP1 PUSH4 0x9772D7EE EQ PUSH2 0x1EB7 JUMPI DUP1 PUSH4 0x9979EF45 EQ PUSH2 0x1D08 JUMPI DUP1 PUSH4 0xA271E525 EQ PUSH2 0x1D03 JUMPI DUP1 PUSH4 0xA5A2A5DD EQ PUSH2 0x1C86 JUMPI DUP1 PUSH4 0xAB7B1C89 EQ PUSH2 0x187C JUMPI DUP1 PUSH4 0xACFC827E EQ PUSH2 0x17BD JUMPI DUP1 PUSH4 0xAFD92762 EQ PUSH2 0x179F JUMPI DUP1 PUSH4 0xB891BA44 EQ PUSH2 0x16BC JUMPI DUP1 PUSH4 0xB94FE917 EQ PUSH2 0x1692 JUMPI DUP1 PUSH4 0xC6255626 EQ PUSH2 0x15F9 JUMPI DUP1 PUSH4 0xCCDD9F5D EQ PUSH2 0x132F JUMPI DUP1 PUSH4 0xDA69DD59 EQ PUSH2 0xAE6 JUMPI DUP1 PUSH4 0xE1EC3C68 EQ PUSH2 0x990 JUMPI DUP1 PUSH4 0xE3ED1902 EQ PUSH2 0x938 JUMPI DUP1 PUSH4 0xE4DF2F3B EQ PUSH2 0x874 JUMPI DUP1 PUSH4 0xE8083863 EQ PUSH2 0x395 JUMPI DUP1 PUSH4 0xF25B9CAA EQ PUSH2 0x378 JUMPI DUP1 PUSH4 0xF2FDE38B EQ PUSH2 0x2EF JUMPI DUP1 PUSH4 0xF8FA3EA7 EQ PUSH2 0x269 JUMPI PUSH4 0xFC528482 EQ PUSH2 0x246 JUMPI PUSH1 0x0 DUP1 REVERT JUMPDEST CALLVALUE PUSH2 0x264 JUMPI PUSH1 0x0 CALLDATASIZE PUSH1 0x3 NOT ADD SLT PUSH2 0x264 JUMPI PUSH1 0x20 PUSH1 0x4 SLOAD PUSH1 0x40 MLOAD SWAP1 DUP2 MSTORE RETURN JUMPDEST PUSH1 0x0 DUP1 REVERT JUMPDEST CALLVALUE PUSH2 0x264 JUMPI PUSH1 0x20 CALLDATASIZE PUSH1 0x3 NOT ADD SLT PUSH2 0x264 JUMPI PUSH1 0x4 CALLDATALOAD PUSH1 0x0 MSTORE PUSH1 0x13 PUSH1 0x20 MSTORE PUSH2 0x100 PUSH1 0x40 PUSH1 0x0 KECCAK256 DUP1 SLOAD SWAP1 PUSH1 0x1 DUP2 ADD SLOAD SWAP1 PUSH1 0x2 DUP2 ADD SLOAD PUSH1 0x3 DUP3 ADD SLOAD PUSH1 0x4 DUP4 ADD SLOAD SWAP1 PUSH1 0x1 DUP1 PUSH1 0xA0 SHL SUB PUSH1 0x5 DUP6 ADD SLOAD AND SWAP3 PUSH1 0xFF PUSH1 0x7 PUSH1 0x6 DUP8 ADD SLOAD SWAP7 ADD SLOAD AND SWAP6 PUSH1 0x40 MLOAD SWAP8 DUP9 MSTORE PUSH1 0x20 DUP9 ADD MSTORE PUSH1 0x40 DUP8 ADD MSTORE PUSH1 0x60 DUP7 ADD MSTORE PUSH1 0x80 DUP6 ADD MSTORE PUSH1 0xA0 DUP5 ADD MSTORE PUSH1 0xC0 DUP4 ADD MSTORE ISZERO ISZERO PUSH1 0xE0 DUP3 ADD MSTORE RETURN JUMPDEST CALLVALUE PUSH2 0x264 JUMPI PUSH1 0x20 CALLDATASIZE PUSH1 0x3 NOT ADD SLT PUSH2 0x264 JUMPI PUSH2 0x308 PUSH2 0x2B1E JUMP JUMPDEST PUSH2 0x310 PUSH2 0x2D99 JUMP JUMPDEST PUSH1 0x1 PUSH1 0x1 PUSH1 0xA0 SHL SUB SWAP1 DUP2 AND SWAP1 DUP2 ISZERO PUSH2 0x35F JUMPI PUSH1 0x1 SLOAD DUP3 PUSH1 0x1 PUSH1 0x1 PUSH1 0x60 SHL SUB PUSH1 0xA0 SHL DUP3 AND OR PUSH1 0x1 SSTORE AND PUSH32 0x8BE0079C531659141344CD1FD0A4F28419497F9722A3DAAFE3B4186F6B6457E0 PUSH1 0x0 DUP1 LOG3 STOP JUMPDEST PUSH1 0x40 MLOAD PUSH4 0x1E4FBDF7 PUSH1 0xE0 SHL DUP2 MSTORE PUSH1 0x0 PUSH1 0x4 DUP3 ADD MSTORE PUSH1 0x24 SWAP1 REVERT JUMPDEST CALLVALUE PUSH2 0x264 JUMPI PUSH1 0x0 CALLDATASIZE PUSH1 0x3 NOT ADD SLT PUSH2 0x264 JUMPI PUSH1 0x20 PUSH1 0x40 MLOAD PUSH2 0xE10 DUP2 MSTORE RETURN JUMPDEST CALLVALUE PUSH2 0x264 JUMPI PUSH1 0x20 DUP1 PUSH1 0x3 NOT CALLDATASIZE ADD SLT PUSH2 0x264 JUMPI PUSH1 0x4 CALLDATALOAD SWAP1 PUSH2 0x3B3 PUSH2 0x3585 JUMP JUMPDEST DUP2 PUSH1 0x0 MSTORE PUSH1 0x13 DUP2 MSTORE PUSH1 0x40 PUSH1 0x0 KECCAK256 PUSH1 0x7 DUP2 ADD SWAP1 DUP2 SLOAD SWAP2 PUSH2 0x3D4 PUSH1 0xFF DUP5 AND PUSH2 0x35D8 JUMP JUMPDEST PUSH1 0x2 DUP3 ADD SLOAD TIMESTAMP GT ISZERO PUSH2 0x837 JUMPI PUSH1 0xFF NOT SWAP3 DUP4 AND SWAP1 SSTORE DUP1 SLOAD PUSH1 0x0 SWAP1 DUP2 MSTORE PUSH1 0xD DUP5 MSTORE PUSH1 0x40 SWAP1 KECCAK256 PUSH1 0x5 DUP3 ADD DUP1 SLOAD SWAP1 SWAP6 SWAP2 SWAP4 PUSH1 0x1 PUSH1 0x1 PUSH1 0xA0 SHL SUB SWAP3 SWAP2 DUP4 AND ISZERO PUSH2 0x816 JUMPI PUSH1 0xC DUP6 ADD PUSH1 0x3 DUP3 DUP3 SLOAD AND OR SWAP1 SSTORE PUSH1 0x1 PUSH1 0xF DUP7 ADD SWAP2 DUP3 SLOAD AND OR SWAP1 SSTORE PUSH1 0x3 DUP5 ADD SLOAD SWAP1 PUSH1 0x5 DUP6 ADD SLOAD PUSH2 0x441 DUP2 DUP5 PUSH2 0x3085 JUMP JUMPDEST POP PUSH2 0x45F PUSH2 0x2710 SWAP2 DUP3 PUSH2 0x458 PUSH1 0x7 DUP11 ADD SLOAD DUP4 PUSH2 0x3041 JUMP JUMPDEST DIV SWAP1 PUSH2 0x3395 JUMP JUMPDEST SWAP3 PUSH1 0x6 DUP7 ADD SWAP4 DUP5 SLOAD SWAP3 PUSH2 0x474 PUSH1 0x6 SLOAD DUP6 PUSH2 0x3041 JUMP JUMPDEST DIV SWAP3 DUP1 DUP3 LT ISZERO PUSH2 0x80E JUMPI POP SWAP1 JUMPDEST PUSH1 0x0 MSTORE PUSH1 0xE DUP9 MSTORE PUSH1 0xFF PUSH1 0x40 PUSH1 0x0 KECCAK256 SLOAD AND PUSH1 0x2 DUP2 LT ISZERO PUSH2 0x737 JUMPI ISZERO PUSH2 0x7B5 JUMPI JUMPDEST SWAP1 PUSH2 0x4BE PUSH2 0x4C3 SWAP3 PUSH2 0x4B4 DUP4 PUSH1 0x8 SLOAD PUSH2 0x3395 JUMP JUMPDEST PUSH1 0x8 SSTORE DUP6 SLOAD PUSH2 0x2E39 JUMP JUMPDEST PUSH2 0x2E39 JUMP JUMPDEST DUP1 PUSH2 0x74D JUMPI JUMPDEST POP PUSH1 0x4 DUP6 ADD SLOAD DUP1 PUSH1 0x0 MSTORE PUSH1 0xE DUP8 MSTORE PUSH1 0xFF PUSH1 0x40 PUSH1 0x0 KECCAK256 SLOAD AND PUSH1 0x2 DUP2 LT ISZERO PUSH2 0x737 JUMPI PUSH2 0x6E8 JUMPI POP PUSH1 0x0 DUP1 DUP1 DUP1 DUP7 DUP12 SLOAD AND PUSH1 0x6 DUP11 ADD SLOAD SWAP1 GAS CALL PUSH2 0x507 PUSH2 0x35A8 JUMP JUMPDEST POP ISZERO PUSH2 0x6A3 JUMPI PUSH32 0x4D9113A1377D665EAA1F9168A9C9080F2E488CB820B10149DE3D6D2E0F2780C7 DUP7 DUP5 DUP2 SWAP10 JUMPDEST SLOAD AND SWAP4 SLOAD PUSH1 0x40 MLOAD SWAP1 DUP2 MSTORE LOG3 JUMPDEST PUSH1 0x1 PUSH1 0x5 DUP5 ADD SLOAD SWAP4 PUSH1 0x3 DUP2 ADD SWAP5 DUP6 SLOAD PUSH1 0x0 MSTORE PUSH1 0x14 DUP8 MSTORE PUSH2 0x565 PUSH1 0x40 PUSH1 0x0 KECCAK256 SWAP2 DUP3 SLOAD PUSH2 0x2E39 JUMP JUMPDEST SWAP1 SSTORE ADD SLOAD AND DUP1 PUSH1 0x0 MSTORE PUSH1 0x11 DUP5 MSTORE PUSH1 0x40 PUSH1 0x0 KECCAK256 PUSH1 0x1 DUP2 ADD PUSH2 0x58B DUP2 SLOAD DUP1 ISZERO PUSH2 0x699 JUMPI PUSH2 0x2DD1 JUMP JUMPDEST SWAP1 SSTORE TIMESTAMP PUSH1 0x6 DUP3 ADD SSTORE PUSH1 0x3 DUP2 ADD PUSH2 0x5A1 DUP2 SLOAD PUSH2 0x2DD1 JUMP JUMPDEST SWAP1 SSTORE DUP1 SLOAD PUSH1 0x64 DUP2 GT PUSH2 0x616 JUMPI JUMPDEST POP PUSH1 0x0 DUP1 MLOAD PUSH1 0x20 PUSH2 0x37CF DUP4 CODECOPY DUP2 MLOAD SWAP2 MSTORE SWAP5 PUSH1 0x0 DUP1 MLOAD PUSH1 0x20 PUSH2 0x37AF DUP4 CODECOPY DUP2 MLOAD SWAP2 MSTORE SWAP2 SLOAD PUSH1 0x40 MLOAD SWAP1 DUP2 MSTORE LOG2 SLOAD PUSH32 0x789B7097E8066538CFAA1132488B132E14BA5F0C938C8B7AAF8CF40356AAB0B PUSH1 0x0 DUP1 LOG2 SLOAD SWAP2 PUSH2 0x608 DUP4 PUSH2 0x33A2 JUMP JUMPDEST PUSH1 0x40 MLOAD SWAP1 DUP2 MSTORE LOG2 PUSH1 0x1 PUSH1 0x0 SSTORE STOP JUMPDEST SWAP5 POP DUP6 PUSH1 0x32 DUP7 GT ISZERO PUSH2 0x671 JUMPI POP PUSH1 0x31 NOT DUP6 ADD SWAP5 DUP6 GT PUSH2 0x65B JUMPI DUP6 PUSH1 0x0 DUP1 MLOAD PUSH1 0x20 PUSH2 0x37AF DUP4 CODECOPY DUP2 MLOAD SWAP2 MSTORE SWAP2 PUSH1 0x0 DUP1 MLOAD PUSH1 0x20 PUSH2 0x37CF DUP4 CODECOPY DUP2 MLOAD SWAP2 MSTORE SWAP7 JUMPDEST DUP2 SSTORE SWAP2 POP SWAP5 PUSH2 0x5AE JUMP JUMPDEST PUSH4 0x4E487B71 PUSH1 0xE0 SHL PUSH1 0x0 MSTORE PUSH1 0x11 PUSH1 0x4 MSTORE PUSH1 0x24 PUSH1 0x0 REVERT JUMPDEST PUSH1 0x0 DUP1 MLOAD PUSH1 0x20 PUSH2 0x37CF DUP4 CODECOPY DUP2 MLOAD SWAP2 MSTORE SWAP6 POP PUSH1 0x0 DUP1 MLOAD PUSH1 0x20 PUSH2 0x37AF DUP4 CODECOPY DUP2 MLOAD SWAP2 MSTORE SWAP2 PUSH1 0x64 PUSH2 0x651 JUMP JUMPDEST PUSH2 0x1F4 DUP5 SSTORE PUSH2 0x2DD1 JUMP JUMPDEST PUSH1 0x40 MLOAD PUSH3 0x461BCD PUSH1 0xE5 SHL DUP2 MSTORE PUSH1 0x4 DUP2 ADD DUP8 SWAP1 MSTORE PUSH1 0x1A PUSH1 0x24 DUP3 ADD MSTORE PUSH32 0x436F6C6C61746572616C207472616E73666572206661696C6564000000000000 PUSH1 0x44 DUP3 ADD MSTORE PUSH1 0x64 SWAP1 REVERT JUMPDEST DUP7 DUP5 DUP2 SWAP10 PUSH32 0x4D9113A1377D665EAA1F9168A9C9080F2E488CB820B10149DE3D6D2E0F2780C7 SWAP4 PUSH1 0x0 MSTORE PUSH1 0xE DUP4 MSTORE PUSH2 0x732 DUP3 PUSH1 0x40 PUSH1 0x0 KECCAK256 SLOAD PUSH1 0x8 SHR AND DUP4 DUP4 SLOAD AND PUSH1 0x6 DUP13 ADD SLOAD SWAP2 PUSH2 0x3619 JUMP JUMPDEST PUSH2 0x533 JUMP JUMPDEST PUSH4 0x4E487B71 PUSH1 0xE0 SHL PUSH1 0x0 MSTORE PUSH1 0x21 PUSH1 0x4 MSTORE PUSH1 0x24 PUSH1 0x0 REVERT JUMPDEST PUSH1 0x0 DUP1 DUP1 DUP1 SWAP4 DUP8 PUSH1 0x1 DUP12 ADD SLOAD AND GAS CALL PUSH2 0x764 PUSH2 0x35A8 JUMP JUMPDEST POP ISZERO PUSH2 0x770 JUMPI DUP8 PUSH2 0x4C9 JUMP JUMPDEST PUSH1 0x40 MLOAD PUSH3 0x461BCD PUSH1 0xE5 SHL DUP2 MSTORE PUSH1 0x4 DUP2 ADD DUP8 SWAP1 MSTORE PUSH1 0x17 PUSH1 0x24 DUP3 ADD MSTORE PUSH32 0x426F72726F776572207061796D656E74206661696C6564000000000000000000 PUSH1 0x44 DUP3 ADD MSTORE PUSH1 0x64 SWAP1 REVERT JUMPDEST PUSH1 0x0 DUP1 DUP1 DUP1 DUP5 DUP10 PUSH1 0x2 DUP14 ADD SLOAD AND GAS CALL PUSH2 0x7CC PUSH2 0x35A8 JUMP JUMPDEST POP PUSH2 0x4A0 JUMPI PUSH1 0x40 MLOAD PUSH3 0x461BCD PUSH1 0xE5 SHL DUP2 MSTORE PUSH1 0x4 DUP2 ADD DUP10 SWAP1 MSTORE PUSH1 0x15 PUSH1 0x24 DUP3 ADD MSTORE PUSH21 0x13195B99195C881C185E5B595B9D0819985A5B1959 PUSH1 0x5A SHL PUSH1 0x44 DUP3 ADD MSTORE PUSH1 0x64 SWAP1 REVERT JUMPDEST SWAP1 POP SWAP1 PUSH2 0x481 JUMP JUMPDEST SWAP1 POP DUP5 SWAP6 POP PUSH1 0x3 PUSH1 0xC DUP6 ADD SWAP2 DUP3 SLOAD AND OR SWAP1 SSTORE PUSH2 0x832 DUP3 SLOAD PUSH2 0x3669 JUMP JUMPDEST PUSH2 0x53F JUMP JUMPDEST PUSH1 0x40 MLOAD PUSH3 0x461BCD PUSH1 0xE5 SHL DUP2 MSTORE PUSH1 0x4 DUP2 ADD DUP6 SWAP1 MSTORE PUSH1 0x15 PUSH1 0x24 DUP3 ADD MSTORE PUSH21 0x41756374696F6E207374696C6C206F6E676F696E67 PUSH1 0x58 SHL PUSH1 0x44 DUP3 ADD MSTORE PUSH1 0x64 SWAP1 REVERT JUMPDEST CALLVALUE PUSH2 0x264 JUMPI PUSH1 0x80 CALLDATASIZE PUSH1 0x3 NOT ADD SLT PUSH2 0x264 JUMPI PUSH1 0x24 CALLDATALOAD PUSH1 0x4 CALLDATALOAD PUSH2 0x893 PUSH2 0x2D99 JUMP JUMPDEST PUSH2 0x2710 DUP3 GT PUSH2 0x8F3 JUMPI PUSH2 0x7D0 DUP2 GT PUSH2 0x8B9 JUMPI PUSH1 0x9 SSTORE PUSH1 0xA SSTORE PUSH1 0x44 CALLDATALOAD PUSH1 0xB SSTORE PUSH1 0x64 CALLDATALOAD PUSH1 0xC SSTORE STOP JUMPDEST PUSH1 0x40 MLOAD PUSH3 0x461BCD PUSH1 0xE5 SHL DUP2 MSTORE PUSH1 0x20 PUSH1 0x4 DUP3 ADD MSTORE PUSH1 0x12 PUSH1 0x24 DUP3 ADD MSTORE PUSH18 0x84C2E6CA40E4C2E8CA40E8DEDE40D0D2CED PUSH1 0x73 SHL PUSH1 0x44 DUP3 ADD MSTORE PUSH1 0x64 SWAP1 REVERT JUMPDEST PUSH1 0x40 MLOAD PUSH3 0x461BCD PUSH1 0xE5 SHL DUP2 MSTORE PUSH1 0x20 PUSH1 0x4 DUP3 ADD MSTORE PUSH1 0x1B PUSH1 0x24 DUP3 ADD MSTORE PUSH32 0x496E76616C6964206F7074696D616C207574696C697A6174696F6E0000000000 PUSH1 0x44 DUP3 ADD MSTORE PUSH1 0x64 SWAP1 REVERT JUMPDEST CALLVALUE PUSH2 0x264 JUMPI PUSH1 0x40 CALLDATASIZE PUSH1 0x3 NOT ADD SLT PUSH2 0x264 JUMPI PUSH2 0x951 PUSH2 0x2B1E JUMP JUMPDEST PUSH1 0x1 PUSH1 0x1 PUSH1 0xA0 SHL SUB AND PUSH1 0x0 SWAP1 DUP2 MSTORE PUSH1 0xF PUSH1 0x20 MSTORE PUSH1 0x40 SWAP1 KECCAK256 DUP1 SLOAD PUSH1 0x24 CALLDATALOAD SWAP2 SWAP1 DUP3 LT ISZERO PUSH2 0x264 JUMPI PUSH1 0x20 SWAP2 PUSH2 0x982 SWAP2 PUSH2 0x2B34 JUMP JUMPDEST SWAP1 SLOAD PUSH1 0x40 MLOAD SWAP2 PUSH1 0x3 SHL SHR DUP2 MSTORE RETURN JUMPDEST CALLVALUE PUSH2 0x264 JUMPI PUSH1 0x20 CALLDATASIZE PUSH1 0x3 NOT ADD SLT PUSH2 0x264 JUMPI PUSH1 0x4 CALLDATALOAD PUSH1 0x0 MSTORE PUSH1 0xD PUSH1 0x20 MSTORE PUSH1 0x40 PUSH1 0x0 KECCAK256 DUP1 SLOAD PUSH1 0x1 DUP1 PUSH1 0xA0 SHL SUB DUP1 PUSH1 0x1 DUP5 ADD SLOAD AND PUSH1 0xA0 MSTORE PUSH1 0x2 DUP4 ADD SLOAD AND SWAP2 PUSH1 0x3 DUP2 ADD SLOAD PUSH1 0x4 DUP3 ADD SLOAD PUSH1 0x5 DUP4 ADD SLOAD PUSH1 0x6 DUP5 ADD SLOAD PUSH1 0x7 DUP6 ADD SLOAD PUSH1 0x8 DUP7 ADD SLOAD SWAP1 PUSH1 0x9 DUP8 ADD SLOAD SWAP3 PUSH1 0xA DUP9 ADD SLOAD SWAP5 PUSH1 0xB DUP10 ADD SLOAD SWAP7 PUSH1 0xFF PUSH1 0xC DUP12 ADD SLOAD AND SWAP9 PUSH2 0xA11 PUSH1 0xD DUP13 ADD PUSH2 0x2CB3 JUMP JUMPDEST PUSH1 0xE0 MSTORE PUSH1 0xE DUP12 ADD SLOAD PUSH1 0xC0 MSTORE PUSH1 0xFF PUSH1 0xF DUP13 ADD SLOAD AND SWAP13 PUSH1 0x11 PUSH1 0x10 DUP14 ADD SLOAD SWAP13 ADD SLOAD SWAP13 PUSH1 0x40 MLOAD DUP1 PUSH1 0x80 MSTORE MSTORE PUSH1 0xA0 MLOAD PUSH1 0x20 PUSH1 0x80 MLOAD ADD MSTORE PUSH1 0x40 PUSH1 0x80 MLOAD ADD MSTORE PUSH1 0x60 PUSH1 0x80 MLOAD ADD MSTORE PUSH1 0x80 DUP1 MLOAD ADD MSTORE PUSH1 0xA0 PUSH1 0x80 MLOAD ADD MSTORE PUSH1 0xC0 PUSH1 0x80 MLOAD ADD MSTORE PUSH1 0xE0 PUSH1 0x80 MLOAD ADD MSTORE PUSH2 0x100 PUSH1 0x80 MLOAD ADD MSTORE PUSH2 0x120 PUSH1 0x80 MLOAD ADD MSTORE PUSH2 0x140 PUSH1 0x80 MLOAD ADD MSTORE PUSH2 0x160 PUSH1 0x80 MLOAD ADD MSTORE PUSH1 0x6 DUP2 LT ISZERO PUSH2 0x737 JUMPI PUSH2 0x180 PUSH1 0x80 MLOAD ADD MSTORE PUSH2 0xAB7 PUSH2 0x240 DUP1 PUSH2 0x1A0 PUSH1 0x80 MLOAD ADD MSTORE PUSH1 0x80 MLOAD ADD PUSH1 0xE0 MLOAD PUSH2 0x2D59 JUMP JUMPDEST SWAP3 PUSH1 0xC0 MLOAD PUSH2 0x1C0 PUSH1 0x80 MLOAD ADD MSTORE ISZERO ISZERO PUSH2 0x1E0 PUSH1 0x80 MLOAD ADD MSTORE PUSH2 0x200 PUSH1 0x80 MLOAD ADD MSTORE PUSH2 0x220 PUSH1 0x80 MLOAD ADD MSTORE PUSH1 0x80 MLOAD DUP1 SWAP2 SUB SWAP1 RETURN JUMPDEST PUSH1 0xC0 CALLDATASIZE PUSH1 0x3 NOT ADD SLT PUSH2 0x264 JUMPI PUSH1 0xA4 CALLDATALOAD PUSH8 0xFFFFFFFFFFFFFFFF DUP2 GT PUSH2 0x264 JUMPI PUSH2 0xB12 SWAP1 CALLDATASIZE SWAP1 PUSH1 0x4 ADD PUSH2 0x2BD9 JUMP JUMPDEST PUSH2 0xB1A PUSH2 0x3585 JUMP JUMPDEST PUSH2 0xB22 PUSH2 0x3564 JUMP JUMPDEST PUSH1 0x44 CALLDATALOAD ISZERO PUSH2 0x12EA JUMPI PUSH3 0x15180 PUSH1 0x84 CALLDATALOAD LT ISZERO DUP1 PUSH2 0x12DA JUMPI JUMPDEST PUSH2 0xB42 SWAP1 PUSH2 0x343A JUMP JUMPDEST PUSH1 0x4 CALLDATALOAD PUSH1 0x0 MSTORE PUSH1 0xE PUSH1 0x20 MSTORE PUSH2 0xB64 PUSH1 0xFF PUSH1 0x2 PUSH1 0x40 PUSH1 0x0 KECCAK256 ADD SLOAD PUSH1 0x8 SHR AND PUSH2 0x2DE0 JUMP JUMPDEST PUSH1 0x24 CALLDATALOAD PUSH1 0x0 MSTORE PUSH1 0xE PUSH1 0x20 MSTORE PUSH1 0xFF PUSH1 0x2 PUSH1 0x40 PUSH1 0x0 KECCAK256 ADD SLOAD PUSH1 0x8 SHR AND ISZERO PUSH2 0x1295 JUMPI DUP1 MLOAD ISZERO PUSH2 0x125B JUMPI CALLER PUSH1 0x0 MSTORE PUSH1 0x11 PUSH1 0x20 MSTORE PUSH1 0x40 PUSH1 0x0 KECCAK256 PUSH1 0x64 DUP2 SLOAD LT SWAP1 DUP2 ISZERO SWAP2 PUSH2 0x124E JUMPI JUMPDEST POP ISZERO PUSH2 0x1212 JUMPI PUSH2 0xBB7 PUSH1 0x4 CALLDATALOAD PUSH2 0x33A2 JUMP JUMPDEST SWAP1 PUSH1 0x64 CALLDATALOAD DUP3 GT PUSH2 0x11D4 JUMPI PUSH2 0xBCF PUSH1 0x44 CALLDATALOAD PUSH1 0x4 CALLDATALOAD PUSH2 0x3085 JUMP JUMPDEST DUP1 PUSH1 0x96 DUP2 MUL DIV PUSH1 0x96 EQ DUP2 ISZERO OR ISZERO PUSH2 0x65B JUMPI PUSH2 0xC89 SWAP1 PUSH2 0xC84 PUSH2 0xBF2 PUSH1 0x24 CALLDATALOAD PUSH2 0x2E46 JUMP JUMPDEST POP SWAP2 PUSH1 0x24 CALLDATALOAD PUSH1 0x0 MSTORE PUSH1 0xE PUSH1 0x20 MSTORE PUSH1 0x64 PUSH1 0x96 PUSH2 0xC7C PUSH1 0x40 PUSH1 0x0 KECCAK256 PUSH1 0x2 PUSH1 0x40 MLOAD SWAP2 PUSH2 0xC1A DUP4 PUSH2 0x2B62 JUMP JUMPDEST DUP1 SLOAD PUSH2 0xC29 PUSH1 0xFF DUP3 AND DUP6 PUSH2 0x2DC5 JUMP JUMPDEST PUSH1 0x8 SHR PUSH1 0x1 PUSH1 0x1 PUSH1 0xA0 SHL SUB AND PUSH1 0x20 DUP5 ADD MSTORE PUSH2 0xC46 PUSH1 0x1 DUP3 ADD PUSH2 0x2CB3 JUMP JUMPDEST PUSH1 0x40 DUP5 ADD MSTORE ADD SLOAD SWAP1 PUSH1 0xA0 PUSH1 0xFF DUP4 AND SWAP3 DUP4 PUSH1 0x60 DUP5 ADD MSTORE PUSH1 0xFF DUP2 PUSH1 0x8 SHR AND ISZERO ISZERO PUSH1 0x80 DUP5 ADD MSTORE PUSH1 0x1 DUP1 DUP4 SHL SUB SWAP1 PUSH1 0x10 SHR AND SWAP2 ADD MSTORE PUSH2 0x3054 JUMP JUMPDEST SWAP3 MUL DIV PUSH2 0x3041 JUMP JUMPDEST PUSH2 0x3065 JUMP JUMPDEST PUSH1 0x24 CALLDATALOAD PUSH1 0x0 MSTORE PUSH1 0xE PUSH1 0x20 MSTORE PUSH1 0xFF PUSH1 0x40 PUSH1 0x0 KECCAK256 SLOAD AND PUSH1 0x2 DUP2 LT ISZERO PUSH2 0x737 JUMPI PUSH2 0x1097 JUMPI DUP1 CALLVALUE LT PUSH2 0x1052 JUMPI JUMPDEST PUSH1 0x2 SLOAD SWAP1 PUSH2 0xCBF DUP3 PUSH2 0x2DD1 JUMP JUMPDEST PUSH1 0x2 SSTORE PUSH1 0x24 CALLDATALOAD PUSH1 0x0 MSTORE PUSH1 0xE PUSH1 0x20 MSTORE PUSH1 0xFF PUSH1 0x40 PUSH1 0x0 KECCAK256 SLOAD AND PUSH1 0x2 DUP2 LT ISZERO PUSH2 0x737 JUMPI PUSH2 0x104D JUMPI POP CALLVALUE JUMPDEST PUSH1 0x40 MLOAD SWAP1 PUSH2 0xCF3 DUP3 PUSH2 0x2B7E JUMP JUMPDEST DUP3 DUP3 MSTORE CALLER PUSH1 0x20 DUP4 ADD MSTORE PUSH1 0x0 PUSH1 0x40 DUP4 ADD MSTORE PUSH1 0x4 CALLDATALOAD PUSH1 0x60 DUP4 ADD MSTORE PUSH1 0x24 CALLDATALOAD PUSH1 0x80 DUP4 ADD MSTORE PUSH1 0x44 CALLDATALOAD PUSH1 0xA0 DUP4 ADD MSTORE PUSH1 0xC0 DUP3 ADD MSTORE DUP4 PUSH1 0xE0 DUP3 ADD MSTORE PUSH1 0x84 CALLDATALOAD PUSH2 0x100 DUP3 ADD MSTORE TIMESTAMP PUSH2 0x120 DUP3 ADD MSTORE PUSH1 0x0 PUSH2 0x140 DUP3 ADD MSTORE PUSH1 0x0 PUSH2 0x160 DUP3 ADD MSTORE PUSH1 0x0 PUSH2 0x180 DUP3 ADD MSTORE DUP3 PUSH2 0x1A0 DUP3 ADD MSTORE PUSH1 0x0 PUSH2 0x1C0 DUP3 ADD MSTORE PUSH1 0x0 PUSH2 0x1E0 DUP3 ADD MSTORE PUSH1 0x78 PUSH2 0x200 DUP3 ADD MSTORE TIMESTAMP PUSH2 0x220 DUP3 ADD MSTORE DUP2 PUSH1 0x0 MSTORE PUSH1 0xD PUSH1 0x20 MSTORE PUSH1 0x40 PUSH1 0x0 KECCAK256 SWAP1 DUP1 MLOAD DUP3 SSTORE PUSH1 0x1 DUP3 ADD PUSH1 0x1 DUP1 PUSH1 0xA0 SHL SUB PUSH1 0x20 DUP4 ADD MLOAD AND SWAP1 PUSH1 0x1 PUSH1 0x1 PUSH1 0x60 SHL SUB PUSH1 0xA0 SHL SWAP2 DUP3 DUP3 SLOAD AND OR SWAP1 SSTORE PUSH1 0x2 DUP4 ADD SWAP1 PUSH1 0x1 DUP1 PUSH1 0xA0 SHL SUB PUSH1 0x40 DUP5 ADD MLOAD AND SWAP1 DUP3 SLOAD AND OR SWAP1 SSTORE PUSH1 0x60 DUP2 ADD MLOAD PUSH1 0x3 DUP4 ADD SSTORE PUSH1 0x80 DUP2 ADD MLOAD PUSH1 0x4 DUP4 ADD SSTORE PUSH1 0xA0 DUP2 ADD MLOAD PUSH1 0x5 DUP4 ADD SSTORE PUSH1 0xC0 DUP2 ADD MLOAD PUSH1 0x6 DUP4 ADD SSTORE PUSH1 0xE0 DUP2 ADD MLOAD PUSH1 0x7 DUP4 ADD SSTORE PUSH2 0x100 DUP2 ADD MLOAD PUSH1 0x8 DUP4 ADD SSTORE PUSH2 0x120 DUP2 ADD MLOAD PUSH1 0x9 DUP4 ADD SSTORE PUSH2 0x140 DUP2 ADD MLOAD PUSH1 0xA DUP4 ADD SSTORE PUSH2 0x160 DUP2 ADD MLOAD PUSH1 0xB DUP4 ADD SSTORE PUSH1 0xC DUP3 ADD PUSH2 0x180 DUP3 ADD MLOAD PUSH1 0x6 DUP2 LT ISZERO PUSH2 0x737 JUMPI PUSH1 0xFF DUP1 NOT DUP4 SLOAD AND SWAP2 AND OR SWAP1 SSTORE PUSH2 0x1A0 DUP2 ADD MLOAD DUP1 MLOAD SWAP1 PUSH8 0xFFFFFFFFFFFFFFFF DUP3 GT PUSH2 0x1037 JUMPI PUSH2 0xE67 PUSH1 0xD DUP6 ADD SLOAD PUSH2 0x2C79 JUMP JUMPDEST PUSH1 0x1F DUP2 GT PUSH2 0xFF0 JUMPI JUMPDEST POP PUSH1 0x20 SWAP1 PUSH1 0x1F DUP4 GT PUSH1 0x1 EQ PUSH2 0xF7A JUMPI SWAP2 DUP1 PUSH1 0x11 SWAP5 SWAP3 PUSH2 0x220 SWAP5 PUSH1 0x0 SWAP3 PUSH2 0xF6F JUMPI JUMPDEST POP POP DUP2 PUSH1 0x1 SHL SWAP2 PUSH1 0x0 NOT SWAP1 PUSH1 0x3 SHL SHR NOT AND OR PUSH1 0xD DUP6 ADD SSTORE JUMPDEST PUSH2 0x1C0 DUP2 ADD MLOAD PUSH1 0xE DUP6 ADD SSTORE PUSH2 0xED4 PUSH2 0x1E0 DUP3 ADD MLOAD ISZERO ISZERO PUSH1 0xF DUP7 ADD SWAP1 PUSH1 0xFF DUP1 NOT DUP4 SLOAD AND SWAP2 ISZERO ISZERO AND OR SWAP1 SSTORE JUMP JUMPDEST PUSH2 0x200 DUP2 ADD MLOAD PUSH1 0x10 DUP6 ADD SSTORE ADD MLOAD SWAP2 ADD SSTORE CALLER PUSH1 0x0 MSTORE PUSH1 0xF PUSH1 0x20 MSTORE PUSH2 0xEFB DUP2 PUSH1 0x40 PUSH1 0x0 KECCAK256 PUSH2 0x3479 JUMP JUMPDEST DUP1 PUSH1 0x0 MSTORE PUSH1 0xD PUSH1 0x20 MSTORE PUSH1 0x6 PUSH1 0x40 PUSH1 0x0 KECCAK256 ADD SLOAD SWAP3 PUSH1 0x40 MLOAD SWAP4 PUSH1 0x44 CALLDATALOAD DUP6 MSTORE PUSH1 0x20 DUP6 ADD MSTORE PUSH1 0x40 DUP5 ADD MSTORE PUSH1 0x84 CALLDATALOAD PUSH1 0x60 DUP5 ADD MSTORE PUSH1 0xA0 PUSH1 0x80 DUP5 ADD MSTORE PUSH32 0x5CB01012DBDED0C72D8576B4AEF55D60D8E2824466AC6F54F7822CC1DDB6AF3 PUSH1 0x4 CALLDATALOAD SWAP4 DUP1 PUSH2 0xF65 CALLER SWAP6 PUSH1 0xA0 DUP4 ADD SWAP1 PUSH2 0x2D59 JUMP JUMPDEST SUB SWAP1 LOG4 PUSH1 0x1 PUSH1 0x0 SSTORE STOP JUMPDEST ADD MLOAD SWAP1 POP DUP10 DUP1 PUSH2 0xE91 JUMP JUMPDEST SWAP1 PUSH1 0xD DUP6 ADD PUSH1 0x0 MSTORE PUSH1 0x20 PUSH1 0x0 KECCAK256 SWAP2 PUSH1 0x0 JUMPDEST PUSH1 0x1F NOT DUP6 AND DUP2 LT PUSH2 0xFD8 JUMPI POP SWAP3 PUSH1 0x11 SWAP5 SWAP3 PUSH1 0x1 SWAP3 PUSH2 0x220 SWAP6 DUP4 PUSH1 0x1F NOT DUP2 AND LT PUSH2 0xFBF JUMPI JUMPDEST POP POP POP DUP2 SHL ADD PUSH1 0xD DUP6 ADD SSTORE PUSH2 0xEA9 JUMP JUMPDEST ADD MLOAD PUSH1 0x0 NOT PUSH1 0xF8 DUP5 PUSH1 0x3 SHL AND SHR NOT AND SWAP1 SSTORE DUP10 DUP1 DUP1 PUSH2 0xFAF JUMP JUMPDEST SWAP2 SWAP3 PUSH1 0x20 PUSH1 0x1 DUP2 SWAP3 DUP7 DUP6 ADD MLOAD DUP2 SSTORE ADD SWAP5 ADD SWAP3 ADD PUSH2 0xF8B JUMP JUMPDEST PUSH1 0xD DUP6 ADD PUSH1 0x0 MSTORE PUSH1 0x20 PUSH1 0x0 KECCAK256 PUSH1 0x1F DUP5 ADD PUSH1 0x5 SHR DUP2 ADD PUSH1 0x20 DUP6 LT PUSH2 0x1030 JUMPI JUMPDEST PUSH1 0x1F DUP4 ADD PUSH1 0x5 SHR DUP3 ADD DUP2 LT PUSH2 0x1024 JUMPI POP POP PUSH2 0xE70 JUMP JUMPDEST PUSH1 0x0 DUP2 SSTORE PUSH1 0x1 ADD PUSH2 0x100E JUMP JUMPDEST POP DUP1 PUSH2 0x100E JUMP JUMPDEST PUSH4 0x4E487B71 PUSH1 0xE0 SHL PUSH1 0x0 MSTORE PUSH1 0x41 PUSH1 0x4 MSTORE PUSH1 0x24 PUSH1 0x0 REVERT JUMPDEST PUSH2 0xCE6 JUMP JUMPDEST PUSH1 0x40 MLOAD PUSH3 0x461BCD PUSH1 0xE5 SHL DUP2 MSTORE PUSH1 0x20 PUSH1 0x4 DUP3 ADD MSTORE PUSH1 0x1B PUSH1 0x24 DUP3 ADD MSTORE PUSH32 0x496E73756666696369656E742045544820636F6C6C61746572616C0000000000 PUSH1 0x44 DUP3 ADD MSTORE PUSH1 0x64 SWAP1 REVERT JUMPDEST CALLVALUE PUSH2 0x1183 JUMPI PUSH1 0x24 CALLDATALOAD PUSH1 0x0 MSTORE PUSH1 0xE PUSH1 0x20 MSTORE PUSH1 0x1 DUP1 PUSH1 0xA0 SHL SUB PUSH1 0x40 PUSH1 0x0 KECCAK256 SLOAD PUSH1 0x8 SHR AND PUSH1 0x40 MLOAD PUSH4 0x70A08231 PUSH1 0xE0 SHL DUP2 MSTORE CALLER PUSH1 0x4 DUP3 ADD MSTORE PUSH1 0x20 DUP2 PUSH1 0x24 DUP2 DUP6 GAS STATICCALL DUP1 ISZERO PUSH2 0x1177 JUMPI DUP4 SWAP2 PUSH1 0x0 SWAP2 PUSH2 0x1142 JUMPI JUMPDEST POP LT PUSH2 0x10FD JUMPI DUP2 PUSH2 0x10F8 SWAP2 ADDRESS SWAP1 CALLER SWAP1 PUSH2 0x34B3 JUMP JUMPDEST PUSH2 0xCB2 JUMP JUMPDEST PUSH1 0x40 MLOAD PUSH3 0x461BCD PUSH1 0xE5 SHL DUP2 MSTORE PUSH1 0x20 PUSH1 0x4 DUP3 ADD MSTORE PUSH1 0x1A PUSH1 0x24 DUP3 ADD MSTORE PUSH32 0x496E73756666696369656E742045524332302062616C616E6365000000000000 PUSH1 0x44 DUP3 ADD MSTORE PUSH1 0x64 SWAP1 REVERT JUMPDEST SWAP2 POP POP PUSH1 0x20 DUP2 RETURNDATASIZE PUSH1 0x20 GT PUSH2 0x116F JUMPI JUMPDEST DUP2 PUSH2 0x115E PUSH1 0x20 SWAP4 DUP4 PUSH2 0x2B9B JUMP JUMPDEST DUP2 ADD SUB SLT PUSH2 0x264 JUMPI DUP3 SWAP1 MLOAD DUP7 PUSH2 0x10E4 JUMP JUMPDEST RETURNDATASIZE SWAP2 POP PUSH2 0x1151 JUMP JUMPDEST PUSH1 0x40 MLOAD RETURNDATASIZE PUSH1 0x0 DUP3 RETURNDATACOPY RETURNDATASIZE SWAP1 REVERT JUMPDEST PUSH1 0x40 MLOAD PUSH3 0x461BCD PUSH1 0xE5 SHL DUP2 MSTORE PUSH1 0x20 PUSH1 0x4 DUP3 ADD MSTORE PUSH1 0x23 PUSH1 0x24 DUP3 ADD MSTORE PUSH32 0x455448206E6F74206E656564656420666F7220455243323020636F6C6C617465 PUSH1 0x44 DUP3 ADD MSTORE PUSH3 0x1C985B PUSH1 0xEA SHL PUSH1 0x64 DUP3 ADD MSTORE PUSH1 0x84 SWAP1 REVERT JUMPDEST PUSH1 0x40 MLOAD PUSH3 0x461BCD PUSH1 0xE5 SHL DUP2 MSTORE PUSH1 0x20 PUSH1 0x4 DUP3 ADD MSTORE PUSH1 0x16 PUSH1 0x24 DUP3 ADD MSTORE PUSH22 0x92DCE8CAE4CAE6E840E4C2E8CA40E8DEDE40D0D2CED PUSH1 0x53 SHL PUSH1 0x44 DUP3 ADD MSTORE PUSH1 0x64 SWAP1 REVERT JUMPDEST PUSH1 0x40 MLOAD PUSH3 0x461BCD PUSH1 0xE5 SHL DUP2 MSTORE PUSH1 0x20 PUSH1 0x4 DUP3 ADD MSTORE PUSH1 0x14 PUSH1 0x24 DUP3 ADD MSTORE PUSH20 0x4372656469742073636F726520746F6F206C6F77 PUSH1 0x60 SHL PUSH1 0x44 DUP3 ADD MSTORE PUSH1 0x64 SWAP1 REVERT JUMPDEST PUSH1 0x1 SWAP2 POP ADD SLOAD ISZERO DUP3 PUSH2 0xBA6 JUMP JUMPDEST PUSH1 0x40 MLOAD PUSH3 0x461BCD PUSH1 0xE5 SHL DUP2 MSTORE PUSH1 0x20 PUSH1 0x4 DUP3 ADD MSTORE PUSH1 0x12 PUSH1 0x24 DUP3 ADD MSTORE PUSH18 0x12541194C81A185CDA081C995C5D5A5C9959 PUSH1 0x72 SHL PUSH1 0x44 DUP3 ADD MSTORE PUSH1 0x64 SWAP1 REVERT JUMPDEST PUSH1 0x40 MLOAD PUSH3 0x461BCD PUSH1 0xE5 SHL DUP2 MSTORE PUSH1 0x20 PUSH1 0x4 DUP3 ADD MSTORE PUSH1 0x1E PUSH1 0x24 DUP3 ADD MSTORE PUSH32 0x436F6C6C61746572616C20746F6B656E206E6F7420737570706F727465640000 PUSH1 0x44 DUP3 ADD MSTORE PUSH1 0x64 SWAP1 REVERT JUMPDEST POP PUSH4 0x1E13380 PUSH1 0x84 CALLDATALOAD GT ISZERO PUSH2 0xB39 JUMP JUMPDEST PUSH1 0x40 MLOAD PUSH3 0x461BCD PUSH1 0xE5 SHL DUP2 MSTORE PUSH1 0x20 PUSH1 0x4 DUP3 ADD MSTORE PUSH1 0x1D PUSH1 0x24 DUP3 ADD MSTORE PUSH32 0x416D6F756E74206D7573742062652067726561746572207468616E2030000000 PUSH1 0x44 DUP3 ADD MSTORE PUSH1 0x64 SWAP1 REVERT JUMPDEST CALLVALUE PUSH2 0x264 JUMPI PUSH1 0x20 DUP1 PUSH1 0x3 NOT CALLDATASIZE ADD SLT PUSH2 0x264 JUMPI PUSH1 0x4 CALLDATALOAD SWAP1 PUSH2 0x134D PUSH2 0x3585 JUMP JUMPDEST PUSH2 0x1356 DUP3 PUSH2 0x31E7 JUMP JUMPDEST SWAP2 SWAP1 ISZERO PUSH2 0x15BC JUMPI DUP3 PUSH1 0x0 MSTORE PUSH1 0xD DUP2 MSTORE PUSH1 0x40 PUSH1 0x0 KECCAK256 SWAP2 PUSH1 0xC DUP4 ADD PUSH1 0x5 PUSH1 0xFF NOT DUP3 SLOAD AND OR SWAP1 SSTORE PUSH1 0x40 MLOAD SWAP2 PUSH2 0x1387 DUP4 PUSH2 0x2B7E JUMP JUMPDEST DUP4 SLOAD DUP4 MSTORE PUSH1 0x1 DUP1 PUSH1 0xA0 SHL SUB SWAP4 DUP5 PUSH1 0x1 DUP3 ADD SLOAD AND DUP3 DUP6 ADD MSTORE DUP5 PUSH1 0x2 DUP3 ADD SLOAD AND PUSH1 0x40 DUP6 ADD MSTORE PUSH1 0x3 DUP2 ADD SLOAD PUSH1 0x60 DUP6 ADD MSTORE PUSH2 0x1468 PUSH1 0x4 DUP3 ADD SLOAD PUSH1 0x80 DUP7 ADD SWAP1 DUP2 MSTORE PUSH1 0x5 DUP4 ADD SLOAD PUSH1 0xA0 DUP8 ADD MSTORE PUSH1 0x6 DUP4 ADD SLOAD SWAP1 PUSH1 0xC0 DUP8 ADD SWAP2 DUP3 MSTORE PUSH1 0x7 DUP5 ADD SLOAD PUSH1 0xE0 DUP9 ADD MSTORE PUSH1 0x8 DUP5 ADD SLOAD SWAP7 PUSH2 0x100 SWAP8 DUP9 DUP3 ADD MSTORE PUSH1 0x9 DUP6 ADD SLOAD PUSH2 0x120 DUP3 ADD MSTORE PUSH1 0xA DUP6 ADD SLOAD PUSH2 0x140 DUP3 ADD MSTORE PUSH1 0xB DUP6 ADD SLOAD PUSH2 0x160 DUP3 ADD MSTORE PUSH1 0x5 PUSH2 0x180 DUP3 ADD MSTORE PUSH2 0x1427 PUSH1 0xD DUP7 ADD PUSH2 0x2CB3 JUMP JUMPDEST PUSH2 0x1A0 DUP3 ADD MSTORE PUSH1 0xE DUP6 ADD SLOAD PUSH2 0x1C0 DUP3 ADD MSTORE PUSH1 0xFF PUSH1 0xF DUP7 ADD SLOAD AND ISZERO ISZERO PUSH2 0x1E0 DUP3 ADD MSTORE PUSH2 0x220 PUSH1 0x11 PUSH1 0x10 DUP8 ADD SWAP7 DUP8 SLOAD PUSH2 0x200 DUP6 ADD MSTORE ADD SLOAD SWAP2 ADD MSTORE MLOAD SWAP1 MLOAD SWAP1 PUSH2 0x3085 JUMP JUMPDEST SWAP4 PUSH1 0x50 DUP6 MUL DUP6 DUP2 DIV PUSH1 0x50 EQ DUP7 ISZERO OR ISZERO PUSH2 0x65B JUMPI PUSH1 0x4 SLOAD SWAP1 PUSH2 0x1488 DUP3 PUSH2 0x2DD1 JUMP JUMPDEST PUSH1 0x4 SSTORE PUSH3 0x15180 TIMESTAMP ADD SWAP8 DUP9 TIMESTAMP GT PUSH2 0x65B JUMPI PUSH1 0x40 MLOAD SWAP4 DUP5 ADD SWAP8 DUP5 DUP10 LT PUSH8 0xFFFFFFFFFFFFFFFF DUP11 GT OR PUSH2 0x1037 JUMPI PUSH32 0x7C37BB4475912066C94A3F055866BDADCF52198B65CB65ABA2F5BE08DFEB575D SWAP10 PUSH2 0x15A0 DUP13 SWAP7 PUSH1 0x7 DUP8 DUP12 PUSH32 0xA832766A05F1BD0298B0268308621777CFE1E4EEA23AFE7C06BEEA79BC6DDD2D SWAP9 PUSH1 0x40 SWAP16 SWAP9 PUSH1 0x40 SWAP10 DUP11 MSTORE DUP13 DUP7 MSTORE DUP3 DUP7 ADD SWAP2 TIMESTAMP DUP4 MSTORE DUP11 DUP8 ADD DUP10 DUP2 MSTORE PUSH1 0x60 DUP9 ADD SWAP1 DUP12 DUP3 MSTORE PUSH1 0x64 PUSH1 0x80 DUP11 ADD SWAP4 DIV DUP4 MSTORE PUSH1 0xA0 DUP10 ADD SWAP5 PUSH1 0x0 DUP7 MSTORE PUSH1 0x13 PUSH1 0xC0 DUP12 ADD SWAP8 PUSH1 0x0 DUP10 MSTORE PUSH1 0xE0 DUP13 ADD SWAP10 PUSH1 0x1 DUP12 MSTORE PUSH1 0x0 MSTORE MSTORE DUP14 PUSH1 0x0 KECCAK256 SWAP10 MLOAD DUP11 SSTORE MLOAD PUSH1 0x1 DUP11 ADD SSTORE MLOAD PUSH1 0x2 DUP10 ADD SSTORE MLOAD PUSH1 0x3 DUP9 ADD SSTORE MLOAD PUSH1 0x4 DUP8 ADD SSTORE PUSH1 0x5 DUP7 ADD SWAP2 MLOAD AND PUSH1 0x1 PUSH1 0x1 PUSH1 0x60 SHL SUB PUSH1 0xA0 SHL DUP3 SLOAD AND OR SWAP1 SSTORE MLOAD PUSH1 0x6 DUP5 ADD SSTORE MLOAD ISZERO ISZERO SWAP2 ADD SWAP1 PUSH1 0xFF DUP1 NOT DUP4 SLOAD AND SWAP2 ISZERO ISZERO AND OR SWAP1 SSTORE JUMP JUMPDEST DUP3 MLOAD SWAP2 DUP3 MSTORE DUP8 DUP3 ADD MSTORE LOG3 SLOAD SWAP1 DUP4 MLOAD SWAP3 DUP4 MSTORE DUP3 ADD MSTORE LOG2 PUSH1 0x1 PUSH1 0x0 SSTORE STOP JUMPDEST PUSH1 0x64 SWAP1 PUSH1 0x40 MLOAD SWAP1 PUSH3 0x461BCD PUSH1 0xE5 SHL DUP3 MSTORE PUSH1 0x4 DUP3 ADD MSTORE PUSH1 0x16 PUSH1 0x24 DUP3 ADD MSTORE PUSH22 0x2637B0B71034B9903737BA103AB73232B93BB0BA32B9 PUSH1 0x51 SHL PUSH1 0x44 DUP3 ADD MSTORE REVERT JUMPDEST CALLVALUE PUSH2 0x264 JUMPI PUSH1 0x20 CALLDATASIZE PUSH1 0x3 NOT ADD SLT PUSH2 0x264 JUMPI PUSH1 0x4 CALLDATALOAD PUSH1 0x0 MSTORE PUSH1 0xE PUSH1 0x20 MSTORE PUSH1 0x40 PUSH1 0x0 KECCAK256 DUP1 SLOAD SWAP1 PUSH1 0xFF DUP3 AND SWAP2 PUSH1 0x2 PUSH2 0x1630 PUSH1 0x1 DUP5 ADD PUSH2 0x2CB3 JUMP JUMPDEST SWAP3 ADD SLOAD SWAP1 PUSH1 0x40 MLOAD SWAP4 PUSH1 0x2 DUP2 LT ISZERO PUSH2 0x737 JUMPI DUP5 MSTORE PUSH1 0x8 SHR PUSH1 0x1 PUSH1 0x1 PUSH1 0xA0 SHL SUB SWAP1 DUP2 AND PUSH1 0x20 DUP6 ADD MSTORE PUSH1 0xC0 PUSH1 0x40 DUP6 ADD DUP2 SWAP1 MSTORE DUP5 SWAP4 PUSH2 0x166D SWAP2 DUP6 ADD SWAP1 PUSH2 0x2D59 JUMP JUMPDEST SWAP2 PUSH1 0xFF DUP2 AND PUSH1 0x60 DUP6 ADD MSTORE PUSH1 0xFF DUP2 PUSH1 0x8 SHR AND ISZERO ISZERO PUSH1 0x80 DUP6 ADD MSTORE PUSH1 0x10 SHR AND PUSH1 0xA0 DUP4 ADD MSTORE SUB SWAP1 RETURN JUMPDEST CALLVALUE PUSH2 0x264 JUMPI PUSH1 0x20 CALLDATASIZE PUSH1 0x3 NOT ADD SLT PUSH2 0x264 JUMPI PUSH1 0x40 PUSH2 0x16B0 PUSH1 0x4 CALLDATALOAD PUSH2 0x2E46 JUMP JUMPDEST DUP3 MLOAD SWAP2 DUP3 MSTORE PUSH1 0x20 DUP3 ADD MSTORE RETURN JUMPDEST CALLVALUE PUSH2 0x264 JUMPI PUSH1 0x0 CALLDATASIZE PUSH1 0x3 NOT ADD SLT PUSH2 0x264 JUMPI PUSH1 0x2 SLOAD PUSH1 0x0 NOT DUP2 ADD DUP2 DUP2 GT PUSH2 0x65B JUMPI PUSH2 0x16E5 SWAP1 PUSH2 0x3768 JUMP JUMPDEST SWAP1 PUSH1 0x0 SWAP1 PUSH1 0x1 SWAP1 DUP2 JUMPDEST DUP2 DUP2 LT PUSH2 0x1742 JUMPI POP POP POP PUSH2 0x1701 DUP2 PUSH2 0x3768 JUMP JUMPDEST SWAP2 PUSH1 0x0 JUMPDEST DUP3 DUP2 LT PUSH2 0x171E JUMPI PUSH1 0x40 MLOAD DUP1 PUSH2 0x171A DUP7 DUP3 PUSH2 0x2C3E JUMP JUMPDEST SUB SWAP1 RETURN JUMPDEST DUP1 PUSH2 0x172C PUSH2 0x173D SWAP3 DUP5 PUSH2 0x379A JUMP JUMPDEST MLOAD PUSH2 0x1737 DUP3 DUP8 PUSH2 0x379A JUMP JUMPDEST MSTORE PUSH2 0x2DD1 JUMP JUMPDEST PUSH2 0x1705 JUMP JUMPDEST DUP1 PUSH1 0x0 MSTORE PUSH1 0xD PUSH1 0x20 MSTORE PUSH1 0xFF PUSH1 0xC PUSH1 0x40 PUSH1 0x0 KECCAK256 ADD SLOAD AND PUSH1 0x6 DUP2 LT ISZERO PUSH2 0x737 JUMPI DUP4 EQ PUSH2 0x1775 JUMPI JUMPDEST PUSH2 0x1770 SWAP1 PUSH2 0x2DD1 JUMP JUMPDEST PUSH2 0x16EE JUMP JUMPDEST PUSH2 0x177E DUP2 PUSH2 0x31E7 JUMP JUMPDEST POP ISZERO PUSH2 0x1767 JUMPI SWAP3 PUSH2 0x1797 DUP2 DUP6 PUSH2 0x1737 PUSH2 0x1770 SWAP5 DUP10 PUSH2 0x379A JUMP JUMPDEST SWAP4 SWAP1 POP PUSH2 0x1767 JUMP JUMPDEST CALLVALUE PUSH2 0x264 JUMPI PUSH1 0x0 CALLDATASIZE PUSH1 0x3 NOT ADD SLT PUSH2 0x264 JUMPI PUSH1 0x20 PUSH1 0x9 SLOAD PUSH1 0x40 MLOAD SWAP1 DUP2 MSTORE RETURN JUMPDEST CALLVALUE PUSH2 0x264 JUMPI PUSH1 0x40 CALLDATASIZE PUSH1 0x3 NOT ADD SLT PUSH2 0x264 JUMPI PUSH1 0x4 CALLDATALOAD PUSH1 0x24 CALLDATALOAD PUSH1 0x1 PUSH1 0x1 PUSH1 0xA0 SHL SUB DUP2 AND SWAP1 DUP2 SWAP1 SUB PUSH2 0x264 JUMPI PUSH2 0x17EE PUSH2 0x2D99 JUMP JUMPDEST DUP2 PUSH1 0x0 MSTORE PUSH1 0xE PUSH1 0x20 MSTORE PUSH1 0xFF PUSH1 0x2 PUSH1 0x40 PUSH1 0x0 KECCAK256 ADD SLOAD PUSH1 0x8 SHR AND ISZERO PUSH2 0x1844 JUMPI PUSH1 0x0 SWAP2 DUP3 MSTORE PUSH1 0xE PUSH1 0x20 MSTORE PUSH1 0x40 SWAP1 SWAP2 KECCAK256 PUSH1 0x2 ADD DUP1 SLOAD PUSH3 0x10000 PUSH1 0x1 PUSH1 0xB0 SHL SUB NOT AND PUSH1 0x10 SWAP3 SWAP1 SWAP3 SHL PUSH3 0x10000 PUSH1 0x1 PUSH1 0xB0 SHL SUB AND SWAP2 SWAP1 SWAP2 OR SWAP1 SSTORE STOP JUMPDEST PUSH1 0x40 MLOAD PUSH3 0x461BCD PUSH1 0xE5 SHL DUP2 MSTORE PUSH1 0x20 PUSH1 0x4 DUP3 ADD MSTORE PUSH1 0x10 PUSH1 0x24 DUP3 ADD MSTORE PUSH16 0x546F6B656E206E6F7420616374697665 PUSH1 0x80 SHL PUSH1 0x44 DUP3 ADD MSTORE PUSH1 0x64 SWAP1 REVERT JUMPDEST PUSH1 0x20 DUP1 PUSH1 0x3 NOT CALLDATASIZE ADD SLT PUSH2 0x264 JUMPI PUSH1 0x4 CALLDATALOAD SWAP1 PUSH2 0x1895 PUSH2 0x3585 JUMP JUMPDEST DUP2 PUSH1 0x0 MSTORE PUSH1 0xD DUP2 MSTORE PUSH1 0x40 PUSH1 0x0 KECCAK256 PUSH1 0x1 DUP2 ADD SWAP3 PUSH1 0x1 DUP1 PUSH1 0xA0 SHL SUB SWAP2 DUP3 DUP6 SLOAD AND CALLER SUB PUSH2 0x1C41 JUMPI PUSH1 0xC DUP2 ADD SWAP3 DUP4 SLOAD SWAP2 PUSH1 0xFF DUP4 AND PUSH1 0x6 DUP2 LT ISZERO PUSH2 0x737 JUMPI PUSH1 0x1 PUSH2 0x18DA SWAP2 EQ PUSH2 0x31A9 JUMP JUMPDEST PUSH1 0xB DUP2 ADD SLOAD TIMESTAMP GT PUSH2 0x1C0D JUMPI PUSH1 0x5 DUP2 ADD SWAP1 DUP2 SLOAD SWAP2 PUSH2 0x2710 SWAP7 PUSH1 0x2 PUSH2 0x1929 DUP10 PUSH2 0x1905 PUSH1 0x7 DUP8 ADD SLOAD DUP9 PUSH2 0x3041 JUMP JUMPDEST DIV SWAP10 PUSH2 0x1913 PUSH1 0x5 SLOAD DUP13 PUSH2 0x3041 JUMP JUMPDEST DIV SWAP10 PUSH2 0x1923 DUP12 PUSH2 0x4BE DUP4 DUP11 PUSH2 0x3395 JUMP JUMPDEST SWAP7 PUSH2 0x3395 JUMP JUMPDEST SWAP7 PUSH1 0xFF NOT AND OR SWAP1 SSTORE PUSH2 0x193D DUP8 PUSH1 0x8 SLOAD PUSH2 0x3395 JUMP JUMPDEST PUSH1 0x8 SSTORE SLOAD SWAP6 PUSH1 0x3 DUP3 ADD SWAP7 DUP8 SLOAD PUSH1 0x0 MSTORE PUSH1 0x14 DUP10 MSTORE PUSH2 0x1960 PUSH1 0x40 PUSH1 0x0 KECCAK256 SWAP2 DUP3 SLOAD PUSH2 0x2E39 JUMP JUMPDEST SWAP1 SSTORE DUP7 SLOAD DUP1 PUSH1 0x0 MSTORE PUSH1 0xE DUP10 MSTORE PUSH1 0xFF PUSH1 0x40 PUSH1 0x0 KECCAK256 SLOAD AND PUSH1 0x2 DUP2 LT ISZERO PUSH2 0x737 JUMPI PUSH2 0x1B6A JUMPI POP POP DUP4 CALLVALUE LT PUSH2 0x1B2C JUMPI PUSH1 0x0 DUP1 DUP1 SWAP4 DUP6 PUSH1 0x2 DUP4 SWAP6 ADD SLOAD AND GAS CALL PUSH2 0x19A2 PUSH2 0x35A8 JUMP JUMPDEST POP ISZERO PUSH2 0x1AE7 JUMPI DUP2 CALLVALUE GT PUSH2 0x1A8C JUMPI JUMPDEST DUP5 SWAP6 JUMPDEST PUSH2 0x19BC DUP5 PUSH2 0x3669 JUMP JUMPDEST SLOAD AND DUP1 PUSH1 0x0 MSTORE PUSH1 0x11 DUP6 MSTORE PUSH1 0x40 PUSH1 0x0 KECCAK256 PUSH1 0x1 DUP2 ADD PUSH2 0x19DF DUP2 SLOAD DUP1 ISZERO PUSH2 0x699 JUMPI PUSH2 0x2DD1 JUMP JUMPDEST SWAP1 SSTORE TIMESTAMP PUSH1 0x6 DUP3 ADD SSTORE PUSH1 0x2 DUP2 ADD PUSH2 0x19F5 DUP2 SLOAD PUSH2 0x2DD1 JUMP JUMPDEST SWAP1 SSTORE DUP1 SLOAD PUSH2 0x3B6 DUP2 LT PUSH2 0x1A62 JUMPI JUMPDEST POP SWAP2 DUP6 SWAP2 PUSH1 0x0 DUP1 MLOAD PUSH1 0x20 PUSH2 0x37AF DUP4 CODECOPY DUP2 MLOAD SWAP2 MSTORE PUSH1 0x0 DUP1 MLOAD PUSH1 0x20 PUSH2 0x37CF DUP4 CODECOPY DUP2 MLOAD SWAP2 MSTORE SWAP8 PUSH32 0x40CEE90EE4799897C30CA04E5FEB6FA43DBBA9B6D084B4B257CDAFD84BA013E SWAP6 SLOAD PUSH1 0x40 MLOAD SWAP1 DUP2 MSTORE LOG2 PUSH1 0x40 MLOAD SWAP1 DUP2 MSTORE LOG2 SLOAD SWAP2 PUSH2 0x608 DUP4 PUSH2 0x33A2 JUMP JUMPDEST SWAP2 SWAP6 POP SWAP2 PUSH1 0xA DUP3 ADD DUP1 SWAP3 GT PUSH2 0x65B JUMPI SWAP1 DUP3 SSTORE DUP6 SWAP5 SWAP1 SWAP2 PUSH1 0x0 DUP1 MLOAD PUSH1 0x20 PUSH2 0x37CF DUP4 CODECOPY DUP2 MLOAD SWAP2 MSTORE PUSH2 0x1A03 JUMP JUMPDEST PUSH1 0x0 DUP1 DUP1 DUP1 PUSH2 0x1A9B DUP7 CALLVALUE PUSH2 0x2E39 JUMP JUMPDEST CALLER GAS CALL PUSH2 0x1AA6 PUSH2 0x35A8 JUMP JUMPDEST POP PUSH2 0x19B0 JUMPI PUSH1 0x40 MLOAD PUSH3 0x461BCD PUSH1 0xE5 SHL DUP2 MSTORE PUSH1 0x4 DUP2 ADD DUP7 SWAP1 MSTORE PUSH1 0x14 PUSH1 0x24 DUP3 ADD MSTORE PUSH20 0x115E18D95CDCC81C995D1D5C9B8819985A5B1959 PUSH1 0x62 SHL PUSH1 0x44 DUP3 ADD MSTORE PUSH1 0x64 SWAP1 REVERT JUMPDEST PUSH1 0x40 MLOAD PUSH3 0x461BCD PUSH1 0xE5 SHL DUP2 MSTORE PUSH1 0x4 DUP2 ADD DUP7 SWAP1 MSTORE PUSH1 0x19 PUSH1 0x24 DUP3 ADD MSTORE PUSH32 0x5472616E7366657220746F206C656E646572206661696C656400000000000000 PUSH1 0x44 DUP3 ADD MSTORE PUSH1 0x64 SWAP1 REVERT JUMPDEST PUSH1 0x40 MLOAD PUSH3 0x461BCD PUSH1 0xE5 SHL DUP2 MSTORE PUSH1 0x4 DUP2 ADD DUP9 SWAP1 MSTORE PUSH1 0x16 PUSH1 0x24 DUP3 ADD MSTORE PUSH22 0x125B9CDD59999A58DA595B9D081C995C185E5B595B9D PUSH1 0x52 SHL PUSH1 0x44 DUP3 ADD MSTORE PUSH1 0x64 SWAP1 REVERT JUMPDEST SWAP9 SWAP3 SWAP9 CALLVALUE PUSH2 0x1BBD JUMPI DUP9 SWAP10 PUSH2 0x1B98 SWAP2 PUSH1 0x0 MSTORE PUSH1 0xE DUP11 MSTORE DUP6 PUSH1 0x2 DUP2 PUSH1 0x40 PUSH1 0x0 KECCAK256 SLOAD PUSH1 0x8 SHR AND SWAP6 ADD SLOAD AND CALLER DUP6 PUSH2 0x34B3 JUMP JUMPDEST DUP1 PUSH2 0x1BA5 JUMPI JUMPDEST POP POP PUSH2 0x19B3 JUMP JUMPDEST PUSH2 0x1BB6 SWAP2 DUP5 PUSH1 0x7 SLOAD AND SWAP1 CALLER SWAP1 PUSH2 0x34B3 JUMP JUMPDEST DUP8 DUP1 PUSH2 0x1B9E JUMP JUMPDEST PUSH1 0x40 MLOAD PUSH3 0x461BCD PUSH1 0xE5 SHL DUP2 MSTORE PUSH1 0x4 DUP2 ADD DUP11 SWAP1 MSTORE PUSH1 0x22 PUSH1 0x24 DUP3 ADD MSTORE PUSH32 0x455448206E6F74206E656564656420666F722045524332302072657061796D65 PUSH1 0x44 DUP3 ADD MSTORE PUSH2 0x1B9D PUSH1 0xF2 SHL PUSH1 0x64 DUP3 ADD MSTORE PUSH1 0x84 SWAP1 REVERT JUMPDEST PUSH1 0x40 MLOAD PUSH3 0x461BCD PUSH1 0xE5 SHL DUP2 MSTORE PUSH1 0x4 DUP2 ADD DUP8 SWAP1 MSTORE PUSH1 0xC PUSH1 0x24 DUP3 ADD MSTORE PUSH12 0x131BD85B88195E1C1A5C9959 PUSH1 0xA2 SHL PUSH1 0x44 DUP3 ADD MSTORE PUSH1 0x64 SWAP1 REVERT JUMPDEST PUSH1 0x40 MLOAD PUSH3 0x461BCD PUSH1 0xE5 SHL DUP2 MSTORE PUSH1 0x4 DUP2 ADD DUP6 SWAP1 MSTORE PUSH1 0x17 PUSH1 0x24 DUP3 ADD MSTORE PUSH32 0x4F6E6C7920626F72726F7765722063616E207265706179000000000000000000 PUSH1 0x44 DUP3 ADD MSTORE PUSH1 0x64 SWAP1 REVERT JUMPDEST CALLVALUE PUSH2 0x264 JUMPI PUSH2 0x1C94 CALLDATASIZE PUSH2 0x2B08 JUMP JUMPDEST PUSH2 0x1C9C PUSH2 0x2D99 JUMP JUMPDEST PUSH2 0x3E8 DUP3 GT PUSH2 0x1CCF JUMPI DUP1 PUSH2 0xE10 PUSH2 0x1CBC SWAP3 LT ISZERO SWAP1 DUP2 PUSH2 0x1CC1 JUMPI JUMPDEST POP PUSH2 0x343A JUMP JUMPDEST PUSH1 0x6 SSTORE STOP JUMPDEST PUSH3 0x93A80 SWAP2 POP GT ISZERO DUP4 PUSH2 0x1CB6 JUMP JUMPDEST PUSH1 0x40 MLOAD PUSH3 0x461BCD PUSH1 0xE5 SHL DUP2 MSTORE PUSH1 0x20 PUSH1 0x4 DUP3 ADD MSTORE PUSH1 0xC PUSH1 0x24 DUP3 ADD MSTORE PUSH12 0x8CCACA40E8DEDE40D0D2CED PUSH1 0xA3 SHL PUSH1 0x44 DUP3 ADD MSTORE PUSH1 0x64 SWAP1 REVERT JUMPDEST PUSH2 0x2C20 JUMP JUMPDEST PUSH1 0x20 DUP1 PUSH1 0x3 NOT CALLDATASIZE ADD SLT PUSH2 0x264 JUMPI PUSH1 0x4 CALLDATALOAD PUSH2 0x1D20 PUSH2 0x3585 JUMP JUMPDEST DUP1 PUSH1 0x0 MSTORE PUSH1 0x13 DUP3 MSTORE PUSH1 0x40 PUSH1 0x0 KECCAK256 PUSH2 0x1D3D PUSH1 0xFF PUSH1 0x7 DUP4 ADD SLOAD AND PUSH2 0x35D8 JUMP JUMPDEST PUSH1 0x2 DUP2 ADD SLOAD TIMESTAMP GT PUSH2 0x1E82 JUMPI PUSH1 0x6 DUP2 ADD SWAP1 DUP2 SLOAD SWAP1 DUP2 CALLVALUE GT ISZERO PUSH2 0x1E4F JUMPI PUSH1 0x4 DUP2 ADD SLOAD CALLVALUE LT PUSH2 0x1E16 JUMPI PUSH1 0x5 ADD DUP1 SLOAD SWAP1 SWAP2 SWAP1 PUSH1 0x1 PUSH1 0x1 PUSH1 0xA0 SHL SUB AND DUP1 PUSH2 0x1DC3 JUMPI JUMPDEST POP POP CALLER PUSH1 0x1 PUSH1 0x1 PUSH1 0x60 SHL SUB PUSH1 0xA0 SHL DUP3 SLOAD AND OR SWAP1 SSTORE CALLVALUE SWAP1 SSTORE PUSH32 0xE54EFF26401BF69B81B26F60BD85EF47F5D85275C1D268D84F68D6897431C47 PUSH1 0x40 MLOAD SWAP3 CALLVALUE DUP5 MSTORE CALLER SWAP4 LOG3 PUSH1 0x1 PUSH1 0x0 SSTORE STOP JUMPDEST PUSH1 0x0 DUP1 DUP1 SWAP4 DUP2 SWAP4 GAS CALL PUSH2 0x1DD4 PUSH2 0x35A8 JUMP JUMPDEST POP ISZERO PUSH2 0x1DE1 JUMPI DUP5 DUP1 PUSH2 0x1D7A JUMP JUMPDEST PUSH1 0x40 MLOAD PUSH3 0x461BCD PUSH1 0xE5 SHL DUP2 MSTORE PUSH1 0x4 DUP2 ADD DUP6 SWAP1 MSTORE PUSH1 0xD PUSH1 0x24 DUP3 ADD MSTORE PUSH13 0x1499599D5B990819985A5B1959 PUSH1 0x9A SHL PUSH1 0x44 DUP3 ADD MSTORE PUSH1 0x64 SWAP1 REVERT JUMPDEST PUSH1 0x40 MLOAD PUSH3 0x461BCD PUSH1 0xE5 SHL DUP2 MSTORE PUSH1 0x4 DUP2 ADD DUP7 SWAP1 MSTORE PUSH1 0x11 PUSH1 0x24 DUP3 ADD MSTORE PUSH17 0x4269642062656C6F772072657365727665 PUSH1 0x78 SHL PUSH1 0x44 DUP3 ADD MSTORE PUSH1 0x64 SWAP1 REVERT JUMPDEST PUSH1 0x40 MLOAD PUSH3 0x461BCD PUSH1 0xE5 SHL DUP2 MSTORE PUSH1 0x4 DUP2 ADD DUP7 SWAP1 MSTORE PUSH1 0xB PUSH1 0x24 DUP3 ADD MSTORE PUSH11 0x42696420746F6F206C6F77 PUSH1 0xA8 SHL PUSH1 0x44 DUP3 ADD MSTORE PUSH1 0x64 SWAP1 REVERT JUMPDEST PUSH1 0x40 MLOAD PUSH3 0x461BCD PUSH1 0xE5 SHL DUP2 MSTORE PUSH1 0x4 DUP2 ADD DUP5 SWAP1 MSTORE PUSH1 0xD PUSH1 0x24 DUP3 ADD MSTORE PUSH13 0x105D58DD1A5BDB88195B991959 PUSH1 0x9A SHL PUSH1 0x44 DUP3 ADD MSTORE PUSH1 0x64 SWAP1 REVERT JUMPDEST CALLVALUE PUSH2 0x264 JUMPI PUSH1 0x0 CALLDATASIZE PUSH1 0x3 NOT ADD SLT PUSH2 0x264 JUMPI PUSH1 0x2 SLOAD PUSH1 0x0 NOT DUP2 ADD DUP2 DUP2 GT PUSH2 0x65B JUMPI PUSH2 0x1EE0 SWAP1 PUSH2 0x3768 JUMP JUMPDEST SWAP1 PUSH1 0x0 SWAP1 PUSH1 0x1 JUMPDEST DUP2 DUP2 LT PUSH2 0x1F25 JUMPI POP POP PUSH2 0x1EF9 DUP2 PUSH2 0x3768 JUMP JUMPDEST SWAP2 PUSH1 0x0 JUMPDEST DUP3 DUP2 LT PUSH2 0x1F12 JUMPI PUSH1 0x40 MLOAD DUP1 PUSH2 0x171A DUP7 DUP3 PUSH2 0x2C3E JUMP JUMPDEST DUP1 PUSH2 0x172C PUSH2 0x1F20 SWAP3 DUP5 PUSH2 0x379A JUMP JUMPDEST PUSH2 0x1EFD JUMP JUMPDEST DUP1 PUSH1 0x0 MSTORE PUSH1 0xD PUSH1 0x20 MSTORE PUSH1 0xFF PUSH1 0xC PUSH1 0x40 PUSH1 0x0 KECCAK256 ADD SLOAD AND PUSH1 0x6 DUP2 LT ISZERO PUSH2 0x737 JUMPI ISZERO PUSH2 0x1F57 JUMPI JUMPDEST PUSH2 0x1F52 SWAP1 PUSH2 0x2DD1 JUMP JUMPDEST PUSH2 0x1EE7 JUMP JUMPDEST SWAP2 PUSH2 0x1F6A DUP2 DUP5 PUSH2 0x1737 PUSH2 0x1F52 SWAP5 DUP9 PUSH2 0x379A JUMP JUMPDEST SWAP3 SWAP1 POP PUSH2 0x1F49 JUMP JUMPDEST CALLVALUE PUSH2 0x264 JUMPI PUSH1 0x0 CALLDATASIZE PUSH1 0x3 NOT ADD SLT PUSH2 0x264 JUMPI PUSH1 0x20 PUSH1 0x40 MLOAD PUSH1 0x78 DUP2 MSTORE RETURN JUMPDEST CALLVALUE PUSH2 0x264 JUMPI PUSH1 0x0 CALLDATASIZE PUSH1 0x3 NOT ADD SLT PUSH2 0x264 JUMPI PUSH1 0x20 PUSH1 0x8 SLOAD PUSH1 0x40 MLOAD SWAP1 DUP2 MSTORE RETURN JUMPDEST CALLVALUE PUSH2 0x264 JUMPI PUSH1 0x0 CALLDATASIZE PUSH1 0x3 NOT ADD SLT PUSH2 0x264 JUMPI PUSH1 0x1 SLOAD PUSH1 0x40 MLOAD PUSH1 0x1 PUSH1 0x1 PUSH1 0xA0 SHL SUB SWAP1 SWAP2 AND DUP2 MSTORE PUSH1 0x20 SWAP1 RETURN JUMPDEST CALLVALUE PUSH2 0x264 JUMPI PUSH1 0x0 CALLDATASIZE PUSH1 0x3 NOT ADD SLT PUSH2 0x264 JUMPI PUSH1 0x20 PUSH1 0x2 SLOAD PUSH1 0x40 MLOAD SWAP1 DUP2 MSTORE RETURN JUMPDEST PUSH1 0x20 DUP1 PUSH1 0x3 NOT CALLDATASIZE ADD SLT PUSH2 0x264 JUMPI PUSH1 0x4 CALLDATALOAD PUSH2 0x200B PUSH2 0x3585 JUMP JUMPDEST PUSH2 0x2013 PUSH2 0x3564 JUMP JUMPDEST DUP1 PUSH1 0x0 MSTORE PUSH1 0xD DUP3 MSTORE PUSH1 0x40 PUSH1 0x0 KECCAK256 SWAP1 PUSH1 0x1 DUP3 ADD PUSH1 0x1 DUP1 PUSH1 0xA0 SHL SUB DUP1 DUP3 SLOAD AND PUSH2 0x203B DUP2 ISZERO ISZERO PUSH2 0x3167 JUMP JUMPDEST PUSH1 0xC DUP6 ADD SWAP1 DUP2 SLOAD SWAP1 PUSH1 0xFF DUP3 AND PUSH1 0x6 DUP2 LT ISZERO PUSH2 0x737 JUMPI PUSH2 0x22A0 JUMPI CALLER EQ PUSH2 0x2264 JUMPI PUSH1 0x2 DUP7 ADD DUP1 SLOAD PUSH1 0x1 PUSH1 0x1 PUSH1 0xA0 SHL SUB NOT AND CALLER OR SWAP1 SSTORE PUSH1 0xFF NOT AND PUSH1 0x1 OR SWAP1 SSTORE TIMESTAMP PUSH1 0xA DUP6 ADD DUP2 SWAP1 SSTORE PUSH1 0x8 DUP6 ADD SLOAD PUSH2 0x208D SWAP2 PUSH2 0x3395 JUMP JUMPDEST PUSH1 0xB DUP6 ADD SSTORE CALLER PUSH1 0x0 MSTORE PUSH1 0x10 DUP6 MSTORE PUSH2 0x20A8 DUP4 PUSH1 0x40 PUSH1 0x0 KECCAK256 PUSH2 0x3479 JUMP JUMPDEST PUSH1 0x5 DUP5 ADD PUSH1 0x3 DUP2 SLOAD SWAP6 ADD SWAP5 DUP6 SLOAD PUSH1 0x0 MSTORE PUSH1 0x14 DUP8 MSTORE PUSH2 0x20CC PUSH1 0x40 PUSH1 0x0 KECCAK256 SWAP2 DUP3 SLOAD PUSH2 0x3395 JUMP JUMPDEST SWAP1 SSTORE DUP5 SLOAD DUP1 PUSH1 0x0 MSTORE PUSH1 0xE DUP8 MSTORE PUSH1 0xFF PUSH1 0x40 PUSH1 0x0 KECCAK256 SLOAD AND PUSH1 0x2 DUP2 LT ISZERO PUSH2 0x737 JUMPI PUSH2 0x21D7 JUMPI POP SLOAD SWAP2 DUP3 CALLVALUE SUB PUSH2 0x219B JUMPI PUSH1 0x0 DUP1 SWAP4 DUP2 SWAP4 DUP3 SWAP4 SLOAD AND GAS CALL PUSH2 0x210C PUSH2 0x35A8 JUMP JUMPDEST POP ISZERO PUSH2 0x2156 JUMPI SWAP1 PUSH1 0x0 DUP1 MLOAD PUSH1 0x20 PUSH2 0x37CF DUP4 CODECOPY DUP2 MLOAD SWAP2 MSTORE SWAP2 JUMPDEST CALLER SWAP1 PUSH32 0x15FEAB5D3EB17171632762CF769709A315DD15F487A556C0DFB8A259C8F186CC PUSH1 0x0 DUP1 LOG3 SLOAD SWAP2 PUSH2 0x608 DUP4 PUSH2 0x33A2 JUMP JUMPDEST PUSH1 0x40 MLOAD PUSH3 0x461BCD PUSH1 0xE5 SHL DUP2 MSTORE PUSH1 0x4 DUP2 ADD DUP5 SWAP1 MSTORE PUSH1 0x1B PUSH1 0x24 DUP3 ADD MSTORE PUSH32 0x5472616E7366657220746F20626F72726F776572206661696C65640000000000 PUSH1 0x44 DUP3 ADD MSTORE PUSH1 0x64 SWAP1 REVERT JUMPDEST PUSH1 0x40 MLOAD PUSH3 0x461BCD PUSH1 0xE5 SHL DUP2 MSTORE PUSH1 0x4 DUP2 ADD DUP8 SWAP1 MSTORE PUSH1 0x14 PUSH1 0x24 DUP3 ADD MSTORE PUSH20 0x125B98DBDC9C9958DD0811551208185B5BDD5B9D PUSH1 0x62 SHL PUSH1 0x44 DUP3 ADD MSTORE PUSH1 0x64 SWAP1 REVERT JUMPDEST SWAP6 SWAP5 SWAP4 SWAP3 SWAP6 SWAP2 SWAP1 SWAP2 CALLVALUE PUSH2 0x221F JUMPI SWAP2 PUSH1 0x0 DUP1 MLOAD PUSH1 0x20 PUSH2 0x37CF DUP4 CODECOPY DUP2 MLOAD SWAP2 MSTORE SWAP6 SWAP7 SWAP2 PUSH2 0x221A SWAP4 PUSH1 0x0 MSTORE PUSH1 0xE DUP9 MSTORE DUP1 PUSH1 0x40 PUSH1 0x0 KECCAK256 SLOAD PUSH1 0x8 SHR AND SWAP3 SLOAD AND SWAP1 SLOAD SWAP2 CALLER SWAP1 PUSH2 0x34B3 JUMP JUMPDEST PUSH2 0x2124 JUMP JUMPDEST PUSH1 0x40 MLOAD PUSH3 0x461BCD PUSH1 0xE5 SHL DUP2 MSTORE PUSH1 0x4 DUP2 ADD DUP8 SWAP1 MSTORE PUSH1 0x1D PUSH1 0x24 DUP3 ADD MSTORE PUSH32 0x455448206E6F74206E656564656420666F72204552433230206C6F616E000000 PUSH1 0x44 DUP3 ADD MSTORE PUSH1 0x64 SWAP1 REVERT JUMPDEST PUSH1 0x40 MLOAD PUSH3 0x461BCD PUSH1 0xE5 SHL DUP2 MSTORE PUSH1 0x4 DUP2 ADD DUP9 SWAP1 MSTORE PUSH1 0x14 PUSH1 0x24 DUP3 ADD MSTORE PUSH20 0x21B0B73737BA10333AB7321037BBB7103637B0B7 PUSH1 0x61 SHL PUSH1 0x44 DUP3 ADD MSTORE PUSH1 0x64 SWAP1 REVERT JUMPDEST PUSH1 0x40 MLOAD PUSH3 0x461BCD PUSH1 0xE5 SHL DUP2 MSTORE PUSH1 0x4 DUP2 ADD DUP10 SWAP1 MSTORE PUSH1 0x12 PUSH1 0x24 DUP3 ADD MSTORE PUSH18 0x4C6F616E206E6F7420617661696C61626C65 PUSH1 0x70 SHL PUSH1 0x44 DUP3 ADD MSTORE PUSH1 0x64 SWAP1 REVERT JUMPDEST CALLVALUE PUSH2 0x264 JUMPI PUSH1 0x0 CALLDATASIZE PUSH1 0x3 NOT ADD SLT PUSH2 0x264 JUMPI PUSH2 0x22F3 PUSH2 0x2D99 JUMP JUMPDEST PUSH2 0x22FB PUSH2 0x3564 JUMP JUMPDEST PUSH1 0x1 DUP1 SLOAD PUSH1 0xFF PUSH1 0xA0 SHL NOT AND PUSH1 0x1 PUSH1 0xA0 SHL OR SWAP1 SSTORE PUSH1 0x40 MLOAD CALLER DUP2 MSTORE PUSH32 0x62E78CEA01BEE320CD4E420270B5EA74000D11B0C9F74754EBDBFC544B05A258 SWAP1 PUSH1 0x20 SWAP1 LOG1 STOP JUMPDEST CALLVALUE PUSH2 0x264 JUMPI PUSH1 0x20 CALLDATASIZE PUSH1 0x3 NOT ADD SLT PUSH2 0x264 JUMPI PUSH1 0x20 PUSH2 0x235A PUSH1 0x4 CALLDATALOAD PUSH2 0x33A2 JUMP JUMPDEST PUSH1 0x40 MLOAD SWAP1 DUP2 MSTORE RETURN JUMPDEST CALLVALUE PUSH2 0x264 JUMPI PUSH1 0x20 CALLDATASIZE PUSH1 0x3 NOT ADD SLT PUSH2 0x264 JUMPI PUSH1 0x1 PUSH1 0x1 PUSH1 0xA0 SHL SUB PUSH2 0x2383 PUSH2 0x2B1E JUMP JUMPDEST AND PUSH1 0x0 MSTORE PUSH1 0x11 PUSH1 0x20 MSTORE PUSH1 0xE0 PUSH1 0x40 PUSH1 0x0 KECCAK256 DUP1 SLOAD SWAP1 PUSH1 0x1 DUP2 ADD SLOAD SWAP1 PUSH1 0x2 DUP2 ADD SLOAD PUSH1 0x3 DUP3 ADD SLOAD PUSH1 0x4 DUP4 ADD SLOAD SWAP2 PUSH1 0x6 PUSH1 0x5 DUP6 ADD SLOAD SWAP5 ADD SLOAD SWAP5 PUSH1 0x40 MLOAD SWAP7 DUP8 MSTORE PUSH1 0x20 DUP8 ADD MSTORE PUSH1 0x40 DUP7 ADD MSTORE PUSH1 0x60 DUP6 ADD MSTORE PUSH1 0x80 DUP5 ADD MSTORE PUSH1 0xA0 DUP4 ADD MSTORE PUSH1 0xC0 DUP3 ADD MSTORE RETURN JUMPDEST CALLVALUE PUSH2 0x264 JUMPI PUSH1 0x0 CALLDATASIZE PUSH1 0x3 NOT ADD SLT PUSH2 0x264 JUMPI PUSH1 0x20 PUSH1 0x40 MLOAD PUSH1 0x96 DUP2 MSTORE RETURN JUMPDEST CALLVALUE PUSH2 0x264 JUMPI PUSH1 0x20 CALLDATASIZE PUSH1 0x3 NOT ADD SLT PUSH2 0x264 JUMPI PUSH1 0x4 CALLDATALOAD PUSH1 0x0 MSTORE PUSH1 0x14 PUSH1 0x20 MSTORE PUSH1 0x20 PUSH1 0x40 PUSH1 0x0 KECCAK256 SLOAD PUSH1 0x40 MLOAD SWAP1 DUP2 MSTORE RETURN JUMPDEST CALLVALUE PUSH2 0x264 JUMPI PUSH1 0x0 CALLDATASIZE PUSH1 0x3 NOT ADD SLT PUSH2 0x264 JUMPI PUSH1 0x20 PUSH1 0x3 SLOAD PUSH1 0x40 MLOAD SWAP1 DUP2 MSTORE RETURN JUMPDEST CALLVALUE PUSH2 0x264 JUMPI PUSH1 0x0 CALLDATASIZE PUSH1 0x3 NOT ADD SLT PUSH2 0x264 JUMPI PUSH2 0x245C PUSH2 0x2D99 JUMP JUMPDEST PUSH1 0x1 DUP1 SLOAD PUSH1 0x1 PUSH1 0x1 PUSH1 0xA0 SHL SUB NOT DUP2 AND SWAP1 SWAP2 SSTORE PUSH1 0x0 SWAP1 PUSH1 0x1 PUSH1 0x1 PUSH1 0xA0 SHL SUB AND PUSH32 0x8BE0079C531659141344CD1FD0A4F28419497F9722A3DAAFE3B4186F6B6457E0 DUP3 DUP1 LOG3 STOP JUMPDEST CALLVALUE PUSH2 0x264 JUMPI PUSH1 0x20 CALLDATASIZE PUSH1 0x3 NOT ADD SLT PUSH2 0x264 JUMPI PUSH1 0x1 PUSH1 0x1 PUSH1 0xA0 SHL SUB PUSH2 0x24C1 PUSH2 0x2B1E JUMP JUMPDEST AND PUSH1 0x0 MSTORE PUSH1 0x12 PUSH1 0x20 MSTORE PUSH1 0x20 PUSH1 0xFF PUSH1 0x40 PUSH1 0x0 KECCAK256 SLOAD AND PUSH1 0x40 MLOAD SWAP1 ISZERO ISZERO DUP2 MSTORE RETURN JUMPDEST CALLVALUE PUSH2 0x264 JUMPI PUSH1 0x0 CALLDATASIZE PUSH1 0x3 NOT ADD SLT PUSH2 0x264 JUMPI PUSH1 0x20 PUSH1 0x6 SLOAD PUSH1 0x40 MLOAD SWAP1 DUP2 MSTORE RETURN JUMPDEST CALLVALUE PUSH2 0x264 JUMPI PUSH1 0x0 CALLDATASIZE PUSH1 0x3 NOT ADD SLT PUSH2 0x264 JUMPI PUSH1 0x20 PUSH1 0xFF PUSH1 0x1 SLOAD PUSH1 0xA0 SHR AND PUSH1 0x40 MLOAD SWAP1 ISZERO ISZERO DUP2 MSTORE RETURN JUMPDEST CALLVALUE PUSH2 0x264 JUMPI PUSH1 0x80 CALLDATASIZE PUSH1 0x3 NOT ADD SLT PUSH2 0x264 JUMPI PUSH2 0x253C PUSH2 0x2B1E JUMP JUMPDEST PUSH8 0xFFFFFFFFFFFFFFFF SWAP1 PUSH1 0x24 CALLDATALOAD DUP3 DUP2 GT PUSH2 0x264 JUMPI PUSH2 0x255E SWAP1 CALLDATASIZE SWAP1 PUSH1 0x4 ADD PUSH2 0x2BD9 JUMP JUMPDEST SWAP1 PUSH1 0x44 CALLDATALOAD SWAP1 PUSH1 0xFF DUP3 AND DUP1 SWAP3 SUB PUSH2 0x264 JUMPI PUSH1 0x64 CALLDATALOAD SWAP2 PUSH1 0x1 PUSH1 0x1 PUSH1 0xA0 SHL SUB DUP4 AND DUP4 SUB PUSH2 0x264 JUMPI PUSH2 0x258A PUSH2 0x2D99 JUMP JUMPDEST PUSH1 0x1 PUSH1 0x1 PUSH1 0xA0 SHL SUB DUP3 AND ISZERO PUSH2 0x284C JUMPI PUSH1 0x1 PUSH1 0x1 PUSH1 0xA0 SHL SUB DUP4 AND ISZERO PUSH2 0x2807 JUMPI PUSH1 0x40 MLOAD SWAP1 PUSH2 0x25B5 DUP3 PUSH2 0x2B62 JUMP JUMPDEST PUSH1 0x1 DUP3 MSTORE PUSH1 0x20 DUP3 ADD SWAP1 PUSH1 0x1 DUP1 PUSH1 0xA0 SHL SUB DUP5 AND DUP3 MSTORE PUSH1 0x40 DUP4 ADD SWAP1 DUP7 DUP3 MSTORE PUSH1 0x60 DUP5 ADD MSTORE PUSH1 0x1 PUSH1 0x80 DUP5 ADD MSTORE PUSH1 0x1 DUP1 PUSH1 0xA0 SHL SUB DUP6 AND PUSH1 0xA0 DUP5 ADD MSTORE PUSH1 0x3 SLOAD PUSH1 0x0 MSTORE PUSH1 0xE PUSH1 0x20 MSTORE PUSH1 0x40 PUSH1 0x0 KECCAK256 SWAP2 DUP4 MLOAD SWAP1 PUSH1 0x2 DUP3 LT ISZERO PUSH2 0x737 JUMPI PUSH1 0xFF DUP5 SLOAD SWAP2 PUSH2 0x100 PUSH1 0x1 PUSH1 0xA8 SHL SUB SWAP1 MLOAD PUSH1 0x8 SHL AND SWAP3 AND SWAP1 PUSH11 0xFFFFFFFFFFFFFFFFFFFFFF PUSH1 0xA8 SHL AND OR OR DUP3 SSTORE MLOAD SWAP6 DUP7 MLOAD SWAP1 DUP2 GT PUSH2 0x1037 JUMPI PUSH2 0x264B PUSH1 0x1 DUP4 ADD SLOAD PUSH2 0x2C79 JUMP JUMPDEST PUSH1 0x1F DUP2 GT PUSH2 0x27C0 JUMPI JUMPDEST POP PUSH1 0x20 PUSH1 0x1F DUP3 GT PUSH1 0x1 EQ PUSH2 0x2747 JUMPI SWAP2 DUP2 PUSH1 0x2 SWAP3 PUSH2 0x26DE SWAP6 SWAP5 PUSH2 0x2737 SWAP11 PUSH1 0x0 SWAP3 PUSH2 0x273C JUMPI JUMPDEST POP POP DUP2 PUSH1 0x1 SHL SWAP2 PUSH1 0x0 NOT SWAP1 PUSH1 0x3 SHL SHR NOT AND OR PUSH1 0x1 DUP3 ADD SSTORE JUMPDEST PUSH1 0x60 DUP4 ADD MLOAD SWAP2 ADD DUP1 SLOAD PUSH1 0x80 DUP5 ADD MLOAD PUSH1 0xA0 SWAP1 SWAP5 ADD MLOAD PUSH1 0x1 PUSH1 0x1 PUSH1 0xB0 SHL SUB NOT SWAP1 SWAP2 AND PUSH1 0xFF SWAP4 SWAP1 SWAP4 AND SWAP3 SWAP1 SWAP3 OR SWAP3 ISZERO ISZERO PUSH1 0x8 SHL PUSH2 0xFF00 AND SWAP3 SWAP1 SWAP3 OR PUSH1 0x10 SWAP2 SWAP1 SWAP2 SHL PUSH3 0x10000 PUSH1 0x1 PUSH1 0xB0 SHL SUB AND OR SWAP1 SSTORE JUMP JUMPDEST PUSH32 0x98878A34EA3245957B330457C591928F2908C8B254E8B972075101360FCA276B PUSH2 0x271C PUSH1 0x3 SLOAD SWAP5 DUP6 SWAP4 PUSH1 0x40 MLOAD SWAP3 DUP4 SWAP3 PUSH1 0x40 DUP5 MSTORE PUSH1 0x40 DUP5 ADD SWAP1 PUSH2 0x2D59 JUMP JUMPDEST PUSH1 0x1 PUSH1 0x1 PUSH1 0xA0 SHL SUB SWAP7 DUP8 AND PUSH1 0x20 DUP5 ADD MSTORE SWAP6 AND SWAP5 SUB SWAP1 LOG3 PUSH2 0x2DD1 JUMP JUMPDEST PUSH1 0x3 SSTORE STOP JUMPDEST ADD MLOAD SWAP1 POP DUP11 DUP1 PUSH2 0x2678 JUMP JUMPDEST PUSH1 0x1 DUP4 ADD PUSH1 0x0 MSTORE PUSH1 0x20 PUSH1 0x0 KECCAK256 SWAP8 PUSH1 0x0 JUMPDEST PUSH1 0x1F NOT DUP5 AND DUP2 LT PUSH2 0x27A8 JUMPI POP DUP3 PUSH2 0x2737 SWAP10 PUSH2 0x26DE SWAP7 SWAP6 SWAP4 PUSH1 0x1 SWAP4 PUSH1 0x2 SWAP7 PUSH1 0x1F NOT DUP2 AND LT PUSH2 0x278F JUMPI JUMPDEST POP POP POP DUP2 SHL ADD PUSH1 0x1 DUP3 ADD SSTORE PUSH2 0x2690 JUMP JUMPDEST ADD MLOAD PUSH1 0x0 NOT PUSH1 0xF8 DUP5 PUSH1 0x3 SHL AND SHR NOT AND SWAP1 SSTORE DUP11 DUP1 DUP1 PUSH2 0x277F JUMP JUMPDEST DUP3 DUP3 ADD MLOAD DUP11 SSTORE PUSH1 0x1 SWAP1 SWAP10 ADD SWAP9 PUSH1 0x20 SWAP3 DUP4 ADD SWAP3 ADD PUSH2 0x2757 JUMP JUMPDEST PUSH1 0x1 DUP4 ADD PUSH1 0x0 MSTORE PUSH1 0x20 PUSH1 0x0 KECCAK256 PUSH1 0x1F DUP4 ADD PUSH1 0x5 SHR DUP2 ADD PUSH1 0x20 DUP5 LT PUSH2 0x2800 JUMPI JUMPDEST PUSH1 0x1F DUP4 ADD PUSH1 0x5 SHR DUP3 ADD DUP2 LT PUSH2 0x27F4 JUMPI POP POP PUSH2 0x2654 JUMP JUMPDEST PUSH1 0x0 DUP2 SSTORE PUSH1 0x1 ADD PUSH2 0x27DE JUMP JUMPDEST POP DUP1 PUSH2 0x27DE JUMP JUMPDEST PUSH1 0x40 MLOAD PUSH3 0x461BCD PUSH1 0xE5 SHL DUP2 MSTORE PUSH1 0x20 PUSH1 0x4 DUP3 ADD MSTORE PUSH1 0x1A PUSH1 0x24 DUP3 ADD MSTORE PUSH32 0x496E76616C696420707269636520666565642061646472657373000000000000 PUSH1 0x44 DUP3 ADD MSTORE PUSH1 0x64 SWAP1 REVERT JUMPDEST PUSH1 0x40 MLOAD PUSH3 0x461BCD PUSH1 0xE5 SHL DUP2 MSTORE PUSH1 0x20 PUSH1 0x4 DUP3 ADD MSTORE PUSH1 0x18 PUSH1 0x24 DUP3 ADD MSTORE PUSH32 0x496E76616C696420636F6E747261637420616464726573730000000000000000 PUSH1 0x44 DUP3 ADD MSTORE PUSH1 0x64 SWAP1 REVERT JUMPDEST CALLVALUE PUSH2 0x264 JUMPI PUSH1 0x0 CALLDATASIZE PUSH1 0x3 NOT ADD SLT PUSH2 0x264 JUMPI PUSH1 0x20 PUSH1 0x5 SLOAD PUSH1 0x40 MLOAD SWAP1 DUP2 MSTORE RETURN JUMPDEST CALLVALUE PUSH2 0x264 JUMPI PUSH1 0x0 CALLDATASIZE PUSH1 0x3 NOT ADD SLT PUSH2 0x264 JUMPI PUSH1 0x20 PUSH1 0xB SLOAD PUSH1 0x40 MLOAD SWAP1 DUP2 MSTORE RETURN JUMPDEST CALLVALUE PUSH2 0x264 JUMPI PUSH1 0x20 CALLDATASIZE PUSH1 0x3 NOT ADD SLT PUSH2 0x264 JUMPI PUSH1 0x40 PUSH2 0x28EB PUSH1 0x4 CALLDATALOAD PUSH2 0x31E7 JUMP JUMPDEST DUP3 MLOAD SWAP2 ISZERO ISZERO DUP3 MSTORE PUSH1 0x20 DUP3 ADD MSTORE RETURN JUMPDEST CALLVALUE PUSH2 0x264 JUMPI PUSH1 0x0 CALLDATASIZE PUSH1 0x3 NOT ADD SLT PUSH2 0x264 JUMPI PUSH2 0x2912 PUSH2 0x2D99 JUMP JUMPDEST PUSH1 0x0 DUP1 DUP1 DUP1 PUSH1 0x8 SLOAD DUP2 PUSH1 0x8 SSTORE PUSH1 0x1 DUP1 PUSH1 0xA0 SHL SUB PUSH1 0x7 SLOAD AND GAS CALL PUSH2 0x2933 PUSH2 0x35A8 JUMP JUMPDEST POP ISZERO PUSH2 0x293B JUMPI STOP JUMPDEST PUSH1 0x40 MLOAD PUSH3 0x461BCD PUSH1 0xE5 SHL DUP2 MSTORE PUSH1 0x20 PUSH1 0x4 DUP3 ADD MSTORE PUSH1 0x15 PUSH1 0x24 DUP3 ADD MSTORE PUSH21 0x119959481DDA5D1A191C985DD85B0819985A5B1959 PUSH1 0x5A SHL PUSH1 0x44 DUP3 ADD MSTORE PUSH1 0x64 SWAP1 REVERT JUMPDEST CALLVALUE PUSH2 0x264 JUMPI PUSH1 0x0 CALLDATASIZE PUSH1 0x3 NOT ADD SLT PUSH2 0x264 JUMPI PUSH1 0x7 SLOAD PUSH1 0x40 MLOAD PUSH1 0x1 PUSH1 0x1 PUSH1 0xA0 SHL SUB SWAP1 SWAP2 AND DUP2 MSTORE PUSH1 0x20 SWAP1 RETURN JUMPDEST CALLVALUE PUSH2 0x264 JUMPI PUSH1 0x0 CALLDATASIZE PUSH1 0x3 NOT ADD SLT PUSH2 0x264 JUMPI PUSH2 0x29BA PUSH2 0x2D99 JUMP JUMPDEST PUSH1 0x1 SLOAD PUSH1 0xFF DUP2 PUSH1 0xA0 SHR AND ISZERO PUSH2 0x2A01 JUMPI PUSH1 0xFF PUSH1 0xA0 SHL NOT AND PUSH1 0x1 SSTORE PUSH1 0x40 MLOAD CALLER DUP2 MSTORE PUSH32 0x5DB9EE0A495BF2E6FF9C91A7834C1BA4FDD244A5E8AA4E537BD38AEAE4B073AA SWAP1 PUSH1 0x20 SWAP1 LOG1 STOP JUMPDEST PUSH1 0x40 MLOAD PUSH4 0x8DFC202B PUSH1 0xE0 SHL DUP2 MSTORE PUSH1 0x4 SWAP1 REVERT JUMPDEST CALLVALUE PUSH2 0x264 JUMPI PUSH1 0x40 CALLDATASIZE PUSH1 0x3 NOT ADD SLT PUSH2 0x264 JUMPI PUSH2 0x2A2C PUSH2 0x2B1E JUMP JUMPDEST PUSH1 0x1 PUSH1 0x1 PUSH1 0xA0 SHL SUB AND PUSH1 0x0 SWAP1 DUP2 MSTORE PUSH1 0x10 PUSH1 0x20 MSTORE PUSH1 0x40 SWAP1 KECCAK256 DUP1 SLOAD PUSH1 0x24 CALLDATALOAD SWAP2 SWAP1 DUP3 LT ISZERO PUSH2 0x264 JUMPI PUSH1 0x20 SWAP2 PUSH2 0x982 SWAP2 PUSH2 0x2B34 JUMP JUMPDEST CALLVALUE PUSH2 0x264 JUMPI PUSH1 0x0 CALLDATASIZE PUSH1 0x3 NOT ADD SLT PUSH2 0x264 JUMPI PUSH1 0x20 PUSH1 0xA SLOAD PUSH1 0x40 MLOAD SWAP1 DUP2 MSTORE RETURN JUMPDEST CALLVALUE PUSH2 0x264 JUMPI PUSH1 0x0 CALLDATASIZE PUSH1 0x3 NOT ADD SLT PUSH2 0x264 JUMPI PUSH1 0x20 PUSH1 0x40 MLOAD PUSH2 0xBB8 DUP2 MSTORE RETURN JUMPDEST CALLVALUE PUSH2 0x264 JUMPI PUSH1 0x0 CALLDATASIZE PUSH1 0x3 NOT ADD SLT PUSH2 0x264 JUMPI PUSH1 0x20 PUSH1 0xC SLOAD PUSH1 0x40 MLOAD SWAP1 DUP2 MSTORE RETURN JUMPDEST CALLVALUE PUSH2 0x264 JUMPI PUSH1 0x20 PUSH2 0x235A PUSH2 0x2AC9 CALLDATASIZE PUSH2 0x2B08 JUMP JUMPDEST SWAP1 PUSH2 0x3085 JUMP JUMPDEST CALLVALUE PUSH2 0x264 JUMPI PUSH1 0x0 CALLDATASIZE PUSH1 0x3 NOT ADD SLT PUSH2 0x264 JUMPI PUSH1 0x20 PUSH1 0x40 MLOAD PUSH4 0x1E13380 DUP2 MSTORE RETURN JUMPDEST CALLVALUE PUSH2 0x264 JUMPI PUSH1 0x0 CALLDATASIZE PUSH1 0x3 NOT ADD SLT PUSH2 0x264 JUMPI DUP1 PUSH1 0x64 PUSH1 0x20 SWAP3 MSTORE RETURN JUMPDEST PUSH1 0x40 SWAP1 PUSH1 0x3 NOT ADD SLT PUSH2 0x264 JUMPI PUSH1 0x4 CALLDATALOAD SWAP1 PUSH1 0x24 CALLDATALOAD SWAP1 JUMP JUMPDEST PUSH1 0x4 CALLDATALOAD SWAP1 PUSH1 0x1 PUSH1 0x1 PUSH1 0xA0 SHL SUB DUP3 AND DUP3 SUB PUSH2 0x264 JUMPI JUMP JUMPDEST DUP1 SLOAD DUP3 LT ISZERO PUSH2 0x2B4C JUMPI PUSH1 0x0 MSTORE PUSH1 0x20 PUSH1 0x0 KECCAK256 ADD SWAP1 PUSH1 0x0 SWAP1 JUMP JUMPDEST PUSH4 0x4E487B71 PUSH1 0xE0 SHL PUSH1 0x0 MSTORE PUSH1 0x32 PUSH1 0x4 MSTORE PUSH1 0x24 PUSH1 0x0 REVERT JUMPDEST PUSH1 0xC0 DUP2 ADD SWAP1 DUP2 LT PUSH8 0xFFFFFFFFFFFFFFFF DUP3 GT OR PUSH2 0x1037 JUMPI PUSH1 0x40 MSTORE JUMP JUMPDEST PUSH2 0x240 DUP2 ADD SWAP1 DUP2 LT PUSH8 0xFFFFFFFFFFFFFFFF DUP3 GT OR PUSH2 0x1037 JUMPI PUSH1 0x40 MSTORE JUMP JUMPDEST SWAP1 PUSH1 0x1F DUP1 NOT SWAP2 ADD AND DUP2 ADD SWAP1 DUP2 LT PUSH8 0xFFFFFFFFFFFFFFFF DUP3 GT OR PUSH2 0x1037 JUMPI PUSH1 0x40 MSTORE JUMP JUMPDEST PUSH8 0xFFFFFFFFFFFFFFFF DUP2 GT PUSH2 0x1037 JUMPI PUSH1 0x1F ADD PUSH1 0x1F NOT AND PUSH1 0x20 ADD SWAP1 JUMP JUMPDEST DUP2 PUSH1 0x1F DUP3 ADD SLT ISZERO PUSH2 0x264 JUMPI DUP1 CALLDATALOAD SWAP1 PUSH2 0x2BF0 DUP3 PUSH2 0x2BBD JUMP JUMPDEST SWAP3 PUSH2 0x2BFE PUSH1 0x40 MLOAD SWAP5 DUP6 PUSH2 0x2B9B JUMP JUMPDEST DUP3 DUP5 MSTORE PUSH1 0x20 DUP4 DUP4 ADD ADD GT PUSH2 0x264 JUMPI DUP2 PUSH1 0x0 SWAP3 PUSH1 0x20 DUP1 SWAP4 ADD DUP4 DUP7 ADD CALLDATACOPY DUP4 ADD ADD MSTORE SWAP1 JUMP JUMPDEST CALLVALUE PUSH2 0x264 JUMPI PUSH1 0x0 CALLDATASIZE PUSH1 0x3 NOT ADD SLT PUSH2 0x264 JUMPI PUSH1 0x20 PUSH1 0x40 MLOAD PUSH3 0x15180 DUP2 MSTORE RETURN JUMPDEST PUSH1 0x20 SWAP1 DUP2 PUSH1 0x40 DUP2 DUP4 ADD SWAP3 DUP3 DUP2 MSTORE DUP6 MLOAD DUP1 SWAP5 MSTORE ADD SWAP4 ADD SWAP2 PUSH1 0x0 JUMPDEST DUP3 DUP2 LT PUSH2 0x2C65 JUMPI POP POP POP POP SWAP1 JUMP JUMPDEST DUP4 MLOAD DUP6 MSTORE SWAP4 DUP2 ADD SWAP4 SWAP3 DUP2 ADD SWAP3 PUSH1 0x1 ADD PUSH2 0x2C57 JUMP JUMPDEST SWAP1 PUSH1 0x1 DUP3 DUP2 SHR SWAP3 AND DUP1 ISZERO PUSH2 0x2CA9 JUMPI JUMPDEST PUSH1 0x20 DUP4 LT EQ PUSH2 0x2C93 JUMPI JUMP JUMPDEST PUSH4 0x4E487B71 PUSH1 0xE0 SHL PUSH1 0x0 MSTORE PUSH1 0x22 PUSH1 0x4 MSTORE PUSH1 0x24 PUSH1 0x0 REVERT JUMPDEST SWAP2 PUSH1 0x7F AND SWAP2 PUSH2 0x2C88 JUMP JUMPDEST SWAP1 PUSH1 0x40 MLOAD SWAP2 DUP3 PUSH1 0x0 DUP3 SLOAD SWAP3 PUSH2 0x2CC7 DUP5 PUSH2 0x2C79 JUMP JUMPDEST SWAP1 DUP2 DUP5 MSTORE PUSH1 0x1 SWAP5 DUP6 DUP2 AND SWAP1 DUP2 PUSH1 0x0 EQ PUSH2 0x2D36 JUMPI POP PUSH1 0x1 EQ PUSH2 0x2CF3 JUMPI JUMPDEST POP POP PUSH2 0x2CF1 SWAP3 POP SUB DUP4 PUSH2 0x2B9B JUMP JUMPDEST JUMP JUMPDEST SWAP1 SWAP4 SWAP2 POP PUSH1 0x0 MSTORE PUSH1 0x20 SWAP1 DUP2 PUSH1 0x0 KECCAK256 SWAP4 PUSH1 0x0 SWAP2 JUMPDEST DUP2 DUP4 LT PUSH2 0x2D1E JUMPI POP POP PUSH2 0x2CF1 SWAP4 POP DUP3 ADD ADD CODESIZE DUP1 PUSH2 0x2CE3 JUMP JUMPDEST DUP6 SLOAD DUP9 DUP5 ADD DUP6 ADD MSTORE SWAP5 DUP6 ADD SWAP5 DUP8 SWAP5 POP SWAP2 DUP4 ADD SWAP2 PUSH2 0x2D06 JUMP JUMPDEST SWAP2 POP POP PUSH2 0x2CF1 SWAP5 POP PUSH1 0x20 SWAP3 POP PUSH1 0xFF NOT AND DUP3 DUP5 ADD MSTORE ISZERO ISZERO PUSH1 0x5 SHL DUP3 ADD ADD CODESIZE DUP1 PUSH2 0x2CE3 JUMP JUMPDEST SWAP2 SWAP1 DUP3 MLOAD SWAP3 DUP4 DUP3 MSTORE PUSH1 0x0 JUMPDEST DUP5 DUP2 LT PUSH2 0x2D85 JUMPI POP POP DUP3 PUSH1 0x0 PUSH1 0x20 DUP1 SWAP5 SWAP6 DUP5 ADD ADD MSTORE PUSH1 0x1F DUP1 NOT SWAP2 ADD AND ADD ADD SWAP1 JUMP JUMPDEST PUSH1 0x20 DUP2 DUP4 ADD DUP2 ADD MLOAD DUP5 DUP4 ADD DUP3 ADD MSTORE ADD PUSH2 0x2D64 JUMP JUMPDEST PUSH1 0x1 SLOAD PUSH1 0x1 PUSH1 0x1 PUSH1 0xA0 SHL SUB AND CALLER SUB PUSH2 0x2DAD JUMPI JUMP JUMPDEST PUSH1 0x40 MLOAD PUSH4 0x118CDAA7 PUSH1 0xE0 SHL DUP2 MSTORE CALLER PUSH1 0x4 DUP3 ADD MSTORE PUSH1 0x24 SWAP1 REVERT JUMPDEST PUSH1 0x2 DUP3 LT ISZERO PUSH2 0x737 JUMPI MSTORE JUMP JUMPDEST PUSH1 0x0 NOT DUP2 EQ PUSH2 0x65B JUMPI PUSH1 0x1 ADD SWAP1 JUMP JUMPDEST ISZERO PUSH2 0x2DE7 JUMPI JUMP JUMPDEST PUSH1 0x40 MLOAD PUSH3 0x461BCD PUSH1 0xE5 SHL DUP2 MSTORE PUSH1 0x20 PUSH1 0x4 DUP3 ADD MSTORE PUSH1 0x13 PUSH1 0x24 DUP3 ADD MSTORE PUSH19 0x151BDAD95B881B9BDD081CDD5C1C1BDC9D1959 PUSH1 0x6A SHL PUSH1 0x44 DUP3 ADD MSTORE PUSH1 0x64 SWAP1 REVERT JUMPDEST MLOAD SWAP1 PUSH10 0xFFFFFFFFFFFFFFFFFFFF DUP3 AND DUP3 SUB PUSH2 0x264 JUMPI JUMP JUMPDEST SWAP2 SWAP1 DUP3 SUB SWAP2 DUP3 GT PUSH2 0x65B JUMPI JUMP JUMPDEST SWAP1 PUSH1 0x0 SWAP2 DUP3 MSTORE PUSH1 0x20 PUSH1 0xE DUP2 MSTORE PUSH1 0x40 DUP1 DUP5 KECCAK256 DUP2 MLOAD PUSH2 0x2E62 DUP2 PUSH2 0x2B62 JUMP JUMPDEST PUSH2 0x2EC4 PUSH1 0x2 DUP4 SLOAD SWAP4 PUSH2 0x2E77 PUSH1 0xFF DUP7 AND DUP6 PUSH2 0x2DC5 JUMP JUMPDEST PUSH1 0x1 DUP1 PUSH1 0xA0 SHL SUB DUP1 SWAP6 PUSH1 0x8 SHR AND DUP8 DUP6 ADD MSTORE PUSH2 0x2E94 PUSH1 0x1 DUP3 ADD PUSH2 0x2CB3 JUMP JUMPDEST DUP7 DUP6 ADD MSTORE ADD SLOAD SWAP2 PUSH1 0xFF DUP4 AND PUSH1 0x60 DUP3 ADD MSTORE DUP4 PUSH1 0xA0 PUSH1 0xFF DUP6 PUSH1 0x8 SHR AND ISZERO ISZERO SWAP3 DUP4 PUSH1 0x80 DUP3 ADD MSTORE ADD SWAP4 PUSH1 0x10 SHR AND DUP4 MSTORE PUSH2 0x2DE0 JUMP JUMPDEST MLOAD AND DUP1 ISZERO PUSH2 0x3031 JUMPI SWAP1 PUSH1 0xA0 PUSH1 0x4 SWAP4 SWAP3 DUP3 MLOAD SWAP5 DUP6 DUP1 SWAP3 PUSH4 0x3FABE5A3 PUSH1 0xE2 SHL DUP3 MSTORE GAS STATICCALL SWAP5 DUP6 ISZERO PUSH2 0x3026 JUMPI DUP1 SWAP4 DUP2 SWAP7 PUSH2 0x2FCE JUMPI JUMPDEST POP DUP4 SGT ISZERO PUSH2 0x2F8B JUMPI DUP5 ISZERO PUSH2 0x2F53 JUMPI PUSH2 0xE10 PUSH2 0x2F10 DUP7 TIMESTAMP PUSH2 0x2E39 JUMP JUMPDEST GT PUSH2 0x2F1B JUMPI POP POP SWAP2 SWAP1 JUMP JUMPDEST PUSH1 0x64 SWAP3 POP MLOAD SWAP1 PUSH3 0x461BCD PUSH1 0xE5 SHL DUP3 MSTORE PUSH1 0x4 DUP3 ADD MSTORE PUSH1 0x12 PUSH1 0x24 DUP3 ADD MSTORE PUSH18 0x141C9A58D94819185D18481D1BDBC81BDB19 PUSH1 0x72 SHL PUSH1 0x44 DUP3 ADD MSTORE REVERT JUMPDEST PUSH1 0x64 SWAP3 POP MLOAD SWAP1 PUSH3 0x461BCD PUSH1 0xE5 SHL DUP3 MSTORE PUSH1 0x4 DUP3 ADD MSTORE PUSH1 0x12 PUSH1 0x24 DUP3 ADD MSTORE PUSH18 0x526F756E64206E6F7420636F6D706C657465 PUSH1 0x70 SHL PUSH1 0x44 DUP3 ADD MSTORE REVERT JUMPDEST PUSH1 0x64 SWAP3 POP MLOAD SWAP1 PUSH3 0x461BCD PUSH1 0xE5 SHL DUP3 MSTORE PUSH1 0x4 DUP3 ADD MSTORE PUSH1 0x19 PUSH1 0x24 DUP3 ADD MSTORE PUSH32 0x496E76616C69642070726963652066726F6D206F7261636C6500000000000000 PUSH1 0x44 DUP3 ADD MSTORE REVERT JUMPDEST SWAP4 POP SWAP5 POP PUSH1 0xA0 DUP4 RETURNDATASIZE DUP3 GT PUSH2 0x301E JUMPI JUMPDEST DUP2 PUSH2 0x2FEA PUSH1 0xA0 SWAP4 DUP4 PUSH2 0x2B9B JUMP JUMPDEST DUP2 ADD SUB SLT PUSH2 0x301A JUMPI PUSH2 0x2FFB DUP4 PUSH2 0x2E22 JUMP JUMPDEST POP DUP2 DUP4 ADD MLOAD PUSH2 0x3011 PUSH1 0x80 PUSH1 0x60 DUP7 ADD MLOAD SWAP6 ADD PUSH2 0x2E22 JUMP JUMPDEST POP SWAP3 SWAP5 CODESIZE PUSH2 0x2EF5 JUMP JUMPDEST DUP5 DUP1 REVERT JUMPDEST RETURNDATASIZE SWAP2 POP PUSH2 0x2FDD JUMP JUMPDEST SWAP1 MLOAD SWAP1 RETURNDATASIZE SWAP1 DUP3 RETURNDATACOPY RETURNDATASIZE SWAP1 REVERT JUMPDEST POP POP POP SWAP1 POP PUSH5 0x2E90EDD000 SWAP1 TIMESTAMP SWAP1 JUMP JUMPDEST DUP2 DUP2 MUL SWAP3 SWAP2 DUP2 ISZERO SWAP2 DUP5 DIV EQ OR ISZERO PUSH2 0x65B JUMPI JUMP JUMPDEST PUSH1 0xFF AND PUSH1 0x4D DUP2 GT PUSH2 0x65B JUMPI PUSH1 0xA EXP SWAP1 JUMP JUMPDEST DUP2 ISZERO PUSH2 0x306F JUMPI DIV SWAP1 JUMP JUMPDEST PUSH4 0x4E487B71 PUSH1 0xE0 SHL PUSH1 0x0 MSTORE PUSH1 0x12 PUSH1 0x4 MSTORE PUSH1 0x24 PUSH1 0x0 REVERT JUMPDEST SWAP1 PUSH2 0x308F DUP3 PUSH2 0x2E46 JUMP JUMPDEST POP SWAP2 PUSH1 0x0 MSTORE PUSH1 0xE PUSH1 0x20 MSTORE PUSH1 0x40 PUSH1 0x0 KECCAK256 SWAP2 PUSH1 0x40 MLOAD SWAP2 PUSH2 0x30AC DUP4 PUSH2 0x2B62 JUMP JUMPDEST PUSH1 0x8 DUP5 SLOAD PUSH1 0x2 PUSH1 0xFF SWAP7 PUSH2 0x30C1 DUP9 DUP5 AND DUP9 PUSH2 0x2DC5 JUMP JUMPDEST PUSH1 0x1 PUSH1 0x1 PUSH1 0xA0 SHL SUB SWAP3 DUP5 SHR DUP4 AND PUSH1 0x20 DUP9 ADD MSTORE PUSH2 0x30DF PUSH1 0x1 DUP3 ADD PUSH2 0x2CB3 JUMP JUMPDEST PUSH1 0x40 DUP9 ADD MSTORE ADD SLOAD SWAP5 PUSH1 0xA0 DUP8 DUP8 AND SWAP3 PUSH1 0x60 DUP4 ADD SWAP8 DUP5 DUP10 MSTORE DUP10 DUP2 DUP8 SHR AND ISZERO ISZERO PUSH1 0x80 DUP6 ADD MSTORE PUSH1 0x10 SHR AND SWAP2 ADD MSTORE GT ISZERO PUSH1 0x0 EQ PUSH2 0x3133 JUMPI SWAP3 PUSH2 0x3122 PUSH2 0x312A SWAP3 PUSH2 0x3130 SWAP6 PUSH2 0x3041 JUMP JUMPDEST SWAP3 MLOAD AND PUSH2 0x3054 JUMP JUMPDEST SWAP1 PUSH2 0x3065 JUMP JUMPDEST SWAP1 JUMP JUMPDEST PUSH2 0x314C SWAP2 PUSH2 0x3140 SWAP2 PUSH2 0x3041 JUMP JUMPDEST PUSH2 0x312A DUP5 DUP5 MLOAD AND PUSH2 0x3054 JUMP JUMPDEST SWAP1 MLOAD DUP3 AND PUSH1 0x7 NOT ADD SWAP2 DUP3 GT PUSH2 0x65B JUMPI PUSH2 0x312A PUSH2 0x3130 SWAP3 PUSH2 0x3054 JUMP JUMPDEST ISZERO PUSH2 0x316E JUMPI JUMP JUMPDEST PUSH1 0x40 MLOAD PUSH3 0x461BCD PUSH1 0xE5 SHL DUP2 MSTORE PUSH1 0x20 PUSH1 0x4 DUP3 ADD MSTORE PUSH1 0x13 PUSH1 0x24 DUP3 ADD MSTORE PUSH19 0x131BD85B88191BD95CC81B9BDD08195E1A5CDD PUSH1 0x6A SHL PUSH1 0x44 DUP3 ADD MSTORE PUSH1 0x64 SWAP1 REVERT JUMPDEST ISZERO PUSH2 0x31B0 JUMPI JUMP JUMPDEST PUSH1 0x40 MLOAD PUSH3 0x461BCD PUSH1 0xE5 SHL DUP2 MSTORE PUSH1 0x20 PUSH1 0x4 DUP3 ADD MSTORE PUSH1 0xF PUSH1 0x24 DUP3 ADD MSTORE PUSH15 0x4C6F616E206E6F7420616374697665 PUSH1 0x88 SHL PUSH1 0x44 DUP3 ADD MSTORE PUSH1 0x64 SWAP1 REVERT JUMPDEST SWAP1 PUSH1 0x0 SWAP2 DUP3 MSTORE PUSH1 0xD PUSH1 0x20 MSTORE PUSH1 0x40 DUP3 KECCAK256 SWAP2 PUSH1 0x40 MLOAD PUSH2 0x3203 DUP2 PUSH2 0x2B7E JUMP JUMPDEST DUP4 SLOAD DUP2 MSTORE PUSH1 0x1 DUP1 PUSH1 0xA0 SHL SUB DUP1 PUSH1 0x1 DUP7 ADD SLOAD AND PUSH1 0x20 DUP4 ADD SWAP1 DUP2 MSTORE DUP2 PUSH1 0x2 DUP8 ADD SLOAD AND PUSH1 0x40 DUP5 ADD MSTORE PUSH1 0x3 DUP7 ADD SLOAD SWAP3 PUSH1 0x60 DUP2 ADD SWAP4 DUP5 MSTORE PUSH1 0x4 DUP8 ADD SLOAD SWAP1 PUSH1 0x80 DUP2 ADD SWAP2 DUP3 MSTORE PUSH1 0x5 DUP9 ADD SLOAD SWAP4 PUSH1 0xA0 DUP3 ADD SWAP5 DUP6 MSTORE PUSH1 0x6 DUP10 ADD SLOAD SWAP4 PUSH1 0xC0 DUP4 ADD SWAP5 DUP6 MSTORE PUSH1 0x7 DUP11 ADD SLOAD PUSH1 0xE0 DUP5 ADD MSTORE PUSH1 0x8 DUP11 ADD SLOAD PUSH2 0x100 DUP5 ADD MSTORE PUSH1 0x9 DUP11 ADD SLOAD PUSH2 0x120 DUP5 ADD MSTORE PUSH1 0xA DUP11 ADD SLOAD PUSH2 0x140 DUP5 ADD MSTORE PUSH1 0xB DUP11 ADD SLOAD PUSH2 0x160 DUP5 ADD MSTORE PUSH1 0xFF PUSH1 0xC DUP12 ADD SLOAD AND SWAP3 PUSH2 0x180 DUP2 ADD SWAP4 PUSH1 0x6 DUP2 LT ISZERO PUSH2 0x3381 JUMPI DUP5 MSTORE PUSH2 0x3300 SWAP3 SWAP2 SWAP1 PUSH2 0x220 PUSH1 0x11 PUSH1 0x10 DUP15 PUSH2 0x32C6 PUSH1 0xD DUP3 ADD PUSH2 0x2CB3 JUMP JUMPDEST PUSH2 0x1A0 DUP7 ADD MSTORE PUSH1 0xE DUP2 ADD SLOAD PUSH2 0x1C0 DUP7 ADD MSTORE PUSH1 0xFF PUSH1 0xF DUP3 ADD SLOAD AND ISZERO ISZERO PUSH2 0x1E0 DUP7 ADD MSTORE ADD SLOAD SWAP14 PUSH2 0x200 DUP5 ADD SWAP15 DUP16 MSTORE ADD SLOAD SWAP2 ADD MSTORE MLOAD AND ISZERO ISZERO PUSH2 0x3167 JUMP JUMPDEST MLOAD PUSH1 0x6 DUP2 LT ISZERO PUSH2 0x336D JUMPI SWAP2 PUSH2 0x3328 SWAP2 PUSH2 0x331F PUSH1 0x1 PUSH2 0x3332 SWAP7 SWAP6 EQ PUSH2 0x31A9 JUMP JUMPDEST MLOAD SWAP1 MLOAD SWAP1 PUSH2 0x3085 JUMP JUMPDEST SWAP3 MLOAD SWAP1 MLOAD SWAP1 PUSH2 0x3085 JUMP JUMPDEST SWAP2 PUSH1 0x64 DUP3 MUL SWAP2 DUP1 DUP4 DIV PUSH1 0x64 EQ SWAP1 ISZERO OR ISZERO PUSH2 0x3359 JUMPI POP SWAP1 PUSH2 0x3351 SWAP2 PUSH2 0x3065 JUMP JUMPDEST SWAP2 MLOAD DUP3 LT SWAP2 SWAP1 JUMP JUMPDEST PUSH4 0x4E487B71 PUSH1 0xE0 SHL DUP2 MSTORE PUSH1 0x11 PUSH1 0x4 MSTORE PUSH1 0x24 SWAP1 REVERT JUMPDEST PUSH4 0x4E487B71 PUSH1 0xE0 SHL DUP7 MSTORE PUSH1 0x21 PUSH1 0x4 MSTORE PUSH1 0x24 DUP7 REVERT JUMPDEST PUSH4 0x4E487B71 PUSH1 0xE0 SHL DUP11 MSTORE PUSH1 0x21 PUSH1 0x4 MSTORE PUSH1 0x24 DUP11 REVERT JUMPDEST SWAP2 SWAP1 DUP3 ADD DUP1 SWAP3 GT PUSH2 0x65B JUMPI JUMP JUMPDEST PUSH1 0x0 SWAP1 DUP2 MSTORE PUSH1 0x14 PUSH1 0x20 MSTORE PUSH1 0x40 DUP2 KECCAK256 SLOAD PUSH1 0xA SLOAD SWAP1 DUP2 DUP1 DUP3 GT PUSH2 0x33F2 JUMPI POP PUSH2 0x2710 SWAP3 DUP4 DUP3 MUL SWAP2 DUP1 DUP4 DIV DUP6 EQ SWAP1 ISZERO OR ISZERO PUSH2 0x3359 JUMPI POP PUSH2 0x3130 SWAP3 SWAP2 PUSH2 0x33E2 SWAP2 PUSH2 0x3065 JUMP JUMPDEST SWAP1 PUSH2 0x458 PUSH1 0x9 SLOAD SWAP3 PUSH1 0xB SLOAD PUSH2 0x3041 JUMP JUMPDEST PUSH2 0x33FB SWAP2 PUSH2 0x2E39 JUMP JUMPDEST SWAP2 PUSH2 0x3417 PUSH2 0x340E PUSH1 0x9 SLOAD PUSH1 0xB SLOAD SWAP1 PUSH2 0x3395 JUMP JUMPDEST SWAP4 PUSH1 0xC SLOAD PUSH2 0x3041 JUMP JUMPDEST SWAP1 PUSH2 0x2710 SWAP3 DUP4 SUB SWAP3 DUP4 GT PUSH2 0x3359 JUMPI POP PUSH2 0x3130 SWAP3 SWAP2 PUSH2 0x3434 SWAP2 PUSH2 0x3065 JUMP JUMPDEST SWAP1 PUSH2 0x3395 JUMP JUMPDEST ISZERO PUSH2 0x3441 JUMPI JUMP JUMPDEST PUSH1 0x40 MLOAD PUSH3 0x461BCD PUSH1 0xE5 SHL DUP2 MSTORE PUSH1 0x20 PUSH1 0x4 DUP3 ADD MSTORE PUSH1 0x10 PUSH1 0x24 DUP3 ADD MSTORE PUSH16 0x24B73B30B634B210323AB930BA34B7B7 PUSH1 0x81 SHL PUSH1 0x44 DUP3 ADD MSTORE PUSH1 0x64 SWAP1 REVERT JUMPDEST DUP1 SLOAD PUSH9 0x10000000000000000 DUP2 LT ISZERO PUSH2 0x1037 JUMPI PUSH2 0x349B SWAP2 PUSH1 0x1 DUP3 ADD DUP2 SSTORE PUSH2 0x2B34 JUMP JUMPDEST DUP2 SWAP3 SWAP2 SLOAD SWAP1 PUSH1 0x3 SHL SWAP2 DUP3 SHL SWAP2 PUSH1 0x0 NOT SWAP1 SHL NOT AND OR SWAP1 SSTORE JUMP JUMPDEST PUSH1 0x40 MLOAD PUSH4 0x23B872DD PUSH1 0xE0 SHL PUSH1 0x20 DUP3 ADD MSTORE PUSH1 0x1 PUSH1 0x1 PUSH1 0xA0 SHL SUB SWAP3 DUP4 AND PUSH1 0x24 DUP3 ADD MSTORE SWAP3 SWAP1 SWAP2 AND PUSH1 0x44 DUP4 ADD MSTORE PUSH1 0x64 DUP1 DUP4 ADD SWAP4 SWAP1 SWAP4 MSTORE SWAP2 DUP2 MSTORE PUSH1 0xA0 DUP2 ADD SWAP2 DUP2 DUP4 LT PUSH8 0xFFFFFFFFFFFFFFFF DUP5 GT OR PUSH2 0x1037 JUMPI PUSH2 0x2CF1 SWAP3 PUSH1 0x40 MSTORE JUMPDEST SWAP1 PUSH1 0x0 PUSH1 0x20 SWAP2 DUP3 DUP2 MLOAD SWAP2 ADD DUP3 DUP6 GAS CALL ISZERO PUSH2 0x1177 JUMPI PUSH1 0x0 MLOAD RETURNDATASIZE PUSH2 0x355B JUMPI POP PUSH1 0x1 PUSH1 0x1 PUSH1 0xA0 SHL SUB DUP2 AND EXTCODESIZE ISZERO JUMPDEST PUSH2 0x3539 JUMPI POP JUMP JUMPDEST PUSH1 0x40 MLOAD PUSH4 0x5274AFE7 PUSH1 0xE0 SHL DUP2 MSTORE PUSH1 0x1 PUSH1 0x1 PUSH1 0xA0 SHL SUB SWAP1 SWAP2 AND PUSH1 0x4 DUP3 ADD MSTORE PUSH1 0x24 SWAP1 REVERT JUMPDEST PUSH1 0x1 EQ ISZERO PUSH2 0x3532 JUMP JUMPDEST PUSH1 0xFF PUSH1 0x1 SLOAD PUSH1 0xA0 SHR AND PUSH2 0x3573 JUMPI JUMP JUMPDEST PUSH1 0x40 MLOAD PUSH4 0xD93C0665 PUSH1 0xE0 SHL DUP2 MSTORE PUSH1 0x4 SWAP1 REVERT JUMPDEST PUSH1 0x2 PUSH1 0x0 SLOAD EQ PUSH2 0x3596 JUMPI PUSH1 0x2 PUSH1 0x0 SSTORE JUMP JUMPDEST PUSH1 0x40 MLOAD PUSH4 0x3EE5AEB5 PUSH1 0xE0 SHL DUP2 MSTORE PUSH1 0x4 SWAP1 REVERT JUMPDEST RETURNDATASIZE ISZERO PUSH2 0x35D3 JUMPI RETURNDATASIZE SWAP1 PUSH2 0x35B9 DUP3 PUSH2 0x2BBD JUMP JUMPDEST SWAP2 PUSH2 0x35C7 PUSH1 0x40 MLOAD SWAP4 DUP5 PUSH2 0x2B9B JUMP JUMPDEST DUP3 MSTORE RETURNDATASIZE PUSH1 0x0 PUSH1 0x20 DUP5 ADD RETURNDATACOPY JUMP JUMPDEST PUSH1 0x60 SWAP1 JUMP JUMPDEST ISZERO PUSH2 0x35DF JUMPI JUMP JUMPDEST PUSH1 0x40 MLOAD PUSH3 0x461BCD PUSH1 0xE5 SHL DUP2 MSTORE PUSH1 0x20 PUSH1 0x4 DUP3 ADD MSTORE PUSH1 0x12 PUSH1 0x24 DUP3 ADD MSTORE PUSH18 0x41756374696F6E206E6F7420616374697665 PUSH1 0x70 SHL PUSH1 0x44 DUP3 ADD MSTORE PUSH1 0x64 SWAP1 REVERT JUMPDEST PUSH1 0x40 MLOAD PUSH4 0xA9059CBB PUSH1 0xE0 SHL PUSH1 0x20 DUP3 ADD MSTORE PUSH1 0x1 PUSH1 0x1 PUSH1 0xA0 SHL SUB SWAP1 SWAP3 AND PUSH1 0x24 DUP4 ADD MSTORE PUSH1 0x44 DUP1 DUP4 ADD SWAP4 SWAP1 SWAP4 MSTORE SWAP2 DUP2 MSTORE PUSH1 0x80 DUP2 ADD SWAP2 PUSH8 0xFFFFFFFFFFFFFFFF DUP4 GT DUP3 DUP5 LT OR PUSH2 0x1037 JUMPI PUSH2 0x2CF1 SWAP3 PUSH1 0x40 MSTORE PUSH2 0x3508 JUMP JUMPDEST PUSH1 0x0 SWAP1 DUP2 MSTORE PUSH1 0xD PUSH1 0x20 MSTORE PUSH1 0x40 DUP2 KECCAK256 PUSH1 0x4 DUP2 ADD SLOAD DUP1 DUP4 MSTORE PUSH1 0xE PUSH1 0x20 MSTORE PUSH1 0xFF PUSH1 0x40 DUP5 KECCAK256 SLOAD AND PUSH1 0x2 DUP2 LT ISZERO PUSH2 0x373C JUMPI PUSH2 0x370B JUMPI POP PUSH1 0x1 DUP2 ADD SLOAD PUSH1 0x6 SWAP1 SWAP2 ADD SLOAD DUP3 SWAP2 DUP3 SWAP2 DUP3 SWAP2 PUSH1 0x1 PUSH1 0x1 PUSH1 0xA0 SHL SUB AND GAS CALL PUSH2 0x36BE PUSH2 0x35A8 JUMP JUMPDEST POP ISZERO PUSH2 0x36C6 JUMPI JUMP JUMPDEST PUSH1 0x40 MLOAD PUSH3 0x461BCD PUSH1 0xE5 SHL DUP2 MSTORE PUSH1 0x20 PUSH1 0x4 DUP3 ADD MSTORE PUSH1 0x18 PUSH1 0x24 DUP3 ADD MSTORE PUSH32 0x436F6C6C61746572616C2072657475726E206661696C65640000000000000000 PUSH1 0x44 DUP3 ADD MSTORE PUSH1 0x64 SWAP1 REVERT JUMPDEST SWAP1 PUSH1 0x6 DUP4 PUSH1 0x40 SWAP4 PUSH2 0x2CF1 SWAP6 MSTORE PUSH1 0xE PUSH1 0x20 MSTORE PUSH1 0x1 DUP1 PUSH1 0xA0 SHL SUB SWAP4 DUP5 SWAP2 KECCAK256 SLOAD PUSH1 0x8 SHR AND SWAP3 PUSH1 0x1 DUP4 ADD SLOAD AND SWAP2 ADD SLOAD SWAP2 PUSH2 0x3619 JUMP JUMPDEST PUSH4 0x4E487B71 PUSH1 0xE0 SHL DUP5 MSTORE PUSH1 0x21 PUSH1 0x4 MSTORE PUSH1 0x24 DUP5 REVERT JUMPDEST PUSH8 0xFFFFFFFFFFFFFFFF DUP2 GT PUSH2 0x1037 JUMPI PUSH1 0x5 SHL PUSH1 0x20 ADD SWAP1 JUMP JUMPDEST SWAP1 PUSH2 0x3772 DUP3 PUSH2 0x3750 JUMP JUMPDEST PUSH2 0x377F PUSH1 0x40 MLOAD SWAP2 DUP3 PUSH2 0x2B9B JUMP JUMPDEST DUP3 DUP2 MSTORE DUP1 SWAP3 PUSH2 0x3790 PUSH1 0x1F NOT SWAP2 PUSH2 0x3750 JUMP JUMPDEST ADD SWAP1 PUSH1 0x20 CALLDATASIZE SWAP2 ADD CALLDATACOPY JUMP JUMPDEST DUP1 MLOAD DUP3 LT ISZERO PUSH2 0x2B4C JUMPI PUSH1 0x20 SWAP2 PUSH1 0x5 SHL ADD ADD SWAP1 JUMP INVALID PUSH26 0xC012A0CFAE660E09134956BC432C8497EC80E86A3A108D130E8B EXTCODEHASH 0xCA MSTORE 0xB3 0xAD COINBASE 0xE3 PUSH23 0xFD99913DEA7FDA140F5C0BD997515B1A181ACC58737320 ORIGIN 0x25 BASEFEE 0xEC PUSH15 0x72A2646970667358221220818431FF 0xFC 0xA5 0xCA 0xB2 ADDRESS 0xD2 CREATE INVALID DUP10 0xD DUP14 RETURN 0x28 LOG1 0xB5 PUSH1 0x96 0xD1 CREATE CALLDATACOPY OR PUSH13 0xB83D9659188164736F6C634300 ADDMOD EQ STOP CALLER "},"methodIdentifiers":{"AUCTION_DURATION()":"a271e525","LIQUIDATION_THRESHOLD()":"90a8ae9b","MAX_INTEREST_RATE()":"34855d14","MAX_LOAN_DURATION()":"0d0b2ca6","MIN_COLLATERAL_RATIO()":"7a9fffb7","MIN_CREDIT_SCORE()":"0a49cf4d","MIN_LOAN_DURATION()":"89d99a05","PRICE_STALENESS_THRESHOLD()":"f25b9caa","addSupportedToken(address,string,uint8,address)":"5c211efc","authorizedRiskOracles(address)":"6eef1154","baseInterestRate()":"afd92762","borrowerLoans(address,uint256)":"e3ed1902","calculateDynamicRate(uint256)":"844186f1","calculateUSDValue(uint256,uint256)":"119328d6","collectedFees()":"9003adfe","creditScores(address)":"80bb7273","feeRecipient()":"46904840","finalizeAuction(uint256)":"e8083863","fundLoan(uint256)":"846b909a","getActiveLoanRequests()":"9772d7ee","getLatestPrice(uint256)":"b94fe917","getLoansEligibleForLiquidation()":"b891ba44","isLoanUnderwater(uint256)":"5003e25a","lenderLoans(address,uint256)":"3cdb72f1","liquidateLoan(uint256)":"ccdd9f5d","liquidationAuctions(uint256)":"f8fa3ea7","liquidationFeeRate()":"5fb3b1b5","loans(uint256)":"e1ec3c68","nextAuctionId()":"fc528482","nextLoanId()":"87c51459","nextTokenId()":"75794a3c","owner()":"8da5cb5b","pause()":"8456cb59","paused()":"5c975abb","placeBid(uint256)":"9979ef45","protocolFeeRate()":"58f85880","rateSlope1()":"5454a4b6","rateSlope2()":"1eedf5c7","renounceOwnership()":"715018a6","repayLoan(uint256)":"ab7b1c89","requestLoan(uint256,uint256,uint256,uint256,uint256,string)":"da69dd59","supportedTokens(uint256)":"c6255626","tokenUtilization(uint256)":"781c9923","transferOwnership(address)":"f2fde38b","unpause()":"3f4ba83a","updateDynamicRateParams(uint256,uint256,uint256,uint256)":"e4df2f3b","updateLiquidationParams(uint256,uint256)":"a5a2a5dd","updatePriceFeed(uint256,address)":"acfc827e","utilizationOptimal()":"35f78283","withdrawFees()":"476343ee"}}}}}