{
  "_format": "hh-sol-artifact-1",
  "contractName": "LoanRestructuring",
  "sourceName": "contracts/LoanRestructuring.sol",
  "abi": [
    {
      "inputs": [
        {
          "internalType": "address",
          "name": "_loanContract",
          "type": "address"
        }
      ],
      "stateMutability": "nonpayable",
      "type": "constructor"
    },
    {
      "anonymous": false,
      "inputs": [
        {
          "indexed": true,
          "internalType": "uint256",
          "name": "proposalId",
          "type": "uint256"
        },
        {
          "indexed": true,
          "internalType": "uint256",
          "name": "loanId",
          "type": "uint256"
        },
        {
          "indexed": true,
          "internalType": "address",
          "name": "proposer",
          "type": "address"
        },
        {
          "indexed": false,
          "internalType": "enum LoanRestructuring.ProposalType",
          "name": "proposalType",
          "type": "uint8"
        }
      ],
      "name": "ProposalCreated",
      "type": "event"
    },
    {
      "anonymous": false,
      "inputs": [
        {
          "indexed": true,
          "internalType": "uint256",
          "name": "proposalId",
          "type": "uint256"
        },
        {
          "indexed": true,
          "internalType": "uint256",
          "name": "loanId",
          "type": "uint256"
        },
        {
          "indexed": false,
          "internalType": "enum LoanRestructuring.ProposalStatus",
          "name": "status",
          "type": "uint8"
        }
      ],
      "name": "ProposalExecuted",
      "type": "event"
    },
    {
      "anonymous": false,
      "inputs": [
        {
          "indexed": true,
          "internalType": "uint256",
          "name": "proposalId",
          "type": "uint256"
        },
        {
          "indexed": true,
          "internalType": "address",
          "name": "voter",
          "type": "address"
        },
        {
          "indexed": false,
          "internalType": "bool",
          "name": "choice",
          "type": "bool"
        },
        {
          "indexed": false,
          "internalType": "uint256",
          "name": "weight",
          "type": "uint256"
        }
      ],
      "name": "VoteCast",
      "type": "event"
    },
    {
      "inputs": [],
      "name": "MIN_VOTING_THRESHOLD",
      "outputs": [
        {
          "internalType": "uint256",
          "name": "",
          "type": "uint256"
        }
      ],
      "stateMutability": "view",
      "type": "function"
    },
    {
      "inputs": [],
      "name": "VOTING_PERIOD",
      "outputs": [
        {
          "internalType": "uint256",
          "name": "",
          "type": "uint256"
        }
      ],
      "stateMutability": "view",
      "type": "function"
    },
    {
      "inputs": [
        {
          "internalType": "address",
          "name": "_voter",
          "type": "address"
        },
        {
          "internalType": "uint256",
          "name": "_loanId",
          "type": "uint256"
        }
      ],
      "name": "calculateVotingWeight",
      "outputs": [
        {
          "internalType": "uint256",
          "name": "",
          "type": "uint256"
        }
      ],
      "stateMutability": "pure",
      "type": "function"
    },
    {
      "inputs": [
        {
          "internalType": "uint256",
          "name": "_loanId",
          "type": "uint256"
        },
        {
          "internalType": "enum LoanRestructuring.ProposalType",
          "name": "_proposalType",
          "type": "uint8"
        },
        {
          "internalType": "uint256",
          "name": "_newInterestRate",
          "type": "uint256"
        },
        {
          "internalType": "uint256",
          "name": "_newDuration",
          "type": "uint256"
        },
        {
          "internalType": "uint256",
          "name": "_additionalCollateral",
          "type": "uint256"
        },
        {
          "internalType": "uint256",
          "name": "_reducedPrincipal",
          "type": "uint256"
        },
        {
          "internalType": "string",
          "name": "_reason",
          "type": "string"
        }
      ],
      "name": "createProposal",
      "outputs": [
        {
          "internalType": "uint256",
          "name": "",
          "type": "uint256"
        }
      ],
      "stateMutability": "nonpayable",
      "type": "function"
    },
    {
      "inputs": [
        {
          "internalType": "uint256",
          "name": "_loanId",
          "type": "uint256"
        },
        {
          "internalType": "uint256",
          "name": "_newInterestRate",
          "type": "uint256"
        },
        {
          "internalType": "uint256",
          "name": "_newDuration",
          "type": "uint256"
        },
        {
          "internalType": "string",
          "name": "_reason",
          "type": "string"
        }
      ],
      "name": "emergencyRestructure",
      "outputs": [],
      "stateMutability": "nonpayable",
      "type": "function"
    },
    {
      "inputs": [
        {
          "internalType": "uint256",
          "name": "_proposalId",
          "type": "uint256"
        }
      ],
      "name": "executeProposal",
      "outputs": [],
      "stateMutability": "nonpayable",
      "type": "function"
    },
    {
      "inputs": [
        {
          "internalType": "uint256",
          "name": "_proposalId",
          "type": "uint256"
        }
      ],
      "name": "expireProposal",
      "outputs": [],
      "stateMutability": "nonpayable",
      "type": "function"
    },
    {
      "inputs": [
        {
          "internalType": "uint256",
          "name": "_loanId",
          "type": "uint256"
        }
      ],
      "name": "getLoanProposals",
      "outputs": [
        {
          "internalType": "uint256[]",
          "name": "",
          "type": "uint256[]"
        }
      ],
      "stateMutability": "view",
      "type": "function"
    },
    {
      "inputs": [
        {
          "internalType": "uint256",
          "name": "_proposalId",
          "type": "uint256"
        }
      ],
      "name": "getProposal",
      "outputs": [
        {
          "internalType": "uint256",
          "name": "loanId",
          "type": "uint256"
        },
        {
          "internalType": "address",
          "name": "proposer",
          "type": "address"
        },
        {
          "internalType": "enum LoanRestructuring.ProposalType",
          "name": "proposalType",
          "type": "uint8"
        },
        {
          "internalType": "uint256",
          "name": "newInterestRate",
          "type": "uint256"
        },
        {
          "internalType": "uint256",
          "name": "newDuration",
          "type": "uint256"
        },
        {
          "internalType": "uint256",
          "name": "additionalCollateral",
          "type": "uint256"
        },
        {
          "internalType": "uint256",
          "name": "reducedPrincipal",
          "type": "uint256"
        },
        {
          "internalType": "string",
          "name": "reason",
          "type": "string"
        },
        {
          "internalType": "uint256",
          "name": "proposedAt",
          "type": "uint256"
        },
        {
          "internalType": "uint256",
          "name": "votingDeadline",
          "type": "uint256"
        },
        {
          "internalType": "enum LoanRestructuring.ProposalStatus",
          "name": "status",
          "type": "uint8"
        },
        {
          "internalType": "uint256",
          "name": "approvalVotes",
          "type": "uint256"
        },
        {
          "internalType": "uint256",
          "name": "rejectionVotes",
          "type": "uint256"
        }
      ],
      "stateMutability": "view",
      "type": "function"
    },
    {
      "inputs": [],
      "name": "loanContract",
      "outputs": [
        {
          "internalType": "contract ILoanChain",
          "name": "",
          "type": "address"
        }
      ],
      "stateMutability": "view",
      "type": "function"
    },
    {
      "inputs": [
        {
          "internalType": "uint256",
          "name": "",
          "type": "uint256"
        },
        {
          "internalType": "uint256",
          "name": "",
          "type": "uint256"
        }
      ],
      "name": "loanProposals",
      "outputs": [
        {
          "internalType": "uint256",
          "name": "",
          "type": "uint256"
        }
      ],
      "stateMutability": "view",
      "type": "function"
    },
    {
      "inputs": [],
      "name": "nextProposalId",
      "outputs": [
        {
          "internalType": "uint256",
          "name": "",
          "type": "uint256"
        }
      ],
      "stateMutability": "view",
      "type": "function"
    },
    {
      "inputs": [],
      "name": "owner",
      "outputs": [
        {
          "internalType": "address",
          "name": "",
          "type": "address"
        }
      ],
      "stateMutability": "view",
      "type": "function"
    },
    {
      "inputs": [
        {
          "internalType": "uint256",
          "name": "",
          "type": "uint256"
        }
      ],
      "name": "proposals",
      "outputs": [
        {
          "internalType": "uint256",
          "name": "loanId",
          "type": "uint256"
        },
        {
          "internalType": "address",
          "name": "proposer",
          "type": "address"
        },
        {
          "internalType": "enum LoanRestructuring.ProposalType",
          "name": "proposalType",
          "type": "uint8"
        },
        {
          "internalType": "uint256",
          "name": "newInterestRate",
          "type": "uint256"
        },
        {
          "internalType": "uint256",
          "name": "newDuration",
          "type": "uint256"
        },
        {
          "internalType": "uint256",
          "name": "additionalCollateral",
          "type": "uint256"
        },
        {
          "internalType": "uint256",
          "name": "reducedPrincipal",
          "type": "uint256"
        },
        {
          "internalType": "string",
          "name": "reason",
          "type": "string"
        },
        {
          "internalType": "uint256",
          "name": "proposedAt",
          "type": "uint256"
        },
        {
          "internalType": "uint256",
          "name": "votingDeadline",
          "type": "uint256"
        },
        {
          "internalType": "enum LoanRestructuring.ProposalStatus",
          "name": "status",
          "type": "uint8"
        },
        {
          "internalType": "uint256",
          "name": "approvalVotes",
          "type": "uint256"
        },
        {
          "internalType": "uint256",
          "name": "rejectionVotes",
          "type": "uint256"
        }
      ],
      "stateMutability": "view",
      "type": "function"
    },
    {
      "inputs": [
        {
          "internalType": "uint256",
          "name": "_proposalId",
          "type": "uint256"
        },
        {
          "internalType": "bool",
          "name": "_approve",
          "type": "bool"
        }
      ],
      "name": "vote",
      "outputs": [],
      "stateMutability": "nonpayable",
      "type": "function"
    }
  ],
  "bytecode": "0x60803461007957601f61136938819003918201601f19168301916001600160401b0383118484101761007e5780849260209460405283398101031261007957516001600160a01b03811690819003610079576001600355600480546001600160a01b0319169190911790556040516112d490816100958239f35b600080fd5b634e487b7160e01b600052604160045260246000fdfe6040608081526004908136101561001557600080fd5b600090813560e01c8063013cf08b14610d265780630d61b51914610ba9578063253f284b14610b815780632ab09d1414610b635780633974647b14610b1d578063494be52d14610a7e578063709aa269146107f55780638da5cb5b146107ce5780638f58cb67146107a2578063b1610d7e14610785578063c7f758a8146106f6578063c9d27afe14610567578063e1b526b01461047f578063e7f33bb6146104645763ebaa2abd146100c657600080fd5b346104605760e036600319011261046057823591602492833591600683101561045d5767ffffffffffffffff60c435818111610459576101099036908901610fdb565b9660018060a01b03808254169087518092632820036560e11b82528785830152818b6101809384935afa92831561044f57869187946103e1575b5050811633149182156103d4575b50501561039e5787511561036a576003549661016c8861104b565b60039081558885526001602081815289872088815580830180546001600160a81b0319163360ff60a01b19161760a08c901b60ff60a01b161790556044356002820155606435938101939093556084358584015560a43560058401558b51909b92956006870193908211610358578c6101e58554610dae565b601f8111610310575b50508c908d601f84116001146102ad57509282939183928a946102a2575b50501b916000199060031b1c19161790555b42600784015562093a804201918242116102915750506008820155600901805460ff191690558181526002865283902061025990859061108b565b61026583518093610ec6565b837fa9b7501054ec8150de9dd4c4819fea4051fa3f26ac91d7d08bfb403ea9a9c216863394a451908152f35b634e487b7160e01b85526011905283fd5b01519250388061020c565b919083601f198116878c52848c20948c905b888383106102f657505050106102dd575b505050811b01905561021e565b015160001960f88460031b161c191690553880806102d0565b8587015188559096019594850194879350908101906102bf565b858a52818a2090601f850160051c820192851061034e575b601f0160051c019084905b82811061034357508e91506101ee565b8a8155018490610333565b9091508190610328565b634e487b7160e01b8852604186528488fd5b606490600f88602089519362461bcd60e51b85528401528201526e1499585cdbdb881c995c5d5a5c9959608a1b6044820152fd5b606490601188602089519362461bcd60e51b8552840152820152702737ba10309039ba30b5b2b437b63232b960791b6044820152fd5b9091501633143880610151565b8194508092503d8311610448575b6103f98183610de8565b810103126104445761040d60208301611037565b610418898401611037565b9261014081015160ff8116036104405761016001518015150361043c578138610143565b8580fd5b8680fd5b8480fd5b503d6103ef565b89513d88823e3d90fd5b8280fd5b80fd5b5080fd5b50346104605781600319360112610460576020905160338152f35b5082346104595760203660031901126104595780359081845260016020528284206104af600782015415156110c5565b60098101805460ff81166005811015610554576104cc9015611111565b60088301546201518081018091116105415742111561050a5760ff19168317905554925190815260008051602061127f83398151915290602090a380f35b855162461bcd60e51b8152602081860152601160248201527010d85b9b9bdd08195e1c1a5c99481e595d607a1b6044820152606490fd5b634e487b7160e01b885260118552602488fd5b634e487b7160e01b885260218552602488fd5b509134610460578260031936011261046057803590602435801515918282036104445783855260209160018352868620916105a7600784015415156110c5565b600883015442116106bd5760ff60098401541660058110156106aa576105cd9015611111565b600c83019033885281855260ff8989205416610677575085937fcbdf6214089cba887ecbf35a0b6a734589959c9763342c756bb2a80ca2bc9f6e93610660989993600193338c528352848b2060ff19908582825416179055600d83018452858c209081541660ff8a1617905560001461066357600a0161064d8154611070565b90555b82519586528501523393a3611174565b80f35b600b016106708154611070565b9055610650565b885162461bcd60e51b8152908101859052600d60248201526c105b1c9958591e481d9bdd1959609a1b6044820152606490fd5b634e487b7160e01b885260218252602488fd5b875162461bcd60e51b81529081018490526013602482015272159bdd1a5b99c81c195c9a5bd908195b991959606a1b6044820152606490fd5b50903461045d57602036600319011261045d578161078191843581526001602052208054926001820154946002830154916003840154918401549060058501549060078601549160088701549360ff60098901541695600a890154976107636006600b8c01549b01610e20565b94519c8d9c60a082901c60ff16916001600160a01b0316908e610ef6565b0390f35b50346104605781600319360112610460576020905162093a808152f35b508234610459578160031936011261045957356001600160a01b03811603610460576020905160018152f35b5034610460578160031936011261046057905490516001600160a01b039091168152602090f35b5091346104605760803660031901126104605780359067ffffffffffffffff906064358281116104445761082c9036908301610fdb565b84549095906001600160a01b03163303610a4f5760039081549361084f8561104b565b83558487526001602081815283892088815580830180546001600160a81b0319163360ff60a01b191617600560a01b1790556024356002820155604435818701558a519196929390926006840192918211610a3c57506108af8254610dae565b601f81116109f6575b5086601f821160011461098357908060099493928c9d60008051602061127f8339815191529b9c9d92610978575b505060001982891b1c191690851b1790555b426007820155426008820155019060ff19825416179055858752600283526109228582892061108b565b6109438560005260016020526009604060002001600360ff19825416179055565b80516005815286867fa9b7501054ec8150de9dd4c4819fea4051fa3f26ac91d7d08bfb403ea9a9c216863394a451908152a380f35b0151905038806108e6565b828b52878b2090601f1983168c5b8181106109e1575091839160008051602061127f8339815191529b9c9d9e60099796958995106109c9575b505050811b0190556108f8565b0151600019838b1b60f8161c191690553880806109bc565b8e830151845592870192918a01918a01610991565b828b52878b20601f830160051c810191898410610a32575b601f0160051c019085905b828110610a275750506108b8565b8c8155018590610a19565b9091508190610a0e565b634e487b7160e01b8b526041905260248afd5b906020606492519162461bcd60e51b835282015260096024820152682737ba1037bbb732b960b91b6044820152fd5b5091903461045d57602091826003193601126104605792919235815260028352818120908251808584549182815201908194845286842090845b818110610b095750505081610ace910382610de8565b83519485948186019282875251809352850193925b828110610af257505050500390f35b835185528695509381019392810192600101610ae3565b825484529288019260019283019201610ab8565b50903461045d578160031936011261045d5760243592358152600260205281812090815484101561045d5750602092610b5591610fad565b91905490519160031b1c8152f35b50346104605781600319360112610460576020906003549051908152f35b5082346104595782600319360112610459575490516001600160a01b03909116815260209150f35b50829034610459576020366003190112610459578135908184526001602052808420610bda600782015415156110c5565b600981019384549060ff821660058110156106aa57610bf99015611111565b6008830154421115610ced57600a830154610c18600b8501548261107e565b918215610cba57606482029180830460641490151715610ca7575060209360008051602061127f83398151915295936033610c58610c969560ff95611154565b10610c9a575060018219895416178855610c898760005260016020526009604060002001600360ff19825416179055565b5496541691518092610ee9565ba380f35b8219166002178855610c89565b634e487b7160e01b895260119052602488fd5b606490602087519162461bcd60e51b8352820152600d60248201526c139bc81d9bdd195cc818d85cdd609a1b6044820152fd5b606490602085519162461bcd60e51b83528201526013602482015272566f74696e67207374696c6c2061637469766560681b6044820152fd5b50903461045d57602036600319011261045d57816107819184358152600160205220918254926001810154946002820154906003830154908301546005840154610d7260068601610e20565b9060078601549260088701549460ff60098901541696600b600a8a015499015499519c8d809d60ff8360a01c169260018060a01b031691610ef6565b90600182811c92168015610dde575b6020831014610dc857565b634e487b7160e01b600052602260045260246000fd5b91607f1691610dbd565b90601f8019910116810190811067ffffffffffffffff821117610e0a57604052565b634e487b7160e01b600052604160045260246000fd5b9060405191826000825492610e3484610dae565b908184526001948581169081600014610ea35750600114610e60575b5050610e5e92500383610de8565b565b9093915060005260209081600020936000915b818310610e8b575050610e5e93508201013880610e50565b85548884018501529485019487945091830191610e73565b915050610e5e94506020925060ff191682840152151560051b8201013880610e50565b906006821015610ed35752565b634e487b7160e01b600052602160045260246000fd5b906005821015610ed35752565b9a989d9c9b9997969492610f2391969492968c5260209660018060a01b0316878d015260408c0190610ec6565b60608a0152608089015260a088015260c08701526101a0918260e08801528051809388015260005b838110610f985750505091610f8e916101809594936101c0906000828289010152601f801991011686010198610100860152610120850152610140840190610ee9565b6101608201520152565b8181018301518882016101c001528201610f4b565b8054821015610fc55760005260206000200190600090565b634e487b7160e01b600052603260045260246000fd5b81601f820112156110325780359067ffffffffffffffff8211610e0a5760405192611010601f8401601f191660200185610de8565b8284526020838301011161103257816000926020809301838601378301015290565b600080fd5b51906001600160a01b038216820361103257565b600019811461105a5760010190565b634e487b7160e01b600052601160045260246000fd5b906001820180921161105a57565b9190820180921161105a57565b805468010000000000000000811015610e0a576110ad91600182018155610fad565b819291549060031b91821b91600019901b1916179055565b156110cc57565b60405162461bcd60e51b815260206004820152601760248201527f50726f706f73616c20646f6573206e6f742065786973740000000000000000006044820152606490fd5b1561111857565b60405162461bcd60e51b815260206004820152601460248201527350726f706f73616c206e6f742070656e64696e6760601b6044820152606490fd5b811561115e570490565b634e487b7160e01b600052601260045260246000fd5b8060005260016020526040600020600a810154611195600b8301548261107e565b9081156112785760648102908082046064149015171561105a57816111b991611154565b604b81118061126d575b156112225750509060008051602061127f833981519152602060ff60098501946001821987541617865561120e8560005260016020526009604060002001600360ff19825416179055565b5494541661121f6040518092610ee9565ba3565b6019119081611261575b50611235575050565b60098101600260ff19825416179055549060008051602061127f833981519152602060405160028152a3565b6003915010153861122c565b5060038210156111c3565b5050505056fec4a1eb62b140c739bdeba594ea9649595ce2623904685c56204572688460883ea2646970667358221220ea0467be71a526bac870b90d58869eaebaf122aa7c07067b449f692df108bc0c64736f6c63430008140033",
  "linkReferences": {},
  "deployedLinkReferences": {}
}