{
  "_format": "hh-sol-artifact-1",
  "contractName": "LoanChain",
  "sourceName": "contracts/LoanChain.sol",
  "abi": [
    {
      "inputs": [],
      "stateMutability": "nonpayable",
      "type": "constructor"
    },
    {
      "inputs": [
        {
          "internalType": "address",
          "name": "owner",
          "type": "address"
        }
      ],
      "name": "OwnableInvalidOwner",
      "type": "error"
    },
    {
      "inputs": [
        {
          "internalType": "address",
          "name": "account",
          "type": "address"
        }
      ],
      "name": "OwnableUnauthorizedAccount",
      "type": "error"
    },
    {
      "inputs": [],
      "name": "ReentrancyGuardReentrantCall",
      "type": "error"
    },
    {
      "anonymous": false,
      "inputs": [
        {
          "indexed": true,
          "internalType": "uint256",
          "name": "loanId",
          "type": "uint256"
        },
        {
          "indexed": true,
          "internalType": "address",
          "name": "claimer",
          "type": "address"
        },
        {
          "indexed": false,
          "internalType": "uint256",
          "name": "amount",
          "type": "uint256"
        }
      ],
      "name": "CollateralClaimed",
      "type": "event"
    },
    {
      "anonymous": false,
      "inputs": [
        {
          "indexed": true,
          "internalType": "uint256",
          "name": "loanId",
          "type": "uint256"
        },
        {
          "indexed": true,
          "internalType": "address",
          "name": "borrower",
          "type": "address"
        },
        {
          "indexed": true,
          "internalType": "address",
          "name": "lender",
          "type": "address"
        }
      ],
      "name": "LoanDefaulted",
      "type": "event"
    },
    {
      "anonymous": false,
      "inputs": [
        {
          "indexed": true,
          "internalType": "uint256",
          "name": "loanId",
          "type": "uint256"
        },
        {
          "indexed": true,
          "internalType": "address",
          "name": "lender",
          "type": "address"
        },
        {
          "indexed": false,
          "internalType": "uint256",
          "name": "fundedAt",
          "type": "uint256"
        }
      ],
      "name": "LoanFunded",
      "type": "event"
    },
    {
      "anonymous": false,
      "inputs": [
        {
          "indexed": true,
          "internalType": "uint256",
          "name": "loanId",
          "type": "uint256"
        },
        {
          "indexed": true,
          "internalType": "address",
          "name": "borrower",
          "type": "address"
        },
        {
          "indexed": false,
          "internalType": "uint256",
          "name": "repaidAmount",
          "type": "uint256"
        }
      ],
      "name": "LoanRepaid",
      "type": "event"
    },
    {
      "anonymous": false,
      "inputs": [
        {
          "indexed": true,
          "internalType": "uint256",
          "name": "loanId",
          "type": "uint256"
        },
        {
          "indexed": true,
          "internalType": "address",
          "name": "borrower",
          "type": "address"
        },
        {
          "indexed": false,
          "internalType": "uint256",
          "name": "amount",
          "type": "uint256"
        },
        {
          "indexed": false,
          "internalType": "uint256",
          "name": "collateral",
          "type": "uint256"
        },
        {
          "indexed": false,
          "internalType": "uint256",
          "name": "interestRate",
          "type": "uint256"
        },
        {
          "indexed": false,
          "internalType": "uint256",
          "name": "duration",
          "type": "uint256"
        }
      ],
      "name": "LoanRequested",
      "type": "event"
    },
    {
      "anonymous": false,
      "inputs": [
        {
          "indexed": true,
          "internalType": "address",
          "name": "previousOwner",
          "type": "address"
        },
        {
          "indexed": true,
          "internalType": "address",
          "name": "newOwner",
          "type": "address"
        }
      ],
      "name": "OwnershipTransferred",
      "type": "event"
    },
    {
      "inputs": [],
      "name": "MAX_INTEREST_RATE",
      "outputs": [
        {
          "internalType": "uint256",
          "name": "",
          "type": "uint256"
        }
      ],
      "stateMutability": "view",
      "type": "function"
    },
    {
      "inputs": [],
      "name": "MAX_LOAN_DURATION",
      "outputs": [
        {
          "internalType": "uint256",
          "name": "",
          "type": "uint256"
        }
      ],
      "stateMutability": "view",
      "type": "function"
    },
    {
      "inputs": [],
      "name": "MIN_COLLATERAL_RATIO",
      "outputs": [
        {
          "internalType": "uint256",
          "name": "",
          "type": "uint256"
        }
      ],
      "stateMutability": "view",
      "type": "function"
    },
    {
      "inputs": [],
      "name": "MIN_LOAN_DURATION",
      "outputs": [
        {
          "internalType": "uint256",
          "name": "",
          "type": "uint256"
        }
      ],
      "stateMutability": "view",
      "type": "function"
    },
    {
      "inputs": [
        {
          "internalType": "address",
          "name": "",
          "type": "address"
        },
        {
          "internalType": "uint256",
          "name": "",
          "type": "uint256"
        }
      ],
      "name": "borrowerLoans",
      "outputs": [
        {
          "internalType": "uint256",
          "name": "",
          "type": "uint256"
        }
      ],
      "stateMutability": "view",
      "type": "function"
    },
    {
      "inputs": [
        {
          "internalType": "uint256",
          "name": "_loanId",
          "type": "uint256"
        }
      ],
      "name": "calculateRepaymentAmount",
      "outputs": [
        {
          "internalType": "uint256",
          "name": "",
          "type": "uint256"
        }
      ],
      "stateMutability": "view",
      "type": "function"
    },
    {
      "inputs": [
        {
          "internalType": "uint256",
          "name": "_loanId",
          "type": "uint256"
        }
      ],
      "name": "cancelLoan",
      "outputs": [],
      "stateMutability": "nonpayable",
      "type": "function"
    },
    {
      "inputs": [
        {
          "internalType": "uint256",
          "name": "_loanId",
          "type": "uint256"
        }
      ],
      "name": "claimCollateral",
      "outputs": [],
      "stateMutability": "nonpayable",
      "type": "function"
    },
    {
      "inputs": [
        {
          "internalType": "uint256",
          "name": "_loanId",
          "type": "uint256"
        }
      ],
      "name": "fundLoan",
      "outputs": [],
      "stateMutability": "payable",
      "type": "function"
    },
    {
      "inputs": [],
      "name": "getActiveLoanRequests",
      "outputs": [
        {
          "internalType": "uint256[]",
          "name": "",
          "type": "uint256[]"
        }
      ],
      "stateMutability": "view",
      "type": "function"
    },
    {
      "inputs": [
        {
          "internalType": "address",
          "name": "_borrower",
          "type": "address"
        }
      ],
      "name": "getBorrowerLoans",
      "outputs": [
        {
          "internalType": "uint256[]",
          "name": "",
          "type": "uint256[]"
        }
      ],
      "stateMutability": "view",
      "type": "function"
    },
    {
      "inputs": [
        {
          "internalType": "address",
          "name": "_lender",
          "type": "address"
        }
      ],
      "name": "getLenderLoans",
      "outputs": [
        {
          "internalType": "uint256[]",
          "name": "",
          "type": "uint256[]"
        }
      ],
      "stateMutability": "view",
      "type": "function"
    },
    {
      "inputs": [
        {
          "internalType": "uint256",
          "name": "_loanId",
          "type": "uint256"
        }
      ],
      "name": "getLoan",
      "outputs": [
        {
          "components": [
            {
              "internalType": "uint256",
              "name": "id",
              "type": "uint256"
            },
            {
              "internalType": "address",
              "name": "borrower",
              "type": "address"
            },
            {
              "internalType": "address",
              "name": "lender",
              "type": "address"
            },
            {
              "internalType": "uint256",
              "name": "amount",
              "type": "uint256"
            },
            {
              "internalType": "uint256",
              "name": "collateral",
              "type": "uint256"
            },
            {
              "internalType": "uint256",
              "name": "interestRate",
              "type": "uint256"
            },
            {
              "internalType": "uint256",
              "name": "duration",
              "type": "uint256"
            },
            {
              "internalType": "uint256",
              "name": "createdAt",
              "type": "uint256"
            },
            {
              "internalType": "uint256",
              "name": "fundedAt",
              "type": "uint256"
            },
            {
              "internalType": "uint256",
              "name": "dueDate",
              "type": "uint256"
            },
            {
              "internalType": "enum LoanChain.LoanStatus",
              "name": "status",
              "type": "uint8"
            },
            {
              "internalType": "bool",
              "name": "collateralClaimed",
              "type": "bool"
            }
          ],
          "internalType": "struct LoanChain.Loan",
          "name": "",
          "type": "tuple"
        }
      ],
      "stateMutability": "view",
      "type": "function"
    },
    {
      "inputs": [
        {
          "internalType": "address",
          "name": "",
          "type": "address"
        },
        {
          "internalType": "uint256",
          "name": "",
          "type": "uint256"
        }
      ],
      "name": "lenderLoans",
      "outputs": [
        {
          "internalType": "uint256",
          "name": "",
          "type": "uint256"
        }
      ],
      "stateMutability": "view",
      "type": "function"
    },
    {
      "inputs": [
        {
          "internalType": "uint256",
          "name": "",
          "type": "uint256"
        }
      ],
      "name": "loans",
      "outputs": [
        {
          "internalType": "uint256",
          "name": "id",
          "type": "uint256"
        },
        {
          "internalType": "address",
          "name": "borrower",
          "type": "address"
        },
        {
          "internalType": "address",
          "name": "lender",
          "type": "address"
        },
        {
          "internalType": "uint256",
          "name": "amount",
          "type": "uint256"
        },
        {
          "internalType": "uint256",
          "name": "collateral",
          "type": "uint256"
        },
        {
          "internalType": "uint256",
          "name": "interestRate",
          "type": "uint256"
        },
        {
          "internalType": "uint256",
          "name": "duration",
          "type": "uint256"
        },
        {
          "internalType": "uint256",
          "name": "createdAt",
          "type": "uint256"
        },
        {
          "internalType": "uint256",
          "name": "fundedAt",
          "type": "uint256"
        },
        {
          "internalType": "uint256",
          "name": "dueDate",
          "type": "uint256"
        },
        {
          "internalType": "enum LoanChain.LoanStatus",
          "name": "status",
          "type": "uint8"
        },
        {
          "internalType": "bool",
          "name": "collateralClaimed",
          "type": "bool"
        }
      ],
      "stateMutability": "view",
      "type": "function"
    },
    {
      "inputs": [],
      "name": "nextLoanId",
      "outputs": [
        {
          "internalType": "uint256",
          "name": "",
          "type": "uint256"
        }
      ],
      "stateMutability": "view",
      "type": "function"
    },
    {
      "inputs": [],
      "name": "owner",
      "outputs": [
        {
          "internalType": "address",
          "name": "",
          "type": "address"
        }
      ],
      "stateMutability": "view",
      "type": "function"
    },
    {
      "inputs": [],
      "name": "renounceOwnership",
      "outputs": [],
      "stateMutability": "nonpayable",
      "type": "function"
    },
    {
      "inputs": [
        {
          "internalType": "uint256",
          "name": "_loanId",
          "type": "uint256"
        }
      ],
      "name": "repayLoan",
      "outputs": [],
      "stateMutability": "payable",
      "type": "function"
    },
    {
      "inputs": [
        {
          "internalType": "uint256",
          "name": "_amount",
          "type": "uint256"
        },
        {
          "internalType": "uint256",
          "name": "_interestRate",
          "type": "uint256"
        },
        {
          "internalType": "uint256",
          "name": "_duration",
          "type": "uint256"
        }
      ],
      "name": "requestLoan",
      "outputs": [],
      "stateMutability": "payable",
      "type": "function"
    },
    {
      "inputs": [
        {
          "internalType": "address",
          "name": "newOwner",
          "type": "address"
        }
      ],
      "name": "transferOwnership",
      "outputs": [],
      "stateMutability": "nonpayable",
      "type": "function"
    }
  ],
  "bytecode": "0x60808060405234610084576001600055331561006e5760018054336001600160a01b03198216811790925560405191906001600160a01b03167f8be0079c531659141344cd1fd0a4f28419497f9722a3daafe3b4186f6b6457e0600080a36001600255611702908161008a8239f35b631e4fbdf760e01b815260006004820152602490fd5b600080fdfe6080806040526004908136101561001557600080fd5b60003560e01c9081630d0b2ca6146113b65750806334855d14146113995780633cdb72f11461134f578063504006ca146111a3578063715018a6146111465780637a9fffb71461112a578063846b909a14610ec157806387c5145914610ea357806389d99a0514610e855780638da5cb5b14610e5c5780639772d7ee14610d79578063ab7b1c8914610af0578063b119723914610a0f578063bdbfa3de146108ec578063c49785b4146106c7578063e1ec3c6814610607578063e3ed1902146105b2578063edadbbfe14610296578063eee8b7ff1461021e578063eeeb0c17146101965763f2fde38b1461010857600080fd5b34610191576020366003190112610191576101216113d3565b610129611475565b6001600160a01b039081169182156101795750600154826001600160601b0360a01b821617600155167f8be0079c531659141344cd1fd0a4f28419497f9722a3daafe3b4186f6b6457e0600080a3005b602490600060405191631e4fbdf760e01b8352820152fd5b600080fd5b3461019157602080600319360112610191576001600160a01b036101b86113d3565b1660005260058152604060002090604051908181845491828152019360005281600020916000905b82821061020757610203856101f78189038261150c565b6040519182918261143a565b0390f35b8354865294850194600193840193909101906101e0565b50346101915760209081600319360112610191576001600160a01b036102426113d3565b166000528152604060002090604051908181845491828152019360005281600020916000905b82821061027f57610203856101f78189038261150c565b835486529485019460019384019390910190610268565b506060366003190112610191578035906024908135604435916102b7611574565b8415610564576107d0821161052857620151808310158061051a575b156104df57609685028581046096036104cb5760649004341061048857600254936102fd856114ca565b6002556040519061030d826114d9565b858252336020830152600060408301528660608301523460808301528360a08301528460c08301524260e0830152600061010083015260006101208301526000610140830152610160820160008152866000526003602052610140600a6040600020855181556001810160018060a01b039081602089015116906001600160601b0360a01b91828254161790556002830191604089015116908254161790556060860151600382015560808601518782015560a0860151600582015560c0860151600682015560e086015160078201556101008601516008820155610120860151600982015501930151916005831015610475575060ff61ff0084549251151560081b1692169061ffff1916171790553360005260205261043283604060002061153a565b604051938452346020850152604084015260608301527fc8a2bcd3b42e3508cef71e30d8b859819aecaeeb4fdc70998269b264d4b4e33560803393a36001600055005b634e487b7160e01b600090815260218652fd5b60649060178560206040519362461bcd60e51b85528401528201527f496e73756666696369656e7420636f6c6c61746572616c0000000000000000006044820152fd5b84601183634e487b7160e01b600052526000fd5b60649060158560206040519362461bcd60e51b85528401528201527424b73b30b634b2103637b0b710323ab930ba34b7b760591b6044820152fd5b506301e133808311156102d3565b60649060168560206040519362461bcd60e51b855284015282015275092dce8cae4cae6e840e4c2e8ca40e8dede40d0d2ced60531b6044820152fd5b60849060228560206040519362461bcd60e51b85528401528201527f4c6f616e20616d6f756e74206d7573742062652067726561746572207468616e604482015261020360f41b6064820152fd5b5034610191576040366003190112610191576105cc6113d3565b906024359160018060a01b031660005260205260406000208054821015610191576020916105f9916113e9565b90546040519160031b1c8152f35b503461019157602036600319011261019157806101809135600052600360205260ff60406000209182549260018060a01b03918260018301541692600283015416906003830154908301546005840154600685015491600786015493600887015495600a6009890154980154986040519b8c5260208c015260408b015260608a0152608089015260a088015260c087015260e08601526101008501526101208401526106b96101408401838316611417565b60081c161515610160820152f35b503461019157602080600319360112610191578135906106e5611574565b6000828152600382526040902060028101805490946001600160a01b0391821692903384036108aa57600a8201805460ff8116600581101561089557600161072d91146115e4565b600984015442111561085a5760ff8160081c16610816576101039061ffff19161790556000808080848601978854905af16107666115a4565b50156107d25750908060017fccd631c6a824eeaa91ba67065a44b5c5bc5aa9575248e5fd34144c665470fc3295949301541695541660405195857fd8488207b46549891c1bb619e37bb6ecc698e50debd01897b961e97c18ae478a600080a45484523393a36001600055005b60405162461bcd60e51b8152908101859052601a60248201527f436f6c6c61746572616c207472616e73666572206661696c65640000000000006044820152606490fd5b60405162461bcd60e51b8152808401889052601a60248201527f436f6c6c61746572616c20616c726561647920636c61696d65640000000000006044820152606490fd5b60405162461bcd60e51b81528084018890526014602482015273131bd85b881b9bdd081e595d08195e1c1a5c995960621b6044820152606490fd5b602184634e487b7160e01b6000525260246000fd5b60649085806040519262461bcd60e51b845283015260248201527f4f6e6c79206c656e6465722063616e20636c61696d20636f6c6c61746572616c6044820152fd5b503461019157602036600319011261019157610906611574565b8035600090815260036020526040902060018101546001600160a01b0316903382036109cb57600a8101805460ff811660058110156109b65761097257600093858594859461096b98869560ff19161790550154905af16109656115a4565b50611622565b6001600055005b60405162461bcd60e51b8152602081870152601e60248201527f43616e206f6e6c792063616e63656c20756e66756e646564206c6f616e7300006044820152606490fd5b602186634e487b7160e01b6000525260246000fd5b60405162461bcd60e51b8152602081850152601860248201527f4f6e6c7920626f72726f7765722063616e2063616e63656c00000000000000006044820152606490fd5b503461019157602036600319011261019157610ae8816020923560005260038352612710610ae06040600020604051610a47816114d9565b8154815260018060a01b038060018401541688830152600283015416604082015260038201549460608201958652820154608082015261016060ff600a60058501549460a08501958652600681015460c0860152600781015460e0860152600881015461010086015260098101546101208601520154610acd828216610140860161152e565b60081c16151591015283519051906114a1565b049051611597565b604051908152f35b5060208060031936011261019157813590610b09611574565b8160005260038152604060002092600184019360018060a01b03808654163303610d3557600a82019586549660ff881660058110156109b6576001610b4e91146115e4565b60098401544211610cfe57610b796003850154612710610b726005880154836114a1565b0490611597565b97883410610cba5760029060ff191617905560008080808a866002890154165af1610ba26115a4565b5015610c7657600080610bc49486829583955416910154905af16109656115a4565b833411610bff575b507f512d3e65b3e58c2187bb1872aa435dba5bd09c1c03823ba56ab70aac411e4a21906040519384523393a36001600055005b833403348111610c6157600080808093335af1610c1a6115a4565b50610bcc576064916040519162461bcd60e51b8352820152601c60248201527f457863657373207061796d656e742072657475726e206661696c6564000000006044820152fd5b601182634e487b7160e01b6000525260246000fd5b60405162461bcd60e51b8152808501869052601960248201527f5472616e7366657220746f206c656e646572206661696c6564000000000000006044820152606490fd5b60405162461bcd60e51b8152808701889052601d60248201527f496e73756666696369656e742072657061796d656e7420616d6f756e740000006044820152606490fd5b60405162461bcd60e51b8152808601879052601060248201526f131bd85b881a185cc8195e1c1a5c995960821b6044820152606490fd5b60405162461bcd60e51b8152808401859052601760248201527f4f6e6c7920626f72726f7765722063616e2072657061790000000000000000006044820152606490fd5b5034610191576000366003190112610191576002546000198101818111610e4757610da390611686565b9160009160015b818110610dfa57505050610dbd81611686565b9160005b828110610dd65760405180610203868261143a565b80610de4610df592846116b8565b51610def82876116b8565b526114ca565b610dc1565b80600052600360205260ff600a604060002001541660058110156108955715610e2c575b610e27906114ca565b610daa565b92610e3f8185610def610e2794896116b8565b939050610e1e565b601183634e487b7160e01b6000525260246000fd5b34610191576000366003190112610191576001546040516001600160a01b039091168152602090f35b34610191576000366003190112610191576020604051620151808152f35b34610191576000366003190112610191576020600254604051908152f35b506020908160031936011261019157803590610edb611574565b816000526003835260406000206001810160018060a01b0390818154169283156110f057600a810180549460ff861660058110156110db576110975733146110535760038201948554340361100f5793600095919383879695600188976002899801336001600160601b0360a01b82541617905560ff19161790554260088201556009610f6c600683015442611597565b91015533845260058a52610f83896040862061153a565b54169054905af1610f926115a4565b5015610fcb57507fbd7ef6c6281278f6c8ac4ae9ef2f205b52425813c288dd47c377cb6b59c5076e604051924284523393a36001600055005b60405162461bcd60e51b8152908101839052601b60248201527f5472616e7366657220746f20626f72726f776572206661696c656400000000006044820152606490fd5b60405162461bcd60e51b81528088018a9052601860248201527f496e636f72726563742066756e64696e6720616d6f756e7400000000000000006044820152606490fd5b60405162461bcd60e51b8152808701899052601960248201527f43616e6e6f742066756e6420796f7572206f776e206c6f616e000000000000006044820152606490fd5b60405162461bcd60e51b81528088018a9052601e60248201527f4c6f616e206e6f7420617661696c61626c6520666f722066756e64696e6700006044820152606490fd5b602188634e487b7160e01b6000525260246000fd5b60405162461bcd60e51b81528086018890526013602482015272131bd85b88191bd95cc81b9bdd08195e1a5cdd606a1b6044820152606490fd5b3461019157600036600319011261019157602060405160968152f35b346101915760003660031901126101915761115f611475565b600180546001600160a01b031981169091556000906001600160a01b03167f8be0079c531659141344cd1fd0a4f28419497f9722a3daafe3b4186f6b6457e08280a3005b5034610191576020366003190112610191576101809060006101606040516111ca816114d9565b8281528260208201528260408201528260608201528260808201528260a08201528260c08201528260e082015282610100820152826101208201528261014082015201528035600052600360205260ff600a60406000206040519361122e856114d9565b8154855260018201546001600160a01b0390811660208701526002830154166040860152600382015460608601528101546080850152600581015460a0850152600681015460c0850152600781015460e08501526008810154610100850152600981015461012085015201546112aa828216610140850161152e565b60081c161515610160820152610160604051918051835260018060a01b03602082015116602084015260018060a01b036040820151166040840152606081015160608401526080810151608084015260a081015160a084015260c081015160c084015260e081015160e0840152610100810151610100840152610120810151610120840152611343610140820151610140850190611417565b01511515610160820152f35b34610191576040366003190112610191576113686113d3565b6001600160a01b0316600090815260056020526040902080546024359190821015610191576020916105f9916113e9565b346101915760003660031901126101915760206040516107d08152f35b3461019157600036600319011261019157806301e1338060209252f35b600435906001600160a01b038216820361019157565b80548210156114015760005260206000200190600090565b634e487b7160e01b600052603260045260246000fd5b9060058210156114245752565b634e487b7160e01b600052602160045260246000fd5b6020908160408183019282815285518094520193019160005b828110611461575050505090565b835185529381019392810192600101611453565b6001546001600160a01b0316330361148957565b60405163118cdaa760e01b8152336004820152602490fd5b818102929181159184041417156114b457565b634e487b7160e01b600052601160045260246000fd5b60001981146114b45760010190565b610180810190811067ffffffffffffffff8211176114f657604052565b634e487b7160e01b600052604160045260246000fd5b90601f8019910116810190811067ffffffffffffffff8211176114f657604052565b60058210156114245752565b8054680100000000000000008110156114f65761155c916001820181556113e9565b819291549060031b91821b91600019901b1916179055565b600260005414611585576002600055565b604051633ee5aeb560e01b8152600490fd5b919082018092116114b457565b3d156115df573d9067ffffffffffffffff82116114f657604051916115d3601f8201601f19166020018461150c565b82523d6000602084013e565b606090565b156115eb57565b60405162461bcd60e51b815260206004820152600f60248201526e4c6f616e206e6f742061637469766560881b6044820152606490fd5b1561162957565b60405162461bcd60e51b815260206004820152601860248201527f436f6c6c61746572616c2072657475726e206661696c656400000000000000006044820152606490fd5b67ffffffffffffffff81116114f65760051b60200190565b906116908261166e565b61169d604051918261150c565b82815280926116ae601f199161166e565b0190602036910137565b80518210156114015760209160051b01019056fea2646970667358221220eda0a863fc310cd8fc3fce41c55a6068ad56c39dfc784de4174152c27de8f3e564736f6c63430008140033",
  "linkReferences": {},
  "deployedLinkReferences": {}
}