{
  "_format": "hh-sol-artifact-1",
  "contractName": "LoanChain",
  "sourceName": "contracts/LoanChain.sol",
  "abi": [
    {
      "inputs": [],
      "stateMutability": "nonpayable",
      "type": "constructor"
    },
    {
      "inputs": [
        {
          "internalType": "address",
          "name": "owner",
          "type": "address"
        }
      ],
      "name": "OwnableInvalidOwner",
      "type": "error"
    },
    {
      "inputs": [
        {
          "internalType": "address",
          "name": "account",
          "type": "address"
        }
      ],
      "name": "OwnableUnauthorizedAccount",
      "type": "error"
    },
    {
      "inputs": [],
      "name": "ReentrancyGuardReentrantCall",
      "type": "error"
    },
    {
      "anonymous": false,
      "inputs": [
        {
          "indexed": true,
          "internalType": "uint256",
          "name": "loanId",
          "type": "uint256"
        },
        {
          "indexed": true,
          "internalType": "address",
          "name": "claimer",
          "type": "address"
        },
        {
          "indexed": false,
          "internalType": "uint256",
          "name": "amount",
          "type": "uint256"
        }
      ],
      "name": "CollateralClaimed",
      "type": "event"
    },
    {
      "anonymous": false,
      "inputs": [
        {
          "indexed": true,
          "internalType": "uint256",
          "name": "loanId",
          "type": "uint256"
        },
        {
          "indexed": true,
          "internalType": "address",
          "name": "borrower",
          "type": "address"
        },
        {
          "indexed": true,
          "internalType": "address",
          "name": "lender",
          "type": "address"
        }
      ],
      "name": "LoanDefaulted",
      "type": "event"
    },
    {
      "anonymous": false,
      "inputs": [
        {
          "indexed": true,
          "internalType": "uint256",
          "name": "loanId",
          "type": "uint256"
        },
        {
          "indexed": true,
          "internalType": "address",
          "name": "lender",
          "type": "address"
        },
        {
          "indexed": false,
          "internalType": "uint256",
          "name": "fundedAt",
          "type": "uint256"
        }
      ],
      "name": "LoanFunded",
      "type": "event"
    },
    {
      "anonymous": false,
      "inputs": [
        {
          "indexed": true,
          "internalType": "uint256",
          "name": "loanId",
          "type": "uint256"
        },
        {
          "indexed": true,
          "internalType": "address",
          "name": "borrower",
          "type": "address"
        },
        {
          "indexed": false,
          "internalType": "uint256",
          "name": "repaidAmount",
          "type": "uint256"
        }
      ],
      "name": "LoanRepaid",
      "type": "event"
    },
    {
      "anonymous": false,
      "inputs": [
        {
          "indexed": true,
          "internalType": "uint256",
          "name": "loanId",
          "type": "uint256"
        },
        {
          "indexed": true,
          "internalType": "address",
          "name": "borrower",
          "type": "address"
        },
        {
          "indexed": false,
          "internalType": "uint256",
          "name": "amount",
          "type": "uint256"
        },
        {
          "indexed": false,
          "internalType": "uint256",
          "name": "collateral",
          "type": "uint256"
        },
        {
          "indexed": false,
          "internalType": "uint256",
          "name": "interestRate",
          "type": "uint256"
        },
        {
          "indexed": false,
          "internalType": "uint256",
          "name": "duration",
          "type": "uint256"
        }
      ],
      "name": "LoanRequested",
      "type": "event"
    },
    {
      "anonymous": false,
      "inputs": [
        {
          "indexed": true,
          "internalType": "address",
          "name": "previousOwner",
          "type": "address"
        },
        {
          "indexed": true,
          "internalType": "address",
          "name": "newOwner",
          "type": "address"
        }
      ],
      "name": "OwnershipTransferred",
      "type": "event"
    },
    {
      "inputs": [],
      "name": "MAX_INTEREST_RATE",
      "outputs": [
        {
          "internalType": "uint256",
          "name": "",
          "type": "uint256"
        }
      ],
      "stateMutability": "view",
      "type": "function"
    },
    {
      "inputs": [],
      "name": "MAX_LOAN_DURATION",
      "outputs": [
        {
          "internalType": "uint256",
          "name": "",
          "type": "uint256"
        }
      ],
      "stateMutability": "view",
      "type": "function"
    },
    {
      "inputs": [],
      "name": "MIN_COLLATERAL_RATIO",
      "outputs": [
        {
          "internalType": "uint256",
          "name": "",
          "type": "uint256"
        }
      ],
      "stateMutability": "view",
      "type": "function"
    },
    {
      "inputs": [],
      "name": "MIN_LOAN_DURATION",
      "outputs": [
        {
          "internalType": "uint256",
          "name": "",
          "type": "uint256"
        }
      ],
      "stateMutability": "view",
      "type": "function"
    },
    {
      "inputs": [
        {
          "internalType": "address",
          "name": "",
          "type": "address"
        },
        {
          "internalType": "uint256",
          "name": "",
          "type": "uint256"
        }
      ],
      "name": "borrowerLoans",
      "outputs": [
        {
          "internalType": "uint256",
          "name": "",
          "type": "uint256"
        }
      ],
      "stateMutability": "view",
      "type": "function"
    },
    {
      "inputs": [
        {
          "internalType": "uint256",
          "name": "_loanId",
          "type": "uint256"
        }
      ],
      "name": "calculateRepaymentAmount",
      "outputs": [
        {
          "internalType": "uint256",
          "name": "",
          "type": "uint256"
        }
      ],
      "stateMutability": "view",
      "type": "function"
    },
    {
      "inputs": [
        {
          "internalType": "uint256",
          "name": "_loanId",
          "type": "uint256"
        }
      ],
      "name": "cancelLoan",
      "outputs": [],
      "stateMutability": "nonpayable",
      "type": "function"
    },
    {
      "inputs": [
        {
          "internalType": "uint256",
          "name": "_loanId",
          "type": "uint256"
        }
      ],
      "name": "claimCollateral",
      "outputs": [],
      "stateMutability": "nonpayable",
      "type": "function"
    },
    {
      "inputs": [
        {
          "internalType": "uint256",
          "name": "_loanId",
          "type": "uint256"
        }
      ],
      "name": "fundLoan",
      "outputs": [],
      "stateMutability": "payable",
      "type": "function"
    },
    {
      "inputs": [],
      "name": "getActiveLoanRequests",
      "outputs": [
        {
          "internalType": "uint256[]",
          "name": "",
          "type": "uint256[]"
        }
      ],
      "stateMutability": "view",
      "type": "function"
    },
    {
      "inputs": [
        {
          "internalType": "address",
          "name": "_borrower",
          "type": "address"
        }
      ],
      "name": "getBorrowerLoans",
      "outputs": [
        {
          "internalType": "uint256[]",
          "name": "",
          "type": "uint256[]"
        }
      ],
      "stateMutability": "view",
      "type": "function"
    },
    {
      "inputs": [
        {
          "internalType": "address",
          "name": "_lender",
          "type": "address"
        }
      ],
      "name": "getLenderLoans",
      "outputs": [
        {
          "internalType": "uint256[]",
          "name": "",
          "type": "uint256[]"
        }
      ],
      "stateMutability": "view",
      "type": "function"
    },
    {
      "inputs": [
        {
          "internalType": "uint256",
          "name": "_loanId",
          "type": "uint256"
        }
      ],
      "name": "getLoan",
      "outputs": [
        {
          "components": [
            {
              "internalType": "uint256",
              "name": "id",
              "type": "uint256"
            },
            {
              "internalType": "address",
              "name": "borrower",
              "type": "address"
            },
            {
              "internalType": "address",
              "name": "lender",
              "type": "address"
            },
            {
              "internalType": "uint256",
              "name": "amount",
              "type": "uint256"
            },
            {
              "internalType": "uint256",
              "name": "collateral",
              "type": "uint256"
            },
            {
              "internalType": "uint256",
              "name": "interestRate",
              "type": "uint256"
            },
            {
              "internalType": "uint256",
              "name": "duration",
              "type": "uint256"
            },
            {
              "internalType": "uint256",
              "name": "createdAt",
              "type": "uint256"
            },
            {
              "internalType": "uint256",
              "name": "fundedAt",
              "type": "uint256"
            },
            {
              "internalType": "uint256",
              "name": "dueDate",
              "type": "uint256"
            },
            {
              "internalType": "enum LoanChain.LoanStatus",
              "name": "status",
              "type": "uint8"
            },
            {
              "internalType": "bool",
              "name": "collateralClaimed",
              "type": "bool"
            }
          ],
          "internalType": "struct LoanChain.Loan",
          "name": "",
          "type": "tuple"
        }
      ],
      "stateMutability": "view",
      "type": "function"
    },
    {
      "inputs": [
        {
          "internalType": "address",
          "name": "",
          "type": "address"
        },
        {
          "internalType": "uint256",
          "name": "",
          "type": "uint256"
        }
      ],
      "name": "lenderLoans",
      "outputs": [
        {
          "internalType": "uint256",
          "name": "",
          "type": "uint256"
        }
      ],
      "stateMutability": "view",
      "type": "function"
    },
    {
      "inputs": [
        {
          "internalType": "uint256",
          "name": "",
          "type": "uint256"
        }
      ],
      "name": "loans",
      "outputs": [
        {
          "internalType": "uint256",
          "name": "id",
          "type": "uint256"
        },
        {
          "internalType": "address",
          "name": "borrower",
          "type": "address"
        },
        {
          "internalType": "address",
          "name": "lender",
          "type": "address"
        },
        {
          "internalType": "uint256",
          "name": "amount",
          "type": "uint256"
        },
        {
          "internalType": "uint256",
          "name": "collateral",
          "type": "uint256"
        },
        {
          "internalType": "uint256",
          "name": "interestRate",
          "type": "uint256"
        },
        {
          "internalType": "uint256",
          "name": "duration",
          "type": "uint256"
        },
        {
          "internalType": "uint256",
          "name": "createdAt",
          "type": "uint256"
        },
        {
          "internalType": "uint256",
          "name": "fundedAt",
          "type": "uint256"
        },
        {
          "internalType": "uint256",
          "name": "dueDate",
          "type": "uint256"
        },
        {
          "internalType": "enum LoanChain.LoanStatus",
          "name": "status",
          "type": "uint8"
        },
        {
          "internalType": "bool",
          "name": "collateralClaimed",
          "type": "bool"
        }
      ],
      "stateMutability": "view",
      "type": "function"
    },
    {
      "inputs": [],
      "name": "nextLoanId",
      "outputs": [
        {
          "internalType": "uint256",
          "name": "",
          "type": "uint256"
        }
      ],
      "stateMutability": "view",
      "type": "function"
    },
    {
      "inputs": [],
      "name": "owner",
      "outputs": [
        {
          "internalType": "address",
          "name": "",
          "type": "address"
        }
      ],
      "stateMutability": "view",
      "type": "function"
    },
    {
      "inputs": [],
      "name": "renounceOwnership",
      "outputs": [],
      "stateMutability": "nonpayable",
      "type": "function"
    },
    {
      "inputs": [
        {
          "internalType": "uint256",
          "name": "_loanId",
          "type": "uint256"
        }
      ],
      "name": "repayLoan",
      "outputs": [],
      "stateMutability": "payable",
      "type": "function"
    },
    {
      "inputs": [
        {
          "internalType": "uint256",
          "name": "_amount",
          "type": "uint256"
        },
        {
          "internalType": "uint256",
          "name": "_interestRate",
          "type": "uint256"
        },
        {
          "internalType": "uint256",
          "name": "_duration",
          "type": "uint256"
        }
      ],
      "name": "requestLoan",
      "outputs": [],
      "stateMutability": "payable",
      "type": "function"
    },
    {
      "inputs": [
        {
          "internalType": "address",
          "name": "newOwner",
          "type": "address"
        }
      ],
      "name": "transferOwnership",
      "outputs": [],
      "stateMutability": "nonpayable",
      "type": "function"
    }
  ],
  "bytecode": "0x6080604052600160025534801561001557600080fd5b506001600055338061004157604051631e4fbdf760e01b81526000600482015260240160405180910390fd5b61004a81610050565b506100a2565b600180546001600160a01b038381166001600160a01b0319831681179093556040519116919082907f8be0079c531659141344cd1fd0a4f28419497f9722a3daafe3b4186f6b6457e090600090a35050565b611976806100b16000396000f3fe60806040526004361061012a5760003560e01c80639772d7ee116100ab578063e1ec3c681161006f578063e1ec3c68146102e6578063e3ed19021461038a578063edadbbfe146103aa578063eee8b7ff146103bd578063eeeb0c17146103dd578063f2fde38b146103fd57600080fd5b80639772d7ee14610251578063ab7b1c8914610273578063b119723914610286578063bdbfa3de146102a6578063c49785b4146102c657600080fd5b80637a9fffb7116100f25780637a9fffb7146101d4578063846b909a146101e957806387c51459146101fc57806389d99a05146102125780638da5cb5b1461022957600080fd5b80630d0b2ca61461012f57806334855d141461015a5780633cdb72f114610170578063504006ca14610190578063715018a6146101bd575b600080fd5b34801561013b57600080fd5b506101476301e1338081565b6040519081526020015b60405180910390f35b34801561016657600080fd5b506101476107d081565b34801561017c57600080fd5b5061014761018b366004611649565b61041d565b34801561019c57600080fd5b506101b06101ab366004611673565b61044e565b60405161015191906116c4565b3480156101c957600080fd5b506101d2610533565b005b3480156101e057600080fd5b50610147609681565b6101d26101f7366004611673565b610547565b34801561020857600080fd5b5061014760025481565b34801561021e57600080fd5b506101476201518081565b34801561023557600080fd5b506001546040516001600160a01b039091168152602001610151565b34801561025d57600080fd5b506102666107b2565b6040516101519190611774565b6101d2610281366004611673565b610926565b34801561029257600080fd5b506101476102a1366004611673565b610bd4565b3480156102b257600080fd5b506101d26102c1366004611673565b610cea565b3480156102d257600080fd5b506101d26102e1366004611673565b610e1f565b3480156102f257600080fd5b50610372610301366004611673565b600360208190526000918252604090912080546001820154600283015493830154600484015460058501546006860154600787015460088801546009890154600a9099015497996001600160a01b039788169997169795969495939492939192909160ff808216916101009004168c565b6040516101519c9b9a999897969594939291906117b8565b34801561039657600080fd5b506101476103a5366004611649565b611066565b6101d26103b8366004611832565b611082565b3480156103c957600080fd5b506102666103d836600461185e565b6113ef565b3480156103e957600080fd5b506102666103f836600461185e565b61145b565b34801561040957600080fd5b506101d261041836600461185e565b6114c5565b6005602052816000526040600020818154811061043957600080fd5b90600052602060002001600091509150505481565b6104566115a9565b6000828152600360208181526040928390208351610180810185528154815260018201546001600160a01b039081169382019390935260028201549092169382019390935282820154606082015260048301546080820152600583015460a0820152600683015460c0820152600783015460e082015260088301546101008201526009830154610120820152600a83015490929161014084019160ff16908111156105035761050361168c565b60038111156105145761051461168c565b8152600a9190910154610100900460ff16151560209091015292915050565b61053b611500565b610545600061152d565b565b61054f61157f565b600081815260036020526040902060018101546001600160a01b03166105b25760405162461bcd60e51b8152602060048201526013602482015272131bd85b88191bd95cc81b9bdd08195e1a5cdd606a1b60448201526064015b60405180910390fd5b6000600a82015460ff1660038111156105cd576105cd61168c565b1461061a5760405162461bcd60e51b815260206004820152601e60248201527f4c6f616e206e6f7420617661696c61626c6520666f722066756e64696e67000060448201526064016105a9565b60018101546001600160a01b031633036106765760405162461bcd60e51b815260206004820152601960248201527f43616e6e6f742066756e6420796f7572206f776e206c6f616e0000000000000060448201526064016105a9565b806003015434146106c95760405162461bcd60e51b815260206004820152601860248201527f496e636f72726563742066756e64696e6720616d6f756e74000000000000000060448201526064016105a9565b6002810180546001600160a01b03191633179055600a8101805460ff191660011790554260088201819055600682015461070291611896565b600982015533600090815260056020908152604080832080546001808201835591855292842090920185905590830154600384015491516001600160a01b03909116926108fc831502929190818181858888f1935050505015801561076b573d6000803e3d6000fd5b50604051428152339083907fbd7ef6c6281278f6c8ac4ae9ef2f205b52425813c288dd47c377cb6b59c5076e906020015b60405180910390a3506107af6001600055565b50565b6060600060016002546107c591906118af565b67ffffffffffffffff8111156107dd576107dd6118c2565b604051908082528060200260200182016040528015610806578160200160208202803683370190505b509050600060015b6002548110156108825760008181526003602081905260408220600a015460ff169081111561083f5761083f61168c565b036108705780838381518110610857576108576118d8565b60209081029190910101528161086c816118ee565b9250505b8061087a816118ee565b91505061080e565b5060008167ffffffffffffffff81111561089e5761089e6118c2565b6040519080825280602002602001820160405280156108c7578160200160208202803683370190505b50905060005b8281101561091e578381815181106108e7576108e76118d8565b6020026020010151828281518110610901576109016118d8565b602090810291909101015280610916816118ee565b9150506108cd565b509392505050565b61092e61157f565b600081815260036020526040902060018101546001600160a01b031633146109985760405162461bcd60e51b815260206004820152601760248201527f4f6e6c7920626f72726f7765722063616e20726570617900000000000000000060448201526064016105a9565b6001600a82015460ff1660038111156109b3576109b361168c565b146109f25760405162461bcd60e51b815260206004820152600f60248201526e4c6f616e206e6f742061637469766560881b60448201526064016105a9565b8060090154421115610a395760405162461bcd60e51b815260206004820152601060248201526f131bd85b881a185cc8195e1c1a5c995960821b60448201526064016105a9565b600061271082600501548360030154610a529190611907565b610a5c919061191e565b90506000818360030154610a709190611896565b905080341015610ac25760405162461bcd60e51b815260206004820152601d60248201527f496e73756666696369656e742072657061796d656e7420616d6f756e7400000060448201526064016105a9565b600a8301805460ff191660029081179091558301546040516001600160a01b03909116906108fc8315029083906000818181858888f19350505050158015610b0e573d6000803e3d6000fd5b50600183015460048401546040516001600160a01b039092169181156108fc0291906000818181858888f19350505050158015610b4f573d6000803e3d6000fd5b5080341115610b9057336108fc610b6683346118af565b6040518115909202916000818181858888f19350505050158015610b8e573d6000803e3d6000fd5b505b604051818152339085907f512d3e65b3e58c2187bb1872aa435dba5bd09c1c03823ba56ab70aac411e4a219060200160405180910390a35050506107af6001600055565b60008181526003602081815260408084208151610180810183528154815260018201546001600160a01b039081169482019490945260028201549093169183019190915280830154606083015260048101546080830152600581015460a0830152600681015460c0830152600781015460e083015260088101546101008301526009810154610120830152600a810154849361014084019160ff1690811115610c7f57610c7f61168c565b6003811115610c9057610c9061168c565b8152600a9190910154610100900460ff16151560209091015260a0810151606082015191925060009161271091610cc691611907565b610cd0919061191e565b9050808260600151610ce29190611896565b949350505050565b610cf261157f565b600081815260036020526040902060018101546001600160a01b03163314610d5c5760405162461bcd60e51b815260206004820152601860248201527f4f6e6c7920626f72726f7765722063616e2063616e63656c000000000000000060448201526064016105a9565b6000600a82015460ff166003811115610d7757610d7761168c565b14610dc45760405162461bcd60e51b815260206004820152601e60248201527f43616e206f6e6c792063616e63656c20756e66756e646564206c6f616e73000060448201526064016105a9565b600a8101805460ff19166003179055600181015460048201546040516001600160a01b03909216916108fc82150291906000818181858888f19350505050158015610e13573d6000803e3d6000fd5b50506107af6001600055565b610e2761157f565b600081815260036020526040902060028101546001600160a01b03163314610e915760405162461bcd60e51b815260206004820181905260248201527f4f6e6c79206c656e6465722063616e20636c61696d20636f6c6c61746572616c60448201526064016105a9565b6001600a82015460ff166003811115610eac57610eac61168c565b14610eeb5760405162461bcd60e51b815260206004820152600f60248201526e4c6f616e206e6f742061637469766560881b60448201526064016105a9565b80600901544211610f355760405162461bcd60e51b8152602060048201526014602482015273131bd85b881b9bdd081e595d08195e1c1a5c995960621b60448201526064016105a9565b600a810154610100900460ff1615610f8f5760405162461bcd60e51b815260206004820152601a60248201527f436f6c6c61746572616c20616c726561647920636c61696d656400000000000060448201526064016105a9565b600a8101805461ffff1916610103179055600281015460048201546040516001600160a01b039092169181156108fc0291906000818181858888f19350505050158015610fe0573d6000803e3d6000fd5b50600281015460018201546040516001600160a01b03928316929091169084907fd8488207b46549891c1bb619e37bb6ecc698e50debd01897b961e97c18ae478a90600090a4336001600160a01b0316827fccd631c6a824eeaa91ba67065a44b5c5bc5aa9575248e5fd34144c665470fc32836004015460405161079c91815260200190565b6004602052816000526040600020818154811061043957600080fd5b61108a61157f565b600083116110e55760405162461bcd60e51b815260206004820152602260248201527f4c6f616e20616d6f756e74206d7573742062652067726561746572207468616e604482015261020360f41b60648201526084016105a9565b6107d08211156111305760405162461bcd60e51b8152602060048201526016602482015275092dce8cae4cae6e840e4c2e8ca40e8dede40d0d2ced60531b60448201526064016105a9565b62015180811015801561114757506301e133808111155b61118b5760405162461bcd60e51b815260206004820152601560248201527424b73b30b634b2103637b0b710323ab930ba34b7b760591b60448201526064016105a9565b6000606461119a609686611907565b6111a4919061191e565b9050803410156111f65760405162461bcd60e51b815260206004820152601760248201527f496e73756666696369656e7420636f6c6c61746572616c00000000000000000060448201526064016105a9565b6002805460009182611207836118ee565b919050559050604051806101800160405280828152602001336001600160a01b0316815260200160006001600160a01b0316815260200186815260200134815260200185815260200184815260200142815260200160008152602001600081526020016000600381111561127d5761127d61168c565b81526000602091820181905283815260038083526040918290208451815592840151600184810180546001600160a01b039384166001600160a01b031991821617909155938601516002860180549190931694169390931790556060840151838201556080840151600484015560a0840151600584015560c0840151600684015560e0840151600784015561010084015160088401556101208401516009840155610140840151600a840180549193909260ff199092169184908111156113465761134661168c565b02179055506101609190910151600a90910180549115156101000261ff0019909216919091179055336000818152600460209081526040808320805460018101825590845292829020909201849055815188815234918101919091529081018690526060810185905282907fc8a2bcd3b42e3508cef71e30d8b859819aecaeeb4fdc70998269b264d4b4e3359060800160405180910390a350506113ea6001600055565b505050565b6001600160a01b03811660009081526004602090815260409182902080548351818402810184019094528084526060939283018282801561144f57602002820191906000526020600020905b81548152602001906001019080831161143b575b50505050509050919050565b6001600160a01b03811660009081526005602090815260409182902080548351818402810184019094528084526060939283018282801561144f576020028201919060005260206000209081548152602001906001019080831161143b5750505050509050919050565b6114cd611500565b6001600160a01b0381166114f757604051631e4fbdf760e01b8152600060048201526024016105a9565b6107af8161152d565b6001546001600160a01b031633146105455760405163118cdaa760e01b81523360048201526024016105a9565b600180546001600160a01b038381166001600160a01b0319831681179093556040519116919082907f8be0079c531659141344cd1fd0a4f28419497f9722a3daafe3b4186f6b6457e090600090a35050565b6002600054036115a257604051633ee5aeb560e01b815260040160405180910390fd5b6002600055565b6040518061018001604052806000815260200160006001600160a01b0316815260200160006001600160a01b0316815260200160008152602001600081526020016000815260200160008152602001600081526020016000815260200160008152602001600060038111156116205761162061168c565b8152600060209091015290565b80356001600160a01b038116811461164457600080fd5b919050565b6000806040838503121561165c57600080fd5b6116658361162d565b946020939093013593505050565b60006020828403121561168557600080fd5b5035919050565b634e487b7160e01b600052602160045260246000fd5b600481106116c057634e487b7160e01b600052602160045260246000fd5b9052565b815181526020808301516101808301916116e8908401826001600160a01b03169052565b50604083015161170360408401826001600160a01b03169052565b50606083015160608301526080830151608083015260a083015160a083015260c083015160c083015260e083015160e083015261010080840151818401525061012080840151818401525061014080840151611761828501826116a2565b5050610160928301511515919092015290565b6020808252825182820181905260009190848201906040850190845b818110156117ac57835183529284019291840191600101611790565b50909695505050505050565b8c81526001600160a01b038c811660208301528b166040820152606081018a90526080810189905260a0810188905260c0810187905260e081018690526101008101859052610120810184905261018081016118186101408301856116a2565b8215156101608301529d9c50505050505050505050505050565b60008060006060848603121561184757600080fd5b505081359360208301359350604090920135919050565b60006020828403121561187057600080fd5b6118798261162d565b9392505050565b634e487b7160e01b600052601160045260246000fd5b808201808211156118a9576118a9611880565b92915050565b818103818111156118a9576118a9611880565b634e487b7160e01b600052604160045260246000fd5b634e487b7160e01b600052603260045260246000fd5b60006001820161190057611900611880565b5060010190565b80820281158282048414176118a9576118a9611880565b60008261193b57634e487b7160e01b600052601260045260246000fd5b50049056fea26469706673582212209fa1124988803b0d9e66f66b2eff83f210a31aa50909d1ec98c999fd88ce944c64736f6c63430008140033",
  "linkReferences": {},
  "deployedLinkReferences": {}
}