{
  "_format": "hh-sol-artifact-1",
  "contractName": "LoanChainV2",
  "sourceName": "contracts/LoanChainV2.sol",
  "abi": [
    {
      "inputs": [],
      "stateMutability": "nonpayable",
      "type": "constructor"
    },
    {
      "inputs": [
        {
          "internalType": "address",
          "name": "owner",
          "type": "address"
        }
      ],
      "name": "OwnableInvalidOwner",
      "type": "error"
    },
    {
      "inputs": [
        {
          "internalType": "address",
          "name": "account",
          "type": "address"
        }
      ],
      "name": "OwnableUnauthorizedAccount",
      "type": "error"
    },
    {
      "inputs": [],
      "name": "ReentrancyGuardReentrantCall",
      "type": "error"
    },
    {
      "inputs": [
        {
          "internalType": "address",
          "name": "token",
          "type": "address"
        }
      ],
      "name": "SafeERC20FailedOperation",
      "type": "error"
    },
    {
      "anonymous": false,
      "inputs": [
        {
          "indexed": true,
          "internalType": "uint256",
          "name": "loanId",
          "type": "uint256"
        },
        {
          "indexed": true,
          "internalType": "address",
          "name": "lender",
          "type": "address"
        },
        {
          "indexed": false,
          "internalType": "uint256",
          "name": "amount",
          "type": "uint256"
        }
      ],
      "name": "InsuranceClaimed",
      "type": "event"
    },
    {
      "anonymous": false,
      "inputs": [
        {
          "indexed": true,
          "internalType": "uint256",
          "name": "loanId",
          "type": "uint256"
        },
        {
          "indexed": true,
          "internalType": "enum LoanChainV2.TokenType",
          "name": "token",
          "type": "uint8"
        },
        {
          "indexed": false,
          "internalType": "uint256",
          "name": "amount",
          "type": "uint256"
        }
      ],
      "name": "InsuranceFeeCollected",
      "type": "event"
    },
    {
      "anonymous": false,
      "inputs": [
        {
          "indexed": true,
          "internalType": "enum LoanChainV2.TokenType",
          "name": "token",
          "type": "uint8"
        },
        {
          "indexed": false,
          "internalType": "uint256",
          "name": "amount",
          "type": "uint256"
        }
      ],
      "name": "InsurancePoolContribution",
      "type": "event"
    },
    {
      "anonymous": false,
      "inputs": [
        {
          "indexed": true,
          "internalType": "uint256",
          "name": "loanId",
          "type": "uint256"
        },
        {
          "indexed": false,
          "internalType": "uint256",
          "name": "totalFunded",
          "type": "uint256"
        },
        {
          "indexed": false,
          "internalType": "uint256",
          "name": "fundedAt",
          "type": "uint256"
        }
      ],
      "name": "LoanFullyFunded",
      "type": "event"
    },
    {
      "anonymous": false,
      "inputs": [
        {
          "indexed": true,
          "internalType": "uint256",
          "name": "loanId",
          "type": "uint256"
        },
        {
          "indexed": true,
          "internalType": "address",
          "name": "lender",
          "type": "address"
        },
        {
          "indexed": false,
          "internalType": "uint256",
          "name": "amount",
          "type": "uint256"
        },
        {
          "indexed": false,
          "internalType": "uint256",
          "name": "totalFunded",
          "type": "uint256"
        }
      ],
      "name": "LoanPartiallyFunded",
      "type": "event"
    },
    {
      "anonymous": false,
      "inputs": [
        {
          "indexed": true,
          "internalType": "uint256",
          "name": "loanId",
          "type": "uint256"
        },
        {
          "indexed": true,
          "internalType": "address",
          "name": "borrower",
          "type": "address"
        },
        {
          "indexed": false,
          "internalType": "uint256",
          "name": "totalRepaidAmount",
          "type": "uint256"
        }
      ],
      "name": "LoanRepaid",
      "type": "event"
    },
    {
      "anonymous": false,
      "inputs": [
        {
          "indexed": true,
          "internalType": "uint256",
          "name": "loanId",
          "type": "uint256"
        },
        {
          "indexed": true,
          "internalType": "address",
          "name": "borrower",
          "type": "address"
        },
        {
          "indexed": false,
          "internalType": "uint256",
          "name": "totalAmount",
          "type": "uint256"
        },
        {
          "indexed": false,
          "internalType": "enum LoanChainV2.TokenType",
          "name": "loanToken",
          "type": "uint8"
        },
        {
          "indexed": false,
          "internalType": "enum LoanChainV2.TokenType",
          "name": "collateralToken",
          "type": "uint8"
        },
        {
          "indexed": false,
          "internalType": "uint256",
          "name": "collateralAmount",
          "type": "uint256"
        },
        {
          "indexed": false,
          "internalType": "uint256",
          "name": "interestRate",
          "type": "uint256"
        },
        {
          "indexed": false,
          "internalType": "uint256",
          "name": "duration",
          "type": "uint256"
        },
        {
          "indexed": false,
          "internalType": "bool",
          "name": "isVariableRate",
          "type": "bool"
        }
      ],
      "name": "LoanRequested",
      "type": "event"
    },
    {
      "anonymous": false,
      "inputs": [
        {
          "indexed": true,
          "internalType": "address",
          "name": "previousOwner",
          "type": "address"
        },
        {
          "indexed": true,
          "internalType": "address",
          "name": "newOwner",
          "type": "address"
        }
      ],
      "name": "OwnershipTransferred",
      "type": "event"
    },
    {
      "anonymous": false,
      "inputs": [
        {
          "indexed": true,
          "internalType": "uint256",
          "name": "loanId",
          "type": "uint256"
        },
        {
          "indexed": true,
          "internalType": "address",
          "name": "lender",
          "type": "address"
        },
        {
          "indexed": false,
          "internalType": "uint256",
          "name": "repaidAmount",
          "type": "uint256"
        }
      ],
      "name": "PartialRepayment",
      "type": "event"
    },
    {
      "anonymous": false,
      "inputs": [
        {
          "indexed": true,
          "internalType": "address",
          "name": "oracle",
          "type": "address"
        },
        {
          "indexed": false,
          "internalType": "bool",
          "name": "approved",
          "type": "bool"
        }
      ],
      "name": "PriceOracleUpdated",
      "type": "event"
    },
    {
      "anonymous": false,
      "inputs": [
        {
          "indexed": true,
          "internalType": "enum LoanChainV2.TokenType",
          "name": "tokenType",
          "type": "uint8"
        },
        {
          "indexed": false,
          "internalType": "uint256",
          "name": "newPrice",
          "type": "uint256"
        }
      ],
      "name": "PriceUpdated",
      "type": "event"
    },
    {
      "anonymous": false,
      "inputs": [
        {
          "indexed": true,
          "internalType": "enum LoanChainV2.TokenType",
          "name": "tokenType",
          "type": "uint8"
        },
        {
          "indexed": true,
          "internalType": "address",
          "name": "contractAddress",
          "type": "address"
        }
      ],
      "name": "TokenAdded",
      "type": "event"
    },
    {
      "inputs": [],
      "name": "CLAIM_GRACE_PERIOD",
      "outputs": [
        {
          "internalType": "uint256",
          "name": "",
          "type": "uint256"
        }
      ],
      "stateMutability": "view",
      "type": "function"
    },
    {
      "inputs": [],
      "name": "INSURANCE_RATE",
      "outputs": [
        {
          "internalType": "uint256",
          "name": "",
          "type": "uint256"
        }
      ],
      "stateMutability": "view",
      "type": "function"
    },
    {
      "inputs": [],
      "name": "MAX_INTEREST_RATE",
      "outputs": [
        {
          "internalType": "uint256",
          "name": "",
          "type": "uint256"
        }
      ],
      "stateMutability": "view",
      "type": "function"
    },
    {
      "inputs": [],
      "name": "MAX_LOAN_DURATION",
      "outputs": [
        {
          "internalType": "uint256",
          "name": "",
          "type": "uint256"
        }
      ],
      "stateMutability": "view",
      "type": "function"
    },
    {
      "inputs": [],
      "name": "MIN_COLLATERAL_RATIO",
      "outputs": [
        {
          "internalType": "uint256",
          "name": "",
          "type": "uint256"
        }
      ],
      "stateMutability": "view",
      "type": "function"
    },
    {
      "inputs": [],
      "name": "MIN_LOAN_DURATION",
      "outputs": [
        {
          "internalType": "uint256",
          "name": "",
          "type": "uint256"
        }
      ],
      "stateMutability": "view",
      "type": "function"
    },
    {
      "inputs": [
        {
          "internalType": "enum LoanChainV2.TokenType",
          "name": "_tokenType",
          "type": "uint8"
        },
        {
          "internalType": "address",
          "name": "_contractAddress",
          "type": "address"
        },
        {
          "internalType": "uint8",
          "name": "_decimals",
          "type": "uint8"
        },
        {
          "internalType": "uint256",
          "name": "_minLoanAmount",
          "type": "uint256"
        },
        {
          "internalType": "uint256",
          "name": "_maxLoanAmount",
          "type": "uint256"
        }
      ],
      "name": "addSupportedToken",
      "outputs": [],
      "stateMutability": "nonpayable",
      "type": "function"
    },
    {
      "inputs": [
        {
          "internalType": "address",
          "name": "",
          "type": "address"
        },
        {
          "internalType": "uint256",
          "name": "",
          "type": "uint256"
        }
      ],
      "name": "borrowerLoans",
      "outputs": [
        {
          "internalType": "uint256",
          "name": "",
          "type": "uint256"
        }
      ],
      "stateMutability": "view",
      "type": "function"
    },
    {
      "inputs": [
        {
          "internalType": "enum LoanChainV2.TokenType",
          "name": "_tokenType",
          "type": "uint8"
        },
        {
          "internalType": "uint256",
          "name": "_amount",
          "type": "uint256"
        }
      ],
      "name": "calculateUSDValue",
      "outputs": [
        {
          "internalType": "uint256",
          "name": "",
          "type": "uint256"
        }
      ],
      "stateMutability": "view",
      "type": "function"
    },
    {
      "inputs": [
        {
          "internalType": "uint256",
          "name": "_loanId",
          "type": "uint256"
        }
      ],
      "name": "claimInsurance",
      "outputs": [],
      "stateMutability": "nonpayable",
      "type": "function"
    },
    {
      "inputs": [
        {
          "internalType": "enum LoanChainV2.TokenType",
          "name": "_tokenType",
          "type": "uint8"
        },
        {
          "internalType": "uint256",
          "name": "_amount",
          "type": "uint256"
        }
      ],
      "name": "contributeToInsurancePool",
      "outputs": [],
      "stateMutability": "payable",
      "type": "function"
    },
    {
      "inputs": [
        {
          "internalType": "uint256",
          "name": "_loanId",
          "type": "uint256"
        },
        {
          "internalType": "uint256",
          "name": "_amount",
          "type": "uint256"
        }
      ],
      "name": "fundLoan",
      "outputs": [],
      "stateMutability": "payable",
      "type": "function"
    },
    {
      "inputs": [],
      "name": "getActiveLoanRequests",
      "outputs": [
        {
          "internalType": "uint256[]",
          "name": "",
          "type": "uint256[]"
        }
      ],
      "stateMutability": "view",
      "type": "function"
    },
    {
      "inputs": [
        {
          "internalType": "address",
          "name": "_borrower",
          "type": "address"
        }
      ],
      "name": "getBorrowerLoans",
      "outputs": [
        {
          "internalType": "uint256[]",
          "name": "",
          "type": "uint256[]"
        }
      ],
      "stateMutability": "view",
      "type": "function"
    },
    {
      "inputs": [
        {
          "internalType": "enum LoanChainV2.TokenType",
          "name": "_tokenType",
          "type": "uint8"
        }
      ],
      "name": "getInsurancePoolBalance",
      "outputs": [
        {
          "internalType": "uint256",
          "name": "",
          "type": "uint256"
        }
      ],
      "stateMutability": "view",
      "type": "function"
    },
    {
      "inputs": [
        {
          "internalType": "uint256",
          "name": "_loanId",
          "type": "uint256"
        },
        {
          "internalType": "address",
          "name": "_lender",
          "type": "address"
        }
      ],
      "name": "getInsuranceStatus",
      "outputs": [
        {
          "internalType": "bool",
          "name": "hasInsurance",
          "type": "bool"
        },
        {
          "internalType": "uint256",
          "name": "insuranceFee",
          "type": "uint256"
        },
        {
          "internalType": "bool",
          "name": "isClaimed",
          "type": "bool"
        },
        {
          "internalType": "bool",
          "name": "canClaim",
          "type": "bool"
        }
      ],
      "stateMutability": "view",
      "type": "function"
    },
    {
      "inputs": [
        {
          "internalType": "address",
          "name": "_lender",
          "type": "address"
        }
      ],
      "name": "getLenderLoans",
      "outputs": [
        {
          "internalType": "uint256[]",
          "name": "",
          "type": "uint256[]"
        }
      ],
      "stateMutability": "view",
      "type": "function"
    },
    {
      "inputs": [
        {
          "internalType": "uint256",
          "name": "_loanId",
          "type": "uint256"
        }
      ],
      "name": "getLoan",
      "outputs": [
        {
          "components": [
            {
              "internalType": "uint256",
              "name": "id",
              "type": "uint256"
            },
            {
              "internalType": "address",
              "name": "borrower",
              "type": "address"
            },
            {
              "internalType": "address[]",
              "name": "lenders",
              "type": "address[]"
            },
            {
              "internalType": "uint256[]",
              "name": "lenderAmounts",
              "type": "uint256[]"
            },
            {
              "internalType": "uint256",
              "name": "totalAmount",
              "type": "uint256"
            },
            {
              "internalType": "uint256",
              "name": "totalFunded",
              "type": "uint256"
            },
            {
              "internalType": "enum LoanChainV2.TokenType",
              "name": "loanToken",
              "type": "uint8"
            },
            {
              "internalType": "enum LoanChainV2.TokenType",
              "name": "collateralToken",
              "type": "uint8"
            },
            {
              "internalType": "uint256",
              "name": "collateralAmount",
              "type": "uint256"
            },
            {
              "internalType": "uint256",
              "name": "interestRate",
              "type": "uint256"
            },
            {
              "internalType": "bool",
              "name": "isVariableRate",
              "type": "bool"
            },
            {
              "internalType": "uint256",
              "name": "duration",
              "type": "uint256"
            },
            {
              "internalType": "uint256",
              "name": "createdAt",
              "type": "uint256"
            },
            {
              "internalType": "uint256",
              "name": "fundedAt",
              "type": "uint256"
            },
            {
              "internalType": "uint256",
              "name": "dueDate",
              "type": "uint256"
            },
            {
              "internalType": "enum LoanChainV2.LoanStatus",
              "name": "status",
              "type": "uint8"
            },
            {
              "internalType": "bool",
              "name": "collateralClaimed",
              "type": "bool"
            },
            {
              "internalType": "uint256",
              "name": "riskScore",
              "type": "uint256"
            },
            {
              "internalType": "bool",
              "name": "hasInsurance",
              "type": "bool"
            },
            {
              "internalType": "uint256",
              "name": "insuranceFee",
              "type": "uint256"
            }
          ],
          "internalType": "struct LoanChainV2.Loan",
          "name": "",
          "type": "tuple"
        }
      ],
      "stateMutability": "view",
      "type": "function"
    },
    {
      "inputs": [
        {
          "internalType": "enum LoanChainV2.TokenType",
          "name": "_tokenType",
          "type": "uint8"
        }
      ],
      "name": "getSupportedToken",
      "outputs": [
        {
          "components": [
            {
              "internalType": "address",
              "name": "contractAddress",
              "type": "address"
            },
            {
              "internalType": "enum LoanChainV2.TokenType",
              "name": "tokenType",
              "type": "uint8"
            },
            {
              "internalType": "uint8",
              "name": "decimals",
              "type": "uint8"
            },
            {
              "internalType": "bool",
              "name": "isActive",
              "type": "bool"
            },
            {
              "internalType": "uint256",
              "name": "minLoanAmount",
              "type": "uint256"
            },
            {
              "internalType": "uint256",
              "name": "maxLoanAmount",
              "type": "uint256"
            }
          ],
          "internalType": "struct LoanChainV2.Token",
          "name": "",
          "type": "tuple"
        }
      ],
      "stateMutability": "view",
      "type": "function"
    },
    {
      "inputs": [
        {
          "internalType": "enum LoanChainV2.TokenType",
          "name": "_tokenType",
          "type": "uint8"
        }
      ],
      "name": "getTokenPrice",
      "outputs": [
        {
          "internalType": "uint256",
          "name": "",
          "type": "uint256"
        }
      ],
      "stateMutability": "view",
      "type": "function"
    },
    {
      "inputs": [
        {
          "internalType": "enum LoanChainV2.TokenType",
          "name": "_tokenType",
          "type": "uint8"
        }
      ],
      "name": "getTokenPriceInfo",
      "outputs": [
        {
          "internalType": "uint256",
          "name": "price",
          "type": "uint256"
        },
        {
          "internalType": "uint256",
          "name": "lastUpdate",
          "type": "uint256"
        },
        {
          "internalType": "uint256",
          "name": "source1",
          "type": "uint256"
        },
        {
          "internalType": "uint256",
          "name": "source2",
          "type": "uint256"
        },
        {
          "internalType": "uint256",
          "name": "updateCount",
          "type": "uint256"
        },
        {
          "internalType": "bool",
          "name": "isStale",
          "type": "bool"
        }
      ],
      "stateMutability": "view",
      "type": "function"
    },
    {
      "inputs": [
        {
          "internalType": "uint256",
          "name": "",
          "type": "uint256"
        },
        {
          "internalType": "address",
          "name": "",
          "type": "address"
        }
      ],
      "name": "hasClaimedInsurance",
      "outputs": [
        {
          "internalType": "bool",
          "name": "",
          "type": "bool"
        }
      ],
      "stateMutability": "view",
      "type": "function"
    },
    {
      "inputs": [
        {
          "internalType": "enum LoanChainV2.TokenType",
          "name": "",
          "type": "uint8"
        }
      ],
      "name": "insurancePools",
      "outputs": [
        {
          "internalType": "uint256",
          "name": "",
          "type": "uint256"
        }
      ],
      "stateMutability": "view",
      "type": "function"
    },
    {
      "inputs": [
        {
          "internalType": "address",
          "name": "",
          "type": "address"
        }
      ],
      "name": "lenderInsuranceContributions",
      "outputs": [
        {
          "internalType": "uint256",
          "name": "",
          "type": "uint256"
        }
      ],
      "stateMutability": "view",
      "type": "function"
    },
    {
      "inputs": [
        {
          "internalType": "address",
          "name": "",
          "type": "address"
        },
        {
          "internalType": "uint256",
          "name": "",
          "type": "uint256"
        }
      ],
      "name": "lenderLoans",
      "outputs": [
        {
          "internalType": "uint256",
          "name": "",
          "type": "uint256"
        }
      ],
      "stateMutability": "view",
      "type": "function"
    },
    {
      "inputs": [
        {
          "internalType": "uint256",
          "name": "",
          "type": "uint256"
        },
        {
          "internalType": "address",
          "name": "",
          "type": "address"
        }
      ],
      "name": "lenderPositions",
      "outputs": [
        {
          "internalType": "address",
          "name": "lender",
          "type": "address"
        },
        {
          "internalType": "uint256",
          "name": "amount",
          "type": "uint256"
        },
        {
          "internalType": "uint256",
          "name": "fundedAt",
          "type": "uint256"
        },
        {
          "internalType": "bool",
          "name": "repaid",
          "type": "bool"
        },
        {
          "internalType": "uint256",
          "name": "repaidAmount",
          "type": "uint256"
        }
      ],
      "stateMutability": "view",
      "type": "function"
    },
    {
      "inputs": [
        {
          "internalType": "uint256",
          "name": "",
          "type": "uint256"
        }
      ],
      "name": "loans",
      "outputs": [
        {
          "internalType": "uint256",
          "name": "id",
          "type": "uint256"
        },
        {
          "internalType": "address",
          "name": "borrower",
          "type": "address"
        },
        {
          "internalType": "uint256",
          "name": "totalAmount",
          "type": "uint256"
        },
        {
          "internalType": "uint256",
          "name": "totalFunded",
          "type": "uint256"
        },
        {
          "internalType": "enum LoanChainV2.TokenType",
          "name": "loanToken",
          "type": "uint8"
        },
        {
          "internalType": "enum LoanChainV2.TokenType",
          "name": "collateralToken",
          "type": "uint8"
        },
        {
          "internalType": "uint256",
          "name": "collateralAmount",
          "type": "uint256"
        },
        {
          "internalType": "uint256",
          "name": "interestRate",
          "type": "uint256"
        },
        {
          "internalType": "bool",
          "name": "isVariableRate",
          "type": "bool"
        },
        {
          "internalType": "uint256",
          "name": "duration",
          "type": "uint256"
        },
        {
          "internalType": "uint256",
          "name": "createdAt",
          "type": "uint256"
        },
        {
          "internalType": "uint256",
          "name": "fundedAt",
          "type": "uint256"
        },
        {
          "internalType": "uint256",
          "name": "dueDate",
          "type": "uint256"
        },
        {
          "internalType": "enum LoanChainV2.LoanStatus",
          "name": "status",
          "type": "uint8"
        },
        {
          "internalType": "bool",
          "name": "collateralClaimed",
          "type": "bool"
        },
        {
          "internalType": "uint256",
          "name": "riskScore",
          "type": "uint256"
        },
        {
          "internalType": "bool",
          "name": "hasInsurance",
          "type": "bool"
        },
        {
          "internalType": "uint256",
          "name": "insuranceFee",
          "type": "uint256"
        }
      ],
      "stateMutability": "view",
      "type": "function"
    },
    {
      "inputs": [],
      "name": "nextLoanId",
      "outputs": [
        {
          "internalType": "uint256",
          "name": "",
          "type": "uint256"
        }
      ],
      "stateMutability": "view",
      "type": "function"
    },
    {
      "inputs": [],
      "name": "owner",
      "outputs": [
        {
          "internalType": "address",
          "name": "",
          "type": "address"
        }
      ],
      "stateMutability": "view",
      "type": "function"
    },
    {
      "inputs": [
        {
          "internalType": "address",
          "name": "",
          "type": "address"
        }
      ],
      "name": "priceOracles",
      "outputs": [
        {
          "internalType": "bool",
          "name": "",
          "type": "bool"
        }
      ],
      "stateMutability": "view",
      "type": "function"
    },
    {
      "inputs": [],
      "name": "renounceOwnership",
      "outputs": [],
      "stateMutability": "nonpayable",
      "type": "function"
    },
    {
      "inputs": [
        {
          "internalType": "uint256",
          "name": "_loanId",
          "type": "uint256"
        }
      ],
      "name": "repayLoan",
      "outputs": [],
      "stateMutability": "payable",
      "type": "function"
    },
    {
      "inputs": [
        {
          "internalType": "uint256",
          "name": "_totalAmount",
          "type": "uint256"
        },
        {
          "internalType": "enum LoanChainV2.TokenType",
          "name": "_loanToken",
          "type": "uint8"
        },
        {
          "internalType": "enum LoanChainV2.TokenType",
          "name": "_collateralToken",
          "type": "uint8"
        },
        {
          "internalType": "uint256",
          "name": "_collateralAmount",
          "type": "uint256"
        },
        {
          "internalType": "uint256",
          "name": "_interestRate",
          "type": "uint256"
        },
        {
          "internalType": "uint256",
          "name": "_duration",
          "type": "uint256"
        },
        {
          "internalType": "bool",
          "name": "_isVariableRate",
          "type": "bool"
        },
        {
          "internalType": "bool",
          "name": "_hasInsurance",
          "type": "bool"
        }
      ],
      "name": "requestLoan",
      "outputs": [],
      "stateMutability": "payable",
      "type": "function"
    },
    {
      "inputs": [
        {
          "internalType": "address",
          "name": "_oracle",
          "type": "address"
        },
        {
          "internalType": "bool",
          "name": "_approved",
          "type": "bool"
        }
      ],
      "name": "setPriceOracle",
      "outputs": [],
      "stateMutability": "nonpayable",
      "type": "function"
    },
    {
      "inputs": [
        {
          "internalType": "enum LoanChainV2.TokenType",
          "name": "",
          "type": "uint8"
        }
      ],
      "name": "supportedTokens",
      "outputs": [
        {
          "internalType": "address",
          "name": "contractAddress",
          "type": "address"
        },
        {
          "internalType": "enum LoanChainV2.TokenType",
          "name": "tokenType",
          "type": "uint8"
        },
        {
          "internalType": "uint8",
          "name": "decimals",
          "type": "uint8"
        },
        {
          "internalType": "bool",
          "name": "isActive",
          "type": "bool"
        },
        {
          "internalType": "uint256",
          "name": "minLoanAmount",
          "type": "uint256"
        },
        {
          "internalType": "uint256",
          "name": "maxLoanAmount",
          "type": "uint256"
        }
      ],
      "stateMutability": "view",
      "type": "function"
    },
    {
      "inputs": [
        {
          "internalType": "enum LoanChainV2.TokenType",
          "name": "",
          "type": "uint8"
        }
      ],
      "name": "tokenPrices",
      "outputs": [
        {
          "internalType": "uint256",
          "name": "price",
          "type": "uint256"
        },
        {
          "internalType": "uint256",
          "name": "lastUpdate",
          "type": "uint256"
        },
        {
          "internalType": "uint256",
          "name": "priceSource1",
          "type": "uint256"
        },
        {
          "internalType": "uint256",
          "name": "priceSource2",
          "type": "uint256"
        },
        {
          "internalType": "uint256",
          "name": "updateCount",
          "type": "uint256"
        }
      ],
      "stateMutability": "view",
      "type": "function"
    },
    {
      "inputs": [
        {
          "internalType": "address",
          "name": "newOwner",
          "type": "address"
        }
      ],
      "name": "transferOwnership",
      "outputs": [],
      "stateMutability": "nonpayable",
      "type": "function"
    },
    {
      "inputs": [
        {
          "internalType": "enum LoanChainV2.TokenType",
          "name": "_tokenType",
          "type": "uint8"
        },
        {
          "internalType": "uint256",
          "name": "_price1",
          "type": "uint256"
        },
        {
          "internalType": "uint256",
          "name": "_price2",
          "type": "uint256"
        }
      ],
      "name": "updateTokenPrice",
      "outputs": [],
      "stateMutability": "nonpayable",
      "type": "function"
    }
  ],
  "bytecode": "0x608060409080825234620002c0576001906000908282553315620002ac57508154336001600160a01b03198216811784556001600160a01b039182167f8be0079c531659141344cd1fd0a4f28419497f9722a3daafe3b4186f6b6457e08480a360028381558451919060c083016001600160401b03811184821017620002985786528383526020928381018581528782016012815260608301908882526080840191662386f26fc10000835260a0850193683635c9adc5dea000008552898052600397888a528c8b209651168654915193600585101562000284575192516001600160b81b03199092161760a09390931b60ff60a01b169290921760a89190911b60ff60a81b161790151560b01b60ff60b01b1617835551878301555190820155859392600992909160049062000135620002c5565b82643a35294400808352868301904282528a84018181526060850191825260808501928d84528b805260088a528c8c2095518655518d860155518585015551868401555191015562000186620002c5565b926305f5e100938481528386898b8d838601428152828701928b845260608801948c8652600860808a019785895285835252209651875551908601555186850155518484015551910155620001da620002c5565b8481524286820190815289820186815260608301878152608084018d8152868c5260088a528c8c20945185559251848e01559051838601555183830155519084015562000226620002c5565b93808552858501924284528986018281526060870192835260808701948c8652848b52600889528b8b2097518855518c880155519086015551908401555191015533835252209060ff19825416179055516135829081620002fc8239f35b634e487b7160e01b8c52602160045260248cfd5b634e487b7160e01b85526041600452602485fd5b602491631e4fbdf760e01b82526004820152fd5b600080fd5b6040519060a082016001600160401b03811183821017620002e557604052565b634e487b7160e01b600052604160045260246000fdfe60a0604052600436101561001257600080fd5b60003560e01c8062b752ca14612c815780630137451814612c425780630d0b2ca614612c2357806318fa96de14612be95780631988a684146119175780632e2106af14612bcb5780632ffc204b14612ab957806334855d1414612a9c5780633cdb72f114612a525780633f572d36146129d35780634dd9cccc146126e1578063504006ca14612366578063626066cc14612319578063715018a6146122bc5780637a9fffb7146122a057806382626d6b14612284578063858a9ea0146121fc57806387c51459146121de57806389d99a05146121c15780638da5cb5b146121985780639772d7ee1461208a578063ab7b1c8914611b46578063ad8d013814611acb578063b0b3ca4714611948578063b59d17ab14611917578063c7fc13251461187e578063d42c4c531461178e578063d89e8c1c1461170e578063deceafa7146116b1578063e1ec3c6814611562578063e3ed19021461150a578063eee8b7ff146114d0578063eeeb0c171461147e578063f2fde38b146113f5578063f4512bb614610f70578063f498c9cc14610693578063f85920d8146101e35763fe6993b8146101bd57600080fd5b346101de5760206101d66101d036612f05565b9061308d565b604051908152f35b600080fd5b346101de576020806003193601126101de57600435610200613314565b806000526004825260406000209161021a83541515613337565b60ff9081600e8501541660068110156103f0576004036106575781601085015416156106135782600052600b8152604060002033600052815281604060002054166105be57600d84015462093a8081018091116105a857421061056b576000936000946000600283018054915b82811061050f57505050156104ca5784156104905760068101906102ad84835416612e3e565b5495861561044b579060046102ca6102d393601184015490613029565b91015490612ffc565b94851161040657829084600052600b835260406000203360005283526040600020600160ff1982541617905561030b82825416612e3e565b61031687825461301c565b9055541660058110156103f057847f9575558b5d6ac5e60a8a8ad59be28fbdca3803658e380fdea5d922214559f8cd93821560001461037c575061036c9150600080808093335af1610366613379565b506133b9565b6040519384523393a36001600055005b6103886103eb93612e57565b9060026040519261039884612f50565b80546001600160a01b03808216865293906103bb60a082901c83168a8801612fe3565b818160a81c16604087015260b01c161515606085015260018101546080850152015460a083015233915116613499565b61036c565b634e487b7160e01b600052602160045260246000fd5b60405162461bcd60e51b815260048101839052601c60248201527f496e73756666696369656e7420696e737572616e63652066756e6473000000006044820152606490fd5b60405162461bcd60e51b815260048101859052601c60248201527f4e6f20696e737572616e63652066756e647320617661696c61626c65000000006044820152606490fd5b60405162461bcd60e51b81526004810183905260126024820152714e6f20616d6f756e7420746f20636c61696d60701b6044820152606490fd5b60405162461bcd60e51b815260048101839052601960248201527f4e6f742061206c656e646572206f6e2074686973206c6f616e000000000000006044820152606490fd5b6105198183612e89565b9054600391821b1c6001600160a01b03163314610540575b5061053b9061303c565b610287565b93509761056461053b916001956105598c828a01612e89565b9054911b1c90612fef565b9890610531565b6064906040519062461bcd60e51b82526004820152601660248201527511dc9858d9481c195c9a5bd9081b9bdd08195b99195960521b6044820152fd5b634e487b7160e01b600052601160045260246000fd5b6084906040519062461bcd60e51b82526004820152602860248201527f496e737572616e636520616c726561647920636c61696d65642062792074686960448201526739903632b73232b960c11b6064820152fd5b6064906040519062461bcd60e51b82526004820152601c60248201527f4c6f616e20646f6573206e6f74206861766520696e737572616e6365000000006044820152fd5b6064906040519062461bcd60e51b825260048201526015602482015274131bd85b881a5cc81b9bdd08191959985d5b1d1959605a1b6044820152fd5b6101003660031901126101de5760056024351015806101de57600560443510156101de5760c4359081151582036101de5760e435151560e435036101de576106d9613314565b60043515610f2057610bb860843511610ee257610e1060a435101580610ed2575b15610e9a5760ff61070c602435612e57565b5460b01c1615610e555760ff610723604435612e57565b5460b01c1615610e105761073b60043560243561308d565b61074960643560443561308d565b906078810290808204607814901517156105a8576064900411610dcb57600254906107738261303c565b60025560009060e435610da8575b604435610ca95760643560e4358281610c99575b50610c87575b3403610c12575b60e435610b3e575b50604051906107b882612fa5565b600082526040516107c881612fa5565b60008152604051926107d984612f6c565b848452336020850152604084015260608301526004356080830152600060a083015261080a60243560c08401612fe3565b61081960443560e08401612fe3565b60643561010083015260843561012083015283151561014083015260a4356101608301524261018083015260006101a083015260006101c083015260006101e083015260006102008301526101f461022083015260e4351515610240830152610260820152816000526004602052604060002090805182556001820160018060a01b036020830151166001600160601b0360a01b825416179055604081015180519067ffffffffffffffff8211610b0b57600160401b8211610b0b57602060028501916108eb848454818655856131fa565b0190600052602060002060005b838110610b215750505050606081015180519067ffffffffffffffff8211610b0b57600160401b8211610b0b576020600385019161093b848454818655856131fa565b0190600052602060002060005b838110610af757505050506080810151600483015560a0810151600583015560c081015160058110156103f057600683015460e083015160058110156103f05761ff0060ff9160081b1692169061ffff191617176006830155610100810151600783015561012081015160088301556109d76101408201511515600984019060ff801983541691151516179055565b610160810151600a830155610180810151600b8301556101a0810151600c8301556101c0810151600d8301556101e081015160068110156103f05760119161026091600e850190815460ff61ff00610200860151151560081b1692169061ffff191617179055610220810151600f850155610a686102408201511515601086019060ff801983541691151516179055565b0151910155336000526006602052610a8481604060002061322e565b604051916004358352610a9c60208401602435612eb7565b610aab60408401604435612eb7565b6064356060840152608435608084015260a43560a0840152151560c08301527fabdb66e6184682b23b47b8b6a7923f5b99d0155e0155200bda4753d7e784699e60e03393a36001600055005b600190602084519401938184015501610948565b634e487b7160e01b600052604160045260246000fd5b82516001600160a01b0316818301556020909201916001016108f8565b6103f057602435610b97575b610b55602435612e3e565b610b60828254612fef565b9055604051818152827f4c87e05722f69fee95be0764a567cb86600aae646a205352052c4b1a8723a069602060243593a3836107aa565b610c0d81610ba6602435612e57565b604051610bb281612f50565b81546001600160a01b0380821683529260029160ff90610bdb60a082901c831660208701612fe3565b818160a81c16604086015260b01c161515606084015260018101546080840152015460a0820152511630903390613263565b610b4a565b60405162461bcd60e51b815260206004820152604160248201527f4554482073656e74206d757374206d6174636820636f6c6c61746572616c207060448201527f6c757320696e737572616e63652066656520286966206170706c696361626c656064820152602960f81b608482015260a490fd5b50610c9482606435612fef565b61079b565b90506103f0576024351582610795565b60e43580610d9b575b15610d8c57813403610d3d575b610d38610ccd604435612e57565b604051610cd981612f50565b81546001600160a01b0380821683529260029160ff90610d0260a082901c831660208701612fe3565b818160a81c16604086015260b01c161515606084015260018101546080840152015460a082015251166064359030903390613263565b6107a2565b60405162461bcd60e51b815260206004820152602160248201527f4d7573742073656e642065786163742045544820696e737572616e63652066656044820152606560f81b6064820152608490fd5b610d96341561316c565b610cbf565b5050600060243515610cb2565b9050600435606460043502046064036105a8576127106064600435020490610781565b60405162461bcd60e51b815260206004820152601760248201527f496e73756666696369656e7420636f6c6c61746572616c0000000000000000006044820152606490fd5b60405162461bcd60e51b815260206004820152601e60248201527f436f6c6c61746572616c20746f6b656e206e6f7420737570706f7274656400006044820152606490fd5b60405162461bcd60e51b815260206004820152601860248201527f4c6f616e20746f6b656e206e6f7420737570706f7274656400000000000000006044820152606490fd5b60405162461bcd60e51b815260206004820152601060248201526f24b73b30b634b210323ab930ba34b7b760811b6044820152606490fd5b506301e1338060a43511156106fa565b60405162461bcd60e51b8152602060048201526016602482015275092dce8cae4cae6e840e4c2e8ca40e8dede40d0d2ced60531b6044820152606490fd5b60405162461bcd60e51b815260206004820152602260248201527f4c6f616e20616d6f756e74206d7573742062652067726561746572207468616e604482015261020360f41b6064820152608490fd5b60403660031901126101de57610f84613314565b6004356000526004602052604060002060018060a01b03600182015416610fac811515613337565b60ff600e8301541660068110156103f05780159081156113ea575b50156113b057331461136b576024351561131857610feb6024356005830154612fef565b6004820154106112dd5760ff60068201541660058110156103f0578061125a57506024353403611215575b60405161102281612f89565b33815260046020820160243581526110a7604084014281526060850190600082526080860193600085528535600052600560205260406000203360005260205260406000209660018060a01b039051166001600160601b0360a01b885416178755516001870155516002860155511515600385019060ff801983541691151516179055565b51910155600281018054600160401b811015610b0b576110cc91600182018155612e89565b81549060031b9033821b9160018060a01b03901b19161790556110f46024356003830161322e565b6111046024356005830154612fef565b6005820155336000526007602052611122600435604060002061322e565b6005810154600482015490919082106111c85760059150600160ff19600e8301541617600e82015542600c82015561115e600a82015442612fef565b600d82015560068101546001820154600483015461118a9290916001600160a01b03169060ff166133fb565b01546040519081524260208201527fb96bada2a4e2e402aaa472b5e783a9d8bb13d996387df6beea608680b31ff46f604060043592a25b6001600055005b600e600260ff19828401541617910155604051906024358252602082015233907f73a9841ee04f39f41b73f9432c749617285427e60f2fbe3a1bf5a5ef2e6b16cb604060043592a36111c1565b60405162461bcd60e51b815260206004820152601960248201527f496e636f72726563742045544820616d6f756e742073656e74000000000000006044820152606490fd5b6112666112d891612e57565b60026040519161127583612f50565b80546001600160a01b038116845260ff9061129960a082901c831660208701612fe3565b60a881901c8216604086015260b01c161515606084015260018101546080840152015460a08201525160243590309033906001600160a01b0316613263565b611016565b60405162461bcd60e51b8152602060048201526013602482015272115e18d959591cc81b1bd85b88185b5bdd5b9d606a1b6044820152606490fd5b60405162461bcd60e51b815260206004820152602560248201527f46756e64696e6720616d6f756e74206d75737420626520677265617465722074604482015264068616e20360dc1b6064820152608490fd5b60405162461bcd60e51b815260206004820152601960248201527f43616e6e6f742066756e6420796f7572206f776e206c6f616e000000000000006044820152606490fd5b60405162461bcd60e51b81526020600482015260126024820152714c6f616e206e6f7420617661696c61626c6560701b6044820152606490fd5b600291501483610fc7565b346101de5760203660031901126101de5761140e612e28565b611416612f24565b6001600160a01b0390811690811561146557600154826001600160601b0360a01b821617600155167f8be0079c531659141344cd1fd0a4f28419497f9722a3daafe3b4186f6b6457e0600080a3005b604051631e4fbdf760e01b815260006004820152602490fd5b346101de5760203660031901126101de576001600160a01b0361149f612e28565b1660005260076020526114cc6114b860406000206134e9565b604051918291602083526020830190612ec4565b0390f35b346101de5760203660031901126101de576001600160a01b036114f1612e28565b1660005260066020526114cc6114b860406000206134e9565b346101de5760403660031901126101de57611523612e28565b6001600160a01b03166000908152600660205260409020805460243591908210156101de5760209161155491612e89565b90546040519160031b1c8152f35b346101de5760203660031901126101de576004356000526004602052604060002080549080600160a01b6001900360018201541660048201546005830154600684015460078501546008860154600987015460ff1690600a88015492600b89015494600c8a015496600d8b015498600e8c01549a600f8d01549c6010015460ff169d601101549e604051806080525260805160200152608051604001526080516060015260805160800160ff82169061161a91612eb7565b60805160a0019060081c60ff169061163191612eb7565b60805160c0015260805160e001521515608051610100015260805161012001526080516101400152608051610160015260805161018001526080516101a00160ff82169061167e91612ef8565b60081c60ff1615156080516101c001526080516101e0015215156080516102000152608051610220015260805161024090f35b346101de5760203660031901126101de5760043560058110156101de576116d960a091612e70565b805490600181015490600281015460046003830154920154926040519485526020850152604084015260608301526080820152f35b346101de5760203660031901126101de5760043560058110156101de57611736602091612e70565b611785610e1061177e6040519361174c85612f89565b80548552600460018201549182888801526002810154604088015260038101546060880152015460808601524261301c565b111561304b565b51604051908152f35b346101de5760203660031901126101de5760043560058110156101de576117e360c091600060a06040516117c181612f50565b8281528260208201528260408201528260608201528260808201520152612e57565b604051906117f082612f50565b80546001600160a01b038082168452919060ff6020850161181760a084901c831682612fe3565b6118616040870191838560a81c16835283606089019560b01c1615158552600260018701549660808a0197885201549660a089019788526040519851168852516020880190612eb7565b5116604085015251151560608401525160808301525160a0820152f35b346101de5760203660031901126101de5760043560058110156101de576118a660c091612e70565b6040516118b281612f89565b6080825492838352600181015492836020820152600282015490816040820152600460038401549384606084015201549384910152610e106118f4854261301c565b1193604051958652602086015260408501526060840152608083015260a0820152f35b346101de5760203660031901126101de5760043560058110156101de5761193f602091612e3e565b54604051908152f35b61195136612f05565b611959613314565b8015611a865760058210156103f05781611a12578034036119d75760207f6fa38037a90881b4bc2d0759bcac6c48179affdd02749ff4474eac352d847b36915b6119a284612e3e565b6119ad828254612fef565b905533600052600c825260406000206119c7828254612fef565b9055604051908152a26001600055005b60405162461bcd60e51b815260206004820152601360248201527208aa89040c2dadeeadce840dad2e6dac2e8c6d606b1b6044820152606490fd5b60207f6fa38037a90881b4bc2d0759bcac6c48179affdd02749ff4474eac352d847b3691611a40341561316c565b611a8181611a4d86612e57565b604051611a5981612f50565b81546001600160a01b0380821683529260029160ff90610bdb60a082901c83168b8701612fe3565b611999565b60405162461bcd60e51b815260206004820152601760248201527f416d6f756e74206d75737420626520706f7369746976650000000000000000006044820152606490fd5b346101de5760403660031901126101de5760a0611ae6612e12565b60043560005260056020526040600020600180841b03809216600052602052604060002090815416906001810154906002810154600460ff6003840154169201549260405194855260208501526040840152151560608301526080820152f35b60203660031901126101de57611b5a613314565b6004356000526004602052604060002060018060a01b0360018201541633036120455760ff600e8201541660068110156103f05760010361200e57600d8101544211611fda57611bc06004820154612710611bb9600885015483613029565b0490612fef565b9060ff60068201541660058110156103f05780611e72575090803410611e2d5760005b6002830154811015611cd357611bfc8160028501612e89565b60018060a01b0391549060031b1c1690611c34611c1c8260038701612e89565b90549060031b1c612710611bb9600888015483613029565b600080808084875af1611c45613379565b5015611c8e576004803560009081526005602090815260408083209683529590529390932060038101805460ff1916600117905590920191909155611c899061303c565b611be3565b60405162461bcd60e51b815260206004820152601960248201527f5472616e7366657220746f206c656e646572206661696c6564000000000000006044820152606490fd5b5090813411611dd2575b600e600360ff1982840154161791015560043560005260046020526040600020600e81019060ff825460081c16611d8d57600781015480611d51575b8360405190815233907f512d3e65b3e58c2187bb1872aa435dba5bd09c1c03823ba56ab70aac411e4a21602060043592a36001600055005b6006820154600190920154611d78926001600160a01b03919091169060081c60ff166133fb565b805461ff001916610100179055818080611d19565b60405162461bcd60e51b815260206004820152601a60248201527f436f6c6c61746572616c20616c726561647920636c61696d65640000000000006044820152606490fd5b6000808080611de1863461301c565b335af1611dec613379565b50611cdd5760405162461bcd60e51b8152602060048201526014602482015273115e18d95cdcc81c995d1d5c9b8819985a5b195960621b6044820152606490fd5b60405162461bcd60e51b815260206004820152601d60248201527f496e73756666696369656e742072657061796d656e7420616d6f756e740000006044820152606490fd5b34611f8a57611e8090612e57565b600260405191611e8f83612f50565b80546001600160a01b038116845260ff90611eb360a082901c831660208701612fe3565b60a881901c8216604086015260b01c161515606084015260018101546080840152015460a0820152516001600160a01b031660005b6002830154811015611f835780611f05611f7e9260028601612e89565b60018060a01b0391549060031b1c16611f3c611f248360038801612e89565b90549060031b1c612710611bb9600889015483613029565b90611f4982823388613263565b6004803560009081526005602090815260408083209483529390529190912060038101805460ff19166001179055015561303c565b611ee8565b5050611cdd565b60405162461bcd60e51b815260206004820152602260248201527f455448206e6f74206e656564656420666f722045524332302072657061796d656044820152611b9d60f21b6064820152608490fd5b60405162461bcd60e51b815260206004820152600c60248201526b131bd85b88195e1c1a5c995960a21b6044820152606490fd5b60405162461bcd60e51b815260206004820152600f60248201526e4c6f616e206e6f742061637469766560881b6044820152606490fd5b60405162461bcd60e51b815260206004820152601760248201527f4f6e6c7920626f72726f7765722063616e2072657061790000000000000000006044820152606490fd5b346101de5760003660031901126101de576002805460001981018181116105a8576120b4906131c8565b9160009160015b818110612113575050506120ce816131c8565b9160005b8281106120ef57604051602080825281906114cc90820187612ec4565b806120fd61210e9284613538565b516121088287613538565b5261303c565b6120d2565b8060005260206004815260ff600e908082604060002001541691600692838110156103f05715938415612173575b50505050612158575b6121539061303c565b6120bb565b9261216b81856121086121539489613538565b93905061214a565b600086815260049091526040902001541691508110156103f057831486808080612141565b346101de5760003660031901126101de576001546040516001600160a01b039091168152602090f35b346101de5760003660031901126101de576020604051610e108152f35b346101de5760003660031901126101de576020600254604051908152f35b346101de5760403660031901126101de57612215612e28565b60243590811515908183036101de577f32fde6397cd391b6f81b58789e435d67003507393605e8ab5c6ec76aaf7916a19161227b602092612254612f24565b60018060a01b031694856000526009845260406000209060ff801983541691151516179055565b604051908152a2005b346101de5760003660031901126101de57602060405160648152f35b346101de5760003660031901126101de57602060405160788152f35b346101de5760003660031901126101de576122d5612f24565b600180546001600160a01b031981169091556000906001600160a01b03167f8be0079c531659141344cd1fd0a4f28419497f9722a3daafe3b4186f6b6457e08280a3005b346101de5760403660031901126101de57612332612e12565b600435600052600b60205260406000209060018060a01b0316600052602052602060ff604060002054166040519015158152f35b346101de5760203660031901126101de57600061026060405161238881612f6c565b828152826020820152606060408201526060808201528260808201528260a08201528260c08201528260e08201528261010082015282610120820152826101408201528261016082015282610180820152826101a0820152826101c0820152826101e08201528261020082015282610220820152826102408201520152600435600052600460205260406000206040519061242282612f6c565b8054825260018060a01b0360018201541660208301526040518081600284016020815493848152019060005260206000209260005b8181106126bf57505061246c92500382612fc1565b604083015261247d600382016134e9565b606083015260048101546080830152600581015460a08301526124bc60ff60068301546124af82821660c08701612fe3565b60081c1660e08401612fe3565b6007810154610100830152600881015461012083015260ff6009820154161515610140830152600a810154610160830152600b810154610180830152600c8101546101a0830152600d8101546101c0830152600e81015490600660ff831610156103f05760ff8281601194166101e086015260081c161515610200840152600f81015461022084015260ff60108201541615156102408401520154610260820152604051602081528151602082015260018060a01b03602083015116604082015260408201519161028060608301526102a08201835180915260206102c0840194019060005b8181106126a0575050506102606125ca83946060840151601f19868303016080870152612ec4565b91608081015160a085015260a081015160c08501526125f160c082015160e0860190612eb7565b61260460e0820151610100860190612eb7565b61010081015161012085015261012081015161014085015261014081015115156101608501526101608101516101808501526101808101516101a08501526101a08101516101c08501526101c08101516101e085015261266e6101e0820151610200860190612ef8565b610200810151151561022085015261022081015161024085015261024081015115158285015201516102808301520390f35b82516001600160a01b03168652602095860195909201916001016125a2565b84546001600160a01b0316835260019485019486945060209093019201612457565b346101de5760603660031901126101de5760043560058110156101de57602490813591604435336000526020916009835260ff60406000205416156129905784151580612987575b156129535761273784612e70565b906127428387612fef565b60011c928087111561292357612758818861301c565b6127109081810291818304149015171561290e57612779826103e892612ffc565b116128ca576004830192835492836127d8575b50906003827ff798c75b2db09ea1034d9be253e9974b17bbe4a06f2b0ff6695054fa5b7471919899876127cd9695554260018301556002820155015561303c565b9055604051908152a2005b9781548681811160001461288657816127f09161301c565b6127109081810291818304149015171561287157610bb89161281191612ffc565b1161281c579761278c565b60405162461bcd60e51b8152600481018890526028818b01527f4e657720707269636520646576696174657320746f6f206d7563682066726f6d6044820152670818dd5c9c995b9d60c21b6064820152608490fd5b8a634e487b7160e01b60005260116004526000fd5b61288f9161301c565b612710908181029181830414901517156128b5576128b087610bb892612ffc565b612811565b89634e487b7160e01b60005260116004526000fd5b60405162461bcd60e51b815260048101869052601e818401527f507269636520736f7572636573206465766961746520746f6f206d75636800006044820152606490fd5b82634e487b7160e01b60005260116004526000fd5b61292d878261301c565b6127109081810291818304149015171561290e5761294e886103e892612ffc565b612779565b82600e6064926040519262461bcd60e51b845260048401528201526d496e76616c69642070726963657360901b6044820152fd5b50811515612729565b82601b6064926040519262461bcd60e51b845260048401528201527f4e6f7420617574686f72697a6564207072696365206f7261636c6500000000006044820152fd5b346101de5760203660031901126101de5760043560058110156101de576129fb60c091612e57565b805460018201546002909201546040516001600160a01b038316815292909160ff90612a306020860160a083901c8416612eb7565b818160a81c16604086015260b01c1615156060840152608083015260a0820152f35b346101de5760403660031901126101de57612a6b612e28565b6001600160a01b03166000908152600760205260409020805460243591908210156101de5760209161155491612e89565b346101de5760003660031901126101de576020604051610bb88152f35b346101de5760a03660031901126101de5760043560058110156101de57612ade612e12565b9060443560ff81168091036101de57612af5612f24565b60405190612b0282612f50565b6001600160a01b039384168083529360208301612b1f8582612fe3565b604084019283526060840190600182526080850191606435835260a08601936084358552612b4c88612e57565b96511691865490519260058410156103f05760029660ff60a81b905160a81b169260ff60b01b9051151560b01b169360ff60a01b9060a01b169168ffffffffffffffffff60b81b16171717178455516001840155519101557f0782d5a983f4f99019eb2dc8dfe67419752a13dca743154e71029fc01318d055600080a3005b346101de5760003660031901126101de57602060405162093a808152f35b346101de5760203660031901126101de576001600160a01b03612c0a612e28565b16600052600c6020526020604060002054604051908152f35b346101de5760003660031901126101de5760206040516301e133808152f35b346101de5760203660031901126101de576001600160a01b03612c63612e28565b166000526009602052602060ff604060002054166040519015158152f35b346101de5760403660031901126101de57600435612c9d612e12565b9080600052602060048152604060002091612cba83541515613337565b60ff6010840154169160118401549382600052600b825260406000209260018060a01b038097169384600052835260ff60406000205416936000906000926000600286019a8b54915b828110612dc6575050508780999a5097612daa575b87612d87575b505085612d7f575b5084612d75575b5083612d54575b509360809460405194151585528401521515604083015215156060820152f35b600d91935001549362093a8085018095116105a85793421015916080612d34565b1515935086612d2d565b945087612d26565b6000908152600b86526040808220928252918652205460ff161595508880612d1e565b965060ff600e8501541660068110156103f05760041496612d18565b8185612dd38f8490612e89565b929054600393841b1c1614612df2575b50612ded9061303c565b612d03565b955095612e0b612ded916001976105598a828d01612e89565b9690612de3565b602435906001600160a01b03821682036101de57565b600435906001600160a01b03821682036101de57565b60058110156103f057600052600a602052604060002090565b60058110156103f0576000526003602052604060002090565b60058110156103f0576000526008602052604060002090565b8054821015612ea15760005260206000200190600090565b634e487b7160e01b600052603260045260246000fd5b9060058210156103f05752565b90815180825260208080930193019160005b828110612ee4575050505090565b835185529381019392810192600101612ed6565b9060068210156103f05752565b60409060031901126101de5760043560058110156101de579060243590565b6001546001600160a01b03163303612f3857565b60405163118cdaa760e01b8152336004820152602490fd5b60c0810190811067ffffffffffffffff821117610b0b57604052565b610280810190811067ffffffffffffffff821117610b0b57604052565b60a0810190811067ffffffffffffffff821117610b0b57604052565b6020810190811067ffffffffffffffff821117610b0b57604052565b90601f8019910116810190811067ffffffffffffffff821117610b0b57604052565b60058210156103f05752565b919082018092116105a857565b8115613006570490565b634e487b7160e01b600052601260045260246000fd5b919082039182116105a857565b818102929181159184041417156105a857565b60001981146105a85760010190565b1561305257565b60405162461bcd60e51b815260206004820152601360248201527250726963652064617461206973207374616c6560681b6044820152606490fd5b9061315060ff916131006130a085612e57565b946040516130ad81612f50565b86546001600160a01b03811682529660a0906002906130d38a841c8a1660208601612fe3565b88604085019a818160a81c168c5260b01c1615156060850152600181015460808501520154910152612e70565b613149610e1061177e6040519361311685612f89565b8054855260046001820154918260208801526002810154604088015260038101546060880152015460808601524261301c565b5190613029565b91511690604d82116105a85761316991600a0a90612ffc565b90565b1561317357565b60405162461bcd60e51b8152602060048201526015602482015274139bc8115512081cda1bdd5b19081899481cd95b9d605a1b6044820152606490fd5b67ffffffffffffffff8111610b0b5760051b60200190565b906131d2826131b0565b6131df6040519182612fc1565b82815280926131f0601f19916131b0565b0190602036910137565b909182811061320857505050565b60009182526020822092830192015b82811061322357505050565b818155600101613217565b8054600160401b811015610b0b5761324b91600182018155612e89565b819291549060031b91821b91600019901b1916179055565b6040516323b872dd60e01b60208201526001600160a01b0392831660248201529290911660448301526064808301939093529181526132aa916132a582612f89565b6132ac565b565b906000602091828151910182855af115613308576000513d6132ff57506001600160a01b0381163b155b6132dd5750565b604051635274afe760e01b81526001600160a01b039091166004820152602490fd5b600114156132d6565b6040513d6000823e3d90fd5b600260005414613325576002600055565b604051633ee5aeb560e01b8152600490fd5b1561333e57565b60405162461bcd60e51b8152602060048201526013602482015272131bd85b88191bd95cc81b9bdd08195e1a5cdd606a1b6044820152606490fd5b3d156133b4573d9067ffffffffffffffff8211610b0b57604051916133a8601f8201601f191660200184612fc1565b82523d6000602084013e565b606090565b156133c057565b60405162461bcd60e51b8152602060048201526013602482015272115512081d1c985b9cd9995c8819985a5b1959606a1b6044820152606490fd5b91909160058110156103f0578061342d57506132aa916000918291829182916001600160a01b03165af1610366613379565b9161343a6132aa93612e57565b60405161344681612f50565b81546001600160a01b0380821683529260029160ff9061346f60a082901c831660208701612fe3565b818160a81c16604086015260b01c161515606084015260018101546080840152015460a082015251165b60405163a9059cbb60e01b60208201526001600160a01b039092166024830152604480830193909352918152608081019167ffffffffffffffff831182841017610b0b576132aa926040526132ac565b9060405191828154918282526020928383019160005283600020936000905b82821061351e575050506132aa92500383612fc1565b855484526001958601958895509381019390910190613508565b8051821015612ea15760209160051b01019056fea26469706673582212204020a1c51af07999af5907e5b38cf130470686cba288c5ba5f061fc0469b469c64736f6c63430008140033",
  "linkReferences": {},
  "deployedLinkReferences": {}
}