{
  "_format": "hh-sol-artifact-1",
  "contractName": "LoanChainV2",
  "sourceName": "contracts/LoanChainV2.sol",
  "abi": [
    {
      "inputs": [],
      "stateMutability": "nonpayable",
      "type": "constructor"
    },
    {
      "inputs": [
        {
          "internalType": "address",
          "name": "owner",
          "type": "address"
        }
      ],
      "name": "OwnableInvalidOwner",
      "type": "error"
    },
    {
      "inputs": [
        {
          "internalType": "address",
          "name": "account",
          "type": "address"
        }
      ],
      "name": "OwnableUnauthorizedAccount",
      "type": "error"
    },
    {
      "inputs": [],
      "name": "ReentrancyGuardReentrantCall",
      "type": "error"
    },
    {
      "inputs": [
        {
          "internalType": "address",
          "name": "token",
          "type": "address"
        }
      ],
      "name": "SafeERC20FailedOperation",
      "type": "error"
    },
    {
      "anonymous": false,
      "inputs": [
        {
          "indexed": true,
          "internalType": "uint256",
          "name": "loanId",
          "type": "uint256"
        },
        {
          "indexed": false,
          "internalType": "uint256",
          "name": "totalFunded",
          "type": "uint256"
        },
        {
          "indexed": false,
          "internalType": "uint256",
          "name": "fundedAt",
          "type": "uint256"
        }
      ],
      "name": "LoanFullyFunded",
      "type": "event"
    },
    {
      "anonymous": false,
      "inputs": [
        {
          "indexed": true,
          "internalType": "uint256",
          "name": "loanId",
          "type": "uint256"
        },
        {
          "indexed": true,
          "internalType": "address",
          "name": "lender",
          "type": "address"
        },
        {
          "indexed": false,
          "internalType": "uint256",
          "name": "amount",
          "type": "uint256"
        },
        {
          "indexed": false,
          "internalType": "uint256",
          "name": "totalFunded",
          "type": "uint256"
        }
      ],
      "name": "LoanPartiallyFunded",
      "type": "event"
    },
    {
      "anonymous": false,
      "inputs": [
        {
          "indexed": true,
          "internalType": "uint256",
          "name": "loanId",
          "type": "uint256"
        },
        {
          "indexed": true,
          "internalType": "address",
          "name": "borrower",
          "type": "address"
        },
        {
          "indexed": false,
          "internalType": "uint256",
          "name": "totalRepaidAmount",
          "type": "uint256"
        }
      ],
      "name": "LoanRepaid",
      "type": "event"
    },
    {
      "anonymous": false,
      "inputs": [
        {
          "indexed": true,
          "internalType": "uint256",
          "name": "loanId",
          "type": "uint256"
        },
        {
          "indexed": true,
          "internalType": "address",
          "name": "borrower",
          "type": "address"
        },
        {
          "indexed": false,
          "internalType": "uint256",
          "name": "totalAmount",
          "type": "uint256"
        },
        {
          "indexed": false,
          "internalType": "enum LoanChainV2.TokenType",
          "name": "loanToken",
          "type": "uint8"
        },
        {
          "indexed": false,
          "internalType": "enum LoanChainV2.TokenType",
          "name": "collateralToken",
          "type": "uint8"
        },
        {
          "indexed": false,
          "internalType": "uint256",
          "name": "collateralAmount",
          "type": "uint256"
        },
        {
          "indexed": false,
          "internalType": "uint256",
          "name": "interestRate",
          "type": "uint256"
        },
        {
          "indexed": false,
          "internalType": "uint256",
          "name": "duration",
          "type": "uint256"
        },
        {
          "indexed": false,
          "internalType": "bool",
          "name": "isVariableRate",
          "type": "bool"
        }
      ],
      "name": "LoanRequested",
      "type": "event"
    },
    {
      "anonymous": false,
      "inputs": [
        {
          "indexed": true,
          "internalType": "address",
          "name": "previousOwner",
          "type": "address"
        },
        {
          "indexed": true,
          "internalType": "address",
          "name": "newOwner",
          "type": "address"
        }
      ],
      "name": "OwnershipTransferred",
      "type": "event"
    },
    {
      "anonymous": false,
      "inputs": [
        {
          "indexed": true,
          "internalType": "uint256",
          "name": "loanId",
          "type": "uint256"
        },
        {
          "indexed": true,
          "internalType": "address",
          "name": "lender",
          "type": "address"
        },
        {
          "indexed": false,
          "internalType": "uint256",
          "name": "repaidAmount",
          "type": "uint256"
        }
      ],
      "name": "PartialRepayment",
      "type": "event"
    },
    {
      "anonymous": false,
      "inputs": [
        {
          "indexed": true,
          "internalType": "enum LoanChainV2.TokenType",
          "name": "tokenType",
          "type": "uint8"
        },
        {
          "indexed": false,
          "internalType": "uint256",
          "name": "newPrice",
          "type": "uint256"
        }
      ],
      "name": "PriceUpdated",
      "type": "event"
    },
    {
      "anonymous": false,
      "inputs": [
        {
          "indexed": true,
          "internalType": "enum LoanChainV2.TokenType",
          "name": "tokenType",
          "type": "uint8"
        },
        {
          "indexed": true,
          "internalType": "address",
          "name": "contractAddress",
          "type": "address"
        }
      ],
      "name": "TokenAdded",
      "type": "event"
    },
    {
      "inputs": [],
      "name": "MAX_INTEREST_RATE",
      "outputs": [
        {
          "internalType": "uint256",
          "name": "",
          "type": "uint256"
        }
      ],
      "stateMutability": "view",
      "type": "function"
    },
    {
      "inputs": [],
      "name": "MAX_LOAN_DURATION",
      "outputs": [
        {
          "internalType": "uint256",
          "name": "",
          "type": "uint256"
        }
      ],
      "stateMutability": "view",
      "type": "function"
    },
    {
      "inputs": [],
      "name": "MIN_COLLATERAL_RATIO",
      "outputs": [
        {
          "internalType": "uint256",
          "name": "",
          "type": "uint256"
        }
      ],
      "stateMutability": "view",
      "type": "function"
    },
    {
      "inputs": [],
      "name": "MIN_LOAN_DURATION",
      "outputs": [
        {
          "internalType": "uint256",
          "name": "",
          "type": "uint256"
        }
      ],
      "stateMutability": "view",
      "type": "function"
    },
    {
      "inputs": [
        {
          "internalType": "enum LoanChainV2.TokenType",
          "name": "_tokenType",
          "type": "uint8"
        },
        {
          "internalType": "address",
          "name": "_contractAddress",
          "type": "address"
        },
        {
          "internalType": "uint8",
          "name": "_decimals",
          "type": "uint8"
        },
        {
          "internalType": "uint256",
          "name": "_minLoanAmount",
          "type": "uint256"
        },
        {
          "internalType": "uint256",
          "name": "_maxLoanAmount",
          "type": "uint256"
        }
      ],
      "name": "addSupportedToken",
      "outputs": [],
      "stateMutability": "nonpayable",
      "type": "function"
    },
    {
      "inputs": [
        {
          "internalType": "address",
          "name": "",
          "type": "address"
        },
        {
          "internalType": "uint256",
          "name": "",
          "type": "uint256"
        }
      ],
      "name": "borrowerLoans",
      "outputs": [
        {
          "internalType": "uint256",
          "name": "",
          "type": "uint256"
        }
      ],
      "stateMutability": "view",
      "type": "function"
    },
    {
      "inputs": [
        {
          "internalType": "enum LoanChainV2.TokenType",
          "name": "_tokenType",
          "type": "uint8"
        },
        {
          "internalType": "uint256",
          "name": "_amount",
          "type": "uint256"
        }
      ],
      "name": "calculateUSDValue",
      "outputs": [
        {
          "internalType": "uint256",
          "name": "",
          "type": "uint256"
        }
      ],
      "stateMutability": "view",
      "type": "function"
    },
    {
      "inputs": [
        {
          "internalType": "uint256",
          "name": "_loanId",
          "type": "uint256"
        },
        {
          "internalType": "uint256",
          "name": "_amount",
          "type": "uint256"
        }
      ],
      "name": "fundLoan",
      "outputs": [],
      "stateMutability": "payable",
      "type": "function"
    },
    {
      "inputs": [],
      "name": "getActiveLoanRequests",
      "outputs": [
        {
          "internalType": "uint256[]",
          "name": "",
          "type": "uint256[]"
        }
      ],
      "stateMutability": "view",
      "type": "function"
    },
    {
      "inputs": [
        {
          "internalType": "uint256",
          "name": "_loanId",
          "type": "uint256"
        }
      ],
      "name": "getLoan",
      "outputs": [
        {
          "components": [
            {
              "internalType": "uint256",
              "name": "id",
              "type": "uint256"
            },
            {
              "internalType": "address",
              "name": "borrower",
              "type": "address"
            },
            {
              "internalType": "address[]",
              "name": "lenders",
              "type": "address[]"
            },
            {
              "internalType": "uint256[]",
              "name": "lenderAmounts",
              "type": "uint256[]"
            },
            {
              "internalType": "uint256",
              "name": "totalAmount",
              "type": "uint256"
            },
            {
              "internalType": "uint256",
              "name": "totalFunded",
              "type": "uint256"
            },
            {
              "internalType": "enum LoanChainV2.TokenType",
              "name": "loanToken",
              "type": "uint8"
            },
            {
              "internalType": "enum LoanChainV2.TokenType",
              "name": "collateralToken",
              "type": "uint8"
            },
            {
              "internalType": "uint256",
              "name": "collateralAmount",
              "type": "uint256"
            },
            {
              "internalType": "uint256",
              "name": "interestRate",
              "type": "uint256"
            },
            {
              "internalType": "bool",
              "name": "isVariableRate",
              "type": "bool"
            },
            {
              "internalType": "uint256",
              "name": "duration",
              "type": "uint256"
            },
            {
              "internalType": "uint256",
              "name": "createdAt",
              "type": "uint256"
            },
            {
              "internalType": "uint256",
              "name": "fundedAt",
              "type": "uint256"
            },
            {
              "internalType": "uint256",
              "name": "dueDate",
              "type": "uint256"
            },
            {
              "internalType": "enum LoanChainV2.LoanStatus",
              "name": "status",
              "type": "uint8"
            },
            {
              "internalType": "bool",
              "name": "collateralClaimed",
              "type": "bool"
            },
            {
              "internalType": "uint256",
              "name": "riskScore",
              "type": "uint256"
            },
            {
              "internalType": "bool",
              "name": "hasInsurance",
              "type": "bool"
            },
            {
              "internalType": "uint256",
              "name": "insuranceFee",
              "type": "uint256"
            }
          ],
          "internalType": "struct LoanChainV2.Loan",
          "name": "",
          "type": "tuple"
        }
      ],
      "stateMutability": "view",
      "type": "function"
    },
    {
      "inputs": [
        {
          "internalType": "enum LoanChainV2.TokenType",
          "name": "_tokenType",
          "type": "uint8"
        }
      ],
      "name": "getSupportedToken",
      "outputs": [
        {
          "components": [
            {
              "internalType": "address",
              "name": "contractAddress",
              "type": "address"
            },
            {
              "internalType": "enum LoanChainV2.TokenType",
              "name": "tokenType",
              "type": "uint8"
            },
            {
              "internalType": "uint8",
              "name": "decimals",
              "type": "uint8"
            },
            {
              "internalType": "bool",
              "name": "isActive",
              "type": "bool"
            },
            {
              "internalType": "uint256",
              "name": "minLoanAmount",
              "type": "uint256"
            },
            {
              "internalType": "uint256",
              "name": "maxLoanAmount",
              "type": "uint256"
            }
          ],
          "internalType": "struct LoanChainV2.Token",
          "name": "",
          "type": "tuple"
        }
      ],
      "stateMutability": "view",
      "type": "function"
    },
    {
      "inputs": [
        {
          "internalType": "enum LoanChainV2.TokenType",
          "name": "_tokenType",
          "type": "uint8"
        }
      ],
      "name": "getTokenPrice",
      "outputs": [
        {
          "internalType": "uint256",
          "name": "",
          "type": "uint256"
        }
      ],
      "stateMutability": "view",
      "type": "function"
    },
    {
      "inputs": [
        {
          "internalType": "address",
          "name": "",
          "type": "address"
        },
        {
          "internalType": "uint256",
          "name": "",
          "type": "uint256"
        }
      ],
      "name": "lenderLoans",
      "outputs": [
        {
          "internalType": "uint256",
          "name": "",
          "type": "uint256"
        }
      ],
      "stateMutability": "view",
      "type": "function"
    },
    {
      "inputs": [
        {
          "internalType": "uint256",
          "name": "",
          "type": "uint256"
        },
        {
          "internalType": "address",
          "name": "",
          "type": "address"
        }
      ],
      "name": "lenderPositions",
      "outputs": [
        {
          "internalType": "address",
          "name": "lender",
          "type": "address"
        },
        {
          "internalType": "uint256",
          "name": "amount",
          "type": "uint256"
        },
        {
          "internalType": "uint256",
          "name": "fundedAt",
          "type": "uint256"
        },
        {
          "internalType": "bool",
          "name": "repaid",
          "type": "bool"
        },
        {
          "internalType": "uint256",
          "name": "repaidAmount",
          "type": "uint256"
        }
      ],
      "stateMutability": "view",
      "type": "function"
    },
    {
      "inputs": [
        {
          "internalType": "uint256",
          "name": "",
          "type": "uint256"
        }
      ],
      "name": "loans",
      "outputs": [
        {
          "internalType": "uint256",
          "name": "id",
          "type": "uint256"
        },
        {
          "internalType": "address",
          "name": "borrower",
          "type": "address"
        },
        {
          "internalType": "uint256",
          "name": "totalAmount",
          "type": "uint256"
        },
        {
          "internalType": "uint256",
          "name": "totalFunded",
          "type": "uint256"
        },
        {
          "internalType": "enum LoanChainV2.TokenType",
          "name": "loanToken",
          "type": "uint8"
        },
        {
          "internalType": "enum LoanChainV2.TokenType",
          "name": "collateralToken",
          "type": "uint8"
        },
        {
          "internalType": "uint256",
          "name": "collateralAmount",
          "type": "uint256"
        },
        {
          "internalType": "uint256",
          "name": "interestRate",
          "type": "uint256"
        },
        {
          "internalType": "bool",
          "name": "isVariableRate",
          "type": "bool"
        },
        {
          "internalType": "uint256",
          "name": "duration",
          "type": "uint256"
        },
        {
          "internalType": "uint256",
          "name": "createdAt",
          "type": "uint256"
        },
        {
          "internalType": "uint256",
          "name": "fundedAt",
          "type": "uint256"
        },
        {
          "internalType": "uint256",
          "name": "dueDate",
          "type": "uint256"
        },
        {
          "internalType": "enum LoanChainV2.LoanStatus",
          "name": "status",
          "type": "uint8"
        },
        {
          "internalType": "bool",
          "name": "collateralClaimed",
          "type": "bool"
        },
        {
          "internalType": "uint256",
          "name": "riskScore",
          "type": "uint256"
        },
        {
          "internalType": "bool",
          "name": "hasInsurance",
          "type": "bool"
        },
        {
          "internalType": "uint256",
          "name": "insuranceFee",
          "type": "uint256"
        }
      ],
      "stateMutability": "view",
      "type": "function"
    },
    {
      "inputs": [],
      "name": "nextLoanId",
      "outputs": [
        {
          "internalType": "uint256",
          "name": "",
          "type": "uint256"
        }
      ],
      "stateMutability": "view",
      "type": "function"
    },
    {
      "inputs": [],
      "name": "owner",
      "outputs": [
        {
          "internalType": "address",
          "name": "",
          "type": "address"
        }
      ],
      "stateMutability": "view",
      "type": "function"
    },
    {
      "inputs": [],
      "name": "renounceOwnership",
      "outputs": [],
      "stateMutability": "nonpayable",
      "type": "function"
    },
    {
      "inputs": [
        {
          "internalType": "uint256",
          "name": "_totalAmount",
          "type": "uint256"
        },
        {
          "internalType": "enum LoanChainV2.TokenType",
          "name": "_loanToken",
          "type": "uint8"
        },
        {
          "internalType": "enum LoanChainV2.TokenType",
          "name": "_collateralToken",
          "type": "uint8"
        },
        {
          "internalType": "uint256",
          "name": "_collateralAmount",
          "type": "uint256"
        },
        {
          "internalType": "uint256",
          "name": "_interestRate",
          "type": "uint256"
        },
        {
          "internalType": "uint256",
          "name": "_duration",
          "type": "uint256"
        },
        {
          "internalType": "bool",
          "name": "_isVariableRate",
          "type": "bool"
        },
        {
          "internalType": "bool",
          "name": "_hasInsurance",
          "type": "bool"
        }
      ],
      "name": "requestLoan",
      "outputs": [],
      "stateMutability": "payable",
      "type": "function"
    },
    {
      "inputs": [
        {
          "internalType": "enum LoanChainV2.TokenType",
          "name": "",
          "type": "uint8"
        }
      ],
      "name": "supportedTokens",
      "outputs": [
        {
          "internalType": "address",
          "name": "contractAddress",
          "type": "address"
        },
        {
          "internalType": "enum LoanChainV2.TokenType",
          "name": "tokenType",
          "type": "uint8"
        },
        {
          "internalType": "uint8",
          "name": "decimals",
          "type": "uint8"
        },
        {
          "internalType": "bool",
          "name": "isActive",
          "type": "bool"
        },
        {
          "internalType": "uint256",
          "name": "minLoanAmount",
          "type": "uint256"
        },
        {
          "internalType": "uint256",
          "name": "maxLoanAmount",
          "type": "uint256"
        }
      ],
      "stateMutability": "view",
      "type": "function"
    },
    {
      "inputs": [
        {
          "internalType": "enum LoanChainV2.TokenType",
          "name": "",
          "type": "uint8"
        }
      ],
      "name": "tokenPrices",
      "outputs": [
        {
          "internalType": "uint256",
          "name": "",
          "type": "uint256"
        }
      ],
      "stateMutability": "view",
      "type": "function"
    },
    {
      "inputs": [
        {
          "internalType": "address",
          "name": "newOwner",
          "type": "address"
        }
      ],
      "name": "transferOwnership",
      "outputs": [],
      "stateMutability": "nonpayable",
      "type": "function"
    },
    {
      "inputs": [
        {
          "internalType": "enum LoanChainV2.TokenType",
          "name": "_tokenType",
          "type": "uint8"
        },
        {
          "internalType": "uint256",
          "name": "_price",
          "type": "uint256"
        }
      ],
      "name": "updateTokenPrice",
      "outputs": [],
      "stateMutability": "nonpayable",
      "type": "function"
    }
  ],
  "bytecode": "0x608060408181523461019357600191600090838255331561017f57508254336001600160a01b031982168117855583516001600160a01b03959290919086167f8be0079c531659141344cd1fd0a4f28419497f9722a3daafe3b4186f6b6457e08580a3600282905560c081016001600160401b0381118282101761016b5784528281526020810194838652848201956012875260608301908482526080840191662386f26fc10000835260a0850193683635c9adc5dea00000855287805260036020528888209551169185549051926005841015610157576002969798999a60ff60a81b905160a81b169260ff60b01b9051151560b01b169360ff60a01b9060a01b169160018060b81b0319161717171784555184840155519101558180526008602052643a35294400838320558152816305f5e10091828282205560028152828282205560038152205551611edc90816101998239f35b634e487b7160e01b89526021600452602489fd5b634e487b7160e01b84526041600452602484fd5b602491631e4fbdf760e01b82526004820152fd5b600080fdfe60a080604052600436101561001357600080fd5b60003560e01c9081630d0b2ca614611a68575080632ffc204b1461195657806334855d14146119395780633cdb72f1146118ef5780633f572d3614611870578063504006ca146114b2578063715018a6146114555780637a9fffb71461143957806387c514591461141b57806389d99a05146113fe5780638da5cb5b146113d55780639772d7ee146112c3578063ad8d013814611248578063b9c445b9146111f1578063d42c4c5314611101578063d89e8c1c146110d0578063deceafa7146110d0578063e1ec3c6814610f81578063e3ed190214610f29578063f2fde38b14610ea0578063f4512bb614610884578063f498c9cc146101425763fe6993b81461011c57600080fd5b3461013d57602061013561012f36611b5f565b90611c2d565b604051908152f35b600080fd5b61010036600319011261013d576005602435101561013d576005604435101561013d5760c435801515810361013d5760e435151560e4350361013d57610186611e62565b6004351561083457610bb8608435116107f657610e1060a4351015806107e6575b156107ae5760ff6101b9602435611adf565b5460b01c16156107695760ff6101d0604435611adf565b5460b01c1615610724576101e8600435602435611c2d565b6101f6606435604435611c2d565b906078810290808204607814901517156106075760649004116106df5760025461021f81611cdd565b60025560443561066157606435341061061d575b600060e4356105e6575b6040519061024a82611be3565b6000825260405161025a81611be3565b600081526040519261026b84611bc6565b848452336020850152604084015260608301526004356080830152600060a083015261029c60243560c08401611c21565b6102ab60443560e08401611c21565b60643561010083015260843561012083015283151561014083015260a4356101608301524261018083015260006101a083015260006101c083015260006101e083015260006102008301526101f461022083015260e4351515610240830152610260820152816000526004602052604060002090805182556001820160018060a01b036020830151166001600160601b0360a01b825416179055604081015180519067ffffffffffffffff82116105b357600160401b82116105b3576020600285019161037d84845481865585611d36565b0190600052602060002060005b8381106105c95750505050606081015180519067ffffffffffffffff82116105b357600160401b82116105b357602060038501916103cd84845481865585611d36565b0190600052602060002060005b83811061059f57505050506080810151600483015560a0810151600583015560c0810151600581101561058957600683015460e083015160058110156105895761ff0060ff9160081b1692169061ffff191617176006830155610100810151600783015561012081015160088301556104696101408201511515600984019060ff801983541691151516179055565b610160810151600a830155610180810151600b8301556101a0810151600c8301556101c0810151600d8301556101e081015160068110156105895760119161026091600e850190815460ff61ff00610200860151151560081b1692169061ffff191617179055610220810151600f8501556104fa6102408201511515601086019060ff801983541691151516179055565b0151910155336000526006602052610516816040600020611d6a565b60405191600435835261052e60208401602435611b11565b61053d60408401604435611b11565b6064356060840152608435608084015260a43560a0840152151560c08301527fabdb66e6184682b23b47b8b6a7923f5b99d0155e0155200bda4753d7e784699e60e03393a36001600055005b634e487b7160e01b600052602160045260246000fd5b6001906020845194019381840155016103da565b634e487b7160e01b600052604160045260246000fd5b82516001600160a01b03168183015560209092019160010161038a565b5060043560646004350204606403610607576127106064600435020461023d565b634e487b7160e01b600052601160045260246000fd5b606460405162461bcd60e51b815260206004820152602060248201527f496e73756666696369656e742045544820636f6c6c61746572616c2073656e746044820152fd5b6106da61066f604435611adf565b60405161067b81611baa565b81546001600160a01b0380821683529260029160ff906106a460a082901c831660208701611c21565b818160a81c16604086015260b01c161515606084015260018101546080840152015460a082015251166064359030903390611d9f565b610233565b60405162461bcd60e51b815260206004820152601760248201527f496e73756666696369656e7420636f6c6c61746572616c0000000000000000006044820152606490fd5b60405162461bcd60e51b815260206004820152601e60248201527f436f6c6c61746572616c20746f6b656e206e6f7420737570706f7274656400006044820152606490fd5b60405162461bcd60e51b815260206004820152601860248201527f4c6f616e20746f6b656e206e6f7420737570706f7274656400000000000000006044820152606490fd5b60405162461bcd60e51b815260206004820152601060248201526f24b73b30b634b210323ab930ba34b7b760811b6044820152606490fd5b506301e1338060a43511156101a7565b60405162461bcd60e51b8152602060048201526016602482015275092dce8cae4cae6e840e4c2e8ca40e8dede40d0d2ced60531b6044820152606490fd5b60405162461bcd60e51b815260206004820152602260248201527f4c6f616e20616d6f756e74206d7573742062652067726561746572207468616e604482015261020360f41b6064820152608490fd5b604036600319011261013d57610898611e62565b6004356000526004602052604060002060018060a01b036001820154168015610e655760ff600e830154166006811015610589578015908115610e5a575b5015610e20573314610ddb5760243515610d88576108fa6024356005830154611e85565b600482015410610d4d5760ff60068201541660058110156105895780610cca57506024353403610c85575b6040518060a081011067ffffffffffffffff60a0830111176105b35760a0810160405233815260046020820160243581526109cd604084014281526060850190600082526080860193600085528535600052600560205260406000203360005260205260406000209660018060a01b039051166001600160601b0360a01b885416178755516001870155516002860155511515600385019060ff801983541691151516179055565b519101556002810154600160401b8110156105b3578060016109f89201600284015560028301611ab1565b81549060031b9033821b9160018060a01b03901b1916179055610a2060243560038301611d6a565b610a306024356005830154611e85565b6005820155336000526007602052610a4e6004356040600020611d6a565b600581015460048201548110610c375750600160ff19600e8301541617600e82015542600c820155610a84600a82015442611e85565b600d82015560ff6006820154169060018060a01b0360018201541660048201549260058110156105895780610b7e575060008080939481935af13d15610b79573d67ffffffffffffffff81116105b35760405190610aec601f8201601f191660200183611bff565b8152600060203d92013e5b15610b3e576005905b01546040519081524260208201527fb96bada2a4e2e402aaa472b5e783a9d8bb13d996387df6beea608680b31ff46f604060043592a25b6001600055005b60405162461bcd60e51b8152602060048201526013602482015272115512081d1c985b9cd9995c8819985a5b1959606a1b6044820152606490fd5b610af7565b610b8790611adf565b600260405191610b9683611baa565b80546001600160a01b038116845260ff90610bba60a082901c831660208701611c21565b818160a81c16604086015260b01c161515606084015260018101546080840152015460a082015260018060a01b03905116926040519163a9059cbb60e01b60208401526024830152604482015260448152608081019080821067ffffffffffffffff8311176105b357600593610c3292604052611dfa565b610b00565b90600e600260ff19828401541617910155604051906024358252602082015233907f73a9841ee04f39f41b73f9432c749617285427e60f2fbe3a1bf5a5ef2e6b16cb604060043592a3610b37565b60405162461bcd60e51b815260206004820152601960248201527f496e636f72726563742045544820616d6f756e742073656e74000000000000006044820152606490fd5b610cd6610d4891611adf565b600260405191610ce583611baa565b80546001600160a01b038116845260ff90610d0960a082901c831660208701611c21565b60a881901c8216604086015260b01c161515606084015260018101546080840152015460a08201525160243590309033906001600160a01b0316611d9f565b610925565b60405162461bcd60e51b8152602060048201526013602482015272115e18d959591cc81b1bd85b88185b5bdd5b9d606a1b6044820152606490fd5b60405162461bcd60e51b815260206004820152602560248201527f46756e64696e6720616d6f756e74206d75737420626520677265617465722074604482015264068616e20360dc1b6064820152608490fd5b60405162461bcd60e51b815260206004820152601960248201527f43616e6e6f742066756e6420796f7572206f776e206c6f616e000000000000006044820152606490fd5b60405162461bcd60e51b81526020600482015260126024820152714c6f616e206e6f7420617661696c61626c6560701b6044820152606490fd5b6002915014836108d6565b60405162461bcd60e51b8152602060048201526013602482015272131bd85b88191bd95cc81b9bdd08195e1a5cdd606a1b6044820152606490fd5b3461013d57602036600319011261013d57610eb9611a9b565b610ec1611b7e565b6001600160a01b03908116908115610f1057600154826001600160601b0360a01b821617600155167f8be0079c531659141344cd1fd0a4f28419497f9722a3daafe3b4186f6b6457e0600080a3005b604051631e4fbdf760e01b815260006004820152602490fd5b3461013d57604036600319011261013d57610f42611a9b565b6001600160a01b031660009081526006602052604090208054602435919082101561013d57602091610f7391611ab1565b90546040519160031b1c8152f35b3461013d57602036600319011261013d576004356000526004602052604060002080549080600160a01b6001900360018201541660048201546005830154600684015460078501546008860154600987015460ff1690600a88015492600b89015494600c8a015496600d8b015498600e8c01549a600f8d01549c6010015460ff169d601101549e604051806080525260805160200152608051604001526080516060015260805160800160ff82169061103991611b11565b60805160a0019060081c60ff169061105091611b11565b60805160c0015260805160e001521515608051610100015260805161012001526080516101400152608051610160015260805161018001526080516101a00160ff82169061109d91611b52565b60081c60ff1615156080516101c001526080516101e0015215156080516102000152608051610220015260805161024090f35b3461013d57602036600319011261013d57600435600581101561013d576110f8602091611af8565b54604051908152f35b3461013d57602036600319011261013d57600435600581101561013d5761115660c091600060a060405161113481611baa565b8281528260208201528260408201528260608201528260808201520152611adf565b6040519061116382611baa565b80546001600160a01b038082168452919060ff6020850161118a60a084901c831682611c21565b6111d46040870191838560a81c16835283606089019560b01c1615158552600260018701549660808a0197885201549660a089019788526040519851168852516020880190611b11565b5116604085015251151560608401525160808301525160a0820152f35b3461013d576111ff36611b5f565b611207611b7e565b8061121183611af8565b5560058210156105895760207ff798c75b2db09ea1034d9be253e9974b17bbe4a06f2b0ff6695054fa5b74719191604051908152a2005b3461013d57604036600319011261013d5760a0611263611a85565b60043560005260056020526040600020600180841b03809216600052602052604060002090815416906001810154906002810154600460ff6003840154169201549260405194855260208501526040840152151560608301526080820152f35b3461013d57600036600319011261013d57600280546000198101818111610607576112ed90611d04565b9160009160015b8181106113505750505061130781611d04565b9160005b82811061132c576040516020808252819061132890820187611b1e565b0390f35b8061133a61134b9284611e92565b516113458287611e92565b52611cdd565b61130b565b8060005260206004815260ff600e9080826040600020015416916006928381101561058957159384156113b0575b50505050611395575b61139090611cdd565b6112f4565b926113a881856113456113909489611e92565b939050611387565b600086815260049091526040902001541691508110156105895783148680808061137e565b3461013d57600036600319011261013d576001546040516001600160a01b039091168152602090f35b3461013d57600036600319011261013d576020604051610e108152f35b3461013d57600036600319011261013d576020600254604051908152f35b3461013d57600036600319011261013d57602060405160788152f35b3461013d57600036600319011261013d5761146e611b7e565b600180546001600160a01b031981169091556000906001600160a01b03167f8be0079c531659141344cd1fd0a4f28419497f9722a3daafe3b4186f6b6457e08280a3005b3461013d57602036600319011261013d5760006102606040516114d481611bc6565b828152826020820152606060408201526060808201528260808201528260a08201528260c08201528260e08201528261010082015282610120820152826101408201528261016082015282610180820152826101a0820152826101c0820152826101e08201528261020082015282610220820152826102408201520152600435600052600460205260406000206040519061156e82611bc6565b8054825260018060a01b0360018201541660208301526040518081600284016020815493848152019060005260206000209260005b81811061184e5750506115b892500382611bff565b604083015260405180816020600385015492838152016003850160005260206000209260005b8181106118355750506115f392500382611bff565b606083015260048101546080830152600581015460a083015261163260ff600683015461162582821660c08701611c21565b60081c1660e08401611c21565b6007810154610100830152600881015461012083015260ff6009820154161515610140830152600a810154610160830152600b810154610180830152600c8101546101a0830152600d8101546101c0830152600e81015490600660ff831610156105895760ff8281601194166101e086015260081c161515610200840152600f81015461022084015260ff60108201541615156102408401520154610260820152604051602081528151602082015260018060a01b03602083015116604082015260408201519161028060608301526102a08201835180915260206102c0840194019060005b8181106118165750505061026061174083946060840151601f19868303016080870152611b1e565b91608081015160a085015260a081015160c085015261176760c082015160e0860190611b11565b61177a60e0820151610100860190611b11565b61010081015161012085015261012081015161014085015261014081015115156101608501526101608101516101808501526101808101516101a08501526101a08101516101c08501526101c08101516101e08501526117e46101e0820151610200860190611b52565b610200810151151561022085015261022081015161024085015261024081015115158285015201516102808301520390f35b82516001600160a01b0316865260209586019590920191600101611718565b84548352600194850194869450602090930192016115de565b84546001600160a01b03168352600194850194869450602090930192016115a3565b3461013d57602036600319011261013d57600435600581101561013d5761189860c091611adf565b805460018201546002909201546040516001600160a01b038316815292909160ff906118cd6020860160a083901c8416611b11565b818160a81c16604086015260b01c1615156060840152608083015260a0820152f35b3461013d57604036600319011261013d57611908611a9b565b6001600160a01b031660009081526007602052604090208054602435919082101561013d57602091610f7391611ab1565b3461013d57600036600319011261013d576020604051610bb88152f35b3461013d5760a036600319011261013d57600435600581101561013d5761197b611a85565b9060443560ff811680910361013d57611992611b7e565b6040519061199f82611baa565b6001600160a01b0393841680835293602083016119bc8582611c21565b604084019283526060840190600182526080850191606435835260a086019360843585526119e988611adf565b96511691865490519260058410156105895760029660ff60a81b905160a81b169260ff60b01b9051151560b01b169360ff60a01b9060a01b169168ffffffffffffffffff60b81b16171717178455516001840155519101557f0782d5a983f4f99019eb2dc8dfe67419752a13dca743154e71029fc01318d055600080a3005b3461013d57600036600319011261013d57806301e1338060209252f35b602435906001600160a01b038216820361013d57565b600435906001600160a01b038216820361013d57565b8054821015611ac95760005260206000200190600090565b634e487b7160e01b600052603260045260246000fd5b6005811015610589576000526003602052604060002090565b6005811015610589576000526008602052604060002090565b9060058210156105895752565b90815180825260208080930193019160005b828110611b3e575050505090565b835185529381019392810192600101611b30565b9060068210156105895752565b604090600319011261013d57600435600581101561013d579060243590565b6001546001600160a01b03163303611b9257565b60405163118cdaa760e01b8152336004820152602490fd5b60c0810190811067ffffffffffffffff8211176105b357604052565b610280810190811067ffffffffffffffff8211176105b357604052565b6020810190811067ffffffffffffffff8211176105b357604052565b90601f8019910116810190811067ffffffffffffffff8211176105b357604052565b60058210156105895752565b611c9b611c3982611adf565b91604051611c4681611baa565b83546001600160a01b03811682529360a090600290611c6d87841c60ff1660208601611c21565b60ff6040850197818160a81c16895260b01c1615156060850152600181015460808501520154910152611af8565b5491828102928184041490151715610607575160ff16604d811161060757600a0a908115611cc7570490565b634e487b7160e01b600052601260045260246000fd5b60001981146106075760010190565b67ffffffffffffffff81116105b35760051b60200190565b90611d0e82611cec565b611d1b6040519182611bff565b8281528092611d2c601f1991611cec565b0190602036910137565b9091828110611d4457505050565b60009182526020822092830192015b828110611d5f57505050565b818155600101611d53565b8054600160401b8110156105b357611d8791600182018155611ab1565b819291549060031b91821b91600019901b1916179055565b6040516323b872dd60e01b60208201526001600160a01b03928316602482015292909116604483015260648083019390935291815260a081019181831067ffffffffffffffff8411176105b357611df892604052611dfa565b565b906000602091828151910182855af115611e56576000513d611e4d57506001600160a01b0381163b155b611e2b5750565b604051635274afe760e01b81526001600160a01b039091166004820152602490fd5b60011415611e24565b6040513d6000823e3d90fd5b600260005414611e73576002600055565b604051633ee5aeb560e01b8152600490fd5b9190820180921161060757565b8051821015611ac95760209160051b01019056fea26469706673582212207e3c32605785de73eaab16ba7439ec30ff8d3cbc644fac0082c52cd8da30a84764736f6c63430008140033",
  "linkReferences": {},
  "deployedLinkReferences": {}
}