{
  "_format": "hh-sol-artifact-1",
  "contractName": "MockV3Aggregator",
  "sourceName": "contracts/MockV3Aggregator.sol",
  "abi": [
    {
      "inputs": [
        {
          "internalType": "uint8",
          "name": "_decimals",
          "type": "uint8"
        },
        {
          "internalType": "int256",
          "name": "_initialAnswer",
          "type": "int256"
        }
      ],
      "stateMutability": "nonpayable",
      "type": "constructor"
    },
    {
      "anonymous": false,
      "inputs": [
        {
          "indexed": true,
          "internalType": "int256",
          "name": "current",
          "type": "int256"
        },
        {
          "indexed": true,
          "internalType": "uint256",
          "name": "roundId",
          "type": "uint256"
        },
        {
          "indexed": false,
          "internalType": "uint256",
          "name": "timestamp",
          "type": "uint256"
        }
      ],
      "name": "AnswerUpdated",
      "type": "event"
    },
    {
      "inputs": [],
      "name": "VERSION",
      "outputs": [
        {
          "internalType": "uint256",
          "name": "",
          "type": "uint256"
        }
      ],
      "stateMutability": "view",
      "type": "function"
    },
    {
      "inputs": [],
      "name": "decimals",
      "outputs": [
        {
          "internalType": "uint8",
          "name": "",
          "type": "uint8"
        }
      ],
      "stateMutability": "view",
      "type": "function"
    },
    {
      "inputs": [],
      "name": "description",
      "outputs": [
        {
          "internalType": "string",
          "name": "",
          "type": "string"
        }
      ],
      "stateMutability": "view",
      "type": "function"
    },
    {
      "inputs": [
        {
          "internalType": "uint80",
          "name": "_roundId",
          "type": "uint80"
        }
      ],
      "name": "getRoundData",
      "outputs": [
        {
          "internalType": "uint80",
          "name": "roundId",
          "type": "uint80"
        },
        {
          "internalType": "int256",
          "name": "answer",
          "type": "int256"
        },
        {
          "internalType": "uint256",
          "name": "startedAt",
          "type": "uint256"
        },
        {
          "internalType": "uint256",
          "name": "updatedAt",
          "type": "uint256"
        },
        {
          "internalType": "uint80",
          "name": "answeredInRound",
          "type": "uint80"
        }
      ],
      "stateMutability": "view",
      "type": "function"
    },
    {
      "inputs": [],
      "name": "latestRoundData",
      "outputs": [
        {
          "internalType": "uint80",
          "name": "roundId",
          "type": "uint80"
        },
        {
          "internalType": "int256",
          "name": "answer",
          "type": "int256"
        },
        {
          "internalType": "uint256",
          "name": "startedAt",
          "type": "uint256"
        },
        {
          "internalType": "uint256",
          "name": "updatedAt",
          "type": "uint256"
        },
        {
          "internalType": "uint80",
          "name": "answeredInRound",
          "type": "uint80"
        }
      ],
      "stateMutability": "view",
      "type": "function"
    },
    {
      "inputs": [
        {
          "internalType": "int256",
          "name": "_answer",
          "type": "int256"
        }
      ],
      "name": "updateAnswer",
      "outputs": [],
      "stateMutability": "nonpayable",
      "type": "function"
    },
    {
      "inputs": [
        {
          "internalType": "uint80",
          "name": "_roundId",
          "type": "uint80"
        },
        {
          "internalType": "int256",
          "name": "_answer",
          "type": "int256"
        },
        {
          "internalType": "uint256",
          "name": "_timestamp",
          "type": "uint256"
        },
        {
          "internalType": "uint256",
          "name": "_startedAt",
          "type": "uint256"
        }
      ],
      "name": "updateRoundData",
      "outputs": [],
      "stateMutability": "nonpayable",
      "type": "function"
    }
  ],
  "bytecode": "0x60803461011d57601f61055838819003918201601f19168301916001600160401b0383118484101761012257808492604094855283398101031261011d5780519060ff821680920361011d576020015190600180548181811c91168015610113575b60208210146100fd57601f81116100ce575b507f4d6f636b204554482f555344205072696365204665656400000000000000002e8155600280546001600160501b03191690911790556000805460ff19169190911790556003554260045560405161041f90816101398239f35b8160005281601f6020600020920160051c8201915b8281106100f1575050610073565b600081550182906100e3565b634e487b7160e01b600052602260045260246000fd5b90607f1690610061565b600080fd5b634e487b7160e01b600052604160045260246000fdfe608060408181526004918236101561001657600080fd5b600092833560e01c918263313ce567146103b1575081634aa2011f1461036e5781637284e416146102105781639a6fc8f514610170578163a87a20ce146100e0578163feaf968c14610090575063ffa1ad741461007257600080fd5b3461008c578160031936011261008c576020905160018152f35b5080fd5b905082346100dd57806003193601126100dd5750600254600354915492516001600160501b039091168082526020820192909252604081018390526060810192909252608082015260a090f35b80fd5b9190503461016c57602036600319011261016c5781359081600355428355600254926001600160501b03908185169082821461015957509160209160017f0559884fd3a460db3073b7fc896cc77986f16e378210ded43186175bf646fc5f94011680956001600160501b0319161760025551428152a380f35b634e487b7160e01b875260119052602486fd5b8280fd5b905082346100dd5760203660031901126100dd575061018d6103ce565b6001600160501b038060025416908216116101d957600354915492516001600160501b03919091168082526020820192909252604081018390526060810192909252608082015260a090f35b506020606492519162461bcd60e51b835282015260116024820152700a4deeadcc840928840e8dede40d0d2ced607b1b6044820152fd5b9190503461016c578260031936011261016c5780518360019485549081871c878316978815610364575b6020938483108a1461035157848798999a84895291826000146103355750506001146102e2575b5050601f801995869203011683019583871067ffffffffffffffff8811176102cf575085929391838652818452845191828186015281955b8387106102b75750508394508582601f949501015201168101030190f35b86810182015189880189015295810195889550610299565b634e487b7160e01b835260419052602482fd5b8085528492507fb10e2d527612073b26eecdfd717e6a320cf44b4afac2b0732d9fcbe2b7fa0cf65b82841061031f57505050830181013880610261565b805488850186015287965092840192810161030a565b925093505060ff191682860152151560051b8401013880610261565b634e487b7160e01b865260228952602486fd5b90607f169061023a565b83903461008c57608036600319011261008c576001600160501b036103916103ce565b166001600160501b03196002541617600255602435600355604435905580f35b84903461008c578160031936011261008c5760ff60209254168152f35b600435906001600160501b03821682036103e457565b600080fdfea2646970667358221220a236b52e1b14c5fd97f63cd4c7c40a6c2b5ff5fed2bd93874087f1dfab09b07c64736f6c63430008140033",
  "linkReferences": {},
  "deployedLinkReferences": {}
}