{
  "_format": "hh-sol-artifact-1",
  "contractName": "LoanVerseV3",
  "sourceName": "contracts/LoanVerseV3.sol",
  "abi": [
    {
      "inputs": [],
      "stateMutability": "nonpayable",
      "type": "constructor"
    },
    {
      "inputs": [],
      "name": "EnforcedPause",
      "type": "error"
    },
    {
      "inputs": [],
      "name": "ExpectedPause",
      "type": "error"
    },
    {
      "inputs": [
        {
          "internalType": "address",
          "name": "owner",
          "type": "address"
        }
      ],
      "name": "OwnableInvalidOwner",
      "type": "error"
    },
    {
      "inputs": [
        {
          "internalType": "address",
          "name": "account",
          "type": "address"
        }
      ],
      "name": "OwnableUnauthorizedAccount",
      "type": "error"
    },
    {
      "inputs": [],
      "name": "ReentrancyGuardReentrantCall",
      "type": "error"
    },
    {
      "inputs": [
        {
          "internalType": "address",
          "name": "token",
          "type": "address"
        }
      ],
      "name": "SafeERC20FailedOperation",
      "type": "error"
    },
    {
      "anonymous": false,
      "inputs": [
        {
          "indexed": true,
          "internalType": "uint256",
          "name": "auctionId",
          "type": "uint256"
        },
        {
          "indexed": true,
          "internalType": "address",
          "name": "winner",
          "type": "address"
        },
        {
          "indexed": false,
          "internalType": "uint256",
          "name": "finalPrice",
          "type": "uint256"
        }
      ],
      "name": "AuctionFinalized",
      "type": "event"
    },
    {
      "anonymous": false,
      "inputs": [
        {
          "indexed": true,
          "internalType": "uint256",
          "name": "auctionId",
          "type": "uint256"
        },
        {
          "indexed": true,
          "internalType": "uint256",
          "name": "loanId",
          "type": "uint256"
        },
        {
          "indexed": false,
          "internalType": "uint256",
          "name": "startingPrice",
          "type": "uint256"
        },
        {
          "indexed": false,
          "internalType": "uint256",
          "name": "endTime",
          "type": "uint256"
        }
      ],
      "name": "AuctionStarted",
      "type": "event"
    },
    {
      "anonymous": false,
      "inputs": [
        {
          "indexed": true,
          "internalType": "uint256",
          "name": "auctionId",
          "type": "uint256"
        },
        {
          "indexed": true,
          "internalType": "address",
          "name": "bidder",
          "type": "address"
        },
        {
          "indexed": false,
          "internalType": "uint256",
          "name": "amount",
          "type": "uint256"
        }
      ],
      "name": "BidPlaced",
      "type": "event"
    },
    {
      "anonymous": false,
      "inputs": [
        {
          "indexed": true,
          "internalType": "uint256",
          "name": "loanId",
          "type": "uint256"
        },
        {
          "indexed": false,
          "internalType": "uint256",
          "name": "amount",
          "type": "uint256"
        }
      ],
      "name": "CollateralClaimed",
      "type": "event"
    },
    {
      "anonymous": false,
      "inputs": [
        {
          "indexed": true,
          "internalType": "address",
          "name": "borrower",
          "type": "address"
        },
        {
          "indexed": false,
          "internalType": "uint256",
          "name": "newScore",
          "type": "uint256"
        }
      ],
      "name": "CreditScoreUpdated",
      "type": "event"
    },
    {
      "anonymous": false,
      "inputs": [
        {
          "indexed": true,
          "internalType": "uint256",
          "name": "tokenId",
          "type": "uint256"
        },
        {
          "indexed": false,
          "internalType": "uint256",
          "name": "newRate",
          "type": "uint256"
        }
      ],
      "name": "InterestRateUpdated",
      "type": "event"
    },
    {
      "anonymous": false,
      "inputs": [
        {
          "indexed": true,
          "internalType": "uint256",
          "name": "loanId",
          "type": "uint256"
        },
        {
          "indexed": false,
          "internalType": "uint256",
          "name": "currentRatio",
          "type": "uint256"
        },
        {
          "indexed": false,
          "internalType": "uint256",
          "name": "threshold",
          "type": "uint256"
        }
      ],
      "name": "LiquidationTriggered",
      "type": "event"
    },
    {
      "anonymous": false,
      "inputs": [
        {
          "indexed": true,
          "internalType": "uint256",
          "name": "loanId",
          "type": "uint256"
        }
      ],
      "name": "LoanCancelled",
      "type": "event"
    },
    {
      "anonymous": false,
      "inputs": [
        {
          "indexed": true,
          "internalType": "uint256",
          "name": "loanId",
          "type": "uint256"
        }
      ],
      "name": "LoanDefaulted",
      "type": "event"
    },
    {
      "anonymous": false,
      "inputs": [
        {
          "indexed": true,
          "internalType": "uint256",
          "name": "loanId",
          "type": "uint256"
        },
        {
          "indexed": true,
          "internalType": "address",
          "name": "lender",
          "type": "address"
        }
      ],
      "name": "LoanFunded",
      "type": "event"
    },
    {
      "anonymous": false,
      "inputs": [
        {
          "indexed": true,
          "internalType": "uint256",
          "name": "loanId",
          "type": "uint256"
        },
        {
          "indexed": false,
          "internalType": "uint256",
          "name": "repaidAmount",
          "type": "uint256"
        }
      ],
      "name": "LoanRepaid",
      "type": "event"
    },
    {
      "anonymous": false,
      "inputs": [
        {
          "indexed": true,
          "internalType": "uint256",
          "name": "loanId",
          "type": "uint256"
        },
        {
          "indexed": true,
          "internalType": "address",
          "name": "borrower",
          "type": "address"
        },
        {
          "indexed": true,
          "internalType": "uint256",
          "name": "tokenId",
          "type": "uint256"
        },
        {
          "indexed": false,
          "internalType": "uint256",
          "name": "amount",
          "type": "uint256"
        },
        {
          "indexed": false,
          "internalType": "uint256",
          "name": "collateralAmount",
          "type": "uint256"
        },
        {
          "indexed": false,
          "internalType": "uint256",
          "name": "interestRate",
          "type": "uint256"
        },
        {
          "indexed": false,
          "internalType": "uint256",
          "name": "duration",
          "type": "uint256"
        },
        {
          "indexed": false,
          "internalType": "string",
          "name": "ipfsHash",
          "type": "string"
        }
      ],
      "name": "LoanRequested",
      "type": "event"
    },
    {
      "anonymous": false,
      "inputs": [
        {
          "indexed": true,
          "internalType": "address",
          "name": "previousOwner",
          "type": "address"
        },
        {
          "indexed": true,
          "internalType": "address",
          "name": "newOwner",
          "type": "address"
        }
      ],
      "name": "OwnershipTransferred",
      "type": "event"
    },
    {
      "anonymous": false,
      "inputs": [
        {
          "indexed": false,
          "internalType": "address",
          "name": "account",
          "type": "address"
        }
      ],
      "name": "Paused",
      "type": "event"
    },
    {
      "anonymous": false,
      "inputs": [
        {
          "indexed": true,
          "internalType": "uint256",
          "name": "loanId",
          "type": "uint256"
        },
        {
          "indexed": false,
          "internalType": "uint256",
          "name": "riskScore",
          "type": "uint256"
        }
      ],
      "name": "RiskScoreUpdated",
      "type": "event"
    },
    {
      "anonymous": false,
      "inputs": [
        {
          "indexed": true,
          "internalType": "uint256",
          "name": "tokenId",
          "type": "uint256"
        },
        {
          "indexed": true,
          "internalType": "address",
          "name": "contractAddress",
          "type": "address"
        },
        {
          "indexed": false,
          "internalType": "string",
          "name": "symbol",
          "type": "string"
        },
        {
          "indexed": false,
          "internalType": "address",
          "name": "priceFeed",
          "type": "address"
        }
      ],
      "name": "TokenAdded",
      "type": "event"
    },
    {
      "anonymous": false,
      "inputs": [
        {
          "indexed": true,
          "internalType": "uint256",
          "name": "tokenId",
          "type": "uint256"
        }
      ],
      "name": "TokenDeactivated",
      "type": "event"
    },
    {
      "anonymous": false,
      "inputs": [
        {
          "indexed": false,
          "internalType": "address",
          "name": "account",
          "type": "address"
        }
      ],
      "name": "Unpaused",
      "type": "event"
    },
    {
      "inputs": [],
      "name": "AUCTION_DURATION",
      "outputs": [
        {
          "internalType": "uint256",
          "name": "",
          "type": "uint256"
        }
      ],
      "stateMutability": "view",
      "type": "function"
    },
    {
      "inputs": [],
      "name": "LIQUIDATION_THRESHOLD",
      "outputs": [
        {
          "internalType": "uint256",
          "name": "",
          "type": "uint256"
        }
      ],
      "stateMutability": "view",
      "type": "function"
    },
    {
      "inputs": [],
      "name": "MAX_INTEREST_RATE",
      "outputs": [
        {
          "internalType": "uint256",
          "name": "",
          "type": "uint256"
        }
      ],
      "stateMutability": "view",
      "type": "function"
    },
    {
      "inputs": [],
      "name": "MAX_LOAN_DURATION",
      "outputs": [
        {
          "internalType": "uint256",
          "name": "",
          "type": "uint256"
        }
      ],
      "stateMutability": "view",
      "type": "function"
    },
    {
      "inputs": [],
      "name": "MIN_COLLATERAL_RATIO",
      "outputs": [
        {
          "internalType": "uint256",
          "name": "",
          "type": "uint256"
        }
      ],
      "stateMutability": "view",
      "type": "function"
    },
    {
      "inputs": [],
      "name": "MIN_CREDIT_SCORE",
      "outputs": [
        {
          "internalType": "uint256",
          "name": "",
          "type": "uint256"
        }
      ],
      "stateMutability": "view",
      "type": "function"
    },
    {
      "inputs": [],
      "name": "MIN_LOAN_DURATION",
      "outputs": [
        {
          "internalType": "uint256",
          "name": "",
          "type": "uint256"
        }
      ],
      "stateMutability": "view",
      "type": "function"
    },
    {
      "inputs": [],
      "name": "PRICE_STALENESS_THRESHOLD",
      "outputs": [
        {
          "internalType": "uint256",
          "name": "",
          "type": "uint256"
        }
      ],
      "stateMutability": "view",
      "type": "function"
    },
    {
      "inputs": [
        {
          "internalType": "address",
          "name": "_contractAddress",
          "type": "address"
        },
        {
          "internalType": "string",
          "name": "_symbol",
          "type": "string"
        },
        {
          "internalType": "uint8",
          "name": "_decimals",
          "type": "uint8"
        },
        {
          "internalType": "address",
          "name": "_priceFeedAddress",
          "type": "address"
        }
      ],
      "name": "addSupportedToken",
      "outputs": [],
      "stateMutability": "nonpayable",
      "type": "function"
    },
    {
      "inputs": [
        {
          "internalType": "address",
          "name": "",
          "type": "address"
        }
      ],
      "name": "authorizedRiskOracles",
      "outputs": [
        {
          "internalType": "bool",
          "name": "",
          "type": "bool"
        }
      ],
      "stateMutability": "view",
      "type": "function"
    },
    {
      "inputs": [],
      "name": "baseInterestRate",
      "outputs": [
        {
          "internalType": "uint256",
          "name": "",
          "type": "uint256"
        }
      ],
      "stateMutability": "view",
      "type": "function"
    },
    {
      "inputs": [
        {
          "internalType": "address",
          "name": "",
          "type": "address"
        },
        {
          "internalType": "uint256",
          "name": "",
          "type": "uint256"
        }
      ],
      "name": "borrowerLoans",
      "outputs": [
        {
          "internalType": "uint256",
          "name": "",
          "type": "uint256"
        }
      ],
      "stateMutability": "view",
      "type": "function"
    },
    {
      "inputs": [
        {
          "internalType": "uint256",
          "name": "_tokenId",
          "type": "uint256"
        }
      ],
      "name": "calculateDynamicRate",
      "outputs": [
        {
          "internalType": "uint256",
          "name": "",
          "type": "uint256"
        }
      ],
      "stateMutability": "view",
      "type": "function"
    },
    {
      "inputs": [
        {
          "internalType": "uint256",
          "name": "_tokenId",
          "type": "uint256"
        },
        {
          "internalType": "uint256",
          "name": "_amount",
          "type": "uint256"
        }
      ],
      "name": "calculateUSDValue",
      "outputs": [
        {
          "internalType": "uint256",
          "name": "",
          "type": "uint256"
        }
      ],
      "stateMutability": "view",
      "type": "function"
    },
    {
      "inputs": [],
      "name": "collectedFees",
      "outputs": [
        {
          "internalType": "uint256",
          "name": "",
          "type": "uint256"
        }
      ],
      "stateMutability": "view",
      "type": "function"
    },
    {
      "inputs": [
        {
          "internalType": "address",
          "name": "",
          "type": "address"
        }
      ],
      "name": "creditScores",
      "outputs": [
        {
          "internalType": "uint256",
          "name": "score",
          "type": "uint256"
        },
        {
          "internalType": "uint256",
          "name": "totalLoansCount",
          "type": "uint256"
        },
        {
          "internalType": "uint256",
          "name": "repaidLoansCount",
          "type": "uint256"
        },
        {
          "internalType": "uint256",
          "name": "defaultedLoansCount",
          "type": "uint256"
        },
        {
          "internalType": "uint256",
          "name": "totalBorrowed",
          "type": "uint256"
        },
        {
          "internalType": "uint256",
          "name": "totalRepaid",
          "type": "uint256"
        },
        {
          "internalType": "uint256",
          "name": "lastUpdated",
          "type": "uint256"
        }
      ],
      "stateMutability": "view",
      "type": "function"
    },
    {
      "inputs": [],
      "name": "feeRecipient",
      "outputs": [
        {
          "internalType": "address",
          "name": "",
          "type": "address"
        }
      ],
      "stateMutability": "view",
      "type": "function"
    },
    {
      "inputs": [
        {
          "internalType": "uint256",
          "name": "_auctionId",
          "type": "uint256"
        }
      ],
      "name": "finalizeAuction",
      "outputs": [],
      "stateMutability": "nonpayable",
      "type": "function"
    },
    {
      "inputs": [
        {
          "internalType": "uint256",
          "name": "_loanId",
          "type": "uint256"
        }
      ],
      "name": "fundLoan",
      "outputs": [],
      "stateMutability": "payable",
      "type": "function"
    },
    {
      "inputs": [],
      "name": "getActiveLoanRequests",
      "outputs": [
        {
          "internalType": "uint256[]",
          "name": "",
          "type": "uint256[]"
        }
      ],
      "stateMutability": "view",
      "type": "function"
    },
    {
      "inputs": [
        {
          "internalType": "uint256",
          "name": "_tokenId",
          "type": "uint256"
        }
      ],
      "name": "getLatestPrice",
      "outputs": [
        {
          "internalType": "uint256",
          "name": "",
          "type": "uint256"
        },
        {
          "internalType": "uint256",
          "name": "",
          "type": "uint256"
        }
      ],
      "stateMutability": "view",
      "type": "function"
    },
    {
      "inputs": [],
      "name": "getLoansEligibleForLiquidation",
      "outputs": [
        {
          "internalType": "uint256[]",
          "name": "",
          "type": "uint256[]"
        }
      ],
      "stateMutability": "view",
      "type": "function"
    },
    {
      "inputs": [
        {
          "internalType": "uint256",
          "name": "_loanId",
          "type": "uint256"
        }
      ],
      "name": "isLoanUnderwater",
      "outputs": [
        {
          "internalType": "bool",
          "name": "",
          "type": "bool"
        },
        {
          "internalType": "uint256",
          "name": "",
          "type": "uint256"
        }
      ],
      "stateMutability": "view",
      "type": "function"
    },
    {
      "inputs": [
        {
          "internalType": "address",
          "name": "",
          "type": "address"
        },
        {
          "internalType": "uint256",
          "name": "",
          "type": "uint256"
        }
      ],
      "name": "lenderLoans",
      "outputs": [
        {
          "internalType": "uint256",
          "name": "",
          "type": "uint256"
        }
      ],
      "stateMutability": "view",
      "type": "function"
    },
    {
      "inputs": [
        {
          "internalType": "uint256",
          "name": "_loanId",
          "type": "uint256"
        }
      ],
      "name": "liquidateLoan",
      "outputs": [],
      "stateMutability": "nonpayable",
      "type": "function"
    },
    {
      "inputs": [
        {
          "internalType": "uint256",
          "name": "",
          "type": "uint256"
        }
      ],
      "name": "liquidationAuctions",
      "outputs": [
        {
          "internalType": "uint256",
          "name": "loanId",
          "type": "uint256"
        },
        {
          "internalType": "uint256",
          "name": "startTime",
          "type": "uint256"
        },
        {
          "internalType": "uint256",
          "name": "endTime",
          "type": "uint256"
        },
        {
          "internalType": "uint256",
          "name": "startingPrice",
          "type": "uint256"
        },
        {
          "internalType": "uint256",
          "name": "reservePrice",
          "type": "uint256"
        },
        {
          "internalType": "address",
          "name": "highestBidder",
          "type": "address"
        },
        {
          "internalType": "uint256",
          "name": "highestBid",
          "type": "uint256"
        },
        {
          "internalType": "bool",
          "name": "active",
          "type": "bool"
        }
      ],
      "stateMutability": "view",
      "type": "function"
    },
    {
      "inputs": [],
      "name": "liquidationFeeRate",
      "outputs": [
        {
          "internalType": "uint256",
          "name": "",
          "type": "uint256"
        }
      ],
      "stateMutability": "view",
      "type": "function"
    },
    {
      "inputs": [
        {
          "internalType": "uint256",
          "name": "",
          "type": "uint256"
        }
      ],
      "name": "loans",
      "outputs": [
        {
          "internalType": "uint256",
          "name": "id",
          "type": "uint256"
        },
        {
          "internalType": "address",
          "name": "borrower",
          "type": "address"
        },
        {
          "internalType": "address",
          "name": "lender",
          "type": "address"
        },
        {
          "internalType": "uint256",
          "name": "tokenId",
          "type": "uint256"
        },
        {
          "internalType": "uint256",
          "name": "collateralTokenId",
          "type": "uint256"
        },
        {
          "internalType": "uint256",
          "name": "amount",
          "type": "uint256"
        },
        {
          "internalType": "uint256",
          "name": "collateralAmount",
          "type": "uint256"
        },
        {
          "internalType": "uint256",
          "name": "interestRate",
          "type": "uint256"
        },
        {
          "internalType": "uint256",
          "name": "duration",
          "type": "uint256"
        },
        {
          "internalType": "uint256",
          "name": "createdAt",
          "type": "uint256"
        },
        {
          "internalType": "uint256",
          "name": "fundedAt",
          "type": "uint256"
        },
        {
          "internalType": "uint256",
          "name": "dueDate",
          "type": "uint256"
        },
        {
          "internalType": "enum LoanVerseV3.LoanStatus",
          "name": "status",
          "type": "uint8"
        },
        {
          "internalType": "string",
          "name": "ipfsDocumentHash",
          "type": "string"
        },
        {
          "internalType": "uint256",
          "name": "riskScore",
          "type": "uint256"
        },
        {
          "internalType": "bool",
          "name": "collateralClaimed",
          "type": "bool"
        },
        {
          "internalType": "uint256",
          "name": "liquidationThreshold",
          "type": "uint256"
        },
        {
          "internalType": "uint256",
          "name": "lastHealthCheck",
          "type": "uint256"
        }
      ],
      "stateMutability": "view",
      "type": "function"
    },
    {
      "inputs": [],
      "name": "nextAuctionId",
      "outputs": [
        {
          "internalType": "uint256",
          "name": "",
          "type": "uint256"
        }
      ],
      "stateMutability": "view",
      "type": "function"
    },
    {
      "inputs": [],
      "name": "nextLoanId",
      "outputs": [
        {
          "internalType": "uint256",
          "name": "",
          "type": "uint256"
        }
      ],
      "stateMutability": "view",
      "type": "function"
    },
    {
      "inputs": [],
      "name": "nextTokenId",
      "outputs": [
        {
          "internalType": "uint256",
          "name": "",
          "type": "uint256"
        }
      ],
      "stateMutability": "view",
      "type": "function"
    },
    {
      "inputs": [],
      "name": "owner",
      "outputs": [
        {
          "internalType": "address",
          "name": "",
          "type": "address"
        }
      ],
      "stateMutability": "view",
      "type": "function"
    },
    {
      "inputs": [],
      "name": "pause",
      "outputs": [],
      "stateMutability": "nonpayable",
      "type": "function"
    },
    {
      "inputs": [],
      "name": "paused",
      "outputs": [
        {
          "internalType": "bool",
          "name": "",
          "type": "bool"
        }
      ],
      "stateMutability": "view",
      "type": "function"
    },
    {
      "inputs": [
        {
          "internalType": "uint256",
          "name": "_auctionId",
          "type": "uint256"
        }
      ],
      "name": "placeBid",
      "outputs": [],
      "stateMutability": "payable",
      "type": "function"
    },
    {
      "inputs": [],
      "name": "protocolFeeRate",
      "outputs": [
        {
          "internalType": "uint256",
          "name": "",
          "type": "uint256"
        }
      ],
      "stateMutability": "view",
      "type": "function"
    },
    {
      "inputs": [],
      "name": "rateSlope1",
      "outputs": [
        {
          "internalType": "uint256",
          "name": "",
          "type": "uint256"
        }
      ],
      "stateMutability": "view",
      "type": "function"
    },
    {
      "inputs": [],
      "name": "rateSlope2",
      "outputs": [
        {
          "internalType": "uint256",
          "name": "",
          "type": "uint256"
        }
      ],
      "stateMutability": "view",
      "type": "function"
    },
    {
      "inputs": [],
      "name": "renounceOwnership",
      "outputs": [],
      "stateMutability": "nonpayable",
      "type": "function"
    },
    {
      "inputs": [
        {
          "internalType": "uint256",
          "name": "_loanId",
          "type": "uint256"
        }
      ],
      "name": "repayLoan",
      "outputs": [],
      "stateMutability": "payable",
      "type": "function"
    },
    {
      "inputs": [
        {
          "internalType": "uint256",
          "name": "_tokenId",
          "type": "uint256"
        },
        {
          "internalType": "uint256",
          "name": "_collateralTokenId",
          "type": "uint256"
        },
        {
          "internalType": "uint256",
          "name": "_amount",
          "type": "uint256"
        },
        {
          "internalType": "uint256",
          "name": "_maxInterestRate",
          "type": "uint256"
        },
        {
          "internalType": "uint256",
          "name": "_duration",
          "type": "uint256"
        },
        {
          "internalType": "string",
          "name": "_ipfsDocumentHash",
          "type": "string"
        }
      ],
      "name": "requestLoan",
      "outputs": [],
      "stateMutability": "payable",
      "type": "function"
    },
    {
      "inputs": [
        {
          "internalType": "uint256",
          "name": "",
          "type": "uint256"
        }
      ],
      "name": "supportedTokens",
      "outputs": [
        {
          "internalType": "enum LoanVerseV3.TokenType",
          "name": "tokenType",
          "type": "uint8"
        },
        {
          "internalType": "address",
          "name": "contractAddress",
          "type": "address"
        },
        {
          "internalType": "string",
          "name": "symbol",
          "type": "string"
        },
        {
          "internalType": "uint8",
          "name": "decimals",
          "type": "uint8"
        },
        {
          "internalType": "bool",
          "name": "isActive",
          "type": "bool"
        },
        {
          "internalType": "contract AggregatorV3Interface",
          "name": "priceFeed",
          "type": "address"
        }
      ],
      "stateMutability": "view",
      "type": "function"
    },
    {
      "inputs": [
        {
          "internalType": "uint256",
          "name": "",
          "type": "uint256"
        }
      ],
      "name": "tokenUtilization",
      "outputs": [
        {
          "internalType": "uint256",
          "name": "",
          "type": "uint256"
        }
      ],
      "stateMutability": "view",
      "type": "function"
    },
    {
      "inputs": [
        {
          "internalType": "address",
          "name": "newOwner",
          "type": "address"
        }
      ],
      "name": "transferOwnership",
      "outputs": [],
      "stateMutability": "nonpayable",
      "type": "function"
    },
    {
      "inputs": [],
      "name": "unpause",
      "outputs": [],
      "stateMutability": "nonpayable",
      "type": "function"
    },
    {
      "inputs": [
        {
          "internalType": "uint256",
          "name": "_baseRate",
          "type": "uint256"
        },
        {
          "internalType": "uint256",
          "name": "_utilizationOptimal",
          "type": "uint256"
        },
        {
          "internalType": "uint256",
          "name": "_rateSlope1",
          "type": "uint256"
        },
        {
          "internalType": "uint256",
          "name": "_rateSlope2",
          "type": "uint256"
        }
      ],
      "name": "updateDynamicRateParams",
      "outputs": [],
      "stateMutability": "nonpayable",
      "type": "function"
    },
    {
      "inputs": [
        {
          "internalType": "uint256",
          "name": "_liquidationFeeRate",
          "type": "uint256"
        },
        {
          "internalType": "uint256",
          "name": "_auctionDuration",
          "type": "uint256"
        }
      ],
      "name": "updateLiquidationParams",
      "outputs": [],
      "stateMutability": "nonpayable",
      "type": "function"
    },
    {
      "inputs": [
        {
          "internalType": "uint256",
          "name": "_tokenId",
          "type": "uint256"
        },
        {
          "internalType": "address",
          "name": "_priceFeedAddress",
          "type": "address"
        }
      ],
      "name": "updatePriceFeed",
      "outputs": [],
      "stateMutability": "nonpayable",
      "type": "function"
    },
    {
      "inputs": [],
      "name": "utilizationOptimal",
      "outputs": [
        {
          "internalType": "uint256",
          "name": "",
          "type": "uint256"
        }
      ],
      "stateMutability": "view",
      "type": "function"
    },
    {
      "inputs": [],
      "name": "withdrawFees",
      "outputs": [],
      "stateMutability": "nonpayable",
      "type": "function"
    }
  ],
  "bytecode": "0x6080604090808252346200033e5760019060009082825533156200032a57508154336001600160a01b03198083168217855592916001600160a01b03167f8be0079c531659141344cd1fd0a4f28419497f9722a3daafe3b4186f6b6457e08380a3600283905560038390556004838155603260055561012c6006556101f4600955611f40600a55610190600b55611770600c5560078054909316331790925583516001600160401b03919060c081018381118282101762000317578652818152602094858201938385528751918883018381108382111762000304578952600383526208aa8960eb1b88840152888401928352606084019760128952608085019782895260a0860197878952878052600e83528b88209651906002821015620002f15760ff885491610100600160a81b03905160081b1692169060018060a81b031916171786558286019451908151948511620002de578554908482811c92168015620002d3575b84831014620002c05750601f811162000275575b5081601f85116001146200020457509280928192600297969560ff9994620001f8575b50501b916000199060031b1c19161790555b945194018054935192516001600160b01b0319909416919094161790151560081b61ff00161760109190911b62010000600160b01b0316179055516138249081620003448239f35b0151925038806200019e565b858852808820969795969395601f198616915b8282106200025d5750509160ff979593918560029896941062000243575b505050811b019055620001b0565b015160001960f88460031b161c1916905538808062000235565b80888697829497870151815501960194019062000217565b858852828820601f860160051c810191848710620002b5575b601f0160051c019084905b828110620002a95750506200017b565b89815501849062000299565b90915081906200028e565b634e487b7160e01b895260229052602488fd5b91607f169162000167565b634e487b7160e01b885260419052602487fd5b634e487b7160e01b895260218352602489fd5b634e487b7160e01b865260418852602486fd5b634e487b7160e01b835260418552602483fd5b602491631e4fbdf760e01b82526004820152fd5b600080fdfe61010080604052600436101561001457600080fd5b60003560e01c9081630a49cf4d14612aee575080630d0b2ca614612acf578063119328d614612ab65780631eedf5c714612a9857806334855d1414612a7b57806335f7828314612a5d5780633cdb72f114612a135780633f4ba83a146129a15780634690484014612978578063476343ee146128f95780635003e25a146128cd5780635454a4b6146128af57806358f85880146128915780635c211efc146125235780635c975abb146124fd5780635fb3b1b5146124df5780636eef1154146124a0578063715018a61461244357806375794a3c14612425578063781c9923146123f95780637a9fffb7146123dd57806380bb727314612362578063844186f11461233c5780638456cb59146122da578063846b909a14611ff357806387c5145914611fd557806389d99a0514611d035780638da5cb5b14611fac5780639003adfe14611f8e57806390a8ae9b14611f725780639772d7ee14611eb75780639979ef4514611d08578063a271e52514611d03578063a5a2a5dd14611c86578063ab7b1c891461187c578063acfc827e146117bd578063afd927621461179f578063b891ba44146116bc578063b94fe91714611692578063c6255626146115f9578063ccdd9f5d1461132f578063da69dd5914610ae6578063e1ec3c6814610990578063e3ed190214610938578063e4df2f3b14610874578063e808386314610395578063f25b9caa14610378578063f2fde38b146102ef578063f8fa3ea7146102695763fc5284821461024657600080fd5b34610264576000366003190112610264576020600454604051908152f35b600080fd5b3461026457602036600319011261026457600435600052601360205261010060406000208054906001810154906002810154600382015460048301549060018060a01b036005850154169260ff600760068701549601541695604051978852602088015260408701526060860152608085015260a084015260c0830152151560e0820152f35b3461026457602036600319011261026457610308612b1e565b610310612d99565b6001600160a01b0390811690811561035f57600154826001600160601b0360a01b821617600155167f8be0079c531659141344cd1fd0a4f28419497f9722a3daafe3b4186f6b6457e0600080a3005b604051631e4fbdf760e01b815260006004820152602490fd5b34610264576000366003190112610264576020604051610e108152f35b346102645760208060031936011261026457600435906103b3613585565b8160005260138152604060002060078101908154916103d460ff84166135d8565b60028201544211156108375760ff19928316905580546000908152600d845260409020600582018054909591936001600160a01b03929183161561081657600c85016003828254161790556001600f86019182541617905560038401549060058501546104418184613085565b5061045f612710918261045860078a015483613041565b0490613395565b92600686019384549261047460065485613041565b04928082101561080e5750905b600052600e885260ff60406000205416600281101561073757156107b5575b906104be6104c3926104b483600854613395565b6008558554612e39565b612e39565b8061074d575b50600485015480600052600e875260ff604060002054166002811015610737576106e857506000808080868b541660068a0154905af16105076135a8565b50156106a3577f4d9113a1377d665eaa1f9168a9c9080f2e488cb820b10149de3d6d2e0f2780c7868481995b54169354604051908152a35b600160058401549360038101948554600052601487526105656040600020918254612e39565b9055015416806000526011845260406000206001810161058b8154801561069957612dd1565b9055426006820155600381016105a18154612dd1565b9055805460648111610616575b506000805160206137cf833981519152946000805160206137af8339815191529154604051908152a2547f0789b7097e8066538cfaa1132488b132e14ba5f0c938c8b7aaf8cf40356aab0b600080a25491610608836133a2565b604051908152a26001600055005b94508560328611156106715750603119850194851161065b57856000805160206137af833981519152916000805160206137cf833981519152965b81559150946105ae565b634e487b7160e01b600052601160045260246000fd5b6000805160206137cf83398151915295506000805160206137af833981519152916064610651565b6101f48455612dd1565b60405162461bcd60e51b815260048101879052601a60248201527f436f6c6c61746572616c207472616e73666572206661696c65640000000000006044820152606490fd5b868481997f4d9113a1377d665eaa1f9168a9c9080f2e488cb820b10149de3d6d2e0f2780c793600052600e83526107328260406000205460081c168383541660068c015491613619565b610533565b634e487b7160e01b600052602160045260246000fd5b6000808080938760018b0154165af16107646135a8565b501561077057876104c9565b60405162461bcd60e51b815260048101879052601760248201527f426f72726f776572207061796d656e74206661696c65640000000000000000006044820152606490fd5b6000808080848960028d0154165af16107cc6135a8565b506104a05760405162461bcd60e51b815260048101899052601560248201527413195b99195c881c185e5b595b9d0819985a5b1959605a1b6044820152606490fd5b905090610481565b90508495506003600c8501918254161790556108328254613669565b61053f565b60405162461bcd60e51b815260048101859052601560248201527441756374696f6e207374696c6c206f6e676f696e6760581b6044820152606490fd5b3461026457608036600319011261026457602435600435610893612d99565b61271082116108f3576107d081116108b957600955600a55604435600b55606435600c55005b60405162461bcd60e51b8152602060048201526012602482015271084c2e6ca40e4c2e8ca40e8dede40d0d2ced60731b6044820152606490fd5b60405162461bcd60e51b815260206004820152601b60248201527f496e76616c6964206f7074696d616c207574696c697a6174696f6e00000000006044820152606490fd5b3461026457604036600319011261026457610951612b1e565b6001600160a01b03166000908152600f60205260409020805460243591908210156102645760209161098291612b34565b90546040519160031b1c8152f35b3461026457602036600319011261026457600435600052600d6020526040600020805460018060a01b038060018401541660a0526002830154169160038101546004820154600583015460068401546007850154600886015490600987015492600a88015494600b8901549660ff600c8b01541698610a11600d8c01612cb3565b60e052600e8b015460c05260ff600f8c0154169c601160108d01549c01549c604051806080525260a05160206080510152604060805101526060608051015260808051015260a0608051015260c0608051015260e0608051015261010060805101526101206080510152610140608051015261016060805101526006811015610737576101806080510152610ab7610240806101a060805101526080510160e051612d59565b9260c0516101c0608051015215156101e060805101526102006080510152610220608051015260805180910390f35b60c03660031901126102645760a43567ffffffffffffffff811161026457610b12903690600401612bd9565b610b1a613585565b610b22613564565b604435156112ea57620151806084351015806112da575b610b429061343a565b600435600052600e602052610b6460ff60026040600020015460081c16612de0565b602435600052600e60205260ff60026040600020015460081c16156112955780511561125b57336000526011602052604060002060648154109081159161124e575b501561121257610bb76004356133a2565b9060643582116111d457610bcf604435600435613085565b8060968102046096148115171561065b57610c8990610c84610bf2602435612e46565b5091602435600052600e60205260646096610c7c6040600020600260405191610c1a83612b62565b8054610c2960ff821685612dc5565b60081c6001600160a01b03166020840152610c4660018201612cb3565b604084015201549060a060ff83169283606084015260ff8160081c1615156080840152600180831b039060101c16910152613054565b920204613041565b613065565b602435600052600e60205260ff6040600020541660028110156107375761109757803410611052575b60025490610cbf82612dd1565b600255602435600052600e60205260ff6040600020541660028110156107375761104d5750345b60405190610cf382612b7e565b828252336020830152600060408301526004356060830152602435608083015260443560a083015260c08201528360e082015260843561010082015242610120820152600061014082015260006101608201526000610180820152826101a082015260006101c082015260006101e082015260786102008201524261022082015281600052600d602052604060002090805182556001820160018060a01b03602083015116906001600160601b0360a01b9182825416179055600283019060018060a01b0360408401511690825416179055606081015160038301556080810151600483015560a0810151600583015560c0810151600683015560e0810151600783015561010081015160088301556101208101516009830155610140810151600a830155610160810151600b830155600c820161018082015160068110156107375760ff801983541691161790556101a081015180519067ffffffffffffffff821161103757610e67600d850154612c79565b601f8111610ff0575b50602090601f8311600114610f7a5791806011949261022094600092610f6f575b50508160011b916000199060031b1c191617600d8501555b6101c0810151600e850155610ed46101e08201511515600f86019060ff801983541691151516179055565b6102008101516010850155015191015533600052600f602052610efb816040600020613479565b80600052600d6020526006604060002001549260405193604435855260208501526040840152608435606084015260a060808401527f05cb01012dbded0c72d8576b4aef55d60d8e2824466ac6f54f7822cc1ddb6af36004359380610f65339560a0830190612d59565b0390a46001600055005b015190508980610e91565b90600d850160005260206000209160005b601f1985168110610fd8575092601194926001926102209583601f19811610610fbf575b505050811b01600d850155610ea9565b015160001960f88460031b161c19169055898080610faf565b91926020600181928685015181550194019201610f8b565b600d85016000526020600020601f840160051c810160208510611030575b601f830160051c82018110611024575050610e70565b6000815560010161100e565b508061100e565b634e487b7160e01b600052604160045260246000fd5b610ce6565b60405162461bcd60e51b815260206004820152601b60248201527f496e73756666696369656e742045544820636f6c6c61746572616c00000000006044820152606490fd5b3461118357602435600052600e60205260018060a01b0360406000205460081c166040516370a0823160e01b8152336004820152602081602481855afa8015611177578391600091611142575b50106110fd57816110f891309033906134b3565b610cb2565b60405162461bcd60e51b815260206004820152601a60248201527f496e73756666696369656e742045524332302062616c616e63650000000000006044820152606490fd5b9150506020813d60201161116f575b8161115e60209383612b9b565b8101031261026457829051866110e4565b3d9150611151565b6040513d6000823e3d90fd5b60405162461bcd60e51b815260206004820152602360248201527f455448206e6f74206e656564656420666f7220455243323020636f6c6c6174656044820152621c985b60ea1b6064820152608490fd5b60405162461bcd60e51b8152602060048201526016602482015275092dce8cae4cae6e840e4c2e8ca40e8dede40d0d2ced60531b6044820152606490fd5b60405162461bcd60e51b81526020600482015260146024820152734372656469742073636f726520746f6f206c6f7760601b6044820152606490fd5b6001915001541582610ba6565b60405162461bcd60e51b815260206004820152601260248201527112541194c81a185cda081c995c5d5a5c995960721b6044820152606490fd5b60405162461bcd60e51b815260206004820152601e60248201527f436f6c6c61746572616c20746f6b656e206e6f7420737570706f7274656400006044820152606490fd5b506301e133806084351115610b39565b60405162461bcd60e51b815260206004820152601d60248201527f416d6f756e74206d7573742062652067726561746572207468616e20300000006044820152606490fd5b3461026457602080600319360112610264576004359061134d613585565b611356826131e7565b9190156115bc5782600052600d8152604060002091600c8301600560ff198254161790556040519161138783612b7e565b8354835260018060a01b0393846001820154168285015284600282015416604085015260038101546060850152611468600482015460808601908152600583015460a087015260068301549060c08701918252600784015460e088015260088401549661010097888201526009850154610120820152600a850154610140820152600b8501546101608201526005610180820152611427600d8601612cb3565b6101a0820152600e8501546101c082015260ff600f8601541615156101e0820152610220601160108701968754610200850152015491015251905190613085565b93605085028581046050148615171561065b576004549061148882612dd1565b6004556201518042019788421161065b576040519384019784891067ffffffffffffffff8a1117611037577f7c37bb4475912066c94a3f055866bdadcf52198b65cb65aba2f5be08dfeb575d996115a08c966007878b7fa832766a05f1bd0298b0268308621777cfe1e4eea23afe7c06beea79bc6ddd2d9860409f986040998a528c8652828601914283528a870189815260608801908b8252606460808a019304835260a089019460008652601360c08b01976000895260e08c019960018b52600052528d60002099518a555160018a0155516002890155516003880155516004870155600586019151166001600160601b0360a01b82541617905551600684015551151591019060ff801983541691151516179055565b825191825287820152a354908351928352820152a26001600055005b6064906040519062461bcd60e51b8252600482015260166024820152752637b0b71034b9903737ba103ab73232b93bb0ba32b960511b6044820152fd5b3461026457602036600319011261026457600435600052600e602052604060002080549060ff821691600261163060018401612cb3565b9201549060405193600281101561073757845260081c6001600160a01b03908116602085015260c060408501819052849361166d91850190612d59565b9160ff8116606085015260ff8160081c161515608085015260101c1660a08301520390f35b346102645760203660031901126102645760406116b0600435612e46565b82519182526020820152f35b3461026457600036600319011261026457600254600019810181811161065b576116e590613768565b90600090600190815b8181106117425750505061170181613768565b9160005b82811061171e576040518061171a8682612c3e565b0390f35b8061172c61173d928461379a565b51611737828761379a565b52612dd1565b611705565b80600052600d60205260ff600c60406000200154166006811015610737578314611775575b61177090612dd1565b6116ee565b61177e816131e7565b501561176757926117978185611737611770948961379a565b939050611767565b34610264576000366003190112610264576020600954604051908152f35b34610264576040366003190112610264576004356024356001600160a01b03811690819003610264576117ee612d99565b81600052600e60205260ff60026040600020015460081c1615611844576000918252600e6020526040909120600201805462010000600160b01b03191660109290921b62010000600160b01b0316919091179055005b60405162461bcd60e51b815260206004820152601060248201526f546f6b656e206e6f742061637469766560801b6044820152606490fd5b6020806003193601126102645760043590611895613585565b81600052600d81526040600020600181019260018060a01b0391828554163303611c4157600c81019283549160ff831660068110156107375760016118da91146131a9565b600b8101544211611c0d57600581019081549161271096600261192989611905600787015488613041565b04996119136005548c613041565b04996119238b6104be838a613395565b96613395565b9660ff191617905561193d87600854613395565b600855549560038201968754600052601489526119606040600020918254612e39565b9055865480600052600e895260ff60406000205416600281101561073757611b6a575050833410611b2c57600080809385600283950154165af16119a26135a8565b5015611ae757813411611a8c575b84955b6119bc84613669565b541680600052601185526040600020600181016119df8154801561069957612dd1565b9055426006820155600281016119f58154612dd1565b905580546103b68110611a62575b509185916000805160206137af8339815191526000805160206137cf833981519152977f040cee90ee4799897c30ca04e5feb6fa43dbba9b6d084b4b257cdafd84ba013e9554604051908152a2604051908152a25491610608836133a2565b91955091600a820180921161065b57908255859490916000805160206137cf833981519152611a03565b6000808080611a9b8634612e39565b335af1611aa66135a8565b506119b05760405162461bcd60e51b8152600481018690526014602482015273115e18d95cdcc81c995d1d5c9b8819985a5b195960621b6044820152606490fd5b60405162461bcd60e51b815260048101869052601960248201527f5472616e7366657220746f206c656e646572206661696c6564000000000000006044820152606490fd5b60405162461bcd60e51b8152600481018890526016602482015275125b9cdd59999a58da595b9d081c995c185e5b595b9d60521b6044820152606490fd5b98929834611bbd578899611b9891600052600e8a528560028160406000205460081c169501541633856134b3565b80611ba5575b50506119b3565b611bb69184600754169033906134b3565b8780611b9e565b60405162461bcd60e51b8152600481018a9052602260248201527f455448206e6f74206e656564656420666f722045524332302072657061796d656044820152611b9d60f21b6064820152608490fd5b60405162461bcd60e51b815260048101879052600c60248201526b131bd85b88195e1c1a5c995960a21b6044820152606490fd5b60405162461bcd60e51b815260048101859052601760248201527f4f6e6c7920626f72726f7765722063616e2072657061790000000000000000006044820152606490fd5b3461026457611c9436612b08565b611c9c612d99565b6103e88211611ccf5780610e10611cbc9210159081611cc1575b5061343a565b600655005b62093a809150111583611cb6565b60405162461bcd60e51b815260206004820152600c60248201526b08ccaca40e8dede40d0d2ced60a31b6044820152606490fd5b612c20565b60208060031936011261026457600435611d20613585565b80600052601382526040600020611d3d60ff6007830154166135d8565b60028101544211611e8257600681019081549081341115611e4f5760048101543410611e165760050180549091906001600160a01b031680611dc3575b5050336001600160601b0360a01b8254161790553490557f0e54eff26401bf69b81b26f60bd85ef47f5d85275c1d268d84f68d6897431c47604051923484523393a36001600055005b600080809381935af1611dd46135a8565b5015611de1578480611d7a565b60405162461bcd60e51b815260048101859052600d60248201526c1499599d5b990819985a5b1959609a1b6044820152606490fd5b60405162461bcd60e51b81526004810186905260116024820152704269642062656c6f77207265736572766560781b6044820152606490fd5b60405162461bcd60e51b815260048101869052600b60248201526a42696420746f6f206c6f7760a81b6044820152606490fd5b60405162461bcd60e51b815260048101849052600d60248201526c105d58dd1a5bdb88195b991959609a1b6044820152606490fd5b3461026457600036600319011261026457600254600019810181811161065b57611ee090613768565b9060009060015b818110611f25575050611ef981613768565b9160005b828110611f12576040518061171a8682612c3e565b8061172c611f20928461379a565b611efd565b80600052600d60205260ff600c604060002001541660068110156107375715611f57575b611f5290612dd1565b611ee7565b91611f6a8184611737611f52948861379a565b929050611f49565b3461026457600036600319011261026457602060405160788152f35b34610264576000366003190112610264576020600854604051908152f35b34610264576000366003190112610264576001546040516001600160a01b039091168152602090f35b34610264576000366003190112610264576020600254604051908152f35b6020806003193601126102645760043561200b613585565b612013613564565b80600052600d82526040600020906001820160018060a01b038082541661203b811515613167565b600c85019081549060ff82166006811015610737576122a0573314612264576002860180546001600160a01b0319163317905560ff1916600117905542600a8501819055600885015461208d91613395565b600b85015533600052601085526120a8836040600020613479565b60058401600381549501948554600052601487526120cc6040600020918254613395565b9055845480600052600e875260ff604060002054166002811015610737576121d75750549182340361219b57600080938193829354165af161210c6135a8565b501561215657906000805160206137cf833981519152915b33907f15feab5d3eb17171632762cf769709a315dd15f487a556c0dfb8a259c8f186cc600080a35491610608836133a2565b60405162461bcd60e51b815260048101849052601b60248201527f5472616e7366657220746f20626f72726f776572206661696c656400000000006044820152606490fd5b60405162461bcd60e51b8152600481018790526014602482015273125b98dbdc9c9958dd0811551208185b5bdd5b9d60621b6044820152606490fd5b95949392959190913461221f57916000805160206137cf83398151915295969161221a93600052600e88528060406000205460081c1692541690549133906134b3565b612124565b60405162461bcd60e51b815260048101879052601d60248201527f455448206e6f74206e656564656420666f72204552433230206c6f616e0000006044820152606490fd5b60405162461bcd60e51b815260048101889052601460248201527321b0b73737ba10333ab7321037bbb7103637b0b760611b6044820152606490fd5b60405162461bcd60e51b81526004810189905260126024820152714c6f616e206e6f7420617661696c61626c6560701b6044820152606490fd5b34610264576000366003190112610264576122f3612d99565b6122fb613564565b6001805460ff60a01b1916600160a01b1790556040513381527f62e78cea01bee320cd4e420270b5ea74000d11b0c9f74754ebdbfc544b05a25890602090a1005b3461026457602036600319011261026457602061235a6004356133a2565b604051908152f35b34610264576020366003190112610264576001600160a01b03612383612b1e565b16600052601160205260e06040600020805490600181015490600281015460038201546004830154916006600585015494015494604051968752602087015260408601526060850152608084015260a083015260c0820152f35b3461026457600036600319011261026457602060405160968152f35b346102645760203660031901126102645760043560005260146020526020604060002054604051908152f35b34610264576000366003190112610264576020600354604051908152f35b346102645760003660031901126102645761245c612d99565b600180546001600160a01b031981169091556000906001600160a01b03167f8be0079c531659141344cd1fd0a4f28419497f9722a3daafe3b4186f6b6457e08280a3005b34610264576020366003190112610264576001600160a01b036124c1612b1e565b166000526012602052602060ff604060002054166040519015158152f35b34610264576000366003190112610264576020600654604051908152f35b3461026457600036600319011261026457602060ff60015460a01c166040519015158152f35b346102645760803660031901126102645761253c612b1e565b67ffffffffffffffff906024358281116102645761255e903690600401612bd9565b906044359060ff821680920361026457606435916001600160a01b03831683036102645761258a612d99565b6001600160a01b0382161561284c576001600160a01b0383161561280757604051906125b582612b62565b60018252602082019060018060a01b0384168252604083019086825260608401526001608084015260018060a01b03851660a0840152600354600052600e60205260406000209183519060028210156107375760ff845491610100600160a81b03905160081b169216906affffffffffffffffffffff60a81b1617178255519586519081116110375761264b6001830154612c79565b601f81116127c0575b506020601f82116001146127475791816002926126de95946127379a60009261273c575b50508160011b916000199060031b1c19161760018201555b606083015191018054608084015160a0909401516001600160b01b031990911660ff939093169290921792151560081b61ff00169290921760109190911b62010000600160b01b0316179055565b7f98878a34ea3245957b330457c591928f2908c8b254e8b972075101360fca276b61271c600354948593604051928392604084526040840190612d59565b6001600160a01b0396871660208401529516940390a3612dd1565b600355005b015190508a80612678565b6001830160005260206000209760005b601f19841681106127a8575082612737996126de969593600193600296601f1981161061278f575b505050811b016001820155612690565b015160001960f88460031b161c191690558a808061277f565b828201518a5560019099019860209283019201612757565b600183016000526020600020601f830160051c810160208410612800575b601f830160051c820181106127f4575050612654565b600081556001016127de565b50806127de565b60405162461bcd60e51b815260206004820152601a60248201527f496e76616c6964207072696365206665656420616464726573730000000000006044820152606490fd5b60405162461bcd60e51b815260206004820152601860248201527f496e76616c696420636f6e7472616374206164647265737300000000000000006044820152606490fd5b34610264576000366003190112610264576020600554604051908152f35b34610264576000366003190112610264576020600b54604051908152f35b346102645760203660031901126102645760406128eb6004356131e7565b825191151582526020820152f35b3461026457600036600319011261026457612912612d99565b60008080806008548160085560018060a01b03600754165af16129336135a8565b501561293b57005b60405162461bcd60e51b8152602060048201526015602482015274119959481dda5d1a191c985dd85b0819985a5b1959605a1b6044820152606490fd5b34610264576000366003190112610264576007546040516001600160a01b039091168152602090f35b34610264576000366003190112610264576129ba612d99565b60015460ff8160a01c1615612a015760ff60a01b19166001556040513381527f5db9ee0a495bf2e6ff9c91a7834c1ba4fdd244a5e8aa4e537bd38aeae4b073aa90602090a1005b604051638dfc202b60e01b8152600490fd5b3461026457604036600319011261026457612a2c612b1e565b6001600160a01b03166000908152601060205260409020805460243591908210156102645760209161098291612b34565b34610264576000366003190112610264576020600a54604051908152f35b34610264576000366003190112610264576020604051610bb88152f35b34610264576000366003190112610264576020600c54604051908152f35b3461026457602061235a612ac936612b08565b90613085565b346102645760003660031901126102645760206040516301e133808152f35b346102645760003660031901126102645780606460209252f35b6040906003190112610264576004359060243590565b600435906001600160a01b038216820361026457565b8054821015612b4c5760005260206000200190600090565b634e487b7160e01b600052603260045260246000fd5b60c0810190811067ffffffffffffffff82111761103757604052565b610240810190811067ffffffffffffffff82111761103757604052565b90601f8019910116810190811067ffffffffffffffff82111761103757604052565b67ffffffffffffffff811161103757601f01601f191660200190565b81601f8201121561026457803590612bf082612bbd565b92612bfe6040519485612b9b565b8284526020838301011161026457816000926020809301838601378301015290565b34610264576000366003190112610264576020604051620151808152f35b6020908160408183019282815285518094520193019160005b828110612c65575050505090565b835185529381019392810192600101612c57565b90600182811c92168015612ca9575b6020831014612c9357565b634e487b7160e01b600052602260045260246000fd5b91607f1691612c88565b9060405191826000825492612cc784612c79565b908184526001948581169081600014612d365750600114612cf3575b5050612cf192500383612b9b565b565b9093915060005260209081600020936000915b818310612d1e575050612cf193508201013880612ce3565b85548884018501529485019487945091830191612d06565b915050612cf194506020925060ff191682840152151560051b8201013880612ce3565b919082519283825260005b848110612d85575050826000602080949584010152601f8019910116010190565b602081830181015184830182015201612d64565b6001546001600160a01b03163303612dad57565b60405163118cdaa760e01b8152336004820152602490fd5b60028210156107375752565b600019811461065b5760010190565b15612de757565b60405162461bcd60e51b8152602060048201526013602482015272151bdad95b881b9bdd081cdd5c1c1bdc9d1959606a1b6044820152606490fd5b519069ffffffffffffffffffff8216820361026457565b9190820391821161065b57565b9060009182526020600e815260408084208151612e6281612b62565b612ec46002835493612e7760ff861685612dc5565b60018060a01b03809560081c1687850152612e9460018201612cb3565b8685015201549160ff831660608201528360a060ff8560081c16151592836080820152019360101c168352612de0565b51168015613031579060a060049392825194858092633fabe5a360e21b82525afa9485156130265780938196612fce575b50831315612f8b578415612f5357610e10612f108642612e39565b11612f1b5750509190565b60649250519062461bcd60e51b825260048201526012602482015271141c9a58d94819185d18481d1bdbc81bdb1960721b6044820152fd5b60649250519062461bcd60e51b825260048201526012602482015271526f756e64206e6f7420636f6d706c65746560701b6044820152fd5b60649250519062461bcd60e51b82526004820152601960248201527f496e76616c69642070726963652066726f6d206f7261636c65000000000000006044820152fd5b9350945060a0833d821161301e575b81612fea60a09383612b9b565b8101031261301a57612ffb83612e22565b5081830151613011608060608601519501612e22565b50929438612ef5565b8480fd5b3d9150612fdd565b9051903d90823e3d90fd5b5050509050642e90edd000904290565b8181029291811591840414171561065b57565b60ff16604d811161065b57600a0a90565b811561306f570490565b634e487b7160e01b600052601260045260246000fd5b9061308f82612e46565b5091600052600e602052604060002091604051916130ac83612b62565b60088454600260ff966130c188841688612dc5565b6001600160a01b0392841c831660208801526130df60018201612cb3565b604088015201549460a08787169260608301978489528981871c161515608085015260101c169101521115600014613133579261312261312a9261313095613041565b925116613054565b90613065565b90565b61314c9161314091613041565b61312a84845116613054565b905182166007190191821161065b5761312a61313092613054565b1561316e57565b60405162461bcd60e51b8152602060048201526013602482015272131bd85b88191bd95cc81b9bdd08195e1a5cdd606a1b6044820152606490fd5b156131b057565b60405162461bcd60e51b815260206004820152600f60248201526e4c6f616e206e6f742061637469766560881b6044820152606490fd5b906000918252600d602052604082209160405161320381612b7e565b8354815260018060a01b038060018601541660208301908152816002870154166040840152600386015492606081019384526004870154906080810191825260058801549360a0820194855260068901549360c0830194855260078a015460e084015260088a015461010084015260098a0154610120840152600a8a0154610140840152600b8a015461016084015260ff600c8b015416926101808101936006811015613381578452613300929190610220601160108e6132c6600d8201612cb3565b6101a0860152600e8101546101c086015260ff600f8201541615156101e086015201549d61020084019e8f52015491015251161515613167565b51600681101561336d57916133289161331f60016133329695146131a9565b51905190613085565b9251905190613085565b9160648202918083046064149015171561335957509061335191613065565b915182109190565b634e487b7160e01b81526011600452602490fd5b634e487b7160e01b86526021600452602486fd5b634e487b7160e01b8a52602160045260248afd5b9190820180921161065b57565b600090815260146020526040812054600a5490818082116133f257506127109283820291808304851490151715613359575061313092916133e291613065565b9061045860095492600b54613041565b6133fb91612e39565b9161341761340e600954600b5490613395565b93600c54613041565b906127109283039283116133595750613130929161343491613065565b90613395565b1561344157565b60405162461bcd60e51b815260206004820152601060248201526f24b73b30b634b210323ab930ba34b7b760811b6044820152606490fd5b8054680100000000000000008110156110375761349b91600182018155612b34565b819291549060031b91821b91600019901b1916179055565b6040516323b872dd60e01b60208201526001600160a01b03928316602482015292909116604483015260648083019390935291815260a081019181831067ffffffffffffffff84111761103757612cf1926040525b906000602091828151910182855af115611177576000513d61355b57506001600160a01b0381163b155b6135395750565b604051635274afe760e01b81526001600160a01b039091166004820152602490fd5b60011415613532565b60ff60015460a01c1661357357565b60405163d93c066560e01b8152600490fd5b600260005414613596576002600055565b604051633ee5aeb560e01b8152600490fd5b3d156135d3573d906135b982612bbd565b916135c76040519384612b9b565b82523d6000602084013e565b606090565b156135df57565b60405162461bcd60e51b815260206004820152601260248201527141756374696f6e206e6f742061637469766560701b6044820152606490fd5b60405163a9059cbb60e01b60208201526001600160a01b039092166024830152604480830193909352918152608081019167ffffffffffffffff83118284101761103757612cf192604052613508565b6000908152600d602052604081206004810154808352600e60205260ff604084205416600281101561373c5761370b575060018101546006909101548291829182916001600160a01b03165af16136be6135a8565b50156136c657565b60405162461bcd60e51b815260206004820152601860248201527f436f6c6c61746572616c2072657475726e206661696c656400000000000000006044820152606490fd5b90600683604093612cf19552600e60205260018060a01b03938491205460081c169260018301541691015491613619565b634e487b7160e01b84526021600452602484fd5b67ffffffffffffffff81116110375760051b60200190565b9061377282613750565b61377f6040519182612b9b565b8281528092613790601f1991613750565b0190602036910137565b8051821015612b4c5760209160051b01019056fe79c012a0cfae660e09134956bc432c8497ec80e86a3a108d130e8b3fca52b3ad41e376fd99913dea7fda140f5c0bd997515b1a181acc58737320322548ec6e72a2646970667358221220818431fffca5cab230d2f0fe890d8df328a1b56096d1f037176cb83d9659188164736f6c63430008140033",
  "linkReferences": {},
  "deployedLinkReferences": {}
}