{
  "_format": "hh-sol-artifact-1",
  "contractName": "LoanVerseV3",
  "sourceName": "contracts/LoanVerseV3.sol",
  "abi": [
    {
      "inputs": [],
      "stateMutability": "nonpayable",
      "type": "constructor"
    },
    {
      "inputs": [],
      "name": "EnforcedPause",
      "type": "error"
    },
    {
      "inputs": [],
      "name": "ExpectedPause",
      "type": "error"
    },
    {
      "inputs": [
        {
          "internalType": "address",
          "name": "owner",
          "type": "address"
        }
      ],
      "name": "OwnableInvalidOwner",
      "type": "error"
    },
    {
      "inputs": [
        {
          "internalType": "address",
          "name": "account",
          "type": "address"
        }
      ],
      "name": "OwnableUnauthorizedAccount",
      "type": "error"
    },
    {
      "inputs": [],
      "name": "ReentrancyGuardReentrantCall",
      "type": "error"
    },
    {
      "inputs": [
        {
          "internalType": "address",
          "name": "token",
          "type": "address"
        }
      ],
      "name": "SafeERC20FailedOperation",
      "type": "error"
    },
    {
      "anonymous": false,
      "inputs": [
        {
          "indexed": true,
          "internalType": "uint256",
          "name": "auctionId",
          "type": "uint256"
        },
        {
          "indexed": true,
          "internalType": "address",
          "name": "winner",
          "type": "address"
        },
        {
          "indexed": false,
          "internalType": "uint256",
          "name": "finalPrice",
          "type": "uint256"
        }
      ],
      "name": "AuctionFinalized",
      "type": "event"
    },
    {
      "anonymous": false,
      "inputs": [
        {
          "indexed": true,
          "internalType": "uint256",
          "name": "auctionId",
          "type": "uint256"
        },
        {
          "indexed": true,
          "internalType": "uint256",
          "name": "loanId",
          "type": "uint256"
        },
        {
          "indexed": false,
          "internalType": "uint256",
          "name": "startingPrice",
          "type": "uint256"
        },
        {
          "indexed": false,
          "internalType": "uint256",
          "name": "endTime",
          "type": "uint256"
        }
      ],
      "name": "AuctionStarted",
      "type": "event"
    },
    {
      "anonymous": false,
      "inputs": [
        {
          "indexed": true,
          "internalType": "uint256",
          "name": "auctionId",
          "type": "uint256"
        },
        {
          "indexed": true,
          "internalType": "address",
          "name": "bidder",
          "type": "address"
        },
        {
          "indexed": false,
          "internalType": "uint256",
          "name": "amount",
          "type": "uint256"
        }
      ],
      "name": "BidPlaced",
      "type": "event"
    },
    {
      "anonymous": false,
      "inputs": [
        {
          "indexed": true,
          "internalType": "uint256",
          "name": "loanId",
          "type": "uint256"
        },
        {
          "indexed": false,
          "internalType": "uint256",
          "name": "amount",
          "type": "uint256"
        }
      ],
      "name": "CollateralClaimed",
      "type": "event"
    },
    {
      "anonymous": false,
      "inputs": [
        {
          "indexed": true,
          "internalType": "address",
          "name": "borrower",
          "type": "address"
        },
        {
          "indexed": false,
          "internalType": "uint256",
          "name": "newScore",
          "type": "uint256"
        }
      ],
      "name": "CreditScoreUpdated",
      "type": "event"
    },
    {
      "anonymous": false,
      "inputs": [
        {
          "indexed": true,
          "internalType": "uint256",
          "name": "tokenId",
          "type": "uint256"
        },
        {
          "indexed": false,
          "internalType": "uint256",
          "name": "newRate",
          "type": "uint256"
        }
      ],
      "name": "InterestRateUpdated",
      "type": "event"
    },
    {
      "anonymous": false,
      "inputs": [
        {
          "indexed": true,
          "internalType": "uint256",
          "name": "loanId",
          "type": "uint256"
        },
        {
          "indexed": false,
          "internalType": "uint256",
          "name": "currentRatio",
          "type": "uint256"
        },
        {
          "indexed": false,
          "internalType": "uint256",
          "name": "threshold",
          "type": "uint256"
        }
      ],
      "name": "LiquidationTriggered",
      "type": "event"
    },
    {
      "anonymous": false,
      "inputs": [
        {
          "indexed": true,
          "internalType": "uint256",
          "name": "loanId",
          "type": "uint256"
        }
      ],
      "name": "LoanCancelled",
      "type": "event"
    },
    {
      "anonymous": false,
      "inputs": [
        {
          "indexed": true,
          "internalType": "uint256",
          "name": "loanId",
          "type": "uint256"
        }
      ],
      "name": "LoanDefaulted",
      "type": "event"
    },
    {
      "anonymous": false,
      "inputs": [
        {
          "indexed": true,
          "internalType": "uint256",
          "name": "loanId",
          "type": "uint256"
        },
        {
          "indexed": true,
          "internalType": "address",
          "name": "lender",
          "type": "address"
        }
      ],
      "name": "LoanFunded",
      "type": "event"
    },
    {
      "anonymous": false,
      "inputs": [
        {
          "indexed": true,
          "internalType": "uint256",
          "name": "loanId",
          "type": "uint256"
        },
        {
          "indexed": false,
          "internalType": "uint256",
          "name": "repaidAmount",
          "type": "uint256"
        }
      ],
      "name": "LoanRepaid",
      "type": "event"
    },
    {
      "anonymous": false,
      "inputs": [
        {
          "indexed": true,
          "internalType": "uint256",
          "name": "loanId",
          "type": "uint256"
        },
        {
          "indexed": true,
          "internalType": "address",
          "name": "borrower",
          "type": "address"
        },
        {
          "indexed": true,
          "internalType": "uint256",
          "name": "tokenId",
          "type": "uint256"
        },
        {
          "indexed": false,
          "internalType": "uint256",
          "name": "amount",
          "type": "uint256"
        },
        {
          "indexed": false,
          "internalType": "uint256",
          "name": "collateralAmount",
          "type": "uint256"
        },
        {
          "indexed": false,
          "internalType": "uint256",
          "name": "interestRate",
          "type": "uint256"
        },
        {
          "indexed": false,
          "internalType": "uint256",
          "name": "duration",
          "type": "uint256"
        },
        {
          "indexed": false,
          "internalType": "string",
          "name": "ipfsHash",
          "type": "string"
        }
      ],
      "name": "LoanRequested",
      "type": "event"
    },
    {
      "anonymous": false,
      "inputs": [
        {
          "indexed": true,
          "internalType": "address",
          "name": "previousOwner",
          "type": "address"
        },
        {
          "indexed": true,
          "internalType": "address",
          "name": "newOwner",
          "type": "address"
        }
      ],
      "name": "OwnershipTransferred",
      "type": "event"
    },
    {
      "anonymous": false,
      "inputs": [
        {
          "indexed": false,
          "internalType": "address",
          "name": "account",
          "type": "address"
        }
      ],
      "name": "Paused",
      "type": "event"
    },
    {
      "anonymous": false,
      "inputs": [
        {
          "indexed": true,
          "internalType": "uint256",
          "name": "loanId",
          "type": "uint256"
        },
        {
          "indexed": false,
          "internalType": "uint256",
          "name": "riskScore",
          "type": "uint256"
        }
      ],
      "name": "RiskScoreUpdated",
      "type": "event"
    },
    {
      "anonymous": false,
      "inputs": [
        {
          "indexed": true,
          "internalType": "uint256",
          "name": "tokenId",
          "type": "uint256"
        },
        {
          "indexed": true,
          "internalType": "address",
          "name": "contractAddress",
          "type": "address"
        },
        {
          "indexed": false,
          "internalType": "string",
          "name": "symbol",
          "type": "string"
        },
        {
          "indexed": false,
          "internalType": "address",
          "name": "priceFeed",
          "type": "address"
        }
      ],
      "name": "TokenAdded",
      "type": "event"
    },
    {
      "anonymous": false,
      "inputs": [
        {
          "indexed": true,
          "internalType": "uint256",
          "name": "tokenId",
          "type": "uint256"
        }
      ],
      "name": "TokenDeactivated",
      "type": "event"
    },
    {
      "anonymous": false,
      "inputs": [
        {
          "indexed": false,
          "internalType": "address",
          "name": "account",
          "type": "address"
        }
      ],
      "name": "Unpaused",
      "type": "event"
    },
    {
      "inputs": [],
      "name": "AUCTION_DURATION",
      "outputs": [
        {
          "internalType": "uint256",
          "name": "",
          "type": "uint256"
        }
      ],
      "stateMutability": "view",
      "type": "function"
    },
    {
      "inputs": [],
      "name": "LIQUIDATION_THRESHOLD",
      "outputs": [
        {
          "internalType": "uint256",
          "name": "",
          "type": "uint256"
        }
      ],
      "stateMutability": "view",
      "type": "function"
    },
    {
      "inputs": [],
      "name": "MAX_INTEREST_RATE",
      "outputs": [
        {
          "internalType": "uint256",
          "name": "",
          "type": "uint256"
        }
      ],
      "stateMutability": "view",
      "type": "function"
    },
    {
      "inputs": [],
      "name": "MAX_LOAN_DURATION",
      "outputs": [
        {
          "internalType": "uint256",
          "name": "",
          "type": "uint256"
        }
      ],
      "stateMutability": "view",
      "type": "function"
    },
    {
      "inputs": [],
      "name": "MIN_COLLATERAL_RATIO",
      "outputs": [
        {
          "internalType": "uint256",
          "name": "",
          "type": "uint256"
        }
      ],
      "stateMutability": "view",
      "type": "function"
    },
    {
      "inputs": [],
      "name": "MIN_CREDIT_SCORE",
      "outputs": [
        {
          "internalType": "uint256",
          "name": "",
          "type": "uint256"
        }
      ],
      "stateMutability": "view",
      "type": "function"
    },
    {
      "inputs": [],
      "name": "MIN_LOAN_DURATION",
      "outputs": [
        {
          "internalType": "uint256",
          "name": "",
          "type": "uint256"
        }
      ],
      "stateMutability": "view",
      "type": "function"
    },
    {
      "inputs": [],
      "name": "PRICE_STALENESS_THRESHOLD",
      "outputs": [
        {
          "internalType": "uint256",
          "name": "",
          "type": "uint256"
        }
      ],
      "stateMutability": "view",
      "type": "function"
    },
    {
      "inputs": [
        {
          "internalType": "address",
          "name": "_contractAddress",
          "type": "address"
        },
        {
          "internalType": "string",
          "name": "_symbol",
          "type": "string"
        },
        {
          "internalType": "uint8",
          "name": "_decimals",
          "type": "uint8"
        },
        {
          "internalType": "address",
          "name": "_priceFeedAddress",
          "type": "address"
        }
      ],
      "name": "addSupportedToken",
      "outputs": [],
      "stateMutability": "nonpayable",
      "type": "function"
    },
    {
      "inputs": [
        {
          "internalType": "address",
          "name": "",
          "type": "address"
        }
      ],
      "name": "authorizedRiskOracles",
      "outputs": [
        {
          "internalType": "bool",
          "name": "",
          "type": "bool"
        }
      ],
      "stateMutability": "view",
      "type": "function"
    },
    {
      "inputs": [],
      "name": "baseInterestRate",
      "outputs": [
        {
          "internalType": "uint256",
          "name": "",
          "type": "uint256"
        }
      ],
      "stateMutability": "view",
      "type": "function"
    },
    {
      "inputs": [
        {
          "internalType": "address",
          "name": "",
          "type": "address"
        },
        {
          "internalType": "uint256",
          "name": "",
          "type": "uint256"
        }
      ],
      "name": "borrowerLoans",
      "outputs": [
        {
          "internalType": "uint256",
          "name": "",
          "type": "uint256"
        }
      ],
      "stateMutability": "view",
      "type": "function"
    },
    {
      "inputs": [
        {
          "internalType": "uint256",
          "name": "_tokenId",
          "type": "uint256"
        }
      ],
      "name": "calculateDynamicRate",
      "outputs": [
        {
          "internalType": "uint256",
          "name": "",
          "type": "uint256"
        }
      ],
      "stateMutability": "view",
      "type": "function"
    },
    {
      "inputs": [
        {
          "internalType": "uint256",
          "name": "_tokenId",
          "type": "uint256"
        },
        {
          "internalType": "uint256",
          "name": "_amount",
          "type": "uint256"
        }
      ],
      "name": "calculateUSDValue",
      "outputs": [
        {
          "internalType": "uint256",
          "name": "",
          "type": "uint256"
        }
      ],
      "stateMutability": "view",
      "type": "function"
    },
    {
      "inputs": [],
      "name": "collectedFees",
      "outputs": [
        {
          "internalType": "uint256",
          "name": "",
          "type": "uint256"
        }
      ],
      "stateMutability": "view",
      "type": "function"
    },
    {
      "inputs": [
        {
          "internalType": "address",
          "name": "",
          "type": "address"
        }
      ],
      "name": "creditScores",
      "outputs": [
        {
          "internalType": "uint256",
          "name": "score",
          "type": "uint256"
        },
        {
          "internalType": "uint256",
          "name": "totalLoansCount",
          "type": "uint256"
        },
        {
          "internalType": "uint256",
          "name": "repaidLoansCount",
          "type": "uint256"
        },
        {
          "internalType": "uint256",
          "name": "defaultedLoansCount",
          "type": "uint256"
        },
        {
          "internalType": "uint256",
          "name": "totalBorrowed",
          "type": "uint256"
        },
        {
          "internalType": "uint256",
          "name": "totalRepaid",
          "type": "uint256"
        },
        {
          "internalType": "uint256",
          "name": "lastUpdated",
          "type": "uint256"
        }
      ],
      "stateMutability": "view",
      "type": "function"
    },
    {
      "inputs": [],
      "name": "feeRecipient",
      "outputs": [
        {
          "internalType": "address",
          "name": "",
          "type": "address"
        }
      ],
      "stateMutability": "view",
      "type": "function"
    },
    {
      "inputs": [
        {
          "internalType": "uint256",
          "name": "_auctionId",
          "type": "uint256"
        }
      ],
      "name": "finalizeAuction",
      "outputs": [],
      "stateMutability": "nonpayable",
      "type": "function"
    },
    {
      "inputs": [
        {
          "internalType": "uint256",
          "name": "_loanId",
          "type": "uint256"
        }
      ],
      "name": "fundLoan",
      "outputs": [],
      "stateMutability": "payable",
      "type": "function"
    },
    {
      "inputs": [],
      "name": "getActiveLoanRequests",
      "outputs": [
        {
          "internalType": "uint256[]",
          "name": "",
          "type": "uint256[]"
        }
      ],
      "stateMutability": "view",
      "type": "function"
    },
    {
      "inputs": [
        {
          "internalType": "uint256",
          "name": "_tokenId",
          "type": "uint256"
        }
      ],
      "name": "getLatestPrice",
      "outputs": [
        {
          "internalType": "uint256",
          "name": "",
          "type": "uint256"
        },
        {
          "internalType": "uint256",
          "name": "",
          "type": "uint256"
        }
      ],
      "stateMutability": "view",
      "type": "function"
    },
    {
      "inputs": [],
      "name": "getLoansEligibleForLiquidation",
      "outputs": [
        {
          "internalType": "uint256[]",
          "name": "",
          "type": "uint256[]"
        }
      ],
      "stateMutability": "view",
      "type": "function"
    },
    {
      "inputs": [
        {
          "internalType": "uint256",
          "name": "_loanId",
          "type": "uint256"
        }
      ],
      "name": "isLoanUnderwater",
      "outputs": [
        {
          "internalType": "bool",
          "name": "",
          "type": "bool"
        },
        {
          "internalType": "uint256",
          "name": "",
          "type": "uint256"
        }
      ],
      "stateMutability": "view",
      "type": "function"
    },
    {
      "inputs": [
        {
          "internalType": "address",
          "name": "",
          "type": "address"
        },
        {
          "internalType": "uint256",
          "name": "",
          "type": "uint256"
        }
      ],
      "name": "lenderLoans",
      "outputs": [
        {
          "internalType": "uint256",
          "name": "",
          "type": "uint256"
        }
      ],
      "stateMutability": "view",
      "type": "function"
    },
    {
      "inputs": [
        {
          "internalType": "uint256",
          "name": "_loanId",
          "type": "uint256"
        }
      ],
      "name": "liquidateLoan",
      "outputs": [],
      "stateMutability": "nonpayable",
      "type": "function"
    },
    {
      "inputs": [
        {
          "internalType": "uint256",
          "name": "",
          "type": "uint256"
        }
      ],
      "name": "liquidationAuctions",
      "outputs": [
        {
          "internalType": "uint256",
          "name": "loanId",
          "type": "uint256"
        },
        {
          "internalType": "uint256",
          "name": "startTime",
          "type": "uint256"
        },
        {
          "internalType": "uint256",
          "name": "endTime",
          "type": "uint256"
        },
        {
          "internalType": "uint256",
          "name": "startingPrice",
          "type": "uint256"
        },
        {
          "internalType": "uint256",
          "name": "reservePrice",
          "type": "uint256"
        },
        {
          "internalType": "address",
          "name": "highestBidder",
          "type": "address"
        },
        {
          "internalType": "uint256",
          "name": "highestBid",
          "type": "uint256"
        },
        {
          "internalType": "bool",
          "name": "active",
          "type": "bool"
        }
      ],
      "stateMutability": "view",
      "type": "function"
    },
    {
      "inputs": [],
      "name": "liquidationFeeRate",
      "outputs": [
        {
          "internalType": "uint256",
          "name": "",
          "type": "uint256"
        }
      ],
      "stateMutability": "view",
      "type": "function"
    },
    {
      "inputs": [
        {
          "internalType": "uint256",
          "name": "",
          "type": "uint256"
        }
      ],
      "name": "loans",
      "outputs": [
        {
          "internalType": "uint256",
          "name": "id",
          "type": "uint256"
        },
        {
          "internalType": "address",
          "name": "borrower",
          "type": "address"
        },
        {
          "internalType": "address",
          "name": "lender",
          "type": "address"
        },
        {
          "internalType": "uint256",
          "name": "tokenId",
          "type": "uint256"
        },
        {
          "internalType": "uint256",
          "name": "collateralTokenId",
          "type": "uint256"
        },
        {
          "internalType": "uint256",
          "name": "amount",
          "type": "uint256"
        },
        {
          "internalType": "uint256",
          "name": "collateralAmount",
          "type": "uint256"
        },
        {
          "internalType": "uint256",
          "name": "interestRate",
          "type": "uint256"
        },
        {
          "internalType": "uint256",
          "name": "duration",
          "type": "uint256"
        },
        {
          "internalType": "uint256",
          "name": "createdAt",
          "type": "uint256"
        },
        {
          "internalType": "uint256",
          "name": "fundedAt",
          "type": "uint256"
        },
        {
          "internalType": "uint256",
          "name": "dueDate",
          "type": "uint256"
        },
        {
          "internalType": "enum LoanVerseV3.LoanStatus",
          "name": "status",
          "type": "uint8"
        },
        {
          "internalType": "string",
          "name": "ipfsDocumentHash",
          "type": "string"
        },
        {
          "internalType": "uint256",
          "name": "riskScore",
          "type": "uint256"
        },
        {
          "internalType": "bool",
          "name": "collateralClaimed",
          "type": "bool"
        },
        {
          "internalType": "uint256",
          "name": "liquidationThreshold",
          "type": "uint256"
        },
        {
          "internalType": "uint256",
          "name": "lastHealthCheck",
          "type": "uint256"
        }
      ],
      "stateMutability": "view",
      "type": "function"
    },
    {
      "inputs": [],
      "name": "nextAuctionId",
      "outputs": [
        {
          "internalType": "uint256",
          "name": "",
          "type": "uint256"
        }
      ],
      "stateMutability": "view",
      "type": "function"
    },
    {
      "inputs": [],
      "name": "nextLoanId",
      "outputs": [
        {
          "internalType": "uint256",
          "name": "",
          "type": "uint256"
        }
      ],
      "stateMutability": "view",
      "type": "function"
    },
    {
      "inputs": [],
      "name": "nextTokenId",
      "outputs": [
        {
          "internalType": "uint256",
          "name": "",
          "type": "uint256"
        }
      ],
      "stateMutability": "view",
      "type": "function"
    },
    {
      "inputs": [],
      "name": "owner",
      "outputs": [
        {
          "internalType": "address",
          "name": "",
          "type": "address"
        }
      ],
      "stateMutability": "view",
      "type": "function"
    },
    {
      "inputs": [],
      "name": "pause",
      "outputs": [],
      "stateMutability": "nonpayable",
      "type": "function"
    },
    {
      "inputs": [],
      "name": "paused",
      "outputs": [
        {
          "internalType": "bool",
          "name": "",
          "type": "bool"
        }
      ],
      "stateMutability": "view",
      "type": "function"
    },
    {
      "inputs": [
        {
          "internalType": "uint256",
          "name": "_auctionId",
          "type": "uint256"
        }
      ],
      "name": "placeBid",
      "outputs": [],
      "stateMutability": "payable",
      "type": "function"
    },
    {
      "inputs": [],
      "name": "protocolFeeRate",
      "outputs": [
        {
          "internalType": "uint256",
          "name": "",
          "type": "uint256"
        }
      ],
      "stateMutability": "view",
      "type": "function"
    },
    {
      "inputs": [],
      "name": "rateSlope1",
      "outputs": [
        {
          "internalType": "uint256",
          "name": "",
          "type": "uint256"
        }
      ],
      "stateMutability": "view",
      "type": "function"
    },
    {
      "inputs": [],
      "name": "rateSlope2",
      "outputs": [
        {
          "internalType": "uint256",
          "name": "",
          "type": "uint256"
        }
      ],
      "stateMutability": "view",
      "type": "function"
    },
    {
      "inputs": [],
      "name": "renounceOwnership",
      "outputs": [],
      "stateMutability": "nonpayable",
      "type": "function"
    },
    {
      "inputs": [
        {
          "internalType": "uint256",
          "name": "_loanId",
          "type": "uint256"
        }
      ],
      "name": "repayLoan",
      "outputs": [],
      "stateMutability": "payable",
      "type": "function"
    },
    {
      "inputs": [
        {
          "internalType": "uint256",
          "name": "_tokenId",
          "type": "uint256"
        },
        {
          "internalType": "uint256",
          "name": "_collateralTokenId",
          "type": "uint256"
        },
        {
          "internalType": "uint256",
          "name": "_amount",
          "type": "uint256"
        },
        {
          "internalType": "uint256",
          "name": "_maxInterestRate",
          "type": "uint256"
        },
        {
          "internalType": "uint256",
          "name": "_duration",
          "type": "uint256"
        },
        {
          "internalType": "string",
          "name": "_ipfsDocumentHash",
          "type": "string"
        }
      ],
      "name": "requestLoan",
      "outputs": [],
      "stateMutability": "payable",
      "type": "function"
    },
    {
      "inputs": [
        {
          "internalType": "uint256",
          "name": "",
          "type": "uint256"
        }
      ],
      "name": "supportedTokens",
      "outputs": [
        {
          "internalType": "enum LoanVerseV3.TokenType",
          "name": "tokenType",
          "type": "uint8"
        },
        {
          "internalType": "address",
          "name": "contractAddress",
          "type": "address"
        },
        {
          "internalType": "string",
          "name": "symbol",
          "type": "string"
        },
        {
          "internalType": "uint8",
          "name": "decimals",
          "type": "uint8"
        },
        {
          "internalType": "bool",
          "name": "isActive",
          "type": "bool"
        },
        {
          "internalType": "contract AggregatorV3Interface",
          "name": "priceFeed",
          "type": "address"
        }
      ],
      "stateMutability": "view",
      "type": "function"
    },
    {
      "inputs": [
        {
          "internalType": "uint256",
          "name": "",
          "type": "uint256"
        }
      ],
      "name": "tokenUtilization",
      "outputs": [
        {
          "internalType": "uint256",
          "name": "",
          "type": "uint256"
        }
      ],
      "stateMutability": "view",
      "type": "function"
    },
    {
      "inputs": [
        {
          "internalType": "address",
          "name": "newOwner",
          "type": "address"
        }
      ],
      "name": "transferOwnership",
      "outputs": [],
      "stateMutability": "nonpayable",
      "type": "function"
    },
    {
      "inputs": [],
      "name": "unpause",
      "outputs": [],
      "stateMutability": "nonpayable",
      "type": "function"
    },
    {
      "inputs": [
        {
          "internalType": "uint256",
          "name": "_baseRate",
          "type": "uint256"
        },
        {
          "internalType": "uint256",
          "name": "_utilizationOptimal",
          "type": "uint256"
        },
        {
          "internalType": "uint256",
          "name": "_rateSlope1",
          "type": "uint256"
        },
        {
          "internalType": "uint256",
          "name": "_rateSlope2",
          "type": "uint256"
        }
      ],
      "name": "updateDynamicRateParams",
      "outputs": [],
      "stateMutability": "nonpayable",
      "type": "function"
    },
    {
      "inputs": [
        {
          "internalType": "uint256",
          "name": "_liquidationFeeRate",
          "type": "uint256"
        },
        {
          "internalType": "uint256",
          "name": "_auctionDuration",
          "type": "uint256"
        }
      ],
      "name": "updateLiquidationParams",
      "outputs": [],
      "stateMutability": "nonpayable",
      "type": "function"
    },
    {
      "inputs": [
        {
          "internalType": "uint256",
          "name": "_tokenId",
          "type": "uint256"
        },
        {
          "internalType": "address",
          "name": "_priceFeedAddress",
          "type": "address"
        }
      ],
      "name": "updatePriceFeed",
      "outputs": [],
      "stateMutability": "nonpayable",
      "type": "function"
    },
    {
      "inputs": [],
      "name": "utilizationOptimal",
      "outputs": [
        {
          "internalType": "uint256",
          "name": "",
          "type": "uint256"
        }
      ],
      "stateMutability": "view",
      "type": "function"
    },
    {
      "inputs": [],
      "name": "withdrawFees",
      "outputs": [],
      "stateMutability": "nonpayable",
      "type": "function"
    }
  ],
  "bytecode": "0x6080604090808252346200033e5760019060009082825533156200032a57508154336001600160a01b03198083168217855592916001600160a01b03167f8be0079c531659141344cd1fd0a4f28419497f9722a3daafe3b4186f6b6457e08380a3600283905560038390556004838155603260055561012c6006556101f4600955611f40600a55610190600b55611770600c5560078054909316331790925583516001600160401b03919060c081018381118282101762000317578652818152602094858201938385528751918883018381108382111762000304578952600383526208aa8960eb1b88840152888401928352606084019760128952608085019782895260a0860197878952878052600e83528b88209651906002821015620002f15760ff885491610100600160a81b03905160081b1692169060018060a81b031916171786558286019451908151948511620002de578554908482811c92168015620002d3575b84831014620002c05750601f811162000275575b5081601f85116001146200020457509280928192600297969560ff9994620001f8575b50501b916000199060031b1c19161790555b945194018054935192516001600160b01b0319909416919094161790151560081b61ff00161760109190911b62010000600160b01b0316179055516138209081620003448239f35b0151925038806200019e565b858852808820969795969395601f198616915b8282106200025d5750509160ff979593918560029896941062000243575b505050811b019055620001b0565b015160001960f88460031b161c1916905538808062000235565b80888697829497870151815501960194019062000217565b858852828820601f860160051c810191848710620002b5575b601f0160051c019084905b828110620002a95750506200017b565b89815501849062000299565b90915081906200028e565b634e487b7160e01b895260229052602488fd5b91607f169162000167565b634e487b7160e01b885260419052602487fd5b634e487b7160e01b895260218352602489fd5b634e487b7160e01b865260418852602486fd5b634e487b7160e01b835260418552602483fd5b602491631e4fbdf760e01b82526004820152fd5b600080fdfe61010080604052600436101561001457600080fd5b60003560e01c9081630a49cf4d14612b09575080630d0b2ca614612aea578063119328d614612ad15780631eedf5c714612ab357806334855d1414612a9657806335f7828314612a785780633cdb72f114612a2e5780633f4ba83a146129bc5780634690484014612993578063476343ee146129145780635003e25a146128e85780635454a4b6146128ca57806358f85880146128ac5780635c211efc1461253e5780635c975abb146125185780635fb3b1b5146124fa5780636eef1154146124bb578063715018a61461245e57806375794a3c14612440578063781c9923146124145780637a9fffb7146123f857806380bb72731461237d578063844186f1146123575780638456cb59146122f5578063846b909a1461200e57806387c5145914611ff057806389d99a0514611d1e5780638da5cb5b14611fc75780639003adfe14611fa957806390a8ae9b14611f8d5780639772d7ee14611ed25780639979ef4514611d23578063a271e52514611d1e578063a5a2a5dd14611ca1578063ab7b1c891461188b578063acfc827e146117cc578063afd92762146117ae578063b891ba44146116cb578063b94fe917146116a1578063c625562614611608578063ccdd9f5d1461133e578063da69dd5914610af4578063e1ec3c681461099e578063e3ed190214610946578063e4df2f3b14610882578063e808386314610395578063f25b9caa14610378578063f2fde38b146102ef578063f8fa3ea7146102695763fc5284821461024657600080fd5b34610264576000366003190112610264576020600454604051908152f35b600080fd5b3461026457602036600319011261026457600435600052601360205261010060406000208054906001810154906002810154600382015460048301549060018060a01b036005850154169260ff600760068701549601541695604051978852602088015260408701526060860152608085015260a084015260c0830152151560e0820152f35b3461026457602036600319011261026457610308612b3a565b610310612db5565b6001600160a01b0390811690811561035f57600154826001600160601b0360a01b821617600155167f8be0079c531659141344cd1fd0a4f28419497f9722a3daafe3b4186f6b6457e0600080a3005b604051631e4fbdf760e01b815260006004820152602490fd5b34610264576000366003190112610264576020604051610e108152f35b3461026457602080600319360112610264576004356103b26135a1565b8060005260138252604060002090600782018054906103d360ff83166135f4565b60028401544211156108455760ff19918216905582546000908152600d85526040902060058401805491936001600160a01b0393919290919084161561082657600c85016003828254161790556001600f860191825416179055600384015491600585015461044281856130a1565b50610460612710918261045960078a01548361305d565b04906133b1565b9360068801948554926104756006548561305d565b04928082101561081e5750905b600052600e895260ff60406000205416600281101561074757156107c5575b906104bf6104c4926104b5836008546133b1565b6008558654612e55565b612e55565b8061075d575b50600485015480600052600e885260ff60406000205416600281101561074757889186916106fb5750600080809350809285541660068a0154905af161050e6135c4565b50156106b65786847f4d9113a1377d665eaa1f9168a9c9080f2e488cb820b10149de3d6d2e0f2780c7925b54169354604051908152a35b6001600583015492600381019384546000526014875261056b6040600020918254612e55565b905501541691826000526011845260406000209260018401610593815480156106ac57612ded565b9055426006850155600384016105a98154612ded565b905583549385603286111561066f5750603119850194851161065957857f79c012a0cfae660e09134956bc432c8497ec80e86a3a108d130e8b3fca52b3ad916000805160206137cb8339815191529661012c9081811060001461065257505b80915b55604051908152a2547f0789b7097e8066538cfaa1132488b132e14ba5f0c938c8b7aaf8cf40356aab0b600080a25491610644836133be565b604051908152a26001600055005b9050610608565b634e487b7160e01b600052601160045260246000fd5b6000805160206137cb83398151915295507f79c012a0cfae660e09134956bc432c8497ec80e86a3a108d130e8b3fca52b3ad9161012c809161060b565b61023f8755612ded565b60405162461bcd60e51b815260048101889052601a60248201527f436f6c6c61746572616c207472616e73666572206661696c65640000000000006044820152606490fd5b927f4d9113a1377d665eaa1f9168a9c9080f2e488cb820b10149de3d6d2e0f2780c793600052600e83526107428260406000205460081c168383541660068b015491613635565b610539565b634e487b7160e01b600052602160045260246000fd5b6000808080938860018b0154165af16107746135c4565b501561078057876104ca565b60405162461bcd60e51b815260048101889052601760248201527f426f72726f776572207061796d656e74206661696c65640000000000000000006044820152606490fd5b6000808080848a60028d0154165af16107dc6135c4565b506104a15760405162461bcd60e51b8152600481018a9052601560248201527413195b99195c881c185e5b595b9d0819985a5b1959605a1b6044820152606490fd5b905090610482565b9150506003600c8401918254161790556108408354613685565b610545565b60405162461bcd60e51b815260048101869052601560248201527441756374696f6e207374696c6c206f6e676f696e6760581b6044820152606490fd5b34610264576080366003190112610264576024356004356108a1612db5565b6127108211610901576107d081116108c757600955600a55604435600b55606435600c55005b60405162461bcd60e51b8152602060048201526012602482015271084c2e6ca40e4c2e8ca40e8dede40d0d2ced60731b6044820152606490fd5b60405162461bcd60e51b815260206004820152601b60248201527f496e76616c6964206f7074696d616c207574696c697a6174696f6e00000000006044820152606490fd5b346102645760403660031901126102645761095f612b3a565b6001600160a01b03166000908152600f60205260409020805460243591908210156102645760209161099091612b50565b90546040519160031b1c8152f35b3461026457602036600319011261026457600435600052600d6020526040600020805460018060a01b03806001840154166080526002830154169160038101546004820154600583015460068401546007850154600886015490600987015492600a88015494600b8901549660ff600c8b01541698610a1f600d8c01612ccf565b60e052600e8b015460a05260ff600f8c0154169c601160108d01549c01549c6040518060c05252608051602060c0510152604060c0510152606060c0510152608060c051015260a060c051015260c08051015260e060c051015261010060c051015261012060c051015261014060c051015261016060c051015260068110156107475761018060c0510152610ac5610240806101a060c051015260c0510160e051612d75565b9260a0516101c060c051015215156101e060c051015261020060c051015261022060c051015260c05180910390f35b60c03660031901126102645760a43567ffffffffffffffff811161026457610b20903690600401612bf5565b610b286135a1565b610b30613580565b604435156112f957620151806084351015806112e9575b610b5090613456565b600435600052600e602052610b7260ff60026040600020015460081c16612dfc565b602435600052600e60205260ff60026040600020015460081c16156112a45780511561126a57336000526011602052604060002061012c8154109081159161125d575b501561122157610bc66004356133be565b9060643582116111e357610bde6044356004356130a1565b8060968102046096148115171561065957610c9890610c93610c01602435612e62565b5091602435600052600e60205260646096610c8b6040600020600260405191610c2983612b7e565b8054610c3860ff821685612de1565b60081c6001600160a01b03166020840152610c5560018201612ccf565b604084015201549060a060ff83169283606084015260ff8160081c1615156080840152600180831b039060101c16910152613070565b92020461305d565b613081565b602435600052600e60205260ff604060002054166002811015610747576110a657803410611061575b60025490610cce82612ded565b600255602435600052600e60205260ff6040600020541660028110156107475761105c5750345b60405190610d0282612b9a565b828252336020830152600060408301526004356060830152602435608083015260443560a083015260c08201528360e082015260843561010082015242610120820152600061014082015260006101608201526000610180820152826101a082015260006101c082015260006101e082015260786102008201524261022082015281600052600d602052604060002090805182556001820160018060a01b03602083015116906001600160601b0360a01b9182825416179055600283019060018060a01b0360408401511690825416179055606081015160038301556080810151600483015560a0810151600583015560c0810151600683015560e0810151600783015561010081015160088301556101208101516009830155610140810151600a830155610160810151600b830155600c820161018082015160068110156107475760ff801983541691161790556101a081015180519067ffffffffffffffff821161104657610e76600d850154612c95565b601f8111610fff575b50602090601f8311600114610f895791806011949261022094600092610f7e575b50508160011b916000199060031b1c191617600d8501555b6101c0810151600e850155610ee36101e08201511515600f86019060ff801983541691151516179055565b6102008101516010850155015191015533600052600f602052610f0a816040600020613495565b80600052600d6020526006604060002001549260405193604435855260208501526040840152608435606084015260a060808401527f05cb01012dbded0c72d8576b4aef55d60d8e2824466ac6f54f7822cc1ddb6af36004359380610f74339560a0830190612d75565b0390a46001600055005b015190508980610ea0565b90600d850160005260206000209160005b601f1985168110610fe7575092601194926001926102209583601f19811610610fce575b505050811b01600d850155610eb8565b015160001960f88460031b161c19169055898080610fbe565b91926020600181928685015181550194019201610f9a565b600d85016000526020600020601f840160051c81016020851061103f575b601f830160051c82018110611033575050610e7f565b6000815560010161101d565b508061101d565b634e487b7160e01b600052604160045260246000fd5b610cf5565b60405162461bcd60e51b815260206004820152601b60248201527f496e73756666696369656e742045544820636f6c6c61746572616c00000000006044820152606490fd5b3461119257602435600052600e60205260018060a01b0360406000205460081c166040516370a0823160e01b8152336004820152602081602481855afa8015611186578391600091611151575b501061110c578161110791309033906134cf565b610cc1565b60405162461bcd60e51b815260206004820152601a60248201527f496e73756666696369656e742045524332302062616c616e63650000000000006044820152606490fd5b9150506020813d60201161117e575b8161116d60209383612bb7565b8101031261026457829051866110f3565b3d9150611160565b6040513d6000823e3d90fd5b60405162461bcd60e51b815260206004820152602360248201527f455448206e6f74206e656564656420666f7220455243323020636f6c6c6174656044820152621c985b60ea1b6064820152608490fd5b60405162461bcd60e51b8152602060048201526016602482015275092dce8cae4cae6e840e4c2e8ca40e8dede40d0d2ced60531b6044820152606490fd5b60405162461bcd60e51b81526020600482015260146024820152734372656469742073636f726520746f6f206c6f7760601b6044820152606490fd5b6001915001541582610bb5565b60405162461bcd60e51b815260206004820152601260248201527112541194c81a185cda081c995c5d5a5c995960721b6044820152606490fd5b60405162461bcd60e51b815260206004820152601e60248201527f436f6c6c61746572616c20746f6b656e206e6f7420737570706f7274656400006044820152606490fd5b506301e133806084351115610b47565b60405162461bcd60e51b815260206004820152601d60248201527f416d6f756e74206d7573742062652067726561746572207468616e20300000006044820152606490fd5b3461026457602080600319360112610264576004359061135c6135a1565b61136582613203565b9190156115cb5782600052600d8152604060002091600c8301600560ff198254161790556040519161139683612b9a565b8354835260018060a01b0393846001820154168285015284600282015416604085015260038101546060850152611477600482015460808601908152600583015460a087015260068301549060c08701918252600784015460e088015260088401549661010097888201526009850154610120820152600a850154610140820152600b8501546101608201526005610180820152611436600d8601612ccf565b6101a0820152600e8501546101c082015260ff600f8601541615156101e08201526102206011601087019687546102008501520154910152519051906130a1565b936050850285810460501486151715610659576004549061149782612ded565b60045562015180420197884211610659576040519384019784891067ffffffffffffffff8a1117611046577f7c37bb4475912066c94a3f055866bdadcf52198b65cb65aba2f5be08dfeb575d996115af8c966007878b7fa832766a05f1bd0298b0268308621777cfe1e4eea23afe7c06beea79bc6ddd2d9860409f986040998a528c8652828601914283528a870189815260608801908b8252606460808a019304835260a089019460008652601360c08b01976000895260e08c019960018b52600052528d60002099518a555160018a0155516002890155516003880155516004870155600586019151166001600160601b0360a01b82541617905551600684015551151591019060ff801983541691151516179055565b825191825287820152a354908351928352820152a26001600055005b6064906040519062461bcd60e51b8252600482015260166024820152752637b0b71034b9903737ba103ab73232b93bb0ba32b960511b6044820152fd5b3461026457602036600319011261026457600435600052600e602052604060002080549060ff821691600261163f60018401612ccf565b9201549060405193600281101561074757845260081c6001600160a01b03908116602085015260c060408501819052849361167c91850190612d75565b9160ff8116606085015260ff8160081c161515608085015260101c1660a08301520390f35b346102645760203660031901126102645760406116bf600435612e62565b82519182526020820152f35b34610264576000366003190112610264576002546000198101818111610659576116f490613784565b90600090600190815b8181106117515750505061171081613784565b9160005b82811061172d57604051806117298682612c5a565b0390f35b8061173b61174c92846137b6565b5161174682876137b6565b52612ded565b611714565b80600052600d60205260ff600c60406000200154166006811015610747578314611784575b61177f90612ded565b6116fd565b61178d81613203565b501561177657926117a6818561174661177f94896137b6565b939050611776565b34610264576000366003190112610264576020600954604051908152f35b34610264576040366003190112610264576004356024356001600160a01b03811690819003610264576117fd612db5565b81600052600e60205260ff60026040600020015460081c1615611853576000918252600e6020526040909120600201805462010000600160b01b03191660109290921b62010000600160b01b0316919091179055005b60405162461bcd60e51b815260206004820152601060248201526f546f6b656e206e6f742061637469766560801b6044820152606490fd5b602080600319360112610264576004356118a36135a1565b80600052600d8252604060002090600182019060018060a01b03808354163303611c5c57600c84019283549460ff861660068110156107475760016118e891146131c5565b600b8101544211611c285760058101908154916127109660026119378961191360078701548861305d565b04996119216005548c61305d565b04996119318b6104bf838a6133b1565b966133b1565b9960ff191617905561194b876008546133b1565b60085554956003820196875460005260148a5261196e6040600020918254612e55565b9055865480600052600e8a5260ff60406000205416600281101561074757611b85575050863410611b4757600080809386600283950154165af16119b06135c4565b5015611b0257843411611aa7575b6119c783613685565b5416928360005260118552604060002090600182016119ec81548015611a9d57612ded565b905542600683015560028201611a028154612ded565b9055815490600a8201809211610659576000805160206137cb833981519152957f79c012a0cfae660e09134956bc432c8497ec80e86a3a108d130e8b3fca52b3ad887f040cee90ee4799897c30ca04e5feb6fa43dbba9b6d084b4b257cdafd84ba013e95819561035290818111600014611a94575080915b55604051908152a2604051908152a25491610644836133be565b90508091611a7a565b61023f8555612ded565b6000808080611ab68934612e55565b335af1611ac16135c4565b506119be5760405162461bcd60e51b8152600481018790526014602482015273115e18d95cdcc81c995d1d5c9b8819985a5b195960621b6044820152606490fd5b60405162461bcd60e51b815260048101879052601960248201527f5472616e7366657220746f206c656e646572206661696c6564000000000000006044820152606490fd5b60405162461bcd60e51b8152600481018990526016602482015275125b9cdd59999a58da595b9d081c995c185e5b595b9d60521b6044820152606490fd5b9290919234611bd85790611bb391600052600e8a528560028160406000205460081c169501541633856134cf565b80611bc0575b50506119be565b611bd19184600754169033906134cf565b8680611bb9565b60405162461bcd60e51b8152600481018b9052602260248201527f455448206e6f74206e656564656420666f722045524332302072657061796d656044820152611b9d60f21b6064820152608490fd5b60405162461bcd60e51b815260048101889052600c60248201526b131bd85b88195e1c1a5c995960a21b6044820152606490fd5b60405162461bcd60e51b815260048101869052601760248201527f4f6e6c7920626f72726f7765722063616e2072657061790000000000000000006044820152606490fd5b3461026457611caf36612b24565b611cb7612db5565b6103e88211611cea5780610e10611cd79210159081611cdc575b50613456565b600655005b62093a809150111583611cd1565b60405162461bcd60e51b815260206004820152600c60248201526b08ccaca40e8dede40d0d2ced60a31b6044820152606490fd5b612c3c565b60208060031936011261026457600435611d3b6135a1565b80600052601382526040600020611d5860ff6007830154166135f4565b60028101544211611e9d57600681019081549081341115611e6a5760048101543410611e315760050180549091906001600160a01b031680611dde575b5050336001600160601b0360a01b8254161790553490557f0e54eff26401bf69b81b26f60bd85ef47f5d85275c1d268d84f68d6897431c47604051923484523393a36001600055005b600080809381935af1611def6135c4565b5015611dfc578480611d95565b60405162461bcd60e51b815260048101859052600d60248201526c1499599d5b990819985a5b1959609a1b6044820152606490fd5b60405162461bcd60e51b81526004810186905260116024820152704269642062656c6f77207265736572766560781b6044820152606490fd5b60405162461bcd60e51b815260048101869052600b60248201526a42696420746f6f206c6f7760a81b6044820152606490fd5b60405162461bcd60e51b815260048101849052600d60248201526c105d58dd1a5bdb88195b991959609a1b6044820152606490fd5b3461026457600036600319011261026457600254600019810181811161065957611efb90613784565b9060009060015b818110611f40575050611f1481613784565b9160005b828110611f2d57604051806117298682612c5a565b8061173b611f3b92846137b6565b611f18565b80600052600d60205260ff600c604060002001541660068110156107475715611f72575b611f6d90612ded565b611f02565b91611f858184611746611f6d94886137b6565b929050611f64565b3461026457600036600319011261026457602060405160788152f35b34610264576000366003190112610264576020600854604051908152f35b34610264576000366003190112610264576001546040516001600160a01b039091168152602090f35b34610264576000366003190112610264576020600254604051908152f35b602080600319360112610264576004356120266135a1565b61202e613580565b80600052600d82526040600020906001820160018060a01b0380825416612056811515613183565b600c85019081549060ff82166006811015610747576122bb57331461227f576002860180546001600160a01b0319163317905560ff1916600117905542600a850181905560088501546120a8916133b1565b600b85015533600052601085526120c3836040600020613495565b60058401600381549501948554600052601487526120e760406000209182546133b1565b9055845480600052600e875260ff604060002054166002811015610747576121f2575054918234036121b657600080938193829354165af16121276135c4565b501561217157906000805160206137cb833981519152915b33907f15feab5d3eb17171632762cf769709a315dd15f487a556c0dfb8a259c8f186cc600080a35491610644836133be565b60405162461bcd60e51b815260048101849052601b60248201527f5472616e7366657220746f20626f72726f776572206661696c656400000000006044820152606490fd5b60405162461bcd60e51b8152600481018790526014602482015273125b98dbdc9c9958dd0811551208185b5bdd5b9d60621b6044820152606490fd5b95949392959190913461223a57916000805160206137cb83398151915295969161223593600052600e88528060406000205460081c1692541690549133906134cf565b61213f565b60405162461bcd60e51b815260048101879052601d60248201527f455448206e6f74206e656564656420666f72204552433230206c6f616e0000006044820152606490fd5b60405162461bcd60e51b815260048101889052601460248201527321b0b73737ba10333ab7321037bbb7103637b0b760611b6044820152606490fd5b60405162461bcd60e51b81526004810189905260126024820152714c6f616e206e6f7420617661696c61626c6560701b6044820152606490fd5b346102645760003660031901126102645761230e612db5565b612316613580565b6001805460ff60a01b1916600160a01b1790556040513381527f62e78cea01bee320cd4e420270b5ea74000d11b0c9f74754ebdbfc544b05a25890602090a1005b346102645760203660031901126102645760206123756004356133be565b604051908152f35b34610264576020366003190112610264576001600160a01b0361239e612b3a565b16600052601160205260e06040600020805490600181015490600281015460038201546004830154916006600585015494015494604051968752602087015260408601526060850152608084015260a083015260c0820152f35b3461026457600036600319011261026457602060405160968152f35b346102645760203660031901126102645760043560005260146020526020604060002054604051908152f35b34610264576000366003190112610264576020600354604051908152f35b3461026457600036600319011261026457612477612db5565b600180546001600160a01b031981169091556000906001600160a01b03167f8be0079c531659141344cd1fd0a4f28419497f9722a3daafe3b4186f6b6457e08280a3005b34610264576020366003190112610264576001600160a01b036124dc612b3a565b166000526012602052602060ff604060002054166040519015158152f35b34610264576000366003190112610264576020600654604051908152f35b3461026457600036600319011261026457602060ff60015460a01c166040519015158152f35b3461026457608036600319011261026457612557612b3a565b67ffffffffffffffff9060243582811161026457612579903690600401612bf5565b906044359060ff821680920361026457606435916001600160a01b0383168303610264576125a5612db5565b6001600160a01b03821615612867576001600160a01b0383161561282257604051906125d082612b7e565b60018252602082019060018060a01b0384168252604083019086825260608401526001608084015260018060a01b03851660a0840152600354600052600e60205260406000209183519060028210156107475760ff845491610100600160a81b03905160081b169216906affffffffffffffffffffff60a81b161717825551958651908111611046576126666001830154612c95565b601f81116127db575b506020601f82116001146127625791816002926126f995946127529a600092612757575b50508160011b916000199060031b1c19161760018201555b606083015191018054608084015160a0909401516001600160b01b031990911660ff939093169290921792151560081b61ff00169290921760109190911b62010000600160b01b0316179055565b7f98878a34ea3245957b330457c591928f2908c8b254e8b972075101360fca276b612737600354948593604051928392604084526040840190612d75565b6001600160a01b0396871660208401529516940390a3612ded565b600355005b015190508a80612693565b6001830160005260206000209760005b601f19841681106127c3575082612752996126f9969593600193600296601f198116106127aa575b505050811b0160018201556126ab565b015160001960f88460031b161c191690558a808061279a565b828201518a5560019099019860209283019201612772565b600183016000526020600020601f830160051c81016020841061281b575b601f830160051c8201811061280f57505061266f565b600081556001016127f9565b50806127f9565b60405162461bcd60e51b815260206004820152601a60248201527f496e76616c6964207072696365206665656420616464726573730000000000006044820152606490fd5b60405162461bcd60e51b815260206004820152601860248201527f496e76616c696420636f6e7472616374206164647265737300000000000000006044820152606490fd5b34610264576000366003190112610264576020600554604051908152f35b34610264576000366003190112610264576020600b54604051908152f35b34610264576020366003190112610264576040612906600435613203565b825191151582526020820152f35b346102645760003660031901126102645761292d612db5565b60008080806008548160085560018060a01b03600754165af161294e6135c4565b501561295657005b60405162461bcd60e51b8152602060048201526015602482015274119959481dda5d1a191c985dd85b0819985a5b1959605a1b6044820152606490fd5b34610264576000366003190112610264576007546040516001600160a01b039091168152602090f35b34610264576000366003190112610264576129d5612db5565b60015460ff8160a01c1615612a1c5760ff60a01b19166001556040513381527f5db9ee0a495bf2e6ff9c91a7834c1ba4fdd244a5e8aa4e537bd38aeae4b073aa90602090a1005b604051638dfc202b60e01b8152600490fd5b3461026457604036600319011261026457612a47612b3a565b6001600160a01b03166000908152601060205260409020805460243591908210156102645760209161099091612b50565b34610264576000366003190112610264576020600a54604051908152f35b34610264576000366003190112610264576020604051610bb88152f35b34610264576000366003190112610264576020600c54604051908152f35b34610264576020612375612ae436612b24565b906130a1565b346102645760003660031901126102645760206040516301e133808152f35b34610264576000366003190112610264578061012c60209252f35b6040906003190112610264576004359060243590565b600435906001600160a01b038216820361026457565b8054821015612b685760005260206000200190600090565b634e487b7160e01b600052603260045260246000fd5b60c0810190811067ffffffffffffffff82111761104657604052565b610240810190811067ffffffffffffffff82111761104657604052565b90601f8019910116810190811067ffffffffffffffff82111761104657604052565b67ffffffffffffffff811161104657601f01601f191660200190565b81601f8201121561026457803590612c0c82612bd9565b92612c1a6040519485612bb7565b8284526020838301011161026457816000926020809301838601378301015290565b34610264576000366003190112610264576020604051620151808152f35b6020908160408183019282815285518094520193019160005b828110612c81575050505090565b835185529381019392810192600101612c73565b90600182811c92168015612cc5575b6020831014612caf57565b634e487b7160e01b600052602260045260246000fd5b91607f1691612ca4565b9060405191826000825492612ce384612c95565b908184526001948581169081600014612d525750600114612d0f575b5050612d0d92500383612bb7565b565b9093915060005260209081600020936000915b818310612d3a575050612d0d93508201013880612cff565b85548884018501529485019487945091830191612d22565b915050612d0d94506020925060ff191682840152151560051b8201013880612cff565b919082519283825260005b848110612da1575050826000602080949584010152601f8019910116010190565b602081830181015184830182015201612d80565b6001546001600160a01b03163303612dc957565b60405163118cdaa760e01b8152336004820152602490fd5b60028210156107475752565b60001981146106595760010190565b15612e0357565b60405162461bcd60e51b8152602060048201526013602482015272151bdad95b881b9bdd081cdd5c1c1bdc9d1959606a1b6044820152606490fd5b519069ffffffffffffffffffff8216820361026457565b9190820391821161065957565b9060009182526020600e815260408084208151612e7e81612b7e565b612ee06002835493612e9360ff861685612de1565b60018060a01b03809560081c1687850152612eb060018201612ccf565b8685015201549160ff831660608201528360a060ff8560081c16151592836080820152019360101c168352612dfc565b5116801561304d579060a060049392825194858092633fabe5a360e21b82525afa9485156130425780938196612fea575b50831315612fa7578415612f6f57610e10612f2c8642612e55565b11612f375750509190565b60649250519062461bcd60e51b825260048201526012602482015271141c9a58d94819185d18481d1bdbc81bdb1960721b6044820152fd5b60649250519062461bcd60e51b825260048201526012602482015271526f756e64206e6f7420636f6d706c65746560701b6044820152fd5b60649250519062461bcd60e51b82526004820152601960248201527f496e76616c69642070726963652066726f6d206f7261636c65000000000000006044820152fd5b9350945060a0833d821161303a575b8161300660a09383612bb7565b810103126130365761301783612e3e565b508183015161302d608060608601519501612e3e565b50929438612f11565b8480fd5b3d9150612ff9565b9051903d90823e3d90fd5b5050509050642e90edd000904290565b8181029291811591840414171561065957565b60ff16604d811161065957600a0a90565b811561308b570490565b634e487b7160e01b600052601260045260246000fd5b906130ab82612e62565b5091600052600e602052604060002091604051916130c883612b7e565b60088454600260ff966130dd88841688612de1565b6001600160a01b0392841c831660208801526130fb60018201612ccf565b604088015201549460a08787169260608301978489528981871c161515608085015260101c16910152111560001461314f579261313e6131469261314c9561305d565b925116613070565b90613081565b90565b6131689161315c9161305d565b61314684845116613070565b90518216600719019182116106595761314661314c92613070565b1561318a57565b60405162461bcd60e51b8152602060048201526013602482015272131bd85b88191bd95cc81b9bdd08195e1a5cdd606a1b6044820152606490fd5b156131cc57565b60405162461bcd60e51b815260206004820152600f60248201526e4c6f616e206e6f742061637469766560881b6044820152606490fd5b906000918252600d602052604082209160405161321f81612b9a565b8354815260018060a01b038060018601541660208301908152816002870154166040840152600386015492606081019384526004870154906080810191825260058801549360a0820194855260068901549360c0830194855260078a015460e084015260088a015461010084015260098a0154610120840152600a8a0154610140840152600b8a015461016084015260ff600c8b01541692610180810193600681101561339d57845261331c929190610220601160108e6132e2600d8201612ccf565b6101a0860152600e8101546101c086015260ff600f8201541615156101e086015201549d61020084019e8f52015491015251161515613183565b51600681101561338957916133449161333b600161334e9695146131c5565b519051906130a1565b92519051906130a1565b9160648202918083046064149015171561337557509061336d91613081565b915182109190565b634e487b7160e01b81526011600452602490fd5b634e487b7160e01b86526021600452602486fd5b634e487b7160e01b8a52602160045260248afd5b9190820180921161065957565b600090815260146020526040812054600a54908180821161340e57506127109283820291808304851490151715613375575061314c92916133fe91613081565b9061045960095492600b5461305d565b61341791612e55565b9161343361342a600954600b54906133b1565b93600c5461305d565b90612710928303928311613375575061314c929161345091613081565b906133b1565b1561345d57565b60405162461bcd60e51b815260206004820152601060248201526f24b73b30b634b210323ab930ba34b7b760811b6044820152606490fd5b805468010000000000000000811015611046576134b791600182018155612b50565b819291549060031b91821b91600019901b1916179055565b6040516323b872dd60e01b60208201526001600160a01b03928316602482015292909116604483015260648083019390935291815260a081019181831067ffffffffffffffff84111761104657612d0d926040525b906000602091828151910182855af115611186576000513d61357757506001600160a01b0381163b155b6135555750565b604051635274afe760e01b81526001600160a01b039091166004820152602490fd5b6001141561354e565b60ff60015460a01c1661358f57565b60405163d93c066560e01b8152600490fd5b6002600054146135b2576002600055565b604051633ee5aeb560e01b8152600490fd5b3d156135ef573d906135d582612bd9565b916135e36040519384612bb7565b82523d6000602084013e565b606090565b156135fb57565b60405162461bcd60e51b815260206004820152601260248201527141756374696f6e206e6f742061637469766560701b6044820152606490fd5b60405163a9059cbb60e01b60208201526001600160a01b039092166024830152604480830193909352918152608081019167ffffffffffffffff83118284101761104657612d0d92604052613524565b6000908152600d602052604081206004810154808352600e60205260ff604084205416600281101561375857613727575060018101546006909101548291829182916001600160a01b03165af16136da6135c4565b50156136e257565b60405162461bcd60e51b815260206004820152601860248201527f436f6c6c61746572616c2072657475726e206661696c656400000000000000006044820152606490fd5b90600683604093612d0d9552600e60205260018060a01b03938491205460081c169260018301541691015491613635565b634e487b7160e01b84526021600452602484fd5b67ffffffffffffffff81116110465760051b60200190565b9061378e8261376c565b61379b6040519182612bb7565b82815280926137ac601f199161376c565b0190602036910137565b8051821015612b685760209160051b01019056fe41e376fd99913dea7fda140f5c0bd997515b1a181acc58737320322548ec6e72a2646970667358221220a63f309814ccb56d9e6b8f1e6cb958930eca064a375cd4d9fba86a8443aff89664736f6c63430008140033",
  "linkReferences": {},
  "deployedLinkReferences": {}
}