{
  "_format": "hh-sol-artifact-1",
  "contractName": "TokenSwap",
  "sourceName": "contracts/TokenSwap.sol",
  "abi": [
    {
      "inputs": [
        {
          "internalType": "address",
          "name": "_loanChainAddress",
          "type": "address"
        }
      ],
      "stateMutability": "nonpayable",
      "type": "constructor"
    },
    {
      "inputs": [
        {
          "internalType": "address",
          "name": "owner",
          "type": "address"
        }
      ],
      "name": "OwnableInvalidOwner",
      "type": "error"
    },
    {
      "inputs": [
        {
          "internalType": "address",
          "name": "account",
          "type": "address"
        }
      ],
      "name": "OwnableUnauthorizedAccount",
      "type": "error"
    },
    {
      "inputs": [],
      "name": "ReentrancyGuardReentrantCall",
      "type": "error"
    },
    {
      "inputs": [
        {
          "internalType": "address",
          "name": "token",
          "type": "address"
        }
      ],
      "name": "SafeERC20FailedOperation",
      "type": "error"
    },
    {
      "anonymous": false,
      "inputs": [
        {
          "indexed": false,
          "internalType": "uint256",
          "name": "oldRate",
          "type": "uint256"
        },
        {
          "indexed": false,
          "internalType": "uint256",
          "name": "newRate",
          "type": "uint256"
        }
      ],
      "name": "FeeRateUpdated",
      "type": "event"
    },
    {
      "anonymous": false,
      "inputs": [
        {
          "indexed": true,
          "internalType": "enum TokenType",
          "name": "token",
          "type": "uint8"
        },
        {
          "indexed": false,
          "internalType": "uint256",
          "name": "amount",
          "type": "uint256"
        }
      ],
      "name": "FeesWithdrawn",
      "type": "event"
    },
    {
      "anonymous": false,
      "inputs": [
        {
          "indexed": true,
          "internalType": "address",
          "name": "previousOwner",
          "type": "address"
        },
        {
          "indexed": true,
          "internalType": "address",
          "name": "newOwner",
          "type": "address"
        }
      ],
      "name": "OwnershipTransferred",
      "type": "event"
    },
    {
      "anonymous": false,
      "inputs": [
        {
          "indexed": true,
          "internalType": "address",
          "name": "user",
          "type": "address"
        },
        {
          "indexed": true,
          "internalType": "enum TokenType",
          "name": "fromToken",
          "type": "uint8"
        },
        {
          "indexed": true,
          "internalType": "enum TokenType",
          "name": "toToken",
          "type": "uint8"
        },
        {
          "indexed": false,
          "internalType": "uint256",
          "name": "amountIn",
          "type": "uint256"
        },
        {
          "indexed": false,
          "internalType": "uint256",
          "name": "amountOut",
          "type": "uint256"
        },
        {
          "indexed": false,
          "internalType": "uint256",
          "name": "fee",
          "type": "uint256"
        }
      ],
      "name": "Swap",
      "type": "event"
    },
    {
      "inputs": [],
      "name": "MAX_FEE_RATE",
      "outputs": [
        {
          "internalType": "uint256",
          "name": "",
          "type": "uint256"
        }
      ],
      "stateMutability": "view",
      "type": "function"
    },
    {
      "inputs": [
        {
          "internalType": "enum TokenType",
          "name": "_token",
          "type": "uint8"
        },
        {
          "internalType": "uint256",
          "name": "_amount",
          "type": "uint256"
        }
      ],
      "name": "addLiquidity",
      "outputs": [],
      "stateMutability": "payable",
      "type": "function"
    },
    {
      "inputs": [
        {
          "internalType": "enum TokenType",
          "name": "",
          "type": "uint8"
        }
      ],
      "name": "collectedFees",
      "outputs": [
        {
          "internalType": "uint256",
          "name": "",
          "type": "uint256"
        }
      ],
      "stateMutability": "view",
      "type": "function"
    },
    {
      "inputs": [
        {
          "internalType": "enum TokenType",
          "name": "_fromToken",
          "type": "uint8"
        },
        {
          "internalType": "enum TokenType",
          "name": "_toToken",
          "type": "uint8"
        },
        {
          "internalType": "uint256",
          "name": "_amountIn",
          "type": "uint256"
        }
      ],
      "name": "getSwapQuote",
      "outputs": [
        {
          "internalType": "uint256",
          "name": "amountOut",
          "type": "uint256"
        },
        {
          "internalType": "uint256",
          "name": "fee",
          "type": "uint256"
        },
        {
          "internalType": "uint256",
          "name": "exchangeRate",
          "type": "uint256"
        }
      ],
      "stateMutability": "view",
      "type": "function"
    },
    {
      "inputs": [
        {
          "internalType": "enum TokenType",
          "name": "_token",
          "type": "uint8"
        }
      ],
      "name": "getTokenBalance",
      "outputs": [
        {
          "internalType": "uint256",
          "name": "",
          "type": "uint256"
        }
      ],
      "stateMutability": "view",
      "type": "function"
    },
    {
      "inputs": [],
      "name": "loanChain",
      "outputs": [
        {
          "internalType": "contract ILoanChainV2",
          "name": "",
          "type": "address"
        }
      ],
      "stateMutability": "view",
      "type": "function"
    },
    {
      "inputs": [],
      "name": "owner",
      "outputs": [
        {
          "internalType": "address",
          "name": "",
          "type": "address"
        }
      ],
      "stateMutability": "view",
      "type": "function"
    },
    {
      "inputs": [],
      "name": "renounceOwnership",
      "outputs": [],
      "stateMutability": "nonpayable",
      "type": "function"
    },
    {
      "inputs": [
        {
          "internalType": "uint256",
          "name": "_feeRate",
          "type": "uint256"
        }
      ],
      "name": "setSwapFeeRate",
      "outputs": [],
      "stateMutability": "nonpayable",
      "type": "function"
    },
    {
      "inputs": [
        {
          "components": [
            {
              "internalType": "enum TokenType",
              "name": "fromToken",
              "type": "uint8"
            },
            {
              "internalType": "enum TokenType",
              "name": "toToken",
              "type": "uint8"
            },
            {
              "internalType": "uint256",
              "name": "amountIn",
              "type": "uint256"
            },
            {
              "internalType": "uint256",
              "name": "minAmountOut",
              "type": "uint256"
            },
            {
              "internalType": "address",
              "name": "to",
              "type": "address"
            }
          ],
          "internalType": "struct TokenSwap.SwapParams",
          "name": "params",
          "type": "tuple"
        }
      ],
      "name": "swap",
      "outputs": [],
      "stateMutability": "payable",
      "type": "function"
    },
    {
      "inputs": [],
      "name": "swapFeeRate",
      "outputs": [
        {
          "internalType": "uint256",
          "name": "",
          "type": "uint256"
        }
      ],
      "stateMutability": "view",
      "type": "function"
    },
    {
      "inputs": [
        {
          "internalType": "address",
          "name": "newOwner",
          "type": "address"
        }
      ],
      "name": "transferOwnership",
      "outputs": [],
      "stateMutability": "nonpayable",
      "type": "function"
    },
    {
      "inputs": [
        {
          "internalType": "enum TokenType",
          "name": "_token",
          "type": "uint8"
        }
      ],
      "name": "withdrawFees",
      "outputs": [],
      "stateMutability": "nonpayable",
      "type": "function"
    },
    {
      "stateMutability": "payable",
      "type": "receive"
    }
  ],
  "bytecode": "0x60803461011e57601f61109c38819003918201601f19168301916001600160401b038311848410176101235780849260209460405283398101031261011e57516001600160a01b038082169182900361011e57600160005533156101055760018054336001600160a01b0319808316821790935560405192939091167f8be0079c531659141344cd1fd0a4f28419497f9722a3daafe3b4186f6b6457e0600080a3601e60035582156100c357506002541617600255604051610f62908161013a8239f35b62461bcd60e51b815260206004820152601960248201527f496e76616c6964204c6f616e436861696e2061646472657373000000000000006044820152606490fd5b604051631e4fbdf760e01b815260006004820152602490fd5b600080fd5b634e487b7160e01b600052604160045260246000fdfe60806040818152600480361015610021575b505050361561001f57600080fd5b005b600092833560e01c9081633a04801d146109d257508063715018a6146109755780638cd81c00146108da5780638da5cb5b146108b157806391ceb3eb1461088157806392f6576e14610864578063a827396c146105e6578063b66f7bdd14610527578063d1154ff014610490578063d34ecb0314610463578063e9fc435914610187578063f2fde38b146100f05763f9b431720361001157346100ec5760203660031901126100ec57359160058310156100e957506100e16020926109ee565b549051908152f35b80fd5b8280fd5b5090346100ec5760203660031901126100ec576001600160a01b0382358181169391929084900361018357610123610a1d565b831561016d575050600154826bffffffffffffffffffffffff60a01b821617600155167f8be0079c531659141344cd1fd0a4f28419497f9722a3daafe3b4186f6b6457e08380a380f35b51631e4fbdf760e01b8152908101849052602490fd5b8480fd5b509060a03660031901126100ec5760028354146104565760028355813590600582101561045257602492833593600585101561044e576101c985851415610a49565b60443592831561040c576001600160a01b0392836101e5610b8c565b16156103d7578151632a09ce5b60e21b81529261020482850188610ac6565b61021081850189610ac6565b856044850152606084606481305afa9485156103cd5789948a9661038f575b50606435851061035957876102c4575061024a863414610be6565b61025c610255610b8c565b858a610ceb565b610265886109ee565b908154928684018094116102b357505055519283526020830152604082015233907f4ad053260496f30b8be00ad73d48220e22d77fe135b6cc8b1bf891d5eb1a2ffc90606090a46001815580f35b634e487b7160e01b8b526011905289fd5b6102ce3415610ba2565b600254845163d42c4c5360e01b81529060c09082908590829086166102f58983018f610ac6565b5afa90811561034f57918891610317938d9161031c575b503091339116610c28565b61024a565b61033d915060c03d8111610348575b6103358183610a8e565b810190610ad3565b50505050503861030c565b503d61032b565b85513d8d823e3d90fd5b506011906020606494519362461bcd60e51b8552840152820152700a6d8d2e0e0c2ceca40e8dede40d0d2ced607b1b6044820152fd5b945094506060843d82116103c5575b816103ab60609383610a8e565b810103126103c15760208451940151943861022f565b8880fd5b3d915061039e565b83513d8b823e3d90fd5b6011836020606494519362461bcd60e51b855284015282015270125b9d985b1a59081c9958da5c1a595b9d607a1b6044820152fd5b606492916020601792519362461bcd60e51b85528401528201527f416d6f756e74206d75737420626520706f7369746976650000000000000000006044820152fd5b8580fd5b8380fd5b51633ee5aeb560e01b8152fd5b50503461048c578160031936011261048c5760025490516001600160a01b039091168152602090f35b5080fd5b50346100ec5760203660031901126100ec578035906104ad610a1d565b61012c82116104f05750907f14914da2bf76024616fbe1859783fcd4dbddcb179b1f3a854949fbf920dcb95791600354908060035582519182526020820152a180f35b606490602084519162461bcd60e51b8352820152601160248201527008ccaca40e4c2e8ca40e8dede40d0d2ced607b1b6044820152fd5b50346100ec5760203660031901126100ec5780359160058310156104525761054d610a1d565b610556836109ee565b549182156105ae57507f4a9b07307c301cee29619e4721986b177d98a138d648964ca3ec3b097c67c048916020918561058e866109ee565b556001546105a6906001600160a01b03168387610ceb565b51908152a280f35b6020606492519162461bcd60e51b835282015260136024820152724e6f206665657320746f20776974686472617760681b6044820152fd5b5091903461048c57606036600319011261048c57823560058110156100ec57602480359160058310156101835761061f83821415610a49565b6002548451633627a30760e21b808252949093916001600160a01b03169061064989860185610ac6565b60209586868581865afa95861561082b578996610835575b5087519081526106738a820183610ac6565b86818581865afa96871561082b5789976107f7575b5050865163d42c4c5360e01b80825290946106a6908b870190610ac6565b60c09283868681845afa9586156107ed57908b92918b976107c0575b5084929186916106dc8c5196879586948552840190610ac6565b5afa9182156107b65761072a928792610725928b92610793575b505061071f61071961070a89604435610b32565b61071389610b5b565b90610b6c565b91610b5b565b90610b32565b610b6c565b9561271061073a60035489610b32565b049788880397881161078357505050916107256107639261075e61077f9695610b5b565b610b32565b9051938493846040919493926060820195825260208201520152565b0390f35b634e487b7160e01b825260119052fd5b6107a99250803d10610348576103358183610a8e565b50505091505038806106f6565b87513d8a823e3d90fd5b86919750916107dd869493853d8711610348576103358183610a8e565b50505091505097915091926106c2565b89513d8c823e3d90fd5b9080929750813d8311610824575b61080f8183610a8e565b810103126108205751943880610688565b8780fd5b503d610805565b88513d8b823e3d90fd5b9095508681813d831161085d575b61084d8183610a8e565b810103126103c157519438610661565b503d610843565b50503461048c578160031936011261048c576020905161012c8152f35b50346100ec5760203660031901126100ec57359160058310156100e957506108aa602092610e50565b9051908152f35b50503461048c578160031936011261048c5760015490516001600160a01b039091168152602090f35b50816003193601126100ec57803590600582101561045257602435916108fe610a1d565b8061091457505061091191503414610be6565b80f35b60c061094c916109243415610ba2565b602460018060a01b039485600254168851958694859363d42c4c5360e01b8552840190610ac6565b5afa90811561096b576109119450859161031c57503091339116610c28565b84513d87823e3d90fd5b83346100e957806003193601126100e95761098e610a1d565b600180546001600160a01b0319811690915581906001600160a01b03167f8be0079c531659141344cd1fd0a4f28419497f9722a3daafe3b4186f6b6457e08280a380f35b84903461048c578160031936011261048c576020906003548152f35b6005811015610a07576000526004602052604060002090565b634e487b7160e01b600052602160045260246000fd5b6001546001600160a01b03163303610a3157565b60405163118cdaa760e01b8152336004820152602490fd5b15610a5057565b60405162461bcd60e51b815260206004820152601660248201527521b0b73737ba1039bbb0b81039b0b6b2903a37b5b2b760511b6044820152606490fd5b90601f8019910116810190811067ffffffffffffffff821117610ab057604052565b634e487b7160e01b600052604160045260246000fd5b906005821015610a075752565b91908260c0910312610b2d5781516001600160a01b0381168103610b2d579160208101516005811015610b2d5791604082015160ff81168103610b2d579160608101518015158103610b2d579160a0608083015192015190565b600080fd5b81810292918115918404141715610b4557565b634e487b7160e01b600052601160045260246000fd5b60ff16604d8111610b4557600a0a90565b8115610b76570490565b634e487b7160e01b600052601260045260246000fd5b6084356001600160a01b0381168103610b2d5790565b15610ba957565b60405162461bcd60e51b8152602060048201526015602482015274139bc8115512081cda1bdd5b19081899481cd95b9d605a1b6044820152606490fd5b15610bed57565b60405162461bcd60e51b815260206004820152601360248201527208aa89040c2dadeeadce840dad2e6dac2e8c6d606b1b6044820152606490fd5b6040516323b872dd60e01b60208201526001600160a01b03928316602482015292909116604483015260648083019390935291815260a081019181831067ffffffffffffffff841117610ab057610c8192604052610c83565b565b906000602091828151910182855af115610cdf576000513d610cd657506001600160a01b0381163b155b610cb45750565b604051635274afe760e01b81526001600160a01b039091166004820152602490fd5b60011415610cad565b6040513d6000823e3d90fd5b9190916005811015610a075780610d9c575060008080809481945af1903d15610d96573d9067ffffffffffffffff8211610d825760405191610d37601f8201601f191660200184610a8e565b825260203d92013e5b15610d4757565b60405162461bcd60e51b8152602060048201526013602482015272115512081d1c985b9cd9995c8819985a5b1959606a1b6044820152606490fd5b634e487b7160e01b81526041600452602490fd5b50610d40565b60025460405163d42c4c5360e01b8152936001600160a01b0392909160c09186916024918391871690610dd3906004840190610ac6565b5afa938415610cdf57600094610e2b575b50816040519363a9059cbb60e01b6020860152166024840152604483015260448252608082019282841067ffffffffffffffff851117610ab057610c819360405216610c83565b610e4491945060c03d8111610348576103358183610a8e565b50505050509238610de4565b6005811015610a075780610e6357504790565b60025460405163d42c4c5360e01b81526001600160a01b0392909160c09183916024918391871690610e99906004840190610ac6565b5afa8015610cdf57602091600091610f09575b506024604051809481936370a0823160e01b8352306004840152165afa908115610cdf57600091610edb575090565b906020823d8211610f01575b81610ef460209383610a8e565b810103126100e957505190565b3d9150610ee7565b610f21915060c03d8111610348576103358183610a8e565b505050505038610eac56fea26469706673582212209adf056f0aad735b56682c1ef8a4d33f0ec2430fc72fb5c6b78f9ace7e2d36d664736f6c63430008140033",
  "linkReferences": {},
  "deployedLinkReferences": {}
}