{
  "_format": "hh-sol-artifact-1",
  "contractName": "LoanVerseV4",
  "sourceName": "contracts/LoanVerseV4.sol",
  "abi": [
    {
      "inputs": [],
      "stateMutability": "nonpayable",
      "type": "constructor"
    },
    {
      "inputs": [],
      "name": "EnforcedPause",
      "type": "error"
    },
    {
      "inputs": [],
      "name": "ExpectedPause",
      "type": "error"
    },
    {
      "inputs": [
        {
          "internalType": "address",
          "name": "owner",
          "type": "address"
        }
      ],
      "name": "OwnableInvalidOwner",
      "type": "error"
    },
    {
      "inputs": [
        {
          "internalType": "address",
          "name": "account",
          "type": "address"
        }
      ],
      "name": "OwnableUnauthorizedAccount",
      "type": "error"
    },
    {
      "inputs": [],
      "name": "ReentrancyGuardReentrantCall",
      "type": "error"
    },
    {
      "inputs": [
        {
          "internalType": "address",
          "name": "token",
          "type": "address"
        }
      ],
      "name": "SafeERC20FailedOperation",
      "type": "error"
    },
    {
      "anonymous": false,
      "inputs": [
        {
          "indexed": true,
          "internalType": "address",
          "name": "borrower",
          "type": "address"
        },
        {
          "indexed": false,
          "internalType": "uint256",
          "name": "newScore",
          "type": "uint256"
        }
      ],
      "name": "CreditScoreUpdated",
      "type": "event"
    },
    {
      "anonymous": false,
      "inputs": [
        {
          "indexed": true,
          "internalType": "uint256",
          "name": "loanId",
          "type": "uint256"
        },
        {
          "indexed": false,
          "internalType": "enum LoanVerseV4.DefaultAction",
          "name": "action",
          "type": "uint8"
        }
      ],
      "name": "DefaultActionExecuted",
      "type": "event"
    },
    {
      "anonymous": false,
      "inputs": [
        {
          "indexed": true,
          "internalType": "uint256",
          "name": "loanId",
          "type": "uint256"
        },
        {
          "indexed": false,
          "internalType": "uint256",
          "name": "votingDeadline",
          "type": "uint256"
        }
      ],
      "name": "DefaultVotingStarted",
      "type": "event"
    },
    {
      "anonymous": false,
      "inputs": [
        {
          "indexed": true,
          "internalType": "uint256",
          "name": "loanId",
          "type": "uint256"
        },
        {
          "indexed": true,
          "internalType": "address",
          "name": "lender",
          "type": "address"
        },
        {
          "indexed": false,
          "internalType": "uint256",
          "name": "amount",
          "type": "uint256"
        }
      ],
      "name": "LenderPayout",
      "type": "event"
    },
    {
      "anonymous": false,
      "inputs": [
        {
          "indexed": true,
          "internalType": "uint256",
          "name": "loanId",
          "type": "uint256"
        }
      ],
      "name": "LoanCancelled",
      "type": "event"
    },
    {
      "anonymous": false,
      "inputs": [
        {
          "indexed": true,
          "internalType": "uint256",
          "name": "loanId",
          "type": "uint256"
        },
        {
          "indexed": true,
          "internalType": "address",
          "name": "lender",
          "type": "address"
        },
        {
          "indexed": false,
          "internalType": "uint256",
          "name": "amount",
          "type": "uint256"
        },
        {
          "indexed": false,
          "internalType": "uint256",
          "name": "totalFunded",
          "type": "uint256"
        }
      ],
      "name": "LoanContribution",
      "type": "event"
    },
    {
      "anonymous": false,
      "inputs": [
        {
          "indexed": true,
          "internalType": "uint256",
          "name": "loanId",
          "type": "uint256"
        }
      ],
      "name": "LoanDefaulted",
      "type": "event"
    },
    {
      "anonymous": false,
      "inputs": [
        {
          "indexed": true,
          "internalType": "uint256",
          "name": "loanId",
          "type": "uint256"
        },
        {
          "indexed": false,
          "internalType": "uint256",
          "name": "totalAmount",
          "type": "uint256"
        },
        {
          "indexed": false,
          "internalType": "uint256",
          "name": "lenderCount",
          "type": "uint256"
        }
      ],
      "name": "LoanFullyFunded",
      "type": "event"
    },
    {
      "anonymous": false,
      "inputs": [
        {
          "indexed": true,
          "internalType": "uint256",
          "name": "loanId",
          "type": "uint256"
        }
      ],
      "name": "LoanFullyRepaid",
      "type": "event"
    },
    {
      "anonymous": false,
      "inputs": [
        {
          "indexed": true,
          "internalType": "uint256",
          "name": "loanId",
          "type": "uint256"
        },
        {
          "indexed": false,
          "internalType": "uint256",
          "name": "amountFunded",
          "type": "uint256"
        },
        {
          "indexed": false,
          "internalType": "uint256",
          "name": "amountRequired",
          "type": "uint256"
        }
      ],
      "name": "LoanFundingFailed",
      "type": "event"
    },
    {
      "anonymous": false,
      "inputs": [
        {
          "indexed": true,
          "internalType": "uint256",
          "name": "loanId",
          "type": "uint256"
        },
        {
          "indexed": false,
          "internalType": "uint256",
          "name": "repaidAmount",
          "type": "uint256"
        },
        {
          "indexed": false,
          "internalType": "uint256",
          "name": "totalRepaid",
          "type": "uint256"
        }
      ],
      "name": "LoanRepayment",
      "type": "event"
    },
    {
      "anonymous": false,
      "inputs": [
        {
          "indexed": true,
          "internalType": "uint256",
          "name": "loanId",
          "type": "uint256"
        },
        {
          "indexed": true,
          "internalType": "address",
          "name": "borrower",
          "type": "address"
        },
        {
          "indexed": true,
          "internalType": "uint256",
          "name": "tokenId",
          "type": "uint256"
        },
        {
          "indexed": false,
          "internalType": "uint256",
          "name": "amount",
          "type": "uint256"
        },
        {
          "indexed": false,
          "internalType": "uint256",
          "name": "collateralAmount",
          "type": "uint256"
        },
        {
          "indexed": false,
          "internalType": "uint256",
          "name": "interestRate",
          "type": "uint256"
        },
        {
          "indexed": false,
          "internalType": "uint256",
          "name": "duration",
          "type": "uint256"
        },
        {
          "indexed": false,
          "internalType": "uint256",
          "name": "minContribution",
          "type": "uint256"
        },
        {
          "indexed": false,
          "internalType": "uint256",
          "name": "fundingDeadline",
          "type": "uint256"
        },
        {
          "indexed": false,
          "internalType": "string",
          "name": "ipfsHash",
          "type": "string"
        }
      ],
      "name": "LoanRequested",
      "type": "event"
    },
    {
      "anonymous": false,
      "inputs": [
        {
          "indexed": true,
          "internalType": "address",
          "name": "previousOwner",
          "type": "address"
        },
        {
          "indexed": true,
          "internalType": "address",
          "name": "newOwner",
          "type": "address"
        }
      ],
      "name": "OwnershipTransferred",
      "type": "event"
    },
    {
      "anonymous": false,
      "inputs": [
        {
          "indexed": false,
          "internalType": "address",
          "name": "account",
          "type": "address"
        }
      ],
      "name": "Paused",
      "type": "event"
    },
    {
      "anonymous": false,
      "inputs": [
        {
          "indexed": true,
          "internalType": "uint256",
          "name": "loanId",
          "type": "uint256"
        },
        {
          "indexed": true,
          "internalType": "address",
          "name": "lender",
          "type": "address"
        },
        {
          "indexed": false,
          "internalType": "uint256",
          "name": "amount",
          "type": "uint256"
        }
      ],
      "name": "RefundIssued",
      "type": "event"
    },
    {
      "anonymous": false,
      "inputs": [
        {
          "indexed": true,
          "internalType": "uint256",
          "name": "loanId",
          "type": "uint256"
        },
        {
          "indexed": false,
          "internalType": "uint256",
          "name": "riskScore",
          "type": "uint256"
        }
      ],
      "name": "RiskScoreUpdated",
      "type": "event"
    },
    {
      "anonymous": false,
      "inputs": [
        {
          "indexed": true,
          "internalType": "uint256",
          "name": "tokenId",
          "type": "uint256"
        },
        {
          "indexed": true,
          "internalType": "address",
          "name": "contractAddress",
          "type": "address"
        },
        {
          "indexed": false,
          "internalType": "string",
          "name": "symbol",
          "type": "string"
        },
        {
          "indexed": false,
          "internalType": "address",
          "name": "priceFeed",
          "type": "address"
        }
      ],
      "name": "TokenAdded",
      "type": "event"
    },
    {
      "anonymous": false,
      "inputs": [
        {
          "indexed": true,
          "internalType": "uint256",
          "name": "tokenId",
          "type": "uint256"
        }
      ],
      "name": "TokenDeactivated",
      "type": "event"
    },
    {
      "anonymous": false,
      "inputs": [
        {
          "indexed": false,
          "internalType": "address",
          "name": "account",
          "type": "address"
        }
      ],
      "name": "Unpaused",
      "type": "event"
    },
    {
      "anonymous": false,
      "inputs": [
        {
          "indexed": true,
          "internalType": "uint256",
          "name": "loanId",
          "type": "uint256"
        },
        {
          "indexed": true,
          "internalType": "address",
          "name": "lender",
          "type": "address"
        },
        {
          "indexed": false,
          "internalType": "enum LoanVerseV4.DefaultAction",
          "name": "action",
          "type": "uint8"
        },
        {
          "indexed": false,
          "internalType": "uint256",
          "name": "votingPower",
          "type": "uint256"
        }
      ],
      "name": "VoteCast",
      "type": "event"
    },
    {
      "inputs": [],
      "name": "DEFAULT_FUNDING_PERIOD",
      "outputs": [
        {
          "internalType": "uint256",
          "name": "",
          "type": "uint256"
        }
      ],
      "stateMutability": "view",
      "type": "function"
    },
    {
      "inputs": [],
      "name": "LIQUIDATION_THRESHOLD",
      "outputs": [
        {
          "internalType": "uint256",
          "name": "",
          "type": "uint256"
        }
      ],
      "stateMutability": "view",
      "type": "function"
    },
    {
      "inputs": [],
      "name": "MAX_INTEREST_RATE",
      "outputs": [
        {
          "internalType": "uint256",
          "name": "",
          "type": "uint256"
        }
      ],
      "stateMutability": "view",
      "type": "function"
    },
    {
      "inputs": [],
      "name": "MAX_LOAN_DURATION",
      "outputs": [
        {
          "internalType": "uint256",
          "name": "",
          "type": "uint256"
        }
      ],
      "stateMutability": "view",
      "type": "function"
    },
    {
      "inputs": [],
      "name": "MIN_COLLATERAL_RATIO",
      "outputs": [
        {
          "internalType": "uint256",
          "name": "",
          "type": "uint256"
        }
      ],
      "stateMutability": "view",
      "type": "function"
    },
    {
      "inputs": [],
      "name": "MIN_CREDIT_SCORE",
      "outputs": [
        {
          "internalType": "uint256",
          "name": "",
          "type": "uint256"
        }
      ],
      "stateMutability": "view",
      "type": "function"
    },
    {
      "inputs": [],
      "name": "MIN_LOAN_DURATION",
      "outputs": [
        {
          "internalType": "uint256",
          "name": "",
          "type": "uint256"
        }
      ],
      "stateMutability": "view",
      "type": "function"
    },
    {
      "inputs": [],
      "name": "PRICE_STALENESS_THRESHOLD",
      "outputs": [
        {
          "internalType": "uint256",
          "name": "",
          "type": "uint256"
        }
      ],
      "stateMutability": "view",
      "type": "function"
    },
    {
      "inputs": [],
      "name": "VOTING_PERIOD",
      "outputs": [
        {
          "internalType": "uint256",
          "name": "",
          "type": "uint256"
        }
      ],
      "stateMutability": "view",
      "type": "function"
    },
    {
      "inputs": [
        {
          "internalType": "address",
          "name": "_contractAddress",
          "type": "address"
        },
        {
          "internalType": "string",
          "name": "_symbol",
          "type": "string"
        },
        {
          "internalType": "uint8",
          "name": "_decimals",
          "type": "uint8"
        },
        {
          "internalType": "address",
          "name": "_priceFeedAddress",
          "type": "address"
        }
      ],
      "name": "addSupportedToken",
      "outputs": [],
      "stateMutability": "nonpayable",
      "type": "function"
    },
    {
      "inputs": [
        {
          "internalType": "address",
          "name": "",
          "type": "address"
        }
      ],
      "name": "authorizedRiskOracles",
      "outputs": [
        {
          "internalType": "bool",
          "name": "",
          "type": "bool"
        }
      ],
      "stateMutability": "view",
      "type": "function"
    },
    {
      "inputs": [
        {
          "internalType": "address",
          "name": "",
          "type": "address"
        },
        {
          "internalType": "uint256",
          "name": "",
          "type": "uint256"
        }
      ],
      "name": "borrowerLoans",
      "outputs": [
        {
          "internalType": "uint256",
          "name": "",
          "type": "uint256"
        }
      ],
      "stateMutability": "view",
      "type": "function"
    },
    {
      "inputs": [
        {
          "internalType": "uint256",
          "name": "_tokenId",
          "type": "uint256"
        },
        {
          "internalType": "uint256",
          "name": "_amount",
          "type": "uint256"
        }
      ],
      "name": "calculateUSDValue",
      "outputs": [
        {
          "internalType": "uint256",
          "name": "",
          "type": "uint256"
        }
      ],
      "stateMutability": "view",
      "type": "function"
    },
    {
      "inputs": [
        {
          "internalType": "uint256",
          "name": "_loanId",
          "type": "uint256"
        }
      ],
      "name": "cancelLoan",
      "outputs": [],
      "stateMutability": "nonpayable",
      "type": "function"
    },
    {
      "inputs": [],
      "name": "collectedFees",
      "outputs": [
        {
          "internalType": "uint256",
          "name": "",
          "type": "uint256"
        }
      ],
      "stateMutability": "view",
      "type": "function"
    },
    {
      "inputs": [
        {
          "internalType": "uint256",
          "name": "_loanId",
          "type": "uint256"
        },
        {
          "internalType": "uint256",
          "name": "_amount",
          "type": "uint256"
        }
      ],
      "name": "contributeLoan",
      "outputs": [],
      "stateMutability": "payable",
      "type": "function"
    },
    {
      "inputs": [
        {
          "internalType": "address",
          "name": "",
          "type": "address"
        }
      ],
      "name": "creditScores",
      "outputs": [
        {
          "internalType": "uint256",
          "name": "score",
          "type": "uint256"
        },
        {
          "internalType": "uint256",
          "name": "totalLoansCount",
          "type": "uint256"
        },
        {
          "internalType": "uint256",
          "name": "repaidLoansCount",
          "type": "uint256"
        },
        {
          "internalType": "uint256",
          "name": "defaultedLoansCount",
          "type": "uint256"
        },
        {
          "internalType": "uint256",
          "name": "totalBorrowed",
          "type": "uint256"
        },
        {
          "internalType": "uint256",
          "name": "totalRepaid",
          "type": "uint256"
        },
        {
          "internalType": "uint256",
          "name": "lastUpdated",
          "type": "uint256"
        }
      ],
      "stateMutability": "view",
      "type": "function"
    },
    {
      "inputs": [
        {
          "internalType": "uint256",
          "name": "_tokenId",
          "type": "uint256"
        }
      ],
      "name": "deactivateToken",
      "outputs": [],
      "stateMutability": "nonpayable",
      "type": "function"
    },
    {
      "inputs": [
        {
          "internalType": "uint256",
          "name": "",
          "type": "uint256"
        },
        {
          "internalType": "enum LoanVerseV4.DefaultAction",
          "name": "",
          "type": "uint8"
        }
      ],
      "name": "defaultVotes",
      "outputs": [
        {
          "internalType": "uint256",
          "name": "",
          "type": "uint256"
        }
      ],
      "stateMutability": "view",
      "type": "function"
    },
    {
      "inputs": [
        {
          "internalType": "uint256",
          "name": "_loanId",
          "type": "uint256"
        }
      ],
      "name": "executeDefaultAction",
      "outputs": [],
      "stateMutability": "nonpayable",
      "type": "function"
    },
    {
      "inputs": [],
      "name": "feeRecipient",
      "outputs": [
        {
          "internalType": "address",
          "name": "",
          "type": "address"
        }
      ],
      "stateMutability": "view",
      "type": "function"
    },
    {
      "inputs": [],
      "name": "getActiveLoanRequests",
      "outputs": [
        {
          "internalType": "uint256[]",
          "name": "",
          "type": "uint256[]"
        }
      ],
      "stateMutability": "view",
      "type": "function"
    },
    {
      "inputs": [
        {
          "internalType": "uint256",
          "name": "_tokenId",
          "type": "uint256"
        }
      ],
      "name": "getLatestPrice",
      "outputs": [
        {
          "internalType": "uint256",
          "name": "",
          "type": "uint256"
        },
        {
          "internalType": "uint256",
          "name": "",
          "type": "uint256"
        }
      ],
      "stateMutability": "view",
      "type": "function"
    },
    {
      "inputs": [
        {
          "internalType": "uint256",
          "name": "_loanId",
          "type": "uint256"
        }
      ],
      "name": "getLoanLenders",
      "outputs": [
        {
          "internalType": "address[]",
          "name": "",
          "type": "address[]"
        },
        {
          "internalType": "uint256[]",
          "name": "",
          "type": "uint256[]"
        }
      ],
      "stateMutability": "view",
      "type": "function"
    },
    {
      "inputs": [
        {
          "internalType": "uint256",
          "name": "",
          "type": "uint256"
        },
        {
          "internalType": "address",
          "name": "",
          "type": "address"
        }
      ],
      "name": "hasVoted",
      "outputs": [
        {
          "internalType": "bool",
          "name": "",
          "type": "bool"
        }
      ],
      "stateMutability": "view",
      "type": "function"
    },
    {
      "inputs": [
        {
          "internalType": "uint256",
          "name": "",
          "type": "uint256"
        },
        {
          "internalType": "address",
          "name": "",
          "type": "address"
        }
      ],
      "name": "lenderContributionIndex",
      "outputs": [
        {
          "internalType": "uint256",
          "name": "",
          "type": "uint256"
        }
      ],
      "stateMutability": "view",
      "type": "function"
    },
    {
      "inputs": [
        {
          "internalType": "address",
          "name": "",
          "type": "address"
        },
        {
          "internalType": "uint256",
          "name": "",
          "type": "uint256"
        }
      ],
      "name": "lenderLoans",
      "outputs": [
        {
          "internalType": "uint256",
          "name": "",
          "type": "uint256"
        }
      ],
      "stateMutability": "view",
      "type": "function"
    },
    {
      "inputs": [
        {
          "internalType": "uint256",
          "name": "",
          "type": "uint256"
        },
        {
          "internalType": "uint256",
          "name": "",
          "type": "uint256"
        }
      ],
      "name": "loanContributions",
      "outputs": [
        {
          "internalType": "address",
          "name": "lender",
          "type": "address"
        },
        {
          "internalType": "uint256",
          "name": "amount",
          "type": "uint256"
        },
        {
          "internalType": "bool",
          "name": "repaid",
          "type": "bool"
        }
      ],
      "stateMutability": "view",
      "type": "function"
    },
    {
      "inputs": [
        {
          "internalType": "uint256",
          "name": "",
          "type": "uint256"
        }
      ],
      "name": "loans",
      "outputs": [
        {
          "internalType": "uint256",
          "name": "id",
          "type": "uint256"
        },
        {
          "internalType": "address",
          "name": "borrower",
          "type": "address"
        },
        {
          "internalType": "uint256",
          "name": "tokenId",
          "type": "uint256"
        },
        {
          "internalType": "uint256",
          "name": "collateralTokenId",
          "type": "uint256"
        },
        {
          "internalType": "uint256",
          "name": "amount",
          "type": "uint256"
        },
        {
          "internalType": "uint256",
          "name": "amountFunded",
          "type": "uint256"
        },
        {
          "internalType": "uint256",
          "name": "collateralAmount",
          "type": "uint256"
        },
        {
          "internalType": "uint256",
          "name": "interestRate",
          "type": "uint256"
        },
        {
          "internalType": "uint256",
          "name": "duration",
          "type": "uint256"
        },
        {
          "internalType": "uint256",
          "name": "minContribution",
          "type": "uint256"
        },
        {
          "internalType": "uint256",
          "name": "fundingDeadline",
          "type": "uint256"
        },
        {
          "internalType": "uint256",
          "name": "createdAt",
          "type": "uint256"
        },
        {
          "internalType": "uint256",
          "name": "fundedAt",
          "type": "uint256"
        },
        {
          "internalType": "uint256",
          "name": "dueDate",
          "type": "uint256"
        },
        {
          "internalType": "enum LoanVerseV4.LoanStatus",
          "name": "status",
          "type": "uint8"
        },
        {
          "internalType": "string",
          "name": "ipfsDocumentHash",
          "type": "string"
        },
        {
          "internalType": "uint256",
          "name": "riskScore",
          "type": "uint256"
        },
        {
          "internalType": "uint256",
          "name": "liquidationThreshold",
          "type": "uint256"
        },
        {
          "internalType": "uint256",
          "name": "totalRepaid",
          "type": "uint256"
        },
        {
          "internalType": "uint256",
          "name": "earlyRepaymentPenalty",
          "type": "uint256"
        }
      ],
      "stateMutability": "view",
      "type": "function"
    },
    {
      "inputs": [],
      "name": "nextLoanId",
      "outputs": [
        {
          "internalType": "uint256",
          "name": "",
          "type": "uint256"
        }
      ],
      "stateMutability": "view",
      "type": "function"
    },
    {
      "inputs": [],
      "name": "nextTokenId",
      "outputs": [
        {
          "internalType": "uint256",
          "name": "",
          "type": "uint256"
        }
      ],
      "stateMutability": "view",
      "type": "function"
    },
    {
      "inputs": [],
      "name": "owner",
      "outputs": [
        {
          "internalType": "address",
          "name": "",
          "type": "address"
        }
      ],
      "stateMutability": "view",
      "type": "function"
    },
    {
      "inputs": [],
      "name": "pause",
      "outputs": [],
      "stateMutability": "nonpayable",
      "type": "function"
    },
    {
      "inputs": [],
      "name": "paused",
      "outputs": [
        {
          "internalType": "bool",
          "name": "",
          "type": "bool"
        }
      ],
      "stateMutability": "view",
      "type": "function"
    },
    {
      "inputs": [
        {
          "internalType": "uint256",
          "name": "_loanId",
          "type": "uint256"
        }
      ],
      "name": "processFundingFailure",
      "outputs": [],
      "stateMutability": "nonpayable",
      "type": "function"
    },
    {
      "inputs": [],
      "name": "protocolFeeRate",
      "outputs": [
        {
          "internalType": "uint256",
          "name": "",
          "type": "uint256"
        }
      ],
      "stateMutability": "view",
      "type": "function"
    },
    {
      "inputs": [],
      "name": "renounceOwnership",
      "outputs": [],
      "stateMutability": "nonpayable",
      "type": "function"
    },
    {
      "inputs": [
        {
          "internalType": "uint256",
          "name": "_loanId",
          "type": "uint256"
        }
      ],
      "name": "repayLoan",
      "outputs": [],
      "stateMutability": "payable",
      "type": "function"
    },
    {
      "inputs": [
        {
          "internalType": "uint256",
          "name": "_tokenId",
          "type": "uint256"
        },
        {
          "internalType": "uint256",
          "name": "_collateralTokenId",
          "type": "uint256"
        },
        {
          "internalType": "uint256",
          "name": "_amount",
          "type": "uint256"
        },
        {
          "internalType": "uint256",
          "name": "_interestRate",
          "type": "uint256"
        },
        {
          "internalType": "uint256",
          "name": "_duration",
          "type": "uint256"
        },
        {
          "internalType": "uint256",
          "name": "_minContribution",
          "type": "uint256"
        },
        {
          "internalType": "uint256",
          "name": "_fundingPeriod",
          "type": "uint256"
        },
        {
          "internalType": "uint256",
          "name": "_earlyRepaymentPenalty",
          "type": "uint256"
        },
        {
          "internalType": "string",
          "name": "_ipfsDocumentHash",
          "type": "string"
        }
      ],
      "name": "requestLoan",
      "outputs": [],
      "stateMutability": "payable",
      "type": "function"
    },
    {
      "inputs": [
        {
          "internalType": "address",
          "name": "_oracle",
          "type": "address"
        },
        {
          "internalType": "bool",
          "name": "_authorized",
          "type": "bool"
        }
      ],
      "name": "setAuthorizedOracle",
      "outputs": [],
      "stateMutability": "nonpayable",
      "type": "function"
    },
    {
      "inputs": [
        {
          "internalType": "uint256",
          "name": "",
          "type": "uint256"
        }
      ],
      "name": "supportedTokens",
      "outputs": [
        {
          "internalType": "enum LoanVerseV4.TokenType",
          "name": "tokenType",
          "type": "uint8"
        },
        {
          "internalType": "address",
          "name": "contractAddress",
          "type": "address"
        },
        {
          "internalType": "string",
          "name": "symbol",
          "type": "string"
        },
        {
          "internalType": "uint8",
          "name": "decimals",
          "type": "uint8"
        },
        {
          "internalType": "bool",
          "name": "isActive",
          "type": "bool"
        },
        {
          "internalType": "contract AggregatorV3Interface",
          "name": "priceFeed",
          "type": "address"
        }
      ],
      "stateMutability": "view",
      "type": "function"
    },
    {
      "inputs": [
        {
          "internalType": "address",
          "name": "newOwner",
          "type": "address"
        }
      ],
      "name": "transferOwnership",
      "outputs": [],
      "stateMutability": "nonpayable",
      "type": "function"
    },
    {
      "inputs": [
        {
          "internalType": "uint256",
          "name": "_loanId",
          "type": "uint256"
        }
      ],
      "name": "triggerDefault",
      "outputs": [],
      "stateMutability": "nonpayable",
      "type": "function"
    },
    {
      "inputs": [],
      "name": "unpause",
      "outputs": [],
      "stateMutability": "nonpayable",
      "type": "function"
    },
    {
      "inputs": [
        {
          "internalType": "uint256",
          "name": "_loanId",
          "type": "uint256"
        },
        {
          "internalType": "uint256",
          "name": "_riskScore",
          "type": "uint256"
        }
      ],
      "name": "updateRiskScore",
      "outputs": [],
      "stateMutability": "nonpayable",
      "type": "function"
    },
    {
      "inputs": [
        {
          "internalType": "uint256",
          "name": "_loanId",
          "type": "uint256"
        },
        {
          "internalType": "enum LoanVerseV4.DefaultAction",
          "name": "_action",
          "type": "uint8"
        }
      ],
      "name": "voteOnDefault",
      "outputs": [],
      "stateMutability": "nonpayable",
      "type": "function"
    },
    {
      "inputs": [
        {
          "internalType": "uint256",
          "name": "",
          "type": "uint256"
        }
      ],
      "name": "votingDeadline",
      "outputs": [
        {
          "internalType": "uint256",
          "name": "",
          "type": "uint256"
        }
      ],
      "stateMutability": "view",
      "type": "function"
    },
    {
      "inputs": [],
      "name": "withdrawFees",
      "outputs": [],
      "stateMutability": "nonpayable",
      "type": "function"
    }
  ],
  "bytecode": "0x608060409080825234620003195760019060009082825533156200030557508154336001600160a01b03198083168217855592916001600160a01b03167f8be0079c531659141344cd1fd0a4f28419497f9722a3daafe3b4186f6b6457e08380a38260025582600355600491603283553390600554161760055583519060c082019160018060401b039281811084821117620002f25786528181526020948582019383855287519188830183811083821117620002df578952600383526208aa8960eb1b88840152888401928352606084019760128952608085019782895260a0860197878952878052600883528b88209651906002821015620002cc5760ff885491610100600160a81b03905160081b1692169060018060a81b031916171786558286019451908151948511620002b9578554908482811c92168015620002ae575b848310146200029b5750601f811162000250575b5081601f8511600114620001df57509280928192600297969560ff9994620001d3575b50501b916000199060031b1c19161790555b945194018054935192516001600160b01b0319909416919094161790151560081b61ff00161760109190911b62010000600160b01b031617905551613ebb90816200031f8239f35b01519250388062000179565b858852808820969795969395601f198616915b828210620002385750509160ff97959391856002989694106200021e575b505050811b0190556200018b565b015160001960f88460031b161c1916905538808062000210565b808886978294978701518155019601940190620001f2565b858852828820601f860160051c81019184871062000290575b601f0160051c019084905b8281106200028457505062000156565b89815501849062000274565b909150819062000269565b634e487b7160e01b895260229052602488fd5b91607f169162000142565b634e487b7160e01b885260419052602487fd5b634e487b7160e01b895260218352602489fd5b634e487b7160e01b865260418852602486fd5b634e487b7160e01b835260418552602483fd5b602491631e4fbdf760e01b82526004820152fd5b600080fdfe61018080604052600436101561001457600080fd5b60003560e01c9081630a353a2914613330575080630a49cf4d146133135780630d0b2ca6146132f4578063119328d6146132d357806322e692261461293057806334855d141461291357806336630cd6146128b457806336cf063a146126295780633cdb72f1146125df5780633f4ba83a1461256d578063438596321461252057806346904840146124f7578063476343ee1461247857806358f858801461245a5780635c211efc146121365780635c975abb146121105780636382539214611ee65780636dede8eb14611eba5780636eef115414611e7b578063715018a614611e1e57806375794a3c14611e0057806377e6c4aa14611c8c5780637a9fffb714611c705780638075a8f914611c2857806380bb727314611bad5780638456cb5914611b4b57806387c5145914611b2d57806389d99a0514611b0f5780638da5cb5b14611ae65780639003adfe14611ac857806390a8ae9b14611aac5780639772d7ee146119ae578063ab7b1c89146113d2578063b1610d7e146113b4578063b94fe9171461138a578063bad128b61461127f578063bdbfa3de14611107578063c625562614611071578063c7a6de4d14611018578063caff648414610ecb578063cba89b65146108da578063dafd06a3146105c4578063e1ec3c6814610421578063e25b1078146103e5578063e3ed19021461038d578063ec991da9146102db578063f25b9caa146102be5763f2fde38b1461023057600080fd5b346102b95760203660031901126102b957610249613470565b610251613612565b6001600160a01b039081169081156102a057600154826001600160601b0360a01b821617600155167f8be0079c531659141344cd1fd0a4f28419497f9722a3daafe3b4186f6b6457e0600080a3005b604051631e4fbdf760e01b815260006004820152602490fd5b600080fd5b346102b95760003660031901126102b9576020604051610e108152f35b346102b95760203660031901126102b9576004356102f7613612565b80600052600860205260ff60026040600020015460081c161561035557806000526008602052600260406000200161ff001981541690557f76ae93cd7712c8a8b4ba0c1b9f441ddbd9e9ce3e425a93b15e8f6e37d8784fa6600080a2005b60405162461bcd60e51b815260206004820152601060248201526f546f6b656e206e6f742061637469766560801b6044820152606490fd5b346102b95760403660031901126102b9576103a6613470565b6001600160a01b03166000908152600b60205260409020805460243591908210156102b9576020916103d79161349c565b90546040519160031b1c8152f35b346102b9576103f336613451565b90600052600f60205260406000209061040b816135c8565b6000526020526020604060002054604051908152f35b346102b95760203660031901126102b957600435600052600760205260406000208061014052805461016052600160a01b600190036001820154166002820154608052600382015460048301546005840154600685015460078601546008870154600988015491600a89015493600b8a015495600c8b015497600d8c015499600e8d015460ff169c600f016104b590613522565b9b61014051601081015461012052601181015461010052601281015460c0526013015460a0526040518060e05261016051905260e0516020015260805160e0516040015260e0516060015260e0516080015260e05160a0015260e05160c0015260e05160e0015260e051610100015260e051610120015260e051610140015260e051610160015260e051610180015260e0516101a0015260078210156105ae57610577916101c060e0510152610280806101e060e051015260e05101906135d2565b6101205161020060e05101526101005161022060e051015260c05161024060e051015260a05161026060e051015260e05180910390f35b634e487b7160e01b600052602160045260246000fd5b346102b95760203660031901126102b9576105dd613aea565b60043560005260076020526040600020600e8101805460ff811660078110156105ae5761089e57600a830154421115610859576005830154600484015411156108205760019060ff19161790556004356000526009602052604060002090815461064681613b8d565b92610654604051948561339a565b818452602084019060005260206000206000915b8383106107dd57858560005b825181101561078d576001600160a01b0361068f8285613ba5565b51511690602061069f8286613ba5565b51015191600435600052600760205260026040600020015480600052600860205260ff604060002054166106d2816135c8565b6107605750600080808086855af16106e8613b0d565b501561072b57610726925b6040519081527f7a482fdeb6bc9a1376f597068a214a7a39472bb2eff1b8cad21ba04f49ddca1b602060043592a361363e565b610674565b60405162461bcd60e51b815260206004820152600d60248201526c1499599d5b990819985a5b1959609a1b6044820152606490fd5b92610726936000526008602052610788818360018060a01b0360406000205460081c16613b3d565b6106f3565b50610799600435613d80565b6004600582015491015460405191825260208201527f077f7e7d85860b4290e437c62570324ddd92c9bb185ec5a51fbec45bc8d15503604060043592a26001600055005b600360206001926040516107f08161337e565b848060a01b038654168152848601548382015260ff60028701541615156040820152815201920192019190610668565b60405162461bcd60e51b8152602060048201526011602482015270131bd85b88199d5b1b1e48199d5b991959607a1b6044820152606490fd5b60405162461bcd60e51b815260206004820152601860248201527f46756e64696e6720706572696f64206e6f7420656e64656400000000000000006044820152606490fd5b60405162461bcd60e51b81526020600482015260146024820152734e6f7420696e2066756e64696e6720737461746560601b6044820152606490fd5b6108e33661334c565b906108ec613aea565b6108f4613ac9565b8060005260206007815260406000209260018060a01b0360019481868201541661091f81151561364d565b60ff600e8301541660078110156105ae57610e9157600a8201544211610e4c573314610e1057600981015490818410610dcb57600481019081549261096a60058301948554906136e8565b90818711610d86578661097d81846136e8565b15159283610d72575b505050610d195760020154938460005260089485875260ff604060002054166109ae816135c8565b610cad5750803403610c71575b86600052600986526040600020604051906109d58261337e565b338252878201918383526040810191600083528054600160401b811015610c5b57610a04918d8201815561341f565b929092610c4557610a41938860029351166001600160601b0360a01b855416178455518c84015551151591019060ff801983541691151516179055565b86600052600986526040600020546000198101908111610c2f5787600052600a87526040600020336000528752604060002055600c8652610a868760406000206139e3565b610a918184546139d6565b8093556040519081528286820152867f99f1c95e4132b33cad7cbbd49d5efa1aa01db71edbab6f05c01fb2323875ad1460403393a35414610ad4575b6000859055005b8360005260078352604060002091600e8301600260ff1982541617905542600c840155610b0481840154426139d6565b600d84015560028301548060005281855260ff60406000205416610b27816135c8565b610bde57505060008080809388860154166004860154905af1610b48613b0d565b5015610b99577fb96bada2a4e2e402aaa472b5e783a9d8bb13d996387df6beea608680b31ff46f9160046040925b01549084600052600981528260002054908351928352820152a281808080610acd565b60405162461bcd60e51b815260048101839052601b60248201527f5472616e7366657220746f20626f72726f776572206661696c656400000000006044820152606490fd5b92610c2a837fb96bada2a4e2e402aaa472b5e783a9d8bb13d996387df6beea608680b31ff46f96946004946040976000528087528760002054901c169089840154168484015491613b3d565b610b76565b634e487b7160e01b600052601160045260246000fd5b634e487b7160e01b600052600060045260246000fd5b634e487b7160e01b600052604160045260246000fd5b60405162461bcd60e51b8152600481018790526014602482015273125b98dbdc9c9958dd0811551208185b5bdd5b9d60621b6044820152606490fd5b34610cd457600052848652610ccf8185604060002054881c1630903390613a18565b6109bb565b60405162461bcd60e51b815260048101889052601d60248201527f455448206e6f74206e656564656420666f72204552433230206c6f616e0000006044820152606490fd5b60405162461bcd60e51b815260048101879052602b60248201527f576f756c64206c6561766520616d6f756e742062656c6f77206d696e696d756d60448201526a20666f72206f746865727360a81b6064820152608490fd5b610d7d9293506136e8565b10898681610986565b60405162461bcd60e51b815260048101899052601860248201527f457863656564732072656d61696e696e6720616d6f756e7400000000000000006044820152606490fd5b60405162461bcd60e51b815260048101869052601a60248201527f42656c6f77206d696e696d756d20636f6e747269627574696f6e0000000000006044820152606490fd5b60405162461bcd60e51b815260048101859052601460248201527321b0b73737ba10333ab7321037bbb7103637b0b760611b6044820152606490fd5b60405162461bcd60e51b815260048101869052601760248201527f46756e64696e6720646561646c696e65207061737365640000000000000000006044820152606490fd5b60405162461bcd60e51b81526004810186905260126024820152714c6f616e206e6f7420617661696c61626c6560701b6044820152606490fd5b346102b9576020806003193601126102b95760043590610ee9613aea565b8160005260078152600e60406000200180549060ff821660078110156105ae576006610f159114613bf7565b8360005260118352604060002054421115610fdd57907fb6d0d13889bd27ea4546c2b38e63c4ca45f6fd27b5db622033f3f0840c103ff6929184600052600f8352604060002060008052835260406000205485600052600f84526040600020600160005284526040600020541115600014610fd35760046000925b60ff1916179055610fa0816135c8565b80610fc557610fae84613c39565b60405190610fbb816135c8565b8152a26001600055005b610fce84613c39565b610fae565b6004600192610f90565b60405162461bcd60e51b8152600481018490526013602482015272566f74696e67207374696c6c2061637469766560681b6044820152606490fd5b346102b95760403660031901126102b957611031613470565b60243580151581036102b95761106f91611049613612565b60018060a01b0316600052600e60205260406000209060ff801983541691151516179055565b005b346102b95760203660031901126102b95760043560005260086020526040600020805460ff81169060026110a760018501613522565b930154906110e260405194846110bd87966135c8565b855260018060a01b03809360081c16602086015260c0604086015260c08501906135d2565b9160ff8116606085015260ff8160081c161515608085015260101c1660a08301520390f35b346102b95760203660031901126102b957600435611123613aea565b600081815260076020526040902060018101546001600160a01b0316330361123a57600e81019081549060ff821660078110156105ae576111f557600501546111a45760ff1916600517905561117881613d80565b7fb71becc91961a6b43bcc5b3b630f3dce02c7fd444cf3738c4f188062b1caf5bc600080a26001600055005b60405162461bcd60e51b815260206004820152602360248201527f43616e6e6f742063616e63656c207061727469616c6c792066756e646564206c60448201526237b0b760e91b6064820152608490fd5b60405162461bcd60e51b815260206004820152601e60248201527f43616e206f6e6c792063616e63656c20756e66756e646564206c6f616e7300006044820152606490fd5b60405162461bcd60e51b815260206004820152601860248201527f4f6e6c7920626f72726f7765722063616e2063616e63656c00000000000000006044820152606490fd5b346102b95761128d3661334c565b33600052602090600e825260ff604060002054161561134d576103e881116113135760008381526007835260409020600101547f48adb4acae9076e27f3dd76aae95808bb8f40caf101b9d074b3b89e67602cc4f9291906112f8906001600160a01b0316151561364d565b836000526007825280601060406000200155604051908152a2005b60405162461bcd60e51b8152600481018390526012602482015271496e76616c6964207269736b2073636f726560701b6044820152606490fd5b60405162461bcd60e51b81526004810183905260156024820152744e6f7420617574686f72697a6564206f7261636c6560581b6044820152606490fd5b346102b95760203660031901126102b95760406113a86004356136f5565b82519182526020820152f35b346102b95760003660031901126102b95760206040516203f4808152f35b60203660031901126102b9576113e6613aea565b600435600090815260076020526040902060018101546001600160a01b031633036119695760ff600e8201541660078110156105ae5760026114289114613bb9565b600d81015480421080918115611951575b501561191857600482015461145f6127106114586007860154846138f2565b04826139d6565b918061190b575b6118e8575b5061147a6012830154826136e8565b9160028101549182600052600860205260ff6040600020541661149c816135c8565b6118e15734925b831515806118d7575b1561189257806000526008602052600160ff604060002054166114ce816135c8565b14611866575b506114e38360128401546139d6565b601283015560043560005260076020526040600020916009602052604060002094612710611513600454876138f2565b049261152b61152285886136e8565b946006546139d6565b60065560005b875481101561169757611560611555600161154c848c61341f565b500154876138f2565b600488015490613916565b9081611576575b611571915061363e565b611531565b88600288015480600052600860205260ff60406000205416611597816135c8565b611653575060008080856115ac86839661341f565b50546001600160a01b03165af16115c1613b0d565b501561161757611571915b6115d6828b61341f565b50546040519182526001600160a01b031690600435907f655b9f7355449ee5d1f48de6b9fbfab1b98a556d98413fc02bddba24dab5f77390602090a3611567565b60405162461bcd60e51b815260206004820152601460248201527313195b99195c881c185e5bdd5d0819985a5b195960621b6044820152606490fd5b6115719391506000526008602052611692818b6116818560018060a01b0360406000205460081c169261341f565b50546001600160a01b031690613b3d565b6115cc565b50856012840154906040519081528160208201527f919e2311cb8f85978e6f84ae3d90a27edc48dc6ca722d47302df171a808fd702604060043592a210156116e1575b6001600055005b600360ff19600e8401541617600e8301556002820154600052600860205260ff60406000205416611711816135c8565b158061185d575b6117fb575b50611729600435613d80565b6001808060a01b039101541680600052600d602052604060002060018101611757815480156117f15761363e565b90554260068201556002810161176d815461363e565b90558054600a8101809111610c2f577f79c012a0cfae660e09134956bc432c8497ec80e86a3a108d130e8b3fca52b3ad9160209161035290818111156117e8575080915b55604051908152a26004357f6a65a58027e68282a85ac65a7afc6580ef3d139c6e6ec12ae8d82de13566e8cc600080a280806116da565b905080916117b1565b61023f845561363e565b6000808061180a8194346136e8565b335af1611815613b0d565b5015611821578161171d565b60405162461bcd60e51b8152602060048201526014602482015273115e18d95cdcc81c995d1d5c9b8819985a5b195960621b6044820152606490fd5b50803411611718565b600052600860205261188c8360018060a01b0360406000205460081c1630903390613a18565b846114d4565b60405162461bcd60e51b815260206004820152601860248201527f496e76616c69642072657061796d656e7420616d6f756e7400000000000000006044820152606490fd5b50848411156114ac565b83926114a3565b906127106118fe611905936013860154906138f2565b04906139d6565b8261146b565b5060138301541515611466565b60405162461bcd60e51b8152602060048201526011602482015270546f6f206c61746520746f20726570617960781b6044820152606490fd5b905062278d008101809111610c2f5742111583611439565b60405162461bcd60e51b815260206004820152601760248201527f4f6e6c7920626f72726f7765722063616e2072657061790000000000000000006044820152606490fd5b346102b95760003660031901126102b9576002546000198101818111610c2f576119d790613e53565b9060009060015b818110611a395750506119f081613e53565b9160005b828110611a155760405160208082528190611a11908201876134b4565b0390f35b80611a23611a349284613ba5565b51611a2e8287613ba5565b5261363e565b6119f4565b80600052600760209080825260ff600e6040600020015416818110156105ae57159182611a91575b5050611a76575b611a719061363e565b6119de565b91611a898184611a2e611a719488613ba5565b929050611a68565b9091508260005252600a604060002001544211158580611a61565b346102b95760003660031901126102b957602060405160788152f35b346102b95760003660031901126102b9576020600654604051908152f35b346102b95760003660031901126102b9576001546040516001600160a01b039091168152602090f35b346102b95760003660031901126102b9576020604051620151808152f35b346102b95760003660031901126102b9576020600254604051908152f35b346102b95760003660031901126102b957611b64613612565b611b6c613ac9565b6001805460ff60a01b1916600160a01b1790556040513381527f62e78cea01bee320cd4e420270b5ea74000d11b0c9f74754ebdbfc544b05a25890602090a1005b346102b95760203660031901126102b9576001600160a01b03611bce613470565b16600052600d60205260e06040600020805490600181015490600281015460038201546004830154916006600585015494015494604051968752602087015260408601526060850152608084015260a083015260c0820152f35b346102b95760403660031901126102b957611c41613486565b600435600052600a60205260406000209060018060a01b03166000526020526020604060002054604051908152f35b346102b95760003660031901126102b957602060405160968152f35b346102b9576020806003193601126102b957600435600052600981526040600020908154611cb981613b8d565b92611cc7604051948561339a565b8184526000908152828120838086015b848410611dbc5786828151611d04611cee82613b8d565b91611cfc604051938461339a565b808352613b8d565b8183019290601f1901368437611d1a8451613e53565b9160005b8551811015611d6857611d63906001600160a01b03611d3d8289613ba5565b515116611d4a8285613ba5565b5283611d568289613ba5565b510151611a2e8287613ba5565b611d1e565b509190604051926040840190604085525180915260608401949060005b818110611d9f57858703848701528580611a1189886134b4565b82516001600160a01b031687529583019591830191600101611d85565b600191600391604051611dce8161337e565b848060a01b038654168152848601548382015260ff600287015416151560408201528152019201920191908490611cd7565b346102b95760003660031901126102b9576020600354604051908152f35b346102b95760003660031901126102b957611e37613612565b600180546001600160a01b031981169091556000906001600160a01b03167f8be0079c531659141344cd1fd0a4f28419497f9722a3daafe3b4186f6b6457e08280a3005b346102b95760203660031901126102b9576001600160a01b03611e9c613470565b16600052600e602052602060ff604060002054166040519015158152f35b346102b95760203660031901126102b95760043560005260116020526020604060002054604051908152f35b346102b9576020806003193601126102b95760043590611f04613aea565b81600052600781526040600020600e8101805460ff811660078110156105ae576002611f309114613bb9565b600d83015462278d008101809111610c2f574211156120d25760069060ff19161790556203f4804201804211610c2f5783600052601183526040600020556001808060a01b039101541680600052600d825260406000209160018301611f9c815480156120c85761363e565b905542600684015560038301611fb2815461363e565b905582549184603284111561207757506031198301928311610c2f577f79c012a0cfae660e09134956bc432c8497ec80e86a3a108d130e8b3fca52b3ad8286957f8abde2f70ef3fee1a095180c52ea8f9374714f640a915a9f6a63f59811f20afc9561012c9081811060001461207057505b80915b55604051908152a28260005260118152604060002054604051908152a27f0789b7097e8066538cfaa1132488b132e14ba5f0c938c8b7aaf8cf40356aab0b600080a26001600055005b9050612024565b937f8abde2f70ef3fee1a095180c52ea8f9374714f640a915a9f6a63f59811f20afc9350827f79c012a0cfae660e09134956bc432c8497ec80e86a3a108d130e8b3fca52b3ad9161012c8091612027565b61023f865561363e565b60405162461bcd60e51b815260048101859052601660248201527511dc9858d9481c195c9a5bd9081b9bdd08195b99195960521b6044820152606490fd5b346102b95760003660031901126102b957602060ff60015460a01c166040519015158152f35b346102b95760803660031901126102b95761214f613470565b67ffffffffffffffff906024358281116102b9576121719036906004016133d8565b6044359160ff83168093036102b9576001600160a01b0392606435929084841684036102b95761219f613612565b8483161561241557604051906121b482613362565b6001825260208201908685168252604083019084825260608401526001608084015286861660a084015260035460005260086020526040600020918351906121fb826135c8565b612204826135c8565b60ff845491610100600160a81b03905160081b169216906affffffffffffffffffffff60a81b161717825551968751908111610c5b5761224760018301546134e8565b601f81116123ca575b506020601f821160011461232f577f98878a34ea3245957b330457c591928f2908c8b254e8b972075101360fca276b94928261230e959360029361231f9c600092612324575b50508160011b916000199060031b1c19161760018201555b019060ff6060820151169082549161ff006080830151151560081b169160a062010000600160b01b0391015160101b169269ffffffffffffffffffff60b01b161717179055600354958694816040519485946040865260408601906135d2565b9716602084015216940390a361363e565b600355005b015190508c80612296565b6001830160005260206000209860005b601f19841681106123b257509260018361231f9b6002947f98878a34ea3245957b330457c591928f2908c8b254e8b972075101360fca276b999761230e9997601f19811610612399575b505050811b0160018201556122ae565b015160001960f88460031b161c191690558c8080612389565b828201518b556001909a01996020928301920161233f565b600183016000526020600020601f830160051c8101916020841061240b575b601f0160051c01905b8181106123ff5750612250565b600081556001016123f2565b90915081906123e9565b60405162461bcd60e51b815260206004820152601860248201527f496e76616c696420636f6e7472616374206164647265737300000000000000006044820152606490fd5b346102b95760003660031901126102b9576020600454604051908152f35b346102b95760003660031901126102b957612491613612565b60008080806006548160065560018060a01b03600554165af16124b2613b0d565b50156124ba57005b60405162461bcd60e51b8152602060048201526015602482015274119959481dda5d1a191c985dd85b0819985a5b1959605a1b6044820152606490fd5b346102b95760003660031901126102b9576005546040516001600160a01b039091168152602090f35b346102b95760403660031901126102b957612539613486565b600435600052601060205260406000209060018060a01b0316600052602052602060ff604060002054166040519015158152f35b346102b95760003660031901126102b957612586613612565b60015460ff8160a01c16156125cd5760ff60a01b19166001556040513381527f5db9ee0a495bf2e6ff9c91a7834c1ba4fdd244a5e8aa4e537bd38aeae4b073aa90602090a1005b604051638dfc202b60e01b8152600490fd5b346102b95760403660031901126102b9576125f8613470565b6001600160a01b03166000908152600c60205260409020805460243591908210156102b9576020916103d79161349c565b346102b95761263736613451565b90612640613aea565b806000526020906007825260ff9182600e604060002001541660078110156105ae57600661266e9114613bf7565b8160005260118152604060002054421161287a5781600052601081526040600020336000528152826040600020541661284657600092826000526009825260406000208054906126bd82613b8d565b926126cb604051948561339a565b828452600091825284822090858086015b8585106128035750505050505060005b81518110156127f957336001600160a01b036127088385613ba5565b5151161461271e576127199061363e565b6126ec565b8293945061272b91613ba5565b510151905b81156127c657826000526010815260406000203360005281526040600020600160ff1982541617905582600052600f8152604060002061276f856135c8565b84600052815260406000206127858382546139d6565b905560405193612794816135c8565b84528301527fb83d25c6a5d258561330739951487acb4bd09ba5190b5d32c4f261817d90679260403393a36001600055005b6064906040519062461bcd60e51b82526004820152600c60248201526b2737ba1030903632b73232b960a11b6044820152fd5b5050919091612730565b6001916003916040516128158161337e565b848060a01b0387541681528487015483820152856002880154161515604082015281520193019301929186906126dc565b6064906040519062461bcd60e51b82526004820152600d60248201526c105b1c9958591e481d9bdd1959609a1b6044820152fd5b6064906040519062461bcd60e51b825260048201526013602482015272159bdd1a5b99c81c195c9a5bd908195b991959606a1b6044820152fd5b346102b9576128c23661334c565b906000526009602052604060002080548210156102b9576060916128e59161341f565b5060018060a01b038154169060ff600260018301549201541690604051928352602083015215156040820152f35b346102b95760003660031901126102b9576020604051610bb88152f35b6101203660031901126102b9576101043567ffffffffffffffff81116102b95761295e9036906004016133d8565b612966613aea565b61296e613ac9565b6044351561328e57610bb860643511613250576201518080608435101580613240575b156132085760043560005260086020526129b860ff60026040600020015460081c1661368f565b602435600052600860205260ff60026040600020015460081c16156131c3578151156131895760a435151580613178575b156131335760c435101580613124575b156130e6576101f460e435116130ae5733600052600d602052604060002061012c815410908115916130a1575b501561306557612a3a604435600435613936565b80609681020460961481151715610c2f57612af690612af1612a5d6024356136f5565b5091602435600052600860205260646096612ae96040600020600260405191612a8583613362565b805460ff8116612a94816135c8565b845260081c6001600160a01b03166020840152612ab360018201613522565b604084015201549060a060ff83169283606084015260ff8160081c1615156080840152600180831b039060101c16910152613905565b9202046138f2565b613916565b90602435600052600860205260ff60406000205416612b14816135c8565b612f2857813410612ee3575b600254612b2c8161363e565b600255612b3b60c435426139d6565b92602435600052600860205260ff60406000205416612b59816135c8565b612ede5750345b604051908161028081011067ffffffffffffffff61028084011117610c5b576102808201604052828252336020830152600435604083015260243560608301526044356080830152600060a083015260c082015260643560e082015260843561010082015260a4356101208201528361014082015242610160820152600061018082015260006101a082015260006101c0820152826101e082015260006102008201526078610220820152600061024082015260e435610260820152816000526007602052604060002090805182556001820160018060a01b036020830151166001600160601b0360a01b82541617905560408101516002830155606081015160038301556080810151600483015560a0810151600583015560c0810151600683015560e0810151600783015561010081015160088301556101208101516009830155610140810151600a830155610160810151600b830155610180810151600c8301556101a0810151600d830155600e82016101c082015160078110156105ae5760ff801983541691161790556101e081015180519067ffffffffffffffff8211610c5b57612d13600f8501546134e8565b601f8111612e97575b50602090601f8311600114612e215791806013949261026094600092612e16575b50508160011b916000199060031b1c191617600f8501555b610200810151601085015561022081015160118501556102408101516012850155015191015533600052600b602052612d928160406000206139e3565b8060005260076020526006604060002001549260405193604435855260208501526064356040850152608435606085015260a435608085015260a084015260e060c08401527f1455473c3acc495fcc473211502fcf9efe62f6c3a6b091a395e25c5c5d30ab546004359380612e0c339560e08301906135d2565b0390a46001600055005b015190508980612d3d565b90600f850160005260206000209160005b601f1985168110612e7f575092601394926001926102609583601f19811610612e66575b505050811b01600f850155612d55565b015160001960f88460031b161c19169055898080612e56565b91926020600181928685015181550194019201612e32565b600f85016000526020600020601f840160051c810160208510612ed7575b601f830160051c82018110612ecb575050612d1c565b60008155600101612eb5565b5080612eb5565b612b60565b60405162461bcd60e51b815260206004820152601b60248201527f496e73756666696369656e742045544820636f6c6c61746572616c00000000006044820152606490fd5b3461301457602435600052600860205260018060a01b0360406000205460081c166040516370a0823160e01b8152336004820152602081602481855afa8015613008578491600091612fd3575b5010612f8e5782612f899130903390613a18565b612b20565b60405162461bcd60e51b815260206004820152601a60248201527f496e73756666696369656e742045524332302062616c616e63650000000000006044820152606490fd5b9150506020813d602011613000575b81612fef6020938361339a565b810103126102b95783905185612f75565b3d9150612fe2565b6040513d6000823e3d90fd5b60405162461bcd60e51b815260206004820152602360248201527f455448206e6f74206e656564656420666f7220455243323020636f6c6c6174656044820152621c985b60ea1b6064820152608490fd5b60405162461bcd60e51b81526020600482015260146024820152734372656469742073636f726520746f6f206c6f7760601b6044820152606490fd5b6001915001541582612a26565b60405162461bcd60e51b815260206004820152601060248201526f0a0cadcc2d8e8f240e8dede40d0d2ced60831b6044820152606490fd5b60405162461bcd60e51b8152602060048201526016602482015275125b9d985b1a5908199d5b991a5b99c81c195c9a5bd960521b6044820152606490fd5b5062278d0060c43511156129f9565b60405162461bcd60e51b815260206004820152601860248201527f496e76616c6964206d696e20636f6e747269627574696f6e00000000000000006044820152606490fd5b5060443560011c60a43511156129e9565b60405162461bcd60e51b815260206004820152601260248201527112541194c81a185cda081c995c5d5a5c995960721b6044820152606490fd5b60405162461bcd60e51b815260206004820152601e60248201527f436f6c6c61746572616c20746f6b656e206e6f7420737570706f7274656400006044820152606490fd5b60405162461bcd60e51b815260206004820152601060248201526f24b73b30b634b210323ab930ba34b7b760811b6044820152606490fd5b506301e133806084351115612991565b60405162461bcd60e51b8152602060048201526016602482015275092dce8cae4cae6e840e4c2e8ca40e8dede40d0d2ced60531b6044820152606490fd5b60405162461bcd60e51b815260206004820152601d60248201527f416d6f756e74206d7573742062652067726561746572207468616e20300000006044820152606490fd5b346102b95760206132ec6132e63661334c565b90613936565b604051908152f35b346102b95760003660031901126102b95760206040516301e133808152f35b346102b95760003660031901126102b957602060405161012c8152f35b346102b95760003660031901126102b9578062093a8060209252f35b60409060031901126102b9576004359060243590565b60c0810190811067ffffffffffffffff821117610c5b57604052565b6060810190811067ffffffffffffffff821117610c5b57604052565b90601f8019910116810190811067ffffffffffffffff821117610c5b57604052565b67ffffffffffffffff8111610c5b57601f01601f191660200190565b81601f820112156102b9578035906133ef826133bc565b926133fd604051948561339a565b828452602083830101116102b957816000926020809301838601378301015290565b805482101561343b576000526003602060002091020190600090565b634e487b7160e01b600052603260045260246000fd5b60409060031901126102b9576004359060243560028110156102b95790565b600435906001600160a01b03821682036102b957565b602435906001600160a01b03821682036102b957565b805482101561343b5760005260206000200190600090565b90815180825260208080930193019160005b8281106134d4575050505090565b8351855293810193928101926001016134c6565b90600182811c92168015613518575b602083101461350257565b634e487b7160e01b600052602260045260246000fd5b91607f16916134f7565b9060405191826000825492613536846134e8565b9081845260019485811690816000146135a55750600114613562575b50506135609250038361339a565b565b9093915060005260209081600020936000915b81831061358d57505061356093508201013880613552565b85548884018501529485019487945091830191613575565b91505061356094506020925060ff191682840152151560051b8201013880613552565b600211156105ae57565b919082519283825260005b8481106135fe575050826000602080949584010152601f8019910116010190565b6020818301810151848301820152016135dd565b6001546001600160a01b0316330361362657565b60405163118cdaa760e01b8152336004820152602490fd5b6000198114610c2f5760010190565b1561365457565b60405162461bcd60e51b8152602060048201526013602482015272131bd85b88191bd95cc81b9bdd08195e1a5cdd606a1b6044820152606490fd5b1561369657565b60405162461bcd60e51b8152602060048201526013602482015272151bdad95b881b9bdd081cdd5c1c1bdc9d1959606a1b6044820152606490fd5b519069ffffffffffffffffffff821682036102b957565b91908203918211610c2f57565b9060009182526020600881526040808420815161371181613362565b613775600283549360ff8516613726816135c8565b845260018060a01b03809560081c168785015261374560018201613522565b8685015201549160ff831660608201528360a060ff8560081c16151592836080820152019360101c16835261368f565b511680156138e2579060a060049392825194858092633fabe5a360e21b82525afa9485156138d7578093819661387f575b5083131561383c57841561380457610e106137c186426136e8565b116137cc5750509190565b60649250519062461bcd60e51b825260048201526012602482015271141c9a58d94819185d18481d1bdbc81bdb1960721b6044820152fd5b60649250519062461bcd60e51b825260048201526012602482015271526f756e64206e6f7420636f6d706c65746560701b6044820152fd5b60649250519062461bcd60e51b82526004820152601960248201527f496e76616c69642070726963652066726f6d206f7261636c65000000000000006044820152fd5b9350945060a0833d82116138cf575b8161389b60a0938361339a565b810103126138cb576138ac836136d1565b50818301516138c26080606086015195016136d1565b509294386137a6565b8480fd5b3d915061388e565b9051903d90823e3d90fd5b5050509050642e90edd000904290565b81810292918115918404141715610c2f57565b60ff16604d8111610c2f57600a0a90565b8115613920570490565b634e487b7160e01b600052601260045260246000fd5b906139cd60ff6139c56139d39461394c816136f5565b5090600052600860205260406000209460405161396881613362565b60a06002885498878a1661397b816135c8565b8452600180841b03809a60081c16602085015261399a60018201613522565b604085015201549760608301988781168a52878160081c161515608085015260101c169101526138f2565b925116613905565b90613916565b90565b91908201809211610c2f57565b8054600160401b811015610c5b57613a009160018201815561349c565b819291549060031b91821b91600019901b1916179055565b6040516323b872dd60e01b60208201526001600160a01b03928316602482015292909116604483015260648083019390935291815260a081019181831067ffffffffffffffff841117610c5b57613560926040525b906000602091828151910182855af115613008576000513d613ac057506001600160a01b0381163b155b613a9e5750565b604051635274afe760e01b81526001600160a01b039091166004820152602490fd5b60011415613a97565b60ff60015460a01c16613ad857565b60405163d93c066560e01b8152600490fd5b600260005414613afb576002600055565b604051633ee5aeb560e01b8152600490fd5b3d15613b38573d90613b1e826133bc565b91613b2c604051938461339a565b82523d6000602084013e565b606090565b60405163a9059cbb60e01b60208201526001600160a01b039092166024830152604480830193909352918152608081019167ffffffffffffffff831182841017610c5b5761356092604052613a6d565b67ffffffffffffffff8111610c5b5760051b60200190565b805182101561343b5760209160051b010190565b15613bc057565b60405162461bcd60e51b815260206004820152600f60248201526e4c6f616e206e6f742061637469766560881b6044820152606490fd5b15613bfe57565b60405162461bcd60e51b81526020600482015260136024820152724e6f7420696e20766f74696e6720737461746560681b6044820152606490fd5b600090815260076020908152604080832060098352818420600494919085820160068301845b8354811015613d7557613c8d613c8583546001613c7c858961341f565b500154906138f2565b845490613916565b9081613ca3575b613c9e915061363e565b613c5f565b866003870154928382526008808c5260ff8b84205416613cc2816135c8565b613d40575082935081809391613cd982938a61341f565b50546001600160a01b03165af1613cee613b0d565b5015613cfd57613c9e90613c94565b865162461bcd60e51b8152808a01899052601e60248201527f436f6c6c61746572616c20646973747269627574696f6e206661696c656400006044820152606490fd5b613c9e94613d709352808c5260018060a01b0380918c8c2054901c1690613d67858a61341f565b50541690613b3d565b613c94565b505050505050505050565b60009081526007602052604081206003810154808352600860205260ff604084205416613dac816135c8565b613e22575060018101546006909101548291829182916001600160a01b03165af1613dd5613b0d565b5015613ddd57565b60405162461bcd60e51b815260206004820152601860248201527f436f6c6c61746572616c2072657475726e206661696c656400000000000000006044820152606490fd5b906006836040936135609552600860205260018060a01b03938491205460081c169260018301541691015491613b3d565b90613e5d82613b8d565b613e6a604051918261339a565b8281528092613e7b601f1991613b8d565b019060203691013756fea26469706673582212207767ca0fff9b2eb395c8f7ece36d2b41b502de934c6011b9d016992c7343919664736f6c63430008140033",
  "linkReferences": {},
  "deployedLinkReferences": {}
}