{
  "_format": "hh-sol-artifact-1",
  "contractName": "LoanVerseV4",
  "sourceName": "contracts/LoanVerseV4.sol",
  "abi": [
    {
      "inputs": [],
      "stateMutability": "nonpayable",
      "type": "constructor"
    },
    {
      "inputs": [],
      "name": "EnforcedPause",
      "type": "error"
    },
    {
      "inputs": [],
      "name": "ExpectedPause",
      "type": "error"
    },
    {
      "inputs": [
        {
          "internalType": "address",
          "name": "owner",
          "type": "address"
        }
      ],
      "name": "OwnableInvalidOwner",
      "type": "error"
    },
    {
      "inputs": [
        {
          "internalType": "address",
          "name": "account",
          "type": "address"
        }
      ],
      "name": "OwnableUnauthorizedAccount",
      "type": "error"
    },
    {
      "inputs": [],
      "name": "ReentrancyGuardReentrantCall",
      "type": "error"
    },
    {
      "inputs": [
        {
          "internalType": "address",
          "name": "token",
          "type": "address"
        }
      ],
      "name": "SafeERC20FailedOperation",
      "type": "error"
    },
    {
      "anonymous": false,
      "inputs": [
        {
          "indexed": true,
          "internalType": "address",
          "name": "borrower",
          "type": "address"
        },
        {
          "indexed": false,
          "internalType": "uint256",
          "name": "newScore",
          "type": "uint256"
        }
      ],
      "name": "CreditScoreUpdated",
      "type": "event"
    },
    {
      "anonymous": false,
      "inputs": [
        {
          "indexed": true,
          "internalType": "uint256",
          "name": "loanId",
          "type": "uint256"
        },
        {
          "indexed": false,
          "internalType": "enum LoanVerseV4.DefaultAction",
          "name": "action",
          "type": "uint8"
        }
      ],
      "name": "DefaultActionExecuted",
      "type": "event"
    },
    {
      "anonymous": false,
      "inputs": [
        {
          "indexed": true,
          "internalType": "uint256",
          "name": "loanId",
          "type": "uint256"
        },
        {
          "indexed": false,
          "internalType": "uint256",
          "name": "votingDeadline",
          "type": "uint256"
        }
      ],
      "name": "DefaultVotingStarted",
      "type": "event"
    },
    {
      "anonymous": false,
      "inputs": [
        {
          "indexed": true,
          "internalType": "uint256",
          "name": "loanId",
          "type": "uint256"
        },
        {
          "indexed": true,
          "internalType": "address",
          "name": "lender",
          "type": "address"
        },
        {
          "indexed": false,
          "internalType": "uint256",
          "name": "amount",
          "type": "uint256"
        }
      ],
      "name": "LenderPayout",
      "type": "event"
    },
    {
      "anonymous": false,
      "inputs": [
        {
          "indexed": true,
          "internalType": "uint256",
          "name": "loanId",
          "type": "uint256"
        }
      ],
      "name": "LoanCancelled",
      "type": "event"
    },
    {
      "anonymous": false,
      "inputs": [
        {
          "indexed": true,
          "internalType": "uint256",
          "name": "loanId",
          "type": "uint256"
        },
        {
          "indexed": true,
          "internalType": "address",
          "name": "lender",
          "type": "address"
        },
        {
          "indexed": false,
          "internalType": "uint256",
          "name": "amount",
          "type": "uint256"
        },
        {
          "indexed": false,
          "internalType": "uint256",
          "name": "totalFunded",
          "type": "uint256"
        }
      ],
      "name": "LoanContribution",
      "type": "event"
    },
    {
      "anonymous": false,
      "inputs": [
        {
          "indexed": true,
          "internalType": "uint256",
          "name": "loanId",
          "type": "uint256"
        }
      ],
      "name": "LoanDefaulted",
      "type": "event"
    },
    {
      "anonymous": false,
      "inputs": [
        {
          "indexed": true,
          "internalType": "uint256",
          "name": "loanId",
          "type": "uint256"
        },
        {
          "indexed": false,
          "internalType": "uint256",
          "name": "totalAmount",
          "type": "uint256"
        },
        {
          "indexed": false,
          "internalType": "uint256",
          "name": "lenderCount",
          "type": "uint256"
        }
      ],
      "name": "LoanFullyFunded",
      "type": "event"
    },
    {
      "anonymous": false,
      "inputs": [
        {
          "indexed": true,
          "internalType": "uint256",
          "name": "loanId",
          "type": "uint256"
        }
      ],
      "name": "LoanFullyRepaid",
      "type": "event"
    },
    {
      "anonymous": false,
      "inputs": [
        {
          "indexed": true,
          "internalType": "uint256",
          "name": "loanId",
          "type": "uint256"
        },
        {
          "indexed": false,
          "internalType": "uint256",
          "name": "amountFunded",
          "type": "uint256"
        },
        {
          "indexed": false,
          "internalType": "uint256",
          "name": "amountRequired",
          "type": "uint256"
        }
      ],
      "name": "LoanFundingFailed",
      "type": "event"
    },
    {
      "anonymous": false,
      "inputs": [
        {
          "indexed": true,
          "internalType": "uint256",
          "name": "loanId",
          "type": "uint256"
        },
        {
          "indexed": false,
          "internalType": "uint256",
          "name": "repaidAmount",
          "type": "uint256"
        },
        {
          "indexed": false,
          "internalType": "uint256",
          "name": "totalRepaid",
          "type": "uint256"
        }
      ],
      "name": "LoanRepayment",
      "type": "event"
    },
    {
      "anonymous": false,
      "inputs": [
        {
          "indexed": true,
          "internalType": "uint256",
          "name": "loanId",
          "type": "uint256"
        },
        {
          "indexed": true,
          "internalType": "address",
          "name": "borrower",
          "type": "address"
        },
        {
          "indexed": true,
          "internalType": "uint256",
          "name": "tokenId",
          "type": "uint256"
        },
        {
          "indexed": false,
          "internalType": "uint256",
          "name": "amount",
          "type": "uint256"
        },
        {
          "indexed": false,
          "internalType": "uint256",
          "name": "collateralAmount",
          "type": "uint256"
        },
        {
          "indexed": false,
          "internalType": "uint256",
          "name": "interestRate",
          "type": "uint256"
        },
        {
          "indexed": false,
          "internalType": "uint256",
          "name": "duration",
          "type": "uint256"
        },
        {
          "indexed": false,
          "internalType": "uint256",
          "name": "minContribution",
          "type": "uint256"
        },
        {
          "indexed": false,
          "internalType": "uint256",
          "name": "fundingDeadline",
          "type": "uint256"
        },
        {
          "indexed": false,
          "internalType": "string",
          "name": "ipfsHash",
          "type": "string"
        }
      ],
      "name": "LoanRequested",
      "type": "event"
    },
    {
      "anonymous": false,
      "inputs": [
        {
          "indexed": true,
          "internalType": "address",
          "name": "previousOwner",
          "type": "address"
        },
        {
          "indexed": true,
          "internalType": "address",
          "name": "newOwner",
          "type": "address"
        }
      ],
      "name": "OwnershipTransferred",
      "type": "event"
    },
    {
      "anonymous": false,
      "inputs": [
        {
          "indexed": false,
          "internalType": "address",
          "name": "account",
          "type": "address"
        }
      ],
      "name": "Paused",
      "type": "event"
    },
    {
      "anonymous": false,
      "inputs": [
        {
          "indexed": true,
          "internalType": "uint256",
          "name": "loanId",
          "type": "uint256"
        },
        {
          "indexed": true,
          "internalType": "address",
          "name": "lender",
          "type": "address"
        },
        {
          "indexed": false,
          "internalType": "uint256",
          "name": "amount",
          "type": "uint256"
        }
      ],
      "name": "RefundIssued",
      "type": "event"
    },
    {
      "anonymous": false,
      "inputs": [
        {
          "indexed": true,
          "internalType": "uint256",
          "name": "loanId",
          "type": "uint256"
        },
        {
          "indexed": false,
          "internalType": "uint256",
          "name": "riskScore",
          "type": "uint256"
        }
      ],
      "name": "RiskScoreUpdated",
      "type": "event"
    },
    {
      "anonymous": false,
      "inputs": [
        {
          "indexed": true,
          "internalType": "uint256",
          "name": "tokenId",
          "type": "uint256"
        },
        {
          "indexed": true,
          "internalType": "address",
          "name": "contractAddress",
          "type": "address"
        },
        {
          "indexed": false,
          "internalType": "string",
          "name": "symbol",
          "type": "string"
        },
        {
          "indexed": false,
          "internalType": "address",
          "name": "priceFeed",
          "type": "address"
        }
      ],
      "name": "TokenAdded",
      "type": "event"
    },
    {
      "anonymous": false,
      "inputs": [
        {
          "indexed": true,
          "internalType": "uint256",
          "name": "tokenId",
          "type": "uint256"
        }
      ],
      "name": "TokenDeactivated",
      "type": "event"
    },
    {
      "anonymous": false,
      "inputs": [
        {
          "indexed": false,
          "internalType": "address",
          "name": "account",
          "type": "address"
        }
      ],
      "name": "Unpaused",
      "type": "event"
    },
    {
      "anonymous": false,
      "inputs": [
        {
          "indexed": true,
          "internalType": "uint256",
          "name": "loanId",
          "type": "uint256"
        },
        {
          "indexed": true,
          "internalType": "address",
          "name": "lender",
          "type": "address"
        },
        {
          "indexed": false,
          "internalType": "enum LoanVerseV4.DefaultAction",
          "name": "action",
          "type": "uint8"
        },
        {
          "indexed": false,
          "internalType": "uint256",
          "name": "votingPower",
          "type": "uint256"
        }
      ],
      "name": "VoteCast",
      "type": "event"
    },
    {
      "inputs": [],
      "name": "DEFAULT_FUNDING_PERIOD",
      "outputs": [
        {
          "internalType": "uint256",
          "name": "",
          "type": "uint256"
        }
      ],
      "stateMutability": "view",
      "type": "function"
    },
    {
      "inputs": [],
      "name": "LIQUIDATION_THRESHOLD",
      "outputs": [
        {
          "internalType": "uint256",
          "name": "",
          "type": "uint256"
        }
      ],
      "stateMutability": "view",
      "type": "function"
    },
    {
      "inputs": [],
      "name": "MAX_INTEREST_RATE",
      "outputs": [
        {
          "internalType": "uint256",
          "name": "",
          "type": "uint256"
        }
      ],
      "stateMutability": "view",
      "type": "function"
    },
    {
      "inputs": [],
      "name": "MAX_LOAN_DURATION",
      "outputs": [
        {
          "internalType": "uint256",
          "name": "",
          "type": "uint256"
        }
      ],
      "stateMutability": "view",
      "type": "function"
    },
    {
      "inputs": [],
      "name": "MIN_COLLATERAL_RATIO",
      "outputs": [
        {
          "internalType": "uint256",
          "name": "",
          "type": "uint256"
        }
      ],
      "stateMutability": "view",
      "type": "function"
    },
    {
      "inputs": [],
      "name": "MIN_CREDIT_SCORE",
      "outputs": [
        {
          "internalType": "uint256",
          "name": "",
          "type": "uint256"
        }
      ],
      "stateMutability": "view",
      "type": "function"
    },
    {
      "inputs": [],
      "name": "MIN_LOAN_DURATION",
      "outputs": [
        {
          "internalType": "uint256",
          "name": "",
          "type": "uint256"
        }
      ],
      "stateMutability": "view",
      "type": "function"
    },
    {
      "inputs": [],
      "name": "PRICE_STALENESS_THRESHOLD",
      "outputs": [
        {
          "internalType": "uint256",
          "name": "",
          "type": "uint256"
        }
      ],
      "stateMutability": "view",
      "type": "function"
    },
    {
      "inputs": [],
      "name": "VOTING_PERIOD",
      "outputs": [
        {
          "internalType": "uint256",
          "name": "",
          "type": "uint256"
        }
      ],
      "stateMutability": "view",
      "type": "function"
    },
    {
      "inputs": [
        {
          "internalType": "address",
          "name": "_contractAddress",
          "type": "address"
        },
        {
          "internalType": "string",
          "name": "_symbol",
          "type": "string"
        },
        {
          "internalType": "uint8",
          "name": "_decimals",
          "type": "uint8"
        },
        {
          "internalType": "address",
          "name": "_priceFeedAddress",
          "type": "address"
        }
      ],
      "name": "addSupportedToken",
      "outputs": [],
      "stateMutability": "nonpayable",
      "type": "function"
    },
    {
      "inputs": [
        {
          "internalType": "address",
          "name": "",
          "type": "address"
        }
      ],
      "name": "authorizedRiskOracles",
      "outputs": [
        {
          "internalType": "bool",
          "name": "",
          "type": "bool"
        }
      ],
      "stateMutability": "view",
      "type": "function"
    },
    {
      "inputs": [
        {
          "internalType": "address",
          "name": "",
          "type": "address"
        },
        {
          "internalType": "uint256",
          "name": "",
          "type": "uint256"
        }
      ],
      "name": "borrowerLoans",
      "outputs": [
        {
          "internalType": "uint256",
          "name": "",
          "type": "uint256"
        }
      ],
      "stateMutability": "view",
      "type": "function"
    },
    {
      "inputs": [
        {
          "internalType": "uint256",
          "name": "_tokenId",
          "type": "uint256"
        },
        {
          "internalType": "uint256",
          "name": "_amount",
          "type": "uint256"
        }
      ],
      "name": "calculateUSDValue",
      "outputs": [
        {
          "internalType": "uint256",
          "name": "",
          "type": "uint256"
        }
      ],
      "stateMutability": "view",
      "type": "function"
    },
    {
      "inputs": [
        {
          "internalType": "uint256",
          "name": "_loanId",
          "type": "uint256"
        }
      ],
      "name": "cancelLoan",
      "outputs": [],
      "stateMutability": "nonpayable",
      "type": "function"
    },
    {
      "inputs": [],
      "name": "collectedFees",
      "outputs": [
        {
          "internalType": "uint256",
          "name": "",
          "type": "uint256"
        }
      ],
      "stateMutability": "view",
      "type": "function"
    },
    {
      "inputs": [
        {
          "internalType": "uint256",
          "name": "_loanId",
          "type": "uint256"
        },
        {
          "internalType": "uint256",
          "name": "_amount",
          "type": "uint256"
        }
      ],
      "name": "contributeLoan",
      "outputs": [],
      "stateMutability": "payable",
      "type": "function"
    },
    {
      "inputs": [
        {
          "internalType": "address",
          "name": "",
          "type": "address"
        }
      ],
      "name": "creditScores",
      "outputs": [
        {
          "internalType": "uint256",
          "name": "score",
          "type": "uint256"
        },
        {
          "internalType": "uint256",
          "name": "totalLoansCount",
          "type": "uint256"
        },
        {
          "internalType": "uint256",
          "name": "repaidLoansCount",
          "type": "uint256"
        },
        {
          "internalType": "uint256",
          "name": "defaultedLoansCount",
          "type": "uint256"
        },
        {
          "internalType": "uint256",
          "name": "totalBorrowed",
          "type": "uint256"
        },
        {
          "internalType": "uint256",
          "name": "totalRepaid",
          "type": "uint256"
        },
        {
          "internalType": "uint256",
          "name": "lastUpdated",
          "type": "uint256"
        }
      ],
      "stateMutability": "view",
      "type": "function"
    },
    {
      "inputs": [
        {
          "internalType": "uint256",
          "name": "_tokenId",
          "type": "uint256"
        }
      ],
      "name": "deactivateToken",
      "outputs": [],
      "stateMutability": "nonpayable",
      "type": "function"
    },
    {
      "inputs": [
        {
          "internalType": "uint256",
          "name": "",
          "type": "uint256"
        },
        {
          "internalType": "enum LoanVerseV4.DefaultAction",
          "name": "",
          "type": "uint8"
        }
      ],
      "name": "defaultVotes",
      "outputs": [
        {
          "internalType": "uint256",
          "name": "",
          "type": "uint256"
        }
      ],
      "stateMutability": "view",
      "type": "function"
    },
    {
      "inputs": [
        {
          "internalType": "uint256",
          "name": "_loanId",
          "type": "uint256"
        }
      ],
      "name": "executeDefaultAction",
      "outputs": [],
      "stateMutability": "nonpayable",
      "type": "function"
    },
    {
      "inputs": [],
      "name": "feeRecipient",
      "outputs": [
        {
          "internalType": "address",
          "name": "",
          "type": "address"
        }
      ],
      "stateMutability": "view",
      "type": "function"
    },
    {
      "inputs": [],
      "name": "getActiveLoanRequests",
      "outputs": [
        {
          "internalType": "uint256[]",
          "name": "",
          "type": "uint256[]"
        }
      ],
      "stateMutability": "view",
      "type": "function"
    },
    {
      "inputs": [
        {
          "internalType": "uint256",
          "name": "_tokenId",
          "type": "uint256"
        }
      ],
      "name": "getLatestPrice",
      "outputs": [
        {
          "internalType": "uint256",
          "name": "",
          "type": "uint256"
        },
        {
          "internalType": "uint256",
          "name": "",
          "type": "uint256"
        }
      ],
      "stateMutability": "view",
      "type": "function"
    },
    {
      "inputs": [
        {
          "internalType": "uint256",
          "name": "_loanId",
          "type": "uint256"
        }
      ],
      "name": "getLoanLenders",
      "outputs": [
        {
          "internalType": "address[]",
          "name": "",
          "type": "address[]"
        },
        {
          "internalType": "uint256[]",
          "name": "",
          "type": "uint256[]"
        }
      ],
      "stateMutability": "view",
      "type": "function"
    },
    {
      "inputs": [
        {
          "internalType": "uint256",
          "name": "",
          "type": "uint256"
        },
        {
          "internalType": "address",
          "name": "",
          "type": "address"
        }
      ],
      "name": "hasVoted",
      "outputs": [
        {
          "internalType": "bool",
          "name": "",
          "type": "bool"
        }
      ],
      "stateMutability": "view",
      "type": "function"
    },
    {
      "inputs": [
        {
          "internalType": "uint256",
          "name": "",
          "type": "uint256"
        },
        {
          "internalType": "address",
          "name": "",
          "type": "address"
        }
      ],
      "name": "lenderContributionIndex",
      "outputs": [
        {
          "internalType": "uint256",
          "name": "",
          "type": "uint256"
        }
      ],
      "stateMutability": "view",
      "type": "function"
    },
    {
      "inputs": [
        {
          "internalType": "address",
          "name": "",
          "type": "address"
        },
        {
          "internalType": "uint256",
          "name": "",
          "type": "uint256"
        }
      ],
      "name": "lenderLoans",
      "outputs": [
        {
          "internalType": "uint256",
          "name": "",
          "type": "uint256"
        }
      ],
      "stateMutability": "view",
      "type": "function"
    },
    {
      "inputs": [
        {
          "internalType": "uint256",
          "name": "_loanId",
          "type": "uint256"
        }
      ],
      "name": "liquidate",
      "outputs": [],
      "stateMutability": "payable",
      "type": "function"
    },
    {
      "inputs": [
        {
          "internalType": "uint256",
          "name": "",
          "type": "uint256"
        },
        {
          "internalType": "uint256",
          "name": "",
          "type": "uint256"
        }
      ],
      "name": "loanContributions",
      "outputs": [
        {
          "internalType": "address",
          "name": "lender",
          "type": "address"
        },
        {
          "internalType": "uint256",
          "name": "amount",
          "type": "uint256"
        },
        {
          "internalType": "bool",
          "name": "repaid",
          "type": "bool"
        }
      ],
      "stateMutability": "view",
      "type": "function"
    },
    {
      "inputs": [
        {
          "internalType": "uint256",
          "name": "",
          "type": "uint256"
        }
      ],
      "name": "loans",
      "outputs": [
        {
          "internalType": "uint256",
          "name": "id",
          "type": "uint256"
        },
        {
          "internalType": "address",
          "name": "borrower",
          "type": "address"
        },
        {
          "internalType": "uint256",
          "name": "tokenId",
          "type": "uint256"
        },
        {
          "internalType": "uint256",
          "name": "collateralTokenId",
          "type": "uint256"
        },
        {
          "internalType": "uint256",
          "name": "amount",
          "type": "uint256"
        },
        {
          "internalType": "uint256",
          "name": "amountFunded",
          "type": "uint256"
        },
        {
          "internalType": "uint256",
          "name": "collateralAmount",
          "type": "uint256"
        },
        {
          "internalType": "uint256",
          "name": "interestRate",
          "type": "uint256"
        },
        {
          "internalType": "uint256",
          "name": "duration",
          "type": "uint256"
        },
        {
          "internalType": "uint256",
          "name": "minContribution",
          "type": "uint256"
        },
        {
          "internalType": "uint256",
          "name": "fundingDeadline",
          "type": "uint256"
        },
        {
          "internalType": "uint256",
          "name": "createdAt",
          "type": "uint256"
        },
        {
          "internalType": "uint256",
          "name": "fundedAt",
          "type": "uint256"
        },
        {
          "internalType": "uint256",
          "name": "dueDate",
          "type": "uint256"
        },
        {
          "internalType": "enum LoanVerseV4.LoanStatus",
          "name": "status",
          "type": "uint8"
        },
        {
          "internalType": "string",
          "name": "ipfsDocumentHash",
          "type": "string"
        },
        {
          "internalType": "uint256",
          "name": "riskScore",
          "type": "uint256"
        },
        {
          "internalType": "uint256",
          "name": "liquidationThreshold",
          "type": "uint256"
        },
        {
          "internalType": "uint256",
          "name": "totalRepaid",
          "type": "uint256"
        },
        {
          "internalType": "uint256",
          "name": "earlyRepaymentPenalty",
          "type": "uint256"
        }
      ],
      "stateMutability": "view",
      "type": "function"
    },
    {
      "inputs": [],
      "name": "nextLoanId",
      "outputs": [
        {
          "internalType": "uint256",
          "name": "",
          "type": "uint256"
        }
      ],
      "stateMutability": "view",
      "type": "function"
    },
    {
      "inputs": [],
      "name": "nextTokenId",
      "outputs": [
        {
          "internalType": "uint256",
          "name": "",
          "type": "uint256"
        }
      ],
      "stateMutability": "view",
      "type": "function"
    },
    {
      "inputs": [],
      "name": "owner",
      "outputs": [
        {
          "internalType": "address",
          "name": "",
          "type": "address"
        }
      ],
      "stateMutability": "view",
      "type": "function"
    },
    {
      "inputs": [],
      "name": "pause",
      "outputs": [],
      "stateMutability": "nonpayable",
      "type": "function"
    },
    {
      "inputs": [],
      "name": "paused",
      "outputs": [
        {
          "internalType": "bool",
          "name": "",
          "type": "bool"
        }
      ],
      "stateMutability": "view",
      "type": "function"
    },
    {
      "inputs": [
        {
          "internalType": "uint256",
          "name": "_loanId",
          "type": "uint256"
        }
      ],
      "name": "processFundingFailure",
      "outputs": [],
      "stateMutability": "nonpayable",
      "type": "function"
    },
    {
      "inputs": [],
      "name": "protocolFeeRate",
      "outputs": [
        {
          "internalType": "uint256",
          "name": "",
          "type": "uint256"
        }
      ],
      "stateMutability": "view",
      "type": "function"
    },
    {
      "inputs": [],
      "name": "renounceOwnership",
      "outputs": [],
      "stateMutability": "nonpayable",
      "type": "function"
    },
    {
      "inputs": [
        {
          "internalType": "uint256",
          "name": "_loanId",
          "type": "uint256"
        }
      ],
      "name": "repayLoan",
      "outputs": [],
      "stateMutability": "payable",
      "type": "function"
    },
    {
      "inputs": [
        {
          "internalType": "uint256",
          "name": "_tokenId",
          "type": "uint256"
        },
        {
          "internalType": "uint256",
          "name": "_collateralTokenId",
          "type": "uint256"
        },
        {
          "internalType": "uint256",
          "name": "_amount",
          "type": "uint256"
        },
        {
          "internalType": "uint256",
          "name": "_interestRate",
          "type": "uint256"
        },
        {
          "internalType": "uint256",
          "name": "_duration",
          "type": "uint256"
        },
        {
          "internalType": "uint256",
          "name": "_minContribution",
          "type": "uint256"
        },
        {
          "internalType": "uint256",
          "name": "_fundingPeriod",
          "type": "uint256"
        },
        {
          "internalType": "uint256",
          "name": "_earlyRepaymentPenalty",
          "type": "uint256"
        },
        {
          "internalType": "string",
          "name": "_ipfsDocumentHash",
          "type": "string"
        }
      ],
      "name": "requestLoan",
      "outputs": [],
      "stateMutability": "payable",
      "type": "function"
    },
    {
      "inputs": [
        {
          "internalType": "address",
          "name": "_oracle",
          "type": "address"
        },
        {
          "internalType": "bool",
          "name": "_authorized",
          "type": "bool"
        }
      ],
      "name": "setAuthorizedOracle",
      "outputs": [],
      "stateMutability": "nonpayable",
      "type": "function"
    },
    {
      "inputs": [
        {
          "internalType": "uint256",
          "name": "",
          "type": "uint256"
        }
      ],
      "name": "supportedTokens",
      "outputs": [
        {
          "internalType": "enum LoanVerseV4.TokenType",
          "name": "tokenType",
          "type": "uint8"
        },
        {
          "internalType": "address",
          "name": "contractAddress",
          "type": "address"
        },
        {
          "internalType": "string",
          "name": "symbol",
          "type": "string"
        },
        {
          "internalType": "uint8",
          "name": "decimals",
          "type": "uint8"
        },
        {
          "internalType": "bool",
          "name": "isActive",
          "type": "bool"
        },
        {
          "internalType": "contract AggregatorV3Interface",
          "name": "priceFeed",
          "type": "address"
        }
      ],
      "stateMutability": "view",
      "type": "function"
    },
    {
      "inputs": [
        {
          "internalType": "address",
          "name": "newOwner",
          "type": "address"
        }
      ],
      "name": "transferOwnership",
      "outputs": [],
      "stateMutability": "nonpayable",
      "type": "function"
    },
    {
      "inputs": [
        {
          "internalType": "uint256",
          "name": "_loanId",
          "type": "uint256"
        }
      ],
      "name": "triggerDefault",
      "outputs": [],
      "stateMutability": "nonpayable",
      "type": "function"
    },
    {
      "inputs": [],
      "name": "unpause",
      "outputs": [],
      "stateMutability": "nonpayable",
      "type": "function"
    },
    {
      "inputs": [
        {
          "internalType": "uint256",
          "name": "_loanId",
          "type": "uint256"
        },
        {
          "internalType": "uint256",
          "name": "_riskScore",
          "type": "uint256"
        }
      ],
      "name": "updateRiskScore",
      "outputs": [],
      "stateMutability": "nonpayable",
      "type": "function"
    },
    {
      "inputs": [
        {
          "internalType": "uint256",
          "name": "_loanId",
          "type": "uint256"
        },
        {
          "internalType": "enum LoanVerseV4.DefaultAction",
          "name": "_action",
          "type": "uint8"
        }
      ],
      "name": "voteOnDefault",
      "outputs": [],
      "stateMutability": "nonpayable",
      "type": "function"
    },
    {
      "inputs": [
        {
          "internalType": "uint256",
          "name": "",
          "type": "uint256"
        }
      ],
      "name": "votingDeadline",
      "outputs": [
        {
          "internalType": "uint256",
          "name": "",
          "type": "uint256"
        }
      ],
      "stateMutability": "view",
      "type": "function"
    },
    {
      "inputs": [],
      "name": "withdrawFees",
      "outputs": [],
      "stateMutability": "nonpayable",
      "type": "function"
    }
  ],
  "bytecode": "0x608060409080825234620003195760019060009082825533156200030557508154336001600160a01b03198083168217855592916001600160a01b03167f8be0079c531659141344cd1fd0a4f28419497f9722a3daafe3b4186f6b6457e08380a38260025582600355600491603283553390600554161760055583519060c082019160018060401b039281811084821117620002f25786528181526020948582019383855287519188830183811083821117620002df578952600383526208aa8960eb1b88840152888401928352606084019760128952608085019782895260a0860197878952878052600883528b88209651906002821015620002cc5760ff885491610100600160a81b03905160081b1692169060018060a81b031916171786558286019451908151948511620002b9578554908482811c92168015620002ae575b848310146200029b5750601f811162000250575b5081601f8511600114620001df57509280928192600297969560ff9994620001d3575b50501b916000199060031b1c19161790555b945194018054935192516001600160b01b0319909416919094161790151560081b61ff00161760109190911b62010000600160b01b0316179055516141d490816200031f8239f35b01519250388062000179565b858852808820969795969395601f198616915b828210620002385750509160ff97959391856002989694106200021e575b505050811b0190556200018b565b015160001960f88460031b161c1916905538808062000210565b808886978294978701518155019601940190620001f2565b858852828820601f860160051c81019184871062000290575b601f0160051c019084905b8281106200028457505062000156565b89815501849062000274565b909150819062000269565b634e487b7160e01b895260229052602488fd5b91607f169162000142565b634e487b7160e01b885260419052602487fd5b634e487b7160e01b895260218352602489fd5b634e487b7160e01b865260418852602486fd5b634e487b7160e01b835260418552602483fd5b602491631e4fbdf760e01b82526004820152fd5b600080fdfe610180604052600436101561001357600080fd5b60003560e01c80630a353a29146133595780630a49cf4d1461333c5780630d0b2ca61461331d578063119328d6146132fc57806322e692261461295a57806334855d141461293d57806336630cd6146128de57806336cf063a146126535780633cdb72f1146126095780633f4ba83a14612597578063415f12401461224c57806343859632146121ff57806346904840146121d6578063476343ee1461215757806358f85880146121395780635c211efc14611e155780635c975abb14611def5780636382539214611cb35780636dede8eb14611c875780636eef115414611c48578063715018a614611beb57806375794a3c14611bcd57806377e6c4aa14611a595780637a9fffb714611a3d5780638075a8f9146119f557806380bb72731461197a5780638456cb591461191857806387c51459146118fa57806389d99a05146118de5780638da5cb5b146118b55780639003adfe1461189757806390a8ae9b146113815780639772d7ee14611799578063ab7b1c8914611386578063b1610d7e14611381578063b94fe91714611357578063bad128b61461124c578063bdbfa3de146110d4578063c62556261461103e578063c7a6de4d14610fe5578063caff648414610e98578063cba89b65146108a7578063dafd06a3146105cc578063e1ec3c6814610429578063e25b1078146103ed578063e3ed190214610395578063ec991da9146102e3578063f25b9caa146102c65763f2fde38b1461023857600080fd5b346102c15760203660031901126102c157610251613499565b61025961363b565b6001600160a01b039081169081156102a857600154826001600160601b0360a01b821617600155167f8be0079c531659141344cd1fd0a4f28419497f9722a3daafe3b4186f6b6457e0600080a3005b604051631e4fbdf760e01b815260006004820152602490fd5b600080fd5b346102c15760003660031901126102c1576020604051610e108152f35b346102c15760203660031901126102c1576004356102ff61363b565b80600052600860205260ff60026040600020015460081c161561035d57806000526008602052600260406000200161ff001981541690557f76ae93cd7712c8a8b4ba0c1b9f441ddbd9e9ce3e425a93b15e8f6e37d8784fa6600080a2005b60405162461bcd60e51b815260206004820152601060248201526f546f6b656e206e6f742061637469766560801b6044820152606490fd5b346102c15760403660031901126102c1576103ae613499565b6001600160a01b03166000908152600b60205260409020805460243591908210156102c1576020916103df916134c5565b90546040519160031b1c8152f35b346102c1576103fb3661347a565b90600052600f602052604060002090610413816135f1565b6000526020526020604060002054604051908152f35b346102c15760203660031901126102c157600435600052600760205260406000208061010052805460e052600160a01b60019003600182015416600282015460c052600382015460048301546005840154600685015460078601546008870154600988015491600a89015493600b8a015495600c8b015497600d8c015499600e8d015460ff169c600f016104bc9061354b565b9b61010051601081015460a05260118101546101205260128101546101605260130154610140526040518060805260e05190526080516020015260c05160805160400152608051606001526080516080015260805160a0015260805160c0015260805160e00152608051610100015260805161012001526080516101400152608051610160015260805161018001526080516101a0015260078210156105b65761057e916101c06080510152610280806101e0608051015260805101906135fb565b60a051610200608051015261012051610220608051015261016051610240608051015261014051610260608051015260805180910390f35b634e487b7160e01b600052602160045260246000fd5b346102c1576020806003193601126102c1576004356105e9613b13565b80600052600791828152604060002090600e820193845460ff91828216818110156105b65761086b57600a85015442111561082657600585019260048454960195865411156107ed5760019788809460ff19161790558660005260098552604060002091825461065881613bb6565b9361066660405195866133c3565b8185526000908152878120868987015b8a8585106107a9575050925050506000905b6106d0575b84897f077f7e7d85860b4290e437c62570324ddd92c9bb185ec5a51fbec45bc8d1550360408b8b8b6106be86613fae565b549154908351928352820152a2600055005b83518110156107a457610781906001600160a01b038a7f7a482fdeb6bc9a1376f597068a214a7a39472bb2eff1b8cad21ba04f49ddca1b8a83610713868b613bce565b5151169381610722878c613bce565b51015190846000528883528186600260406000200154928360005260088087528d60406000205416610753816135f1565b6107875750506107759250600080809381935af161076f613b36565b50613f72565b604051908152a3613667565b84610688565b61079f94600052808752604060002054901c16613b66565b610775565b61068d565b6003916040516107b8816133a7565b85546001600160a01b03168152848601548382015260028601548a161515604082015281529490920193920191889101610676565b60405162461bcd60e51b8152600481018690526011602482015270131bd85b88199d5b1b1e48199d5b991959607a1b6044820152606490fd5b60405162461bcd60e51b815260048101859052601860248201527f46756e64696e6720706572696f64206e6f7420656e64656400000000000000006044820152606490fd5b60405162461bcd60e51b81526004810185905260146024820152734e6f7420696e2066756e64696e6720737461746560601b6044820152606490fd5b6108b036613375565b906108b9613b13565b6108c1613af2565b8060005260206007815260406000209260018060a01b036001948186820154166108ec811515613676565b60ff600e8301541660078110156105b657610e5e57600a8201544211610e19573314610ddd57600981015490818410610d985760048101908154926109376005830194855490613711565b90818711610d53578661094a8184613711565b15159283610d3f575b505050610ce65760020154938460005260089485875260ff6040600020541661097b816135f1565b610c7a5750803403610c3e575b86600052600986526040600020604051906109a2826133a7565b338252878201918383526040810191600083528054600160401b811015610c28576109d1918d82018155613448565b929092610c1257610a0e938860029351166001600160601b0360a01b855416178455518c84015551151591019060ff801983541691151516179055565b86600052600986526040600020546000198101908111610bfc5787600052600a87526040600020336000528752604060002055600c8652610a53876040600020613a0c565b610a5e8184546139ff565b8093556040519081528286820152867f99f1c95e4132b33cad7cbbd49d5efa1aa01db71edbab6f05c01fb2323875ad1460403393a35414610aa1575b6000859055005b8360005260078352604060002091600e8301600260ff1982541617905542600c840155610ad181840154426139ff565b600d84015560028301548060005281855260ff60406000205416610af4816135f1565b610bab57505060008080809388860154166004860154905af1610b15613b36565b5015610b66577fb96bada2a4e2e402aaa472b5e783a9d8bb13d996387df6beea608680b31ff46f9160046040925b01549084600052600981528260002054908351928352820152a281808080610a9a565b60405162461bcd60e51b815260048101839052601b60248201527f5472616e7366657220746f20626f72726f776572206661696c656400000000006044820152606490fd5b92610bf7837fb96bada2a4e2e402aaa472b5e783a9d8bb13d996387df6beea608680b31ff46f96946004946040976000528087528760002054901c169089840154168484015491613b66565b610b43565b634e487b7160e01b600052601160045260246000fd5b634e487b7160e01b600052600060045260246000fd5b634e487b7160e01b600052604160045260246000fd5b60405162461bcd60e51b8152600481018790526014602482015273125b98dbdc9c9958dd0811551208185b5bdd5b9d60621b6044820152606490fd5b34610ca157600052848652610c9c8185604060002054881c1630903390613a41565b610988565b60405162461bcd60e51b815260048101889052601d60248201527f455448206e6f74206e656564656420666f72204552433230206c6f616e0000006044820152606490fd5b60405162461bcd60e51b815260048101879052602b60248201527f576f756c64206c6561766520616d6f756e742062656c6f77206d696e696d756d60448201526a20666f72206f746865727360a81b6064820152608490fd5b610d4a929350613711565b10898681610953565b60405162461bcd60e51b815260048101899052601860248201527f457863656564732072656d61696e696e6720616d6f756e7400000000000000006044820152606490fd5b60405162461bcd60e51b815260048101869052601a60248201527f42656c6f77206d696e696d756d20636f6e747269627574696f6e0000000000006044820152606490fd5b60405162461bcd60e51b815260048101859052601460248201527321b0b73737ba10333ab7321037bbb7103637b0b760611b6044820152606490fd5b60405162461bcd60e51b815260048101869052601760248201527f46756e64696e6720646561646c696e65207061737365640000000000000000006044820152606490fd5b60405162461bcd60e51b81526004810186905260126024820152714c6f616e206e6f7420617661696c61626c6560701b6044820152606490fd5b346102c1576020806003193601126102c15760043590610eb6613b13565b8160005260078152600e60406000200180549060ff821660078110156105b6576006610ee29114613dfa565b8360005260118352604060002054421115610faa57907fb6d0d13889bd27ea4546c2b38e63c4ca45f6fd27b5db622033f3f0840c103ff6929184600052600f8352604060002060008052835260406000205485600052600f84526040600020600160005284526040600020541115600014610fa05760046000925b60ff1916179055610f6d816135f1565b80610f9257610f7b84613e3c565b60405190610f88816135f1565b8152a26001600055005b610f9b84613e3c565b610f7b565b6004600192610f5d565b60405162461bcd60e51b8152600481018490526013602482015272566f74696e67207374696c6c2061637469766560681b6044820152606490fd5b346102c15760403660031901126102c157610ffe613499565b60243580151581036102c15761103c9161101661363b565b60018060a01b0316600052600e60205260406000209060ff801983541691151516179055565b005b346102c15760203660031901126102c15760043560005260086020526040600020805460ff81169060026110746001850161354b565b930154906110af604051948461108a87966135f1565b855260018060a01b03809360081c16602086015260c0604086015260c08501906135fb565b9160ff8116606085015260ff8160081c161515608085015260101c1660a08301520390f35b346102c15760203660031901126102c1576004356110f0613b13565b600081815260076020526040902060018101546001600160a01b0316330361120757600e81019081549060ff821660078110156105b6576111c257600501546111715760ff1916600517905561114581613fae565b7fb71becc91961a6b43bcc5b3b630f3dce02c7fd444cf3738c4f188062b1caf5bc600080a26001600055005b60405162461bcd60e51b815260206004820152602360248201527f43616e6e6f742063616e63656c207061727469616c6c792066756e646564206c60448201526237b0b760e91b6064820152608490fd5b60405162461bcd60e51b815260206004820152601e60248201527f43616e206f6e6c792063616e63656c20756e66756e646564206c6f616e7300006044820152606490fd5b60405162461bcd60e51b815260206004820152601860248201527f4f6e6c7920626f72726f7765722063616e2063616e63656c00000000000000006044820152606490fd5b346102c15761125a36613375565b33600052602090600e825260ff604060002054161561131a576103e881116112e05760008381526007835260409020600101547f48adb4acae9076e27f3dd76aae95808bb8f40caf101b9d074b3b89e67602cc4f9291906112c5906001600160a01b03161515613676565b836000526007825280601060406000200155604051908152a2005b60405162461bcd60e51b8152600481018390526012602482015271496e76616c6964207269736b2073636f726560701b6044820152606490fd5b60405162461bcd60e51b81526004810183905260156024820152744e6f7420617574686f72697a6564206f7261636c6560581b6044820152606490fd5b346102c15760203660031901126102c157604061137560043561371e565b82519182526020820152f35b613359565b6020806003193601126102c1576004359061139f613b13565b600082815260078252604090206001810180546001600160a01b0392908316330361175457600e810160ff81541660078110156105b65760026113e29114613be2565b600d820154908142108092811561173e575b50156117055760048301546127109061141c8261141560078801548461391b565b04826139ff565b93806116f8575b6116d4575b50506012830191600261143c845483613711565b940192835490816000526008895260ff6040600020541661145c816135f1565b6116cd5734915b821515806116c3575b1561167e5760408b92827f919e2311cb8f85978e6f84ae3d90a27edc48dc6ca722d47302df171a808fd7029360005260088d52600160ff8460002054166114b2816135f1565b1461165a575b506114c48582546139ff565b81556114d08585613c20565b54938151908152848c820152a210156114eb575b6001600055005b600360ff19825416179055546000526008845260ff60406000205416611510816135f1565b1580611651575b6115ef575b5061152684613fae565b54169081600052600d81526040600020906001820161154b815480156115e557613667565b9055426006830155600282016115618154613667565b9055815491600a8301809311610bfc577f79c012a0cfae660e09134956bc432c8497ec80e86a3a108d130e8b3fca52b3ad9261035290818111156115dc575080915b55604051908152a27f6a65a58027e68282a85ac65a7afc6580ef3d139c6e6ec12ae8d82de13566e8cc600080a2808080808080806114e4565b905080916115a3565b61023f8555613667565b600080806115fe819434613711565b335af1611609613b36565b5015611615578461151c565b60405162461bcd60e51b8152600481018490526014602482015273115e18d95cdcc81c995d1d5c9b8819985a5b195960621b6044820152606490fd5b50803411611517565b60005260088c52611678858c846000205460081c1630903390613a41565b8d6114b8565b60405162461bcd60e51b8152600481018b9052601860248201527f496e76616c69642072657061796d656e7420616d6f756e7400000000000000006044820152606490fd5b508683111561146c565b8591611463565b906116e96116f093949260138701549061391b565b04906139ff565b908780611428565b5060138501541515611423565b60405162461bcd60e51b8152600481018790526011602482015270546f6f206c61746520746f20726570617960781b6044820152606490fd5b905060788101809111610bfc57421115886113f4565b60405162461bcd60e51b815260048101859052601760248201527f4f6e6c7920626f72726f7765722063616e2072657061790000000000000000006044820152606490fd5b346102c15760003660031901126102c1576002546000198101818111610bfc576117c29061416c565b9060009060015b8181106118245750506117db8161416c565b9160005b82811061180057604051602080825281906117fc908201876134dd565b0390f35b8061180e61181f9284613bce565b516118198287613bce565b52613667565b6117df565b80600052600760209080825260ff600e6040600020015416818110156105b65715918261187c575b5050611861575b61185c90613667565b6117c9565b91611874818461181961185c9488613bce565b929050611853565b9091508260005252600a60406000200154421115858061184c565b346102c15760003660031901126102c1576020600654604051908152f35b346102c15760003660031901126102c1576001546040516001600160a01b039091168152602090f35b346102c15760003660031901126102c1576020604051603c8152f35b346102c15760003660031901126102c1576020600254604051908152f35b346102c15760003660031901126102c15761193161363b565b611939613af2565b6001805460ff60a01b1916600160a01b1790556040513381527f62e78cea01bee320cd4e420270b5ea74000d11b0c9f74754ebdbfc544b05a25890602090a1005b346102c15760203660031901126102c1576001600160a01b0361199b613499565b16600052600d60205260e06040600020805490600181015490600281015460038201546004830154916006600585015494015494604051968752602087015260408601526060850152608084015260a083015260c0820152f35b346102c15760403660031901126102c157611a0e6134af565b600435600052600a60205260406000209060018060a01b03166000526020526020604060002054604051908152f35b346102c15760003660031901126102c157602060405160968152f35b346102c1576020806003193601126102c157600435600052600981526040600020908154611a8681613bb6565b92611a9460405194856133c3565b8184526000908152828120838086015b848410611b895786828151611ad1611abb82613bb6565b91611ac960405193846133c3565b808352613bb6565b8183019290601f1901368437611ae7845161416c565b9160005b8551811015611b3557611b30906001600160a01b03611b0a8289613bce565b515116611b178285613bce565b5283611b238289613bce565b5101516118198287613bce565b611aeb565b509190604051926040840190604085525180915260608401949060005b818110611b6c578587038487015285806117fc89886134dd565b82516001600160a01b031687529583019591830191600101611b52565b600191600391604051611b9b816133a7565b848060a01b038654168152848601548382015260ff600287015416151560408201528152019201920191908490611aa4565b346102c15760003660031901126102c1576020600354604051908152f35b346102c15760003660031901126102c157611c0461363b565b600180546001600160a01b031981169091556000906001600160a01b03167f8be0079c531659141344cd1fd0a4f28419497f9722a3daafe3b4186f6b6457e08280a3005b346102c15760203660031901126102c1576001600160a01b03611c69613499565b16600052600e602052602060ff604060002054166040519015158152f35b346102c15760203660031901126102c15760043560005260116020526020604060002054604051908152f35b346102c1576020806003193601126102c15760043590611cd1613b13565b81600052600781526040600020600e8101805460ff811660078110156105b6576002611cfd9114613be2565b600d83015460788101809111610bfc57421115611db15760069060ff19161790556078420191824211610bfc57611d707f8abde2f70ef3fee1a095180c52ea8f9374714f640a915a9f6a63f59811f20afc92859485600052601184526040600020556001808060a01b0391015416614081565b8260005260118152604060002054604051908152a27f0789b7097e8066538cfaa1132488b132e14ba5f0c938c8b7aaf8cf40356aab0b600080a26001600055005b60405162461bcd60e51b815260048101859052601660248201527511dc9858d9481c195c9a5bd9081b9bdd08195b99195960521b6044820152606490fd5b346102c15760003660031901126102c157602060ff60015460a01c166040519015158152f35b346102c15760803660031901126102c157611e2e613499565b67ffffffffffffffff906024358281116102c157611e50903690600401613401565b6044359160ff83168093036102c1576001600160a01b0392606435929084841684036102c157611e7e61363b565b848316156120f45760405190611e938261338b565b6001825260208201908685168252604083019084825260608401526001608084015286861660a08401526003546000526008602052604060002091835190611eda826135f1565b611ee3826135f1565b60ff845491610100600160a81b03905160081b169216906affffffffffffffffffffff60a81b161717825551968751908111610c2857611f266001830154613511565b601f81116120a9575b506020601f821160011461200e577f98878a34ea3245957b330457c591928f2908c8b254e8b972075101360fca276b949282611fed9593600293611ffe9c600092612003575b50508160011b916000199060031b1c19161760018201555b019060ff6060820151169082549161ff006080830151151560081b169160a062010000600160b01b0391015160101b169269ffffffffffffffffffff60b01b161717179055600354958694816040519485946040865260408601906135fb565b9716602084015216940390a3613667565b600355005b015190508c80611f75565b6001830160005260206000209860005b601f1984168110612091575092600183611ffe9b6002947f98878a34ea3245957b330457c591928f2908c8b254e8b972075101360fca276b9997611fed9997601f19811610612078575b505050811b016001820155611f8d565b015160001960f88460031b161c191690558c8080612068565b828201518b556001909a01996020928301920161201e565b600183016000526020600020601f830160051c810191602084106120ea575b601f0160051c01905b8181106120de5750611f2f565b600081556001016120d1565b90915081906120c8565b60405162461bcd60e51b815260206004820152601860248201527f496e76616c696420636f6e7472616374206164647265737300000000000000006044820152606490fd5b346102c15760003660031901126102c1576020600454604051908152f35b346102c15760003660031901126102c15761217061363b565b60008080806006548160065560018060a01b03600554165af1612191613b36565b501561219957005b60405162461bcd60e51b8152602060048201526015602482015274119959481dda5d1a191c985dd85b0819985a5b1959605a1b6044820152606490fd5b346102c15760003660031901126102c1576005546040516001600160a01b039091168152602090f35b346102c15760403660031901126102c1576122186134af565b600435600052601060205260406000209060018060a01b0316600052602052602060ff604060002054166040519015158152f35b6020806003193601126102c157600435612264613b13565b8060005260078252604060002090600e820160ff81541660078110156105b6576002811490811561258c575b501561255657600d83015462278d008101809111610bfc5742116002840154906004850154926122c0848461395f565b9360038701928354956122d960068a019788549061395f565b90606482029180830460641490151715610bfc5760118a01546122fb9161391b565b11811561254e575b50156125125761232161232c916127106116e960078b01548361391b565b601288015490613711565b908360005260089384895260ff60406000205416612349816135f1565b6124e957508134106124a4579061237391813411612482575b805460ff1916600417905585613c20565b548060005281865260ff6040600020541661238d816135f1565b61243057505060008080809354335af16123a5613b36565b50156123eb577fb6d0d13889bd27ea4546c2b38e63c4ca45f6fd27b5db622033f3f0840c103ff66114e4935b60405160008152a2600101546001600160a01b0316614081565b60405162461bcd60e51b815260048101849052601a60248201527f436f6c6c61746572616c207472616e73666572206661696c65640000000000006044820152606490fd5b6000908152818652604090205491546114e4957fb6d0d13889bd27ea4546c2b38e63c4ca45f6fd27b5db622033f3f0840c103ff693909261247d929133911c6001600160a01b0316613b66565b6123d1565b61249f60008080806124948734613711565b335af161076f613b36565b612362565b60405162461bcd60e51b815260048101899052601d60248201527f496e73756666696369656e742045544820746f206c69717569646174650000006044820152606490fd5b90612373929160005284895261249f8260018060a01b03604060002054881c1630903390613a41565b60405162461bcd60e51b8152600481018990526014602482015273139bdd081b1a5c5d5a59185d18589b19481e595d60621b6044820152606490fd5b905089612303565b60405162461bcd60e51b815260048101859052600e60248201526d496e76616c69642073746174757360901b6044820152606490fd5b600691501485612290565b346102c15760003660031901126102c1576125b061363b565b60015460ff8160a01c16156125f75760ff60a01b19166001556040513381527f5db9ee0a495bf2e6ff9c91a7834c1ba4fdd244a5e8aa4e537bd38aeae4b073aa90602090a1005b604051638dfc202b60e01b8152600490fd5b346102c15760403660031901126102c157612622613499565b6001600160a01b03166000908152600c60205260409020805460243591908210156102c1576020916103df916134c5565b346102c1576126613661347a565b9061266a613b13565b806000526020906007825260ff9182600e604060002001541660078110156105b65760066126989114613dfa565b816000526011815260406000205442116128a45781600052601081526040600020336000528152826040600020541661287057600092826000526009825260406000208054906126e782613bb6565b926126f560405194856133c3565b828452600091825284822090858086015b85851061282d5750505050505060005b815181101561282357336001600160a01b036127328385613bce565b515116146127485761274390613667565b612716565b8293945061275591613bce565b510151905b81156127f057826000526010815260406000203360005281526040600020600160ff1982541617905582600052600f81526040600020612799856135f1565b84600052815260406000206127af8382546139ff565b9055604051936127be816135f1565b84528301527fb83d25c6a5d258561330739951487acb4bd09ba5190b5d32c4f261817d90679260403393a36001600055005b6064906040519062461bcd60e51b82526004820152600c60248201526b2737ba1030903632b73232b960a11b6044820152fd5b505091909161275a565b60019160039160405161283f816133a7565b848060a01b038754168152848701548382015285600288015416151560408201528152019301930192918690612706565b6064906040519062461bcd60e51b82526004820152600d60248201526c105b1c9958591e481d9bdd1959609a1b6044820152fd5b6064906040519062461bcd60e51b825260048201526013602482015272159bdd1a5b99c81c195c9a5bd908195b991959606a1b6044820152fd5b346102c1576128ec36613375565b906000526009602052604060002080548210156102c15760609161290f91613448565b5060018060a01b038154169060ff600260018301549201541690604051928352602083015215156040820152f35b346102c15760003660031901126102c1576020604051610bb88152f35b6101203660031901126102c1576101043567ffffffffffffffff81116102c157612988903690600401613401565b612990613b13565b612998613af2565b604435156132b757610bb86064351161327957603c608435101580613269575b156132315760043560005260086020526129df60ff60026040600020015460081c166136b8565b602435600052600860205260ff60026040600020015460081c16156131ec578051156131b25760a4351515806131a1575b1561315c57603c60c43510158061314d575b1561310f576101f460e435116130d75733600052600d602052604060002061012c815410908115916130ca575b501561308e57612a6360443560043561395f565b80609681020460961481151715610bfc57612b1f90612b1a612a8660243561371e565b5091602435600052600860205260646096612b126040600020600260405191612aae8361338b565b805460ff8116612abd816135f1565b845260081c6001600160a01b03166020840152612adc6001820161354b565b604084015201549060a060ff83169283606084015260ff8160081c1615156080840152600180831b039060101c1691015261392e565b92020461391b565b61393f565b90602435600052600860205260ff60406000205416612b3d816135f1565b612f5157813410612f0c575b600254612b5581613667565b600255612b6460c435426139ff565b92602435600052600860205260ff60406000205416612b82816135f1565b612f075750345b604051908161028081011067ffffffffffffffff61028084011117610c28576102808201604052828252336020830152600435604083015260243560608301526044356080830152600060a083015260c082015260643560e082015260843561010082015260a4356101208201528361014082015242610160820152600061018082015260006101a082015260006101c0820152826101e082015260006102008201526078610220820152600061024082015260e435610260820152816000526007602052604060002090805182556001820160018060a01b036020830151166001600160601b0360a01b82541617905560408101516002830155606081015160038301556080810151600483015560a0810151600583015560c0810151600683015560e0810151600783015561010081015160088301556101208101516009830155610140810151600a830155610160810151600b830155610180810151600c8301556101a0810151600d830155600e82016101c082015160078110156105b65760ff801983541691161790556101e081015180519067ffffffffffffffff8211610c2857612d3c600f850154613511565b601f8111612ec0575b50602090601f8311600114612e4a5791806013949261026094600092612e3f575b50508160011b916000199060031b1c191617600f8501555b610200810151601085015561022081015160118501556102408101516012850155015191015533600052600b602052612dbb816040600020613a0c565b8060005260076020526006604060002001549260405193604435855260208501526064356040850152608435606085015260a435608085015260a084015260e060c08401527f1455473c3acc495fcc473211502fcf9efe62f6c3a6b091a395e25c5c5d30ab546004359380612e35339560e08301906135fb565b0390a46001600055005b015190508980612d66565b90600f850160005260206000209160005b601f1985168110612ea8575092601394926001926102609583601f19811610612e8f575b505050811b01600f850155612d7e565b015160001960f88460031b161c19169055898080612e7f565b91926020600181928685015181550194019201612e5b565b600f85016000526020600020601f840160051c810160208510612f00575b601f830160051c82018110612ef4575050612d45565b60008155600101612ede565b5080612ede565b612b89565b60405162461bcd60e51b815260206004820152601b60248201527f496e73756666696369656e742045544820636f6c6c61746572616c00000000006044820152606490fd5b3461303d57602435600052600860205260018060a01b0360406000205460081c166040516370a0823160e01b8152336004820152602081602481855afa8015613031578491600091612ffc575b5010612fb75782612fb29130903390613a41565b612b49565b60405162461bcd60e51b815260206004820152601a60248201527f496e73756666696369656e742045524332302062616c616e63650000000000006044820152606490fd5b9150506020813d602011613029575b81613018602093836133c3565b810103126102c15783905185612f9e565b3d915061300b565b6040513d6000823e3d90fd5b60405162461bcd60e51b815260206004820152602360248201527f455448206e6f74206e656564656420666f7220455243323020636f6c6c6174656044820152621c985b60ea1b6064820152608490fd5b60405162461bcd60e51b81526020600482015260146024820152734372656469742073636f726520746f6f206c6f7760601b6044820152606490fd5b6001915001541582612a4f565b60405162461bcd60e51b815260206004820152601060248201526f0a0cadcc2d8e8f240e8dede40d0d2ced60831b6044820152606490fd5b60405162461bcd60e51b8152602060048201526016602482015275125b9d985b1a5908199d5b991a5b99c81c195c9a5bd960521b6044820152606490fd5b5062278d0060c4351115612a22565b60405162461bcd60e51b815260206004820152601860248201527f496e76616c6964206d696e20636f6e747269627574696f6e00000000000000006044820152606490fd5b5060443560011c60a4351115612a10565b60405162461bcd60e51b815260206004820152601260248201527112541194c81a185cda081c995c5d5a5c995960721b6044820152606490fd5b60405162461bcd60e51b815260206004820152601e60248201527f436f6c6c61746572616c20746f6b656e206e6f7420737570706f7274656400006044820152606490fd5b60405162461bcd60e51b815260206004820152601060248201526f24b73b30b634b210323ab930ba34b7b760811b6044820152606490fd5b506301e1338060843511156129b8565b60405162461bcd60e51b8152602060048201526016602482015275092dce8cae4cae6e840e4c2e8ca40e8dede40d0d2ced60531b6044820152606490fd5b60405162461bcd60e51b815260206004820152601d60248201527f416d6f756e74206d7573742062652067726561746572207468616e20300000006044820152606490fd5b346102c157602061331561330f36613375565b9061395f565b604051908152f35b346102c15760003660031901126102c15760206040516301e133808152f35b346102c15760003660031901126102c157602060405161012c8152f35b346102c15760003660031901126102c157602060405160788152f35b60409060031901126102c1576004359060243590565b60c0810190811067ffffffffffffffff821117610c2857604052565b6060810190811067ffffffffffffffff821117610c2857604052565b90601f8019910116810190811067ffffffffffffffff821117610c2857604052565b67ffffffffffffffff8111610c2857601f01601f191660200190565b81601f820112156102c157803590613418826133e5565b9261342660405194856133c3565b828452602083830101116102c157816000926020809301838601378301015290565b8054821015613464576000526003602060002091020190600090565b634e487b7160e01b600052603260045260246000fd5b60409060031901126102c1576004359060243560028110156102c15790565b600435906001600160a01b03821682036102c157565b602435906001600160a01b03821682036102c157565b80548210156134645760005260206000200190600090565b90815180825260208080930193019160005b8281106134fd575050505090565b8351855293810193928101926001016134ef565b90600182811c92168015613541575b602083101461352b57565b634e487b7160e01b600052602260045260246000fd5b91607f1691613520565b906040519182600082549261355f84613511565b9081845260019485811690816000146135ce575060011461358b575b5050613589925003836133c3565b565b9093915060005260209081600020936000915b8183106135b65750506135899350820101388061357b565b8554888401850152948501948794509183019161359e565b91505061358994506020925060ff191682840152151560051b820101388061357b565b600211156105b657565b919082519283825260005b848110613627575050826000602080949584010152601f8019910116010190565b602081830181015184830182015201613606565b6001546001600160a01b0316330361364f57565b60405163118cdaa760e01b8152336004820152602490fd5b6000198114610bfc5760010190565b1561367d57565b60405162461bcd60e51b8152602060048201526013602482015272131bd85b88191bd95cc81b9bdd08195e1a5cdd606a1b6044820152606490fd5b156136bf57565b60405162461bcd60e51b8152602060048201526013602482015272151bdad95b881b9bdd081cdd5c1c1bdc9d1959606a1b6044820152606490fd5b519069ffffffffffffffffffff821682036102c157565b91908203918211610bfc57565b9060009182526020600881526040808420815161373a8161338b565b61379e600283549360ff851661374f816135f1565b845260018060a01b03809560081c168785015261376e6001820161354b565b8685015201549160ff831660608201528360a060ff8560081c16151592836080820152019360101c1683526136b8565b5116801561390b579060a060049392825194858092633fabe5a360e21b82525afa94851561390057809381966138a8575b5083131561386557841561382d57610e106137ea8642613711565b116137f55750509190565b60649250519062461bcd60e51b825260048201526012602482015271141c9a58d94819185d18481d1bdbc81bdb1960721b6044820152fd5b60649250519062461bcd60e51b825260048201526012602482015271526f756e64206e6f7420636f6d706c65746560701b6044820152fd5b60649250519062461bcd60e51b82526004820152601960248201527f496e76616c69642070726963652066726f6d206f7261636c65000000000000006044820152fd5b9350945060a0833d82116138f8575b816138c460a093836133c3565b810103126138f4576138d5836136fa565b50818301516138eb6080606086015195016136fa565b509294386137cf565b8480fd5b3d91506138b7565b9051903d90823e3d90fd5b5050509050642e90edd000904290565b81810292918115918404141715610bfc57565b60ff16604d8111610bfc57600a0a90565b8115613949570490565b634e487b7160e01b600052601260045260246000fd5b906139f660ff6139ee6139fc946139758161371e565b509060005260086020526040600020946040516139918161338b565b60a06002885498878a166139a4816135f1565b8452600180841b03809a60081c1660208501526139c36001820161354b565b604085015201549760608301988781168a52878160081c161515608085015260101c1691015261391b565b92511661392e565b9061393f565b90565b91908201809211610bfc57565b8054600160401b811015610c2857613a29916001820181556134c5565b819291549060031b91821b91600019901b1916179055565b6040516323b872dd60e01b60208201526001600160a01b03928316602482015292909116604483015260648083019390935291815260a081019181831067ffffffffffffffff841117610c2857613589926040525b906000602091828151910182855af115613031576000513d613ae957506001600160a01b0381163b155b613ac75750565b604051635274afe760e01b81526001600160a01b039091166004820152602490fd5b60011415613ac0565b60ff60015460a01c16613b0157565b60405163d93c066560e01b8152600490fd5b600260005414613b24576002600055565b604051633ee5aeb560e01b8152600490fd5b3d15613b61573d90613b47826133e5565b91613b5560405193846133c3565b82523d6000602084013e565b606090565b60405163a9059cbb60e01b60208201526001600160a01b039092166024830152604480830193909352918152608081019167ffffffffffffffff831182841017610c285761358992604052613a96565b67ffffffffffffffff8111610c285760051b60200190565b80518210156134645760209160051b010190565b15613be957565b60405162461bcd60e51b815260206004820152600f60248201526e4c6f616e206e6f742061637469766560881b6044820152606490fd5b91909160009080825260209360078552604092838120916009875284822091600491613c67613c5e612710613c5686548561391b565b048093613711565b916006546139ff565b60065584830190825b8554811015613ded57613c9c613c946001613c8b848a613448565b5001548461391b565b84549061393f565b80613cb1575b50613cac90613667565b613c70565b89898d898860028d015480825260089081855260ff8784205416613cd4816135f1565b613d91575050935083925082915084613cee878493613448565b50546001600160a01b03165af1613d03613b36565b5015613d57579089897f655b9f7355449ee5d1f48de6b9fbfab1b98a556d98413fc02bddba24dab5f7738e613cac955b613d3d868d613448565b505494519081526001600160a01b0390941693a390613ca2565b895162461bcd60e51b81528087018d9052601460248201527313195b99195c881c185e5bdd5d0819985a5b195960621b6044820152606490fd5b967f655b9f7355449ee5d1f48de6b9fbfab1b98a556d98413fc02bddba24dab5f773949387613ddf8b86613de896613cac9e9d879952808a5260018060a01b039485922054901c1693613448565b50541690613b66565b613d33565b5050505050505050509050565b15613e0157565b60405162461bcd60e51b81526020600482015260136024820152724e6f7420696e20766f74696e6720737461746560681b6044820152606490fd5b600090815260076020908152604080832060098352818420600494919085820160068301845b8354811015613f6757613e88613c9483546001613e7f8589613448565b5001549061391b565b9081613e9e575b613e999150613667565b613e62565b866003870154928382526008808c5260ff8b84205416613ebd816135f1565b613f3b575082935081809391613ed482938a613448565b50546001600160a01b03165af1613ee9613b36565b5015613ef857613e9990613e8f565b865162461bcd60e51b8152808a01899052601e60248201527f436f6c6c61746572616c20646973747269627574696f6e206661696c656400006044820152606490fd5b613e9994613f629352808c5260018060a01b0380918c8c2054901c1690613ddf858a613448565b613e8f565b505050505050505050565b15613f7957565b60405162461bcd60e51b815260206004820152600d60248201526c1499599d5b990819985a5b1959609a1b6044820152606490fd5b60009081526007602052604081206003810154808352600860205260ff604084205416613fda816135f1565b614050575060018101546006909101548291829182916001600160a01b03165af1614003613b36565b501561400b57565b60405162461bcd60e51b815260206004820152601860248201527f436f6c6c61746572616c2072657475726e206661696c656400000000000000006044820152606490fd5b906006836040936135899552600860205260018060a01b03938491205460081c169260018301541691015491613b66565b6001600160a01b03166000818152600d602052604081206001810180549192916140b09080156115e557613667565b9055426006830155600382016140c68154613667565b9055815490603282111561413c57603119820191821161412857507f79c012a0cfae660e09134956bc432c8497ec80e86a3a108d130e8b3fca52b3ad9160209161012c908181101561412157505b80915b55604051908152a2565b9050614114565b634e487b7160e01b81526011600452602490fd5b505060207f79c012a0cfae660e09134956bc432c8497ec80e86a3a108d130e8b3fca52b3ad9161012c8091614117565b9061417682613bb6565b61418360405191826133c3565b8281528092614194601f1991613bb6565b019060203691013756fea2646970667358221220012e093b1f8f790ff1eb43468f4ec2975ec1749b4e863bb01ccdbbafa63b921764736f6c63430008140033",
  "linkReferences": {},
  "deployedLinkReferences": {}
}