{
  "_format": "hh-sol-artifact-1",
  "contractName": "LoanVerse",
  "sourceName": "contracts/LoanVerse.sol",
  "abi": [
    {
      "inputs": [],
      "stateMutability": "nonpayable",
      "type": "constructor"
    },
    {
      "inputs": [],
      "name": "EnforcedPause",
      "type": "error"
    },
    {
      "inputs": [],
      "name": "ExpectedPause",
      "type": "error"
    },
    {
      "inputs": [
        {
          "internalType": "address",
          "name": "owner",
          "type": "address"
        }
      ],
      "name": "OwnableInvalidOwner",
      "type": "error"
    },
    {
      "inputs": [
        {
          "internalType": "address",
          "name": "account",
          "type": "address"
        }
      ],
      "name": "OwnableUnauthorizedAccount",
      "type": "error"
    },
    {
      "inputs": [],
      "name": "ReentrancyGuardReentrantCall",
      "type": "error"
    },
    {
      "inputs": [
        {
          "internalType": "address",
          "name": "token",
          "type": "address"
        }
      ],
      "name": "SafeERC20FailedOperation",
      "type": "error"
    },
    {
      "anonymous": false,
      "inputs": [
        {
          "indexed": true,
          "internalType": "uint256",
          "name": "loanId",
          "type": "uint256"
        },
        {
          "indexed": false,
          "internalType": "uint256",
          "name": "amount",
          "type": "uint256"
        }
      ],
      "name": "CollateralClaimed",
      "type": "event"
    },
    {
      "anonymous": false,
      "inputs": [
        {
          "indexed": true,
          "internalType": "address",
          "name": "borrower",
          "type": "address"
        },
        {
          "indexed": false,
          "internalType": "uint256",
          "name": "newScore",
          "type": "uint256"
        }
      ],
      "name": "CreditScoreUpdated",
      "type": "event"
    },
    {
      "anonymous": false,
      "inputs": [
        {
          "indexed": true,
          "internalType": "uint256",
          "name": "loanId",
          "type": "uint256"
        }
      ],
      "name": "LoanCancelled",
      "type": "event"
    },
    {
      "anonymous": false,
      "inputs": [
        {
          "indexed": true,
          "internalType": "uint256",
          "name": "loanId",
          "type": "uint256"
        }
      ],
      "name": "LoanDefaulted",
      "type": "event"
    },
    {
      "anonymous": false,
      "inputs": [
        {
          "indexed": true,
          "internalType": "uint256",
          "name": "loanId",
          "type": "uint256"
        },
        {
          "indexed": true,
          "internalType": "address",
          "name": "lender",
          "type": "address"
        }
      ],
      "name": "LoanFunded",
      "type": "event"
    },
    {
      "anonymous": false,
      "inputs": [
        {
          "indexed": true,
          "internalType": "uint256",
          "name": "loanId",
          "type": "uint256"
        },
        {
          "indexed": false,
          "internalType": "uint256",
          "name": "repaidAmount",
          "type": "uint256"
        }
      ],
      "name": "LoanRepaid",
      "type": "event"
    },
    {
      "anonymous": false,
      "inputs": [
        {
          "indexed": true,
          "internalType": "uint256",
          "name": "loanId",
          "type": "uint256"
        },
        {
          "indexed": true,
          "internalType": "address",
          "name": "borrower",
          "type": "address"
        },
        {
          "indexed": true,
          "internalType": "uint256",
          "name": "tokenId",
          "type": "uint256"
        },
        {
          "indexed": false,
          "internalType": "uint256",
          "name": "amount",
          "type": "uint256"
        },
        {
          "indexed": false,
          "internalType": "uint256",
          "name": "collateralAmount",
          "type": "uint256"
        },
        {
          "indexed": false,
          "internalType": "uint256",
          "name": "interestRate",
          "type": "uint256"
        },
        {
          "indexed": false,
          "internalType": "uint256",
          "name": "duration",
          "type": "uint256"
        },
        {
          "indexed": false,
          "internalType": "string",
          "name": "ipfsHash",
          "type": "string"
        }
      ],
      "name": "LoanRequested",
      "type": "event"
    },
    {
      "anonymous": false,
      "inputs": [
        {
          "indexed": true,
          "internalType": "address",
          "name": "previousOwner",
          "type": "address"
        },
        {
          "indexed": true,
          "internalType": "address",
          "name": "newOwner",
          "type": "address"
        }
      ],
      "name": "OwnershipTransferred",
      "type": "event"
    },
    {
      "anonymous": false,
      "inputs": [
        {
          "indexed": false,
          "internalType": "address",
          "name": "account",
          "type": "address"
        }
      ],
      "name": "Paused",
      "type": "event"
    },
    {
      "anonymous": false,
      "inputs": [
        {
          "indexed": true,
          "internalType": "uint256",
          "name": "loanId",
          "type": "uint256"
        },
        {
          "indexed": false,
          "internalType": "uint256",
          "name": "riskScore",
          "type": "uint256"
        }
      ],
      "name": "RiskScoreUpdated",
      "type": "event"
    },
    {
      "anonymous": false,
      "inputs": [
        {
          "indexed": true,
          "internalType": "uint256",
          "name": "tokenId",
          "type": "uint256"
        },
        {
          "indexed": true,
          "internalType": "address",
          "name": "contractAddress",
          "type": "address"
        },
        {
          "indexed": false,
          "internalType": "string",
          "name": "symbol",
          "type": "string"
        }
      ],
      "name": "TokenAdded",
      "type": "event"
    },
    {
      "anonymous": false,
      "inputs": [
        {
          "indexed": true,
          "internalType": "uint256",
          "name": "tokenId",
          "type": "uint256"
        }
      ],
      "name": "TokenDeactivated",
      "type": "event"
    },
    {
      "anonymous": false,
      "inputs": [
        {
          "indexed": false,
          "internalType": "address",
          "name": "account",
          "type": "address"
        }
      ],
      "name": "Unpaused",
      "type": "event"
    },
    {
      "inputs": [],
      "name": "MAX_INTEREST_RATE",
      "outputs": [
        {
          "internalType": "uint256",
          "name": "",
          "type": "uint256"
        }
      ],
      "stateMutability": "view",
      "type": "function"
    },
    {
      "inputs": [],
      "name": "MAX_LOAN_DURATION",
      "outputs": [
        {
          "internalType": "uint256",
          "name": "",
          "type": "uint256"
        }
      ],
      "stateMutability": "view",
      "type": "function"
    },
    {
      "inputs": [],
      "name": "MIN_COLLATERAL_RATIO",
      "outputs": [
        {
          "internalType": "uint256",
          "name": "",
          "type": "uint256"
        }
      ],
      "stateMutability": "view",
      "type": "function"
    },
    {
      "inputs": [],
      "name": "MIN_CREDIT_SCORE",
      "outputs": [
        {
          "internalType": "uint256",
          "name": "",
          "type": "uint256"
        }
      ],
      "stateMutability": "view",
      "type": "function"
    },
    {
      "inputs": [],
      "name": "MIN_LOAN_DURATION",
      "outputs": [
        {
          "internalType": "uint256",
          "name": "",
          "type": "uint256"
        }
      ],
      "stateMutability": "view",
      "type": "function"
    },
    {
      "inputs": [
        {
          "internalType": "address",
          "name": "_contractAddress",
          "type": "address"
        },
        {
          "internalType": "string",
          "name": "_symbol",
          "type": "string"
        },
        {
          "internalType": "uint8",
          "name": "_decimals",
          "type": "uint8"
        }
      ],
      "name": "addSupportedToken",
      "outputs": [],
      "stateMutability": "nonpayable",
      "type": "function"
    },
    {
      "inputs": [
        {
          "internalType": "address",
          "name": "",
          "type": "address"
        }
      ],
      "name": "authorizedRiskOracles",
      "outputs": [
        {
          "internalType": "bool",
          "name": "",
          "type": "bool"
        }
      ],
      "stateMutability": "view",
      "type": "function"
    },
    {
      "inputs": [
        {
          "internalType": "address",
          "name": "",
          "type": "address"
        },
        {
          "internalType": "uint256",
          "name": "",
          "type": "uint256"
        }
      ],
      "name": "borrowerLoans",
      "outputs": [
        {
          "internalType": "uint256",
          "name": "",
          "type": "uint256"
        }
      ],
      "stateMutability": "view",
      "type": "function"
    },
    {
      "inputs": [
        {
          "internalType": "uint256",
          "name": "_loanId",
          "type": "uint256"
        }
      ],
      "name": "cancelLoan",
      "outputs": [],
      "stateMutability": "nonpayable",
      "type": "function"
    },
    {
      "inputs": [
        {
          "internalType": "uint256",
          "name": "_loanId",
          "type": "uint256"
        }
      ],
      "name": "claimCollateral",
      "outputs": [],
      "stateMutability": "nonpayable",
      "type": "function"
    },
    {
      "inputs": [],
      "name": "collectedFees",
      "outputs": [
        {
          "internalType": "uint256",
          "name": "",
          "type": "uint256"
        }
      ],
      "stateMutability": "view",
      "type": "function"
    },
    {
      "inputs": [
        {
          "internalType": "address",
          "name": "",
          "type": "address"
        }
      ],
      "name": "creditScores",
      "outputs": [
        {
          "internalType": "uint256",
          "name": "score",
          "type": "uint256"
        },
        {
          "internalType": "uint256",
          "name": "totalLoansCount",
          "type": "uint256"
        },
        {
          "internalType": "uint256",
          "name": "repaidLoansCount",
          "type": "uint256"
        },
        {
          "internalType": "uint256",
          "name": "defaultedLoansCount",
          "type": "uint256"
        },
        {
          "internalType": "uint256",
          "name": "totalBorrowed",
          "type": "uint256"
        },
        {
          "internalType": "uint256",
          "name": "totalRepaid",
          "type": "uint256"
        },
        {
          "internalType": "uint256",
          "name": "lastUpdated",
          "type": "uint256"
        }
      ],
      "stateMutability": "view",
      "type": "function"
    },
    {
      "inputs": [
        {
          "internalType": "uint256",
          "name": "_tokenId",
          "type": "uint256"
        }
      ],
      "name": "deactivateToken",
      "outputs": [],
      "stateMutability": "nonpayable",
      "type": "function"
    },
    {
      "inputs": [],
      "name": "feeRecipient",
      "outputs": [
        {
          "internalType": "address",
          "name": "",
          "type": "address"
        }
      ],
      "stateMutability": "view",
      "type": "function"
    },
    {
      "inputs": [
        {
          "internalType": "uint256",
          "name": "_loanId",
          "type": "uint256"
        }
      ],
      "name": "fundLoan",
      "outputs": [],
      "stateMutability": "payable",
      "type": "function"
    },
    {
      "inputs": [],
      "name": "getActiveLoanRequests",
      "outputs": [
        {
          "internalType": "uint256[]",
          "name": "",
          "type": "uint256[]"
        }
      ],
      "stateMutability": "view",
      "type": "function"
    },
    {
      "inputs": [
        {
          "internalType": "address",
          "name": "",
          "type": "address"
        },
        {
          "internalType": "uint256",
          "name": "",
          "type": "uint256"
        }
      ],
      "name": "lenderLoans",
      "outputs": [
        {
          "internalType": "uint256",
          "name": "",
          "type": "uint256"
        }
      ],
      "stateMutability": "view",
      "type": "function"
    },
    {
      "inputs": [
        {
          "internalType": "uint256",
          "name": "",
          "type": "uint256"
        }
      ],
      "name": "loans",
      "outputs": [
        {
          "internalType": "uint256",
          "name": "id",
          "type": "uint256"
        },
        {
          "internalType": "address",
          "name": "borrower",
          "type": "address"
        },
        {
          "internalType": "address",
          "name": "lender",
          "type": "address"
        },
        {
          "internalType": "uint256",
          "name": "tokenId",
          "type": "uint256"
        },
        {
          "internalType": "uint256",
          "name": "collateralTokenId",
          "type": "uint256"
        },
        {
          "internalType": "uint256",
          "name": "amount",
          "type": "uint256"
        },
        {
          "internalType": "uint256",
          "name": "collateralAmount",
          "type": "uint256"
        },
        {
          "internalType": "uint256",
          "name": "interestRate",
          "type": "uint256"
        },
        {
          "internalType": "uint256",
          "name": "duration",
          "type": "uint256"
        },
        {
          "internalType": "uint256",
          "name": "createdAt",
          "type": "uint256"
        },
        {
          "internalType": "uint256",
          "name": "fundedAt",
          "type": "uint256"
        },
        {
          "internalType": "uint256",
          "name": "dueDate",
          "type": "uint256"
        },
        {
          "internalType": "enum LoanVerse.LoanStatus",
          "name": "status",
          "type": "uint8"
        },
        {
          "internalType": "string",
          "name": "ipfsDocumentHash",
          "type": "string"
        },
        {
          "internalType": "uint256",
          "name": "riskScore",
          "type": "uint256"
        },
        {
          "internalType": "bool",
          "name": "collateralClaimed",
          "type": "bool"
        }
      ],
      "stateMutability": "view",
      "type": "function"
    },
    {
      "inputs": [],
      "name": "nextLoanId",
      "outputs": [
        {
          "internalType": "uint256",
          "name": "",
          "type": "uint256"
        }
      ],
      "stateMutability": "view",
      "type": "function"
    },
    {
      "inputs": [],
      "name": "nextTokenId",
      "outputs": [
        {
          "internalType": "uint256",
          "name": "",
          "type": "uint256"
        }
      ],
      "stateMutability": "view",
      "type": "function"
    },
    {
      "inputs": [],
      "name": "owner",
      "outputs": [
        {
          "internalType": "address",
          "name": "",
          "type": "address"
        }
      ],
      "stateMutability": "view",
      "type": "function"
    },
    {
      "inputs": [],
      "name": "pause",
      "outputs": [],
      "stateMutability": "nonpayable",
      "type": "function"
    },
    {
      "inputs": [],
      "name": "paused",
      "outputs": [
        {
          "internalType": "bool",
          "name": "",
          "type": "bool"
        }
      ],
      "stateMutability": "view",
      "type": "function"
    },
    {
      "inputs": [],
      "name": "protocolFeeRate",
      "outputs": [
        {
          "internalType": "uint256",
          "name": "",
          "type": "uint256"
        }
      ],
      "stateMutability": "view",
      "type": "function"
    },
    {
      "inputs": [],
      "name": "renounceOwnership",
      "outputs": [],
      "stateMutability": "nonpayable",
      "type": "function"
    },
    {
      "inputs": [
        {
          "internalType": "uint256",
          "name": "_loanId",
          "type": "uint256"
        }
      ],
      "name": "repayLoan",
      "outputs": [],
      "stateMutability": "payable",
      "type": "function"
    },
    {
      "inputs": [
        {
          "internalType": "uint256",
          "name": "_tokenId",
          "type": "uint256"
        },
        {
          "internalType": "uint256",
          "name": "_collateralTokenId",
          "type": "uint256"
        },
        {
          "internalType": "uint256",
          "name": "_amount",
          "type": "uint256"
        },
        {
          "internalType": "uint256",
          "name": "_interestRate",
          "type": "uint256"
        },
        {
          "internalType": "uint256",
          "name": "_duration",
          "type": "uint256"
        },
        {
          "internalType": "string",
          "name": "_ipfsDocumentHash",
          "type": "string"
        }
      ],
      "name": "requestLoan",
      "outputs": [],
      "stateMutability": "payable",
      "type": "function"
    },
    {
      "inputs": [
        {
          "internalType": "address",
          "name": "_oracle",
          "type": "address"
        },
        {
          "internalType": "bool",
          "name": "_authorized",
          "type": "bool"
        }
      ],
      "name": "setAuthorizedOracle",
      "outputs": [],
      "stateMutability": "nonpayable",
      "type": "function"
    },
    {
      "inputs": [
        {
          "internalType": "uint256",
          "name": "",
          "type": "uint256"
        }
      ],
      "name": "supportedTokens",
      "outputs": [
        {
          "internalType": "enum LoanVerse.TokenType",
          "name": "tokenType",
          "type": "uint8"
        },
        {
          "internalType": "address",
          "name": "contractAddress",
          "type": "address"
        },
        {
          "internalType": "string",
          "name": "symbol",
          "type": "string"
        },
        {
          "internalType": "uint8",
          "name": "decimals",
          "type": "uint8"
        },
        {
          "internalType": "bool",
          "name": "isActive",
          "type": "bool"
        }
      ],
      "stateMutability": "view",
      "type": "function"
    },
    {
      "inputs": [
        {
          "internalType": "address",
          "name": "newOwner",
          "type": "address"
        }
      ],
      "name": "transferOwnership",
      "outputs": [],
      "stateMutability": "nonpayable",
      "type": "function"
    },
    {
      "inputs": [],
      "name": "unpause",
      "outputs": [],
      "stateMutability": "nonpayable",
      "type": "function"
    },
    {
      "inputs": [
        {
          "internalType": "uint256",
          "name": "_loanId",
          "type": "uint256"
        },
        {
          "internalType": "uint256",
          "name": "_riskScore",
          "type": "uint256"
        }
      ],
      "name": "updateRiskScore",
      "outputs": [],
      "stateMutability": "nonpayable",
      "type": "function"
    },
    {
      "inputs": [],
      "name": "withdrawFees",
      "outputs": [],
      "stateMutability": "nonpayable",
      "type": "function"
    }
  ],
  "bytecode": "0x608060409080825234620002f15760016000918183553315620002db57508054336001600160a01b03198083168217845593916001600160a01b03167f8be0079c531659141344cd1fd0a4f28419497f9722a3daafe3b4186f6b6457e08380a381600255816003556004926032845533906005541617600555835160a0810160018060401b039082811082821117620002c85786528282526020908183019484865287519288840184811084821117620002b5578952600384526208aa8960eb1b818501528885019384526060850197601289526080860197838952878052600883528a88209651906002821015620002a25760ff885491610100600160a81b03905160081b1692169060018060a81b0319161717865582860194519081519485116200028f578554908482811c9216801562000284575b84831014620002715750601f811162000226575b5081601f8511600114620001b557509280928192600297969560ff9994620001a9575b50501b916000199060031b1c19161790555b0192511661ff0083549251151560081b169161ffff191617179055516127869081620002f78239f35b0151925038806200016e565b858852808820969795969395601f198616915b8282106200020e5750509160ff9795939185600298969410620001f4575b505050811b01905562000180565b015160001960f88460031b161c19169055388080620001e6565b808886978294978701518155019601940190620001c8565b858852828820601f860160051c81019184871062000266575b601f0160051c019084905b8281106200025a5750506200014b565b8981550184906200024a565b90915081906200023f565b634e487b7160e01b895260229052602488fd5b91607f169162000137565b634e487b7160e01b885260419052602487fd5b634e487b7160e01b895260218352602489fd5b634e487b7160e01b875260418952602487fd5b634e487b7160e01b845260418652602484fd5b631e4fbdf760e01b815260048101839052602490fd5b600080fdfe60c080604052600436101561001357600080fd5b60003560e01c9081630a49cf4d14612170575080630d0b2ca61461215157806334855d14146121345780633cdb72f1146120ea5780633f4ba83a146120785780634197dd5f14611da75780634690484014611d7e578063476343ee14611cff57806358f8588014611ce15780635c975abb14611cbb5780636eef115414611c7c578063715018a614611c1f57806375794a3c14611c015780637a9fffb714611be557806380bb727314611b6a5780638456cb5914611b08578063846b909a1461186257806387c514591461184457806389d99a05146118265780638da5cb5b146117fd5780639003adfe146117df5780639772d7ee146116d5578063ab7b1c89146112fa578063bad128b6146111e6578063bdbfa3de146110ca578063c49785b414610d83578063c625562614610cf5578063c7a6de4d14610c9c578063da69dd5914610474578063e1ec3c6814610327578063e3ed1902146102cf578063ec991da91461021d5763f2fde38b1461018a57600080fd5b34610218576020366003190112610218576101a361218b565b6101ab612374565b6001600160a01b039081169081156101ff57600154826bffffffffffffffffffffffff60a01b821617600155167f8be0079c531659141344cd1fd0a4f28419497f9722a3daafe3b4186f6b6457e0600080a3005b604051631e4fbdf760e01b815260006004820152602490fd5b600080fd5b3461021857602036600319011261021857600435610239612374565b80600052600860205260ff60026040600020015460081c161561029757806000526008602052600260406000200161ff001981541690557f76ae93cd7712c8a8b4ba0c1b9f441ddbd9e9ce3e425a93b15e8f6e37d8784fa6600080a2005b60405162461bcd60e51b815260206004820152601060248201526f546f6b656e206e6f742061637469766560801b6044820152606490fd5b34610218576040366003190112610218576102e861218b565b6001600160a01b031660009081526009602052604090208054602435919082101561021857602091610319916121a1565b90546040519160031b1c8152f35b3461021857602036600319011261021857600435600052600760205260406000208054608052600160a01b6001900380600183015416906002830154168260038101546004820154600583015460068401546007850154600886015491600987015493600a88015495600b89015497600c8a015460ff169a600d8b016103ac9061228e565b9a600e01549d600f015460ff169c6040518060a052608051905260a0516020015260a0516040015260a0516060015260a0516080015260a05160a0015260a05160c0015260a05160e0015260a051610100015260a051610120015260a051610140015260a0516101600152600682101561045e576104429161018060a0510152610200806101a060a051015260a0510190612334565b916101c060a051015215156101e060a051015260a05180910390f35b634e487b7160e01b600052602160045260246000fd5b60c03660031901126102185760a43567ffffffffffffffff8111610218576104a090369060040161220d565b6104a8612510565b6104b06124ef565b60443515610c5757610bb860643511610c195762015180608435101580610c09575b15610bd157600435600052600860205260ff60026040600020015460081c1615610b9657602435600052600860205260ff60026040600020015460081c1615610b5157805115610b175733600052600b602052604060002061012c81541090811591610b0a575b5015610ace5760443560966044350204609603610ab857602435600052600860205260ff60406000205416600281101561045e5761096d576064609660443502043410610928575b6002549061058e826123a0565b600255602435600052600860205260ff60406000205416600281101561045e5761091a57345b604051908161020081011067ffffffffffffffff61020084011117610904576102008201604052838252336020830152600060408301526004356060830152602435608083015260443560a083015260c082015260643560e082015260843561010082015242610120820152600061014082015260006101608201526000610180820152816101a082015260006101c082015260006101e0820152826000526007602052604060002090805182556001820160018060a01b039081602084015116906bffffffffffffffffffffffff60a01b9182825416179055600284019160408401511690825416179055606081015160038301556080810151600483015560a0810151600583015560c0810151600683015560e0810151600783015561010081015160088301556101208101516009830155610140810151600a830155610160810151600b830155600c8201610180820151600681101561045e5760ff801983541691161790556101a081015180519067ffffffffffffffff821161090457610742600d850154612254565b601f81116108bd575b50602090601f8311600114610843579282600f936101e0936107aa9796600092610838575b50508160011b916000199060031b1c191617600d8501555b6101c0810151600e8501550151151591019060ff801983541691151516179055565b3360005260096020526107c1826040600020612404565b8160005260076020526006604060002001549160405192604435845260208401526064356040840152608435606084015260a060808401527f05cb01012dbded0c72d8576b4aef55d60d8e2824466ac6f54f7822cc1ddb6af3600435938061082e339560a0830190612334565b0390a46001600055005b015190508980610770565b90600d850160005260206000209160005b601f19851681106108a55750836101e0936107aa979693600193600f97601f1981161061088c575b505050811b01600d850155610788565b015160001960f88460031b161c1916905589808061087c565b91926020600181928685015181550194019201610854565b600d85016000526020600020601f840160051c8101602085106108fd575b601f830160051c820181106108f157505061074b565b600081556001016108db565b50806108db565b634e487b7160e01b600052604160045260246000fd5b6064609660443502046105b4565b60405162461bcd60e51b815260206004820152601b60248201527f496e73756666696369656e742045544820636f6c6c61746572616c00000000006044820152606490fd5b34610a6757602435600052600860205260018060a01b0360406000205460081c166040516370a0823160e01b8152336004820152602081602481855afa908115610a5b57600091610a29575b50606460966044350204116109e4576109df90606460966044350204903090339061243e565b610581565b60405162461bcd60e51b815260206004820152601a60248201527f496e73756666696369656e742045524332302062616c616e63650000000000006044820152606490fd5b90506020813d602011610a53575b81610a44602093836121cf565b810103126102185751836109b9565b3d9150610a37565b6040513d6000823e3d90fd5b60405162461bcd60e51b815260206004820152602360248201527f455448206e6f74206e656564656420666f7220455243323020636f6c6c6174656044820152621c985b60ea1b6064820152608490fd5b634e487b7160e01b600052601160045260246000fd5b60405162461bcd60e51b81526020600482015260146024820152734372656469742073636f726520746f6f206c6f7760601b6044820152606490fd5b6001915001541582610539565b60405162461bcd60e51b815260206004820152601260248201527112541194c81a185cda081c995c5d5a5c995960721b6044820152606490fd5b60405162461bcd60e51b815260206004820152601e60248201527f436f6c6c61746572616c20746f6b656e206e6f7420737570706f7274656400006044820152606490fd5b60405162461bcd60e51b8152602060048201526013602482015272151bdad95b881b9bdd081cdd5c1c1bdc9d1959606a1b6044820152606490fd5b60405162461bcd60e51b815260206004820152601060248201526f24b73b30b634b210323ab930ba34b7b760811b6044820152606490fd5b506301e1338060843511156104d2565b60405162461bcd60e51b8152602060048201526016602482015275092dce8cae4cae6e840e4c2e8ca40e8dede40d0d2ced60531b6044820152606490fd5b60405162461bcd60e51b815260206004820152601d60248201527f416d6f756e74206d7573742062652067726561746572207468616e20300000006044820152606490fd5b3461021857604036600319011261021857610cb561218b565b602435801515810361021857610cf391610ccd612374565b60018060a01b0316600052600c60205260406000209060ff801983541691151516179055565b005b34610218576020366003190112610218576004356000526008602052604060002080549060ff8216916002610d2c6001840161228e565b9201549060405193600281101561045e57845260081c6001600160a01b0316602084015260a060408401819052839260ff91610d6b9190850190612334565b91818116606085015260081c16151560808301520390f35b34610218576020806003193601126102185760043590610da1612510565b81600052600781526040600020906002820160018060a01b0390818154169033820361108d57600c8501805460ff8116600681101561045e576001610de69114612570565b600b87015442111561105557600f87019182549060ff821661101e5760ff1992831660031790551660011790556004850154600081815260088652604090205460ff169290600284101561045e578493610ff35750506000808093819354166006880154905af1610e55612540565b5015610fae575b6001830154169182600052600b825260406000209260018401610e8581548015610fa4576123a0565b905542600685015560038401610e9b81546123a0565b90558354936032851115610f54576031198501948511610ab857837f79c012a0cfae660e09134956bc432c8497ec80e86a3a108d130e8b3fca52b3ad917f1f088c41722ad237885281d65d2ff9fb69db65ca083e2760e3d1b4788748aa579661012c90818110600014610f4d57505b80915b55604051908152a2600660405191857f0789b7097e8066538cfaa1132488b132e14ba5f0c938c8b7aaf8cf40356aab0b600080a201548152a26001600055005b9050610f0a565b7f1f088c41722ad237885281d65d2ff9fb69db65ca083e2760e3d1b4788748aa579450837f79c012a0cfae660e09134956bc432c8497ec80e86a3a108d130e8b3fca52b3ad9161012c8091610f0d565b61023f87556123a0565b60405162461bcd60e51b815260048101839052601a60248201527f436f6c6c61746572616c207472616e73666572206661696c65640000000000006044820152606490fd5b9091506110199250600052600884528260406000205460081c16906006860154916125bb565b610e5c565b60405162461bcd60e51b815260048101899052600f60248201526e105b1c9958591e4818db185a5b5959608a1b6044820152606490fd5b60405162461bcd60e51b815260048101879052601060248201526f131bd85b881b9bdd08195e1c1a5c995960821b6044820152606490fd5b60405162461bcd60e51b81526004810185905260156024820152744f6e6c79206c656e6465722063616e20636c61696d60581b6044820152606490fd5b34610218576020366003190112610218576004356110e6612510565b600081815260076020526040902060018101546001600160a01b031633036111a157600c01805460ff8116600681101561045e5761115c5760ff191660041790556111308161260b565b7fb71becc91961a6b43bcc5b3b630f3dce02c7fd444cf3738c4f188062b1caf5bc600080a26001600055005b60405162461bcd60e51b815260206004820152601e60248201527f43616e206f6e6c792063616e63656c20756e66756e646564206c6f616e7300006044820152606490fd5b60405162461bcd60e51b815260206004820152601860248201527f4f6e6c7920626f72726f7765722063616e2063616e63656c00000000000000006044820152606490fd5b346102185760403660031901126102185760043560243533600052602090600c825260ff60406000205416156112bd576103e881116112835760008381526007835260409020600101547f48adb4acae9076e27f3dd76aae95808bb8f40caf101b9d074b3b89e67602cc4f929190611268906001600160a01b031615156123af565b836000526007825280600e60406000200155604051908152a2005b60405162461bcd60e51b8152600481018390526012602482015271496e76616c6964207269736b2073636f726560701b6044820152606490fd5b60405162461bcd60e51b81526004810183905260156024820152744e6f7420617574686f72697a6564206f7261636c6560581b6044820152606490fd5b6020806003193601126102185760043590611313612510565b81600052600781526040600020906001820160018060a01b039081815416330361169057600c840180549460ff8616600681101561045e5760016113579114612570565b600b810154421161165c576005810154916127109060026113a9836113806007870154886123f1565b049361138e600454866123f1565b04936113a38561139e838a612533565b6125ae565b96612533565b9860ff19161790556113bd81600654612533565b6006556003820154806000526008875260ff60406000205416600281101561045e576115b957505085341061157b57600080809386600283950154165af1611403612540565b5015611536578334116114db575b61141a8561260b565b54169182600052600b82526040600020926001840161143f81548015610fa4576123a0565b90554260068501556002840161145581546123a0565b9055835493600a8501809511610ab857837f79c012a0cfae660e09134956bc432c8497ec80e86a3a108d130e8b3fca52b3ad917f040cee90ee4799897c30ca04e5feb6fa43dbba9b6d084b4b257cdafd84ba013e96610352908181116000146114d2575080915b55604051908152a2604051908152a26001600055005b905080916114bc565b60008080806114ea88346125ae565b335af16114f5612540565b506114115760405162461bcd60e51b8152600481018490526014602482015273115e18d95cdcc81c995d1d5c9b8819985a5b195960621b6044820152606490fd5b60405162461bcd60e51b815260048101849052601960248201527f5472616e7366657220746f206c656e646572206661696c6564000000000000006044820152606490fd5b60405162461bcd60e51b8152600481018690526016602482015275125b9cdd59999a58da595b9d081c995c185e5b595b9d60521b6044820152606490fd5b929091923461160c57906115e791600052600887528560028160406000205460081c1695015416338561243e565b806115f4575b5050611411565b61160591846005541690339061243e565b85806115ed565b60405162461bcd60e51b815260048101889052602260248201527f455448206e6f74206e656564656420666f722045524332302072657061796d656044820152611b9d60f21b6064820152608490fd5b60405162461bcd60e51b815260048101869052600c60248201526b131bd85b88195e1c1a5c995960a21b6044820152606490fd5b60405162461bcd60e51b815260048101849052601760248201527f4f6e6c7920626f72726f7765722063616e2072657061790000000000000000006044820152606490fd5b34610218576000366003190112610218576002546000198101818111610ab8576116fe9061270a565b90600091600191825b81811061178c5750506117198361270a565b9260005b818110611763575050506040519060208083018184528451809152816040850195019160005b8281106117505785870386f35b8351875295810195928101928401611743565b806117736117849285979561273c565b5161177e828661273c565b526123a0565b93919361171d565b80600095939552600760205260ff600c6040600020015416600681101561045e57156117c4575b6117bc906123a0565b939193611707565b916117d7818461177e6117bc948961273c565b9290506117b3565b34610218576000366003190112610218576020600654604051908152f35b34610218576000366003190112610218576001546040516001600160a01b039091168152602090f35b34610218576000366003190112610218576020604051620151808152f35b34610218576000366003190112610218576020600254604051908152f35b602080600319360112610218576004359061187b612510565b6118836124ef565b6000828152600782526040902060018101805490916001600160a01b039182166118ae8115156123af565b600c82019081549060ff8216600681101561045e57611ace573314611a92576002830180546001600160a01b0319163317905560ff1916600117905542600a8201819055600882015461190091612533565b600b82015533600052600a845261191b856040600020612404565b6003810154806000526008855260ff60406000205416600281101561045e57611a15575060050154918234036119d957600080938193829354165af161195f612540565b501561199557505b33907f15feab5d3eb17171632762cf769709a315dd15f487a556c0dfb8a259c8f186cc600080a36001600055005b6064906040519062461bcd60e51b82526004820152601b60248201527f5472616e7366657220746f20626f72726f776572206661696c656400000000006044820152fd5b60405162461bcd60e51b8152600481018590526014602482015273125b98dbdc9c9958dd0811551208185b5bdd5b9d60621b6044820152606490fd5b94939491909134611a4d57906008611a489596600593600052528060406000205460081c1693541691015491339061243e565b611967565b60405162461bcd60e51b815260048101879052601d60248201527f455448206e6f74206e656564656420666f72204552433230206c6f616e0000006044820152606490fd5b60405162461bcd60e51b815260048101879052601460248201527321b0b73737ba10333ab7321037bbb7103637b0b760611b6044820152606490fd5b60405162461bcd60e51b81526004810188905260126024820152714c6f616e206e6f7420617661696c61626c6560701b6044820152606490fd5b3461021857600036600319011261021857611b21612374565b611b296124ef565b6001805460ff60a01b1916600160a01b1790556040513381527f62e78cea01bee320cd4e420270b5ea74000d11b0c9f74754ebdbfc544b05a25890602090a1005b34610218576020366003190112610218576001600160a01b03611b8b61218b565b16600052600b60205260e06040600020805490600181015490600281015460038201546004830154916006600585015494015494604051968752602087015260408601526060850152608084015260a083015260c0820152f35b3461021857600036600319011261021857602060405160968152f35b34610218576000366003190112610218576020600354604051908152f35b3461021857600036600319011261021857611c38612374565b600180546001600160a01b031981169091556000906001600160a01b03167f8be0079c531659141344cd1fd0a4f28419497f9722a3daafe3b4186f6b6457e08280a3005b34610218576020366003190112610218576001600160a01b03611c9d61218b565b16600052600c602052602060ff604060002054166040519015158152f35b3461021857600036600319011261021857602060ff60015460a01c166040519015158152f35b34610218576000366003190112610218576020600454604051908152f35b3461021857600036600319011261021857611d18612374565b60008080806006548160065560018060a01b03600554165af1611d39612540565b5015611d4157005b60405162461bcd60e51b8152602060048201526015602482015274119959481dda5d1a191c985dd85b0819985a5b1959605a1b6044820152606490fd5b34610218576000366003190112610218576005546040516001600160a01b039091168152602090f35b3461021857606036600319011261021857611dc061218b565b67ffffffffffffffff9060243582811161021857611de290369060040161220d565b9060443560ff811680910361021857611df9612374565b6001600160a01b03821615612033576040519060a0820182811086821117610904576040526001808352602083019060018060a01b03851682526040840192868452606085015260808401928184526003546000526008602052604060002092855190600282101561045e5760ff855491610100600160a81b03905160081b169216906affffffffffffffffffffff60a81b16171783555196875190811161090457611ea782840154612254565b601f8111611fe6575b506020601f8211600114611f6a57611f52979695949360ff9383606094600294611f5a9d600092611f5f575b5050600019600383901b1c191690821b17908201555b019301511661ff0083549251151560081b169161ffff1916171790557ff44669d0bb138c4a68242ff532894ffef642d66c50c06f585e3ef61302971e4a6003549384926040519182916020835260018060a01b0316956020830190612334565b0390a36123a0565b600355005b015190508d80611edc565b82840160005260206000209860005b601f1984168110611fd05750938360ff9484611f5a9c600295611f529d9c9b9a99606098601f19811610611fb7575b505050811b0190820155611ef2565b015160001960f88460031b161c191690558d8080611fa8565b828201518b559984019960209283019201611f79565b8284016000526020600020601f830160051c81019160208410612029575b601f0160051c019083905b82811061201d575050611eb0565b6000815501839061200f565b9091508190612004565b60405162461bcd60e51b815260206004820152601860248201527f496e76616c696420636f6e7472616374206164647265737300000000000000006044820152606490fd5b3461021857600036600319011261021857612091612374565b60015460ff8160a01c16156120d85760ff60a01b19166001556040513381527f5db9ee0a495bf2e6ff9c91a7834c1ba4fdd244a5e8aa4e537bd38aeae4b073aa90602090a1005b604051638dfc202b60e01b8152600490fd5b346102185760403660031901126102185761210361218b565b6001600160a01b03166000908152600a602052604090208054602435919082101561021857602091610319916121a1565b34610218576000366003190112610218576020604051610bb88152f35b346102185760003660031901126102185760206040516301e133808152f35b34610218576000366003190112610218578061012c60209252f35b600435906001600160a01b038216820361021857565b80548210156121b95760005260206000200190600090565b634e487b7160e01b600052603260045260246000fd5b90601f8019910116810190811067ffffffffffffffff82111761090457604052565b67ffffffffffffffff811161090457601f01601f191660200190565b81601f8201121561021857803590612224826121f1565b9261223260405194856121cf565b8284526020838301011161021857816000926020809301838601378301015290565b90600182811c92168015612284575b602083101461226e57565b634e487b7160e01b600052602260045260246000fd5b91607f1691612263565b90604051918260008254926122a284612254565b90818452600194858116908160001461231157506001146122ce575b50506122cc925003836121cf565b565b9093915060005260209081600020936000915b8183106122f95750506122cc935082010138806122be565b855488840185015294850194879450918301916122e1565b9150506122cc94506020925060ff191682840152151560051b82010138806122be565b919082519283825260005b848110612360575050826000602080949584010152601f8019910116010190565b60208183018101518483018201520161233f565b6001546001600160a01b0316330361238857565b60405163118cdaa760e01b8152336004820152602490fd5b6000198114610ab85760010190565b156123b657565b60405162461bcd60e51b8152602060048201526013602482015272131bd85b88191bd95cc81b9bdd08195e1a5cdd606a1b6044820152606490fd5b81810292918115918404141715610ab857565b80546801000000000000000081101561090457612426916001820181556121a1565b819291549060031b91821b91600019901b1916179055565b6040516323b872dd60e01b60208201526001600160a01b03928316602482015292909116604483015260648083019390935291815260a081019181831067ffffffffffffffff841117610904576122cc926040525b906000602091828151910182855af115610a5b576000513d6124e657506001600160a01b0381163b155b6124c45750565b604051635274afe760e01b81526001600160a01b039091166004820152602490fd5b600114156124bd565b60ff60015460a01c166124fe57565b60405163d93c066560e01b8152600490fd5b600260005414612521576002600055565b604051633ee5aeb560e01b8152600490fd5b91908201809211610ab857565b3d1561256b573d90612551826121f1565b9161255f60405193846121cf565b82523d6000602084013e565b606090565b1561257757565b60405162461bcd60e51b815260206004820152600f60248201526e4c6f616e206e6f742061637469766560881b6044820152606490fd5b91908203918211610ab857565b60405163a9059cbb60e01b60208201526001600160a01b039092166024830152604480830193909352918152608081019167ffffffffffffffff831182841017610904576122cc92604052612493565b60009081526007602052604081206004810154808352600860205260ff60408420541660028110156126de576126ad575060018101546006909101548291829182916001600160a01b03165af1612660612540565b501561266857565b60405162461bcd60e51b815260206004820152601860248201527f436f6c6c61746572616c2072657475726e206661696c656400000000000000006044820152606490fd5b906006836040936122cc9552600860205260018060a01b03938491205460081c1692600183015416910154916125bb565b634e487b7160e01b84526021600452602484fd5b67ffffffffffffffff81116109045760051b60200190565b90612714826126f2565b61272160405191826121cf565b8281528092612732601f19916126f2565b0190602036910137565b80518210156121b95760209160051b01019056fea264697066735822122039818d887ebf781fb76a4a3b60157d171f5f72c3b0d1a1551c5a2f0e6a588a6d64736f6c63430008140033",
  "linkReferences": {},
  "deployedLinkReferences": {}
}